{
  "address": "0xB92E0A6E56d60aeD6B99c21350D9DE56cA8c648f",
  "abi": [
    {
      "inputs": [
        {
          "internalType": "contract IPriceFeed",
          "name": "priceFeedOne_",
          "type": "address"
        },
        {
          "internalType": "contract IPriceFeed",
          "name": "priceFeedTwo_",
          "type": "address"
        }
      ],
      "stateMutability": "nonpayable",
      "type": "constructor"
    },
    {
      "inputs": [],
      "name": "baseUnit",
      "outputs": [
        {
          "internalType": "uint256",
          "name": "",
          "type": "uint256"
        }
      ],
      "stateMutability": "view",
      "type": "function"
    },
    {
      "inputs": [],
      "name": "decimals",
      "outputs": [
        {
          "internalType": "uint8",
          "name": "",
          "type": "uint8"
        }
      ],
      "stateMutability": "view",
      "type": "function"
    },
    {
      "inputs": [],
      "name": "latestAnswer",
      "outputs": [
        {
          "internalType": "int256",
          "name": "",
          "type": "int256"
        }
      ],
      "stateMutability": "view",
      "type": "function"
    },
    {
      "inputs": [],
      "name": "priceFeedOne",
      "outputs": [
        {
          "internalType": "contract IPriceFeed",
          "name": "",
          "type": "address"
        }
      ],
      "stateMutability": "view",
      "type": "function"
    },
    {
      "inputs": [],
      "name": "priceFeedTwo",
      "outputs": [
        {
          "internalType": "contract IPriceFeed",
          "name": "",
          "type": "address"
        }
      ],
      "stateMutability": "view",
      "type": "function"
    }
  ],
  "transactionHash": "0x4f877afa0c800a832a777e38fa64c8f9226273dc1b6e74d7584a210ca2df278c",
  "args": [
    "0xdeb288F737066589598e9214E782fa5A8eD689e8",
    "0xfdFD9C85aD200c506Cf9e21F1FD8dd01932FBB23"
  ],
  "numDeployments": 1,
  "solcInputHash": "b24fc558e2ae1413480c8d31a3c21364",
  "bytecode": "0x61010060405234801561001157600080fd5b506040516105dd3803806105dd83398101604081905261003091610149565b6001600160a01b03821660808190526040805163313ce56760e01b8152905163313ce567916004808201926020929091908290030181865afa15801561007a573d6000803e3d6000fd5b505050506040513d601f19601f8201168201806040525081019061009e919061017c565b60ff1660a08160ff1681525050806001600160a01b031663313ce5676040518163ffffffff1660e01b8152600401602060405180830381865afa1580156100e9573d6000803e3d6000fd5b505050506040513d601f19601f8201168201806040525081019061010d919061017c565b61011890600a6102a2565b60e0526001600160a01b031660c052506102b1565b80516001600160a01b038116811461014457600080fd5b919050565b6000806040838503121561015c57600080fd5b6101658361012d565b91506101736020840161012d565b90509250929050565b60006020828403121561018e57600080fd5b815160ff8116811461019f57600080fd5b9392505050565b634e487b7160e01b600052601160045260246000fd5b600181815b808511156101f75781600019048211156101dd576101dd6101a6565b808516156101ea57918102915b93841c93908002906101c1565b509250929050565b60008261020e5750600161029c565b8161021b5750600061029c565b8160018114610231576002811461023b57610257565b600191505061029c565b60ff84111561024c5761024c6101a6565b50506001821b61029c565b5060208310610133831016604e8410600b841016171561027a575081810a61029c565b61028483836101bc565b8060001904821115610298576102986101a6565b0290505b92915050565b600061019f60ff8416836101ff565b60805160a05160c05160e0516102e16102fc6000396000818161011b01526101c601526000818160b5015261014401526000606101526000818160f401526101e701526102e16000f3fe608060405234801561001057600080fd5b50600436106100575760003560e01c8063313ce5671461005c57806350d25bcd1461009a57806380684e25146100b05780638fa537a4146100ef578063c2930f9114610116575b600080fd5b6100837f000000000000000000000000000000000000000000000000000000000000000081565b60405160ff90911681526020015b60405180910390f35b6100a261013d565b604051908152602001610091565b6100d77f000000000000000000000000000000000000000000000000000000000000000081565b6040516001600160a01b039091168152602001610091565b6100d77f000000000000000000000000000000000000000000000000000000000000000081565b6100a27f000000000000000000000000000000000000000000000000000000000000000081565b600061026e7f00000000000000000000000000000000000000000000000000000000000000006001600160a01b03166350d25bcd6040518163ffffffff1660e01b8152600401602060405180830381865afa1580156101a0573d6000803e3d6000fd5b505050506040513d601f19601f820116820180604052508101906101c49190610292565b7f00000000000000000000000000000000000000000000000000000000000000007f00000000000000000000000000000000000000000000000000000000000000006001600160a01b03166350d25bcd6040518163ffffffff1660e01b8152600401602060405180830381865afa158015610243573d6000803e3d6000fd5b505050506040513d601f19601f820116820180604052508101906102679190610292565b9190610273565b905090565b82820281151584158583048514171661028b57600080fd5b0492915050565b6000602082840312156102a457600080fd5b505191905056fea2646970667358221220720aefc5a3d0e6b6ff19cf1f30179482082aff9e29de4fa28d12d38b127ad2dc64736f6c63430008110033",
  "devdoc": {
    "kind": "dev",
    "methods": {},
    "version": 1
  },
  "userdoc": {
    "kind": "user",
    "methods": {
      "baseUnit()": {
        "notice": "Base units that are used to normalize the answer when multiplying by the second price feed rate."
      },
      "decimals()": {
        "notice": "Number of decimals that the answer of this price feed has."
      },
      "latestAnswer()": {
        "notice": "Returns the price feed's latest value considering the other price feed's rate."
      },
      "priceFeedOne()": {
        "notice": "Main price feed where the price is fetched from."
      },
      "priceFeedTwo()": {
        "notice": "Second price feed where the asset's rate is fetched from."
      }
    },
    "version": 1
  },
  "storageLayout": {
    "storage": [],
    "types": null
  }
}