{
  "address": "0x3f55a319d2fd003F87a96C1c3484121936243c46",
  "abi": [
    {
      "inputs": [
        {
          "internalType": "uint256",
          "name": "priceDecimals_",
          "type": "uint256"
        }
      ],
      "stateMutability": "nonpayable",
      "type": "constructor"
    },
    {
      "inputs": [],
      "name": "AuditorMismatch",
      "type": "error"
    },
    {
      "inputs": [],
      "name": "InsufficientAccountLiquidity",
      "type": "error"
    },
    {
      "inputs": [],
      "name": "InsufficientShortfall",
      "type": "error"
    },
    {
      "inputs": [],
      "name": "InvalidPrice",
      "type": "error"
    },
    {
      "inputs": [],
      "name": "InvalidPriceFeed",
      "type": "error"
    },
    {
      "inputs": [],
      "name": "MarketAlreadyListed",
      "type": "error"
    },
    {
      "inputs": [],
      "name": "MarketNotListed",
      "type": "error"
    },
    {
      "inputs": [],
      "name": "NotMarket",
      "type": "error"
    },
    {
      "inputs": [],
      "name": "RemainingDebt",
      "type": "error"
    },
    {
      "anonymous": false,
      "inputs": [
        {
          "indexed": true,
          "internalType": "contract Market",
          "name": "market",
          "type": "address"
        },
        {
          "indexed": false,
          "internalType": "uint256",
          "name": "adjustFactor",
          "type": "uint256"
        }
      ],
      "name": "AdjustFactorSet",
      "type": "event"
    },
    {
      "anonymous": false,
      "inputs": [
        {
          "indexed": false,
          "internalType": "uint8",
          "name": "version",
          "type": "uint8"
        }
      ],
      "name": "Initialized",
      "type": "event"
    },
    {
      "anonymous": false,
      "inputs": [
        {
          "components": [
            {
              "internalType": "uint128",
              "name": "liquidator",
              "type": "uint128"
            },
            {
              "internalType": "uint128",
              "name": "lenders",
              "type": "uint128"
            }
          ],
          "indexed": false,
          "internalType": "struct Auditor.LiquidationIncentive",
          "name": "liquidationIncentive",
          "type": "tuple"
        }
      ],
      "name": "LiquidationIncentiveSet",
      "type": "event"
    },
    {
      "anonymous": false,
      "inputs": [
        {
          "indexed": true,
          "internalType": "contract Market",
          "name": "market",
          "type": "address"
        },
        {
          "indexed": true,
          "internalType": "address",
          "name": "account",
          "type": "address"
        }
      ],
      "name": "MarketEntered",
      "type": "event"
    },
    {
      "anonymous": false,
      "inputs": [
        {
          "indexed": true,
          "internalType": "contract Market",
          "name": "market",
          "type": "address"
        },
        {
          "indexed": true,
          "internalType": "address",
          "name": "account",
          "type": "address"
        }
      ],
      "name": "MarketExited",
      "type": "event"
    },
    {
      "anonymous": false,
      "inputs": [
        {
          "indexed": true,
          "internalType": "contract Market",
          "name": "market",
          "type": "address"
        },
        {
          "indexed": false,
          "internalType": "uint8",
          "name": "decimals",
          "type": "uint8"
        }
      ],
      "name": "MarketListed",
      "type": "event"
    },
    {
      "anonymous": false,
      "inputs": [
        {
          "indexed": true,
          "internalType": "contract Market",
          "name": "market",
          "type": "address"
        },
        {
          "indexed": true,
          "internalType": "contract IPriceFeed",
          "name": "priceFeed",
          "type": "address"
        }
      ],
      "name": "PriceFeedSet",
      "type": "event"
    },
    {
      "anonymous": false,
      "inputs": [
        {
          "indexed": true,
          "internalType": "bytes32",
          "name": "role",
          "type": "bytes32"
        },
        {
          "indexed": true,
          "internalType": "bytes32",
          "name": "previousAdminRole",
          "type": "bytes32"
        },
        {
          "indexed": true,
          "internalType": "bytes32",
          "name": "newAdminRole",
          "type": "bytes32"
        }
      ],
      "name": "RoleAdminChanged",
      "type": "event"
    },
    {
      "anonymous": false,
      "inputs": [
        {
          "indexed": true,
          "internalType": "bytes32",
          "name": "role",
          "type": "bytes32"
        },
        {
          "indexed": true,
          "internalType": "address",
          "name": "account",
          "type": "address"
        },
        {
          "indexed": true,
          "internalType": "address",
          "name": "sender",
          "type": "address"
        }
      ],
      "name": "RoleGranted",
      "type": "event"
    },
    {
      "anonymous": false,
      "inputs": [
        {
          "indexed": true,
          "internalType": "bytes32",
          "name": "role",
          "type": "bytes32"
        },
        {
          "indexed": true,
          "internalType": "address",
          "name": "account",
          "type": "address"
        },
        {
          "indexed": true,
          "internalType": "address",
          "name": "sender",
          "type": "address"
        }
      ],
      "name": "RoleRevoked",
      "type": "event"
    },
    {
      "inputs": [],
      "name": "ASSETS_THRESHOLD",
      "outputs": [
        {
          "internalType": "uint256",
          "name": "",
          "type": "uint256"
        }
      ],
      "stateMutability": "view",
      "type": "function"
    },
    {
      "inputs": [],
      "name": "BASE_FEED",
      "outputs": [
        {
          "internalType": "address",
          "name": "",
          "type": "address"
        }
      ],
      "stateMutability": "view",
      "type": "function"
    },
    {
      "inputs": [],
      "name": "DEFAULT_ADMIN_ROLE",
      "outputs": [
        {
          "internalType": "bytes32",
          "name": "",
          "type": "bytes32"
        }
      ],
      "stateMutability": "view",
      "type": "function"
    },
    {
      "inputs": [],
      "name": "TARGET_HEALTH",
      "outputs": [
        {
          "internalType": "uint256",
          "name": "",
          "type": "uint256"
        }
      ],
      "stateMutability": "view",
      "type": "function"
    },
    {
      "inputs": [
        {
          "internalType": "address",
          "name": "account",
          "type": "address"
        },
        {
          "internalType": "contract Market",
          "name": "marketToSimulate",
          "type": "address"
        },
        {
          "internalType": "uint256",
          "name": "withdrawAmount",
          "type": "uint256"
        }
      ],
      "name": "accountLiquidity",
      "outputs": [
        {
          "internalType": "uint256",
          "name": "sumCollateral",
          "type": "uint256"
        },
        {
          "internalType": "uint256",
          "name": "sumDebtPlusEffects",
          "type": "uint256"
        }
      ],
      "stateMutability": "view",
      "type": "function"
    },
    {
      "inputs": [
        {
          "internalType": "address",
          "name": "",
          "type": "address"
        }
      ],
      "name": "accountMarkets",
      "outputs": [
        {
          "internalType": "uint256",
          "name": "",
          "type": "uint256"
        }
      ],
      "stateMutability": "view",
      "type": "function"
    },
    {
      "inputs": [],
      "name": "allMarkets",
      "outputs": [
        {
          "internalType": "contract Market[]",
          "name": "",
          "type": "address[]"
        }
      ],
      "stateMutability": "view",
      "type": "function"
    },
    {
      "inputs": [
        {
          "internalType": "contract IPriceFeed",
          "name": "priceFeed",
          "type": "address"
        }
      ],
      "name": "assetPrice",
      "outputs": [
        {
          "internalType": "uint256",
          "name": "",
          "type": "uint256"
        }
      ],
      "stateMutability": "view",
      "type": "function"
    },
    {
      "inputs": [
        {
          "internalType": "contract Market",
          "name": "repayMarket",
          "type": "address"
        },
        {
          "internalType": "contract Market",
          "name": "seizeMarket",
          "type": "address"
        },
        {
          "internalType": "address",
          "name": "borrower",
          "type": "address"
        },
        {
          "internalType": "uint256",
          "name": "actualRepayAssets",
          "type": "uint256"
        }
      ],
      "name": "calculateSeize",
      "outputs": [
        {
          "internalType": "uint256",
          "name": "lendersAssets",
          "type": "uint256"
        },
        {
          "internalType": "uint256",
          "name": "seizeAssets",
          "type": "uint256"
        }
      ],
      "stateMutability": "view",
      "type": "function"
    },
    {
      "inputs": [
        {
          "internalType": "contract Market",
          "name": "market",
          "type": "address"
        },
        {
          "internalType": "address",
          "name": "borrower",
          "type": "address"
        }
      ],
      "name": "checkBorrow",
      "outputs": [],
      "stateMutability": "nonpayable",
      "type": "function"
    },
    {
      "inputs": [
        {
          "internalType": "contract Market",
          "name": "repayMarket",
          "type": "address"
        },
        {
          "internalType": "contract Market",
          "name": "seizeMarket",
          "type": "address"
        },
        {
          "internalType": "address",
          "name": "borrower",
          "type": "address"
        },
        {
          "internalType": "uint256",
          "name": "maxLiquidatorAssets",
          "type": "uint256"
        }
      ],
      "name": "checkLiquidation",
      "outputs": [
        {
          "internalType": "uint256",
          "name": "maxRepayAssets",
          "type": "uint256"
        }
      ],
      "stateMutability": "view",
      "type": "function"
    },
    {
      "inputs": [
        {
          "internalType": "contract Market",
          "name": "repayMarket",
          "type": "address"
        },
        {
          "internalType": "contract Market",
          "name": "seizeMarket",
          "type": "address"
        }
      ],
      "name": "checkSeize",
      "outputs": [],
      "stateMutability": "view",
      "type": "function"
    },
    {
      "inputs": [
        {
          "internalType": "contract Market",
          "name": "market",
          "type": "address"
        },
        {
          "internalType": "address",
          "name": "account",
          "type": "address"
        },
        {
          "internalType": "uint256",
          "name": "amount",
          "type": "uint256"
        }
      ],
      "name": "checkShortfall",
      "outputs": [],
      "stateMutability": "view",
      "type": "function"
    },
    {
      "inputs": [
        {
          "internalType": "contract Market",
          "name": "market",
          "type": "address"
        },
        {
          "internalType": "contract IPriceFeed",
          "name": "priceFeed",
          "type": "address"
        },
        {
          "internalType": "uint128",
          "name": "adjustFactor",
          "type": "uint128"
        }
      ],
      "name": "enableMarket",
      "outputs": [],
      "stateMutability": "nonpayable",
      "type": "function"
    },
    {
      "inputs": [
        {
          "internalType": "contract Market",
          "name": "market",
          "type": "address"
        }
      ],
      "name": "enterMarket",
      "outputs": [],
      "stateMutability": "nonpayable",
      "type": "function"
    },
    {
      "inputs": [
        {
          "internalType": "contract Market",
          "name": "market",
          "type": "address"
        }
      ],
      "name": "exitMarket",
      "outputs": [],
      "stateMutability": "nonpayable",
      "type": "function"
    },
    {
      "inputs": [
        {
          "internalType": "bytes32",
          "name": "role",
          "type": "bytes32"
        }
      ],
      "name": "getRoleAdmin",
      "outputs": [
        {
          "internalType": "bytes32",
          "name": "",
          "type": "bytes32"
        }
      ],
      "stateMutability": "view",
      "type": "function"
    },
    {
      "inputs": [
        {
          "internalType": "bytes32",
          "name": "role",
          "type": "bytes32"
        },
        {
          "internalType": "address",
          "name": "account",
          "type": "address"
        }
      ],
      "name": "grantRole",
      "outputs": [],
      "stateMutability": "nonpayable",
      "type": "function"
    },
    {
      "inputs": [
        {
          "internalType": "address",
          "name": "account",
          "type": "address"
        }
      ],
      "name": "handleBadDebt",
      "outputs": [],
      "stateMutability": "nonpayable",
      "type": "function"
    },
    {
      "inputs": [
        {
          "internalType": "bytes32",
          "name": "role",
          "type": "bytes32"
        },
        {
          "internalType": "address",
          "name": "account",
          "type": "address"
        }
      ],
      "name": "hasRole",
      "outputs": [
        {
          "internalType": "bool",
          "name": "",
          "type": "bool"
        }
      ],
      "stateMutability": "view",
      "type": "function"
    },
    {
      "inputs": [
        {
          "components": [
            {
              "internalType": "uint128",
              "name": "liquidator",
              "type": "uint128"
            },
            {
              "internalType": "uint128",
              "name": "lenders",
              "type": "uint128"
            }
          ],
          "internalType": "struct Auditor.LiquidationIncentive",
          "name": "liquidationIncentive_",
          "type": "tuple"
        }
      ],
      "name": "initialize",
      "outputs": [],
      "stateMutability": "nonpayable",
      "type": "function"
    },
    {
      "inputs": [],
      "name": "liquidationIncentive",
      "outputs": [
        {
          "internalType": "uint128",
          "name": "liquidator",
          "type": "uint128"
        },
        {
          "internalType": "uint128",
          "name": "lenders",
          "type": "uint128"
        }
      ],
      "stateMutability": "view",
      "type": "function"
    },
    {
      "inputs": [
        {
          "internalType": "uint256",
          "name": "",
          "type": "uint256"
        }
      ],
      "name": "marketList",
      "outputs": [
        {
          "internalType": "contract Market",
          "name": "",
          "type": "address"
        }
      ],
      "stateMutability": "view",
      "type": "function"
    },
    {
      "inputs": [
        {
          "internalType": "contract Market",
          "name": "",
          "type": "address"
        }
      ],
      "name": "markets",
      "outputs": [
        {
          "internalType": "uint128",
          "name": "adjustFactor",
          "type": "uint128"
        },
        {
          "internalType": "uint8",
          "name": "decimals",
          "type": "uint8"
        },
        {
          "internalType": "uint8",
          "name": "index",
          "type": "uint8"
        },
        {
          "internalType": "bool",
          "name": "isListed",
          "type": "bool"
        },
        {
          "internalType": "contract IPriceFeed",
          "name": "priceFeed",
          "type": "address"
        }
      ],
      "stateMutability": "view",
      "type": "function"
    },
    {
      "inputs": [],
      "name": "priceDecimals",
      "outputs": [
        {
          "internalType": "uint256",
          "name": "",
          "type": "uint256"
        }
      ],
      "stateMutability": "view",
      "type": "function"
    },
    {
      "inputs": [
        {
          "internalType": "bytes32",
          "name": "role",
          "type": "bytes32"
        },
        {
          "internalType": "address",
          "name": "account",
          "type": "address"
        }
      ],
      "name": "renounceRole",
      "outputs": [],
      "stateMutability": "nonpayable",
      "type": "function"
    },
    {
      "inputs": [
        {
          "internalType": "bytes32",
          "name": "role",
          "type": "bytes32"
        },
        {
          "internalType": "address",
          "name": "account",
          "type": "address"
        }
      ],
      "name": "revokeRole",
      "outputs": [],
      "stateMutability": "nonpayable",
      "type": "function"
    },
    {
      "inputs": [
        {
          "internalType": "contract Market",
          "name": "market",
          "type": "address"
        },
        {
          "internalType": "uint128",
          "name": "adjustFactor",
          "type": "uint128"
        }
      ],
      "name": "setAdjustFactor",
      "outputs": [],
      "stateMutability": "nonpayable",
      "type": "function"
    },
    {
      "inputs": [
        {
          "components": [
            {
              "internalType": "uint128",
              "name": "liquidator",
              "type": "uint128"
            },
            {
              "internalType": "uint128",
              "name": "lenders",
              "type": "uint128"
            }
          ],
          "internalType": "struct Auditor.LiquidationIncentive",
          "name": "liquidationIncentive_",
          "type": "tuple"
        }
      ],
      "name": "setLiquidationIncentive",
      "outputs": [],
      "stateMutability": "nonpayable",
      "type": "function"
    },
    {
      "inputs": [
        {
          "internalType": "contract Market",
          "name": "market",
          "type": "address"
        },
        {
          "internalType": "contract IPriceFeed",
          "name": "priceFeed",
          "type": "address"
        }
      ],
      "name": "setPriceFeed",
      "outputs": [],
      "stateMutability": "nonpayable",
      "type": "function"
    },
    {
      "inputs": [
        {
          "internalType": "bytes4",
          "name": "interfaceId",
          "type": "bytes4"
        }
      ],
      "name": "supportsInterface",
      "outputs": [
        {
          "internalType": "bool",
          "name": "",
          "type": "bool"
        }
      ],
      "stateMutability": "view",
      "type": "function"
    }
  ],
  "transactionHash": "0x77171dc7d0431f382caf5bb8f576f49088cfb7c90c343554dc04c338e3d2ad75",
  "args": [
    8
  ],
  "numDeployments": 1,
  "solcInputHash": "85c8bc749730c336d6cf31aaa3d211b2",
  "bytecode": "0x60e06040523480156200001157600080fd5b50604051620029b4380380620029b48339810160408190526200003491620000e2565b60808190526200004681601262000112565b6200005390600a6200022b565b60a0526200006381600a6200022b565b60c0526200007062000077565b5062000240565b600054610100900460ff16156200008d57600080fd5b60005460ff9081161015620000e0576000805460ff191660ff9081179091556040519081527f7f26b83ff96e1f2b6a682f133852f6798a09c465da95921460cefb38474024989060200160405180910390a15b565b600060208284031215620000f557600080fd5b5051919050565b634e487b7160e01b600052601160045260246000fd5b81810381811115620001285762000128620000fc565b92915050565b600181815b808511156200016f578160001904821115620001535762000153620000fc565b808516156200016157918102915b93841c939080029062000133565b509250929050565b600082620001885750600162000128565b81620001975750600062000128565b8160018114620001b05760028114620001bb57620001db565b600191505062000128565b60ff841115620001cf57620001cf620000fc565b50506001821b62000128565b5060208310610133831016604e8410600b841016171562000200575081810a62000128565b6200020c83836200012e565b8060001904821115620002235762000223620000fc565b029392505050565b600062000239838362000177565b9392505050565b60805160a05160c0516127366200027e6000396000611607015260006116b601526000818161022c01528181611093015261181001526127366000f3fe608060405234801561001057600080fd5b50600436106101e55760003560e01c8063891f4b081161010f578063ae539533116100a2578063e16ee72011610071578063e16ee72014610509578063e7bf4b021461051c578063ede4edd01461052f578063ff383ae61461054257600080fd5b8063ae539533146104c1578063b883b058146104d0578063d547741f146104e3578063e037945b146104f657600080fd5b806391d14854116100de57806391d14854146104805780639e9d796714610493578063a217fddf146104a6578063a3883db5146104ae57600080fd5b8063891f4b08146103875780638b9e81131461039a5780638c765e94146103a25780638e8f294b146103e057600080fd5b80632f2ff15d1161018757806351e1498b1161015657806351e1498b1461031e5780636e1b00311461033957806376e11286146103615780637b9d89311461037457600080fd5b80632f2ff15d146102d057806336568abe146102e3578063375a7cba146102f65780633fe5d4251461030b57600080fd5b806311fd52e1116101c357806311fd52e11461025c578063216e7b581461026f578063232b956c14610282578063248a9ca3146102ad57600080fd5b806301ffc9a7146101ea57806303f2a1ea1461021257806305300b2814610227575b600080fd5b6101fd6101f836600461216f565b610562565b60405190151581526020015b60405180910390f35b6102256102203660046121cb565b610599565b005b61024e7f000000000000000000000000000000000000000000000000000000000000000081565b604051908152602001610209565b61022561026a366004612249565b610666565b61024e61027d366004612266565b61084d565b6102956102903660046122b7565b610d0b565b6040516001600160a01b039091168152602001610209565b61024e6102bb3660046122b7565b60009081526065602052604090206001015490565b6102256102de3660046122d0565b610d35565b6102256102f13660046122d0565b610d5f565b6102fe610d7e565b6040516102099190612300565b610225610319366004612249565b610de0565b61029573eeeeeeeeeeeeeeeeeeeeeeeeeeeeeeeeeeeeeeee81565b61034c610347366004612266565b610e99565b60408051928352602083019190915201610209565b61022561036f36600461234d565b61105e565b61022561038236600461234d565b611193565b6102256103953660046121cb565b6112bc565b61024e611323565b609a546103c0906001600160801b0380821691600160801b90041682565b604080516001600160801b03938416815292909116602083015201610209565b61043c6103ee366004612249565b609860205260009081526040902080546001909101546001600160801b0382169160ff600160801b8204811692600160881b8304821692600160901b9004909116906001600160a01b031685565b604080516001600160801b03909616865260ff9485166020870152939092169284019290925290151560608301526001600160a01b0316608082015260a001610209565b6101fd61048e3660046122d0565b61133a565b61034c6104a136600461237b565b611365565b61024e600081565b6102256104bc36600461237b565b61155a565b61024e671158e460913d000081565b61024e6104de366004612249565b6115dd565b6102256104f13660046122d0565b6116e2565b6102256105043660046123bc565b611707565b61022561051736600461234d565b611b67565b61022561052a366004612403565b611bd4565b61022561053d366004612249565b611c95565b61024e610550366004612249565b60976020526000908152604090205481565b60006001600160e01b03198216637965db0b60e01b148061059357506301ffc9a760e01b6001600160e01b03198316145b92915050565b600054610100900460ff16158080156105b95750600054600160ff909116105b806105d35750303b1580156105d3575060005460ff166001145b6105dc57600080fd5b6000805460ff1916600117905580156105ff576000805461ff0019166101001790555b610607611df6565b610612600033611e0c565b61061b826112bc565b8015610662576000805461ff0019169055604051600181527f7f26b83ff96e1f2b6a682f133852f6798a09c465da95921460cefb3847402498906020015b60405180910390a15b5050565b6001600160a01b0381166000908152609760205260408120549081905b81156107a957600182161561079d576000609982815481106106a7576106a7612438565b6000918252602080832091909101546001600160a01b0390811680845260989092526040808420905163ce96cb7760e01b81529189166004830152919350909190839063ce96cb7790602401602060405180830381865afa158015610710573d6000803e3d6000fd5b505050506040513d601f19601f82011682018060405250810190610734919061244e565b8254600184015491925060009161078a916001600160801b03169061078490610765906001600160a01b03166115dd565b865461077c90600160801b900460ff16600a612561565b869190611e92565b90611eb1565b11156107995750505050505050565b5050505b600191821c9101610683565b5081905060005b811561084757600182161561083b57609981815481106107d2576107d2612438565b60009182526020909120015460405163926bb63360e01b81526001600160a01b0386811660048301529091169063926bb63390602401600060405180830381600087803b15801561082257600080fd5b505af1158015610836573d6000803e3d6000fd5b505050505b600191821c91016107b0565b50505050565b6001600160a01b038416600090815260986020526040812054600160901b900460ff16158061089c57506001600160a01b038416600090815260986020526040902054600160901b900460ff16155b156108ba576040516334b04fe360e11b815260040160405180910390fd5b6108e76040518060600160405280600081526020016000815260200160006001600160801b031681525090565b6109196040518060a0016040528060008152602001600081526020016000815260200160008152602001600081525090565b6001600160a01b038516600090815260976020526040812054905b8115610b3b576001821615610b2f5760006099828154811061095857610958612438565b60009182526020808320909101546001600160a01b0390811680845260989092526040808420815160608101909252600181015493955093929091829161099f91166115dd565b815283546020909101906109be90600160801b900460ff16600a612561565b815283546001600160801b031660209091015290506001600160a01b03808d16908416036109ea578096505b60405163014a296f60e01b81526001600160a01b038b81166004830152600091829186169063014a296f906024016040805180830381865afa158015610a34573d6000803e3d6000fd5b505050506040513d601f19601f82011682018060405250810190610a589190612570565b84516020860151929450909250600091610a73918491611ec6565b90508089600001818151610a879190612594565b9052506040840151610aa39082906001600160801b0316611ef4565b89604001818151610ab49190612594565b90525083516020850151610ac9918591611e92565b90508089602001818151610add9190612594565b9052506040840151610af99082906001600160801b0316611eb1565b89606001818151610b0a9190612594565b9052506001600160a01b03808f1690871603610b2857608089018190525b5050505050505b600191821c9101610934565b508160400151826060015110610b645760405163095bf33360e01b815260040160405180910390fd5b604080518082018252609a546001600160801b038082168352600160801b90910416602080830191909152840151918401519091600091610bbf91610ba99190611f09565b85516060870151610bb991611eb1565b90611ef4565b90506000610c37610c0084602001518560000151670de0b6b3a7640000610be691906125a7565b610bf091906125a7565b84906001600160801b0316611eb1565b610c1290671158e460913d00006125ce565b60408701516060880151610c2591611ef4565b610bb990671158e460913d00006125ce565b9050610cfc610cb187602001518860000151610caa610c69610c61670de0b6b3a764000088611f1e565b8b5190611f09565b60208901518951610ca59190610c8790670de0b6b3a76400006125a7565b610c9191906125a7565b60808d0151906001600160801b0316611ef4565b611f1e565b9190611ec6565b610cc5670de0b6b3a76400006000196125e1565b8a10610cd15789611f1e565b610ca58560200151670de0b6b3a7640000610cec91906125a7565b8b906001600160801b0316611f34565b9b9a5050505050505050505050565b60998181548110610d1b57600080fd5b6000918252602090912001546001600160a01b0316905081565b600082815260656020526040902060010154610d5081611f49565b610d5a8383611e0c565b505050565b6001600160a01b0381163314610d7457600080fd5b6106628282611f56565b60606099805480602002602001604051908101604052809291908181526020018280548015610dd657602002820191906000526020600020905b81546001600160a01b03168152600190910190602001808311610db8575b5050505050905090565b6001600160a01b03811660009081526098602052604090208054600160901b900460ff16610e21576040516334b04fe360e11b815260040160405180910390fd5b3360009081526097602052604090205481546001600160881b90910460ff161b80821615610e4f5750505050565b336000818152609760205260408082208585179055516001600160a01b038716917f3ab23ab0d51cccc0c3085aec51f99228625aa1a922b3a8ca89a26b0f2027a1a591a350505050565b60408051808201909152609a546001600160801b038082168352600160801b90910416602082018190526000918291610ed3908590611eb1565b6001600160a01b0380891660009081526098602052604081206001015492955091610efe91166115dd565b6001600160a01b0380891660009081526098602052604081206001015492935091610f2991166115dd565b6001600160a01b038a1660009081526098602052604081205491925090610f69908490610f6190600160801b900460ff16600a612561565b899190611ec6565b905061104f610fe585602001518660000151670de0b6b3a7640000610f8e91906125a7565b610f9891906125a7565b6001600160a01b038c166000908152609860205260409020546001600160801b039190911690610fdf90610fd790600160801b900460ff16600a612561565b859087611ec6565b90611f09565b60405163ce96cb7760e01b81526001600160a01b038b811660048301528c169063ce96cb7790602401602060405180830381865afa15801561102b573d6000803e3d6000fd5b505050506040513d601f19601f82011682018060405250810190610ca5919061244e565b94505050505094509492505050565b600061106981611f49565b6001600160a01b03821673eeeeeeeeeeeeeeeeeeeeeeeeeeeeeeeeeeeeeeee1480159061111a57507f0000000000000000000000000000000000000000000000000000000000000000826001600160a01b031663313ce5676040518163ffffffff1660e01b8152600401602060405180830381865afa1580156110f0573d6000803e3d6000fd5b505050506040513d601f19601f820116820180604052508101906111149190612603565b60ff1614155b15611138576040516352cc3f7d60e01b815260040160405180910390fd5b6001600160a01b0383811660008181526098602052604080822060010180546001600160a01b0319169487169485179055517fd2d8394cf7549a5ddbc2ba3dd7b2de8d53c891472d1f2907008ed6a10045fdae9190a3505050565b6001600160a01b03821660009081526098602052604090208054600160901b900460ff166111d4576040516334b04fe360e11b815260040160405180910390fd5b6001600160a01b038216600090815260976020526040812054825490916001600160881b90920460ff169190911b90818316900361127f57336001600160a01b038616146112355760405163c4bbea6960e01b815260040160405180910390fd5b6001600160a01b0380851660008181526097602052604080822086861790555191928816917f3ab23ab0d51cccc0c3085aec51f99228625aa1a922b3a8ca89a26b0f2027a1a59190a35b60008061128e86600080611365565b91509150808210156112b357604051630aeac0bb60e11b815260040160405180910390fd5b50505050505050565b60006112c781611f49565b8151602080840180516001600160801b03908116600160801b02938116938417609a5560408051948552915116918301919091527f01681c947e6239f022bfc57fdcd1eecd249153804b38e0085d885e5aeed1b0549101610659565b611337670de0b6b3a76400006000196125e1565b81565b60009182526065602090815260408084206001600160a01b0393909316845291905290205460ff1690565b60008061138c60405180606001604052806000815260200160008152602001600081525090565b6001600160a01b038616600090815260976020526040812054905b811561154f576001821615611543576000609982815481106113cb576113cb612438565b60009182526020808320909101546001600160a01b03168083526098909152604082208054919350919061140b9060ff600160801b90910416600a612561565b825460405163014a296f60e01b81526001600160a01b038e811660048301529293506001600160801b039091169185169063014a296f906024016040805180830381865afa158015611461573d6000803e3d6000fd5b505050506040513d601f19601f820116820180604052508101906114859190612570565b6020890152875260018301546114a3906001600160a01b03166115dd565b6040880181905287516114bc9183916107849186611e92565b6114c6908a612594565b98506114e981610bb98960400151858b60200151611ec69092919063ffffffff16565b6114f39089612594565b97508a6001600160a01b0316846001600160a01b03160361153e57891561153e57611531816107848960400151858e611e929092919063ffffffff16565b61153b9089612594565b97505b505050505b600191821c91016113a7565b505050935093915050565b6001600160a01b03838116600090815260986020908152604080832054938616835260979091528120546001600160881b90930460ff169290921b90911690036115a357505050565b6000806115b1848685611365565b91509150808210156115d657604051630aeac0bb60e11b815260040160405180910390fd5b5050505050565b600073eeeeeeeeeeeeeeeeeeeeeeeeeeeeeeeeeeeeeeed196001600160a01b0383160161162b57507f0000000000000000000000000000000000000000000000000000000000000000919050565b6000826001600160a01b03166350d25bcd6040518163ffffffff1660e01b8152600401602060405180830381865afa15801561166b573d6000803e3d6000fd5b505050506040513d601f19601f8201168201806040525081019061168f919061244e565b9050600081136116b15760405162bfc92160e01b815260040160405180910390fd5b6116db7f000000000000000000000000000000000000000000000000000000000000000082612626565b9392505050565b6000828152606560205260409020600101546116fd81611f49565b610d5a8383611f56565b600061171281611f49565b306001600160a01b0316846001600160a01b0316633ec045a66040518163ffffffff1660e01b8152600401602060405180830381865afa15801561175a573d6000803e3d6000fd5b505050506040513d601f19601f8201168201806040525081019061177e919061263d565b6001600160a01b0316146117a5576040516316b2972f60e01b815260040160405180910390fd5b6001600160a01b038416600090815260986020526040902054600160901b900460ff16156117e657604051634d5eeb4960e01b815260040160405180910390fd5b6001600160a01b03831673eeeeeeeeeeeeeeeeeeeeeeeeeeeeeeeeeeeeeeee1480159061189757507f0000000000000000000000000000000000000000000000000000000000000000836001600160a01b031663313ce5676040518163ffffffff1660e01b8152600401602060405180830381865afa15801561186d573d6000803e3d6000fd5b505050506040513d601f19601f820116820180604052508101906118919190612603565b60ff1614155b156118b5576040516352cc3f7d60e01b815260040160405180910390fd5b6000846001600160a01b031663313ce5676040518163ffffffff1660e01b8152600401602060405180830381865afa1580156118f5573d6000803e3d6000fd5b505050506040513d601f19601f820116820180604052508101906119199190612603565b90506040518060a00160405280846001600160801b031681526020018260ff16815260200160998054905060ff168152602001600115158152602001856001600160a01b031681525060986000876001600160a01b03166001600160a01b0316815260200190815260200160002060008201518160000160006101000a8154816001600160801b0302191690836001600160801b0316021790555060208201518160000160106101000a81548160ff021916908360ff16021790555060408201518160000160116101000a81548160ff021916908360ff16021790555060608201518160000160126101000a81548160ff02191690831515021790555060808201518160010160006101000a8154816001600160a01b0302191690836001600160a01b031602179055509050506099859080600181540180825580915050600190039060005260206000200160009091909190916101000a8154816001600160a01b0302191690836001600160a01b03160217905550846001600160a01b03167f4baa14f9cb96bf2fd4a6def4c4a6d8290bf89e48bfdd33d7586d8471674ac0e682604051611ad1919060ff91909116815260200190565b60405180910390a2836001600160a01b0316856001600160a01b03167fd2d8394cf7549a5ddbc2ba3dd7b2de8d53c891472d1f2907008ed6a10045fdae60405160405180910390a36040516001600160801b03841681526001600160a01b038616907f2e6cff6894398a38e2957a38e34bbbcebbc7f1cd5ec3c6cc0172ea7b40bd5b829060200160405180910390a25050505050565b6001600160a01b038116600090815260986020526040902054600160901b900460ff161580611bb657506001600160a01b038216600090815260986020526040902054600160901b900460ff16155b15610662576040516334b04fe360e11b815260040160405180910390fd5b6000611bdf81611f49565b6001600160a01b038316600090815260986020526040902054600160901b900460ff16611c1f576040516334b04fe360e11b815260040160405180910390fd5b6001600160a01b03831660008181526098602090815260409182902080546fffffffffffffffffffffffffffffffff19166001600160801b03871690811790915591519182527f2e6cff6894398a38e2957a38e34bbbcebbc7f1cd5ec3c6cc0172ea7b40bd5b82910160405180910390a2505050565b6001600160a01b03811660009081526098602052604090208054600160901b900460ff16611cd6576040516334b04fe360e11b815260040160405180910390fd5b60405163014a296f60e01b815233600482015260009081906001600160a01b0385169063014a296f906024016040805180830381865afa158015611d1e573d6000803e3d6000fd5b505050506040513d601f19601f82011682018060405250810190611d429190612570565b9150915080600014611d67576040516304fdb01160e51b815260040160405180910390fd5b611d7284338461155a565b33600090815260976020526040812054845490916001600160881b90920460ff169190911b908183169003611da957505050505050565b33600081815260976020526040808220841986169055516001600160a01b038916917fe699a64c18b07ac5b7301aa273f36a2287239eb9501d81950672794afba29a0d91a3505050505050565b600054610100900460ff16611e0a57600080fd5b565b611e16828261133a565b6106625760008281526065602090815260408083206001600160a01b03851684529091529020805460ff19166001179055611e4e3390565b6001600160a01b0316816001600160a01b0316837f2f8788117e7eff1d82e926ec794901d17c78024a50270940304540a733656f0d60405160405180910390a45050565b828202811515841585830485141716611eaa57600080fd5b0492915050565b60006116db8383670de0b6b3a7640000611e92565b828202811515841585830485141716611ede57600080fd5b6001826001830304018115150290509392505050565b60006116db83670de0b6b3a764000084611ec6565b60006116db8383670de0b6b3a7640000611ec6565b6000818310611f2d57816116db565b5090919050565b60006116db83670de0b6b3a764000084611e92565b611f538133611fbd565b50565b611f60828261133a565b156106625760008281526065602090815260408083206001600160a01b0385168085529252808320805460ff1916905551339285917ff6391f5c32d9c69d2a47ea670b442974b53935d1edc7fd64eb21e047a839171b9190a45050565b611fc7828261133a565b61066257611fd481612004565b611fdf836020612016565b604051602001611ff092919061268a565b604051602081830303815290604052600080fd5b60606105936001600160a01b03831660145b60606000612025836002612626565b612030906002612594565b67ffffffffffffffff81111561204857612048612199565b6040519080825280601f01601f191660200182016040528015612072576020820181803683370190505b509050600360fc1b8160008151811061208d5761208d612438565b60200101906001600160f81b031916908160001a905350600f60fb1b816001815181106120bc576120bc612438565b60200101906001600160f81b031916908160001a90535060006120e0846002612626565b6120eb906001612594565b90505b6001811115612163576f181899199a1a9b1b9c1cb0b131b232b360811b85600f166010811061211f5761211f612438565b1a60f81b82828151811061213557612135612438565b60200101906001600160f81b031916908160001a90535060049490941c9361215c816126e9565b90506120ee565b5083156116db57600080fd5b60006020828403121561218157600080fd5b81356001600160e01b0319811681146116db57600080fd5b634e487b7160e01b600052604160045260246000fd5b80356001600160801b03811681146121c657600080fd5b919050565b6000604082840312156121dd57600080fd5b6040516040810181811067ffffffffffffffff8211171561220e57634e487b7160e01b600052604160045260246000fd5b60405261221a836121af565b8152612228602084016121af565b60208201529392505050565b6001600160a01b0381168114611f5357600080fd5b60006020828403121561225b57600080fd5b81356116db81612234565b6000806000806080858703121561227c57600080fd5b843561228781612234565b9350602085013561229781612234565b925060408501356122a781612234565b9396929550929360600135925050565b6000602082840312156122c957600080fd5b5035919050565b600080604083850312156122e357600080fd5b8235915060208301356122f581612234565b809150509250929050565b6020808252825182820181905260009190848201906040850190845b818110156123415783516001600160a01b03168352928401929184019160010161231c565b50909695505050505050565b6000806040838503121561236057600080fd5b823561236b81612234565b915060208301356122f581612234565b60008060006060848603121561239057600080fd5b833561239b81612234565b925060208401356123ab81612234565b929592945050506040919091013590565b6000806000606084860312156123d157600080fd5b83356123dc81612234565b925060208401356123ec81612234565b91506123fa604085016121af565b90509250925092565b6000806040838503121561241657600080fd5b823561242181612234565b915061242f602084016121af565b90509250929050565b634e487b7160e01b600052603260045260246000fd5b60006020828403121561246057600080fd5b5051919050565b634e487b7160e01b600052601160045260246000fd5b600181815b808511156124b857816000190482111561249e5761249e612467565b808516156124ab57918102915b93841c9390800290612482565b509250929050565b6000826124cf57506001610593565b816124dc57506000610593565b81600181146124f257600281146124fc57612518565b6001915050610593565b60ff84111561250d5761250d612467565b50506001821b610593565b5060208310610133831016604e8410600b841016171561253b575081810a610593565b612545838361247d565b806000190482111561255957612559612467565b029392505050565b60006116db60ff8416836124c0565b6000806040838503121561258357600080fd5b505080516020909101519092909150565b8082018082111561059357610593612467565b6001600160801b038181168382160190808211156125c7576125c7612467565b5092915050565b8181038181111561059357610593612467565b6000826125fe57634e487b7160e01b600052601260045260246000fd5b500490565b60006020828403121561261557600080fd5b815160ff811681146116db57600080fd5b808202811582820484141761059357610593612467565b60006020828403121561264f57600080fd5b81516116db81612234565b6000815160005b8181101561267b5760208185018101518683015201612661565b50600093019283525090919050565b7f416363657373436f6e74726f6c3a206163636f756e7420000000000000000000815260006126bc601783018561265a565b7001034b99036b4b9b9b4b733903937b6329607d1b81526126e0601182018561265a565b95945050505050565b6000816126f8576126f8612467565b50600019019056fea264697066735822122041b6ecf0e911fcc4260f052b0816013ba05dfba9386df622672d47c67c87e93564736f6c63430008110033",
  "devdoc": {
    "events": {
      "AdjustFactorSet(address,uint256)": {
        "params": {
          "adjustFactor": "adjust factor for the underlying asset.",
          "market": "address of the market that has a new adjust factor."
        }
      },
      "LiquidationIncentiveSet((uint128,uint128))": {
        "params": {
          "liquidationIncentive": "represented with 18 decimals."
        }
      },
      "MarketEntered(address,address)": {
        "params": {
          "account": "address of the account that just entered a market.",
          "market": "address of the market that the account entered."
        }
      },
      "MarketExited(address,address)": {
        "params": {
          "account": "address of the account that just left a market.",
          "market": "address of the market that the account just left."
        }
      },
      "MarketListed(address,uint8)": {
        "params": {
          "decimals": "decimals of the market's underlying asset.",
          "market": "address of the market that was listed."
        }
      },
      "PriceFeedSet(address,address)": {
        "params": {
          "market": "address of the asset used to get the price.",
          "priceFeed": "address of Chainlink's Price Feed aggregator used to query the asset price in base."
        }
      }
    },
    "kind": "dev",
    "methods": {
      "accountLiquidity(address,address,uint256)": {
        "params": {
          "account": "account in which the liquidity will be calculated.",
          "marketToSimulate": "market in which to simulate withdraw operation.",
          "withdrawAmount": "amount to simulate as withdraw."
        },
        "returns": {
          "sumCollateral": "sum of all collateral, already multiplied by each adjust factor (denominated in base).",
          "sumDebtPlusEffects": "sum of all debt divided by adjust factor considering withdrawal (denominated in base)."
        }
      },
      "assetPrice(address)": {
        "details": "If Chainlink's asset price is <= 0 the call is reverted.",
        "params": {
          "priceFeed": "address of Chainlink's Price Feed aggregator used to query the asset price."
        },
        "returns": {
          "_0": "The price of the asset scaled to 18-digit decimals."
        }
      },
      "calculateSeize(address,address,address,uint256)": {
        "params": {
          "actualRepayAssets": "amount being repaid.",
          "borrower": "account in which assets are being seized.",
          "repayMarket": "market from where the debt will be repaid.",
          "seizeMarket": "market from where the assets will be seized by the liquidator."
        },
        "returns": {
          "lendersAssets": "amount to be added for other lenders as a compensation of bad debt clearing.",
          "seizeAssets": "amount that can be seized by the liquidator."
        }
      },
      "checkBorrow(address,address)": {
        "details": "To be called after adding the borrowed debt to the account position.",
        "params": {
          "borrower": "address of the account that will repay the debt.",
          "market": "address of the market where the borrow is made."
        }
      },
      "checkLiquidation(address,address,address,uint256)": {
        "details": "This function can be called externally, but only will have effect when called from a market.",
        "params": {
          "borrower": "address in which the assets are being liquidated.",
          "maxLiquidatorAssets": "maximum amount of debt the liquidator is willing to accept.",
          "repayMarket": "market from where the debt is being repaid.",
          "seizeMarket": "market from where the liquidator will seize assets."
        },
        "returns": {
          "maxRepayAssets": "capped amount of debt the liquidator is allowed to repay."
        }
      },
      "checkSeize(address,address)": {
        "details": "This function can be called externally, but only will have effect when called from a market.",
        "params": {
          "repayMarket": "market from where the debt will be repaid.",
          "seizeMarket": "market where the assets will be seized."
        }
      },
      "checkShortfall(address,address,uint256)": {
        "params": {
          "account": "address of the account to check for possible shortfall.",
          "amount": "amount that the account wants to withdraw or transfer.",
          "market": "address of the market where the operation will happen."
        }
      },
      "constructor": {
        "custom:oz-upgrades-unsafe-allow": "constructor"
      },
      "enableMarket(address,address,uint128)": {
        "details": "Enabling more than 256 markets will cause an overflow when casting market index to uint8.",
        "params": {
          "adjustFactor": "market's adjust factor for the underlying asset.",
          "market": "market to add to the protocol.",
          "priceFeed": "address of Chainlink's Price Feed aggregator used to query the asset price in base."
        }
      },
      "enterMarket(address)": {
        "params": {
          "market": "market to enabled as collateral."
        }
      },
      "exitMarket(address)": {
        "details": "Sender must not have an outstanding borrow balance in the asset, or be providing necessary collateral for an outstanding borrow.",
        "params": {
          "market": "market to be disabled as collateral."
        }
      },
      "getRoleAdmin(bytes32)": {
        "details": "Returns the admin role that controls `role`. See {grantRole} and {revokeRole}. To change a role's admin, use {_setRoleAdmin}."
      },
      "grantRole(bytes32,address)": {
        "details": "Grants `role` to `account`. If `account` had not been already granted `role`, emits a {RoleGranted} event. Requirements: - the caller must have ``role``'s admin role. May emit a {RoleGranted} event."
      },
      "handleBadDebt(address)": {
        "details": "Collateral is multiplied by price and adjust factor to be accurately evaluated as positive collateral asset.",
        "params": {
          "account": "account in which debt is being checked."
        }
      },
      "hasRole(bytes32,address)": {
        "details": "Returns `true` if `account` has been granted `role`."
      },
      "initialize((uint128,uint128))": {
        "details": "can only be called once."
      },
      "renounceRole(bytes32,address)": {
        "details": "Revokes `role` from the calling account. Roles are often managed via {grantRole} and {revokeRole}: this function's purpose is to provide a mechanism for accounts to lose their privileges if they are compromised (such as when a trusted device is misplaced). If the calling account had been revoked `role`, emits a {RoleRevoked} event. Requirements: - the caller must be `account`. May emit a {RoleRevoked} event."
      },
      "revokeRole(bytes32,address)": {
        "details": "Revokes `role` from `account`. If `account` had been granted `role`, emits a {RoleRevoked} event. Requirements: - the caller must have ``role``'s admin role. May emit a {RoleRevoked} event."
      },
      "setAdjustFactor(address,uint128)": {
        "params": {
          "adjustFactor": "adjust factor for the underlying asset.",
          "market": "address of the market to change adjust factor for."
        }
      },
      "setLiquidationIncentive((uint128,uint128))": {
        "params": {
          "liquidationIncentive_": "new liquidation incentive."
        }
      },
      "setPriceFeed(address,address)": {
        "params": {
          "market": "market address of the asset.",
          "priceFeed": "address of Chainlink's Price Feed aggregator used to query the asset price in base."
        }
      },
      "supportsInterface(bytes4)": {
        "details": "See {IERC165-supportsInterface}."
      }
    },
    "stateVariables": {
      "baseFactor": {
        "custom:oz-upgrades-unsafe-allow": "state-variable-immutable"
      },
      "basePrice": {
        "custom:oz-upgrades-unsafe-allow": "state-variable-immutable"
      },
      "priceDecimals": {
        "custom:oz-upgrades-unsafe-allow": "state-variable-immutable"
      }
    },
    "version": 1
  },
  "userdoc": {
    "events": {
      "AdjustFactorSet(address,uint256)": {
        "notice": "Emitted when a adjust factor is changed by admin."
      },
      "LiquidationIncentiveSet((uint128,uint128))": {
        "notice": "Emitted when a new liquidationIncentive has been set."
      },
      "MarketEntered(address,address)": {
        "notice": "Emitted when an account enters a market to use his deposit as collateral for a loan."
      },
      "MarketExited(address,address)": {
        "notice": "Emitted when an account leaves a market. Means that they would stop using their deposit as collateral and won't ask for any loans in this market."
      },
      "MarketListed(address,uint8)": {
        "notice": "Emitted when a new market is listed for borrow/lending."
      },
      "PriceFeedSet(address,address)": {
        "notice": "Emitted when a market and prie feed is changed by admin."
      }
    },
    "kind": "user",
    "methods": {
      "ASSETS_THRESHOLD()": {
        "notice": "Maximum value the liquidator can send and still have granular control of max assets. Above this threshold, they should send `type(uint256).max`."
      },
      "BASE_FEED()": {
        "notice": "Address that a market should have as price feed to consider as base price and avoid external price call."
      },
      "TARGET_HEALTH()": {
        "notice": "Target health factor that the account should have after it's liquidated to prevent cascade liquidations."
      },
      "accountLiquidity(address,address,uint256)": {
        "notice": "Returns account's liquidity calculation."
      },
      "accountMarkets(address)": {
        "notice": "Tracks the markets' indexes that an account has entered as collateral."
      },
      "allMarkets()": {
        "notice": "Retrieves all markets."
      },
      "assetPrice(address)": {
        "notice": "Gets the asset price of a price feed."
      },
      "calculateSeize(address,address,address,uint256)": {
        "notice": "Calculates the amount of collateral to be seized when a position is undercollateralized."
      },
      "checkBorrow(address,address)": {
        "notice": "Validates that the current state of the position and system are valid."
      },
      "checkLiquidation(address,address,address,uint256)": {
        "notice": "Allows/rejects liquidation of assets."
      },
      "checkSeize(address,address)": {
        "notice": "Allow/rejects seizing of assets."
      },
      "checkShortfall(address,address,uint256)": {
        "notice": "Checks if the account has liquidity shortfall."
      },
      "enableMarket(address,address,uint128)": {
        "notice": "Enables a certain market."
      },
      "enterMarket(address)": {
        "notice": "Allows assets of a certain market to be used as collateral for borrowing other assets."
      },
      "exitMarket(address)": {
        "notice": "Removes market from sender's account liquidity calculation."
      },
      "handleBadDebt(address)": {
        "notice": "Checks if account has debt with no collateral, if so then call `clearBadDebt` from each market."
      },
      "initialize((uint128,uint128))": {
        "notice": "Initializes the contract."
      },
      "liquidationIncentive()": {
        "notice": "Liquidation incentive factors for the liquidator and the lenders of the market where the debt is repaid."
      },
      "marketList(uint256)": {
        "notice": "Array of all enabled markets."
      },
      "markets(address)": {
        "notice": "Stores market parameters per each enabled market."
      },
      "priceDecimals()": {
        "notice": "Decimals that the answer of all price feeds should have."
      },
      "setAdjustFactor(address,uint128)": {
        "notice": "Sets the adjust factor for a certain market."
      },
      "setLiquidationIncentive((uint128,uint128))": {
        "notice": "Sets liquidation incentive (liquidator and lenders) for the whole ecosystem."
      },
      "setPriceFeed(address,address)": {
        "notice": "Sets the Chainlink Price Feed Aggregator source for a market."
      }
    },
    "version": 1
  },
  "storageLayout": {
    "storage": [
      {
        "astId": 415,
        "contract": "contracts/Auditor.sol:Auditor",
        "label": "_initialized",
        "offset": 0,
        "slot": "0",
        "type": "t_uint8"
      },
      {
        "astId": 418,
        "contract": "contracts/Auditor.sol:Auditor",
        "label": "_initializing",
        "offset": 1,
        "slot": "0",
        "type": "t_bool"
      },
      {
        "astId": 1029,
        "contract": "contracts/Auditor.sol:Auditor",
        "label": "__gap",
        "offset": 0,
        "slot": "1",
        "type": "t_array(t_uint256)50_storage"
      },
      {
        "astId": 1248,
        "contract": "contracts/Auditor.sol:Auditor",
        "label": "__gap",
        "offset": 0,
        "slot": "51",
        "type": "t_array(t_uint256)50_storage"
      },
      {
        "astId": 39,
        "contract": "contracts/Auditor.sol:Auditor",
        "label": "_roles",
        "offset": 0,
        "slot": "101",
        "type": "t_mapping(t_bytes32,t_struct(RoleData)34_storage)"
      },
      {
        "astId": 334,
        "contract": "contracts/Auditor.sol:Auditor",
        "label": "__gap",
        "offset": 0,
        "slot": "102",
        "type": "t_array(t_uint256)49_storage"
      },
      {
        "astId": 5853,
        "contract": "contracts/Auditor.sol:Auditor",
        "label": "accountMarkets",
        "offset": 0,
        "slot": "151",
        "type": "t_mapping(t_address,t_uint256)"
      },
      {
        "astId": 5860,
        "contract": "contracts/Auditor.sol:Auditor",
        "label": "markets",
        "offset": 0,
        "slot": "152",
        "type": "t_mapping(t_contract(Market)11239,t_struct(MarketData)7157_storage)"
      },
      {
        "astId": 5865,
        "contract": "contracts/Auditor.sol:Auditor",
        "label": "marketList",
        "offset": 0,
        "slot": "153",
        "type": "t_array(t_contract(Market)11239)dyn_storage"
      },
      {
        "astId": 5869,
        "contract": "contracts/Auditor.sol:Auditor",
        "label": "liquidationIncentive",
        "offset": 0,
        "slot": "154",
        "type": "t_struct(LiquidationIncentive)7162_storage"
      }
    ],
    "types": {
      "t_address": {
        "encoding": "inplace",
        "label": "address",
        "numberOfBytes": "20"
      },
      "t_array(t_contract(Market)11239)dyn_storage": {
        "base": "t_contract(Market)11239",
        "encoding": "dynamic_array",
        "label": "contract Market[]",
        "numberOfBytes": "32"
      },
      "t_array(t_uint256)49_storage": {
        "base": "t_uint256",
        "encoding": "inplace",
        "label": "uint256[49]",
        "numberOfBytes": "1568"
      },
      "t_array(t_uint256)50_storage": {
        "base": "t_uint256",
        "encoding": "inplace",
        "label": "uint256[50]",
        "numberOfBytes": "1600"
      },
      "t_bool": {
        "encoding": "inplace",
        "label": "bool",
        "numberOfBytes": "1"
      },
      "t_bytes32": {
        "encoding": "inplace",
        "label": "bytes32",
        "numberOfBytes": "32"
      },
      "t_contract(IPriceFeed)18832": {
        "encoding": "inplace",
        "label": "contract IPriceFeed",
        "numberOfBytes": "20"
      },
      "t_contract(Market)11239": {
        "encoding": "inplace",
        "label": "contract Market",
        "numberOfBytes": "20"
      },
      "t_mapping(t_address,t_bool)": {
        "encoding": "mapping",
        "key": "t_address",
        "label": "mapping(address => bool)",
        "numberOfBytes": "32",
        "value": "t_bool"
      },
      "t_mapping(t_address,t_uint256)": {
        "encoding": "mapping",
        "key": "t_address",
        "label": "mapping(address => uint256)",
        "numberOfBytes": "32",
        "value": "t_uint256"
      },
      "t_mapping(t_bytes32,t_struct(RoleData)34_storage)": {
        "encoding": "mapping",
        "key": "t_bytes32",
        "label": "mapping(bytes32 => struct AccessControlUpgradeable.RoleData)",
        "numberOfBytes": "32",
        "value": "t_struct(RoleData)34_storage"
      },
      "t_mapping(t_contract(Market)11239,t_struct(MarketData)7157_storage)": {
        "encoding": "mapping",
        "key": "t_contract(Market)11239",
        "label": "mapping(contract Market => struct Auditor.MarketData)",
        "numberOfBytes": "32",
        "value": "t_struct(MarketData)7157_storage"
      },
      "t_struct(LiquidationIncentive)7162_storage": {
        "encoding": "inplace",
        "label": "struct Auditor.LiquidationIncentive",
        "members": [
          {
            "astId": 7159,
            "contract": "contracts/Auditor.sol:Auditor",
            "label": "liquidator",
            "offset": 0,
            "slot": "0",
            "type": "t_uint128"
          },
          {
            "astId": 7161,
            "contract": "contracts/Auditor.sol:Auditor",
            "label": "lenders",
            "offset": 16,
            "slot": "0",
            "type": "t_uint128"
          }
        ],
        "numberOfBytes": "32"
      },
      "t_struct(MarketData)7157_storage": {
        "encoding": "inplace",
        "label": "struct Auditor.MarketData",
        "members": [
          {
            "astId": 7147,
            "contract": "contracts/Auditor.sol:Auditor",
            "label": "adjustFactor",
            "offset": 0,
            "slot": "0",
            "type": "t_uint128"
          },
          {
            "astId": 7149,
            "contract": "contracts/Auditor.sol:Auditor",
            "label": "decimals",
            "offset": 16,
            "slot": "0",
            "type": "t_uint8"
          },
          {
            "astId": 7151,
            "contract": "contracts/Auditor.sol:Auditor",
            "label": "index",
            "offset": 17,
            "slot": "0",
            "type": "t_uint8"
          },
          {
            "astId": 7153,
            "contract": "contracts/Auditor.sol:Auditor",
            "label": "isListed",
            "offset": 18,
            "slot": "0",
            "type": "t_bool"
          },
          {
            "astId": 7156,
            "contract": "contracts/Auditor.sol:Auditor",
            "label": "priceFeed",
            "offset": 0,
            "slot": "1",
            "type": "t_contract(IPriceFeed)18832"
          }
        ],
        "numberOfBytes": "64"
      },
      "t_struct(RoleData)34_storage": {
        "encoding": "inplace",
        "label": "struct AccessControlUpgradeable.RoleData",
        "members": [
          {
            "astId": 31,
            "contract": "contracts/Auditor.sol:Auditor",
            "label": "members",
            "offset": 0,
            "slot": "0",
            "type": "t_mapping(t_address,t_bool)"
          },
          {
            "astId": 33,
            "contract": "contracts/Auditor.sol:Auditor",
            "label": "adminRole",
            "offset": 0,
            "slot": "1",
            "type": "t_bytes32"
          }
        ],
        "numberOfBytes": "64"
      },
      "t_uint128": {
        "encoding": "inplace",
        "label": "uint128",
        "numberOfBytes": "16"
      },
      "t_uint256": {
        "encoding": "inplace",
        "label": "uint256",
        "numberOfBytes": "32"
      },
      "t_uint8": {
        "encoding": "inplace",
        "label": "uint8",
        "numberOfBytes": "1"
      }
    }
  }
}