{
  "address": "0x3F6Cd7982b83E10eB1a41C4C8c1aE27d0CFbe07A",
  "abi": [
    {
      "anonymous": false,
      "inputs": [
        {
          "indexed": true,
          "internalType": "address",
          "name": "owner",
          "type": "address"
        },
        {
          "indexed": true,
          "internalType": "address",
          "name": "spender",
          "type": "address"
        },
        {
          "indexed": false,
          "internalType": "uint256",
          "name": "value",
          "type": "uint256"
        }
      ],
      "name": "Approval",
      "type": "event"
    },
    {
      "anonymous": false,
      "inputs": [
        {
          "indexed": true,
          "internalType": "address",
          "name": "delegator",
          "type": "address"
        },
        {
          "indexed": true,
          "internalType": "address",
          "name": "fromDelegate",
          "type": "address"
        },
        {
          "indexed": true,
          "internalType": "address",
          "name": "toDelegate",
          "type": "address"
        }
      ],
      "name": "DelegateChanged",
      "type": "event"
    },
    {
      "anonymous": false,
      "inputs": [
        {
          "indexed": true,
          "internalType": "address",
          "name": "delegate",
          "type": "address"
        },
        {
          "indexed": false,
          "internalType": "uint256",
          "name": "previousBalance",
          "type": "uint256"
        },
        {
          "indexed": false,
          "internalType": "uint256",
          "name": "newBalance",
          "type": "uint256"
        }
      ],
      "name": "DelegateVotesChanged",
      "type": "event"
    },
    {
      "anonymous": false,
      "inputs": [],
      "name": "EIP712DomainChanged",
      "type": "event"
    },
    {
      "anonymous": false,
      "inputs": [
        {
          "indexed": false,
          "internalType": "uint8",
          "name": "version",
          "type": "uint8"
        }
      ],
      "name": "Initialized",
      "type": "event"
    },
    {
      "anonymous": false,
      "inputs": [
        {
          "indexed": true,
          "internalType": "address",
          "name": "from",
          "type": "address"
        },
        {
          "indexed": true,
          "internalType": "address",
          "name": "to",
          "type": "address"
        },
        {
          "indexed": false,
          "internalType": "uint256",
          "name": "value",
          "type": "uint256"
        }
      ],
      "name": "Transfer",
      "type": "event"
    },
    {
      "inputs": [],
      "name": "CLOCK_MODE",
      "outputs": [
        {
          "internalType": "string",
          "name": "",
          "type": "string"
        }
      ],
      "stateMutability": "pure",
      "type": "function"
    },
    {
      "inputs": [],
      "name": "DOMAIN_SEPARATOR",
      "outputs": [
        {
          "internalType": "bytes32",
          "name": "",
          "type": "bytes32"
        }
      ],
      "stateMutability": "view",
      "type": "function"
    },
    {
      "inputs": [
        {
          "internalType": "address",
          "name": "owner",
          "type": "address"
        },
        {
          "internalType": "address",
          "name": "spender",
          "type": "address"
        }
      ],
      "name": "allowance",
      "outputs": [
        {
          "internalType": "uint256",
          "name": "",
          "type": "uint256"
        }
      ],
      "stateMutability": "view",
      "type": "function"
    },
    {
      "inputs": [
        {
          "internalType": "address",
          "name": "spender",
          "type": "address"
        },
        {
          "internalType": "uint256",
          "name": "amount",
          "type": "uint256"
        }
      ],
      "name": "approve",
      "outputs": [
        {
          "internalType": "bool",
          "name": "",
          "type": "bool"
        }
      ],
      "stateMutability": "nonpayable",
      "type": "function"
    },
    {
      "inputs": [
        {
          "internalType": "address",
          "name": "account",
          "type": "address"
        }
      ],
      "name": "balanceOf",
      "outputs": [
        {
          "internalType": "uint256",
          "name": "",
          "type": "uint256"
        }
      ],
      "stateMutability": "view",
      "type": "function"
    },
    {
      "inputs": [
        {
          "internalType": "address",
          "name": "account",
          "type": "address"
        },
        {
          "internalType": "uint32",
          "name": "pos",
          "type": "uint32"
        }
      ],
      "name": "checkpoints",
      "outputs": [
        {
          "components": [
            {
              "internalType": "uint32",
              "name": "fromBlock",
              "type": "uint32"
            },
            {
              "internalType": "uint224",
              "name": "votes",
              "type": "uint224"
            }
          ],
          "internalType": "struct ERC20VotesUpgradeable.Checkpoint",
          "name": "",
          "type": "tuple"
        }
      ],
      "stateMutability": "view",
      "type": "function"
    },
    {
      "inputs": [],
      "name": "clock",
      "outputs": [
        {
          "internalType": "uint48",
          "name": "",
          "type": "uint48"
        }
      ],
      "stateMutability": "view",
      "type": "function"
    },
    {
      "inputs": [],
      "name": "decimals",
      "outputs": [
        {
          "internalType": "uint8",
          "name": "",
          "type": "uint8"
        }
      ],
      "stateMutability": "view",
      "type": "function"
    },
    {
      "inputs": [
        {
          "internalType": "address",
          "name": "spender",
          "type": "address"
        },
        {
          "internalType": "uint256",
          "name": "subtractedValue",
          "type": "uint256"
        }
      ],
      "name": "decreaseAllowance",
      "outputs": [
        {
          "internalType": "bool",
          "name": "",
          "type": "bool"
        }
      ],
      "stateMutability": "nonpayable",
      "type": "function"
    },
    {
      "inputs": [
        {
          "internalType": "address",
          "name": "delegatee",
          "type": "address"
        }
      ],
      "name": "delegate",
      "outputs": [],
      "stateMutability": "nonpayable",
      "type": "function"
    },
    {
      "inputs": [
        {
          "internalType": "address",
          "name": "delegatee",
          "type": "address"
        },
        {
          "internalType": "uint256",
          "name": "nonce",
          "type": "uint256"
        },
        {
          "internalType": "uint256",
          "name": "expiry",
          "type": "uint256"
        },
        {
          "internalType": "uint8",
          "name": "v",
          "type": "uint8"
        },
        {
          "internalType": "bytes32",
          "name": "r",
          "type": "bytes32"
        },
        {
          "internalType": "bytes32",
          "name": "s",
          "type": "bytes32"
        }
      ],
      "name": "delegateBySig",
      "outputs": [],
      "stateMutability": "nonpayable",
      "type": "function"
    },
    {
      "inputs": [
        {
          "internalType": "address",
          "name": "account",
          "type": "address"
        }
      ],
      "name": "delegates",
      "outputs": [
        {
          "internalType": "address",
          "name": "",
          "type": "address"
        }
      ],
      "stateMutability": "view",
      "type": "function"
    },
    {
      "inputs": [],
      "name": "eip712Domain",
      "outputs": [
        {
          "internalType": "bytes1",
          "name": "fields",
          "type": "bytes1"
        },
        {
          "internalType": "string",
          "name": "name",
          "type": "string"
        },
        {
          "internalType": "string",
          "name": "version",
          "type": "string"
        },
        {
          "internalType": "uint256",
          "name": "chainId",
          "type": "uint256"
        },
        {
          "internalType": "address",
          "name": "verifyingContract",
          "type": "address"
        },
        {
          "internalType": "bytes32",
          "name": "salt",
          "type": "bytes32"
        },
        {
          "internalType": "uint256[]",
          "name": "extensions",
          "type": "uint256[]"
        }
      ],
      "stateMutability": "view",
      "type": "function"
    },
    {
      "inputs": [
        {
          "internalType": "uint256",
          "name": "timepoint",
          "type": "uint256"
        }
      ],
      "name": "getPastTotalSupply",
      "outputs": [
        {
          "internalType": "uint256",
          "name": "",
          "type": "uint256"
        }
      ],
      "stateMutability": "view",
      "type": "function"
    },
    {
      "inputs": [
        {
          "internalType": "address",
          "name": "account",
          "type": "address"
        },
        {
          "internalType": "uint256",
          "name": "timepoint",
          "type": "uint256"
        }
      ],
      "name": "getPastVotes",
      "outputs": [
        {
          "internalType": "uint256",
          "name": "",
          "type": "uint256"
        }
      ],
      "stateMutability": "view",
      "type": "function"
    },
    {
      "inputs": [
        {
          "internalType": "address",
          "name": "account",
          "type": "address"
        }
      ],
      "name": "getVotes",
      "outputs": [
        {
          "internalType": "uint256",
          "name": "",
          "type": "uint256"
        }
      ],
      "stateMutability": "view",
      "type": "function"
    },
    {
      "inputs": [
        {
          "internalType": "address",
          "name": "spender",
          "type": "address"
        },
        {
          "internalType": "uint256",
          "name": "addedValue",
          "type": "uint256"
        }
      ],
      "name": "increaseAllowance",
      "outputs": [
        {
          "internalType": "bool",
          "name": "",
          "type": "bool"
        }
      ],
      "stateMutability": "nonpayable",
      "type": "function"
    },
    {
      "inputs": [],
      "name": "initialize",
      "outputs": [],
      "stateMutability": "nonpayable",
      "type": "function"
    },
    {
      "inputs": [],
      "name": "name",
      "outputs": [
        {
          "internalType": "string",
          "name": "",
          "type": "string"
        }
      ],
      "stateMutability": "view",
      "type": "function"
    },
    {
      "inputs": [
        {
          "internalType": "address",
          "name": "owner",
          "type": "address"
        }
      ],
      "name": "nonces",
      "outputs": [
        {
          "internalType": "uint256",
          "name": "",
          "type": "uint256"
        }
      ],
      "stateMutability": "view",
      "type": "function"
    },
    {
      "inputs": [
        {
          "internalType": "address",
          "name": "account",
          "type": "address"
        }
      ],
      "name": "numCheckpoints",
      "outputs": [
        {
          "internalType": "uint32",
          "name": "",
          "type": "uint32"
        }
      ],
      "stateMutability": "view",
      "type": "function"
    },
    {
      "inputs": [
        {
          "internalType": "address",
          "name": "owner",
          "type": "address"
        },
        {
          "internalType": "address",
          "name": "spender",
          "type": "address"
        },
        {
          "internalType": "uint256",
          "name": "value",
          "type": "uint256"
        },
        {
          "internalType": "uint256",
          "name": "deadline",
          "type": "uint256"
        },
        {
          "internalType": "uint8",
          "name": "v",
          "type": "uint8"
        },
        {
          "internalType": "bytes32",
          "name": "r",
          "type": "bytes32"
        },
        {
          "internalType": "bytes32",
          "name": "s",
          "type": "bytes32"
        }
      ],
      "name": "permit",
      "outputs": [],
      "stateMutability": "nonpayable",
      "type": "function"
    },
    {
      "inputs": [],
      "name": "symbol",
      "outputs": [
        {
          "internalType": "string",
          "name": "",
          "type": "string"
        }
      ],
      "stateMutability": "view",
      "type": "function"
    },
    {
      "inputs": [],
      "name": "totalSupply",
      "outputs": [
        {
          "internalType": "uint256",
          "name": "",
          "type": "uint256"
        }
      ],
      "stateMutability": "view",
      "type": "function"
    },
    {
      "inputs": [
        {
          "internalType": "address",
          "name": "to",
          "type": "address"
        },
        {
          "internalType": "uint256",
          "name": "amount",
          "type": "uint256"
        }
      ],
      "name": "transfer",
      "outputs": [
        {
          "internalType": "bool",
          "name": "",
          "type": "bool"
        }
      ],
      "stateMutability": "nonpayable",
      "type": "function"
    },
    {
      "inputs": [
        {
          "internalType": "address",
          "name": "from",
          "type": "address"
        },
        {
          "internalType": "address",
          "name": "to",
          "type": "address"
        },
        {
          "internalType": "uint256",
          "name": "amount",
          "type": "uint256"
        }
      ],
      "name": "transferFrom",
      "outputs": [
        {
          "internalType": "bool",
          "name": "",
          "type": "bool"
        }
      ],
      "stateMutability": "nonpayable",
      "type": "function"
    }
  ],
  "transactionHash": "0xaa30083c6fbfc0b4721b6cf477419046ae063c616e6b93642653200832a3ca1e",
  "args": [],
  "numDeployments": 1,
  "solcInputHash": "89654ac750a24f25da8239fd67179dc3",
  "bytecode": "0x608060405234801561001057600080fd5b50611ba0806100206000396000f3fe608060405234801561001057600080fd5b506004361061018e5760003560e01c80637ecebe00116100de5780639ab24eb011610097578063c3cda52011610071578063c3cda520146103aa578063d505accf146103bd578063dd62ed3e146103d0578063f1127ed8146103e357600080fd5b80639ab24eb014610371578063a457c2d714610384578063a9059cbb1461039757600080fd5b80637ecebe001461030a5780638129fc1c1461031d57806384b0196e146103255780638e539e8c1461034057806391ddadf41461035357806395d89b411461036957600080fd5b8063395093511161014b578063587cde1e11610125578063587cde1e146102605780635c19a95c146102a45780636fcfff45146102b957806370a08231146102e157600080fd5b806339509351146102105780633a46b1a8146102235780634bf5d7e91461023657600080fd5b806306fdde0314610193578063095ea7b3146101b157806318160ddd146101d457806323b872dd146101e6578063313ce567146101f95780633644e51514610208575b600080fd5b61019b610420565b6040516101a891906116cd565b60405180910390f35b6101c46101bf3660046116fc565b6104b2565b60405190151581526020016101a8565b6035545b6040519081526020016101a8565b6101c46101f4366004611726565b6104cc565b604051601281526020016101a8565b6101d86104f0565b6101c461021e3660046116fc565b6104ff565b6101d86102313660046116fc565b610521565b60408051808201909152600e81526d06d6f64653d74696d657374616d760941b602082015261019b565b61028c61026e366004611762565b6001600160a01b03908116600090815260cc60205260409020541690565b6040516001600160a01b0390911681526020016101a8565b6102b76102b2366004611762565b610560565b005b6102cc6102c7366004611762565b61056d565b60405163ffffffff90911681526020016101a8565b6101d86102ef366004611762565b6001600160a01b031660009081526033602052604090205490565b6101d8610318366004611762565b61058f565b6102b76105ad565b61032d6106e4565b6040516101a8979695949392919061177d565b6101d861034e366004611813565b610747565b60405165ffffffffffff421681526020016101a8565b61019b610768565b6101d861037f366004611762565b610777565b6101c46103923660046116fc565b6107f9565b6101c46103a53660046116fc565b610823565b6102b76103b836600461183d565b610831565b6102b76103cb366004611895565b6108e1565b6101d86103de3660046118ff565b6109bf565b6103f66103f1366004611932565b6109ea565b60408051825163ffffffff1681526020928301516001600160e01b031692810192909252016101a8565b60606036805461042f90611972565b80601f016020809104026020016040519081016040528092919081815260200182805461045b90611972565b80156104a85780601f1061047d576101008083540402835291602001916104a8565b820191906000526020600020905b81548152906001019060200180831161048b57829003601f168201915b5050505050905090565b6000336104c0818585610a6e565b60019150505b92915050565b6000336104da858285610af5565b6104e5858585610b2c565b506001949350505050565b60006104fa610beb565b905090565b6000336104c081858561051283836109bf565b61051c91906119bc565b610a6e565b60004265ffffffffffff16821061053757600080fd5b6001600160a01b038316600090815260cd602052604090206105599083610bf5565b9392505050565b61056a3382610cde565b50565b6001600160a01b038116600090815260cd60205260408120546104c690610d58565b6001600160a01b0381166000908152609960205260408120546104c6565b600054610100900460ff16158080156105cd5750600054600160ff909116105b806105e75750303b1580156105e7575060005460ff166001145b6105f057600080fd5b6000805460ff191660011790558015610613576000805461ff0019166101001790555b6106576040518060400160405280600781526020016665786163746c7960c81b8152506040518060400160405280600381526020016245584160e81b815250610d6f565b61067f6040518060400160405280600781526020016665786163746c7960c81b815250610d91565b610687610dc8565b61069c336a084595161401484a000000610dde565b801561056a576000805461ff0019169055604051600181527f7f26b83ff96e1f2b6a682f133852f6798a09c465da95921460cefb38474024989060200160405180910390a150565b6000606080600080600060606065546000801b1480156107045750606654155b61070d57600080fd5b610715610e0c565b61071d610e1b565b60408051600080825260208201909252600f60f81b9b939a50919850469750309650945092509050565b60004265ffffffffffff16821061075d57600080fd5b6104c660ce83610bf5565b60606037805461042f90611972565b6001600160a01b038116600090815260cd602052604081205480156107e6576001600160a01b038316600090815260cd60205260409020805460001983019081106107c4576107c46119e5565b60009182526020909120015464010000000090046001600160e01b03166107e9565b60005b6001600160e01b03169392505050565b6000338161080782866109bf565b90508381101561081657600080fd5b6104e58286868403610a6e565b6000336104c0818585610b2c565b8342111561083e57600080fd5b604080517fe48329057bfd03d55e49b547132e39cffd9c1820ad7b9d4c5307691425d15adf60208201526001600160a01b0388169181019190915260608101869052608081018590526000906108b8906108b09060a00160405160208183030381529060405280519060200120610e2a565b858585610e57565b90506108c381610e7f565b86146108ce57600080fd5b6108d88188610cde565b50505050505050565b834211156108ee57600080fd5b60007f6e71edae12b1b97f4d1f60370fef10105fa2faae0126114a169c64845d6126c988888861091d8c610e7f565b6040805160208101969096526001600160a01b0394851690860152929091166060840152608083015260a082015260c0810186905260e001604051602081830303815290604052805190602001209050600061097882610e2a565b9050600061098882878787610e57565b9050896001600160a01b0316816001600160a01b0316146109a857600080fd5b6109b38a8a8a610a6e565b50505050505050505050565b6001600160a01b03918216600090815260346020908152604080832093909416825291909152205490565b60408051808201909152600080825260208201526001600160a01b038316600090815260cd60205260409020805463ffffffff8416908110610a2e57610a2e6119e5565b60009182526020918290206040805180820190915291015463ffffffff8116825264010000000090046001600160e01b0316918101919091529392505050565b6001600160a01b038316610a8157600080fd5b6001600160a01b038216610a9457600080fd5b6001600160a01b0383811660008181526034602090815260408083209487168084529482529182902085905590518481527f8c5be1e5ebec7d5bd14f71427d1e84f3dd0314c0f7b2291e5b200ac8c7c3b925910160405180910390a3505050565b6000610b0184846109bf565b90506000198114610b265781811015610b1957600080fd5b610b268484848403610a6e565b50505050565b6001600160a01b038316610b3f57600080fd5b6001600160a01b038216610b5257600080fd5b6001600160a01b03831660009081526033602052604090205481811015610b7857600080fd5b6001600160a01b0380851660008181526033602052604080822086860390559286168082529083902080548601905591517fddf252ad1be2c89b69c2b068fc378daa952ba7f163c4a11628f55a4df523b3ef90610bd89086815260200190565b60405180910390a3610b26848484610eac565b60006104fa610ede565b815460009081816005811115610c4f576000610c1084610f52565b610c1a90856119fb565b600088815260209020909150869082015463ffffffff161115610c3f57809150610c4d565b610c4a8160016119bc565b92505b505b80821015610c9c576000610c63838361103a565b600088815260209020909150869082015463ffffffff161115610c8857809150610c96565b610c938160016119bc565b92505b50610c4f565b8015610cc8576000868152602090208101600019015464010000000090046001600160e01b0316610ccb565b60005b6001600160e01b03169695505050505050565b6001600160a01b03828116600081815260cc6020818152604080842080546033845282862054949093528787166001600160a01b03198416811790915590519190951694919391928592917f3134e8a2e6d97e929a7e54011ea5485d7d196dd5f0ba4d4ef95803e8e3fc257f9190a4610b26828483611055565b600063ffffffff821115610d6b57600080fd5b5090565b600054610100900460ff16610d8357600080fd5b610d8d8282611192565b5050565b600054610100900460ff16610da557600080fd5b61056a81604051806040016040528060018152602001603160f81b8152506111bf565b600054610100900460ff16610ddc57600080fd5b565b610de882826111fb565b6035546001600160e01b031015610dfe57600080fd5b610b2660ce6112818361128d565b60606067805461042f90611972565b60606068805461042f90611972565b60006104c6610e37610beb565b8360405161190160f01b8152600281019290925260228201526042902090565b6000806000610e68878787876113f7565b91509150610e75816114bb565b5095945050505050565b6001600160a01b03811660009081526099602052604090208054600181018255905b50919050565b505050565b6001600160a01b03838116600090815260cc6020526040808220548584168352912054610ea792918216911683611055565b60007f8b73c3c69bb8fe3d512ecc4cf759cc79239f7b179b0ffacaa9a75d522b39400f610f09611531565b610f1161158a565b60408051602081019490945283019190915260608201524660808201523060a082015260c00160405160208183030381529060405280519060200120905090565b600081600003610f6457506000919050565b60006001610f71846115bb565b901c6001901b90506001818481610f8a57610f8a611a0e565b048201901c90506001818481610fa257610fa2611a0e565b048201901c90506001818481610fba57610fba611a0e565b048201901c90506001818481610fd257610fd2611a0e565b048201901c90506001818481610fea57610fea611a0e565b048201901c9050600181848161100257611002611a0e565b048201901c9050600181848161101a5761101a611a0e565b048201901c90506105598182858161103457611034611a0e565b0461164f565b60006110496002848418611a24565b610559908484166119bc565b816001600160a01b0316836001600160a01b0316141580156110775750600081115b15610ea7576001600160a01b03831615611105576001600160a01b038316600090815260cd6020526040812081906110b2906116658561128d565b91509150846001600160a01b03167fdec2bacdd2f05b59de34da9b523dff8be42e5e38e818c82fdb0bae774387a72483836040516110fa929190918252602082015260400190565b60405180910390a250505b6001600160a01b03821615610ea7576001600160a01b038216600090815260cd60205260408120819061113b906112818561128d565b91509150836001600160a01b03167fdec2bacdd2f05b59de34da9b523dff8be42e5e38e818c82fdb0bae774387a7248383604051611183929190918252602082015260400190565b60405180910390a25050505050565b600054610100900460ff166111a657600080fd5b60366111b28382611a94565b506037610ea78282611a94565b600054610100900460ff166111d357600080fd5b60676111df8382611a94565b5060686111ec8282611a94565b50506000606581905560665550565b6001600160a01b03821661120e57600080fd5b806035600082825461122091906119bc565b90915550506001600160a01b0382166000818152603360209081526040808320805486019055518481527fddf252ad1be2c89b69c2b068fc378daa952ba7f163c4a11628f55a4df523b3ef910160405180910390a3610d8d60008383610eac565b600061055982846119bc565b825460009081908181156112da5760008781526020902082016000190160408051808201909152905463ffffffff8116825264010000000090046001600160e01b031660208201526112ef565b60408051808201909152600080825260208201525b905080602001516001600160e01b0316935061130f84868863ffffffff16565b925060008211801561132f5750805163ffffffff1665ffffffffffff4216145b156113745761133d83611671565b60008881526020902083016000190180546001600160e01b03929092166401000000000263ffffffff9092169190911790556113ed565b86604051806040016040528061139761138a4290565b65ffffffffffff16610d58565b63ffffffff1681526020016113ab86611671565b6001600160e01b0390811690915282546001810184556000938452602093849020835194909301519091166401000000000263ffffffff909316929092179101555b5050935093915050565b6000807f7fffffffffffffffffffffffffffffff5d576e7357a4501ddfe92f46681b20a083111561142e57506000905060036114b2565b6040805160008082526020820180845289905260ff881692820192909252606081018690526080810185905260019060a0016020604051602081039080840390855afa158015611482573d6000803e3d6000fd5b5050604051601f1901519150506001600160a01b0381166114ab576000600192509250506114b2565b9150600090505b94509492505050565b60008160048111156114cf576114cf611b54565b036114d75750565b60018160048111156114eb576114eb611b54565b036114f557600080fd5b600281600481111561150957611509611b54565b0361151357600080fd5b600381600481111561152757611527611b54565b0361056a57600080fd5b60008061153c610e0c565b805190915015611553578051602090910120919050565b60655480156115625792915050565b7fc5d2460186f7233c927e7db2dcc703c0e500b653ca82273b7bfad8045d85a4709250505090565b600080611595610e1b565b8051909150156115ac578051602090910120919050565b60665480156115625792915050565b600080608083901c156115d057608092831c92015b604083901c156115e257604092831c92015b602083901c156115f457602092831c92015b601083901c1561160657601092831c92015b600883901c1561161857600892831c92015b600483901c1561162a57600492831c92015b600283901c1561163c57600292831c92015b600183901c156104c65760010192915050565b600081831061165e5781610559565b5090919050565b600061055982846119fb565b60006001600160e01b03821115610d6b57600080fd5b6000815180845260005b818110156116ad57602081850181015186830182015201611691565b506000602082860101526020601f19601f83011685010191505092915050565b6020815260006105596020830184611687565b80356001600160a01b03811681146116f757600080fd5b919050565b6000806040838503121561170f57600080fd5b611718836116e0565b946020939093013593505050565b60008060006060848603121561173b57600080fd5b611744846116e0565b9250611752602085016116e0565b9150604084013590509250925092565b60006020828403121561177457600080fd5b610559826116e0565b60ff60f81b881681526000602060e08184015261179d60e084018a611687565b83810360408501526117af818a611687565b606085018990526001600160a01b038816608086015260a0850187905284810360c0860152855180825283870192509083019060005b81811015611801578351835292840192918401916001016117e5565b50909c9b505050505050505050505050565b60006020828403121561182557600080fd5b5035919050565b803560ff811681146116f757600080fd5b60008060008060008060c0878903121561185657600080fd5b61185f876116e0565b9550602087013594506040870135935061187b6060880161182c565b92506080870135915060a087013590509295509295509295565b600080600080600080600060e0888a0312156118b057600080fd5b6118b9886116e0565b96506118c7602089016116e0565b955060408801359450606088013593506118e36080890161182c565b925060a0880135915060c0880135905092959891949750929550565b6000806040838503121561191257600080fd5b61191b836116e0565b9150611929602084016116e0565b90509250929050565b6000806040838503121561194557600080fd5b61194e836116e0565b9150602083013563ffffffff8116811461196757600080fd5b809150509250929050565b600181811c9082168061198657607f821691505b602082108103610ea157634e487b7160e01b600052602260045260246000fd5b634e487b7160e01b600052601160045260246000fd5b808201808211156104c6576104c66119a6565b634e487b7160e01b600052604160045260246000fd5b634e487b7160e01b600052603260045260246000fd5b818103818111156104c6576104c66119a6565b634e487b7160e01b600052601260045260246000fd5b600082611a4157634e487b7160e01b600052601260045260246000fd5b500490565b601f821115610ea757600081815260208120601f850160051c81016020861015611a6d5750805b601f850160051c820191505b81811015611a8c57828155600101611a79565b505050505050565b815167ffffffffffffffff811115611aae57611aae6119cf565b611ac281611abc8454611972565b84611a46565b602080601f831160018114611af75760008415611adf5750858301515b600019600386901b1c1916600185901b178555611a8c565b600085815260208120601f198616915b82811015611b2657888601518255948401946001909101908401611b07565b5085821015611b445787850151600019600388901b60f8161c191681555b5050505050600190811b01905550565b634e487b7160e01b600052602160045260246000fdfea264697066735822122022abe8f132e1dfc5291dfa428fb02d88ea8569d3ac216b3c91087bcc9ef6d6a464736f6c63430008110033",
  "devdoc": {
    "kind": "dev",
    "methods": {
      "CLOCK_MODE()": {
        "details": "Description of the clock"
      },
      "DOMAIN_SEPARATOR()": {
        "details": "See {IERC20Permit-DOMAIN_SEPARATOR}."
      },
      "allowance(address,address)": {
        "details": "See {IERC20-allowance}."
      },
      "approve(address,uint256)": {
        "details": "See {IERC20-approve}. NOTE: If `amount` is the maximum `uint256`, the allowance is not updated on `transferFrom`. This is semantically equivalent to an infinite approval. Requirements: - `spender` cannot be the zero address."
      },
      "balanceOf(address)": {
        "details": "See {IERC20-balanceOf}."
      },
      "checkpoints(address,uint32)": {
        "details": "Get the `pos`-th checkpoint for `account`."
      },
      "clock()": {
        "details": "Clock used for flagging checkpoints. Can be overridden to implement timestamp based checkpoints (and voting)."
      },
      "decimals()": {
        "details": "Returns the number of decimals used to get its user representation. For example, if `decimals` equals `2`, a balance of `505` tokens should be displayed to a user as `5.05` (`505 / 10 ** 2`). Tokens usually opt for a value of 18, imitating the relationship between Ether and Wei. This is the default value returned by this function, unless it's overridden. NOTE: This information is only used for _display_ purposes: it in no way affects any of the arithmetic of the contract, including {IERC20-balanceOf} and {IERC20-transfer}."
      },
      "decreaseAllowance(address,uint256)": {
        "details": "Atomically decreases the allowance granted to `spender` by the caller. This is an alternative to {approve} that can be used as a mitigation for problems described in {IERC20-approve}. Emits an {Approval} event indicating the updated allowance. Requirements: - `spender` cannot be the zero address. - `spender` must have allowance for the caller of at least `subtractedValue`."
      },
      "delegate(address)": {
        "details": "Delegate votes from the sender to `delegatee`."
      },
      "delegateBySig(address,uint256,uint256,uint8,bytes32,bytes32)": {
        "details": "Delegates votes from signer to `delegatee`"
      },
      "delegates(address)": {
        "details": "Get the address `account` is currently delegating to."
      },
      "eip712Domain()": {
        "details": "See {EIP-5267}. _Available since v4.9._"
      },
      "getPastTotalSupply(uint256)": {
        "details": "Retrieve the `totalSupply` at the end of `timepoint`. Note, this value is the sum of all balances. It is NOT the sum of all the delegated votes! Requirements: - `timepoint` must be in the past"
      },
      "getPastVotes(address,uint256)": {
        "details": "Retrieve the number of votes for `account` at the end of `timepoint`. Requirements: - `timepoint` must be in the past"
      },
      "getVotes(address)": {
        "details": "Gets the current votes balance for `account`"
      },
      "increaseAllowance(address,uint256)": {
        "details": "Atomically increases the allowance granted to `spender` by the caller. This is an alternative to {approve} that can be used as a mitigation for problems described in {IERC20-approve}. Emits an {Approval} event indicating the updated allowance. Requirements: - `spender` cannot be the zero address."
      },
      "name()": {
        "details": "Returns the name of the token."
      },
      "nonces(address)": {
        "details": "See {IERC20Permit-nonces}."
      },
      "numCheckpoints(address)": {
        "details": "Get number of checkpoints for `account`."
      },
      "permit(address,address,uint256,uint256,uint8,bytes32,bytes32)": {
        "details": "See {IERC20Permit-permit}."
      },
      "symbol()": {
        "details": "Returns the symbol of the token, usually a shorter version of the name."
      },
      "totalSupply()": {
        "details": "See {IERC20-totalSupply}."
      },
      "transfer(address,uint256)": {
        "details": "See {IERC20-transfer}. Requirements: - `to` cannot be the zero address. - the caller must have a balance of at least `amount`."
      },
      "transferFrom(address,address,uint256)": {
        "details": "See {IERC20-transferFrom}. Emits an {Approval} event indicating the updated allowance. This is not required by the EIP. See the note at the beginning of {ERC20}. NOTE: Does not update the allowance if the current allowance is the maximum `uint256`. Requirements: - `from` and `to` cannot be the zero address. - `from` must have a balance of at least `amount`. - the caller must have allowance for ``from``'s tokens of at least `amount`."
      }
    },
    "version": 1
  },
  "userdoc": {
    "kind": "user",
    "methods": {},
    "version": 1
  },
  "storageLayout": {
    "storage": [
      {
        "astId": 542,
        "contract": "contracts/periphery/EXA.sol:EXA",
        "label": "_initialized",
        "offset": 0,
        "slot": "0",
        "type": "t_uint8"
      },
      {
        "astId": 545,
        "contract": "contracts/periphery/EXA.sol:EXA",
        "label": "_initializing",
        "offset": 1,
        "slot": "0",
        "type": "t_bool"
      },
      {
        "astId": 3274,
        "contract": "contracts/periphery/EXA.sol:EXA",
        "label": "__gap",
        "offset": 0,
        "slot": "1",
        "type": "t_array(t_uint256)50_storage"
      },
      {
        "astId": 850,
        "contract": "contracts/periphery/EXA.sol:EXA",
        "label": "_balances",
        "offset": 0,
        "slot": "51",
        "type": "t_mapping(t_address,t_uint256)"
      },
      {
        "astId": 856,
        "contract": "contracts/periphery/EXA.sol:EXA",
        "label": "_allowances",
        "offset": 0,
        "slot": "52",
        "type": "t_mapping(t_address,t_mapping(t_address,t_uint256))"
      },
      {
        "astId": 858,
        "contract": "contracts/periphery/EXA.sol:EXA",
        "label": "_totalSupply",
        "offset": 0,
        "slot": "53",
        "type": "t_uint256"
      },
      {
        "astId": 860,
        "contract": "contracts/periphery/EXA.sol:EXA",
        "label": "_name",
        "offset": 0,
        "slot": "54",
        "type": "t_string_storage"
      },
      {
        "astId": 862,
        "contract": "contracts/periphery/EXA.sol:EXA",
        "label": "_symbol",
        "offset": 0,
        "slot": "55",
        "type": "t_string_storage"
      },
      {
        "astId": 1442,
        "contract": "contracts/periphery/EXA.sol:EXA",
        "label": "__gap",
        "offset": 0,
        "slot": "56",
        "type": "t_array(t_uint256)45_storage"
      },
      {
        "astId": 3962,
        "contract": "contracts/periphery/EXA.sol:EXA",
        "label": "_hashedName",
        "offset": 0,
        "slot": "101",
        "type": "t_bytes32"
      },
      {
        "astId": 3965,
        "contract": "contracts/periphery/EXA.sol:EXA",
        "label": "_hashedVersion",
        "offset": 0,
        "slot": "102",
        "type": "t_bytes32"
      },
      {
        "astId": 3967,
        "contract": "contracts/periphery/EXA.sol:EXA",
        "label": "_name",
        "offset": 0,
        "slot": "103",
        "type": "t_string_storage"
      },
      {
        "astId": 3969,
        "contract": "contracts/periphery/EXA.sol:EXA",
        "label": "_version",
        "offset": 0,
        "slot": "104",
        "type": "t_string_storage"
      },
      {
        "astId": 4227,
        "contract": "contracts/periphery/EXA.sol:EXA",
        "label": "__gap",
        "offset": 0,
        "slot": "105",
        "type": "t_array(t_uint256)48_storage"
      },
      {
        "astId": 1547,
        "contract": "contracts/periphery/EXA.sol:EXA",
        "label": "_nonces",
        "offset": 0,
        "slot": "153",
        "type": "t_mapping(t_address,t_struct(Counter)3281_storage)"
      },
      {
        "astId": 1555,
        "contract": "contracts/periphery/EXA.sol:EXA",
        "label": "_PERMIT_TYPEHASH_DEPRECATED_SLOT",
        "offset": 0,
        "slot": "154",
        "type": "t_bytes32"
      },
      {
        "astId": 1711,
        "contract": "contracts/periphery/EXA.sol:EXA",
        "label": "__gap",
        "offset": 0,
        "slot": "155",
        "type": "t_array(t_uint256)49_storage"
      },
      {
        "astId": 1753,
        "contract": "contracts/periphery/EXA.sol:EXA",
        "label": "_delegates",
        "offset": 0,
        "slot": "204",
        "type": "t_mapping(t_address,t_address)"
      },
      {
        "astId": 1759,
        "contract": "contracts/periphery/EXA.sol:EXA",
        "label": "_checkpoints",
        "offset": 0,
        "slot": "205",
        "type": "t_mapping(t_address,t_array(t_struct(Checkpoint)1744_storage)dyn_storage)"
      },
      {
        "astId": 1763,
        "contract": "contracts/periphery/EXA.sol:EXA",
        "label": "_totalSupplyCheckpoints",
        "offset": 0,
        "slot": "206",
        "type": "t_array(t_struct(Checkpoint)1744_storage)dyn_storage"
      },
      {
        "astId": 2465,
        "contract": "contracts/periphery/EXA.sol:EXA",
        "label": "__gap",
        "offset": 0,
        "slot": "207",
        "type": "t_array(t_uint256)47_storage"
      }
    ],
    "types": {
      "t_address": {
        "encoding": "inplace",
        "label": "address",
        "numberOfBytes": "20"
      },
      "t_array(t_struct(Checkpoint)1744_storage)dyn_storage": {
        "base": "t_struct(Checkpoint)1744_storage",
        "encoding": "dynamic_array",
        "label": "struct ERC20VotesUpgradeable.Checkpoint[]",
        "numberOfBytes": "32"
      },
      "t_array(t_uint256)45_storage": {
        "base": "t_uint256",
        "encoding": "inplace",
        "label": "uint256[45]",
        "numberOfBytes": "1440"
      },
      "t_array(t_uint256)47_storage": {
        "base": "t_uint256",
        "encoding": "inplace",
        "label": "uint256[47]",
        "numberOfBytes": "1504"
      },
      "t_array(t_uint256)48_storage": {
        "base": "t_uint256",
        "encoding": "inplace",
        "label": "uint256[48]",
        "numberOfBytes": "1536"
      },
      "t_array(t_uint256)49_storage": {
        "base": "t_uint256",
        "encoding": "inplace",
        "label": "uint256[49]",
        "numberOfBytes": "1568"
      },
      "t_array(t_uint256)50_storage": {
        "base": "t_uint256",
        "encoding": "inplace",
        "label": "uint256[50]",
        "numberOfBytes": "1600"
      },
      "t_bool": {
        "encoding": "inplace",
        "label": "bool",
        "numberOfBytes": "1"
      },
      "t_bytes32": {
        "encoding": "inplace",
        "label": "bytes32",
        "numberOfBytes": "32"
      },
      "t_mapping(t_address,t_address)": {
        "encoding": "mapping",
        "key": "t_address",
        "label": "mapping(address => address)",
        "numberOfBytes": "32",
        "value": "t_address"
      },
      "t_mapping(t_address,t_array(t_struct(Checkpoint)1744_storage)dyn_storage)": {
        "encoding": "mapping",
        "key": "t_address",
        "label": "mapping(address => struct ERC20VotesUpgradeable.Checkpoint[])",
        "numberOfBytes": "32",
        "value": "t_array(t_struct(Checkpoint)1744_storage)dyn_storage"
      },
      "t_mapping(t_address,t_mapping(t_address,t_uint256))": {
        "encoding": "mapping",
        "key": "t_address",
        "label": "mapping(address => mapping(address => uint256))",
        "numberOfBytes": "32",
        "value": "t_mapping(t_address,t_uint256)"
      },
      "t_mapping(t_address,t_struct(Counter)3281_storage)": {
        "encoding": "mapping",
        "key": "t_address",
        "label": "mapping(address => struct CountersUpgradeable.Counter)",
        "numberOfBytes": "32",
        "value": "t_struct(Counter)3281_storage"
      },
      "t_mapping(t_address,t_uint256)": {
        "encoding": "mapping",
        "key": "t_address",
        "label": "mapping(address => uint256)",
        "numberOfBytes": "32",
        "value": "t_uint256"
      },
      "t_string_storage": {
        "encoding": "bytes",
        "label": "string",
        "numberOfBytes": "32"
      },
      "t_struct(Checkpoint)1744_storage": {
        "encoding": "inplace",
        "label": "struct ERC20VotesUpgradeable.Checkpoint",
        "members": [
          {
            "astId": 1741,
            "contract": "contracts/periphery/EXA.sol:EXA",
            "label": "fromBlock",
            "offset": 0,
            "slot": "0",
            "type": "t_uint32"
          },
          {
            "astId": 1743,
            "contract": "contracts/periphery/EXA.sol:EXA",
            "label": "votes",
            "offset": 4,
            "slot": "0",
            "type": "t_uint224"
          }
        ],
        "numberOfBytes": "32"
      },
      "t_struct(Counter)3281_storage": {
        "encoding": "inplace",
        "label": "struct CountersUpgradeable.Counter",
        "members": [
          {
            "astId": 3280,
            "contract": "contracts/periphery/EXA.sol:EXA",
            "label": "_value",
            "offset": 0,
            "slot": "0",
            "type": "t_uint256"
          }
        ],
        "numberOfBytes": "32"
      },
      "t_uint224": {
        "encoding": "inplace",
        "label": "uint224",
        "numberOfBytes": "28"
      },
      "t_uint256": {
        "encoding": "inplace",
        "label": "uint256",
        "numberOfBytes": "32"
      },
      "t_uint32": {
        "encoding": "inplace",
        "label": "uint32",
        "numberOfBytes": "4"
      },
      "t_uint8": {
        "encoding": "inplace",
        "label": "uint8",
        "numberOfBytes": "1"
      }
    }
  }
}