{
  "address": "0x5E454beFf7378781376Dcf5CB733FB4259E1c7E9",
  "abi": [
    {
      "inputs": [
        {
          "internalType": "contract Auditor",
          "name": "auditor_",
          "type": "address"
        },
        {
          "internalType": "contract IBalancerVault",
          "name": "balancerVault_",
          "type": "address"
        }
      ],
      "stateMutability": "nonpayable",
      "type": "constructor"
    },
    {
      "inputs": [],
      "name": "MarketNotListed",
      "type": "error"
    },
    {
      "inputs": [],
      "name": "NotBalancerVault",
      "type": "error"
    },
    {
      "inputs": [
        {
          "internalType": "contract Market",
          "name": "market",
          "type": "address"
        }
      ],
      "name": "approve",
      "outputs": [],
      "stateMutability": "nonpayable",
      "type": "function"
    },
    {
      "inputs": [],
      "name": "auditor",
      "outputs": [
        {
          "internalType": "contract Auditor",
          "name": "",
          "type": "address"
        }
      ],
      "stateMutability": "view",
      "type": "function"
    },
    {
      "inputs": [],
      "name": "balancerVault",
      "outputs": [
        {
          "internalType": "contract IBalancerVault",
          "name": "",
          "type": "address"
        }
      ],
      "stateMutability": "view",
      "type": "function"
    },
    {
      "inputs": [
        {
          "internalType": "contract Market",
          "name": "market",
          "type": "address"
        },
        {
          "internalType": "uint256",
          "name": "percentage",
          "type": "uint256"
        }
      ],
      "name": "deleverage",
      "outputs": [],
      "stateMutability": "nonpayable",
      "type": "function"
    },
    {
      "inputs": [
        {
          "internalType": "contract Market",
          "name": "market",
          "type": "address"
        },
        {
          "internalType": "uint256",
          "name": "principal",
          "type": "uint256"
        },
        {
          "internalType": "uint256",
          "name": "targetHealthFactor",
          "type": "uint256"
        },
        {
          "internalType": "bool",
          "name": "deposit",
          "type": "bool"
        }
      ],
      "name": "leverage",
      "outputs": [],
      "stateMutability": "nonpayable",
      "type": "function"
    },
    {
      "inputs": [
        {
          "internalType": "contract ERC20[]",
          "name": "",
          "type": "address[]"
        },
        {
          "internalType": "uint256[]",
          "name": "amounts",
          "type": "uint256[]"
        },
        {
          "internalType": "uint256[]",
          "name": "",
          "type": "uint256[]"
        },
        {
          "internalType": "bytes",
          "name": "userData",
          "type": "bytes"
        }
      ],
      "name": "receiveFlashLoan",
      "outputs": [],
      "stateMutability": "nonpayable",
      "type": "function"
    }
  ],
  "transactionHash": "0x105b4966c721626c27875ce0948aca094eb627761d40e5327c7b200ab920076d",
  "args": [
    "0xaEb62e6F27BC103702E7BC879AE98bceA56f027E",
    "0xBA12222222228d8Ba445958a75a0704d566BF2C8"
  ],
  "numDeployments": 1,
  "solcInputHash": "d84b642715e2afb0ff40e55838571f1c",
  "bytecode": "0x60c06040523480156200001157600080fd5b50604051620016d2380380620016d283398101604081905262000034916200020c565b6001600160a01b0380831660a081905290821660805260408051631bad3e5d60e11b815290516000929163375a7cba91600480830192869291908290030181865afa15801562000088573d6000803e3d6000fd5b505050506040513d6000823e601f3d908101601f19168201604052620000b2919081019062000273565b905060005b8151811015620001995762000184828281518110620000da57620000da62000345565b6020026020010151600019848481518110620000fa57620000fa62000345565b60200260200101516001600160a01b03166338d52e0f6040518163ffffffff1660e01b8152600401602060405180830381865afa15801562000140573d6000803e3d6000fd5b505050506040513d601f19601f820116820180604052508101906200016691906200035b565b6001600160a01b0316620001a360201b62000b75179092919060201c565b80620001908162000382565b915050620000b7565b50505050620003aa565b600060405163095ea7b360e01b6000528360045282602452602060006044600080895af13d15601f3d1160016000511416171691506000606052806040525080620001ed57600080fd5b50505050565b6001600160a01b03811681146200020957600080fd5b50565b600080604083850312156200022057600080fd5b82516200022d81620001f3565b60208401519092506200024081620001f3565b809150509250929050565b634e487b7160e01b600052604160045260246000fd5b80516200026e81620001f3565b919050565b600060208083850312156200028757600080fd5b82516001600160401b03808211156200029f57600080fd5b818501915085601f830112620002b457600080fd5b815181811115620002c957620002c96200024b565b8060051b604051601f19603f83011681018181108582111715620002f157620002f16200024b565b6040529182528482019250838101850191888311156200031057600080fd5b938501935b828510156200033957620003298562000261565b8452938501939285019262000315565b98975050505050505050565b634e487b7160e01b600052603260045260246000fd5b6000602082840312156200036e57600080fd5b81516200037b81620001f3565b9392505050565b600060018201620003a357634e487b7160e01b600052601160045260246000fd5b5060010190565b60805160a0516112d3620003ff6000396000818160c40152818161048801526106e50152600081816081015281816102fe015281816105da015281816107fe015281816109520152610acd01526112d36000f3fe608060405234801561001057600080fd5b50600436106100625760003560e01c806307c4902f14610067578063158274a51461007c5780633ec045a6146100bf578063912019c9146100e6578063daea85c5146100f9578063f04f27071461010c575b600080fd5b61007a610075366004610c77565b61011f565b005b6100a37f000000000000000000000000000000000000000000000000000000000000000081565b6040516001600160a01b03909116815260200160405180910390f35b6100a37f000000000000000000000000000000000000000000000000000000000000000081565b61007a6100f4366004610cb1565b6103e5565b61007a610107366004610cfb565b6106c3565b61007a61011a366004610e65565b6107f3565b604051632f2e037160e11b81523360048201526000906001600160a01b03841690635e5c06e290602401606060405180830381865afa158015610166573d6000803e3d6000fd5b505050506040513d601f19601f8201168201806040525081019061018a9190610f70565b6040805160018082528183019092529194506000935090915060208083019080368337019050509050836001600160a01b03166338d52e0f6040518163ffffffff1660e01b8152600401602060405180830381865afa1580156101f1573d6000803e3d6000fd5b505050506040513d601f19601f820116820180604052508101906102159190610f9e565b8160008151811061022857610228610fbb565b6001600160a01b0392909216602092830291909101909101526040805160018082528183019092526000918160200160208202803683370190505090506001600160a01b0385166347dffde061027e8587610bc4565b6040518263ffffffff1660e01b815260040161029c91815260200190565b602060405180830381865afa1580156102b9573d6000803e3d6000fd5b505050506040513d601f19601f820116820180604052508101906102dd9190610fd1565b816000815181106102f0576102f0610fbb565b6020026020010181815250507f00000000000000000000000000000000000000000000000000000000000000006001600160a01b0316635c38449e3084846040518060a001604052808b6001600160a01b03168152602001336001600160a01b03168152602001600081526020016000151581526020016000151581525060405160200161037e9190610fea565b6040516020818303038152906040526040518563ffffffff1660e01b81526004016103ac9493929190611077565b600060405180830381600087803b1580156103c657600080fd5b505af11580156103da573d6000803e3d6000fd5b505050505050505050565b6000846001600160a01b03166338d52e0f6040518163ffffffff1660e01b8152600401602060405180830381865afa158015610425573d6000803e3d6000fd5b505050506040513d601f19601f820116820180604052508101906104499190610f9e565b90508115610466576104666001600160a01b038216333087610be2565b604051638e8f294b60e01b81526001600160a01b0386811660048301526000917f000000000000000000000000000000000000000000000000000000000000000090911690638e8f294b9060240160a060405180830381865afa1580156104d1573d6000803e3d6000fd5b505050506040513d601f19601f820116820180604052508101906104f59190611134565b505050506001600160801b0316905060006105238561051d8485610bc490919063ffffffff16565b90610c2f565b6040805160018082528183019092529192506000919060208083019080368337019050509050838160008151811061055d5761055d610fbb565b6001600160a01b0392909216602092830291909101909101526040805160018082528183019092526000918160200160208202803683370190505090506105b96105af84670de0b6b3a76400006111c4565b61051d8a86610bc4565b816000815181106105cc576105cc610fbb565b6020026020010181815250507f00000000000000000000000000000000000000000000000000000000000000006001600160a01b0316635c38449e3084846040518060a001604052808f6001600160a01b03168152602001336001600160a01b031681526020018e81526020016001151581526020018c15158152506040516020016106589190610fea565b6040516020818303038152906040526040518563ffffffff1660e01b81526004016106869493929190611077565b600060405180830381600087803b1580156106a057600080fd5b505af11580156106b4573d6000803e3d6000fd5b50505050505050505050505050565b604051638e8f294b60e01b81526001600160a01b0382811660048301526000917f000000000000000000000000000000000000000000000000000000000000000090911690638e8f294b9060240160a060405180830381865afa15801561072e573d6000803e3d6000fd5b505050506040513d601f19601f820116820180604052508101906107529190611134565b50935050505080610776576040516334b04fe360e11b815260040160405180910390fd5b6107ef82600019846001600160a01b03166338d52e0f6040518163ffffffff1660e01b8152600401602060405180830381865afa1580156107bb573d6000803e3d6000fd5b505050506040513d601f19601f820116820180604052508101906107df9190610f9e565b6001600160a01b03169190610b75565b5050565b336001600160a01b037f0000000000000000000000000000000000000000000000000000000000000000161461083c5760405163f4a8e62160e01b815260040160405180910390fd5b60008180602001905181019061085291906111d7565b90508060600151156109f75780600001516001600160a01b0316636e553f658260800151610881576000610887565b82604001515b8660008151811061089a5761089a610fbb565b60200260200101516108ac9190611266565b60208401516040516001600160e01b031960e085901b16815260048101929092526001600160a01b031660248201526044016020604051808303816000875af11580156108fd573d6000803e3d6000fd5b505050506040513d601f19601f820116820180604052508101906109219190610fd1565b5080600001516001600160a01b031663d51641848560008151811061094857610948610fbb565b60200260200101517f000000000000000000000000000000000000000000000000000000000000000084602001516040518463ffffffff1660e01b81526004016109ae939291909283526001600160a01b03918216602084015216604082015260600190565b6020604051808303816000875af11580156109cd573d6000803e3d6000fd5b505050506040513d601f19601f820116820180604052508101906109f19190610fd1565b50610b6e565b80600001516001600160a01b031663acb7081585600081518110610a1d57610a1d610fbb565b602002602001015183602001516040518363ffffffff1660e01b8152600401610a599291909182526001600160a01b0316602082015260400190565b60408051808303816000875af1158015610a77573d6000803e3d6000fd5b505050506040513d601f19601f82011682018060405250810190610a9b9190611279565b505080600001516001600160a01b031663b460af9485600081518110610ac357610ac3610fbb565b60200260200101517f000000000000000000000000000000000000000000000000000000000000000084602001516040518463ffffffff1660e01b8152600401610b29939291909283526001600160a01b03918216602084015216604082015260600190565b6020604051808303816000875af1158015610b48573d6000803e3d6000fd5b505050506040513d601f19601f82011682018060405250810190610b6c9190610fd1565b505b5050505050565b600060405163095ea7b360e01b6000528360045282602452602060006044600080895af13d15601f3d1160016000511416171691506000606052806040525080610bbe57600080fd5b50505050565b6000610bd98383670de0b6b3a7640000610c40565b90505b92915050565b60006040516323b872dd60e01b6000528460045283602452826044526020600060646000808a5af13d15601f3d1160016000511416171691506000606052806040525080610b6e57600080fd5b6000610bd983670de0b6b3a7640000845b828202811515841585830485141716610c5857600080fd5b0492915050565b6001600160a01b0381168114610c7457600080fd5b50565b60008060408385031215610c8a57600080fd5b8235610c9581610c5f565b946020939093013593505050565b8015158114610c7457600080fd5b60008060008060808587031215610cc757600080fd5b8435610cd281610c5f565b935060208501359250604085013591506060850135610cf081610ca3565b939692955090935050565b600060208284031215610d0d57600080fd5b8135610d1881610c5f565b9392505050565b634e487b7160e01b600052604160045260246000fd5b604051601f8201601f1916810167ffffffffffffffff81118282101715610d5e57610d5e610d1f565b604052919050565b600067ffffffffffffffff821115610d8057610d80610d1f565b5060051b60200190565b600082601f830112610d9b57600080fd5b81356020610db0610dab83610d66565b610d35565b82815260059290921b84018101918181019086841115610dcf57600080fd5b8286015b84811015610dea5780358352918301918301610dd3565b509695505050505050565b600082601f830112610e0657600080fd5b813567ffffffffffffffff811115610e2057610e20610d1f565b610e33601f8201601f1916602001610d35565b818152846020838601011115610e4857600080fd5b816020850160208301376000918101602001919091529392505050565b60008060008060808587031215610e7b57600080fd5b843567ffffffffffffffff80821115610e9357600080fd5b818701915087601f830112610ea757600080fd5b81356020610eb7610dab83610d66565b82815260059290921b8401810191818101908b841115610ed657600080fd5b948201945b83861015610efd578535610eee81610c5f565b82529482019490820190610edb565b98505088013592505080821115610f1357600080fd5b610f1f88838901610d8a565b94506040870135915080821115610f3557600080fd5b610f4188838901610d8a565b93506060870135915080821115610f5757600080fd5b50610f6487828801610df5565b91505092959194509250565b600080600060608486031215610f8557600080fd5b8351925060208401519150604084015190509250925092565b600060208284031215610fb057600080fd5b8151610d1881610c5f565b634e487b7160e01b600052603260045260246000fd5b600060208284031215610fe357600080fd5b5051919050565b81516001600160a01b039081168252602080840151909116908201526040808301519082015260608083015115159082015260809182015115159181019190915260a00190565b6000815180845260005b818110156110575760208185018101518683018201520161103b565b506000602082860101526020601f19601f83011685010191505092915050565b6001600160a01b0385811682526080602080840182905286519184018290526000928782019290919060a0860190855b818110156110c55785518516835294830194918301916001016110a7565b5050858103604087015287518082529082019350915080870160005b838110156110fd578151855293820193908201906001016110e1565b5050505082810360608401526111138185611031565b979650505050505050565b805160ff8116811461112f57600080fd5b919050565b600080600080600060a0868803121561114c57600080fd5b85516001600160801b038116811461116357600080fd5b94506111716020870161111e565b935061117f6040870161111e565b9250606086015161118f81610ca3565b60808701519092506111a081610c5f565b809150509295509295909350565b634e487b7160e01b600052601160045260246000fd5b81810381811115610bdc57610bdc6111ae565b600060a082840312156111e957600080fd5b60405160a0810181811067ffffffffffffffff8211171561120c5761120c610d1f565b604052825161121a81610c5f565b8152602083015161122a81610c5f565b602082015260408381015190820152606083015161124781610ca3565b6060820152608083015161125a81610ca3565b60808201529392505050565b80820180821115610bdc57610bdc6111ae565b6000806040838503121561128c57600080fd5b50508051602090910151909290915056fea264697066735822122032acaa42319e5511f127466f769768638197d54ec96acb4b04706a117a8539cb64736f6c63430008110033",
  "devdoc": {
    "kind": "dev",
    "methods": {
      "approve(address)": {
        "details": "The Market must be listed by the Auditor in order to be valid for approval.",
        "params": {
          "market": "The Market to spend the contract's balance."
        }
      },
      "deleverage(address,uint256)": {
        "params": {
          "market": "The Market to deleverage the position out.",
          "percentage": "The percentage of the borrow that will be repaid, represented with 18 decimals."
        }
      },
      "leverage(address,uint256,uint256,bool)": {
        "params": {
          "deposit": "True if the principal is being deposited, false if the principal is already deposited.",
          "market": "The Market to leverage the position in.",
          "principal": "The amount of assets to deposit or deposited.",
          "targetHealthFactor": "The desired target health factor that the account will be leveraged to."
        }
      },
      "receiveFlashLoan(address[],uint256[],uint256[],bytes)": {
        "details": "Only the Balancer Vault contract is allowed to call this function.",
        "params": {
          "amounts": "The amounts of the assets' tokens being borrowed.",
          "userData": "Additional data provided by the borrower for the flash loan."
        }
      }
    },
    "title": "Leverager",
    "version": 1
  },
  "userdoc": {
    "kind": "user",
    "methods": {
      "approve(address)": {
        "notice": "Approves the Market to spend the contract's balance of the underlying asset."
      },
      "auditor()": {
        "notice": "Auditor contract that lists the markets that can be leveraged."
      },
      "balancerVault()": {
        "notice": "Balancer's vault contract that is used to take flash loans."
      },
      "deleverage(address,uint256)": {
        "notice": "Deleverages the floating position of `msg.sender` a certain `percentage` by taking a flash loan from Balancer's vault to repay the borrow."
      },
      "leverage(address,uint256,uint256,bool)": {
        "notice": "Leverages the floating position of `msg.sender` to match `targetHealthFactor` by taking a flash loan from Balancer's vault."
      },
      "receiveFlashLoan(address[],uint256[],uint256[],bytes)": {
        "notice": "Callback function called by the Balancer Vault contract when a flash loan is initiated."
      }
    },
    "notice": "Contract that leverages and deleverages the floating position of accounts interacting with Exactly Protocol.",
    "version": 1
  },
  "storageLayout": {
    "storage": [],
    "types": null
  }
}