{
  "address": "0x5fE09baAa75fd107a8dF8565813f66b3603a13D3",
  "abi": [
    {
      "inputs": [
        {
          "internalType": "contract IPool",
          "name": "pool_",
          "type": "address"
        },
        {
          "internalType": "contract IPriceFeed",
          "name": "basePriceFeed_",
          "type": "address"
        },
        {
          "internalType": "bool",
          "name": "token1Based_",
          "type": "bool"
        }
      ],
      "stateMutability": "nonpayable",
      "type": "constructor"
    },
    {
      "inputs": [],
      "name": "basePriceFeed",
      "outputs": [
        {
          "internalType": "contract IPriceFeed",
          "name": "",
          "type": "address"
        }
      ],
      "stateMutability": "view",
      "type": "function"
    },
    {
      "inputs": [],
      "name": "baseUnit0",
      "outputs": [
        {
          "internalType": "uint256",
          "name": "",
          "type": "uint256"
        }
      ],
      "stateMutability": "view",
      "type": "function"
    },
    {
      "inputs": [],
      "name": "baseUnit1",
      "outputs": [
        {
          "internalType": "uint256",
          "name": "",
          "type": "uint256"
        }
      ],
      "stateMutability": "view",
      "type": "function"
    },
    {
      "inputs": [],
      "name": "decimals",
      "outputs": [
        {
          "internalType": "uint8",
          "name": "",
          "type": "uint8"
        }
      ],
      "stateMutability": "view",
      "type": "function"
    },
    {
      "inputs": [],
      "name": "latestAnswer",
      "outputs": [
        {
          "internalType": "int256",
          "name": "",
          "type": "int256"
        }
      ],
      "stateMutability": "view",
      "type": "function"
    },
    {
      "inputs": [],
      "name": "pool",
      "outputs": [
        {
          "internalType": "contract IPool",
          "name": "",
          "type": "address"
        }
      ],
      "stateMutability": "view",
      "type": "function"
    },
    {
      "inputs": [],
      "name": "token1Based",
      "outputs": [
        {
          "internalType": "bool",
          "name": "",
          "type": "bool"
        }
      ],
      "stateMutability": "view",
      "type": "function"
    }
  ],
  "transactionHash": "0xde95f0c798455911179e22c24f637d58f90f50bddc9a7ec35d03242ca92a7a01",
  "args": [
    "0xf3C45b45223Df6071a478851B9C17e0630fDf535",
    "0x13e3Ee699D1909E989722E753853AE30b17e08c5",
    true
  ],
  "numDeployments": 1,
  "solcInputHash": "120b0733f5d03531b1e1b849c000e48c",
  "bytecode": "0x6101406040523480156200001257600080fd5b50604051620009903803806200099083398101604081905262000035916200029a565b6001600160a01b038084166101205281151561010052821660808190526040805163313ce56760e01b8152905163313ce567916004808201926020929091908290030181865afa1580156200008e573d6000803e3d6000fd5b505050506040513d601f19601f82011682018060405250810190620000b49190620002f2565b60ff1660e08160ff1681525050826001600160a01b0316630dfe16816040518163ffffffff1660e01b8152600401602060405180830381865afa15801562000100573d6000803e3d6000fd5b505050506040513d601f19601f820116820180604052508101906200012691906200031e565b6001600160a01b031663313ce5676040518163ffffffff1660e01b8152600401602060405180830381865afa15801562000164573d6000803e3d6000fd5b505050506040513d601f19601f820116820180604052508101906200018a9190620002f2565b6200019790600a62000453565b60a08181525050826001600160a01b031663d21220a76040518163ffffffff1660e01b8152600401602060405180830381865afa158015620001dd573d6000803e3d6000fd5b505050506040513d601f19601f820116820180604052508101906200020391906200031e565b6001600160a01b031663313ce5676040518163ffffffff1660e01b8152600401602060405180830381865afa15801562000241573d6000803e3d6000fd5b505050506040513d601f19601f82011682018060405250810190620002679190620002f2565b6200027490600a62000453565b60c0525062000464915050565b6001600160a01b03811681146200029757600080fd5b50565b600080600060608486031215620002b057600080fd5b8351620002bd8162000281565b6020850151909350620002d08162000281565b60408501519092508015158114620002e757600080fd5b809150509250925092565b6000602082840312156200030557600080fd5b815160ff811681146200031757600080fd5b9392505050565b6000602082840312156200033157600080fd5b8151620003178162000281565b634e487b7160e01b600052601160045260246000fd5b600181815b80851115620003955781600019048211156200037957620003796200033e565b808516156200038757918102915b93841c939080029062000359565b509250929050565b600082620003ae575060016200044d565b81620003bd575060006200044d565b8160018114620003d65760028114620003e15762000401565b60019150506200044d565b60ff841115620003f557620003f56200033e565b50506001821b6200044d565b5060208310610133831016604e8410600b841016171562000426575081810a6200044d565b62000432838362000354565b80600019048211156200044957620004496200033e565b0290505b92915050565b60006200031760ff8416836200039d565b60805160a05160c05160e05161010051610120516104ad620004e3600039600081816087015261024d01526000818161016801526102d40152600060cb01526000818161014101528181610300015261039801526000818161011a01528181610333015261036501526000818161019f01526101c601526104ad6000f3fe608060405234801561001057600080fd5b506004361061007d5760003560e01c806399b85f5d1161005b57806399b85f5d14610115578063d8f9c10c1461013c578063dedb52cc14610163578063e41e75121461019a57600080fd5b806316f0115b14610082578063313ce567146100c657806350d25bcd146100ff575b600080fd5b6100a97f000000000000000000000000000000000000000000000000000000000000000081565b6040516001600160a01b0390911681526020015b60405180910390f35b6100ed7f000000000000000000000000000000000000000000000000000000000000000081565b60405160ff90911681526020016100bd565b6101076101c1565b6040519081526020016100bd565b6101077f000000000000000000000000000000000000000000000000000000000000000081565b6101077f000000000000000000000000000000000000000000000000000000000000000081565b61018a7f000000000000000000000000000000000000000000000000000000000000000081565b60405190151581526020016100bd565b6100a97f000000000000000000000000000000000000000000000000000000000000000081565b6000807f00000000000000000000000000000000000000000000000000000000000000006001600160a01b03166350d25bcd6040518163ffffffff1660e01b8152600401602060405180830381865afa158015610222573d6000803e3d6000fd5b505050506040513d601f19601f8201168201806040525081019061024691906103e3565b90506000807f00000000000000000000000000000000000000000000000000000000000000006001600160a01b0316630902f1ac6040518163ffffffff1660e01b8152600401606060405180830381865afa1580156102a9573d6000803e3d6000fd5b505050506040513d601f19601f820116820180604052508101906102cd91906103fc565b50915091507f000000000000000000000000000000000000000000000000000000000000000061035c57610357816103257f00000000000000000000000000000000000000000000000000000000000000008561042a565b61032f9190610455565b84907f00000000000000000000000000000000000000000000000000000000000000006103c4565b6103bc565b6103bc8261038a7f00000000000000000000000000000000000000000000000000000000000000008461042a565b6103949190610455565b84907f00000000000000000000000000000000000000000000000000000000000000006103c4565b935050505090565b8282028115158415858304851417166103dc57600080fd5b0492915050565b6000602082840312156103f557600080fd5b5051919050565b60008060006060848603121561041157600080fd5b8351925060208401519150604084015190509250925092565b808202811582820484141761044f57634e487b7160e01b600052601160045260246000fd5b92915050565b60008261047257634e487b7160e01b600052601260045260246000fd5b50049056fea26469706673582212202f73ccba9db8c8f29b2d65bd997b9d648491892baaeabaa4a3c8305b256605d864736f6c63430008110033",
  "devdoc": {
    "kind": "dev",
    "methods": {
      "latestAnswer()": {
        "details": "Value should only be used for display purposes since pool reserves can be easily manipulated."
      }
    },
    "version": 1
  },
  "userdoc": {
    "kind": "user",
    "methods": {
      "basePriceFeed()": {
        "notice": "Base price feed where the price is fetched from."
      },
      "baseUnit0()": {
        "notice": "Base unit of pool's token0."
      },
      "baseUnit1()": {
        "notice": "Base unit of pool's token1."
      },
      "decimals()": {
        "notice": "Number of decimals that the answer of this price feed has."
      },
      "latestAnswer()": {
        "notice": "Returns the price feed's latest value considering the pool's reserves (exchange rate)."
      },
      "pool()": {
        "notice": "Pool where the exchange rate is fetched from."
      },
      "token1Based()": {
        "notice": "Whether the pool's token1 is the base price feed's asset."
      }
    },
    "version": 1
  },
  "storageLayout": {
    "storage": [],
    "types": null
  }
}