{
  "address": "0xa76fd3efEa52575fe84294A92518f92810D18cA5",
  "abi": [
    {
      "inputs": [
        {
          "internalType": "contract ERC20",
          "name": "exa_",
          "type": "address"
        },
        {
          "internalType": "contract WETH",
          "name": "weth_",
          "type": "address"
        },
        {
          "internalType": "contract IGauge",
          "name": "gauge_",
          "type": "address"
        },
        {
          "internalType": "contract IPoolFactory",
          "name": "factory_",
          "type": "address"
        },
        {
          "internalType": "address",
          "name": "socket_",
          "type": "address"
        },
        {
          "internalType": "contract IPermit2",
          "name": "permit2_",
          "type": "address"
        },
        {
          "internalType": "contract RewardsController",
          "name": "rewardsController_",
          "type": "address"
        }
      ],
      "stateMutability": "nonpayable",
      "type": "constructor"
    },
    {
      "anonymous": false,
      "inputs": [
        {
          "indexed": false,
          "internalType": "uint8",
          "name": "version",
          "type": "uint8"
        }
      ],
      "name": "Initialized",
      "type": "event"
    },
    {
      "inputs": [],
      "name": "exa",
      "outputs": [
        {
          "internalType": "contract ERC20",
          "name": "",
          "type": "address"
        }
      ],
      "stateMutability": "view",
      "type": "function"
    },
    {
      "inputs": [],
      "name": "factory",
      "outputs": [
        {
          "internalType": "contract IPoolFactory",
          "name": "",
          "type": "address"
        }
      ],
      "stateMutability": "view",
      "type": "function"
    },
    {
      "inputs": [],
      "name": "gauge",
      "outputs": [
        {
          "internalType": "contract IGauge",
          "name": "",
          "type": "address"
        }
      ],
      "stateMutability": "view",
      "type": "function"
    },
    {
      "inputs": [],
      "name": "initialize",
      "outputs": [],
      "stateMutability": "nonpayable",
      "type": "function"
    },
    {
      "inputs": [],
      "name": "permit2",
      "outputs": [
        {
          "internalType": "contract IPermit2",
          "name": "",
          "type": "address"
        }
      ],
      "stateMutability": "view",
      "type": "function"
    },
    {
      "inputs": [],
      "name": "pool",
      "outputs": [
        {
          "internalType": "contract IPool",
          "name": "",
          "type": "address"
        }
      ],
      "stateMutability": "view",
      "type": "function"
    },
    {
      "inputs": [
        {
          "internalType": "uint256",
          "name": "amountEXA",
          "type": "uint256"
        }
      ],
      "name": "previewETH",
      "outputs": [
        {
          "internalType": "uint256",
          "name": "",
          "type": "uint256"
        }
      ],
      "stateMutability": "view",
      "type": "function"
    },
    {
      "inputs": [],
      "name": "rewardsController",
      "outputs": [
        {
          "internalType": "contract RewardsController",
          "name": "",
          "type": "address"
        }
      ],
      "stateMutability": "view",
      "type": "function"
    },
    {
      "inputs": [],
      "name": "socket",
      "outputs": [
        {
          "internalType": "address",
          "name": "",
          "type": "address"
        }
      ],
      "stateMutability": "view",
      "type": "function"
    },
    {
      "inputs": [
        {
          "internalType": "contract ERC20",
          "name": "asset",
          "type": "address"
        },
        {
          "internalType": "uint256",
          "name": "amount",
          "type": "uint256"
        },
        {
          "internalType": "bytes",
          "name": "socketData",
          "type": "bytes"
        },
        {
          "internalType": "uint256",
          "name": "minEXA",
          "type": "uint256"
        },
        {
          "internalType": "uint256",
          "name": "keepETH",
          "type": "uint256"
        }
      ],
      "name": "stakeAsset",
      "outputs": [],
      "stateMutability": "nonpayable",
      "type": "function"
    },
    {
      "inputs": [
        {
          "internalType": "contract ERC20",
          "name": "asset",
          "type": "address"
        },
        {
          "components": [
            {
              "internalType": "address payable",
              "name": "owner",
              "type": "address"
            },
            {
              "internalType": "uint256",
              "name": "value",
              "type": "uint256"
            },
            {
              "internalType": "uint256",
              "name": "deadline",
              "type": "uint256"
            },
            {
              "internalType": "uint8",
              "name": "v",
              "type": "uint8"
            },
            {
              "internalType": "bytes32",
              "name": "r",
              "type": "bytes32"
            },
            {
              "internalType": "bytes32",
              "name": "s",
              "type": "bytes32"
            }
          ],
          "internalType": "struct Permit",
          "name": "permit",
          "type": "tuple"
        },
        {
          "internalType": "bytes",
          "name": "socketData",
          "type": "bytes"
        },
        {
          "internalType": "uint256",
          "name": "minEXA",
          "type": "uint256"
        },
        {
          "internalType": "uint256",
          "name": "keepETH",
          "type": "uint256"
        }
      ],
      "name": "stakeAsset",
      "outputs": [],
      "stateMutability": "nonpayable",
      "type": "function"
    },
    {
      "inputs": [
        {
          "internalType": "contract ERC20",
          "name": "asset",
          "type": "address"
        },
        {
          "components": [
            {
              "internalType": "address payable",
              "name": "owner",
              "type": "address"
            },
            {
              "internalType": "uint256",
              "name": "amount",
              "type": "uint256"
            },
            {
              "internalType": "uint256",
              "name": "deadline",
              "type": "uint256"
            },
            {
              "internalType": "bytes",
              "name": "signature",
              "type": "bytes"
            }
          ],
          "internalType": "struct Permit2",
          "name": "permit",
          "type": "tuple"
        },
        {
          "internalType": "bytes",
          "name": "socketData",
          "type": "bytes"
        },
        {
          "internalType": "uint256",
          "name": "minEXA",
          "type": "uint256"
        },
        {
          "internalType": "uint256",
          "name": "keepETH",
          "type": "uint256"
        }
      ],
      "name": "stakeAsset",
      "outputs": [],
      "stateMutability": "nonpayable",
      "type": "function"
    },
    {
      "inputs": [
        {
          "internalType": "contract ERC20",
          "name": "asset",
          "type": "address"
        },
        {
          "components": [
            {
              "internalType": "address payable",
              "name": "owner",
              "type": "address"
            },
            {
              "internalType": "uint256",
              "name": "amount",
              "type": "uint256"
            },
            {
              "internalType": "uint256",
              "name": "deadline",
              "type": "uint256"
            },
            {
              "internalType": "bytes",
              "name": "signature",
              "type": "bytes"
            }
          ],
          "internalType": "struct Permit2",
          "name": "permit",
          "type": "tuple"
        },
        {
          "internalType": "bytes",
          "name": "socketData",
          "type": "bytes"
        },
        {
          "components": [
            {
              "internalType": "address payable",
              "name": "owner",
              "type": "address"
            },
            {
              "internalType": "uint256",
              "name": "value",
              "type": "uint256"
            },
            {
              "internalType": "uint256",
              "name": "deadline",
              "type": "uint256"
            },
            {
              "internalType": "uint8",
              "name": "v",
              "type": "uint8"
            },
            {
              "internalType": "bytes32",
              "name": "r",
              "type": "bytes32"
            },
            {
              "internalType": "bytes32",
              "name": "s",
              "type": "bytes32"
            }
          ],
          "internalType": "struct Permit",
          "name": "permitEXA",
          "type": "tuple"
        },
        {
          "internalType": "uint256",
          "name": "minEXA",
          "type": "uint256"
        },
        {
          "internalType": "uint256",
          "name": "keepETH",
          "type": "uint256"
        }
      ],
      "name": "stakeAssetAndBalance",
      "outputs": [],
      "stateMutability": "payable",
      "type": "function"
    },
    {
      "inputs": [
        {
          "internalType": "contract ERC20",
          "name": "asset",
          "type": "address"
        },
        {
          "internalType": "uint256",
          "name": "amount",
          "type": "uint256"
        },
        {
          "internalType": "bytes",
          "name": "socketData",
          "type": "bytes"
        },
        {
          "internalType": "uint256",
          "name": "inEXA",
          "type": "uint256"
        },
        {
          "internalType": "uint256",
          "name": "minEXA",
          "type": "uint256"
        },
        {
          "internalType": "uint256",
          "name": "keepETH",
          "type": "uint256"
        }
      ],
      "name": "stakeAssetAndBalance",
      "outputs": [],
      "stateMutability": "nonpayable",
      "type": "function"
    },
    {
      "inputs": [
        {
          "internalType": "contract ERC20",
          "name": "asset",
          "type": "address"
        },
        {
          "components": [
            {
              "internalType": "address payable",
              "name": "owner",
              "type": "address"
            },
            {
              "internalType": "uint256",
              "name": "value",
              "type": "uint256"
            },
            {
              "internalType": "uint256",
              "name": "deadline",
              "type": "uint256"
            },
            {
              "internalType": "uint8",
              "name": "v",
              "type": "uint8"
            },
            {
              "internalType": "bytes32",
              "name": "r",
              "type": "bytes32"
            },
            {
              "internalType": "bytes32",
              "name": "s",
              "type": "bytes32"
            }
          ],
          "internalType": "struct Permit",
          "name": "permit",
          "type": "tuple"
        },
        {
          "internalType": "bytes",
          "name": "socketData",
          "type": "bytes"
        },
        {
          "components": [
            {
              "internalType": "address payable",
              "name": "owner",
              "type": "address"
            },
            {
              "internalType": "uint256",
              "name": "value",
              "type": "uint256"
            },
            {
              "internalType": "uint256",
              "name": "deadline",
              "type": "uint256"
            },
            {
              "internalType": "uint8",
              "name": "v",
              "type": "uint8"
            },
            {
              "internalType": "bytes32",
              "name": "r",
              "type": "bytes32"
            },
            {
              "internalType": "bytes32",
              "name": "s",
              "type": "bytes32"
            }
          ],
          "internalType": "struct Permit",
          "name": "permitEXA",
          "type": "tuple"
        },
        {
          "internalType": "uint256",
          "name": "minEXA",
          "type": "uint256"
        },
        {
          "internalType": "uint256",
          "name": "keepETH",
          "type": "uint256"
        }
      ],
      "name": "stakeAssetAndBalance",
      "outputs": [],
      "stateMutability": "payable",
      "type": "function"
    },
    {
      "inputs": [
        {
          "components": [
            {
              "internalType": "address payable",
              "name": "owner",
              "type": "address"
            },
            {
              "internalType": "uint256",
              "name": "value",
              "type": "uint256"
            },
            {
              "internalType": "uint256",
              "name": "deadline",
              "type": "uint256"
            },
            {
              "internalType": "uint8",
              "name": "v",
              "type": "uint8"
            },
            {
              "internalType": "bytes32",
              "name": "r",
              "type": "bytes32"
            },
            {
              "internalType": "bytes32",
              "name": "s",
              "type": "bytes32"
            }
          ],
          "internalType": "struct Permit",
          "name": "p",
          "type": "tuple"
        },
        {
          "internalType": "uint256",
          "name": "minEXA",
          "type": "uint256"
        },
        {
          "internalType": "uint256",
          "name": "keepETH",
          "type": "uint256"
        }
      ],
      "name": "stakeBalance",
      "outputs": [],
      "stateMutability": "payable",
      "type": "function"
    },
    {
      "inputs": [
        {
          "internalType": "address payable",
          "name": "account",
          "type": "address"
        },
        {
          "internalType": "uint256",
          "name": "inEXA",
          "type": "uint256"
        },
        {
          "internalType": "uint256",
          "name": "minEXA",
          "type": "uint256"
        },
        {
          "internalType": "uint256",
          "name": "keepETH",
          "type": "uint256"
        }
      ],
      "name": "stakeBalance",
      "outputs": [],
      "stateMutability": "payable",
      "type": "function"
    },
    {
      "inputs": [
        {
          "internalType": "address payable",
          "name": "account",
          "type": "address"
        },
        {
          "internalType": "uint256",
          "name": "minEXA",
          "type": "uint256"
        },
        {
          "internalType": "uint256",
          "name": "keepETH",
          "type": "uint256"
        }
      ],
      "name": "stakeETH",
      "outputs": [],
      "stateMutability": "payable",
      "type": "function"
    },
    {
      "inputs": [
        {
          "components": [
            {
              "internalType": "address",
              "name": "owner",
              "type": "address"
            },
            {
              "internalType": "contract ERC20[]",
              "name": "assets",
              "type": "address[]"
            },
            {
              "internalType": "uint256",
              "name": "deadline",
              "type": "uint256"
            },
            {
              "internalType": "uint8",
              "name": "v",
              "type": "uint8"
            },
            {
              "internalType": "bytes32",
              "name": "r",
              "type": "bytes32"
            },
            {
              "internalType": "bytes32",
              "name": "s",
              "type": "bytes32"
            }
          ],
          "internalType": "struct ClaimPermit",
          "name": "p",
          "type": "tuple"
        },
        {
          "internalType": "uint256",
          "name": "minEXA",
          "type": "uint256"
        },
        {
          "internalType": "uint256",
          "name": "keepETH",
          "type": "uint256"
        }
      ],
      "name": "stakeRewards",
      "outputs": [],
      "stateMutability": "payable",
      "type": "function"
    },
    {
      "inputs": [],
      "name": "weth",
      "outputs": [
        {
          "internalType": "contract WETH",
          "name": "",
          "type": "address"
        }
      ],
      "stateMutability": "view",
      "type": "function"
    },
    {
      "stateMutability": "payable",
      "type": "receive"
    }
  ],
  "transactionHash": "0xcd7001c46961f2a1c3671df077cb9ee3728303c79bea7a97870b146f72ec847f",
  "args": [
    "0x1e925De1c68ef83bD98eE3E130eF14a50309C01B",
    "0x4200000000000000000000000000000000000006",
    "0x76ec1eF8c0F72ccdFbB661664C6cB0Ac187D2fB5",
    "0xF1046053aa5682b4F9a81b5481394DA16BE5FF5a",
    "0x3a23F943181408EAC424116Af7b7790c94Cb97a5",
    "0x000000000022D473030F116dDEE9F6B43aC78BA3",
    "0xBd1ba78A3976cAB420A9203E6ef14D18C2B2E031"
  ],
  "numDeployments": 1,
  "solcInputHash": "4ac2dc8915cc1b52fc3854df587c8981",
  "bytecode": "0x6101806040523480156200001257600080fd5b5060405162002c0138038062002c01833981016040819052620000359162000185565b6001600160a01b03878116608081905287821660a081905287831660e0528583166101005284831661012052868316610140819052928416610160526040516379bc57d560e01b815260048101929092526024820152600060448201526379bc57d590606401602060405180830381865afa158015620000b9573d6000803e3d6000fd5b505050506040513d601f19601f82011682018060405250810190620000df919062000230565b6001600160a01b031660c052620000f562000102565b5050505050505062000257565b600054610100900460ff16156200011857600080fd5b60005460ff908116146200016a576000805460ff191660ff9081179091556040519081527f7f26b83ff96e1f2b6a682f133852f6798a09c465da95921460cefb38474024989060200160405180910390a15b565b6001600160a01b03811681146200018257600080fd5b50565b600080600080600080600060e0888a031215620001a157600080fd5b8751620001ae816200016c565b6020890151909750620001c1816200016c565b6040890151909650620001d4816200016c565b6060890151909550620001e7816200016c565b6080890151909450620001fa816200016c565b60a08901519093506200020d816200016c565b60c089015190925062000220816200016c565b8091505092959891949750929550565b6000602082840312156200024357600080fd5b815162000250816200016c565b9392505050565b60805160a05160c05160e05161010051610120516101405161016051612833620003ce600039600081816102fd01528181610ab80152610ae7015260008181610401015261151d015260008181610176015281816107a30152610c3a01526000818161020e015281816104d101528181610539015281816108fd0152818161096901528181610d9401528181610e0001528181610eb00152610f180152600081816103ba0152818161102601526119330152600081816101c70152818161063001528181611004015281816113ae015281816114eb015281816116b2015281816117770152818161185d015281816118bc015261195d0152600081816102b6015281816106b701528181611435015281816116100152818161168e015281816116de015281816117e501526118ef01526000818161037101528181610458015281816105ef015281816106e101528181610a300152818161145f01528181611708015281816118900152611b2501526128336000f3fe6080604052600436106101235760003560e01c80633fc8cef3116100a05780637965b636116100645780637965b6361461035f5780638129fc1c14610393578063a6f19c84146103a8578063b389a08d146103dc578063c45a0155146103ef57600080fd5b80633fc8cef3146102a457806365201b2f146102d85780636bb65f53146102eb5780636f1f505a1461031f578063739da3e61461033f57600080fd5b806322c8f6cd116100e757806322c8f6cd146101fc578063265268ac146102305780632a06851d1461025e5780632cbec84e1461027e5780632f3078971461029157600080fd5b8063065de36d1461012f578063072772fa1461014457806312261ee71461016457806316f0115b146101b557806321eec888146101e957600080fd5b3661012a57005b600080fd5b61014261013d366004611bf2565b610423565b005b34801561015057600080fd5b5061014261015f366004611c84565b6104ad565b34801561017057600080fd5b506101987f000000000000000000000000000000000000000000000000000000000000000081565b6040516001600160a01b0390911681526020015b60405180910390f35b3480156101c157600080fd5b506101987f000000000000000000000000000000000000000000000000000000000000000081565b6101426101f7366004611cf1565b6105e2565b34801561020857600080fd5b506101987f000000000000000000000000000000000000000000000000000000000000000081565b34801561023c57600080fd5b5061025061024b366004611d2c565b610629565b6040519081526020016101ac565b34801561026a57600080fd5b50610142610279366004611d45565b610731565b61014261028c366004611dbd565b610794565b61014261029f366004611e04565b6107a1565b3480156102b057600080fd5b506101987f000000000000000000000000000000000000000000000000000000000000000081565b6101426102e6366004611ea8565b610a0d565b3480156102f757600080fd5b506101987f000000000000000000000000000000000000000000000000000000000000000081565b34801561032b57600080fd5b5061014261033a366004611ef5565b610c38565b34801561034b57600080fd5b5061014261035a366004611f64565b610e8c565b34801561036b57600080fd5b506101987f000000000000000000000000000000000000000000000000000000000000000081565b34801561039f57600080fd5b50610142610f91565b3480156103b457600080fd5b506101987f000000000000000000000000000000000000000000000000000000000000000081565b6101426103ea366004611fda565b611096565b3480156103fb57600080fd5b506101987f000000000000000000000000000000000000000000000000000000000000000081565b61048c610433602085018561206a565b306020860135604087013561044e6080890160608a016120a4565b6001600160a01b037f000000000000000000000000000000000000000000000000000000000000000016949392919060808a013560a08b013561110f565b6104a861049c602085018561206a565b846020013584846105e2565b505050565b6104c26001600160a01b038716333088611298565b6104f66001600160a01b0387167f0000000000000000000000000000000000000000000000000000000000000000876112ec565b600061056285858080601f016020809104026020016040519081016040528093929190818152602001838380828437600092019190915250506001600160a01b037f00000000000000000000000000000000000000000000000000000000000000001692915050611335565b80602001905181019061057591906120bf565b60405163165f642760e11b815233600482015260248101859052604481018490529091503090632cbec84e9083906064015b6000604051808303818588803b1580156105c057600080fd5b505af11580156105d4573d6000803e3d6000fd5b505050505050505050505050565b6106176001600160a01b037f000000000000000000000000000000000000000000000000000000000000000016853086611298565b61062384848484611382565b50505050565b60008060007f00000000000000000000000000000000000000000000000000000000000000006001600160a01b0316630902f1ac6040518163ffffffff1660e01b8152600401606060405180830381865afa15801561068c573d6000803e3d6000fd5b505050506040513d601f19601f820116820180604052508101906106b091906120d8565b50915091507f00000000000000000000000000000000000000000000000000000000000000006001600160a01b03167f00000000000000000000000000000000000000000000000000000000000000006001600160a01b03161061071e57610719848383611a45565b610729565b610729848284611a45565b949350505050565b61077a610741602087018761206a565b306020880135604089013561075c60808b0160608c016120a4565b6001600160a01b038c16949392919060808c013560a08d013561110f565b61078c868660200135868686866104ad565b505050505050565b6104a88360008484611382565b7f00000000000000000000000000000000000000000000000000000000000000006001600160a01b03166330f28b7a604051806060016040528060405180604001604052808c6001600160a01b031681526020018b602001358152508152602001896000016020810190610815919061206a565b604080516001600160a01b03928316602082810191909152928e1681830152918c013560608301528b0135608082015260a00160408051601f19818403018152918152815160209283012083528b8101359282019290925281518083019092523082528a810180359183019190915261088e908b61206a565b61089b60608c018c612106565b6040518663ffffffff1660e01b81526004016108bb95949392919061214c565b600060405180830381600087803b1580156108d557600080fd5b505af11580156108e9573d6000803e3d6000fd5b50610926925050506001600160a01b0388167f000000000000000000000000000000000000000000000000000000000000000060208901356112ec565b600061099286868080601f016020809104026020016040519081016040528093929190818152602001838380828437600092019190915250506001600160a01b037f00000000000000000000000000000000000000000000000000000000000000001692915050611335565b8060200190518101906109a591906120bf565b60405163065de36d60e01b8152909150309063065de36d9083906109d1908890889088906004016121cf565b6000604051808303818588803b1580156109ea57600080fd5b505af11580156109fe573d6000803e3d6000fd5b50505050505050505050505050565b610a1a602084018461223a565b90506001141580610a8f57506001600160a01b037f000000000000000000000000000000000000000000000000000000000000000016610a5d602085018561223a565b6000818110610a6e57610a6e612283565b9050602002016020810190610a83919061206a565b6001600160a01b031614155b15610ab4576104a834610aa5602086018661206a565b6001600160a01b031690611a64565b60007f00000000000000000000000000000000000000000000000000000000000000006001600160a01b0316635dadb2dc7f00000000000000000000000000000000000000000000000000000000000000006001600160a01b031663a361654a6040518163ffffffff1660e01b8152600401600060405180830381865afa158015610b43573d6000803e3d6000fd5b505050506040513d6000823e601f3d908101601f19168201604052610b6b919081019061232a565b866040518363ffffffff1660e01b8152600401610b89929190612588565b6000604051808303816000875af1158015610ba8573d6000803e3d6000fd5b505050506040513d6000823e601f3d908101601f19168201604052610bd091908101906126ac565b91505080600081518110610be657610be6612283565b6020026020010151600003610c065761062334610aa5602087018761206a565b610623610c16602086018661206a565b82600081518110610c2957610c29612283565b60200260200101518585611382565b7f00000000000000000000000000000000000000000000000000000000000000006001600160a01b03166330f28b7a604051806060016040528060405180604001604052808b6001600160a01b031681526020018a602001358152508152602001886000016020810190610cac919061206a565b604080516001600160a01b03928316602082810191909152928d1681830152918b013560608301528a0135608082015260a00160408051601f19818403018152918152815160209283012083528a810135928201929092528151808301909252308252898101803591830191909152610d25908a61206a565b610d3260608b018b612106565b6040518663ffffffff1660e01b8152600401610d5295949392919061214c565b600060405180830381600087803b158015610d6c57600080fd5b505af1158015610d80573d6000803e3d6000fd5b50610dbd925050506001600160a01b0387167f000000000000000000000000000000000000000000000000000000000000000060208801356112ec565b6000610e2985858080601f016020809104026020016040519081016040528093929190818152602001838380828437600092019190915250506001600160a01b037f00000000000000000000000000000000000000000000000000000000000000001692915050611335565b806020019051810190610e3c91906120bf565b905030632cbec84e82610e5260208a018a61206a565b6040516001600160e01b031960e085901b1681526001600160a01b03909116600482015260248101879052604481018690526064016105a7565b610ea16001600160a01b038816333089611298565b610ed56001600160a01b0388167f0000000000000000000000000000000000000000000000000000000000000000886112ec565b6000610f4186868080601f016020809104026020016040519081016040528093929190818152602001838380828437600092019190915250506001600160a01b037f00000000000000000000000000000000000000000000000000000000000000001692915050611335565b806020019051810190610f5491906120bf565b60405163043dd91160e31b815233600482015260248101869052604481018590526064810184905290915030906321eec8889083906084016109d1565b600054610100900460ff1615808015610fb15750600054600160ff909116105b80610fcb5750303b158015610fcb575060005460ff166001145b610fd457600080fd5b6000805460ff191660011790558015610ff7576000805461ff0019166101001790555b61104d6001600160a01b037f0000000000000000000000000000000000000000000000000000000000000000167f00000000000000000000000000000000000000000000000000000000000000006000196112ec565b8015611093576000805461ff0019169055604051600181527f7f26b83ff96e1f2b6a682f133852f6798a09c465da95921460cefb38474024989060200160405180910390a15b50565b6110df6110a6602088018861206a565b30602089013560408a01356110c160808c0160608d016120a4565b6001600160a01b038d16949392919060808d013560a08e013561110f565b6110ef610433602088018861206a565b611106878760200135878787602001358787610e8c565b50505050505050565b604051623f675f60e91b81526001600160a01b038881166004830152600091908a1690637ecebe0090602401602060405180830381865afa158015611158573d6000803e3d6000fd5b505050506040513d601f19601f8201168201806040525081019061117c91906120bf565b60405163d505accf60e01b81526001600160a01b038a811660048301528981166024830152604482018990526064820188905260ff8716608483015260a4820186905260c48201859052919250908a169063d505accf9060e401600060405180830381600087803b1580156111f057600080fd5b505af1158015611204573d6000803e3d6000fd5b5050604051623f675f60e91b81526001600160a01b038b81166004830152600093508c169150637ecebe0090602401602060405180830381865afa158015611250573d6000803e3d6000fd5b505050506040513d601f19601f8201168201806040525081019061127491906120bf565b9050611281826001612786565b811461128c57600080fd5b50505050505050505050565b60006040516323b872dd60e01b6000528460045283602452826044526020600060646000808a5af13d15601f3d11600160005114161716915060006060528060405250806112e557600080fd5b5050505050565b600060405163095ea7b360e01b6000528360045282602452602060006044600080895af13d15601f3d116001600051141617169150600060605280604052508061062357600080fd5b6060611379838360006040518060400160405280601e81526020017f416464726573733a206c6f772d6c6576656c2063616c6c206661696c65640000815250611a7c565b90505b92915050565b348110611398576113938484611b05565b610623565b60006113a48234612799565b90506000806000807f00000000000000000000000000000000000000000000000000000000000000006001600160a01b0316630902f1ac6040518163ffffffff1660e01b8152600401606060405180830381865afa15801561140a573d6000803e3d6000fd5b505050506040513d601f19601f8201168201806040525081019061142e91906120d8565b50915091507f00000000000000000000000000000000000000000000000000000000000000006001600160a01b03167f00000000000000000000000000000000000000000000000000000000000000006001600160a01b031610611493578082611496565b81815b9094509250600091506114ac9050878385611a45565b9050808410156114c9576114c08888611b05565b50505050610623565b600080828611156117e35760405163cc56b2c560e01b81526001600160a01b037f000000000000000000000000000000000000000000000000000000000000000081166004830152600060248301819052917f00000000000000000000000000000000000000000000000000000000000000009091169063cc56b2c590604401602060405180830381865afa158015611566573d6000803e3d6000fd5b505050506040513d601f19601f8201168201806040525081019061158a91906120bf565b90506115bb61159b82612710612799565b61271060026115aa888c612799565b6115b491906127ac565b9190611a45565b91506115e56115cc82612710612799565b6127106115b4896115dd8a88612786565b879190611a45565b9250886115f28b85612786565b101561160e576116028b8b611b05565b50505050505050610623565b7f00000000000000000000000000000000000000000000000000000000000000006001600160a01b031663d0e30db0886040518263ffffffff1660e01b81526004016000604051808303818588803b15801561166957600080fd5b505af115801561167d573d6000803e3d6000fd5b506116d99350506001600160a01b037f00000000000000000000000000000000000000000000000000000000000000001691507f0000000000000000000000000000000000000000000000000000000000000000905084611b50565b6000807f00000000000000000000000000000000000000000000000000000000000000006001600160a01b03167f00000000000000000000000000000000000000000000000000000000000000006001600160a01b03161061173d57600085611741565b8460005b60405163022c0d9f60e01b81526004810183905260248101829052306044820152608060648201526000608482015291935091507f00000000000000000000000000000000000000000000000000000000000000006001600160a01b03169063022c0d9f9060a401600060405180830381600087803b1580156117c357600080fd5b505af11580156117d7573d6000803e3d6000fd5b50505050505050611858565b7f00000000000000000000000000000000000000000000000000000000000000006001600160a01b031663d0e30db0876040518263ffffffff1660e01b81526004016000604051808303818588803b15801561183e57600080fd5b505af1158015611852573d6000803e3d6000fd5b50505050505b6118b77f0000000000000000000000000000000000000000000000000000000000000000611886848c612786565b6001600160a01b037f0000000000000000000000000000000000000000000000000000000000000000169190611b50565b6119167f00000000000000000000000000000000000000000000000000000000000000006118e58389612799565b6001600160a01b037f0000000000000000000000000000000000000000000000000000000000000000169190611b50565b6040516335313c2160e11b81523060048201526001600160a01b037f0000000000000000000000000000000000000000000000000000000000000000811691636e553f65917f00000000000000000000000000000000000000000000000000000000000000001690636a627842906024016020604051808303816000875af11580156119a6573d6000803e3d6000fd5b505050506040513d601f19601f820116820180604052508101906119ca91906120bf565b6040516001600160e01b031960e084901b16815260048101919091526001600160a01b038d166024820152604401600060405180830381600087803b158015611a1257600080fd5b505af1158015611a26573d6000803e3d6000fd5b505050508660001461128c5761128c6001600160a01b038b1688611a64565b828202811515841585830485141716611a5d57600080fd5b0492915050565b600080600080600085875af19050806104a857600080fd5b606082471015611a8b57600080fd5b600080866001600160a01b03168587604051611aa791906127ce565b60006040518083038185875af1925050503d8060008114611ae4576040519150601f19603f3d011682016040523d82523d6000602084013e611ae9565b606091505b5091509150611afa87838387611b99565b979650505050505050565b611b186001600160a01b03831634611a64565b611b4c6001600160a01b037f0000000000000000000000000000000000000000000000000000000000000000168383611b50565b5050565b600060405163a9059cbb60e01b6000528360045282602452602060006044600080895af13d15601f3d116001600051141617169150600060605280604052508061062357600080fd5b60608315611bc5578251600003611bbe576001600160a01b0385163b611bbe57600080fd5b5081610729565b610729838381511561012a5781518083602001fd5b600060c08284031215611bec57600080fd5b50919050565b60008060006101008486031215611c0857600080fd5b611c128585611bda565b9560c0850135955060e0909401359392505050565b6001600160a01b038116811461109357600080fd5b60008083601f840112611c4e57600080fd5b5081356001600160401b03811115611c6557600080fd5b602083019150836020828501011115611c7d57600080fd5b9250929050565b60008060008060008060a08789031215611c9d57600080fd5b8635611ca881611c27565b95506020870135945060408701356001600160401b03811115611cca57600080fd5b611cd689828a01611c3c565b979a9699509760608101359660809091013595509350505050565b60008060008060808587031215611d0757600080fd5b8435611d1281611c27565b966020860135965060408601359560600135945092505050565b600060208284031215611d3e57600080fd5b5035919050565b6000806000806000806101408789031215611d5f57600080fd5b8635611d6a81611c27565b9550611d798860208901611bda565b945060e08701356001600160401b03811115611d9457600080fd5b611da089828a01611c3c565b979a96995097610100810135966101209091013595509350505050565b600080600060608486031215611dd257600080fd5b8335611ddd81611c27565b95602085013595506040909401359392505050565b600060808284031215611bec57600080fd5b6000806000806000806000610160888a031215611e2057600080fd5b8735611e2b81611c27565b965060208801356001600160401b0380821115611e4757600080fd5b611e538b838c01611df2565b975060408a0135915080821115611e6957600080fd5b50611e768a828b01611c3c565b9096509450611e8a90508960608a01611bda565b92506101208801359150610140880135905092959891949750929550565b600080600060608486031215611ebd57600080fd5b83356001600160401b03811115611ed357600080fd5b611edf86828701611bda565b9660208601359650604090950135949350505050565b60008060008060008060a08789031215611f0e57600080fd5b8635611f1981611c27565b955060208701356001600160401b0380821115611f3557600080fd5b611f418a838b01611df2565b96506040890135915080821115611f5757600080fd5b50611cd689828a01611c3c565b600080600080600080600060c0888a031215611f7f57600080fd5b8735611f8a81611c27565b96506020880135955060408801356001600160401b03811115611fac57600080fd5b611fb88a828b01611c3c565b989b979a50986060810135976080820135975060a09091013595509350505050565b6000806000806000806000610200888a031215611ff657600080fd5b873561200181611c27565b96506120108960208a01611bda565b955060e08801356001600160401b0381111561202b57600080fd5b6120378a828b01611c3c565b909650945061204c9050896101008a01611bda565b92506101c088013591506101e0880135905092959891949750929550565b60006020828403121561207c57600080fd5b813561208781611c27565b9392505050565b803560ff8116811461209f57600080fd5b919050565b6000602082840312156120b657600080fd5b6113798261208e565b6000602082840312156120d157600080fd5b5051919050565b6000806000606084860312156120ed57600080fd5b8351925060208401519150604084015190509250925092565b6000808335601e1984360301811261211d57600080fd5b8301803591506001600160401b0382111561213757600080fd5b602001915036819003821315611c7d57600080fd5b855180516001600160a01b039081168352602091820151828401528188015160408085019190915288015160608401528651811660808401529086015160a0830152841660c082015261010060e08201819052810182905260006101208385828501376000838501820152601f909301601f191690910190910195945050505050565b610100810184356121df81611c27565b6001600160a01b03168252602085810135908301526040808601359083015260ff61220c6060870161208e565b1660608301526080850135608083015260a085013560a08301528360c08301528260e0830152949350505050565b6000808335601e1984360301811261225157600080fd5b8301803591506001600160401b0382111561226b57600080fd5b6020019150600581901b3603821315611c7d57600080fd5b634e487b7160e01b600052603260045260246000fd5b634e487b7160e01b600052604160045260246000fd5b604080519081016001600160401b03811182821017156122d1576122d1612299565b60405290565b604051601f8201601f191681016001600160401b03811182821017156122ff576122ff612299565b604052919050565b60006001600160401b0382111561232057612320612299565b5060051b60200190565b6000602080838503121561233d57600080fd5b82516001600160401b038082111561235457600080fd5b818501915085601f83011261236857600080fd5b815161237b61237682612307565b6122d7565b81815260059190911b8301840190848101908883111561239a57600080fd5b8585015b83811015612482578051858111156123b65760008081fd5b86016040818c03601f19018113156123ce5760008081fd5b6123d66122af565b898301516123e381611c27565b815282820151888111156123f75760008081fd5b8084019350508c603f84011261240d5760008081fd5b8983015161241d61237682612307565b81815260059190911b84018301908b8101908f83111561243d5760008081fd5b948401945b8286101561246d5785519450841515851461245d5760008081fd5b848252948c0194908c0190612442565b838d015250508552505091860191860161239e565b5098975050505050505050565b8183526000602080850194508260005b858110156124cd5781356124b281611c27565b6001600160a01b03168752958201959082019060010161249f565b509495945050505050565b600081356124e581611c27565b6001600160a01b03168352602082013536839003601e1901811261250857600080fd5b82016020810190356001600160401b0381111561252457600080fd5b8060051b360382131561253657600080fd5b60c0602086015261254b60c08601828461248f565b915050604083013560408501526125646060840161208e565b60ff1660608501526080838101359085015260a09283013592909301919091525090565b60006040808301818452808651808352606092508286019150828160051b8701016020808a016000805b85811015612625578a8503605f19018752825180516001600160a01b031686528401518486018a905280518a87018190529085019083908a8801905b80831015612610578351151582529287019260019290920191908701906125ee565b509886019896505050918301916001016125b2565b5050508782039088015261263981896124d8565b9998505050505050505050565b600082601f83011261265757600080fd5b8151602061266761237683612307565b82815260059290921b8401810191818101908684111561268657600080fd5b8286015b848110156126a1578051835291830191830161268a565b509695505050505050565b600080604083850312156126bf57600080fd5b82516001600160401b03808211156126d657600080fd5b818501915085601f8301126126ea57600080fd5b815160206126fa61237683612307565b82815260059290921b8401810191818101908984111561271957600080fd5b948201945b8386101561274057855161273181611c27565b8252948201949082019061271e565b9188015191965090935050508082111561275957600080fd5b5061276685828601612646565b9150509250929050565b634e487b7160e01b600052601160045260246000fd5b8082018082111561137c5761137c612770565b8181038181111561137c5761137c612770565b6000826127c957634e487b7160e01b600052601260045260246000fd5b500490565b6000825160005b818110156127ef57602081860181015185830152016127d5565b50600092019182525091905056fea264697066735822122088f3d2b9926d79159c2457c7f36facb13a9961d66693247886b4800f30f809f064736f6c63430008110033",
  "devdoc": {
    "kind": "dev",
    "methods": {
      "constructor": {
        "custom:oz-upgrades-unsafe-allow": "constructor"
      },
      "initialize()": {
        "details": "can only be called once."
      },
      "previewETH(uint256)": {
        "params": {
          "amountEXA": "The amount of EXA to add liquidity with."
        }
      },
      "stakeBalance((address,uint256,uint256,uint8,bytes32,bytes32),uint256,uint256)": {
        "params": {
          "keepETH": "The amount of ETH to send to `account` (ex: for gas).",
          "minEXA": "The minimum amount of EXA to receive if msg.value is higher than needed.",
          "p": "The permit to use for the EXA transfer."
        }
      },
      "stakeBalance(address,uint256,uint256,uint256)": {
        "params": {
          "inEXA": "The amount of EXA to transfer.",
          "keepETH": "The amount of ETH to send to `account` (ex: for gas).",
          "minEXA": "The minimum amount of EXA to receive if msg.value is higher than needed."
        }
      },
      "stakeETH(address,uint256,uint256)": {
        "params": {
          "account": "The account to deposit the liquidity for.",
          "keepETH": "The amount of ETH to send to `account` (ex: for gas).",
          "minEXA": "The minimum amount of EXA to receive."
        }
      },
      "stakeRewards((address,address[],uint256,uint8,bytes32,bytes32),uint256,uint256)": {
        "params": {
          "keepETH": "The amount of ETH to send to `account` (ex: for gas).",
          "minEXA": "The minimum amount of EXA to receive if msg.value is higher than needed.",
          "p": "The permit to use for the EXA claim."
        }
      }
    },
    "stateVariables": {
      "exa": {
        "custom:oz-upgrades-unsafe-allow": "state-variable-immutable"
      },
      "factory": {
        "custom:oz-upgrades-unsafe-allow": "state-variable-immutable"
      },
      "gauge": {
        "custom:oz-upgrades-unsafe-allow": "state-variable-immutable"
      },
      "permit2": {
        "custom:oz-upgrades-unsafe-allow": "state-variable-immutable"
      },
      "pool": {
        "custom:oz-upgrades-unsafe-allow": "state-variable-immutable"
      },
      "rewardsController": {
        "custom:oz-upgrades-unsafe-allow": "state-variable-immutable"
      },
      "socket": {
        "custom:oz-upgrades-unsafe-allow": "state-variable-immutable"
      },
      "weth": {
        "custom:oz-upgrades-unsafe-allow": "state-variable-immutable"
      }
    },
    "version": 1
  },
  "userdoc": {
    "kind": "user",
    "methods": {
      "exa()": {
        "notice": "The EXA asset."
      },
      "factory()": {
        "notice": "The factory where the fee will be fetched from."
      },
      "gauge()": {
        "notice": "The gauge used to stake the liquidity pool tokens."
      },
      "initialize()": {
        "notice": "Initializes the contract."
      },
      "permit2()": {
        "notice": "Permit2 contract to be used to transfer assets from accounts."
      },
      "pool()": {
        "notice": "The liquidity pool."
      },
      "previewETH(uint256)": {
        "notice": "Returns the amount of ETH to pair with `amountEXA` to add liquidity."
      },
      "rewardsController()": {
        "notice": "The rewards controller."
      },
      "socket()": {
        "notice": "Socket Gateway address."
      },
      "stakeBalance((address,uint256,uint256,uint8,bytes32,bytes32),uint256,uint256)": {
        "notice": "Wraps `msg.value` ETH, adds liquidity with `p.value` EXA and stakes liquidity on gauge."
      },
      "stakeBalance(address,uint256,uint256,uint256)": {
        "notice": "Wraps `msg.value` ETH, adds liquidity with `p.value` EXA and stakes liquidity on gauge."
      },
      "stakeETH(address,uint256,uint256)": {
        "notice": "Swaps ~half of `msg.value` ETH for EXA, wraps the rest, adds liquidity and stakes liquidity on gauge."
      },
      "stakeRewards((address,address[],uint256,uint8,bytes32,bytes32),uint256,uint256)": {
        "notice": "Wraps `msg.value` ETH, adds liquidity with claimed EXA rewards and stakes liquidity on gauge."
      },
      "weth()": {
        "notice": "The WETH asset."
      }
    },
    "version": 1
  },
  "storageLayout": {
    "storage": [
      {
        "astId": 542,
        "contract": "contracts/periphery/ProtoStaker.sol:ProtoStaker",
        "label": "_initialized",
        "offset": 0,
        "slot": "0",
        "type": "t_uint8"
      },
      {
        "astId": 545,
        "contract": "contracts/periphery/ProtoStaker.sol:ProtoStaker",
        "label": "_initializing",
        "offset": 1,
        "slot": "0",
        "type": "t_bool"
      }
    ],
    "types": {
      "t_bool": {
        "encoding": "inplace",
        "label": "bool",
        "numberOfBytes": "1"
      },
      "t_uint8": {
        "encoding": "inplace",
        "label": "uint8",
        "numberOfBytes": "1"
      }
    }
  }
}