{
  "address": "0x0399CF66D74106D438d5770DCE8C0F7071a95f7f",
  "abi": [
    {
      "inputs": [],
      "stateMutability": "nonpayable",
      "type": "constructor"
    },
    {
      "inputs": [],
      "name": "IndexOverflow",
      "type": "error"
    },
    {
      "inputs": [],
      "name": "InvalidConfig",
      "type": "error"
    },
    {
      "inputs": [],
      "name": "NotEnded",
      "type": "error"
    },
    {
      "inputs": [],
      "name": "NotKeeper",
      "type": "error"
    },
    {
      "anonymous": false,
      "inputs": [
        {
          "indexed": true,
          "internalType": "contract Market",
          "name": "market",
          "type": "address"
        },
        {
          "indexed": true,
          "internalType": "contract ERC20",
          "name": "reward",
          "type": "address"
        },
        {
          "indexed": true,
          "internalType": "address",
          "name": "account",
          "type": "address"
        },
        {
          "indexed": false,
          "internalType": "bool",
          "name": "operation",
          "type": "bool"
        },
        {
          "indexed": false,
          "internalType": "uint256",
          "name": "accountIndex",
          "type": "uint256"
        },
        {
          "indexed": false,
          "internalType": "uint256",
          "name": "operationIndex",
          "type": "uint256"
        },
        {
          "indexed": false,
          "internalType": "uint256",
          "name": "rewardsAccrued",
          "type": "uint256"
        }
      ],
      "name": "Accrue",
      "type": "event"
    },
    {
      "anonymous": false,
      "inputs": [
        {
          "indexed": true,
          "internalType": "address",
          "name": "account",
          "type": "address"
        },
        {
          "indexed": true,
          "internalType": "contract ERC20",
          "name": "reward",
          "type": "address"
        },
        {
          "indexed": true,
          "internalType": "address",
          "name": "to",
          "type": "address"
        },
        {
          "indexed": false,
          "internalType": "uint256",
          "name": "amount",
          "type": "uint256"
        }
      ],
      "name": "Claim",
      "type": "event"
    },
    {
      "anonymous": false,
      "inputs": [
        {
          "indexed": true,
          "internalType": "contract Market",
          "name": "market",
          "type": "address"
        },
        {
          "indexed": true,
          "internalType": "contract ERC20",
          "name": "reward",
          "type": "address"
        },
        {
          "components": [
            {
              "internalType": "contract Market",
              "name": "market",
              "type": "address"
            },
            {
              "internalType": "contract ERC20",
              "name": "reward",
              "type": "address"
            },
            {
              "internalType": "contract IPriceFeed",
              "name": "priceFeed",
              "type": "address"
            },
            {
              "internalType": "uint32",
              "name": "start",
              "type": "uint32"
            },
            {
              "internalType": "uint256",
              "name": "distributionPeriod",
              "type": "uint256"
            },
            {
              "internalType": "uint256",
              "name": "targetDebt",
              "type": "uint256"
            },
            {
              "internalType": "uint256",
              "name": "totalDistribution",
              "type": "uint256"
            },
            {
              "internalType": "uint256",
              "name": "undistributedFactor",
              "type": "uint256"
            },
            {
              "internalType": "int128",
              "name": "flipSpeed",
              "type": "int128"
            },
            {
              "internalType": "uint64",
              "name": "compensationFactor",
              "type": "uint64"
            },
            {
              "internalType": "uint64",
              "name": "transitionFactor",
              "type": "uint64"
            },
            {
              "internalType": "uint64",
              "name": "borrowAllocationWeightFactor",
              "type": "uint64"
            },
            {
              "internalType": "uint64",
              "name": "depositAllocationWeightAddend",
              "type": "uint64"
            },
            {
              "internalType": "uint64",
              "name": "depositAllocationWeightFactor",
              "type": "uint64"
            }
          ],
          "indexed": false,
          "internalType": "struct RewardsController.Config",
          "name": "config",
          "type": "tuple"
        }
      ],
      "name": "DistributionSet",
      "type": "event"
    },
    {
      "anonymous": false,
      "inputs": [
        {
          "indexed": true,
          "internalType": "contract Market",
          "name": "market",
          "type": "address"
        },
        {
          "indexed": true,
          "internalType": "contract ERC20",
          "name": "reward",
          "type": "address"
        },
        {
          "indexed": false,
          "internalType": "uint256",
          "name": "borrowIndex",
          "type": "uint256"
        },
        {
          "indexed": false,
          "internalType": "uint256",
          "name": "depositIndex",
          "type": "uint256"
        },
        {
          "indexed": false,
          "internalType": "uint256",
          "name": "newUndistributed",
          "type": "uint256"
        },
        {
          "indexed": false,
          "internalType": "uint256",
          "name": "lastUpdate",
          "type": "uint256"
        }
      ],
      "name": "IndexUpdate",
      "type": "event"
    },
    {
      "anonymous": false,
      "inputs": [
        {
          "indexed": false,
          "internalType": "uint8",
          "name": "version",
          "type": "uint8"
        }
      ],
      "name": "Initialized",
      "type": "event"
    },
    {
      "anonymous": false,
      "inputs": [
        {
          "indexed": true,
          "internalType": "bytes32",
          "name": "role",
          "type": "bytes32"
        },
        {
          "indexed": true,
          "internalType": "bytes32",
          "name": "previousAdminRole",
          "type": "bytes32"
        },
        {
          "indexed": true,
          "internalType": "bytes32",
          "name": "newAdminRole",
          "type": "bytes32"
        }
      ],
      "name": "RoleAdminChanged",
      "type": "event"
    },
    {
      "anonymous": false,
      "inputs": [
        {
          "indexed": true,
          "internalType": "bytes32",
          "name": "role",
          "type": "bytes32"
        },
        {
          "indexed": true,
          "internalType": "address",
          "name": "account",
          "type": "address"
        },
        {
          "indexed": true,
          "internalType": "address",
          "name": "sender",
          "type": "address"
        }
      ],
      "name": "RoleGranted",
      "type": "event"
    },
    {
      "anonymous": false,
      "inputs": [
        {
          "indexed": true,
          "internalType": "bytes32",
          "name": "role",
          "type": "bytes32"
        },
        {
          "indexed": true,
          "internalType": "address",
          "name": "account",
          "type": "address"
        },
        {
          "indexed": true,
          "internalType": "address",
          "name": "sender",
          "type": "address"
        }
      ],
      "name": "RoleRevoked",
      "type": "event"
    },
    {
      "inputs": [],
      "name": "DEFAULT_ADMIN_ROLE",
      "outputs": [
        {
          "internalType": "bytes32",
          "name": "",
          "type": "bytes32"
        }
      ],
      "stateMutability": "view",
      "type": "function"
    },
    {
      "inputs": [],
      "name": "DOMAIN_SEPARATOR",
      "outputs": [
        {
          "internalType": "bytes32",
          "name": "",
          "type": "bytes32"
        }
      ],
      "stateMutability": "view",
      "type": "function"
    },
    {
      "inputs": [],
      "name": "UTILIZATION_CAP",
      "outputs": [
        {
          "internalType": "uint256",
          "name": "",
          "type": "uint256"
        }
      ],
      "stateMutability": "view",
      "type": "function"
    },
    {
      "inputs": [
        {
          "internalType": "address",
          "name": "account",
          "type": "address"
        },
        {
          "internalType": "contract Market",
          "name": "market",
          "type": "address"
        },
        {
          "internalType": "bool",
          "name": "operation",
          "type": "bool"
        },
        {
          "internalType": "contract ERC20",
          "name": "reward",
          "type": "address"
        }
      ],
      "name": "accountOperation",
      "outputs": [
        {
          "internalType": "uint256",
          "name": "",
          "type": "uint256"
        },
        {
          "internalType": "uint256",
          "name": "",
          "type": "uint256"
        }
      ],
      "stateMutability": "view",
      "type": "function"
    },
    {
      "inputs": [
        {
          "internalType": "address",
          "name": "account",
          "type": "address"
        }
      ],
      "name": "allClaimable",
      "outputs": [
        {
          "components": [
            {
              "internalType": "contract ERC20",
              "name": "reward",
              "type": "address"
            },
            {
              "components": [
                {
                  "internalType": "contract Market",
                  "name": "market",
                  "type": "address"
                },
                {
                  "internalType": "uint256",
                  "name": "amount",
                  "type": "uint256"
                }
              ],
              "internalType": "struct RewardsController.Claimable[]",
              "name": "claimable",
              "type": "tuple[]"
            }
          ],
          "internalType": "struct RewardsController.AllClaimable[]",
          "name": "unclaimedRewards",
          "type": "tuple[]"
        }
      ],
      "stateMutability": "view",
      "type": "function"
    },
    {
      "inputs": [
        {
          "internalType": "address",
          "name": "account",
          "type": "address"
        },
        {
          "internalType": "contract ERC20",
          "name": "reward",
          "type": "address"
        }
      ],
      "name": "allClaimable",
      "outputs": [
        {
          "internalType": "uint256",
          "name": "unclaimedRewards",
          "type": "uint256"
        }
      ],
      "stateMutability": "view",
      "type": "function"
    },
    {
      "inputs": [],
      "name": "allMarketsOperations",
      "outputs": [
        {
          "components": [
            {
              "internalType": "contract Market",
              "name": "market",
              "type": "address"
            },
            {
              "internalType": "bool[]",
              "name": "operations",
              "type": "bool[]"
            }
          ],
          "internalType": "struct RewardsController.MarketOperation[]",
          "name": "marketOps",
          "type": "tuple[]"
        }
      ],
      "stateMutability": "view",
      "type": "function"
    },
    {
      "inputs": [],
      "name": "allRewards",
      "outputs": [
        {
          "internalType": "contract ERC20[]",
          "name": "",
          "type": "address[]"
        }
      ],
      "stateMutability": "view",
      "type": "function"
    },
    {
      "inputs": [
        {
          "internalType": "contract Market",
          "name": "market",
          "type": "address"
        }
      ],
      "name": "availableRewardsCount",
      "outputs": [
        {
          "internalType": "uint256",
          "name": "",
          "type": "uint256"
        }
      ],
      "stateMutability": "view",
      "type": "function"
    },
    {
      "inputs": [
        {
          "components": [
            {
              "internalType": "contract Market",
              "name": "market",
              "type": "address"
            },
            {
              "internalType": "bool[]",
              "name": "operations",
              "type": "bool[]"
            }
          ],
          "internalType": "struct RewardsController.MarketOperation[]",
          "name": "marketOps",
          "type": "tuple[]"
        },
        {
          "components": [
            {
              "internalType": "address",
              "name": "owner",
              "type": "address"
            },
            {
              "internalType": "contract ERC20[]",
              "name": "assets",
              "type": "address[]"
            },
            {
              "internalType": "uint256",
              "name": "deadline",
              "type": "uint256"
            },
            {
              "internalType": "uint8",
              "name": "v",
              "type": "uint8"
            },
            {
              "internalType": "bytes32",
              "name": "r",
              "type": "bytes32"
            },
            {
              "internalType": "bytes32",
              "name": "s",
              "type": "bytes32"
            }
          ],
          "internalType": "struct ClaimPermit",
          "name": "permit",
          "type": "tuple"
        }
      ],
      "name": "claim",
      "outputs": [
        {
          "internalType": "contract ERC20[]",
          "name": "",
          "type": "address[]"
        },
        {
          "internalType": "uint256[]",
          "name": "claimedAmounts",
          "type": "uint256[]"
        }
      ],
      "stateMutability": "nonpayable",
      "type": "function"
    },
    {
      "inputs": [
        {
          "components": [
            {
              "internalType": "contract Market",
              "name": "market",
              "type": "address"
            },
            {
              "internalType": "bool[]",
              "name": "operations",
              "type": "bool[]"
            }
          ],
          "internalType": "struct RewardsController.MarketOperation[]",
          "name": "marketOps",
          "type": "tuple[]"
        },
        {
          "internalType": "address",
          "name": "to",
          "type": "address"
        },
        {
          "internalType": "contract ERC20[]",
          "name": "rewardsList",
          "type": "address[]"
        }
      ],
      "name": "claim",
      "outputs": [
        {
          "internalType": "contract ERC20[]",
          "name": "",
          "type": "address[]"
        },
        {
          "internalType": "uint256[]",
          "name": "",
          "type": "uint256[]"
        }
      ],
      "stateMutability": "nonpayable",
      "type": "function"
    },
    {
      "inputs": [
        {
          "internalType": "address",
          "name": "to",
          "type": "address"
        }
      ],
      "name": "claimAll",
      "outputs": [
        {
          "internalType": "contract ERC20[]",
          "name": "rewardsList",
          "type": "address[]"
        },
        {
          "internalType": "uint256[]",
          "name": "claimedAmounts",
          "type": "uint256[]"
        }
      ],
      "stateMutability": "nonpayable",
      "type": "function"
    },
    {
      "inputs": [
        {
          "components": [
            {
              "internalType": "contract Market",
              "name": "market",
              "type": "address"
            },
            {
              "internalType": "bool[]",
              "name": "operations",
              "type": "bool[]"
            }
          ],
          "internalType": "struct RewardsController.MarketOperation[]",
          "name": "marketOps",
          "type": "tuple[]"
        },
        {
          "internalType": "address",
          "name": "account",
          "type": "address"
        },
        {
          "internalType": "contract ERC20[]",
          "name": "rewardsList",
          "type": "address[]"
        }
      ],
      "name": "claimOnBehalfOf",
      "outputs": [
        {
          "internalType": "contract ERC20[]",
          "name": "",
          "type": "address[]"
        },
        {
          "internalType": "uint256[]",
          "name": "",
          "type": "uint256[]"
        }
      ],
      "stateMutability": "nonpayable",
      "type": "function"
    },
    {
      "inputs": [
        {
          "components": [
            {
              "internalType": "contract Market",
              "name": "market",
              "type": "address"
            },
            {
              "internalType": "bool[]",
              "name": "operations",
              "type": "bool[]"
            }
          ],
          "internalType": "struct RewardsController.MarketOperation[]",
          "name": "marketOps",
          "type": "tuple[]"
        },
        {
          "internalType": "address",
          "name": "account",
          "type": "address"
        },
        {
          "internalType": "contract ERC20",
          "name": "reward",
          "type": "address"
        }
      ],
      "name": "claimable",
      "outputs": [
        {
          "internalType": "uint256",
          "name": "unclaimedRewards",
          "type": "uint256"
        }
      ],
      "stateMutability": "view",
      "type": "function"
    },
    {
      "inputs": [
        {
          "components": [
            {
              "internalType": "contract Market",
              "name": "market",
              "type": "address"
            },
            {
              "internalType": "contract ERC20",
              "name": "reward",
              "type": "address"
            },
            {
              "internalType": "contract IPriceFeed",
              "name": "priceFeed",
              "type": "address"
            },
            {
              "internalType": "uint32",
              "name": "start",
              "type": "uint32"
            },
            {
              "internalType": "uint256",
              "name": "distributionPeriod",
              "type": "uint256"
            },
            {
              "internalType": "uint256",
              "name": "targetDebt",
              "type": "uint256"
            },
            {
              "internalType": "uint256",
              "name": "totalDistribution",
              "type": "uint256"
            },
            {
              "internalType": "uint256",
              "name": "undistributedFactor",
              "type": "uint256"
            },
            {
              "internalType": "int128",
              "name": "flipSpeed",
              "type": "int128"
            },
            {
              "internalType": "uint64",
              "name": "compensationFactor",
              "type": "uint64"
            },
            {
              "internalType": "uint64",
              "name": "transitionFactor",
              "type": "uint64"
            },
            {
              "internalType": "uint64",
              "name": "borrowAllocationWeightFactor",
              "type": "uint64"
            },
            {
              "internalType": "uint64",
              "name": "depositAllocationWeightAddend",
              "type": "uint64"
            },
            {
              "internalType": "uint64",
              "name": "depositAllocationWeightFactor",
              "type": "uint64"
            }
          ],
          "internalType": "struct RewardsController.Config[]",
          "name": "configs",
          "type": "tuple[]"
        }
      ],
      "name": "config",
      "outputs": [],
      "stateMutability": "nonpayable",
      "type": "function"
    },
    {
      "inputs": [
        {
          "internalType": "contract Market",
          "name": "",
          "type": "address"
        }
      ],
      "name": "distribution",
      "outputs": [
        {
          "internalType": "uint8",
          "name": "availableRewardsCount",
          "type": "uint8"
        },
        {
          "internalType": "uint256",
          "name": "baseUnit",
          "type": "uint256"
        }
      ],
      "stateMutability": "view",
      "type": "function"
    },
    {
      "inputs": [
        {
          "internalType": "contract Market",
          "name": "market",
          "type": "address"
        },
        {
          "internalType": "contract ERC20",
          "name": "reward",
          "type": "address"
        }
      ],
      "name": "distributionTime",
      "outputs": [
        {
          "internalType": "uint32",
          "name": "",
          "type": "uint32"
        },
        {
          "internalType": "uint32",
          "name": "",
          "type": "uint32"
        },
        {
          "internalType": "uint32",
          "name": "",
          "type": "uint32"
        }
      ],
      "stateMutability": "view",
      "type": "function"
    },
    {
      "inputs": [
        {
          "internalType": "bytes32",
          "name": "role",
          "type": "bytes32"
        }
      ],
      "name": "getRoleAdmin",
      "outputs": [
        {
          "internalType": "bytes32",
          "name": "",
          "type": "bytes32"
        }
      ],
      "stateMutability": "view",
      "type": "function"
    },
    {
      "inputs": [
        {
          "internalType": "bytes32",
          "name": "role",
          "type": "bytes32"
        },
        {
          "internalType": "address",
          "name": "account",
          "type": "address"
        }
      ],
      "name": "grantRole",
      "outputs": [],
      "stateMutability": "nonpayable",
      "type": "function"
    },
    {
      "inputs": [
        {
          "internalType": "address",
          "name": "account",
          "type": "address"
        }
      ],
      "name": "handleBorrow",
      "outputs": [],
      "stateMutability": "nonpayable",
      "type": "function"
    },
    {
      "inputs": [
        {
          "internalType": "address",
          "name": "account",
          "type": "address"
        }
      ],
      "name": "handleDeposit",
      "outputs": [],
      "stateMutability": "nonpayable",
      "type": "function"
    },
    {
      "inputs": [
        {
          "internalType": "bytes32",
          "name": "role",
          "type": "bytes32"
        },
        {
          "internalType": "address",
          "name": "account",
          "type": "address"
        }
      ],
      "name": "hasRole",
      "outputs": [
        {
          "internalType": "bool",
          "name": "",
          "type": "bool"
        }
      ],
      "stateMutability": "view",
      "type": "function"
    },
    {
      "inputs": [],
      "name": "initialize",
      "outputs": [],
      "stateMutability": "nonpayable",
      "type": "function"
    },
    {
      "inputs": [
        {
          "internalType": "address",
          "name": "account",
          "type": "address"
        }
      ],
      "name": "keepers",
      "outputs": [
        {
          "internalType": "address",
          "name": "keeper",
          "type": "address"
        }
      ],
      "stateMutability": "view",
      "type": "function"
    },
    {
      "inputs": [
        {
          "internalType": "uint256",
          "name": "",
          "type": "uint256"
        }
      ],
      "name": "marketList",
      "outputs": [
        {
          "internalType": "contract Market",
          "name": "",
          "type": "address"
        }
      ],
      "stateMutability": "view",
      "type": "function"
    },
    {
      "inputs": [
        {
          "internalType": "address",
          "name": "",
          "type": "address"
        }
      ],
      "name": "nonces",
      "outputs": [
        {
          "internalType": "uint256",
          "name": "",
          "type": "uint256"
        }
      ],
      "stateMutability": "view",
      "type": "function"
    },
    {
      "inputs": [
        {
          "internalType": "contract Market",
          "name": "market",
          "type": "address"
        },
        {
          "internalType": "contract ERC20",
          "name": "reward",
          "type": "address"
        },
        {
          "internalType": "uint256",
          "name": "deltaTime",
          "type": "uint256"
        }
      ],
      "name": "previewAllocation",
      "outputs": [
        {
          "internalType": "uint256",
          "name": "borrowIndex",
          "type": "uint256"
        },
        {
          "internalType": "uint256",
          "name": "depositIndex",
          "type": "uint256"
        },
        {
          "internalType": "uint256",
          "name": "newUndistributed",
          "type": "uint256"
        }
      ],
      "stateMutability": "view",
      "type": "function"
    },
    {
      "inputs": [
        {
          "internalType": "bytes32",
          "name": "role",
          "type": "bytes32"
        },
        {
          "internalType": "address",
          "name": "account",
          "type": "address"
        }
      ],
      "name": "renounceRole",
      "outputs": [],
      "stateMutability": "nonpayable",
      "type": "function"
    },
    {
      "inputs": [
        {
          "internalType": "bytes32",
          "name": "role",
          "type": "bytes32"
        },
        {
          "internalType": "address",
          "name": "account",
          "type": "address"
        }
      ],
      "name": "revokeRole",
      "outputs": [],
      "stateMutability": "nonpayable",
      "type": "function"
    },
    {
      "inputs": [
        {
          "internalType": "contract Market",
          "name": "market",
          "type": "address"
        },
        {
          "internalType": "contract ERC20",
          "name": "reward",
          "type": "address"
        }
      ],
      "name": "rewardConfig",
      "outputs": [
        {
          "components": [
            {
              "internalType": "contract Market",
              "name": "market",
              "type": "address"
            },
            {
              "internalType": "contract ERC20",
              "name": "reward",
              "type": "address"
            },
            {
              "internalType": "contract IPriceFeed",
              "name": "priceFeed",
              "type": "address"
            },
            {
              "internalType": "uint32",
              "name": "start",
              "type": "uint32"
            },
            {
              "internalType": "uint256",
              "name": "distributionPeriod",
              "type": "uint256"
            },
            {
              "internalType": "uint256",
              "name": "targetDebt",
              "type": "uint256"
            },
            {
              "internalType": "uint256",
              "name": "totalDistribution",
              "type": "uint256"
            },
            {
              "internalType": "uint256",
              "name": "undistributedFactor",
              "type": "uint256"
            },
            {
              "internalType": "int128",
              "name": "flipSpeed",
              "type": "int128"
            },
            {
              "internalType": "uint64",
              "name": "compensationFactor",
              "type": "uint64"
            },
            {
              "internalType": "uint64",
              "name": "transitionFactor",
              "type": "uint64"
            },
            {
              "internalType": "uint64",
              "name": "borrowAllocationWeightFactor",
              "type": "uint64"
            },
            {
              "internalType": "uint64",
              "name": "depositAllocationWeightAddend",
              "type": "uint64"
            },
            {
              "internalType": "uint64",
              "name": "depositAllocationWeightFactor",
              "type": "uint64"
            }
          ],
          "internalType": "struct RewardsController.Config",
          "name": "",
          "type": "tuple"
        }
      ],
      "stateMutability": "view",
      "type": "function"
    },
    {
      "inputs": [
        {
          "internalType": "contract ERC20",
          "name": "",
          "type": "address"
        }
      ],
      "name": "rewardEnabled",
      "outputs": [
        {
          "internalType": "bool",
          "name": "",
          "type": "bool"
        }
      ],
      "stateMutability": "view",
      "type": "function"
    },
    {
      "inputs": [
        {
          "internalType": "contract Market",
          "name": "market",
          "type": "address"
        },
        {
          "internalType": "contract ERC20",
          "name": "reward",
          "type": "address"
        }
      ],
      "name": "rewardIndexes",
      "outputs": [
        {
          "internalType": "uint256",
          "name": "",
          "type": "uint256"
        },
        {
          "internalType": "uint256",
          "name": "",
          "type": "uint256"
        },
        {
          "internalType": "uint256",
          "name": "",
          "type": "uint256"
        }
      ],
      "stateMutability": "view",
      "type": "function"
    },
    {
      "inputs": [
        {
          "internalType": "uint256",
          "name": "",
          "type": "uint256"
        }
      ],
      "name": "rewardList",
      "outputs": [
        {
          "internalType": "contract ERC20",
          "name": "",
          "type": "address"
        }
      ],
      "stateMutability": "view",
      "type": "function"
    },
    {
      "inputs": [
        {
          "internalType": "address",
          "name": "account",
          "type": "address"
        },
        {
          "internalType": "address",
          "name": "keeper",
          "type": "address"
        }
      ],
      "name": "setKeeper",
      "outputs": [],
      "stateMutability": "nonpayable",
      "type": "function"
    },
    {
      "inputs": [
        {
          "internalType": "bytes4",
          "name": "interfaceId",
          "type": "bytes4"
        }
      ],
      "name": "supportsInterface",
      "outputs": [
        {
          "internalType": "bool",
          "name": "",
          "type": "bool"
        }
      ],
      "stateMutability": "view",
      "type": "function"
    },
    {
      "inputs": [
        {
          "internalType": "contract ERC20",
          "name": "asset",
          "type": "address"
        },
        {
          "internalType": "address",
          "name": "to",
          "type": "address"
        }
      ],
      "name": "withdraw",
      "outputs": [],
      "stateMutability": "nonpayable",
      "type": "function"
    },
    {
      "inputs": [
        {
          "internalType": "contract Market",
          "name": "market",
          "type": "address"
        },
        {
          "internalType": "contract ERC20",
          "name": "reward",
          "type": "address"
        },
        {
          "internalType": "address",
          "name": "to",
          "type": "address"
        }
      ],
      "name": "withdrawUndistributed",
      "outputs": [],
      "stateMutability": "nonpayable",
      "type": "function"
    }
  ],
  "transactionHash": "0x00d89a1e8ea634a0115e0887b6d845caf8e5ee79180a0e94da2cb0a00da09eb3",
  "args": [],
  "numDeployments": 5,
  "solcInputHash": "80487e582bd4dd4f0ea0d960485fb772",
  "bytecode": "0x6080604052348015600e575f80fd5b5060156019565b607b565b5f54610100900460ff1615602b575f80fd5b5f5460ff908116146079575f805460ff191660ff9081179091556040519081527f7f26b83ff96e1f2b6a682f133852f6798a09c465da95921460cefb38474024989060200160405180910390a15b565b615793806100885f395ff3fe608060405234801561000f575f80fd5b5060043610610269575f3560e01c8063714b252311610157578063b7eec413116100d2578063de7ea7c611610088578063f2426f9a1161006e578063f2426f9a146107af578063f940e385146107cf578063fc196068146107e2575f80fd5b8063de7ea7c61461077a578063e9c50ff71461078d575f80fd5b8063d219f395116100b8578063d219f39514610745578063d547741f14610758578063d681afb51461076b575f80fd5b8063b7eec413146106e8578063c2db09c1146106fd575f80fd5b80638acbf3de11610127578063a217fddf1161010d578063a217fddf1461069e578063a361654a146106a5578063b658e673146106ba575f80fd5b80638acbf3de1461065357806391d1485414610666575f80fd5b8063714b25231461060657806377329f35146106195780637ecebe001461062c5780638129fc1c1461064b575f80fd5b806336568abe116101e7578063528d4f5b116101b75780635dadb2dc1161019d5780635dadb2dc146105bf57806364e8d180146105e05780636c912dad146105f3575f80fd5b8063528d4f5b1461051f5780635684aa461461053f575f80fd5b806336568abe1461045f578063382e85ad146104725780633bbd64bc1461048557806344e250f8146104ad575f80fd5b8063232b956c1161023c578063249e6d9c11610222578063249e6d9c1461032b5780632f2ff15d146103a55780633644e515146103b8575f80fd5b8063232b956c146102e8578063248a9ca3146102fb575f80fd5b80630149e46f1461026d57806301ffc9a71461028257806310d66677146102aa5780631768f010146102d5575b5f80fd5b61028061027b366004614882565b6107f5565b005b61029561029036600461489d565b610a81565b60405190151581526020015b60405180910390f35b6102bd6102b83660046148c4565b610ae9565b6040516001600160a01b0390911681526020016102a1565b6102806102e33660046148eb565b610b11565b6102bd6102f63660046148c4565b610c04565b61031d6103093660046148c4565b5f9081526065602052604090206001015490565b6040519081526020016102a1565b610390610339366004614942565b6001600160a01b039283165f9081526097602090815260408083209386168352928152828220959094168152600b9094018352808420911515845291529020546001600160801b03600160801b8204811692911690565b604080519283526020830191909152016102a1565b6102806103b3366004614999565b610c13565b61031d604080517f8b73c3c69bb8fe3d512ecc4cf759cc79239f7b179b0ffacaa9a75d522b39400f60208201527f2c55a9465497be0b743b67bd2d3ee61e8212e4c4aa51feb7beee992dcf383117918101919091527fc89efdaa54c0f20c7adf612882df0950f5a951637e0307cdcb4c672f298b8bc660608201524660808201523060a08201525f9060c00160405160208183030381529060405280519060200120905090565b61028061046d366004614999565b610c3c565b61031d610480366004614bc0565b610c5e565b6102bd610493366004614882565b609d6020525f90815260409020546001600160a01b031681565b6105046104bb366004614c05565b6001600160a01b039182165f908152609760209081526040808320939094168252919091522060078101546004909101546001600160801b0380831693600160801b9093041691565b604080519384526020840192909252908201526060016102a1565b61053261052d366004614882565b610de6565b6040516102a19190614c31565b61059861054d366004614c05565b6001600160a01b039182165f90815260976020908152604080832093909416825291909152206008015463ffffffff808216926401000000008304821692600160401b900490911690565b6040805163ffffffff948516815292841660208401529216918101919091526060016102a1565b6105d26105cd366004614cf5565b611139565b6040516102a1929190614d98565b6102806105ee366004614c05565b61145b565b610280610601366004614882565b611493565b6105d2610614366004614df0565b611729565b6105d2610627366004614882565b611799565b61031d61063a366004614882565b609b6020525f908152604090205481565b61028061180f565b61031d610661366004614c05565b6118c9565b610295610674366004614999565b5f9182526065602090815260408084206001600160a01b0393909316845291905290205460ff1690565b61031d5f81565b6106ad6118e3565b6040516102a19190614ec8565b61031d6106c8366004614882565b6001600160a01b03165f9081526097602052604090206002015460ff1690565b6106f0611a7c565b6040516102a19190614f6c565b61072c61070b366004614882565b60976020525f90815260409020600281015460039091015460ff9091169082565b6040805160ff90931683526020830191909152016102a1565b6105d2610753366004614df0565b611adc565b610280610766366004614999565b611b39565b61031d670de0b6b3a763ffff81565b610280610788366004614fb9565b611b5d565b61029561079b366004614882565b60986020525f908152604090205460ff1681565b6107c26107bd366004614c05565b6126b3565b6040516102a1919061513d565b6102806107dd366004614c05565b612822565b6105046107f0366004615278565b6128a9565b60408051600180825281830190925233915f9190816020015b604080518082019091525f808252602082015281526020019060019003908161080e579050506040516372b06b4d60e01b81526001600160a01b038581166004830152919250908316906372b06b4d906024015f604051808303815f87803b158015610878575f80fd5b505af115801561088a573d5f803e3d5ffd5b5050604051634885478d60e11b81526001600160a01b0386811660048301525f93508516915063910a8f1a906024016040805180830381865afa1580156108d3573d5f803e3d5ffd5b505050506040513d601f19601f820116820180604052508101906108f791906152b6565b506040805180820182525f81529051630a28a47760e01b8152600481018390529192509060208201906001600160a01b03861690630a28a47790602401602060405180830381865afa15801561094f573d5f803e3d5ffd5b505050506040513d601f19601f8201168201806040525081019061097391906152d8565b6040516370a0823160e01b81526001600160a01b0388811660048301528716906370a0823190602401602060405180830381865afa1580156109b7573d5f803e3d5ffd5b505050506040513d601f19601f820116820180604052508101906109db91906152d8565b6109e59190615303565b815250825f815181106109fa576109fa615316565b6020908102919091018101919091526001600160a01b0384165f9081526097909152604081206002810154909160ff909116905b81816001600160801b03161015610a78576001600160801b0381165f908152600184016020526040902054610a7090889088906001600160a01b0316886128ee565b600101610a2e565b50505050505050565b5f6001600160e01b031982167f7965db0b000000000000000000000000000000000000000000000000000000001480610ae357507f01ffc9a7000000000000000000000000000000000000000000000000000000006001600160e01b03198316145b92915050565b60998181548110610af8575f80fd5b5f918252602090912001546001600160a01b0316905081565b5f610b1b81612c35565b6001600160a01b038481165f9081526097602090815260408083209387168352929052206008810154640100000000900463ffffffff16421015610b8b576040517fd3018d1800000000000000000000000000000000000000000000000000000000815260040160405180910390fd5b6040805160018082528183019092525f91602080830190803683370190505090506001815f81518110610bc057610bc0615316565b91151560209283029190910190910152610be65f8787610be1828685612c3f565b6128ee565b6004820180545f909155610a786001600160a01b0387168683612f72565b609a8181548110610af8575f80fd5b5f82815260656020526040902060010154610c2d81612c35565b610c378383612fdc565b505050565b6001600160a01b0381163314610c50575f80fd5b610c5a828261307c565b5050565b5f805b8451811015610dde575f858281518110610c7d57610c7d615316565b60209081029190910181015180516001600160a01b039081165f90815260978452604080822092891682529382905292832060028201549294509092909160ff169003610cd257836001019350505050610c61565b5f610ce5845f015185602001518a612c3f565b90505f805b8251811015610d8f576001600160a01b038a165f908152600b8501602052604081208451909190859084908110610d2357610d23615316565b60209081029190910181015151151582528101919091526040015f2054610d5a90600160801b90046001600160801b031689615303565b9750828181518110610d6e57610d6e615316565b60200260200101516020015182610d859190615303565b9150600101610cea565b508015610dce57610dc189896040518060400160405280895f01516001600160a01b03168152602001868152506130fd565b610dcb9088615303565b96505b8560010195505050505050610c61565b509392505050565b6099546060908067ffffffffffffffff811115610e0557610e056149c7565b604051908082528060200260200182016040528015610e4a57816020015b604080518082019091525f815260606020820152815260200190600190039081610e235790505b5091505f610e566118e3565b90505f5b82811015611131575f825167ffffffffffffffff811115610e7d57610e7d6149c7565b604051908082528060200260200182016040528015610ec157816020015b604080518082019091525f8082526020820152815260200190600190039081610e9b5790505b5090505f5b83518110156110cf575f848281518110610ee257610ee2615316565b60209081029190910181015180516001600160a01b03165f90815260979092526040822060028101549193509160ff9091169003610f24575050600101610ec6565b5f815f015f60998881548110610f3c57610f3c615316565b5f9182526020808320909101546001600160a01b0316835282810193909352604090910181208551928601519093509091610f77918d612c3f565b90505f805f5b8351811015611022576001600160a01b038e165f908152600b8601602052604081208551909190869084908110610fb657610fb6615316565b60209081029190910181015151151582528101919091526040015f2054610fed90600160801b90046001600160801b031683615303565b915083818151811061100157611001615316565b602002602001015160200151836110189190615303565b9250600101610f7d565b508115611080576110738d60998b8154811061104057611040615316565b5f9182526020918290200154604080518082019091528a516001600160a01b0390811682529281018890529116906130fd565b61107d9082615303565b90505b6040518060400160405280875f01516001600160a01b03168152602001828152508888815181106110b3576110b3615316565b6020026020010181905250866001019650505050505050610ec6565b506040518060400160405280609984815481106110ee576110ee615316565b5f91825260209182902001546001600160a01b0316825201829052855186908490811061111d5761111d615316565b602090810291909101015250600101610e5a565b505050919050565b609c54606090819083906001600160a01b0316156111595761115961532a565b428160400135101561116d5761116d61532a565b5f6001611217604080517f8b73c3c69bb8fe3d512ecc4cf759cc79239f7b179b0ffacaa9a75d522b39400f60208201527f2c55a9465497be0b743b67bd2d3ee61e8212e4c4aa51feb7beee992dcf383117918101919091527fc89efdaa54c0f20c7adf612882df0950f5a951637e0307cdcb4c672f298b8bc660608201524660808201523060a08201525f9060c00160405160208183030381529060405280519060200120905090565b7f8b66e7894ecc5180298853ab3de30e198ac84d63bc1587efdff2eaa728ec269e6112456020860186614882565b33611253602088018861533e565b609b5f61126360208c018c614882565b6001600160a01b0316815260208082019290925260409081015f20805460018101909155815161129e98979695949391928d0135910161538b565b604051602081830303815290604052805190602001206040516020016112f69291907f190100000000000000000000000000000000000000000000000000000000000081526002810192909252602282015260420190565b60408051601f19818403018152919052805160209091012061131e6080850160608601615411565b604080515f8152602081018083529390935260ff90911690820152608080850135606083015260a08086013591830191909152016020604051602081039080840390855afa158015611372573d5f803e3d5ffd5b5050604051601f1901519150506001600160a01b038116158015906113b4575061139f6020830183614882565b6001600160a01b0316816001600160a01b0316145b6113c0576113c061532a565b6113cd6020830183614882565b609c80546001600160a01b0319166001600160a01b0392909216919091179055506114368533611400602088018861533e565b808060200260200160405190810160405280939291908181526020018383602002808284375f92019190915250611adc92505050565b92509250609c546001600160a01b0316156114535761145361532a565b509250929050565b5f61146581612c35565b506001600160a01b039182165f908152609d6020526040902080546001600160a01b03191691909216179055565b60408051600180825281830190925233915f9190816020015b604080518082019091525f80825260208201528152602001906001900390816114ac579050506040516372b06b4d60e01b81526001600160a01b038581166004830152919250908316906372b06b4d906024015f604051808303815f87803b158015611516575f80fd5b505af1158015611528573d5f803e3d5ffd5b5050604051632f2e037160e11b81526001600160a01b0386811660048301525f935085169150635e5c06e290602401606060405180830381865afa158015611572573d5f803e3d5ffd5b505050506040513d601f19601f82011682018060405250810190611596919061542c565b604051634885478d60e11b81526001600160a01b0388811660048301529194505f9350908616915063910a8f1a906024016040805180830381865afa1580156115e1573d5f803e3d5ffd5b505050506040513d601f19601f8201168201806040525081019061160591906152b6565b604080518082018252600181529051635fb9165160e11b815260048101839052919350915060208201906001600160a01b0387169063bf722ca290602401602060405180830381865afa15801561165e573d5f803e3d5ffd5b505050506040513d601f19601f8201168201806040525081019061168291906152d8565b61168c9085615303565b815250835f815181106116a1576116a1615316565b6020908102919091018101919091526001600160a01b0385165f9081526097909152604081206002810154909160ff909116905b81816001600160801b0316101561171f576001600160801b0381165f90815260018401602052604090205461171790899033906001600160a01b0316896128ee565b6001016116d5565b5050505050505050565b6001600160a01b038281165f908152609d60205260409020546060918291163314611780576040517ff512b27800000000000000000000000000000000000000000000000000000000815260040160405180910390fd5b61178c8585868661325a565b915091505b935093915050565b6060806118066117a76118e3565b8460998054806020026020016040519081016040528092919081815260200182805480156117fc57602002820191905f5260205f20905b81546001600160a01b031681526001909101906020018083116117de575b5050505050611adc565b91509150915091565b5f54610100900460ff161580801561182d57505f54600160ff909116105b806118465750303b15801561184657505f5460ff166001145b61184e575f80fd5b5f805460ff19166001179055801561186f575f805461ff0019166101001790555b61187761360c565b6118815f33612fdc565b80156118c6575f805461ff0019169055604051600181527f7f26b83ff96e1f2b6a682f133852f6798a09c465da95921460cefb38474024989060200160405180910390a15b50565b5f6118dc6118d56118e3565b8484610c5e565b9392505050565b60605f609a80548060200260200160405190810160405280929190818152602001828054801561193a57602002820191905f5260205f20905b81546001600160a01b0316815260019091019060200180831161191c575b50505050509050805167ffffffffffffffff81111561195b5761195b6149c7565b6040519080825280602002602001820160405280156119a057816020015b604080518082019091525f8152606060208201528152602001906001900390816119795790505b5091505f5b8151811015611a77576040805160028082526060820183525f926020830190803683370190505090506001815f815181106119e2576119e2615316565b6020026020010190151590811515815250505f81600181518110611a0857611a08615316565b6020026020010190151590811515815250506040518060400160405280848481518110611a3757611a37615316565b60200260200101516001600160a01b0316815260200182815250848381518110611a6357611a63615316565b6020908102919091010152506001016119a5565b505090565b60606099805480602002602001604051908101604052809291908181526020018280548015611ad257602002820191905f5260205f20905b81546001600160a01b03168152600190910190602001808311611ab4575b5050505050905090565b609c5460609081906001600160a01b0316611b0457609c80546001600160a01b031916331790555b609c54611b1d9086906001600160a01b0316868661325a565b609c80546001600160a01b031916905590969095509350505050565b5f82815260656020526040902060010154611b5381612c35565b610c37838361307c565b5f611b6781612c35565b5f5b8251811015610c3757670de0b6b3a7640000838281518110611b8d57611b8d615316565b6020026020010151610140015167ffffffffffffffff1610611bc2576040516306b7c75960e31b815260040160405180910390fd5b828181518110611bd457611bd4615316565b60200260200101516101a0015167ffffffffffffffff165f03611c0a576040516306b7c75960e31b815260040160405180910390fd5b5f60975f858481518110611c2057611c20615316565b60200260200101515f01516001600160a01b03166001600160a01b031681526020019081526020015f2090505f815f015f868581518110611c6357611c63615316565b6020026020010151602001516001600160a01b03166001600160a01b031681526020019081526020015f20905081600301545f03611ceb57609a858481518110611caf57611caf615316565b6020908102919091018101515182546001810184555f938452919092200180546001600160a01b0319166001600160a01b039092169190911790555b60985f868581518110611d0057611d00615316565b6020908102919091018101518101516001600160a01b031682528101919091526040015f205460ff16611dd757600160985f878681518110611d4457611d44615316565b6020026020010151602001516001600160a01b03166001600160a01b031681526020019081526020015f205f6101000a81548160ff0219169083151502179055506099858481518110611d9957611d99615316565b60209081029190910181015181015182546001810184555f938452919092200180546001600160a01b0319166001600160a01b039092169190911790555b6008810154600160401b900463ffffffff165f03611fdb57848381518110611e0157611e01615316565b602090810291909101810151015160028301805460018501915f9160ff169082611e2a83615457565b91906101000a81548160ff021916908360ff16021790555060ff166001600160801b031681526020019081526020015f205f6101000a8154816001600160a01b0302191690836001600160a01b03160217905550848381518110611e9057611e90615316565b60200260200101515f01516001600160a01b031663313ce5676040518163ffffffff1660e01b8152600401602060405180830381865afa158015611ed6573d5f803e3d5ffd5b505050506040513d601f19601f82011682018060405250810190611efa9190615475565b611f0590600a61556b565b60038301558451859084908110611f1e57611f1e615316565b602002602001015160600151816008015f6101000a81548163ffffffff021916908363ffffffff160217905550848381518110611f5d57611f5d615316565b6020026020010151606001518160080160086101000a81548163ffffffff021916908363ffffffff160217905550848381518110611f9d57611f9d615316565b602002602001015160800151858481518110611fbb57611fbb615316565b602002602001015160c00151611fd1919061558d565b6001820155612306565b600881015460408051600180825281830190925263ffffffff80841693640100000000900416915f9190602080830190803683370190505090506001815f8151811061202957612029615316565b6020026020010190151590811515815250506120a15f89888151811061205157612051615316565b60200260200101515f01518a898151811061206e5761206e615316565b602002602001015160200151610be18c8b8151811061208f5761208f615316565b60200260200101515f0151865f612c3f565b8163ffffffff164210156121fc575f808463ffffffff164211156121935760088601546120e89063ffffffff6c010000000000000000000000009091048116908716613620565b6120f290426155a0565b866001015461210191906155b3565b86600901546121109190615303565b915061212263ffffffff8616426155a0565b9050818a898151811061213757612137615316565b602002602001015160c0015111158061216d5750808a898151811061215e5761215e615316565b60200260200101516080015111155b1561218b576040516306b7c75960e31b815260040160405180910390fd5b600986018290555b808a89815181106121a6576121a6615316565b6020026020010151608001516121bc91906155a0565b828b8a815181106121cf576121cf615316565b602002602001015160c001516121e591906155a0565b6121ef919061558d565b6001870155506123029050565b87868151811061220e5761220e615316565b602090810291909101015160600151600885015463ffffffff9081169116146123025787868151811061224357612243615316565b602002602001015160600151846008015f6101000a81548163ffffffff021916908363ffffffff16021790555087868151811061228257612282615316565b6020026020010151606001518460080160086101000a81548163ffffffff021916908363ffffffff1602179055508786815181106122c2576122c2615316565b6020026020010151608001518887815181106122e0576122e0615316565b602002602001015160c001516122f6919061558d565b60018501555f60098501555b5050505b6008810180547fffffffffffffffffffffffffffffffff00000000ffffffffffffffffffffffff166c010000000000000000000000004263ffffffff1602179055845185908490811061235b5761235b615316565b602090810291909101015160800151600882015461237f919063ffffffff166155ca565b8160080160046101000a81548163ffffffff021916908363ffffffff1602179055508483815181106123b3576123b3615316565b60200260200101516040015181600a015f6101000a8154816001600160a01b0302191690836001600160a01b031602179055508483815181106123f8576123f8615316565b602002602001015160c00151816002018190555084838151811061241e5761241e615316565b602002602001015160a00151815f018190555084838151811061244357612443615316565b602002602001015160e00151816003018190555084838151811061246957612469615316565b60200260200101516101000151816005015f6101000a8154816001600160801b030219169083600f0b6001600160801b031602179055508483815181106124b2576124b2615316565b602002602001015161012001518160050160106101000a81548167ffffffffffffffff021916908367ffffffffffffffff1602179055508483815181106124fb576124fb615316565b60200260200101516101600151816006015f6101000a81548167ffffffffffffffff021916908367ffffffffffffffff16021790555084838151811061254357612543615316565b602002602001015161018001518160060160086101000a81548167ffffffffffffffff021916908367ffffffffffffffff16021790555084838151811061258c5761258c615316565b602002602001015161014001518160050160186101000a81548167ffffffffffffffff021916908367ffffffffffffffff1602179055508483815181106125d5576125d5615316565b60200260200101516101a001518160060160106101000a81548167ffffffffffffffff021916908367ffffffffffffffff16021790555084838151811061261e5761261e615316565b6020026020010151602001516001600160a01b031685848151811061264557612645615316565b60200260200101515f01516001600160a01b03167fbb1f0f9f2e246d18022362060458bdfde9ab9b4e4eb514b800b155df7ea8ecac87868151811061268c5761268c615316565b60200260200101516040516126a1919061513d565b60405180910390a35050600101611b69565b604080516101c0810182525f80825260208201819052918101829052606081018290526080810182905260a0810182905260c0810182905260e08101829052610100810182905261012081018290526101408101829052610160810182905261018081018290526101a08101919091526001600160a01b038084165f8181526097602090815260408083208786168085529083529281902081516101c08101835294855291840192909252600a81015490931690820152600882015463ffffffff80821660608401819052608084019261279692640100000000909104166155e6565b63ffffffff1681528254602082015260028301546040820152600383015460608201526005830154600f81900b608083015267ffffffffffffffff600160801b808304821660a0850152600160c01b909204811660c084015260069094015480851660e0840152600160401b810485166101008401520490921661012090920191909152905092915050565b5f61282c81612c35565b6040516370a0823160e01b8152306004820152610c379083906001600160a01b038616906370a0823190602401602060405180830381865afa158015612874573d5f803e3d5ffd5b505050506040513d601f19601f8201168201806040525081019061289891906152d8565b6001600160a01b0386169190612f72565b6001600160a01b038084165f9081526097602090815260408083209386168352929052908120819081906128de908786613635565b9250925092505b93509350939050565b6001600160a01b038381165f9081526097602090815260408083206003810154948716845290915290206008810154600160401b900463ffffffff16428110801561295757506008820154640100000000900463ffffffff168110806129575750600482015415155b15612a77575f8080612973858a61296e87426155a0565b613635565b919450925090506001600160801b0383118061299557506001600160801b0382115b156129cc576040517f7decd25700000000000000000000000000000000000000000000000000000000815260040160405180910390fd5b6001600160801b03828116600160801b0290841617600786015560088501805463ffffffff42908116600160401b026bffffffff0000000000000000199092169190911790915560048601829055604080518581526020810185905290810183905260608101919091526001600160a01b0389811691908b16907f1be815035b13056fba0f0dcbaec5d30add5d95e5f1b6990581607fbccdc930509060800160405180910390a35050505b506001600160a01b0386165f908152600b820160205260408120905b845181101561171f575f858281518110612aaf57612aaf615316565b602090810291909101810151805115155f90815291859052604082208054825192945090926001600160801b039091169115612af9575060078601546001600160801b0316612b10565b506007860154600160801b90046001600160801b03165b808214612c265782547fffffffffffffffffffffffffffffffff00000000000000000000000000000000166001600160801b038216178355602084015115612c26575f612b63856020015183858c614203565b845490915081908590601090612b8a908490600160801b90046001600160801b0316615602565b92506101000a8154816001600160801b0302191690836001600160801b031602179055508c6001600160a01b03168b6001600160a01b03168d6001600160a01b03167fc4278cd1497fedb2697092108a0141a0cbecdd1472913b6e803010998aa63537885f0151878787604051612c1c9493929190931515845260208401929092526040830152606082015260800190565b60405180910390a4505b84600101945050505050612a93565b6118c68133614222565b6060825167ffffffffffffffff811115612c5b57612c5b6149c7565b604051908082528060200260200182016040528015612c9f57816020015b604080518082019091525f8082526020820152815260200190600190039081612c795790505b50604051634885478d60e11b81526001600160a01b0384811660048301529192505f9182919087169063910a8f1a906024016040805180830381865afa158015612ceb573d5f803e3d5ffd5b505050506040513d601f19601f82011682018060405250810190612d0f91906152b6565b915091505f5b8551811015612f6857858181518110612d3057612d30615316565b602002602001015115612e5657604051632f2e037160e11b81526001600160a01b0386811660048301525f9190891690635e5c06e290602401606060405180830381865afa158015612d84573d5f803e3d5ffd5b505050506040513d601f19601f82011682018060405250810190612da8919061542c565b604080518082018252600181529051635fb9165160e11b81526004810188905291945092506020830191506001600160a01b038b169063bf722ca290602401602060405180830381865afa158015612e02573d5f803e3d5ffd5b505050506040513d601f19601f82011682018060405250810190612e2691906152d8565b612e309084615303565b815250858381518110612e4557612e45615316565b602002602001018190525050612f60565b6040805180820182525f81529051630a28a47760e01b81526004810185905260208201906001600160a01b038a1690630a28a47790602401602060405180830381865afa158015612ea9573d5f803e3d5ffd5b505050506040513d601f19601f82011682018060405250810190612ecd91906152d8565b6040516370a0823160e01b81526001600160a01b0389811660048301528b16906370a0823190602401602060405180830381865afa158015612f11573d5f803e3d5ffd5b505050506040513d601f19601f82011682018060405250810190612f3591906152d8565b612f3f9190615303565b815250848281518110612f5457612f54615316565b60200260200101819052505b600101612d15565b5050509392505050565b5f6040517fa9059cbb000000000000000000000000000000000000000000000000000000005f526001600160a01b0384166004528260245260205f60445f80895af13d15601f3d1160015f511416171691505f606052806040525080612fd6575f80fd5b50505050565b5f8281526065602090815260408083206001600160a01b038516845290915290205460ff16610c5a575f8281526065602090815260408083206001600160a01b03851684529091529020805460ff191660011790556130383390565b6001600160a01b0316816001600160a01b0316837f2f8788117e7eff1d82e926ec794901d17c78024a50270940304540a733656f0d60405160405180910390a45050565b5f8281526065602090815260408083206001600160a01b038516845290915290205460ff1615610c5a575f8281526065602090815260408083206001600160a01b0385168085529252808320805460ff1916905551339285917ff6391f5c32d9c69d2a47ea670b442974b53935d1edc7fd64eb21e047a839171b9190a45050565b80516001600160a01b039081165f908152609760208181526040808420878616855282528084208651909516845291905281206003015460088301548451929392600160401b90910463ffffffff16908490819061316e908690428610613164575f613635565b61296e86426155a0565b506001600160a01b038b165f908152600b8801602052604081209294509092505b88602001515181101561324c575f896020015182815181106131b3576131b3615316565b60200260200101515f0151156131ca5750836131cd565b50825b6132378a6020015183815181106131e6576131e6615316565b60200260200101516020015182855f8e60200151878151811061320b5761320b615316565b60209081029190910181015151151582528101919091526040015f20546001600160801b03168a614203565b613241908a615303565b98505060010161318f565b505050505050509392505050565b606080825167ffffffffffffffff811115613277576132776149c7565b6040519080825280602002602001820160405280156132a0578160200160208202803683370190505b5090505f5b865181101561351d575f8782815181106132c1576132c1615316565b60209081029190910181015180516001600160a01b039081165f9081526097909352604092839020825193516372b06b4d60e01b81528b831660048201529294509216906372b06b4d906024015f604051808303815f87803b158015613325575f80fd5b505af1158015613337573d5f803e3d5ffd5b505050505f61334e835f015184602001518b612c3f565b90505f5b600283015460ff166001600160801b03821610156133a35783516001600160801b0382165f90815260018501602052604090205461339b918c916001600160a01b0316856128ee565b600101613352565b505f5b875181101561350e575f835f015f8a84815181106133c6576133c6615316565b60200260200101516001600160a01b03166001600160a01b031681526020019081526020015f2090505f5b856020015151811015613504576001600160a01b038c165f908152600b83016020908152604082209088015180518391908590811061343257613432615316565b602090810291909101810151151582528101919091526040015f2054600160801b90046001600160801b0316905080156134fb578089858151811061347957613479615316565b6020026020010181815161348d9190615303565b9052506001600160a01b038d165f908152600b8401602090815260408220908901518051839190869081106134c4576134c4615316565b602090810291909101810151151582528101919091526040015f2080546001600160801b03928316600160801b0292169190911790555b506001016133f1565b50506001016133a6565b508360010193505050506132a5565b505f5b83518110156135ff575f82828151811061353c5761353c615316565b602002602001015190505f8111156135f657613585868287858151811061356557613565615316565b60200260200101516001600160a01b0316612f729092919063ffffffff16565b856001600160a01b03168583815181106135a1576135a1615316565b60200260200101516001600160a01b0316886001600160a01b03167fc1405953cccdad6b442e266c84d66ad671e2534c6584f8e6ef92802f7ad294d5846040516135ed91815260200190565b60405180910390a45b50600101613520565b5082915094509492505050565b5f54610100900460ff1661361e575f80fd5b565b5f81831161362e57816118dc565b5090919050565b5f805f6136656040518060a001604052805f81526020015f81526020015f81526020015f81526020015f81525090565b856001600160a01b0316631a90f1866040518163ffffffff1660e01b8152600401602060405180830381865afa1580156136a1573d5f803e3d5ffd5b505050506040513d601f19601f820116820180604052508101906136c591906152d8565b816060018181525050856001600160a01b0316632e0af0086040518163ffffffff1660e01b8152600401602060405180830381865afa15801561370a573d5f803e3d5ffd5b505050506040513d601f19601f8201168201806040525081019061372e91906152d8565b6080820152604080516060810182525f81830181905260088a015463ffffffff808216845264010000000090910416602083015282517f904876bd00000000000000000000000000000000000000000000000000000000815283519293919283926001600160a01b038c169263904876bd92600480830193928290030181865afa1580156137be573d5f803e3d5ffd5b505050506040513d601f19601f820116820180604052508101906137e291906152b6565b915091508084606001516137f69190615303565b8452604051635fb9165160e11b8152600481018290526001600160a01b038a169063bf722ca290602401602060405180830381865afa15801561383b573d5f803e3d5ffd5b505050506040513d601f19601f8201168201806040525081019061385f91906152d8565b6020850152604051630a28a47760e01b8152600481018390526001600160a01b038a1690630a28a47790602401602060405180830381865afa1580156138a7573d5f803e3d5ffd5b505050506040513d601f19601f820116820180604052508101906138cb91906152d8565b60408501525050875482515f919081116138ed57670de0b6b3a76400006138f9565b83516138f99082614283565b60018b015460048c0154855160208701519395505f94509192909161391d916155a0565b604086018190525f90613930575f613960565b613960858760400151670de0b6b3a764000061394c91906155b3565b8f600301546142939092919063ffffffff16565b905085602001514211613a3e5780156139e5575f61398f6139818d846155b3565b61398a90615621565b6142b1565b90506139c96139a682670de0b6b3a76400006155a0565b6139c36139bb89670de0b6b3a76400006155a0565b879086614293565b90614445565b6139d38483614459565b6139dd9190615303565b985050613a19565b8a613a026139fb87670de0b6b3a76400006155a0565b8590614459565b613a0c91906155b3565b613a169083615303565b97505b613a23828961563b565b613a2d8c856155b3565b613a37919061563b565b9350613bab565b602086015160088e0154600160401b900463ffffffff161115613aa357613a84613a6b6139818d846155b3565b613a7d90670de0b6b3a76400006155a0565b8390614445565b613a8e90836155a0565b9750613a9a828961563b565b613a3790615621565b60088d015460208701515f91613ac791600160401b90910463ffffffff16906155a0565b9b508115613b0e57613adc6139818d846155b3565b9050613af36139a682670de0b6b3a76400006155a0565b613afd8483614459565b613b079190615303565b9850613b42565b8b613b2b613b2488670de0b6b3a76400006155a0565b8690614459565b613b3591906155b3565b613b3f9084615303565b98505b613b5f876020015142613b5591906155a0565b61398190846155b3565b9050613b7d613b7682670de0b6b3a76400006155a0565b8a90614445565b613b87908a6155a0565b9850613b93838a61563b565b613b9d8d866155b3565b613ba7919061563b565b9450505b835f03613bdc5750505060078a01546001600160801b038082169850600160801b9091041695506128e59350505050565b505050613c256040518061012001604052805f81526020015f81526020015f81526020015f81526020015f81526020015f81526020015f81526020015f81526020015f81525090565b613ce585608001515f03613c39575f613cd7565b613cc586608001518c6001600160a01b0316638c3cba5a6040518163ffffffff1660e01b8152600401602060405180830381865afa158015613c7d573d5f803e3d5ffd5b505050506040513d601f19601f82011682018060405250810190613ca191906152d8565b88606001518960800151613cb591906155a0565b613cbf91906155a0565b90614283565b613cd790670de0b6b3a76400006155a0565b670de0b6b3a763ffff61446d565b80825260058c015467ffffffffffffffff600160c01b8204811660c0850152600f9190910b60e084015260068d015416610100830152613d25575f613dd3565b613dd3613db2670de0b6b3a7640000613d62613d5d8560c00151670de0b6b3a7640000613d5291906155a0565b60c087015190614283565b61447b565b8451613d8690613d5d90613d7e90670de0b6b3a76400006155a0565b875190614283565b613d90919061563b565b8460e00151613d9f919061565a565b613da890615621565b61398a9190615689565b613dc490670de0b6b3a7640000615303565b670de0b6b3a764000090614283565b60208201819052613fae90613df090670de0b6b3a76400006155a0565b613f82836101000151613f88613e798f6001600160a01b031663666010326040518163ffffffff1660e01b8152600401602060405180830381865afa158015613e3b573d5f803e3d5ffd5b505050506040513d601f19601f82011682018060405250810190613e5f91906152d8565b613e7190670de0b6b3a76400006155a0565b875190614445565b613e8b90670de0b6b3a76400006155a0565b8f6001600160a01b031663f3fdb15a6040518163ffffffff1660e01b8152600401602060405180830381865afa158015613ec7573d5f803e3d5ffd5b505050506040513d601f19601f82011682018060405250810190613eeb91906156b5565b6001600160a01b0316637c21fb1d8c608001515f03613f0a575f613f1d565b60808d015160608e0151613f1d91614283565b895160405160e084901b6001600160e01b031916815260048101929092526024820152604401602060405180830381865afa158015613f5e573d5f803e3d5ffd5b505050506040513d601f19601f82011682018060405250810190613f8291906152d8565b90614459565b613f929190615303565b60058f0154600160801b900467ffffffffffffffff1690614459565b6040820152602081015160068c0154613fd991600160801b90910467ffffffffffffffff1690614459565b6140108260200151670de0b6b3a7640000613ff491906155a0565b60068e0154600160401b900467ffffffffffffffff1690614459565b61401a9190615303565b60608201819052604082015161403e9161403391615303565b604083015190614283565b6080820181905261405790670de0b6b3a76400006155a0565b8160a00181815250505f85604001518b6001600160a01b03166318160ddd6040518163ffffffff1660e01b8152600401602060405180830381865afa1580156140a2573d5f803e3d5ffd5b505050506040513d601f19601f820116820180604052508101906140c691906152d8565b6140d09190615303565b90505f86602001518c6001600160a01b0316638d0e5f026040518163ffffffff1660e01b8152600401602060405180830381865afa158015614114573d5f803e3d5ffd5b505050506040513d601f19601f8201168201806040525081019061413891906152d8565b6141429190615303565b6001600160a01b038d165f908152609760205260409020600301549091508161416b575f61418e565b61418e818361418787608001518961445990919063ffffffff16565b9190614293565b60078f01546141a691906001600160801b0316615303565b9a505f83116141b5575f6141d1565b6141d181846141878760a001518961445990919063ffffffff16565b60078f01546141f09190600160801b90046001600160801b0316615303565b9950505050505050505093509350939050565b5f61421961421184866155a0565b869084614293565b95945050505050565b5f8281526065602090815260408083206001600160a01b038516845290915290205460ff16610c5a576142548161462a565b61425f83602061463c565b6040516020016142709291906156e7565b6040516020818303038152906040525f80fd5b5f6118dc83670de0b6b3a7640000845b8282028115158415858304851417166142aa575f80fd5b0492915050565b5f680248ce36a70cb26b3e1982136142ca57505f919050565b680755bf798b4a1bf1e582126142de575f80fd5b6503782dace9d9604e83901b0591505f60606bb17217f7d1cf79abc9e3b39884821b056b80000000000000000000000001901d6bb17217f7d1cf79abc9e3b39881029093036c240c330e9fb2d9cbaf0fd5aafb1981018102606090811d6d0277594991cfc85f6e2461837cd9018202811d6d1a521255e34f6a5061b25ef1c9c319018202811d6db1bbb201f443cf962f1a1d3db4a5018202811d7ffffffffffffffffffffffffffffffffffffd38dc772608b0ae56cce01296c0eb018202811d6e05180bb14799ab47a8a8cb2a527d57016d02d16720577bd19bf614176fe9ea6c10fe68e7fd37d0007b713f765084018402831d9081019084016d01d3967ed30fc4f89c02bab5708119010290911d6e0587f503bb6ea29d25fcb7401964500190910279d835ebba824c98fb31b83b2ca45c000000000000000000000000010574029d9dc38563c32e5c2f6dc192ee70ef65f9978af30260c3939093039290921c92915050565b5f6118dc8383670de0b6b3a76400006147d3565b5f6118dc8383670de0b6b3a7640000614293565b5f81831061362e57816118dc565b5f808213614487575f80fd5b5f606061449384614800565b03609f8181039490941b90931c6c465772b2bbbb5f824b15207a3081018102606090811d6d0388eaa27412d5aca026815d636e018202811d6d0df99ac502031bf953eff472fdcc018202811d6d13cdffb29d51d99322bdff5f2211018202811d6d0a0f742023def783a307a986912e018202811d6d01920d8043ca89b5239253284e42018202811d6c0b7a86d7375468fac667a0a527016c29508e458543d8aa4df2abee7883018302821d6d0139601a2efabe717e604cbb4894018302821d6d02247f7a7b6594320649aa03aba1018302821d6c8c3f38e95a6b1ff2ab1c3b343619018302821d6d02384773bdf1ac5676facced60901901830290911d6cb9a025d814b29c212b8b1a07cd19019091027ffffffffffffffff5f6af8f7b3396644f18e157960000000000000000000000000105711340daa0d5f769dba1915cef59f0815a5506027d0267a36c0c95b3975ab3ee5b203a7614a3f75373f047d803ae7b6687f2b393909302929092017d57115e47018c7177eebf7cd370a3356a1b7863008a5ae8028c72b88642840160ae1d92915050565b6060610ae36001600160a01b03831660145b60605f61464a8360026155b3565b614655906002615303565b67ffffffffffffffff81111561466d5761466d6149c7565b6040519080825280601f01601f191660200182016040528015614697576020820181803683370190505b5090507f3000000000000000000000000000000000000000000000000000000000000000815f815181106146cd576146cd615316565b60200101906001600160f81b03191690815f1a9053507f78000000000000000000000000000000000000000000000000000000000000008160018151811061471757614717615316565b60200101906001600160f81b03191690815f1a9053505f6147398460026155b3565b614744906001615303565b90505b60018111156147c8577f303132333435363738396162636465660000000000000000000000000000000085600f166010811061478557614785615316565b1a60f81b82828151811061479b5761479b615316565b60200101906001600160f81b03191690815f1a90535060049490941c936147c181615748565b9050614747565b5083156118dc575f80fd5b8282028115158415858304851417166147ea575f80fd5b6001826001830304018115150290509392505050565b5f80821161480c575f80fd5b5060016001600160801b03821160071b82811c67ffffffffffffffff1060061b1782811c63ffffffff1060051b1782811c61ffff1060041b1782811c60ff10600390811b90911783811c600f1060021b1783811c909110821b1791821c111790565b6001600160a01b03811681146118c6575f80fd5b5f60208284031215614892575f80fd5b81356118dc8161486e565b5f602082840312156148ad575f80fd5b81356001600160e01b0319811681146118dc575f80fd5b5f602082840312156148d4575f80fd5b5035919050565b80356148e68161486e565b919050565b5f805f606084860312156148fd575f80fd5b83356149088161486e565b925060208401356149188161486e565b915060408401356149288161486e565b809150509250925092565b803580151581146148e6575f80fd5b5f805f8060808587031215614955575f80fd5b84356149608161486e565b935060208501356149708161486e565b925061497e60408601614933565b9150606085013561498e8161486e565b939692955090935050565b5f80604083850312156149aa575f80fd5b8235915060208301356149bc8161486e565b809150509250929050565b634e487b7160e01b5f52604160045260245ffd5b6040805190810167ffffffffffffffff811182821017156149fe576149fe6149c7565b60405290565b6040516101c0810167ffffffffffffffff811182821017156149fe576149fe6149c7565b604051601f8201601f1916810167ffffffffffffffff81118282101715614a5157614a516149c7565b604052919050565b5f67ffffffffffffffff821115614a7257614a726149c7565b5060051b60200190565b5f82601f830112614a8b575f80fd5b8135614a9e614a9982614a59565b614a28565b8082825260208201915060208360051b860101925085831115614abf575f80fd5b602085015b83811015614bb657803567ffffffffffffffff811115614ae2575f80fd5b86016040818903601f19011215614af7575f80fd5b614aff6149db565b6020820135614b0d8161486e565b8152604082013567ffffffffffffffff811115614b28575f80fd5b60208184010192505088601f830112614b3f575f80fd5b8135614b4d614a9982614a59565b8082825260208201915060208360051b86010192508b831115614b6e575f80fd5b6020850194505b82851015614b9757614b8685614933565b825260209485019490910190614b75565b8060208501525050508085525050602083019250602081019050614ac4565b5095945050505050565b5f805f60608486031215614bd2575f80fd5b833567ffffffffffffffff811115614be8575f80fd5b614bf486828701614a7c565b93505060208401356149188161486e565b5f8060408385031215614c16575f80fd5b8235614c218161486e565b915060208301356149bc8161486e565b5f602082016020835280845180835260408501915060408160051b8601019250602086015f5b82811015614ce957868503603f19018452815180516001600160a01b03168652602090810151604082880181905281519088018190529101905f9060608801905b80831015614cd15783516001600160a01b0381511683526020810151602084015250604082019150602084019350600183019250614c98565b50965050506020938401939190910190600101614c57565b50929695505050505050565b5f8060408385031215614d06575f80fd5b823567ffffffffffffffff811115614d1c575f80fd5b614d2885828601614a7c565b925050602083013567ffffffffffffffff811115614d44575f80fd5b830160c081860312156149bc575f80fd5b5f8151808452602084019350602083015f5b82811015614d8e5781516001600160a01b0316865260209586019590910190600101614d67565b5093949350505050565b604081525f614daa6040830185614d55565b82810360208401528084518083526020830191506020860192505f5b81811015614de4578351835260209384019390920191600101614dc6565b50909695505050505050565b5f805f60608486031215614e02575f80fd5b833567ffffffffffffffff811115614e18575f80fd5b614e2486828701614a7c565b9350506020840135614e358161486e565b9150604084013567ffffffffffffffff811115614e50575f80fd5b8401601f81018613614e60575f80fd5b8035614e6e614a9982614a59565b8082825260208201915060208360051b850101925088831115614e8f575f80fd5b6020840193505b82841015614eba578335614ea98161486e565b825260209384019390910190614e96565b809450505050509250925092565b5f602082016020835280845180835260408501915060408160051b8601019250602086015f5b82811015614ce957868503603f19018452815180516001600160a01b03168652602090810151604082880181905281519088018190529101905f9060608801905b80831015614f5457835115158252602082019150602084019350600183019250614f2f565b50965050506020938401939190910190600101614eee565b602081525f6118dc6020830184614d55565b803563ffffffff811681146148e6575f80fd5b8035600f81900b81146148e6575f80fd5b803567ffffffffffffffff811681146148e6575f80fd5b5f60208284031215614fc9575f80fd5b813567ffffffffffffffff811115614fdf575f80fd5b8201601f81018413614fef575f80fd5b8035614ffd614a9982614a59565b8082825260208201915060206101c0840285010192508683111561501f575f80fd5b6020840193505b82841015615133576101c0848803121561503e575f80fd5b615046614a04565b61504f856148db565b815261505d602086016148db565b602082015261506e604086016148db565b604082015261507f60608601614f7e565b60608201526080858101359082015260a0808601359082015260c0808601359082015260e080860135908201526150b96101008601614f91565b6101008201526150cc6101208601614fa2565b6101208201526150df6101408601614fa2565b6101408201526150f26101608601614fa2565b6101608201526151056101808601614fa2565b6101808201526151186101a08601614fa2565b6101a082015282526101c09390930192602090910190615026565b9695505050505050565b81516001600160a01b031681526101c08101602083015161516960208401826001600160a01b03169052565b50604083015161518460408401826001600160a01b03169052565b50606083015161519c606084018263ffffffff169052565b506080830151608083015260a083015160a083015260c083015160c083015260e083015160e08301526101008301516151db610100840182600f0b9052565b506101208301516151f961012084018267ffffffffffffffff169052565b5061014083015161521761014084018267ffffffffffffffff169052565b5061016083015161523561016084018267ffffffffffffffff169052565b5061018083015161525361018084018267ffffffffffffffff169052565b506101a08301516152716101a084018267ffffffffffffffff169052565b5092915050565b5f805f6060848603121561528a575f80fd5b83356152958161486e565b925060208401356152a58161486e565b929592945050506040919091013590565b5f80604083850312156152c7575f80fd5b505080516020909101519092909150565b5f602082840312156152e8575f80fd5b5051919050565b634e487b7160e01b5f52601160045260245ffd5b80820180821115610ae357610ae36152ef565b634e487b7160e01b5f52603260045260245ffd5b634e487b7160e01b5f52600160045260245ffd5b5f808335601e19843603018112615353575f80fd5b83018035915067ffffffffffffffff82111561536d575f80fd5b6020019150600581901b3603821315615384575f80fd5b9250929050565b8781526001600160a01b0387811660208301528616604082015260c06060820181905281018490525f8560e08301825b878110156153eb5782356153ce8161486e565b6001600160a01b03168252602092830192909101906001016153bb565b506080840195909552505060a0015295945050505050565b60ff811681146118c6575f80fd5b5f60208284031215615421575f80fd5b81356118dc81615403565b5f805f6060848603121561543e575f80fd5b5050815160208301516040909301519094929350919050565b5f60ff821660ff810361546c5761546c6152ef565b60010192915050565b5f60208284031215615485575f80fd5b81516118dc81615403565b6001815b6001841115611791578085048111156154af576154af6152ef565b60018416156154bd57908102905b60019390931c928002615494565b5f826154d957506001610ae3565b816154e557505f610ae3565b81600181146154fb576002811461550557615521565b6001915050610ae3565b60ff841115615516576155166152ef565b50506001821b610ae3565b5060208310610133831016604e8410600b8410161715615544575081810a610ae3565b6155505f198484615490565b805f1904821115615563576155636152ef565b029392505050565b5f6118dc60ff8416836154cb565b634e487b7160e01b5f52601260045260245ffd5b5f8261559b5761559b615579565b500490565b81810381811115610ae357610ae36152ef565b8082028115828204841417610ae357610ae36152ef565b63ffffffff8181168382160190811115610ae357610ae36152ef565b63ffffffff8281168282160390811115610ae357610ae36152ef565b6001600160801b038181168382160190811115610ae357610ae36152ef565b5f600160ff1b8203615635576156356152ef565b505f0390565b8181035f831280158383131683831282161715615271576152716152ef565b8082025f8212600160ff1b84141615615675576156756152ef565b8181058314821517610ae357610ae36152ef565b5f8261569757615697615579565b600160ff1b82145f19841416156156b0576156b06152ef565b500590565b5f602082840312156156c5575f80fd5b81516118dc8161486e565b5f81518060208401855e5f93019283525090919050565b7f416363657373436f6e74726f6c3a206163636f756e742000000000000000000081525f61571860178301856156d0565b7f206973206d697373696e6720726f6c6520000000000000000000000000000000815261421960118201856156d0565b5f81615756576157566152ef565b505f19019056fea264697066735822122058c9d11622ea64eae1aca1db73a8c373ce39439054af002014809c10a72e083664736f6c634300081a0033",
  "devdoc": {
    "events": {
      "Accrue(address,address,address,bool,uint256,uint256,uint256)": {
        "params": {
          "account": "account that accrued the rewards.",
          "accountIndex": "previous account index.",
          "market": "Market where the operation was made.",
          "operation": "true if the operation was a borrow, false if it was a deposit.",
          "operationIndex": "new operation index that is assigned to the `accountIndex`.",
          "reward": "reward asset.",
          "rewardsAccrued": "amount of rewards accrued."
        }
      },
      "Claim(address,address,address,uint256)": {
        "params": {
          "account": "account that claimed the rewards.",
          "amount": "amount of rewards claimed.",
          "reward": "reward asset.",
          "to": "account that received the rewards."
        }
      },
      "DistributionSet(address,address,(address,address,address,uint32,uint256,uint256,uint256,uint256,int128,uint64,uint64,uint64,uint64,uint64))": {
        "params": {
          "config": "configuration struct containing the distribution parameters.",
          "market": "Market whose distribution was set.",
          "reward": "reward asset to be distributed when operating with the Market."
        }
      },
      "IndexUpdate(address,address,uint256,uint256,uint256,uint256)": {
        "params": {
          "borrowIndex": "index of the borrow operations of a distribution.",
          "depositIndex": "index of the deposit operations of a distribution.",
          "lastUpdate": "current timestamp.",
          "market": "Market of the distribution.",
          "newUndistributed": "amount of undistributed rewards.",
          "reward": "reward asset."
        }
      },
      "Initialized(uint8)": {
        "details": "Triggered when the contract has been initialized or reinitialized."
      },
      "RoleAdminChanged(bytes32,bytes32,bytes32)": {
        "details": "Emitted when `newAdminRole` is set as ``role``'s admin role, replacing `previousAdminRole` `DEFAULT_ADMIN_ROLE` is the starting admin for all roles, despite {RoleAdminChanged} not being emitted signaling this. _Available since v3.1._"
      },
      "RoleGranted(bytes32,address,address)": {
        "details": "Emitted when `account` is granted `role`. `sender` is the account that originated the contract call, an admin role bearer except when using {AccessControl-_setupRole}."
      },
      "RoleRevoked(bytes32,address,address)": {
        "details": "Emitted when `account` is revoked `role`. `sender` is the account that originated the contract call:   - if using `revokeRole`, it is the admin role bearer   - if using `renounceRole`, it is the role bearer (i.e. `account`)"
      }
    },
    "kind": "dev",
    "methods": {
      "accountOperation(address,address,bool,address)": {
        "params": {
          "account": "The account to get the operation data from.",
          "market": "The market in which the operation was made.",
          "operation": "True if the operation was a borrow, false if it was a deposit.",
          "reward": "The reward asset."
        },
        "returns": {
          "_0": "accrued The accrued amount.",
          "_1": "index The account index."
        }
      },
      "allClaimable(address)": {
        "params": {
          "account": "The account to get the claimable amounts for."
        },
        "returns": {
          "unclaimedRewards": "The claimable amount per reward asset and per Market for the given account."
        }
      },
      "allClaimable(address,address)": {
        "params": {
          "account": "The account to get the claimable amount for.",
          "reward": "The reward asset."
        },
        "returns": {
          "unclaimedRewards": "The claimable amount for the given account."
        }
      },
      "allMarketsOperations()": {
        "returns": {
          "marketOps": "The list of market operations."
        }
      },
      "availableRewardsCount(address)": {
        "params": {
          "market": "Market to get the number of available rewards to distribute."
        },
        "returns": {
          "_0": "The amount reward assets set to a Market."
        }
      },
      "claim((address,bool[])[],(address,address[],uint256,uint8,bytes32,bytes32))": {
        "params": {
          "marketOps": "The operations to claim rewards for.",
          "permit": "Arguments and signature from `permit.owner`."
        },
        "returns": {
          "_0": "rewardsList The list of rewards assets.",
          "claimedAmounts": "The list of claimed amounts."
        }
      },
      "claim((address,bool[])[],address,address[])": {
        "params": {
          "marketOps": "The operations to claim rewards for.",
          "rewardsList": "The list of rewards assets to claim.",
          "to": "The address to send the rewards to."
        },
        "returns": {
          "_0": "rewardsList The list of rewards assets.",
          "_1": "claimedAmounts The list of claimed amounts."
        }
      },
      "claimAll(address)": {
        "params": {
          "to": "The address to send the rewards to."
        },
        "returns": {
          "claimedAmounts": "The list of claimed amounts.",
          "rewardsList": "The list of rewards assets."
        }
      },
      "claimOnBehalfOf((address,bool[])[],address,address[])": {
        "params": {
          "account": "The account to claim the rewards for.",
          "marketOps": "The operations to claim rewards for.",
          "rewardsList": "The list of rewards assets to claim."
        },
        "returns": {
          "_0": "rewardsList The list of rewards assets.",
          "_1": "claimedAmounts The list of claimed amounts."
        }
      },
      "claimable((address,bool[])[],address,address)": {
        "params": {
          "account": "The account to get the claimable amount for.",
          "marketOps": "The list of Market operations to get the accrued and pending rewards from.",
          "reward": "The reward asset."
        },
        "returns": {
          "unclaimedRewards": "The claimable amount for the given account."
        }
      },
      "config((address,address,address,uint32,uint256,uint256,uint256,uint256,int128,uint64,uint64,uint64,uint64,uint64)[])": {
        "params": {
          "configs": "The configurations to update each RewardData with."
        }
      },
      "constructor": {
        "custom:oz-upgrades-unsafe-allow": "constructor"
      },
      "distributionTime(address,address)": {
        "params": {
          "market": "The market to get the distribution times.",
          "reward": "The reward asset."
        },
        "returns": {
          "_0": "The distribution `start`, `end` and `lastUpdate` time."
        }
      },
      "getRoleAdmin(bytes32)": {
        "details": "Returns the admin role that controls `role`. See {grantRole} and {revokeRole}. To change a role's admin, use {_setRoleAdmin}."
      },
      "grantRole(bytes32,address)": {
        "details": "Grants `role` to `account`. If `account` had not been already granted `role`, emits a {RoleGranted} event. Requirements: - the caller must have ``role``'s admin role. May emit a {RoleGranted} event."
      },
      "handleBorrow(address)": {
        "details": "There's no need to check that `msg.sender` is a valid Market as it won't have available rewards if it's not.",
        "params": {
          "account": "The account to which the index is updated."
        }
      },
      "handleDeposit(address)": {
        "details": "There's no need to check that `msg.sender` is a valid Market as it won't have available rewards if it's not.",
        "params": {
          "account": "The account to which the index is updated."
        }
      },
      "hasRole(bytes32,address)": {
        "details": "Returns `true` if `account` has been granted `role`."
      },
      "initialize()": {
        "details": "Can only be called once."
      },
      "previewAllocation(address,address,uint256)": {
        "params": {
          "deltaTime": "The elapsed time since the last update.",
          "market": "The market to calculate the indexes for.",
          "reward": "The reward asset to calculate the indexes for."
        },
        "returns": {
          "borrowIndex": "The index for the borrow operation.",
          "depositIndex": "The index for the deposit operation.",
          "newUndistributed": "The new undistributed rewards of the distribution."
        }
      },
      "renounceRole(bytes32,address)": {
        "details": "Revokes `role` from the calling account. Roles are often managed via {grantRole} and {revokeRole}: this function's purpose is to provide a mechanism for accounts to lose their privileges if they are compromised (such as when a trusted device is misplaced). If the calling account had been revoked `role`, emits a {RoleRevoked} event. Requirements: - the caller must be `account`. May emit a {RoleRevoked} event."
      },
      "revokeRole(bytes32,address)": {
        "details": "Revokes `role` from `account`. If `account` had been granted `role`, emits a {RoleRevoked} event. Requirements: - the caller must have ``role``'s admin role. May emit a {RoleRevoked} event."
      },
      "rewardConfig(address,address)": {
        "params": {
          "market": "The market to get the distribution configuration for.",
          "reward": "The reward asset."
        },
        "returns": {
          "_0": "The distribution configuration."
        }
      },
      "rewardIndexes(address,address)": {
        "params": {
          "market": "The market to get the reward indexes for.",
          "reward": "The reward asset to get the reward indexes for."
        },
        "returns": {
          "_0": "borrowIndex The index for the floating and fixed borrow operation.",
          "_1": "depositIndex The index for the floating deposit operation.",
          "_2": "lastUndistributed The last amount of undistributed rewards."
        }
      },
      "setKeeper(address,address)": {
        "params": {
          "account": "The account to set the `keeper` for.",
          "keeper": "The address to set as the `keeper`."
        }
      },
      "supportsInterface(bytes4)": {
        "details": "See {IERC165-supportsInterface}."
      },
      "withdraw(address,address)": {
        "params": {
          "asset": "The asset to withdraw.",
          "to": "The address to withdraw the asset to."
        }
      },
      "withdrawUndistributed(address,address,address)": {
        "params": {
          "market": "The market to withdraw the rewards from.",
          "reward": "The reward asset to withdraw.",
          "to": "The address to withdraw the rewards to."
        }
      }
    },
    "version": 1
  },
  "userdoc": {
    "events": {
      "Accrue(address,address,address,bool,uint256,uint256,uint256)": {
        "notice": "Emitted when rewards are accrued by an account."
      },
      "Claim(address,address,address,uint256)": {
        "notice": "Emitted when rewards are claimed by an account."
      },
      "DistributionSet(address,address,(address,address,address,uint32,uint256,uint256,uint256,uint256,int128,uint64,uint64,uint64,uint64,uint64))": {
        "notice": "Emitted when a distribution is set."
      },
      "IndexUpdate(address,address,uint256,uint256,uint256,uint256)": {
        "notice": "Emitted when the distribution indexes are updated."
      }
    },
    "kind": "user",
    "methods": {
      "UTILIZATION_CAP()": {
        "notice": "Max utilization supported by the sigmoid function not to cause a division by zero (1e18 = WAD)."
      },
      "accountOperation(address,address,bool,address)": {
        "notice": "Gets the account data of a given account, Market, operation and reward asset."
      },
      "allClaimable(address)": {
        "notice": "Gets the claimable amount of rewards for a given account."
      },
      "allClaimable(address,address)": {
        "notice": "Gets the claimable amount of rewards for a given account and reward asset."
      },
      "allMarketsOperations()": {
        "notice": "Gets all market and operations."
      },
      "allRewards()": {
        "notice": "Retrieves all rewards addresses."
      },
      "availableRewardsCount(address)": {
        "notice": "Gets the amount of reward assets that are being distributed for a Market."
      },
      "claim((address,bool[])[],(address,address[],uint256,uint8,bytes32,bytes32))": {
        "notice": "Claims `permit.owner` rewards for the given operations and reward assets to the given account."
      },
      "claim((address,bool[])[],address,address[])": {
        "notice": "Claims `msg.sender` rewards for the given operations and reward assets to the given account."
      },
      "claimAll(address)": {
        "notice": "Claims all `msg.sender` rewards to the given account."
      },
      "claimOnBehalfOf((address,bool[])[],address,address[])": {
        "notice": "Claims `account` rewards for the given operations and reward assets."
      },
      "claimable((address,bool[])[],address,address)": {
        "notice": "Gets the claimable amount of rewards for a given account, Market operations and reward asset."
      },
      "config((address,address,address,uint32,uint256,uint256,uint256,uint256,int128,uint64,uint64,uint64,uint64,uint64)[])": {
        "notice": "Enables or updates the reward distribution for the given markets and rewards."
      },
      "distribution(address)": {
        "notice": "Tracks the reward distribution data for a given market."
      },
      "distributionTime(address,address)": {
        "notice": "Gets the distribution `start`, `end` and `lastUpdate` value of a given market and reward."
      },
      "handleBorrow(address)": {
        "notice": "Hook to be called by the Market to update the index of the account that made a rewarded borrow."
      },
      "handleDeposit(address)": {
        "notice": "Hook to be called by the Market to update the index of the account that made a rewarded deposit."
      },
      "initialize()": {
        "notice": "Initializes the contract."
      },
      "keepers(address)": {
        "notice": "Tracks the allowed `keeper` to claim on behalf of `account`."
      },
      "marketList(uint256)": {
        "notice": "Stores Markets with distributions set."
      },
      "nonces(address)": {
        "notice": "Tracks the owner nonces for the claim permit."
      },
      "previewAllocation(address,address,uint256)": {
        "notice": "Retrieves projected distribution indexes and new undistributed amount for a given `deltaTime`."
      },
      "rewardConfig(address,address)": {
        "notice": "Gets the configuration of a given distribution."
      },
      "rewardEnabled(address)": {
        "notice": "Tracks enabled asset rewards."
      },
      "rewardIndexes(address,address)": {
        "notice": "Gets the reward indexes and last amount of undistributed rewards for a given market and reward asset."
      },
      "rewardList(uint256)": {
        "notice": "Stores registered asset rewards."
      },
      "setKeeper(address,address)": {
        "notice": "Sets the `keeper` address for the given `account`."
      },
      "withdraw(address,address)": {
        "notice": "Withdraws the contract's balance of the given asset to the given address."
      },
      "withdrawUndistributed(address,address,address)": {
        "notice": "Withdraws the undistributed rewards of the given market and reward asset to the given address."
      }
    },
    "version": 1
  },
  "storageLayout": {
    "storage": [
      {
        "astId": 543,
        "contract": "contracts/RewardsController.sol:RewardsController",
        "label": "_initialized",
        "offset": 0,
        "slot": "0",
        "type": "t_uint8"
      },
      {
        "astId": 546,
        "contract": "contracts/RewardsController.sol:RewardsController",
        "label": "_initializing",
        "offset": 1,
        "slot": "0",
        "type": "t_bool"
      },
      {
        "astId": 3288,
        "contract": "contracts/RewardsController.sol:RewardsController",
        "label": "__gap",
        "offset": 0,
        "slot": "1",
        "type": "t_array(t_uint256)50_storage"
      },
      {
        "astId": 4287,
        "contract": "contracts/RewardsController.sol:RewardsController",
        "label": "__gap",
        "offset": 0,
        "slot": "51",
        "type": "t_array(t_uint256)50_storage"
      },
      {
        "astId": 28,
        "contract": "contracts/RewardsController.sol:RewardsController",
        "label": "_roles",
        "offset": 0,
        "slot": "101",
        "type": "t_mapping(t_bytes32,t_struct(RoleData)23_storage)"
      },
      {
        "astId": 335,
        "contract": "contracts/RewardsController.sol:RewardsController",
        "label": "__gap",
        "offset": 0,
        "slot": "102",
        "type": "t_array(t_uint256)49_storage"
      },
      {
        "astId": 28479,
        "contract": "contracts/RewardsController.sol:RewardsController",
        "label": "distribution",
        "offset": 0,
        "slot": "151",
        "type": "t_mapping(t_contract(Market)27634,t_struct(Distribution)31830_storage)"
      },
      {
        "astId": 28485,
        "contract": "contracts/RewardsController.sol:RewardsController",
        "label": "rewardEnabled",
        "offset": 0,
        "slot": "152",
        "type": "t_mapping(t_contract(ERC20)48224,t_bool)"
      },
      {
        "astId": 28490,
        "contract": "contracts/RewardsController.sol:RewardsController",
        "label": "rewardList",
        "offset": 0,
        "slot": "153",
        "type": "t_array(t_contract(ERC20)48224)dyn_storage"
      },
      {
        "astId": 28495,
        "contract": "contracts/RewardsController.sol:RewardsController",
        "label": "marketList",
        "offset": 0,
        "slot": "154",
        "type": "t_array(t_contract(Market)27634)dyn_storage"
      },
      {
        "astId": 28500,
        "contract": "contracts/RewardsController.sol:RewardsController",
        "label": "nonces",
        "offset": 0,
        "slot": "155",
        "type": "t_mapping(t_address,t_uint256)"
      },
      {
        "astId": 28503,
        "contract": "contracts/RewardsController.sol:RewardsController",
        "label": "_claimSender",
        "offset": 0,
        "slot": "156",
        "type": "t_address"
      },
      {
        "astId": 28508,
        "contract": "contracts/RewardsController.sol:RewardsController",
        "label": "keepers",
        "offset": 0,
        "slot": "157",
        "type": "t_mapping(t_address,t_address)"
      }
    ],
    "types": {
      "t_address": {
        "encoding": "inplace",
        "label": "address",
        "numberOfBytes": "20"
      },
      "t_array(t_contract(ERC20)48224)dyn_storage": {
        "base": "t_contract(ERC20)48224",
        "encoding": "dynamic_array",
        "label": "contract ERC20[]",
        "numberOfBytes": "32"
      },
      "t_array(t_contract(Market)27634)dyn_storage": {
        "base": "t_contract(Market)27634",
        "encoding": "dynamic_array",
        "label": "contract Market[]",
        "numberOfBytes": "32"
      },
      "t_array(t_uint256)49_storage": {
        "base": "t_uint256",
        "encoding": "inplace",
        "label": "uint256[49]",
        "numberOfBytes": "1568"
      },
      "t_array(t_uint256)50_storage": {
        "base": "t_uint256",
        "encoding": "inplace",
        "label": "uint256[50]",
        "numberOfBytes": "1600"
      },
      "t_bool": {
        "encoding": "inplace",
        "label": "bool",
        "numberOfBytes": "1"
      },
      "t_bytes32": {
        "encoding": "inplace",
        "label": "bytes32",
        "numberOfBytes": "32"
      },
      "t_contract(ERC20)48224": {
        "encoding": "inplace",
        "label": "contract ERC20",
        "numberOfBytes": "20"
      },
      "t_contract(IPriceFeed)47259": {
        "encoding": "inplace",
        "label": "contract IPriceFeed",
        "numberOfBytes": "20"
      },
      "t_contract(Market)27634": {
        "encoding": "inplace",
        "label": "contract Market",
        "numberOfBytes": "20"
      },
      "t_int128": {
        "encoding": "inplace",
        "label": "int128",
        "numberOfBytes": "16"
      },
      "t_mapping(t_address,t_address)": {
        "encoding": "mapping",
        "key": "t_address",
        "label": "mapping(address => address)",
        "numberOfBytes": "32",
        "value": "t_address"
      },
      "t_mapping(t_address,t_bool)": {
        "encoding": "mapping",
        "key": "t_address",
        "label": "mapping(address => bool)",
        "numberOfBytes": "32",
        "value": "t_bool"
      },
      "t_mapping(t_address,t_mapping(t_bool,t_struct(Account)31735_storage))": {
        "encoding": "mapping",
        "key": "t_address",
        "label": "mapping(address => mapping(bool => struct RewardsController.Account))",
        "numberOfBytes": "32",
        "value": "t_mapping(t_bool,t_struct(Account)31735_storage)"
      },
      "t_mapping(t_address,t_uint256)": {
        "encoding": "mapping",
        "key": "t_address",
        "label": "mapping(address => uint256)",
        "numberOfBytes": "32",
        "value": "t_uint256"
      },
      "t_mapping(t_bool,t_struct(Account)31735_storage)": {
        "encoding": "mapping",
        "key": "t_bool",
        "label": "mapping(bool => struct RewardsController.Account)",
        "numberOfBytes": "32",
        "value": "t_struct(Account)31735_storage"
      },
      "t_mapping(t_bytes32,t_struct(RoleData)23_storage)": {
        "encoding": "mapping",
        "key": "t_bytes32",
        "label": "mapping(bytes32 => struct AccessControlUpgradeable.RoleData)",
        "numberOfBytes": "32",
        "value": "t_struct(RoleData)23_storage"
      },
      "t_mapping(t_contract(ERC20)48224,t_bool)": {
        "encoding": "mapping",
        "key": "t_contract(ERC20)48224",
        "label": "mapping(contract ERC20 => bool)",
        "numberOfBytes": "32",
        "value": "t_bool"
      },
      "t_mapping(t_contract(ERC20)48224,t_struct(RewardData)31814_storage)": {
        "encoding": "mapping",
        "key": "t_contract(ERC20)48224",
        "label": "mapping(contract ERC20 => struct RewardsController.RewardData)",
        "numberOfBytes": "32",
        "value": "t_struct(RewardData)31814_storage"
      },
      "t_mapping(t_contract(Market)27634,t_struct(Distribution)31830_storage)": {
        "encoding": "mapping",
        "key": "t_contract(Market)27634",
        "label": "mapping(contract Market => struct RewardsController.Distribution)",
        "numberOfBytes": "32",
        "value": "t_struct(Distribution)31830_storage"
      },
      "t_mapping(t_uint128,t_contract(ERC20)48224)": {
        "encoding": "mapping",
        "key": "t_uint128",
        "label": "mapping(uint128 => contract ERC20)",
        "numberOfBytes": "32",
        "value": "t_contract(ERC20)48224"
      },
      "t_struct(Account)31735_storage": {
        "encoding": "inplace",
        "label": "struct RewardsController.Account",
        "members": [
          {
            "astId": 31732,
            "contract": "contracts/RewardsController.sol:RewardsController",
            "label": "index",
            "offset": 0,
            "slot": "0",
            "type": "t_uint128"
          },
          {
            "astId": 31734,
            "contract": "contracts/RewardsController.sol:RewardsController",
            "label": "accrued",
            "offset": 16,
            "slot": "0",
            "type": "t_uint128"
          }
        ],
        "numberOfBytes": "32"
      },
      "t_struct(Distribution)31830_storage": {
        "encoding": "inplace",
        "label": "struct RewardsController.Distribution",
        "members": [
          {
            "astId": 31820,
            "contract": "contracts/RewardsController.sol:RewardsController",
            "label": "rewards",
            "offset": 0,
            "slot": "0",
            "type": "t_mapping(t_contract(ERC20)48224,t_struct(RewardData)31814_storage)"
          },
          {
            "astId": 31825,
            "contract": "contracts/RewardsController.sol:RewardsController",
            "label": "availableRewards",
            "offset": 0,
            "slot": "1",
            "type": "t_mapping(t_uint128,t_contract(ERC20)48224)"
          },
          {
            "astId": 31827,
            "contract": "contracts/RewardsController.sol:RewardsController",
            "label": "availableRewardsCount",
            "offset": 0,
            "slot": "2",
            "type": "t_uint8"
          },
          {
            "astId": 31829,
            "contract": "contracts/RewardsController.sol:RewardsController",
            "label": "baseUnit",
            "offset": 0,
            "slot": "3",
            "type": "t_uint256"
          }
        ],
        "numberOfBytes": "128"
      },
      "t_struct(RewardData)31814_storage": {
        "encoding": "inplace",
        "label": "struct RewardsController.RewardData",
        "members": [
          {
            "astId": 31769,
            "contract": "contracts/RewardsController.sol:RewardsController",
            "label": "targetDebt",
            "offset": 0,
            "slot": "0",
            "type": "t_uint256"
          },
          {
            "astId": 31771,
            "contract": "contracts/RewardsController.sol:RewardsController",
            "label": "releaseRate",
            "offset": 0,
            "slot": "1",
            "type": "t_uint256"
          },
          {
            "astId": 31773,
            "contract": "contracts/RewardsController.sol:RewardsController",
            "label": "totalDistribution",
            "offset": 0,
            "slot": "2",
            "type": "t_uint256"
          },
          {
            "astId": 31775,
            "contract": "contracts/RewardsController.sol:RewardsController",
            "label": "undistributedFactor",
            "offset": 0,
            "slot": "3",
            "type": "t_uint256"
          },
          {
            "astId": 31777,
            "contract": "contracts/RewardsController.sol:RewardsController",
            "label": "lastUndistributed",
            "offset": 0,
            "slot": "4",
            "type": "t_uint256"
          },
          {
            "astId": 31779,
            "contract": "contracts/RewardsController.sol:RewardsController",
            "label": "flipSpeed",
            "offset": 0,
            "slot": "5",
            "type": "t_int128"
          },
          {
            "astId": 31781,
            "contract": "contracts/RewardsController.sol:RewardsController",
            "label": "compensationFactor",
            "offset": 16,
            "slot": "5",
            "type": "t_uint64"
          },
          {
            "astId": 31783,
            "contract": "contracts/RewardsController.sol:RewardsController",
            "label": "transitionFactor",
            "offset": 24,
            "slot": "5",
            "type": "t_uint64"
          },
          {
            "astId": 31785,
            "contract": "contracts/RewardsController.sol:RewardsController",
            "label": "borrowAllocationWeightFactor",
            "offset": 0,
            "slot": "6",
            "type": "t_uint64"
          },
          {
            "astId": 31787,
            "contract": "contracts/RewardsController.sol:RewardsController",
            "label": "depositAllocationWeightAddend",
            "offset": 8,
            "slot": "6",
            "type": "t_uint64"
          },
          {
            "astId": 31789,
            "contract": "contracts/RewardsController.sol:RewardsController",
            "label": "depositAllocationWeightFactor",
            "offset": 16,
            "slot": "6",
            "type": "t_uint64"
          },
          {
            "astId": 31791,
            "contract": "contracts/RewardsController.sol:RewardsController",
            "label": "borrowIndex",
            "offset": 0,
            "slot": "7",
            "type": "t_uint128"
          },
          {
            "astId": 31793,
            "contract": "contracts/RewardsController.sol:RewardsController",
            "label": "depositIndex",
            "offset": 16,
            "slot": "7",
            "type": "t_uint128"
          },
          {
            "astId": 31795,
            "contract": "contracts/RewardsController.sol:RewardsController",
            "label": "start",
            "offset": 0,
            "slot": "8",
            "type": "t_uint32"
          },
          {
            "astId": 31797,
            "contract": "contracts/RewardsController.sol:RewardsController",
            "label": "end",
            "offset": 4,
            "slot": "8",
            "type": "t_uint32"
          },
          {
            "astId": 31799,
            "contract": "contracts/RewardsController.sol:RewardsController",
            "label": "lastUpdate",
            "offset": 8,
            "slot": "8",
            "type": "t_uint32"
          },
          {
            "astId": 31801,
            "contract": "contracts/RewardsController.sol:RewardsController",
            "label": "lastConfig",
            "offset": 12,
            "slot": "8",
            "type": "t_uint32"
          },
          {
            "astId": 31803,
            "contract": "contracts/RewardsController.sol:RewardsController",
            "label": "lastConfigReleased",
            "offset": 0,
            "slot": "9",
            "type": "t_uint256"
          },
          {
            "astId": 31806,
            "contract": "contracts/RewardsController.sol:RewardsController",
            "label": "priceFeed",
            "offset": 0,
            "slot": "10",
            "type": "t_contract(IPriceFeed)47259"
          },
          {
            "astId": 31813,
            "contract": "contracts/RewardsController.sol:RewardsController",
            "label": "accounts",
            "offset": 0,
            "slot": "11",
            "type": "t_mapping(t_address,t_mapping(t_bool,t_struct(Account)31735_storage))"
          }
        ],
        "numberOfBytes": "384"
      },
      "t_struct(RoleData)23_storage": {
        "encoding": "inplace",
        "label": "struct AccessControlUpgradeable.RoleData",
        "members": [
          {
            "astId": 20,
            "contract": "contracts/RewardsController.sol:RewardsController",
            "label": "members",
            "offset": 0,
            "slot": "0",
            "type": "t_mapping(t_address,t_bool)"
          },
          {
            "astId": 22,
            "contract": "contracts/RewardsController.sol:RewardsController",
            "label": "adminRole",
            "offset": 0,
            "slot": "1",
            "type": "t_bytes32"
          }
        ],
        "numberOfBytes": "64"
      },
      "t_uint128": {
        "encoding": "inplace",
        "label": "uint128",
        "numberOfBytes": "16"
      },
      "t_uint256": {
        "encoding": "inplace",
        "label": "uint256",
        "numberOfBytes": "32"
      },
      "t_uint32": {
        "encoding": "inplace",
        "label": "uint32",
        "numberOfBytes": "4"
      },
      "t_uint64": {
        "encoding": "inplace",
        "label": "uint64",
        "numberOfBytes": "8"
      },
      "t_uint8": {
        "encoding": "inplace",
        "label": "uint8",
        "numberOfBytes": "1"
      }
    }
  }
}