{
  "address": "0x33c69e5c0a7A2BAD42D178eC11b881aCDbE682a1",
  "abi": [
    {
      "inputs": [],
      "stateMutability": "nonpayable",
      "type": "constructor"
    },
    {
      "inputs": [],
      "name": "AccessControlBadConfirmation",
      "type": "error"
    },
    {
      "inputs": [
        {
          "internalType": "address",
          "name": "account",
          "type": "address"
        },
        {
          "internalType": "bytes32",
          "name": "neededRole",
          "type": "bytes32"
        }
      ],
      "name": "AccessControlUnauthorizedAccount",
      "type": "error"
    },
    {
      "inputs": [
        {
          "internalType": "address",
          "name": "target",
          "type": "address"
        }
      ],
      "name": "AddressEmptyCode",
      "type": "error"
    },
    {
      "inputs": [
        {
          "internalType": "address",
          "name": "account",
          "type": "address"
        }
      ],
      "name": "AddressInsufficientBalance",
      "type": "error"
    },
    {
      "inputs": [],
      "name": "AlreadyEnabled",
      "type": "error"
    },
    {
      "inputs": [],
      "name": "ECDSAInvalidSignature",
      "type": "error"
    },
    {
      "inputs": [
        {
          "internalType": "uint256",
          "name": "length",
          "type": "uint256"
        }
      ],
      "name": "ECDSAInvalidSignatureLength",
      "type": "error"
    },
    {
      "inputs": [
        {
          "internalType": "bytes32",
          "name": "s",
          "type": "bytes32"
        }
      ],
      "name": "ECDSAInvalidSignatureS",
      "type": "error"
    },
    {
      "inputs": [
        {
          "internalType": "address",
          "name": "spender",
          "type": "address"
        },
        {
          "internalType": "uint256",
          "name": "allowance",
          "type": "uint256"
        },
        {
          "internalType": "uint256",
          "name": "needed",
          "type": "uint256"
        }
      ],
      "name": "ERC20InsufficientAllowance",
      "type": "error"
    },
    {
      "inputs": [
        {
          "internalType": "address",
          "name": "sender",
          "type": "address"
        },
        {
          "internalType": "uint256",
          "name": "balance",
          "type": "uint256"
        },
        {
          "internalType": "uint256",
          "name": "needed",
          "type": "uint256"
        }
      ],
      "name": "ERC20InsufficientBalance",
      "type": "error"
    },
    {
      "inputs": [
        {
          "internalType": "address",
          "name": "approver",
          "type": "address"
        }
      ],
      "name": "ERC20InvalidApprover",
      "type": "error"
    },
    {
      "inputs": [
        {
          "internalType": "address",
          "name": "receiver",
          "type": "address"
        }
      ],
      "name": "ERC20InvalidReceiver",
      "type": "error"
    },
    {
      "inputs": [
        {
          "internalType": "address",
          "name": "sender",
          "type": "address"
        }
      ],
      "name": "ERC20InvalidSender",
      "type": "error"
    },
    {
      "inputs": [
        {
          "internalType": "address",
          "name": "spender",
          "type": "address"
        }
      ],
      "name": "ERC20InvalidSpender",
      "type": "error"
    },
    {
      "inputs": [
        {
          "internalType": "uint256",
          "name": "deadline",
          "type": "uint256"
        }
      ],
      "name": "ERC2612ExpiredSignature",
      "type": "error"
    },
    {
      "inputs": [
        {
          "internalType": "address",
          "name": "signer",
          "type": "address"
        },
        {
          "internalType": "address",
          "name": "owner",
          "type": "address"
        }
      ],
      "name": "ERC2612InvalidSigner",
      "type": "error"
    },
    {
      "inputs": [
        {
          "internalType": "address",
          "name": "receiver",
          "type": "address"
        },
        {
          "internalType": "uint256",
          "name": "assets",
          "type": "uint256"
        },
        {
          "internalType": "uint256",
          "name": "max",
          "type": "uint256"
        }
      ],
      "name": "ERC4626ExceededMaxDeposit",
      "type": "error"
    },
    {
      "inputs": [
        {
          "internalType": "address",
          "name": "receiver",
          "type": "address"
        },
        {
          "internalType": "uint256",
          "name": "shares",
          "type": "uint256"
        },
        {
          "internalType": "uint256",
          "name": "max",
          "type": "uint256"
        }
      ],
      "name": "ERC4626ExceededMaxMint",
      "type": "error"
    },
    {
      "inputs": [
        {
          "internalType": "address",
          "name": "owner",
          "type": "address"
        },
        {
          "internalType": "uint256",
          "name": "shares",
          "type": "uint256"
        },
        {
          "internalType": "uint256",
          "name": "max",
          "type": "uint256"
        }
      ],
      "name": "ERC4626ExceededMaxRedeem",
      "type": "error"
    },
    {
      "inputs": [
        {
          "internalType": "address",
          "name": "owner",
          "type": "address"
        },
        {
          "internalType": "uint256",
          "name": "assets",
          "type": "uint256"
        },
        {
          "internalType": "uint256",
          "name": "max",
          "type": "uint256"
        }
      ],
      "name": "ERC4626ExceededMaxWithdraw",
      "type": "error"
    },
    {
      "inputs": [],
      "name": "EnforcedPause",
      "type": "error"
    },
    {
      "inputs": [],
      "name": "ExpectedPause",
      "type": "error"
    },
    {
      "inputs": [],
      "name": "FailedInnerCall",
      "type": "error"
    },
    {
      "inputs": [],
      "name": "InsufficientBalance",
      "type": "error"
    },
    {
      "inputs": [
        {
          "internalType": "address",
          "name": "account",
          "type": "address"
        },
        {
          "internalType": "uint256",
          "name": "currentNonce",
          "type": "uint256"
        }
      ],
      "name": "InvalidAccountNonce",
      "type": "error"
    },
    {
      "inputs": [],
      "name": "InvalidInitialization",
      "type": "error"
    },
    {
      "inputs": [],
      "name": "InvalidRange",
      "type": "error"
    },
    {
      "inputs": [],
      "name": "InvalidRatio",
      "type": "error"
    },
    {
      "inputs": [],
      "name": "MathOverflowedMulDiv",
      "type": "error"
    },
    {
      "inputs": [],
      "name": "MaxRewardsTokensExceeded",
      "type": "error"
    },
    {
      "inputs": [],
      "name": "NotAllowed",
      "type": "error"
    },
    {
      "inputs": [],
      "name": "NotFinished",
      "type": "error"
    },
    {
      "inputs": [],
      "name": "NotInitializing",
      "type": "error"
    },
    {
      "inputs": [],
      "name": "NotPausingRole",
      "type": "error"
    },
    {
      "inputs": [],
      "name": "RewardNotListed",
      "type": "error"
    },
    {
      "inputs": [
        {
          "internalType": "address",
          "name": "token",
          "type": "address"
        }
      ],
      "name": "SafeERC20FailedOperation",
      "type": "error"
    },
    {
      "inputs": [],
      "name": "Untransferable",
      "type": "error"
    },
    {
      "inputs": [],
      "name": "ZeroAddress",
      "type": "error"
    },
    {
      "inputs": [],
      "name": "ZeroAmount",
      "type": "error"
    },
    {
      "inputs": [],
      "name": "ZeroRate",
      "type": "error"
    },
    {
      "anonymous": false,
      "inputs": [
        {
          "indexed": true,
          "internalType": "address",
          "name": "owner",
          "type": "address"
        },
        {
          "indexed": true,
          "internalType": "address",
          "name": "spender",
          "type": "address"
        },
        {
          "indexed": false,
          "internalType": "uint256",
          "name": "value",
          "type": "uint256"
        }
      ],
      "name": "Approval",
      "type": "event"
    },
    {
      "anonymous": false,
      "inputs": [
        {
          "indexed": true,
          "internalType": "address",
          "name": "sender",
          "type": "address"
        },
        {
          "indexed": true,
          "internalType": "address",
          "name": "owner",
          "type": "address"
        },
        {
          "indexed": false,
          "internalType": "uint256",
          "name": "assets",
          "type": "uint256"
        },
        {
          "indexed": false,
          "internalType": "uint256",
          "name": "shares",
          "type": "uint256"
        }
      ],
      "name": "Deposit",
      "type": "event"
    },
    {
      "anonymous": false,
      "inputs": [
        {
          "indexed": true,
          "internalType": "contract IERC20",
          "name": "reward",
          "type": "address"
        },
        {
          "indexed": true,
          "internalType": "address",
          "name": "account",
          "type": "address"
        }
      ],
      "name": "DistributionFinished",
      "type": "event"
    },
    {
      "anonymous": false,
      "inputs": [],
      "name": "EIP712DomainChanged",
      "type": "event"
    },
    {
      "anonymous": false,
      "inputs": [
        {
          "indexed": false,
          "internalType": "uint64",
          "name": "version",
          "type": "uint64"
        }
      ],
      "name": "Initialized",
      "type": "event"
    },
    {
      "anonymous": false,
      "inputs": [
        {
          "indexed": true,
          "internalType": "contract Market",
          "name": "market",
          "type": "address"
        },
        {
          "indexed": true,
          "internalType": "address",
          "name": "account",
          "type": "address"
        }
      ],
      "name": "MarketSet",
      "type": "event"
    },
    {
      "anonymous": false,
      "inputs": [
        {
          "indexed": false,
          "internalType": "uint256",
          "name": "minTime",
          "type": "uint256"
        },
        {
          "indexed": true,
          "internalType": "address",
          "name": "account",
          "type": "address"
        }
      ],
      "name": "MinTimeSet",
      "type": "event"
    },
    {
      "anonymous": false,
      "inputs": [
        {
          "indexed": false,
          "internalType": "address",
          "name": "account",
          "type": "address"
        }
      ],
      "name": "Paused",
      "type": "event"
    },
    {
      "anonymous": false,
      "inputs": [
        {
          "indexed": false,
          "internalType": "uint256",
          "name": "penaltyGrowth",
          "type": "uint256"
        },
        {
          "indexed": true,
          "internalType": "address",
          "name": "account",
          "type": "address"
        }
      ],
      "name": "PenaltyGrowthSet",
      "type": "event"
    },
    {
      "anonymous": false,
      "inputs": [
        {
          "indexed": false,
          "internalType": "uint256",
          "name": "penaltyThreshold",
          "type": "uint256"
        },
        {
          "indexed": true,
          "internalType": "address",
          "name": "account",
          "type": "address"
        }
      ],
      "name": "PenaltyThresholdSet",
      "type": "event"
    },
    {
      "anonymous": false,
      "inputs": [
        {
          "indexed": false,
          "internalType": "uint256",
          "name": "providerRatio",
          "type": "uint256"
        },
        {
          "indexed": true,
          "internalType": "address",
          "name": "account",
          "type": "address"
        }
      ],
      "name": "ProviderRatioSet",
      "type": "event"
    },
    {
      "anonymous": false,
      "inputs": [
        {
          "indexed": true,
          "internalType": "address",
          "name": "provider",
          "type": "address"
        },
        {
          "indexed": true,
          "internalType": "address",
          "name": "account",
          "type": "address"
        }
      ],
      "name": "ProviderSet",
      "type": "event"
    },
    {
      "anonymous": false,
      "inputs": [
        {
          "indexed": false,
          "internalType": "uint256",
          "name": "refTime",
          "type": "uint256"
        },
        {
          "indexed": true,
          "internalType": "address",
          "name": "account",
          "type": "address"
        }
      ],
      "name": "RefTimeSet",
      "type": "event"
    },
    {
      "anonymous": false,
      "inputs": [
        {
          "indexed": true,
          "internalType": "contract IERC20",
          "name": "reward",
          "type": "address"
        },
        {
          "indexed": true,
          "internalType": "address",
          "name": "notifier",
          "type": "address"
        },
        {
          "indexed": false,
          "internalType": "uint256",
          "name": "amount",
          "type": "uint256"
        }
      ],
      "name": "RewardAmountNotified",
      "type": "event"
    },
    {
      "anonymous": false,
      "inputs": [
        {
          "indexed": true,
          "internalType": "contract IERC20",
          "name": "reward",
          "type": "address"
        },
        {
          "indexed": true,
          "internalType": "address",
          "name": "account",
          "type": "address"
        }
      ],
      "name": "RewardListed",
      "type": "event"
    },
    {
      "anonymous": false,
      "inputs": [
        {
          "indexed": true,
          "internalType": "contract IERC20",
          "name": "reward",
          "type": "address"
        },
        {
          "indexed": true,
          "internalType": "address",
          "name": "account",
          "type": "address"
        },
        {
          "indexed": false,
          "internalType": "uint256",
          "name": "amount",
          "type": "uint256"
        }
      ],
      "name": "RewardPaid",
      "type": "event"
    },
    {
      "anonymous": false,
      "inputs": [
        {
          "indexed": true,
          "internalType": "contract IERC20",
          "name": "reward",
          "type": "address"
        },
        {
          "indexed": true,
          "internalType": "address",
          "name": "account",
          "type": "address"
        },
        {
          "indexed": false,
          "internalType": "uint256",
          "name": "duration",
          "type": "uint256"
        }
      ],
      "name": "RewardsDurationSet",
      "type": "event"
    },
    {
      "anonymous": false,
      "inputs": [
        {
          "indexed": true,
          "internalType": "address",
          "name": "account",
          "type": "address"
        },
        {
          "indexed": true,
          "internalType": "address",
          "name": "receiver",
          "type": "address"
        },
        {
          "indexed": true,
          "internalType": "contract IERC20",
          "name": "reward",
          "type": "address"
        },
        {
          "indexed": false,
          "internalType": "uint256",
          "name": "amount",
          "type": "uint256"
        }
      ],
      "name": "RewardsWithdrawn",
      "type": "event"
    },
    {
      "anonymous": false,
      "inputs": [
        {
          "indexed": true,
          "internalType": "bytes32",
          "name": "role",
          "type": "bytes32"
        },
        {
          "indexed": true,
          "internalType": "bytes32",
          "name": "previousAdminRole",
          "type": "bytes32"
        },
        {
          "indexed": true,
          "internalType": "bytes32",
          "name": "newAdminRole",
          "type": "bytes32"
        }
      ],
      "name": "RoleAdminChanged",
      "type": "event"
    },
    {
      "anonymous": false,
      "inputs": [
        {
          "indexed": true,
          "internalType": "bytes32",
          "name": "role",
          "type": "bytes32"
        },
        {
          "indexed": true,
          "internalType": "address",
          "name": "account",
          "type": "address"
        },
        {
          "indexed": true,
          "internalType": "address",
          "name": "sender",
          "type": "address"
        }
      ],
      "name": "RoleGranted",
      "type": "event"
    },
    {
      "anonymous": false,
      "inputs": [
        {
          "indexed": true,
          "internalType": "bytes32",
          "name": "role",
          "type": "bytes32"
        },
        {
          "indexed": true,
          "internalType": "address",
          "name": "account",
          "type": "address"
        },
        {
          "indexed": true,
          "internalType": "address",
          "name": "sender",
          "type": "address"
        }
      ],
      "name": "RoleRevoked",
      "type": "event"
    },
    {
      "anonymous": false,
      "inputs": [
        {
          "indexed": true,
          "internalType": "address",
          "name": "savings",
          "type": "address"
        },
        {
          "indexed": true,
          "internalType": "address",
          "name": "account",
          "type": "address"
        }
      ],
      "name": "SavingsSet",
      "type": "event"
    },
    {
      "anonymous": false,
      "inputs": [
        {
          "indexed": true,
          "internalType": "address",
          "name": "from",
          "type": "address"
        },
        {
          "indexed": true,
          "internalType": "address",
          "name": "to",
          "type": "address"
        },
        {
          "indexed": false,
          "internalType": "uint256",
          "name": "value",
          "type": "uint256"
        }
      ],
      "name": "Transfer",
      "type": "event"
    },
    {
      "anonymous": false,
      "inputs": [
        {
          "indexed": false,
          "internalType": "address",
          "name": "account",
          "type": "address"
        }
      ],
      "name": "Unpaused",
      "type": "event"
    },
    {
      "anonymous": false,
      "inputs": [
        {
          "indexed": true,
          "internalType": "address",
          "name": "sender",
          "type": "address"
        },
        {
          "indexed": true,
          "internalType": "address",
          "name": "receiver",
          "type": "address"
        },
        {
          "indexed": true,
          "internalType": "address",
          "name": "owner",
          "type": "address"
        },
        {
          "indexed": false,
          "internalType": "uint256",
          "name": "assets",
          "type": "uint256"
        },
        {
          "indexed": false,
          "internalType": "uint256",
          "name": "shares",
          "type": "uint256"
        }
      ],
      "name": "Withdraw",
      "type": "event"
    },
    {
      "inputs": [],
      "name": "CLOCK_MODE",
      "outputs": [
        {
          "internalType": "string",
          "name": "",
          "type": "string"
        }
      ],
      "stateMutability": "pure",
      "type": "function"
    },
    {
      "inputs": [],
      "name": "DEFAULT_ADMIN_ROLE",
      "outputs": [
        {
          "internalType": "bytes32",
          "name": "",
          "type": "bytes32"
        }
      ],
      "stateMutability": "view",
      "type": "function"
    },
    {
      "inputs": [],
      "name": "DOMAIN_SEPARATOR",
      "outputs": [
        {
          "internalType": "bytes32",
          "name": "",
          "type": "bytes32"
        }
      ],
      "stateMutability": "view",
      "type": "function"
    },
    {
      "inputs": [],
      "name": "EMERGENCY_ADMIN_ROLE",
      "outputs": [
        {
          "internalType": "bytes32",
          "name": "",
          "type": "bytes32"
        }
      ],
      "stateMutability": "view",
      "type": "function"
    },
    {
      "inputs": [],
      "name": "MAX_REWARDS_TOKENS",
      "outputs": [
        {
          "internalType": "uint256",
          "name": "",
          "type": "uint256"
        }
      ],
      "stateMutability": "view",
      "type": "function"
    },
    {
      "inputs": [],
      "name": "PAUSER_ROLE",
      "outputs": [
        {
          "internalType": "bytes32",
          "name": "",
          "type": "bytes32"
        }
      ],
      "stateMutability": "view",
      "type": "function"
    },
    {
      "inputs": [],
      "name": "allRewardsTokens",
      "outputs": [
        {
          "internalType": "contract IERC20[]",
          "name": "",
          "type": "address[]"
        }
      ],
      "stateMutability": "view",
      "type": "function"
    },
    {
      "inputs": [
        {
          "internalType": "address",
          "name": "owner",
          "type": "address"
        },
        {
          "internalType": "address",
          "name": "spender",
          "type": "address"
        }
      ],
      "name": "allowance",
      "outputs": [
        {
          "internalType": "uint256",
          "name": "",
          "type": "uint256"
        }
      ],
      "stateMutability": "view",
      "type": "function"
    },
    {
      "inputs": [
        {
          "internalType": "address",
          "name": "spender",
          "type": "address"
        },
        {
          "internalType": "uint256",
          "name": "value",
          "type": "uint256"
        }
      ],
      "name": "approve",
      "outputs": [
        {
          "internalType": "bool",
          "name": "",
          "type": "bool"
        }
      ],
      "stateMutability": "nonpayable",
      "type": "function"
    },
    {
      "inputs": [],
      "name": "asset",
      "outputs": [
        {
          "internalType": "address",
          "name": "",
          "type": "address"
        }
      ],
      "stateMutability": "view",
      "type": "function"
    },
    {
      "inputs": [
        {
          "internalType": "contract IERC20",
          "name": "reward",
          "type": "address"
        },
        {
          "internalType": "address",
          "name": "account",
          "type": "address"
        }
      ],
      "name": "avgIndex",
      "outputs": [
        {
          "internalType": "uint256",
          "name": "",
          "type": "uint256"
        }
      ],
      "stateMutability": "view",
      "type": "function"
    },
    {
      "inputs": [
        {
          "internalType": "address",
          "name": "account",
          "type": "address"
        },
        {
          "internalType": "contract IERC20",
          "name": "reward",
          "type": "address"
        }
      ],
      "name": "avgIndexes",
      "outputs": [
        {
          "internalType": "uint256",
          "name": "index",
          "type": "uint256"
        }
      ],
      "stateMutability": "view",
      "type": "function"
    },
    {
      "inputs": [
        {
          "internalType": "address",
          "name": "account",
          "type": "address"
        }
      ],
      "name": "avgStart",
      "outputs": [
        {
          "internalType": "uint256",
          "name": "time",
          "type": "uint256"
        }
      ],
      "stateMutability": "view",
      "type": "function"
    },
    {
      "inputs": [
        {
          "internalType": "address",
          "name": "account",
          "type": "address"
        }
      ],
      "name": "balanceOf",
      "outputs": [
        {
          "internalType": "uint256",
          "name": "",
          "type": "uint256"
        }
      ],
      "stateMutability": "view",
      "type": "function"
    },
    {
      "inputs": [
        {
          "internalType": "contract IERC20",
          "name": "reward",
          "type": "address"
        }
      ],
      "name": "claim",
      "outputs": [],
      "stateMutability": "nonpayable",
      "type": "function"
    },
    {
      "inputs": [],
      "name": "claimAll",
      "outputs": [],
      "stateMutability": "nonpayable",
      "type": "function"
    },
    {
      "inputs": [
        {
          "internalType": "contract IERC20",
          "name": "reward",
          "type": "address"
        },
        {
          "internalType": "address",
          "name": "account",
          "type": "address"
        },
        {
          "internalType": "uint256",
          "name": "shares",
          "type": "uint256"
        }
      ],
      "name": "claimable",
      "outputs": [
        {
          "internalType": "uint256",
          "name": "",
          "type": "uint256"
        }
      ],
      "stateMutability": "view",
      "type": "function"
    },
    {
      "inputs": [
        {
          "internalType": "address",
          "name": "account",
          "type": "address"
        },
        {
          "internalType": "contract IERC20",
          "name": "reward",
          "type": "address"
        }
      ],
      "name": "claimed",
      "outputs": [
        {
          "internalType": "uint256",
          "name": "claimed",
          "type": "uint256"
        }
      ],
      "stateMutability": "view",
      "type": "function"
    },
    {
      "inputs": [],
      "name": "clock",
      "outputs": [
        {
          "internalType": "uint48",
          "name": "",
          "type": "uint48"
        }
      ],
      "stateMutability": "view",
      "type": "function"
    },
    {
      "inputs": [
        {
          "internalType": "uint256",
          "name": "shares",
          "type": "uint256"
        }
      ],
      "name": "convertToAssets",
      "outputs": [
        {
          "internalType": "uint256",
          "name": "",
          "type": "uint256"
        }
      ],
      "stateMutability": "view",
      "type": "function"
    },
    {
      "inputs": [
        {
          "internalType": "uint256",
          "name": "assets",
          "type": "uint256"
        }
      ],
      "name": "convertToShares",
      "outputs": [
        {
          "internalType": "uint256",
          "name": "",
          "type": "uint256"
        }
      ],
      "stateMutability": "view",
      "type": "function"
    },
    {
      "inputs": [],
      "name": "decimals",
      "outputs": [
        {
          "internalType": "uint8",
          "name": "",
          "type": "uint8"
        }
      ],
      "stateMutability": "view",
      "type": "function"
    },
    {
      "inputs": [
        {
          "internalType": "uint256",
          "name": "assets",
          "type": "uint256"
        },
        {
          "internalType": "address",
          "name": "receiver",
          "type": "address"
        }
      ],
      "name": "deposit",
      "outputs": [
        {
          "internalType": "uint256",
          "name": "",
          "type": "uint256"
        }
      ],
      "stateMutability": "nonpayable",
      "type": "function"
    },
    {
      "inputs": [
        {
          "internalType": "contract IERC20",
          "name": "reward",
          "type": "address"
        },
        {
          "internalType": "address",
          "name": "account",
          "type": "address"
        },
        {
          "internalType": "uint256",
          "name": "shares",
          "type": "uint256"
        }
      ],
      "name": "earned",
      "outputs": [
        {
          "internalType": "uint256",
          "name": "",
          "type": "uint256"
        }
      ],
      "stateMutability": "view",
      "type": "function"
    },
    {
      "inputs": [],
      "name": "eip712Domain",
      "outputs": [
        {
          "internalType": "bytes1",
          "name": "fields",
          "type": "bytes1"
        },
        {
          "internalType": "string",
          "name": "name",
          "type": "string"
        },
        {
          "internalType": "string",
          "name": "version",
          "type": "string"
        },
        {
          "internalType": "uint256",
          "name": "chainId",
          "type": "uint256"
        },
        {
          "internalType": "address",
          "name": "verifyingContract",
          "type": "address"
        },
        {
          "internalType": "bytes32",
          "name": "salt",
          "type": "bytes32"
        },
        {
          "internalType": "uint256[]",
          "name": "extensions",
          "type": "uint256[]"
        }
      ],
      "stateMutability": "view",
      "type": "function"
    },
    {
      "inputs": [
        {
          "internalType": "contract IERC20",
          "name": "reward",
          "type": "address"
        }
      ],
      "name": "enableReward",
      "outputs": [],
      "stateMutability": "nonpayable",
      "type": "function"
    },
    {
      "inputs": [],
      "name": "excessFactor",
      "outputs": [
        {
          "internalType": "uint256",
          "name": "",
          "type": "uint256"
        }
      ],
      "stateMutability": "view",
      "type": "function"
    },
    {
      "inputs": [
        {
          "internalType": "contract IERC20",
          "name": "reward",
          "type": "address"
        }
      ],
      "name": "finishDistribution",
      "outputs": [],
      "stateMutability": "nonpayable",
      "type": "function"
    },
    {
      "inputs": [
        {
          "internalType": "bytes32",
          "name": "role",
          "type": "bytes32"
        }
      ],
      "name": "getRoleAdmin",
      "outputs": [
        {
          "internalType": "bytes32",
          "name": "",
          "type": "bytes32"
        }
      ],
      "stateMutability": "view",
      "type": "function"
    },
    {
      "inputs": [
        {
          "internalType": "contract IERC20",
          "name": "reward",
          "type": "address"
        }
      ],
      "name": "globalIndex",
      "outputs": [
        {
          "internalType": "uint256",
          "name": "",
          "type": "uint256"
        }
      ],
      "stateMutability": "view",
      "type": "function"
    },
    {
      "inputs": [
        {
          "internalType": "bytes32",
          "name": "role",
          "type": "bytes32"
        },
        {
          "internalType": "address",
          "name": "account",
          "type": "address"
        }
      ],
      "name": "grantRole",
      "outputs": [],
      "stateMutability": "nonpayable",
      "type": "function"
    },
    {
      "inputs": [],
      "name": "harvest",
      "outputs": [],
      "stateMutability": "nonpayable",
      "type": "function"
    },
    {
      "inputs": [
        {
          "internalType": "bytes32",
          "name": "role",
          "type": "bytes32"
        },
        {
          "internalType": "address",
          "name": "account",
          "type": "address"
        }
      ],
      "name": "hasRole",
      "outputs": [
        {
          "internalType": "bool",
          "name": "",
          "type": "bool"
        }
      ],
      "stateMutability": "view",
      "type": "function"
    },
    {
      "inputs": [
        {
          "components": [
            {
              "internalType": "contract IERC20",
              "name": "asset",
              "type": "address"
            },
            {
              "internalType": "uint256",
              "name": "minTime",
              "type": "uint256"
            },
            {
              "internalType": "uint256",
              "name": "refTime",
              "type": "uint256"
            },
            {
              "internalType": "uint256",
              "name": "excessFactor",
              "type": "uint256"
            },
            {
              "internalType": "uint256",
              "name": "penaltyGrowth",
              "type": "uint256"
            },
            {
              "internalType": "uint256",
              "name": "penaltyThreshold",
              "type": "uint256"
            },
            {
              "internalType": "contract Market",
              "name": "market",
              "type": "address"
            },
            {
              "internalType": "address",
              "name": "provider",
              "type": "address"
            },
            {
              "internalType": "address",
              "name": "savings",
              "type": "address"
            },
            {
              "internalType": "uint40",
              "name": "duration",
              "type": "uint40"
            },
            {
              "internalType": "uint256",
              "name": "providerRatio",
              "type": "uint256"
            }
          ],
          "internalType": "struct Parameters",
          "name": "p",
          "type": "tuple"
        }
      ],
      "name": "initialize",
      "outputs": [],
      "stateMutability": "nonpayable",
      "type": "function"
    },
    {
      "inputs": [
        {
          "internalType": "uint256",
          "name": "finishAt",
          "type": "uint256"
        }
      ],
      "name": "lastTimeRewardApplicable",
      "outputs": [
        {
          "internalType": "uint256",
          "name": "",
          "type": "uint256"
        }
      ],
      "stateMutability": "view",
      "type": "function"
    },
    {
      "inputs": [],
      "name": "market",
      "outputs": [
        {
          "internalType": "contract Market",
          "name": "",
          "type": "address"
        }
      ],
      "stateMutability": "view",
      "type": "function"
    },
    {
      "inputs": [
        {
          "internalType": "address",
          "name": "",
          "type": "address"
        }
      ],
      "name": "maxDeposit",
      "outputs": [
        {
          "internalType": "uint256",
          "name": "",
          "type": "uint256"
        }
      ],
      "stateMutability": "view",
      "type": "function"
    },
    {
      "inputs": [
        {
          "internalType": "address",
          "name": "",
          "type": "address"
        }
      ],
      "name": "maxMint",
      "outputs": [
        {
          "internalType": "uint256",
          "name": "",
          "type": "uint256"
        }
      ],
      "stateMutability": "view",
      "type": "function"
    },
    {
      "inputs": [
        {
          "internalType": "address",
          "name": "owner",
          "type": "address"
        }
      ],
      "name": "maxRedeem",
      "outputs": [
        {
          "internalType": "uint256",
          "name": "",
          "type": "uint256"
        }
      ],
      "stateMutability": "view",
      "type": "function"
    },
    {
      "inputs": [
        {
          "internalType": "address",
          "name": "owner",
          "type": "address"
        }
      ],
      "name": "maxWithdraw",
      "outputs": [
        {
          "internalType": "uint256",
          "name": "",
          "type": "uint256"
        }
      ],
      "stateMutability": "view",
      "type": "function"
    },
    {
      "inputs": [],
      "name": "minTime",
      "outputs": [
        {
          "internalType": "uint256",
          "name": "",
          "type": "uint256"
        }
      ],
      "stateMutability": "view",
      "type": "function"
    },
    {
      "inputs": [
        {
          "internalType": "uint256",
          "name": "shares",
          "type": "uint256"
        },
        {
          "internalType": "address",
          "name": "receiver",
          "type": "address"
        }
      ],
      "name": "mint",
      "outputs": [
        {
          "internalType": "uint256",
          "name": "",
          "type": "uint256"
        }
      ],
      "stateMutability": "nonpayable",
      "type": "function"
    },
    {
      "inputs": [],
      "name": "name",
      "outputs": [
        {
          "internalType": "string",
          "name": "",
          "type": "string"
        }
      ],
      "stateMutability": "view",
      "type": "function"
    },
    {
      "inputs": [
        {
          "internalType": "address",
          "name": "owner",
          "type": "address"
        }
      ],
      "name": "nonces",
      "outputs": [
        {
          "internalType": "uint256",
          "name": "",
          "type": "uint256"
        }
      ],
      "stateMutability": "view",
      "type": "function"
    },
    {
      "inputs": [
        {
          "internalType": "contract IERC20",
          "name": "reward",
          "type": "address"
        },
        {
          "internalType": "uint256",
          "name": "amount",
          "type": "uint256"
        }
      ],
      "name": "notifyRewardAmount",
      "outputs": [],
      "stateMutability": "nonpayable",
      "type": "function"
    },
    {
      "inputs": [],
      "name": "pause",
      "outputs": [],
      "stateMutability": "nonpayable",
      "type": "function"
    },
    {
      "inputs": [],
      "name": "paused",
      "outputs": [
        {
          "internalType": "bool",
          "name": "",
          "type": "bool"
        }
      ],
      "stateMutability": "view",
      "type": "function"
    },
    {
      "inputs": [],
      "name": "penaltyGrowth",
      "outputs": [
        {
          "internalType": "uint256",
          "name": "",
          "type": "uint256"
        }
      ],
      "stateMutability": "view",
      "type": "function"
    },
    {
      "inputs": [],
      "name": "penaltyThreshold",
      "outputs": [
        {
          "internalType": "uint256",
          "name": "",
          "type": "uint256"
        }
      ],
      "stateMutability": "view",
      "type": "function"
    },
    {
      "inputs": [
        {
          "internalType": "address",
          "name": "owner",
          "type": "address"
        },
        {
          "internalType": "address",
          "name": "spender",
          "type": "address"
        },
        {
          "internalType": "uint256",
          "name": "value",
          "type": "uint256"
        },
        {
          "internalType": "uint256",
          "name": "deadline",
          "type": "uint256"
        },
        {
          "internalType": "uint8",
          "name": "v",
          "type": "uint8"
        },
        {
          "internalType": "bytes32",
          "name": "r",
          "type": "bytes32"
        },
        {
          "internalType": "bytes32",
          "name": "s",
          "type": "bytes32"
        }
      ],
      "name": "permit",
      "outputs": [],
      "stateMutability": "nonpayable",
      "type": "function"
    },
    {
      "inputs": [
        {
          "internalType": "uint256",
          "name": "assets",
          "type": "uint256"
        },
        {
          "internalType": "address",
          "name": "receiver",
          "type": "address"
        },
        {
          "components": [
            {
              "internalType": "uint256",
              "name": "value",
              "type": "uint256"
            },
            {
              "internalType": "uint256",
              "name": "deadline",
              "type": "uint256"
            },
            {
              "internalType": "uint8",
              "name": "v",
              "type": "uint8"
            },
            {
              "internalType": "bytes32",
              "name": "r",
              "type": "bytes32"
            },
            {
              "internalType": "bytes32",
              "name": "s",
              "type": "bytes32"
            }
          ],
          "internalType": "struct Permit",
          "name": "p",
          "type": "tuple"
        }
      ],
      "name": "permitAndDeposit",
      "outputs": [
        {
          "internalType": "uint256",
          "name": "",
          "type": "uint256"
        }
      ],
      "stateMutability": "nonpayable",
      "type": "function"
    },
    {
      "inputs": [
        {
          "internalType": "uint256",
          "name": "assets",
          "type": "uint256"
        }
      ],
      "name": "previewDeposit",
      "outputs": [
        {
          "internalType": "uint256",
          "name": "",
          "type": "uint256"
        }
      ],
      "stateMutability": "view",
      "type": "function"
    },
    {
      "inputs": [
        {
          "internalType": "uint256",
          "name": "shares",
          "type": "uint256"
        }
      ],
      "name": "previewMint",
      "outputs": [
        {
          "internalType": "uint256",
          "name": "",
          "type": "uint256"
        }
      ],
      "stateMutability": "view",
      "type": "function"
    },
    {
      "inputs": [
        {
          "internalType": "uint256",
          "name": "shares",
          "type": "uint256"
        }
      ],
      "name": "previewRedeem",
      "outputs": [
        {
          "internalType": "uint256",
          "name": "",
          "type": "uint256"
        }
      ],
      "stateMutability": "view",
      "type": "function"
    },
    {
      "inputs": [
        {
          "internalType": "uint256",
          "name": "assets",
          "type": "uint256"
        }
      ],
      "name": "previewWithdraw",
      "outputs": [
        {
          "internalType": "uint256",
          "name": "",
          "type": "uint256"
        }
      ],
      "stateMutability": "view",
      "type": "function"
    },
    {
      "inputs": [],
      "name": "provider",
      "outputs": [
        {
          "internalType": "address",
          "name": "",
          "type": "address"
        }
      ],
      "stateMutability": "view",
      "type": "function"
    },
    {
      "inputs": [],
      "name": "providerRatio",
      "outputs": [
        {
          "internalType": "uint256",
          "name": "",
          "type": "uint256"
        }
      ],
      "stateMutability": "view",
      "type": "function"
    },
    {
      "inputs": [
        {
          "internalType": "contract IERC20",
          "name": "reward",
          "type": "address"
        },
        {
          "internalType": "address",
          "name": "account",
          "type": "address"
        },
        {
          "internalType": "uint256",
          "name": "shares",
          "type": "uint256"
        }
      ],
      "name": "rawClaimable",
      "outputs": [
        {
          "internalType": "uint256",
          "name": "",
          "type": "uint256"
        }
      ],
      "stateMutability": "view",
      "type": "function"
    },
    {
      "inputs": [
        {
          "internalType": "uint256",
          "name": "shares",
          "type": "uint256"
        },
        {
          "internalType": "address",
          "name": "receiver",
          "type": "address"
        },
        {
          "internalType": "address",
          "name": "owner",
          "type": "address"
        }
      ],
      "name": "redeem",
      "outputs": [
        {
          "internalType": "uint256",
          "name": "",
          "type": "uint256"
        }
      ],
      "stateMutability": "nonpayable",
      "type": "function"
    },
    {
      "inputs": [],
      "name": "refTime",
      "outputs": [
        {
          "internalType": "uint256",
          "name": "",
          "type": "uint256"
        }
      ],
      "stateMutability": "view",
      "type": "function"
    },
    {
      "inputs": [
        {
          "internalType": "bytes32",
          "name": "role",
          "type": "bytes32"
        },
        {
          "internalType": "address",
          "name": "callerConfirmation",
          "type": "address"
        }
      ],
      "name": "renounceRole",
      "outputs": [],
      "stateMutability": "nonpayable",
      "type": "function"
    },
    {
      "inputs": [
        {
          "internalType": "bytes32",
          "name": "role",
          "type": "bytes32"
        },
        {
          "internalType": "address",
          "name": "account",
          "type": "address"
        }
      ],
      "name": "revokeRole",
      "outputs": [],
      "stateMutability": "nonpayable",
      "type": "function"
    },
    {
      "inputs": [
        {
          "internalType": "contract IERC20",
          "name": "reward",
          "type": "address"
        }
      ],
      "name": "rewards",
      "outputs": [
        {
          "internalType": "uint40",
          "name": "duration",
          "type": "uint40"
        },
        {
          "internalType": "uint40",
          "name": "finishAt",
          "type": "uint40"
        },
        {
          "internalType": "uint40",
          "name": "updatedAt",
          "type": "uint40"
        },
        {
          "internalType": "uint256",
          "name": "index",
          "type": "uint256"
        },
        {
          "internalType": "uint256",
          "name": "rate",
          "type": "uint256"
        }
      ],
      "stateMutability": "view",
      "type": "function"
    },
    {
      "inputs": [
        {
          "internalType": "uint256",
          "name": "",
          "type": "uint256"
        }
      ],
      "name": "rewardsTokens",
      "outputs": [
        {
          "internalType": "contract IERC20",
          "name": "",
          "type": "address"
        }
      ],
      "stateMutability": "view",
      "type": "function"
    },
    {
      "inputs": [
        {
          "internalType": "address",
          "name": "account",
          "type": "address"
        },
        {
          "internalType": "contract IERC20",
          "name": "reward",
          "type": "address"
        }
      ],
      "name": "saved",
      "outputs": [
        {
          "internalType": "uint256",
          "name": "saved",
          "type": "uint256"
        }
      ],
      "stateMutability": "view",
      "type": "function"
    },
    {
      "inputs": [],
      "name": "savings",
      "outputs": [
        {
          "internalType": "address",
          "name": "",
          "type": "address"
        }
      ],
      "stateMutability": "view",
      "type": "function"
    },
    {
      "inputs": [
        {
          "internalType": "contract Market",
          "name": "market_",
          "type": "address"
        }
      ],
      "name": "setMarket",
      "outputs": [],
      "stateMutability": "nonpayable",
      "type": "function"
    },
    {
      "inputs": [
        {
          "internalType": "uint256",
          "name": "minTime_",
          "type": "uint256"
        }
      ],
      "name": "setMinTime",
      "outputs": [],
      "stateMutability": "nonpayable",
      "type": "function"
    },
    {
      "inputs": [
        {
          "internalType": "uint256",
          "name": "penaltyGrowth_",
          "type": "uint256"
        }
      ],
      "name": "setPenaltyGrowth",
      "outputs": [],
      "stateMutability": "nonpayable",
      "type": "function"
    },
    {
      "inputs": [
        {
          "internalType": "uint256",
          "name": "penaltyThreshold_",
          "type": "uint256"
        }
      ],
      "name": "setPenaltyThreshold",
      "outputs": [],
      "stateMutability": "nonpayable",
      "type": "function"
    },
    {
      "inputs": [
        {
          "internalType": "address",
          "name": "provider_",
          "type": "address"
        }
      ],
      "name": "setProvider",
      "outputs": [],
      "stateMutability": "nonpayable",
      "type": "function"
    },
    {
      "inputs": [
        {
          "internalType": "uint256",
          "name": "providerRatio_",
          "type": "uint256"
        }
      ],
      "name": "setProviderRatio",
      "outputs": [],
      "stateMutability": "nonpayable",
      "type": "function"
    },
    {
      "inputs": [
        {
          "internalType": "contract IERC20",
          "name": "reward",
          "type": "address"
        },
        {
          "internalType": "uint40",
          "name": "duration",
          "type": "uint40"
        }
      ],
      "name": "setRewardsDuration",
      "outputs": [],
      "stateMutability": "nonpayable",
      "type": "function"
    },
    {
      "inputs": [
        {
          "internalType": "address",
          "name": "savings_",
          "type": "address"
        }
      ],
      "name": "setSavings",
      "outputs": [],
      "stateMutability": "nonpayable",
      "type": "function"
    },
    {
      "inputs": [
        {
          "internalType": "bytes4",
          "name": "interfaceId",
          "type": "bytes4"
        }
      ],
      "name": "supportsInterface",
      "outputs": [
        {
          "internalType": "bool",
          "name": "",
          "type": "bool"
        }
      ],
      "stateMutability": "view",
      "type": "function"
    },
    {
      "inputs": [],
      "name": "symbol",
      "outputs": [
        {
          "internalType": "string",
          "name": "",
          "type": "string"
        }
      ],
      "stateMutability": "view",
      "type": "function"
    },
    {
      "inputs": [],
      "name": "totalAssets",
      "outputs": [
        {
          "internalType": "uint256",
          "name": "",
          "type": "uint256"
        }
      ],
      "stateMutability": "view",
      "type": "function"
    },
    {
      "inputs": [],
      "name": "totalSupply",
      "outputs": [
        {
          "internalType": "uint256",
          "name": "",
          "type": "uint256"
        }
      ],
      "stateMutability": "view",
      "type": "function"
    },
    {
      "inputs": [
        {
          "internalType": "address",
          "name": "to",
          "type": "address"
        },
        {
          "internalType": "uint256",
          "name": "value",
          "type": "uint256"
        }
      ],
      "name": "transfer",
      "outputs": [
        {
          "internalType": "bool",
          "name": "",
          "type": "bool"
        }
      ],
      "stateMutability": "nonpayable",
      "type": "function"
    },
    {
      "inputs": [
        {
          "internalType": "address",
          "name": "from",
          "type": "address"
        },
        {
          "internalType": "address",
          "name": "to",
          "type": "address"
        },
        {
          "internalType": "uint256",
          "name": "value",
          "type": "uint256"
        }
      ],
      "name": "transferFrom",
      "outputs": [
        {
          "internalType": "bool",
          "name": "",
          "type": "bool"
        }
      ],
      "stateMutability": "nonpayable",
      "type": "function"
    },
    {
      "inputs": [],
      "name": "unpause",
      "outputs": [],
      "stateMutability": "nonpayable",
      "type": "function"
    },
    {
      "inputs": [
        {
          "internalType": "uint256",
          "name": "assets",
          "type": "uint256"
        },
        {
          "internalType": "address",
          "name": "receiver",
          "type": "address"
        },
        {
          "internalType": "address",
          "name": "owner",
          "type": "address"
        }
      ],
      "name": "withdraw",
      "outputs": [
        {
          "internalType": "uint256",
          "name": "",
          "type": "uint256"
        }
      ],
      "stateMutability": "nonpayable",
      "type": "function"
    },
    {
      "inputs": [
        {
          "internalType": "contract IERC20",
          "name": "reward",
          "type": "address"
        },
        {
          "internalType": "uint256",
          "name": "amount",
          "type": "uint256"
        }
      ],
      "name": "withdrawRewards",
      "outputs": [],
      "stateMutability": "nonpayable",
      "type": "function"
    }
  ],
  "transactionHash": "0x9e99f1944f4abe682c10a5ba6eb691c05163cc2f63fdc80a67b48cc736241707",
  "args": [],
  "numDeployments": 1,
  "solcInputHash": "6a557ee70d62b80968609ef7922ee609",
  "bytecode": "0x6080604052348015600e575f80fd5b5060156019565b60c9565b7ff0c57e16840df040f15088dc2f81fe391c3923bec73e23a9662efc9c229c6a00805468010000000000000000900460ff161560685760405163f92ee8a960e01b815260040160405180910390fd5b80546001600160401b039081161460c65780546001600160401b0319166001600160401b0390811782556040519081527fc7f505b2f371ae2175ee4913f4499e1f2633a7b5936321eed1cdaeb6115181d29060200160405180910390a15b50565b615650806100d65f395ff3fe608060405234801561000f575f80fd5b5060043610610580575f3560e01c80638456cb59116102db578063c483021011610187578063d547741f116100e8578063e63ab1e91161009e578063f2be153611610079578063f2be153614610d1d578063f804a99014610d3c578063f8d7eb9e14610d4f575f80fd5b8063e63ab1e914610ce3578063eeca156214610d0a578063ef8b30f714610ba6575f80fd5b8063d8d5eaf4116100ce578063d8d5eaf414610c4f578063d905777e14610c79578063dd62ed3e14610c8c575f80fd5b8063d547741f14610c29578063d6ef7af014610c3c575f80fd5b8063ce96cb771161013d578063d1058e5911610123578063d1058e5914610bfb578063d19fb4fb14610c03578063d505accf14610c16575f80fd5b8063ce96cb7714610bd5578063cfd8d6c014610be8575f80fd5b8063c6e6f5921161016d578063c6e6f59214610ba6578063c86d6ae414610bb9578063c91e514914610bcc575f80fd5b8063c483021014610b9e578063c63d75b614610867575f80fd5b8063a9059cbb1161023c578063b460af94116101f2578063b6d0dcd8116101cd578063b6d0dcd814610b65578063b81ff16114610b78578063ba08765214610b8b575f80fd5b8063b460af9414610b36578063b66503cf14610b49578063b674852814610b5c575f80fd5b8063ab9ade5511610222578063ab9ade5514610b07578063afe7d3b414610b1a578063b3d7f6b914610b23575f80fd5b8063a9059cbb14610ae1578063aa5e933414610af4575f80fd5b806393f89a801161029157806395d89b411161027757806395d89b4114610abd578063a119dd9214610ac5578063a217fddf14610ada575f80fd5b806393f89a8014610a9757806394bf804d14610aaa575f80fd5b80638cc59a0a116102c15780638cc59a0a14610a2157806391d1485414610a2a57806391ddadf414610a81575f80fd5b80638456cb59146109fe57806384b0196e14610a06575f80fd5b806336568abe1161043a5780635bae7f1b1161039b5780636e76fc8f1161035157806373c8b51f1161032c57806373c8b51f146109c55780637ecebe00146109d857806380f55605146109eb575f80fd5b80636e76fc8f146109615780636e9bf17f1461098857806370a08231146109b2575f80fd5b80636dcea85f116103815780636dcea85f146109285780636e553f651461093b5780636e5c4c781461094e575f80fd5b80635bae7f1b146108c55780635c975abb146108fe575f80fd5b8063402d267d116103f05780634bf5d7e9116103d65780634bf5d7e9146108835780634cdad506146106615780634fcb7d31146108bc575f80fd5b8063402d267d146108675780634641257d1461087b575f80fd5b80633d31410c116104205780633d31410c146108395780633ee07ffb1461084c5780633f4ba83a1461085f575f80fd5b806336568abe146107f657806338d52e0f14610809575f80fd5b80631003f1a9116104e457806323b872dd1161049a5780632f2ff15d116104805780632f2ff15d146107c1578063313ce567146107d45780633644e515146107ee575f80fd5b806323b872dd1461076d578063248a9ca314610780575f80fd5b806318160ddd116104ca57806318160ddd1461072a5780631aa43078146107515780631e83409a1461075a575f80fd5b80631003f1a91461070257806314bc823714610717575f80fd5b8063085d4883116105395780630a28a4771161051f5780630a28a477146106b25780630bf0fc82146106c55780630c9cbf0e146106d8575f80fd5b8063085d488314610674578063095ea7b31461069f575f80fd5b806306fdde031161056957806306fdde03146105c25780630700037d146105d757806307a2d13a14610661575f80fd5b806301e1d1141461058457806301ffc9a71461059f575b5f80fd5b61058c610d62565b6040519081526020015b60405180910390f35b6105b26105ad366004614d87565b610d90565b6040519015158152602001610596565b6105ca610df8565b6040516105969190614ddc565b61062a6105e5366004614e12565b600a6020525f908152604090208054600182015460029092015464ffffffffff808316936501000000000084048216936a010000000000000000000090049091169185565b6040805164ffffffffff9687168152948616602086015292909416918301919091526060820152608081019190915260a001610596565b61058c61066f366004614e2d565b610eb0565b600754610687906001600160a01b031681565b6040516001600160a01b039091168152602001610596565b6105b26106ad366004614e44565b610ebb565b61058c6106c0366004614e2d565b610ed2565b61058c6106d3366004614e12565b610ede565b61058c6106e6366004614e6e565b600d60209081525f928352604080842090915290825290205481565b610715610710366004614e12565b610fa6565b005b61058c610725366004614ea5565b611104565b7f52c63247e1f47db19d5ce0460030c497f067ca4cebf71ba98eeadabe20bace025461058c565b61058c60015481565b610715610768366004614e12565b611151565b6105b261077b366004614ea5565b61115e565b61058c61078e366004614e2d565b5f9081527f02dd7bc7dec4dceedda775e58dd541e08a116c6c53815c0bd028192f7b626800602052604090206001015490565b6107156107cf366004614ee3565b611181565b6107dc6111ca565b60405160ff9091168152602001610596565b61058c6111d3565b610715610804366004614ee3565b6111dc565b7f0773e532dfede91f04b12a73d3d2acd361424f41f76b4fb79f090161e36b4e00546001600160a01b0316610687565b61058c610847366004614f06565b61122d565b61071561085a366004614e2d565b611339565b6107156113c4565b61058c610875366004614e12565b505f1990565b6107156113f6565b60408051808201909152600e81527f6d6f64653d74696d657374616d7000000000000000000000000000000000000060208201526105ca565b61058c60035481565b61058c6108d3366004614e6e565b6001600160a01b038082165f908152600c602090815260408083209386168352929052205492915050565b7fcd5ed15c6e187e77e9aee88184c21f4f2182ab5827cb3b7e07fbedcd63f033005460ff166105b2565b610715610936366004614e12565b611655565b61058c610949366004614ee3565b611717565b61071561095c366004614f9e565b611732565b61058c7f5358bcfd81d1ef3da152b1755e1c3c6739686fa7e83dbcad0071568cc4b73a6381565b61058c610996366004614e6e565b600e60209081525f928352604080842090915290825290205481565b61058c6109c0366004614e12565b6119dc565b6107156109d3366004615052565b611a1f565b61058c6109e6366004614e12565b611aea565b600654610687906001600160a01b031681565b610715611af4565b610a0e611b06565b6040516105969796959493929190615085565b61058c60045481565b6105b2610a38366004614ee3565b5f9182527f02dd7bc7dec4dceedda775e58dd541e08a116c6c53815c0bd028192f7b626800602090815260408084206001600160a01b0393909316845291905290205460ff1690565b60405165ffffffffffff42168152602001610596565b610715610aa5366004614e2d565b611ba2565b61058c610ab8366004614ee3565b611be3565b6105ca611bfe565b610acd611c4f565b6040516105969190615137565b61058c5f81565b6105b2610aef366004614e44565b611cae565b610715610b02366004614e2d565b611cbb565b61058c610b15366004614ea5565b611d25565b61058c60025481565b61058c610b31366004614e2d565b611d80565b61058c610b44366004615182565b611d8c565b610715610b57366004614e44565b611e05565b61058c60095481565b610687610b73366004614e2d565b611e1a565b610715610b86366004614e12565b611e41565b61058c610b99366004615182565b611f94565b61058c606481565b61058c610bb4366004614e2d565b61200d565b600854610687906001600160a01b031681565b61058c60055481565b61058c610be3366004614e12565b612018565b610715610bf6366004614e12565b61202b565b61071561208f565b61058c610c11366004614ea5565b6120d1565b610715610c243660046151d1565b6121e9565b610715610c37366004614ee3565b612370565b610715610c4a366004614e44565b6123b3565b61058c610c5d366004614e6e565b600c60209081525f928352604080842090915290825290205481565b61058c610c87366004614e12565b612551565b61058c610c9a366004614e6e565b6001600160a01b039182165f9081527f52c63247e1f47db19d5ce0460030c497f067ca4cebf71ba98eeadabe20bace016020908152604080832093909416825291909152205490565b61058c7f65d7a28e3265b37a6474929f336521b332c1681b933f6cb9f3376673440d862a81565b61058c610d18366004614e2d565b61255b565b61058c610d2b366004614e12565b600b6020525f908152604090205481565b610715610d4a366004614e2d565b612573565b610715610d5d366004614e12565b6125f0565b5f610d8b7f52c63247e1f47db19d5ce0460030c497f067ca4cebf71ba98eeadabe20bace025490565b905090565b5f6001600160e01b031982167f7965db0b000000000000000000000000000000000000000000000000000000001480610df257507f01ffc9a7000000000000000000000000000000000000000000000000000000006001600160e01b03198316145b92915050565b60605f7f52c63247e1f47db19d5ce0460030c497f067ca4cebf71ba98eeadabe20bace005b9050806003018054610e2e9061523b565b80601f0160208091040260200160405190810160405280929190818152602001828054610e5a9061523b565b8015610ea55780601f10610e7c57610100808354040283529160200191610ea5565b820191905f5260205f20905b815481529060010190602001808311610e8857829003601f168201915b505050505091505090565b5f610df2825f61267b565b5f33610ec88185856126d2565b5060019392505050565b5f610df28260016126df565b6001600160a01b0381165f908152600a602052604081207f52c63247e1f47db19d5ce0460030c497f067ca4cebf71ba98eeadabe20bace02545f03610f27576001015492915050565b8054610f909064ffffffffff6a01000000000000000000008204811691610f5891650100000000009091041661255b565b610f629190615287565b7f52c63247e1f47db19d5ce0460030c497f067ca4cebf71ba98eeadabe20bace02546002840154919061272d565b8160010154610f9f919061529a565b9392505050565b5f610fb08161274b565b6001600160a01b0382165f908152600a602052604081205483916501000000000090910464ffffffffff169003610ffa5760405163dd15e71560e01b815260040160405180910390fd5b61100383612755565b6001600160a01b0383165f908152600a602052604090205465010000000000900464ffffffffff164210156110ab576001600160a01b038084165f908152600a6020526040902080544264ffffffffff8181166501000000000090810269ffffffffff0000000000198516178555600854600290950154930416936110a9931691611098916110929086615287565b906127c8565b6001600160a01b03871691906127dc565b505b6006546001600160a01b03908116908416036110ca576110ca5f61202b565b60405133906001600160a01b038516907f6b32317bb85aaa626418b993ebb1b0856757f1e57b3349a89a6acaea87bd15c1905f90a3505050565b6001600160a01b038083165f908152600c602090815260408083209387168352929052908120546111499061113886610ede565b6111429190615287565b83906127c8565b949350505050565b61115b8133612850565b50565b5f3361116b858285612a80565b611176858585612b2d565b506001949350505050565b5f8281527f02dd7bc7dec4dceedda775e58dd541e08a116c6c53815c0bd028192f7b62680060205260409020600101546111ba8161274b565b6111c48383612b8a565b50505050565b5f610d8b612c56565b5f610d8b612c98565b6001600160a01b038116331461121e576040517f6697b23200000000000000000000000000000000000000000000000000000000815260040160405180910390fd5b6112288282612ca1565b505050565b5f61125f7f0773e532dfede91f04b12a73d3d2acd361424f41f76b4fb79f090161e36b4e00546001600160a01b031690565b6001600160a01b031663d505accf8430853560208701356112866060890160408a016152ad565b6040516001600160e01b031960e088901b1681526001600160a01b0395861660048201529490931660248501526044840191909152606483015260ff166084820152606085013560a4820152608085013560c482015260e4015f604051808303815f87803b1580156112f6575f80fd5b505af1925050508015611307575060015b505f19611318565b60405180910390fd5b5f6113228661200d565b905061133085868884612d45565b95945050505050565b5f6113438161274b565b670de0b6b3a7640000821115611385576040517f648564d300000000000000000000000000000000000000000000000000000000815260040160405180910390fd5b600982905560405182815233907f8fa281d02a496c3848901321abdd8d00f14ee5706a12b8c6ff6e3a9a097afc08906020015b60405180910390a25050565b7f65d7a28e3265b37a6474929f336521b332c1681b933f6cb9f3376673440d862a6113ee8161274b565b61115b612de4565b6113fe612e56565b6006546007546040517fdd62ed3e0000000000000000000000000000000000000000000000000000000081526001600160a01b039182166004820181905230602483015291909216915f9061151d90849063dd62ed3e90604401602060405180830381865afa158015611473573d5f803e3d5ffd5b505050506040513d601f19601f8201168201806040525081019061149791906152c6565b6040517fd905777e0000000000000000000000000000000000000000000000000000000081526001600160a01b03858116600483015286169063d905777e90602401602060405180830381865afa1580156114f4573d5f803e3d5ffd5b505050506040513d601f19601f8201168201806040525081019061151891906152c6565b612eb2565b90505f611535600954836127c890919063ffffffff16565b6007546040516323b872dd60e01b81526001600160a01b039182166004820152306024820152604481018390529192508516906323b872dd906064016020604051808303815f875af115801561158d573d5f803e3d5ffd5b505050506040513d601f19601f820116820180604052508101906115b191906152dd565b505f6115bd8284615287565b90508015611643576008546040516323b872dd60e01b81526001600160a01b038681166004830152918216602482015260448101839052908616906323b872dd906064016020604051808303815f875af115801561161d573d5f803e3d5ffd5b505050506040513d601f19601f8201168201806040525081019061164191906152dd565b505b61164e858330612ec7565b5050505050565b5f61165f8161274b565b6001600160a01b0382166116865760405163d92e233d60e01b815260040160405180910390fd5b6006805473ffffffffffffffffffffffffffffffffffffffff19166001600160a01b0384169081179091555f908152600a602052604081205465010000000000900464ffffffffff1690036116de576116de82611e41565b60405133906001600160a01b038416907f9befd548a45bf1eebac6219d0f8cdce0f6a86fc087bc042116131d777d26c008905f90a35050565b5f5f195f6117248561200d565b905061114933858784612d45565b7ff0c57e16840df040f15088dc2f81fe391c3923bec73e23a9662efc9c229c6a00805468010000000000000000810460ff16159067ffffffffffffffff165f8115801561177c5750825b90505f8267ffffffffffffffff1660011480156117985750303b155b9050811580156117a6575080155b156117dd576040517ff92ee8a900000000000000000000000000000000000000000000000000000000815260040160405180910390fd5b845467ffffffffffffffff19166001178555831561181157845468ff00000000000000001916680100000000000000001785555b6118726040518060400160405280600a8152602001697374616b65642045584160b01b8152506040518060400160405280600581526020017f73744558410000000000000000000000000000000000000000000000000000008152506131b9565b855161187d906131cb565b6118a86040518060400160405280600a8152602001697374616b65642045584160b01b8152506131dc565b6118b0613223565b6118ba5f33612b8a565b50604086015115806118d457508560200151866040015111155b806118ea5750670de0b6b3a76400008660600151115b156119085760405163561ce9bb60e01b815260040160405180910390fd5b6119158660200151611ba2565b60408601516002556060860151600355608086015161193390612573565b6119408660a00151611cbb565b61194d8660c00151611655565b6119608660c00151876101200151611a1f565b61196d8660e0015161202b565b61197b866101400151611339565b6119898661010001516125f0565b83156119d457845468ff000000000000000019168555604051600181527fc7f505b2f371ae2175ee4913f4499e1f2633a7b5936321eed1cdaeb6115181d29060200160405180910390a15b505050505050565b5f807f52c63247e1f47db19d5ce0460030c497f067ca4cebf71ba98eeadabe20bace005b6001600160a01b039093165f9081526020939093525050604090205490565b5f611a298161274b565b6001600160a01b0383165f908152600a602052604090208054426501000000000090910464ffffffffff161115611a8c576040517f52f0214c00000000000000000000000000000000000000000000000000000000815260040160405180910390fd5b805464ffffffffff191664ffffffffff8416908117825560405190815233906001600160a01b038616907f307065155c111638dfa8c188a29ab8abc925f17d3616388c7683d0d45a29a453906020015b60405180910390a350505050565b5f610df28261322b565b611afc613253565b611b046132f6565b565b5f60608082808083817fa16a46d94261c7517cc8ff89f61c0ce93598e3c849801011dee649a6a557d1008054909150158015611b4457506001810154155b611b4c575f80fd5b611b54613351565b611b5c6133a2565b604080515f808252602082019092527f0f000000000000000000000000000000000000000000000000000000000000009c939b5091995046985030975095509350915050565b5f611bac8161274b565b600182905560405182815233907fcb90293a116713eb442bb98d30c95b14fa981b1bf6f9ee8e1bf3c856e8ded54e906020016113b8565b5f5f195f611bf085611d80565b905061114933858388612d45565b7f52c63247e1f47db19d5ce0460030c497f067ca4cebf71ba98eeadabe20bace0480546060917f52c63247e1f47db19d5ce0460030c497f067ca4cebf71ba98eeadabe20bace0091610e2e9061523b565b60605f805480602002602001604051908101604052809291908181526020018280548015611ca457602002820191905f5260205f20905b81546001600160a01b03168152600190910190602001808311611c86575b5050505050905090565b5f33610ec8818585612b2d565b5f611cc58161274b565b670de0b6b3a7640000821115611cee5760405163561ce9bb60e01b815260040160405180910390fd5b600582905560405182815233907f33b1804f184927027d7ac0f874248c83a39e0ec20e93e8574499c14a5083886f906020016113b8565b6001600160a01b0382165f908152600b6020526040812054808203611d4d575f915050610f9f565b611330611d7582611d6642670de0b6b3a76400006152fc565b611d709190615287565b6133cb565b611092878787611104565b5f610df282600161267b565b5f80611d9783612018565b905080851115611dec576040517ffe9cceec0000000000000000000000000000000000000000000000000000000081526001600160a01b0384166004820152602481018690526044810182905260640161130f565b5f611df686610ed2565b9050611330338686898561350d565b5f611e0f8161274b565b611228838333612ec7565b5f8181548110611e28575f80fd5b5f918252602090912001546001600160a01b0316905081565b5f611e4b8161274b565b5f54606411611e86576040517f9e10ac0e00000000000000000000000000000000000000000000000000000000815260040160405180910390fd5b6001600160a01b0382165f908152600a602052604090205465010000000000900464ffffffffff1615611ee5576040517ff2a5f75a00000000000000000000000000000000000000000000000000000000815260040160405180910390fd5b6001600160a01b0382165f818152600a6020526040808220805469ffffffffff00000000001916650100000000004264ffffffffff160217905581546001810183558280527f290decd9548b62a8d60345a988386fc84ba6bc95484008f6362f93160ef3e56301805473ffffffffffffffffffffffffffffffffffffffff191684179055513392917f9749fb908457c4fa0afa13661b7b5b02c584a8ae47610ccc7a65d7d500951db491a35050565b5f80611f9f83612551565b905080851115611ff4576040517fb94abeec0000000000000000000000000000000000000000000000000000000081526001600160a01b0384166004820152602481018690526044810182905260640161130f565b5f611ffe86610eb0565b9050611330338686848a61350d565b5f610df2825f6126df565b5f610df2612025836119dc565b5f61267b565b5f6120358161274b565b6007805473ffffffffffffffffffffffffffffffffffffffff19166001600160a01b0384169081179091556040513391907f95d5fab7f1c5262ecb5edffc2c96c30c43871f674976c8ab4fe5ca8a440c3e4b905f90a35050565b5f5b5f5481101561115b576120c95f82815481106120af576120af615313565b5f918252602090912001546001600160a01b031633612850565b600101612091565b6001600160a01b0382165f908152600b6020526040812054801580612126575060015461210690670de0b6b3a76400006152fc565b8161211942670de0b6b3a76400006152fc565b6121239190615287565b11155b15612134575f915050610f9f565b5f612140868686611d25565b90505f61214c866119dc565b9050805f03612160575f9350505050610f9f565b6001600160a01b038087165f908152600d60209081526040808320938b168352929052908120546121929087906152fc565b90505f81156121c157826121a7600184615287565b6121b1919061533b565b6121bc90600161529a565b6121c3565b5f5b90508084116121d2575f6121dc565b6121dc8185615287565b9998505050505050505050565b83421115612226576040517f627913020000000000000000000000000000000000000000000000000000000081526004810185905260240161130f565b5f7f6e71edae12b1b97f4d1f60370fef10105fa2faae0126114a169c64845d6126c98888886122908c6001600160a01b03165f9081527f5ab42ced628888259c08ac98db1eb0cf702fc1501344311d8b100cd1bfe4bb006020526040902080546001810190915590565b6040805160208101969096526001600160a01b0394851690860152929091166060840152608083015260a082015260c0810186905260e0016040516020818303038152906040528051906020012090505f6122ea826135d4565b90505f6122f98287878761361b565b9050896001600160a01b0316816001600160a01b031614612359576040517f4b800e460000000000000000000000000000000000000000000000000000000081526001600160a01b0380831660048301528b16602482015260440161130f565b6123648a8a8a6126d2565b50505050505050505050565b5f8281527f02dd7bc7dec4dceedda775e58dd541e08a116c6c53815c0bd028192f7b62680060205260409020600101546123a98161274b565b6111c48383612ca1565b5f6123bd8161274b565b6001600160a01b0383165f908152600a602052604081205484916501000000000090910464ffffffffff1690036124075760405163dd15e71560e01b815260040160405180910390fd5b7f0773e532dfede91f04b12a73d3d2acd361424f41f76b4fb79f090161e36b4e00546001600160a01b0385811691161480156124b95750612446610d62565b6040516370a0823160e01b81523060048201526001600160a01b038616906370a0823190602401602060405180830381865afa158015612488573d5f803e3d5ffd5b505050506040513d601f19601f820116820180604052508101906124ac91906152c6565b6124b69190615287565b83115b156124d757604051631e9acf1760e31b815260040160405180910390fd5b6008546001600160a01b03908116906124f390861682866127dc565b846001600160a01b0316816001600160a01b0316336001600160a01b03167f32b1e0bba5a0cc4fd21791ce82f252a2856ac08805daa381eac01077e0232eb18760405161254291815260200190565b60405180910390a45050505050565b5f610df2826119dc565b5f6125668242612eb2565b64ffffffffff1692915050565b5f61257d8161274b565b67016345785d8a000082108061259b575068056bc75e2d6310000082115b156125b95760405163561ce9bb60e01b815260040160405180910390fd5b600482905560405182815233907fde98b8145241ddecb3a88a40e29bc18e7f3a091cf2d92e9891fffe71bf303890906020016113b8565b5f6125fa8161274b565b6001600160a01b0382166126215760405163d92e233d60e01b815260040160405180910390fd5b6008805473ffffffffffffffffffffffffffffffffffffffff19166001600160a01b0384169081179091556040513391907ff0e8bebe3659a97126f43e3d176f7555480c335f92ca957254992ce32b551aff905f90a35050565b5f610f9f612687610d62565b61269290600161529a565b61269d5f600a615431565b7f52c63247e1f47db19d5ce0460030c497f067ca4cebf71ba98eeadabe20bace02546126c9919061529a565b85919085613647565b6112288383836001613694565b5f610f9f6126ee82600a615431565b7f52c63247e1f47db19d5ce0460030c497f067ca4cebf71ba98eeadabe20bace025461271a919061529a565b612722610d62565b6126c990600161529a565b828202811515841585830485141716612744575f80fd5b0492915050565b61115b81336137ad565b6001600160a01b0381165f908152600a6020526040902061277582610ede565b600182015580546127959065010000000000900464ffffffffff1661255b565b815464ffffffffff919091166a0100000000000000000000026effffffffff000000000000000000001990911617905550565b5f610f9f8383670de0b6b3a764000061272d565b6040516001600160a01b0383811660248301526044820183905261122891859182169063a9059cbb906064015b604051602081830303815290604052915060e01b6020820180517bffffffffffffffffffffffffffffffffffffffffffffffffffffffff8381831617835250505050613839565b612858612e56565b6001600160a01b0381165f908152600b602052604081205461288242670de0b6b3a76400006152fc565b61288c9190615287565b9050600154670de0b6b3a76400006128a491906152fc565b81116128af57505050565b6001600160a01b038083165f908152600d60209081526040808320938716835292905290812054906128ee6128e88686610b15816119dc565b836138b3565b90505f6128fb8383615287565b905080156129335761290d818461529a565b6001600160a01b038087165f908152600d60209081526040808320938b16835292905220555b60025461294890670de0b6b3a76400006152fc565b841115612a10575f61295e8787610725896119dc565b6001600160a01b038088165f908152600e60209081526040808320938c168352929052908120549192506129928386612eb2565b90505f61299f838361529a565b84116129ab575f6129c0565b826129b68386615287565b6129c09190615287565b90508015612a0b576129d2818461529a565b6001600160a01b03808b165f908152600e602090815260408083208f8516808552925290912092909255600854612a0b929116836127dc565b505050505b80156119d457612a2a6001600160a01b03871686836127dc565b846001600160a01b0316866001600160a01b03167f540798df468d7b23d11f156fdb954cb19ad414d150722a7b6d55ba369dea792e83604051612a6f91815260200190565b60405180910390a3505050505b5050565b6001600160a01b038381165f9081527f52c63247e1f47db19d5ce0460030c497f067ca4cebf71ba98eeadabe20bace0160209081526040808320938616835292905220545f1981146111c45781811015612b1f576040517ffb8f41b20000000000000000000000000000000000000000000000000000000081526001600160a01b0384166004820152602481018290526044810183905260640161130f565b6111c484848484035f613694565b6001600160a01b038316612b5657604051634b637e8f60e11b81525f600482015260240161130f565b6001600160a01b038216612b7f5760405163ec442f0560e01b81525f600482015260240161130f565b6112288383836138c1565b5f8281527f02dd7bc7dec4dceedda775e58dd541e08a116c6c53815c0bd028192f7b626800602081815260408084206001600160a01b038616855290915282205460ff16612c4d575f848152602082815260408083206001600160a01b03871684529091529020805460ff19166001179055612c033390565b6001600160a01b0316836001600160a01b0316857f2f8788117e7eff1d82e926ec794901d17c78024a50270940304540a733656f0d60405160405180910390a46001915050610df2565b5f915050610df2565b5f807f0773e532dfede91f04b12a73d3d2acd361424f41f76b4fb79f090161e36b4e0090505f8154612c929190600160a01b900460ff1661543f565b91505090565b5f610d8b613d24565b5f8281527f02dd7bc7dec4dceedda775e58dd541e08a116c6c53815c0bd028192f7b626800602081815260408084206001600160a01b038616855290915282205460ff1615612c4d575f848152602082815260408083206001600160a01b0387168085529252808320805460ff1916905551339287917ff6391f5c32d9c69d2a47ea670b442974b53935d1edc7fd64eb21e047a839171b9190a46001915050610df2565b7f0773e532dfede91f04b12a73d3d2acd361424f41f76b4fb79f090161e36b4e008054612d7d906001600160a01b0316863086613d97565b612d878483613dd0565b836001600160a01b0316856001600160a01b03167fdcbc1c05240f31ff3ad067ef1ee35ce4997762752e3a095284754544f4c709d78585604051612dd5929190918252602082015260400190565b60405180910390a35050505050565b612dec613e04565b7fcd5ed15c6e187e77e9aee88184c21f4f2182ab5827cb3b7e07fbedcd63f03300805460ff191681557f5db9ee0a495bf2e6ff9c91a7834c1ba4fdd244a5e8aa4e537bd38aeae4b073aa335b6040516001600160a01b03909116815260200160405180910390a150565b7fcd5ed15c6e187e77e9aee88184c21f4f2182ab5827cb3b7e07fbedcd63f033005460ff1615611b04576040517fd93c066500000000000000000000000000000000000000000000000000000000815260040160405180910390fd5b5f818310612ec05781610f9f565b5090919050565b6001600160a01b0383165f908152600a602052604081205484916501000000000090910464ffffffffff169003612f115760405163dd15e71560e01b815260040160405180910390fd5b612f1a84612755565b6001600160a01b0384165f908152600a60205260409020805465010000000000900464ffffffffff164210612f7857805464ffffffffff16612f6485670de0b6b3a76400006152fc565b612f6e919061533b565b6002820155612fe1565b600281015481545f9190612f9d90429065010000000000900464ffffffffff16615287565b612fa791906152fc565b825490915064ffffffffff1681612fc687670de0b6b3a76400006152fc565b612fd0919061529a565b612fda919061533b565b6002830155505b80600201545f0361301e576040517f299dcf9a00000000000000000000000000000000000000000000000000000000815260040160405180910390fd5b7f0773e532dfede91f04b12a73d3d2acd361424f41f76b4fb79f090161e36b4e00546001600160a01b03868116911614613058575f613060565b613060610d62565b6040516370a0823160e01b81523060048201526001600160a01b038716906370a0823190602401602060405180830381865afa1580156130a2573d5f803e3d5ffd5b505050506040513d601f19601f820116820180604052508101906130c691906152c6565b6130d09190615287565b815460028301546130e79164ffffffffff166127c8565b111561310657604051631e9acf1760e31b815260040160405180910390fd5b80546131199064ffffffffff1642615458565b81547fffffffffffffffffffffffffffffffffff00000000000000000000ffffffffff166501000000000064ffffffffff928316026effffffffff000000000000000000001916176a01000000000000000000004292909216919091021781556040518481526001600160a01b0384811691908716907f73e403d263176fde0447fee5fa024d13c5d6bf70748f23cf4ad463764cc8f2f390602001612dd5565b6131c1613e5f565b612a7c8282613ec6565b6131d3613e5f565b61115b81613f29565b6131e4613e5f565b61115b816040518060400160405280600181526020017f3100000000000000000000000000000000000000000000000000000000000000815250613fd1565b611b04613e5f565b5f807f5ab42ced628888259c08ac98db1eb0cf702fc1501344311d8b100cd1bfe4bb00611a00565b335f9081527f7bcff4f162ccdfbe249cdf3a524fc79b31c8aeaae0e727c4887b8e830a8a2e2d602052604090205460ff161580156132bf5750335f9081527f75442b0a96088b5456bc4ed01394c96a4feec0f883c9494257d76b96ab1c9b6b602052604090205460ff16155b15611b04576040517fe8037ed800000000000000000000000000000000000000000000000000000000815260040160405180910390fd5b6132fe612e56565b7fcd5ed15c6e187e77e9aee88184c21f4f2182ab5827cb3b7e07fbedcd63f03300805460ff191660011781557f62e78cea01bee320cd4e420270b5ea74000d11b0c9f74754ebdbfc544b05a25833612e38565b7fa16a46d94261c7517cc8ff89f61c0ce93598e3c849801011dee649a6a557d10280546060917fa16a46d94261c7517cc8ff89f61c0ce93598e3c849801011dee649a6a557d10091610e2e9061523b565b60605f7fa16a46d94261c7517cc8ff89f61c0ce93598e3c849801011dee649a6a557d100610e1d565b5f80600154670de0b6b3a76400006133e391906152fc565b90508083116133f457505f92915050565b5f600254670de0b6b3a764000061340b91906152fc565b9050808410613454576003548061344a8661342e85670de0b6b3a76400006152fc565b613438919061533b565b61109284670de0b6b3a7640000615287565b611330919061529a565b5f61345f8383615287565b6134698487615287565b61347b90670de0b6b3a76400006152fc565b613485919061533b565b9050805f0361349857505f949350505050565b5f6134ca670de0b6b3a76400006134ae84614043565b6004546134bb9190615475565b6134c591906154a4565b6141f2565b600554909150613502816134ea8461109283670de0b6b3a7640000615287565b6134f4919061529a565b670de0b6b3a7640000612eb2565b979650505050505050565b7f0773e532dfede91f04b12a73d3d2acd361424f41f76b4fb79f090161e36b4e006001600160a01b038681169085161461354c5761354c848784612a80565b6135568483614386565b805461356c906001600160a01b031686856127dc565b836001600160a01b0316856001600160a01b0316876001600160a01b03167ffbde797d201c681b91056529119e0b02407c7bb96a4a2c75c01fc9667232c8db86866040516135c4929190918252602082015260400190565b60405180910390a4505050505050565b5f610df26135e0612c98565b836040517f19010000000000000000000000000000000000000000000000000000000000008152600281019290925260228201526042902090565b5f805f8061362b888888886143ba565b92509250925061363b8282614482565b50909695505050505050565b5f80613654868686614585565b905061365f8361465d565b801561367a57505f848061367557613675615327565b868809115b156113305761368a60018261529a565b9695505050505050565b7f52c63247e1f47db19d5ce0460030c497f067ca4cebf71ba98eeadabe20bace006001600160a01b0385166136f7576040517fe602df050000000000000000000000000000000000000000000000000000000081525f600482015260240161130f565b6001600160a01b038416613739576040517f94280d620000000000000000000000000000000000000000000000000000000081525f600482015260240161130f565b6001600160a01b038086165f9081526001830160209081526040808320938816835292905220839055811561164e57836001600160a01b0316856001600160a01b03167f8c5be1e5ebec7d5bd14f71427d1e84f3dd0314c0f7b2291e5b200ac8c7c3b92585604051612dd591815260200190565b5f8281527f02dd7bc7dec4dceedda775e58dd541e08a116c6c53815c0bd028192f7b626800602090815260408083206001600160a01b038516845290915290205460ff16612a7c576040517fe2517d3f0000000000000000000000000000000000000000000000000000000081526001600160a01b03821660048201526024810183905260440161130f565b5f61384d6001600160a01b03841683614689565b905080515f1415801561387157508080602001905181019061386f91906152dd565b155b15611228576040517f5274afe70000000000000000000000000000000000000000000000000000000081526001600160a01b038416600482015260240161130f565b5f818311612ec05781610f9f565b6138c9612e56565b805f03613902576040517f1f2a200500000000000000000000000000000000000000000000000000000000815260040160405180910390fd5b6001600160a01b038316613c7f576001600160a01b038216331480159061396857506001600160a01b0382165f9081527f52c63247e1f47db19d5ce0460030c497f067ca4cebf71ba98eeadabe20bace0160209081526040808320338452909152902054155b1561399f576040517f3d693ada00000000000000000000000000000000000000000000000000000000815260040160405180910390fd5b6001600160a01b0382165f908152600b6020526040812054908181036139c5575f6139e2565b816139d842670de0b6b3a76400006152fc565b6139e29190615287565b90505f600254670de0b6b3a76400006139fb91906152fc565b90505f613a07866119dc565b90505f613a14828761529a565b5f80549192505b81811015613b76575f808281548110613a3657613a36615313565b5f918252602090912001546001600160a01b03169050613a5581612755565b85871115613aa6578415613a6e57613a6e818b87614696565b6001600160a01b038082165f818152600a6020908152604080832060010154948f168352600c82528083209383529290522055613b6d565b8415613ab657613ab6818b612850565b6001600160a01b0381165f908152600a6020526040812060010154613adc908b906152fc565b6001600160a01b03808d165f908152600c6020908152604080832093871683529290522054613b0c9088906152fc565b613b16919061529a565b90508015613b445784613b2a600183615287565b613b34919061533b565b613b3f90600161529a565b613b46565b5f5b6001600160a01b03808d165f908152600c6020908152604080832093871683529290522055505b50600101613a1b565b5083851115613bae57613b9142670de0b6b3a76400006152fc565b6001600160a01b0389165f908152600b6020526040902055613c2a565b5f87613bc242670de0b6b3a76400006152fc565b613bcc91906152fc565b613bd685896152fc565b613be0919061529a565b90508015613c0e5782613bf4600183615287565b613bfe919061533b565b613c0990600161529a565b613c10565b5f5b6001600160a01b038a165f908152600b6020526040902055505b306001600160a01b0316634641257d6040518163ffffffff1660e01b81526004015f604051808303815f87803b158015613c62575f80fd5b505af1925050508015613c73575060015b50505050505050613d19565b6001600160a01b038216613ce7575f8054905b81811015613ce0575f808281548110613cad57613cad615313565b5f918252602090912001546001600160a01b03169050613ccc81612755565b613cd7818786614696565b50600101613c92565b5050613d19565b6040517f072b78c700000000000000000000000000000000000000000000000000000000815260040160405180910390fd5b61122883838361488b565b5f7f8b73c3c69bb8fe3d512ecc4cf759cc79239f7b179b0ffacaa9a75d522b39400f613d4e6149e2565b613d56614a5d565b60408051602081019490945283019190915260608201524660808201523060a082015260c00160405160208183030381529060405280519060200120905090565b6040516001600160a01b0384811660248301528381166044830152606482018390526111c49186918216906323b872dd90608401612809565b6001600160a01b038216613df95760405163ec442f0560e01b81525f600482015260240161130f565b612a7c5f83836138c1565b7fcd5ed15c6e187e77e9aee88184c21f4f2182ab5827cb3b7e07fbedcd63f033005460ff16611b04576040517f8dfc202b00000000000000000000000000000000000000000000000000000000815260040160405180910390fd5b7ff0c57e16840df040f15088dc2f81fe391c3923bec73e23a9662efc9c229c6a005468010000000000000000900460ff16611b04576040517fd7e6bcf800000000000000000000000000000000000000000000000000000000815260040160405180910390fd5b613ece613e5f565b7f52c63247e1f47db19d5ce0460030c497f067ca4cebf71ba98eeadabe20bace007f52c63247e1f47db19d5ce0460030c497f067ca4cebf71ba98eeadabe20bace03613f1a8482615514565b50600481016111c48382615514565b613f31613e5f565b7f0773e532dfede91f04b12a73d3d2acd361424f41f76b4fb79f090161e36b4e005f80613f5d84614ab2565b9150915081613f6d576012613f6f565b805b83547fffffffffffffffffffffff00000000000000000000000000000000000000000016600160a01b60ff929092169190910273ffffffffffffffffffffffffffffffffffffffff1916176001600160a01b0394909416939093179091555050565b613fd9613e5f565b7fa16a46d94261c7517cc8ff89f61c0ce93598e3c849801011dee649a6a557d1007fa16a46d94261c7517cc8ff89f61c0ce93598e3c849801011dee649a6a557d1026140258482615514565b50600381016140348382615514565b505f8082556001909101555050565b5f80821361404f575f80fd5b5f606061405b84614bb6565b03609f8181039490941b90931c6c465772b2bbbb5f824b15207a3081018102606090811d6d0388eaa27412d5aca026815d636e018202811d6d0df99ac502031bf953eff472fdcc018202811d6d13cdffb29d51d99322bdff5f2211018202811d6d0a0f742023def783a307a986912e018202811d6d01920d8043ca89b5239253284e42018202811d6c0b7a86d7375468fac667a0a527016c29508e458543d8aa4df2abee7883018302821d6d0139601a2efabe717e604cbb4894018302821d6d02247f7a7b6594320649aa03aba1018302821d6c8c3f38e95a6b1ff2ab1c3b343619018302821d6d02384773bdf1ac5676facced60901901830290911d6cb9a025d814b29c212b8b1a07cd19019091027ffffffffffffffff5f6af8f7b3396644f18e157960000000000000000000000000105711340daa0d5f769dba1915cef59f0815a5506027d0267a36c0c95b3975ab3ee5b203a7614a3f75373f047d803ae7b6687f2b393909302929092017d57115e47018c7177eebf7cd370a3356a1b7863008a5ae8028c72b88642840160ae1d92915050565b5f680248ce36a70cb26b3e19821361420b57505f919050565b680755bf798b4a1bf1e5821261421f575f80fd5b6503782dace9d9604e83901b0591505f60606bb17217f7d1cf79abc9e3b39884821b056b80000000000000000000000001901d6bb17217f7d1cf79abc9e3b39881029093036c240c330e9fb2d9cbaf0fd5aafb1981018102606090811d6d0277594991cfc85f6e2461837cd9018202811d6d1a521255e34f6a5061b25ef1c9c319018202811d6db1bbb201f443cf962f1a1d3db4a5018202811d7ffffffffffffffffffffffffffffffffffffd38dc772608b0ae56cce01296c0eb018202811d6e05180bb14799ab47a8a8cb2a527d57016d02d16720577bd19bf614176fe9ea6c10fe68e7fd37d0007b713f765084018402831d9081019084016d01d3967ed30fc4f89c02bab5708119010290911d6e0587f503bb6ea29d25fcb7401964500190910279d835ebba824c98fb31b83b2ca45c000000000000000000000000010574029d9dc38563c32e5c2f6dc192ee70ef65f9978af30260c3939093039290921c92915050565b6001600160a01b0382166143af57604051634b637e8f60e11b81525f600482015260240161130f565b612a7c825f836138c1565b5f80807f7fffffffffffffffffffffffffffffff5d576e7357a4501ddfe92f46681b20a08411156143f357505f91506003905082614478565b604080515f808252602082018084528a905260ff891692820192909252606081018790526080810186905260019060a0016020604051602081039080840390855afa158015614444573d5f803e3d5ffd5b5050604051601f1901519150506001600160a01b03811661446f57505f925060019150829050614478565b92505f91508190505b9450945094915050565b5f826003811115614495576144956155cf565b0361449e575050565b60018260038111156144b2576144b26155cf565b036144e9576040517ff645eedf00000000000000000000000000000000000000000000000000000000815260040160405180910390fd5b60028260038111156144fd576144fd6155cf565b03614537576040517ffce698f70000000000000000000000000000000000000000000000000000000081526004810182905260240161130f565b600382600381111561454b5761454b6155cf565b03612a7c576040517fd78bce0c0000000000000000000000000000000000000000000000000000000081526004810182905260240161130f565b5f838302815f1985870982811083820303915050805f036145b9578382816145af576145af615327565b0492505050610f9f565b8084116145f2576040517f227bc15300000000000000000000000000000000000000000000000000000000815260040160405180910390fd5b5f848688095f868103871696879004966002600389028118808a02820302808a02820302808a02820302808a02820302808a02820302808a02909103029181900381900460010186841190950394909402919094039290920491909117919091029150509392505050565b5f6002826003811115614672576146726155cf565b61467c91906155e3565b60ff166001149050919050565b6060610f9f83835f614c2d565b5f6146a0836119dc565b6001600160a01b038085165f908152600d602090815260408083209389168352929052908120549192509082906146d89085906152fc565b6146e2919061533b565b6001600160a01b038086165f908152600d60209081526040808320938a1683529290529081208054929350839290919061471d908490615287565b90915550506001600160a01b038085165f908152600e6020908152604080832093891683529290529081205483906147569086906152fc565b614760919061533b565b6001600160a01b038087165f908152600e60209081526040808320938b1683529290529081208054929350839290919061479b908490615287565b909155505f90506147b66147b0888888611d25565b846138b3565b90505f6147c38483615287565b9050801561482d576147df6001600160a01b03891688836127dc565b866001600160a01b0316886001600160a01b03167f540798df468d7b23d11f156fdb954cb19ad414d150722a7b6d55ba369dea792e8360405161482491815260200190565b60405180910390a35b5f614839898989611104565b90505f614846858561529a565b82111561486757846148588584615287565b6148629190615287565b614869565b5f5b9050801561236457600854612364906001600160a01b038c81169116836127dc565b7f52c63247e1f47db19d5ce0460030c497f067ca4cebf71ba98eeadabe20bace006001600160a01b0384166148d85781816002015f8282546148cd919061529a565b909155506149619050565b6001600160a01b0384165f9081526020829052604090205482811015614943576040517fe450d38c0000000000000000000000000000000000000000000000000000000081526001600160a01b0386166004820152602481018290526044810184905260640161130f565b6001600160a01b0385165f9081526020839052604090209083900390555b6001600160a01b03831661497f57600281018054839003905561499d565b6001600160a01b0383165f9081526020829052604090208054830190555b826001600160a01b0316846001600160a01b03167fddf252ad1be2c89b69c2b068fc378daa952ba7f163c4a11628f55a4df523b3ef84604051611adc91815260200190565b5f7fa16a46d94261c7517cc8ff89f61c0ce93598e3c849801011dee649a6a557d10081614a0d613351565b805190915015614a2557805160209091012092915050565b81548015614a34579392505050565b7fc5d2460186f7233c927e7db2dcc703c0e500b653ca82273b7bfad8045d85a470935050505090565b5f7fa16a46d94261c7517cc8ff89f61c0ce93598e3c849801011dee649a6a557d10081614a886133a2565b805190915015614aa057805160209091012092915050565b60018201548015614a34579392505050565b60408051600481526024810182526020810180517bffffffffffffffffffffffffffffffffffffffffffffffffffffffff167f313ce5670000000000000000000000000000000000000000000000000000000017905290515f918291829182916001600160a01b03871691614b2691615604565b5f60405180830381855afa9150503d805f8114614b5e576040519150601f19603f3d011682016040523d82523d5f602084013e614b63565b606091505b5091509150818015614b7757506020815110155b15614baa575f81806020019051810190614b9191906152c6565b905060ff8111614ba8576001969095509350505050565b505b505f9485945092505050565b5f808211614bc2575f80fd5b5060016fffffffffffffffffffffffffffffffff821160071b82811c67ffffffffffffffff1060061b1782811c63ffffffff1060051b1782811c61ffff1060041b1782811c60ff10600390811b90911783811c600f1060021b1783811c909110821b1791821c111790565b606081471015614c6b576040517fcd78605900000000000000000000000000000000000000000000000000000000815230600482015260240161130f565b5f80856001600160a01b03168486604051614c869190615604565b5f6040518083038185875af1925050503d805f8114614cc0576040519150601f19603f3d011682016040523d82523d5f602084013e614cc5565b606091505b509150915061368a868383606082614ce557614ce082614d45565b610f9f565b8151158015614cfc57506001600160a01b0384163b155b15614d3e576040517f9996b3150000000000000000000000000000000000000000000000000000000081526001600160a01b038516600482015260240161130f565b5080610f9f565b805115614d555780518082602001fd5b6040517f1425ea4200000000000000000000000000000000000000000000000000000000815260040160405180910390fd5b5f60208284031215614d97575f80fd5b81356001600160e01b031981168114610f9f575f80fd5b5f81518084528060208401602086015e5f602082860101526020601f19601f83011685010191505092915050565b602081525f610f9f6020830184614dae565b6001600160a01b038116811461115b575f80fd5b8035614e0d81614dee565b919050565b5f60208284031215614e22575f80fd5b8135610f9f81614dee565b5f60208284031215614e3d575f80fd5b5035919050565b5f8060408385031215614e55575f80fd5b8235614e6081614dee565b946020939093013593505050565b5f8060408385031215614e7f575f80fd5b8235614e8a81614dee565b91506020830135614e9a81614dee565b809150509250929050565b5f805f60608486031215614eb7575f80fd5b8335614ec281614dee565b92506020840135614ed281614dee565b929592945050506040919091013590565b5f8060408385031215614ef4575f80fd5b823591506020830135614e9a81614dee565b5f805f83850360e0811215614f19575f80fd5b843593506020850135614f2b81614dee565b925060a0603f1982011215614f3e575f80fd5b506040840190509250925092565b634e487b7160e01b5f52604160045260245ffd5b604051610160810167ffffffffffffffff81118282101715614f8457614f84614f4c565b60405290565b803564ffffffffff81168114614e0d575f80fd5b5f610160828403128015614fb0575f80fd5b50614fb9614f60565b614fc283614e02565b81526020838101359082015260408084013590820152606080840135908201526080808401359082015260a0808401359082015261500260c08401614e02565b60c082015261501360e08401614e02565b60e08201526150256101008401614e02565b6101008201526150386101208401614f8a565b610120820152610140928301359281019290925250919050565b5f8060408385031215615063575f80fd5b823561506e81614dee565b915061507c60208401614f8a565b90509250929050565b7fff000000000000000000000000000000000000000000000000000000000000008816815260e060208201525f6150bf60e0830189614dae565b82810360408401526150d18189614dae565b606084018890526001600160a01b038716608085015260a0840186905283810360c0850152845180825260208087019350909101905f5b81811015615126578351835260209384019390920191600101615108565b50909b9a5050505050505050505050565b602080825282518282018190525f918401906040840190835b818110156151775783516001600160a01b0316835260209384019390920191600101615150565b509095945050505050565b5f805f60608486031215615194575f80fd5b8335925060208401356151a681614dee565b915060408401356151b681614dee565b809150509250925092565b803560ff81168114614e0d575f80fd5b5f805f805f805f60e0888a0312156151e7575f80fd5b87356151f281614dee565b9650602088013561520281614dee565b9550604088013594506060880135935061521e608089016151c1565b9699959850939692959460a0840135945060c09093013592915050565b600181811c9082168061524f57607f821691505b60208210810361526d57634e487b7160e01b5f52602260045260245ffd5b50919050565b634e487b7160e01b5f52601160045260245ffd5b81810381811115610df257610df2615273565b80820180821115610df257610df2615273565b5f602082840312156152bd575f80fd5b610f9f826151c1565b5f602082840312156152d6575f80fd5b5051919050565b5f602082840312156152ed575f80fd5b81518015158114610f9f575f80fd5b8082028115828204841417610df257610df2615273565b634e487b7160e01b5f52603260045260245ffd5b634e487b7160e01b5f52601260045260245ffd5b5f8261534957615349615327565b500490565b6001815b60018411156153895780850481111561536d5761536d615273565b600184161561537b57908102905b60019390931c928002615352565b935093915050565b5f8261539f57506001610df2565b816153ab57505f610df2565b81600181146153c157600281146153cb576153e7565b6001915050610df2565b60ff8411156153dc576153dc615273565b50506001821b610df2565b5060208310610133831016604e8410600b841016171561540a575081810a610df2565b6154165f19848461534e565b805f190482111561542957615429615273565b029392505050565b5f610f9f60ff841683615391565b60ff8181168382160190811115610df257610df2615273565b64ffffffffff8181168382160190811115610df257610df2615273565b8082025f8212600160ff1b8414161561549057615490615273565b8181058314821517610df257610df2615273565b5f826154b2576154b2615327565b600160ff1b82145f19841416156154cb576154cb615273565b500590565b601f82111561122857805f5260205f20601f840160051c810160208510156154f55750805b601f840160051c820191505b8181101561164e575f8155600101615501565b815167ffffffffffffffff81111561552e5761552e614f4c565b6155428161553c845461523b565b846154d0565b6020601f821160018114615574575f831561555d5750848201515b5f19600385901b1c1916600184901b17845561164e565b5f84815260208120601f198516915b828110156155a35787850151825560209485019460019092019101615583565b50848210156155c057868401515f19600387901b60f8161c191681555b50505050600190811b01905550565b634e487b7160e01b5f52602160045260245ffd5b5f60ff8316806155f5576155f5615327565b8060ff84160691505092915050565b5f82518060208501845e5f92019182525091905056fea2646970667358221220ebe59b3a388f856339905aee9ca3cab51c211efa68189b606c3ada245282784f64736f6c634300081a0033",
  "devdoc": {
    "errors": {
      "AccessControlBadConfirmation()": [
        {
          "details": "The caller of a function is not the expected one. NOTE: Don't confuse with {AccessControlUnauthorizedAccount}."
        }
      ],
      "AccessControlUnauthorizedAccount(address,bytes32)": [
        {
          "details": "The `account` is missing a role."
        }
      ],
      "AddressEmptyCode(address)": [
        {
          "details": "There's no code at `target` (it is not a contract)."
        }
      ],
      "AddressInsufficientBalance(address)": [
        {
          "details": "The ETH balance of the account is not enough to perform the operation."
        }
      ],
      "ECDSAInvalidSignature()": [
        {
          "details": "The signature derives the `address(0)`."
        }
      ],
      "ECDSAInvalidSignatureLength(uint256)": [
        {
          "details": "The signature has an invalid length."
        }
      ],
      "ECDSAInvalidSignatureS(bytes32)": [
        {
          "details": "The signature has an S value that is in the upper half order."
        }
      ],
      "ERC20InsufficientAllowance(address,uint256,uint256)": [
        {
          "details": "Indicates a failure with the `spender`s `allowance`. Used in transfers.",
          "params": {
            "allowance": "Amount of tokens a `spender` is allowed to operate with.",
            "needed": "Minimum amount required to perform a transfer.",
            "spender": "Address that may be allowed to operate on tokens without being their owner."
          }
        }
      ],
      "ERC20InsufficientBalance(address,uint256,uint256)": [
        {
          "details": "Indicates an error related to the current `balance` of a `sender`. Used in transfers.",
          "params": {
            "balance": "Current balance for the interacting account.",
            "needed": "Minimum amount required to perform a transfer.",
            "sender": "Address whose tokens are being transferred."
          }
        }
      ],
      "ERC20InvalidApprover(address)": [
        {
          "details": "Indicates a failure with the `approver` of a token to be approved. Used in approvals.",
          "params": {
            "approver": "Address initiating an approval operation."
          }
        }
      ],
      "ERC20InvalidReceiver(address)": [
        {
          "details": "Indicates a failure with the token `receiver`. Used in transfers.",
          "params": {
            "receiver": "Address to which tokens are being transferred."
          }
        }
      ],
      "ERC20InvalidSender(address)": [
        {
          "details": "Indicates a failure with the token `sender`. Used in transfers.",
          "params": {
            "sender": "Address whose tokens are being transferred."
          }
        }
      ],
      "ERC20InvalidSpender(address)": [
        {
          "details": "Indicates a failure with the `spender` to be approved. Used in approvals.",
          "params": {
            "spender": "Address that may be allowed to operate on tokens without being their owner."
          }
        }
      ],
      "ERC2612ExpiredSignature(uint256)": [
        {
          "details": "Permit deadline has expired."
        }
      ],
      "ERC2612InvalidSigner(address,address)": [
        {
          "details": "Mismatched signature."
        }
      ],
      "ERC4626ExceededMaxDeposit(address,uint256,uint256)": [
        {
          "details": "Attempted to deposit more assets than the max amount for `receiver`."
        }
      ],
      "ERC4626ExceededMaxMint(address,uint256,uint256)": [
        {
          "details": "Attempted to mint more shares than the max amount for `receiver`."
        }
      ],
      "ERC4626ExceededMaxRedeem(address,uint256,uint256)": [
        {
          "details": "Attempted to redeem more shares than the max amount for `receiver`."
        }
      ],
      "ERC4626ExceededMaxWithdraw(address,uint256,uint256)": [
        {
          "details": "Attempted to withdraw more assets than the max amount for `receiver`."
        }
      ],
      "EnforcedPause()": [
        {
          "details": "The operation failed because the contract is paused."
        }
      ],
      "ExpectedPause()": [
        {
          "details": "The operation failed because the contract is not paused."
        }
      ],
      "FailedInnerCall()": [
        {
          "details": "A call to an address target failed. The target may have reverted."
        }
      ],
      "InvalidAccountNonce(address,uint256)": [
        {
          "details": "The nonce used for an `account` is not the expected current nonce."
        }
      ],
      "InvalidInitialization()": [
        {
          "details": "The contract is already initialized."
        }
      ],
      "MathOverflowedMulDiv()": [
        {
          "details": "Muldiv operation overflow."
        }
      ],
      "NotInitializing()": [
        {
          "details": "The contract is not initializing."
        }
      ],
      "SafeERC20FailedOperation(address)": [
        {
          "details": "An operation with an ERC20 token failed."
        }
      ]
    },
    "events": {
      "Approval(address,address,uint256)": {
        "details": "Emitted when the allowance of a `spender` for an `owner` is set by a call to {approve}. `value` is the new allowance."
      },
      "EIP712DomainChanged()": {
        "details": "MAY be emitted to signal that the domain could have changed."
      },
      "Initialized(uint64)": {
        "details": "Triggered when the contract has been initialized or reinitialized."
      },
      "Paused(address)": {
        "details": "Emitted when the pause is triggered by `account`."
      },
      "RoleAdminChanged(bytes32,bytes32,bytes32)": {
        "details": "Emitted when `newAdminRole` is set as ``role``'s admin role, replacing `previousAdminRole` `DEFAULT_ADMIN_ROLE` is the starting admin for all roles, despite {RoleAdminChanged} not being emitted signaling this."
      },
      "RoleGranted(bytes32,address,address)": {
        "details": "Emitted when `account` is granted `role`. `sender` is the account that originated the contract call, an admin role bearer except when using {AccessControl-_setupRole}."
      },
      "RoleRevoked(bytes32,address,address)": {
        "details": "Emitted when `account` is revoked `role`. `sender` is the account that originated the contract call:   - if using `revokeRole`, it is the admin role bearer   - if using `renounceRole`, it is the role bearer (i.e. `account`)"
      },
      "Transfer(address,address,uint256)": {
        "details": "Emitted when `value` tokens are moved from one account (`from`) to another (`to`). Note that `value` may be zero."
      },
      "Unpaused(address)": {
        "details": "Emitted when the pause is lifted by `account`."
      }
    },
    "kind": "dev",
    "methods": {
      "DOMAIN_SEPARATOR()": {
        "details": "Returns the domain separator used in the encoding of the signature for {permit}, as defined by {EIP712}."
      },
      "allRewardsTokens()": {
        "returns": {
          "_0": "The list of reward tokens."
        }
      },
      "allowance(address,address)": {
        "details": "See {IERC20-allowance}."
      },
      "approve(address,uint256)": {
        "details": "See {IERC20-approve}. NOTE: If `value` is the maximum `uint256`, the allowance is not updated on `transferFrom`. This is semantically equivalent to an infinite approval. Requirements: - `spender` cannot be the zero address."
      },
      "asset()": {
        "details": "See {IERC4626-asset}. "
      },
      "avgIndex(address,address)": {
        "params": {
          "account": "The account.",
          "reward": "The reward token."
        },
        "returns": {
          "_0": "The average index."
        }
      },
      "balanceOf(address)": {
        "details": "See {IERC20-balanceOf}."
      },
      "claim(address)": {
        "params": {
          "reward": "The reward token."
        }
      },
      "claimable(address,address,uint256)": {
        "params": {
          "account": "The account.",
          "reward": "The reward token.",
          "shares": "The amount of shares of the account involved."
        },
        "returns": {
          "_0": "The claimable rewards."
        }
      },
      "constructor": {
        "custom:oz-upgrades-unsafe-allow": "constructor"
      },
      "convertToAssets(uint256)": {
        "details": "See {IERC4626-convertToAssets}. "
      },
      "convertToShares(uint256)": {
        "details": "See {IERC4626-convertToShares}. "
      },
      "decimals()": {
        "returns": {
          "_0": "The number of decimals."
        }
      },
      "deposit(uint256,address)": {
        "details": "See {IERC4626-deposit}. "
      },
      "earned(address,address,uint256)": {
        "params": {
          "account": "The account.",
          "reward": "The reward token.",
          "shares": "The amount of shares."
        },
        "returns": {
          "_0": "The earned rewards."
        }
      },
      "eip712Domain()": {
        "details": "See {IERC-5267}."
      },
      "enableReward(address)": {
        "params": {
          "reward": "The reward token."
        }
      },
      "finishDistribution(address)": {
        "params": {
          "reward": "The reward token."
        }
      },
      "getRoleAdmin(bytes32)": {
        "details": "Returns the admin role that controls `role`. See {grantRole} and {revokeRole}. To change a role's admin, use {_setRoleAdmin}."
      },
      "globalIndex(address)": {
        "params": {
          "reward": "The reward token."
        },
        "returns": {
          "_0": "The global index."
        }
      },
      "grantRole(bytes32,address)": {
        "details": "Grants `role` to `account`. If `account` had not been already granted `role`, emits a {RoleGranted} event. Requirements: - the caller must have ``role``'s admin role. May emit a {RoleGranted} event."
      },
      "harvest()": {
        "details": "This function withdraws the maximum allowable assets from the provider's market, calculates the portion to be distributed as rewards based on `providerRatio`, deposits any remaining assets back into savings, and notifies the contract of the new reward amount."
      },
      "hasRole(bytes32,address)": {
        "details": "Returns `true` if `account` has been granted `role`."
      },
      "initialize((address,uint256,uint256,uint256,uint256,uint256,address,address,address,uint40,uint256))": {
        "details": "can only be called once.",
        "params": {
          "p": "The parameters for initialization."
        }
      },
      "lastTimeRewardApplicable(uint256)": {
        "params": {
          "finishAt": "The time when the reward period finishes."
        },
        "returns": {
          "_0": "The last applicable time."
        }
      },
      "maxDeposit(address)": {
        "details": "See {IERC4626-maxDeposit}. "
      },
      "maxMint(address)": {
        "details": "See {IERC4626-maxMint}. "
      },
      "maxRedeem(address)": {
        "details": "See {IERC4626-maxRedeem}. "
      },
      "maxWithdraw(address)": {
        "details": "See {IERC4626-maxWithdraw}. "
      },
      "mint(uint256,address)": {
        "details": "See {IERC4626-mint}. As opposed to {deposit}, minting is allowed even if the vault is in a state where the price of a share is zero. In this case, the shares will be minted without requiring any assets to be deposited."
      },
      "name()": {
        "details": "Returns the name of the token."
      },
      "nonces(address)": {
        "details": "Returns the current nonce for `owner`. This value must be included whenever a signature is generated for {permit}. Every successful call to {permit} increases ``owner``'s nonce by one. This prevents a signature from being used multiple times."
      },
      "notifyRewardAmount(address,uint256)": {
        "params": {
          "amount": "The amount of reward tokens.",
          "reward": "The reward token."
        }
      },
      "paused()": {
        "details": "Returns true if the contract is paused, and false otherwise."
      },
      "permit(address,address,uint256,uint256,uint8,bytes32,bytes32)": {
        "details": "Sets `value` as the allowance of `spender` over ``owner``'s tokens, given ``owner``'s signed approval. IMPORTANT: The same issues {IERC20-approve} has related to transaction ordering also apply here. Emits an {Approval} event. Requirements: - `spender` cannot be the zero address. - `deadline` must be a timestamp in the future. - `v`, `r` and `s` must be a valid `secp256k1` signature from `owner` over the EIP712-formatted function arguments. - the signature must use ``owner``'s current nonce (see {nonces}). For more information on the signature format, see the https://eips.ethereum.org/EIPS/eip-2612#specification[relevant EIP section]. CAUTION: See Security Considerations above."
      },
      "permitAndDeposit(uint256,address,(uint256,uint256,uint8,bytes32,bytes32))": {
        "params": {
          "assets": "The amount of assets to deposit.",
          "p": "The permit parameters.",
          "receiver": "The address receiving the deposited assets."
        },
        "returns": {
          "_0": "The number of shares received."
        }
      },
      "previewDeposit(uint256)": {
        "details": "See {IERC4626-previewDeposit}. "
      },
      "previewMint(uint256)": {
        "details": "See {IERC4626-previewMint}. "
      },
      "previewRedeem(uint256)": {
        "details": "See {IERC4626-previewRedeem}. "
      },
      "previewWithdraw(uint256)": {
        "details": "See {IERC4626-previewWithdraw}. "
      },
      "rawClaimable(address,address,uint256)": {
        "params": {
          "account": "The account.",
          "reward": "The reward token.",
          "shares": "The amount of shares of the account involved."
        },
        "returns": {
          "_0": "The raw claimable rewards."
        }
      },
      "redeem(uint256,address,address)": {
        "details": "See {IERC4626-redeem}. "
      },
      "renounceRole(bytes32,address)": {
        "details": "Revokes `role` from the calling account. Roles are often managed via {grantRole} and {revokeRole}: this function's purpose is to provide a mechanism for accounts to lose their privileges if they are compromised (such as when a trusted device is misplaced). If the calling account had been revoked `role`, emits a {RoleRevoked} event. Requirements: - the caller must be `callerConfirmation`. May emit a {RoleRevoked} event."
      },
      "revokeRole(bytes32,address)": {
        "details": "Revokes `role` from `account`. If `account` had been granted `role`, emits a {RoleRevoked} event. Requirements: - the caller must have ``role``'s admin role. May emit a {RoleRevoked} event."
      },
      "setMarket(address)": {
        "params": {
          "market_": "The new market."
        }
      },
      "setMinTime(uint256)": {
        "params": {
          "minTime_": "The new minimum time."
        }
      },
      "setPenaltyGrowth(uint256)": {
        "params": {
          "penaltyGrowth_": "The new penalty growth factor."
        }
      },
      "setPenaltyThreshold(uint256)": {
        "params": {
          "penaltyThreshold_": "The new penalty threshold."
        }
      },
      "setProvider(address)": {
        "params": {
          "provider_": "The new provider address."
        }
      },
      "setProviderRatio(uint256)": {
        "params": {
          "providerRatio_": "The new provider ratio."
        }
      },
      "setRewardsDuration(address,uint40)": {
        "details": "Can only change the duration if the reward is finished.",
        "params": {
          "duration": "The new duration.",
          "reward": "The reward token."
        }
      },
      "setSavings(address)": {
        "params": {
          "savings_": "The new savings address."
        }
      },
      "supportsInterface(bytes4)": {
        "details": "See {IERC165-supportsInterface}."
      },
      "symbol()": {
        "details": "Returns the symbol of the token, usually a shorter version of the name."
      },
      "totalAssets()": {
        "returns": {
          "_0": "The total assets."
        }
      },
      "totalSupply()": {
        "details": "See {IERC20-totalSupply}."
      },
      "transfer(address,uint256)": {
        "details": "See {IERC20-transfer}. Requirements: - `to` cannot be the zero address. - the caller must have a balance of at least `value`."
      },
      "transferFrom(address,address,uint256)": {
        "details": "See {IERC20-transferFrom}. Emits an {Approval} event indicating the updated allowance. This is not required by the EIP. See the note at the beginning of {ERC20}. NOTE: Does not update the allowance if the current allowance is the maximum `uint256`. Requirements: - `from` and `to` cannot be the zero address. - `from` must have a balance of at least `value`. - the caller must have allowance for ``from``'s tokens of at least `value`."
      },
      "withdraw(uint256,address,address)": {
        "details": "See {IERC4626-withdraw}. "
      },
      "withdrawRewards(address,uint256)": {
        "params": {
          "amount": "The amount of reward tokens to withdraw.",
          "reward": "The reward token."
        }
      }
    },
    "title": "StakedEXA Contract",
    "version": 1
  },
  "userdoc": {
    "kind": "user",
    "methods": {
      "CLOCK_MODE()": {
        "notice": "Returns the current clock mode of stEXA, as per ERC-6372."
      },
      "MAX_REWARDS_TOKENS()": {
        "notice": "Maximum amount of rewards token."
      },
      "allRewardsTokens()": {
        "notice": "Returns all reward tokens."
      },
      "avgIndex(address,address)": {
        "notice": "Returns the average index for a reward token and account."
      },
      "avgIndexes(address,address)": {
        "notice": "Accounts average indexes per reward token."
      },
      "avgStart(address)": {
        "notice": "Average starting time with the tokens staked per account."
      },
      "claim(address)": {
        "notice": "Claims rewards for a specific reward token."
      },
      "claimAll()": {
        "notice": "Claims rewards for all reward tokens."
      },
      "claimable(address,address,uint256)": {
        "notice": "Calculates the claimable rewards for an account."
      },
      "claimed(address,address)": {
        "notice": "Accounts claimed rewards per reward token."
      },
      "clock()": {
        "notice": "Returns the current timepoint of stEXA, as per ERC-6372."
      },
      "decimals()": {
        "notice": "Returns the number of decimals used by the token."
      },
      "earned(address,address,uint256)": {
        "notice": "Calculates the earned rewards for an account, without considering penalties."
      },
      "enableReward(address)": {
        "notice": "Enables a new reward token."
      },
      "excessFactor()": {
        "notice": "Discount factor for excess exposure. Not possible to change after initilization."
      },
      "finishDistribution(address)": {
        "notice": "Finishes the distribution of a reward token."
      },
      "globalIndex(address)": {
        "notice": "Returns the global index for a reward token."
      },
      "harvest()": {
        "notice": "Harvests provider's market assets as rewards to be distributed among stakers."
      },
      "initialize((address,uint256,uint256,uint256,uint256,uint256,address,address,address,uint40,uint256))": {
        "notice": "Initializes the contract."
      },
      "lastTimeRewardApplicable(uint256)": {
        "notice": "Returns the last time rewards are applicable."
      },
      "market()": {
        "notice": "market from which to harvest."
      },
      "minTime()": {
        "notice": "Minimum time to stake and get rewards."
      },
      "notifyRewardAmount(address,uint256)": {
        "notice": "Notifies the contract about a reward amount."
      },
      "pause()": {
        "notice": "Sets the pause state to true in case of emergency, triggered by an authorized account."
      },
      "penaltyGrowth()": {
        "notice": "Penalty growth factor."
      },
      "penaltyThreshold()": {
        "notice": "Threshold penalty factor for withdrawing before the reference time."
      },
      "permitAndDeposit(uint256,address,(uint256,uint256,uint8,bytes32,bytes32))": {
        "notice": "Permits a spender and deposits assets in a single transaction."
      },
      "provider()": {
        "notice": "provider of rewards when harvesting."
      },
      "providerRatio()": {
        "notice": "ratio of withdrawn assets to provide when harvesting. The rest goes to savings"
      },
      "rawClaimable(address,address,uint256)": {
        "notice": "Calculates the raw claimable rewards for an account, without considering already claimed rewards."
      },
      "refTime()": {
        "notice": "Reference period to stake and get full rewards. Not possible to change after initilization."
      },
      "rewards(address)": {
        "notice": "Rewards data per token."
      },
      "rewardsTokens(uint256)": {
        "notice": "Rewards tokens."
      },
      "saved(address,address)": {
        "notice": "Accounts saved rewards per reward token."
      },
      "savings()": {
        "notice": "savings address to send the rewards."
      },
      "setMarket(address)": {
        "notice": "Sets the market."
      },
      "setMinTime(uint256)": {
        "notice": "Sets the minimum time to stake for rewards."
      },
      "setPenaltyGrowth(uint256)": {
        "notice": "Sets the penalty growth factor."
      },
      "setPenaltyThreshold(uint256)": {
        "notice": "Sets the penalty threshold."
      },
      "setProvider(address)": {
        "notice": "Sets the provider address."
      },
      "setProviderRatio(uint256)": {
        "notice": "Sets the provider ratio."
      },
      "setRewardsDuration(address,uint40)": {
        "notice": "Sets the rewards duration for a reward token."
      },
      "setSavings(address)": {
        "notice": "Sets the savings address."
      },
      "totalAssets()": {
        "notice": "Returns the total assets of the contract."
      },
      "unpause()": {
        "notice": "Sets the pause state to false when threat is gone, triggered by an authorized account."
      },
      "withdrawRewards(address,uint256)": {
        "notice": "Withdraws `amount` of `reward` from contract to `savings`."
      }
    },
    "notice": "This contract allows users to stake EXA tokens and earn rewards. The rewards are subject to a penalty if the staking duration is not optimal. The optimal staking duration is defined by `refTime`. Staking for a duration less than `minTime` results in no rewards, the closer the staking duration is to `refTime`, the lower the penalty.",
    "version": 1
  },
  "storageLayout": {
    "storage": [
      {
        "astId": 31625,
        "contract": "contracts/StakedEXA.sol:StakedEXA",
        "label": "rewardsTokens",
        "offset": 0,
        "slot": "0",
        "type": "t_array(t_contract(IERC20)16592)dyn_storage"
      },
      {
        "astId": 31632,
        "contract": "contracts/StakedEXA.sol:StakedEXA",
        "label": "minTime",
        "offset": 0,
        "slot": "1",
        "type": "t_uint256"
      },
      {
        "astId": 31635,
        "contract": "contracts/StakedEXA.sol:StakedEXA",
        "label": "refTime",
        "offset": 0,
        "slot": "2",
        "type": "t_uint256"
      },
      {
        "astId": 31638,
        "contract": "contracts/StakedEXA.sol:StakedEXA",
        "label": "excessFactor",
        "offset": 0,
        "slot": "3",
        "type": "t_uint256"
      },
      {
        "astId": 31641,
        "contract": "contracts/StakedEXA.sol:StakedEXA",
        "label": "penaltyGrowth",
        "offset": 0,
        "slot": "4",
        "type": "t_uint256"
      },
      {
        "astId": 31644,
        "contract": "contracts/StakedEXA.sol:StakedEXA",
        "label": "penaltyThreshold",
        "offset": 0,
        "slot": "5",
        "type": "t_uint256"
      },
      {
        "astId": 31648,
        "contract": "contracts/StakedEXA.sol:StakedEXA",
        "label": "market",
        "offset": 0,
        "slot": "6",
        "type": "t_contract(Market)27481"
      },
      {
        "astId": 31651,
        "contract": "contracts/StakedEXA.sol:StakedEXA",
        "label": "provider",
        "offset": 0,
        "slot": "7",
        "type": "t_address"
      },
      {
        "astId": 31654,
        "contract": "contracts/StakedEXA.sol:StakedEXA",
        "label": "savings",
        "offset": 0,
        "slot": "8",
        "type": "t_address"
      },
      {
        "astId": 31657,
        "contract": "contracts/StakedEXA.sol:StakedEXA",
        "label": "providerRatio",
        "offset": 0,
        "slot": "9",
        "type": "t_uint256"
      },
      {
        "astId": 31664,
        "contract": "contracts/StakedEXA.sol:StakedEXA",
        "label": "rewards",
        "offset": 0,
        "slot": "10",
        "type": "t_mapping(t_contract(IERC20)16592,t_struct(RewardData)33876_storage)"
      },
      {
        "astId": 31669,
        "contract": "contracts/StakedEXA.sol:StakedEXA",
        "label": "avgStart",
        "offset": 0,
        "slot": "11",
        "type": "t_mapping(t_address,t_uint256)"
      },
      {
        "astId": 31677,
        "contract": "contracts/StakedEXA.sol:StakedEXA",
        "label": "avgIndexes",
        "offset": 0,
        "slot": "12",
        "type": "t_mapping(t_address,t_mapping(t_contract(IERC20)16592,t_uint256))"
      },
      {
        "astId": 31685,
        "contract": "contracts/StakedEXA.sol:StakedEXA",
        "label": "claimed",
        "offset": 0,
        "slot": "13",
        "type": "t_mapping(t_address,t_mapping(t_contract(IERC20)16592,t_uint256))"
      },
      {
        "astId": 31693,
        "contract": "contracts/StakedEXA.sol:StakedEXA",
        "label": "saved",
        "offset": 0,
        "slot": "14",
        "type": "t_mapping(t_address,t_mapping(t_contract(IERC20)16592,t_uint256))"
      }
    ],
    "types": {
      "t_address": {
        "encoding": "inplace",
        "label": "address",
        "numberOfBytes": "20"
      },
      "t_array(t_contract(IERC20)16592)dyn_storage": {
        "base": "t_contract(IERC20)16592",
        "encoding": "dynamic_array",
        "label": "contract IERC20[]",
        "numberOfBytes": "32"
      },
      "t_contract(IERC20)16592": {
        "encoding": "inplace",
        "label": "contract IERC20",
        "numberOfBytes": "20"
      },
      "t_contract(Market)27481": {
        "encoding": "inplace",
        "label": "contract Market",
        "numberOfBytes": "20"
      },
      "t_mapping(t_address,t_mapping(t_contract(IERC20)16592,t_uint256))": {
        "encoding": "mapping",
        "key": "t_address",
        "label": "mapping(address => mapping(contract IERC20 => uint256))",
        "numberOfBytes": "32",
        "value": "t_mapping(t_contract(IERC20)16592,t_uint256)"
      },
      "t_mapping(t_address,t_uint256)": {
        "encoding": "mapping",
        "key": "t_address",
        "label": "mapping(address => uint256)",
        "numberOfBytes": "32",
        "value": "t_uint256"
      },
      "t_mapping(t_contract(IERC20)16592,t_struct(RewardData)33876_storage)": {
        "encoding": "mapping",
        "key": "t_contract(IERC20)16592",
        "label": "mapping(contract IERC20 => struct RewardData)",
        "numberOfBytes": "32",
        "value": "t_struct(RewardData)33876_storage"
      },
      "t_mapping(t_contract(IERC20)16592,t_uint256)": {
        "encoding": "mapping",
        "key": "t_contract(IERC20)16592",
        "label": "mapping(contract IERC20 => uint256)",
        "numberOfBytes": "32",
        "value": "t_uint256"
      },
      "t_struct(RewardData)33876_storage": {
        "encoding": "inplace",
        "label": "struct RewardData",
        "members": [
          {
            "astId": 33866,
            "contract": "contracts/StakedEXA.sol:StakedEXA",
            "label": "duration",
            "offset": 0,
            "slot": "0",
            "type": "t_uint40"
          },
          {
            "astId": 33868,
            "contract": "contracts/StakedEXA.sol:StakedEXA",
            "label": "finishAt",
            "offset": 5,
            "slot": "0",
            "type": "t_uint40"
          },
          {
            "astId": 33870,
            "contract": "contracts/StakedEXA.sol:StakedEXA",
            "label": "updatedAt",
            "offset": 10,
            "slot": "0",
            "type": "t_uint40"
          },
          {
            "astId": 33872,
            "contract": "contracts/StakedEXA.sol:StakedEXA",
            "label": "index",
            "offset": 0,
            "slot": "1",
            "type": "t_uint256"
          },
          {
            "astId": 33875,
            "contract": "contracts/StakedEXA.sol:StakedEXA",
            "label": "rate",
            "offset": 0,
            "slot": "2",
            "type": "t_uint256"
          }
        ],
        "numberOfBytes": "96"
      },
      "t_uint256": {
        "encoding": "inplace",
        "label": "uint256",
        "numberOfBytes": "32"
      },
      "t_uint40": {
        "encoding": "inplace",
        "label": "uint40",
        "numberOfBytes": "5"
      }
    }
  }
}