{
  "address": "0x9C36Ff0412Ab4C03606eb1fefB8CaC177B1577c6",
  "abi": [
    {
      "inputs": [
        {
          "internalType": "contract ERC20",
          "name": "exa_",
          "type": "address"
        },
        {
          "internalType": "contract WETH",
          "name": "weth_",
          "type": "address"
        },
        {
          "internalType": "contract IPool",
          "name": "pool_",
          "type": "address"
        },
        {
          "internalType": "address",
          "name": "socket_",
          "type": "address"
        },
        {
          "internalType": "contract IPermit2",
          "name": "permit2_",
          "type": "address"
        }
      ],
      "stateMutability": "nonpayable",
      "type": "constructor"
    },
    {
      "inputs": [],
      "name": "exa",
      "outputs": [
        {
          "internalType": "contract ERC20",
          "name": "",
          "type": "address"
        }
      ],
      "stateMutability": "view",
      "type": "function"
    },
    {
      "inputs": [],
      "name": "permit2",
      "outputs": [
        {
          "internalType": "contract IPermit2",
          "name": "",
          "type": "address"
        }
      ],
      "stateMutability": "view",
      "type": "function"
    },
    {
      "inputs": [],
      "name": "pool",
      "outputs": [
        {
          "internalType": "contract IPool",
          "name": "",
          "type": "address"
        }
      ],
      "stateMutability": "view",
      "type": "function"
    },
    {
      "inputs": [],
      "name": "socket",
      "outputs": [
        {
          "internalType": "address",
          "name": "",
          "type": "address"
        }
      ],
      "stateMutability": "view",
      "type": "function"
    },
    {
      "inputs": [
        {
          "internalType": "contract ERC20",
          "name": "asset",
          "type": "address"
        },
        {
          "components": [
            {
              "internalType": "uint256",
              "name": "amount",
              "type": "uint256"
            },
            {
              "internalType": "uint256",
              "name": "deadline",
              "type": "uint256"
            },
            {
              "internalType": "bytes",
              "name": "signature",
              "type": "bytes"
            }
          ],
          "internalType": "struct Permit2",
          "name": "permit",
          "type": "tuple"
        },
        {
          "internalType": "bytes",
          "name": "socketData",
          "type": "bytes"
        },
        {
          "internalType": "uint256",
          "name": "minEXA",
          "type": "uint256"
        },
        {
          "internalType": "uint256",
          "name": "keepETH",
          "type": "uint256"
        }
      ],
      "name": "swap",
      "outputs": [],
      "stateMutability": "nonpayable",
      "type": "function"
    },
    {
      "inputs": [
        {
          "internalType": "address payable",
          "name": "account",
          "type": "address"
        },
        {
          "internalType": "uint256",
          "name": "minEXA",
          "type": "uint256"
        },
        {
          "internalType": "uint256",
          "name": "keepETH",
          "type": "uint256"
        }
      ],
      "name": "swap",
      "outputs": [],
      "stateMutability": "payable",
      "type": "function"
    },
    {
      "inputs": [
        {
          "internalType": "contract ERC20",
          "name": "asset",
          "type": "address"
        },
        {
          "components": [
            {
              "internalType": "uint256",
              "name": "value",
              "type": "uint256"
            },
            {
              "internalType": "uint256",
              "name": "deadline",
              "type": "uint256"
            },
            {
              "internalType": "uint8",
              "name": "v",
              "type": "uint8"
            },
            {
              "internalType": "bytes32",
              "name": "r",
              "type": "bytes32"
            },
            {
              "internalType": "bytes32",
              "name": "s",
              "type": "bytes32"
            }
          ],
          "internalType": "struct Permit",
          "name": "permit",
          "type": "tuple"
        },
        {
          "internalType": "bytes",
          "name": "socketData",
          "type": "bytes"
        },
        {
          "internalType": "uint256",
          "name": "minEXA",
          "type": "uint256"
        },
        {
          "internalType": "uint256",
          "name": "keepETH",
          "type": "uint256"
        }
      ],
      "name": "swap",
      "outputs": [],
      "stateMutability": "nonpayable",
      "type": "function"
    },
    {
      "inputs": [
        {
          "internalType": "contract ERC20",
          "name": "asset",
          "type": "address"
        },
        {
          "internalType": "uint256",
          "name": "amount",
          "type": "uint256"
        },
        {
          "internalType": "bytes",
          "name": "socketData",
          "type": "bytes"
        },
        {
          "internalType": "uint256",
          "name": "minEXA",
          "type": "uint256"
        },
        {
          "internalType": "uint256",
          "name": "keepETH",
          "type": "uint256"
        }
      ],
      "name": "swap",
      "outputs": [],
      "stateMutability": "nonpayable",
      "type": "function"
    },
    {
      "inputs": [],
      "name": "weth",
      "outputs": [
        {
          "internalType": "contract WETH",
          "name": "",
          "type": "address"
        }
      ],
      "stateMutability": "view",
      "type": "function"
    },
    {
      "stateMutability": "payable",
      "type": "receive"
    }
  ],
  "transactionHash": "0x779a8efb51b02e5190a09dad69e95b906eb56b182945d222b67990140f34a96f",
  "args": [
    "0x1e925De1c68ef83bD98eE3E130eF14a50309C01B",
    "0x4200000000000000000000000000000000000006",
    "0xf3C45b45223Df6071a478851B9C17e0630fDf535",
    "0x3a23F943181408EAC424116Af7b7790c94Cb97a5",
    "0x000000000022D473030F116dDEE9F6B43aC78BA3"
  ],
  "numDeployments": 1,
  "solcInputHash": "475bbcfc934e966385964b81d414cf28",
  "bytecode": "0x61012060405234801561001157600080fd5b50604051620010b4380380620010b483398101604081905261003291610073565b6001600160a01b0394851660805292841660a05290831660c052821660e05216610100526100e8565b6001600160a01b038116811461007057600080fd5b50565b600080600080600060a0868803121561008b57600080fd5b85516100968161005b565b60208701519095506100a78161005b565b60408701519094506100b88161005b565b60608701519093506100c98161005b565b60808701519092506100da8161005b565b809150509295509295909350565b60805160a05160c05160e05161010051610f356200017f6000396000818160a801526102ad01526000818161012c01528181610346015281816103af01526107c801526000818160f8015281816104ce0152818161060101526106d1015260008181610160015281816104a00152818161055f015281816105dd015261062d0152600081816101b601526106570152610f356000f3fe60806040526004361061008a5760003560e01c806365bb797b1161005957806365bb797b146101825780637965b636146101a45780639f1d0f59146101d8578063bd806218146101eb578063d084211a1461020b57600080fd5b806312261ee71461009657806316f0115b146100e657806322c8f6cd1461011a5780633fc8cef31461014e57600080fd5b3661009157005b600080fd5b3480156100a257600080fd5b506100ca7f000000000000000000000000000000000000000000000000000000000000000081565b6040516001600160a01b03909116815260200160405180910390f35b3480156100f257600080fd5b506100ca7f000000000000000000000000000000000000000000000000000000000000000081565b34801561012657600080fd5b506100ca7f000000000000000000000000000000000000000000000000000000000000000081565b34801561015a57600080fd5b506100ca7f000000000000000000000000000000000000000000000000000000000000000081565b34801561018e57600080fd5b506101a261019d366004610be9565b61022b565b005b3480156101b057600080fd5b506100ca7f000000000000000000000000000000000000000000000000000000000000000081565b6101a26101e6366004610c7c565b610457565b3480156101f757600080fd5b506101a2610206366004610cb1565b610753565b34801561021757600080fd5b506101a2610226366004610d34565b6107a4565b6040805160a080820183526001600160a01b0389811660608085018281528b3560808088018290529187528751336020808301829052828b0196909652938101829052848e01358184018190528951808303909401845296018852815191840191909120838701528587019490945285518087018752308152918201939093527f0000000000000000000000000000000000000000000000000000000000000000909116936330f28b7a9392906102e4908b018b610d87565b6040518663ffffffff1660e01b8152600401610304959493929190610dce565b600060405180830381600087803b15801561031e57600080fd5b505af1158015610332573d6000803e3d6000fd5b5061036c925050506001600160a01b0387167f000000000000000000000000000000000000000000000000000000000000000087356107e9565b60006103d885858080601f016020809104026020016040519081016040528093929190818152602001838380828437600092019190915250506001600160a01b037f00000000000000000000000000000000000000000000000000000000000000001692915050610838565b8060200190518101906103eb9190610e51565b604051639f1d0f5960e01b815233600482015260248101859052604481018490529091503090639f1d0f599083906064016000604051808303818588803b15801561043557600080fd5b505af1158015610449573d6000803e3d6000fd5b505050505050505050505050565b348110610476576104716001600160a01b03841634610885565b505050565b60006104828234610e80565b6040516378a051ad60e11b8152600481018290526001600160a01b037f0000000000000000000000000000000000000000000000000000000000000000811660248301529192506000917f0000000000000000000000000000000000000000000000000000000000000000169063f140a35a90604401602060405180830381865afa158015610515573d6000803e3d6000fd5b505050506040513d601f19601f820116820180604052508101906105399190610e51565b90508381101561055d576105566001600160a01b03861634610885565b5050505050565b7f00000000000000000000000000000000000000000000000000000000000000006001600160a01b031663d0e30db0836040518263ffffffff1660e01b81526004016000604051808303818588803b1580156105b857600080fd5b505af11580156105cc573d6000803e3d6000fd5b506106289350506001600160a01b037f00000000000000000000000000000000000000000000000000000000000000001691507f000000000000000000000000000000000000000000000000000000000000000090508461089d565b6000807f00000000000000000000000000000000000000000000000000000000000000006001600160a01b03167f00000000000000000000000000000000000000000000000000000000000000006001600160a01b03161061068c57600083610690565b8260005b60405163022c0d9f60e01b815260048101839052602481018290526001600160a01b038a8116604483015260806064830152600060848301529294509092507f00000000000000000000000000000000000000000000000000000000000000009091169063022c0d9f9060a401600060405180830381600087803b15801561071757600080fd5b505af115801561072b573d6000803e3d6000fd5b505050508460001461074a5761074a6001600160a01b03881686610885565b50505050505050565b61078d33308735602089013561076f60608b0160408c01610e93565b6001600160a01b038c16949392919060608c013560808d01356108e6565b61079c868635868686866107a4565b505050505050565b6107b96001600160a01b038716333088610a6f565b61036c6001600160a01b0387167f0000000000000000000000000000000000000000000000000000000000000000875b600060405163095ea7b360e01b6000528360045282602452602060006044600080895af13d15601f3d116001600051141617169150600060605280604052508061083257600080fd5b50505050565b606061087c838360006040518060400160405280601e81526020017f416464726573733a206c6f772d6c6576656c2063616c6c206661696c65640000815250610abc565b90505b92915050565b600080600080600085875af190508061047157600080fd5b600060405163a9059cbb60e01b6000528360045282602452602060006044600080895af13d15601f3d116001600051141617169150600060605280604052508061083257600080fd5b604051623f675f60e91b81526001600160a01b038881166004830152600091908a1690637ecebe0090602401602060405180830381865afa15801561092f573d6000803e3d6000fd5b505050506040513d601f19601f820116820180604052508101906109539190610e51565b60405163d505accf60e01b81526001600160a01b038a811660048301528981166024830152604482018990526064820188905260ff8716608483015260a4820186905260c48201859052919250908a169063d505accf9060e401600060405180830381600087803b1580156109c757600080fd5b505af11580156109db573d6000803e3d6000fd5b5050604051623f675f60e91b81526001600160a01b038b81166004830152600093508c169150637ecebe0090602401602060405180830381865afa158015610a27573d6000803e3d6000fd5b505050506040513d601f19601f82011682018060405250810190610a4b9190610e51565b9050610a58826001610ebd565b8114610a6357600080fd5b50505050505050505050565b60006040516323b872dd60e01b6000528460045283602452826044526020600060646000808a5af13d15601f3d116001600051141617169150600060605280604052508061055657600080fd5b606082471015610acb57600080fd5b600080866001600160a01b03168587604051610ae79190610ed0565b60006040518083038185875af1925050503d8060008114610b24576040519150601f19603f3d011682016040523d82523d6000602084013e610b29565b606091505b5091509150610b3a87838387610b47565b925050505b949350505050565b60608315610b73578251600003610b6c576001600160a01b0385163b610b6c57600080fd5b5081610b3f565b610b3f83838151156100915781518083602001fd5b6001600160a01b0381168114610b9d57600080fd5b50565b60008083601f840112610bb257600080fd5b50813567ffffffffffffffff811115610bca57600080fd5b602083019150836020828501011115610be257600080fd5b9250929050565b60008060008060008060a08789031215610c0257600080fd5b8635610c0d81610b88565b9550602087013567ffffffffffffffff80821115610c2a57600080fd5b908801906060828b031215610c3e57600080fd5b90955060408801359080821115610c5457600080fd5b50610c6189828a01610ba0565b979a9699509760608101359660809091013595509350505050565b600080600060608486031215610c9157600080fd5b8335610c9c81610b88565b95602085013595506040909401359392505050565b600080600080600080868803610120811215610ccc57600080fd5b8735610cd781610b88565b965060a0601f1982011215610ceb57600080fd5b5060208701945060c087013567ffffffffffffffff811115610d0c57600080fd5b610d1889828a01610ba0565b979a9699509760e0810135966101009091013595509350505050565b60008060008060008060a08789031215610d4d57600080fd5b8635610d5881610b88565b955060208701359450604087013567ffffffffffffffff811115610d7b57600080fd5b610c6189828a01610ba0565b6000808335601e19843603018112610d9e57600080fd5b83018035915067ffffffffffffffff821115610db957600080fd5b602001915036819003821315610be257600080fd5b855180516001600160a01b039081168352602091820151828401528188015160408085019190915288015160608401528651811660808401529086015160a0830152841660c082015261010060e08201819052810182905260006101208385828501376000838501820152601f909301601f191690910190910195945050505050565b600060208284031215610e6357600080fd5b5051919050565b634e487b7160e01b600052601160045260246000fd5b8181038181111561087f5761087f610e6a565b600060208284031215610ea557600080fd5b813560ff81168114610eb657600080fd5b9392505050565b8082018082111561087f5761087f610e6a565b6000825160005b81811015610ef15760208186018101518583015201610ed7565b50600092019182525091905056fea2646970667358221220f3151f51b582d71ca79e8636afeefd976014e623ad65087281fe2a11894a089764736f6c63430008110033",
  "devdoc": {
    "kind": "dev",
    "methods": {
      "constructor": {
        "custom:oz-upgrades-unsafe-allow": "constructor"
      },
      "swap(address,uint256,uint256)": {
        "params": {
          "account": "The account to send the EXA to.",
          "keepETH": "The amount of ETH to send to `account` (ex: for gas).",
          "minEXA": "The minimum amount of EXA to receive."
        }
      }
    },
    "stateVariables": {
      "exa": {
        "custom:oz-upgrades-unsafe-allow": "state-variable-immutable"
      },
      "permit2": {
        "custom:oz-upgrades-unsafe-allow": "state-variable-immutable"
      },
      "pool": {
        "custom:oz-upgrades-unsafe-allow": "state-variable-immutable"
      },
      "socket": {
        "custom:oz-upgrades-unsafe-allow": "state-variable-immutable"
      },
      "weth": {
        "custom:oz-upgrades-unsafe-allow": "state-variable-immutable"
      }
    },
    "version": 1
  },
  "userdoc": {
    "kind": "user",
    "methods": {
      "exa()": {
        "notice": "The EXA asset."
      },
      "permit2()": {
        "notice": "Permit2 contract to be used to transfer assets from accounts."
      },
      "pool()": {
        "notice": "The liquidity pool."
      },
      "socket()": {
        "notice": "Socket Gateway address."
      },
      "swap(address,uint256,uint256)": {
        "notice": "Swaps `msg.value` ETH for EXA and sends it to `account`."
      },
      "weth()": {
        "notice": "The WETH asset."
      }
    },
    "version": 1
  },
  "storageLayout": {
    "storage": [],
    "types": null
  }
}