{
  "address": "0x543E3e0eF9a0FF2D24b5E412763F637A2aD10ae9",
  "abi": [
    {
      "inputs": [
        {
          "internalType": "address",
          "name": "exa_",
          "type": "address"
        },
        {
          "internalType": "contract IPool",
          "name": "pool_",
          "type": "address"
        },
        {
          "internalType": "contract IERC20",
          "name": "gauge_",
          "type": "address"
        },
        {
          "internalType": "contract IBeefyVault",
          "name": "beefyVault_",
          "type": "address"
        },
        {
          "internalType": "contract IERC20",
          "name": "beefyBoost_",
          "type": "address"
        },
        {
          "internalType": "contract IExtraLending",
          "name": "extraLending_",
          "type": "address"
        },
        {
          "internalType": "uint256",
          "name": "extraReserveId_",
          "type": "uint256"
        }
      ],
      "stateMutability": "nonpayable",
      "type": "constructor"
    },
    {
      "inputs": [],
      "name": "beefyBoost",
      "outputs": [
        {
          "internalType": "contract IERC20",
          "name": "",
          "type": "address"
        }
      ],
      "stateMutability": "view",
      "type": "function"
    },
    {
      "inputs": [],
      "name": "beefyVault",
      "outputs": [
        {
          "internalType": "contract IBeefyVault",
          "name": "",
          "type": "address"
        }
      ],
      "stateMutability": "view",
      "type": "function"
    },
    {
      "inputs": [],
      "name": "exa",
      "outputs": [
        {
          "internalType": "address",
          "name": "",
          "type": "address"
        }
      ],
      "stateMutability": "view",
      "type": "function"
    },
    {
      "inputs": [
        {
          "internalType": "address",
          "name": "account",
          "type": "address"
        }
      ],
      "name": "externalVotes",
      "outputs": [
        {
          "internalType": "uint256",
          "name": "votes",
          "type": "uint256"
        }
      ],
      "stateMutability": "view",
      "type": "function"
    },
    {
      "inputs": [],
      "name": "extraLending",
      "outputs": [
        {
          "internalType": "contract IExtraLending",
          "name": "",
          "type": "address"
        }
      ],
      "stateMutability": "view",
      "type": "function"
    },
    {
      "inputs": [],
      "name": "extraReserveId",
      "outputs": [
        {
          "internalType": "uint256",
          "name": "",
          "type": "uint256"
        }
      ],
      "stateMutability": "view",
      "type": "function"
    },
    {
      "inputs": [],
      "name": "gauge",
      "outputs": [
        {
          "internalType": "contract IERC20",
          "name": "",
          "type": "address"
        }
      ],
      "stateMutability": "view",
      "type": "function"
    },
    {
      "inputs": [],
      "name": "pool",
      "outputs": [
        {
          "internalType": "contract IPool",
          "name": "",
          "type": "address"
        }
      ],
      "stateMutability": "view",
      "type": "function"
    }
  ],
  "transactionHash": "0x8221584e2f1cc601d653bc84d04d344d8cedb6dacdc547a182d6ff8a00acc4ac",
  "args": [
    "0x1e925De1c68ef83bD98eE3E130eF14a50309C01B",
    "0xf3C45b45223Df6071a478851B9C17e0630fDf535",
    "0x76ec1eF8c0F72ccdFbB661664C6cB0Ac187D2fB5",
    "0xdD84190aF336Ee2831eea88B6783958e8F269de9",
    "0xd50f954e456d1eb53AE9C44860db99c6cDDa78cb",
    "0xBB505c54D71E9e599cB8435b4F0cEEc05fC71cbD",
    50
  ],
  "numDeployments": 2,
  "solcInputHash": "74379a2003e6e3e110efa7bc4a092ec8",
  "bytecode": "0x61016060405234801561001157600080fd5b50604051610d8b380380610d8b8339810160408190526100309161007e565b6001600160a01b0396871660805294861660a05292851660c05290841660e0528316610100529091166101205261014052610110565b6001600160a01b038116811461007b57600080fd5b50565b600080600080600080600060e0888a03121561009957600080fd5b87516100a481610066565b60208901519097506100b581610066565b60408901519096506100c681610066565b60608901519095506100d781610066565b60808901519094506100e881610066565b60a08901519093506100f981610066565b8092505060c0880151905092959891949750929550565b60805160a05160c05160e051610100516101205161014051610bc26101c96000396000818160fd0152818161073a01526108690152600081816101ba01528181610791015261088f015260008181610193015261058101526000818160920152818161060b015261068201526000818161016c015261020001526000818160d60152818161028a01528181610306015281816103c00152818161044701526104c901526000818161013201526103910152610bc26000f3fe608060405234801561001057600080fd5b50600436106100885760003560e01c80639715b12c1161005b5780639715b12c14610154578063a6f19c8414610167578063c47799a71461018e578063db82445c146101b557600080fd5b80630f0d65691461008d57806316f0115b146100d157806340cb3376146100f85780637965b6361461012d575b600080fd5b6100b47f000000000000000000000000000000000000000000000000000000000000000081565b6040516001600160a01b0390911681526020015b60405180910390f35b6100b47f000000000000000000000000000000000000000000000000000000000000000081565b61011f7f000000000000000000000000000000000000000000000000000000000000000081565b6040519081526020016100c8565b6100b47f000000000000000000000000000000000000000000000000000000000000000081565b61011f610162366004610946565b6101dc565b6100b47f000000000000000000000000000000000000000000000000000000000000000081565b6100b47f000000000000000000000000000000000000000000000000000000000000000081565b6100b47f000000000000000000000000000000000000000000000000000000000000000081565b6040516370a0823160e01b81526001600160a01b03828116600483015260009182917f000000000000000000000000000000000000000000000000000000000000000016906370a0823190602401602060405180830381865afa158015610247573d6000803e3d6000fd5b505050506040513d601f19601f8201168201806040525081019061026b919061096a565b6040516370a0823160e01b81526001600160a01b0385811660048301527f000000000000000000000000000000000000000000000000000000000000000016906370a0823190602401602060405180830381865afa1580156102d1573d6000803e3d6000fd5b505050506040513d601f19601f820116820180604052508101906102f5919061096a565b6102ff9190610983565b90506105517f00000000000000000000000000000000000000000000000000000000000000006001600160a01b0316630dfe16816040518163ffffffff1660e01b8152600401602060405180830381865afa158015610362573d6000803e3d6000fd5b505050506040513d601f19601f8201168201806040525081019061038691906109a4565b6001600160a01b03167f00000000000000000000000000000000000000000000000000000000000000006001600160a01b031614610445577f00000000000000000000000000000000000000000000000000000000000000006001600160a01b0316635a76f25e6040518163ffffffff1660e01b8152600401602060405180830381865afa15801561041c573d6000803e3d6000fd5b505050506040513d601f19601f82011682018060405250810190610440919061096a565b6104c7565b7f00000000000000000000000000000000000000000000000000000000000000006001600160a01b031663443cb4bc6040518163ffffffff1660e01b8152600401602060405180830381865afa1580156104a3573d6000803e3d6000fd5b505050506040513d601f19601f820116820180604052508101906104c7919061096a565b7f00000000000000000000000000000000000000000000000000000000000000006001600160a01b03166318160ddd6040518163ffffffff1660e01b8152600401602060405180830381865afa158015610525573d6000803e3d6000fd5b505050506040513d601f19601f82011682018060405250810190610549919061096a565b8391906108f1565b61055b9083610983565b6040516370a0823160e01b81526001600160a01b038581166004830152919350610708917f000000000000000000000000000000000000000000000000000000000000000016906370a0823190602401602060405180830381865afa1580156105c8573d6000803e3d6000fd5b505050506040513d601f19601f820116820180604052508101906105ec919061096a565b6040516370a0823160e01b81526001600160a01b0386811660048301527f000000000000000000000000000000000000000000000000000000000000000016906370a0823190602401602060405180830381865afa158015610652573d6000803e3d6000fd5b505050506040513d601f19601f82011682018060405250810190610676919061096a565b6106809190610983565b7f00000000000000000000000000000000000000000000000000000000000000006001600160a01b03166377c7b8fc6040518163ffffffff1660e01b8152600401602060405180830381865afa1580156106de573d6000803e3d6000fd5b505050506040513d601f19601f82011682018060405250810190610702919061096a565b90610910565b6107129083610983565b60408051600180825281830190925291935060009190602080830190803683370190505090507f00000000000000000000000000000000000000000000000000000000000000008160008151811061076c5761076c6109d7565b602090810291909101015260405163b069e06560e01b81526000906001600160a01b037f0000000000000000000000000000000000000000000000000000000000000000169063b069e065906107c890859089906004016109ed565b600060405180830381865afa1580156107e5573d6000803e3d6000fd5b505050506040513d6000823e601f3d908101601f1916820160405261080d9190810190610a9b565b90506108de81600081518110610825576108256109d7565b60200260200101516060015182600081518110610844576108446109d7565b60200260200101516040015161085a9190610983565b6040516337e2beb760e21b81527f000000000000000000000000000000000000000000000000000000000000000060048201527f00000000000000000000000000000000000000000000000000000000000000006001600160a01b03169063df8afadc90602401602060405180830381865afa1580156106de573d6000803e3d6000fd5b6108e89085610983565b95945050505050565b82820281151584158583048514171661090957600080fd5b0492915050565b60006109258383670de0b6b3a76400006108f1565b90505b92915050565b6001600160a01b038116811461094357600080fd5b50565b60006020828403121561095857600080fd5b81356109638161092e565b9392505050565b60006020828403121561097c57600080fd5b5051919050565b8082018082111561092857634e487b7160e01b600052601160045260246000fd5b6000602082840312156109b657600080fd5b81516109638161092e565b634e487b7160e01b600052604160045260246000fd5b634e487b7160e01b600052603260045260246000fd5b604080825283519082018190526000906020906060840190828701845b82811015610a2657815184529284019290840190600101610a0a565b5050506001600160a01b039490941692019190915250919050565b60405160a0810167ffffffffffffffff81118282101715610a6457610a646109c1565b60405290565b604051601f8201601f1916810167ffffffffffffffff81118282101715610a9357610a936109c1565b604052919050565b60006020808385031215610aae57600080fd5b825167ffffffffffffffff80821115610ac657600080fd5b818501915085601f830112610ada57600080fd5b815181811115610aec57610aec6109c1565b610afa848260051b01610a6a565b818152848101925060a0918202840185019188831115610b1957600080fd5b938501935b82851015610b805780858a031215610b365760008081fd5b610b3e610a41565b8551815286860151610b4f8161092e565b8188015260408681015190820152606080870151908201526080808701519082015284529384019392850192610b1e565b5097965050505050505056fea2646970667358221220cad65858cf65d8ce9fe2e3fbb5f7872edaf6f95c9ea4f7ba28a9722366e9bdda64736f6c63430008110033",
  "devdoc": {
    "kind": "dev",
    "methods": {
      "constructor": {
        "custom:oz-upgrades-unsafe-allow": "constructor"
      }
    },
    "stateVariables": {
      "beefyBoost": {
        "custom:oz-upgrades-unsafe-allow": "state-variable-immutable"
      },
      "beefyVault": {
        "custom:oz-upgrades-unsafe-allow": "state-variable-immutable"
      },
      "exa": {
        "custom:oz-upgrades-unsafe-allow": "state-variable-immutable"
      },
      "extraLending": {
        "custom:oz-upgrades-unsafe-allow": "state-variable-immutable"
      },
      "extraReserveId": {
        "custom:oz-upgrades-unsafe-allow": "state-variable-immutable"
      },
      "gauge": {
        "custom:oz-upgrades-unsafe-allow": "state-variable-immutable"
      },
      "pool": {
        "custom:oz-upgrades-unsafe-allow": "state-variable-immutable"
      }
    },
    "title": "Vote Previewer",
    "version": 1
  },
  "userdoc": {
    "kind": "user",
    "methods": {},
    "notice": "Contract to be consumed by voting strategies.",
    "version": 1
  },
  "storageLayout": {
    "storage": [],
    "types": null
  }
}