{
  "address": "0xEaA8820e223B8E388Ae1406F8750Fb575f433bc4",
  "abi": [
    {
      "inputs": [
        {
          "internalType": "address",
          "name": "exa_",
          "type": "address"
        },
        {
          "internalType": "contract IPool",
          "name": "pool_",
          "type": "address"
        },
        {
          "internalType": "contract IERC20",
          "name": "gauge_",
          "type": "address"
        },
        {
          "internalType": "contract IExtraLending",
          "name": "extraLending_",
          "type": "address"
        },
        {
          "internalType": "uint256",
          "name": "extraReserveId_",
          "type": "uint256"
        }
      ],
      "stateMutability": "nonpayable",
      "type": "constructor"
    },
    {
      "inputs": [],
      "name": "exa",
      "outputs": [
        {
          "internalType": "address",
          "name": "",
          "type": "address"
        }
      ],
      "stateMutability": "view",
      "type": "function"
    },
    {
      "inputs": [
        {
          "internalType": "address",
          "name": "account",
          "type": "address"
        }
      ],
      "name": "externalVotes",
      "outputs": [
        {
          "internalType": "uint256",
          "name": "votes",
          "type": "uint256"
        }
      ],
      "stateMutability": "view",
      "type": "function"
    },
    {
      "inputs": [],
      "name": "extraLending",
      "outputs": [
        {
          "internalType": "contract IExtraLending",
          "name": "",
          "type": "address"
        }
      ],
      "stateMutability": "view",
      "type": "function"
    },
    {
      "inputs": [],
      "name": "extraReserveId",
      "outputs": [
        {
          "internalType": "uint256",
          "name": "",
          "type": "uint256"
        }
      ],
      "stateMutability": "view",
      "type": "function"
    },
    {
      "inputs": [],
      "name": "gauge",
      "outputs": [
        {
          "internalType": "contract IERC20",
          "name": "",
          "type": "address"
        }
      ],
      "stateMutability": "view",
      "type": "function"
    },
    {
      "inputs": [],
      "name": "pool",
      "outputs": [
        {
          "internalType": "contract IPool",
          "name": "",
          "type": "address"
        }
      ],
      "stateMutability": "view",
      "type": "function"
    }
  ],
  "transactionHash": "0x1f692733cf41475de3ec98bfa3603b1a9f4993aa8ce55d91fb1fe0c5dc905b69",
  "args": [
    "0x1e925De1c68ef83bD98eE3E130eF14a50309C01B",
    "0xf3C45b45223Df6071a478851B9C17e0630fDf535",
    "0x76ec1eF8c0F72ccdFbB661664C6cB0Ac187D2fB5",
    "0xBB505c54D71E9e599cB8435b4F0cEEc05fC71cbD",
    50
  ],
  "numDeployments": 1,
  "solcInputHash": "7173c51eba4ba2b2fd6989dd1123d51c",
  "bytecode": "0x61012060405234801561001157600080fd5b50604051610b2b380380610b2b83398101604081905261003091610071565b6001600160a01b0394851660805292841660a05290831660c05290911660e052610100526100dc565b6001600160a01b038116811461006e57600080fd5b50565b600080600080600060a0868803121561008957600080fd5b855161009481610059565b60208701519095506100a581610059565b60408701519094506100b681610059565b60608701519093506100c781610059565b80925050608086015190509295509295909350565b60805160a05160c05160e051610100516109c161016a6000396000818160b00152818161050f015261063e01526000818161014601528181610566015261066401526000818161011f015261018c015260008181606c01528181610216015281816102920152818161034c015281816103d3015261045501526000818160e5015261031d01526109c16000f3fe608060405234801561001057600080fd5b50600436106100625760003560e01c806316f0115b1461006757806340cb3376146100ab5780637965b636146100e05780639715b12c14610107578063a6f19c841461011a578063db82445c14610141575b600080fd5b61008e7f000000000000000000000000000000000000000000000000000000000000000081565b6040516001600160a01b0390911681526020015b60405180910390f35b6100d27f000000000000000000000000000000000000000000000000000000000000000081565b6040519081526020016100a2565b61008e7f000000000000000000000000000000000000000000000000000000000000000081565b6100d2610115366004610745565b610168565b61008e7f000000000000000000000000000000000000000000000000000000000000000081565b61008e7f000000000000000000000000000000000000000000000000000000000000000081565b6040516370a0823160e01b81526001600160a01b03828116600483015260009182917f000000000000000000000000000000000000000000000000000000000000000016906370a0823190602401602060405180830381865afa1580156101d3573d6000803e3d6000fd5b505050506040513d601f19601f820116820180604052508101906101f79190610769565b6040516370a0823160e01b81526001600160a01b0385811660048301527f000000000000000000000000000000000000000000000000000000000000000016906370a0823190602401602060405180830381865afa15801561025d573d6000803e3d6000fd5b505050506040513d601f19601f820116820180604052508101906102819190610769565b61028b9190610782565b90506104dd7f00000000000000000000000000000000000000000000000000000000000000006001600160a01b0316630dfe16816040518163ffffffff1660e01b8152600401602060405180830381865afa1580156102ee573d6000803e3d6000fd5b505050506040513d601f19601f8201168201806040525081019061031291906107a3565b6001600160a01b03167f00000000000000000000000000000000000000000000000000000000000000006001600160a01b0316146103d1577f00000000000000000000000000000000000000000000000000000000000000006001600160a01b0316635a76f25e6040518163ffffffff1660e01b8152600401602060405180830381865afa1580156103a8573d6000803e3d6000fd5b505050506040513d601f19601f820116820180604052508101906103cc9190610769565b610453565b7f00000000000000000000000000000000000000000000000000000000000000006001600160a01b031663443cb4bc6040518163ffffffff1660e01b8152600401602060405180830381865afa15801561042f573d6000803e3d6000fd5b505050506040513d601f19601f820116820180604052508101906104539190610769565b7f00000000000000000000000000000000000000000000000000000000000000006001600160a01b03166318160ddd6040518163ffffffff1660e01b8152600401602060405180830381865afa1580156104b1573d6000803e3d6000fd5b505050506040513d601f19601f820116820180604052508101906104d59190610769565b8391906106f0565b6104e79083610782565b60408051600180825281830190925291935060009190602080830190803683370190505090507f000000000000000000000000000000000000000000000000000000000000000081600081518110610541576105416107d6565b602090810291909101015260405163b069e06560e01b81526000906001600160a01b037f0000000000000000000000000000000000000000000000000000000000000000169063b069e0659061059d90859089906004016107ec565b600060405180830381865afa1580156105ba573d6000803e3d6000fd5b505050506040513d6000823e601f3d908101601f191682016040526105e2919081019061089a565b90506106dd816000815181106105fa576105fa6107d6565b60200260200101516060015182600081518110610619576106196107d6565b60200260200101516040015161062f9190610782565b6040516337e2beb760e21b81527f000000000000000000000000000000000000000000000000000000000000000060048201527f00000000000000000000000000000000000000000000000000000000000000006001600160a01b03169063df8afadc90602401602060405180830381865afa1580156106b3573d6000803e3d6000fd5b505050506040513d601f19601f820116820180604052508101906106d79190610769565b9061070f565b6106e79085610782565b95945050505050565b82820281151584158583048514171661070857600080fd5b0492915050565b60006107248383670de0b6b3a76400006106f0565b90505b92915050565b6001600160a01b038116811461074257600080fd5b50565b60006020828403121561075757600080fd5b81356107628161072d565b9392505050565b60006020828403121561077b57600080fd5b5051919050565b8082018082111561072757634e487b7160e01b600052601160045260246000fd5b6000602082840312156107b557600080fd5b81516107628161072d565b634e487b7160e01b600052604160045260246000fd5b634e487b7160e01b600052603260045260246000fd5b604080825283519082018190526000906020906060840190828701845b8281101561082557815184529284019290840190600101610809565b5050506001600160a01b039490941692019190915250919050565b60405160a0810167ffffffffffffffff81118282101715610863576108636107c0565b60405290565b604051601f8201601f1916810167ffffffffffffffff81118282101715610892576108926107c0565b604052919050565b600060208083850312156108ad57600080fd5b825167ffffffffffffffff808211156108c557600080fd5b818501915085601f8301126108d957600080fd5b8151818111156108eb576108eb6107c0565b6108f9848260051b01610869565b818152848101925060a091820284018501918883111561091857600080fd5b938501935b8285101561097f5780858a0312156109355760008081fd5b61093d610840565b855181528686015161094e8161072d565b818801526040868101519082015260608087015190820152608080870151908201528452938401939285019261091d565b5097965050505050505056fea2646970667358221220024ea1c5040569e3028357353d487596112f14e4c85421126f99de9444ae494164736f6c63430008110033",
  "devdoc": {
    "kind": "dev",
    "methods": {
      "constructor": {
        "custom:oz-upgrades-unsafe-allow": "constructor"
      }
    },
    "stateVariables": {
      "exa": {
        "custom:oz-upgrades-unsafe-allow": "state-variable-immutable"
      },
      "extraLending": {
        "custom:oz-upgrades-unsafe-allow": "state-variable-immutable"
      },
      "extraReserveId": {
        "custom:oz-upgrades-unsafe-allow": "state-variable-immutable"
      },
      "gauge": {
        "custom:oz-upgrades-unsafe-allow": "state-variable-immutable"
      },
      "pool": {
        "custom:oz-upgrades-unsafe-allow": "state-variable-immutable"
      }
    },
    "title": "Vote Previewer",
    "version": 1
  },
  "userdoc": {
    "kind": "user",
    "methods": {},
    "notice": "Contract to be consumed by voting strategies.",
    "version": 1
  },
  "storageLayout": {
    "storage": [],
    "types": null
  }
}