{
  "address": "0x136d84968d65FfDfEf32A4fE07660AdBf60cc9dA",
  "abi": [
    {
      "inputs": [
        {
          "internalType": "contract Firewall",
          "name": "firewall_",
          "type": "address"
        }
      ],
      "stateMutability": "nonpayable",
      "type": "constructor"
    },
    {
      "inputs": [],
      "name": "DEAD",
      "outputs": [
        {
          "internalType": "address",
          "name": "",
          "type": "address"
        }
      ],
      "stateMutability": "view",
      "type": "function"
    },
    {
      "inputs": [],
      "name": "allow",
      "outputs": [],
      "stateMutability": "nonpayable",
      "type": "function"
    },
    {
      "inputs": [],
      "name": "firewall",
      "outputs": [
        {
          "internalType": "contract Firewall",
          "name": "",
          "type": "address"
        }
      ],
      "stateMutability": "view",
      "type": "function"
    }
  ],
  "transactionHash": "0x75ee87724f7e385f5781c6d7c0adb277a1e876fbaabdb62d52d4e106dc8ffc86",
  "args": [
    "0x310A2694521f75C7B2b64b5937C16CE65C3EFE01"
  ],
  "numDeployments": 1,
  "solcInputHash": "db5caa523db9a66d9f2886ab4c017ace",
  "bytecode": "0x60a0604052348015600e575f80fd5b50604051610204380380610204833981016040819052602b91603b565b6001600160a01b03166080526066565b5f60208284031215604a575f80fd5b81516001600160a01b0381168114605f575f80fd5b9392505050565b6080516101816100835f395f81816084015260dd01526101815ff3fe608060405234801561000f575f80fd5b506004361061003f575f3560e01c806303fd2a4514610043578063b1b3d3f614610075578063c22a4a851461007f575b5f80fd5b61004c61dead81565b60405173ffffffffffffffffffffffffffffffffffffffff909116815260200160405180910390f35b61007d6100a6565b005b61004c7f000000000000000000000000000000000000000000000000000000000000000081565b6040517f110496e500000000000000000000000000000000000000000000000000000000815261dead6004820152600160248201527f000000000000000000000000000000000000000000000000000000000000000073ffffffffffffffffffffffffffffffffffffffff169063110496e5906044015f604051808303815f87803b158015610133575f80fd5b505af1158015610145573d5f803e3d5ffd5b5050505056fea2646970667358221220e052db185ed93f837651eec3dc044237ec29fef02a8fbfbeb967f388e3635f4064736f6c634300081a0033",
  "devdoc": {
    "kind": "dev",
    "methods": {},
    "version": 1
  },
  "userdoc": {
    "kind": "user",
    "methods": {},
    "version": 1
  },
  "storageLayout": {
    "storage": [],
    "types": null
  }
}