{
  "address": "0xD2b94B457d17BfE14F0A850299f924D2f269BDe2",
  "abi": [
    {
      "inputs": [
        {
          "internalType": "contract IBalancerVaultV3",
          "name": "vault_",
          "type": "address"
        },
        {
          "internalType": "address",
          "name": "owner",
          "type": "address"
        }
      ],
      "stateMutability": "nonpayable",
      "type": "constructor"
    },
    {
      "inputs": [],
      "name": "InsufficientLiquidity",
      "type": "error"
    },
    {
      "inputs": [],
      "name": "InvalidLength",
      "type": "error"
    },
    {
      "inputs": [],
      "name": "UnauthorizedVault",
      "type": "error"
    },
    {
      "anonymous": false,
      "inputs": [
        {
          "indexed": true,
          "internalType": "bytes32",
          "name": "role",
          "type": "bytes32"
        },
        {
          "indexed": true,
          "internalType": "bytes32",
          "name": "previousAdminRole",
          "type": "bytes32"
        },
        {
          "indexed": true,
          "internalType": "bytes32",
          "name": "newAdminRole",
          "type": "bytes32"
        }
      ],
      "name": "RoleAdminChanged",
      "type": "event"
    },
    {
      "anonymous": false,
      "inputs": [
        {
          "indexed": true,
          "internalType": "bytes32",
          "name": "role",
          "type": "bytes32"
        },
        {
          "indexed": true,
          "internalType": "address",
          "name": "account",
          "type": "address"
        },
        {
          "indexed": true,
          "internalType": "address",
          "name": "sender",
          "type": "address"
        }
      ],
      "name": "RoleGranted",
      "type": "event"
    },
    {
      "anonymous": false,
      "inputs": [
        {
          "indexed": true,
          "internalType": "bytes32",
          "name": "role",
          "type": "bytes32"
        },
        {
          "indexed": true,
          "internalType": "address",
          "name": "account",
          "type": "address"
        },
        {
          "indexed": true,
          "internalType": "address",
          "name": "sender",
          "type": "address"
        }
      ],
      "name": "RoleRevoked",
      "type": "event"
    },
    {
      "anonymous": false,
      "inputs": [
        {
          "indexed": true,
          "internalType": "contract IERC20",
          "name": "asset",
          "type": "address"
        },
        {
          "indexed": true,
          "internalType": "contract IERC4626",
          "name": "wToken",
          "type": "address"
        },
        {
          "indexed": true,
          "internalType": "address",
          "name": "account",
          "type": "address"
        }
      ],
      "name": "WTokenSet",
      "type": "event"
    },
    {
      "inputs": [],
      "name": "DEFAULT_ADMIN_ROLE",
      "outputs": [
        {
          "internalType": "bytes32",
          "name": "",
          "type": "bytes32"
        }
      ],
      "stateMutability": "view",
      "type": "function"
    },
    {
      "inputs": [
        {
          "internalType": "address",
          "name": "recipient",
          "type": "address"
        },
        {
          "internalType": "contract IERC20[]",
          "name": "tokens",
          "type": "address[]"
        },
        {
          "internalType": "uint256[]",
          "name": "amounts",
          "type": "uint256[]"
        },
        {
          "internalType": "bytes",
          "name": "data",
          "type": "bytes"
        }
      ],
      "name": "flashLoan",
      "outputs": [],
      "stateMutability": "nonpayable",
      "type": "function"
    },
    {
      "inputs": [
        {
          "internalType": "bytes32",
          "name": "role",
          "type": "bytes32"
        }
      ],
      "name": "getRoleAdmin",
      "outputs": [
        {
          "internalType": "bytes32",
          "name": "",
          "type": "bytes32"
        }
      ],
      "stateMutability": "view",
      "type": "function"
    },
    {
      "inputs": [
        {
          "internalType": "bytes32",
          "name": "role",
          "type": "bytes32"
        },
        {
          "internalType": "address",
          "name": "account",
          "type": "address"
        }
      ],
      "name": "grantRole",
      "outputs": [],
      "stateMutability": "nonpayable",
      "type": "function"
    },
    {
      "inputs": [
        {
          "internalType": "bytes32",
          "name": "role",
          "type": "bytes32"
        },
        {
          "internalType": "address",
          "name": "account",
          "type": "address"
        }
      ],
      "name": "hasRole",
      "outputs": [
        {
          "internalType": "bool",
          "name": "",
          "type": "bool"
        }
      ],
      "stateMutability": "view",
      "type": "function"
    },
    {
      "inputs": [
        {
          "internalType": "contract IERC20",
          "name": "wToken",
          "type": "address"
        }
      ],
      "name": "isWToken",
      "outputs": [
        {
          "internalType": "bool",
          "name": "isWToken",
          "type": "bool"
        }
      ],
      "stateMutability": "view",
      "type": "function"
    },
    {
      "inputs": [
        {
          "internalType": "bytes",
          "name": "payload",
          "type": "bytes"
        }
      ],
      "name": "receiveFlashLoan",
      "outputs": [],
      "stateMutability": "nonpayable",
      "type": "function"
    },
    {
      "inputs": [
        {
          "internalType": "bytes32",
          "name": "role",
          "type": "bytes32"
        },
        {
          "internalType": "address",
          "name": "account",
          "type": "address"
        }
      ],
      "name": "renounceRole",
      "outputs": [],
      "stateMutability": "nonpayable",
      "type": "function"
    },
    {
      "inputs": [
        {
          "internalType": "bytes32",
          "name": "role",
          "type": "bytes32"
        },
        {
          "internalType": "address",
          "name": "account",
          "type": "address"
        }
      ],
      "name": "revokeRole",
      "outputs": [],
      "stateMutability": "nonpayable",
      "type": "function"
    },
    {
      "inputs": [
        {
          "internalType": "contract IERC20",
          "name": "asset",
          "type": "address"
        },
        {
          "internalType": "contract IERC4626",
          "name": "token",
          "type": "address"
        }
      ],
      "name": "setWToken",
      "outputs": [],
      "stateMutability": "nonpayable",
      "type": "function"
    },
    {
      "inputs": [
        {
          "internalType": "bytes4",
          "name": "interfaceId",
          "type": "bytes4"
        }
      ],
      "name": "supportsInterface",
      "outputs": [
        {
          "internalType": "bool",
          "name": "",
          "type": "bool"
        }
      ],
      "stateMutability": "view",
      "type": "function"
    },
    {
      "inputs": [],
      "name": "vault",
      "outputs": [
        {
          "internalType": "contract IBalancerVaultV3",
          "name": "",
          "type": "address"
        }
      ],
      "stateMutability": "view",
      "type": "function"
    },
    {
      "inputs": [
        {
          "internalType": "contract IERC20",
          "name": "asset",
          "type": "address"
        }
      ],
      "name": "wTokens",
      "outputs": [
        {
          "internalType": "contract IERC4626",
          "name": "wToken",
          "type": "address"
        }
      ],
      "stateMutability": "view",
      "type": "function"
    }
  ],
  "transactionHash": "0x39995c1feebc6ed9e2edbfadf011d21cef437d2aada7c9198dbcab8507e9a105",
  "args": [
    "0xbA1333333333a1BA1108E8412f11850A5C319bA9",
    "0x92024C4bDa9DA602b711B9AbB610d072018eb58b"
  ],
  "numDeployments": 1,
  "solcInputHash": "db5caa523db9a66d9f2886ab4c017ace",
  "bytecode": "0x60a060405234801561000f575f80fd5b50604051611e51380380611e5183398101604081905261002e916100fe565b6100385f8261004a565b506001600160a01b0316608052610136565b5f828152602081815260408083206001600160a01b038516845290915290205460ff166100e3575f828152602081815260408083206001600160a01b03851684529091529020805460ff191660011790556100a23390565b6001600160a01b0316816001600160a01b0316837f2f8788117e7eff1d82e926ec794901d17c78024a50270940304540a733656f0d60405160405180910390a45b5050565b6001600160a01b03811681146100fb575f80fd5b50565b5f806040838503121561010f575f80fd5b825161011a816100e7565b602084015190925061012b816100e7565b809150509250929050565b608051611cbd6101945f395f818161024e015281816103dc015281816104cf0152818161076d015281816108870152818161095801528181610d1401528181610d7f01528181610e4101528181610f91015261103e0152611cbd5ff3fe608060405234801561000f575f80fd5b50600436106100da575f3560e01c8063807c5f4f11610088578063d547741f11610063578063d547741f146101e3578063d9702fc7146101f6578063f1a839f214610236578063fbfa77cf14610249575f80fd5b8063807c5f4f1461018457806391d14854146101a6578063a217fddf146101dc575f80fd5b806336568abe116100b857806336568abe1461014b5780635c38449e1461015e5780637b72d2ce14610171575f80fd5b806301ffc9a7146100de578063248a9ca3146101065780632f2ff15d14610136575b5f80fd5b6100f16100ec36600461150a565b610270565b60405190151581526020015b60405180910390f35b610128610114366004611531565b5f9081526020819052604090206001015490565b6040519081526020016100fd565b61014961014436600461155c565b6102d8565b005b61014961015936600461155c565b610301565b61014961016c366004611734565b610323565b61014961017f3660046117d5565b61087c565b6100f1610192366004611843565b60016020525f908152604090205460ff1681565b6100f16101b436600461155c565b5f918252602082815260408084206001600160a01b0393909316845291905290205460ff1690565b6101285f81565b6101496101f136600461155c565b61111b565b61021e610204366004611843565b60026020525f90815260409020546001600160a01b031681565b6040516001600160a01b0390911681526020016100fd565b61014961024436600461185e565b61113f565b61021e7f000000000000000000000000000000000000000000000000000000000000000081565b5f6001600160e01b031982167f7965db0b0000000000000000000000000000000000000000000000000000000014806102d257507f01ffc9a7000000000000000000000000000000000000000000000000000000006001600160e01b03198316145b92915050565b5f828152602081905260409020600101546102f2816111d5565b6102fc83836111e2565b505050565b6001600160a01b0381163314610315575f80fd5b61031f828261127e565b5050565b8251600114158061033657508151600114155b1561036d576040517f947d5a8400000000000000000000000000000000000000000000000000000000815260040160405180910390fd5b6040805160018082528183019092525f9160208083019080368337019050509050825f815181106103a0576103a061188a565b6020026020010151845f815181106103ba576103ba61188a565b60209081029190910101516040516370a0823160e01b81526001600160a01b037f000000000000000000000000000000000000000000000000000000000000000081166004830152909116906370a0823190602401602060405180830381865afa15801561042a573d5f803e3d5ffd5b505050506040513d601f19601f8201168201806040525081019061044e919061189e565b101561076b575f60025f865f8151811061046a5761046a61188a565b6020908102919091018101516001600160a01b039081168352908201929092526040015f20541690508015806105a75750835f815181106104ad576104ad61188a565b60209081029190910101516040516370a0823160e01b81526001600160a01b037f0000000000000000000000000000000000000000000000000000000000000000811660048301528316906307a2d13a9082906370a0823190602401602060405180830381865afa158015610524573d5f803e3d5ffd5b505050506040513d601f19601f82011682018060405250810190610548919061189e565b6040518263ffffffff1660e01b815260040161056691815260200190565b602060405180830381865afa158015610581573d5f803e3d5ffd5b505050506040513d601f19601f820116820180604052508101906105a5919061189e565b105b156105de576040517fbb55fd2700000000000000000000000000000000000000000000000000000000815260040160405180910390fd5b80855f815181106105f1576105f161188a565b60200260200101906001600160a01b031690816001600160a01b0316815250505f816001600160a01b0316630a28a477865f815181106106335761063361188a565b60200260200101516040518263ffffffff1660e01b815260040161065991815260200190565b602060405180830381865afa158015610674573d5f803e3d5ffd5b505050506040513d601f19601f82011682018060405250810190610698919061189e565b9050845f815181106106ac576106ac61188a565b6020026020010151826001600160a01b031663b3d7f6b9836040518263ffffffff1660e01b81526004016106e291815260200190565b602060405180830381865afa1580156106fd573d5f803e3d5ffd5b505050506040513d601f19601f82011682018060405250810190610721919061189e565b61072b91906118c9565b835f8151811061073d5761073d61188a565b60200260200101818152505080855f8151811061075c5761075c61188a565b60200260200101818152505050505b7f00000000000000000000000000000000000000000000000000000000000000006001600160a01b03166348c89491637b72d2ce60e01b87878786886040516020016107bb95949392919061197d565b60408051601f19818403018152908290526107d8916024016119e4565b60408051601f198184030181529181526020820180517bffffffffffffffffffffffffffffffffffffffffffffffffffffffff166001600160e01b03199485161790525160e084901b9092168252610832916004016119e4565b5f604051808303815f875af115801561084d573d5f803e3d5ffd5b505050506040513d5f823e601f3d908101601f1916820160405261087491908101906119f6565b505050505050565b336001600160a01b037f000000000000000000000000000000000000000000000000000000000000000016146108de576040517fc732d64300000000000000000000000000000000000000000000000000000000815260040160405180910390fd5b5f808080806108ef86880188611a6b565b9450945094509450945060015f855f8151811061090e5761090e61188a565b6020908102919091018101516001600160a01b031682528101919091526040015f205460ff1615610e3f575f845f8151811061094c5761094c61188a565b602002602001015190507f00000000000000000000000000000000000000000000000000000000000000006001600160a01b031663ae639329865f815181106109975761099761188a565b602002602001015130875f815181106109b2576109b261188a565b60209081029190910101516040516001600160e01b031960e086901b1681526001600160a01b03938416600482015292909116602483015260448201526064015f604051808303815f87803b158015610a09575f80fd5b505af1158015610a1b573d5f803e3d5ffd5b50505050806001600160a01b03166338d52e0f6040518163ffffffff1660e01b8152600401602060405180830381865afa158015610a5b573d5f803e3d5ffd5b505050506040513d601f19601f82011682018060405250810190610a7f9190611b36565b855f81518110610a9157610a9161188a565b60200260200101906001600160a01b031690816001600160a01b031681525050806001600160a01b031663ba087652855f81518110610ad257610ad261188a565b60209081029190910101516040516001600160e01b031960e084901b16815260048101919091526001600160a01b03891660248201523060448201526064016020604051808303815f875af1158015610b2d573d5f803e3d5ffd5b505050506040513d601f19601f82011682018060405250810190610b51919061189e565b845f81518110610b6357610b6361188a565b602090810291909101015260405163f04f270760e01b81526001600160a01b0387169063f04f270790610ba0908890889088908890600401611b51565b5f604051808303815f87803b158015610bb7575f80fd5b505af1158015610bc9573d5f803e3d5ffd5b50505050845f81518110610bdf57610bdf61188a565b60200260200101516001600160a01b031663095ea7b382855f81518110610c0857610c0861188a565b6020026020010151875f81518110610c2257610c2261188a565b6020026020010151610c349190611ba8565b6040516001600160e01b031960e085901b1681526001600160a01b03909216600483015260248201526044016020604051808303815f875af1158015610c7c573d5f803e3d5ffd5b505050506040513d601f19601f82011682018060405250810190610ca09190611bbb565b50806001600160a01b0316636e553f65845f81518110610cc257610cc261188a565b6020026020010151865f81518110610cdc57610cdc61188a565b6020026020010151610cee9190611ba8565b6040516001600160e01b031960e084901b16815260048101919091526001600160a01b037f00000000000000000000000000000000000000000000000000000000000000001660248201526044016020604051808303815f875af1158015610d58573d5f803e3d5ffd5b505050506040513d601f19601f82011682018060405250810190610d7c919061189e565b507f00000000000000000000000000000000000000000000000000000000000000006001600160a01b03166315afd40982865f81518110610dbf57610dbf61188a565b60200260200101516040518363ffffffff1660e01b8152600401610df89291906001600160a01b03929092168252602082015260400190565b6020604051808303815f875af1158015610e14573d5f803e3d5ffd5b505050506040513d601f19601f82011682018060405250810190610e38919061189e565b5050611112565b7f00000000000000000000000000000000000000000000000000000000000000006001600160a01b031663ae639329855f81518110610e8057610e8061188a565b602002602001015187865f81518110610e9b57610e9b61188a565b60209081029190910101516040516001600160e01b031960e086901b1681526001600160a01b03938416600482015292909116602483015260448201526064015f604051808303815f87803b158015610ef2575f80fd5b505af1158015610f04573d5f803e3d5ffd5b505060405163f04f270760e01b81526001600160a01b038816925063f04f27079150610f3a908790879087908790600401611b51565b5f604051808303815f87803b158015610f51575f80fd5b505af1158015610f63573d5f803e3d5ffd5b50505050835f81518110610f7957610f7961188a565b60200260200101516001600160a01b031663a9059cbb7f0000000000000000000000000000000000000000000000000000000000000000855f81518110610fc257610fc261188a565b60200260200101516040518363ffffffff1660e01b8152600401610ffb9291906001600160a01b03929092168252602082015260400190565b6020604051808303815f875af1158015611017573d5f803e3d5ffd5b505050506040513d601f19601f8201168201806040525081019061103b9190611bbb565b507f00000000000000000000000000000000000000000000000000000000000000006001600160a01b03166315afd409855f8151811061107d5761107d61188a565b6020026020010151855f815181106110975761109761188a565b60200260200101516040518363ffffffff1660e01b81526004016110d09291906001600160a01b03929092168252602082015260400190565b6020604051808303815f875af11580156110ec573d5f803e3d5ffd5b505050506040513d601f19601f82011682018060405250810190611110919061189e565b505b50505050505050565b5f82815260208190526040902060010154611135816111d5565b6102fc838361127e565b5f611149816111d5565b6001600160a01b038381165f81815260026020908152604080832080547fffffffffffffffffffffffff0000000000000000000000000000000000000000169588169586179055848352600191829052808320805460ff191690921790915551339392917f073f0dace3c3fdd12cd1c0df1573f19af6595e59cc6a61ceeb97ed395a4cc20491a4505050565b6111df81336112fb565b50565b5f828152602081815260408083206001600160a01b038516845290915290205460ff1661031f575f828152602081815260408083206001600160a01b03851684529091529020805460ff1916600117905561123a3390565b6001600160a01b0316816001600160a01b0316837f2f8788117e7eff1d82e926ec794901d17c78024a50270940304540a733656f0d60405160405180910390a45050565b5f828152602081815260408083206001600160a01b038516845290915290205460ff161561031f575f828152602081815260408083206001600160a01b0385168085529252808320805460ff1916905551339285917ff6391f5c32d9c69d2a47ea670b442974b53935d1edc7fd64eb21e047a839171b9190a45050565b5f828152602081815260408083206001600160a01b038516845290915290205460ff1661031f5761132b8161135a565b61133683602061136c565b604051602001611347929190611bf1565b6040516020818303038152906040525f80fd5b60606102d26001600160a01b03831660145b60605f61137a836002611c5b565b611385906002611ba8565b67ffffffffffffffff81111561139d5761139d61158a565b6040519080825280601f01601f1916602001820160405280156113c7576020820181803683370190505b5090507f3000000000000000000000000000000000000000000000000000000000000000815f815181106113fd576113fd61188a565b60200101906001600160f81b03191690815f1a9053507f7800000000000000000000000000000000000000000000000000000000000000816001815181106114475761144761188a565b60200101906001600160f81b03191690815f1a9053505f611469846002611c5b565b611474906001611ba8565b90505b60018111156114f8577f303132333435363738396162636465660000000000000000000000000000000085600f16601081106114b5576114b561188a565b1a60f81b8282815181106114cb576114cb61188a565b60200101906001600160f81b03191690815f1a90535060049490941c936114f181611c72565b9050611477565b508315611503575f80fd5b9392505050565b5f6020828403121561151a575f80fd5b81356001600160e01b031981168114611503575f80fd5b5f60208284031215611541575f80fd5b5035919050565b6001600160a01b03811681146111df575f80fd5b5f806040838503121561156d575f80fd5b82359150602083013561157f81611548565b809150509250929050565b634e487b7160e01b5f52604160045260245ffd5b604051601f8201601f1916810167ffffffffffffffff811182821017156115c7576115c761158a565b604052919050565b5f67ffffffffffffffff8211156115e8576115e861158a565b5060051b60200190565b5f82601f830112611601575f80fd5b813561161461160f826115cf565b61159e565b8082825260208201915060208360051b860101925085831115611635575f80fd5b602085015b8381101561165b57803561164d81611548565b83526020928301920161163a565b5095945050505050565b5f82601f830112611674575f80fd5b813561168261160f826115cf565b8082825260208201915060208360051b8601019250858311156116a3575f80fd5b602085015b8381101561165b5780358352602092830192016116a8565b5f67ffffffffffffffff8211156116d9576116d961158a565b50601f01601f191660200190565b5f82601f8301126116f6575f80fd5b813561170461160f826116c0565b818152846020838601011115611718575f80fd5b816020850160208301375f918101602001919091529392505050565b5f805f8060808587031215611747575f80fd5b843561175281611548565b9350602085013567ffffffffffffffff81111561176d575f80fd5b611779878288016115f2565b935050604085013567ffffffffffffffff811115611795575f80fd5b6117a187828801611665565b925050606085013567ffffffffffffffff8111156117bd575f80fd5b6117c9878288016116e7565b91505092959194509250565b5f80602083850312156117e6575f80fd5b823567ffffffffffffffff8111156117fc575f80fd5b8301601f8101851361180c575f80fd5b803567ffffffffffffffff811115611822575f80fd5b856020828401011115611833575f80fd5b6020919091019590945092505050565b5f60208284031215611853575f80fd5b813561150381611548565b5f806040838503121561186f575f80fd5b823561187a81611548565b9150602083013561157f81611548565b634e487b7160e01b5f52603260045260245ffd5b5f602082840312156118ae575f80fd5b5051919050565b634e487b7160e01b5f52601160045260245ffd5b818103818111156102d2576102d26118b5565b5f8151808452602084019350602083015f5b828110156119155781516001600160a01b03168652602095860195909101906001016118ee565b5093949350505050565b5f8151808452602084019350602083015f5b82811015611915578151865260209586019590910190600101611931565b5f81518084528060208401602086015e5f602082860101526020601f19601f83011685010191505092915050565b6001600160a01b038616815260a060208201525f61199e60a08301876118dc565b82810360408401526119b0818761191f565b905082810360608401526119c4818661191f565b905082810360808401526119d8818561194f565b98975050505050505050565b602081525f611503602083018461194f565b5f60208284031215611a06575f80fd5b815167ffffffffffffffff811115611a1c575f80fd5b8201601f81018413611a2c575f80fd5b8051611a3a61160f826116c0565b818152856020838501011115611a4e575f80fd5b8160208401602083015e5f91810160200191909152949350505050565b5f805f805f60a08688031215611a7f575f80fd5b8535611a8a81611548565b9450602086013567ffffffffffffffff811115611aa5575f80fd5b611ab1888289016115f2565b945050604086013567ffffffffffffffff811115611acd575f80fd5b611ad988828901611665565b935050606086013567ffffffffffffffff811115611af5575f80fd5b611b0188828901611665565b925050608086013567ffffffffffffffff811115611b1d575f80fd5b611b29888289016116e7565b9150509295509295909350565b5f60208284031215611b46575f80fd5b815161150381611548565b608081525f611b6360808301876118dc565b8281036020840152611b75818761191f565b90508281036040840152611b89818661191f565b90508281036060840152611b9d818561194f565b979650505050505050565b808201808211156102d2576102d26118b5565b5f60208284031215611bcb575f80fd5b81518015158114611503575f80fd5b5f81518060208401855e5f93019283525090919050565b7f416363657373436f6e74726f6c3a206163636f756e742000000000000000000081525f611c226017830185611bda565b7f206973206d697373696e6720726f6c65200000000000000000000000000000008152611c526011820185611bda565b95945050505050565b80820281158282048414176102d2576102d26118b5565b5f81611c8057611c806118b5565b505f19019056fea26469706673582212206bff59cd3ad6982cb322e79dadc85102efa40e7bf05ae4b55350438af071e85364736f6c634300081a0033",
  "devdoc": {
    "events": {
      "RoleAdminChanged(bytes32,bytes32,bytes32)": {
        "details": "Emitted when `newAdminRole` is set as ``role``'s admin role, replacing `previousAdminRole` `DEFAULT_ADMIN_ROLE` is the starting admin for all roles, despite {RoleAdminChanged} not being emitted signaling this. _Available since v3.1._"
      },
      "RoleGranted(bytes32,address,address)": {
        "details": "Emitted when `account` is granted `role`. `sender` is the account that originated the contract call, an admin role bearer except when using {AccessControl-_setupRole}."
      },
      "RoleRevoked(bytes32,address,address)": {
        "details": "Emitted when `account` is revoked `role`. `sender` is the account that originated the contract call:   - if using `revokeRole`, it is the admin role bearer   - if using `renounceRole`, it is the role bearer (i.e. `account`)"
      }
    },
    "kind": "dev",
    "methods": {
      "flashLoan(address,address[],uint256[],bytes)": {
        "params": {
          "amounts": "The amounts to borrow.",
          "data": "Additional data to pass to the recipient.",
          "recipient": "The address to receive the flash loan.",
          "tokens": "The tokens to borrow."
        }
      },
      "getRoleAdmin(bytes32)": {
        "details": "Returns the admin role that controls `role`. See {grantRole} and {revokeRole}. To change a role's admin, use {_setRoleAdmin}."
      },
      "grantRole(bytes32,address)": {
        "details": "Grants `role` to `account`. If `account` had not been already granted `role`, emits a {RoleGranted} event. Requirements: - the caller must have ``role``'s admin role. May emit a {RoleGranted} event."
      },
      "hasRole(bytes32,address)": {
        "details": "Returns `true` if `account` has been granted `role`."
      },
      "receiveFlashLoan(bytes)": {
        "params": {
          "payload": "The payload containing the recipient, tokens, amounts, fees, and data."
        }
      },
      "renounceRole(bytes32,address)": {
        "details": "Revokes `role` from the calling account. Roles are often managed via {grantRole} and {revokeRole}: this function's purpose is to provide a mechanism for accounts to lose their privileges if they are compromised (such as when a trusted device is misplaced). If the calling account had been revoked `role`, emits a {RoleRevoked} event. Requirements: - the caller must be `account`. May emit a {RoleRevoked} event."
      },
      "revokeRole(bytes32,address)": {
        "details": "Revokes `role` from `account`. If `account` had been granted `role`, emits a {RoleRevoked} event. Requirements: - the caller must have ``role``'s admin role. May emit a {RoleRevoked} event."
      },
      "setWToken(address,address)": {
        "params": {
          "asset": "The asset to set the wrapped token for.",
          "token": "The wrapped token to set."
        }
      },
      "supportsInterface(bytes4)": {
        "details": "See {IERC165-supportsInterface}."
      }
    },
    "title": "FlashLoanAdapter",
    "version": 1
  },
  "userdoc": {
    "kind": "user",
    "methods": {
      "flashLoan(address,address[],uint256[],bytes)": {
        "notice": "Performs a flash loan using the Balancer V3 vault."
      },
      "isWToken(address)": {
        "notice": "Mapping to check if a token is a wrapped token."
      },
      "receiveFlashLoan(bytes)": {
        "notice": "Receives a flash loan from the Balancer V3 vault."
      },
      "setWToken(address,address)": {
        "notice": "Sets a wrapped token for an asset."
      },
      "wTokens(address)": {
        "notice": "Mapping to get the wrapped token for an asset."
      }
    },
    "notice": "Adapter to use Balancer V3 vault with Balancer V2 interface.   Uses wrapped tokens when there's not enough liquidity in the vault.",
    "version": 1
  },
  "storageLayout": {
    "storage": [
      {
        "astId": 9721,
        "contract": "contracts/periphery/FlashLoanAdapter.sol:FlashLoanAdapter",
        "label": "_roles",
        "offset": 0,
        "slot": "0",
        "type": "t_mapping(t_bytes32,t_struct(RoleData)9716_storage)"
      },
      {
        "astId": 42407,
        "contract": "contracts/periphery/FlashLoanAdapter.sol:FlashLoanAdapter",
        "label": "isWToken",
        "offset": 0,
        "slot": "1",
        "type": "t_mapping(t_contract(IERC20)12327,t_bool)"
      },
      {
        "astId": 42414,
        "contract": "contracts/periphery/FlashLoanAdapter.sol:FlashLoanAdapter",
        "label": "wTokens",
        "offset": 0,
        "slot": "2",
        "type": "t_mapping(t_contract(IERC20)12327,t_contract(IERC4626)11336)"
      }
    ],
    "types": {
      "t_address": {
        "encoding": "inplace",
        "label": "address",
        "numberOfBytes": "20"
      },
      "t_bool": {
        "encoding": "inplace",
        "label": "bool",
        "numberOfBytes": "1"
      },
      "t_bytes32": {
        "encoding": "inplace",
        "label": "bytes32",
        "numberOfBytes": "32"
      },
      "t_contract(IERC20)12327": {
        "encoding": "inplace",
        "label": "contract IERC20",
        "numberOfBytes": "20"
      },
      "t_contract(IERC4626)11336": {
        "encoding": "inplace",
        "label": "contract IERC4626",
        "numberOfBytes": "20"
      },
      "t_mapping(t_address,t_bool)": {
        "encoding": "mapping",
        "key": "t_address",
        "label": "mapping(address => bool)",
        "numberOfBytes": "32",
        "value": "t_bool"
      },
      "t_mapping(t_bytes32,t_struct(RoleData)9716_storage)": {
        "encoding": "mapping",
        "key": "t_bytes32",
        "label": "mapping(bytes32 => struct AccessControl.RoleData)",
        "numberOfBytes": "32",
        "value": "t_struct(RoleData)9716_storage"
      },
      "t_mapping(t_contract(IERC20)12327,t_bool)": {
        "encoding": "mapping",
        "key": "t_contract(IERC20)12327",
        "label": "mapping(contract IERC20 => bool)",
        "numberOfBytes": "32",
        "value": "t_bool"
      },
      "t_mapping(t_contract(IERC20)12327,t_contract(IERC4626)11336)": {
        "encoding": "mapping",
        "key": "t_contract(IERC20)12327",
        "label": "mapping(contract IERC20 => contract IERC4626)",
        "numberOfBytes": "32",
        "value": "t_contract(IERC4626)11336"
      },
      "t_struct(RoleData)9716_storage": {
        "encoding": "inplace",
        "label": "struct AccessControl.RoleData",
        "members": [
          {
            "astId": 9713,
            "contract": "contracts/periphery/FlashLoanAdapter.sol:FlashLoanAdapter",
            "label": "members",
            "offset": 0,
            "slot": "0",
            "type": "t_mapping(t_address,t_bool)"
          },
          {
            "astId": 9715,
            "contract": "contracts/periphery/FlashLoanAdapter.sol:FlashLoanAdapter",
            "label": "adminRole",
            "offset": 0,
            "slot": "1",
            "type": "t_bytes32"
          }
        ],
        "numberOfBytes": "64"
      }
    }
  }
}