{
  "address": "0xf8f563E33973d1Bdd6c768132BC431EA7A7B56fa",
  "abi": [
    {
      "inputs": [
        {
          "internalType": "contract Auditor",
          "name": "auditor_",
          "type": "address"
        },
        {
          "internalType": "contract IPriceFeed",
          "name": "basePriceFeed_",
          "type": "address"
        }
      ],
      "stateMutability": "nonpayable",
      "type": "constructor"
    },
    {
      "inputs": [],
      "name": "AlreadyMatured",
      "type": "error"
    },
    {
      "inputs": [],
      "name": "auditor",
      "outputs": [
        {
          "internalType": "contract Auditor",
          "name": "",
          "type": "address"
        }
      ],
      "stateMutability": "view",
      "type": "function"
    },
    {
      "inputs": [],
      "name": "basePriceFeed",
      "outputs": [
        {
          "internalType": "contract IPriceFeed",
          "name": "",
          "type": "address"
        }
      ],
      "stateMutability": "view",
      "type": "function"
    },
    {
      "inputs": [
        {
          "internalType": "address",
          "name": "account",
          "type": "address"
        }
      ],
      "name": "exactly",
      "outputs": [
        {
          "components": [
            {
              "internalType": "contract Market",
              "name": "market",
              "type": "address"
            },
            {
              "internalType": "string",
              "name": "symbol",
              "type": "string"
            },
            {
              "internalType": "uint8",
              "name": "decimals",
              "type": "uint8"
            },
            {
              "internalType": "address",
              "name": "asset",
              "type": "address"
            },
            {
              "internalType": "string",
              "name": "assetName",
              "type": "string"
            },
            {
              "internalType": "string",
              "name": "assetSymbol",
              "type": "string"
            },
            {
              "components": [
                {
                  "internalType": "address",
                  "name": "id",
                  "type": "address"
                },
                {
                  "components": [
                    {
                      "internalType": "uint256",
                      "name": "minRate",
                      "type": "uint256"
                    },
                    {
                      "internalType": "uint256",
                      "name": "naturalRate",
                      "type": "uint256"
                    },
                    {
                      "internalType": "uint256",
                      "name": "maxUtilization",
                      "type": "uint256"
                    },
                    {
                      "internalType": "uint256",
                      "name": "naturalUtilization",
                      "type": "uint256"
                    },
                    {
                      "internalType": "uint256",
                      "name": "growthSpeed",
                      "type": "uint256"
                    },
                    {
                      "internalType": "uint256",
                      "name": "sigmoidSpeed",
                      "type": "uint256"
                    },
                    {
                      "internalType": "uint256",
                      "name": "spreadFactor",
                      "type": "uint256"
                    },
                    {
                      "internalType": "uint256",
                      "name": "maturitySpeed",
                      "type": "uint256"
                    },
                    {
                      "internalType": "int256",
                      "name": "timePreference",
                      "type": "int256"
                    },
                    {
                      "internalType": "uint256",
                      "name": "fixedAllocation",
                      "type": "uint256"
                    },
                    {
                      "internalType": "uint256",
                      "name": "maxRate",
                      "type": "uint256"
                    }
                  ],
                  "internalType": "struct Parameters",
                  "name": "parameters",
                  "type": "tuple"
                }
              ],
              "internalType": "struct Previewer.InterestRateModel",
              "name": "interestRateModel",
              "type": "tuple"
            },
            {
              "internalType": "uint256",
              "name": "usdPrice",
              "type": "uint256"
            },
            {
              "internalType": "uint256",
              "name": "penaltyRate",
              "type": "uint256"
            },
            {
              "internalType": "uint256",
              "name": "adjustFactor",
              "type": "uint256"
            },
            {
              "internalType": "uint8",
              "name": "maxFuturePools",
              "type": "uint8"
            },
            {
              "internalType": "uint256",
              "name": "reserveFactor",
              "type": "uint256"
            },
            {
              "components": [
                {
                  "internalType": "uint256",
                  "name": "maturity",
                  "type": "uint256"
                },
                {
                  "internalType": "uint256",
                  "name": "borrowed",
                  "type": "uint256"
                },
                {
                  "internalType": "uint256",
                  "name": "supplied",
                  "type": "uint256"
                },
                {
                  "internalType": "uint256",
                  "name": "available",
                  "type": "uint256"
                },
                {
                  "internalType": "uint256",
                  "name": "utilization",
                  "type": "uint256"
                },
                {
                  "internalType": "uint256",
                  "name": "depositRate",
                  "type": "uint256"
                },
                {
                  "internalType": "uint256",
                  "name": "minBorrowRate",
                  "type": "uint256"
                },
                {
                  "internalType": "uint256",
                  "name": "optimalDeposit",
                  "type": "uint256"
                }
              ],
              "internalType": "struct Previewer.FixedPool[]",
              "name": "fixedPools",
              "type": "tuple[]"
            },
            {
              "components": [
                {
                  "internalType": "contract ERC20",
                  "name": "asset",
                  "type": "address"
                },
                {
                  "internalType": "string",
                  "name": "assetName",
                  "type": "string"
                },
                {
                  "internalType": "string",
                  "name": "assetSymbol",
                  "type": "string"
                },
                {
                  "internalType": "uint256",
                  "name": "usdPrice",
                  "type": "uint256"
                },
                {
                  "internalType": "uint256",
                  "name": "borrow",
                  "type": "uint256"
                },
                {
                  "internalType": "uint256",
                  "name": "floatingDeposit",
                  "type": "uint256"
                },
                {
                  "internalType": "uint256[]",
                  "name": "maturities",
                  "type": "uint256[]"
                }
              ],
              "internalType": "struct Previewer.RewardRate[]",
              "name": "rewardRates",
              "type": "tuple[]"
            },
            {
              "internalType": "uint256",
              "name": "floatingBorrowRate",
              "type": "uint256"
            },
            {
              "internalType": "uint256",
              "name": "floatingUtilization",
              "type": "uint256"
            },
            {
              "internalType": "uint256",
              "name": "floatingAssets",
              "type": "uint256"
            },
            {
              "internalType": "uint256",
              "name": "floatingDebt",
              "type": "uint256"
            },
            {
              "internalType": "uint256",
              "name": "floatingBackupBorrowed",
              "type": "uint256"
            },
            {
              "internalType": "uint256",
              "name": "floatingAvailableAssets",
              "type": "uint256"
            },
            {
              "internalType": "uint256",
              "name": "totalFloatingBorrowAssets",
              "type": "uint256"
            },
            {
              "internalType": "uint256",
              "name": "totalFloatingDepositAssets",
              "type": "uint256"
            },
            {
              "internalType": "uint256",
              "name": "totalFloatingBorrowShares",
              "type": "uint256"
            },
            {
              "internalType": "uint256",
              "name": "totalFloatingDepositShares",
              "type": "uint256"
            },
            {
              "internalType": "bool",
              "name": "isCollateral",
              "type": "bool"
            },
            {
              "internalType": "uint256",
              "name": "maxBorrowAssets",
              "type": "uint256"
            },
            {
              "internalType": "uint256",
              "name": "floatingBorrowShares",
              "type": "uint256"
            },
            {
              "internalType": "uint256",
              "name": "floatingBorrowAssets",
              "type": "uint256"
            },
            {
              "internalType": "uint256",
              "name": "floatingDepositShares",
              "type": "uint256"
            },
            {
              "internalType": "uint256",
              "name": "floatingDepositAssets",
              "type": "uint256"
            },
            {
              "components": [
                {
                  "internalType": "uint256",
                  "name": "maturity",
                  "type": "uint256"
                },
                {
                  "internalType": "uint256",
                  "name": "previewValue",
                  "type": "uint256"
                },
                {
                  "components": [
                    {
                      "internalType": "uint256",
                      "name": "principal",
                      "type": "uint256"
                    },
                    {
                      "internalType": "uint256",
                      "name": "fee",
                      "type": "uint256"
                    }
                  ],
                  "internalType": "struct FixedLib.Position",
                  "name": "position",
                  "type": "tuple"
                }
              ],
              "internalType": "struct Previewer.FixedPosition[]",
              "name": "fixedDepositPositions",
              "type": "tuple[]"
            },
            {
              "components": [
                {
                  "internalType": "uint256",
                  "name": "maturity",
                  "type": "uint256"
                },
                {
                  "internalType": "uint256",
                  "name": "previewValue",
                  "type": "uint256"
                },
                {
                  "components": [
                    {
                      "internalType": "uint256",
                      "name": "principal",
                      "type": "uint256"
                    },
                    {
                      "internalType": "uint256",
                      "name": "fee",
                      "type": "uint256"
                    }
                  ],
                  "internalType": "struct FixedLib.Position",
                  "name": "position",
                  "type": "tuple"
                }
              ],
              "internalType": "struct Previewer.FixedPosition[]",
              "name": "fixedBorrowPositions",
              "type": "tuple[]"
            },
            {
              "components": [
                {
                  "internalType": "address",
                  "name": "asset",
                  "type": "address"
                },
                {
                  "internalType": "string",
                  "name": "assetName",
                  "type": "string"
                },
                {
                  "internalType": "string",
                  "name": "assetSymbol",
                  "type": "string"
                },
                {
                  "internalType": "uint256",
                  "name": "amount",
                  "type": "uint256"
                }
              ],
              "internalType": "struct Previewer.ClaimableReward[]",
              "name": "claimableRewards",
              "type": "tuple[]"
            }
          ],
          "internalType": "struct Previewer.MarketAccount[]",
          "name": "data",
          "type": "tuple[]"
        }
      ],
      "stateMutability": "view",
      "type": "function"
    },
    {
      "inputs": [
        {
          "internalType": "contract Market",
          "name": "market",
          "type": "address"
        },
        {
          "internalType": "uint256",
          "name": "assets",
          "type": "uint256"
        }
      ],
      "name": "previewBorrowAtAllMaturities",
      "outputs": [
        {
          "components": [
            {
              "internalType": "uint256",
              "name": "maturity",
              "type": "uint256"
            },
            {
              "internalType": "uint256",
              "name": "assets",
              "type": "uint256"
            },
            {
              "internalType": "uint256",
              "name": "utilization",
              "type": "uint256"
            }
          ],
          "internalType": "struct Previewer.FixedPreview[]",
          "name": "previews",
          "type": "tuple[]"
        }
      ],
      "stateMutability": "view",
      "type": "function"
    },
    {
      "inputs": [
        {
          "internalType": "contract Market",
          "name": "market",
          "type": "address"
        },
        {
          "internalType": "uint256",
          "name": "maturity",
          "type": "uint256"
        },
        {
          "internalType": "uint256",
          "name": "assets",
          "type": "uint256"
        }
      ],
      "name": "previewBorrowAtMaturity",
      "outputs": [
        {
          "components": [
            {
              "internalType": "uint256",
              "name": "maturity",
              "type": "uint256"
            },
            {
              "internalType": "uint256",
              "name": "assets",
              "type": "uint256"
            },
            {
              "internalType": "uint256",
              "name": "utilization",
              "type": "uint256"
            }
          ],
          "internalType": "struct Previewer.FixedPreview",
          "name": "",
          "type": "tuple"
        }
      ],
      "stateMutability": "view",
      "type": "function"
    },
    {
      "inputs": [
        {
          "internalType": "contract Market",
          "name": "market",
          "type": "address"
        },
        {
          "internalType": "uint256",
          "name": "assets",
          "type": "uint256"
        }
      ],
      "name": "previewDepositAtAllMaturities",
      "outputs": [
        {
          "components": [
            {
              "internalType": "uint256",
              "name": "maturity",
              "type": "uint256"
            },
            {
              "internalType": "uint256",
              "name": "assets",
              "type": "uint256"
            },
            {
              "internalType": "uint256",
              "name": "utilization",
              "type": "uint256"
            }
          ],
          "internalType": "struct Previewer.FixedPreview[]",
          "name": "previews",
          "type": "tuple[]"
        }
      ],
      "stateMutability": "view",
      "type": "function"
    },
    {
      "inputs": [
        {
          "internalType": "contract Market",
          "name": "market",
          "type": "address"
        },
        {
          "internalType": "uint256",
          "name": "maturity",
          "type": "uint256"
        },
        {
          "internalType": "uint256",
          "name": "assets",
          "type": "uint256"
        }
      ],
      "name": "previewDepositAtMaturity",
      "outputs": [
        {
          "components": [
            {
              "internalType": "uint256",
              "name": "maturity",
              "type": "uint256"
            },
            {
              "internalType": "uint256",
              "name": "assets",
              "type": "uint256"
            },
            {
              "internalType": "uint256",
              "name": "utilization",
              "type": "uint256"
            }
          ],
          "internalType": "struct Previewer.FixedPreview",
          "name": "",
          "type": "tuple"
        }
      ],
      "stateMutability": "view",
      "type": "function"
    },
    {
      "inputs": [
        {
          "internalType": "contract Market",
          "name": "market",
          "type": "address"
        },
        {
          "internalType": "uint256",
          "name": "maturity",
          "type": "uint256"
        },
        {
          "internalType": "uint256",
          "name": "positionAssets",
          "type": "uint256"
        },
        {
          "internalType": "address",
          "name": "borrower",
          "type": "address"
        }
      ],
      "name": "previewRepayAtMaturity",
      "outputs": [
        {
          "components": [
            {
              "internalType": "uint256",
              "name": "maturity",
              "type": "uint256"
            },
            {
              "internalType": "uint256",
              "name": "assets",
              "type": "uint256"
            },
            {
              "internalType": "uint256",
              "name": "utilization",
              "type": "uint256"
            }
          ],
          "internalType": "struct Previewer.FixedPreview",
          "name": "",
          "type": "tuple"
        }
      ],
      "stateMutability": "view",
      "type": "function"
    },
    {
      "inputs": [
        {
          "internalType": "contract Market",
          "name": "market",
          "type": "address"
        },
        {
          "internalType": "uint256",
          "name": "maturity",
          "type": "uint256"
        },
        {
          "internalType": "uint256",
          "name": "positionAssets",
          "type": "uint256"
        },
        {
          "internalType": "address",
          "name": "owner",
          "type": "address"
        }
      ],
      "name": "previewWithdrawAtMaturity",
      "outputs": [
        {
          "components": [
            {
              "internalType": "uint256",
              "name": "maturity",
              "type": "uint256"
            },
            {
              "internalType": "uint256",
              "name": "assets",
              "type": "uint256"
            },
            {
              "internalType": "uint256",
              "name": "utilization",
              "type": "uint256"
            }
          ],
          "internalType": "struct Previewer.FixedPreview",
          "name": "",
          "type": "tuple"
        }
      ],
      "stateMutability": "view",
      "type": "function"
    }
  ],
  "transactionHash": "0x813c84d7c191fb9fa78177894aa9601cf0fe2cf907c5fff669e17bfc13558d31",
  "args": [
    "0x0Aeb0BCB919858C0a4dceC3EeD879985034A597c",
    "0x0000000000000000000000000000000000000000"
  ],
  "numDeployments": 1,
  "solcInputHash": "db5caa523db9a66d9f2886ab4c017ace",
  "bytecode": "0x60c060405234801561000f575f80fd5b5060405161610938038061610983398101604081905261002e9161005c565b6001600160a01b039182166080521660a052610094565b6001600160a01b0381168114610059575f80fd5b50565b5f806040838503121561006d575f80fd5b825161007881610045565b602084015190925061008981610045565b809150509250929050565b60805160a051615ff26101175f395f818161019c015281816106180152818161065401526106ea01525f81816101040152818161046b015281816104d9015281816105a6015281816108040152818161097001528181610da3015281816114aa01528181612b2e015281816130180152818161374601526139ae0152615ff25ff3fe608060405234801561000f575f80fd5b506004361061009f575f3560e01c80637e78995811610072578063b15a3f6111610058578063b15a3f6114610164578063b18ba94514610184578063e41e751214610197575f80fd5b80637e7899581461013e5780638eab0a2a14610151575f80fd5b8063109c46ce146100a3578063157c9e0e146100cc578063221e81f6146100ec5780633ec045a6146100ff575b5f80fd5b6100b66100b1366004614f57565b6101be565b6040516100c39190614f89565b60405180910390f35b6100df6100da366004614faa565b61042e565b6040516100c3919061525f565b6100b66100fa366004615573565b61177e565b6101267f000000000000000000000000000000000000000000000000000000000000000081565b6040516001600160a01b0390911681526020016100c3565b6100b661014c366004615573565b6118c0565b6100b661015f366004614f57565b611a54565b6101776101723660046155ba565b611bd9565b6040516100c391906155e4565b6101776101923660046155ba565b611d26565b6101267f000000000000000000000000000000000000000000000000000000000000000081565b6101df60405180606001604052805f81526020015f81526020015f81525090565b61020660405180608001604052805f81526020015f81526020015f81526020015f81525090565b604051634e7c505960e01b8152600481018590526001600160a01b03861690634e7c505990602401608060405180830381865afa158015610249573d5f803e3d5ffd5b505050506040513d601f19601f8201168201806040525081019061026d9190615645565b60608501819052604085019190915260208401919091529082525f906102d2908790871161029f578360400151611f4a565b6102cd8460600151426102b2919061568c565b60608601516102c1908a61568c565b60408701519190611f2c565b611f4a565b90505f6103ca876001600160a01b031663f3fdb15a6040518163ffffffff1660e01b8152600401602060405180830381865afa158015610314573d5f803e3d5ffd5b505050506040513d601f19601f82011682018060405250810190610338919061569f565b8451602086015160405163df635f3d60e01b8152600481018b9052602481018a905260448101929092526064820152608481018590526001600160a01b03919091169063df635f3d9060a401602060405180830381865afa15801561039f573d5f803e3d5ffd5b505050506040513d601f19601f820116820180604052508101906103c391906156ba565b86906121c4565b9050604051806060016040528087815260200182876103e991906156d1565b81526020015f84116103fb575f610421565b61042184866020015161040e91906156d1565b865161041b908a906156d1565b906121df565b9052979650505050505050565b6040517fff383ae60000000000000000000000000000000000000000000000000000000081526001600160a01b0382811660048301526060915f917f0000000000000000000000000000000000000000000000000000000000000000169063ff383ae690602401602060405180830381865afa1580156104b0573d5f803e3d5ffd5b505050506040513d601f19601f820116820180604052508101906104d491906156ba565b90505f7f00000000000000000000000000000000000000000000000000000000000000006001600160a01b031663375a7cba6040518163ffffffff1660e01b81526004015f60405180830381865afa158015610532573d5f803e3d5ffd5b505050506040513d5f823e601f3d908101601f1916820160405261055991908101906157aa565b516040517f9e9d79670000000000000000000000000000000000000000000000000000000081526001600160a01b0386811660048301525f602483018190526044830181905292935082917f000000000000000000000000000000000000000000000000000000000000000090911690639e9d7967906064016040805180830381865afa1580156105ec573d5f803e3d5ffd5b505050506040513d601f19601f820116820180604052508101906106109190615849565b90925090505f7f00000000000000000000000000000000000000000000000000000000000000006001600160a01b031661065257670de0b6b3a7640000610772565b7f00000000000000000000000000000000000000000000000000000000000000006001600160a01b031663313ce5676040518163ffffffff1660e01b8152600401602060405180830381865afa1580156106ae573d5f803e3d5ffd5b505050506040513d601f19601f820116820180604052508101906106d2919061587b565b6106dd906012615894565b6106e890600a615990565b7f00000000000000000000000000000000000000000000000000000000000000006001600160a01b03166350d25bcd6040518163ffffffff1660e01b8152600401602060405180830381865afa158015610744573d5f803e3d5ffd5b505050506040513d601f19601f8201168201806040525081019061076891906156ba565b610772919061599e565b90508367ffffffffffffffff81111561078d5761078d6156e4565b6040519080825280602002602001820160405280156107c657816020015b6107b3614c4f565b8152602001906001900390816107ab5790505b5095505f5b84811015611773576040517f232b956c000000000000000000000000000000000000000000000000000000008152600481018290525f907f00000000000000000000000000000000000000000000000000000000000000006001600160a01b03169063232b956c90602401602060405180830381865afa158015610851573d5f803e3d5ffd5b505050506040513d601f19601f82011682018060405250810190610875919061569f565b905061089860405180606001604052805f81526020015f81526020015f81525090565b6040805160a0810182525f8082526020820181905281830181905260608201819052608082015290517f5e5c06e20000000000000000000000000000000000000000000000000000000081526001600160a01b038c81166004830152841690635e5c06e290602401606060405180830381865afa15801561091b573d5f803e3d5ffd5b505050506040513d601f19601f8201168201806040525081019061093f91906159b5565b604085810191909152602085019190915290835251638e8f294b60e01b81526001600160a01b0384811660048301527f00000000000000000000000000000000000000000000000000000000000000001690638e8f294b9060240160a060405180830381865afa1580156109b5573d5f803e3d5ffd5b505050506040513d601f19601f820116820180604052508101906109d991906159f6565b6001600160a01b039081166080870152901515606086015260ff918216604080870191909152929091166020808601919091526001600160801b03909316845281517ff3fdb15a00000000000000000000000000000000000000000000000000000000815291515f939187169263f3fdb15a9260048083019391928290030181865afa158015610a6b573d5f803e3d5ffd5b505050506040513d601f19601f82011682018060405250810190610a8f919061569f565b9050604051806104200160405280856001600160a01b03168152602001856001600160a01b03166395d89b416040518163ffffffff1660e01b81526004015f60405180830381865afa158015610ae7573d5f803e3d5ffd5b505050506040513d5f823e601f3d908101601f19168201604052610b0e9190810190615a62565b8152602001836020015160ff168152602001856001600160a01b03166338d52e0f6040518163ffffffff1660e01b8152600401602060405180830381865afa158015610b5c573d5f803e3d5ffd5b505050506040513d601f19601f82011682018060405250810190610b80919061569f565b6001600160a01b03168152602001856001600160a01b03166338d52e0f6040518163ffffffff1660e01b8152600401602060405180830381865afa158015610bca573d5f803e3d5ffd5b505050506040513d601f19601f82011682018060405250810190610bee919061569f565b6001600160a01b03166306fdde036040518163ffffffff1660e01b81526004015f60405180830381865afa158015610c28573d5f803e3d5ffd5b505050506040513d5f823e601f3d908101601f19168201604052610c4f9190810190615a62565b8152602001856001600160a01b03166338d52e0f6040518163ffffffff1660e01b8152600401602060405180830381865afa158015610c90573d5f803e3d5ffd5b505050506040513d601f19601f82011682018060405250810190610cb4919061569f565b6001600160a01b03166395d89b416040518163ffffffff1660e01b81526004015f60405180830381865afa158015610cee573d5f803e3d5ffd5b505050506040513d5f823e601f3d908101601f19168201604052610d159190810190615a62565b81526020016040518060400160405280846001600160a01b03168152602001846001600160a01b031663890357306040518163ffffffff1660e01b815260040161016060405180830381865afa158015610d71573d5f803e3d5ffd5b505050506040513d601f19601f82011682018060405250810190610d959190615af6565b8152508152602001610e45887f00000000000000000000000000000000000000000000000000000000000000006001600160a01b031663b883b05887608001516040518263ffffffff1660e01b8152600401610e0091906001600160a01b0391909116815260200190565b602060405180830381865afa158015610e1b573d5f803e3d5ffd5b505050506040513d601f19601f82011682018060405250810190610e3f91906156ba565b906121f3565b8152602001856001600160a01b031663d6b7494f6040518163ffffffff1660e01b8152600401602060405180830381865afa158015610e86573d5f803e3d5ffd5b505050506040513d601f19601f82011682018060405250810190610eaa91906156ba565b8152602001835f01516001600160801b03168152602001856001600160a01b0316630e52dbec6040518163ffffffff1660e01b8152600401602060405180830381865afa158015610efd573d5f803e3d5ffd5b505050506040513d601f19601f82011682018060405250810190610f21919061587b565b60ff168152602001856001600160a01b0316634322b7146040518163ffffffff1660e01b8152600401602060405180830381865afa158015610f65573d5f803e3d5ffd5b505050506040513d601f19601f82011682018060405250810190610f899190615b85565b6001600160801b03168152602001610fa086612207565b8152602001610faf8689612a94565b81526040516342543a3360e11b81525f60048201526020909101906001600160a01b038416906384a8746690602401602060405180830381865afa158015610ff9573d5f803e3d5ffd5b505050506040513d601f19601f8201168201806040525081019061101d91906156ba565b81526020015f866001600160a01b0316632e0af0086040518163ffffffff1660e01b8152600401602060405180830381865afa15801561105f573d5f803e3d5ffd5b505050506040513d601f19601f8201168201806040525081019061108391906156ba565b1161108e575f611162565b611162611154876001600160a01b0316632e0af0086040518163ffffffff1660e01b8152600401602060405180830381865afa1580156110d0573d5f803e3d5ffd5b505050506040513d601f19601f820116820180604052508101906110f491906156ba565b886001600160a01b0316631a90f1866040518163ffffffff1660e01b8152600401602060405180830381865afa158015611130573d5f803e3d5ffd5b505050506040513d601f19601f8201168201806040525081019061041b91906156ba565b670de0b6b3a7640000613b25565b8152602001856001600160a01b0316632e0af0086040518163ffffffff1660e01b8152600401602060405180830381865afa1580156111a3573d5f803e3d5ffd5b505050506040513d601f19601f820116820180604052508101906111c791906156ba565b8152602001856001600160a01b0316631a90f1866040518163ffffffff1660e01b8152600401602060405180830381865afa158015611208573d5f803e3d5ffd5b505050506040513d601f19601f8201168201806040525081019061122c91906156ba565b8152602001856001600160a01b0316638c3cba5a6040518163ffffffff1660e01b8152600401602060405180830381865afa15801561126d573d5f803e3d5ffd5b505050506040513d601f19601f8201168201806040525081019061129191906156ba565b815260200161129f86613b3a565b8152602001856001600160a01b031663eee8c9e06040518163ffffffff1660e01b8152600401602060405180830381865afa1580156112e0573d5f803e3d5ffd5b505050506040513d601f19601f8201168201806040525081019061130491906156ba565b8152602001856001600160a01b03166301e1d1146040518163ffffffff1660e01b8152600401602060405180830381865afa158015611345573d5f803e3d5ffd5b505050506040513d601f19601f8201168201806040525081019061136991906156ba565b8152602001856001600160a01b0316638d0e5f026040518163ffffffff1660e01b8152600401602060405180830381865afa1580156113aa573d5f803e3d5ffd5b505050506040513d601f19601f820116820180604052508101906113ce91906156ba565b8152602001856001600160a01b03166318160ddd6040518163ffffffff1660e01b8152600401602060405180830381865afa15801561140f573d5f803e3d5ffd5b505050506040513d601f19601f8201168201806040525081019061143391906156ba565b81526020016001871b8c165f0361144a575f61144d565b60015b15158152602001888a1015611462575f61152e565b61152e845f01516001600160801b03166115288660200151600a6114869190615990565b6080880151604051631710760b60e31b81526001600160a01b0391821660048201527f00000000000000000000000000000000000000000000000000000000000000009091169063b883b05890602401602060405180830381865afa1580156114f1573d5f803e3d5ffd5b505050506040513d601f19601f8201168201806040525081019061151591906156ba565b8d8f611521919061568c565b9190613cb0565b906121c4565b81526040858101805160208401525181517f47dffde000000000000000000000000000000000000000000000000000000000815260048101919091529101906001600160a01b038716906347dffde090602401602060405180830381865afa15801561159c573d5f803e3d5ffd5b505050506040513d601f19601f820116820180604052508101906115c091906156ba565b81526040517f70a082310000000000000000000000000000000000000000000000000000000081526001600160a01b038f811660048301526020909201918716906370a0823190602401602060405180830381865afa158015611625573d5f803e3d5ffd5b505050506040513d601f19601f8201168201806040525081019061164991906156ba565b81526040517fce96cb770000000000000000000000000000000000000000000000000000000081526001600160a01b038f8116600483015260209092019187169063ce96cb7790602401602060405180830381865afa1580156116ae573d5f803e3d5ffd5b505050506040513d601f19601f820116820180604052508101906116d291906156ba565b8152602001611703868f875f0151896001600160a01b031663ccfd8b11306001600160a01b0316637e789958613cdd565b8152602001611735868f8760200151896001600160a01b031663d2681a0b306001600160a01b031663221e81f6613cdd565b8152602001611744868f613fbd565b8152508b868151811061175957611759615b9e565b6020026020010181905250505050508060010190506107cb565b505050505050919050565b61179f60405180606001604052805f81526020015f81526020015f81525090565b5f805f6117b08888888860016144a8565b925092509250604051806060016040528088815260200188421061185b5761184c8a6001600160a01b031663d6b7494f6040518163ffffffff1660e01b8152600401602060405180830381865afa15801561180d573d5f803e3d5ffd5b505050506040513d601f19601f8201168201806040525081019061183191906156ba565b61183b8b4261568c565b611845919061599e565b89906121f3565b61185690896156d1565b611870565b6118668a8a8661470d565b611870908961568c565b81526020015f8311611882575f6118b0565b6118b083866020015161189591906156d1565b865186106118a3575f61041b565b865161041b90879061568c565b905293505050505b949350505050565b6118e160405180606001604052805f81526020015f81526020015f81525090565b5f805f6118f1888888885f6144a8565b92509250925060405180606001604052808881526020018842106119155787611a1c565b611a1c8a6001600160a01b031663f3fdb15a6040518163ffffffff1660e01b8152600401602060405180830381865afa158015611954573d5f803e3d5ffd5b505050506040513d601f19601f82011682018060405250810190611978919061569f565b8651602088015160405163df635f3d60e01b8152600481018e9052602481018d905260448101929092526064820152608481018690526001600160a01b03919091169063df635f3d9060a401602060405180830381865afa1580156119df573d5f803e3d5ffd5b505050506040513d601f19601f82011682018060405250810190611a0391906156ba565b611a1590670de0b6b3a76400006156d1565b899061486a565b81526020015f8311611a2e575f6118b0565b6118b084848760200151611a4291906156d1565b611a4c919061568c565b8651906121df565b611a7560405180606001604052805f81526020015f81526020015f81525090565b82421115611aaf576040517fb453c22000000000000000000000000000000000000000000000000000000000815260040160405180910390fd5b611ad660405180608001604052805f81526020015f81526020015f81526020015f81525090565b604051634e7c505960e01b8152600481018590526001600160a01b03861690634e7c505990602401608060405180830381865afa158015611b19573d5f803e3d5ffd5b505050506040513d601f19601f82011682018060405250810190611b3d9190615645565b60608501819052604085019190915260208401919091529082525f90611b6d9087906102cd906102b2904261568c565b90506040518060600160405280868152602001611b8b88888861470d565b611b9590876156d1565b81526020015f8311611ba7575f611bcd565b611bcd83878660200151611bbb91906156d1565b611bc591906156d1565b8551906121df565b90529695505050505050565b60605f836001600160a01b0316630e52dbec6040518163ffffffff1660e01b8152600401602060405180830381865afa158015611c18573d5f803e3d5ffd5b505050506040513d601f19601f82011682018060405250810190611c3c919061587b565b60ff1690505f6224ea00611c508142615bc6565b611c5a904261568c565b611c6491906156d1565b90508167ffffffffffffffff811115611c7f57611c7f6156e4565b604051908082528060200260200182016040528015611cd157816020015b611cbe60405180606001604052805f81526020015f81526020015f81525090565b815260200190600190039081611c9d5790505b5092505f5b82811015611d1d57611ce9868387611a54565b848281518110611cfb57611cfb615b9e565b6020908102919091010152611d136224ea00836156d1565b9150600101611cd6565b50505092915050565b60605f836001600160a01b0316630e52dbec6040518163ffffffff1660e01b8152600401602060405180830381865afa158015611d65573d5f803e3d5ffd5b505050506040513d601f19601f82011682018060405250810190611d89919061587b565b60ff1690505f6224ea00611d9d8142615bc6565b611da7904261568c565b611db191906156d1565b90508167ffffffffffffffff811115611dcc57611dcc6156e4565b604051908082528060200260200182016040528015611e1e57816020015b611e0b60405180606001604052805f81526020015f81526020015f81525090565b815260200190600190039081611dea5790505b5092505f5b82811015611d1d576040517f109c46ce0000000000000000000000000000000000000000000000000000000081526001600160a01b03871660048201526024810183905260448101869052309063109c46ce90606401606060405180830381865afa925050508015611eb2575060408051601f3d908101601f19168201909252611eaf91810190615bd9565b60015b611ef55760405180606001604052808381526020015f1981526020015f19815250848281518110611ee557611ee5615b9e565b6020026020010181905250611f15565b80858381518110611f0857611f08615b9e565b6020026020010181905250505b611f226224ea00836156d1565b9150600101611e23565b828202811515841585830485141716611f43575f80fd5b0492915050565b5f8082846001600160a01b0316632e0af0086040518163ffffffff1660e01b8152600401602060405180830381865afa158015611f89573d5f803e3d5ffd5b505050506040513d601f19601f82011682018060405250810190611fad91906156ba565b611fb791906156d1565b90505f846001600160a01b031663e94b3c216040518163ffffffff1660e01b8152600401602060405180830381865afa158015611ff6573d5f803e3d5ffd5b505050506040513d601f19601f8201168201806040525081019061201a91906156ba565b90505f61217482841061210657866001600160a01b031663fb0fc4c36040518163ffffffff1660e01b8152600401602060405180830381865afa158015612063573d5f803e3d5ffd5b505050506040513d601f19601f820116820180604052508101906120879190615c45565b6120979063ffffffff164261568c565b876001600160a01b0316630539fa8c6040518163ffffffff1660e01b8152600401602060405180830381865afa1580156120d3573d5f803e3d5ffd5b505050506040513d601f19601f820116820180604052508101906120f791906156ba565b612101919061599e565b612166565b866001600160a01b0316633aa18d6f6040518163ffffffff1660e01b8152600401602060405180830381865afa158015612142573d5f803e3d5ffd5b505050506040513d601f19601f8201168201806040525081019061216691906156ba565b61216f90615c5e565b61487e565b61218690670de0b6b3a7640000615c94565b905061219281846121f3565b6121ae6121a783670de0b6b3a764000061568c565b84906121f3565b6121b891906156d1565b93505050505b92915050565b5f6121d88383670de0b6b3a7640000613cb0565b9392505050565b5f6121d883670de0b6b3a764000084613cb0565b5f6121d88383670de0b6b3a7640000611f2c565b606061225b6040518061016001604052805f81526020015f81526020015f81526020015f81526020015f81526020015f81526020015f81526020015f81526020015f81526020015f81526020015f81525090565b826001600160a01b031663eee8c9e06040518163ffffffff1660e01b8152600401602060405180830381865afa158015612297573d5f803e3d5ffd5b505050506040513d601f19601f820116820180604052508101906122bb91906156ba565b6101408201526122ca83614a12565b816020018181525050826001600160a01b0316630e52dbec6040518163ffffffff1660e01b8152600401602060405180830381865afa15801561230f573d5f803e3d5ffd5b505050506040513d601f19601f82011682018060405250810190612333919061587b565b60ff166080820181905267ffffffffffffffff811115612355576123556156e4565b6040519080825280602002602001820160405280156123c657816020015b6123b36040518061010001604052805f81526020015f81526020015f81526020015f81526020015f81526020015f81526020015f81526020015f81525090565b8152602001906001900390816123735790505b5091505f5b8160800151811015612a8d576123e28160016156d1565b6123ef906224ea0061599e565b6123fc6224ea0042615bc6565b612406904261568c565b61241091906156d1565b60c08301908152604080516080810182525f80825260208201819052818301819052606082015291519051634e7c505960e01b815260048101919091526001600160a01b03861690634e7c505990602401608060405180830381865afa15801561247c573d5f803e3d5ffd5b505050506040513d601f19601f820116820180604052508101906124a09190615645565b60608501819052604085019190915260208401919091529082526124e8906124c8904261568c565b82606001518560c001516124dc919061568c565b60408401519190611f2c565b606084018190526124fa908690611f4a565b83528051602082015161250d9190613b25565b8151612519919061568c565b836040018181525050826060015181604001818151612538919061568c565b9150818152505061262c856001600160a01b0316634322b7146040518163ffffffff1660e01b8152600401602060405180830381865afa15801561257e573d5f803e3d5ffd5b505050506040513d601f19601f820116820180604052508101906125a29190615b85565b6125b490670de0b6b3a7640000615cb3565b6001600160801b03168460200151876001600160a01b0316632e0af0086040518163ffffffff1660e01b8152600401602060405180830381865afa1580156125fe573d5f803e3d5ffd5b505050506040513d601f19601f8201168201806040525081019061262291906156ba565b610e3f91906156d1565b60a0840152825161263d575f61264e565b825161014084015161264e916121df565b60e0840152825115801590612667575060208101518151115b612671575f612688565b825160208201518251612688929161041b9161568c565b61010084015282515f0361269c575f612713565b612713835f0151866001600160a01b0316638c3cba5a6040518163ffffffff1660e01b8152600401602060405180830381865afa1580156126df573d5f803e3d5ffd5b505050506040513d601f19601f8201168201806040525081019061270391906156ba565b85610140015161041b91906156d1565b836101200181815250506040518061010001604052808460c001518152602001825f01518152602001826020015181526020016127578360200151845f0151613b25565b836020015161285b6128458860a0015189602001518c6001600160a01b0316631a90f1866040518163ffffffff1660e01b8152600401602060405180830381865afa1580156127a8573d5f803e3d5ffd5b505050506040513d601f19601f820116820180604052508101906127cc91906156ba565b8d6001600160a01b0316638c3cba5a6040518163ffffffff1660e01b8152600401602060405180830381865afa158015612808573d5f803e3d5ffd5b505050506040513d601f19601f8201168201806040525081019061282c91906156ba565b61283691906156d1565b61284091906156d1565b613b25565b8860a00151612854919061568c565b8851613b25565b61286591906156d1565b61286f919061568c565b8152602001846101000151815260200161293d5f866040015111612893575f612921565b612921866040015161291b8a6001600160a01b031663a1e8f02b6040518163ffffffff1660e01b8152600401602060405180830381865afa1580156128da573d5f803e3d5ffd5b505050506040513d601f19601f820116820180604052508101906128fe91906156ba565b61291090670de0b6b3a764000061568c565b6040880151906121f3565b9061486a565b428760c00151612931919061568c565b6301e133809190611f2c565b8152602001866001600160a01b031663f3fdb15a6040518163ffffffff1660e01b8152600401602060405180830381865afa15801561297e573d5f803e3d5ffd5b505050506040513d601f19601f820116820180604052508101906129a2919061569f565b60c0860151608087015161010088015160e08901516101208a01516040517fd9d9048d000000000000000000000000000000000000000000000000000000008152600481019590955260248501939093526044840191909152606483015260848201526001600160a01b03919091169063d9d9048d9060a401602060405180830381865afa158015612a36573d5f803e3d5ffd5b505050506040513d601f19601f82011682018060405250810190612a5a91906156ba565b81526020018460400151815250848381518110612a7957612a79615b9e565b6020908102919091010152506001016123cb565b5050919050565b6060612a9e614d4b565b836001600160a01b0316636bb65f536040518163ffffffff1660e01b8152600401602060405180830381865afa158015612ada573d5f803e3d5ffd5b505050506040513d601f19601f82011682018060405250810190612afe919061569f565b6001600160a01b031680825215613b1e57604051638e8f294b60e01b81526001600160a01b0385811660048301527f00000000000000000000000000000000000000000000000000000000000000001690638e8f294b9060240160a060405180830381865afa158015612b73573d5f803e3d5ffd5b505050506040513d601f19601f82011682018060405250810190612b9791906159f6565b6001600160a01b0390811661010087015260ff9093166101608601819052600a0a60c08601525050610e106101808401528251604080517fb7eec413000000000000000000000000000000000000000000000000000000008152905191909216925063b7eec413916004808201925f929091908290030181865afa158015612c21573d5f803e3d5ffd5b505050506040513d5f823e601f3d908101601f19168201604052612c489190810190615cd2565b61014082018190525167ffffffffffffffff811115612c6957612c696156e4565b604051908082528060200260200182016040528015612cdf57816020015b612ccc6040518060e001604052805f6001600160a01b0316815260200160608152602001606081526020015f81526020015f81526020015f8152602001606081525090565b815260200190600190039081612c875790505b505f6101a083018190529092505b81610140015151826101a001511015612e2f57815f01516001600160a01b0316635684aa4686846101400151856101a0015181518110612d2f57612d2f615b9e565b60200260200101516040518363ffffffff1660e01b8152600401612d699291906001600160a01b0392831681529116602082015260400190565b606060405180830381865afa158015612d84573d5f803e3d5ffd5b505050506040513d601f19601f82011682018060405250810190612da89190615d62565b505063ffffffff166101c0830181905215612e1857816101400151826101a0015181518110612dd957612dd9615b9e565b6020026020010151838280612ded90615da2565b935081518110612dff57612dff615b9e565b60209081029190910101516001600160a01b0390911690525b816101a0018051612e2890615da2565b9052612ced565b828167ffffffffffffffff811115612e4957612e496156e4565b604051908082528060200260200182016040528015612ebf57816020015b612eac6040518060e001604052805f6001600160a01b0316815260200160608152602001606081526020015f81526020015f81526020015f8152602001606081525090565b815260200190600190039081612e675790505b505f6101a085015293505b8351836101a001511015612f305780836101a0015181518110612eef57612eef615b9e565b602002602001015184846101a0015181518110612f0e57612f0e615b9e565b6020026020010181905250826101a0018051612f2990615da2565b9052612eca565b50505f6101a08201525b8151816101a001511015613b1e57805f01516001600160a01b031663f2426f9a8584846101a0015181518110612f7257612f72615b9e565b6020908102919091010151516040516001600160e01b031960e085901b1681526001600160a01b039283166004820152911660248201526044016101c060405180830381865afa158015612fc8573d5f803e3d5ffd5b505050506040513d601f19601f82011682018060405250810190612fec9190615de2565b61012082018190526040908101519051631710760b60e31b81526001600160a01b0391821660048201527f00000000000000000000000000000000000000000000000000000000000000009091169063b883b05890602401602060405180830381865afa15801561305f573d5f803e3d5ffd5b505050506040513d601f19601f8201168201806040525081019061308391906156ba565b81610220018181525050805f01516001600160a01b03166344e250f88584846101a00151815181106130b7576130b7615b9e565b6020908102919091010151516040516001600160e01b031960e085901b1681526001600160a01b03928316600482015291166024820152604401606060405180830381865afa15801561310c573d5f803e3d5ffd5b505050506040513d601f19601f8201168201806040525081019061313091906159b5565b506040830152606082015280516101a082015183516001600160a01b0390921691635684aa46918791869190811061316a5761316a615b9e565b6020908102919091010151516040516001600160e01b031960e085901b1681526001600160a01b03928316600482015291166024820152604401606060405180830381865afa1580156131bf573d5f803e3d5ffd5b505050506040513d601f19601f820116820180604052508101906131e39190615d62565b505063ffffffff166101c082015280516101a082015183516001600160a01b039092169163fc196068918791869190811061322057613220615b9e565b60200260200101515f01518461012001516060015163ffffffff164211613247575f61324e565b8461018001515b6040516001600160e01b031960e086901b1681526001600160a01b0393841660048201529290911660248301526044820152606401606060405180830381865afa15801561329e573d5f803e3d5ffd5b505050506040513d601f19601f820116820180604052508101906132c291906159b5565b50608083015260a08201526101c08101516224ea00906132e3908290615bc6565b826101c001516132f3919061568c565b6132fd91906156d1565b81610260018181525050836001600160a01b0316630e52dbec6040518163ffffffff1660e01b8152600401602060405180830381865afa158015613343573d5f803e3d5ffd5b505050506040513d601f19601f82011682018060405250810190613367919061587b565b6133779060ff166224ea0061599e565b6133846224ea0042615bc6565b61338e904261568c565b61339891906156d1565b61024082018190526102608201516224ea00916133b5919061568c565b6133bf9190615edc565b6133ca9060016156d1565b67ffffffffffffffff8111156133e2576133e26156e4565b60405190808252806020026020018201604052801561340b578160200160208202803683370190505b5060e08201526102608101516101e08201525f5b816102400151826101e001511161351d576101e08201516040517f0ab69be80000000000000000000000000000000000000000000000000000000081525f916001600160a01b03881691630ab69be89161347f9160040190815260200190565b6040805180830381865afa158015613499573d5f803e3d5ffd5b505050506040513d601f19601f820116820180604052508101906134bd9190615849565b5090508083610200018181516134d391906156d1565b9052506101e083015160e08401518051849081106134f3576134f3615b9e565b6020908102919091010152506101e0820180516224ea0001905261351681615da2565b905061341f565b506040518060e0016040528083836101a001518151811061354057613540615b9e565b60200260200101515f01516001600160a01b0316815260200183836101a001518151811061357057613570615b9e565b60200260200101515f01516001600160a01b03166306fdde036040518163ffffffff1660e01b81526004015f60405180830381865afa1580156135b5573d5f803e3d5ffd5b505050506040513d5f823e601f3d908101601f191682016040526135dc9190810190615a62565b815260200183836101a00151815181106135f8576135f8615b9e565b60200260200101515f01516001600160a01b03166395d89b416040518163ffffffff1660e01b81526004015f60405180830381865afa15801561363d573d5f803e3d5ffd5b505050506040513d5f823e601f3d908101601f191682016040526136649190810190615a62565b8152602001613681858461022001516121f390919063ffffffff16565b81526020015f836102000151876001600160a01b031663eee8c9e06040518163ffffffff1660e01b8152600401602060405180830381865afa1580156136c9573d5f803e3d5ffd5b505050506040513d601f19601f820116820180604052508101906136ed91906156ba565b6136f791906156d1565b11613702575f6138f9565b61018083015160c0840151610100850151604051631710760b60e31b81526001600160a01b0391821660048201526138f9936301e133809390926138f2926137f1917f0000000000000000000000000000000000000000000000000000000000000000169063b883b05890602401602060405180830381865afa15801561378b573d5f803e3d5ffd5b505050506040513d601f19601f820116820180604052508101906137af91906156ba565b8961020001518d6001600160a01b031663eee8c9e06040518163ffffffff1660e01b8152600401602060405180830381865afa1580156125fe573d5f803e3d5ffd5b6138f2896102200151610e3f8e6001600160a01b031663bf722ca28d61020001516040518263ffffffff1660e01b815260040161383091815260200190565b602060405180830381865afa15801561384b573d5f803e3d5ffd5b505050506040513d601f19601f8201168201806040525081019061386f91906156ba565b8f6001600160a01b0316638d0e5f026040518163ffffffff1660e01b8152600401602060405180830381865afa1580156138ab573d5f803e3d5ffd5b505050506040513d601f19601f820116820180604052508101906138cf91906156ba565b6138d991906156d1565b8c60c001518d606001518e60a001516138f2919061568c565b9190611f2c565b81526020015f866001600160a01b03166301e1d1146040518163ffffffff1660e01b8152600401602060405180830381865afa15801561393b573d5f803e3d5ffd5b505050506040513d601f19601f8201168201806040525081019061395f91906156ba565b1161396a575f613ad8565b61018083015160c0840151610100850151604051631710760b60e31b81526001600160a01b039182166004820152613ad8936301e133809390926138f292613a53917f0000000000000000000000000000000000000000000000000000000000000000169063b883b05890602401602060405180830381865afa1580156139f3573d5f803e3d5ffd5b505050506040513d601f19601f82011682018060405250810190613a1791906156ba565b8c6001600160a01b03166301e1d1146040518163ffffffff1660e01b8152600401602060405180830381865afa158015610e1b573d5f803e3d5ffd5b6138f2896102200151610e3f8e6001600160a01b03166318160ddd6040518163ffffffff1660e01b8152600401602060405180830381865afa158015613a9b573d5f803e3d5ffd5b505050506040513d601f19601f82011682018060405250810190613abf91906156ba565b8c60c001518d604001518e608001516138f2919061568c565b81526020018260e0015181525082826101a0015181518110613afc57613afc615b9e565b6020026020010181905250806101a0018051613b1790615da2565b9052612f3a565b5092915050565b5f818310613b3357816121d8565b5090919050565b5f80613b4583614a12565b90505f613c03846001600160a01b0316634322b7146040518163ffffffff1660e01b8152600401602060405180830381865afa158015613b87573d5f803e3d5ffd5b505050506040513d601f19601f82011682018060405250810190613bab9190615b85565b613bbd90670de0b6b3a7640000615cb3565b6001600160801b031683866001600160a01b0316632e0af0086040518163ffffffff1660e01b8152600401602060405180830381865afa1580156125fe573d5f803e3d5ffd5b9050613ca68183866001600160a01b0316631a90f1866040518163ffffffff1660e01b8152600401602060405180830381865afa158015613c46573d5f803e3d5ffd5b505050506040513d601f19601f82011682018060405250810190613c6a91906156ba565b876001600160a01b0316638c3cba5a6040518163ffffffff1660e01b8152600401602060405180830381865afa158015612808573d5f803e3d5ffd5b6118b8908261568c565b828202811515841585830485141716613cc7575f80fd5b6001826001830304018115150290509392505050565b6040805160e0808252611c2082019092526060915f918291816020015b613d02614e9d565b815260200190600190039081613cfa575050602089901c9890915063ffffffff165b8815613f10576001891615613ef5575f805f8a8a858f6040518363ffffffff1660e01b8152600401613d699291909182526001600160a01b0316602082015260400190565b6040805180830381865afa158015613d83573d5f803e3d5ffd5b505050506040513d601f19601f82011682018060405250810190613da79190615849565b9092509050613db681836156d1565b9250604051806040016040528083815260200182815250858781518110613ddf57613ddf615b9e565b602002602001015160400181905250505086868d84848f6040518563ffffffff1660e01b8152600401613e3b94939291906001600160a01b03948516815260208101939093526040830191909152909116606082015260800190565b606060405180830381865afa925050508015613e74575060408051601f3d908101601f19168201909252613e7191810190615bd9565b60015b613ea05780838581518110613e8b57613e8b615b9e565b60200260200101516020018181525050613ec9565b8060200151848681518110613eb757613eb7615b9e565b60200260200101516020018181525050505b81838581518110613edc57613edc615b9e565b602090810291909101015152613ef184615da2565b9350505b60019890981c97613f096224ea00826156d1565b9050613d24565b8267ffffffffffffffff811115613f2957613f296156e4565b604051908082528060200260200182016040528015613f6257816020015b613f4f614e9d565b815260200190600190039081613f475790505b5093505f5b83811015613fae57828181518110613f8157613f81615b9e565b6020026020010151858281518110613f9b57613f9b615b9e565b6020908102919091010152600101613f67565b50505050979650505050505050565b60605f836001600160a01b0316636bb65f536040518163ffffffff1660e01b8152600401602060405180830381865afa158015613ffc573d5f803e3d5ffd5b505050506040513d601f19601f82011682018060405250810190614020919061569f565b90506001600160a01b03811615613b1e575f816001600160a01b031663b7eec4136040518163ffffffff1660e01b81526004015f60405180830381865afa15801561406d573d5f803e3d5ffd5b505050506040513d5f823e601f3d908101601f191682016040526140949190810190615cd2565b9050805167ffffffffffffffff8111156140b0576140b06156e4565b60405190808252806020026020018201604052801561411357816020015b61410060405180608001604052805f6001600160a01b0316815260200160608152602001606081526020015f81525090565b8152602001906001900390816140ce5790505b506040805160018082528183019092529194505f9190816020015b604080518082019091525f81526060602082015281526020019060019003908161412e5750506040805160028082526060820183529293505f9290916020830190803683370190505090506001815f8151811061418d5761418d615b9e565b6020026020010190151590811515815250505f816001815181106141b3576141b3615b9e565b6020026020010190151590811515815250506040518060400160405280886001600160a01b0316815260200182815250825f815181106141f5576141f5615b9e565b60200260200101819052505f5b835181101561449d575f856001600160a01b0316635684aa468a87858151811061422e5761422e615b9e565b60200260200101516040518363ffffffff1660e01b81526004016142689291906001600160a01b0392831681529116602082015260400190565b606060405180830381865afa158015614283573d5f803e3d5ffd5b505050506040513d601f19601f820116820180604052508101906142a79190615d62565b505090508063ffffffff165f146144945760405180608001604052808684815181106142d5576142d5615b9e565b60200260200101516001600160a01b031681526020018684815181106142fd576142fd615b9e565b60200260200101516001600160a01b03166306fdde036040518163ffffffff1660e01b81526004015f60405180830381865afa15801561433f573d5f803e3d5ffd5b505050506040513d5f823e601f3d908101601f191682016040526143669190810190615a62565b815260200186848151811061437d5761437d615b9e565b60200260200101516001600160a01b03166395d89b416040518163ffffffff1660e01b81526004015f60405180830381865afa1580156143bf573d5f803e3d5ffd5b505050506040513d5f823e601f3d908101601f191682016040526143e69190810190615a62565b8152602001876001600160a01b031663382e85ad878c8a888151811061440e5761440e615b9e565b60200260200101516040518463ffffffff1660e01b815260040161443493929190615eef565b602060405180830381865afa15801561444f573d5f803e3d5ffd5b505050506040513d601f19601f8201168201806040525081019061447391906156ba565b81525087838151811061448857614488615b9e565b60200260200101819052505b50600101614202565b505050505092915050565b6144cf60405180608001604052805f81526020015f81526020015f81526020015f81525090565b604051634e7c505960e01b8152600481018690525f9081906001600160a01b03891690634e7c505990602401608060405180830381865afa158015614516573d5f803e3d5ffd5b505050506040513d601f19601f8201168201806040525081019061453a9190615645565b606087015260408087019190915260208087019290925291855281518083019092525f80835290820152846145f5576040517fccfd8b11000000000000000000000000000000000000000000000000000000008152600481018990526001600160a01b0387811660248301528a169063ccfd8b11906044016040805180830381865afa1580156145cc573d5f803e3d5ffd5b505050506040513d601f19601f820116820180604052508101906145f09190615849565b61467c565b6040517fd2681a0b000000000000000000000000000000000000000000000000000000008152600481018990526001600160a01b0387811660248301528a169063d2681a0b906044016040805180830381865afa158015614658573d5f803e3d5ffd5b505050506040513d601f19601f8201168201806040525081019061467c9190615849565b602083015281528361468e8289614b92565b5f01516146fb8b87606001518c116146cd57886146af578760400151611f4a565b60608801516146be904261568c565b88604001516102cd919061599e565b6102cd8860600151426146e0919061568c565b60608a01516146ef908f61568c565b60408b01519190611f2c565b93509350935050955095509592505050565b5f61473560405180608001604052805f81526020015f81526020015f81526020015f81525090565b604051634e7c505960e01b8152600481018590526001600160a01b03861690634e7c505990602401608060405180830381865afa158015614778573d5f803e3d5ffd5b505050506040513d601f19601f8201168201806040525081019061479c9190615645565b60608501819052604085019190915260208401919091529082528411156147f4576147df8160600151426147d0919061568c565b60608301516124dc908761568c565b816040018181516147f0919061568c565b9052505b61486083866001600160a01b031663a1e8f02b6040518163ffffffff1660e01b8152600401602060405180830381865afa158015614834573d5f803e3d5ffd5b505050506040513d601f19601f8201168201806040525081019061485891906156ba565b839190614be0565b5095945050505050565b5f6121d883670de0b6b3a764000084611f2c565b5f680248ce36a70cb26b3e19821361489757505f919050565b680755bf798b4a1bf1e582126148ab575f80fd5b6503782dace9d9604e83901b0591505f60606bb17217f7d1cf79abc9e3b39884821b056b80000000000000000000000001901d6bb17217f7d1cf79abc9e3b39881029093036c240c330e9fb2d9cbaf0fd5aafb1981018102606090811d6d0277594991cfc85f6e2461837cd9018202811d6d1a521255e34f6a5061b25ef1c9c319018202811d6db1bbb201f443cf962f1a1d3db4a5018202811d7ffffffffffffffffffffffffffffffffffffd38dc772608b0ae56cce01296c0eb018202811d6e05180bb14799ab47a8a8cb2a527d57016d02d16720577bd19bf614176fe9ea6c10fe68e7fd37d0007b713f765084018402831d9081019084016d01d3967ed30fc4f89c02bab5708119010290911d6e0587f503bb6ea29d25fcb7401964500190910279d835ebba824c98fb31b83b2ca45c000000000000000000000000010574029d9dc38563c32e5c2f6dc192ee70ef65f9978af30260c3939093039290921c92915050565b5f6121be614b56836001600160a01b0316636eb9ffeb6040518163ffffffff1660e01b8152600401602060405180830381865afa158015614a55573d5f803e3d5ffd5b505050506040513d601f19601f82011682018060405250810190614a799190615c45565b614a899063ffffffff164261568c565b6301e13380856001600160a01b031663f3fdb15a6040518163ffffffff1660e01b8152600401602060405180830381865afa158015614aca573d5f803e3d5ffd5b505050506040513d601f19601f82011682018060405250810190614aee919061569f565b6040516342543a3360e11b81525f60048201526001600160a01b0391909116906384a8746690602401602060405180830381865afa158015614b32573d5f803e3d5ffd5b505050506040513d601f19601f820116820180604052508101906138f291906156ba565b836001600160a01b0316631a90f1866040518163ffffffff1660e01b8152600401602060405180830381865afa158015610e1b573d5f803e3d5ffd5b604080518082019091525f8082526020820152825160208401515f91614bc491614bbc90826156d1565b859190611f2c565b8085529050614bd3818461568c565b6020850152509192915050565b5f805f614bec86614c31565b90508015614c2857614c0d614c018683613b25565b60408801519083611f2c565b9250614c1983856121f3565b9150614c25828461568c565b92505b50935093915050565b805160208201515f9190614c458282613b25565b6118b8908361568c565b6040518061042001604052805f6001600160a01b03168152602001606081526020015f60ff1681526020015f6001600160a01b031681526020016060815260200160608152602001614c9f614ed4565b81526020015f81526020015f81526020015f81526020015f60ff1681526020015f815260200160608152602001606081526020015f81526020015f81526020015f81526020015f81526020015f81526020015f81526020015f81526020015f81526020015f81526020015f81526020015f151581526020015f81526020015f81526020015f81526020015f81526020015f81526020016060815260200160608152602001606081525090565b6040518061028001604052805f6001600160a01b031681526020015f81526020015f81526020015f81526020015f81526020015f81526020015f8152602001606081526020015f6001600160a01b03168152602001614e5a604051806101c001604052805f6001600160a01b031681526020015f6001600160a01b031681526020015f6001600160a01b031681526020015f63ffffffff1681526020015f81526020015f81526020015f81526020015f81526020015f600f0b81526020015f67ffffffffffffffff1681526020015f67ffffffffffffffff1681526020015f67ffffffffffffffff1681526020015f67ffffffffffffffff1681526020015f67ffffffffffffffff1681525090565b8152602001606081526020015f81526020015f81526020015f81526020015f81526020015f81526020015f81526020015f81526020015f81526020015f81525090565b60405180606001604052805f81526020015f8152602001614ecf60405180604001604052805f81526020015f81525090565b905290565b60405180604001604052805f6001600160a01b03168152602001614ecf6040518061016001604052805f81526020015f81526020015f81526020015f81526020015f81526020015f81526020015f81526020015f81526020015f81526020015f81526020015f81525090565b6001600160a01b0381168114614f54575f80fd5b50565b5f805f60608486031215614f69575f80fd5b8335614f7481614f40565b95602085013595506040909401359392505050565b815181526020808301519082015260408083015190820152606081016121be565b5f60208284031215614fba575f80fd5b81356121d881614f40565b5f81518084528060208401602086015e5f602082860101526020601f19601f83011685010191505092915050565b5f8151808452602084019350602083015f5b82811015615072578151805187526020810151602088015260408101516040880152606081015160608801526080810151608088015260a081015160a088015260c081015160c088015260e081015160e08801525061010086019550602082019150600181019050615005565b5093949350505050565b5f82825180855260208501945060208160051b830101602085015f5b8381101561516c57601f1985840301885281516001600160a01b038151168452602081015160e060208601526150d160e0860182614fc5565b9050604082015185820360408701526150ea8282614fc5565b915050606082015160608601526080820151608086015260a082015160a086015260c0820151915084810360c08601528082518083526020830191506020840193505f92505b808310156151535783518252602082019150602084019350600183019250615130565b5060209a8b019a90955093909301925050600101615098565b50909695505050505050565b5f8151808452602084019350602083015f5b8281101561507257815180518752602080820151818901526040918201518051928901929092529081015160608801526080909601959091019060010161518a565b5f82825180855260208501945060208160051b830101602085015f5b8381101561516c57601f1985840301885281516001600160a01b0381511684526020810151608060208601526152216080860182614fc5565b90506040820151858203604087015261523a8282614fc5565b60609384015196909301959095525060209889019890935091909101906001016151e8565b5f602082016020835280845180835260408501915060408160051b8601019250602086015f5b8281101561556757868503603f19018452815180516001600160a01b03168652602081015161058060208801526152c0610580880182614fc5565b905060408201516152d6604089018260ff169052565b5060608201516152f160608901826001600160a01b03169052565b50608082015187820360808901526153098282614fc5565b91505060a082015187820360a08901526153238282614fc5565b91505060c08201516153bc60c08901826001600160a01b038151168252602081015180516020840152602081015160408401526040810151606084015260608101516080840152608081015160a084015260a081015160c084015260c081015160e084015260e0810151610100840152610100810151610120840152610120810151610140840152610140810151610160840152505050565b5060e082015161024088015261010082015161026088015261012082015161028088015261014082015160ff166102a08801526101608201516102c08801526101808201518782036102e08901526154148282614ff3565b9150506101a0820151878203610300890152615430828261507c565b9150506101c08201516103208801526101e08201516103408801526102008201516103608801526102208201516103808801526102408201516103a08801526102608201516103c08801526102808201516103e08801526102a08201516104008801526102c08201516104208801526102e08201516104408801526103008201516154c061046089018215159052565b506103208201516104808801526103408201516104a08801526103608201516104c08801526103808201516104e08801526103a08201516105008801526103c08201518782036105208901526155168282615178565b9150506103e08201518782036105408901526155328282615178565b915050610400820151915086810361056088015261555081836151cc565b965050506020938401939190910190600101615285565b50929695505050505050565b5f805f8060808587031215615586575f80fd5b843561559181614f40565b9350602085013592506040850135915060608501356155af81614f40565b939692955090935050565b5f80604083850312156155cb575f80fd5b82356155d681614f40565b946020939093013593505050565b602080825282518282018190525f918401906040840190835b8181101561563a576156248385518051825260208082015190830152604090810151910152565b60209390930192606092909201916001016155fd565b509095945050505050565b5f805f8060808587031215615658575f80fd5b505082516020840151604085015160609095015191969095509092509050565b634e487b7160e01b5f52601160045260245ffd5b818103818111156121be576121be615678565b5f602082840312156156af575f80fd5b81516121d881614f40565b5f602082840312156156ca575f80fd5b5051919050565b808201808211156121be576121be615678565b634e487b7160e01b5f52604160045260245ffd5b604051610160810167ffffffffffffffff8111828210171561571c5761571c6156e4565b60405290565b6040516101c0810167ffffffffffffffff8111828210171561571c5761571c6156e4565b604051601f8201601f1916810167ffffffffffffffff8111828210171561576f5761576f6156e4565b604052919050565b5f67ffffffffffffffff821115615790576157906156e4565b5060051b60200190565b80516157a581614f40565b919050565b5f602082840312156157ba575f80fd5b815167ffffffffffffffff8111156157d0575f80fd5b8201601f810184136157e0575f80fd5b80516157f36157ee82615777565b615746565b8082825260208201915060208360051b850101925086831115615814575f80fd5b6020840193505b8284101561583f57835161582e81614f40565b82526020938401939091019061581b565b9695505050505050565b5f806040838503121561585a575f80fd5b505080516020909101519092909150565b805160ff811681146157a5575f80fd5b5f6020828403121561588b575f80fd5b6121d88261586b565b60ff82811682821603908111156121be576121be615678565b6001815b60018411156158e8578085048111156158cc576158cc615678565b60018416156158da57908102905b60019390931c9280026158b1565b935093915050565b5f826158fe575060016121be565b8161590a57505f6121be565b8160018114615920576002811461592a57615946565b60019150506121be565b60ff84111561593b5761593b615678565b50506001821b6121be565b5060208310610133831016604e8410600b8410161715615969575081810a6121be565b6159755f1984846158ad565b805f190482111561598857615988615678565b029392505050565b5f6121d860ff8416836158f0565b80820281158282048414176121be576121be615678565b5f805f606084860312156159c7575f80fd5b5050815160208301516040909301519094929350919050565b80516001600160801b03811681146157a5575f80fd5b5f805f805f60a08688031215615a0a575f80fd5b615a13866159e0565b9450615a216020870161586b565b9350615a2f6040870161586b565b925060608601518015158114615a43575f80fd5b6080870151909250615a5481614f40565b809150509295509295909350565b5f60208284031215615a72575f80fd5b815167ffffffffffffffff811115615a88575f80fd5b8201601f81018413615a98575f80fd5b805167ffffffffffffffff811115615ab257615ab26156e4565b615ac5601f8201601f1916602001615746565b818152856020838501011115615ad9575f80fd5b8160208401602083015e5f91810160200191909152949350505050565b5f610160828403128015615b08575f80fd5b50615b116156f8565b825181526020808401519082015260408084015190820152606080840151908201526080808401519082015260a0808401519082015260c0808401519082015260e0808401519082015261010080840151908201526101208084015190820152610140928301519281019290925250919050565b5f60208284031215615b95575f80fd5b6121d8826159e0565b634e487b7160e01b5f52603260045260245ffd5b634e487b7160e01b5f52601260045260245ffd5b5f82615bd457615bd4615bb2565b500690565b5f6060828403128015615bea575f80fd5b506040516060810167ffffffffffffffff81118282101715615c0e57615c0e6156e4565b60409081528351825260208085015190830152928301519281019290925250919050565b805163ffffffff811681146157a5575f80fd5b5f60208284031215615c55575f80fd5b6121d882615c32565b5f7f80000000000000000000000000000000000000000000000000000000000000008203615c8e57615c8e615678565b505f0390565b8181035f831280158383131683831282161715613b1e57613b1e615678565b6001600160801b0382811682821603908111156121be576121be615678565b5f60208284031215615ce2575f80fd5b815167ffffffffffffffff811115615cf8575f80fd5b8201601f81018413615d08575f80fd5b8051615d166157ee82615777565b8082825260208201915060208360051b850101925086831115615d37575f80fd5b6020840193505b8284101561583f578351615d5181614f40565b825260209384019390910190615d3e565b5f805f60608486031215615d74575f80fd5b615d7d84615c32565b9250615d8b60208501615c32565b9150615d9960408501615c32565b90509250925092565b5f60018201615db357615db3615678565b5060010190565b8051600f81900b81146157a5575f80fd5b805167ffffffffffffffff811681146157a5575f80fd5b5f6101c0828403128015615df4575f80fd5b50615dfd615722565b615e068361579a565b8152615e146020840161579a565b6020820152615e256040840161579a565b6040820152615e3660608401615c32565b60608201526080838101519082015260a0808401519082015260c0808401519082015260e08084015190820152615e706101008401615dba565b610100820152615e836101208401615dcb565b610120820152615e966101408401615dcb565b610140820152615ea96101608401615dcb565b610160820152615ebc6101808401615dcb565b610180820152615ecf6101a08401615dcb565b6101a08201529392505050565b5f82615eea57615eea615bb2565b500490565b5f606082016060835280865180835260808501915060808160051b8601019250602088015f5b82811015615f9357868503607f19018452815180516001600160a01b03168652602090810151604082880181905281519088018190529101905f9060608801905b80831015615f7b57835115158252602082019150602084019350600183019250615f56565b50965050506020938401939190910190600101615f15565b5050506001600160a01b03861660208501525090506001600160a01b03831660408301526118b856fea2646970667358221220734ced8cb7ead48b286772c66b7feb86b32d2f12ef1b1d74fb4b426a1dcaee2564736f6c634300081a0033",
  "devdoc": {
    "kind": "dev",
    "methods": {
      "constructor": {
        "custom:oz-upgrades-unsafe-allow": "constructor"
      },
      "exactly(address)": {
        "params": {
          "account": "address which the extended data will be calculated."
        },
        "returns": {
          "data": "extended accountability of all markets for the account."
        }
      },
      "previewBorrowAtAllMaturities(address,uint256)": {
        "params": {
          "assets": "amount of assets that will be borrowed.",
          "market": "address of the market."
        },
        "returns": {
          "previews": "array containing amount plus yield that account will receive after each maturity."
        }
      },
      "previewBorrowAtMaturity(address,uint256,uint256)": {
        "params": {
          "assets": "amount of assets that will be borrowed.",
          "market": "address of the market.",
          "maturity": "maturity date/pool where the assets will be borrowed."
        },
        "returns": {
          "_0": "positionAssets amount plus fees that the depositor will repay at maturity."
        }
      },
      "previewDepositAtAllMaturities(address,uint256)": {
        "params": {
          "assets": "amount of assets that will be deposited.",
          "market": "address of the market."
        },
        "returns": {
          "previews": "array containing amount plus yield that account will receive after each maturity."
        }
      },
      "previewDepositAtMaturity(address,uint256,uint256)": {
        "params": {
          "assets": "amount of assets that will be deposited.",
          "market": "address of the market.",
          "maturity": "maturity date/pool where the assets will be deposited."
        },
        "returns": {
          "_0": "amount plus yield that the depositor will receive after maturity."
        }
      },
      "previewRepayAtMaturity(address,uint256,uint256,address)": {
        "params": {
          "borrower": "address of the borrower.",
          "market": "address of the market.",
          "maturity": "maturity date/pool where the assets will be repaid.",
          "positionAssets": "amount of assets that will be subtracted from the position."
        },
        "returns": {
          "_0": "repayAssets amount of assets that will be repaid."
        }
      },
      "previewWithdrawAtMaturity(address,uint256,uint256,address)": {
        "params": {
          "market": "address of the market.",
          "maturity": "maturity date/pool where the assets will be withdrawn.",
          "positionAssets": "amount of assets that will be tried to withdraw."
        },
        "returns": {
          "_0": "withdrawAssets amount that will be withdrawn."
        }
      }
    },
    "stateVariables": {
      "auditor": {
        "custom:oz-upgrades-unsafe-allow": "state-variable-immutable"
      },
      "basePriceFeed": {
        "custom:oz-upgrades-unsafe-allow": "state-variable-immutable"
      }
    },
    "title": "Previewer",
    "version": 1
  },
  "userdoc": {
    "kind": "user",
    "methods": {
      "exactly(address)": {
        "notice": "Function to get a certain account extended data."
      },
      "previewBorrowAtAllMaturities(address,uint256)": {
        "notice": "Gets the assets plus fees offered by all VALID maturities when borrowing a certain amount."
      },
      "previewBorrowAtMaturity(address,uint256,uint256)": {
        "notice": "Gets the amount plus fees to be repaid at maturity when borrowing certain amount of assets."
      },
      "previewDepositAtAllMaturities(address,uint256)": {
        "notice": "Gets the assets plus yield offered by all VALID maturities when depositing a certain amount."
      },
      "previewDepositAtMaturity(address,uint256,uint256)": {
        "notice": "Gets the assets plus yield offered by a maturity when depositing a certain amount."
      },
      "previewRepayAtMaturity(address,uint256,uint256,address)": {
        "notice": "Gets the assets that will be repaid when repaying a certain amount at the current maturity."
      },
      "previewWithdrawAtMaturity(address,uint256,uint256,address)": {
        "notice": "Gets the amount to be withdrawn for a certain positionAmount of assets at maturity."
      }
    },
    "notice": "Contract to be consumed by Exactly's front-end dApp.",
    "version": 1
  },
  "storageLayout": {
    "storage": [],
    "types": null
  }
}