{
  "address": "0x1c7B43a0bbab0a5EA0A1435F31D1c8e05Cc6aE98",
  "abi": [
    {
      "inputs": [
        {
          "internalType": "address",
          "name": "_priceOracleAddress",
          "type": "address"
        }
      ],
      "stateMutability": "nonpayable",
      "type": "constructor"
    },
    {
      "anonymous": false,
      "inputs": [
        {
          "indexed": false,
          "internalType": "address",
          "name": "exafin",
          "type": "address"
        },
        {
          "indexed": false,
          "internalType": "string",
          "name": "action",
          "type": "string"
        },
        {
          "indexed": false,
          "internalType": "bool",
          "name": "paused",
          "type": "bool"
        }
      ],
      "name": "ActionPaused",
      "type": "event"
    },
    {
      "anonymous": false,
      "inputs": [
        {
          "indexed": false,
          "internalType": "contract IExafin",
          "name": "exafin",
          "type": "address"
        },
        {
          "indexed": false,
          "internalType": "address",
          "name": "account",
          "type": "address"
        }
      ],
      "name": "MarketEntered",
      "type": "event"
    },
    {
      "anonymous": false,
      "inputs": [
        {
          "indexed": true,
          "internalType": "address",
          "name": "previousOwner",
          "type": "address"
        },
        {
          "indexed": true,
          "internalType": "address",
          "name": "newOwner",
          "type": "address"
        }
      ],
      "name": "OwnershipTransferred",
      "type": "event"
    },
    {
      "anonymous": false,
      "inputs": [
        {
          "indexed": true,
          "internalType": "bytes32",
          "name": "role",
          "type": "bytes32"
        },
        {
          "indexed": true,
          "internalType": "bytes32",
          "name": "previousAdminRole",
          "type": "bytes32"
        },
        {
          "indexed": true,
          "internalType": "bytes32",
          "name": "newAdminRole",
          "type": "bytes32"
        }
      ],
      "name": "RoleAdminChanged",
      "type": "event"
    },
    {
      "anonymous": false,
      "inputs": [
        {
          "indexed": true,
          "internalType": "bytes32",
          "name": "role",
          "type": "bytes32"
        },
        {
          "indexed": true,
          "internalType": "address",
          "name": "account",
          "type": "address"
        },
        {
          "indexed": true,
          "internalType": "address",
          "name": "sender",
          "type": "address"
        }
      ],
      "name": "RoleGranted",
      "type": "event"
    },
    {
      "anonymous": false,
      "inputs": [
        {
          "indexed": true,
          "internalType": "bytes32",
          "name": "role",
          "type": "bytes32"
        },
        {
          "indexed": true,
          "internalType": "address",
          "name": "account",
          "type": "address"
        },
        {
          "indexed": true,
          "internalType": "address",
          "name": "sender",
          "type": "address"
        }
      ],
      "name": "RoleRevoked",
      "type": "event"
    },
    {
      "inputs": [],
      "name": "DEFAULT_ADMIN_ROLE",
      "outputs": [
        {
          "internalType": "bytes32",
          "name": "",
          "type": "bytes32"
        }
      ],
      "stateMutability": "view",
      "type": "function"
    },
    {
      "inputs": [],
      "name": "TEAM_ROLE",
      "outputs": [
        {
          "internalType": "bytes32",
          "name": "",
          "type": "bytes32"
        }
      ],
      "stateMutability": "view",
      "type": "function"
    },
    {
      "inputs": [
        {
          "internalType": "address",
          "name": "",
          "type": "address"
        },
        {
          "internalType": "uint256",
          "name": "",
          "type": "uint256"
        }
      ],
      "name": "accountAssets",
      "outputs": [
        {
          "internalType": "contract IExafin",
          "name": "",
          "type": "address"
        }
      ],
      "stateMutability": "view",
      "type": "function"
    },
    {
      "inputs": [
        {
          "internalType": "address",
          "name": "exafinAddress",
          "type": "address"
        },
        {
          "internalType": "address",
          "name": "borrower",
          "type": "address"
        },
        {
          "internalType": "uint256",
          "name": "borrowAmount",
          "type": "uint256"
        },
        {
          "internalType": "uint256",
          "name": "maturityDate",
          "type": "uint256"
        }
      ],
      "name": "borrowAllowed",
      "outputs": [
        {
          "internalType": "uint256",
          "name": "",
          "type": "uint256"
        }
      ],
      "stateMutability": "nonpayable",
      "type": "function"
    },
    {
      "inputs": [
        {
          "internalType": "address",
          "name": "",
          "type": "address"
        }
      ],
      "name": "borrowCaps",
      "outputs": [
        {
          "internalType": "uint256",
          "name": "",
          "type": "uint256"
        }
      ],
      "stateMutability": "view",
      "type": "function"
    },
    {
      "inputs": [
        {
          "internalType": "address",
          "name": "",
          "type": "address"
        }
      ],
      "name": "borrowPaused",
      "outputs": [
        {
          "internalType": "bool",
          "name": "",
          "type": "bool"
        }
      ],
      "stateMutability": "view",
      "type": "function"
    },
    {
      "inputs": [
        {
          "internalType": "address",
          "name": "exafin",
          "type": "address"
        },
        {
          "internalType": "uint256",
          "name": "collateralFactor",
          "type": "uint256"
        },
        {
          "internalType": "string",
          "name": "symbol",
          "type": "string"
        },
        {
          "internalType": "string",
          "name": "name",
          "type": "string"
        }
      ],
      "name": "enableMarket",
      "outputs": [],
      "stateMutability": "nonpayable",
      "type": "function"
    },
    {
      "inputs": [
        {
          "internalType": "address[]",
          "name": "exafins",
          "type": "address[]"
        }
      ],
      "name": "enterMarkets",
      "outputs": [
        {
          "internalType": "uint256[]",
          "name": "",
          "type": "uint256[]"
        }
      ],
      "stateMutability": "nonpayable",
      "type": "function"
    },
    {
      "inputs": [
        {
          "internalType": "address",
          "name": "account",
          "type": "address"
        },
        {
          "internalType": "uint256",
          "name": "maturityDate",
          "type": "uint256"
        }
      ],
      "name": "getAccountLiquidity",
      "outputs": [
        {
          "internalType": "uint256",
          "name": "",
          "type": "uint256"
        },
        {
          "internalType": "uint256",
          "name": "",
          "type": "uint256"
        },
        {
          "internalType": "uint256",
          "name": "",
          "type": "uint256"
        }
      ],
      "stateMutability": "view",
      "type": "function"
    },
    {
      "inputs": [
        {
          "internalType": "address",
          "name": "contractAddress",
          "type": "address"
        }
      ],
      "name": "getMarketByAddress",
      "outputs": [
        {
          "internalType": "address",
          "name": "",
          "type": "address"
        },
        {
          "internalType": "string",
          "name": "",
          "type": "string"
        },
        {
          "internalType": "bool",
          "name": "",
          "type": "bool"
        },
        {
          "internalType": "uint256",
          "name": "",
          "type": "uint256"
        },
        {
          "internalType": "string",
          "name": "",
          "type": "string"
        }
      ],
      "stateMutability": "view",
      "type": "function"
    },
    {
      "inputs": [],
      "name": "getMarkets",
      "outputs": [
        {
          "internalType": "address[]",
          "name": "",
          "type": "address[]"
        },
        {
          "internalType": "string[]",
          "name": "",
          "type": "string[]"
        },
        {
          "internalType": "bool[]",
          "name": "",
          "type": "bool[]"
        },
        {
          "internalType": "uint256[]",
          "name": "",
          "type": "uint256[]"
        },
        {
          "internalType": "string[]",
          "name": "",
          "type": "string[]"
        }
      ],
      "stateMutability": "view",
      "type": "function"
    },
    {
      "inputs": [
        {
          "internalType": "bytes32",
          "name": "role",
          "type": "bytes32"
        }
      ],
      "name": "getRoleAdmin",
      "outputs": [
        {
          "internalType": "bytes32",
          "name": "",
          "type": "bytes32"
        }
      ],
      "stateMutability": "view",
      "type": "function"
    },
    {
      "inputs": [
        {
          "internalType": "bytes32",
          "name": "role",
          "type": "bytes32"
        },
        {
          "internalType": "address",
          "name": "account",
          "type": "address"
        }
      ],
      "name": "grantRole",
      "outputs": [],
      "stateMutability": "nonpayable",
      "type": "function"
    },
    {
      "inputs": [
        {
          "internalType": "bytes32",
          "name": "role",
          "type": "bytes32"
        },
        {
          "internalType": "address",
          "name": "account",
          "type": "address"
        }
      ],
      "name": "hasRole",
      "outputs": [
        {
          "internalType": "bool",
          "name": "",
          "type": "bool"
        }
      ],
      "stateMutability": "view",
      "type": "function"
    },
    {
      "inputs": [
        {
          "internalType": "address",
          "name": "exafin",
          "type": "address"
        }
      ],
      "name": "listMarket",
      "outputs": [],
      "stateMutability": "nonpayable",
      "type": "function"
    },
    {
      "inputs": [
        {
          "internalType": "address",
          "name": "",
          "type": "address"
        }
      ],
      "name": "listedMarkets",
      "outputs": [
        {
          "internalType": "string",
          "name": "symbol",
          "type": "string"
        },
        {
          "internalType": "string",
          "name": "name",
          "type": "string"
        },
        {
          "internalType": "bool",
          "name": "isListed",
          "type": "bool"
        },
        {
          "internalType": "uint256",
          "name": "collateralFactor",
          "type": "uint256"
        },
        {
          "internalType": "bool",
          "name": "exists",
          "type": "bool"
        }
      ],
      "stateMutability": "view",
      "type": "function"
    },
    {
      "inputs": [
        {
          "internalType": "address",
          "name": "",
          "type": "address"
        }
      ],
      "name": "markets",
      "outputs": [
        {
          "components": [
            {
              "internalType": "string",
              "name": "symbol",
              "type": "string"
            },
            {
              "internalType": "string",
              "name": "name",
              "type": "string"
            },
            {
              "internalType": "bool",
              "name": "isListed",
              "type": "bool"
            },
            {
              "internalType": "uint256",
              "name": "collateralFactor",
              "type": "uint256"
            },
            {
              "internalType": "bool",
              "name": "exists",
              "type": "bool"
            }
          ],
          "internalType": "struct ExaFront.BaseMarket",
          "name": "baseMarket",
          "type": "tuple"
        }
      ],
      "stateMutability": "view",
      "type": "function"
    },
    {
      "inputs": [],
      "name": "owner",
      "outputs": [
        {
          "internalType": "address",
          "name": "",
          "type": "address"
        }
      ],
      "stateMutability": "view",
      "type": "function"
    },
    {
      "inputs": [
        {
          "internalType": "address",
          "name": "exafin",
          "type": "address"
        },
        {
          "internalType": "bool",
          "name": "paused",
          "type": "bool"
        }
      ],
      "name": "pauseBorrow",
      "outputs": [
        {
          "internalType": "bool",
          "name": "",
          "type": "bool"
        }
      ],
      "stateMutability": "nonpayable",
      "type": "function"
    },
    {
      "inputs": [
        {
          "internalType": "address",
          "name": "exafinAddress",
          "type": "address"
        },
        {
          "internalType": "address",
          "name": "redeemer",
          "type": "address"
        },
        {
          "internalType": "uint256",
          "name": "redeemTokens",
          "type": "uint256"
        },
        {
          "internalType": "uint256",
          "name": "maturityDate",
          "type": "uint256"
        }
      ],
      "name": "redeemAllowed",
      "outputs": [
        {
          "internalType": "uint256",
          "name": "",
          "type": "uint256"
        }
      ],
      "stateMutability": "view",
      "type": "function"
    },
    {
      "inputs": [],
      "name": "renounceOwnership",
      "outputs": [],
      "stateMutability": "nonpayable",
      "type": "function"
    },
    {
      "inputs": [
        {
          "internalType": "bytes32",
          "name": "role",
          "type": "bytes32"
        },
        {
          "internalType": "address",
          "name": "account",
          "type": "address"
        }
      ],
      "name": "renounceRole",
      "outputs": [],
      "stateMutability": "nonpayable",
      "type": "function"
    },
    {
      "inputs": [
        {
          "internalType": "address",
          "name": "exafinAddress",
          "type": "address"
        },
        {
          "internalType": "address",
          "name": "borrower",
          "type": "address"
        },
        {
          "internalType": "uint256",
          "name": "repayAmount",
          "type": "uint256"
        }
      ],
      "name": "repayAllowed",
      "outputs": [
        {
          "internalType": "uint256",
          "name": "",
          "type": "uint256"
        }
      ],
      "stateMutability": "view",
      "type": "function"
    },
    {
      "inputs": [
        {
          "internalType": "bytes32",
          "name": "role",
          "type": "bytes32"
        },
        {
          "internalType": "address",
          "name": "account",
          "type": "address"
        }
      ],
      "name": "revokeRole",
      "outputs": [],
      "stateMutability": "nonpayable",
      "type": "function"
    },
    {
      "inputs": [
        {
          "internalType": "address",
          "name": "_priceOracleAddress",
          "type": "address"
        }
      ],
      "name": "setOracle",
      "outputs": [],
      "stateMutability": "nonpayable",
      "type": "function"
    },
    {
      "inputs": [
        {
          "internalType": "bytes4",
          "name": "interfaceId",
          "type": "bytes4"
        }
      ],
      "name": "supportsInterface",
      "outputs": [
        {
          "internalType": "bool",
          "name": "",
          "type": "bool"
        }
      ],
      "stateMutability": "view",
      "type": "function"
    },
    {
      "inputs": [
        {
          "internalType": "address",
          "name": "newOwner",
          "type": "address"
        }
      ],
      "name": "transferOwnership",
      "outputs": [],
      "stateMutability": "nonpayable",
      "type": "function"
    },
    {
      "inputs": [
        {
          "internalType": "address",
          "name": "exafin",
          "type": "address"
        }
      ],
      "name": "unlistMarket",
      "outputs": [],
      "stateMutability": "nonpayable",
      "type": "function"
    }
  ],
  "transactionHash": "0xf0c3f278e2a9c0e06395ef09eba90b89d507f3a501a98df9b7c9a0ecc19d6b62",
  "args": [
    "0x6d2299c48a8dd07a872fdd0f8233924872ad1071"
  ],
  "solcInputHash": "f4edefc07f15eaaed019105c5613081f",
  "bytecode": "0x608060405260006007553480156200001657600080fd5b50604051620055073803806200550783398181016040528101906200003c91906200030c565b60006200004e6200017b60201b60201c565b9050806000806101000a81548173ffffffffffffffffffffffffffffffffffffffff021916908373ffffffffffffffffffffffffffffffffffffffff1602179055508073ffffffffffffffffffffffffffffffffffffffff16600073ffffffffffffffffffffffffffffffffffffffff167f8be0079c531659141344cd1fd0a4f28419497f9722a3daafe3b4186f6b6457e060405160405180910390a35080600960006101000a81548173ffffffffffffffffffffffffffffffffffffffff021916908373ffffffffffffffffffffffffffffffffffffffff160217905550620001426000801b336200018360201b60201c565b620001747f5146a08baf902532d0ee2f909971144f12ca32651cd70cbee1117cddfb3b3b33336200018360201b60201c565b5062000386565b600033905090565b6200019582826200019960201b60201c565b5050565b620001ab82826200028a60201b60201c565b6200028657600180600084815260200190815260200160002060000160008373ffffffffffffffffffffffffffffffffffffffff1673ffffffffffffffffffffffffffffffffffffffff16815260200190815260200160002060006101000a81548160ff0219169083151502179055506200022b6200017b60201b60201c565b73ffffffffffffffffffffffffffffffffffffffff168173ffffffffffffffffffffffffffffffffffffffff16837f2f8788117e7eff1d82e926ec794901d17c78024a50270940304540a733656f0d60405160405180910390a45b5050565b60006001600084815260200190815260200160002060000160008373ffffffffffffffffffffffffffffffffffffffff1673ffffffffffffffffffffffffffffffffffffffff16815260200190815260200160002060009054906101000a900460ff16905092915050565b60008151905062000306816200036c565b92915050565b6000602082840312156200031f57600080fd5b60006200032f84828501620002f5565b91505092915050565b600062000345826200034c565b9050919050565b600073ffffffffffffffffffffffffffffffffffffffff82169050919050565b620003778162000338565b81146200038357600080fd5b50565b61517180620003966000396000f3fe608060405234801561001057600080fd5b50600436106101c45760003560e01c80638e8f294b116100f9578063d547741f11610097578063dec481b811610071578063dec481b814610567578063df26c46814610597578063ec2c9016146105cb578063f2fde38b146105ed576101c4565b8063d547741f146104eb578063d76a677914610507578063dce1544914610537576101c4565b8063a217fddf116100d3578063a217fddf14610451578063b962aaeb1461046f578063c29982381461049f578063ce819019146104cf576101c4565b80638e8f294b146103bf57806391d14854146103ef5780639e35e1421461041f576101c4565b80632f8832d6116101665780634a584432116101405780634a5844321461034b578063715018a61461037b5780637adbf973146103855780638da5cb5b146103a1576101c4565b80632f8832d6146102e157806336568abe1461031157806349d5e6041461032d576101c4565b8063248a9ca3116101a2578063248a9ca31461024557806326319519146102755780632ee01216146102915780632f2ff15d146102c5576101c4565b806301ffc9a7146101c9578063059a8008146101f95780630686dab614610229575b600080fd5b6101e360048036038101906101de9190613f2b565b610609565b6040516101f0919061490f565b60405180910390f35b610213600480360381019061020e9190613d13565b610683565b6040516102209190614b8e565b60405180910390f35b610243600480360381019061023e9190613c9b565b610e3b565b005b61025f600480360381019061025a9190613ec6565b610ff3565b60405161026c919061492a565b60405180910390f35b61028f600480360381019061028a9190613c9b565b611013565b005b6102ab60048036038101906102a69190613c9b565b611261565b6040516102bc9594939291906149ab565b60405180910390f35b6102df60048036038101906102da9190613eef565b6113c1565b005b6102fb60048036038101906102f69190613d13565b6113ea565b6040516103089190614b8e565b60405180910390f35b61032b60048036038101906103269190613eef565b6116b8565b005b61033561173b565b604051610342919061492a565b60405180910390f35b61036560048036038101906103609190613c9b565b61175f565b6040516103729190614b8e565b60405180910390f35b610383611777565b005b61039f600480360381019061039a9190613c9b565b6118b1565b005b6103a9611928565b6040516103b69190614796565b60405180910390f35b6103d960048036038101906103d49190613c9b565b611951565b6040516103e69190614b6c565b60405180910390f35b61040960048036038101906104049190613eef565b611add565b604051610416919061490f565b60405180910390f35b61043960048036038101906104349190613db2565b611b48565b60405161044893929190614ba9565b60405180910390f35b610459611bb1565b604051610466919061492a565b60405180910390f35b61048960048036038101906104849190613cc4565b611bb8565b6040516104969190614b8e565b60405180910390f35b6104b960048036038101906104b49190613e81565b611c96565b6040516104c691906148ed565b60405180910390f35b6104e960048036038101906104e49190613dee565b611e17565b005b61050560048036038101906105009190613eef565b61207f565b005b610521600480360381019061051c9190613c9b565b6120a8565b60405161052e919061490f565b60405180910390f35b610551600480360381019061054c9190613db2565b6120c8565b60405161055e9190614945565b60405180910390f35b610581600480360381019061057c9190613d76565b612116565b60405161058e919061490f565b60405180910390f35b6105b160048036038101906105ac9190613c9b565b612276565b6040516105c29594939291906147b1565b60405180910390f35b6105d361241a565b6040516105e4959493929190614877565b60405180910390f35b61060760048036038101906106029190613c9b565b6129c1565b005b60007f7965db0b000000000000000000000000000000000000000000000000000000007bffffffffffffffffffffffffffffffffffffffffffffffffffffffff1916827bffffffffffffffffffffffffffffffffffffffffffffffffffffffff1916148061067c575061067b82612b6a565b5b9050919050565b6000600460008673ffffffffffffffffffffffffffffffffffffffff1673ffffffffffffffffffffffffffffffffffffffff16815260200190815260200160002060009054906101000a900460ff1615610712576040517f08c379a000000000000000000000000000000000000000000000000000000000815260040161070990614b2c565b60405180910390fd5b600260008673ffffffffffffffffffffffffffffffffffffffff1673ffffffffffffffffffffffffffffffffffffffff16815260200190815260200160002060000160020160009054906101000a900460ff166107aa57600160048111156107a3577f4e487b7100000000000000000000000000000000000000000000000000000000600052602160045260246000fd5b9050610e33565b600260008673ffffffffffffffffffffffffffffffffffffffff1673ffffffffffffffffffffffffffffffffffffffff16815260200190815260200160002060050160008573ffffffffffffffffffffffffffffffffffffffff1673ffffffffffffffffffffffffffffffffffffffff16815260200190815260200160002060009054906101000a900460ff16610a32578473ffffffffffffffffffffffffffffffffffffffff163373ffffffffffffffffffffffffffffffffffffffff16146108a9576040517f08c379a00000000000000000000000000000000000000000000000000000000081526004016108a090614aac565b60405180910390fd5b60006108b53386612bd4565b9050600060048111156108f1577f4e487b7100000000000000000000000000000000000000000000000000000000600052602160045260246000fd5b81600481111561092a577f4e487b7100000000000000000000000000000000000000000000000000000000600052602160045260246000fd5b1461097057806004811115610968577f4e487b7100000000000000000000000000000000000000000000000000000000600052602160045260246000fd5b915050610e33565b600260008773ffffffffffffffffffffffffffffffffffffffff1673ffffffffffffffffffffffffffffffffffffffff16815260200190815260200160002060050160008673ffffffffffffffffffffffffffffffffffffffff1673ffffffffffffffffffffffffffffffffffffffff16815260200190815260200160002060009054906101000a900460ff16610a30577f4e487b7100000000000000000000000000000000000000000000000000000000600052600160045260246000fd5b505b6000600960009054906101000a900473ffffffffffffffffffffffffffffffffffffffff1673ffffffffffffffffffffffffffffffffffffffff1663fe2c61988773ffffffffffffffffffffffffffffffffffffffff16636c02a9316040518163ffffffff1660e01b815260040160006040518083038186803b158015610ab857600080fd5b505afa158015610acc573d6000803e3d6000fd5b505050506040513d6000823e3d601f19601f82011682018060405250810190610af59190613f54565b6040518263ffffffff1660e01b8152600401610b119190614989565b60206040518083038186803b158015610b2957600080fd5b505afa158015610b3d573d6000803e3d6000fd5b505050506040513d601f19601f82011682018060405250810190610b619190613f95565b1415610ba85760036004811115610ba1577f4e487b7100000000000000000000000000000000000000000000000000000000600052602160045260246000fd5b9050610e33565b6000600560008773ffffffffffffffffffffffffffffffffffffffff1673ffffffffffffffffffffffffffffffffffffffff16815260200190815260200160002054905060008114610cd65760008673ffffffffffffffffffffffffffffffffffffffff1663ea1cd41f856040518263ffffffff1660e01b8152600401610c2f9190614b8e565b60206040518083038186803b158015610c4757600080fd5b505afa158015610c5b573d6000803e3d6000fd5b505050506040513d601f19601f82011682018060405250810190610c7f9190613f95565b905060008582610c8f9190614d5d565b9050828110610cd3576040517f08c379a0000000000000000000000000000000000000000000000000000000008152600401610cca90614aec565b60405180910390fd5b50505b600080610ce787868a60008a612ddf565b925050915060006004811115610d26577f4e487b7100000000000000000000000000000000000000000000000000000000600052602160045260246000fd5b826004811115610d5f577f4e487b7100000000000000000000000000000000000000000000000000000000600052602160045260246000fd5b14610da757816004811115610d9d577f4e487b7100000000000000000000000000000000000000000000000000000000600052602160045260246000fd5b9350505050610e33565b6000811115610df357600480811115610de9577f4e487b7100000000000000000000000000000000000000000000000000000000600052602160045260246000fd5b9350505050610e33565b60006004811115610e2d577f4e487b7100000000000000000000000000000000000000000000000000000000600052602160045260246000fd5b93505050505b949350505050565b7f5146a08baf902532d0ee2f909971144f12ca32651cd70cbee1117cddfb3b3b33610e6d81610e686133b1565b6133b9565b600260008373ffffffffffffffffffffffffffffffffffffffff1673ffffffffffffffffffffffffffffffffffffffff16815260200190815260200160002060000160040160009054906101000a900460ff16610eff576040517f08c379a0000000000000000000000000000000000000000000000000000000008152600401610ef690614b0c565b60405180910390fd5b6000600260008473ffffffffffffffffffffffffffffffffffffffff1673ffffffffffffffffffffffffffffffffffffffff16815260200190815260200160002060000160020160006101000a81548160ff021916908315150217905550600360008373ffffffffffffffffffffffffffffffffffffffff1673ffffffffffffffffffffffffffffffffffffffff16815260200190815260200160002060008082016000610fad919061395d565b600182016000610fbd919061395d565b6002820160006101000a81549060ff021916905560038201600090556004820160006101000a81549060ff021916905550505050565b600060016000838152602001908152602001600020600101549050919050565b7f5146a08baf902532d0ee2f909971144f12ca32651cd70cbee1117cddfb3b3b33611045816110406133b1565b6133b9565b600260008373ffffffffffffffffffffffffffffffffffffffff1673ffffffffffffffffffffffffffffffffffffffff16815260200190815260200160002060000160040160009054906101000a900460ff166110d7576040517f08c379a00000000000000000000000000000000000000000000000000000000081526004016110ce90614b0c565b60405180910390fd5b6001600260008473ffffffffffffffffffffffffffffffffffffffff1673ffffffffffffffffffffffffffffffffffffffff16815260200190815260200160002060000160020160006101000a81548160ff021916908315150217905550600260008373ffffffffffffffffffffffffffffffffffffffff1673ffffffffffffffffffffffffffffffffffffffff168152602001908152602001600020600001600360008473ffffffffffffffffffffffffffffffffffffffff1673ffffffffffffffffffffffffffffffffffffffff16815260200190815260200160002060008201816000019080546111ca90614f80565b6111d592919061399d565b5060018201816001019080546111ea90614f80565b6111f592919061399d565b506002820160009054906101000a900460ff168160020160006101000a81548160ff021916908315150217905550600382015481600301556004820160009054906101000a900460ff168160040160006101000a81548160ff0219169083151502179055509050505050565b600360205280600052604060002060009150905080600001805461128490614f80565b80601f01602080910402602001604051908101604052809291908181526020018280546112b090614f80565b80156112fd5780601f106112d2576101008083540402835291602001916112fd565b820191906000526020600020905b8154815290600101906020018083116112e057829003601f168201915b50505050509080600101805461131290614f80565b80601f016020809104026020016040519081016040528092919081815260200182805461133e90614f80565b801561138b5780601f106113605761010080835404028352916020019161138b565b820191906000526020600020905b81548152906001019060200180831161136e57829003601f168201915b5050505050908060020160009054906101000a900460ff16908060030154908060040160009054906101000a900460ff16905085565b6113ca82610ff3565b6113db816113d66133b1565b6133b9565b6113e58383613456565b505050565b6000600260008673ffffffffffffffffffffffffffffffffffffffff1673ffffffffffffffffffffffffffffffffffffffff16815260200190815260200160002060000160020160009054906101000a900460ff16611484576001600481111561147d577f4e487b7100000000000000000000000000000000000000000000000000000000600052602160045260246000fd5b90506116b0565b600260008673ffffffffffffffffffffffffffffffffffffffff1673ffffffffffffffffffffffffffffffffffffffff16815260200190815260200160002060050160008573ffffffffffffffffffffffffffffffffffffffff1673ffffffffffffffffffffffffffffffffffffffff16815260200190815260200160002060009054906101000a900460ff16611556576000600481111561154f577f4e487b7100000000000000000000000000000000000000000000000000000000600052602160045260246000fd5b90506116b0565b600080611567868589886000612ddf565b9250509150600060048111156115a6577f4e487b7100000000000000000000000000000000000000000000000000000000600052602160045260246000fd5b8260048111156115df577f4e487b7100000000000000000000000000000000000000000000000000000000600052602160045260246000fd5b146116265781600481111561161d577f4e487b7100000000000000000000000000000000000000000000000000000000600052602160045260246000fd5b925050506116b0565b600081111561167157600480811115611668577f4e487b7100000000000000000000000000000000000000000000000000000000600052602160045260246000fd5b925050506116b0565b600060048111156116ab577f4e487b7100000000000000000000000000000000000000000000000000000000600052602160045260246000fd5b925050505b949350505050565b6116c06133b1565b73ffffffffffffffffffffffffffffffffffffffff168173ffffffffffffffffffffffffffffffffffffffff161461172d576040517f08c379a000000000000000000000000000000000000000000000000000000000815260040161172490614b4c565b60405180910390fd5b6117378282613536565b5050565b7f5146a08baf902532d0ee2f909971144f12ca32651cd70cbee1117cddfb3b3b3381565b60056020528060005260406000206000915090505481565b61177f6133b1565b73ffffffffffffffffffffffffffffffffffffffff1661179d611928565b73ffffffffffffffffffffffffffffffffffffffff16146117f3576040517f08c379a00000000000000000000000000000000000000000000000000000000081526004016117ea90614a6c565b60405180910390fd5b600073ffffffffffffffffffffffffffffffffffffffff1660008054906101000a900473ffffffffffffffffffffffffffffffffffffffff1673ffffffffffffffffffffffffffffffffffffffff167f8be0079c531659141344cd1fd0a4f28419497f9722a3daafe3b4186f6b6457e060405160405180910390a360008060006101000a81548173ffffffffffffffffffffffffffffffffffffffff021916908373ffffffffffffffffffffffffffffffffffffffff160217905550565b7f5146a08baf902532d0ee2f909971144f12ca32651cd70cbee1117cddfb3b3b336118e3816118de6133b1565b6133b9565b81600960006101000a81548173ffffffffffffffffffffffffffffffffffffffff021916908373ffffffffffffffffffffffffffffffffffffffff1602179055505050565b60008060009054906101000a900473ffffffffffffffffffffffffffffffffffffffff16905090565b6002602052806000526040600020600091509050806000016040518060a001604052908160008201805461198490614f80565b80601f01602080910402602001604051908101604052809291908181526020018280546119b090614f80565b80156119fd5780601f106119d2576101008083540402835291602001916119fd565b820191906000526020600020905b8154815290600101906020018083116119e057829003601f168201915b50505050508152602001600182018054611a1690614f80565b80601f0160208091040260200160405190810160405280929190818152602001828054611a4290614f80565b8015611a8f5780601f10611a6457610100808354040283529160200191611a8f565b820191906000526020600020905b815481529060010190602001808311611a7257829003601f168201915b505050505081526020016002820160009054906101000a900460ff16151515158152602001600382015481526020016004820160009054906101000a900460ff161515151581525050905081565b60006001600084815260200190815260200160002060000160008373ffffffffffffffffffffffffffffffffffffffff1673ffffffffffffffffffffffffffffffffffffffff16815260200190815260200160002060009054906101000a900460ff16905092915050565b600080600080600080611b6088886000806000612ddf565b925092509250826004811115611b9f577f4e487b7100000000000000000000000000000000000000000000000000000000600052602160045260246000fd5b82829550955095505050509250925092565b6000801b81565b6000600260008573ffffffffffffffffffffffffffffffffffffffff1673ffffffffffffffffffffffffffffffffffffffff16815260200190815260200160002060000160020160009054906101000a900460ff16611c525760016004811115611c4b577f4e487b7100000000000000000000000000000000000000000000000000000000600052602160045260246000fd5b9050611c8f565b60006004811115611c8c577f4e487b7100000000000000000000000000000000000000000000000000000000600052602160045260246000fd5b90505b9392505050565b6060600083839050905060008167ffffffffffffffff811115611ce2577f4e487b7100000000000000000000000000000000000000000000000000000000600052604160045260246000fd5b604051908082528060200260200182016040528015611d105781602001602082028036833780820191505090505b50905060005b82811015611e0b576000868683818110611d59577f4e487b7100000000000000000000000000000000000000000000000000000000600052603260045260246000fd5b9050602002016020810190611d6e9190613c9b565b9050611d7a8133612bd4565b6004811115611db2577f4e487b7100000000000000000000000000000000000000000000000000000000600052602160045260246000fd5b838381518110611deb577f4e487b7100000000000000000000000000000000000000000000000000000000600052603260045260246000fd5b602002602001018181525050508080611e0390614fb2565b915050611d16565b50809250505092915050565b7f5146a08baf902532d0ee2f909971144f12ca32651cd70cbee1117cddfb3b3b33611e4981611e446133b1565b6133b9565b6000600260008773ffffffffffffffffffffffffffffffffffffffff1673ffffffffffffffffffffffffffffffffffffffff168152602001908152602001600020905060018160000160020160006101000a81548160ff02191690831515021790555060018160000160040160006101000a81548160ff02191690831515021790555084816000016003018190555083816000016000019080519060200190611ef3929190613a2a565b5082816000016001019080519060200190611f0f929190613a2a565b5080600001600360008873ffffffffffffffffffffffffffffffffffffffff1673ffffffffffffffffffffffffffffffffffffffff1681526020019081526020016000206000820181600001908054611f6790614f80565b611f7292919061399d565b506001820181600101908054611f8790614f80565b611f9292919061399d565b506002820160009054906101000a900460ff168160020160006101000a81548160ff021916908315150217905550600382015481600301556004820160009054906101000a900460ff168160040160006101000a81548160ff02191690831515021790555090505060016007600082825461200d9190614d5d565b925050819055506008869080600181540180825580915050600190039060005260206000200160009091909190916101000a81548173ffffffffffffffffffffffffffffffffffffffff021916908373ffffffffffffffffffffffffffffffffffffffff160217905550505050505050565b61208882610ff3565b612099816120946133b1565b6133b9565b6120a38383613536565b505050565b60046020528060005260406000206000915054906101000a900460ff1681565b600660205281600052604060002081815481106120e457600080fd5b906000526020600020016000915091509054906101000a900473ffffffffffffffffffffffffffffffffffffffff1681565b60007f5146a08baf902532d0ee2f909971144f12ca32651cd70cbee1117cddfb3b3b3361214a816121456133b1565b6133b9565b600260008573ffffffffffffffffffffffffffffffffffffffff1673ffffffffffffffffffffffffffffffffffffffff16815260200190815260200160002060000160020160009054906101000a900460ff166121dc576040517f08c379a00000000000000000000000000000000000000000000000000000000081526004016121d390614acc565b60405180910390fd5b82600460008673ffffffffffffffffffffffffffffffffffffffff1673ffffffffffffffffffffffffffffffffffffffff16815260200190815260200160002060006101000a81548160ff0219169083151502179055507f71aec636243f9709bb0007ae15e9afb8150ab01716d75fd7573be5cc096e03b08484604051612264929190614812565b60405180910390a18291505092915050565b6000606060008060606000600260008873ffffffffffffffffffffffffffffffffffffffff1673ffffffffffffffffffffffffffffffffffffffff168152602001908152602001600020905086816000016000018260000160020160009054906101000a900460ff168360000160030154846000016001018380546122fa90614f80565b80601f016020809104026020016040519081016040528092919081815260200182805461232690614f80565b80156123735780601f1061234857610100808354040283529160200191612373565b820191906000526020600020905b81548152906001019060200180831161235657829003601f168201915b5050505050935080805461238690614f80565b80601f01602080910402602001604051908101604052809291908181526020018280546123b290614f80565b80156123ff5780601f106123d4576101008083540402835291602001916123ff565b820191906000526020600020905b8154815290600101906020018083116123e257829003601f168201915b50505050509050955095509550955095505091939590929450565b6060806060806060600060075467ffffffffffffffff811115612466577f4e487b7100000000000000000000000000000000000000000000000000000000600052604160045260246000fd5b6040519080825280602002602001820160405280156124945781602001602082028036833780820191505090505b509050600060075467ffffffffffffffff8111156124db577f4e487b7100000000000000000000000000000000000000000000000000000000600052604160045260246000fd5b60405190808252806020026020018201604052801561250e57816020015b60608152602001906001900390816124f95790505b509050600060075467ffffffffffffffff811115612555577f4e487b7100000000000000000000000000000000000000000000000000000000600052604160045260246000fd5b60405190808252806020026020018201604052801561258857816020015b60608152602001906001900390816125735790505b509050600060075467ffffffffffffffff8111156125cf577f4e487b7100000000000000000000000000000000000000000000000000000000600052604160045260246000fd5b6040519080825280602002602001820160405280156125fd5781602001602082028036833780820191505090505b50905060005b60075481101561291d576000600260006008848154811061264d577f4e487b7100000000000000000000000000000000000000000000000000000000600052603260045260246000fd5b9060005260206000200160009054906101000a900473ffffffffffffffffffffffffffffffffffffffff1673ffffffffffffffffffffffffffffffffffffffff1673ffffffffffffffffffffffffffffffffffffffff16815260200190815260200160002090508060000160020160009054906101000a900460ff16868381518110612702577f4e487b7100000000000000000000000000000000000000000000000000000000600052603260045260246000fd5b60200260200101901515908115158152505080600001600001805461272690614f80565b80601f016020809104026020016040519081016040528092919081815260200182805461275290614f80565b801561279f5780601f106127745761010080835404028352916020019161279f565b820191906000526020600020905b81548152906001019060200180831161278257829003601f168201915b50505050508583815181106127dd577f4e487b7100000000000000000000000000000000000000000000000000000000600052603260045260246000fd5b60200260200101819052508060000160010180546127fa90614f80565b80601f016020809104026020016040519081016040528092919081815260200182805461282690614f80565b80156128735780601f1061284857610100808354040283529160200191612873565b820191906000526020600020905b81548152906001019060200180831161285657829003601f168201915b50505050508483815181106128b1577f4e487b7100000000000000000000000000000000000000000000000000000000600052603260045260246000fd5b602002602001018190525080600001600301548383815181106128fd577f4e487b7100000000000000000000000000000000000000000000000000000000600052603260045260246000fd5b60200260200101818152505050808061291590614fb2565b915050612603565b50600883858385848054806020026020016040519081016040528092919081815260200182805480156129a557602002820191906000526020600020905b8160009054906101000a900473ffffffffffffffffffffffffffffffffffffffff1673ffffffffffffffffffffffffffffffffffffffff168152602001906001019080831161295b575b5050505050945098509850985098509850505050509091929394565b6129c96133b1565b73ffffffffffffffffffffffffffffffffffffffff166129e7611928565b73ffffffffffffffffffffffffffffffffffffffff1614612a3d576040517f08c379a0000000000000000000000000000000000000000000000000000000008152600401612a3490614a6c565b60405180910390fd5b600073ffffffffffffffffffffffffffffffffffffffff168173ffffffffffffffffffffffffffffffffffffffff161415612aad576040517f08c379a0000000000000000000000000000000000000000000000000000000008152600401612aa490614a2c565b60405180910390fd5b8073ffffffffffffffffffffffffffffffffffffffff1660008054906101000a900473ffffffffffffffffffffffffffffffffffffffff1673ffffffffffffffffffffffffffffffffffffffff167f8be0079c531659141344cd1fd0a4f28419497f9722a3daafe3b4186f6b6457e060405160405180910390a3806000806101000a81548173ffffffffffffffffffffffffffffffffffffffff021916908373ffffffffffffffffffffffffffffffffffffffff16021790555050565b60007f01ffc9a7000000000000000000000000000000000000000000000000000000007bffffffffffffffffffffffffffffffffffffffffffffffffffffffff1916827bffffffffffffffffffffffffffffffffffffffffffffffffffffffff1916149050919050565b600080600260008573ffffffffffffffffffffffffffffffffffffffff1673ffffffffffffffffffffffffffffffffffffffff16815260200190815260200160002090508060000160020160009054906101000a900460ff16612c3b576001915050612dd9565b600115158160050160008573ffffffffffffffffffffffffffffffffffffffff1673ffffffffffffffffffffffffffffffffffffffff16815260200190815260200160002060009054906101000a900460ff1615151415612ca0576000915050612dd9565b60018160050160008573ffffffffffffffffffffffffffffffffffffffff1673ffffffffffffffffffffffffffffffffffffffff16815260200190815260200160002060006101000a81548160ff021916908315150217905550600660008473ffffffffffffffffffffffffffffffffffffffff1673ffffffffffffffffffffffffffffffffffffffff168152602001908152602001600020849080600181540180825580915050600190039060005260206000200160009091909190916101000a81548173ffffffffffffffffffffffffffffffffffffffff021916908373ffffffffffffffffffffffffffffffffffffffff1602179055507f3ab23ab0d51cccc0c3085aec51f99228625aa1a922b3a8ca89a26b0f2027a1a58484604051612dcb929190614960565b60405180910390a160009150505b92915050565b6000806000612dec613ab0565b600080600660008c73ffffffffffffffffffffffffffffffffffffffff1673ffffffffffffffffffffffffffffffffffffffff168152602001908152602001600020805480602002602001604051908101604052809291908181526020018280548015612eae57602002820191906000526020600020905b8160009054906101000a900473ffffffffffffffffffffffffffffffffffffffff1673ffffffffffffffffffffffffffffffffffffffff1681526020019060010190808311612e64575b5050505050905060005b815181101561334e576000828281518110612efc577f4e487b7100000000000000000000000000000000000000000000000000000000600052603260045260246000fd5b602002602001015190508073ffffffffffffffffffffffffffffffffffffffff166355a1ac2e8e8e6040518363ffffffff1660e01b8152600401612f4192919061484e565b60606040518083038186803b158015612f5957600080fd5b505afa158015612f6d573d6000803e3d6000fd5b505050506040513d601f19601f82011682018060405250810190612f919190613fbe565b8760000188602001828152508281525082965050505060006004811115612fe1577f4e487b7100000000000000000000000000000000000000000000000000000000600052602160045260246000fd5b8414613022576040517f08c379a000000000000000000000000000000000000000000000000000000000815260040161301990614a4c565b60405180910390fd5b600260008273ffffffffffffffffffffffffffffffffffffffff1673ffffffffffffffffffffffffffffffffffffffff16815260200190815260200160002060000160030154856040018181525050600960009054906101000a900473ffffffffffffffffffffffffffffffffffffffff1673ffffffffffffffffffffffffffffffffffffffff1663fe2c61988273ffffffffffffffffffffffffffffffffffffffff16636c02a9316040518163ffffffff1660e01b815260040160006040518083038186803b1580156130f557600080fd5b505afa158015613109573d6000803e3d6000fd5b505050506040513d6000823e3d601f19601f820116820180604052508101906131329190613f54565b6040518263ffffffff1660e01b815260040161314e9190614989565b60206040518083038186803b15801561316657600080fd5b505afa15801561317a573d6000803e3d6000fd5b505050506040513d601f19601f8201168201806040525081019061319e9190613f95565b8560600181815250506000856060015114156131ef576040517f08c379a00000000000000000000000000000000000000000000000000000000081526004016131e690614a8c565b60405180910390fd5b6132258560600151620f42406132168860400151896000015161361890919063ffffffff16565b6136419092919063ffffffff16565b856080018181516132369190614d5d565b9150818152505061325d8560600151620f424087602001516136419092919063ffffffff16565b8560a00181815161326e9190614d5d565b915081815250508a73ffffffffffffffffffffffffffffffffffffffff168173ffffffffffffffffffffffffffffffffffffffff16141561333a57600089146132e6576132cd8560600151620f42408b6136419092919063ffffffff16565b8560a0018181516132de9190614d5d565b915081815250505b60008a14613339576133208560600151620f424061331188604001518e61361890919063ffffffff16565b6136419092919063ffffffff16565b8560a0018181516133319190614d5d565b915081815250505b5b50808061334690614fb2565b915050612eb8565b508260a00151836080015111156133855760008360a0015184608001516133759190614e3e565b60009550955095505050506133a6565b60008084608001518560a0015161339c9190614e3e565b9550955095505050505b955095509592505050565b600033905090565b6133c38282611add565b613452576133e88173ffffffffffffffffffffffffffffffffffffffff166014613663565b6133f68360001c6020613663565b60405160200161340792919061475c565b6040516020818303038152906040526040517f08c379a00000000000000000000000000000000000000000000000000000000081526004016134499190614989565b60405180910390fd5b5050565b6134608282611add565b61353257600180600084815260200190815260200160002060000160008373ffffffffffffffffffffffffffffffffffffffff1673ffffffffffffffffffffffffffffffffffffffff16815260200190815260200160002060006101000a81548160ff0219169083151502179055506134d76133b1565b73ffffffffffffffffffffffffffffffffffffffff168173ffffffffffffffffffffffffffffffffffffffff16837f2f8788117e7eff1d82e926ec794901d17c78024a50270940304540a733656f0d60405160405180910390a45b5050565b6135408282611add565b156136145760006001600084815260200190815260200160002060000160008373ffffffffffffffffffffffffffffffffffffffff1673ffffffffffffffffffffffffffffffffffffffff16815260200190815260200160002060006101000a81548160ff0219169083151502179055506135b96133b1565b73ffffffffffffffffffffffffffffffffffffffff168173ffffffffffffffffffffffffffffffffffffffff16837ff6391f5c32d9c69d2a47ea670b442974b53935d1edc7fd64eb21e047a839171b60405160405180910390a45b5050565b6000670de0b6b3a7640000828461362f9190614de4565b6136399190614db3565b905092915050565b60008183856136509190614de4565b61365a9190614db3565b90509392505050565b6060600060028360026136769190614de4565b6136809190614d5d565b67ffffffffffffffff8111156136bf577f4e487b7100000000000000000000000000000000000000000000000000000000600052604160045260246000fd5b6040519080825280601f01601f1916602001820160405280156136f15781602001600182028036833780820191505090505b5090507f30000000000000000000000000000000000000000000000000000000000000008160008151811061374f577f4e487b7100000000000000000000000000000000000000000000000000000000600052603260045260246000fd5b60200101907effffffffffffffffffffffffffffffffffffffffffffffffffffffffffffff1916908160001a9053507f7800000000000000000000000000000000000000000000000000000000000000816001815181106137d9577f4e487b7100000000000000000000000000000000000000000000000000000000600052603260045260246000fd5b60200101907effffffffffffffffffffffffffffffffffffffffffffffffffffffffffffff1916908160001a905350600060018460026138199190614de4565b6138239190614d5d565b90505b600181111561390f577f3031323334353637383961626364656600000000000000000000000000000000600f86166010811061388b577f4e487b7100000000000000000000000000000000000000000000000000000000600052603260045260246000fd5b1a60f81b8282815181106138c8577f4e487b7100000000000000000000000000000000000000000000000000000000600052603260045260246000fd5b60200101907effffffffffffffffffffffffffffffffffffffffffffffffffffffffffffff1916908160001a905350600485901c94508061390890614f56565b9050613826565b5060008414613953576040517f08c379a000000000000000000000000000000000000000000000000000000000815260040161394a90614a0c565b60405180910390fd5b8091505092915050565b50805461396990614f80565b6000825580601f1061397b575061399a565b601f0160209004906000526020600020908101906139999190613ae6565b5b50565b8280546139a990614f80565b90600052602060002090601f0160209004810192826139cb5760008555613a19565b82601f106139dc5780548555613a19565b82800160010185558215613a1957600052602060002091601f016020900482015b82811115613a185782548255916001019190600101906139fd565b5b509050613a269190613ae6565b5090565b828054613a3690614f80565b90600052602060002090601f016020900481019282613a585760008555613a9f565b82601f10613a7157805160ff1916838001178555613a9f565b82800160010185558215613a9f579182015b82811115613a9e578251825591602001919060010190613a83565b5b509050613aac9190613ae6565b5090565b6040518060c001604052806000815260200160008152602001600081526020016000815260200160008152602001600081525090565b5b80821115613aff576000816000905550600101613ae7565b5090565b6000613b16613b1184614c11565b614be0565b905082815260208101848484011115613b2e57600080fd5b613b39848285614f14565b509392505050565b6000613b54613b4f84614c11565b614be0565b905082815260208101848484011115613b6c57600080fd5b613b77848285614f23565b509392505050565b600081359050613b8e816150c8565b92915050565b60008083601f840112613ba657600080fd5b8235905067ffffffffffffffff811115613bbf57600080fd5b602083019150836020820283011115613bd757600080fd5b9250929050565b600081359050613bed816150df565b92915050565b600081359050613c02816150f6565b92915050565b600081359050613c178161510d565b92915050565b600082601f830112613c2e57600080fd5b8135613c3e848260208601613b03565b91505092915050565b600082601f830112613c5857600080fd5b8151613c68848260208601613b41565b91505092915050565b600081359050613c8081615124565b92915050565b600081519050613c9581615124565b92915050565b600060208284031215613cad57600080fd5b6000613cbb84828501613b7f565b91505092915050565b600080600060608486031215613cd957600080fd5b6000613ce786828701613b7f565b9350506020613cf886828701613b7f565b9250506040613d0986828701613c71565b9150509250925092565b60008060008060808587031215613d2957600080fd5b6000613d3787828801613b7f565b9450506020613d4887828801613b7f565b9350506040613d5987828801613c71565b9250506060613d6a87828801613c71565b91505092959194509250565b60008060408385031215613d8957600080fd5b6000613d9785828601613b7f565b9250506020613da885828601613bde565b9150509250929050565b60008060408385031215613dc557600080fd5b6000613dd385828601613b7f565b9250506020613de485828601613c71565b9150509250929050565b60008060008060808587031215613e0457600080fd5b6000613e1287828801613b7f565b9450506020613e2387828801613c71565b935050604085013567ffffffffffffffff811115613e4057600080fd5b613e4c87828801613c1d565b925050606085013567ffffffffffffffff811115613e6957600080fd5b613e7587828801613c1d565b91505092959194509250565b60008060208385031215613e9457600080fd5b600083013567ffffffffffffffff811115613eae57600080fd5b613eba85828601613b94565b92509250509250929050565b600060208284031215613ed857600080fd5b6000613ee684828501613bf3565b91505092915050565b60008060408385031215613f0257600080fd5b6000613f1085828601613bf3565b9250506020613f2185828601613b7f565b9150509250929050565b600060208284031215613f3d57600080fd5b6000613f4b84828501613c08565b91505092915050565b600060208284031215613f6657600080fd5b600082015167ffffffffffffffff811115613f8057600080fd5b613f8c84828501613c47565b91505092915050565b600060208284031215613fa757600080fd5b6000613fb584828501613c86565b91505092915050565b600080600060608486031215613fd357600080fd5b6000613fe186828701613c86565b9350506020613ff286828701613c86565b925050604061400386828701613c86565b9150509250925092565b60006140198383614069565b60208301905092915050565b60006140318383614216565b60208301905092915050565b60006140498383614252565b905092915050565b600061405d838361473e565b60208301905092915050565b61407281614e72565b82525050565b61408181614e72565b82525050565b600061409282614c81565b61409c8185614cec565b93506140a783614c41565b8060005b838110156140d85781516140bf888261400d565b97506140ca83614cb8565b9250506001810190506140ab565b5085935050505092915050565b60006140f082614c8c565b6140fa8185614cfd565b935061410583614c51565b8060005b8381101561413657815161411d8882614025565b975061412883614cc5565b925050600181019050614109565b5085935050505092915050565b600061414e82614c97565b6141588185614d0e565b93508360208202850161416a85614c61565b8060005b858110156141a65784840389528151614187858261403d565b945061419283614cd2565b925060208a0199505060018101905061416e565b50829750879550505050505092915050565b60006141c382614ca2565b6141cd8185614d1f565b93506141d883614c71565b8060005b838110156142095781516141f08882614051565b97506141fb83614cdf565b9250506001810190506141dc565b5085935050505092915050565b61421f81614e84565b82525050565b61422e81614e84565b82525050565b61423d81614e90565b82525050565b61424c81614ef0565b82525050565b600061425d82614cad565b6142678185614d30565b9350614277818560208601614f23565b614280816150b7565b840191505092915050565b600061429682614cad565b6142a08185614d41565b93506142b0818560208601614f23565b6142b9816150b7565b840191505092915050565b60006142cf82614cad565b6142d98185614d52565b93506142e9818560208601614f23565b80840191505092915050565b6000614302602083614d41565b91507f537472696e67733a20686578206c656e67746820696e73756666696369656e746000830152602082019050919050565b6000614342602683614d41565b91507f4f776e61626c653a206e6577206f776e657220697320746865207a65726f206160008301527f64647265737300000000000000000000000000000000000000000000000000006020830152604082019050919050565b60006143a8600683614d41565b91507f426f72726f7700000000000000000000000000000000000000000000000000006000830152602082019050919050565b60006143e8600e83614d41565b91507f536e617073686f74206572726f720000000000000000000000000000000000006000830152602082019050919050565b6000614428602083614d41565b91507f4f776e61626c653a2063616c6c6572206973206e6f7420746865206f776e65726000830152602082019050919050565b6000614468601283614d41565b91507f5072696365204f7261636c65206572726f7200000000000000000000000000006000830152602082019050919050565b60006144a8601583614d41565b91507f73656e646572206d7573742062652063546f6b656e00000000000000000000006000830152602082019050919050565b60006144e8600a83614d41565b91507f6e6f74206c6973746564000000000000000000000000000000000000000000006000830152602082019050919050565b6000614528601983614d41565b91507f6d61726b657420626f72726f77206361702072656163686564000000000000006000830152602082019050919050565b6000614568601783614d41565b91507f41646472657373206973206e6f742061206d61726b65740000000000000000006000830152602082019050919050565b60006145a8601783614d52565b91507f416363657373436f6e74726f6c3a206163636f756e74200000000000000000006000830152601782019050919050565b60006145e8601183614d52565b91507f206973206d697373696e6720726f6c65200000000000000000000000000000006000830152601182019050919050565b6000614628601083614d41565b91507f626f72726f7720697320706175736564000000000000000000000000000000006000830152602082019050919050565b6000614668602f83614d41565b91507f416363657373436f6e74726f6c3a2063616e206f6e6c792072656e6f756e636560008301527f20726f6c657320666f722073656c6600000000000000000000000000000000006020830152604082019050919050565b600060a08301600083015184820360008601526146de8282614252565b915050602083015184820360208601526146f88282614252565b915050604083015161470d6040860182614216565b506060830151614720606086018261473e565b5060808301516147336080860182614216565b508091505092915050565b61474781614ee6565b82525050565b61475681614ee6565b82525050565b60006147678261459b565b915061477382856142c4565b915061477e826145db565b915061478a82846142c4565b91508190509392505050565b60006020820190506147ab6000830184614078565b92915050565b600060a0820190506147c66000830188614078565b81810360208301526147d8818761428b565b90506147e76040830186614225565b6147f4606083018561474d565b8181036080830152614806818461428b565b90509695505050505050565b60006060820190506148276000830185614078565b81810360208301526148388161439b565b90506148476040830184614225565b9392505050565b60006040820190506148636000830185614078565b614870602083018461474d565b9392505050565b600060a08201905081810360008301526148918188614087565b905081810360208301526148a58187614143565b905081810360408301526148b981866140e5565b905081810360608301526148cd81856141b8565b905081810360808301526148e18184614143565b90509695505050505050565b6000602082019050818103600083015261490781846141b8565b905092915050565b60006020820190506149246000830184614225565b92915050565b600060208201905061493f6000830184614234565b92915050565b600060208201905061495a6000830184614243565b92915050565b60006040820190506149756000830185614243565b6149826020830184614078565b9392505050565b600060208201905081810360008301526149a3818461428b565b905092915050565b600060a08201905081810360008301526149c5818861428b565b905081810360208301526149d9818761428b565b90506149e86040830186614225565b6149f5606083018561474d565b614a026080830184614225565b9695505050505050565b60006020820190508181036000830152614a25816142f5565b9050919050565b60006020820190508181036000830152614a4581614335565b9050919050565b60006020820190508181036000830152614a65816143db565b9050919050565b60006020820190508181036000830152614a858161441b565b9050919050565b60006020820190508181036000830152614aa58161445b565b9050919050565b60006020820190508181036000830152614ac58161449b565b9050919050565b60006020820190508181036000830152614ae5816144db565b9050919050565b60006020820190508181036000830152614b058161451b565b9050919050565b60006020820190508181036000830152614b258161455b565b9050919050565b60006020820190508181036000830152614b458161461b565b9050919050565b60006020820190508181036000830152614b658161465b565b9050919050565b60006020820190508181036000830152614b8681846146c1565b905092915050565b6000602082019050614ba3600083018461474d565b92915050565b6000606082019050614bbe600083018661474d565b614bcb602083018561474d565b614bd8604083018461474d565b949350505050565b6000604051905081810181811067ffffffffffffffff82111715614c0757614c06615088565b5b8060405250919050565b600067ffffffffffffffff821115614c2c57614c2b615088565b5b601f19601f8301169050602081019050919050565b6000819050602082019050919050565b6000819050602082019050919050565b6000819050602082019050919050565b6000819050602082019050919050565b600081519050919050565b600081519050919050565b600081519050919050565b600081519050919050565b600081519050919050565b6000602082019050919050565b6000602082019050919050565b6000602082019050919050565b6000602082019050919050565b600082825260208201905092915050565b600082825260208201905092915050565b600082825260208201905092915050565b600082825260208201905092915050565b600082825260208201905092915050565b600082825260208201905092915050565b600081905092915050565b6000614d6882614ee6565b9150614d7383614ee6565b9250827fffffffffffffffffffffffffffffffffffffffffffffffffffffffffffffffff03821115614da857614da7614ffb565b5b828201905092915050565b6000614dbe82614ee6565b9150614dc983614ee6565b925082614dd957614dd861502a565b5b828204905092915050565b6000614def82614ee6565b9150614dfa83614ee6565b9250817fffffffffffffffffffffffffffffffffffffffffffffffffffffffffffffffff0483118215151615614e3357614e32614ffb565b5b828202905092915050565b6000614e4982614ee6565b9150614e5483614ee6565b925082821015614e6757614e66614ffb565b5b828203905092915050565b6000614e7d82614ec6565b9050919050565b60008115159050919050565b6000819050919050565b60007fffffffff0000000000000000000000000000000000000000000000000000000082169050919050565b600073ffffffffffffffffffffffffffffffffffffffff82169050919050565b6000819050919050565b6000614efb82614f02565b9050919050565b6000614f0d82614ec6565b9050919050565b82818337600083830152505050565b60005b83811015614f41578082015181840152602081019050614f26565b83811115614f50576000848401525b50505050565b6000614f6182614ee6565b91506000821415614f7557614f74614ffb565b5b600182039050919050565b60006002820490506001821680614f9857607f821691505b60208210811415614fac57614fab615059565b5b50919050565b6000614fbd82614ee6565b91507fffffffffffffffffffffffffffffffffffffffffffffffffffffffffffffffff821415614ff057614fef614ffb565b5b600182019050919050565b7f4e487b7100000000000000000000000000000000000000000000000000000000600052601160045260246000fd5b7f4e487b7100000000000000000000000000000000000000000000000000000000600052601260045260246000fd5b7f4e487b7100000000000000000000000000000000000000000000000000000000600052602260045260246000fd5b7f4e487b7100000000000000000000000000000000000000000000000000000000600052604160045260246000fd5b6000601f19601f8301169050919050565b6150d181614e72565b81146150dc57600080fd5b50565b6150e881614e84565b81146150f357600080fd5b50565b6150ff81614e90565b811461510a57600080fd5b50565b61511681614e9a565b811461512157600080fd5b50565b61512d81614ee6565b811461513857600080fd5b5056fea2646970667358221220aa871cdaa954a25f6e2050e8b6d5d6bfa36375660c8b7d9abeddd897aed9c5b564736f6c63430008000033",
  "devdoc": {
    "kind": "dev",
    "methods": {
      "enableMarket(address,uint256,string,string)": {
        "details": "Function to enable a certain Exafin market to be used as collateral",
        "params": {
          "collateralFactor": "exafin's collateral factor for the underlying asset",
          "exafin": "address to add to the protocol"
        }
      },
      "enterMarkets(address[])": {
        "details": "Allows wallet to enter certain markets (exafinDAI, exafinETH, etc) By performing this action, the wallet's money could be used as collateral",
        "params": {
          "exafins": "contracts addresses to enable for `msg.sender`"
        }
      },
      "getAccountLiquidity(address,uint256)": {
        "details": "Function to get account's liquidity for a certain maturity pool",
        "params": {
          "account": "wallet to retrieve liquidity for a certain maturity date",
          "maturityDate": "timestamp to calculate maturity's pool"
        }
      },
      "getMarketByAddress(address)": {
        "details": "Get market data filtered by address",
        "params": {
          "contractAddress": "address to get market data"
        }
      },
      "getMarkets()": {
        "details": "List all markets, listed or not"
      },
      "getRoleAdmin(bytes32)": {
        "details": "Returns the admin role that controls `role`. See {grantRole} and {revokeRole}. To change a role's admin, use {_setRoleAdmin}."
      },
      "grantRole(bytes32,address)": {
        "details": "Grants `role` to `account`. If `account` had not been already granted `role`, emits a {RoleGranted} event. Requirements: - the caller must have ``role``'s admin role."
      },
      "hasRole(bytes32,address)": {
        "details": "Returns `true` if `account` has been granted `role`."
      },
      "listMarket(address)": {
        "details": "Add market to listedMarkets and change boolean to true",
        "params": {
          "exafin": "address to add to the protocol"
        }
      },
      "owner()": {
        "details": "Returns the address of the current owner."
      },
      "pauseBorrow(address,bool)": {
        "details": "Function to pause/unpause borrowing on a certain market",
        "params": {
          "exafin": "address to pause",
          "paused": "true/false"
        }
      },
      "renounceOwnership()": {
        "details": "Leaves the contract without owner. It will not be possible to call `onlyOwner` functions anymore. Can only be called by the current owner. NOTE: Renouncing ownership will leave the contract without an owner, thereby removing any functionality that is only available to the owner."
      },
      "renounceRole(bytes32,address)": {
        "details": "Revokes `role` from the calling account. Roles are often managed via {grantRole} and {revokeRole}: this function's purpose is to provide a mechanism for accounts to lose their privileges if they are compromised (such as when a trusted device is misplaced). If the calling account had been granted `role`, emits a {RoleRevoked} event. Requirements: - the caller must be `account`."
      },
      "revokeRole(bytes32,address)": {
        "details": "Revokes `role` from `account`. If `account` had been granted `role`, emits a {RoleRevoked} event. Requirements: - the caller must have ``role``'s admin role."
      },
      "setOracle(address)": {
        "details": "Function to set Oracle's to be used",
        "params": {
          "_priceOracleAddress": "address of the new oracle"
        }
      },
      "supportsInterface(bytes4)": {
        "details": "See {IERC165-supportsInterface}."
      },
      "transferOwnership(address)": {
        "details": "Transfers ownership of the contract to a new account (`newOwner`). Can only be called by the current owner."
      },
      "unlistMarket(address)": {
        "details": "Delete market to listedMarkets and change boolean to false",
        "params": {
          "exafin": "address to add to the protocol"
        }
      }
    },
    "version": 1
  },
  "userdoc": {
    "kind": "user",
    "methods": {},
    "version": 1
  },
  "storageLayout": {
    "storage": [
      {
        "astId": 375,
        "contract": "contracts/ExaFront.sol:ExaFront",
        "label": "_owner",
        "offset": 0,
        "slot": "0",
        "type": "t_address"
      },
      {
        "astId": 62,
        "contract": "contracts/ExaFront.sol:ExaFront",
        "label": "_roles",
        "offset": 0,
        "slot": "1",
        "type": "t_mapping(t_bytes32,t_struct(RoleData)57_storage)"
      },
      {
        "astId": 2010,
        "contract": "contracts/ExaFront.sol:ExaFront",
        "label": "markets",
        "offset": 0,
        "slot": "2",
        "type": "t_mapping(t_address,t_struct(Market)2054_storage)"
      },
      {
        "astId": 2015,
        "contract": "contracts/ExaFront.sol:ExaFront",
        "label": "listedMarkets",
        "offset": 0,
        "slot": "3",
        "type": "t_mapping(t_address,t_struct(BaseMarket)2046_storage)"
      },
      {
        "astId": 2019,
        "contract": "contracts/ExaFront.sol:ExaFront",
        "label": "borrowPaused",
        "offset": 0,
        "slot": "4",
        "type": "t_mapping(t_address,t_bool)"
      },
      {
        "astId": 2023,
        "contract": "contracts/ExaFront.sol:ExaFront",
        "label": "borrowCaps",
        "offset": 0,
        "slot": "5",
        "type": "t_mapping(t_address,t_uint256)"
      },
      {
        "astId": 2029,
        "contract": "contracts/ExaFront.sol:ExaFront",
        "label": "accountAssets",
        "offset": 0,
        "slot": "6",
        "type": "t_mapping(t_address,t_array(t_contract(IExafin)4076)dyn_storage)"
      },
      {
        "astId": 2032,
        "contract": "contracts/ExaFront.sol:ExaFront",
        "label": "marketCount",
        "offset": 0,
        "slot": "7",
        "type": "t_uint256"
      },
      {
        "astId": 2035,
        "contract": "contracts/ExaFront.sol:ExaFront",
        "label": "marketsAddress",
        "offset": 0,
        "slot": "8",
        "type": "t_array(t_address)dyn_storage"
      },
      {
        "astId": 2070,
        "contract": "contracts/ExaFront.sol:ExaFront",
        "label": "oracle",
        "offset": 0,
        "slot": "9",
        "type": "t_contract(Oracle)4086"
      }
    ],
    "types": {
      "t_address": {
        "encoding": "inplace",
        "label": "address",
        "numberOfBytes": "20"
      },
      "t_array(t_address)dyn_storage": {
        "base": "t_address",
        "encoding": "dynamic_array",
        "label": "address[]",
        "numberOfBytes": "32"
      },
      "t_array(t_contract(IExafin)4076)dyn_storage": {
        "base": "t_contract(IExafin)4076",
        "encoding": "dynamic_array",
        "label": "contract IExafin[]",
        "numberOfBytes": "32"
      },
      "t_bool": {
        "encoding": "inplace",
        "label": "bool",
        "numberOfBytes": "1"
      },
      "t_bytes32": {
        "encoding": "inplace",
        "label": "bytes32",
        "numberOfBytes": "32"
      },
      "t_contract(IExafin)4076": {
        "encoding": "inplace",
        "label": "contract IExafin",
        "numberOfBytes": "20"
      },
      "t_contract(Oracle)4086": {
        "encoding": "inplace",
        "label": "contract Oracle",
        "numberOfBytes": "20"
      },
      "t_mapping(t_address,t_array(t_contract(IExafin)4076)dyn_storage)": {
        "encoding": "mapping",
        "key": "t_address",
        "label": "mapping(address => contract IExafin[])",
        "numberOfBytes": "32",
        "value": "t_array(t_contract(IExafin)4076)dyn_storage"
      },
      "t_mapping(t_address,t_bool)": {
        "encoding": "mapping",
        "key": "t_address",
        "label": "mapping(address => bool)",
        "numberOfBytes": "32",
        "value": "t_bool"
      },
      "t_mapping(t_address,t_struct(BaseMarket)2046_storage)": {
        "encoding": "mapping",
        "key": "t_address",
        "label": "mapping(address => struct ExaFront.BaseMarket)",
        "numberOfBytes": "32",
        "value": "t_struct(BaseMarket)2046_storage"
      },
      "t_mapping(t_address,t_struct(Market)2054_storage)": {
        "encoding": "mapping",
        "key": "t_address",
        "label": "mapping(address => struct ExaFront.Market)",
        "numberOfBytes": "32",
        "value": "t_struct(Market)2054_storage"
      },
      "t_mapping(t_address,t_uint256)": {
        "encoding": "mapping",
        "key": "t_address",
        "label": "mapping(address => uint256)",
        "numberOfBytes": "32",
        "value": "t_uint256"
      },
      "t_mapping(t_bytes32,t_struct(RoleData)57_storage)": {
        "encoding": "mapping",
        "key": "t_bytes32",
        "label": "mapping(bytes32 => struct AccessControl.RoleData)",
        "numberOfBytes": "32",
        "value": "t_struct(RoleData)57_storage"
      },
      "t_string_storage": {
        "encoding": "bytes",
        "label": "string",
        "numberOfBytes": "32"
      },
      "t_struct(BaseMarket)2046_storage": {
        "encoding": "inplace",
        "label": "struct ExaFront.BaseMarket",
        "members": [
          {
            "astId": 2037,
            "contract": "contracts/ExaFront.sol:ExaFront",
            "label": "symbol",
            "offset": 0,
            "slot": "0",
            "type": "t_string_storage"
          },
          {
            "astId": 2039,
            "contract": "contracts/ExaFront.sol:ExaFront",
            "label": "name",
            "offset": 0,
            "slot": "1",
            "type": "t_string_storage"
          },
          {
            "astId": 2041,
            "contract": "contracts/ExaFront.sol:ExaFront",
            "label": "isListed",
            "offset": 0,
            "slot": "2",
            "type": "t_bool"
          },
          {
            "astId": 2043,
            "contract": "contracts/ExaFront.sol:ExaFront",
            "label": "collateralFactor",
            "offset": 0,
            "slot": "3",
            "type": "t_uint256"
          },
          {
            "astId": 2045,
            "contract": "contracts/ExaFront.sol:ExaFront",
            "label": "exists",
            "offset": 0,
            "slot": "4",
            "type": "t_bool"
          }
        ],
        "numberOfBytes": "160"
      },
      "t_struct(Market)2054_storage": {
        "encoding": "inplace",
        "label": "struct ExaFront.Market",
        "members": [
          {
            "astId": 2049,
            "contract": "contracts/ExaFront.sol:ExaFront",
            "label": "baseMarket",
            "offset": 0,
            "slot": "0",
            "type": "t_struct(BaseMarket)2046_storage"
          },
          {
            "astId": 2053,
            "contract": "contracts/ExaFront.sol:ExaFront",
            "label": "accountMembership",
            "offset": 0,
            "slot": "5",
            "type": "t_mapping(t_address,t_bool)"
          }
        ],
        "numberOfBytes": "192"
      },
      "t_struct(RoleData)57_storage": {
        "encoding": "inplace",
        "label": "struct AccessControl.RoleData",
        "members": [
          {
            "astId": 54,
            "contract": "contracts/ExaFront.sol:ExaFront",
            "label": "members",
            "offset": 0,
            "slot": "0",
            "type": "t_mapping(t_address,t_bool)"
          },
          {
            "astId": 56,
            "contract": "contracts/ExaFront.sol:ExaFront",
            "label": "adminRole",
            "offset": 0,
            "slot": "1",
            "type": "t_bytes32"
          }
        ],
        "numberOfBytes": "64"
      },
      "t_uint256": {
        "encoding": "inplace",
        "label": "uint256",
        "numberOfBytes": "32"
      }
    }
  }
}