{
  "address": "0x95c665955106781De4F7292345A0029c47B48A51",
  "abi": [
    {
      "inputs": [
        {
          "internalType": "address",
          "name": "_tokenAddress",
          "type": "address"
        },
        {
          "internalType": "string",
          "name": "_tokenName",
          "type": "string"
        },
        {
          "internalType": "address",
          "name": "_exaFrontAddress",
          "type": "address"
        }
      ],
      "stateMutability": "nonpayable",
      "type": "constructor"
    },
    {
      "anonymous": false,
      "inputs": [
        {
          "indexed": true,
          "internalType": "address",
          "name": "to",
          "type": "address"
        },
        {
          "indexed": false,
          "internalType": "uint256",
          "name": "amount",
          "type": "uint256"
        },
        {
          "indexed": false,
          "internalType": "uint256",
          "name": "commission",
          "type": "uint256"
        },
        {
          "indexed": false,
          "internalType": "uint256",
          "name": "maturityDate",
          "type": "uint256"
        }
      ],
      "name": "Borrowed",
      "type": "event"
    },
    {
      "anonymous": false,
      "inputs": [
        {
          "indexed": true,
          "internalType": "address",
          "name": "previousOwner",
          "type": "address"
        },
        {
          "indexed": true,
          "internalType": "address",
          "name": "newOwner",
          "type": "address"
        }
      ],
      "name": "OwnershipTransferred",
      "type": "event"
    },
    {
      "anonymous": false,
      "inputs": [
        {
          "indexed": true,
          "internalType": "address",
          "name": "from",
          "type": "address"
        },
        {
          "indexed": false,
          "internalType": "uint256",
          "name": "amount",
          "type": "uint256"
        },
        {
          "indexed": false,
          "internalType": "uint256",
          "name": "commission",
          "type": "uint256"
        },
        {
          "indexed": false,
          "internalType": "uint256",
          "name": "maturityDate",
          "type": "uint256"
        }
      ],
      "name": "Supplied",
      "type": "event"
    },
    {
      "inputs": [
        {
          "internalType": "address",
          "name": "",
          "type": "address"
        },
        {
          "internalType": "uint256",
          "name": "",
          "type": "uint256"
        }
      ],
      "name": "addressPools",
      "outputs": [
        {
          "internalType": "uint256",
          "name": "",
          "type": "uint256"
        }
      ],
      "stateMutability": "view",
      "type": "function"
    },
    {
      "inputs": [
        {
          "internalType": "address",
          "name": "to",
          "type": "address"
        },
        {
          "internalType": "uint256",
          "name": "amount",
          "type": "uint256"
        },
        {
          "internalType": "uint256",
          "name": "maturityDate",
          "type": "uint256"
        }
      ],
      "name": "borrow",
      "outputs": [],
      "stateMutability": "nonpayable",
      "type": "function"
    },
    {
      "inputs": [
        {
          "internalType": "uint256",
          "name": "",
          "type": "uint256"
        },
        {
          "internalType": "address",
          "name": "",
          "type": "address"
        }
      ],
      "name": "borrowedAmounts",
      "outputs": [
        {
          "internalType": "uint256",
          "name": "",
          "type": "uint256"
        }
      ],
      "stateMutability": "view",
      "type": "function"
    },
    {
      "inputs": [
        {
          "internalType": "address",
          "name": "who",
          "type": "address"
        },
        {
          "internalType": "uint256",
          "name": "maturityDate",
          "type": "uint256"
        }
      ],
      "name": "getAccountSnapshot",
      "outputs": [
        {
          "internalType": "uint256",
          "name": "",
          "type": "uint256"
        },
        {
          "internalType": "uint256",
          "name": "",
          "type": "uint256"
        },
        {
          "internalType": "uint256",
          "name": "",
          "type": "uint256"
        }
      ],
      "stateMutability": "view",
      "type": "function"
    },
    {
      "inputs": [
        {
          "internalType": "uint256",
          "name": "maturityDate",
          "type": "uint256"
        }
      ],
      "name": "getTotalBorrows",
      "outputs": [
        {
          "internalType": "uint256",
          "name": "",
          "type": "uint256"
        }
      ],
      "stateMutability": "view",
      "type": "function"
    },
    {
      "inputs": [
        {
          "internalType": "address",
          "name": "spender",
          "type": "address"
        },
        {
          "internalType": "uint256",
          "name": "value",
          "type": "uint256"
        }
      ],
      "name": "increaseAllowance",
      "outputs": [
        {
          "internalType": "bool",
          "name": "",
          "type": "bool"
        }
      ],
      "stateMutability": "nonpayable",
      "type": "function"
    },
    {
      "inputs": [],
      "name": "owner",
      "outputs": [
        {
          "internalType": "address",
          "name": "",
          "type": "address"
        }
      ],
      "stateMutability": "view",
      "type": "function"
    },
    {
      "inputs": [
        {
          "internalType": "uint256",
          "name": "",
          "type": "uint256"
        }
      ],
      "name": "pools",
      "outputs": [
        {
          "internalType": "uint256",
          "name": "lent",
          "type": "uint256"
        },
        {
          "internalType": "uint256",
          "name": "supplied",
          "type": "uint256"
        }
      ],
      "stateMutability": "view",
      "type": "function"
    },
    {
      "inputs": [
        {
          "internalType": "uint256",
          "name": "amount",
          "type": "uint256"
        },
        {
          "internalType": "uint256",
          "name": "maturityDate",
          "type": "uint256"
        }
      ],
      "name": "rateForSupply",
      "outputs": [
        {
          "internalType": "uint256",
          "name": "",
          "type": "uint256"
        },
        {
          "components": [
            {
              "internalType": "uint256",
              "name": "lent",
              "type": "uint256"
            },
            {
              "internalType": "uint256",
              "name": "supplied",
              "type": "uint256"
            }
          ],
          "internalType": "struct Pool",
          "name": "",
          "type": "tuple"
        }
      ],
      "stateMutability": "view",
      "type": "function"
    },
    {
      "inputs": [
        {
          "internalType": "uint256",
          "name": "amount",
          "type": "uint256"
        },
        {
          "internalType": "uint256",
          "name": "maturityDate",
          "type": "uint256"
        }
      ],
      "name": "rateToBorrow",
      "outputs": [
        {
          "internalType": "uint256",
          "name": "",
          "type": "uint256"
        },
        {
          "components": [
            {
              "internalType": "uint256",
              "name": "lent",
              "type": "uint256"
            },
            {
              "internalType": "uint256",
              "name": "supplied",
              "type": "uint256"
            }
          ],
          "internalType": "struct Pool",
          "name": "",
          "type": "tuple"
        }
      ],
      "stateMutability": "view",
      "type": "function"
    },
    {
      "inputs": [],
      "name": "renounceOwnership",
      "outputs": [],
      "stateMutability": "nonpayable",
      "type": "function"
    },
    {
      "inputs": [
        {
          "internalType": "uint256",
          "name": "",
          "type": "uint256"
        },
        {
          "internalType": "address",
          "name": "",
          "type": "address"
        }
      ],
      "name": "suppliedAmmounts",
      "outputs": [
        {
          "internalType": "uint256",
          "name": "",
          "type": "uint256"
        }
      ],
      "stateMutability": "view",
      "type": "function"
    },
    {
      "inputs": [
        {
          "internalType": "address",
          "name": "from",
          "type": "address"
        },
        {
          "internalType": "uint256",
          "name": "amount",
          "type": "uint256"
        },
        {
          "internalType": "uint256",
          "name": "maturityDate",
          "type": "uint256"
        }
      ],
      "name": "supply",
      "outputs": [],
      "stateMutability": "nonpayable",
      "type": "function"
    },
    {
      "inputs": [],
      "name": "tokenName",
      "outputs": [
        {
          "internalType": "string",
          "name": "",
          "type": "string"
        }
      ],
      "stateMutability": "view",
      "type": "function"
    },
    {
      "inputs": [
        {
          "internalType": "address",
          "name": "newOwner",
          "type": "address"
        }
      ],
      "name": "transferOwnership",
      "outputs": [],
      "stateMutability": "nonpayable",
      "type": "function"
    }
  ],
  "transactionHash": "0x2eafa02f5ae299ef8ebca6660837f91d6f07c9cffbaba48c7629a87039d557d5",
  "args": [
    "0xC02aaA39b223FE8D0A0e5C4F27eAD9083C756Cc2",
    "ETH",
    "0x1c7B43a0bbab0a5EA0A1435F31D1c8e05Cc6aE98"
  ],
  "solcInputHash": "da5dbf66715b0adea55b7c4410e874d0",
  "bytecode": "0x60806040523480156200001157600080fd5b5060405162002751380380620027518339818101604052810190620000379190620002f6565b600062000049620001b560201b60201c565b9050806000806101000a81548173ffffffffffffffffffffffffffffffffffffffff021916908373ffffffffffffffffffffffffffffffffffffffff1602179055508073ffffffffffffffffffffffffffffffffffffffff16600073ffffffffffffffffffffffffffffffffffffffff167f8be0079c531659141344cd1fd0a4f28419497f9722a3daafe3b4186f6b6457e060405160405180910390a35082600860006101000a81548173ffffffffffffffffffffffffffffffffffffffff021916908373ffffffffffffffffffffffffffffffffffffffff160217905550816009908051906020019062000140929190620001bd565b5080600a60006101000a81548173ffffffffffffffffffffffffffffffffffffffff021916908373ffffffffffffffffffffffffffffffffffffffff16021790555066470de4df820000600581905550662386f26fc1000060068190555066f8b0a10e470000600781905550505050620004e4565b600033905090565b828054620001cb9062000436565b90600052602060002090601f016020900481019282620001ef57600085556200023b565b82601f106200020a57805160ff19168380011785556200023b565b828001600101855582156200023b579182015b828111156200023a5782518255916020019190600101906200021d565b5b5090506200024a91906200024e565b5090565b5b80821115620002695760008160009055506001016200024f565b5090565b6000620002846200027e8462000399565b62000365565b9050828152602081018484840111156200029d57600080fd5b620002aa84828562000400565b509392505050565b600081519050620002c381620004ca565b92915050565b600082601f830112620002db57600080fd5b8151620002ed8482602086016200026d565b91505092915050565b6000806000606084860312156200030c57600080fd5b60006200031c86828701620002b2565b935050602084015167ffffffffffffffff8111156200033a57600080fd5b6200034886828701620002c9565b92505060406200035b86828701620002b2565b9150509250925092565b6000604051905081810181811067ffffffffffffffff821117156200038f576200038e6200049b565b5b8060405250919050565b600067ffffffffffffffff821115620003b757620003b66200049b565b5b601f19601f8301169050602081019050919050565b6000620003d982620003e0565b9050919050565b600073ffffffffffffffffffffffffffffffffffffffff82169050919050565b60005b838110156200042057808201518184015260208101905062000403565b8381111562000430576000848401525b50505050565b600060028204905060018216806200044f57607f821691505b602082108114156200046657620004656200046c565b5b50919050565b7f4e487b7100000000000000000000000000000000000000000000000000000000600052602260045260246000fd5b7f4e487b7100000000000000000000000000000000000000000000000000000000600052604160045260246000fd5b620004d581620003cc565b8114620004e157600080fd5b50565b61225d80620004f46000396000f3fe608060405234801561001057600080fd5b50600436106100f55760003560e01c80638da5cb5b11610097578063c1bce0b711610066578063c1bce0b7146102b1578063d2cdcad3146102cd578063ea1cd41f146102fd578063f2fde38b1461032d576100f5565b80638da5cb5b14610200578063a2bcf0211461021e578063a82eff211461024f578063ac4afa3814610280576100f5565b806355a1ac2e116100d357806355a1ac2e1461018a5780636c02a931146101bc578063715018a6146101da5780637dbca353146101e4576100f5565b80630d6547a2146100fa578063395093511461012a5780633c5b1c591461015a575b600080fd5b610114600480360381019061010f9190611908565b610349565b6040516101219190611e7b565b60405180910390f35b610144600480360381019061013f9190611802565b61036e565b6040516101519190611d5e565b60405180910390f35b610174600480360381019061016f9190611802565b610434565b6040516101819190611e7b565b60405180910390f35b6101a4600480360381019061019f9190611802565b610465565b6040516101b393929190611ee8565b60405180910390f35b6101c461056a565b6040516101d19190611d79565b60405180910390f35b6101e26105f8565b005b6101fe60048036038101906101f9919061183e565b610732565b005b610208610a55565b6040516102159190611c9e565b60405180910390f35b61023860048036038101906102339190611944565b610a7e565b604051610246929190611e96565b60405180910390f35b61026960048036038101906102649190611944565b610bb4565b604051610277929190611e96565b60405180910390f35b61029a600480360381019061029591906118b6565b610cdd565b6040516102a8929190611ebf565b60405180910390f35b6102cb60048036038101906102c6919061183e565b610d01565b005b6102e760048036038101906102e29190611908565b610ffe565b6040516102f49190611e7b565b60405180910390f35b610317600480360381019061031291906118b6565b611023565b6040516103249190611e7b565b60405180910390f35b610347600480360381019061034291906117d9565b611050565b005b6001602052816000526040600020602052806000526040600020600091509150505481565b600061037a83836111f9565b600860009054906101000a900473ffffffffffffffffffffffffffffffffffffffff1673ffffffffffffffffffffffffffffffffffffffff1663095ea7b384846040518363ffffffff1660e01b81526004016103d7929190611d35565b602060405180830381600087803b1580156103f157600080fd5b505af1158015610405573d6000803e3d6000fd5b505050506040513d601f19601f82011682018060405250810190610429919061188d565b506001905092915050565b6004602052816000526040600020818154811061045057600080fd5b90600052602060002001600091509150505481565b60008060008061047485611295565b90508042106104b8576040517f08c379a00000000000000000000000000000000000000000000000000000000081526004016104af90611e1b565b60405180910390fd5b60006001600083815260200190815260200160002060008873ffffffffffffffffffffffffffffffffffffffff1673ffffffffffffffffffffffffffffffffffffffff168152602001908152602001600020546002600084815260200190815260200160002060008973ffffffffffffffffffffffffffffffffffffffff1673ffffffffffffffffffffffffffffffffffffffff16815260200190815260200160002054935093509350509250925092565b60098054610577906120e1565b80601f01602080910402602001604051908101604052809291908181526020018280546105a3906120e1565b80156105f05780601f106105c5576101008083540402835291602001916105f0565b820191906000526020600020905b8154815290600101906020018083116105d357829003601f168201915b505050505081565b6106006112b4565b73ffffffffffffffffffffffffffffffffffffffff1661061e610a55565b73ffffffffffffffffffffffffffffffffffffffff1614610674576040517f08c379a000000000000000000000000000000000000000000000000000000000815260040161066b90611dfb565b60405180910390fd5b600073ffffffffffffffffffffffffffffffffffffffff1660008054906101000a900473ffffffffffffffffffffffffffffffffffffffff1673ffffffffffffffffffffffffffffffffffffffff167f8be0079c531659141344cd1fd0a4f28419497f9722a3daafe3b4186f6b6457e060405160405180910390a360008060006101000a81548173ffffffffffffffffffffffffffffffffffffffff021916908373ffffffffffffffffffffffffffffffffffffffff160217905550565b600061073d82611295565b9050804210610781576040517f08c379a000000000000000000000000000000000000000000000000000000000815260040161077890611e1b565b60405180910390fd5b61078b60016112bc565b6000806107988585610bb4565b915091506107a660026112bc565b6000670de0b6b3a764000083876107bd9190611fd8565b6107c79190611fa7565b905080866107d59190611f51565b6001600086815260200190815260200160002060008973ffffffffffffffffffffffffffffffffffffffff1673ffffffffffffffffffffffffffffffffffffffff16815260200190815260200160002060008282546108349190611f51565b925050819055508160036000868152602001908152602001600020600082015181600001556020820151816001015590505061087060036112bc565b61087987611355565b61088230611355565b61088b866112bc565b61093e600860009054906101000a900473ffffffffffffffffffffffffffffffffffffffff1673ffffffffffffffffffffffffffffffffffffffff166370a08231896040518263ffffffff1660e01b81526004016108e99190611c9e565b60206040518083038186803b15801561090157600080fd5b505afa158015610915573d6000803e3d6000fd5b505050506040513d601f19601f8201168201806040525081019061093991906118df565b6112bc565b600860009054906101000a900473ffffffffffffffffffffffffffffffffffffffff1673ffffffffffffffffffffffffffffffffffffffff166323b872dd8830896040518463ffffffff1660e01b815260040161099d93929190611cb9565b602060405180830381600087803b1580156109b757600080fd5b505af11580156109cb573d6000803e3d6000fd5b505050506040513d601f19601f820116820180604052508101906109ef919061188d565b506109fa60046112bc565b8673ffffffffffffffffffffffffffffffffffffffff167f59c246e4b3d64f626b5eac2dd8e3a3c46c4531e9cc40ef4e6f120fcb3df6be1e878387604051610a4493929190611ee8565b60405180910390a250505050505050565b60008060009054906101000a900473ffffffffffffffffffffffffffffffffffffffff16905090565b6000610a8861176b565b6000610a9384611295565b9050804210610ad7576040517f08c379a0000000000000000000000000000000000000000000000000000000008152600401610ace90611e1b565b60405180910390fd5b6000600360008381526020019081526020016000206040518060400160405290816000820154815260200160018201548152505090508581600001818151610b1f9190611f51565b91508181525050600062015180610b35426113ee565b84610b409190612032565b610b4a9190611fa7565b9050600082602001518360000151600754610b659190611fd8565b610b6f9190611fa7565b600654600554610b7f9190611f51565b610b899190611f51565b905061016d8282610b9a9190611fd8565b610ba49190611fa7565b8395509550505050509250929050565b6000610bbe61176b565b6000610bc984611295565b9050804210610c0d576040517f08c379a0000000000000000000000000000000000000000000000000000000008152600401610c0490611e1b565b60405180910390fd5b6000600360008381526020019081526020016000206040518060400160405290816000820154815260200160018201548152505090508581602001818151610c559190611f51565b91508181525050600062015180610c6b426113ee565b84610c769190612032565b610c809190611fa7565b9050600082602001518360000151600754610c9b9190611fd8565b610ca59190611fa7565b600554610cb29190611f51565b905061016d8282610cc39190611fd8565b610ccd9190611fa7565b8395509550505050509250929050565b60036020528060005260406000206000915090508060000154908060010154905082565b6000610d0c82611295565b9050804210610d50576040517f08c379a0000000000000000000000000000000000000000000000000000000008152600401610d4790611e1b565b60405180910390fd5b600080610d5d8585610a7e565b915091506000600a60009054906101000a900473ffffffffffffffffffffffffffffffffffffffff1673ffffffffffffffffffffffffffffffffffffffff1663059a8008308989896040518563ffffffff1660e01b8152600401610dc49493929190611cf0565b602060405180830381600087803b158015610dde57600080fd5b505af1158015610df2573d6000803e3d6000fd5b505050506040513d601f19601f82011682018060405250810190610e1691906118df565b905060006004811115610e52577f4e487b7100000000000000000000000000000000000000000000000000000000600052602160045260246000fd5b8114610e93576040517f08c379a0000000000000000000000000000000000000000000000000000000008152600401610e8a90611dbb565b60405180910390fd5b6000670de0b6b3a76400008488610eaa9190611fd8565b610eb49190611fa7565b90508087610ec29190611f51565b6002600087815260200190815260200160002060008a73ffffffffffffffffffffffffffffffffffffffff1673ffffffffffffffffffffffffffffffffffffffff1681526020019081526020016000206000828254610f219190611f51565b9250508190555082600360008781526020019081526020016000206000820151816000015560208201518160010155905050610fa2308989600860009054906101000a900473ffffffffffffffffffffffffffffffffffffffff1673ffffffffffffffffffffffffffffffffffffffff16611411909392919063ffffffff16565b8773ffffffffffffffffffffffffffffffffffffffff167fc4381c9c7b508979896c55381c1cb8c2aef28d753cff7661f9cd87b9a14584f8888388604051610fec93929190611ee8565b60405180910390a25050505050505050565b6002602052816000526040600020602052806000526040600020600091509150505481565b60008061102f83611295565b90506003600082815260200190815260200160002060000154915050919050565b6110586112b4565b73ffffffffffffffffffffffffffffffffffffffff16611076610a55565b73ffffffffffffffffffffffffffffffffffffffff16146110cc576040517f08c379a00000000000000000000000000000000000000000000000000000000081526004016110c390611dfb565b60405180910390fd5b600073ffffffffffffffffffffffffffffffffffffffff168173ffffffffffffffffffffffffffffffffffffffff16141561113c576040517f08c379a000000000000000000000000000000000000000000000000000000000815260040161113390611d9b565b60405180910390fd5b8073ffffffffffffffffffffffffffffffffffffffff1660008054906101000a900473ffffffffffffffffffffffffffffffffffffffff1673ffffffffffffffffffffffffffffffffffffffff167f8be0079c531659141344cd1fd0a4f28419497f9722a3daafe3b4186f6b6457e060405160405180910390a3806000806101000a81548173ffffffffffffffffffffffffffffffffffffffff021916908373ffffffffffffffffffffffffffffffffffffffff16021790555050565b611291828260405160240161120f929190611d35565b6040516020818303038152906040527f2243cfa3000000000000000000000000000000000000000000000000000000007bffffffffffffffffffffffffffffffffffffffffffffffffffffffff19166020820180517bffffffffffffffffffffffffffffffffffffffffffffffffffffffff838183161783525050505061149a565b5050565b6000806112a96112a4846114c3565b6114e6565b905080915050919050565b600033905090565b611352816040516024016112d09190611e7b565b6040516020818303038152906040527ff5b1bba9000000000000000000000000000000000000000000000000000000007bffffffffffffffffffffffffffffffffffffffffffffffffffffffff19166020820180517bffffffffffffffffffffffffffffffffffffffffffffffffffffffff838183161783525050505061149a565b50565b6113eb816040516024016113699190611c9e565b6040516020818303038152906040527f2c2ecbc2000000000000000000000000000000000000000000000000000000007bffffffffffffffffffffffffffffffffffffffffffffffffffffffff19166020820180517bffffffffffffffffffffffffffffffffffffffffffffffffffffffff838183161783525050505061149a565b50565b600062015180826113ff9190612113565b8261140a9190612032565b9050919050565b611494846323b872dd60e01b85858560405160240161143293929190611cb9565b604051602081830303815290604052907bffffffffffffffffffffffffffffffffffffffffffffffffffffffff19166020820180517bffffffffffffffffffffffffffffffffffffffffffffffffffffffff83818316178352505050506114fe565b50505050565b60008151905060006a636f6e736f6c652e6c6f679050602083016000808483855afa5050505050565b600062278d00826114d49190612113565b826114df9190612032565b9050919050565b600062278d00826114f79190611f51565b9050919050565b6000611560826040518060400160405280602081526020017f5361666545524332303a206c6f772d6c6576656c2063616c6c206661696c65648152508573ffffffffffffffffffffffffffffffffffffffff166115c59092919063ffffffff16565b90506000815111156115c05780806020019051810190611580919061188d565b6115bf576040517f08c379a00000000000000000000000000000000000000000000000000000000081526004016115b690611e5b565b60405180910390fd5b5b505050565b60606115d484846000856115dd565b90509392505050565b606082471015611622576040517f08c379a000000000000000000000000000000000000000000000000000000000815260040161161990611ddb565b60405180910390fd5b61162b856116f1565b61166a576040517f08c379a000000000000000000000000000000000000000000000000000000000815260040161166190611e3b565b60405180910390fd5b6000808673ffffffffffffffffffffffffffffffffffffffff1685876040516116939190611c87565b60006040518083038185875af1925050503d80600081146116d0576040519150601f19603f3d011682016040523d82523d6000602084013e6116d5565b606091505b50915091506116e5828286611704565b92505050949350505050565b600080823b905060008111915050919050565b6060831561171457829050611764565b6000835111156117275782518084602001fd5b816040517f08c379a000000000000000000000000000000000000000000000000000000000815260040161175b9190611d79565b60405180910390fd5b9392505050565b604051806040016040528060008152602001600081525090565b600081359050611794816121e2565b92915050565b6000815190506117a9816121f9565b92915050565b6000813590506117be81612210565b92915050565b6000815190506117d381612210565b92915050565b6000602082840312156117eb57600080fd5b60006117f984828501611785565b91505092915050565b6000806040838503121561181557600080fd5b600061182385828601611785565b9250506020611834858286016117af565b9150509250929050565b60008060006060848603121561185357600080fd5b600061186186828701611785565b9350506020611872868287016117af565b9250506040611883868287016117af565b9150509250925092565b60006020828403121561189f57600080fd5b60006118ad8482850161179a565b91505092915050565b6000602082840312156118c857600080fd5b60006118d6848285016117af565b91505092915050565b6000602082840312156118f157600080fd5b60006118ff848285016117c4565b91505092915050565b6000806040838503121561191b57600080fd5b6000611929858286016117af565b925050602061193a85828601611785565b9150509250929050565b6000806040838503121561195757600080fd5b6000611965858286016117af565b9250506020611976858286016117af565b9150509250929050565b61198981612066565b82525050565b61199881612078565b82525050565b60006119a982611f1f565b6119b38185611f35565b93506119c38185602086016120ae565b80840191505092915050565b60006119da82611f2a565b6119e48185611f40565b93506119f48185602086016120ae565b6119fd816121d1565b840191505092915050565b6000611a15602683611f40565b91507f4f776e61626c653a206e6577206f776e657220697320746865207a65726f206160008301527f64647265737300000000000000000000000000000000000000000000000000006020830152604082019050919050565b6000611a7b601c83611f40565b91507f65786146726f6e74206e6f7420616c6c6f77696e6720626f72726f77000000006000830152602082019050919050565b6000611abb602683611f40565b91507f416464726573733a20696e73756666696369656e742062616c616e636520666f60008301527f722063616c6c00000000000000000000000000000000000000000000000000006020830152604082019050919050565b6000611b21602083611f40565b91507f4f776e61626c653a2063616c6c6572206973206e6f7420746865206f776e65726000830152602082019050919050565b6000611b61601483611f40565b91507f45786166696e3a20506f6f6c204d6174757265640000000000000000000000006000830152602082019050919050565b6000611ba1601d83611f40565b91507f416464726573733a2063616c6c20746f206e6f6e2d636f6e74726163740000006000830152602082019050919050565b6000611be1602a83611f40565b91507f5361666545524332303a204552433230206f7065726174696f6e20646964206e60008301527f6f742073756363656564000000000000000000000000000000000000000000006020830152604082019050919050565b604082016000820151611c506000850182611c69565b506020820151611c636020850182611c69565b50505050565b611c72816120a4565b82525050565b611c81816120a4565b82525050565b6000611c93828461199e565b915081905092915050565b6000602082019050611cb36000830184611980565b92915050565b6000606082019050611cce6000830186611980565b611cdb6020830185611980565b611ce86040830184611c78565b949350505050565b6000608082019050611d056000830187611980565b611d126020830186611980565b611d1f6040830185611c78565b611d2c6060830184611c78565b95945050505050565b6000604082019050611d4a6000830185611980565b611d576020830184611c78565b9392505050565b6000602082019050611d73600083018461198f565b92915050565b60006020820190508181036000830152611d9381846119cf565b905092915050565b60006020820190508181036000830152611db481611a08565b9050919050565b60006020820190508181036000830152611dd481611a6e565b9050919050565b60006020820190508181036000830152611df481611aae565b9050919050565b60006020820190508181036000830152611e1481611b14565b9050919050565b60006020820190508181036000830152611e3481611b54565b9050919050565b60006020820190508181036000830152611e5481611b94565b9050919050565b60006020820190508181036000830152611e7481611bd4565b9050919050565b6000602082019050611e906000830184611c78565b92915050565b6000606082019050611eab6000830185611c78565b611eb86020830184611c3a565b9392505050565b6000604082019050611ed46000830185611c78565b611ee16020830184611c78565b9392505050565b6000606082019050611efd6000830186611c78565b611f0a6020830185611c78565b611f176040830184611c78565b949350505050565b600081519050919050565b600081519050919050565b600081905092915050565b600082825260208201905092915050565b6000611f5c826120a4565b9150611f67836120a4565b9250827fffffffffffffffffffffffffffffffffffffffffffffffffffffffffffffffff03821115611f9c57611f9b612144565b5b828201905092915050565b6000611fb2826120a4565b9150611fbd836120a4565b925082611fcd57611fcc612173565b5b828204905092915050565b6000611fe3826120a4565b9150611fee836120a4565b9250817fffffffffffffffffffffffffffffffffffffffffffffffffffffffffffffffff048311821515161561202757612026612144565b5b828202905092915050565b600061203d826120a4565b9150612048836120a4565b92508282101561205b5761205a612144565b5b828203905092915050565b600061207182612084565b9050919050565b60008115159050919050565b600073ffffffffffffffffffffffffffffffffffffffff82169050919050565b6000819050919050565b60005b838110156120cc5780820151818401526020810190506120b1565b838111156120db576000848401525b50505050565b600060028204905060018216806120f957607f821691505b6020821081141561210d5761210c6121a2565b5b50919050565b600061211e826120a4565b9150612129836120a4565b92508261213957612138612173565b5b828206905092915050565b7f4e487b7100000000000000000000000000000000000000000000000000000000600052601160045260246000fd5b7f4e487b7100000000000000000000000000000000000000000000000000000000600052601260045260246000fd5b7f4e487b7100000000000000000000000000000000000000000000000000000000600052602260045260246000fd5b6000601f19601f8301169050919050565b6121eb81612066565b81146121f657600080fd5b50565b61220281612078565b811461220d57600080fd5b50565b612219816120a4565b811461222457600080fd5b5056fea264697066735822122046f4f7b1d8b6867530bf2327272249af5f8cd231402ee92e96740fb9b6b2040164736f6c63430008000033",
  "devdoc": {
    "kind": "dev",
    "methods": {
      "borrow(address,uint256,uint256)": {
        "details": "Lends to a wallet for a certain maturity date/pool",
        "params": {
          "amount": "amount to send to the specified wallet",
          "maturityDate": "maturity date for repayment",
          "to": "wallet to send the amount"
        }
      },
      "getAccountSnapshot(address,uint256)": {
        "details": "Gets current snapshot for a wallet in a certain maturity",
        "params": {
          "maturityDate": "maturity date",
          "who": "wallet to return status snapshot in the specified maturity date"
        }
      },
      "getTotalBorrows(uint256)": {
        "details": "Gets the total amount of borrowed money for a maturityDate",
        "params": {
          "maturityDate": "maturity date"
        }
      },
      "owner()": {
        "details": "Returns the address of the current owner."
      },
      "rateForSupply(uint256,uint256)": {
        "details": "Rate that the protocol will pay when borrowing from an address a certain amount at the end of the maturity date",
        "params": {
          "amount": "amount to calculate how it would affect the pool ",
          "maturityDate": "maturity date to calculate the pool"
        }
      },
      "rateToBorrow(uint256,uint256)": {
        "details": "Rate that the protocol will collect when lending to an address a certain amount at the end of the maturity date",
        "params": {
          "amount": "amount to calculate how it would affect the pool ",
          "maturityDate": "maturity date to calculate the pool"
        }
      },
      "renounceOwnership()": {
        "details": "Leaves the contract without owner. It will not be possible to call `onlyOwner` functions anymore. Can only be called by the current owner. NOTE: Renouncing ownership will leave the contract without an owner, thereby removing any functionality that is only available to the owner."
      },
      "supply(address,uint256,uint256)": {
        "details": "Borrows from a wallet for a certain maturity date/pool",
        "params": {
          "amount": "amount to receive from the specified wallet",
          "from": "wallet to receive amount from",
          "maturityDate": "maturity date "
        }
      },
      "transferOwnership(address)": {
        "details": "Transfers ownership of the contract to a new account (`newOwner`). Can only be called by the current owner."
      }
    },
    "version": 1
  },
  "userdoc": {
    "kind": "user",
    "methods": {},
    "version": 1
  },
  "storageLayout": {
    "storage": [
      {
        "astId": 7,
        "contract": "contracts/Exafin.sol:Exafin",
        "label": "_owner",
        "offset": 0,
        "slot": "0",
        "type": "t_address"
      },
      {
        "astId": 1407,
        "contract": "contracts/Exafin.sol:Exafin",
        "label": "suppliedAmmounts",
        "offset": 0,
        "slot": "1",
        "type": "t_mapping(t_uint256,t_mapping(t_address,t_uint256))"
      },
      {
        "astId": 1413,
        "contract": "contracts/Exafin.sol:Exafin",
        "label": "borrowedAmounts",
        "offset": 0,
        "slot": "2",
        "type": "t_mapping(t_uint256,t_mapping(t_address,t_uint256))"
      },
      {
        "astId": 1418,
        "contract": "contracts/Exafin.sol:Exafin",
        "label": "pools",
        "offset": 0,
        "slot": "3",
        "type": "t_mapping(t_uint256,t_struct(Pool)2020_storage)"
      },
      {
        "astId": 1423,
        "contract": "contracts/Exafin.sol:Exafin",
        "label": "addressPools",
        "offset": 0,
        "slot": "4",
        "type": "t_mapping(t_address,t_array(t_uint256)dyn_storage)"
      },
      {
        "astId": 1425,
        "contract": "contracts/Exafin.sol:Exafin",
        "label": "baseRate",
        "offset": 0,
        "slot": "5",
        "type": "t_uint256"
      },
      {
        "astId": 1427,
        "contract": "contracts/Exafin.sol:Exafin",
        "label": "marginRate",
        "offset": 0,
        "slot": "6",
        "type": "t_uint256"
      },
      {
        "astId": 1429,
        "contract": "contracts/Exafin.sol:Exafin",
        "label": "slopeRate",
        "offset": 0,
        "slot": "7",
        "type": "t_uint256"
      },
      {
        "astId": 1435,
        "contract": "contracts/Exafin.sol:Exafin",
        "label": "trustedUnderlying",
        "offset": 0,
        "slot": "8",
        "type": "t_contract(IERC20)187"
      },
      {
        "astId": 1438,
        "contract": "contracts/Exafin.sol:Exafin",
        "label": "tokenName",
        "offset": 0,
        "slot": "9",
        "type": "t_string_storage"
      },
      {
        "astId": 1441,
        "contract": "contracts/Exafin.sol:Exafin",
        "label": "exaFront",
        "offset": 0,
        "slot": "10",
        "type": "t_contract(IExaFront)2013"
      }
    ],
    "types": {
      "t_address": {
        "encoding": "inplace",
        "label": "address",
        "numberOfBytes": "20"
      },
      "t_array(t_uint256)dyn_storage": {
        "base": "t_uint256",
        "encoding": "dynamic_array",
        "label": "uint256[]",
        "numberOfBytes": "32"
      },
      "t_contract(IERC20)187": {
        "encoding": "inplace",
        "label": "contract IERC20",
        "numberOfBytes": "20"
      },
      "t_contract(IExaFront)2013": {
        "encoding": "inplace",
        "label": "contract IExaFront",
        "numberOfBytes": "20"
      },
      "t_mapping(t_address,t_array(t_uint256)dyn_storage)": {
        "encoding": "mapping",
        "key": "t_address",
        "label": "mapping(address => uint256[])",
        "numberOfBytes": "32",
        "value": "t_array(t_uint256)dyn_storage"
      },
      "t_mapping(t_address,t_uint256)": {
        "encoding": "mapping",
        "key": "t_address",
        "label": "mapping(address => uint256)",
        "numberOfBytes": "32",
        "value": "t_uint256"
      },
      "t_mapping(t_uint256,t_mapping(t_address,t_uint256))": {
        "encoding": "mapping",
        "key": "t_uint256",
        "label": "mapping(uint256 => mapping(address => uint256))",
        "numberOfBytes": "32",
        "value": "t_mapping(t_address,t_uint256)"
      },
      "t_mapping(t_uint256,t_struct(Pool)2020_storage)": {
        "encoding": "mapping",
        "key": "t_uint256",
        "label": "mapping(uint256 => struct Pool)",
        "numberOfBytes": "32",
        "value": "t_struct(Pool)2020_storage"
      },
      "t_string_storage": {
        "encoding": "bytes",
        "label": "string",
        "numberOfBytes": "32"
      },
      "t_struct(Pool)2020_storage": {
        "encoding": "inplace",
        "label": "struct Pool",
        "members": [
          {
            "astId": 2017,
            "contract": "contracts/Exafin.sol:Exafin",
            "label": "lent",
            "offset": 0,
            "slot": "0",
            "type": "t_uint256"
          },
          {
            "astId": 2019,
            "contract": "contracts/Exafin.sol:Exafin",
            "label": "supplied",
            "offset": 0,
            "slot": "1",
            "type": "t_uint256"
          }
        ],
        "numberOfBytes": "64"
      },
      "t_uint256": {
        "encoding": "inplace",
        "label": "uint256",
        "numberOfBytes": "32"
      }
    }
  }
}