{
  "address": "0x1c7B43a0bbab0a5EA0A1435F31D1c8e05Cc6aE98",
  "abi": [
    {
      "inputs": [
        {
          "internalType": "address",
          "name": "_priceOracleAddress",
          "type": "address"
        }
      ],
      "stateMutability": "nonpayable",
      "type": "constructor"
    },
    {
      "anonymous": false,
      "inputs": [
        {
          "indexed": false,
          "internalType": "address",
          "name": "exafin",
          "type": "address"
        },
        {
          "indexed": false,
          "internalType": "string",
          "name": "action",
          "type": "string"
        },
        {
          "indexed": false,
          "internalType": "bool",
          "name": "paused",
          "type": "bool"
        }
      ],
      "name": "ActionPaused",
      "type": "event"
    },
    {
      "anonymous": false,
      "inputs": [
        {
          "indexed": false,
          "internalType": "contract IExafin",
          "name": "exafin",
          "type": "address"
        },
        {
          "indexed": false,
          "internalType": "address",
          "name": "account",
          "type": "address"
        }
      ],
      "name": "MarketEntered",
      "type": "event"
    },
    {
      "anonymous": false,
      "inputs": [
        {
          "indexed": true,
          "internalType": "address",
          "name": "previousOwner",
          "type": "address"
        },
        {
          "indexed": true,
          "internalType": "address",
          "name": "newOwner",
          "type": "address"
        }
      ],
      "name": "OwnershipTransferred",
      "type": "event"
    },
    {
      "anonymous": false,
      "inputs": [
        {
          "indexed": true,
          "internalType": "bytes32",
          "name": "role",
          "type": "bytes32"
        },
        {
          "indexed": true,
          "internalType": "bytes32",
          "name": "previousAdminRole",
          "type": "bytes32"
        },
        {
          "indexed": true,
          "internalType": "bytes32",
          "name": "newAdminRole",
          "type": "bytes32"
        }
      ],
      "name": "RoleAdminChanged",
      "type": "event"
    },
    {
      "anonymous": false,
      "inputs": [
        {
          "indexed": true,
          "internalType": "bytes32",
          "name": "role",
          "type": "bytes32"
        },
        {
          "indexed": true,
          "internalType": "address",
          "name": "account",
          "type": "address"
        },
        {
          "indexed": true,
          "internalType": "address",
          "name": "sender",
          "type": "address"
        }
      ],
      "name": "RoleGranted",
      "type": "event"
    },
    {
      "anonymous": false,
      "inputs": [
        {
          "indexed": true,
          "internalType": "bytes32",
          "name": "role",
          "type": "bytes32"
        },
        {
          "indexed": true,
          "internalType": "address",
          "name": "account",
          "type": "address"
        },
        {
          "indexed": true,
          "internalType": "address",
          "name": "sender",
          "type": "address"
        }
      ],
      "name": "RoleRevoked",
      "type": "event"
    },
    {
      "inputs": [],
      "name": "DEFAULT_ADMIN_ROLE",
      "outputs": [
        {
          "internalType": "bytes32",
          "name": "",
          "type": "bytes32"
        }
      ],
      "stateMutability": "view",
      "type": "function"
    },
    {
      "inputs": [],
      "name": "TEAM_ROLE",
      "outputs": [
        {
          "internalType": "bytes32",
          "name": "",
          "type": "bytes32"
        }
      ],
      "stateMutability": "view",
      "type": "function"
    },
    {
      "inputs": [
        {
          "internalType": "address",
          "name": "",
          "type": "address"
        },
        {
          "internalType": "uint256",
          "name": "",
          "type": "uint256"
        }
      ],
      "name": "accountAssets",
      "outputs": [
        {
          "internalType": "contract IExafin",
          "name": "",
          "type": "address"
        }
      ],
      "stateMutability": "view",
      "type": "function"
    },
    {
      "inputs": [
        {
          "internalType": "address",
          "name": "exafinAddress",
          "type": "address"
        },
        {
          "internalType": "address",
          "name": "borrower",
          "type": "address"
        },
        {
          "internalType": "uint256",
          "name": "borrowAmount",
          "type": "uint256"
        },
        {
          "internalType": "uint256",
          "name": "maturityDate",
          "type": "uint256"
        }
      ],
      "name": "borrowAllowed",
      "outputs": [
        {
          "internalType": "uint256",
          "name": "",
          "type": "uint256"
        }
      ],
      "stateMutability": "nonpayable",
      "type": "function"
    },
    {
      "inputs": [
        {
          "internalType": "address",
          "name": "",
          "type": "address"
        }
      ],
      "name": "borrowCaps",
      "outputs": [
        {
          "internalType": "uint256",
          "name": "",
          "type": "uint256"
        }
      ],
      "stateMutability": "view",
      "type": "function"
    },
    {
      "inputs": [
        {
          "internalType": "address",
          "name": "",
          "type": "address"
        }
      ],
      "name": "borrowPaused",
      "outputs": [
        {
          "internalType": "bool",
          "name": "",
          "type": "bool"
        }
      ],
      "stateMutability": "view",
      "type": "function"
    },
    {
      "inputs": [
        {
          "internalType": "address",
          "name": "exafin",
          "type": "address"
        },
        {
          "internalType": "uint256",
          "name": "collateralFactor",
          "type": "uint256"
        },
        {
          "internalType": "string",
          "name": "symbol",
          "type": "string"
        },
        {
          "internalType": "string",
          "name": "name",
          "type": "string"
        }
      ],
      "name": "enableMarket",
      "outputs": [],
      "stateMutability": "nonpayable",
      "type": "function"
    },
    {
      "inputs": [
        {
          "internalType": "address[]",
          "name": "exafins",
          "type": "address[]"
        }
      ],
      "name": "enterMarkets",
      "outputs": [
        {
          "internalType": "uint256[]",
          "name": "",
          "type": "uint256[]"
        }
      ],
      "stateMutability": "nonpayable",
      "type": "function"
    },
    {
      "inputs": [
        {
          "internalType": "address",
          "name": "account",
          "type": "address"
        },
        {
          "internalType": "uint256",
          "name": "maturityDate",
          "type": "uint256"
        }
      ],
      "name": "getAccountLiquidity",
      "outputs": [
        {
          "internalType": "uint256",
          "name": "",
          "type": "uint256"
        },
        {
          "internalType": "uint256",
          "name": "",
          "type": "uint256"
        },
        {
          "internalType": "uint256",
          "name": "",
          "type": "uint256"
        }
      ],
      "stateMutability": "view",
      "type": "function"
    },
    {
      "inputs": [
        {
          "internalType": "address",
          "name": "contractAddress",
          "type": "address"
        }
      ],
      "name": "getMarketByAddress",
      "outputs": [
        {
          "internalType": "address",
          "name": "",
          "type": "address"
        },
        {
          "internalType": "string",
          "name": "",
          "type": "string"
        },
        {
          "internalType": "bool",
          "name": "",
          "type": "bool"
        },
        {
          "internalType": "uint256",
          "name": "",
          "type": "uint256"
        },
        {
          "internalType": "string",
          "name": "",
          "type": "string"
        }
      ],
      "stateMutability": "view",
      "type": "function"
    },
    {
      "inputs": [],
      "name": "getMarkets",
      "outputs": [
        {
          "internalType": "address[]",
          "name": "",
          "type": "address[]"
        },
        {
          "internalType": "string[]",
          "name": "",
          "type": "string[]"
        },
        {
          "internalType": "bool[]",
          "name": "",
          "type": "bool[]"
        },
        {
          "internalType": "uint256[]",
          "name": "",
          "type": "uint256[]"
        },
        {
          "internalType": "string[]",
          "name": "",
          "type": "string[]"
        }
      ],
      "stateMutability": "view",
      "type": "function"
    },
    {
      "inputs": [
        {
          "internalType": "bytes32",
          "name": "role",
          "type": "bytes32"
        }
      ],
      "name": "getRoleAdmin",
      "outputs": [
        {
          "internalType": "bytes32",
          "name": "",
          "type": "bytes32"
        }
      ],
      "stateMutability": "view",
      "type": "function"
    },
    {
      "inputs": [
        {
          "internalType": "bytes32",
          "name": "role",
          "type": "bytes32"
        },
        {
          "internalType": "address",
          "name": "account",
          "type": "address"
        }
      ],
      "name": "grantRole",
      "outputs": [],
      "stateMutability": "nonpayable",
      "type": "function"
    },
    {
      "inputs": [
        {
          "internalType": "bytes32",
          "name": "role",
          "type": "bytes32"
        },
        {
          "internalType": "address",
          "name": "account",
          "type": "address"
        }
      ],
      "name": "hasRole",
      "outputs": [
        {
          "internalType": "bool",
          "name": "",
          "type": "bool"
        }
      ],
      "stateMutability": "view",
      "type": "function"
    },
    {
      "inputs": [
        {
          "internalType": "address",
          "name": "exafin",
          "type": "address"
        }
      ],
      "name": "listMarket",
      "outputs": [],
      "stateMutability": "nonpayable",
      "type": "function"
    },
    {
      "inputs": [
        {
          "internalType": "address",
          "name": "",
          "type": "address"
        }
      ],
      "name": "listedMarkets",
      "outputs": [
        {
          "internalType": "string",
          "name": "symbol",
          "type": "string"
        },
        {
          "internalType": "string",
          "name": "name",
          "type": "string"
        },
        {
          "internalType": "bool",
          "name": "isListed",
          "type": "bool"
        },
        {
          "internalType": "uint256",
          "name": "collateralFactor",
          "type": "uint256"
        },
        {
          "internalType": "bool",
          "name": "exists",
          "type": "bool"
        }
      ],
      "stateMutability": "view",
      "type": "function"
    },
    {
      "inputs": [
        {
          "internalType": "address",
          "name": "",
          "type": "address"
        }
      ],
      "name": "markets",
      "outputs": [
        {
          "components": [
            {
              "internalType": "string",
              "name": "symbol",
              "type": "string"
            },
            {
              "internalType": "string",
              "name": "name",
              "type": "string"
            },
            {
              "internalType": "bool",
              "name": "isListed",
              "type": "bool"
            },
            {
              "internalType": "uint256",
              "name": "collateralFactor",
              "type": "uint256"
            },
            {
              "internalType": "bool",
              "name": "exists",
              "type": "bool"
            }
          ],
          "internalType": "struct ExaFront.BaseMarket",
          "name": "baseMarket",
          "type": "tuple"
        }
      ],
      "stateMutability": "view",
      "type": "function"
    },
    {
      "inputs": [],
      "name": "owner",
      "outputs": [
        {
          "internalType": "address",
          "name": "",
          "type": "address"
        }
      ],
      "stateMutability": "view",
      "type": "function"
    },
    {
      "inputs": [
        {
          "internalType": "address",
          "name": "exafin",
          "type": "address"
        },
        {
          "internalType": "bool",
          "name": "paused",
          "type": "bool"
        }
      ],
      "name": "pauseBorrow",
      "outputs": [
        {
          "internalType": "bool",
          "name": "",
          "type": "bool"
        }
      ],
      "stateMutability": "nonpayable",
      "type": "function"
    },
    {
      "inputs": [
        {
          "internalType": "address",
          "name": "exafinAddress",
          "type": "address"
        },
        {
          "internalType": "address",
          "name": "redeemer",
          "type": "address"
        },
        {
          "internalType": "uint256",
          "name": "redeemTokens",
          "type": "uint256"
        },
        {
          "internalType": "uint256",
          "name": "maturityDate",
          "type": "uint256"
        }
      ],
      "name": "redeemAllowed",
      "outputs": [
        {
          "internalType": "uint256",
          "name": "",
          "type": "uint256"
        }
      ],
      "stateMutability": "view",
      "type": "function"
    },
    {
      "inputs": [],
      "name": "renounceOwnership",
      "outputs": [],
      "stateMutability": "nonpayable",
      "type": "function"
    },
    {
      "inputs": [
        {
          "internalType": "bytes32",
          "name": "role",
          "type": "bytes32"
        },
        {
          "internalType": "address",
          "name": "account",
          "type": "address"
        }
      ],
      "name": "renounceRole",
      "outputs": [],
      "stateMutability": "nonpayable",
      "type": "function"
    },
    {
      "inputs": [
        {
          "internalType": "bytes32",
          "name": "role",
          "type": "bytes32"
        },
        {
          "internalType": "address",
          "name": "account",
          "type": "address"
        }
      ],
      "name": "revokeRole",
      "outputs": [],
      "stateMutability": "nonpayable",
      "type": "function"
    },
    {
      "inputs": [
        {
          "internalType": "address",
          "name": "_priceOracleAddress",
          "type": "address"
        }
      ],
      "name": "setOracle",
      "outputs": [],
      "stateMutability": "nonpayable",
      "type": "function"
    },
    {
      "inputs": [
        {
          "internalType": "bytes4",
          "name": "interfaceId",
          "type": "bytes4"
        }
      ],
      "name": "supportsInterface",
      "outputs": [
        {
          "internalType": "bool",
          "name": "",
          "type": "bool"
        }
      ],
      "stateMutability": "view",
      "type": "function"
    },
    {
      "inputs": [
        {
          "internalType": "address",
          "name": "newOwner",
          "type": "address"
        }
      ],
      "name": "transferOwnership",
      "outputs": [],
      "stateMutability": "nonpayable",
      "type": "function"
    },
    {
      "inputs": [
        {
          "internalType": "address",
          "name": "exafin",
          "type": "address"
        }
      ],
      "name": "unlistMarket",
      "outputs": [],
      "stateMutability": "nonpayable",
      "type": "function"
    }
  ],
  "transactionHash": "0xa2841d9be6d74ad505456b461ed75c3fc05dfa720416d4f625a32bcd2d3fc44d",
  "args": [
    "0x6d2299c48a8dd07a872fdd0f8233924872ad1071"
  ],
  "solcInputHash": "be61ef0681049ef77db9bc4c9e3b1f7d",
  "bytecode": "0x608060405260006007553480156200001657600080fd5b50604051620053793803806200537983398181016040528101906200003c91906200030c565b60006200004e6200017b60201b60201c565b9050806000806101000a81548173ffffffffffffffffffffffffffffffffffffffff021916908373ffffffffffffffffffffffffffffffffffffffff1602179055508073ffffffffffffffffffffffffffffffffffffffff16600073ffffffffffffffffffffffffffffffffffffffff167f8be0079c531659141344cd1fd0a4f28419497f9722a3daafe3b4186f6b6457e060405160405180910390a35080600960006101000a81548173ffffffffffffffffffffffffffffffffffffffff021916908373ffffffffffffffffffffffffffffffffffffffff160217905550620001426000801b336200018360201b60201c565b620001747f5146a08baf902532d0ee2f909971144f12ca32651cd70cbee1117cddfb3b3b33336200018360201b60201c565b5062000386565b600033905090565b6200019582826200019960201b60201c565b5050565b620001ab82826200028a60201b60201c565b6200028657600180600084815260200190815260200160002060000160008373ffffffffffffffffffffffffffffffffffffffff1673ffffffffffffffffffffffffffffffffffffffff16815260200190815260200160002060006101000a81548160ff0219169083151502179055506200022b6200017b60201b60201c565b73ffffffffffffffffffffffffffffffffffffffff168173ffffffffffffffffffffffffffffffffffffffff16837f2f8788117e7eff1d82e926ec794901d17c78024a50270940304540a733656f0d60405160405180910390a45b5050565b60006001600084815260200190815260200160002060000160008373ffffffffffffffffffffffffffffffffffffffff1673ffffffffffffffffffffffffffffffffffffffff16815260200190815260200160002060009054906101000a900460ff16905092915050565b60008151905062000306816200036c565b92915050565b6000602082840312156200031f57600080fd5b60006200032f84828501620002f5565b91505092915050565b600062000345826200034c565b9050919050565b600073ffffffffffffffffffffffffffffffffffffffff82169050919050565b620003778162000338565b81146200038357600080fd5b50565b614fe380620003966000396000f3fe608060405234801561001057600080fd5b50600436106101a95760003560e01c80638da5cb5b116100f9578063d547741f11610097578063dec481b811610071578063dec481b81461051c578063df26c4681461054c578063ec2c901614610580578063f2fde38b146105a2576101a9565b8063d547741f146104a0578063d76a6779146104bc578063dce15449146104ec576101a9565b80639e35e142116100d35780639e35e14214610404578063a217fddf14610436578063c299823814610454578063ce81901914610484576101a9565b80638da5cb5b146103865780638e8f294b146103a457806391d14854146103d4576101a9565b80632f2ff15d1161016657806349d5e6041161014057806349d5e604146103125780634a58443214610330578063715018a6146103605780637adbf9731461036a576101a9565b80632f2ff15d146102aa5780632f8832d6146102c657806336568abe146102f6576101a9565b806301ffc9a7146101ae578063059a8008146101de5780630686dab61461020e578063248a9ca31461022a578063263195191461025a5780632ee0121614610276575b600080fd5b6101c860048036038101906101c39190613d9d565b6105be565b6040516101d59190614781565b60405180910390f35b6101f860048036038101906101f39190613b85565b610638565b6040516102059190614a00565b60405180910390f35b61022860048036038101906102239190613b5c565b610df0565b005b610244600480360381019061023f9190613d38565b610fa8565b604051610251919061479c565b60405180910390f35b610274600480360381019061026f9190613b5c565b610fc8565b005b610290600480360381019061028b9190613b5c565b611216565b6040516102a195949392919061481d565b60405180910390f35b6102c460048036038101906102bf9190613d61565b611376565b005b6102e060048036038101906102db9190613b85565b61139f565b6040516102ed9190614a00565b60405180910390f35b610310600480360381019061030b9190613d61565b61166d565b005b61031a6116f0565b604051610327919061479c565b60405180910390f35b61034a60048036038101906103459190613b5c565b611714565b6040516103579190614a00565b60405180910390f35b61036861172c565b005b610384600480360381019061037f9190613b5c565b611866565b005b61038e6118dd565b60405161039b9190614608565b60405180910390f35b6103be60048036038101906103b99190613b5c565b611906565b6040516103cb91906149de565b60405180910390f35b6103ee60048036038101906103e99190613d61565b611a92565b6040516103fb9190614781565b60405180910390f35b61041e60048036038101906104199190613c24565b611afd565b60405161042d93929190614a1b565b60405180910390f35b61043e611b66565b60405161044b919061479c565b60405180910390f35b61046e60048036038101906104699190613cf3565b611b6d565b60405161047b919061475f565b60405180910390f35b61049e60048036038101906104999190613c60565b611cee565b005b6104ba60048036038101906104b59190613d61565b611f56565b005b6104d660048036038101906104d19190613b5c565b611f7f565b6040516104e39190614781565b60405180910390f35b61050660048036038101906105019190613c24565b611f9f565b60405161051391906147b7565b60405180910390f35b61053660048036038101906105319190613be8565b611fed565b6040516105439190614781565b60405180910390f35b61056660048036038101906105619190613b5c565b61214d565b604051610577959493929190614623565b60405180910390f35b6105886122f1565b6040516105999594939291906146e9565b60405180910390f35b6105bc60048036038101906105b79190613b5c565b612898565b005b60007f7965db0b000000000000000000000000000000000000000000000000000000007bffffffffffffffffffffffffffffffffffffffffffffffffffffffff1916827bffffffffffffffffffffffffffffffffffffffffffffffffffffffff19161480610631575061063082612a41565b5b9050919050565b6000600460008673ffffffffffffffffffffffffffffffffffffffff1673ffffffffffffffffffffffffffffffffffffffff16815260200190815260200160002060009054906101000a900460ff16156106c7576040517f08c379a00000000000000000000000000000000000000000000000000000000081526004016106be9061499e565b60405180910390fd5b600260008673ffffffffffffffffffffffffffffffffffffffff1673ffffffffffffffffffffffffffffffffffffffff16815260200190815260200160002060000160020160009054906101000a900460ff1661075f5760016004811115610758577f4e487b7100000000000000000000000000000000000000000000000000000000600052602160045260246000fd5b9050610de8565b600260008673ffffffffffffffffffffffffffffffffffffffff1673ffffffffffffffffffffffffffffffffffffffff16815260200190815260200160002060050160008573ffffffffffffffffffffffffffffffffffffffff1673ffffffffffffffffffffffffffffffffffffffff16815260200190815260200160002060009054906101000a900460ff166109e7578473ffffffffffffffffffffffffffffffffffffffff163373ffffffffffffffffffffffffffffffffffffffff161461085e576040517f08c379a00000000000000000000000000000000000000000000000000000000081526004016108559061491e565b60405180910390fd5b600061086a3386612aab565b9050600060048111156108a6577f4e487b7100000000000000000000000000000000000000000000000000000000600052602160045260246000fd5b8160048111156108df577f4e487b7100000000000000000000000000000000000000000000000000000000600052602160045260246000fd5b146109255780600481111561091d577f4e487b7100000000000000000000000000000000000000000000000000000000600052602160045260246000fd5b915050610de8565b600260008773ffffffffffffffffffffffffffffffffffffffff1673ffffffffffffffffffffffffffffffffffffffff16815260200190815260200160002060050160008673ffffffffffffffffffffffffffffffffffffffff1673ffffffffffffffffffffffffffffffffffffffff16815260200190815260200160002060009054906101000a900460ff166109e5577f4e487b7100000000000000000000000000000000000000000000000000000000600052600160045260246000fd5b505b6000600960009054906101000a900473ffffffffffffffffffffffffffffffffffffffff1673ffffffffffffffffffffffffffffffffffffffff1663fe2c61988773ffffffffffffffffffffffffffffffffffffffff16636c02a9316040518163ffffffff1660e01b815260040160006040518083038186803b158015610a6d57600080fd5b505afa158015610a81573d6000803e3d6000fd5b505050506040513d6000823e3d601f19601f82011682018060405250810190610aaa9190613dc6565b6040518263ffffffff1660e01b8152600401610ac691906147fb565b60206040518083038186803b158015610ade57600080fd5b505afa158015610af2573d6000803e3d6000fd5b505050506040513d601f19601f82011682018060405250810190610b169190613e07565b1415610b5d5760036004811115610b56577f4e487b7100000000000000000000000000000000000000000000000000000000600052602160045260246000fd5b9050610de8565b6000600560008773ffffffffffffffffffffffffffffffffffffffff1673ffffffffffffffffffffffffffffffffffffffff16815260200190815260200160002054905060008114610c8b5760008673ffffffffffffffffffffffffffffffffffffffff1663ea1cd41f856040518263ffffffff1660e01b8152600401610be49190614a00565b60206040518083038186803b158015610bfc57600080fd5b505afa158015610c10573d6000803e3d6000fd5b505050506040513d601f19601f82011682018060405250810190610c349190613e07565b905060008582610c449190614bcf565b9050828110610c88576040517f08c379a0000000000000000000000000000000000000000000000000000000008152600401610c7f9061495e565b60405180910390fd5b50505b600080610c9c87868a60008a612cb6565b925050915060006004811115610cdb577f4e487b7100000000000000000000000000000000000000000000000000000000600052602160045260246000fd5b826004811115610d14577f4e487b7100000000000000000000000000000000000000000000000000000000600052602160045260246000fd5b14610d5c57816004811115610d52577f4e487b7100000000000000000000000000000000000000000000000000000000600052602160045260246000fd5b9350505050610de8565b6000811115610da857600480811115610d9e577f4e487b7100000000000000000000000000000000000000000000000000000000600052602160045260246000fd5b9350505050610de8565b60006004811115610de2577f4e487b7100000000000000000000000000000000000000000000000000000000600052602160045260246000fd5b93505050505b949350505050565b7f5146a08baf902532d0ee2f909971144f12ca32651cd70cbee1117cddfb3b3b33610e2281610e1d613272565b61327a565b600260008373ffffffffffffffffffffffffffffffffffffffff1673ffffffffffffffffffffffffffffffffffffffff16815260200190815260200160002060000160040160009054906101000a900460ff16610eb4576040517f08c379a0000000000000000000000000000000000000000000000000000000008152600401610eab9061497e565b60405180910390fd5b6000600260008473ffffffffffffffffffffffffffffffffffffffff1673ffffffffffffffffffffffffffffffffffffffff16815260200190815260200160002060000160020160006101000a81548160ff021916908315150217905550600360008373ffffffffffffffffffffffffffffffffffffffff1673ffffffffffffffffffffffffffffffffffffffff16815260200190815260200160002060008082016000610f62919061381e565b600182016000610f72919061381e565b6002820160006101000a81549060ff021916905560038201600090556004820160006101000a81549060ff021916905550505050565b600060016000838152602001908152602001600020600101549050919050565b7f5146a08baf902532d0ee2f909971144f12ca32651cd70cbee1117cddfb3b3b33610ffa81610ff5613272565b61327a565b600260008373ffffffffffffffffffffffffffffffffffffffff1673ffffffffffffffffffffffffffffffffffffffff16815260200190815260200160002060000160040160009054906101000a900460ff1661108c576040517f08c379a00000000000000000000000000000000000000000000000000000000081526004016110839061497e565b60405180910390fd5b6001600260008473ffffffffffffffffffffffffffffffffffffffff1673ffffffffffffffffffffffffffffffffffffffff16815260200190815260200160002060000160020160006101000a81548160ff021916908315150217905550600260008373ffffffffffffffffffffffffffffffffffffffff1673ffffffffffffffffffffffffffffffffffffffff168152602001908152602001600020600001600360008473ffffffffffffffffffffffffffffffffffffffff1673ffffffffffffffffffffffffffffffffffffffff168152602001908152602001600020600082018160000190805461117f90614df2565b61118a92919061385e565b50600182018160010190805461119f90614df2565b6111aa92919061385e565b506002820160009054906101000a900460ff168160020160006101000a81548160ff021916908315150217905550600382015481600301556004820160009054906101000a900460ff168160040160006101000a81548160ff0219169083151502179055509050505050565b600360205280600052604060002060009150905080600001805461123990614df2565b80601f016020809104026020016040519081016040528092919081815260200182805461126590614df2565b80156112b25780601f10611287576101008083540402835291602001916112b2565b820191906000526020600020905b81548152906001019060200180831161129557829003601f168201915b5050505050908060010180546112c790614df2565b80601f01602080910402602001604051908101604052809291908181526020018280546112f390614df2565b80156113405780601f1061131557610100808354040283529160200191611340565b820191906000526020600020905b81548152906001019060200180831161132357829003601f168201915b5050505050908060020160009054906101000a900460ff16908060030154908060040160009054906101000a900460ff16905085565b61137f82610fa8565b6113908161138b613272565b61327a565b61139a8383613317565b505050565b6000600260008673ffffffffffffffffffffffffffffffffffffffff1673ffffffffffffffffffffffffffffffffffffffff16815260200190815260200160002060000160020160009054906101000a900460ff166114395760016004811115611432577f4e487b7100000000000000000000000000000000000000000000000000000000600052602160045260246000fd5b9050611665565b600260008673ffffffffffffffffffffffffffffffffffffffff1673ffffffffffffffffffffffffffffffffffffffff16815260200190815260200160002060050160008573ffffffffffffffffffffffffffffffffffffffff1673ffffffffffffffffffffffffffffffffffffffff16815260200190815260200160002060009054906101000a900460ff1661150b5760006004811115611504577f4e487b7100000000000000000000000000000000000000000000000000000000600052602160045260246000fd5b9050611665565b60008061151c868589886000612cb6565b92505091506000600481111561155b577f4e487b7100000000000000000000000000000000000000000000000000000000600052602160045260246000fd5b826004811115611594577f4e487b7100000000000000000000000000000000000000000000000000000000600052602160045260246000fd5b146115db578160048111156115d2577f4e487b7100000000000000000000000000000000000000000000000000000000600052602160045260246000fd5b92505050611665565b60008111156116265760048081111561161d577f4e487b7100000000000000000000000000000000000000000000000000000000600052602160045260246000fd5b92505050611665565b60006004811115611660577f4e487b7100000000000000000000000000000000000000000000000000000000600052602160045260246000fd5b925050505b949350505050565b611675613272565b73ffffffffffffffffffffffffffffffffffffffff168173ffffffffffffffffffffffffffffffffffffffff16146116e2576040517f08c379a00000000000000000000000000000000000000000000000000000000081526004016116d9906149be565b60405180910390fd5b6116ec82826133f7565b5050565b7f5146a08baf902532d0ee2f909971144f12ca32651cd70cbee1117cddfb3b3b3381565b60056020528060005260406000206000915090505481565b611734613272565b73ffffffffffffffffffffffffffffffffffffffff166117526118dd565b73ffffffffffffffffffffffffffffffffffffffff16146117a8576040517f08c379a000000000000000000000000000000000000000000000000000000000815260040161179f906148de565b60405180910390fd5b600073ffffffffffffffffffffffffffffffffffffffff1660008054906101000a900473ffffffffffffffffffffffffffffffffffffffff1673ffffffffffffffffffffffffffffffffffffffff167f8be0079c531659141344cd1fd0a4f28419497f9722a3daafe3b4186f6b6457e060405160405180910390a360008060006101000a81548173ffffffffffffffffffffffffffffffffffffffff021916908373ffffffffffffffffffffffffffffffffffffffff160217905550565b7f5146a08baf902532d0ee2f909971144f12ca32651cd70cbee1117cddfb3b3b3361189881611893613272565b61327a565b81600960006101000a81548173ffffffffffffffffffffffffffffffffffffffff021916908373ffffffffffffffffffffffffffffffffffffffff1602179055505050565b60008060009054906101000a900473ffffffffffffffffffffffffffffffffffffffff16905090565b6002602052806000526040600020600091509050806000016040518060a001604052908160008201805461193990614df2565b80601f016020809104026020016040519081016040528092919081815260200182805461196590614df2565b80156119b25780601f10611987576101008083540402835291602001916119b2565b820191906000526020600020905b81548152906001019060200180831161199557829003601f168201915b505050505081526020016001820180546119cb90614df2565b80601f01602080910402602001604051908101604052809291908181526020018280546119f790614df2565b8015611a445780601f10611a1957610100808354040283529160200191611a44565b820191906000526020600020905b815481529060010190602001808311611a2757829003601f168201915b505050505081526020016002820160009054906101000a900460ff16151515158152602001600382015481526020016004820160009054906101000a900460ff161515151581525050905081565b60006001600084815260200190815260200160002060000160008373ffffffffffffffffffffffffffffffffffffffff1673ffffffffffffffffffffffffffffffffffffffff16815260200190815260200160002060009054906101000a900460ff16905092915050565b600080600080600080611b1588886000806000612cb6565b925092509250826004811115611b54577f4e487b7100000000000000000000000000000000000000000000000000000000600052602160045260246000fd5b82829550955095505050509250925092565b6000801b81565b6060600083839050905060008167ffffffffffffffff811115611bb9577f4e487b7100000000000000000000000000000000000000000000000000000000600052604160045260246000fd5b604051908082528060200260200182016040528015611be75781602001602082028036833780820191505090505b50905060005b82811015611ce2576000868683818110611c30577f4e487b7100000000000000000000000000000000000000000000000000000000600052603260045260246000fd5b9050602002016020810190611c459190613b5c565b9050611c518133612aab565b6004811115611c89577f4e487b7100000000000000000000000000000000000000000000000000000000600052602160045260246000fd5b838381518110611cc2577f4e487b7100000000000000000000000000000000000000000000000000000000600052603260045260246000fd5b602002602001018181525050508080611cda90614e24565b915050611bed565b50809250505092915050565b7f5146a08baf902532d0ee2f909971144f12ca32651cd70cbee1117cddfb3b3b33611d2081611d1b613272565b61327a565b6000600260008773ffffffffffffffffffffffffffffffffffffffff1673ffffffffffffffffffffffffffffffffffffffff168152602001908152602001600020905060018160000160020160006101000a81548160ff02191690831515021790555060018160000160040160006101000a81548160ff02191690831515021790555084816000016003018190555083816000016000019080519060200190611dca9291906138eb565b5082816000016001019080519060200190611de69291906138eb565b5080600001600360008873ffffffffffffffffffffffffffffffffffffffff1673ffffffffffffffffffffffffffffffffffffffff1681526020019081526020016000206000820181600001908054611e3e90614df2565b611e4992919061385e565b506001820181600101908054611e5e90614df2565b611e6992919061385e565b506002820160009054906101000a900460ff168160020160006101000a81548160ff021916908315150217905550600382015481600301556004820160009054906101000a900460ff168160040160006101000a81548160ff021916908315150217905550905050600160076000828254611ee49190614bcf565b925050819055506008869080600181540180825580915050600190039060005260206000200160009091909190916101000a81548173ffffffffffffffffffffffffffffffffffffffff021916908373ffffffffffffffffffffffffffffffffffffffff160217905550505050505050565b611f5f82610fa8565b611f7081611f6b613272565b61327a565b611f7a83836133f7565b505050565b60046020528060005260406000206000915054906101000a900460ff1681565b60066020528160005260406000208181548110611fbb57600080fd5b906000526020600020016000915091509054906101000a900473ffffffffffffffffffffffffffffffffffffffff1681565b60007f5146a08baf902532d0ee2f909971144f12ca32651cd70cbee1117cddfb3b3b336120218161201c613272565b61327a565b600260008573ffffffffffffffffffffffffffffffffffffffff1673ffffffffffffffffffffffffffffffffffffffff16815260200190815260200160002060000160020160009054906101000a900460ff166120b3576040517f08c379a00000000000000000000000000000000000000000000000000000000081526004016120aa9061493e565b60405180910390fd5b82600460008673ffffffffffffffffffffffffffffffffffffffff1673ffffffffffffffffffffffffffffffffffffffff16815260200190815260200160002060006101000a81548160ff0219169083151502179055507f71aec636243f9709bb0007ae15e9afb8150ab01716d75fd7573be5cc096e03b0848460405161213b929190614684565b60405180910390a18291505092915050565b6000606060008060606000600260008873ffffffffffffffffffffffffffffffffffffffff1673ffffffffffffffffffffffffffffffffffffffff168152602001908152602001600020905086816000016000018260000160020160009054906101000a900460ff168360000160030154846000016001018380546121d190614df2565b80601f01602080910402602001604051908101604052809291908181526020018280546121fd90614df2565b801561224a5780601f1061221f5761010080835404028352916020019161224a565b820191906000526020600020905b81548152906001019060200180831161222d57829003601f168201915b5050505050935080805461225d90614df2565b80601f016020809104026020016040519081016040528092919081815260200182805461228990614df2565b80156122d65780601f106122ab576101008083540402835291602001916122d6565b820191906000526020600020905b8154815290600101906020018083116122b957829003601f168201915b50505050509050955095509550955095505091939590929450565b6060806060806060600060075467ffffffffffffffff81111561233d577f4e487b7100000000000000000000000000000000000000000000000000000000600052604160045260246000fd5b60405190808252806020026020018201604052801561236b5781602001602082028036833780820191505090505b509050600060075467ffffffffffffffff8111156123b2577f4e487b7100000000000000000000000000000000000000000000000000000000600052604160045260246000fd5b6040519080825280602002602001820160405280156123e557816020015b60608152602001906001900390816123d05790505b509050600060075467ffffffffffffffff81111561242c577f4e487b7100000000000000000000000000000000000000000000000000000000600052604160045260246000fd5b60405190808252806020026020018201604052801561245f57816020015b606081526020019060019003908161244a5790505b509050600060075467ffffffffffffffff8111156124a6577f4e487b7100000000000000000000000000000000000000000000000000000000600052604160045260246000fd5b6040519080825280602002602001820160405280156124d45781602001602082028036833780820191505090505b50905060005b6007548110156127f45760006002600060088481548110612524577f4e487b7100000000000000000000000000000000000000000000000000000000600052603260045260246000fd5b9060005260206000200160009054906101000a900473ffffffffffffffffffffffffffffffffffffffff1673ffffffffffffffffffffffffffffffffffffffff1673ffffffffffffffffffffffffffffffffffffffff16815260200190815260200160002090508060000160020160009054906101000a900460ff168683815181106125d9577f4e487b7100000000000000000000000000000000000000000000000000000000600052603260045260246000fd5b6020026020010190151590811515815250508060000160000180546125fd90614df2565b80601f016020809104026020016040519081016040528092919081815260200182805461262990614df2565b80156126765780601f1061264b57610100808354040283529160200191612676565b820191906000526020600020905b81548152906001019060200180831161265957829003601f168201915b50505050508583815181106126b4577f4e487b7100000000000000000000000000000000000000000000000000000000600052603260045260246000fd5b60200260200101819052508060000160010180546126d190614df2565b80601f01602080910402602001604051908101604052809291908181526020018280546126fd90614df2565b801561274a5780601f1061271f5761010080835404028352916020019161274a565b820191906000526020600020905b81548152906001019060200180831161272d57829003601f168201915b5050505050848381518110612788577f4e487b7100000000000000000000000000000000000000000000000000000000600052603260045260246000fd5b602002602001018190525080600001600301548383815181106127d4577f4e487b7100000000000000000000000000000000000000000000000000000000600052603260045260246000fd5b6020026020010181815250505080806127ec90614e24565b9150506124da565b506008838583858480548060200260200160405190810160405280929190818152602001828054801561287c57602002820191906000526020600020905b8160009054906101000a900473ffffffffffffffffffffffffffffffffffffffff1673ffffffffffffffffffffffffffffffffffffffff1681526020019060010190808311612832575b5050505050945098509850985098509850505050509091929394565b6128a0613272565b73ffffffffffffffffffffffffffffffffffffffff166128be6118dd565b73ffffffffffffffffffffffffffffffffffffffff1614612914576040517f08c379a000000000000000000000000000000000000000000000000000000000815260040161290b906148de565b60405180910390fd5b600073ffffffffffffffffffffffffffffffffffffffff168173ffffffffffffffffffffffffffffffffffffffff161415612984576040517f08c379a000000000000000000000000000000000000000000000000000000000815260040161297b9061489e565b60405180910390fd5b8073ffffffffffffffffffffffffffffffffffffffff1660008054906101000a900473ffffffffffffffffffffffffffffffffffffffff1673ffffffffffffffffffffffffffffffffffffffff167f8be0079c531659141344cd1fd0a4f28419497f9722a3daafe3b4186f6b6457e060405160405180910390a3806000806101000a81548173ffffffffffffffffffffffffffffffffffffffff021916908373ffffffffffffffffffffffffffffffffffffffff16021790555050565b60007f01ffc9a7000000000000000000000000000000000000000000000000000000007bffffffffffffffffffffffffffffffffffffffffffffffffffffffff1916827bffffffffffffffffffffffffffffffffffffffffffffffffffffffff1916149050919050565b600080600260008573ffffffffffffffffffffffffffffffffffffffff1673ffffffffffffffffffffffffffffffffffffffff16815260200190815260200160002090508060000160020160009054906101000a900460ff16612b12576001915050612cb0565b600115158160050160008573ffffffffffffffffffffffffffffffffffffffff1673ffffffffffffffffffffffffffffffffffffffff16815260200190815260200160002060009054906101000a900460ff1615151415612b77576000915050612cb0565b60018160050160008573ffffffffffffffffffffffffffffffffffffffff1673ffffffffffffffffffffffffffffffffffffffff16815260200190815260200160002060006101000a81548160ff021916908315150217905550600660008473ffffffffffffffffffffffffffffffffffffffff1673ffffffffffffffffffffffffffffffffffffffff168152602001908152602001600020849080600181540180825580915050600190039060005260206000200160009091909190916101000a81548173ffffffffffffffffffffffffffffffffffffffff021916908373ffffffffffffffffffffffffffffffffffffffff1602179055507f3ab23ab0d51cccc0c3085aec51f99228625aa1a922b3a8ca89a26b0f2027a1a58484604051612ca29291906147d2565b60405180910390a160009150505b92915050565b6000806000612cc3613971565b600080600660008c73ffffffffffffffffffffffffffffffffffffffff1673ffffffffffffffffffffffffffffffffffffffff168152602001908152602001600020805480602002602001604051908101604052809291908181526020018280548015612d8557602002820191906000526020600020905b8160009054906101000a900473ffffffffffffffffffffffffffffffffffffffff1673ffffffffffffffffffffffffffffffffffffffff1681526020019060010190808311612d3b575b5050505050905060005b815181101561320f576000828281518110612dd3577f4e487b7100000000000000000000000000000000000000000000000000000000600052603260045260246000fd5b602002602001015190508073ffffffffffffffffffffffffffffffffffffffff166355a1ac2e8e8e6040518363ffffffff1660e01b8152600401612e189291906146c0565b60606040518083038186803b158015612e3057600080fd5b505afa158015612e44573d6000803e3d6000fd5b505050506040513d601f19601f82011682018060405250810190612e689190613e30565b8760000188602001828152508281525082965050505060006004811115612eb8577f4e487b7100000000000000000000000000000000000000000000000000000000600052602160045260246000fd5b8414612ef9576040517f08c379a0000000000000000000000000000000000000000000000000000000008152600401612ef0906148be565b60405180910390fd5b600260008273ffffffffffffffffffffffffffffffffffffffff1673ffffffffffffffffffffffffffffffffffffffff16815260200190815260200160002060000160030154856040018181525050600960009054906101000a900473ffffffffffffffffffffffffffffffffffffffff1673ffffffffffffffffffffffffffffffffffffffff1663fe2c61988273ffffffffffffffffffffffffffffffffffffffff16636c02a9316040518163ffffffff1660e01b815260040160006040518083038186803b158015612fcc57600080fd5b505afa158015612fe0573d6000803e3d6000fd5b505050506040513d6000823e3d601f19601f820116820180604052508101906130099190613dc6565b6040518263ffffffff1660e01b815260040161302591906147fb565b60206040518083038186803b15801561303d57600080fd5b505afa158015613051573d6000803e3d6000fd5b505050506040513d601f19601f820116820180604052508101906130759190613e07565b8560600181815250506000856060015114156130c6576040517f08c379a00000000000000000000000000000000000000000000000000000000081526004016130bd906148fe565b60405180910390fd5b6130fc8560600151620f42406130ed886040015189600001516134d990919063ffffffff16565b6135029092919063ffffffff16565b8560800181815161310d9190614bcf565b915081815250506131348560600151620f424087602001516135029092919063ffffffff16565b8560a0018181516131459190614bcf565b915081815250508a73ffffffffffffffffffffffffffffffffffffffff168173ffffffffffffffffffffffffffffffffffffffff1614156131fb57600089146131bd576131a48560600151620f42408b6135029092919063ffffffff16565b8560a0018181516131b59190614bcf565b915081815250505b60008a146131fa576131e18560600151620f42408c6135029092919063ffffffff16565b856080018181516131f29190614cb0565b915081815250505b5b50808061320790614e24565b915050612d8f565b508260a00151836080015111156132465760008360a0015184608001516132369190614cb0565b6000955095509550505050613267565b60008084608001518560a0015161325d9190614cb0565b9550955095505050505b955095509592505050565b600033905090565b6132848282611a92565b613313576132a98173ffffffffffffffffffffffffffffffffffffffff166014613524565b6132b78360001c6020613524565b6040516020016132c89291906145ce565b6040516020818303038152906040526040517f08c379a000000000000000000000000000000000000000000000000000000000815260040161330a91906147fb565b60405180910390fd5b5050565b6133218282611a92565b6133f357600180600084815260200190815260200160002060000160008373ffffffffffffffffffffffffffffffffffffffff1673ffffffffffffffffffffffffffffffffffffffff16815260200190815260200160002060006101000a81548160ff021916908315150217905550613398613272565b73ffffffffffffffffffffffffffffffffffffffff168173ffffffffffffffffffffffffffffffffffffffff16837f2f8788117e7eff1d82e926ec794901d17c78024a50270940304540a733656f0d60405160405180910390a45b5050565b6134018282611a92565b156134d55760006001600084815260200190815260200160002060000160008373ffffffffffffffffffffffffffffffffffffffff1673ffffffffffffffffffffffffffffffffffffffff16815260200190815260200160002060006101000a81548160ff02191690831515021790555061347a613272565b73ffffffffffffffffffffffffffffffffffffffff168173ffffffffffffffffffffffffffffffffffffffff16837ff6391f5c32d9c69d2a47ea670b442974b53935d1edc7fd64eb21e047a839171b60405160405180910390a45b5050565b6000670de0b6b3a764000082846134f09190614c56565b6134fa9190614c25565b905092915050565b60008183856135119190614c56565b61351b9190614c25565b90509392505050565b6060600060028360026135379190614c56565b6135419190614bcf565b67ffffffffffffffff811115613580577f4e487b7100000000000000000000000000000000000000000000000000000000600052604160045260246000fd5b6040519080825280601f01601f1916602001820160405280156135b25781602001600182028036833780820191505090505b5090507f300000000000000000000000000000000000000000000000000000000000000081600081518110613610577f4e487b7100000000000000000000000000000000000000000000000000000000600052603260045260246000fd5b60200101907effffffffffffffffffffffffffffffffffffffffffffffffffffffffffffff1916908160001a9053507f78000000000000000000000000000000000000000000000000000000000000008160018151811061369a577f4e487b7100000000000000000000000000000000000000000000000000000000600052603260045260246000fd5b60200101907effffffffffffffffffffffffffffffffffffffffffffffffffffffffffffff1916908160001a905350600060018460026136da9190614c56565b6136e49190614bcf565b90505b60018111156137d0577f3031323334353637383961626364656600000000000000000000000000000000600f86166010811061374c577f4e487b7100000000000000000000000000000000000000000000000000000000600052603260045260246000fd5b1a60f81b828281518110613789577f4e487b7100000000000000000000000000000000000000000000000000000000600052603260045260246000fd5b60200101907effffffffffffffffffffffffffffffffffffffffffffffffffffffffffffff1916908160001a905350600485901c9450806137c990614dc8565b90506136e7565b5060008414613814576040517f08c379a000000000000000000000000000000000000000000000000000000000815260040161380b9061487e565b60405180910390fd5b8091505092915050565b50805461382a90614df2565b6000825580601f1061383c575061385b565b601f01602090049060005260206000209081019061385a91906139a7565b5b50565b82805461386a90614df2565b90600052602060002090601f01602090048101928261388c57600085556138da565b82601f1061389d57805485556138da565b828001600101855582156138da57600052602060002091601f016020900482015b828111156138d95782548255916001019190600101906138be565b5b5090506138e791906139a7565b5090565b8280546138f790614df2565b90600052602060002090601f0160209004810192826139195760008555613960565b82601f1061393257805160ff1916838001178555613960565b82800160010185558215613960579182015b8281111561395f578251825591602001919060010190613944565b5b50905061396d91906139a7565b5090565b6040518060c001604052806000815260200160008152602001600081526020016000815260200160008152602001600081525090565b5b808211156139c05760008160009055506001016139a8565b5090565b60006139d76139d284614a83565b614a52565b9050828152602081018484840111156139ef57600080fd5b6139fa848285614d86565b509392505050565b6000613a15613a1084614a83565b614a52565b905082815260208101848484011115613a2d57600080fd5b613a38848285614d95565b509392505050565b600081359050613a4f81614f3a565b92915050565b60008083601f840112613a6757600080fd5b8235905067ffffffffffffffff811115613a8057600080fd5b602083019150836020820283011115613a9857600080fd5b9250929050565b600081359050613aae81614f51565b92915050565b600081359050613ac381614f68565b92915050565b600081359050613ad881614f7f565b92915050565b600082601f830112613aef57600080fd5b8135613aff8482602086016139c4565b91505092915050565b600082601f830112613b1957600080fd5b8151613b29848260208601613a02565b91505092915050565b600081359050613b4181614f96565b92915050565b600081519050613b5681614f96565b92915050565b600060208284031215613b6e57600080fd5b6000613b7c84828501613a40565b91505092915050565b60008060008060808587031215613b9b57600080fd5b6000613ba987828801613a40565b9450506020613bba87828801613a40565b9350506040613bcb87828801613b32565b9250506060613bdc87828801613b32565b91505092959194509250565b60008060408385031215613bfb57600080fd5b6000613c0985828601613a40565b9250506020613c1a85828601613a9f565b9150509250929050565b60008060408385031215613c3757600080fd5b6000613c4585828601613a40565b9250506020613c5685828601613b32565b9150509250929050565b60008060008060808587031215613c7657600080fd5b6000613c8487828801613a40565b9450506020613c9587828801613b32565b935050604085013567ffffffffffffffff811115613cb257600080fd5b613cbe87828801613ade565b925050606085013567ffffffffffffffff811115613cdb57600080fd5b613ce787828801613ade565b91505092959194509250565b60008060208385031215613d0657600080fd5b600083013567ffffffffffffffff811115613d2057600080fd5b613d2c85828601613a55565b92509250509250929050565b600060208284031215613d4a57600080fd5b6000613d5884828501613ab4565b91505092915050565b60008060408385031215613d7457600080fd5b6000613d8285828601613ab4565b9250506020613d9385828601613a40565b9150509250929050565b600060208284031215613daf57600080fd5b6000613dbd84828501613ac9565b91505092915050565b600060208284031215613dd857600080fd5b600082015167ffffffffffffffff811115613df257600080fd5b613dfe84828501613b08565b91505092915050565b600060208284031215613e1957600080fd5b6000613e2784828501613b47565b91505092915050565b600080600060608486031215613e4557600080fd5b6000613e5386828701613b47565b9350506020613e6486828701613b47565b9250506040613e7586828701613b47565b9150509250925092565b6000613e8b8383613edb565b60208301905092915050565b6000613ea38383614088565b60208301905092915050565b6000613ebb83836140c4565b905092915050565b6000613ecf83836145b0565b60208301905092915050565b613ee481614ce4565b82525050565b613ef381614ce4565b82525050565b6000613f0482614af3565b613f0e8185614b5e565b9350613f1983614ab3565b8060005b83811015613f4a578151613f318882613e7f565b9750613f3c83614b2a565b925050600181019050613f1d565b5085935050505092915050565b6000613f6282614afe565b613f6c8185614b6f565b9350613f7783614ac3565b8060005b83811015613fa8578151613f8f8882613e97565b9750613f9a83614b37565b925050600181019050613f7b565b5085935050505092915050565b6000613fc082614b09565b613fca8185614b80565b935083602082028501613fdc85614ad3565b8060005b858110156140185784840389528151613ff98582613eaf565b945061400483614b44565b925060208a01995050600181019050613fe0565b50829750879550505050505092915050565b600061403582614b14565b61403f8185614b91565b935061404a83614ae3565b8060005b8381101561407b5781516140628882613ec3565b975061406d83614b51565b92505060018101905061404e565b5085935050505092915050565b61409181614cf6565b82525050565b6140a081614cf6565b82525050565b6140af81614d02565b82525050565b6140be81614d62565b82525050565b60006140cf82614b1f565b6140d98185614ba2565b93506140e9818560208601614d95565b6140f281614f29565b840191505092915050565b600061410882614b1f565b6141128185614bb3565b9350614122818560208601614d95565b61412b81614f29565b840191505092915050565b600061414182614b1f565b61414b8185614bc4565b935061415b818560208601614d95565b80840191505092915050565b6000614174602083614bb3565b91507f537472696e67733a20686578206c656e67746820696e73756666696369656e746000830152602082019050919050565b60006141b4602683614bb3565b91507f4f776e61626c653a206e6577206f776e657220697320746865207a65726f206160008301527f64647265737300000000000000000000000000000000000000000000000000006020830152604082019050919050565b600061421a600683614bb3565b91507f426f72726f7700000000000000000000000000000000000000000000000000006000830152602082019050919050565b600061425a600e83614bb3565b91507f536e617073686f74206572726f720000000000000000000000000000000000006000830152602082019050919050565b600061429a602083614bb3565b91507f4f776e61626c653a2063616c6c6572206973206e6f7420746865206f776e65726000830152602082019050919050565b60006142da601283614bb3565b91507f5072696365204f7261636c65206572726f7200000000000000000000000000006000830152602082019050919050565b600061431a601583614bb3565b91507f73656e646572206d7573742062652063546f6b656e00000000000000000000006000830152602082019050919050565b600061435a600a83614bb3565b91507f6e6f74206c6973746564000000000000000000000000000000000000000000006000830152602082019050919050565b600061439a601983614bb3565b91507f6d61726b657420626f72726f77206361702072656163686564000000000000006000830152602082019050919050565b60006143da601783614bb3565b91507f41646472657373206973206e6f742061206d61726b65740000000000000000006000830152602082019050919050565b600061441a601783614bc4565b91507f416363657373436f6e74726f6c3a206163636f756e74200000000000000000006000830152601782019050919050565b600061445a601183614bc4565b91507f206973206d697373696e6720726f6c65200000000000000000000000000000006000830152601182019050919050565b600061449a601083614bb3565b91507f626f72726f7720697320706175736564000000000000000000000000000000006000830152602082019050919050565b60006144da602f83614bb3565b91507f416363657373436f6e74726f6c3a2063616e206f6e6c792072656e6f756e636560008301527f20726f6c657320666f722073656c6600000000000000000000000000000000006020830152604082019050919050565b600060a083016000830151848203600086015261455082826140c4565b9150506020830151848203602086015261456a82826140c4565b915050604083015161457f6040860182614088565b50606083015161459260608601826145b0565b5060808301516145a56080860182614088565b508091505092915050565b6145b981614d58565b82525050565b6145c881614d58565b82525050565b60006145d98261440d565b91506145e58285614136565b91506145f08261444d565b91506145fc8284614136565b91508190509392505050565b600060208201905061461d6000830184613eea565b92915050565b600060a0820190506146386000830188613eea565b818103602083015261464a81876140fd565b90506146596040830186614097565b61466660608301856145bf565b818103608083015261467881846140fd565b90509695505050505050565b60006060820190506146996000830185613eea565b81810360208301526146aa8161420d565b90506146b96040830184614097565b9392505050565b60006040820190506146d56000830185613eea565b6146e260208301846145bf565b9392505050565b600060a08201905081810360008301526147038188613ef9565b905081810360208301526147178187613fb5565b9050818103604083015261472b8186613f57565b9050818103606083015261473f818561402a565b905081810360808301526147538184613fb5565b90509695505050505050565b60006020820190508181036000830152614779818461402a565b905092915050565b60006020820190506147966000830184614097565b92915050565b60006020820190506147b160008301846140a6565b92915050565b60006020820190506147cc60008301846140b5565b92915050565b60006040820190506147e760008301856140b5565b6147f46020830184613eea565b9392505050565b6000602082019050818103600083015261481581846140fd565b905092915050565b600060a082019050818103600083015261483781886140fd565b9050818103602083015261484b81876140fd565b905061485a6040830186614097565b61486760608301856145bf565b6148746080830184614097565b9695505050505050565b6000602082019050818103600083015261489781614167565b9050919050565b600060208201905081810360008301526148b7816141a7565b9050919050565b600060208201905081810360008301526148d78161424d565b9050919050565b600060208201905081810360008301526148f78161428d565b9050919050565b60006020820190508181036000830152614917816142cd565b9050919050565b600060208201905081810360008301526149378161430d565b9050919050565b600060208201905081810360008301526149578161434d565b9050919050565b600060208201905081810360008301526149778161438d565b9050919050565b60006020820190508181036000830152614997816143cd565b9050919050565b600060208201905081810360008301526149b78161448d565b9050919050565b600060208201905081810360008301526149d7816144cd565b9050919050565b600060208201905081810360008301526149f88184614533565b905092915050565b6000602082019050614a1560008301846145bf565b92915050565b6000606082019050614a3060008301866145bf565b614a3d60208301856145bf565b614a4a60408301846145bf565b949350505050565b6000604051905081810181811067ffffffffffffffff82111715614a7957614a78614efa565b5b8060405250919050565b600067ffffffffffffffff821115614a9e57614a9d614efa565b5b601f19601f8301169050602081019050919050565b6000819050602082019050919050565b6000819050602082019050919050565b6000819050602082019050919050565b6000819050602082019050919050565b600081519050919050565b600081519050919050565b600081519050919050565b600081519050919050565b600081519050919050565b6000602082019050919050565b6000602082019050919050565b6000602082019050919050565b6000602082019050919050565b600082825260208201905092915050565b600082825260208201905092915050565b600082825260208201905092915050565b600082825260208201905092915050565b600082825260208201905092915050565b600082825260208201905092915050565b600081905092915050565b6000614bda82614d58565b9150614be583614d58565b9250827fffffffffffffffffffffffffffffffffffffffffffffffffffffffffffffffff03821115614c1a57614c19614e6d565b5b828201905092915050565b6000614c3082614d58565b9150614c3b83614d58565b925082614c4b57614c4a614e9c565b5b828204905092915050565b6000614c6182614d58565b9150614c6c83614d58565b9250817fffffffffffffffffffffffffffffffffffffffffffffffffffffffffffffffff0483118215151615614ca557614ca4614e6d565b5b828202905092915050565b6000614cbb82614d58565b9150614cc683614d58565b925082821015614cd957614cd8614e6d565b5b828203905092915050565b6000614cef82614d38565b9050919050565b60008115159050919050565b6000819050919050565b60007fffffffff0000000000000000000000000000000000000000000000000000000082169050919050565b600073ffffffffffffffffffffffffffffffffffffffff82169050919050565b6000819050919050565b6000614d6d82614d74565b9050919050565b6000614d7f82614d38565b9050919050565b82818337600083830152505050565b60005b83811015614db3578082015181840152602081019050614d98565b83811115614dc2576000848401525b50505050565b6000614dd382614d58565b91506000821415614de757614de6614e6d565b5b600182039050919050565b60006002820490506001821680614e0a57607f821691505b60208210811415614e1e57614e1d614ecb565b5b50919050565b6000614e2f82614d58565b91507fffffffffffffffffffffffffffffffffffffffffffffffffffffffffffffffff821415614e6257614e61614e6d565b5b600182019050919050565b7f4e487b7100000000000000000000000000000000000000000000000000000000600052601160045260246000fd5b7f4e487b7100000000000000000000000000000000000000000000000000000000600052601260045260246000fd5b7f4e487b7100000000000000000000000000000000000000000000000000000000600052602260045260246000fd5b7f4e487b7100000000000000000000000000000000000000000000000000000000600052604160045260246000fd5b6000601f19601f8301169050919050565b614f4381614ce4565b8114614f4e57600080fd5b50565b614f5a81614cf6565b8114614f6557600080fd5b50565b614f7181614d02565b8114614f7c57600080fd5b50565b614f8881614d0c565b8114614f9357600080fd5b50565b614f9f81614d58565b8114614faa57600080fd5b5056fea2646970667358221220214baf5ba51a1ac5329fe4e7f33d356a7bcc584ee6418a52d3c34cc89044d66764736f6c63430008000033",
  "devdoc": {
    "kind": "dev",
    "methods": {
      "enableMarket(address,uint256,string,string)": {
        "details": "Function to enable a certain Exafin market to be used as collateral",
        "params": {
          "collateralFactor": "exafin's collateral factor for the underlying asset",
          "exafin": "address to add to the protocol"
        }
      },
      "enterMarkets(address[])": {
        "details": "Allows wallet to enter certain markets (exafinDAI, exafinETH, etc) By performing this action, the wallet's money could be used as collateral",
        "params": {
          "exafins": "contracts addresses to enable for `msg.sender`"
        }
      },
      "getAccountLiquidity(address,uint256)": {
        "details": "Function to get account's liquidity for a certain maturity pool",
        "params": {
          "account": "wallet to retrieve liquidity for a certain maturity date",
          "maturityDate": "timestamp to calculate maturity's pool"
        }
      },
      "getMarketByAddress(address)": {
        "details": "Get market data filtered by address",
        "params": {
          "contractAddress": "address to get market data"
        }
      },
      "getMarkets()": {
        "details": "List all markets, listed or not"
      },
      "getRoleAdmin(bytes32)": {
        "details": "Returns the admin role that controls `role`. See {grantRole} and {revokeRole}. To change a role's admin, use {_setRoleAdmin}."
      },
      "grantRole(bytes32,address)": {
        "details": "Grants `role` to `account`. If `account` had not been already granted `role`, emits a {RoleGranted} event. Requirements: - the caller must have ``role``'s admin role."
      },
      "hasRole(bytes32,address)": {
        "details": "Returns `true` if `account` has been granted `role`."
      },
      "listMarket(address)": {
        "details": "Add market to listedMarkets and change boolean to true",
        "params": {
          "exafin": "address to add to the protocol"
        }
      },
      "owner()": {
        "details": "Returns the address of the current owner."
      },
      "pauseBorrow(address,bool)": {
        "details": "Function to pause/unpause borrowing on a certain market",
        "params": {
          "exafin": "address to pause",
          "paused": "true/false"
        }
      },
      "renounceOwnership()": {
        "details": "Leaves the contract without owner. It will not be possible to call `onlyOwner` functions anymore. Can only be called by the current owner. NOTE: Renouncing ownership will leave the contract without an owner, thereby removing any functionality that is only available to the owner."
      },
      "renounceRole(bytes32,address)": {
        "details": "Revokes `role` from the calling account. Roles are often managed via {grantRole} and {revokeRole}: this function's purpose is to provide a mechanism for accounts to lose their privileges if they are compromised (such as when a trusted device is misplaced). If the calling account had been granted `role`, emits a {RoleRevoked} event. Requirements: - the caller must be `account`."
      },
      "revokeRole(bytes32,address)": {
        "details": "Revokes `role` from `account`. If `account` had been granted `role`, emits a {RoleRevoked} event. Requirements: - the caller must have ``role``'s admin role."
      },
      "setOracle(address)": {
        "details": "Function to set Oracle's to be used",
        "params": {
          "_priceOracleAddress": "address of the new oracle"
        }
      },
      "supportsInterface(bytes4)": {
        "details": "See {IERC165-supportsInterface}."
      },
      "transferOwnership(address)": {
        "details": "Transfers ownership of the contract to a new account (`newOwner`). Can only be called by the current owner."
      },
      "unlistMarket(address)": {
        "details": "Delete market to listedMarkets and change boolean to false",
        "params": {
          "exafin": "address to add to the protocol"
        }
      }
    },
    "version": 1
  },
  "userdoc": {
    "kind": "user",
    "methods": {},
    "version": 1
  },
  "storageLayout": {
    "storage": [
      {
        "astId": 375,
        "contract": "contracts/ExaFront.sol:ExaFront",
        "label": "_owner",
        "offset": 0,
        "slot": "0",
        "type": "t_address"
      },
      {
        "astId": 62,
        "contract": "contracts/ExaFront.sol:ExaFront",
        "label": "_roles",
        "offset": 0,
        "slot": "1",
        "type": "t_mapping(t_bytes32,t_struct(RoleData)57_storage)"
      },
      {
        "astId": 1412,
        "contract": "contracts/ExaFront.sol:ExaFront",
        "label": "markets",
        "offset": 0,
        "slot": "2",
        "type": "t_mapping(t_address,t_struct(Market)1456_storage)"
      },
      {
        "astId": 1417,
        "contract": "contracts/ExaFront.sol:ExaFront",
        "label": "listedMarkets",
        "offset": 0,
        "slot": "3",
        "type": "t_mapping(t_address,t_struct(BaseMarket)1448_storage)"
      },
      {
        "astId": 1421,
        "contract": "contracts/ExaFront.sol:ExaFront",
        "label": "borrowPaused",
        "offset": 0,
        "slot": "4",
        "type": "t_mapping(t_address,t_bool)"
      },
      {
        "astId": 1425,
        "contract": "contracts/ExaFront.sol:ExaFront",
        "label": "borrowCaps",
        "offset": 0,
        "slot": "5",
        "type": "t_mapping(t_address,t_uint256)"
      },
      {
        "astId": 1431,
        "contract": "contracts/ExaFront.sol:ExaFront",
        "label": "accountAssets",
        "offset": 0,
        "slot": "6",
        "type": "t_mapping(t_address,t_array(t_contract(IExafin)2634)dyn_storage)"
      },
      {
        "astId": 1434,
        "contract": "contracts/ExaFront.sol:ExaFront",
        "label": "marketCount",
        "offset": 0,
        "slot": "7",
        "type": "t_uint256"
      },
      {
        "astId": 1437,
        "contract": "contracts/ExaFront.sol:ExaFront",
        "label": "marketsAddress",
        "offset": 0,
        "slot": "8",
        "type": "t_array(t_address)dyn_storage"
      },
      {
        "astId": 1472,
        "contract": "contracts/ExaFront.sol:ExaFront",
        "label": "oracle",
        "offset": 0,
        "slot": "9",
        "type": "t_contract(Oracle)2644"
      }
    ],
    "types": {
      "t_address": {
        "encoding": "inplace",
        "label": "address",
        "numberOfBytes": "20"
      },
      "t_array(t_address)dyn_storage": {
        "base": "t_address",
        "encoding": "dynamic_array",
        "label": "address[]",
        "numberOfBytes": "32"
      },
      "t_array(t_contract(IExafin)2634)dyn_storage": {
        "base": "t_contract(IExafin)2634",
        "encoding": "dynamic_array",
        "label": "contract IExafin[]",
        "numberOfBytes": "32"
      },
      "t_bool": {
        "encoding": "inplace",
        "label": "bool",
        "numberOfBytes": "1"
      },
      "t_bytes32": {
        "encoding": "inplace",
        "label": "bytes32",
        "numberOfBytes": "32"
      },
      "t_contract(IExafin)2634": {
        "encoding": "inplace",
        "label": "contract IExafin",
        "numberOfBytes": "20"
      },
      "t_contract(Oracle)2644": {
        "encoding": "inplace",
        "label": "contract Oracle",
        "numberOfBytes": "20"
      },
      "t_mapping(t_address,t_array(t_contract(IExafin)2634)dyn_storage)": {
        "encoding": "mapping",
        "key": "t_address",
        "label": "mapping(address => contract IExafin[])",
        "numberOfBytes": "32",
        "value": "t_array(t_contract(IExafin)2634)dyn_storage"
      },
      "t_mapping(t_address,t_bool)": {
        "encoding": "mapping",
        "key": "t_address",
        "label": "mapping(address => bool)",
        "numberOfBytes": "32",
        "value": "t_bool"
      },
      "t_mapping(t_address,t_struct(BaseMarket)1448_storage)": {
        "encoding": "mapping",
        "key": "t_address",
        "label": "mapping(address => struct ExaFront.BaseMarket)",
        "numberOfBytes": "32",
        "value": "t_struct(BaseMarket)1448_storage"
      },
      "t_mapping(t_address,t_struct(Market)1456_storage)": {
        "encoding": "mapping",
        "key": "t_address",
        "label": "mapping(address => struct ExaFront.Market)",
        "numberOfBytes": "32",
        "value": "t_struct(Market)1456_storage"
      },
      "t_mapping(t_address,t_uint256)": {
        "encoding": "mapping",
        "key": "t_address",
        "label": "mapping(address => uint256)",
        "numberOfBytes": "32",
        "value": "t_uint256"
      },
      "t_mapping(t_bytes32,t_struct(RoleData)57_storage)": {
        "encoding": "mapping",
        "key": "t_bytes32",
        "label": "mapping(bytes32 => struct AccessControl.RoleData)",
        "numberOfBytes": "32",
        "value": "t_struct(RoleData)57_storage"
      },
      "t_string_storage": {
        "encoding": "bytes",
        "label": "string",
        "numberOfBytes": "32"
      },
      "t_struct(BaseMarket)1448_storage": {
        "encoding": "inplace",
        "label": "struct ExaFront.BaseMarket",
        "members": [
          {
            "astId": 1439,
            "contract": "contracts/ExaFront.sol:ExaFront",
            "label": "symbol",
            "offset": 0,
            "slot": "0",
            "type": "t_string_storage"
          },
          {
            "astId": 1441,
            "contract": "contracts/ExaFront.sol:ExaFront",
            "label": "name",
            "offset": 0,
            "slot": "1",
            "type": "t_string_storage"
          },
          {
            "astId": 1443,
            "contract": "contracts/ExaFront.sol:ExaFront",
            "label": "isListed",
            "offset": 0,
            "slot": "2",
            "type": "t_bool"
          },
          {
            "astId": 1445,
            "contract": "contracts/ExaFront.sol:ExaFront",
            "label": "collateralFactor",
            "offset": 0,
            "slot": "3",
            "type": "t_uint256"
          },
          {
            "astId": 1447,
            "contract": "contracts/ExaFront.sol:ExaFront",
            "label": "exists",
            "offset": 0,
            "slot": "4",
            "type": "t_bool"
          }
        ],
        "numberOfBytes": "160"
      },
      "t_struct(Market)1456_storage": {
        "encoding": "inplace",
        "label": "struct ExaFront.Market",
        "members": [
          {
            "astId": 1451,
            "contract": "contracts/ExaFront.sol:ExaFront",
            "label": "baseMarket",
            "offset": 0,
            "slot": "0",
            "type": "t_struct(BaseMarket)1448_storage"
          },
          {
            "astId": 1455,
            "contract": "contracts/ExaFront.sol:ExaFront",
            "label": "accountMembership",
            "offset": 0,
            "slot": "5",
            "type": "t_mapping(t_address,t_bool)"
          }
        ],
        "numberOfBytes": "192"
      },
      "t_struct(RoleData)57_storage": {
        "encoding": "inplace",
        "label": "struct AccessControl.RoleData",
        "members": [
          {
            "astId": 54,
            "contract": "contracts/ExaFront.sol:ExaFront",
            "label": "members",
            "offset": 0,
            "slot": "0",
            "type": "t_mapping(t_address,t_bool)"
          },
          {
            "astId": 56,
            "contract": "contracts/ExaFront.sol:ExaFront",
            "label": "adminRole",
            "offset": 0,
            "slot": "1",
            "type": "t_bytes32"
          }
        ],
        "numberOfBytes": "64"
      },
      "t_uint256": {
        "encoding": "inplace",
        "label": "uint256",
        "numberOfBytes": "32"
      }
    }
  }
}