{
  "address": "0x95c665955106781De4F7292345A0029c47B48A51",
  "abi": [
    {
      "inputs": [
        {
          "internalType": "address",
          "name": "_tokenAddress",
          "type": "address"
        },
        {
          "internalType": "string",
          "name": "_tokenName",
          "type": "string"
        },
        {
          "internalType": "address",
          "name": "_exaFrontAddress",
          "type": "address"
        }
      ],
      "stateMutability": "nonpayable",
      "type": "constructor"
    },
    {
      "anonymous": false,
      "inputs": [
        {
          "indexed": true,
          "internalType": "address",
          "name": "to",
          "type": "address"
        },
        {
          "indexed": false,
          "internalType": "uint256",
          "name": "amount",
          "type": "uint256"
        },
        {
          "indexed": false,
          "internalType": "uint256",
          "name": "commission",
          "type": "uint256"
        },
        {
          "indexed": false,
          "internalType": "uint256",
          "name": "maturityDate",
          "type": "uint256"
        }
      ],
      "name": "Borrowed",
      "type": "event"
    },
    {
      "anonymous": false,
      "inputs": [
        {
          "indexed": true,
          "internalType": "address",
          "name": "previousOwner",
          "type": "address"
        },
        {
          "indexed": true,
          "internalType": "address",
          "name": "newOwner",
          "type": "address"
        }
      ],
      "name": "OwnershipTransferred",
      "type": "event"
    },
    {
      "anonymous": false,
      "inputs": [
        {
          "indexed": true,
          "internalType": "address",
          "name": "from",
          "type": "address"
        },
        {
          "indexed": false,
          "internalType": "uint256",
          "name": "amount",
          "type": "uint256"
        },
        {
          "indexed": false,
          "internalType": "uint256",
          "name": "commission",
          "type": "uint256"
        },
        {
          "indexed": false,
          "internalType": "uint256",
          "name": "maturityDate",
          "type": "uint256"
        }
      ],
      "name": "Redeemed",
      "type": "event"
    },
    {
      "anonymous": false,
      "inputs": [
        {
          "indexed": true,
          "internalType": "address",
          "name": "from",
          "type": "address"
        },
        {
          "indexed": false,
          "internalType": "uint256",
          "name": "amount",
          "type": "uint256"
        },
        {
          "indexed": false,
          "internalType": "uint256",
          "name": "commission",
          "type": "uint256"
        },
        {
          "indexed": false,
          "internalType": "uint256",
          "name": "maturityDate",
          "type": "uint256"
        }
      ],
      "name": "Supplied",
      "type": "event"
    },
    {
      "inputs": [
        {
          "internalType": "address",
          "name": "",
          "type": "address"
        },
        {
          "internalType": "uint256",
          "name": "",
          "type": "uint256"
        }
      ],
      "name": "addressPools",
      "outputs": [
        {
          "internalType": "uint256",
          "name": "",
          "type": "uint256"
        }
      ],
      "stateMutability": "view",
      "type": "function"
    },
    {
      "inputs": [
        {
          "internalType": "address",
          "name": "to",
          "type": "address"
        },
        {
          "internalType": "uint256",
          "name": "amount",
          "type": "uint256"
        },
        {
          "internalType": "uint256",
          "name": "maturityDate",
          "type": "uint256"
        }
      ],
      "name": "borrow",
      "outputs": [],
      "stateMutability": "nonpayable",
      "type": "function"
    },
    {
      "inputs": [
        {
          "internalType": "uint256",
          "name": "",
          "type": "uint256"
        },
        {
          "internalType": "address",
          "name": "",
          "type": "address"
        }
      ],
      "name": "borrowedAmounts",
      "outputs": [
        {
          "internalType": "uint256",
          "name": "",
          "type": "uint256"
        }
      ],
      "stateMutability": "view",
      "type": "function"
    },
    {
      "inputs": [
        {
          "internalType": "address",
          "name": "who",
          "type": "address"
        },
        {
          "internalType": "uint256",
          "name": "maturityDate",
          "type": "uint256"
        }
      ],
      "name": "getAccountSnapshot",
      "outputs": [
        {
          "internalType": "uint256",
          "name": "",
          "type": "uint256"
        },
        {
          "internalType": "uint256",
          "name": "",
          "type": "uint256"
        },
        {
          "internalType": "uint256",
          "name": "",
          "type": "uint256"
        }
      ],
      "stateMutability": "view",
      "type": "function"
    },
    {
      "inputs": [
        {
          "internalType": "uint256",
          "name": "maturityDate",
          "type": "uint256"
        }
      ],
      "name": "getTotalBorrows",
      "outputs": [
        {
          "internalType": "uint256",
          "name": "",
          "type": "uint256"
        }
      ],
      "stateMutability": "view",
      "type": "function"
    },
    {
      "inputs": [],
      "name": "owner",
      "outputs": [
        {
          "internalType": "address",
          "name": "",
          "type": "address"
        }
      ],
      "stateMutability": "view",
      "type": "function"
    },
    {
      "inputs": [
        {
          "internalType": "uint256",
          "name": "",
          "type": "uint256"
        }
      ],
      "name": "pools",
      "outputs": [
        {
          "internalType": "uint256",
          "name": "lent",
          "type": "uint256"
        },
        {
          "internalType": "uint256",
          "name": "supplied",
          "type": "uint256"
        }
      ],
      "stateMutability": "view",
      "type": "function"
    },
    {
      "inputs": [
        {
          "internalType": "uint256",
          "name": "amount",
          "type": "uint256"
        },
        {
          "internalType": "uint256",
          "name": "maturityDate",
          "type": "uint256"
        }
      ],
      "name": "rateForSupply",
      "outputs": [
        {
          "internalType": "uint256",
          "name": "",
          "type": "uint256"
        },
        {
          "components": [
            {
              "internalType": "uint256",
              "name": "lent",
              "type": "uint256"
            },
            {
              "internalType": "uint256",
              "name": "supplied",
              "type": "uint256"
            }
          ],
          "internalType": "struct Pool",
          "name": "",
          "type": "tuple"
        }
      ],
      "stateMutability": "view",
      "type": "function"
    },
    {
      "inputs": [
        {
          "internalType": "uint256",
          "name": "amount",
          "type": "uint256"
        },
        {
          "internalType": "uint256",
          "name": "maturityDate",
          "type": "uint256"
        }
      ],
      "name": "rateToBorrow",
      "outputs": [
        {
          "internalType": "uint256",
          "name": "",
          "type": "uint256"
        },
        {
          "components": [
            {
              "internalType": "uint256",
              "name": "lent",
              "type": "uint256"
            },
            {
              "internalType": "uint256",
              "name": "supplied",
              "type": "uint256"
            }
          ],
          "internalType": "struct Pool",
          "name": "",
          "type": "tuple"
        }
      ],
      "stateMutability": "view",
      "type": "function"
    },
    {
      "inputs": [
        {
          "internalType": "address payable",
          "name": "redeemer",
          "type": "address"
        },
        {
          "internalType": "uint256",
          "name": "redeemAmount",
          "type": "uint256"
        },
        {
          "internalType": "uint256",
          "name": "commission",
          "type": "uint256"
        },
        {
          "internalType": "uint256",
          "name": "maturityDate",
          "type": "uint256"
        }
      ],
      "name": "redeem",
      "outputs": [],
      "stateMutability": "nonpayable",
      "type": "function"
    },
    {
      "inputs": [],
      "name": "renounceOwnership",
      "outputs": [],
      "stateMutability": "nonpayable",
      "type": "function"
    },
    {
      "inputs": [
        {
          "internalType": "uint256",
          "name": "",
          "type": "uint256"
        },
        {
          "internalType": "address",
          "name": "",
          "type": "address"
        }
      ],
      "name": "suppliedAmmounts",
      "outputs": [
        {
          "internalType": "uint256",
          "name": "",
          "type": "uint256"
        }
      ],
      "stateMutability": "view",
      "type": "function"
    },
    {
      "inputs": [
        {
          "internalType": "address",
          "name": "from",
          "type": "address"
        },
        {
          "internalType": "uint256",
          "name": "amount",
          "type": "uint256"
        },
        {
          "internalType": "uint256",
          "name": "maturityDate",
          "type": "uint256"
        }
      ],
      "name": "supply",
      "outputs": [],
      "stateMutability": "nonpayable",
      "type": "function"
    },
    {
      "inputs": [],
      "name": "tokenName",
      "outputs": [
        {
          "internalType": "string",
          "name": "",
          "type": "string"
        }
      ],
      "stateMutability": "view",
      "type": "function"
    },
    {
      "inputs": [
        {
          "internalType": "address",
          "name": "newOwner",
          "type": "address"
        }
      ],
      "name": "transferOwnership",
      "outputs": [],
      "stateMutability": "nonpayable",
      "type": "function"
    }
  ],
  "transactionHash": "0x16aac5480c5ec2cb4d7676c439a43738d6acb6641df8e5e9bdff72a9659090fe",
  "args": [
    "0xC02aaA39b223FE8D0A0e5C4F27eAD9083C756Cc2",
    "ETH",
    "0x1c7B43a0bbab0a5EA0A1435F31D1c8e05Cc6aE98"
  ],
  "solcInputHash": "fabe88b12d2164bdacca56e110e5aaa9",
  "bytecode": "0x60806040523480156200001157600080fd5b5060405162003420380380620034208339818101604052810190620000379190620007ab565b6000620000496200022960201b60201c565b9050806000806101000a81548173ffffffffffffffffffffffffffffffffffffffff021916908373ffffffffffffffffffffffffffffffffffffffff1602179055508073ffffffffffffffffffffffffffffffffffffffff16600073ffffffffffffffffffffffffffffffffffffffff167f8be0079c531659141344cd1fd0a4f28419497f9722a3daafe3b4186f6b6457e060405160405180910390a35082600860006101000a81548173ffffffffffffffffffffffffffffffffffffffff021916908373ffffffffffffffffffffffffffffffffffffffff1602179055506200019c307fffffffffffffffffffffffffffffffffffffffffffffffffffffffffffffffff600860009054906101000a900473ffffffffffffffffffffffffffffffffffffffff1673ffffffffffffffffffffffffffffffffffffffff166200023160201b62001364179092919060201c565b8160099080519060200190620001b492919062000644565b5080600a60006101000a81548173ffffffffffffffffffffffffffffffffffffffff021916908373ffffffffffffffffffffffffffffffffffffffff16021790555066470de4df820000600581905550662386f26fc1000060068190555066f8b0a10e47000060078190555050505062000db1565b600033905090565b6000811480620002d1575060008373ffffffffffffffffffffffffffffffffffffffff1663dd62ed3e30856040518363ffffffff1660e01b81526004016200027b92919062000a9f565b60206040518083038186803b1580156200029457600080fd5b505afa158015620002a9573d6000803e3d6000fd5b505050506040513d601f19601f82011682018060405250810190620002cf919062000846565b145b62000313576040517f08c379a00000000000000000000000000000000000000000000000000000000081526004016200030a9062000b83565b60405180910390fd5b6200039e8363095ea7b360e01b84846040516024016200033592919062000acc565b604051602081830303815290604052907bffffffffffffffffffffffffffffffffffffffffffffffffffffffff19166020820180517bffffffffffffffffffffffffffffffffffffffffffffffffffffffff8381831617835250505050620003a360201b60201c565b505050565b60006200040c826040518060400160405280602081526020017f5361666545524332303a206c6f772d6c6576656c2063616c6c206661696c65648152508573ffffffffffffffffffffffffffffffffffffffff166200047760201b620014c2179092919060201c565b90506000815111156200047257808060200190518101906200042f91906200081a565b62000471576040517f08c379a0000000000000000000000000000000000000000000000000000000008152600401620004689062000b61565b60405180910390fd5b5b505050565b60606200048e84846000856200049760201b60201c565b90509392505050565b606082471015620004df576040517f08c379a0000000000000000000000000000000000000000000000000000000008152600401620004d69062000b1d565b60405180910390fd5b620004f085620005c560201b60201c565b62000532576040517f08c379a0000000000000000000000000000000000000000000000000000000008152600401620005299062000b3f565b60405180910390fd5b6000808673ffffffffffffffffffffffffffffffffffffffff1685876040516200055d919062000a86565b60006040518083038185875af1925050503d80600081146200059c576040519150601f19603f3d011682016040523d82523d6000602084013e620005a1565b606091505b5091509150620005b9828286620005d860201b60201c565b92505050949350505050565b600080823b905060008111915050919050565b60608315620005ea578290506200063d565b600083511115620005fe5782518084602001fd5b816040517f08c379a000000000000000000000000000000000000000000000000000000000815260040162000634919062000af9565b60405180910390fd5b9392505050565b828054620006529062000cbe565b90600052602060002090601f016020900481019282620006765760008555620006c2565b82601f106200069157805160ff1916838001178555620006c2565b82800160010185558215620006c2579182015b82811115620006c1578251825591602001919060010190620006a4565b5b509050620006d19190620006d5565b5090565b5b80821115620006f0576000816000905550600101620006d6565b5090565b60006200070b620007058462000bd9565b62000ba5565b9050828152602081018484840111156200072457600080fd5b6200073184828562000c88565b509392505050565b6000815190506200074a8162000d63565b92915050565b600081519050620007618162000d7d565b92915050565b600082601f8301126200077957600080fd5b81516200078b848260208601620006f4565b91505092915050565b600081519050620007a58162000d97565b92915050565b600080600060608486031215620007c157600080fd5b6000620007d18682870162000739565b935050602084015167ffffffffffffffff811115620007ef57600080fd5b620007fd8682870162000767565b9250506040620008108682870162000739565b9150509250925092565b6000602082840312156200082d57600080fd5b60006200083d8482850162000750565b91505092915050565b6000602082840312156200085957600080fd5b6000620008698482850162000794565b91505092915050565b6200087d8162000c3e565b82525050565b6000620008908262000c0c565b6200089c818562000c22565b9350620008ae81856020860162000c88565b80840191505092915050565b6000620008c78262000c17565b620008d3818562000c2d565b9350620008e581856020860162000c88565b620008f08162000d52565b840191505092915050565b60006200090a60268362000c2d565b91507f416464726573733a20696e73756666696369656e742062616c616e636520666f60008301527f722063616c6c00000000000000000000000000000000000000000000000000006020830152604082019050919050565b600062000972601d8362000c2d565b91507f416464726573733a2063616c6c20746f206e6f6e2d636f6e74726163740000006000830152602082019050919050565b6000620009b4602a8362000c2d565b91507f5361666545524332303a204552433230206f7065726174696f6e20646964206e60008301527f6f742073756363656564000000000000000000000000000000000000000000006020830152604082019050919050565b600062000a1c60368362000c2d565b91507f5361666545524332303a20617070726f76652066726f6d206e6f6e2d7a65726f60008301527f20746f206e6f6e2d7a65726f20616c6c6f77616e6365000000000000000000006020830152604082019050919050565b62000a808162000c7e565b82525050565b600062000a94828462000883565b915081905092915050565b600060408201905062000ab6600083018562000872565b62000ac5602083018462000872565b9392505050565b600060408201905062000ae3600083018562000872565b62000af2602083018462000a75565b9392505050565b6000602082019050818103600083015262000b158184620008ba565b905092915050565b6000602082019050818103600083015262000b3881620008fb565b9050919050565b6000602082019050818103600083015262000b5a8162000963565b9050919050565b6000602082019050818103600083015262000b7c81620009a5565b9050919050565b6000602082019050818103600083015262000b9e8162000a0d565b9050919050565b6000604051905081810181811067ffffffffffffffff8211171562000bcf5762000bce62000d23565b5b8060405250919050565b600067ffffffffffffffff82111562000bf75762000bf662000d23565b5b601f19601f8301169050602081019050919050565b600081519050919050565b600081519050919050565b600081905092915050565b600082825260208201905092915050565b600062000c4b8262000c5e565b9050919050565b60008115159050919050565b600073ffffffffffffffffffffffffffffffffffffffff82169050919050565b6000819050919050565b60005b8381101562000ca857808201518184015260208101905062000c8b565b8381111562000cb8576000848401525b50505050565b6000600282049050600182168062000cd757607f821691505b6020821081141562000cee5762000ced62000cf4565b5b50919050565b7f4e487b7100000000000000000000000000000000000000000000000000000000600052602260045260246000fd5b7f4e487b7100000000000000000000000000000000000000000000000000000000600052604160045260246000fd5b6000601f19601f8301169050919050565b62000d6e8162000c3e565b811462000d7a57600080fd5b50565b62000d888162000c52565b811462000d9457600080fd5b50565b62000da28162000c7e565b811462000dae57600080fd5b50565b61265f8062000dc16000396000f3fe608060405234801561001057600080fd5b50600436106100f55760003560e01c8063a2bcf02111610097578063d2cdcad311610066578063d2cdcad31461029d578063ea1cd41f146102cd578063ea2092f3146102fd578063f2fde38b14610319576100f5565b8063a2bcf021146101ee578063a82eff211461021f578063ac4afa3814610250578063c1bce0b714610281576100f5565b80636c02a931116100d35780636c02a9311461018c578063715018a6146101aa5780637dbca353146101b45780638da5cb5b146101d0576100f5565b80630d6547a2146100fa5780633c5b1c591461012a57806355a1ac2e1461015a575b600080fd5b610114600480360381019061010f9190611a52565b610335565b604051610121919061221e565b60405180910390f35b610144600480360381019061013f919061194c565b61035a565b604051610151919061221e565b60405180910390f35b610174600480360381019061016f919061194c565b61038b565b6040516101839392919061228b565b60405180910390f35b61019461044e565b6040516101a1919061207c565b60405180910390f35b6101b26104dc565b005b6101ce60048036038101906101c99190611988565b610616565b005b6101d86107e0565b6040516101e59190611f4e565b60405180910390f35b61020860048036038101906102039190611a8e565b610809565b604051610216929190612239565b60405180910390f35b61023960048036038101906102349190611a8e565b61093f565b604051610247929190612239565b60405180910390f35b61026a60048036038101906102659190611a00565b610a68565b604051610278929190612262565b60405180910390f35b61029b60048036038101906102969190611988565b610a8c565b005b6102b760048036038101906102b29190611a52565b610d89565b6040516102c4919061221e565b60405180910390f35b6102e760048036038101906102e29190611a00565b610dae565b6040516102f4919061221e565b60405180910390f35b610317600480360381019061031291906118e9565b610ddb565b005b610333600480360381019061032e91906118c0565b6111bb565b005b6001602052816000526040600020602052806000526040600020600091509150505481565b6004602052816000526040600020818154811061037657600080fd5b90600052602060002001600091509150505481565b60008060008061039a856114da565b905060006001600083815260200190815260200160002060008873ffffffffffffffffffffffffffffffffffffffff1673ffffffffffffffffffffffffffffffffffffffff168152602001908152602001600020546002600084815260200190815260200160002060008973ffffffffffffffffffffffffffffffffffffffff1673ffffffffffffffffffffffffffffffffffffffff16815260200190815260200160002054935093509350509250925092565b6009805461045b906124cc565b80601f0160208091040260200160405190810160405280929190818152602001828054610487906124cc565b80156104d45780601f106104a9576101008083540402835291602001916104d4565b820191906000526020600020905b8154815290600101906020018083116104b757829003601f168201915b505050505081565b6104e46114f9565b73ffffffffffffffffffffffffffffffffffffffff166105026107e0565b73ffffffffffffffffffffffffffffffffffffffff1614610558576040517f08c379a000000000000000000000000000000000000000000000000000000000815260040161054f9061211e565b60405180910390fd5b600073ffffffffffffffffffffffffffffffffffffffff1660008054906101000a900473ffffffffffffffffffffffffffffffffffffffff1673ffffffffffffffffffffffffffffffffffffffff167f8be0079c531659141344cd1fd0a4f28419497f9722a3daafe3b4186f6b6457e060405160405180910390a360008060006101000a81548173ffffffffffffffffffffffffffffffffffffffff021916908373ffffffffffffffffffffffffffffffffffffffff160217905550565b6000610621826114da565b9050804210610665576040517f08c379a000000000000000000000000000000000000000000000000000000000815260040161065c9061215e565b60405180910390fd5b600080610672858561093f565b915091506000670de0b6b3a7640000838761068d919061237b565b610697919061234a565b905080866106a591906122f4565b6001600086815260200190815260200160002060008973ffffffffffffffffffffffffffffffffffffffff1673ffffffffffffffffffffffffffffffffffffffff168152602001908152602001600020600082825461070491906122f4565b9250508190555081600360008681526020019081526020016000206000820151816000015560208201518160010155905050610785873088600860009054906101000a900473ffffffffffffffffffffffffffffffffffffffff1673ffffffffffffffffffffffffffffffffffffffff16611501909392919063ffffffff16565b8673ffffffffffffffffffffffffffffffffffffffff167f59c246e4b3d64f626b5eac2dd8e3a3c46c4531e9cc40ef4e6f120fcb3df6be1e8783876040516107cf9392919061228b565b60405180910390a250505050505050565b60008060009054906101000a900473ffffffffffffffffffffffffffffffffffffffff16905090565b600061081361183d565b600061081e846114da565b9050804210610862576040517f08c379a00000000000000000000000000000000000000000000000000000000081526004016108599061215e565b60405180910390fd5b60006003600083815260200190815260200160002060405180604001604052908160008201548152602001600182015481525050905085816000018181516108aa91906122f4565b915081815250506000620151806108c04261158a565b846108cb91906123d5565b6108d5919061234a565b90506000826020015183600001516007546108f0919061237b565b6108fa919061234a565b60065460055461090a91906122f4565b61091491906122f4565b905061016d8282610925919061237b565b61092f919061234a565b8395509550505050509250929050565b600061094961183d565b6000610954846114da565b9050804210610998576040517f08c379a000000000000000000000000000000000000000000000000000000000815260040161098f9061215e565b60405180910390fd5b60006003600083815260200190815260200160002060405180604001604052908160008201548152602001600182015481525050905085816020018181516109e091906122f4565b915081815250506000620151806109f64261158a565b84610a0191906123d5565b610a0b919061234a565b9050600082602001518360000151600754610a26919061237b565b610a30919061234a565b600554610a3d91906122f4565b905061016d8282610a4e919061237b565b610a58919061234a565b8395509550505050509250929050565b60036020528060005260406000206000915090508060000154908060010154905082565b6000610a97826114da565b9050804210610adb576040517f08c379a0000000000000000000000000000000000000000000000000000000008152600401610ad29061215e565b60405180910390fd5b600080610ae88585610809565b915091506000600a60009054906101000a900473ffffffffffffffffffffffffffffffffffffffff1673ffffffffffffffffffffffffffffffffffffffff1663059a8008308989896040518563ffffffff1660e01b8152600401610b4f949392919061200e565b602060405180830381600087803b158015610b6957600080fd5b505af1158015610b7d573d6000803e3d6000fd5b505050506040513d601f19601f82011682018060405250810190610ba19190611a29565b905060006004811115610bdd577f4e487b7100000000000000000000000000000000000000000000000000000000600052602160045260246000fd5b8114610c1e576040517f08c379a0000000000000000000000000000000000000000000000000000000008152600401610c15906120de565b60405180910390fd5b6000670de0b6b3a76400008488610c35919061237b565b610c3f919061234a565b90508087610c4d91906122f4565b6002600087815260200190815260200160002060008a73ffffffffffffffffffffffffffffffffffffffff1673ffffffffffffffffffffffffffffffffffffffff1681526020019081526020016000206000828254610cac91906122f4565b9250508190555082600360008781526020019081526020016000206000820151816000015560208201518160010155905050610d2d308989600860009054906101000a900473ffffffffffffffffffffffffffffffffffffffff1673ffffffffffffffffffffffffffffffffffffffff16611501909392919063ffffffff16565b8773ffffffffffffffffffffffffffffffffffffffff167fc4381c9c7b508979896c55381c1cb8c2aef28d753cff7661f9cd87b9a14584f8888388604051610d779392919061228b565b60405180910390a25050505050505050565b6002602052816000526040600020602052806000526040600020600091509150505481565b600080610dba836114da565b90506003600082815260200190815260200160002060000154915050919050565b6000831415610e1f576040517f08c379a0000000000000000000000000000000000000000000000000000000008152600401610e169061209e565b60405180910390fd5b6000600a60009054906101000a900473ffffffffffffffffffffffffffffffffffffffff1673ffffffffffffffffffffffffffffffffffffffff16632f8832d6308787866040518563ffffffff1660e01b8152600401610e829493929190611f92565b60206040518083038186803b158015610e9a57600080fd5b505afa158015610eae573d6000803e3d6000fd5b505050506040513d601f19601f82011682018060405250810190610ed29190611a29565b905060006004811115610f0e577f4e487b7100000000000000000000000000000000000000000000000000000000600052602160045260246000fd5b8114610f4f576040517f08c379a0000000000000000000000000000000000000000000000000000000008152600401610f469061219e565b60405180910390fd5b6000610f5a836114da565b9050804211610f9e576040517f08c379a0000000000000000000000000000000000000000000000000000000008152600401610f959061213e565b60405180910390fd5b8385610faa91906122f4565b6001600083815260200190815260200160002060008873ffffffffffffffffffffffffffffffffffffffff1673ffffffffffffffffffffffffffffffffffffffff168152602001908152602001600020600082825461100991906123d5565b92505081905550838561101c91906122f4565b600860009054906101000a900473ffffffffffffffffffffffffffffffffffffffff1673ffffffffffffffffffffffffffffffffffffffff166370a08231306040518263ffffffff1660e01b81526004016110779190611f4e565b60206040518083038186803b15801561108f57600080fd5b505afa1580156110a3573d6000803e3d6000fd5b505050506040513d601f19601f820116820180604052508101906110c79190611a29565b11611107576040517f08c379a00000000000000000000000000000000000000000000000000000000081526004016110fe906121be565b60405180910390fd5b6111613087868861111891906122f4565b600860009054906101000a900473ffffffffffffffffffffffffffffffffffffffff1673ffffffffffffffffffffffffffffffffffffffff16611501909392919063ffffffff16565b8573ffffffffffffffffffffffffffffffffffffffff167f484c40561359f3e3b8be9101897f8680aa82fbe1df9fd9038e0dbc62840326468686866040516111ab9392919061228b565b60405180910390a2505050505050565b6111c36114f9565b73ffffffffffffffffffffffffffffffffffffffff166111e16107e0565b73ffffffffffffffffffffffffffffffffffffffff1614611237576040517f08c379a000000000000000000000000000000000000000000000000000000000815260040161122e9061211e565b60405180910390fd5b600073ffffffffffffffffffffffffffffffffffffffff168173ffffffffffffffffffffffffffffffffffffffff1614156112a7576040517f08c379a000000000000000000000000000000000000000000000000000000000815260040161129e906120be565b60405180910390fd5b8073ffffffffffffffffffffffffffffffffffffffff1660008054906101000a900473ffffffffffffffffffffffffffffffffffffffff1673ffffffffffffffffffffffffffffffffffffffff167f8be0079c531659141344cd1fd0a4f28419497f9722a3daafe3b4186f6b6457e060405160405180910390a3806000806101000a81548173ffffffffffffffffffffffffffffffffffffffff021916908373ffffffffffffffffffffffffffffffffffffffff16021790555050565b60008114806113fd575060008373ffffffffffffffffffffffffffffffffffffffff1663dd62ed3e30856040518363ffffffff1660e01b81526004016113ab929190611f69565b60206040518083038186803b1580156113c357600080fd5b505afa1580156113d7573d6000803e3d6000fd5b505050506040513d601f19601f820116820180604052508101906113fb9190611a29565b145b61143c576040517f08c379a0000000000000000000000000000000000000000000000000000000008152600401611433906121fe565b60405180910390fd5b6114bd8363095ea7b360e01b848460405160240161145b929190612053565b604051602081830303815290604052907bffffffffffffffffffffffffffffffffffffffffffffffffffffffff19166020820180517bffffffffffffffffffffffffffffffffffffffffffffffffffffffff83818316178352505050506115ad565b505050565b60606114d18484600085611674565b90509392505050565b6000806114ee6114e984611788565b6117ab565b905080915050919050565b600033905090565b611584846323b872dd60e01b85858560405160240161152293929190611fd7565b604051602081830303815290604052907bffffffffffffffffffffffffffffffffffffffffffffffffffffffff19166020820180517bffffffffffffffffffffffffffffffffffffffffffffffffffffffff83818316178352505050506115ad565b50505050565b6000620151808261159b91906124fe565b826115a691906123d5565b9050919050565b600061160f826040518060400160405280602081526020017f5361666545524332303a206c6f772d6c6576656c2063616c6c206661696c65648152508573ffffffffffffffffffffffffffffffffffffffff166114c29092919063ffffffff16565b905060008151111561166f578080602001905181019061162f91906119d7565b61166e576040517f08c379a0000000000000000000000000000000000000000000000000000000008152600401611665906121de565b60405180910390fd5b5b505050565b6060824710156116b9576040517f08c379a00000000000000000000000000000000000000000000000000000000081526004016116b0906120fe565b60405180910390fd5b6116c2856117c3565b611701576040517f08c379a00000000000000000000000000000000000000000000000000000000081526004016116f89061217e565b60405180910390fd5b6000808673ffffffffffffffffffffffffffffffffffffffff16858760405161172a9190611f37565b60006040518083038185875af1925050503d8060008114611767576040519150601f19603f3d011682016040523d82523d6000602084013e61176c565b606091505b509150915061177c8282866117d6565b92505050949350505050565b600062278d008261179991906124fe565b826117a491906123d5565b9050919050565b600062278d00826117bc91906122f4565b9050919050565b600080823b905060008111915050919050565b606083156117e657829050611836565b6000835111156117f95782518084602001fd5b816040517f08c379a000000000000000000000000000000000000000000000000000000000815260040161182d919061207c565b60405180910390fd5b9392505050565b604051806040016040528060008152602001600081525090565b600081359050611866816125cd565b92915050565b60008135905061187b816125e4565b92915050565b600081519050611890816125fb565b92915050565b6000813590506118a581612612565b92915050565b6000815190506118ba81612612565b92915050565b6000602082840312156118d257600080fd5b60006118e084828501611857565b91505092915050565b600080600080608085870312156118ff57600080fd5b600061190d8782880161186c565b945050602061191e87828801611896565b935050604061192f87828801611896565b925050606061194087828801611896565b91505092959194509250565b6000806040838503121561195f57600080fd5b600061196d85828601611857565b925050602061197e85828601611896565b9150509250929050565b60008060006060848603121561199d57600080fd5b60006119ab86828701611857565b93505060206119bc86828701611896565b92505060406119cd86828701611896565b9150509250925092565b6000602082840312156119e957600080fd5b60006119f784828501611881565b91505092915050565b600060208284031215611a1257600080fd5b6000611a2084828501611896565b91505092915050565b600060208284031215611a3b57600080fd5b6000611a49848285016118ab565b91505092915050565b60008060408385031215611a6557600080fd5b6000611a7385828601611896565b9250506020611a8485828601611857565b9150509250929050565b60008060408385031215611aa157600080fd5b6000611aaf85828601611896565b9250506020611ac085828601611896565b9150509250929050565b611ad381612463565b82525050565b611ae281612409565b82525050565b6000611af3826122c2565b611afd81856122d8565b9350611b0d818560208601612499565b80840191505092915050565b6000611b24826122cd565b611b2e81856122e3565b9350611b3e818560208601612499565b611b47816125bc565b840191505092915050565b6000611b5f6014836122e3565b91507f52656465656d2063616e2774206265207a65726f0000000000000000000000006000830152602082019050919050565b6000611b9f6026836122e3565b91507f4f776e61626c653a206e6577206f776e657220697320746865207a65726f206160008301527f64647265737300000000000000000000000000000000000000000000000000006020830152604082019050919050565b6000611c05601c836122e3565b91507f65786146726f6e74206e6f7420616c6c6f77696e6720626f72726f77000000006000830152602082019050919050565b6000611c456026836122e3565b91507f416464726573733a20696e73756666696369656e742062616c616e636520666f60008301527f722063616c6c00000000000000000000000000000000000000000000000000006020830152604082019050919050565b6000611cab6020836122e3565b91507f4f776e61626c653a2063616c6c6572206973206e6f7420746865206f776e65726000830152602082019050919050565b6000611ceb6014836122e3565b91507f506f6f6c206e6f74206d617475726564207965740000000000000000000000006000830152602082019050919050565b6000611d2b6014836122e3565b91507f45786166696e3a20506f6f6c204d6174757265640000000000000000000000006000830152602082019050919050565b6000611d6b601d836122e3565b91507f416464726573733a2063616c6c20746f206e6f6e2d636f6e74726163740000006000830152602082019050919050565b6000611dab600b836122e3565b91507f63616e742072656465656d0000000000000000000000000000000000000000006000830152602082019050919050565b6000611deb6014836122e3565b91507f4e6f7420656e6f756768206c69717569646974790000000000000000000000006000830152602082019050919050565b6000611e2b602a836122e3565b91507f5361666545524332303a204552433230206f7065726174696f6e20646964206e60008301527f6f742073756363656564000000000000000000000000000000000000000000006020830152604082019050919050565b6000611e916036836122e3565b91507f5361666545524332303a20617070726f76652066726f6d206e6f6e2d7a65726f60008301527f20746f206e6f6e2d7a65726f20616c6c6f77616e6365000000000000000000006020830152604082019050919050565b604082016000820151611f006000850182611f19565b506020820151611f136020850182611f19565b50505050565b611f2281612459565b82525050565b611f3181612459565b82525050565b6000611f438284611ae8565b915081905092915050565b6000602082019050611f636000830184611ad9565b92915050565b6000604082019050611f7e6000830185611ad9565b611f8b6020830184611ad9565b9392505050565b6000608082019050611fa76000830187611ad9565b611fb46020830186611aca565b611fc16040830185611f28565b611fce6060830184611f28565b95945050505050565b6000606082019050611fec6000830186611ad9565b611ff96020830185611ad9565b6120066040830184611f28565b949350505050565b60006080820190506120236000830187611ad9565b6120306020830186611ad9565b61203d6040830185611f28565b61204a6060830184611f28565b95945050505050565b60006040820190506120686000830185611ad9565b6120756020830184611f28565b9392505050565b600060208201905081810360008301526120968184611b19565b905092915050565b600060208201905081810360008301526120b781611b52565b9050919050565b600060208201905081810360008301526120d781611b92565b9050919050565b600060208201905081810360008301526120f781611bf8565b9050919050565b6000602082019050818103600083015261211781611c38565b9050919050565b6000602082019050818103600083015261213781611c9e565b9050919050565b6000602082019050818103600083015261215781611cde565b9050919050565b6000602082019050818103600083015261217781611d1e565b9050919050565b6000602082019050818103600083015261219781611d5e565b9050919050565b600060208201905081810360008301526121b781611d9e565b9050919050565b600060208201905081810360008301526121d781611dde565b9050919050565b600060208201905081810360008301526121f781611e1e565b9050919050565b6000602082019050818103600083015261221781611e84565b9050919050565b60006020820190506122336000830184611f28565b92915050565b600060608201905061224e6000830185611f28565b61225b6020830184611eea565b9392505050565b60006040820190506122776000830185611f28565b6122846020830184611f28565b9392505050565b60006060820190506122a06000830186611f28565b6122ad6020830185611f28565b6122ba6040830184611f28565b949350505050565b600081519050919050565b600081519050919050565b600081905092915050565b600082825260208201905092915050565b60006122ff82612459565b915061230a83612459565b9250827fffffffffffffffffffffffffffffffffffffffffffffffffffffffffffffffff0382111561233f5761233e61252f565b5b828201905092915050565b600061235582612459565b915061236083612459565b9250826123705761236f61255e565b5b828204905092915050565b600061238682612459565b915061239183612459565b9250817fffffffffffffffffffffffffffffffffffffffffffffffffffffffffffffffff04831182151516156123ca576123c961252f565b5b828202905092915050565b60006123e082612459565b91506123eb83612459565b9250828210156123fe576123fd61252f565b5b828203905092915050565b600061241482612439565b9050919050565b600061242682612439565b9050919050565b60008115159050919050565b600073ffffffffffffffffffffffffffffffffffffffff82169050919050565b6000819050919050565b600061246e82612475565b9050919050565b600061248082612487565b9050919050565b600061249282612439565b9050919050565b60005b838110156124b757808201518184015260208101905061249c565b838111156124c6576000848401525b50505050565b600060028204905060018216806124e457607f821691505b602082108114156124f8576124f761258d565b5b50919050565b600061250982612459565b915061251483612459565b9250826125245761252361255e565b5b828206905092915050565b7f4e487b7100000000000000000000000000000000000000000000000000000000600052601160045260246000fd5b7f4e487b7100000000000000000000000000000000000000000000000000000000600052601260045260246000fd5b7f4e487b7100000000000000000000000000000000000000000000000000000000600052602260045260246000fd5b6000601f19601f8301169050919050565b6125d681612409565b81146125e157600080fd5b50565b6125ed8161241b565b81146125f857600080fd5b50565b6126048161242d565b811461260f57600080fd5b50565b61261b81612459565b811461262657600080fd5b5056fea264697066735822122091c15c0ed94e418478fadcad696269959c0b2dabf571cf7675f065ba503629aa64736f6c63430008000033",
  "devdoc": {
    "kind": "dev",
    "methods": {
      "borrow(address,uint256,uint256)": {
        "details": "Lends to a wallet for a certain maturity date/pool",
        "params": {
          "amount": "amount to send to the specified wallet",
          "maturityDate": "maturity date for repayment",
          "to": "wallet to send the amount"
        }
      },
      "getAccountSnapshot(address,uint256)": {
        "details": "Gets current snapshot for a wallet in a certain maturity",
        "params": {
          "maturityDate": "maturity date",
          "who": "wallet to return status snapshot in the specified maturity date"
        }
      },
      "getTotalBorrows(uint256)": {
        "details": "Gets the total amount of borrowed money for a maturityDate",
        "params": {
          "maturityDate": "maturity date"
        }
      },
      "owner()": {
        "details": "Returns the address of the current owner."
      },
      "rateForSupply(uint256,uint256)": {
        "details": "Rate that the protocol will pay when borrowing from an address a certain amount at the end of the maturity date",
        "params": {
          "amount": "amount to calculate how it would affect the pool ",
          "maturityDate": "maturity date to calculate the pool"
        }
      },
      "rateToBorrow(uint256,uint256)": {
        "details": "Rate that the protocol will collect when lending to an address a certain amount at the end of the maturity date",
        "params": {
          "amount": "amount to calculate how it would affect the pool ",
          "maturityDate": "maturity date to calculate the pool"
        }
      },
      "redeem(address,uint256,uint256,uint256)": {
        "details": "The pool that the user is trying to retrieve the money should be matured",
        "params": {
          "commission": "the amount that should be redeemed in comissions",
          "redeemAmount": "The number of underlying tokens to receive from redeeming cTokens (only one of redeemTokensIn or redeemAmountIn may be non-zero)",
          "redeemer": "The address of the account which is redeeming the tokens"
        }
      },
      "renounceOwnership()": {
        "details": "Leaves the contract without owner. It will not be possible to call `onlyOwner` functions anymore. Can only be called by the current owner. NOTE: Renouncing ownership will leave the contract without an owner, thereby removing any functionality that is only available to the owner."
      },
      "supply(address,uint256,uint256)": {
        "details": "Borrows from a wallet for a certain maturity date/pool",
        "params": {
          "amount": "amount to receive from the specified wallet",
          "from": "wallet to receive amount from",
          "maturityDate": "maturity date "
        }
      },
      "transferOwnership(address)": {
        "details": "Transfers ownership of the contract to a new account (`newOwner`). Can only be called by the current owner."
      }
    },
    "version": 1
  },
  "userdoc": {
    "kind": "user",
    "methods": {
      "redeem(address,uint256,uint256,uint256)": {
        "notice": "User redeems (TODO: voucher NFT) in exchange for the underlying asset"
      }
    },
    "version": 1
  },
  "storageLayout": {
    "storage": [
      {
        "astId": 7,
        "contract": "contracts/Exafin.sol:Exafin",
        "label": "_owner",
        "offset": 0,
        "slot": "0",
        "type": "t_address"
      },
      {
        "astId": 1417,
        "contract": "contracts/Exafin.sol:Exafin",
        "label": "suppliedAmmounts",
        "offset": 0,
        "slot": "1",
        "type": "t_mapping(t_uint256,t_mapping(t_address,t_uint256))"
      },
      {
        "astId": 1423,
        "contract": "contracts/Exafin.sol:Exafin",
        "label": "borrowedAmounts",
        "offset": 0,
        "slot": "2",
        "type": "t_mapping(t_uint256,t_mapping(t_address,t_uint256))"
      },
      {
        "astId": 1428,
        "contract": "contracts/Exafin.sol:Exafin",
        "label": "pools",
        "offset": 0,
        "slot": "3",
        "type": "t_mapping(t_uint256,t_struct(Pool)2071_storage)"
      },
      {
        "astId": 1433,
        "contract": "contracts/Exafin.sol:Exafin",
        "label": "addressPools",
        "offset": 0,
        "slot": "4",
        "type": "t_mapping(t_address,t_array(t_uint256)dyn_storage)"
      },
      {
        "astId": 1435,
        "contract": "contracts/Exafin.sol:Exafin",
        "label": "baseRate",
        "offset": 0,
        "slot": "5",
        "type": "t_uint256"
      },
      {
        "astId": 1437,
        "contract": "contracts/Exafin.sol:Exafin",
        "label": "marginRate",
        "offset": 0,
        "slot": "6",
        "type": "t_uint256"
      },
      {
        "astId": 1439,
        "contract": "contracts/Exafin.sol:Exafin",
        "label": "slopeRate",
        "offset": 0,
        "slot": "7",
        "type": "t_uint256"
      },
      {
        "astId": 1445,
        "contract": "contracts/Exafin.sol:Exafin",
        "label": "trustedUnderlying",
        "offset": 0,
        "slot": "8",
        "type": "t_contract(IERC20)187"
      },
      {
        "astId": 1448,
        "contract": "contracts/Exafin.sol:Exafin",
        "label": "tokenName",
        "offset": 0,
        "slot": "9",
        "type": "t_string_storage"
      },
      {
        "astId": 1451,
        "contract": "contracts/Exafin.sol:Exafin",
        "label": "exaFront",
        "offset": 0,
        "slot": "10",
        "type": "t_contract(IExaFront)2064"
      }
    ],
    "types": {
      "t_address": {
        "encoding": "inplace",
        "label": "address",
        "numberOfBytes": "20"
      },
      "t_array(t_uint256)dyn_storage": {
        "base": "t_uint256",
        "encoding": "dynamic_array",
        "label": "uint256[]",
        "numberOfBytes": "32"
      },
      "t_contract(IERC20)187": {
        "encoding": "inplace",
        "label": "contract IERC20",
        "numberOfBytes": "20"
      },
      "t_contract(IExaFront)2064": {
        "encoding": "inplace",
        "label": "contract IExaFront",
        "numberOfBytes": "20"
      },
      "t_mapping(t_address,t_array(t_uint256)dyn_storage)": {
        "encoding": "mapping",
        "key": "t_address",
        "label": "mapping(address => uint256[])",
        "numberOfBytes": "32",
        "value": "t_array(t_uint256)dyn_storage"
      },
      "t_mapping(t_address,t_uint256)": {
        "encoding": "mapping",
        "key": "t_address",
        "label": "mapping(address => uint256)",
        "numberOfBytes": "32",
        "value": "t_uint256"
      },
      "t_mapping(t_uint256,t_mapping(t_address,t_uint256))": {
        "encoding": "mapping",
        "key": "t_uint256",
        "label": "mapping(uint256 => mapping(address => uint256))",
        "numberOfBytes": "32",
        "value": "t_mapping(t_address,t_uint256)"
      },
      "t_mapping(t_uint256,t_struct(Pool)2071_storage)": {
        "encoding": "mapping",
        "key": "t_uint256",
        "label": "mapping(uint256 => struct Pool)",
        "numberOfBytes": "32",
        "value": "t_struct(Pool)2071_storage"
      },
      "t_string_storage": {
        "encoding": "bytes",
        "label": "string",
        "numberOfBytes": "32"
      },
      "t_struct(Pool)2071_storage": {
        "encoding": "inplace",
        "label": "struct Pool",
        "members": [
          {
            "astId": 2068,
            "contract": "contracts/Exafin.sol:Exafin",
            "label": "lent",
            "offset": 0,
            "slot": "0",
            "type": "t_uint256"
          },
          {
            "astId": 2070,
            "contract": "contracts/Exafin.sol:Exafin",
            "label": "supplied",
            "offset": 0,
            "slot": "1",
            "type": "t_uint256"
          }
        ],
        "numberOfBytes": "64"
      },
      "t_uint256": {
        "encoding": "inplace",
        "label": "uint256",
        "numberOfBytes": "32"
      }
    }
  }
}