{
  "address": "0x1c7B43a0bbab0a5EA0A1435F31D1c8e05Cc6aE98",
  "abi": [
    {
      "inputs": [
        {
          "internalType": "address",
          "name": "_priceOracleAddress",
          "type": "address"
        }
      ],
      "stateMutability": "nonpayable",
      "type": "constructor"
    },
    {
      "anonymous": false,
      "inputs": [
        {
          "indexed": false,
          "internalType": "address",
          "name": "exafin",
          "type": "address"
        },
        {
          "indexed": false,
          "internalType": "string",
          "name": "action",
          "type": "string"
        },
        {
          "indexed": false,
          "internalType": "bool",
          "name": "paused",
          "type": "bool"
        }
      ],
      "name": "ActionPaused",
      "type": "event"
    },
    {
      "anonymous": false,
      "inputs": [
        {
          "indexed": false,
          "internalType": "contract IExafin",
          "name": "exafin",
          "type": "address"
        },
        {
          "indexed": false,
          "internalType": "address",
          "name": "account",
          "type": "address"
        }
      ],
      "name": "MarketEntered",
      "type": "event"
    },
    {
      "anonymous": false,
      "inputs": [
        {
          "indexed": true,
          "internalType": "address",
          "name": "previousOwner",
          "type": "address"
        },
        {
          "indexed": true,
          "internalType": "address",
          "name": "newOwner",
          "type": "address"
        }
      ],
      "name": "OwnershipTransferred",
      "type": "event"
    },
    {
      "inputs": [
        {
          "internalType": "address",
          "name": "",
          "type": "address"
        },
        {
          "internalType": "uint256",
          "name": "",
          "type": "uint256"
        }
      ],
      "name": "accountAssets",
      "outputs": [
        {
          "internalType": "contract IExafin",
          "name": "",
          "type": "address"
        }
      ],
      "stateMutability": "view",
      "type": "function"
    },
    {
      "inputs": [
        {
          "internalType": "address",
          "name": "exafinAddress",
          "type": "address"
        },
        {
          "internalType": "address",
          "name": "borrower",
          "type": "address"
        },
        {
          "internalType": "uint256",
          "name": "borrowAmount",
          "type": "uint256"
        },
        {
          "internalType": "uint256",
          "name": "maturityDate",
          "type": "uint256"
        }
      ],
      "name": "borrowAllowed",
      "outputs": [
        {
          "internalType": "uint256",
          "name": "",
          "type": "uint256"
        }
      ],
      "stateMutability": "nonpayable",
      "type": "function"
    },
    {
      "inputs": [
        {
          "internalType": "address",
          "name": "",
          "type": "address"
        }
      ],
      "name": "borrowCaps",
      "outputs": [
        {
          "internalType": "uint256",
          "name": "",
          "type": "uint256"
        }
      ],
      "stateMutability": "view",
      "type": "function"
    },
    {
      "inputs": [
        {
          "internalType": "address",
          "name": "",
          "type": "address"
        }
      ],
      "name": "borrowPaused",
      "outputs": [
        {
          "internalType": "bool",
          "name": "",
          "type": "bool"
        }
      ],
      "stateMutability": "view",
      "type": "function"
    },
    {
      "inputs": [
        {
          "internalType": "address",
          "name": "exafin",
          "type": "address"
        },
        {
          "internalType": "uint256",
          "name": "collateralFactor",
          "type": "uint256"
        },
        {
          "internalType": "string",
          "name": "symbol",
          "type": "string"
        },
        {
          "internalType": "string",
          "name": "name",
          "type": "string"
        }
      ],
      "name": "enableMarket",
      "outputs": [],
      "stateMutability": "nonpayable",
      "type": "function"
    },
    {
      "inputs": [
        {
          "internalType": "address[]",
          "name": "exafins",
          "type": "address[]"
        }
      ],
      "name": "enterMarkets",
      "outputs": [
        {
          "internalType": "uint256[]",
          "name": "",
          "type": "uint256[]"
        }
      ],
      "stateMutability": "nonpayable",
      "type": "function"
    },
    {
      "inputs": [
        {
          "internalType": "address",
          "name": "account",
          "type": "address"
        },
        {
          "internalType": "uint256",
          "name": "maturityDate",
          "type": "uint256"
        }
      ],
      "name": "getAccountLiquidity",
      "outputs": [
        {
          "internalType": "uint256",
          "name": "",
          "type": "uint256"
        },
        {
          "internalType": "uint256",
          "name": "",
          "type": "uint256"
        },
        {
          "internalType": "uint256",
          "name": "",
          "type": "uint256"
        }
      ],
      "stateMutability": "view",
      "type": "function"
    },
    {
      "inputs": [],
      "name": "getMarkets",
      "outputs": [
        {
          "internalType": "address[]",
          "name": "",
          "type": "address[]"
        },
        {
          "internalType": "string[]",
          "name": "",
          "type": "string[]"
        },
        {
          "internalType": "bool[]",
          "name": "",
          "type": "bool[]"
        },
        {
          "internalType": "uint256[]",
          "name": "",
          "type": "uint256[]"
        },
        {
          "internalType": "string[]",
          "name": "",
          "type": "string[]"
        }
      ],
      "stateMutability": "view",
      "type": "function"
    },
    {
      "inputs": [
        {
          "internalType": "address",
          "name": "exafin",
          "type": "address"
        }
      ],
      "name": "listMarket",
      "outputs": [],
      "stateMutability": "nonpayable",
      "type": "function"
    },
    {
      "inputs": [
        {
          "internalType": "address",
          "name": "",
          "type": "address"
        }
      ],
      "name": "listedMarkets",
      "outputs": [
        {
          "internalType": "string",
          "name": "symbol",
          "type": "string"
        },
        {
          "internalType": "string",
          "name": "name",
          "type": "string"
        },
        {
          "internalType": "bool",
          "name": "isListed",
          "type": "bool"
        },
        {
          "internalType": "uint256",
          "name": "collateralFactor",
          "type": "uint256"
        },
        {
          "internalType": "bool",
          "name": "exists",
          "type": "bool"
        }
      ],
      "stateMutability": "view",
      "type": "function"
    },
    {
      "inputs": [
        {
          "internalType": "address",
          "name": "",
          "type": "address"
        }
      ],
      "name": "markets",
      "outputs": [
        {
          "components": [
            {
              "internalType": "string",
              "name": "symbol",
              "type": "string"
            },
            {
              "internalType": "string",
              "name": "name",
              "type": "string"
            },
            {
              "internalType": "bool",
              "name": "isListed",
              "type": "bool"
            },
            {
              "internalType": "uint256",
              "name": "collateralFactor",
              "type": "uint256"
            },
            {
              "internalType": "bool",
              "name": "exists",
              "type": "bool"
            }
          ],
          "internalType": "struct ExaFront.BaseMarket",
          "name": "baseMarket",
          "type": "tuple"
        }
      ],
      "stateMutability": "view",
      "type": "function"
    },
    {
      "inputs": [],
      "name": "owner",
      "outputs": [
        {
          "internalType": "address",
          "name": "",
          "type": "address"
        }
      ],
      "stateMutability": "view",
      "type": "function"
    },
    {
      "inputs": [
        {
          "internalType": "address",
          "name": "exafin",
          "type": "address"
        },
        {
          "internalType": "bool",
          "name": "paused",
          "type": "bool"
        }
      ],
      "name": "pauseBorrow",
      "outputs": [
        {
          "internalType": "bool",
          "name": "",
          "type": "bool"
        }
      ],
      "stateMutability": "nonpayable",
      "type": "function"
    },
    {
      "inputs": [],
      "name": "renounceOwnership",
      "outputs": [],
      "stateMutability": "nonpayable",
      "type": "function"
    },
    {
      "inputs": [
        {
          "internalType": "address",
          "name": "_priceOracleAddress",
          "type": "address"
        }
      ],
      "name": "setOracle",
      "outputs": [],
      "stateMutability": "nonpayable",
      "type": "function"
    },
    {
      "inputs": [
        {
          "internalType": "address",
          "name": "newOwner",
          "type": "address"
        }
      ],
      "name": "transferOwnership",
      "outputs": [],
      "stateMutability": "nonpayable",
      "type": "function"
    },
    {
      "inputs": [
        {
          "internalType": "address",
          "name": "exafin",
          "type": "address"
        }
      ],
      "name": "unlistMarket",
      "outputs": [],
      "stateMutability": "nonpayable",
      "type": "function"
    }
  ],
  "transactionHash": "0x9a59349dab607ab0fb58e2aa5490f4bd15dfdbd6cb4569662ebc4e91a8a158ca",
  "args": [
    "0x6d2299c48a8dd07a872fdd0f8233924872ad1071"
  ],
  "solcInputHash": "c15b902041aa13e7bf7434678529459e",
  "bytecode": "0x608060405260006006553480156200001657600080fd5b5060405162003eaa38038062003eaa83398181016040528101906200003c919062000153565b60006200004e6200013460201b60201c565b9050806000806101000a81548173ffffffffffffffffffffffffffffffffffffffff021916908373ffffffffffffffffffffffffffffffffffffffff1602179055508073ffffffffffffffffffffffffffffffffffffffff16600073ffffffffffffffffffffffffffffffffffffffff167f8be0079c531659141344cd1fd0a4f28419497f9722a3daafe3b4186f6b6457e060405160405180910390a35080600860006101000a81548173ffffffffffffffffffffffffffffffffffffffff021916908373ffffffffffffffffffffffffffffffffffffffff16021790555050620001cd565b600033905090565b6000815190506200014d81620001b3565b92915050565b6000602082840312156200016657600080fd5b600062000176848285016200013c565b91505092915050565b60006200018c8262000193565b9050919050565b600073ffffffffffffffffffffffffffffffffffffffff82169050919050565b620001be816200017f565b8114620001ca57600080fd5b50565b613ccd80620001dd6000396000f3fe608060405234801561001057600080fd5b506004361061010b5760003560e01c80638e8f294b116100a2578063d76a677911610071578063d76a6779146102ce578063dce15449146102fe578063dec481b81461032e578063ec2c90161461035e578063f2fde38b146103805761010b565b80638e8f294b146102205780639e35e14214610250578063c299823814610282578063ce819019146102b25761010b565b80634a584432116100de5780634a584432146101ac578063715018a6146101dc5780637adbf973146101e65780638da5cb5b146102025761010b565b8063059a8008146101105780630686dab614610140578063263195191461015c5780632ee0121614610178575b600080fd5b61012a60048036038101906101259190612cb2565b61039c565b6040516101379190613783565b60405180910390f35b61015a60048036038101906101559190612c89565b610b54565b005b61017660048036038101906101719190612c89565b610cd9565b005b610192600480360381019061018d9190612c89565b610ef3565b6040516101a3959493929190613620565b60405180910390f35b6101c660048036038101906101c19190612c89565b611053565b6040516101d39190613783565b60405180910390f35b6101e461106b565b005b61020060048036038101906101fb9190612c89565b6111a5565b005b61020a611265565b6040516102179190613487565b60405180910390f35b61023a60048036038101906102359190612c89565b61128e565b6040516102479190613761565b60405180910390f35b61026a60048036038101906102659190612d51565b61141a565b6040516102799392919061379e565b60405180910390f35b61029c60048036038101906102979190612e20565b611483565b6040516102a9919061357d565b60405180910390f35b6102cc60048036038101906102c79190612d8d565b611604565b005b6102e860048036038101906102e39190612c89565b6118b5565b6040516102f5919061359f565b60405180910390f35b61031860048036038101906103139190612d51565b6118d5565b60405161032591906135ba565b60405180910390f35b61034860048036038101906103439190612d15565b611923565b604051610355919061359f565b60405180910390f35b610366611acc565b604051610377959493929190613507565b60405180910390f35b61039a60048036038101906103959190612c89565b612073565b005b6000600360008673ffffffffffffffffffffffffffffffffffffffff1673ffffffffffffffffffffffffffffffffffffffff16815260200190815260200160002060009054906101000a900460ff161561042b576040517f08c379a000000000000000000000000000000000000000000000000000000000815260040161042290613741565b60405180910390fd5b600160008673ffffffffffffffffffffffffffffffffffffffff1673ffffffffffffffffffffffffffffffffffffffff16815260200190815260200160002060000160020160009054906101000a900460ff166104c357600160048111156104bc577f4e487b7100000000000000000000000000000000000000000000000000000000600052602160045260246000fd5b9050610b4c565b600160008673ffffffffffffffffffffffffffffffffffffffff1673ffffffffffffffffffffffffffffffffffffffff16815260200190815260200160002060050160008573ffffffffffffffffffffffffffffffffffffffff1673ffffffffffffffffffffffffffffffffffffffff16815260200190815260200160002060009054906101000a900460ff1661074b578473ffffffffffffffffffffffffffffffffffffffff163373ffffffffffffffffffffffffffffffffffffffff16146105c2576040517f08c379a00000000000000000000000000000000000000000000000000000000081526004016105b9906136c1565b60405180910390fd5b60006105ce338661221c565b90506000600481111561060a577f4e487b7100000000000000000000000000000000000000000000000000000000600052602160045260246000fd5b816004811115610643577f4e487b7100000000000000000000000000000000000000000000000000000000600052602160045260246000fd5b1461068957806004811115610681577f4e487b7100000000000000000000000000000000000000000000000000000000600052602160045260246000fd5b915050610b4c565b600160008773ffffffffffffffffffffffffffffffffffffffff1673ffffffffffffffffffffffffffffffffffffffff16815260200190815260200160002060050160008673ffffffffffffffffffffffffffffffffffffffff1673ffffffffffffffffffffffffffffffffffffffff16815260200190815260200160002060009054906101000a900460ff16610749577f4e487b7100000000000000000000000000000000000000000000000000000000600052600160045260246000fd5b505b6000600860009054906101000a900473ffffffffffffffffffffffffffffffffffffffff1673ffffffffffffffffffffffffffffffffffffffff1663fe2c61988773ffffffffffffffffffffffffffffffffffffffff16636c02a9316040518163ffffffff1660e01b815260040160006040518083038186803b1580156107d157600080fd5b505afa1580156107e5573d6000803e3d6000fd5b505050506040513d6000823e3d601f19601f8201168201806040525081019061080e9190612e65565b6040518263ffffffff1660e01b815260040161082a91906135fe565b60206040518083038186803b15801561084257600080fd5b505afa158015610856573d6000803e3d6000fd5b505050506040513d601f19601f8201168201806040525081019061087a9190612ea6565b14156108c157600360048111156108ba577f4e487b7100000000000000000000000000000000000000000000000000000000600052602160045260246000fd5b9050610b4c565b6000600460008773ffffffffffffffffffffffffffffffffffffffff1673ffffffffffffffffffffffffffffffffffffffff168152602001908152602001600020549050600081146109ef5760008673ffffffffffffffffffffffffffffffffffffffff1663ea1cd41f856040518263ffffffff1660e01b81526004016109489190613783565b60206040518083038186803b15801561096057600080fd5b505afa158015610974573d6000803e3d6000fd5b505050506040513d601f19601f820116820180604052508101906109989190612ea6565b9050600085826109a89190613947565b90508281106109ec576040517f08c379a00000000000000000000000000000000000000000000000000000000081526004016109e390613701565b60405180910390fd5b50505b600080610a0087868a60008a612427565b925050915060006004811115610a3f577f4e487b7100000000000000000000000000000000000000000000000000000000600052602160045260246000fd5b826004811115610a78577f4e487b7100000000000000000000000000000000000000000000000000000000600052602160045260246000fd5b14610ac057816004811115610ab6577f4e487b7100000000000000000000000000000000000000000000000000000000600052602160045260246000fd5b9350505050610b4c565b6000811115610b0c57600480811115610b02577f4e487b7100000000000000000000000000000000000000000000000000000000600052602160045260246000fd5b9350505050610b4c565b60006004811115610b46577f4e487b7100000000000000000000000000000000000000000000000000000000600052602160045260246000fd5b93505050505b949350505050565b600160008273ffffffffffffffffffffffffffffffffffffffff1673ffffffffffffffffffffffffffffffffffffffff16815260200190815260200160002060000160040160009054906101000a900460ff16610be6576040517f08c379a0000000000000000000000000000000000000000000000000000000008152600401610bdd90613721565b60405180910390fd5b6000600160008373ffffffffffffffffffffffffffffffffffffffff1673ffffffffffffffffffffffffffffffffffffffff16815260200190815260200160002060000160020160006101000a81548160ff021916908315150217905550600260008273ffffffffffffffffffffffffffffffffffffffff1673ffffffffffffffffffffffffffffffffffffffff16815260200190815260200160002060008082016000610c949190612975565b600182016000610ca49190612975565b6002820160006101000a81549060ff021916905560038201600090556004820160006101000a81549060ff0219169055505050565b600160008273ffffffffffffffffffffffffffffffffffffffff1673ffffffffffffffffffffffffffffffffffffffff16815260200190815260200160002060000160040160009054906101000a900460ff16610d6b576040517f08c379a0000000000000000000000000000000000000000000000000000000008152600401610d6290613721565b60405180910390fd5b60018060008373ffffffffffffffffffffffffffffffffffffffff1673ffffffffffffffffffffffffffffffffffffffff16815260200190815260200160002060000160020160006101000a81548160ff021916908315150217905550600160008273ffffffffffffffffffffffffffffffffffffffff1673ffffffffffffffffffffffffffffffffffffffff168152602001908152602001600020600001600260008373ffffffffffffffffffffffffffffffffffffffff1673ffffffffffffffffffffffffffffffffffffffff1681526020019081526020016000206000820181600001908054610e5d90613b0a565b610e689291906129b5565b506001820181600101908054610e7d90613b0a565b610e889291906129b5565b506002820160009054906101000a900460ff168160020160006101000a81548160ff021916908315150217905550600382015481600301556004820160009054906101000a900460ff168160040160006101000a81548160ff02191690831515021790555090505050565b6002602052806000526040600020600091509050806000018054610f1690613b0a565b80601f0160208091040260200160405190810160405280929190818152602001828054610f4290613b0a565b8015610f8f5780601f10610f6457610100808354040283529160200191610f8f565b820191906000526020600020905b815481529060010190602001808311610f7257829003601f168201915b505050505090806001018054610fa490613b0a565b80601f0160208091040260200160405190810160405280929190818152602001828054610fd090613b0a565b801561101d5780601f10610ff25761010080835404028352916020019161101d565b820191906000526020600020905b81548152906001019060200180831161100057829003601f168201915b5050505050908060020160009054906101000a900460ff16908060030154908060040160009054906101000a900460ff16905085565b60046020528060005260406000206000915090505481565b611073612922565b73ffffffffffffffffffffffffffffffffffffffff16611091611265565b73ffffffffffffffffffffffffffffffffffffffff16146110e7576040517f08c379a00000000000000000000000000000000000000000000000000000000081526004016110de906136a1565b60405180910390fd5b600073ffffffffffffffffffffffffffffffffffffffff1660008054906101000a900473ffffffffffffffffffffffffffffffffffffffff1673ffffffffffffffffffffffffffffffffffffffff167f8be0079c531659141344cd1fd0a4f28419497f9722a3daafe3b4186f6b6457e060405160405180910390a360008060006101000a81548173ffffffffffffffffffffffffffffffffffffffff021916908373ffffffffffffffffffffffffffffffffffffffff160217905550565b6111ad612922565b73ffffffffffffffffffffffffffffffffffffffff166111cb611265565b73ffffffffffffffffffffffffffffffffffffffff1614611221576040517f08c379a0000000000000000000000000000000000000000000000000000000008152600401611218906136a1565b60405180910390fd5b80600860006101000a81548173ffffffffffffffffffffffffffffffffffffffff021916908373ffffffffffffffffffffffffffffffffffffffff16021790555050565b60008060009054906101000a900473ffffffffffffffffffffffffffffffffffffffff16905090565b6001602052806000526040600020600091509050806000016040518060a00160405290816000820180546112c190613b0a565b80601f01602080910402602001604051908101604052809291908181526020018280546112ed90613b0a565b801561133a5780601f1061130f5761010080835404028352916020019161133a565b820191906000526020600020905b81548152906001019060200180831161131d57829003601f168201915b5050505050815260200160018201805461135390613b0a565b80601f016020809104026020016040519081016040528092919081815260200182805461137f90613b0a565b80156113cc5780601f106113a1576101008083540402835291602001916113cc565b820191906000526020600020905b8154815290600101906020018083116113af57829003601f168201915b505050505081526020016002820160009054906101000a900460ff16151515158152602001600382015481526020016004820160009054906101000a900460ff161515151581525050905081565b60008060008060008061143288886000806000612427565b925092509250826004811115611471577f4e487b7100000000000000000000000000000000000000000000000000000000600052602160045260246000fd5b82829550955095505050509250925092565b6060600083839050905060008167ffffffffffffffff8111156114cf577f4e487b7100000000000000000000000000000000000000000000000000000000600052604160045260246000fd5b6040519080825280602002602001820160405280156114fd5781602001602082028036833780820191505090505b50905060005b828110156115f8576000868683818110611546577f4e487b7100000000000000000000000000000000000000000000000000000000600052603260045260246000fd5b905060200201602081019061155b9190612c89565b9050611567813361221c565b600481111561159f577f4e487b7100000000000000000000000000000000000000000000000000000000600052602160045260246000fd5b8383815181106115d8577f4e487b7100000000000000000000000000000000000000000000000000000000600052603260045260246000fd5b6020026020010181815250505080806115f090613b3c565b915050611503565b50809250505092915050565b61160c612922565b73ffffffffffffffffffffffffffffffffffffffff1661162a611265565b73ffffffffffffffffffffffffffffffffffffffff1614611680576040517f08c379a0000000000000000000000000000000000000000000000000000000008152600401611677906136a1565b60405180910390fd5b6000600160008673ffffffffffffffffffffffffffffffffffffffff1673ffffffffffffffffffffffffffffffffffffffff168152602001908152602001600020905060018160000160020160006101000a81548160ff02191690831515021790555060018160000160040160006101000a81548160ff0219169083151502179055508381600001600301819055508281600001600001908051906020019061172a929190612a42565b5081816000016001019080519060200190611746929190612a42565b5080600001600260008773ffffffffffffffffffffffffffffffffffffffff1673ffffffffffffffffffffffffffffffffffffffff168152602001908152602001600020600082018160000190805461179e90613b0a565b6117a99291906129b5565b5060018201816001019080546117be90613b0a565b6117c99291906129b5565b506002820160009054906101000a900460ff168160020160006101000a81548160ff021916908315150217905550600382015481600301556004820160009054906101000a900460ff168160040160006101000a81548160ff0219169083151502179055509050506001600660008282546118449190613947565b925050819055506007859080600181540180825580915050600190039060005260206000200160009091909190916101000a81548173ffffffffffffffffffffffffffffffffffffffff021916908373ffffffffffffffffffffffffffffffffffffffff1602179055505050505050565b60036020528060005260406000206000915054906101000a900460ff1681565b600560205281600052604060002081815481106118f157600080fd5b906000526020600020016000915091509054906101000a900473ffffffffffffffffffffffffffffffffffffffff1681565b600061192d612922565b73ffffffffffffffffffffffffffffffffffffffff1661194b611265565b73ffffffffffffffffffffffffffffffffffffffff16146119a1576040517f08c379a0000000000000000000000000000000000000000000000000000000008152600401611998906136a1565b60405180910390fd5b600160008473ffffffffffffffffffffffffffffffffffffffff1673ffffffffffffffffffffffffffffffffffffffff16815260200190815260200160002060000160020160009054906101000a900460ff16611a33576040517f08c379a0000000000000000000000000000000000000000000000000000000008152600401611a2a906136e1565b60405180910390fd5b81600360008573ffffffffffffffffffffffffffffffffffffffff1673ffffffffffffffffffffffffffffffffffffffff16815260200190815260200160002060006101000a81548160ff0219169083151502179055507f71aec636243f9709bb0007ae15e9afb8150ab01716d75fd7573be5cc096e03b08383604051611abb9291906134a2565b60405180910390a181905092915050565b6060806060806060600060065467ffffffffffffffff811115611b18577f4e487b7100000000000000000000000000000000000000000000000000000000600052604160045260246000fd5b604051908082528060200260200182016040528015611b465781602001602082028036833780820191505090505b509050600060065467ffffffffffffffff811115611b8d577f4e487b7100000000000000000000000000000000000000000000000000000000600052604160045260246000fd5b604051908082528060200260200182016040528015611bc057816020015b6060815260200190600190039081611bab5790505b509050600060065467ffffffffffffffff811115611c07577f4e487b7100000000000000000000000000000000000000000000000000000000600052604160045260246000fd5b604051908082528060200260200182016040528015611c3a57816020015b6060815260200190600190039081611c255790505b509050600060065467ffffffffffffffff811115611c81577f4e487b7100000000000000000000000000000000000000000000000000000000600052604160045260246000fd5b604051908082528060200260200182016040528015611caf5781602001602082028036833780820191505090505b50905060005b600654811015611fcf5760006001600060078481548110611cff577f4e487b7100000000000000000000000000000000000000000000000000000000600052603260045260246000fd5b9060005260206000200160009054906101000a900473ffffffffffffffffffffffffffffffffffffffff1673ffffffffffffffffffffffffffffffffffffffff1673ffffffffffffffffffffffffffffffffffffffff16815260200190815260200160002090508060000160020160009054906101000a900460ff16868381518110611db4577f4e487b7100000000000000000000000000000000000000000000000000000000600052603260045260246000fd5b602002602001019015159081151581525050806000016000018054611dd890613b0a565b80601f0160208091040260200160405190810160405280929190818152602001828054611e0490613b0a565b8015611e515780601f10611e2657610100808354040283529160200191611e51565b820191906000526020600020905b815481529060010190602001808311611e3457829003601f168201915b5050505050858381518110611e8f577f4e487b7100000000000000000000000000000000000000000000000000000000600052603260045260246000fd5b6020026020010181905250806000016001018054611eac90613b0a565b80601f0160208091040260200160405190810160405280929190818152602001828054611ed890613b0a565b8015611f255780601f10611efa57610100808354040283529160200191611f25565b820191906000526020600020905b815481529060010190602001808311611f0857829003601f168201915b5050505050848381518110611f63577f4e487b7100000000000000000000000000000000000000000000000000000000600052603260045260246000fd5b60200260200101819052508060000160030154838381518110611faf577f4e487b7100000000000000000000000000000000000000000000000000000000600052603260045260246000fd5b602002602001018181525050508080611fc790613b3c565b915050611cb5565b506007838583858480548060200260200160405190810160405280929190818152602001828054801561205757602002820191906000526020600020905b8160009054906101000a900473ffffffffffffffffffffffffffffffffffffffff1673ffffffffffffffffffffffffffffffffffffffff168152602001906001019080831161200d575b5050505050945098509850985098509850505050509091929394565b61207b612922565b73ffffffffffffffffffffffffffffffffffffffff16612099611265565b73ffffffffffffffffffffffffffffffffffffffff16146120ef576040517f08c379a00000000000000000000000000000000000000000000000000000000081526004016120e6906136a1565b60405180910390fd5b600073ffffffffffffffffffffffffffffffffffffffff168173ffffffffffffffffffffffffffffffffffffffff16141561215f576040517f08c379a000000000000000000000000000000000000000000000000000000000815260040161215690613681565b60405180910390fd5b8073ffffffffffffffffffffffffffffffffffffffff1660008054906101000a900473ffffffffffffffffffffffffffffffffffffffff1673ffffffffffffffffffffffffffffffffffffffff167f8be0079c531659141344cd1fd0a4f28419497f9722a3daafe3b4186f6b6457e060405160405180910390a3806000806101000a81548173ffffffffffffffffffffffffffffffffffffffff021916908373ffffffffffffffffffffffffffffffffffffffff16021790555050565b600080600160008573ffffffffffffffffffffffffffffffffffffffff1673ffffffffffffffffffffffffffffffffffffffff16815260200190815260200160002090508060000160020160009054906101000a900460ff16612283576001915050612421565b600115158160050160008573ffffffffffffffffffffffffffffffffffffffff1673ffffffffffffffffffffffffffffffffffffffff16815260200190815260200160002060009054906101000a900460ff16151514156122e8576000915050612421565b60018160050160008573ffffffffffffffffffffffffffffffffffffffff1673ffffffffffffffffffffffffffffffffffffffff16815260200190815260200160002060006101000a81548160ff021916908315150217905550600560008473ffffffffffffffffffffffffffffffffffffffff1673ffffffffffffffffffffffffffffffffffffffff168152602001908152602001600020849080600181540180825580915050600190039060005260206000200160009091909190916101000a81548173ffffffffffffffffffffffffffffffffffffffff021916908373ffffffffffffffffffffffffffffffffffffffff1602179055507f3ab23ab0d51cccc0c3085aec51f99228625aa1a922b3a8ca89a26b0f2027a1a584846040516124139291906135d5565b60405180910390a160009150505b92915050565b6000806000612434612ac8565b600080600560008c73ffffffffffffffffffffffffffffffffffffffff1673ffffffffffffffffffffffffffffffffffffffff1681526020019081526020016000208054806020026020016040519081016040528092919081815260200182805480156124f657602002820191906000526020600020905b8160009054906101000a900473ffffffffffffffffffffffffffffffffffffffff1673ffffffffffffffffffffffffffffffffffffffff16815260200190600101908083116124ac575b5050505050905060005b81518110156128bf576000828281518110612544577f4e487b7100000000000000000000000000000000000000000000000000000000600052603260045260246000fd5b602002602001015190508073ffffffffffffffffffffffffffffffffffffffff166355a1ac2e8e8e6040518363ffffffff1660e01b81526004016125899291906134de565b60606040518083038186803b1580156125a157600080fd5b505afa1580156125b5573d6000803e3d6000fd5b505050506040513d601f19601f820116820180604052508101906125d99190612ecf565b876000018860200182815250828152508296505050506000841461260c5760026000809750975097505050505050612917565b600160008273ffffffffffffffffffffffffffffffffffffffff1673ffffffffffffffffffffffffffffffffffffffff16815260200190815260200160002060000160030154856040018181525050600860009054906101000a900473ffffffffffffffffffffffffffffffffffffffff1673ffffffffffffffffffffffffffffffffffffffff1663fe2c61988273ffffffffffffffffffffffffffffffffffffffff16636c02a9316040518163ffffffff1660e01b815260040160006040518083038186803b1580156126df57600080fd5b505afa1580156126f3573d6000803e3d6000fd5b505050506040513d6000823e3d601f19601f8201168201806040525081019061271c9190612e65565b6040518263ffffffff1660e01b815260040161273891906135fe565b60206040518083038186803b15801561275057600080fd5b505afa158015612764573d6000803e3d6000fd5b505050506040513d601f19601f820116820180604052508101906127889190612ea6565b8560600181815250506000856060015114156127b35760036000809750975097505050505050612917565b84608001516127ee8660600151620f42406127df89604001518a6000015161292a90919063ffffffff16565b6129539092919063ffffffff16565b6127f89190613947565b8560800181815250508460a001516128268660600151620f424088602001516129539092919063ffffffff16565b6128309190613947565b8560a00181815250508a73ffffffffffffffffffffffffffffffffffffffff168173ffffffffffffffffffffffffffffffffffffffff1614156128ab57600089146128aa578460a001516128968660600151620f42408c6129539092919063ffffffff16565b6128a09190613947565b8560a00181815250505b5b5080806128b790613b3c565b915050612500565b508260a00151836080015111156128f65760008360a0015184608001516128e69190613a28565b6000955095509550505050612917565b60008084608001518560a0015161290d9190613a28565b9550955095505050505b955095509592505050565b600033905090565b6000670de0b6b3a7640000828461294191906139ce565b61294b919061399d565b905092915050565b600081838561296291906139ce565b61296c919061399d565b90509392505050565b50805461298190613b0a565b6000825580601f1061299357506129b2565b601f0160209004906000526020600020908101906129b19190612afe565b5b50565b8280546129c190613b0a565b90600052602060002090601f0160209004810192826129e35760008555612a31565b82601f106129f45780548555612a31565b82800160010185558215612a3157600052602060002091601f016020900482015b82811115612a30578254825591600101919060010190612a15565b5b509050612a3e9190612afe565b5090565b828054612a4e90613b0a565b90600052602060002090601f016020900481019282612a705760008555612ab7565b82601f10612a8957805160ff1916838001178555612ab7565b82800160010185558215612ab7579182015b82811115612ab6578251825591602001919060010190612a9b565b5b509050612ac49190612afe565b5090565b6040518060c001604052806000815260200160008152602001600081526020016000815260200160008152602001600081525090565b5b80821115612b17576000816000905550600101612aff565b5090565b6000612b2e612b2984613806565b6137d5565b905082815260208101848484011115612b4657600080fd5b612b51848285613ac8565b509392505050565b6000612b6c612b6784613806565b6137d5565b905082815260208101848484011115612b8457600080fd5b612b8f848285613ad7565b509392505050565b600081359050612ba681613c52565b92915050565b60008083601f840112612bbe57600080fd5b8235905067ffffffffffffffff811115612bd757600080fd5b602083019150836020820283011115612bef57600080fd5b9250929050565b600081359050612c0581613c69565b92915050565b600082601f830112612c1c57600080fd5b8135612c2c848260208601612b1b565b91505092915050565b600082601f830112612c4657600080fd5b8151612c56848260208601612b59565b91505092915050565b600081359050612c6e81613c80565b92915050565b600081519050612c8381613c80565b92915050565b600060208284031215612c9b57600080fd5b6000612ca984828501612b97565b91505092915050565b60008060008060808587031215612cc857600080fd5b6000612cd687828801612b97565b9450506020612ce787828801612b97565b9350506040612cf887828801612c5f565b9250506060612d0987828801612c5f565b91505092959194509250565b60008060408385031215612d2857600080fd5b6000612d3685828601612b97565b9250506020612d4785828601612bf6565b9150509250929050565b60008060408385031215612d6457600080fd5b6000612d7285828601612b97565b9250506020612d8385828601612c5f565b9150509250929050565b60008060008060808587031215612da357600080fd5b6000612db187828801612b97565b9450506020612dc287828801612c5f565b935050604085013567ffffffffffffffff811115612ddf57600080fd5b612deb87828801612c0b565b925050606085013567ffffffffffffffff811115612e0857600080fd5b612e1487828801612c0b565b91505092959194509250565b60008060208385031215612e3357600080fd5b600083013567ffffffffffffffff811115612e4d57600080fd5b612e5985828601612bac565b92509250509250929050565b600060208284031215612e7757600080fd5b600082015167ffffffffffffffff811115612e9157600080fd5b612e9d84828501612c35565b91505092915050565b600060208284031215612eb857600080fd5b6000612ec684828501612c74565b91505092915050565b600080600060608486031215612ee457600080fd5b6000612ef286828701612c74565b9350506020612f0386828701612c74565b9250506040612f1486828701612c74565b9150509250925092565b6000612f2a8383612f7a565b60208301905092915050565b6000612f428383613127565b60208301905092915050565b6000612f5a8383613154565b905092915050565b6000612f6e8383613469565b60208301905092915050565b612f8381613a5c565b82525050565b612f9281613a5c565b82525050565b6000612fa382613876565b612fad81856138e1565b9350612fb883613836565b8060005b83811015612fe9578151612fd08882612f1e565b9750612fdb836138ad565b925050600181019050612fbc565b5085935050505092915050565b600061300182613881565b61300b81856138f2565b935061301683613846565b8060005b8381101561304757815161302e8882612f36565b9750613039836138ba565b92505060018101905061301a565b5085935050505092915050565b600061305f8261388c565b6130698185613903565b93508360208202850161307b85613856565b8060005b858110156130b757848403895281516130988582612f4e565b94506130a3836138c7565b925060208a0199505060018101905061307f565b50829750879550505050505092915050565b60006130d482613897565b6130de8185613914565b93506130e983613866565b8060005b8381101561311a5781516131018882612f62565b975061310c836138d4565b9250506001810190506130ed565b5085935050505092915050565b61313081613a6e565b82525050565b61313f81613a6e565b82525050565b61314e81613aa4565b82525050565b600061315f826138a2565b6131698185613925565b9350613179818560208601613ad7565b61318281613c41565b840191505092915050565b6000613198826138a2565b6131a28185613936565b93506131b2818560208601613ad7565b6131bb81613c41565b840191505092915050565b60006131d3602683613936565b91507f4f776e61626c653a206e6577206f776e657220697320746865207a65726f206160008301527f64647265737300000000000000000000000000000000000000000000000000006020830152604082019050919050565b6000613239600683613936565b91507f426f72726f7700000000000000000000000000000000000000000000000000006000830152602082019050919050565b6000613279602083613936565b91507f4f776e61626c653a2063616c6c6572206973206e6f7420746865206f776e65726000830152602082019050919050565b60006132b9601583613936565b91507f73656e646572206d7573742062652063546f6b656e00000000000000000000006000830152602082019050919050565b60006132f9600a83613936565b91507f6e6f74206c6973746564000000000000000000000000000000000000000000006000830152602082019050919050565b6000613339601983613936565b91507f6d61726b657420626f72726f77206361702072656163686564000000000000006000830152602082019050919050565b6000613379601783613936565b91507f41646472657373206973206e6f742061206d61726b65740000000000000000006000830152602082019050919050565b60006133b9601083613936565b91507f626f72726f7720697320706175736564000000000000000000000000000000006000830152602082019050919050565b600060a08301600083015184820360008601526134098282613154565b915050602083015184820360208601526134238282613154565b91505060408301516134386040860182613127565b50606083015161344b6060860182613469565b50608083015161345e6080860182613127565b508091505092915050565b61347281613a9a565b82525050565b61348181613a9a565b82525050565b600060208201905061349c6000830184612f89565b92915050565b60006060820190506134b76000830185612f89565b81810360208301526134c88161322c565b90506134d76040830184613136565b9392505050565b60006040820190506134f36000830185612f89565b6135006020830184613478565b9392505050565b600060a08201905081810360008301526135218188612f98565b905081810360208301526135358187613054565b905081810360408301526135498186612ff6565b9050818103606083015261355d81856130c9565b905081810360808301526135718184613054565b90509695505050505050565b6000602082019050818103600083015261359781846130c9565b905092915050565b60006020820190506135b46000830184613136565b92915050565b60006020820190506135cf6000830184613145565b92915050565b60006040820190506135ea6000830185613145565b6135f76020830184612f89565b9392505050565b60006020820190508181036000830152613618818461318d565b905092915050565b600060a082019050818103600083015261363a818861318d565b9050818103602083015261364e818761318d565b905061365d6040830186613136565b61366a6060830185613478565b6136776080830184613136565b9695505050505050565b6000602082019050818103600083015261369a816131c6565b9050919050565b600060208201905081810360008301526136ba8161326c565b9050919050565b600060208201905081810360008301526136da816132ac565b9050919050565b600060208201905081810360008301526136fa816132ec565b9050919050565b6000602082019050818103600083015261371a8161332c565b9050919050565b6000602082019050818103600083015261373a8161336c565b9050919050565b6000602082019050818103600083015261375a816133ac565b9050919050565b6000602082019050818103600083015261377b81846133ec565b905092915050565b60006020820190506137986000830184613478565b92915050565b60006060820190506137b36000830186613478565b6137c06020830185613478565b6137cd6040830184613478565b949350505050565b6000604051905081810181811067ffffffffffffffff821117156137fc576137fb613c12565b5b8060405250919050565b600067ffffffffffffffff82111561382157613820613c12565b5b601f19601f8301169050602081019050919050565b6000819050602082019050919050565b6000819050602082019050919050565b6000819050602082019050919050565b6000819050602082019050919050565b600081519050919050565b600081519050919050565b600081519050919050565b600081519050919050565b600081519050919050565b6000602082019050919050565b6000602082019050919050565b6000602082019050919050565b6000602082019050919050565b600082825260208201905092915050565b600082825260208201905092915050565b600082825260208201905092915050565b600082825260208201905092915050565b600082825260208201905092915050565b600082825260208201905092915050565b600061395282613a9a565b915061395d83613a9a565b9250827fffffffffffffffffffffffffffffffffffffffffffffffffffffffffffffffff0382111561399257613991613b85565b5b828201905092915050565b60006139a882613a9a565b91506139b383613a9a565b9250826139c3576139c2613bb4565b5b828204905092915050565b60006139d982613a9a565b91506139e483613a9a565b9250817fffffffffffffffffffffffffffffffffffffffffffffffffffffffffffffffff0483118215151615613a1d57613a1c613b85565b5b828202905092915050565b6000613a3382613a9a565b9150613a3e83613a9a565b925082821015613a5157613a50613b85565b5b828203905092915050565b6000613a6782613a7a565b9050919050565b60008115159050919050565b600073ffffffffffffffffffffffffffffffffffffffff82169050919050565b6000819050919050565b6000613aaf82613ab6565b9050919050565b6000613ac182613a7a565b9050919050565b82818337600083830152505050565b60005b83811015613af5578082015181840152602081019050613ada565b83811115613b04576000848401525b50505050565b60006002820490506001821680613b2257607f821691505b60208210811415613b3657613b35613be3565b5b50919050565b6000613b4782613a9a565b91507fffffffffffffffffffffffffffffffffffffffffffffffffffffffffffffffff821415613b7a57613b79613b85565b5b600182019050919050565b7f4e487b7100000000000000000000000000000000000000000000000000000000600052601160045260246000fd5b7f4e487b7100000000000000000000000000000000000000000000000000000000600052601260045260246000fd5b7f4e487b7100000000000000000000000000000000000000000000000000000000600052602260045260246000fd5b7f4e487b7100000000000000000000000000000000000000000000000000000000600052604160045260246000fd5b6000601f19601f8301169050919050565b613c5b81613a5c565b8114613c6657600080fd5b50565b613c7281613a6e565b8114613c7d57600080fd5b50565b613c8981613a9a565b8114613c9457600080fd5b5056fea26469706673582212201f7bb567a0673cc5d187bc6fe5febdf5d681d363132178c6afb24c788923bf5164736f6c63430008000033",
  "devdoc": {
    "kind": "dev",
    "methods": {
      "enableMarket(address,uint256,string,string)": {
        "details": "Function to enable a certain Exafin market to be used as collateral",
        "params": {
          "collateralFactor": "exafin's collateral factor for the underlying asset",
          "exafin": "address to add to the protocol"
        }
      },
      "enterMarkets(address[])": {
        "details": "Allows wallet to enter certain markets (exafinDAI, exafinETH, etc) By performing this action, the wallet's money could be used as collateral",
        "params": {
          "exafins": "contracts addresses to enable for `msg.sender`"
        }
      },
      "getAccountLiquidity(address,uint256)": {
        "details": "Function to get account's liquidity for a certain maturity pool",
        "params": {
          "account": "wallet to retrieve liquidity for a certain maturity date",
          "maturityDate": "timestamp to calculate maturity's pool"
        }
      },
      "getMarkets()": {
        "details": "List all markets, listed or not"
      },
      "listMarket(address)": {
        "details": "Add market to listedMarkets and change boolean to true",
        "params": {
          "exafin": "address to add to the protocol"
        }
      },
      "owner()": {
        "details": "Returns the address of the current owner."
      },
      "pauseBorrow(address,bool)": {
        "details": "Function to pause/unpause borrowing on a certain market",
        "params": {
          "exafin": "address to pause",
          "paused": "true/false"
        }
      },
      "renounceOwnership()": {
        "details": "Leaves the contract without owner. It will not be possible to call `onlyOwner` functions anymore. Can only be called by the current owner. NOTE: Renouncing ownership will leave the contract without an owner, thereby removing any functionality that is only available to the owner."
      },
      "transferOwnership(address)": {
        "details": "Transfers ownership of the contract to a new account (`newOwner`). Can only be called by the current owner."
      },
      "unlistMarket(address)": {
        "details": "Delete market to listedMarkets and change boolean to false",
        "params": {
          "exafin": "address to add to the protocol"
        }
      }
    },
    "version": 1
  },
  "userdoc": {
    "kind": "user",
    "methods": {},
    "version": 1
  },
  "storageLayout": {
    "storage": [
      {
        "astId": 7,
        "contract": "contracts/ExaFront.sol:ExaFront",
        "label": "_owner",
        "offset": 0,
        "slot": "0",
        "type": "t_address"
      },
      {
        "astId": 797,
        "contract": "contracts/ExaFront.sol:ExaFront",
        "label": "markets",
        "offset": 0,
        "slot": "1",
        "type": "t_mapping(t_address,t_struct(Market)841_storage)"
      },
      {
        "astId": 802,
        "contract": "contracts/ExaFront.sol:ExaFront",
        "label": "listedMarkets",
        "offset": 0,
        "slot": "2",
        "type": "t_mapping(t_address,t_struct(BaseMarket)833_storage)"
      },
      {
        "astId": 806,
        "contract": "contracts/ExaFront.sol:ExaFront",
        "label": "borrowPaused",
        "offset": 0,
        "slot": "3",
        "type": "t_mapping(t_address,t_bool)"
      },
      {
        "astId": 810,
        "contract": "contracts/ExaFront.sol:ExaFront",
        "label": "borrowCaps",
        "offset": 0,
        "slot": "4",
        "type": "t_mapping(t_address,t_uint256)"
      },
      {
        "astId": 816,
        "contract": "contracts/ExaFront.sol:ExaFront",
        "label": "accountAssets",
        "offset": 0,
        "slot": "5",
        "type": "t_mapping(t_address,t_array(t_contract(IExafin)1846)dyn_storage)"
      },
      {
        "astId": 819,
        "contract": "contracts/ExaFront.sol:ExaFront",
        "label": "marketCount",
        "offset": 0,
        "slot": "6",
        "type": "t_uint256"
      },
      {
        "astId": 822,
        "contract": "contracts/ExaFront.sol:ExaFront",
        "label": "marketsAddress",
        "offset": 0,
        "slot": "7",
        "type": "t_array(t_address)dyn_storage"
      },
      {
        "astId": 857,
        "contract": "contracts/ExaFront.sol:ExaFront",
        "label": "oracle",
        "offset": 0,
        "slot": "8",
        "type": "t_contract(Oracle)1856"
      }
    ],
    "types": {
      "t_address": {
        "encoding": "inplace",
        "label": "address",
        "numberOfBytes": "20"
      },
      "t_array(t_address)dyn_storage": {
        "base": "t_address",
        "encoding": "dynamic_array",
        "label": "address[]",
        "numberOfBytes": "32"
      },
      "t_array(t_contract(IExafin)1846)dyn_storage": {
        "base": "t_contract(IExafin)1846",
        "encoding": "dynamic_array",
        "label": "contract IExafin[]",
        "numberOfBytes": "32"
      },
      "t_bool": {
        "encoding": "inplace",
        "label": "bool",
        "numberOfBytes": "1"
      },
      "t_contract(IExafin)1846": {
        "encoding": "inplace",
        "label": "contract IExafin",
        "numberOfBytes": "20"
      },
      "t_contract(Oracle)1856": {
        "encoding": "inplace",
        "label": "contract Oracle",
        "numberOfBytes": "20"
      },
      "t_mapping(t_address,t_array(t_contract(IExafin)1846)dyn_storage)": {
        "encoding": "mapping",
        "key": "t_address",
        "label": "mapping(address => contract IExafin[])",
        "numberOfBytes": "32",
        "value": "t_array(t_contract(IExafin)1846)dyn_storage"
      },
      "t_mapping(t_address,t_bool)": {
        "encoding": "mapping",
        "key": "t_address",
        "label": "mapping(address => bool)",
        "numberOfBytes": "32",
        "value": "t_bool"
      },
      "t_mapping(t_address,t_struct(BaseMarket)833_storage)": {
        "encoding": "mapping",
        "key": "t_address",
        "label": "mapping(address => struct ExaFront.BaseMarket)",
        "numberOfBytes": "32",
        "value": "t_struct(BaseMarket)833_storage"
      },
      "t_mapping(t_address,t_struct(Market)841_storage)": {
        "encoding": "mapping",
        "key": "t_address",
        "label": "mapping(address => struct ExaFront.Market)",
        "numberOfBytes": "32",
        "value": "t_struct(Market)841_storage"
      },
      "t_mapping(t_address,t_uint256)": {
        "encoding": "mapping",
        "key": "t_address",
        "label": "mapping(address => uint256)",
        "numberOfBytes": "32",
        "value": "t_uint256"
      },
      "t_string_storage": {
        "encoding": "bytes",
        "label": "string",
        "numberOfBytes": "32"
      },
      "t_struct(BaseMarket)833_storage": {
        "encoding": "inplace",
        "label": "struct ExaFront.BaseMarket",
        "members": [
          {
            "astId": 824,
            "contract": "contracts/ExaFront.sol:ExaFront",
            "label": "symbol",
            "offset": 0,
            "slot": "0",
            "type": "t_string_storage"
          },
          {
            "astId": 826,
            "contract": "contracts/ExaFront.sol:ExaFront",
            "label": "name",
            "offset": 0,
            "slot": "1",
            "type": "t_string_storage"
          },
          {
            "astId": 828,
            "contract": "contracts/ExaFront.sol:ExaFront",
            "label": "isListed",
            "offset": 0,
            "slot": "2",
            "type": "t_bool"
          },
          {
            "astId": 830,
            "contract": "contracts/ExaFront.sol:ExaFront",
            "label": "collateralFactor",
            "offset": 0,
            "slot": "3",
            "type": "t_uint256"
          },
          {
            "astId": 832,
            "contract": "contracts/ExaFront.sol:ExaFront",
            "label": "exists",
            "offset": 0,
            "slot": "4",
            "type": "t_bool"
          }
        ],
        "numberOfBytes": "160"
      },
      "t_struct(Market)841_storage": {
        "encoding": "inplace",
        "label": "struct ExaFront.Market",
        "members": [
          {
            "astId": 836,
            "contract": "contracts/ExaFront.sol:ExaFront",
            "label": "baseMarket",
            "offset": 0,
            "slot": "0",
            "type": "t_struct(BaseMarket)833_storage"
          },
          {
            "astId": 840,
            "contract": "contracts/ExaFront.sol:ExaFront",
            "label": "accountMembership",
            "offset": 0,
            "slot": "5",
            "type": "t_mapping(t_address,t_bool)"
          }
        ],
        "numberOfBytes": "192"
      },
      "t_uint256": {
        "encoding": "inplace",
        "label": "uint256",
        "numberOfBytes": "32"
      }
    }
  }
}