{
  "address": "0xB51F32A6B1B2B106ED8715Ba2109d4eF84de6636",
  "abi": [
    {
      "inputs": [
        {
          "internalType": "address",
          "name": "_tokenAddress",
          "type": "address"
        },
        {
          "internalType": "string",
          "name": "_tokenName",
          "type": "string"
        },
        {
          "internalType": "address",
          "name": "_exaFrontAddress",
          "type": "address"
        }
      ],
      "stateMutability": "nonpayable",
      "type": "constructor"
    },
    {
      "anonymous": false,
      "inputs": [
        {
          "indexed": true,
          "internalType": "address",
          "name": "to",
          "type": "address"
        },
        {
          "indexed": false,
          "internalType": "uint256",
          "name": "amount",
          "type": "uint256"
        },
        {
          "indexed": false,
          "internalType": "uint256",
          "name": "commission",
          "type": "uint256"
        },
        {
          "indexed": false,
          "internalType": "uint256",
          "name": "maturityDate",
          "type": "uint256"
        }
      ],
      "name": "Borrowed",
      "type": "event"
    },
    {
      "anonymous": false,
      "inputs": [
        {
          "indexed": true,
          "internalType": "address",
          "name": "previousOwner",
          "type": "address"
        },
        {
          "indexed": true,
          "internalType": "address",
          "name": "newOwner",
          "type": "address"
        }
      ],
      "name": "OwnershipTransferred",
      "type": "event"
    },
    {
      "anonymous": false,
      "inputs": [
        {
          "indexed": true,
          "internalType": "address",
          "name": "from",
          "type": "address"
        },
        {
          "indexed": false,
          "internalType": "uint256",
          "name": "amount",
          "type": "uint256"
        },
        {
          "indexed": false,
          "internalType": "uint256",
          "name": "commission",
          "type": "uint256"
        },
        {
          "indexed": false,
          "internalType": "uint256",
          "name": "maturityDate",
          "type": "uint256"
        }
      ],
      "name": "Redeemed",
      "type": "event"
    },
    {
      "anonymous": false,
      "inputs": [
        {
          "indexed": true,
          "internalType": "address",
          "name": "from",
          "type": "address"
        },
        {
          "indexed": false,
          "internalType": "uint256",
          "name": "amount",
          "type": "uint256"
        },
        {
          "indexed": false,
          "internalType": "uint256",
          "name": "commission",
          "type": "uint256"
        },
        {
          "indexed": false,
          "internalType": "uint256",
          "name": "maturityDate",
          "type": "uint256"
        }
      ],
      "name": "Repaid",
      "type": "event"
    },
    {
      "anonymous": false,
      "inputs": [
        {
          "indexed": true,
          "internalType": "address",
          "name": "from",
          "type": "address"
        },
        {
          "indexed": false,
          "internalType": "uint256",
          "name": "amount",
          "type": "uint256"
        },
        {
          "indexed": false,
          "internalType": "uint256",
          "name": "commission",
          "type": "uint256"
        },
        {
          "indexed": false,
          "internalType": "uint256",
          "name": "maturityDate",
          "type": "uint256"
        }
      ],
      "name": "Supplied",
      "type": "event"
    },
    {
      "inputs": [
        {
          "internalType": "address",
          "name": "",
          "type": "address"
        },
        {
          "internalType": "uint256",
          "name": "",
          "type": "uint256"
        }
      ],
      "name": "addressPools",
      "outputs": [
        {
          "internalType": "uint256",
          "name": "",
          "type": "uint256"
        }
      ],
      "stateMutability": "view",
      "type": "function"
    },
    {
      "inputs": [
        {
          "internalType": "address",
          "name": "to",
          "type": "address"
        },
        {
          "internalType": "uint256",
          "name": "amount",
          "type": "uint256"
        },
        {
          "internalType": "uint256",
          "name": "maturityDate",
          "type": "uint256"
        }
      ],
      "name": "borrow",
      "outputs": [],
      "stateMutability": "nonpayable",
      "type": "function"
    },
    {
      "inputs": [
        {
          "internalType": "uint256",
          "name": "",
          "type": "uint256"
        },
        {
          "internalType": "address",
          "name": "",
          "type": "address"
        }
      ],
      "name": "borrowedAmounts",
      "outputs": [
        {
          "internalType": "uint256",
          "name": "",
          "type": "uint256"
        }
      ],
      "stateMutability": "view",
      "type": "function"
    },
    {
      "inputs": [
        {
          "internalType": "address",
          "name": "who",
          "type": "address"
        },
        {
          "internalType": "uint256",
          "name": "maturityDate",
          "type": "uint256"
        }
      ],
      "name": "getAccountSnapshot",
      "outputs": [
        {
          "internalType": "uint256",
          "name": "",
          "type": "uint256"
        },
        {
          "internalType": "uint256",
          "name": "",
          "type": "uint256"
        },
        {
          "internalType": "uint256",
          "name": "",
          "type": "uint256"
        }
      ],
      "stateMutability": "view",
      "type": "function"
    },
    {
      "inputs": [
        {
          "internalType": "uint256",
          "name": "maturityDate",
          "type": "uint256"
        }
      ],
      "name": "getTotalBorrows",
      "outputs": [
        {
          "internalType": "uint256",
          "name": "",
          "type": "uint256"
        }
      ],
      "stateMutability": "view",
      "type": "function"
    },
    {
      "inputs": [],
      "name": "owner",
      "outputs": [
        {
          "internalType": "address",
          "name": "",
          "type": "address"
        }
      ],
      "stateMutability": "view",
      "type": "function"
    },
    {
      "inputs": [
        {
          "internalType": "uint256",
          "name": "",
          "type": "uint256"
        }
      ],
      "name": "pools",
      "outputs": [
        {
          "internalType": "uint256",
          "name": "lent",
          "type": "uint256"
        },
        {
          "internalType": "uint256",
          "name": "supplied",
          "type": "uint256"
        }
      ],
      "stateMutability": "view",
      "type": "function"
    },
    {
      "inputs": [
        {
          "internalType": "uint256",
          "name": "amount",
          "type": "uint256"
        },
        {
          "internalType": "uint256",
          "name": "maturityDate",
          "type": "uint256"
        }
      ],
      "name": "rateForSupply",
      "outputs": [
        {
          "internalType": "uint256",
          "name": "",
          "type": "uint256"
        },
        {
          "components": [
            {
              "internalType": "uint256",
              "name": "lent",
              "type": "uint256"
            },
            {
              "internalType": "uint256",
              "name": "supplied",
              "type": "uint256"
            }
          ],
          "internalType": "struct Pool",
          "name": "",
          "type": "tuple"
        }
      ],
      "stateMutability": "view",
      "type": "function"
    },
    {
      "inputs": [
        {
          "internalType": "uint256",
          "name": "amount",
          "type": "uint256"
        },
        {
          "internalType": "uint256",
          "name": "maturityDate",
          "type": "uint256"
        }
      ],
      "name": "rateToBorrow",
      "outputs": [
        {
          "internalType": "uint256",
          "name": "",
          "type": "uint256"
        },
        {
          "components": [
            {
              "internalType": "uint256",
              "name": "lent",
              "type": "uint256"
            },
            {
              "internalType": "uint256",
              "name": "supplied",
              "type": "uint256"
            }
          ],
          "internalType": "struct Pool",
          "name": "",
          "type": "tuple"
        }
      ],
      "stateMutability": "view",
      "type": "function"
    },
    {
      "inputs": [
        {
          "internalType": "address payable",
          "name": "redeemer",
          "type": "address"
        },
        {
          "internalType": "uint256",
          "name": "redeemAmount",
          "type": "uint256"
        },
        {
          "internalType": "uint256",
          "name": "commission",
          "type": "uint256"
        },
        {
          "internalType": "uint256",
          "name": "maturityDate",
          "type": "uint256"
        }
      ],
      "name": "redeem",
      "outputs": [],
      "stateMutability": "nonpayable",
      "type": "function"
    },
    {
      "inputs": [],
      "name": "renounceOwnership",
      "outputs": [],
      "stateMutability": "nonpayable",
      "type": "function"
    },
    {
      "inputs": [
        {
          "internalType": "address payable",
          "name": "borrower",
          "type": "address"
        },
        {
          "internalType": "uint256",
          "name": "repayAmount",
          "type": "uint256"
        },
        {
          "internalType": "uint256",
          "name": "commission",
          "type": "uint256"
        },
        {
          "internalType": "uint256",
          "name": "maturityDate",
          "type": "uint256"
        }
      ],
      "name": "repay",
      "outputs": [],
      "stateMutability": "nonpayable",
      "type": "function"
    },
    {
      "inputs": [
        {
          "internalType": "uint256",
          "name": "",
          "type": "uint256"
        },
        {
          "internalType": "address",
          "name": "",
          "type": "address"
        }
      ],
      "name": "suppliedAmmounts",
      "outputs": [
        {
          "internalType": "uint256",
          "name": "",
          "type": "uint256"
        }
      ],
      "stateMutability": "view",
      "type": "function"
    },
    {
      "inputs": [
        {
          "internalType": "address",
          "name": "from",
          "type": "address"
        },
        {
          "internalType": "uint256",
          "name": "amount",
          "type": "uint256"
        },
        {
          "internalType": "uint256",
          "name": "maturityDate",
          "type": "uint256"
        }
      ],
      "name": "supply",
      "outputs": [],
      "stateMutability": "nonpayable",
      "type": "function"
    },
    {
      "inputs": [],
      "name": "tokenName",
      "outputs": [
        {
          "internalType": "string",
          "name": "",
          "type": "string"
        }
      ],
      "stateMutability": "view",
      "type": "function"
    },
    {
      "inputs": [
        {
          "internalType": "address",
          "name": "newOwner",
          "type": "address"
        }
      ],
      "name": "transferOwnership",
      "outputs": [],
      "stateMutability": "nonpayable",
      "type": "function"
    }
  ],
  "transactionHash": "0xe86c30b1d7f3564f9a6d17d85ac93380b4484d5c418f6ee8794454bf2f6eaa42",
  "args": [
    "0xC02aaA39b223FE8D0A0e5C4F27eAD9083C756Cc2",
    "ETH",
    "0x1c7B43a0bbab0a5EA0A1435F31D1c8e05Cc6aE98"
  ],
  "solcInputHash": "f4edefc07f15eaaed019105c5613081f",
  "bytecode": "0x60806040523480156200001157600080fd5b50604051620038f7380380620038f78339818101604052810190620000379190620007ab565b6000620000496200022960201b60201c565b9050806000806101000a81548173ffffffffffffffffffffffffffffffffffffffff021916908373ffffffffffffffffffffffffffffffffffffffff1602179055508073ffffffffffffffffffffffffffffffffffffffff16600073ffffffffffffffffffffffffffffffffffffffff167f8be0079c531659141344cd1fd0a4f28419497f9722a3daafe3b4186f6b6457e060405160405180910390a35082600860006101000a81548173ffffffffffffffffffffffffffffffffffffffff021916908373ffffffffffffffffffffffffffffffffffffffff1602179055506200019c307fffffffffffffffffffffffffffffffffffffffffffffffffffffffffffffffff600860009054906101000a900473ffffffffffffffffffffffffffffffffffffffff1673ffffffffffffffffffffffffffffffffffffffff166200023160201b620016e4179092919060201c565b8160099080519060200190620001b492919062000644565b5080600a60006101000a81548173ffffffffffffffffffffffffffffffffffffffff021916908373ffffffffffffffffffffffffffffffffffffffff16021790555066470de4df820000600581905550662386f26fc1000060068190555066f8b0a10e47000060078190555050505062000db1565b600033905090565b6000811480620002d1575060008373ffffffffffffffffffffffffffffffffffffffff1663dd62ed3e30856040518363ffffffff1660e01b81526004016200027b92919062000a9f565b60206040518083038186803b1580156200029457600080fd5b505afa158015620002a9573d6000803e3d6000fd5b505050506040513d601f19601f82011682018060405250810190620002cf919062000846565b145b62000313576040517f08c379a00000000000000000000000000000000000000000000000000000000081526004016200030a9062000b83565b60405180910390fd5b6200039e8363095ea7b360e01b84846040516024016200033592919062000acc565b604051602081830303815290604052907bffffffffffffffffffffffffffffffffffffffffffffffffffffffff19166020820180517bffffffffffffffffffffffffffffffffffffffffffffffffffffffff8381831617835250505050620003a360201b60201c565b505050565b60006200040c826040518060400160405280602081526020017f5361666545524332303a206c6f772d6c6576656c2063616c6c206661696c65648152508573ffffffffffffffffffffffffffffffffffffffff166200047760201b62001842179092919060201c565b90506000815111156200047257808060200190518101906200042f91906200081a565b62000471576040517f08c379a0000000000000000000000000000000000000000000000000000000008152600401620004689062000b61565b60405180910390fd5b5b505050565b60606200048e84846000856200049760201b60201c565b90509392505050565b606082471015620004df576040517f08c379a0000000000000000000000000000000000000000000000000000000008152600401620004d69062000b1d565b60405180910390fd5b620004f085620005c560201b60201c565b62000532576040517f08c379a0000000000000000000000000000000000000000000000000000000008152600401620005299062000b3f565b60405180910390fd5b6000808673ffffffffffffffffffffffffffffffffffffffff1685876040516200055d919062000a86565b60006040518083038185875af1925050503d80600081146200059c576040519150601f19603f3d011682016040523d82523d6000602084013e620005a1565b606091505b5091509150620005b9828286620005d860201b60201c565b92505050949350505050565b600080823b905060008111915050919050565b60608315620005ea578290506200063d565b600083511115620005fe5782518084602001fd5b816040517f08c379a000000000000000000000000000000000000000000000000000000000815260040162000634919062000af9565b60405180910390fd5b9392505050565b828054620006529062000cbe565b90600052602060002090601f016020900481019282620006765760008555620006c2565b82601f106200069157805160ff1916838001178555620006c2565b82800160010185558215620006c2579182015b82811115620006c1578251825591602001919060010190620006a4565b5b509050620006d19190620006d5565b5090565b5b80821115620006f0576000816000905550600101620006d6565b5090565b60006200070b620007058462000bd9565b62000ba5565b9050828152602081018484840111156200072457600080fd5b6200073184828562000c88565b509392505050565b6000815190506200074a8162000d63565b92915050565b600081519050620007618162000d7d565b92915050565b600082601f8301126200077957600080fd5b81516200078b848260208601620006f4565b91505092915050565b600081519050620007a58162000d97565b92915050565b600080600060608486031215620007c157600080fd5b6000620007d18682870162000739565b935050602084015167ffffffffffffffff811115620007ef57600080fd5b620007fd8682870162000767565b9250506040620008108682870162000739565b9150509250925092565b6000602082840312156200082d57600080fd5b60006200083d8482850162000750565b91505092915050565b6000602082840312156200085957600080fd5b6000620008698482850162000794565b91505092915050565b6200087d8162000c3e565b82525050565b6000620008908262000c0c565b6200089c818562000c22565b9350620008ae81856020860162000c88565b80840191505092915050565b6000620008c78262000c17565b620008d3818562000c2d565b9350620008e581856020860162000c88565b620008f08162000d52565b840191505092915050565b60006200090a60268362000c2d565b91507f416464726573733a20696e73756666696369656e742062616c616e636520666f60008301527f722063616c6c00000000000000000000000000000000000000000000000000006020830152604082019050919050565b600062000972601d8362000c2d565b91507f416464726573733a2063616c6c20746f206e6f6e2d636f6e74726163740000006000830152602082019050919050565b6000620009b4602a8362000c2d565b91507f5361666545524332303a204552433230206f7065726174696f6e20646964206e60008301527f6f742073756363656564000000000000000000000000000000000000000000006020830152604082019050919050565b600062000a1c60368362000c2d565b91507f5361666545524332303a20617070726f76652066726f6d206e6f6e2d7a65726f60008301527f20746f206e6f6e2d7a65726f20616c6c6f77616e6365000000000000000000006020830152604082019050919050565b62000a808162000c7e565b82525050565b600062000a94828462000883565b915081905092915050565b600060408201905062000ab6600083018562000872565b62000ac5602083018462000872565b9392505050565b600060408201905062000ae3600083018562000872565b62000af2602083018462000a75565b9392505050565b6000602082019050818103600083015262000b158184620008ba565b905092915050565b6000602082019050818103600083015262000b3881620008fb565b9050919050565b6000602082019050818103600083015262000b5a8162000963565b9050919050565b6000602082019050818103600083015262000b7c81620009a5565b9050919050565b6000602082019050818103600083015262000b9e8162000a0d565b9050919050565b6000604051905081810181811067ffffffffffffffff8211171562000bcf5762000bce62000d23565b5b8060405250919050565b600067ffffffffffffffff82111562000bf75762000bf662000d23565b5b601f19601f8301169050602081019050919050565b600081519050919050565b600081519050919050565b600081905092915050565b600082825260208201905092915050565b600062000c4b8262000c5e565b9050919050565b60008115159050919050565b600073ffffffffffffffffffffffffffffffffffffffff82169050919050565b6000819050919050565b60005b8381101562000ca857808201518184015260208101905062000c8b565b8381111562000cb8576000848401525b50505050565b6000600282049050600182168062000cd757607f821691505b6020821081141562000cee5762000ced62000cf4565b5b50919050565b7f4e487b7100000000000000000000000000000000000000000000000000000000600052602260045260246000fd5b7f4e487b7100000000000000000000000000000000000000000000000000000000600052604160045260246000fd5b6000601f19601f8301169050919050565b62000d6e8162000c3e565b811462000d7a57600080fd5b50565b62000d888162000c52565b811462000d9457600080fd5b50565b62000da28162000c7e565b811462000dae57600080fd5b50565b612b368062000dc16000396000f3fe608060405234801561001057600080fd5b50600436106101005760003560e01c8063a2bcf02111610097578063d2cdcad311610066578063d2cdcad3146102c4578063ea1cd41f146102f4578063ea2092f314610324578063f2fde38b1461034057610100565b8063a2bcf02114610215578063a82eff2114610246578063ac4afa3814610277578063c1bce0b7146102a857610100565b80636c02a931116100d35780636c02a931146101b3578063715018a6146101d15780637dbca353146101db5780638da5cb5b146101f757610100565b80630d6547a2146101055780631c00f695146101355780633c5b1c591461015157806355a1ac2e14610181575b600080fd5b61011f600480360381019061011a9190611dd2565b61035c565b60405161012c91906126f5565b60405180910390f35b61014f600480360381019061014a9190611c69565b610381565b005b61016b60048036038101906101669190611ccc565b6106ea565b60405161017891906126f5565b60405180910390f35b61019b60048036038101906101969190611ccc565b61071b565b6040516101aa93929190612762565b60405180910390f35b6101bb6107de565b6040516101c891906124f3565b60405180910390f35b6101d961086c565b005b6101f560048036038101906101f09190611d08565b6109a6565b005b6101ff610b70565b60405161020c919061238e565b60405180910390f35b61022f600480360381019061022a9190611e0e565b610b99565b60405161023d929190612710565b60405180910390f35b610260600480360381019061025b9190611e0e565b610ccf565b60405161026e929190612710565b60405180910390f35b610291600480360381019061028c9190611d80565b610df8565b60405161029f929190612739565b60405180910390f35b6102c260048036038101906102bd9190611d08565b610e1c565b005b6102de60048036038101906102d99190611dd2565b611119565b6040516102eb91906126f5565b60405180910390f35b61030e60048036038101906103099190611d80565b61113e565b60405161031b91906126f5565b60405180910390f35b61033e60048036038101906103399190611c69565b61116b565b005b61035a60048036038101906103559190611c40565b61153b565b005b6001602052816000526040600020602052806000526040600020600091509150505481565b60008314156103c5576040517f08c379a00000000000000000000000000000000000000000000000000000000081526004016103bc906125b5565b60405180910390fd5b6000600a60009054906101000a900473ffffffffffffffffffffffffffffffffffffffff1673ffffffffffffffffffffffffffffffffffffffff1663b962aaeb3087876040518463ffffffff1660e01b8152600401610426939291906123d2565b602060405180830381600087803b15801561044057600080fd5b505af1158015610454573d6000803e3d6000fd5b505050506040513d601f19601f820116820180604052508101906104789190611da9565b9050600060048111156104b4577f4e487b7100000000000000000000000000000000000000000000000000000000600052602160045260246000fd5b81146104f5576040517f08c379a00000000000000000000000000000000000000000000000000000000081526004016104ec906125d5565b60405180910390fd5b60006105008361185a565b9050804211610544576040517f08c379a000000000000000000000000000000000000000000000000000000000815260040161053b90612615565b60405180910390fd5b6000848661055291906127cb565b905060006002600084815260200190815260200160002060008973ffffffffffffffffffffffffffffffffffffffff1673ffffffffffffffffffffffffffffffffffffffff1681526020019081526020016000205490508181146105eb576040517f08c379a00000000000000000000000000000000000000000000000000000000081526004016105e290612595565b60405180910390fd5b61063a883084600860009054906101000a900473ffffffffffffffffffffffffffffffffffffffff1673ffffffffffffffffffffffffffffffffffffffff16611879909392919063ffffffff16565b6002600084815260200190815260200160002060008973ffffffffffffffffffffffffffffffffffffffff1673ffffffffffffffffffffffffffffffffffffffff168152602001908152602001600020600090558773ffffffffffffffffffffffffffffffffffffffff167f07178c166b5aef4d8409e6bbfd0e7b1ad42c92eb65903a5e5482166f3f4e62f08888886040516106d893929190612762565b60405180910390a25050505050505050565b6004602052816000526040600020818154811061070657600080fd5b90600052602060002001600091509150505481565b60008060008061072a8561185a565b905060006001600083815260200190815260200160002060008873ffffffffffffffffffffffffffffffffffffffff1673ffffffffffffffffffffffffffffffffffffffff168152602001908152602001600020546002600084815260200190815260200160002060008973ffffffffffffffffffffffffffffffffffffffff1673ffffffffffffffffffffffffffffffffffffffff16815260200190815260200160002054935093509350509250925092565b600980546107eb906129a3565b80601f0160208091040260200160405190810160405280929190818152602001828054610817906129a3565b80156108645780601f1061083957610100808354040283529160200191610864565b820191906000526020600020905b81548152906001019060200180831161084757829003601f168201915b505050505081565b610874611902565b73ffffffffffffffffffffffffffffffffffffffff16610892610b70565b73ffffffffffffffffffffffffffffffffffffffff16146108e8576040517f08c379a00000000000000000000000000000000000000000000000000000000081526004016108df906125f5565b60405180910390fd5b600073ffffffffffffffffffffffffffffffffffffffff1660008054906101000a900473ffffffffffffffffffffffffffffffffffffffff1673ffffffffffffffffffffffffffffffffffffffff167f8be0079c531659141344cd1fd0a4f28419497f9722a3daafe3b4186f6b6457e060405160405180910390a360008060006101000a81548173ffffffffffffffffffffffffffffffffffffffff021916908373ffffffffffffffffffffffffffffffffffffffff160217905550565b60006109b18261185a565b90508042106109f5576040517f08c379a00000000000000000000000000000000000000000000000000000000081526004016109ec90612635565b60405180910390fd5b600080610a028585610ccf565b915091506000670de0b6b3a76400008387610a1d9190612852565b610a279190612821565b90508086610a3591906127cb565b6001600086815260200190815260200160002060008973ffffffffffffffffffffffffffffffffffffffff1673ffffffffffffffffffffffffffffffffffffffff1681526020019081526020016000206000828254610a9491906127cb565b9250508190555081600360008681526020019081526020016000206000820151816000015560208201518160010155905050610b15873088600860009054906101000a900473ffffffffffffffffffffffffffffffffffffffff1673ffffffffffffffffffffffffffffffffffffffff16611879909392919063ffffffff16565b8673ffffffffffffffffffffffffffffffffffffffff167f59c246e4b3d64f626b5eac2dd8e3a3c46c4531e9cc40ef4e6f120fcb3df6be1e878387604051610b5f93929190612762565b60405180910390a250505050505050565b60008060009054906101000a900473ffffffffffffffffffffffffffffffffffffffff16905090565b6000610ba3611bbd565b6000610bae8461185a565b9050804210610bf2576040517f08c379a0000000000000000000000000000000000000000000000000000000008152600401610be990612635565b60405180910390fd5b6000600360008381526020019081526020016000206040518060400160405290816000820154815260200160018201548152505090508581600001818151610c3a91906127cb565b91508181525050600062015180610c504261190a565b84610c5b91906128ac565b610c659190612821565b9050600082602001518360000151600754610c809190612852565b610c8a9190612821565b600654600554610c9a91906127cb565b610ca491906127cb565b905061016d8282610cb59190612852565b610cbf9190612821565b8395509550505050509250929050565b6000610cd9611bbd565b6000610ce48461185a565b9050804210610d28576040517f08c379a0000000000000000000000000000000000000000000000000000000008152600401610d1f90612635565b60405180910390fd5b6000600360008381526020019081526020016000206040518060400160405290816000820154815260200160018201548152505090508581602001818151610d7091906127cb565b91508181525050600062015180610d864261190a565b84610d9191906128ac565b610d9b9190612821565b9050600082602001518360000151600754610db69190612852565b610dc09190612821565b600554610dcd91906127cb565b905061016d8282610dde9190612852565b610de89190612821565b8395509550505050509250929050565b60036020528060005260406000206000915090508060000154908060010154905082565b6000610e278261185a565b9050804210610e6b576040517f08c379a0000000000000000000000000000000000000000000000000000000008152600401610e6290612635565b60405180910390fd5b600080610e788585610b99565b915091506000600a60009054906101000a900473ffffffffffffffffffffffffffffffffffffffff1673ffffffffffffffffffffffffffffffffffffffff1663059a8008308989896040518563ffffffff1660e01b8152600401610edf9493929190612485565b602060405180830381600087803b158015610ef957600080fd5b505af1158015610f0d573d6000803e3d6000fd5b505050506040513d601f19601f82011682018060405250810190610f319190611da9565b905060006004811115610f6d577f4e487b7100000000000000000000000000000000000000000000000000000000600052602160045260246000fd5b8114610fae576040517f08c379a0000000000000000000000000000000000000000000000000000000008152600401610fa590612555565b60405180910390fd5b6000670de0b6b3a76400008488610fc59190612852565b610fcf9190612821565b90508087610fdd91906127cb565b6002600087815260200190815260200160002060008a73ffffffffffffffffffffffffffffffffffffffff1673ffffffffffffffffffffffffffffffffffffffff168152602001908152602001600020600082825461103c91906127cb565b92505081905550826003600087815260200190815260200160002060008201518160000155602082015181600101559050506110bd308989600860009054906101000a900473ffffffffffffffffffffffffffffffffffffffff1673ffffffffffffffffffffffffffffffffffffffff16611879909392919063ffffffff16565b8773ffffffffffffffffffffffffffffffffffffffff167fc4381c9c7b508979896c55381c1cb8c2aef28d753cff7661f9cd87b9a14584f888838860405161110793929190612762565b60405180910390a25050505050505050565b6002602052816000526040600020602052806000526040600020600091509150505481565b60008061114a8361185a565b90506003600082815260200190815260200160002060000154915050919050565b60008314156111af576040517f08c379a00000000000000000000000000000000000000000000000000000000081526004016111a690612515565b60405180910390fd5b600083836111bd91906127cb565b90506000600a60009054906101000a900473ffffffffffffffffffffffffffffffffffffffff1673ffffffffffffffffffffffffffffffffffffffff16632f8832d6308885876040518563ffffffff1660e01b81526004016112229493929190612409565b60206040518083038186803b15801561123a57600080fd5b505afa15801561124e573d6000803e3d6000fd5b505050506040513d601f19601f820116820180604052508101906112729190611da9565b9050600060048111156112ae577f4e487b7100000000000000000000000000000000000000000000000000000000600052602160045260246000fd5b81146112ef576040517f08c379a00000000000000000000000000000000000000000000000000000000081526004016112e690612675565b60405180910390fd5b60006112fa8461185a565b905080421161133e576040517f08c379a000000000000000000000000000000000000000000000000000000000815260040161133590612615565b60405180910390fd5b826001600083815260200190815260200160002060008973ffffffffffffffffffffffffffffffffffffffff1673ffffffffffffffffffffffffffffffffffffffff168152602001908152602001600020600082825461139e91906128ac565b9250508190555082600860009054906101000a900473ffffffffffffffffffffffffffffffffffffffff1673ffffffffffffffffffffffffffffffffffffffff166370a08231306040518263ffffffff1660e01b8152600401611401919061238e565b60206040518083038186803b15801561141957600080fd5b505afa15801561142d573d6000803e3d6000fd5b505050506040513d601f19601f820116820180604052508101906114519190611da9565b11611491576040517f08c379a000000000000000000000000000000000000000000000000000000000815260040161148890612695565b60405180910390fd5b6114e0308885600860009054906101000a900473ffffffffffffffffffffffffffffffffffffffff1673ffffffffffffffffffffffffffffffffffffffff16611879909392919063ffffffff16565b8673ffffffffffffffffffffffffffffffffffffffff167f484c40561359f3e3b8be9101897f8680aa82fbe1df9fd9038e0dbc628403264687878760405161152a93929190612762565b60405180910390a250505050505050565b611543611902565b73ffffffffffffffffffffffffffffffffffffffff16611561610b70565b73ffffffffffffffffffffffffffffffffffffffff16146115b7576040517f08c379a00000000000000000000000000000000000000000000000000000000081526004016115ae906125f5565b60405180910390fd5b600073ffffffffffffffffffffffffffffffffffffffff168173ffffffffffffffffffffffffffffffffffffffff161415611627576040517f08c379a000000000000000000000000000000000000000000000000000000000815260040161161e90612535565b60405180910390fd5b8073ffffffffffffffffffffffffffffffffffffffff1660008054906101000a900473ffffffffffffffffffffffffffffffffffffffff1673ffffffffffffffffffffffffffffffffffffffff167f8be0079c531659141344cd1fd0a4f28419497f9722a3daafe3b4186f6b6457e060405160405180910390a3806000806101000a81548173ffffffffffffffffffffffffffffffffffffffff021916908373ffffffffffffffffffffffffffffffffffffffff16021790555050565b600081148061177d575060008373ffffffffffffffffffffffffffffffffffffffff1663dd62ed3e30856040518363ffffffff1660e01b815260040161172b9291906123a9565b60206040518083038186803b15801561174357600080fd5b505afa158015611757573d6000803e3d6000fd5b505050506040513d601f19601f8201168201806040525081019061177b9190611da9565b145b6117bc576040517f08c379a00000000000000000000000000000000000000000000000000000000081526004016117b3906126d5565b60405180910390fd5b61183d8363095ea7b360e01b84846040516024016117db9291906124ca565b604051602081830303815290604052907bffffffffffffffffffffffffffffffffffffffffffffffffffffffff19166020820180517bffffffffffffffffffffffffffffffffffffffffffffffffffffffff838183161783525050505061192d565b505050565b606061185184846000856119f4565b90509392505050565b60008061186e61186984611b08565b611b2b565b905080915050919050565b6118fc846323b872dd60e01b85858560405160240161189a9392919061244e565b604051602081830303815290604052907bffffffffffffffffffffffffffffffffffffffffffffffffffffffff19166020820180517bffffffffffffffffffffffffffffffffffffffffffffffffffffffff838183161783525050505061192d565b50505050565b600033905090565b6000620151808261191b91906129d5565b8261192691906128ac565b9050919050565b600061198f826040518060400160405280602081526020017f5361666545524332303a206c6f772d6c6576656c2063616c6c206661696c65648152508573ffffffffffffffffffffffffffffffffffffffff166118429092919063ffffffff16565b90506000815111156119ef57808060200190518101906119af9190611d57565b6119ee576040517f08c379a00000000000000000000000000000000000000000000000000000000081526004016119e5906126b5565b60405180910390fd5b5b505050565b606082471015611a39576040517f08c379a0000000000000000000000000000000000000000000000000000000008152600401611a3090612575565b60405180910390fd5b611a4285611b43565b611a81576040517f08c379a0000000000000000000000000000000000000000000000000000000008152600401611a7890612655565b60405180910390fd5b6000808673ffffffffffffffffffffffffffffffffffffffff168587604051611aaa9190612377565b60006040518083038185875af1925050503d8060008114611ae7576040519150601f19603f3d011682016040523d82523d6000602084013e611aec565b606091505b5091509150611afc828286611b56565b92505050949350505050565b600062278d0082611b1991906129d5565b82611b2491906128ac565b9050919050565b600062278d0082611b3c91906127cb565b9050919050565b600080823b905060008111915050919050565b60608315611b6657829050611bb6565b600083511115611b795782518084602001fd5b816040517f08c379a0000000000000000000000000000000000000000000000000000000008152600401611bad91906124f3565b60405180910390fd5b9392505050565b604051806040016040528060008152602001600081525090565b600081359050611be681612aa4565b92915050565b600081359050611bfb81612abb565b92915050565b600081519050611c1081612ad2565b92915050565b600081359050611c2581612ae9565b92915050565b600081519050611c3a81612ae9565b92915050565b600060208284031215611c5257600080fd5b6000611c6084828501611bd7565b91505092915050565b60008060008060808587031215611c7f57600080fd5b6000611c8d87828801611bec565b9450506020611c9e87828801611c16565b9350506040611caf87828801611c16565b9250506060611cc087828801611c16565b91505092959194509250565b60008060408385031215611cdf57600080fd5b6000611ced85828601611bd7565b9250506020611cfe85828601611c16565b9150509250929050565b600080600060608486031215611d1d57600080fd5b6000611d2b86828701611bd7565b9350506020611d3c86828701611c16565b9250506040611d4d86828701611c16565b9150509250925092565b600060208284031215611d6957600080fd5b6000611d7784828501611c01565b91505092915050565b600060208284031215611d9257600080fd5b6000611da084828501611c16565b91505092915050565b600060208284031215611dbb57600080fd5b6000611dc984828501611c2b565b91505092915050565b60008060408385031215611de557600080fd5b6000611df385828601611c16565b9250506020611e0485828601611bd7565b9150509250929050565b60008060408385031215611e2157600080fd5b6000611e2f85828601611c16565b9250506020611e4085828601611c16565b9150509250929050565b611e538161293a565b82525050565b611e62816128e0565b82525050565b6000611e7382612799565b611e7d81856127af565b9350611e8d818560208601612970565b80840191505092915050565b6000611ea4826127a4565b611eae81856127ba565b9350611ebe818560208601612970565b611ec781612a93565b840191505092915050565b6000611edf6014836127ba565b91507f52656465656d2063616e2774206265207a65726f0000000000000000000000006000830152602082019050919050565b6000611f1f6026836127ba565b91507f4f776e61626c653a206e6577206f776e657220697320746865207a65726f206160008301527f64647265737300000000000000000000000000000000000000000000000000006020830152604082019050919050565b6000611f85601c836127ba565b91507f65786146726f6e74206e6f7420616c6c6f77696e6720626f72726f77000000006000830152602082019050919050565b6000611fc56026836127ba565b91507f416464726573733a20696e73756666696369656e742062616c616e636520666f60008301527f722063616c6c00000000000000000000000000000000000000000000000000006020830152604082019050919050565b600061202b6019836127ba565b91507f64656274206d757374206265207061696420696e2066756c6c000000000000006000830152602082019050919050565b600061206b6014836127ba565b91507f596f752063616e2774207265706179207a65726f0000000000000000000000006000830152602082019050919050565b60006120ab600b836127ba565b91507f4e6f7420616c6c6f7765640000000000000000000000000000000000000000006000830152602082019050919050565b60006120eb6020836127ba565b91507f4f776e61626c653a2063616c6c6572206973206e6f7420746865206f776e65726000830152602082019050919050565b600061212b6014836127ba565b91507f506f6f6c206e6f74206d617475726564207965740000000000000000000000006000830152602082019050919050565b600061216b6014836127ba565b91507f45786166696e3a20506f6f6c204d6174757265640000000000000000000000006000830152602082019050919050565b60006121ab601d836127ba565b91507f416464726573733a2063616c6c20746f206e6f6e2d636f6e74726163740000006000830152602082019050919050565b60006121eb600b836127ba565b91507f63616e742072656465656d0000000000000000000000000000000000000000006000830152602082019050919050565b600061222b6014836127ba565b91507f4e6f7420656e6f756768206c69717569646974790000000000000000000000006000830152602082019050919050565b600061226b602a836127ba565b91507f5361666545524332303a204552433230206f7065726174696f6e20646964206e60008301527f6f742073756363656564000000000000000000000000000000000000000000006020830152604082019050919050565b60006122d16036836127ba565b91507f5361666545524332303a20617070726f76652066726f6d206e6f6e2d7a65726f60008301527f20746f206e6f6e2d7a65726f20616c6c6f77616e6365000000000000000000006020830152604082019050919050565b6040820160008201516123406000850182612359565b5060208201516123536020850182612359565b50505050565b61236281612930565b82525050565b61237181612930565b82525050565b60006123838284611e68565b915081905092915050565b60006020820190506123a36000830184611e59565b92915050565b60006040820190506123be6000830185611e59565b6123cb6020830184611e59565b9392505050565b60006060820190506123e76000830186611e59565b6123f46020830185611e4a565b6124016040830184612368565b949350505050565b600060808201905061241e6000830187611e59565b61242b6020830186611e4a565b6124386040830185612368565b6124456060830184612368565b95945050505050565b60006060820190506124636000830186611e59565b6124706020830185611e59565b61247d6040830184612368565b949350505050565b600060808201905061249a6000830187611e59565b6124a76020830186611e59565b6124b46040830185612368565b6124c16060830184612368565b95945050505050565b60006040820190506124df6000830185611e59565b6124ec6020830184612368565b9392505050565b6000602082019050818103600083015261250d8184611e99565b905092915050565b6000602082019050818103600083015261252e81611ed2565b9050919050565b6000602082019050818103600083015261254e81611f12565b9050919050565b6000602082019050818103600083015261256e81611f78565b9050919050565b6000602082019050818103600083015261258e81611fb8565b9050919050565b600060208201905081810360008301526125ae8161201e565b9050919050565b600060208201905081810360008301526125ce8161205e565b9050919050565b600060208201905081810360008301526125ee8161209e565b9050919050565b6000602082019050818103600083015261260e816120de565b9050919050565b6000602082019050818103600083015261262e8161211e565b9050919050565b6000602082019050818103600083015261264e8161215e565b9050919050565b6000602082019050818103600083015261266e8161219e565b9050919050565b6000602082019050818103600083015261268e816121de565b9050919050565b600060208201905081810360008301526126ae8161221e565b9050919050565b600060208201905081810360008301526126ce8161225e565b9050919050565b600060208201905081810360008301526126ee816122c4565b9050919050565b600060208201905061270a6000830184612368565b92915050565b60006060820190506127256000830185612368565b612732602083018461232a565b9392505050565b600060408201905061274e6000830185612368565b61275b6020830184612368565b9392505050565b60006060820190506127776000830186612368565b6127846020830185612368565b6127916040830184612368565b949350505050565b600081519050919050565b600081519050919050565b600081905092915050565b600082825260208201905092915050565b60006127d682612930565b91506127e183612930565b9250827fffffffffffffffffffffffffffffffffffffffffffffffffffffffffffffffff0382111561281657612815612a06565b5b828201905092915050565b600061282c82612930565b915061283783612930565b92508261284757612846612a35565b5b828204905092915050565b600061285d82612930565b915061286883612930565b9250817fffffffffffffffffffffffffffffffffffffffffffffffffffffffffffffffff04831182151516156128a1576128a0612a06565b5b828202905092915050565b60006128b782612930565b91506128c283612930565b9250828210156128d5576128d4612a06565b5b828203905092915050565b60006128eb82612910565b9050919050565b60006128fd82612910565b9050919050565b60008115159050919050565b600073ffffffffffffffffffffffffffffffffffffffff82169050919050565b6000819050919050565b60006129458261294c565b9050919050565b60006129578261295e565b9050919050565b600061296982612910565b9050919050565b60005b8381101561298e578082015181840152602081019050612973565b8381111561299d576000848401525b50505050565b600060028204905060018216806129bb57607f821691505b602082108114156129cf576129ce612a64565b5b50919050565b60006129e082612930565b91506129eb83612930565b9250826129fb576129fa612a35565b5b828206905092915050565b7f4e487b7100000000000000000000000000000000000000000000000000000000600052601160045260246000fd5b7f4e487b7100000000000000000000000000000000000000000000000000000000600052601260045260246000fd5b7f4e487b7100000000000000000000000000000000000000000000000000000000600052602260045260246000fd5b6000601f19601f8301169050919050565b612aad816128e0565b8114612ab857600080fd5b50565b612ac4816128f2565b8114612acf57600080fd5b50565b612adb81612904565b8114612ae657600080fd5b50565b612af281612930565b8114612afd57600080fd5b5056fea26469706673582212205443143d42e4b0400477de9914a00a50ec537737869241b3d932baba1219a82264736f6c63430008000033",
  "devdoc": {
    "kind": "dev",
    "methods": {
      "borrow(address,uint256,uint256)": {
        "details": "Lends to a wallet for a certain maturity date/pool",
        "params": {
          "amount": "amount to send to the specified wallet",
          "maturityDate": "maturity date for repayment",
          "to": "wallet to send the amount"
        }
      },
      "getAccountSnapshot(address,uint256)": {
        "details": "Gets current snapshot for a wallet in a certain maturity",
        "params": {
          "maturityDate": "maturity date",
          "who": "wallet to return status snapshot in the specified maturity date"
        }
      },
      "getTotalBorrows(uint256)": {
        "details": "Gets the total amount of borrowed money for a maturityDate",
        "params": {
          "maturityDate": "maturity date"
        }
      },
      "owner()": {
        "details": "Returns the address of the current owner."
      },
      "rateForSupply(uint256,uint256)": {
        "details": "Rate that the protocol will pay when borrowing from an address a certain amount at the end of the maturity date",
        "params": {
          "amount": "amount to calculate how it would affect the pool ",
          "maturityDate": "maturity date to calculate the pool"
        }
      },
      "rateToBorrow(uint256,uint256)": {
        "details": "Rate that the protocol will collect when lending to an address a certain amount at the end of the maturity date",
        "params": {
          "amount": "amount to calculate how it would affect the pool ",
          "maturityDate": "maturity date to calculate the pool"
        }
      },
      "redeem(address,uint256,uint256,uint256)": {
        "details": "The pool that the user is trying to retrieve the money should be matured",
        "params": {
          "commission": "the amount that should be redeemed in comissions",
          "redeemAmount": "The number of underlying tokens to receive from redeeming this Exafin (only one of redeemTokensIn or redeemAmountIn may be non-zero)",
          "redeemer": "The address of the account which is redeeming the tokens"
        }
      },
      "renounceOwnership()": {
        "details": "Leaves the contract without owner. It will not be possible to call `onlyOwner` functions anymore. Can only be called by the current owner. NOTE: Renouncing ownership will leave the contract without an owner, thereby removing any functionality that is only available to the owner."
      },
      "repay(address,uint256,uint256,uint256)": {
        "details": "The pool that the user is trying to retrieve the money should be matured",
        "params": {
          "borrower": "The address of the account that has the debt",
          "commission": "the amount that should be paid in commissions",
          "repayAmount": "the amount of debt of the underlying token to be paid"
        }
      },
      "supply(address,uint256,uint256)": {
        "details": "Borrows from a wallet for a certain maturity date/pool",
        "params": {
          "amount": "amount to receive from the specified wallet",
          "from": "wallet to receive amount from",
          "maturityDate": "maturity date "
        }
      },
      "transferOwnership(address)": {
        "details": "Transfers ownership of the contract to a new account (`newOwner`). Can only be called by the current owner."
      }
    },
    "version": 1
  },
  "userdoc": {
    "kind": "user",
    "methods": {
      "redeem(address,uint256,uint256,uint256)": {
        "notice": "User redeems (TODO: voucher NFT) in exchange for the underlying asset"
      },
      "repay(address,uint256,uint256,uint256)": {
        "notice": "User repays (TODO: voucher NFT?) in exchange for the underlying asset"
      }
    },
    "version": 1
  },
  "storageLayout": {
    "storage": [
      {
        "astId": 375,
        "contract": "contracts/Exafin.sol:Exafin",
        "label": "_owner",
        "offset": 0,
        "slot": "0",
        "type": "t_address"
      },
      {
        "astId": 3217,
        "contract": "contracts/Exafin.sol:Exafin",
        "label": "suppliedAmmounts",
        "offset": 0,
        "slot": "1",
        "type": "t_mapping(t_uint256,t_mapping(t_address,t_uint256))"
      },
      {
        "astId": 3223,
        "contract": "contracts/Exafin.sol:Exafin",
        "label": "borrowedAmounts",
        "offset": 0,
        "slot": "2",
        "type": "t_mapping(t_uint256,t_mapping(t_address,t_uint256))"
      },
      {
        "astId": 3228,
        "contract": "contracts/Exafin.sol:Exafin",
        "label": "pools",
        "offset": 0,
        "slot": "3",
        "type": "t_mapping(t_uint256,t_struct(Pool)3986_storage)"
      },
      {
        "astId": 3233,
        "contract": "contracts/Exafin.sol:Exafin",
        "label": "addressPools",
        "offset": 0,
        "slot": "4",
        "type": "t_mapping(t_address,t_array(t_uint256)dyn_storage)"
      },
      {
        "astId": 3235,
        "contract": "contracts/Exafin.sol:Exafin",
        "label": "baseRate",
        "offset": 0,
        "slot": "5",
        "type": "t_uint256"
      },
      {
        "astId": 3237,
        "contract": "contracts/Exafin.sol:Exafin",
        "label": "marginRate",
        "offset": 0,
        "slot": "6",
        "type": "t_uint256"
      },
      {
        "astId": 3239,
        "contract": "contracts/Exafin.sol:Exafin",
        "label": "slopeRate",
        "offset": 0,
        "slot": "7",
        "type": "t_uint256"
      },
      {
        "astId": 3245,
        "contract": "contracts/Exafin.sol:Exafin",
        "label": "trustedUnderlying",
        "offset": 0,
        "slot": "8",
        "type": "t_contract(IERC20)555"
      },
      {
        "astId": 3248,
        "contract": "contracts/Exafin.sol:Exafin",
        "label": "tokenName",
        "offset": 0,
        "slot": "9",
        "type": "t_string_storage"
      },
      {
        "astId": 3251,
        "contract": "contracts/Exafin.sol:Exafin",
        "label": "exaFront",
        "offset": 0,
        "slot": "10",
        "type": "t_contract(IExaFront)3979"
      }
    ],
    "types": {
      "t_address": {
        "encoding": "inplace",
        "label": "address",
        "numberOfBytes": "20"
      },
      "t_array(t_uint256)dyn_storage": {
        "base": "t_uint256",
        "encoding": "dynamic_array",
        "label": "uint256[]",
        "numberOfBytes": "32"
      },
      "t_contract(IERC20)555": {
        "encoding": "inplace",
        "label": "contract IERC20",
        "numberOfBytes": "20"
      },
      "t_contract(IExaFront)3979": {
        "encoding": "inplace",
        "label": "contract IExaFront",
        "numberOfBytes": "20"
      },
      "t_mapping(t_address,t_array(t_uint256)dyn_storage)": {
        "encoding": "mapping",
        "key": "t_address",
        "label": "mapping(address => uint256[])",
        "numberOfBytes": "32",
        "value": "t_array(t_uint256)dyn_storage"
      },
      "t_mapping(t_address,t_uint256)": {
        "encoding": "mapping",
        "key": "t_address",
        "label": "mapping(address => uint256)",
        "numberOfBytes": "32",
        "value": "t_uint256"
      },
      "t_mapping(t_uint256,t_mapping(t_address,t_uint256))": {
        "encoding": "mapping",
        "key": "t_uint256",
        "label": "mapping(uint256 => mapping(address => uint256))",
        "numberOfBytes": "32",
        "value": "t_mapping(t_address,t_uint256)"
      },
      "t_mapping(t_uint256,t_struct(Pool)3986_storage)": {
        "encoding": "mapping",
        "key": "t_uint256",
        "label": "mapping(uint256 => struct Pool)",
        "numberOfBytes": "32",
        "value": "t_struct(Pool)3986_storage"
      },
      "t_string_storage": {
        "encoding": "bytes",
        "label": "string",
        "numberOfBytes": "32"
      },
      "t_struct(Pool)3986_storage": {
        "encoding": "inplace",
        "label": "struct Pool",
        "members": [
          {
            "astId": 3983,
            "contract": "contracts/Exafin.sol:Exafin",
            "label": "lent",
            "offset": 0,
            "slot": "0",
            "type": "t_uint256"
          },
          {
            "astId": 3985,
            "contract": "contracts/Exafin.sol:Exafin",
            "label": "supplied",
            "offset": 0,
            "slot": "1",
            "type": "t_uint256"
          }
        ],
        "numberOfBytes": "64"
      },
      "t_uint256": {
        "encoding": "inplace",
        "label": "uint256",
        "numberOfBytes": "32"
      }
    }
  }
}