{
  "address": "0xb435906bCcc084c610a1Bf6791e77fE172E6e6b3",
  "abi": [
    {
      "inputs": [
        {
          "internalType": "contract Auditor",
          "name": "auditor_",
          "type": "address"
        },
        {
          "internalType": "contract IPermit2",
          "name": "permit2_",
          "type": "address"
        },
        {
          "internalType": "contract IBalancerVault",
          "name": "balancerVault_",
          "type": "address"
        }
      ],
      "stateMutability": "nonpayable",
      "type": "constructor"
    },
    {
      "inputs": [],
      "name": "AllowanceSurplus",
      "type": "error"
    },
    {
      "inputs": [],
      "name": "Disagreement",
      "type": "error"
    },
    {
      "inputs": [],
      "name": "InvalidOperation",
      "type": "error"
    },
    {
      "inputs": [],
      "name": "MarketNotListed",
      "type": "error"
    },
    {
      "anonymous": false,
      "inputs": [
        {
          "indexed": false,
          "internalType": "uint8",
          "name": "version",
          "type": "uint8"
        }
      ],
      "name": "Initialized",
      "type": "event"
    },
    {
      "inputs": [],
      "name": "MAX_ALLOWANCE_SURPLUS",
      "outputs": [
        {
          "internalType": "uint256",
          "name": "",
          "type": "uint256"
        }
      ],
      "stateMutability": "view",
      "type": "function"
    },
    {
      "inputs": [
        {
          "internalType": "contract Market",
          "name": "market",
          "type": "address"
        }
      ],
      "name": "approve",
      "outputs": [],
      "stateMutability": "nonpayable",
      "type": "function"
    },
    {
      "inputs": [],
      "name": "auditor",
      "outputs": [
        {
          "internalType": "contract Auditor",
          "name": "",
          "type": "address"
        }
      ],
      "stateMutability": "view",
      "type": "function"
    },
    {
      "inputs": [],
      "name": "balancerVault",
      "outputs": [
        {
          "internalType": "contract IBalancerVault",
          "name": "",
          "type": "address"
        }
      ],
      "stateMutability": "view",
      "type": "function"
    },
    {
      "inputs": [
        {
          "internalType": "contract Market",
          "name": "market",
          "type": "address"
        },
        {
          "internalType": "uint256",
          "name": "withdraw",
          "type": "uint256"
        },
        {
          "internalType": "uint256",
          "name": "ratio",
          "type": "uint256"
        }
      ],
      "name": "deleverage",
      "outputs": [],
      "stateMutability": "nonpayable",
      "type": "function"
    },
    {
      "inputs": [
        {
          "internalType": "contract Market",
          "name": "market",
          "type": "address"
        },
        {
          "internalType": "uint256",
          "name": "withdraw",
          "type": "uint256"
        },
        {
          "internalType": "uint256",
          "name": "ratio",
          "type": "uint256"
        },
        {
          "components": [
            {
              "internalType": "address",
              "name": "account",
              "type": "address"
            },
            {
              "internalType": "uint256",
              "name": "value",
              "type": "uint256"
            },
            {
              "internalType": "uint256",
              "name": "deadline",
              "type": "uint256"
            },
            {
              "internalType": "uint8",
              "name": "v",
              "type": "uint8"
            },
            {
              "internalType": "bytes32",
              "name": "r",
              "type": "bytes32"
            },
            {
              "internalType": "bytes32",
              "name": "s",
              "type": "bytes32"
            }
          ],
          "internalType": "struct Permit",
          "name": "p",
          "type": "tuple"
        }
      ],
      "name": "deleverage",
      "outputs": [],
      "stateMutability": "nonpayable",
      "type": "function"
    },
    {
      "inputs": [],
      "name": "initialize",
      "outputs": [],
      "stateMutability": "nonpayable",
      "type": "function"
    },
    {
      "inputs": [
        {
          "internalType": "contract Market",
          "name": "market",
          "type": "address"
        },
        {
          "internalType": "uint256",
          "name": "deposit",
          "type": "uint256"
        },
        {
          "internalType": "uint256",
          "name": "ratio",
          "type": "uint256"
        }
      ],
      "name": "leverage",
      "outputs": [],
      "stateMutability": "nonpayable",
      "type": "function"
    },
    {
      "inputs": [
        {
          "internalType": "contract Market",
          "name": "market",
          "type": "address"
        },
        {
          "internalType": "uint256",
          "name": "deposit",
          "type": "uint256"
        },
        {
          "internalType": "uint256",
          "name": "ratio",
          "type": "uint256"
        },
        {
          "components": [
            {
              "internalType": "address",
              "name": "account",
              "type": "address"
            },
            {
              "internalType": "uint256",
              "name": "value",
              "type": "uint256"
            },
            {
              "internalType": "uint256",
              "name": "deadline",
              "type": "uint256"
            },
            {
              "internalType": "uint8",
              "name": "v",
              "type": "uint8"
            },
            {
              "internalType": "bytes32",
              "name": "r",
              "type": "bytes32"
            },
            {
              "internalType": "bytes32",
              "name": "s",
              "type": "bytes32"
            }
          ],
          "internalType": "struct Permit",
          "name": "marketPermit",
          "type": "tuple"
        }
      ],
      "name": "leverage",
      "outputs": [],
      "stateMutability": "nonpayable",
      "type": "function"
    },
    {
      "inputs": [
        {
          "internalType": "contract Market",
          "name": "market",
          "type": "address"
        },
        {
          "internalType": "uint256",
          "name": "deposit",
          "type": "uint256"
        },
        {
          "internalType": "uint256",
          "name": "ratio",
          "type": "uint256"
        },
        {
          "components": [
            {
              "internalType": "address",
              "name": "account",
              "type": "address"
            },
            {
              "internalType": "uint256",
              "name": "value",
              "type": "uint256"
            },
            {
              "internalType": "uint256",
              "name": "deadline",
              "type": "uint256"
            },
            {
              "internalType": "uint8",
              "name": "v",
              "type": "uint8"
            },
            {
              "internalType": "bytes32",
              "name": "r",
              "type": "bytes32"
            },
            {
              "internalType": "bytes32",
              "name": "s",
              "type": "bytes32"
            }
          ],
          "internalType": "struct Permit",
          "name": "marketPermit",
          "type": "tuple"
        },
        {
          "components": [
            {
              "internalType": "uint256",
              "name": "deadline",
              "type": "uint256"
            },
            {
              "internalType": "bytes",
              "name": "signature",
              "type": "bytes"
            }
          ],
          "internalType": "struct Permit2",
          "name": "assetPermit",
          "type": "tuple"
        }
      ],
      "name": "leverage",
      "outputs": [],
      "stateMutability": "nonpayable",
      "type": "function"
    },
    {
      "inputs": [
        {
          "internalType": "contract Market",
          "name": "market",
          "type": "address"
        },
        {
          "internalType": "uint256",
          "name": "ratio",
          "type": "uint256"
        },
        {
          "components": [
            {
              "internalType": "address",
              "name": "account",
              "type": "address"
            },
            {
              "internalType": "uint256",
              "name": "value",
              "type": "uint256"
            },
            {
              "internalType": "uint256",
              "name": "deadline",
              "type": "uint256"
            },
            {
              "internalType": "uint8",
              "name": "v",
              "type": "uint8"
            },
            {
              "internalType": "bytes32",
              "name": "r",
              "type": "bytes32"
            },
            {
              "internalType": "bytes32",
              "name": "s",
              "type": "bytes32"
            }
          ],
          "internalType": "struct Permit",
          "name": "marketPermit",
          "type": "tuple"
        },
        {
          "components": [
            {
              "internalType": "address",
              "name": "account",
              "type": "address"
            },
            {
              "internalType": "uint256",
              "name": "value",
              "type": "uint256"
            },
            {
              "internalType": "uint256",
              "name": "deadline",
              "type": "uint256"
            },
            {
              "internalType": "uint8",
              "name": "v",
              "type": "uint8"
            },
            {
              "internalType": "bytes32",
              "name": "r",
              "type": "bytes32"
            },
            {
              "internalType": "bytes32",
              "name": "s",
              "type": "bytes32"
            }
          ],
          "internalType": "struct Permit",
          "name": "assetPermit",
          "type": "tuple"
        }
      ],
      "name": "leverage",
      "outputs": [],
      "stateMutability": "nonpayable",
      "type": "function"
    },
    {
      "inputs": [],
      "name": "permit2",
      "outputs": [
        {
          "internalType": "contract IPermit2",
          "name": "",
          "type": "address"
        }
      ],
      "stateMutability": "view",
      "type": "function"
    },
    {
      "inputs": [
        {
          "internalType": "contract ERC20[]",
          "name": "",
          "type": "address[]"
        },
        {
          "internalType": "uint256[]",
          "name": "",
          "type": "uint256[]"
        },
        {
          "internalType": "uint256[]",
          "name": "",
          "type": "uint256[]"
        },
        {
          "internalType": "bytes",
          "name": "userData",
          "type": "bytes"
        }
      ],
      "name": "receiveFlashLoan",
      "outputs": [],
      "stateMutability": "nonpayable",
      "type": "function"
    },
    {
      "inputs": [
        {
          "internalType": "contract Market",
          "name": "market",
          "type": "address"
        },
        {
          "internalType": "uint256",
          "name": "repayMaturity",
          "type": "uint256"
        },
        {
          "internalType": "uint256",
          "name": "borrowMaturity",
          "type": "uint256"
        },
        {
          "internalType": "uint256",
          "name": "maxRepayAssets",
          "type": "uint256"
        },
        {
          "internalType": "uint256",
          "name": "maxBorrowAssets",
          "type": "uint256"
        },
        {
          "internalType": "uint256",
          "name": "percentage",
          "type": "uint256"
        }
      ],
      "name": "rollFixed",
      "outputs": [],
      "stateMutability": "nonpayable",
      "type": "function"
    },
    {
      "inputs": [
        {
          "internalType": "contract Market",
          "name": "market",
          "type": "address"
        },
        {
          "internalType": "uint256",
          "name": "repayMaturity",
          "type": "uint256"
        },
        {
          "internalType": "uint256",
          "name": "borrowMaturity",
          "type": "uint256"
        },
        {
          "internalType": "uint256",
          "name": "maxRepayAssets",
          "type": "uint256"
        },
        {
          "internalType": "uint256",
          "name": "maxBorrowAssets",
          "type": "uint256"
        },
        {
          "internalType": "uint256",
          "name": "percentage",
          "type": "uint256"
        },
        {
          "components": [
            {
              "internalType": "address",
              "name": "account",
              "type": "address"
            },
            {
              "internalType": "uint256",
              "name": "value",
              "type": "uint256"
            },
            {
              "internalType": "uint256",
              "name": "deadline",
              "type": "uint256"
            },
            {
              "internalType": "uint8",
              "name": "v",
              "type": "uint8"
            },
            {
              "internalType": "bytes32",
              "name": "r",
              "type": "bytes32"
            },
            {
              "internalType": "bytes32",
              "name": "s",
              "type": "bytes32"
            }
          ],
          "internalType": "struct Permit",
          "name": "p",
          "type": "tuple"
        }
      ],
      "name": "rollFixed",
      "outputs": [],
      "stateMutability": "nonpayable",
      "type": "function"
    },
    {
      "inputs": [
        {
          "internalType": "contract Market",
          "name": "market",
          "type": "address"
        },
        {
          "internalType": "uint256",
          "name": "repayMaturity",
          "type": "uint256"
        },
        {
          "internalType": "uint256",
          "name": "maxRepayAssets",
          "type": "uint256"
        },
        {
          "internalType": "uint256",
          "name": "percentage",
          "type": "uint256"
        }
      ],
      "name": "rollFixedToFloating",
      "outputs": [],
      "stateMutability": "nonpayable",
      "type": "function"
    },
    {
      "inputs": [
        {
          "internalType": "contract Market",
          "name": "market",
          "type": "address"
        },
        {
          "internalType": "uint256",
          "name": "repayMaturity",
          "type": "uint256"
        },
        {
          "internalType": "uint256",
          "name": "maxRepayAssets",
          "type": "uint256"
        },
        {
          "internalType": "uint256",
          "name": "percentage",
          "type": "uint256"
        },
        {
          "components": [
            {
              "internalType": "address",
              "name": "account",
              "type": "address"
            },
            {
              "internalType": "uint256",
              "name": "value",
              "type": "uint256"
            },
            {
              "internalType": "uint256",
              "name": "deadline",
              "type": "uint256"
            },
            {
              "internalType": "uint8",
              "name": "v",
              "type": "uint8"
            },
            {
              "internalType": "bytes32",
              "name": "r",
              "type": "bytes32"
            },
            {
              "internalType": "bytes32",
              "name": "s",
              "type": "bytes32"
            }
          ],
          "internalType": "struct Permit",
          "name": "p",
          "type": "tuple"
        }
      ],
      "name": "rollFixedToFloating",
      "outputs": [],
      "stateMutability": "nonpayable",
      "type": "function"
    },
    {
      "inputs": [
        {
          "internalType": "contract Market",
          "name": "market",
          "type": "address"
        },
        {
          "internalType": "uint256",
          "name": "borrowMaturity",
          "type": "uint256"
        },
        {
          "internalType": "uint256",
          "name": "maxBorrowAssets",
          "type": "uint256"
        },
        {
          "internalType": "uint256",
          "name": "percentage",
          "type": "uint256"
        }
      ],
      "name": "rollFloatingToFixed",
      "outputs": [],
      "stateMutability": "nonpayable",
      "type": "function"
    },
    {
      "inputs": [
        {
          "internalType": "contract Market",
          "name": "market",
          "type": "address"
        },
        {
          "internalType": "uint256",
          "name": "borrowMaturity",
          "type": "uint256"
        },
        {
          "internalType": "uint256",
          "name": "maxBorrowAssets",
          "type": "uint256"
        },
        {
          "internalType": "uint256",
          "name": "percentage",
          "type": "uint256"
        },
        {
          "components": [
            {
              "internalType": "address",
              "name": "account",
              "type": "address"
            },
            {
              "internalType": "uint256",
              "name": "value",
              "type": "uint256"
            },
            {
              "internalType": "uint256",
              "name": "deadline",
              "type": "uint256"
            },
            {
              "internalType": "uint8",
              "name": "v",
              "type": "uint8"
            },
            {
              "internalType": "bytes32",
              "name": "r",
              "type": "bytes32"
            },
            {
              "internalType": "bytes32",
              "name": "s",
              "type": "bytes32"
            }
          ],
          "internalType": "struct Permit",
          "name": "p",
          "type": "tuple"
        }
      ],
      "name": "rollFloatingToFixed",
      "outputs": [],
      "stateMutability": "nonpayable",
      "type": "function"
    }
  ],
  "transactionHash": "0xed2874e8e673295f9706f609210e81fcb1098277af4973b190e014c0dfeaa383",
  "args": [
    "0x7299b566bAa22F5C0F759b7598EeE4a219AdD2D3",
    "0x000000000022D473030F116dDEE9F6B43aC78BA3",
    "0x14e2fCE145245Dda5342c0aA4202F741fA401C5D"
  ],
  "numDeployments": 1,
  "solcInputHash": "6cf0363dc0e7cf81ca4028acb9890167",
  "bytecode": "0x60e060405234801562000010575f80fd5b50604051620044c8380380620044c88339810160408190526200003391620000dd565b6001600160a01b0380841660805282811660a052811660c052620000566200005f565b5050506200012e565b5f54610100900460ff161562000073575f80fd5b5f5460ff90811614620000c3575f805460ff191660ff9081179091556040519081527f7f26b83ff96e1f2b6a682f133852f6798a09c465da95921460cefb38474024989060200160405180910390a15b565b6001600160a01b0381168114620000da575f80fd5b50565b5f805f60608486031215620000f0575f80fd5b8351620000fd81620000c5565b60208501519093506200011081620000c5565b60408501519092506200012381620000c5565b809150509250925092565b60805160a05160c0516142f8620001d05f395f818161017e015281816104f10152818161071e0152818161084001528181610b8901528181610de001528181610ea6015281816113b6015281816115cb0152818161168401528181611b1c01528181611be20152818161266101528181612f88015261302e01525f818161013a015261226801525f81816101f101528181611ee301526129b101526142f85ff3fe608060405234801561000f575f80fd5b506004361061011c575f3560e01c806352fafe60116100a95780639e7d3e911161006e5780639e7d3e911461027a578063daea85c51461028d578063e1e73125146102a0578063f04f2707146102bc578063f434142d146102cf575f80fd5b806352fafe60146102265780638129fc1c1461023957806384b9f376146102415780638ec17f1a146102545780639639d57f14610267575f80fd5b806320ba6def116100ef57806320ba6def146101b35780633cf93e04146101c65780633e256402146101d95780633ec045a6146101ec57806340c714ce14610213575f80fd5b80630d8934eb1461012057806312261ee714610135578063158274a5146101795780631ef24055146101a0575b5f80fd5b61013361012e3660046137e2565b6102e2565b005b61015c7f000000000000000000000000000000000000000000000000000000000000000081565b6040516001600160a01b0390911681526020015b60405180910390f35b61015c7f000000000000000000000000000000000000000000000000000000000000000081565b6101336101ae3660046137e2565b610913565b6101336101c1366004613814565b61098d565b6101336101d4366004613872565b611080565b6101336101e73660046138b9565b611224565b61015c7f000000000000000000000000000000000000000000000000000000000000000081565b6101336102213660046138b9565b611773565b610133610234366004613872565b611d16565b610133611e80565b61013361024f3660046138f1565b611fe4565b610133610262366004613941565b612151565b6101336102753660046138f1565b6123d4565b6101336102883660046139b8565b612463565b61013361029b366004613a1a565b6125d4565b6102ae662386f26fc1000081565b604051908152602001610170565b6101336102ca366004613b7a565b612653565b6101336102dd366004613c7b565b61272c565b6002546001600160a01b0316610318576002805460ff60a01b1933166001600160a81b031990911617600160a01b179055610332565b600254600160a01b900460ff161561033257610332613cc0565b61033b83612990565b610343613782565b604080516001808252818301909252906020808301908036833750505081526040805160018082528183019092529060208083019080368337019050508160200181905250836001600160a01b03166338d52e0f6040518163ffffffff1660e01b8152600401602060405180830381865afa1580156103c4573d5f803e3d5ffd5b505050506040513d601f19601f820116820180604052508101906103e89190613cd4565b81602001515f815181106103fe576103fe613cef565b6001600160a01b03928316602091820292909201015260025460405163ce96cb7760e01b815290821660048201819052915f91869188169063ce96cb7790602401602060405180830381865afa15801561045a573d5f803e3d5ffd5b505050506040513d601f19601f8201168201806040525081019061047e9190613d03565b6104889190613d2e565b90505f6104a88561049889612a44565b6104a29085613d2e565b90612b27565b6104b29083613d2e565b905061056b600185602001515f815181106104cf576104cf613cef565b60209081029190910101516040516370a0823160e01b81526001600160a01b037f000000000000000000000000000000000000000000000000000000000000000081166004830152909116906370a0823190602401602060405180830381865afa15801561053f573d5f803e3d5ffd5b505050506040513d601f19601f820116820180604052508101906105639190613d03565b839190612b44565b60c08501819052610580908290600190612b44565b845180515f9061059257610592613cef565b602090810291909101015285156105aa5760016105ac565b5f5b60ff168460c0015160026105c09190613d41565b6105ca9190613d58565b6001600160401b038111156105e1576105e1613a35565b60405190808252806020026020018201604052801561061457816020015b60608152602001906001900390816105ff5790505b5060408501525f805b8560c001518110156107c557886001600160a01b031663acb70815875f01515f8151811061064d5761064d613cef565b6020026020010151876040516024016106799291909182526001600160a01b0316602082015260400190565b604051602081830303815290604052915060e01b6020820180516001600160e01b038381831617835250505050866040015183806106b690613d6b565b9450815181106106c8576106c8613cef565b6020026020010181905250886001600160a01b031663b460af94875f01515f815181106106f7576106f7613cef565b60200260200101518860c001518460016107119190613d58565b1461071c573061073e565b7f00000000000000000000000000000000000000000000000000000000000000005b60405160248101929092526001600160a01b03908116604483015288166064820152608401604051602081830303815290604052915060e01b6020820180516001600160e01b038381831617835250505050866040015183806107a090613d6b565b9450815181106107b2576107b2613cef565b602090810291909101015260010161061d565b50861561083e5760408051602481018990526001600160a01b0386166044820181905260648083019190915282518083039091018152608490910182526020810180516001600160e01b0316632d182be560e21b1790529086015180518390811061083257610832613cef565b60200260200101819052505b7f00000000000000000000000000000000000000000000000000000000000000006001600160a01b0316635c38449e308760200151885f01516108ad8d8b60400151604051602001610891929190613dd0565b6040516020818303038152906040528051602082012060015590565b6040518563ffffffff1660e01b81526004016108cc9493929190613e42565b5f604051808303815f87803b1580156108e3575f80fd5b505af11580156108f5573d5f803e3d5ffd5b5050600280546001600160a81b031916905550505050505050505050565b6002546001600160a01b0316610949576002805460ff60a01b1933166001600160a81b031990911617600160a01b179055610963565b600254600160a01b900460ff161561096357610963613cc0565b61096d8383612b71565b610978838383612bcd565b5050600280546001600160a81b031916905550565b6002546001600160a01b03166109c3576002805460ff60a01b1933166001600160a81b031990911617600160a01b1790556109dd565b600254600160a01b900460ff16156109dd576109dd613cc0565b6109e686612990565b6109ee613782565b604080516001808252818301909252906020808301908036833750505081526040805160018082528183019092529060208083019080368337019050508160200181905250866001600160a01b03166338d52e0f6040518163ffffffff1660e01b8152600401602060405180830381865afa158015610a6f573d5f803e3d5ffd5b505050506040513d601f19601f82011682018060405250810190610a939190613cd4565b81602001515f81518110610aa957610aa9613cef565b6001600160a01b03928316602091820292909201015260025460405163d2681a0b60e01b815260048101889052908216602482018190529189169063d2681a0b906044016040805180830381865afa158015610b07573d5f803e3d5ffd5b505050506040513d601f19601f82011682018060405250810190610b2b9190613edc565b61010084015260e0830152610b418888856130cb565b6060840152608083015260208201518051610c07916001915f90610b6757610b67613cef565b60209081029190910101516040516370a0823160e01b81526001600160a01b037f000000000000000000000000000000000000000000000000000000000000000081166004830152909116906370a0823190602401602060405180830381865afa158015610bd7573d5f803e3d5ffd5b505050506040513d601f19601f82011682018060405250810190610bfb9190613d03565b60808501519190612b44565b60c083018190526001108015610c1c57508587145b15610c3a57604051631cc6a69960e11b815260040160405180910390fd5b60c08201516080830151610c5091600190612b44565b825180515f90610c6257610c62613cef565b6020026020010181815250508160c001518260600151610c829190613efe565b606083015260c0820151610c97906002613d41565b6001600160401b03811115610cae57610cae613a35565b604051908082528060200260200182016040528015610ce157816020015b6060815260200190600190039081610ccc5790505b5060408301525f6101208301525b8160c001518261012001511015610ea457606082015160408051602481018a905260448101929092525f1960648301526001600160a01b0383166084808401919091528151808403909101815260a490920181526020820180516001600160e01b0316633c6f317f60e01b17905283015160a08401805190610d7082613d6b565b905281518110610d8257610d82613cef565b6020026020010181905250876001600160a01b0316631a5b9e6287845f01515f81518110610db257610db2613cef565b60200260200101515f198660c001518761012001516001610dd39190613d58565b14610dde5730610e00565b7f00000000000000000000000000000000000000000000000000000000000000005b6040516024810194909452604484019290925260648301526001600160a01b039081166084830152841660a482015260c401604051602081830303815290604052915060e01b6020820180516001600160e01b03838183161783525050505082604001518360a0018051809190610e7690613d6b565b905281518110610e8857610e88613cef565b6020908102919091010152610120820180516001019052610cef565b7f00000000000000000000000000000000000000000000000000000000000000006001600160a01b0316635c38449e308460200151855f0151610ef78d8860400151604051602001610891929190613dd0565b6040518563ffffffff1660e01b8152600401610f169493929190613e42565b5f604051808303815f87803b158015610f2d575f80fd5b505af1158015610f3f573d5f803e3d5ffd5b505060405163d2681a0b60e01b8152600481018990526001600160a01b0384811660248301525f93508392508b169063d2681a0b906044016040805180830381865afa158015610f91573d5f803e3d5ffd5b505050506040513d601f19601f82011682018060405250810190610fb59190613edc565b915091508361010001518460e001515f19610fd09190613d2e565b610fda9190613d2e565b8610610fe7575f19611006565b61010084015160e0850151610ffc9088613d58565b6110069190613d58565b6110108284613d58565b1180611046575060e0840151611027905f19613d2e565b8710611034575f19611043565b60e08401516110439088613d58565b82115b1561106457604051632c1b6b4160e21b815260040160405180910390fd5b5050600280546001600160a81b03191690555050505050505050565b83816110cb6110926020830183613a1a565b30602084013560408501356110ad6080870160608801613f2b565b6001600160a01b0388169493929190608088013560a08901356133b3565b6002546001600160a01b03168061110e576110e96020830183613a1a565b600280546001600160a01b0319166001600160a01b039290921691909117905561113b565b6001600160a01b0381166111256020840184613a1a565b6001600160a01b03161461113b5761113b613cc0565b506111478686866102e2565b6002546001600160a01b03161561116057611160613cc0565b6111756020820135662386f26fc10000612b27565b6001600160a01b03831663dd62ed3e6111916020850185613a1a565b6040516001600160e01b031960e084901b1681526001600160a01b039091166004820152306024820152604401602060405180830381865afa1580156111d9573d5f803e3d5ffd5b505050506040513d601f19601f820116820180604052508101906111fd9190613d03565b111561121c576040516326bbf87960e21b815260040160405180910390fd5b505050505050565b6002546001600160a01b031661125a576002805460ff60a01b1933166001600160a81b031990911617600160a01b179055611274565b600254600160a01b900460ff161561127457611274613cc0565b61127d84612990565b611285613782565b604080516001808252818301909252906020808301908036833750505081526040805160018082528183019092529060208083019080368337019050508160200181905250846001600160a01b03166338d52e0f6040518163ffffffff1660e01b8152600401602060405180830381865afa158015611306573d5f803e3d5ffd5b505050506040513d601f19601f8201168201806040525081019061132a9190613cd4565b81602001515f8151811061134057611340613cef565b6001600160a01b0392831660209182029290920101526002541661136386612a44565b60e08301525f806113758888876130cb565b91509150611430600185602001515f8151811061139457611394613cef565b60209081029190910101516040516370a0823160e01b81526001600160a01b037f000000000000000000000000000000000000000000000000000000000000000081166004830152909116906370a0823190602401602060405180830381865afa158015611404573d5f803e3d5ffd5b505050506040513d601f19601f820116820180604052508101906114289190613d03565b849190612b44565b60c085018190526114419082613efe565b905061145d60018560c0015184612b449092919063ffffffff16565b845180515f9061146f5761146f613cef565b602090810291909101015260c084015161148a906002613d41565b6001600160401b038111156114a1576114a1613a35565b6040519080825280602002602001820160405280156114d457816020015b60608152602001906001900390816114bf5790505b5060408501525f6101208501525b8360c001518461012001511015611682576040805160248101899052604481018390525f1960648201526001600160a01b0385166084808301919091528251808303909101815260a490910182526020810180516001600160e01b0316633c6f317f60e01b1790529085015160a0860180519061155e82613d6b565b90528151811061157057611570613cef565b6020026020010181905250876001600160a01b031663d5164184855f01515f8151811061159f5761159f613cef565b60200260200101518660c0015187610120015160016115be9190613d58565b146115c957306115eb565b7f00000000000000000000000000000000000000000000000000000000000000005b60405160248101929092526001600160a01b03908116604483015286166064820152608401604051602081830303815290604052915060e01b6020820180516001600160e01b03838183161783525050505084604001518560a001805180919061165490613d6b565b90528151811061166657611666613cef565b60209081029190910101526101208401805160010190526114e2565b7f00000000000000000000000000000000000000000000000000000000000000006001600160a01b0316635c38449e308660200151875f01516116d58d8a60400151604051602001610891929190613dd0565b6040518563ffffffff1660e01b81526004016116f49493929190613e42565b5f604051808303815f87803b15801561170b575f80fd5b505af115801561171d573d5f803e3d5ffd5b505050508360e0015161172f89612a44565b6117399190613d2e565b86101561175957604051632c1b6b4160e21b815260040160405180910390fd5b5050600280546001600160a81b0319169055505050505050565b6002546001600160a01b03166117a9576002805460ff60a01b1933166001600160a81b031990911617600160a01b1790556117c3565b600254600160a01b900460ff16156117c3576117c3613cc0565b6117cc84612990565b6117d4613782565b604080516001808252818301909252906020808301908036833750505081526040805160018082528183019092529060208083019080368337019050508160200181905250846001600160a01b03166338d52e0f6040518163ffffffff1660e01b8152600401602060405180830381865afa158015611855573d5f803e3d5ffd5b505050506040513d601f19601f820116820180604052508101906118799190613cd4565b81602001515f8151811061188f5761188f613cef565b6001600160a01b03928316602091820292909201015260025460405163d2681a0b60e01b815260048101879052908216602482018190529187169063d2681a0b906044016040805180830381865afa1580156118ed573d5f803e3d5ffd5b505050506040513d601f19601f820116820180604052508101906119119190613edc565b61010084015260e083015261192586612a44565b6080830152670de0b6b3a764000083101561194f5760808201516119499084612b27565b60808301525b61196a600183602001515f81518110610b6757610b67613cef565b60c08301819052608083015161198291600190612b44565b825180515f9061199457611994613cef565b602090810291909101015260c08201516119af906002613d41565b6001600160401b038111156119c6576119c6613a35565b6040519080825280602002602001820160405280156119f957816020015b60608152602001906001900390816119e45790505b5060408301525f6101208301525b8160c001518261012001511015611be057856001600160a01b031663acb70815835f01515f81518110611a3c57611a3c613cef565b602002602001015183604051602401611a689291909182526001600160a01b0316602082015260400190565b604051602081830303815290604052915060e01b6020820180516001600160e01b03838183161783525050505082604001518360a0018051809190611aac90613d6b565b905281518110611abe57611abe613cef565b6020026020010181905250856001600160a01b0316631a5b9e6286845f01515f81518110611aee57611aee613cef565b60200260200101515f198660c001518761012001516001611b0f9190613d58565b14611b1a5730611b3c565b7f00000000000000000000000000000000000000000000000000000000000000005b6040516024810194909452604484019290925260648301526001600160a01b039081166084830152841660a482015260c401604051602081830303815290604052915060e01b6020820180516001600160e01b03838183161783525050505082604001518360a0018051809190611bb290613d6b565b905281518110611bc457611bc4613cef565b6020908102919091010152610120820180516001019052611a07565b7f00000000000000000000000000000000000000000000000000000000000000006001600160a01b0316635c38449e308460200151855f0151611c338b8860400151604051602001610891929190613dd0565b6040518563ffffffff1660e01b8152600401611c529493929190613e42565b5f604051808303815f87803b158015611c69575f80fd5b505af1158015611c7b573d5f803e3d5ffd5b505060405163d2681a0b60e01b8152600481018890526001600160a01b0384811660248301525f935083925089169063d2681a0b906044016040805180830381865afa158015611ccd573d5f803e3d5ffd5b505050506040513d601f19601f82011682018060405250810190611cf19190613edc565b915091508361010001518460e001518284611d0c9190613d58565b61172f9190613d2e565b8381611d286110926020830183613a1a565b6002546001600160a01b031680611d6b57611d466020830183613a1a565b600280546001600160a01b0319166001600160a01b0392909216919091179055611d98565b6001600160a01b038116611d826020840184613a1a565b6001600160a01b031614611d9857611d98613cc0565b506002546001600160a01b0316611dcf576002805460ff60a01b1933166001600160a81b031990911617600160a01b179055611de9565b600254600160a01b900460ff1615611de957611de9613cc0565b611e60333087896001600160a01b03166338d52e0f6040518163ffffffff1660e01b8152600401602060405180830381865afa158015611e2b573d5f803e3d5ffd5b505050506040513d601f19601f82011682018060405250810190611e4f9190613cd4565b6001600160a01b0316929190613530565b611e6b868686612bcd565b600280546001600160a81b0319169055611160565b5f54610100900460ff1615808015611e9e57505f54600160ff909116105b80611eb75750303b158015611eb757505f5460ff166001145b611ebf575f80fd5b5f805460ff191660011790558015611ee0575f805461ff0019166101001790555b5f7f00000000000000000000000000000000000000000000000000000000000000006001600160a01b031663375a7cba6040518163ffffffff1660e01b81526004015f60405180830381865afa158015611f3c573d5f803e3d5ffd5b505050506040513d5f823e601f3d908101601f19168201604052611f639190810190613f46565b90505f5b8151811015611f9a57611f92828281518110611f8557611f85613cef565b60200260200101516125d4565b600101611f67565b50508015611fe1575f805461ff0019169055604051600181527f7f26b83ff96e1f2b6a682f133852f6798a09c465da95921460cefb38474024989060200160405180910390a15b50565b8481611ff66110926020830183613a1a565b6002546001600160a01b031680612039576120146020830183613a1a565b600280546001600160a01b0319166001600160a01b0392909216919091179055612066565b6001600160a01b0381166120506020840184613a1a565b6001600160a01b03161461206657612066613cc0565b5061207387878787611773565b6002546001600160a01b03161561208c5761208c613cc0565b6120a16020820135662386f26fc10000612b27565b6001600160a01b03831663dd62ed3e6120bd6020850185613a1a565b6040516001600160e01b031960e084901b1681526001600160a01b039091166004820152306024820152604401602060405180830381865afa158015612105573d5f803e3d5ffd5b505050506040513d601f19601f820116820180604052508101906121299190613d03565b1115612148576040516326bbf87960e21b815260040160405180910390fd5b50505050505050565b84826121636110926020830183613a1a565b6002546001600160a01b0316806121a6576121816020830183613a1a565b600280546001600160a01b0319166001600160a01b03929092169190911790556121d3565b6001600160a01b0381166121bd6020840184613a1a565b6001600160a01b0316146121d3576121d3613cc0565b50866001600160a01b03166338d52e0f6040518163ffffffff1660e01b8152600401602060405180830381865afa158015612210573d5f803e3d5ffd5b505050506040513d601f19601f820116820180604052508101906122349190613cd4565b6002546040805160a0810182526001600160a01b0384811660608301908152608083018c9052825291518a938893908116927f0000000000000000000000000000000000000000000000000000000000000000909116916330f28b7a91906020808301916122cf9187918b918b918b3591016001600160a01b0394851681529290931660208301526040820152606081019190915260800190565b60408051601f19818403018152918152815160209283012083528735928201929092528151808301909252308252818101889052859061231190880188613fcf565b6040518663ffffffff1660e01b8152600401612331959493929190614018565b5f604051808303815f87803b158015612348575f80fd5b505af115801561235a573d5f803e3d5ffd5b50506002546001600160a01b03169250612397915050576002805460ff60a01b1933166001600160a81b031990911617600160a01b1790556123b1565b600254600160a01b900460ff16156123b1576123b1613cc0565b6123bc8a8a8a612bcd565b5050600280546001600160a81b03191690555061208c565b84816123e66110926020830183613a1a565b6002546001600160a01b031680612429576124046020830183613a1a565b600280546001600160a01b0319166001600160a01b0392909216919091179055612456565b6001600160a01b0381166124406020840184613a1a565b6001600160a01b03161461245657612456613cc0565b5061207387878787611224565b86816124756110926020830183613a1a565b6002546001600160a01b0316806124b8576124936020830183613a1a565b600280546001600160a01b0319166001600160a01b03929092169190911790556124e5565b6001600160a01b0381166124cf6020840184613a1a565b6001600160a01b0316146124e5576124e5613cc0565b506124f489898989898961098d565b6002546001600160a01b03161561250d5761250d613cc0565b6125226020820135662386f26fc10000612b27565b6001600160a01b03831663dd62ed3e61253e6020850185613a1a565b6040516001600160e01b031960e084901b1681526001600160a01b039091166004820152306024820152604401602060405180830381865afa158015612586573d5f803e3d5ffd5b505050506040513d601f19601f820116820180604052508101906125aa9190613d03565b11156125c9576040516326bbf87960e21b815260040160405180910390fd5b505050505050505050565b6125dd81612990565b611fe1815f19836001600160a01b03166338d52e0f6040518163ffffffff1660e01b8152600401602060405180830381865afa15801561261f573d5f803e3d5ffd5b505050506040513d601f19601f820116820180604052508101906126439190613cd4565b6001600160a01b0316919061357d565b600154336001600160a01b037f00000000000000000000000000000000000000000000000000000000000000001614801561269357508151602083012081145b61269f5761269f613cc0565b5f6001819055825181906126bc90850160209081019086016140b1565b915091506126c982612990565b5f5b8151811015612722576127198282815181106126e9576126e9613cef565b602002602001015160405180602001604052805f815250856001600160a01b03166135c59092919063ffffffff16565b506001016126cb565b5050505050505050565b838261273e6110926020830183613a1a565b6002546001600160a01b0316806127815761275c6020830183613a1a565b600280546001600160a01b0319166001600160a01b03929092169190911790556127ae565b6001600160a01b0381166127986020840184613a1a565b6001600160a01b0316146127ae576127ae613cc0565b50856001600160a01b03166338d52e0f6040518163ffffffff1660e01b8152600401602060405180830381865afa1580156127eb573d5f803e3d5ffd5b505050506040513d601f19601f8201168201806040525081019061280f9190613cd4565b836128206110926020830183613a1a565b6002546001600160a01b0316806128635761283e6020830183613a1a565b600280546001600160a01b0319166001600160a01b0392909216919091179055612890565b6001600160a01b03811661287a6020840184613a1a565b6001600160a01b03161461289057612890613cc0565b506128a088866020013589610913565b6002546001600160a01b0316156128b9576128b9613cc0565b6128ce6020820135662386f26fc10000612b27565b6001600160a01b03831663dd62ed3e6128ea6020850185613a1a565b6040516001600160e01b031960e084901b1681526001600160a01b039091166004820152306024820152604401602060405180830381865afa158015612932573d5f803e3d5ffd5b505050506040513d601f19601f820116820180604052508101906129569190613d03565b1115612975576040516326bbf87960e21b815260040160405180910390fd5b50506002546001600160a01b03161561116057611160613cc0565b604051638e8f294b60e01b81526001600160a01b0382811660048301525f917f000000000000000000000000000000000000000000000000000000000000000090911690638e8f294b9060240160a060405180830381865afa1580156129f8573d5f803e3d5ffd5b505050506040513d601f19601f82011682018060405250810190612a1c91906141a8565b50935050505080612a40576040516334b04fe360e11b815260040160405180910390fd5b5050565b600254604051632f2e037160e11b81526001600160a01b0391821660048201525f91829190841690635e5c06e290602401606060405180830381865afa158015612a90573d5f803e3d5ffd5b505050506040513d601f19601f82011682018060405250810190612ab49190614223565b60405163023effef60e51b8152600481018290529093506001600160a01b03861692506347dffde09150602401602060405180830381865afa158015612afc573d5f803e3d5ffd5b505050506040513d601f19601f82011682018060405250810190612b209190613d03565b9392505050565b5f612b3b8383670de0b6b3a76400006135db565b90505b92915050565b828202811515841585830485141716612b5b575f80fd5b6001826001830304018115150290509392505050565b8015612a4057612a4060025f9054906101000a90046001600160a01b03163083856001600160a01b03166338d52e0f6040518163ffffffff1660e01b8152600401602060405180830381865afa158015611e2b573d5f803e3d5ffd5b612bd683612990565b6040805160018082528183019092525f916020808301908036833750506040805160018082528183019092529293505f92915060208083019080368337019050509050846001600160a01b03166338d52e0f6040518163ffffffff1660e01b8152600401602060405180830381865afa158015612c55573d5f803e3d5ffd5b505050506040513d601f19601f82011682018060405250810190612c799190613cd4565b815f81518110612c8b57612c8b613cef565b6001600160a01b03928316602091820292909201015260025460405163ce96cb7760e01b815290821660048201819052915f91829189169063ce96cb7790602401602060405180830381865afa158015612ce7573d5f803e3d5ffd5b505050506040513d601f19601f82011682018060405250810190612d0b9190613d03565b90505f612d2f87612d1b8b612a44565b612d258b86613d58565b6104a29190613d2e565b90505f612d3c8984613d58565b612d46908361424e565b90505f8113612dcc57604051636e553f6560e01b8152600481018a90526001600160a01b0386811660248301528b1690636e553f65906044016020604051808303815f875af1158015612d9b573d5f803e3d5ffd5b505050506040513d601f19601f82011682018060405250810190612dbf9190613d03565b5050505050505050505050565b612de36001875f815181106104cf576104cf613cef565b9350612df181600186612b44565b875f81518110612e0357612e03613cef565b6020026020010181815250505050505f816002612e209190613d41565b6001600160401b03811115612e3757612e37613a35565b604051908082528060200260200182016040528015612e6a57816020015b6060815260200190600190039081612e555790505b5090505f805b8381101561302b576001600160a01b038a16636e553f658215612eac57885f81518110612e9f57612e9f613cef565b6020026020010151612ed1565b8a895f81518110612ebf57612ebf613cef565b6020026020010151612ed19190613d58565b60405160248101919091526001600160a01b0388166044820152606401604051602081830303815290604052915060e01b6020820180516001600160e01b038381831617835250505050838380612f2790613d6b565b945081518110612f3957612f39613cef565b6020026020010181905250896001600160a01b031663d5164184885f81518110612f6557612f65613cef565b602002602001015186846001612f7b9190613d58565b14612f865730612fa8565b7f00000000000000000000000000000000000000000000000000000000000000005b60405160248101929092526001600160a01b03908116604483015288166064820152608401604051602081830303815290604052915060e01b6020820180516001600160e01b03838183161783525050505083838061300690613d6b565b94508151811061301857613018613cef565b6020908102919091010152600101612e70565b507f00000000000000000000000000000000000000000000000000000000000000006001600160a01b0316635c38449e3087896130748e88604051602001610891929190613dd0565b6040518563ffffffff1660e01b81526004016130939493929190613e42565b5f604051808303815f87803b1580156130aa575f80fd5b505af11580156130bc573d5f803e3d5ffd5b50505050505050505050505050565b5f806130e860405180604001604052805f81526020015f81525090565b60025460405163d2681a0b60e01b8152600481018790526001600160a01b0391821660248201529087169063d2681a0b906044016040805180830381865afa158015613136573d5f803e3d5ffd5b505050506040513d601f19601f8201168201806040525081019061315a9190613edc565b60208301528152670de0b6b3a7640000841061318657602081015181516131819190613d58565b6131a1565b602081015181516131a19161319a91613d58565b8590612b27565b91508442101561331f576131d260405180608001604052805f81526020015f81526020015f81526020015f81525090565b604051634e7c505960e01b8152600481018790526001600160a01b03881690634e7c505990602401608060405180830381865afa158015613215573d5f803e3d5ffd5b505050506040513d601f19601f820116820180604052508101906132399190614274565b606085018190526040850191909152602084019190915290825261327c906132619042613d2e565b60608301516132709089613d2e565b604084015191906135db565b8160400181815161328d9190613d2e565b9052505f61330961329e84866135f9565b5f0151896001600160a01b031663a1e8f02b6040518163ffffffff1660e01b8152600401602060405180830381865afa1580156132dd573d5f803e3d5ffd5b505050506040513d601f19601f820116820180604052508101906133019190613d03565b849190613647565b5090506133168185613d2e565b945050506133aa565b61339d866001600160a01b031663d6b7494f6040518163ffffffff1660e01b8152600401602060405180830381865afa15801561335e573d5f803e3d5ffd5b505050506040513d601f19601f820116820180604052508101906133829190613d03565b61338c8742613d2e565b6133969190613d41565b8390612b27565b6133a79083613d58565b92505b50935093915050565b604051623f675f60e91b81526001600160a01b0388811660048301525f91908a1690637ecebe0090602401602060405180830381865afa1580156133f9573d5f803e3d5ffd5b505050506040513d601f19601f8201168201806040525081019061341d9190613d03565b60405163d505accf60e01b81526001600160a01b038a811660048301528981166024830152604482018990526064820188905260ff8716608483015260a4820186905260c48201859052919250908a169063d505accf9060e4015f604051808303815f87803b15801561348e575f80fd5b505af11580156134a0573d5f803e3d5ffd5b5050604051623f675f60e91b81526001600160a01b038b811660048301525f93508c169150637ecebe0090602401602060405180830381865afa1580156134e9573d5f803e3d5ffd5b505050506040513d601f19601f8201168201806040525081019061350d9190613d03565b905061351a826001613d58565b8114613524575f80fd5b50505050505050505050565b5f6040516323b872dd60e01b5f5284600452836024528260445260205f60645f808a5af13d15601f3d1160015f511416171691505f606052806040525080613576575f80fd5b5050505050565b5f60405163095ea7b360e01b5f52836004528260245260205f60445f80895af13d15601f3d1160015f511416171691505f6060528060405250806135bf575f80fd5b50505050565b60606135d384845f8561368c565b949350505050565b8282028115158415858304851417166135f2575f80fd5b0492915050565b604080518082019091525f8082526020820152825160208401515f9161362b916136239082613d58565b8591906135db565b808552905061363a8184613d2e565b6020850152509192915050565b5f805f61365386613710565b905080156133aa57613674613668868361372e565b604088015190836135db565b92506136808385612b27565b91506133a78284613d2e565b60608247101561369a575f80fd5b5f80866001600160a01b031685876040516136b591906142a7565b5f6040518083038185875af1925050503d805f81146136ef576040519150601f19603f3d011682016040523d82523d5f602084013e6136f4565b606091505b509150915061370587838387613743565b979650505050505050565b805160208201515f9190613724828261372e565b6135d39083613d2e565b5f81831061373c5781612b3b565b5090919050565b6060831561376d5782515f03613766576001600160a01b0385163b613766575f80fd5b50816135d3565b6135d3838381511561011c5781518083602001fd5b6040518061014001604052806060815260200160608152602001606081526020015f81526020015f81526020015f81526020015f81526020015f81526020015f81526020015f81525090565b6001600160a01b0381168114611fe1575f80fd5b5f805f606084860312156137f4575f80fd5b83356137ff816137ce565b95602085013595506040909401359392505050565b5f805f805f8060c08789031215613829575f80fd5b8635613834816137ce565b9860208801359850604088013597606081013597506080810135965060a00135945092505050565b5f60c0828403121561386c575f80fd5b50919050565b5f805f806101208587031215613886575f80fd5b8435613891816137ce565b935060208501359250604085013591506138ae866060870161385c565b905092959194509250565b5f805f80608085870312156138cc575f80fd5b84356138d7816137ce565b966020860135965060408601359560600135945092505050565b5f805f805f6101408688031215613906575f80fd5b8535613911816137ce565b9450602086013593506040860135925060608601359150613935876080880161385c565b90509295509295909350565b5f805f805f6101408688031215613956575f80fd5b8535613961816137ce565b9450602086013593506040860135925061397e876060880161385c565b91506101208601356001600160401b03811115613999575f80fd5b8601604081890312156139aa575f80fd5b809150509295509295909350565b5f805f805f805f610180888a0312156139cf575f80fd5b87356139da816137ce565b96506020880135955060408801359450606088013593506080880135925060a08801359150613a0c8960c08a0161385c565b905092959891949750929550565b5f60208284031215613a2a575f80fd5b8135612b20816137ce565b634e487b7160e01b5f52604160045260245ffd5b604051601f8201601f191681016001600160401b0381118282101715613a7157613a71613a35565b604052919050565b5f6001600160401b03821115613a9157613a91613a35565b5060051b60200190565b5f82601f830112613aaa575f80fd5b81356020613abf613aba83613a79565b613a49565b8083825260208201915060208460051b870101935086841115613ae0575f80fd5b602086015b84811015613afc5780358352918301918301613ae5565b509695505050505050565b5f6001600160401b03821115613b1f57613b1f613a35565b50601f01601f191660200190565b5f82601f830112613b3c575f80fd5b8135613b4a613aba82613b07565b818152846020838601011115613b5e575f80fd5b816020850160208301375f918101602001919091529392505050565b5f805f8060808587031215613b8d575f80fd5b84356001600160401b0380821115613ba3575f80fd5b818701915087601f830112613bb6575f80fd5b81356020613bc6613aba83613a79565b82815260059290921b8401810191818101908b841115613be4575f80fd5b948201945b83861015613c0b578535613bfc816137ce565b82529482019490820190613be9565b98505088013592505080821115613c20575f80fd5b613c2c88838901613a9b565b94506040870135915080821115613c41575f80fd5b613c4d88838901613a9b565b93506060870135915080821115613c62575f80fd5b50613c6f87828801613b2d565b91505092959194509250565b5f805f806101c08587031215613c8f575f80fd5b8435613c9a816137ce565b935060208501359250613cb0866040870161385c565b91506138ae86610100870161385c565b634e487b7160e01b5f52600160045260245ffd5b5f60208284031215613ce4575f80fd5b8151612b20816137ce565b634e487b7160e01b5f52603260045260245ffd5b5f60208284031215613d13575f80fd5b5051919050565b634e487b7160e01b5f52601160045260245ffd5b81810381811115612b3e57612b3e613d1a565b8082028115828204841417612b3e57612b3e613d1a565b80820180821115612b3e57612b3e613d1a565b5f60018201613d7c57613d7c613d1a565b5060010190565b5f5b83811015613d9d578181015183820152602001613d85565b50505f910152565b5f8151808452613dbc816020860160208601613d83565b601f01601f19169290920160200192915050565b5f6040820160018060a01b038516835260206040602085015281855180845260608601915060608160051b8701019350602087015f5b82811015613e3457605f19888703018452613e22868351613da5565b95509284019290840190600101613e06565b509398975050505050505050565b6001600160a01b0385811682526080602080840182905286519184018290525f928782019290919060a0860190855b81811015613e8f578551851683529483019491830191600101613e71565b505085810360408701528751808252908201935091508087015f5b83811015613ec657815185529382019390820190600101613eaa565b5050505082810360608401526137058185613da5565b5f8060408385031215613eed575f80fd5b505080516020909101519092909150565b5f82613f1857634e487b7160e01b5f52601260045260245ffd5b500490565b60ff81168114611fe1575f80fd5b5f60208284031215613f3b575f80fd5b8135612b2081613f1d565b5f6020808385031215613f57575f80fd5b82516001600160401b03811115613f6c575f80fd5b8301601f81018513613f7c575f80fd5b8051613f8a613aba82613a79565b81815260059190911b82018301908381019087831115613fa8575f80fd5b928401925b82841015613705578351613fc0816137ce565b82529284019290840190613fad565b5f808335601e19843603018112613fe4575f80fd5b8301803591506001600160401b03821115613ffd575f80fd5b602001915036819003821315614011575f80fd5b9250929050565b5f61010061403a83895180516001600160a01b03168252602090810151910152565b602088015160408401526040880151606084015261406e608084018880516001600160a01b03168252602090810151910152565b6001600160a01b03861660c084015260e0830181905282018390526101208385828501375f838501820152601f909301601f191690910190910195945050505050565b5f8060408084860312156140c3575f80fd5b83516140ce816137ce565b809350506020808501516001600160401b03808211156140ec575f80fd5b818701915087601f8301126140ff575f80fd5b815161410d613aba82613a79565b81815260059190911b8301840190848101908a83111561412b575f80fd5b8585015b8381101561419657805185811115614145575f80fd5b8601603f81018d13614155575f80fd5b87810151614165613aba82613b07565b8181528e8b838501011115614178575f80fd5b614187828b83018d8601613d83565b8552505091860191860161412f565b50809750505050505050509250929050565b5f805f805f60a086880312156141bc575f80fd5b85516fffffffffffffffffffffffffffffffff811681146141db575f80fd5b60208701519095506141ec81613f1d565b60408701519094506141fd81613f1d565b60608701519093508015158114614212575f80fd5b60808701519092506139aa816137ce565b5f805f60608486031215614235575f80fd5b8351925060208401519150604084015190509250925092565b8181035f83128015838313168383128216171561426d5761426d613d1a565b5092915050565b5f805f8060808587031215614287575f80fd5b505082516020840151604085015160609095015191969095509092509050565b5f82516142b8818460208701613d83565b919091019291505056fea264697066735822122086292dba708b32cbadce338c534545b9c7d00e864d6c6be51a95a496f7b28c3364736f6c63430008170033",
  "devdoc": {
    "events": {
      "Initialized(uint8)": {
        "details": "Triggered when the contract has been initialized or reinitialized."
      }
    },
    "kind": "dev",
    "methods": {
      "approve(address)": {
        "details": "The Market must be listed by the Auditor in order to be valid for approval.",
        "params": {
          "market": "The Market to spend the contract's balance."
        }
      },
      "constructor": {
        "custom:oz-upgrades-unsafe-allow": "constructor"
      },
      "deleverage(address,uint256,uint256)": {
        "params": {
          "market": "The Market to deleverage the position out.",
          "ratio": "The number of times that the current principal will be leveraged, represented with 18 decimals.",
          "withdraw": "The amount of assets that will be withdrawn to `_msgSender`."
        }
      },
      "deleverage(address,uint256,uint256,(address,uint256,uint256,uint8,bytes32,bytes32))": {
        "params": {
          "market": "The Market to deleverage the position out.",
          "p": "Arguments for the permit call to `market` on behalf of `permit.account`. Permit `value` should be `permitAssets`.",
          "ratio": "The ratio of the borrow that will be repaid, represented with 18 decimals.",
          "withdraw": "The amount of assets that will be withdrawn to `_msgSender`."
        }
      },
      "initialize()": {
        "details": "can only be called once."
      },
      "leverage(address,uint256,(address,uint256,uint256,uint8,bytes32,bytes32),(address,uint256,uint256,uint8,bytes32,bytes32))": {
        "params": {
          "assetPermit": "Arguments for the permit call to the market underlying asset. Permit `value` should be `borrowAssets`.",
          "market": "The Market to leverage the position in.",
          "marketPermit": "Arguments for the permit call to `market` on behalf of `_msgSender`.",
          "ratio": "The number of times that the current principal will be leveraged, represented with 18 decimals."
        }
      },
      "leverage(address,uint256,uint256)": {
        "params": {
          "deposit": "The amount of assets to deposit.",
          "market": "The Market to leverage the position in.",
          "ratio": "The number of times that the current principal will be leveraged, represented with 18 decimals."
        }
      },
      "leverage(address,uint256,uint256,(address,uint256,uint256,uint8,bytes32,bytes32))": {
        "params": {
          "deposit": "The amount of assets to deposit.",
          "market": "The Market to leverage the position in.",
          "marketPermit": "Arguments for the permit call to `market` on behalf of `_msgSender`. Permit `value` should be `borrowAssets`.",
          "ratio": "The number of times that the current principal will be leveraged, represented with 18 decimals."
        }
      },
      "leverage(address,uint256,uint256,(address,uint256,uint256,uint8,bytes32,bytes32),(uint256,bytes))": {
        "params": {
          "assetPermit": "Arguments for the permit2 asset call. Permit `value` should be `borrowAssets`.",
          "deposit": "The amount of assets to deposit.",
          "market": "The Market to leverage the position in.",
          "marketPermit": "Arguments for the permit call to `market` on behalf of `_msgSender`.",
          "ratio": "The number of times that the current principal will be leveraged, represented with 18 decimals."
        }
      },
      "receiveFlashLoan(address[],uint256[],uint256[],bytes)": {
        "details": "Only the Balancer Vault contract is allowed to call this function.",
        "params": {
          "userData": "Additional data provided by the borrower for the flash loan."
        }
      },
      "rollFixed(address,uint256,uint256,uint256,uint256,uint256)": {
        "params": {
          "borrowMaturity": "The maturity of the fixed pool that the position is being rolled to.",
          "market": "The Market to roll the position in.",
          "maxBorrowAssets": "Max amount of debt that the sender is willing to accept to be borrowed.",
          "maxRepayAssets": "Max amount of debt that the account is willing to accept to be repaid.",
          "percentage": "The percentage of the position that will be rolled, represented with 18 decimals.",
          "repayMaturity": "The maturity of the fixed pool that the position is being rolled from."
        }
      },
      "rollFixed(address,uint256,uint256,uint256,uint256,uint256,(address,uint256,uint256,uint8,bytes32,bytes32))": {
        "params": {
          "borrowMaturity": "The maturity of the fixed pool that the position is being rolled to.",
          "market": "The Market to roll the position in.",
          "maxBorrowAssets": "Max amount of debt that the sender is willing to accept to be borrowed.",
          "maxRepayAssets": "Max amount of debt that the account is willing to accept to be repaid.",
          "p": "Arguments for the permit call to `market` on behalf of `permit.account`. Permit `value` should be `maxBorrowAssets`.",
          "percentage": "The percentage of the position that will be rolled, represented with 18 decimals.",
          "repayMaturity": "The maturity of the fixed pool that the position is being rolled from."
        }
      },
      "rollFixedToFloating(address,uint256,uint256,uint256)": {
        "params": {
          "market": "The Market to roll the position in.",
          "maxRepayAssets": "Max amount of debt that the account is willing to accept to be repaid.",
          "percentage": "The percentage of the position that will be rolled, represented with 18 decimals.",
          "repayMaturity": "The maturity of the fixed pool that the position is being rolled from."
        }
      },
      "rollFixedToFloating(address,uint256,uint256,uint256,(address,uint256,uint256,uint8,bytes32,bytes32))": {
        "params": {
          "market": "The Market to roll the position in.",
          "maxRepayAssets": "Max amount of debt that the account is willing to accept to be repaid.",
          "p": "Arguments for the permit call to `market` on behalf of `permit.account`. Permit `value` should be `maxRepayAssets`.",
          "percentage": "The percentage of the position that will be rolled, represented with 18 decimals.",
          "repayMaturity": "The maturity of the fixed pool that the position is being rolled from."
        }
      },
      "rollFloatingToFixed(address,uint256,uint256,uint256)": {
        "params": {
          "borrowMaturity": "The maturity of the fixed pool that the position is being rolled to.",
          "market": "The Market to roll the position in.",
          "maxBorrowAssets": "Max amount of debt that the sender is willing to accept to be borrowed.",
          "percentage": "The percentage of the position that will be rolled, represented with 18 decimals."
        }
      },
      "rollFloatingToFixed(address,uint256,uint256,uint256,(address,uint256,uint256,uint8,bytes32,bytes32))": {
        "params": {
          "borrowMaturity": "The maturity of the fixed pool that the position is being rolled to.",
          "market": "The Market to roll the position in.",
          "maxBorrowAssets": "Max amount of debt that the sender is willing to accept to be borrowed.",
          "p": "Arguments for the permit call to `market` on behalf of `permit.account`. Permit `value` should be `maxBorrowAssets`.",
          "percentage": "The percentage of the position that will be rolled, represented with 18 decimals."
        }
      }
    },
    "stateVariables": {
      "auditor": {
        "custom:oz-upgrades-unsafe-allow": "state-variable-immutable"
      },
      "balancerVault": {
        "custom:oz-upgrades-unsafe-allow": "state-variable-immutable"
      },
      "permit2": {
        "custom:oz-upgrades-unsafe-allow": "state-variable-immutable"
      }
    },
    "title": "DebtManager",
    "version": 1
  },
  "userdoc": {
    "kind": "user",
    "methods": {
      "MAX_ALLOWANCE_SURPLUS()": {
        "notice": "Maximum excess of allowance accepted, in percentage using 18 decimals."
      },
      "approve(address)": {
        "notice": "Approves the Market to spend the contract's balance of the underlying asset."
      },
      "auditor()": {
        "notice": "Auditor contract that lists the markets that can be leveraged."
      },
      "balancerVault()": {
        "notice": "Balancer's vault contract that is used to take flash loans."
      },
      "deleverage(address,uint256,uint256)": {
        "notice": "Deleverages `_msgSender`'s position to a `ratio` via flash loan from Balancer's vault."
      },
      "deleverage(address,uint256,uint256,(address,uint256,uint256,uint8,bytes32,bytes32))": {
        "notice": "Deleverages `_msgSender`'s position to a `ratio` via flash loan from Balancer's vault."
      },
      "initialize()": {
        "notice": "Initializes the contract."
      },
      "leverage(address,uint256,(address,uint256,uint256,uint8,bytes32,bytes32),(address,uint256,uint256,uint8,bytes32,bytes32))": {
        "notice": "Leverages the floating position of `_msgSender` a certain `ratio` by taking a flash loan from Balancer's vault."
      },
      "leverage(address,uint256,uint256)": {
        "notice": "Leverages the floating position of `_msgSender` a certain `ratio` by taking a flash loan from Balancer's vault."
      },
      "leverage(address,uint256,uint256,(address,uint256,uint256,uint8,bytes32,bytes32))": {
        "notice": "Leverages the floating position of `_msgSender` a certain `ratio` by taking a flash loan from Balancer's vault."
      },
      "leverage(address,uint256,uint256,(address,uint256,uint256,uint8,bytes32,bytes32),(uint256,bytes))": {
        "notice": "Leverages the floating position of `_msgSender` a certain `ratio` by taking a flash loan from Balancer's vault."
      },
      "permit2()": {
        "notice": "Permit2 contract to be used to transfer assets from accounts."
      },
      "receiveFlashLoan(address[],uint256[],uint256[],bytes)": {
        "notice": "Callback function called by the Balancer Vault contract when a flash loan is initiated."
      },
      "rollFixed(address,uint256,uint256,uint256,uint256,uint256)": {
        "notice": "Rolls a percentage of the fixed position of `_msgSender` to another fixed pool."
      },
      "rollFixed(address,uint256,uint256,uint256,uint256,uint256,(address,uint256,uint256,uint8,bytes32,bytes32))": {
        "notice": "Rolls a percentage of the fixed position of `_msgSender` to another fixed pool after calling `market.permit`."
      },
      "rollFixedToFloating(address,uint256,uint256,uint256)": {
        "notice": "Rolls a percentage of the fixed position of `_msgSender` to a floating position."
      },
      "rollFixedToFloating(address,uint256,uint256,uint256,(address,uint256,uint256,uint8,bytes32,bytes32))": {
        "notice": "Rolls a percentage of the fixed position of `_msgSender` to a floating position after calling `market.permit`."
      },
      "rollFloatingToFixed(address,uint256,uint256,uint256)": {
        "notice": "Rolls a percentage of the floating position of `_msgSender` to a fixed position."
      },
      "rollFloatingToFixed(address,uint256,uint256,uint256,(address,uint256,uint256,uint8,bytes32,bytes32))": {
        "notice": "Rolls a percentage of the floating position of `_msgSender` to a fixed position after calling `market.permit`."
      }
    },
    "notice": "Contract for efficient debt management of accounts interacting with Exactly Protocol.",
    "version": 1
  },
  "storageLayout": {
    "storage": [
      {
        "astId": 543,
        "contract": "contracts/periphery/DebtManager.sol:DebtManager",
        "label": "_initialized",
        "offset": 0,
        "slot": "0",
        "type": "t_uint8"
      },
      {
        "astId": 546,
        "contract": "contracts/periphery/DebtManager.sol:DebtManager",
        "label": "_initializing",
        "offset": 1,
        "slot": "0",
        "type": "t_bool"
      },
      {
        "astId": 26058,
        "contract": "contracts/periphery/DebtManager.sol:DebtManager",
        "label": "callHash",
        "offset": 0,
        "slot": "1",
        "type": "t_bytes32"
      },
      {
        "astId": 26166,
        "contract": "contracts/periphery/DebtManager.sol:DebtManager",
        "label": "_msgSender",
        "offset": 0,
        "slot": "2",
        "type": "t_address"
      },
      {
        "astId": 26168,
        "contract": "contracts/periphery/DebtManager.sol:DebtManager",
        "label": "_msgSenderSet",
        "offset": 20,
        "slot": "2",
        "type": "t_bool"
      }
    ],
    "types": {
      "t_address": {
        "encoding": "inplace",
        "label": "address",
        "numberOfBytes": "20"
      },
      "t_bool": {
        "encoding": "inplace",
        "label": "bool",
        "numberOfBytes": "1"
      },
      "t_bytes32": {
        "encoding": "inplace",
        "label": "bytes32",
        "numberOfBytes": "32"
      },
      "t_uint8": {
        "encoding": "inplace",
        "label": "uint8",
        "numberOfBytes": "1"
      }
    }
  }
}