{
  "address": "0x53b6BDEF185Ba928BE02F1728F3cc49ec5E84326",
  "abi": [
    {
      "anonymous": false,
      "inputs": [
        {
          "indexed": true,
          "internalType": "address",
          "name": "owner",
          "type": "address"
        },
        {
          "indexed": true,
          "internalType": "address",
          "name": "spender",
          "type": "address"
        },
        {
          "indexed": false,
          "internalType": "uint256",
          "name": "value",
          "type": "uint256"
        }
      ],
      "name": "Approval",
      "type": "event"
    },
    {
      "anonymous": false,
      "inputs": [
        {
          "indexed": true,
          "internalType": "address",
          "name": "delegator",
          "type": "address"
        },
        {
          "indexed": true,
          "internalType": "address",
          "name": "fromDelegate",
          "type": "address"
        },
        {
          "indexed": true,
          "internalType": "address",
          "name": "toDelegate",
          "type": "address"
        }
      ],
      "name": "DelegateChanged",
      "type": "event"
    },
    {
      "anonymous": false,
      "inputs": [
        {
          "indexed": true,
          "internalType": "address",
          "name": "delegate",
          "type": "address"
        },
        {
          "indexed": false,
          "internalType": "uint256",
          "name": "previousBalance",
          "type": "uint256"
        },
        {
          "indexed": false,
          "internalType": "uint256",
          "name": "newBalance",
          "type": "uint256"
        }
      ],
      "name": "DelegateVotesChanged",
      "type": "event"
    },
    {
      "anonymous": false,
      "inputs": [],
      "name": "EIP712DomainChanged",
      "type": "event"
    },
    {
      "anonymous": false,
      "inputs": [
        {
          "indexed": false,
          "internalType": "uint8",
          "name": "version",
          "type": "uint8"
        }
      ],
      "name": "Initialized",
      "type": "event"
    },
    {
      "anonymous": false,
      "inputs": [
        {
          "indexed": true,
          "internalType": "address",
          "name": "from",
          "type": "address"
        },
        {
          "indexed": true,
          "internalType": "address",
          "name": "to",
          "type": "address"
        },
        {
          "indexed": false,
          "internalType": "uint256",
          "name": "value",
          "type": "uint256"
        }
      ],
      "name": "Transfer",
      "type": "event"
    },
    {
      "inputs": [],
      "name": "CLOCK_MODE",
      "outputs": [
        {
          "internalType": "string",
          "name": "",
          "type": "string"
        }
      ],
      "stateMutability": "pure",
      "type": "function"
    },
    {
      "inputs": [],
      "name": "DOMAIN_SEPARATOR",
      "outputs": [
        {
          "internalType": "bytes32",
          "name": "",
          "type": "bytes32"
        }
      ],
      "stateMutability": "view",
      "type": "function"
    },
    {
      "inputs": [
        {
          "internalType": "address",
          "name": "owner",
          "type": "address"
        },
        {
          "internalType": "address",
          "name": "spender",
          "type": "address"
        }
      ],
      "name": "allowance",
      "outputs": [
        {
          "internalType": "uint256",
          "name": "",
          "type": "uint256"
        }
      ],
      "stateMutability": "view",
      "type": "function"
    },
    {
      "inputs": [
        {
          "internalType": "address",
          "name": "spender",
          "type": "address"
        },
        {
          "internalType": "uint256",
          "name": "amount",
          "type": "uint256"
        }
      ],
      "name": "approve",
      "outputs": [
        {
          "internalType": "bool",
          "name": "",
          "type": "bool"
        }
      ],
      "stateMutability": "nonpayable",
      "type": "function"
    },
    {
      "inputs": [
        {
          "internalType": "address",
          "name": "account",
          "type": "address"
        }
      ],
      "name": "balanceOf",
      "outputs": [
        {
          "internalType": "uint256",
          "name": "",
          "type": "uint256"
        }
      ],
      "stateMutability": "view",
      "type": "function"
    },
    {
      "inputs": [
        {
          "internalType": "address",
          "name": "account",
          "type": "address"
        },
        {
          "internalType": "uint32",
          "name": "pos",
          "type": "uint32"
        }
      ],
      "name": "checkpoints",
      "outputs": [
        {
          "components": [
            {
              "internalType": "uint32",
              "name": "fromBlock",
              "type": "uint32"
            },
            {
              "internalType": "uint224",
              "name": "votes",
              "type": "uint224"
            }
          ],
          "internalType": "struct ERC20VotesUpgradeable.Checkpoint",
          "name": "",
          "type": "tuple"
        }
      ],
      "stateMutability": "view",
      "type": "function"
    },
    {
      "inputs": [],
      "name": "clock",
      "outputs": [
        {
          "internalType": "uint48",
          "name": "",
          "type": "uint48"
        }
      ],
      "stateMutability": "view",
      "type": "function"
    },
    {
      "inputs": [],
      "name": "decimals",
      "outputs": [
        {
          "internalType": "uint8",
          "name": "",
          "type": "uint8"
        }
      ],
      "stateMutability": "view",
      "type": "function"
    },
    {
      "inputs": [
        {
          "internalType": "address",
          "name": "spender",
          "type": "address"
        },
        {
          "internalType": "uint256",
          "name": "subtractedValue",
          "type": "uint256"
        }
      ],
      "name": "decreaseAllowance",
      "outputs": [
        {
          "internalType": "bool",
          "name": "",
          "type": "bool"
        }
      ],
      "stateMutability": "nonpayable",
      "type": "function"
    },
    {
      "inputs": [
        {
          "internalType": "address",
          "name": "delegatee",
          "type": "address"
        }
      ],
      "name": "delegate",
      "outputs": [],
      "stateMutability": "nonpayable",
      "type": "function"
    },
    {
      "inputs": [
        {
          "internalType": "address",
          "name": "delegatee",
          "type": "address"
        },
        {
          "internalType": "uint256",
          "name": "nonce",
          "type": "uint256"
        },
        {
          "internalType": "uint256",
          "name": "expiry",
          "type": "uint256"
        },
        {
          "internalType": "uint8",
          "name": "v",
          "type": "uint8"
        },
        {
          "internalType": "bytes32",
          "name": "r",
          "type": "bytes32"
        },
        {
          "internalType": "bytes32",
          "name": "s",
          "type": "bytes32"
        }
      ],
      "name": "delegateBySig",
      "outputs": [],
      "stateMutability": "nonpayable",
      "type": "function"
    },
    {
      "inputs": [
        {
          "internalType": "address",
          "name": "account",
          "type": "address"
        }
      ],
      "name": "delegates",
      "outputs": [
        {
          "internalType": "address",
          "name": "",
          "type": "address"
        }
      ],
      "stateMutability": "view",
      "type": "function"
    },
    {
      "inputs": [],
      "name": "eip712Domain",
      "outputs": [
        {
          "internalType": "bytes1",
          "name": "fields",
          "type": "bytes1"
        },
        {
          "internalType": "string",
          "name": "name",
          "type": "string"
        },
        {
          "internalType": "string",
          "name": "version",
          "type": "string"
        },
        {
          "internalType": "uint256",
          "name": "chainId",
          "type": "uint256"
        },
        {
          "internalType": "address",
          "name": "verifyingContract",
          "type": "address"
        },
        {
          "internalType": "bytes32",
          "name": "salt",
          "type": "bytes32"
        },
        {
          "internalType": "uint256[]",
          "name": "extensions",
          "type": "uint256[]"
        }
      ],
      "stateMutability": "view",
      "type": "function"
    },
    {
      "inputs": [
        {
          "internalType": "uint256",
          "name": "timepoint",
          "type": "uint256"
        }
      ],
      "name": "getPastTotalSupply",
      "outputs": [
        {
          "internalType": "uint256",
          "name": "",
          "type": "uint256"
        }
      ],
      "stateMutability": "view",
      "type": "function"
    },
    {
      "inputs": [
        {
          "internalType": "address",
          "name": "account",
          "type": "address"
        },
        {
          "internalType": "uint256",
          "name": "timepoint",
          "type": "uint256"
        }
      ],
      "name": "getPastVotes",
      "outputs": [
        {
          "internalType": "uint256",
          "name": "",
          "type": "uint256"
        }
      ],
      "stateMutability": "view",
      "type": "function"
    },
    {
      "inputs": [
        {
          "internalType": "address",
          "name": "account",
          "type": "address"
        }
      ],
      "name": "getVotes",
      "outputs": [
        {
          "internalType": "uint256",
          "name": "",
          "type": "uint256"
        }
      ],
      "stateMutability": "view",
      "type": "function"
    },
    {
      "inputs": [
        {
          "internalType": "address",
          "name": "spender",
          "type": "address"
        },
        {
          "internalType": "uint256",
          "name": "addedValue",
          "type": "uint256"
        }
      ],
      "name": "increaseAllowance",
      "outputs": [
        {
          "internalType": "bool",
          "name": "",
          "type": "bool"
        }
      ],
      "stateMutability": "nonpayable",
      "type": "function"
    },
    {
      "inputs": [],
      "name": "initialize",
      "outputs": [],
      "stateMutability": "nonpayable",
      "type": "function"
    },
    {
      "inputs": [],
      "name": "name",
      "outputs": [
        {
          "internalType": "string",
          "name": "",
          "type": "string"
        }
      ],
      "stateMutability": "view",
      "type": "function"
    },
    {
      "inputs": [
        {
          "internalType": "address",
          "name": "owner",
          "type": "address"
        }
      ],
      "name": "nonces",
      "outputs": [
        {
          "internalType": "uint256",
          "name": "",
          "type": "uint256"
        }
      ],
      "stateMutability": "view",
      "type": "function"
    },
    {
      "inputs": [
        {
          "internalType": "address",
          "name": "account",
          "type": "address"
        }
      ],
      "name": "numCheckpoints",
      "outputs": [
        {
          "internalType": "uint32",
          "name": "",
          "type": "uint32"
        }
      ],
      "stateMutability": "view",
      "type": "function"
    },
    {
      "inputs": [
        {
          "internalType": "address",
          "name": "owner",
          "type": "address"
        },
        {
          "internalType": "address",
          "name": "spender",
          "type": "address"
        },
        {
          "internalType": "uint256",
          "name": "value",
          "type": "uint256"
        },
        {
          "internalType": "uint256",
          "name": "deadline",
          "type": "uint256"
        },
        {
          "internalType": "uint8",
          "name": "v",
          "type": "uint8"
        },
        {
          "internalType": "bytes32",
          "name": "r",
          "type": "bytes32"
        },
        {
          "internalType": "bytes32",
          "name": "s",
          "type": "bytes32"
        }
      ],
      "name": "permit",
      "outputs": [],
      "stateMutability": "nonpayable",
      "type": "function"
    },
    {
      "inputs": [],
      "name": "symbol",
      "outputs": [
        {
          "internalType": "string",
          "name": "",
          "type": "string"
        }
      ],
      "stateMutability": "view",
      "type": "function"
    },
    {
      "inputs": [],
      "name": "totalSupply",
      "outputs": [
        {
          "internalType": "uint256",
          "name": "",
          "type": "uint256"
        }
      ],
      "stateMutability": "view",
      "type": "function"
    },
    {
      "inputs": [
        {
          "internalType": "address",
          "name": "to",
          "type": "address"
        },
        {
          "internalType": "uint256",
          "name": "amount",
          "type": "uint256"
        }
      ],
      "name": "transfer",
      "outputs": [
        {
          "internalType": "bool",
          "name": "",
          "type": "bool"
        }
      ],
      "stateMutability": "nonpayable",
      "type": "function"
    },
    {
      "inputs": [
        {
          "internalType": "address",
          "name": "from",
          "type": "address"
        },
        {
          "internalType": "address",
          "name": "to",
          "type": "address"
        },
        {
          "internalType": "uint256",
          "name": "amount",
          "type": "uint256"
        }
      ],
      "name": "transferFrom",
      "outputs": [
        {
          "internalType": "bool",
          "name": "",
          "type": "bool"
        }
      ],
      "stateMutability": "nonpayable",
      "type": "function"
    }
  ],
  "transactionHash": "0x881329396611207af2f5c67bde7a7717ec8b2fad7165b506fa48c26d10b61ad7",
  "args": [],
  "numDeployments": 1,
  "solcInputHash": "68c1f2da1fa9af8ddb3bbbd41fd709ed",
  "bytecode": "0x608060405234801561000f575f80fd5b50611aea8061001d5f395ff3fe608060405234801561000f575f80fd5b5060043610610187575f3560e01c80637ecebe00116100d95780639ab24eb011610093578063c3cda5201161006e578063c3cda520146103a0578063d505accf146103b3578063dd62ed3e146103c6578063f1127ed8146103d9575f80fd5b80639ab24eb014610367578063a457c2d71461037a578063a9059cbb1461038d575f80fd5b80637ecebe00146103005780638129fc1c1461031357806384b0196e1461031b5780638e539e8c1461033657806391ddadf41461034957806395d89b411461035f575f80fd5b80633950935111610144578063587cde1e1161011f578063587cde1e146102585780635c19a95c1461029b5780636fcfff45146102b057806370a08231146102d8575f80fd5b806339509351146102085780633a46b1a81461021b5780634bf5d7e91461022e575f80fd5b806306fdde031461018b578063095ea7b3146101a957806318160ddd146101cc57806323b872dd146101de578063313ce567146101f15780633644e51514610200575b5f80fd5b610193610416565b6040516101a09190611642565b60405180910390f35b6101bc6101b736600461166f565b6104a6565b60405190151581526020016101a0565b6035545b6040519081526020016101a0565b6101bc6101ec366004611697565b6104bf565b604051601281526020016101a0565b6101d06104e2565b6101bc61021636600461166f565b6104f0565b6101d061022936600461166f565b610511565b60408051808201909152600e81526d06d6f64653d74696d657374616d760941b6020820152610193565b6102836102663660046116d0565b6001600160a01b039081165f90815260cc60205260409020541690565b6040516001600160a01b0390911681526020016101a0565b6102ae6102a93660046116d0565b61054d565b005b6102c36102be3660046116d0565b61055a565b60405163ffffffff90911681526020016101a0565b6101d06102e63660046116d0565b6001600160a01b03165f9081526033602052604090205490565b6101d061030e3660046116d0565b61057b565b6102ae610598565b6103236106c8565b6040516101a097969594939291906116e9565b6101d0610344366004611780565b610725565b60405165ffffffffffff421681526020016101a0565b610193610744565b6101d06103753660046116d0565b610753565b6101bc61038836600461166f565b6107d0565b6101bc61039b36600461166f565b6107f8565b6102ae6103ae3660046117a7565b610805565b6102ae6103c13660046117fb565b6108b2565b6101d06103d4366004611860565b61098b565b6103ec6103e7366004611891565b6109b5565b60408051825163ffffffff1681526020928301516001600160e01b031692810192909252016101a0565b606060368054610425906118ce565b80601f0160208091040260200160405190810160405280929190818152602001828054610451906118ce565b801561049c5780601f106104735761010080835404028352916020019161049c565b820191905f5260205f20905b81548152906001019060200180831161047f57829003601f168201915b5050505050905090565b5f336104b3818585610a36565b60019150505b92915050565b5f336104cc858285610aba565b6104d7858585610aee565b506001949350505050565b5f6104eb610ba8565b905090565b5f336104b3818585610502838361098b565b61050c9190611914565b610a36565b5f4265ffffffffffff168210610525575f80fd5b6001600160a01b0383165f90815260cd602052604090206105469083610bb1565b9392505050565b6105573382610c92565b50565b6001600160a01b0381165f90815260cd60205260408120546104b990610d0b565b6001600160a01b0381165f908152609960205260408120546104b9565b5f54610100900460ff16158080156105b657505f54600160ff909116105b806105cf5750303b1580156105cf57505f5460ff166001145b6105d7575f80fd5b5f805460ff1916600117905580156105f8575f805461ff0019166101001790555b61063c6040518060400160405280600781526020016665786163746c7960c81b8152506040518060400160405280600381526020016245584160e81b815250610d20565b6106646040518060400160405280600781526020016665786163746c7960c81b815250610d40565b61066c610d75565b610681336a084595161401484a000000610d89565b8015610557575f805461ff0019169055604051600181527f7f26b83ff96e1f2b6a682f133852f6798a09c465da95921460cefb38474024989060200160405180910390a150565b5f6060805f805f60606065545f801b1480156106e45750606654155b6106ec575f80fd5b6106f4610db6565b6106fc610dc5565b604080515f80825260208201909252600f60f81b9b939a50919850469750309650945092509050565b5f4265ffffffffffff168210610739575f80fd5b6104b960ce83610bb1565b606060378054610425906118ce565b6001600160a01b0381165f90815260cd602052604081205480156107be576001600160a01b0383165f90815260cd6020526040902080545f19830190811061079d5761079d61193b565b5f9182526020909120015464010000000090046001600160e01b03166107c0565b5f5b6001600160e01b03169392505050565b5f33816107dd828661098b565b9050838110156107eb575f80fd5b6104d78286868403610a36565b5f336104b3818585610aee565b83421115610811575f80fd5b604080517fe48329057bfd03d55e49b547132e39cffd9c1820ad7b9d4c5307691425d15adf60208201526001600160a01b0388169181019190915260608101869052608081018590525f9061088a906108829060a00160405160208183030381529060405280519060200120610dd4565b858585610e00565b905061089581610e26565b861461089f575f80fd5b6108a98188610c92565b50505050505050565b834211156108be575f80fd5b5f7f6e71edae12b1b97f4d1f60370fef10105fa2faae0126114a169c64845d6126c98888886108ec8c610e26565b6040805160208101969096526001600160a01b0394851690860152929091166060840152608083015260a082015260c0810186905260e0016040516020818303038152906040528051906020012090505f61094682610dd4565b90505f61095582878787610e00565b9050896001600160a01b0316816001600160a01b031614610974575f80fd5b61097f8a8a8a610a36565b50505050505050505050565b6001600160a01b039182165f90815260346020908152604080832093909416825291909152205490565b604080518082019091525f80825260208201526001600160a01b0383165f90815260cd60205260409020805463ffffffff84169081106109f7576109f761193b565b5f9182526020918290206040805180820190915291015463ffffffff8116825264010000000090046001600160e01b0316918101919091529392505050565b6001600160a01b038316610a48575f80fd5b6001600160a01b038216610a5a575f80fd5b6001600160a01b038381165f8181526034602090815260408083209487168084529482529182902085905590518481527f8c5be1e5ebec7d5bd14f71427d1e84f3dd0314c0f7b2291e5b200ac8c7c3b925910160405180910390a3505050565b5f610ac5848461098b565b90505f198114610ae85781811015610adb575f80fd5b610ae88484848403610a36565b50505050565b6001600160a01b038316610b00575f80fd5b6001600160a01b038216610b12575f80fd5b6001600160a01b0383165f9081526033602052604090205481811015610b36575f80fd5b6001600160a01b038085165f8181526033602052604080822086860390559286168082529083902080548601905591517fddf252ad1be2c89b69c2b068fc378daa952ba7f163c4a11628f55a4df523b3ef90610b959086815260200190565b60405180910390a3610ae8848484610e52565b5f6104eb610e83565b81545f9081816005811115610c08575f610bca84610ef6565b610bd4908561194f565b5f88815260209020909150869082015463ffffffff161115610bf857809150610c06565b610c03816001611914565b92505b505b80821015610c53575f610c1b8383610fda565b5f88815260209020909150869082015463ffffffff161115610c3f57809150610c4d565b610c4a816001611914565b92505b50610c08565b8015610c7d575f8681526020902081015f19015464010000000090046001600160e01b0316610c7f565b5f5b6001600160e01b03169695505050505050565b6001600160a01b038281165f81815260cc6020818152604080842080546033845282862054949093528787166001600160a01b03198416811790915590519190951694919391928592917f3134e8a2e6d97e929a7e54011ea5485d7d196dd5f0ba4d4ef95803e8e3fc257f9190a4610ae8828483610ff4565b5f63ffffffff821115610d1c575f80fd5b5090565b5f54610100900460ff16610d32575f80fd5b610d3c828261112e565b5050565b5f54610100900460ff16610d52575f80fd5b61055781604051806040016040528060018152602001603160f81b815250611159565b5f54610100900460ff16610d87575f80fd5b565b610d938282611192565b6035546001600160e01b031015610da8575f80fd5b610ae860ce6112148361121f565b606060678054610425906118ce565b606060688054610425906118ce565b5f6104b9610de0610ba8565b8360405161190160f01b8152600281019290925260228201526042902090565b5f805f610e0f87878787611381565b91509150610e1c8161143e565b5095945050505050565b6001600160a01b0381165f9081526099602052604090208054600181018255905b50919050565b505050565b6001600160a01b038381165f90815260cc6020526040808220548584168352912054610e4d92918216911683610ff4565b5f7f8b73c3c69bb8fe3d512ecc4cf759cc79239f7b179b0ffacaa9a75d522b39400f610ead6114b0565b610eb5611508565b60408051602081019490945283019190915260608201524660808201523060a082015260c00160405160208183030381529060405280519060200120905090565b5f815f03610f0557505f919050565b5f6001610f1184611538565b901c6001901b90506001818481610f2a57610f2a611962565b048201901c90506001818481610f4257610f42611962565b048201901c90506001818481610f5a57610f5a611962565b048201901c90506001818481610f7257610f72611962565b048201901c90506001818481610f8a57610f8a611962565b048201901c90506001818481610fa257610fa2611962565b048201901c90506001818481610fba57610fba611962565b048201901c905061054681828581610fd457610fd4611962565b046115cb565b5f610fe86002848418611976565b61054690848416611914565b816001600160a01b0316836001600160a01b03161415801561101557505f81115b15610e4d576001600160a01b038316156110a2576001600160a01b0383165f90815260cd60205260408120819061104f906115e08561121f565b91509150846001600160a01b03167fdec2bacdd2f05b59de34da9b523dff8be42e5e38e818c82fdb0bae774387a7248383604051611097929190918252602082015260400190565b60405180910390a250505b6001600160a01b03821615610e4d576001600160a01b0382165f90815260cd6020526040812081906110d7906112148561121f565b91509150836001600160a01b03167fdec2bacdd2f05b59de34da9b523dff8be42e5e38e818c82fdb0bae774387a724838360405161111f929190918252602082015260400190565b60405180910390a25050505050565b5f54610100900460ff16611140575f80fd5b603661114c83826119e0565b506037610e4d82826119e0565b5f54610100900460ff1661116b575f80fd5b606761117783826119e0565b50606861118482826119e0565b50505f606581905560665550565b6001600160a01b0382166111a4575f80fd5b8060355f8282546111b59190611914565b90915550506001600160a01b0382165f818152603360209081526040808320805486019055518481527fddf252ad1be2c89b69c2b068fc378daa952ba7f163c4a11628f55a4df523b3ef910160405180910390a3610d3c5f8383610e52565b5f6105468284611914565b82545f908190818115611269575f8781526020902082015f190160408051808201909152905463ffffffff8116825264010000000090046001600160e01b0316602082015261127d565b604080518082019091525f80825260208201525b905080602001516001600160e01b0316935061129d84868863ffffffff16565b92505f821180156112bc5750805163ffffffff1665ffffffffffff4216145b156112ff576112ca836115eb565b5f8881526020902083015f190180546001600160e01b03929092166401000000000263ffffffff909216919091179055611377565b8660405180604001604052806113226113154290565b65ffffffffffff16610d0b565b63ffffffff168152602001611336866115eb565b6001600160e01b0390811690915282546001810184555f938452602093849020835194909301519091166401000000000263ffffffff909316929092179101555b5050935093915050565b5f807f7fffffffffffffffffffffffffffffff5d576e7357a4501ddfe92f46681b20a08311156113b657505f90506003611435565b604080515f8082526020820180845289905260ff881692820192909252606081018690526080810185905260019060a0016020604051602081039080840390855afa158015611407573d5f803e3d5ffd5b5050604051601f1901519150506001600160a01b03811661142f575f60019250925050611435565b91505f90505b94509492505050565b5f81600481111561145157611451611aa0565b036114595750565b600181600481111561146d5761146d611aa0565b03611476575f80fd5b600281600481111561148a5761148a611aa0565b03611493575f80fd5b60038160048111156114a7576114a7611aa0565b03610557575f80fd5b5f806114ba610db6565b8051909150156114d1578051602090910120919050565b60655480156114e05792915050565b7fc5d2460186f7233c927e7db2dcc703c0e500b653ca82273b7bfad8045d85a4709250505090565b5f80611512610dc5565b805190915015611529578051602090910120919050565b60665480156114e05792915050565b5f80608083901c1561154c57608092831c92015b604083901c1561155e57604092831c92015b602083901c1561157057602092831c92015b601083901c1561158257601092831c92015b600883901c1561159457600892831c92015b600483901c156115a657600492831c92015b600283901c156115b857600292831c92015b600183901c156104b95760010192915050565b5f8183106115d95781610546565b5090919050565b5f610546828461194f565b5f6001600160e01b03821115610d1c575f80fd5b5f81518084525f5b8181101561162357602081850181015186830182015201611607565b505f602082860101526020601f19601f83011685010191505092915050565b602081525f61054660208301846115ff565b80356001600160a01b038116811461166a575f80fd5b919050565b5f8060408385031215611680575f80fd5b61168983611654565b946020939093013593505050565b5f805f606084860312156116a9575f80fd5b6116b284611654565b92506116c060208501611654565b9150604084013590509250925092565b5f602082840312156116e0575f80fd5b61054682611654565b60ff60f81b881681525f602060e0602084015261170960e084018a6115ff565b838103604085015261171b818a6115ff565b606085018990526001600160a01b038816608086015260a0850187905284810360c0860152855180825260208088019350909101905f5b8181101561176e57835183529284019291840191600101611752565b50909c9b505050505050505050505050565b5f60208284031215611790575f80fd5b5035919050565b803560ff8116811461166a575f80fd5b5f805f805f8060c087890312156117bc575f80fd5b6117c587611654565b955060208701359450604087013593506117e160608801611797565b92506080870135915060a087013590509295509295509295565b5f805f805f805f60e0888a031215611811575f80fd5b61181a88611654565b965061182860208901611654565b9550604088013594506060880135935061184460808901611797565b925060a0880135915060c0880135905092959891949750929550565b5f8060408385031215611871575f80fd5b61187a83611654565b915061188860208401611654565b90509250929050565b5f80604083850312156118a2575f80fd5b6118ab83611654565b9150602083013563ffffffff811681146118c3575f80fd5b809150509250929050565b600181811c908216806118e257607f821691505b602082108103610e4757634e487b7160e01b5f52602260045260245ffd5b634e487b7160e01b5f52601160045260245ffd5b808201808211156104b9576104b9611900565b634e487b7160e01b5f52604160045260245ffd5b634e487b7160e01b5f52603260045260245ffd5b818103818111156104b9576104b9611900565b634e487b7160e01b5f52601260045260245ffd5b5f8261199057634e487b7160e01b5f52601260045260245ffd5b500490565b601f821115610e4d57805f5260205f20601f840160051c810160208510156119ba5750805b601f840160051c820191505b818110156119d9575f81556001016119c6565b5050505050565b815167ffffffffffffffff8111156119fa576119fa611927565b611a0e81611a0884546118ce565b84611995565b602080601f831160018114611a41575f8415611a2a5750858301515b5f19600386901b1c1916600185901b178555611a98565b5f85815260208120601f198616915b82811015611a6f57888601518255948401946001909101908401611a50565b5085821015611a8c57878501515f19600388901b60f8161c191681555b505060018460011b0185555b505050505050565b634e487b7160e01b5f52602160045260245ffdfea26469706673582212206dc3e0666bf312192d5547292c07ada914ea2b9e0bcf0d9171f15d4a07e4992064736f6c63430008170033",
  "devdoc": {
    "events": {
      "Approval(address,address,uint256)": {
        "details": "Emitted when the allowance of a `spender` for an `owner` is set by a call to {approve}. `value` is the new allowance."
      },
      "DelegateChanged(address,address,address)": {
        "details": "Emitted when an account changes their delegate."
      },
      "DelegateVotesChanged(address,uint256,uint256)": {
        "details": "Emitted when a token transfer or delegate change results in changes to a delegate's number of votes."
      },
      "EIP712DomainChanged()": {
        "details": "MAY be emitted to signal that the domain could have changed."
      },
      "Initialized(uint8)": {
        "details": "Triggered when the contract has been initialized or reinitialized."
      },
      "Transfer(address,address,uint256)": {
        "details": "Emitted when `value` tokens are moved from one account (`from`) to another (`to`). Note that `value` may be zero."
      }
    },
    "kind": "dev",
    "methods": {
      "CLOCK_MODE()": {
        "details": "Description of the clock"
      },
      "DOMAIN_SEPARATOR()": {
        "details": "Returns the domain separator used in the encoding of the signature for {permit}, as defined by {EIP712}."
      },
      "allowance(address,address)": {
        "details": "See {IERC20-allowance}."
      },
      "approve(address,uint256)": {
        "details": "See {IERC20-approve}. NOTE: If `amount` is the maximum `uint256`, the allowance is not updated on `transferFrom`. This is semantically equivalent to an infinite approval. Requirements: - `spender` cannot be the zero address."
      },
      "balanceOf(address)": {
        "details": "See {IERC20-balanceOf}."
      },
      "checkpoints(address,uint32)": {
        "details": "Get the `pos`-th checkpoint for `account`."
      },
      "clock()": {
        "details": "Clock used for flagging checkpoints. Can be overridden to implement timestamp based checkpoints (and voting)."
      },
      "decimals()": {
        "details": "Returns the number of decimals used to get its user representation. For example, if `decimals` equals `2`, a balance of `505` tokens should be displayed to a user as `5.05` (`505 / 10 ** 2`). Tokens usually opt for a value of 18, imitating the relationship between Ether and Wei. This is the default value returned by this function, unless it's overridden. NOTE: This information is only used for _display_ purposes: it in no way affects any of the arithmetic of the contract, including {IERC20-balanceOf} and {IERC20-transfer}."
      },
      "decreaseAllowance(address,uint256)": {
        "details": "Atomically decreases the allowance granted to `spender` by the caller. This is an alternative to {approve} that can be used as a mitigation for problems described in {IERC20-approve}. Emits an {Approval} event indicating the updated allowance. Requirements: - `spender` cannot be the zero address. - `spender` must have allowance for the caller of at least `subtractedValue`."
      },
      "delegate(address)": {
        "details": "Delegate votes from the sender to `delegatee`."
      },
      "delegateBySig(address,uint256,uint256,uint8,bytes32,bytes32)": {
        "details": "Delegates votes from signer to `delegatee`"
      },
      "delegates(address)": {
        "details": "Get the address `account` is currently delegating to."
      },
      "eip712Domain()": {
        "details": "See {EIP-5267}. _Available since v4.9._"
      },
      "getPastTotalSupply(uint256)": {
        "details": "Retrieve the `totalSupply` at the end of `timepoint`. Note, this value is the sum of all balances. It is NOT the sum of all the delegated votes! Requirements: - `timepoint` must be in the past"
      },
      "getPastVotes(address,uint256)": {
        "details": "Retrieve the number of votes for `account` at the end of `timepoint`. Requirements: - `timepoint` must be in the past"
      },
      "getVotes(address)": {
        "details": "Gets the current votes balance for `account`"
      },
      "increaseAllowance(address,uint256)": {
        "details": "Atomically increases the allowance granted to `spender` by the caller. This is an alternative to {approve} that can be used as a mitigation for problems described in {IERC20-approve}. Emits an {Approval} event indicating the updated allowance. Requirements: - `spender` cannot be the zero address."
      },
      "name()": {
        "details": "Returns the name of the token."
      },
      "nonces(address)": {
        "details": "Returns the current nonce for `owner`. This value must be included whenever a signature is generated for {permit}. Every successful call to {permit} increases ``owner``'s nonce by one. This prevents a signature from being used multiple times."
      },
      "numCheckpoints(address)": {
        "details": "Get number of checkpoints for `account`."
      },
      "permit(address,address,uint256,uint256,uint8,bytes32,bytes32)": {
        "details": "Sets `value` as the allowance of `spender` over ``owner``'s tokens, given ``owner``'s signed approval. IMPORTANT: The same issues {IERC20-approve} has related to transaction ordering also apply here. Emits an {Approval} event. Requirements: - `spender` cannot be the zero address. - `deadline` must be a timestamp in the future. - `v`, `r` and `s` must be a valid `secp256k1` signature from `owner` over the EIP712-formatted function arguments. - the signature must use ``owner``'s current nonce (see {nonces}). For more information on the signature format, see the https://eips.ethereum.org/EIPS/eip-2612#specification[relevant EIP section]. CAUTION: See Security Considerations above."
      },
      "symbol()": {
        "details": "Returns the symbol of the token, usually a shorter version of the name."
      },
      "totalSupply()": {
        "details": "See {IERC20-totalSupply}."
      },
      "transfer(address,uint256)": {
        "details": "See {IERC20-transfer}. Requirements: - `to` cannot be the zero address. - the caller must have a balance of at least `amount`."
      },
      "transferFrom(address,address,uint256)": {
        "details": "See {IERC20-transferFrom}. Emits an {Approval} event indicating the updated allowance. This is not required by the EIP. See the note at the beginning of {ERC20}. NOTE: Does not update the allowance if the current allowance is the maximum `uint256`. Requirements: - `from` and `to` cannot be the zero address. - `from` must have a balance of at least `amount`. - the caller must have allowance for ``from``'s tokens of at least `amount`."
      }
    },
    "version": 1
  },
  "userdoc": {
    "kind": "user",
    "methods": {},
    "version": 1
  },
  "storageLayout": {
    "storage": [
      {
        "astId": 543,
        "contract": "contracts/periphery/EXA.sol:EXA",
        "label": "_initialized",
        "offset": 0,
        "slot": "0",
        "type": "t_uint8"
      },
      {
        "astId": 546,
        "contract": "contracts/periphery/EXA.sol:EXA",
        "label": "_initializing",
        "offset": 1,
        "slot": "0",
        "type": "t_bool"
      },
      {
        "astId": 3288,
        "contract": "contracts/periphery/EXA.sol:EXA",
        "label": "__gap",
        "offset": 0,
        "slot": "1",
        "type": "t_array(t_uint256)50_storage"
      },
      {
        "astId": 853,
        "contract": "contracts/periphery/EXA.sol:EXA",
        "label": "_balances",
        "offset": 0,
        "slot": "51",
        "type": "t_mapping(t_address,t_uint256)"
      },
      {
        "astId": 859,
        "contract": "contracts/periphery/EXA.sol:EXA",
        "label": "_allowances",
        "offset": 0,
        "slot": "52",
        "type": "t_mapping(t_address,t_mapping(t_address,t_uint256))"
      },
      {
        "astId": 861,
        "contract": "contracts/periphery/EXA.sol:EXA",
        "label": "_totalSupply",
        "offset": 0,
        "slot": "53",
        "type": "t_uint256"
      },
      {
        "astId": 863,
        "contract": "contracts/periphery/EXA.sol:EXA",
        "label": "_name",
        "offset": 0,
        "slot": "54",
        "type": "t_string_storage"
      },
      {
        "astId": 865,
        "contract": "contracts/periphery/EXA.sol:EXA",
        "label": "_symbol",
        "offset": 0,
        "slot": "55",
        "type": "t_string_storage"
      },
      {
        "astId": 1445,
        "contract": "contracts/periphery/EXA.sol:EXA",
        "label": "__gap",
        "offset": 0,
        "slot": "56",
        "type": "t_array(t_uint256)45_storage"
      },
      {
        "astId": 3977,
        "contract": "contracts/periphery/EXA.sol:EXA",
        "label": "_hashedName",
        "offset": 0,
        "slot": "101",
        "type": "t_bytes32"
      },
      {
        "astId": 3980,
        "contract": "contracts/periphery/EXA.sol:EXA",
        "label": "_hashedVersion",
        "offset": 0,
        "slot": "102",
        "type": "t_bytes32"
      },
      {
        "astId": 3982,
        "contract": "contracts/periphery/EXA.sol:EXA",
        "label": "_name",
        "offset": 0,
        "slot": "103",
        "type": "t_string_storage"
      },
      {
        "astId": 3984,
        "contract": "contracts/periphery/EXA.sol:EXA",
        "label": "_version",
        "offset": 0,
        "slot": "104",
        "type": "t_string_storage"
      },
      {
        "astId": 4242,
        "contract": "contracts/periphery/EXA.sol:EXA",
        "label": "__gap",
        "offset": 0,
        "slot": "105",
        "type": "t_array(t_uint256)48_storage"
      },
      {
        "astId": 1551,
        "contract": "contracts/periphery/EXA.sol:EXA",
        "label": "_nonces",
        "offset": 0,
        "slot": "153",
        "type": "t_mapping(t_address,t_struct(Counter)3295_storage)"
      },
      {
        "astId": 1559,
        "contract": "contracts/periphery/EXA.sol:EXA",
        "label": "_PERMIT_TYPEHASH_DEPRECATED_SLOT",
        "offset": 0,
        "slot": "154",
        "type": "t_bytes32"
      },
      {
        "astId": 1715,
        "contract": "contracts/periphery/EXA.sol:EXA",
        "label": "__gap",
        "offset": 0,
        "slot": "155",
        "type": "t_array(t_uint256)49_storage"
      },
      {
        "astId": 1746,
        "contract": "contracts/periphery/EXA.sol:EXA",
        "label": "_delegates",
        "offset": 0,
        "slot": "204",
        "type": "t_mapping(t_address,t_address)"
      },
      {
        "astId": 1752,
        "contract": "contracts/periphery/EXA.sol:EXA",
        "label": "_checkpoints",
        "offset": 0,
        "slot": "205",
        "type": "t_mapping(t_address,t_array(t_struct(Checkpoint)1737_storage)dyn_storage)"
      },
      {
        "astId": 1756,
        "contract": "contracts/periphery/EXA.sol:EXA",
        "label": "_totalSupplyCheckpoints",
        "offset": 0,
        "slot": "206",
        "type": "t_array(t_struct(Checkpoint)1737_storage)dyn_storage"
      },
      {
        "astId": 2470,
        "contract": "contracts/periphery/EXA.sol:EXA",
        "label": "__gap",
        "offset": 0,
        "slot": "207",
        "type": "t_array(t_uint256)47_storage"
      }
    ],
    "types": {
      "t_address": {
        "encoding": "inplace",
        "label": "address",
        "numberOfBytes": "20"
      },
      "t_array(t_struct(Checkpoint)1737_storage)dyn_storage": {
        "base": "t_struct(Checkpoint)1737_storage",
        "encoding": "dynamic_array",
        "label": "struct ERC20VotesUpgradeable.Checkpoint[]",
        "numberOfBytes": "32"
      },
      "t_array(t_uint256)45_storage": {
        "base": "t_uint256",
        "encoding": "inplace",
        "label": "uint256[45]",
        "numberOfBytes": "1440"
      },
      "t_array(t_uint256)47_storage": {
        "base": "t_uint256",
        "encoding": "inplace",
        "label": "uint256[47]",
        "numberOfBytes": "1504"
      },
      "t_array(t_uint256)48_storage": {
        "base": "t_uint256",
        "encoding": "inplace",
        "label": "uint256[48]",
        "numberOfBytes": "1536"
      },
      "t_array(t_uint256)49_storage": {
        "base": "t_uint256",
        "encoding": "inplace",
        "label": "uint256[49]",
        "numberOfBytes": "1568"
      },
      "t_array(t_uint256)50_storage": {
        "base": "t_uint256",
        "encoding": "inplace",
        "label": "uint256[50]",
        "numberOfBytes": "1600"
      },
      "t_bool": {
        "encoding": "inplace",
        "label": "bool",
        "numberOfBytes": "1"
      },
      "t_bytes32": {
        "encoding": "inplace",
        "label": "bytes32",
        "numberOfBytes": "32"
      },
      "t_mapping(t_address,t_address)": {
        "encoding": "mapping",
        "key": "t_address",
        "label": "mapping(address => address)",
        "numberOfBytes": "32",
        "value": "t_address"
      },
      "t_mapping(t_address,t_array(t_struct(Checkpoint)1737_storage)dyn_storage)": {
        "encoding": "mapping",
        "key": "t_address",
        "label": "mapping(address => struct ERC20VotesUpgradeable.Checkpoint[])",
        "numberOfBytes": "32",
        "value": "t_array(t_struct(Checkpoint)1737_storage)dyn_storage"
      },
      "t_mapping(t_address,t_mapping(t_address,t_uint256))": {
        "encoding": "mapping",
        "key": "t_address",
        "label": "mapping(address => mapping(address => uint256))",
        "numberOfBytes": "32",
        "value": "t_mapping(t_address,t_uint256)"
      },
      "t_mapping(t_address,t_struct(Counter)3295_storage)": {
        "encoding": "mapping",
        "key": "t_address",
        "label": "mapping(address => struct CountersUpgradeable.Counter)",
        "numberOfBytes": "32",
        "value": "t_struct(Counter)3295_storage"
      },
      "t_mapping(t_address,t_uint256)": {
        "encoding": "mapping",
        "key": "t_address",
        "label": "mapping(address => uint256)",
        "numberOfBytes": "32",
        "value": "t_uint256"
      },
      "t_string_storage": {
        "encoding": "bytes",
        "label": "string",
        "numberOfBytes": "32"
      },
      "t_struct(Checkpoint)1737_storage": {
        "encoding": "inplace",
        "label": "struct ERC20VotesUpgradeable.Checkpoint",
        "members": [
          {
            "astId": 1734,
            "contract": "contracts/periphery/EXA.sol:EXA",
            "label": "fromBlock",
            "offset": 0,
            "slot": "0",
            "type": "t_uint32"
          },
          {
            "astId": 1736,
            "contract": "contracts/periphery/EXA.sol:EXA",
            "label": "votes",
            "offset": 4,
            "slot": "0",
            "type": "t_uint224"
          }
        ],
        "numberOfBytes": "32"
      },
      "t_struct(Counter)3295_storage": {
        "encoding": "inplace",
        "label": "struct CountersUpgradeable.Counter",
        "members": [
          {
            "astId": 3294,
            "contract": "contracts/periphery/EXA.sol:EXA",
            "label": "_value",
            "offset": 0,
            "slot": "0",
            "type": "t_uint256"
          }
        ],
        "numberOfBytes": "32"
      },
      "t_uint224": {
        "encoding": "inplace",
        "label": "uint224",
        "numberOfBytes": "28"
      },
      "t_uint256": {
        "encoding": "inplace",
        "label": "uint256",
        "numberOfBytes": "32"
      },
      "t_uint32": {
        "encoding": "inplace",
        "label": "uint32",
        "numberOfBytes": "4"
      },
      "t_uint8": {
        "encoding": "inplace",
        "label": "uint8",
        "numberOfBytes": "1"
      }
    }
  }
}