{
  "address": "0x8AB66A29D10f5eD9962266e80bc8aF5A8305c003",
  "abi": [
    {
      "inputs": [
        {
          "components": [
            {
              "internalType": "uint256",
              "name": "minRate",
              "type": "uint256"
            },
            {
              "internalType": "uint256",
              "name": "naturalRate",
              "type": "uint256"
            },
            {
              "internalType": "uint256",
              "name": "maxUtilization",
              "type": "uint256"
            },
            {
              "internalType": "uint256",
              "name": "naturalUtilization",
              "type": "uint256"
            },
            {
              "internalType": "uint256",
              "name": "growthSpeed",
              "type": "uint256"
            },
            {
              "internalType": "uint256",
              "name": "sigmoidSpeed",
              "type": "uint256"
            },
            {
              "internalType": "uint256",
              "name": "spreadFactor",
              "type": "uint256"
            },
            {
              "internalType": "uint256",
              "name": "maturitySpeed",
              "type": "uint256"
            },
            {
              "internalType": "int256",
              "name": "timePreference",
              "type": "int256"
            },
            {
              "internalType": "uint256",
              "name": "fixedAllocation",
              "type": "uint256"
            },
            {
              "internalType": "uint256",
              "name": "maxRate",
              "type": "uint256"
            }
          ],
          "internalType": "struct Parameters",
          "name": "p",
          "type": "tuple"
        },
        {
          "internalType": "contract Market",
          "name": "market_",
          "type": "address"
        }
      ],
      "stateMutability": "nonpayable",
      "type": "constructor"
    },
    {
      "inputs": [],
      "name": "AlreadyMatured",
      "type": "error"
    },
    {
      "inputs": [],
      "name": "UtilizationExceeded",
      "type": "error"
    },
    {
      "inputs": [],
      "name": "fixedAllocation",
      "outputs": [
        {
          "internalType": "uint256",
          "name": "",
          "type": "uint256"
        }
      ],
      "stateMutability": "view",
      "type": "function"
    },
    {
      "inputs": [
        {
          "internalType": "uint256",
          "name": "maturity",
          "type": "uint256"
        },
        {
          "internalType": "uint256",
          "name": "amount",
          "type": "uint256"
        },
        {
          "internalType": "uint256",
          "name": "borrowed",
          "type": "uint256"
        },
        {
          "internalType": "uint256",
          "name": "supplied",
          "type": "uint256"
        },
        {
          "internalType": "uint256",
          "name": "",
          "type": "uint256"
        }
      ],
      "name": "fixedBorrowRate",
      "outputs": [
        {
          "internalType": "uint256",
          "name": "",
          "type": "uint256"
        }
      ],
      "stateMutability": "view",
      "type": "function"
    },
    {
      "inputs": [],
      "name": "fixedCurveA",
      "outputs": [
        {
          "internalType": "uint256",
          "name": "",
          "type": "uint256"
        }
      ],
      "stateMutability": "view",
      "type": "function"
    },
    {
      "inputs": [],
      "name": "fixedCurveB",
      "outputs": [
        {
          "internalType": "int256",
          "name": "",
          "type": "int256"
        }
      ],
      "stateMutability": "view",
      "type": "function"
    },
    {
      "inputs": [],
      "name": "fixedMaxUtilization",
      "outputs": [
        {
          "internalType": "uint256",
          "name": "",
          "type": "uint256"
        }
      ],
      "stateMutability": "view",
      "type": "function"
    },
    {
      "inputs": [
        {
          "internalType": "uint256",
          "name": "maturity",
          "type": "uint256"
        },
        {
          "internalType": "uint256",
          "name": "maxPools",
          "type": "uint256"
        },
        {
          "internalType": "uint256",
          "name": "uFixed",
          "type": "uint256"
        },
        {
          "internalType": "uint256",
          "name": "uFloating",
          "type": "uint256"
        },
        {
          "internalType": "uint256",
          "name": "uGlobal",
          "type": "uint256"
        }
      ],
      "name": "fixedRate",
      "outputs": [
        {
          "internalType": "uint256",
          "name": "",
          "type": "uint256"
        }
      ],
      "stateMutability": "view",
      "type": "function"
    },
    {
      "inputs": [],
      "name": "floatingCurveA",
      "outputs": [
        {
          "internalType": "uint256",
          "name": "",
          "type": "uint256"
        }
      ],
      "stateMutability": "view",
      "type": "function"
    },
    {
      "inputs": [],
      "name": "floatingCurveB",
      "outputs": [
        {
          "internalType": "int256",
          "name": "",
          "type": "int256"
        }
      ],
      "stateMutability": "view",
      "type": "function"
    },
    {
      "inputs": [],
      "name": "floatingMaxUtilization",
      "outputs": [
        {
          "internalType": "uint256",
          "name": "",
          "type": "uint256"
        }
      ],
      "stateMutability": "view",
      "type": "function"
    },
    {
      "inputs": [
        {
          "internalType": "uint256",
          "name": "uFloating",
          "type": "uint256"
        },
        {
          "internalType": "uint256",
          "name": "uGlobal",
          "type": "uint256"
        }
      ],
      "name": "floatingRate",
      "outputs": [
        {
          "internalType": "uint256",
          "name": "",
          "type": "uint256"
        }
      ],
      "stateMutability": "view",
      "type": "function"
    },
    {
      "inputs": [
        {
          "internalType": "uint256",
          "name": "",
          "type": "uint256"
        }
      ],
      "name": "floatingRate",
      "outputs": [
        {
          "internalType": "uint256",
          "name": "",
          "type": "uint256"
        }
      ],
      "stateMutability": "view",
      "type": "function"
    },
    {
      "inputs": [],
      "name": "growthSpeed",
      "outputs": [
        {
          "internalType": "int256",
          "name": "",
          "type": "int256"
        }
      ],
      "stateMutability": "view",
      "type": "function"
    },
    {
      "inputs": [],
      "name": "market",
      "outputs": [
        {
          "internalType": "contract Market",
          "name": "",
          "type": "address"
        }
      ],
      "stateMutability": "view",
      "type": "function"
    },
    {
      "inputs": [],
      "name": "maturitySpeed",
      "outputs": [
        {
          "internalType": "int256",
          "name": "",
          "type": "int256"
        }
      ],
      "stateMutability": "view",
      "type": "function"
    },
    {
      "inputs": [],
      "name": "maxRate",
      "outputs": [
        {
          "internalType": "uint256",
          "name": "",
          "type": "uint256"
        }
      ],
      "stateMutability": "view",
      "type": "function"
    },
    {
      "inputs": [
        {
          "internalType": "uint256",
          "name": "",
          "type": "uint256"
        },
        {
          "internalType": "uint256",
          "name": "",
          "type": "uint256"
        },
        {
          "internalType": "uint256",
          "name": "",
          "type": "uint256"
        }
      ],
      "name": "minFixedRate",
      "outputs": [
        {
          "internalType": "uint256",
          "name": "rate",
          "type": "uint256"
        },
        {
          "internalType": "uint256",
          "name": "utilization",
          "type": "uint256"
        }
      ],
      "stateMutability": "view",
      "type": "function"
    },
    {
      "inputs": [],
      "name": "naturalUtilization",
      "outputs": [
        {
          "internalType": "uint256",
          "name": "",
          "type": "uint256"
        }
      ],
      "stateMutability": "view",
      "type": "function"
    },
    {
      "inputs": [],
      "name": "parameters",
      "outputs": [
        {
          "components": [
            {
              "internalType": "uint256",
              "name": "minRate",
              "type": "uint256"
            },
            {
              "internalType": "uint256",
              "name": "naturalRate",
              "type": "uint256"
            },
            {
              "internalType": "uint256",
              "name": "maxUtilization",
              "type": "uint256"
            },
            {
              "internalType": "uint256",
              "name": "naturalUtilization",
              "type": "uint256"
            },
            {
              "internalType": "uint256",
              "name": "growthSpeed",
              "type": "uint256"
            },
            {
              "internalType": "uint256",
              "name": "sigmoidSpeed",
              "type": "uint256"
            },
            {
              "internalType": "uint256",
              "name": "spreadFactor",
              "type": "uint256"
            },
            {
              "internalType": "uint256",
              "name": "maturitySpeed",
              "type": "uint256"
            },
            {
              "internalType": "int256",
              "name": "timePreference",
              "type": "int256"
            },
            {
              "internalType": "uint256",
              "name": "fixedAllocation",
              "type": "uint256"
            },
            {
              "internalType": "uint256",
              "name": "maxRate",
              "type": "uint256"
            }
          ],
          "internalType": "struct Parameters",
          "name": "",
          "type": "tuple"
        }
      ],
      "stateMutability": "view",
      "type": "function"
    },
    {
      "inputs": [],
      "name": "sigmoidSpeed",
      "outputs": [
        {
          "internalType": "int256",
          "name": "",
          "type": "int256"
        }
      ],
      "stateMutability": "view",
      "type": "function"
    },
    {
      "inputs": [],
      "name": "spreadFactor",
      "outputs": [
        {
          "internalType": "int256",
          "name": "",
          "type": "int256"
        }
      ],
      "stateMutability": "view",
      "type": "function"
    },
    {
      "inputs": [],
      "name": "timePreference",
      "outputs": [
        {
          "internalType": "int256",
          "name": "",
          "type": "int256"
        }
      ],
      "stateMutability": "view",
      "type": "function"
    }
  ],
  "transactionHash": "0xb55bd6ce519c46255c35375eee413cd0f0614320aaf24eedd50ddd862f8f17c6",
  "args": [
    {
      "minRate": "20000000000000000",
      "naturalRate": "60000000000000000",
      "maxUtilization": "1300000000000000000",
      "naturalUtilization": "700000000000000000",
      "growthSpeed": "1400000000000000000",
      "sigmoidSpeed": "2500000000000000000",
      "spreadFactor": "200000000000000000",
      "maturitySpeed": "500000000000000000",
      "timePreference": "10000000000000000",
      "fixedAllocation": "600000000000000000",
      "maxRate": "18250000000000000000"
    },
    "0x1d42a3bb545ABAe142a98d91D590b99cA9236367"
  ],
  "numDeployments": 3,
  "solcInputHash": "981310f95dd87b624ab4ca3267ed4bcb",
  "bytecode": "0x61028060405234801562000011575f80fd5b506040516200300a3803806200300a833981016040819052620000349162000eaf565b8151158015906200004857505f8260200151115b8015620000605750670de0b6b3a76400008260400151115b80156200007057505f8260600151115b8015620000885750670de0b6b3a76400008260600151105b80156200009857505f8260800151115b8015620000a857505f8260a00151115b8015620000b857505f8260c00151115b8015620000c857505f8260e00151115b8015620000d957505f826101400151115b8015620000f45750680821ab0d441498000082610140015111155b62000103576200010362000f68565b81515f556020820151600155604082015160025560608201516003556080820151600481905560a083015160055560c083015160065560e0830151600755610100830151600855610120830151600955610140830151600a556200016790620003b5565b6101005260a08201516200017b90620003b5565b6101205260c08201516200018f90620003b5565b6101405260e0820151620001a390620003b5565b61016052604082015160c05260608201805160e05251620001cd90670de0b6b3a764000062000f90565b60408301516060840151620001e3908262000faa565b845f0151620002576200024b670de0b6b3a76400006200022960028a606001516200020f919062000fd4565b6200022390670de0b6b3a764000062000fea565b620003ce565b6101005162000239919062001013565b62000245919062001048565b62000574565b602088015190620006fa565b62000263919062000faa565b6200026f919062000f90565b6200027b919062000f90565b62000287919062000fd4565b608081905260408301516200029d919062000719565b8251620002ab919062000fea565b60a0526001600160a01b038116610200819052620002ca575f620002ce565b6080515b610220526001600160a01b038116620002e8575f620002ec565b60a0515b610240526001600160a01b03811662000306575f6200030c565b81604001515b61026052610100820151610180526101208201516101a0526101408201516101c05260e051620003599062000223906200034f90670de0b6b3a764000062000faa565b60e0519062000719565b6101e05262000397620003706224ea00426200107a565b6200037f6224ea004262001090565b6200038b919062000faa565b6002600180826200072f565b50620003ac670de0b6b3a763ffff8062000acf565b505050620010ed565b5f6001600160ff1b03821115620003ca575f80fd5b5090565b5f808213620003db575f80fd5b5f6060620003e98462000cd6565b03609f8181039490941b90931c6c465772b2bbbb5f824b15207a3081018102606090811d6d0388eaa27412d5aca026815d636e018202811d6d0df99ac502031bf953eff472fdcc018202811d6d13cdffb29d51d99322bdff5f2211018202811d6d0a0f742023def783a307a986912e018202811d6d01920d8043ca89b5239253284e42018202811d6c0b7a86d7375468fac667a0a527016c29508e458543d8aa4df2abee7883018302821d6d0139601a2efabe717e604cbb4894018302821d6d02247f7a7b6594320649aa03aba1018302821d6c8c3f38e95a6b1ff2ab1c3b343619018302821d6d02384773bdf1ac5676facced60901901830290911d6cb9a025d814b29c212b8b1a07cd190190910260016c0504a838426634cdd8738f543560611b03190105711340daa0d5f769dba1915cef59f0815a5506027d0267a36c0c95b3975ab3ee5b203a7614a3f75373f047d803ae7b6687f2b393909302929092017d57115e47018c7177eebf7cd370a3356a1b7863008a5ae8028c72b88642840160ae1d92915050565b5f680248ce36a70cb26b3e1982136200058e57505f919050565b680755bf798b4a1bf1e58212620005a3575f80fd5b6503782dace9d9604e83901b0591505f60606bb17217f7d1cf79abc9e3b39884821b056b80000000000000000000000001901d6bb17217f7d1cf79abc9e3b39881029093036c240c330e9fb2d9cbaf0fd5aafb1981018102606090811d6d0277594991cfc85f6e2461837cd9018202811d6d1a521255e34f6a5061b25ef1c9c319018202811d6db1bbb201f443cf962f1a1d3db4a5018202811d6e02c72388d9f74f51a9331fed693f1419018202811d6e05180bb14799ab47a8a8cb2a527d57016d02d16720577bd19bf614176fe9ea6c10fe68e7fd37d0007b713f765084018402831d9081019084016d01d3967ed30fc4f89c02bab5708119010290911d6e0587f503bb6ea29d25fcb7401964500190910279d835ebba824c98fb31b83b2ca45c000000000000000000000000010574029d9dc38563c32e5c2f6dc192ee70ef65f9978af30260c3939093039290921c92915050565b5f620007108383670de0b6b3a764000062000d44565b90505b92915050565b5f6200071083670de0b6b3a76400008462000d72565b5f85421062000751576040516305a29e1160e51b815260040160405180910390fd5b8184111562000773576040516386a8c2bd60e01b815260040160405180910390fd5b815f036200078f5762000787835f62000acf565b905062000ac6565b620007bd6040518060a001604052805f81526020015f81526020015f81526020015f81526020015f81525090565b6101a051620007e190620007da88670de0b6b3a764000062000f90565b9062000719565b8082526200080390620007fd90670de0b6b3a764000062000f90565b62000d91565b60208201526101a05162000842906ec097ce7bc90715b34b9f1000000000906200082e908662000f90565b6200083a888a62000f90565b919062000d72565b604082015260208101516200085790620003b5565b6200086b90670de0b6b3a764000062000fea565b60208201516200087b90620003b5565b62000887919062001013565b81516200089490620003b5565b620008a890671bc16d674ec8000062000fea565b620008c3906ec097ce7bc90715b34b9f100000000062001013565b620008cf919062001048565b60608201526200091a620008e76224ea00426200107a565b620008f66224ea008962000f90565b62000902904262001090565b6200090e919062000faa565b620007da428a62000faa565b8160800181815250505f62000a7c670de0b6b3a764000080670de0b6b3a764000080620009518760400151620003b560201b60201c565b60608801516200096a90670de0b6b3a764000062000fea565b62000976919062001013565b62000982919062001048565b670de0b6b3a7640000620009b3620009ad8960400151670de0b6b3a7640000620007fd919062000f90565b620003b5565b8860600151620009c4919062001013565b620009d0919062001048565b620009dc9190620010a6565b620009e8919062000fea565b61014051620009f8919062001013565b62000a04919062001048565b6101805162000a149190620010a6565b62000a4a670de0b6b3a764000062000a3a620002238860800151620003b560201b60201c565b6101605162000239919062001013565b62000a56919062001013565b62000a62919062001048565b62000a7690670de0b6b3a7640000620010a6565b62000e39565b90505f62000a8b868662000acf565b6101c05190915062000a9e908362000719565b811062000ab4576101c051935050505062000ac6565b62000ac08183620006fa565b93505050505b95945050505050565b5f8183111562000af2576040516386a8c2bd60e01b815260040160405180910390fd5b670de0b6b3a7640000821062000b0b57505f1962000713565b5f62000b4160a05162000b35620009ad8760c05162000b2b919062000faa565b6080519062000719565b62000a769190620010a6565b9050825f0362000b5357905062000713565b5f670de0b6b3a76400006101e05162000b876200022387670de0b6b3a764000062000b7f919062000faa565b889062000719565b62000b93919062000fea565b6101205162000ba3919062001013565b62000baf919062001048565b62000bba90620010d0565b90505f680755bf798b4a1bf1e4821362000c0b5762000c0562000be162000a768462000574565b62000bf590670de0b6b3a764000062001090565b670de0b6b3a76400009062000719565b62000c0d565b5f5b9050670de0b6b3a764000062000c406200022362000c2c848962000e47565b620009ad90670de0b6b3a764000062000faa565b6101005162000c4f90620010d0565b62000c5b919062001013565b62000c67919062001048565b91505f62000c9a62000a76680755bf798b4a1bf1e4851362000c8a578462000574565b680755bf798b4a1bf1e462000574565b905062000ca9845f1962000fd4565b81111562000cbf575f1994505050505062000713565b62000ccb8482620006fa565b979650505050505050565b5f80821162000ce3575f80fd5b5060016001600160801b03821160071b82811c6001600160401b031060061b1782811c63ffffffff1060051b1782811c61ffff1060041b1782811c60ff10600390811b90911783811c600f1060021b1783811c909110821b1791821c111790565b82820281151584158583048514171662000d5c575f80fd5b6001826001830304018115150290509392505050565b82820281151584158583048514171662000d8a575f80fd5b0492915050565b60b581600160881b811062000dab5760409190911b9060801c5b6901000000000000000000811062000dc85760209190911b9060401c5b65010000000000811062000de15760109190911b9060201c5b6301000000811062000df85760089190911b9060101c5b62010000010260121c80820401600190811c80830401811c80830401811c80830401811c80830401811c80830401811c80830401901c908190048111900390565b5f80821215620003ca575f80fd5b5f620007108383670de0b6b3a764000062000d72565b60405161016081016001600160401b038111828210171562000e8d57634e487b7160e01b5f52604160045260245ffd5b60405290565b80516001600160a01b038116811462000eaa575f80fd5b919050565b5f8082840361018081121562000ec3575f80fd5b6101608082121562000ed3575f80fd5b62000edd62000e5d565b9150845182526020850151602083015260408501516040830152606085015160608301526080850151608083015260a085015160a083015260c085015160c083015260e085015160e083015261010080860151818401525061012080860151818401525061014080860151818401525081935062000f5d81860162000e93565b925050509250929050565b634e487b7160e01b5f52600160045260245ffd5b634e487b7160e01b5f52601160045260245ffd5b808202811582820484141762000713576200071362000f7c565b8181038181111562000713576200071362000f7c565b634e487b7160e01b5f52601260045260245ffd5b5f8262000fe55762000fe562000fc0565b500490565b8181035f8312801583831316838312821617156200100c576200100c62000f7c565b5092915050565b8082025f8212600160ff1b8414161562001031576200103162000f7c565b818105831482151762000713576200071362000f7c565b5f8262001059576200105962000fc0565b600160ff1b82145f198414161562001075576200107562000f7c565b500590565b5f826200108b576200108b62000fc0565b500690565b8082018082111562000713576200071362000f7c565b8082018281125f831280158216821582161715620010c857620010c862000f7c565b505092915050565b5f600160ff1b8201620010e757620010e762000f7c565b505f0390565b60805160a05160c05160e05161010051610120516101405161016051610180516101a0516101c0516101e05161020051610220516102405161026051611dad6200125d5f395f61013b01525f61043a01525f6101ea01525f8181610273015281816104af01528181610532015281816105b9015281816106ab0152818161072e015281816107cf01528181610d2301528181610de801528181610e9301528181611649015281816117010152818161178e0152818161181e015281816118ae015261193d01525f61103601525f81816104610152818161067a01528181610c840152610cb101525f818161039f0152818161097701526109e901525f81816104880152610bc701525f81816103ed0152610c1201525f818161019c0152610b9301525f8181610211015261107c01525f8181610175015261112f01525f61035101525f81816103c60152610fc501525f81816101c30152610f9a01525f81816103780152610feb0152611dad5ff3fe608060405234801561000f575f80fd5b5060043610610132575f3560e01c806389035730116100b4578063d9641e6211610079578063d9641e62146103e8578063d9d9048d1461040f578063df635f3d14610422578063dfb08e1014610435578063ece1d6e51461045c578063ef633e3014610483575f80fd5b806389035730146102c05780638958401f1461034c578063b996993414610373578063be8203371461039a578063d8372685146103c1575f80fd5b806351b8b491116100fa57806351b8b4911461020c57806362caa049146102335780637c21fb1d1461025b57806380f556051461026e57806384a87466146102ad575f80fd5b80630481520b14610136578063148a1300146101705780631cd16f141461019757806326980121146101be5780634d6fc522146101e5575b5f80fd5b61015d7f000000000000000000000000000000000000000000000000000000000000000081565b6040519081526020015b60405180910390f35b61015d7f000000000000000000000000000000000000000000000000000000000000000081565b61015d7f000000000000000000000000000000000000000000000000000000000000000081565b61015d7f000000000000000000000000000000000000000000000000000000000000000081565b61015d7f000000000000000000000000000000000000000000000000000000000000000081565b61015d7f000000000000000000000000000000000000000000000000000000000000000081565b610246610241366004611aff565b6104aa565b60408051928352602083019190915201610167565b61015d610269366004611b28565b61066a565b6102957f000000000000000000000000000000000000000000000000000000000000000081565b6040516001600160a01b039091168152602001610167565b61015d6102bb366004611b48565b6106a7565b6102c8610831565b60405161016791905f61016082019050825182526020830151602083015260408301516040830152606083015160608301526080830151608083015260a083015160a083015260c083015160c083015260e083015160e083015261010080840151818401525061012080840151818401525061014080840151818401525092915050565b61015d7f000000000000000000000000000000000000000000000000000000000000000081565b61015d7f000000000000000000000000000000000000000000000000000000000000000081565b61015d7f000000000000000000000000000000000000000000000000000000000000000081565b61015d7f000000000000000000000000000000000000000000000000000000000000000081565b61015d7f000000000000000000000000000000000000000000000000000000000000000081565b61015d61041d366004611b5f565b6108eb565b61015d610430366004611b5f565b610cf3565b61015d7f000000000000000000000000000000000000000000000000000000000000000081565b61015d7f000000000000000000000000000000000000000000000000000000000000000081565b61015d7f000000000000000000000000000000000000000000000000000000000000000081565b5f805f7f00000000000000000000000000000000000000000000000000000000000000006001600160a01b031663e94b3c216040518163ffffffff1660e01b8152600401602060405180830381865afa158015610509573d5f803e3d5ffd5b505050506040513d601f19601f8201168201806040525081019061052d9190611b96565b90505f7f00000000000000000000000000000000000000000000000000000000000000006001600160a01b031663eee8c9e06040518163ffffffff1660e01b8152600401602060405180830381865afa15801561058c573d5f803e3d5ffd5b505050506040513d601f19601f820116820180604052508101906105b09190611b96565b905061063c82827f00000000000000000000000000000000000000000000000000000000000000006001600160a01b0316638c3cba5a6040518163ffffffff1660e01b8152600401602060405180830381865afa158015610613573d5f803e3d5ffd5b505050506040513d601f19601f820116820180604052508101906106379190611b96565b610f29565b925061065e825f0361064e575f610658565b6106588284610f47565b84610f5b565b93505050935093915050565b5f61069e6106788484610f5b565b7f00000000000000000000000000000000000000000000000000000000000000006111cb565b90505b92915050565b5f807f00000000000000000000000000000000000000000000000000000000000000006001600160a01b0316632e0af0086040518163ffffffff1660e01b8152600401602060405180830381865afa158015610705573d5f803e3d5ffd5b505050506040513d601f19601f820116820180604052508101906107299190611b96565b90505f7f00000000000000000000000000000000000000000000000000000000000000006001600160a01b0316631a90f1866040518163ffffffff1660e01b8152600401602060405180830381865afa158015610788573d5f803e3d5ffd5b505050506040513d601f19601f820116820180604052508101906107ac9190611b96565b9050610829825f036107be575f6107c8565b6107c88284610f47565b61026984847f00000000000000000000000000000000000000000000000000000000000000006001600160a01b0316638c3cba5a6040518163ffffffff1660e01b8152600401602060405180830381865afa158015610613573d5f803e3d5ffd5b949350505050565b6108836040518061016001604052805f81526020015f81526020015f81526020015f81526020015f81526020015f81526020015f81526020015f81526020015f81526020015f81526020015f81525090565b5060408051610160810182525f5481526001546020820152600254918101919091526003546060820152600454608082015260055460a082015260065460c082015260075460e0820152600854610100820152600954610120820152600a5461014082015290565b5f85421061090c576040516305a29e1160e51b815260040160405180910390fd5b8184111561092d576040516386a8c2bd60e01b815260040160405180910390fd5b815f036109455761093e835f610f5b565b9050610cea565b6109726040518060a001604052805f81526020015f81526020015f81526020015f81526020015f81525090565b6109ae7f00000000000000000000000000000000000000000000000000000000000000006109a888670de0b6b3a7640000611bc1565b906111e0565b8082526109cc906109c790670de0b6b3a7640000611bc1565b6111f4565b6020820152610a1f6ec097ce7bc90715b34b9f1000000000610a0e7f000000000000000000000000000000000000000000000000000000000000000086611bc1565b610a18888a611bc1565b9190611298565b60408201526020810151610a32906112b6565b610a4490670de0b6b3a7640000611bd8565b610a5182602001516112b6565b610a5b9190611bfe565b8151610a66906112b6565b610a7890671bc16d674ec80000611bd8565b610a91906ec097ce7bc90715b34b9f1000000000611bfe565b610a9b9190611c41565b6060820152610adb610ab06224ea0042611c6d565b610abd6224ea0089611bc1565b610ac79042611c80565b610ad19190611c93565b6109a8428a611c93565b8160800181815250505f610c70670de0b6b3a764000080670de0b6b3a764000080610b0987604001516112b6565b6060880151610b2090670de0b6b3a7640000611bd8565b610b2a9190611bfe565b610b349190611c41565b670de0b6b3a7640000610b60610b5b8960400151670de0b6b3a76400006109c79190611bc1565b6112b6565b8860600151610b6f9190611bfe565b610b799190611c41565b610b839190611ca6565b610b8d9190611bd8565b610bb7907f0000000000000000000000000000000000000000000000000000000000000000611bfe565b610bc19190611c41565b610beb907f0000000000000000000000000000000000000000000000000000000000000000611ca6565b610c45670de0b6b3a7640000610c0c610c0788608001516112b6565b6112ce565b610c36907f0000000000000000000000000000000000000000000000000000000000000000611bfe565b610c409190611c41565b611477565b610c4f9190611bfe565b610c599190611c41565b610c6b90670de0b6b3a7640000611ca6565b6115ea565b90505f610c7d8686610f5b565b9050610ca97f0000000000000000000000000000000000000000000000000000000000000000836111e0565b8110610cda577f00000000000000000000000000000000000000000000000000000000000000009350505050610cea565b610ce481836115f7565b93505050505b95945050505050565b5f854210610d14576040516305a29e1160e51b815260040160405180910390fd5b5f610d1e8761160b565b90505f7f00000000000000000000000000000000000000000000000000000000000000006001600160a01b031663eee8c9e06040518163ffffffff1660e01b8152600401602060405180830381865afa158015610d7d573d5f803e3d5ffd5b505050506040513d601f19601f82011682018060405250810190610da19190611b96565b90505f610dae8888611c80565b90505f610dc4610dbe8989611a12565b836111cb565b610dce9083611c93565b9050610f1b610ddd428c611c93565b6301e13380610a188d7f00000000000000000000000000000000000000000000000000000000000000006001600160a01b0316630e52dbec6040518163ffffffff1660e01b8152600401602060405180830381865afa158015610e42573d5f803e3d5ffd5b505050506040513d601f19601f82011682018060405250810190610e669190611ccd565b60ff16610e748d898c611a20565b8a5f03610e81575f610e8b565b610e8b8a8c610f47565b61041d8c8c8b7f00000000000000000000000000000000000000000000000000000000000000006001600160a01b0316638c3cba5a6040518163ffffffff1660e01b8152600401602060405180830381865afa158015610eed573d5f803e3d5ffd5b505050506040513d601f19601f82011682018060405250810190610f119190611b96565b6106379190611c80565b9a9950505050505050505050565b5f835f03610f37575f610829565b61082984610f458486611c80565b905b5f61069e83670de0b6b3a764000084611a47565b5f81831115610f7d576040516386a8c2bd60e01b815260040160405180910390fd5b670de0b6b3a76400008210610f9457505f196106a1565b5f61101a7f0000000000000000000000000000000000000000000000000000000000000000611010610b5b610fe9887f0000000000000000000000000000000000000000000000000000000000000000611c93565b7f0000000000000000000000000000000000000000000000000000000000000000906111e0565b610c6b9190611ca6565b9050825f0361102a5790506106a1565b5f670de0b6b3a76400007f000000000000000000000000000000000000000000000000000000000000000061106c610c076110658885611c93565b88906111e0565b6110769190611bd8565b6110a0907f0000000000000000000000000000000000000000000000000000000000000000611bfe565b6110aa9190611c41565b6110b390611cf4565b90505f680755bf798b4a1bf1e482136110fb576110f66110d5610c6b84611477565b6110e790670de0b6b3a7640000611c80565b670de0b6b3a7640000906111e0565b6110fd565b5f5b9050670de0b6b3a764000061112a610c076111188489611a74565b610b5b90670de0b6b3a7640000611c93565b6111537f0000000000000000000000000000000000000000000000000000000000000000611cf4565b61115d9190611bfe565b6111679190611c41565b91505f611195610c6b680755bf798b4a1bf1e485136111865784611477565b680755bf798b4a1bf1e4611477565b90506111a2845f19611d0e565b8111156111b6575f199450505050506106a1565b6111c084826115f7565b979650505050505050565b5f8183106111d9578161069e565b5090919050565b5f61069e83670de0b6b3a764000084611298565b60b581600160881b811061120d5760409190911b9060801c5b690100000000000000000081106112295760209190911b9060401c5b6501000000000081106112415760109190911b9060201c5b630100000081106112575760089190911b9060101c5b62010000010260121c80820401600190811c80830401811c80830401811c80830401811c80830401811c80830401811c80830401901c908190048111900390565b8282028115158415858304851417166112af575f80fd5b0492915050565b5f6001600160ff1b038211156112ca575f80fd5b5090565b5f8082136112da575f80fd5b5f60606112e684611a88565b03609f8181039490941b90931c6c465772b2bbbb5f824b15207a3081018102606090811d6d0388eaa27412d5aca026815d636e018202811d6d0df99ac502031bf953eff472fdcc018202811d6d13cdffb29d51d99322bdff5f2211018202811d6d0a0f742023def783a307a986912e018202811d6d01920d8043ca89b5239253284e42018202811d6c0b7a86d7375468fac667a0a527016c29508e458543d8aa4df2abee7883018302821d6d0139601a2efabe717e604cbb4894018302821d6d02247f7a7b6594320649aa03aba1018302821d6c8c3f38e95a6b1ff2ab1c3b343619018302821d6d02384773bdf1ac5676facced60901901830290911d6cb9a025d814b29c212b8b1a07cd1901909102780a09507084cc699bb0e71ea869ffffffffffffffffffffffff190105711340daa0d5f769dba1915cef59f0815a5506027d0267a36c0c95b3975ab3ee5b203a7614a3f75373f047d803ae7b6687f2b393909302929092017d57115e47018c7177eebf7cd370a3356a1b7863008a5ae8028c72b88642840160ae1d92915050565b5f680248ce36a70cb26b3e19821361149057505f919050565b680755bf798b4a1bf1e582126114a4575f80fd5b6503782dace9d9604e83901b0591505f60606bb17217f7d1cf79abc9e3b39884821b056001605f1b01901d6bb17217f7d1cf79abc9e3b39881029093036c240c330e9fb2d9cbaf0fd5aafb1981018102606090811d6d0277594991cfc85f6e2461837cd9018202811d6d1a521255e34f6a5061b25ef1c9c319018202811d6db1bbb201f443cf962f1a1d3db4a5018202811d6e02c72388d9f74f51a9331fed693f1419018202811d6e05180bb14799ab47a8a8cb2a527d57016d02d16720577bd19bf614176fe9ea6c10fe68e7fd37d0007b713f765084018402831d9081019084016d01d3967ed30fc4f89c02bab5708119010290911d6e0587f503bb6ea29d25fcb740196450019091026d360d7aeea093263ecc6e0ecb291760621b010574029d9dc38563c32e5c2f6dc192ee70ef65f9978af30260c3939093039290921c92915050565b5f808212156112ca575f80fd5b5f61069e8383670de0b6b3a7640000611a47565b5f61163360405180608001604052805f81526020015f81526020015f81526020015f81525090565b604051634e7c505960e01b8152600481018490527f00000000000000000000000000000000000000000000000000000000000000006001600160a01b031690634e7c505990602401608060405180830381865afa158015611696573d5f803e3d5ffd5b505050506040513d601f19601f820116820180604052508101906116ba9190611d21565b60608501819052604085019190915260208401919091529082525f906116ff906116e49042611c93565b60608401516116f39087611c93565b60408501519190611298565b7f00000000000000000000000000000000000000000000000000000000000000006001600160a01b0316632e0af0086040518163ffffffff1660e01b8152600401602060405180830381865afa15801561175b573d5f803e3d5ffd5b505050506040513d601f19601f8201168201806040525081019061177f9190611b96565b6117899190611c80565b90505f7f00000000000000000000000000000000000000000000000000000000000000006001600160a01b031663e94b3c216040518163ffffffff1660e01b8152600401602060405180830381865afa1580156117e8573d5f803e3d5ffd5b505050506040513d601f19601f8201168201806040525081019061180c9190611b96565b90505f6119d66119c483851061193b577f00000000000000000000000000000000000000000000000000000000000000006001600160a01b031663fb0fc4c36040518163ffffffff1660e01b8152600401602060405180830381865afa158015611878573d5f803e3d5ffd5b505050506040513d601f19601f8201168201806040525081019061189c9190611d54565b6118ac9063ffffffff1642611c93565b7f00000000000000000000000000000000000000000000000000000000000000006001600160a01b0316630539fa8c6040518163ffffffff1660e01b8152600401602060405180830381865afa158015611908573d5f803e3d5ffd5b505050506040513d601f19601f8201168201806040525081019061192c9190611b96565b6119369190611bc1565b6119bb565b7f00000000000000000000000000000000000000000000000000000000000000006001600160a01b0316633aa18d6f6040518163ffffffff1660e01b8152600401602060405180830381865afa158015611997573d5f803e3d5ffd5b505050506040513d601f19601f820116820180604052508101906119bb9190611b96565b610c4090611cf4565b610c6b90670de0b6b3a7640000611bd8565b90506119e28184611a74565b6119fe6119f783670de0b6b3a7640000611c93565b8490611a74565b611a089190611c80565b9695505050505050565b5f8183116111d9578161069e565b5f8115801590611a2f57508383115b611a39575f610829565b61082982610f458686611c93565b828202811515841585830485141716611a5e575f80fd5b6001826001830304018115150290509392505050565b5f61069e8383670de0b6b3a7640000611298565b5f808211611a94575f80fd5b5060016fffffffffffffffffffffffffffffffff821160071b82811c67ffffffffffffffff1060061b1782811c63ffffffff1060051b1782811c61ffff1060041b1782811c60ff10600390811b90911783811c600f1060021b1783811c909110821b1791821c111790565b5f805f60608486031215611b11575f80fd5b505081359360208301359350604090920135919050565b5f8060408385031215611b39575f80fd5b50508035926020909101359150565b5f60208284031215611b58575f80fd5b5035919050565b5f805f805f60a08688031215611b73575f80fd5b505083359560208501359550604085013594606081013594506080013592509050565b5f60208284031215611ba6575f80fd5b5051919050565b634e487b7160e01b5f52601160045260245ffd5b80820281158282048414176106a1576106a1611bad565b8181035f831280158383131683831282161715611bf757611bf7611bad565b5092915050565b8082025f8212600160ff1b84141615611c1957611c19611bad565b81810583148215176106a1576106a1611bad565b634e487b7160e01b5f52601260045260245ffd5b5f82611c4f57611c4f611c2d565b600160ff1b82145f1984141615611c6857611c68611bad565b500590565b5f82611c7b57611c7b611c2d565b500690565b808201808211156106a1576106a1611bad565b818103818111156106a1576106a1611bad565b8082018281125f831280158216821582161715611cc557611cc5611bad565b505092915050565b5f60208284031215611cdd575f80fd5b815160ff81168114611ced575f80fd5b9392505050565b5f600160ff1b8201611d0857611d08611bad565b505f0390565b5f82611d1c57611d1c611c2d565b500490565b5f805f8060808587031215611d34575f80fd5b505082516020840151604085015160609095015191969095509092509050565b5f60208284031215611d64575f80fd5b815163ffffffff81168114611ced575f80fdfea2646970667358221220fe1d4977e39eaee6ca64ef47754ed1c2bbcfdcac0860ca3ce56b30f4329ec41464736f6c63430008170033",
  "devdoc": {
    "kind": "dev",
    "methods": {
      "fixedBorrowRate(uint256,uint256,uint256,uint256,uint256)": {
        "details": "Deprecated in favor of `fixedRate(maturity, maxPools, uFixed, uFloating, uGlobal)`"
      },
      "fixedRate(uint256,uint256,uint256,uint256,uint256)": {
        "params": {
          "maturity": "maturity of the pool.",
          "maxPools": "number of pools available in the time horizon.",
          "uFixed": "fixed utilization of the pool.",
          "uFloating": "floating utilization of the pool.",
          "uGlobal": "global utilization of the pool."
        },
        "returns": {
          "_0": "the minimum between `base * spread` and `maxRate` with given conditions."
        }
      },
      "floatingRate(uint256)": {
        "details": "Deprecated in favor of `floatingRate(uFloating, uGlobal)`."
      },
      "floatingRate(uint256,uint256)": {
        "params": {
          "uFloating": "floating utilization of the pool.",
          "uGlobal": "global utilization of the pool."
        },
        "returns": {
          "_0": "the minimum between `baseRate` and `maxRate` with given conditions."
        }
      },
      "minFixedRate(uint256,uint256,uint256)": {
        "details": "deprecated in favor of `fixedRate(maturity, maxPools, uFixed, uFloating, uGlobal)`"
      }
    },
    "stateVariables": {
      "EXP_THRESHOLD": {
        "details": "maximum input value for expWad, ~ln((2^255 - 1) / 1e18), represented with 18 decimals."
      },
      "auxSigmoid": {
        "details": "auxiliary variable to save an extra operation."
      }
    },
    "version": 1
  },
  "userdoc": {
    "kind": "user",
    "methods": {
      "fixedAllocation()": {
        "notice": "liquidity naturally designated to fixed pools, represented with 18 decimals."
      },
      "fixedRate(uint256,uint256,uint256,uint256,uint256)": {
        "notice": "fixed rate with given conditions, represented with 18 decimals."
      },
      "floatingCurveA()": {
        "notice": "Scale factor of the floating curve."
      },
      "floatingCurveB()": {
        "notice": "Origin intercept of the floating curve."
      },
      "floatingMaxUtilization()": {
        "notice": "Asymptote of the floating curve."
      },
      "floatingRate(uint256,uint256)": {
        "notice": "floating rate with given conditions, represented with 18 decimals."
      },
      "growthSpeed()": {
        "notice": "speed of growth for the base rate, represented with 18 decimals."
      },
      "market()": {
        "notice": "Market where the interest rate model is used. Keeps compatibility with legacy interest rate model."
      },
      "maturitySpeed()": {
        "notice": "speed of maturity for the fixed rate, represented with 18 decimals."
      },
      "maxRate()": {
        "notice": "maximum interest rate, represented with 18 decimals."
      },
      "naturalUtilization()": {
        "notice": "natural level of utilization, represented with 18 decimals."
      },
      "sigmoidSpeed()": {
        "notice": "speed of the sigmoid curve, represented with 18 decimals."
      },
      "spreadFactor()": {
        "notice": "spread factor for the fixed rate, represented with 18 decimals."
      },
      "timePreference()": {
        "notice": "time preference for the fixed rate, represented with 18 decimals."
      }
    },
    "version": 1
  },
  "storageLayout": {
    "storage": [
      {
        "astId": 6718,
        "contract": "contracts/InterestRateModel.sol:InterestRateModel",
        "label": "_parameters",
        "offset": 0,
        "slot": "0",
        "type": "t_struct(Parameters)7793_storage"
      }
    ],
    "types": {
      "t_int256": {
        "encoding": "inplace",
        "label": "int256",
        "numberOfBytes": "32"
      },
      "t_struct(Parameters)7793_storage": {
        "encoding": "inplace",
        "label": "struct Parameters",
        "members": [
          {
            "astId": 7772,
            "contract": "contracts/InterestRateModel.sol:InterestRateModel",
            "label": "minRate",
            "offset": 0,
            "slot": "0",
            "type": "t_uint256"
          },
          {
            "astId": 7774,
            "contract": "contracts/InterestRateModel.sol:InterestRateModel",
            "label": "naturalRate",
            "offset": 0,
            "slot": "1",
            "type": "t_uint256"
          },
          {
            "astId": 7776,
            "contract": "contracts/InterestRateModel.sol:InterestRateModel",
            "label": "maxUtilization",
            "offset": 0,
            "slot": "2",
            "type": "t_uint256"
          },
          {
            "astId": 7778,
            "contract": "contracts/InterestRateModel.sol:InterestRateModel",
            "label": "naturalUtilization",
            "offset": 0,
            "slot": "3",
            "type": "t_uint256"
          },
          {
            "astId": 7780,
            "contract": "contracts/InterestRateModel.sol:InterestRateModel",
            "label": "growthSpeed",
            "offset": 0,
            "slot": "4",
            "type": "t_uint256"
          },
          {
            "astId": 7782,
            "contract": "contracts/InterestRateModel.sol:InterestRateModel",
            "label": "sigmoidSpeed",
            "offset": 0,
            "slot": "5",
            "type": "t_uint256"
          },
          {
            "astId": 7784,
            "contract": "contracts/InterestRateModel.sol:InterestRateModel",
            "label": "spreadFactor",
            "offset": 0,
            "slot": "6",
            "type": "t_uint256"
          },
          {
            "astId": 7786,
            "contract": "contracts/InterestRateModel.sol:InterestRateModel",
            "label": "maturitySpeed",
            "offset": 0,
            "slot": "7",
            "type": "t_uint256"
          },
          {
            "astId": 7788,
            "contract": "contracts/InterestRateModel.sol:InterestRateModel",
            "label": "timePreference",
            "offset": 0,
            "slot": "8",
            "type": "t_int256"
          },
          {
            "astId": 7790,
            "contract": "contracts/InterestRateModel.sol:InterestRateModel",
            "label": "fixedAllocation",
            "offset": 0,
            "slot": "9",
            "type": "t_uint256"
          },
          {
            "astId": 7792,
            "contract": "contracts/InterestRateModel.sol:InterestRateModel",
            "label": "maxRate",
            "offset": 0,
            "slot": "10",
            "type": "t_uint256"
          }
        ],
        "numberOfBytes": "352"
      },
      "t_uint256": {
        "encoding": "inplace",
        "label": "uint256",
        "numberOfBytes": "32"
      }
    }
  }
}