{
  "address": "0x4c955C151E36c35681A364f37CEf2E51856a390A",
  "abi": [
    {
      "inputs": [
        {
          "internalType": "contract ERC20",
          "name": "asset_",
          "type": "address"
        },
        {
          "internalType": "contract Auditor",
          "name": "auditor_",
          "type": "address"
        }
      ],
      "stateMutability": "nonpayable",
      "type": "constructor"
    },
    {
      "inputs": [],
      "name": "Disagreement",
      "type": "error"
    },
    {
      "inputs": [],
      "name": "InsufficientProtocolLiquidity",
      "type": "error"
    },
    {
      "inputs": [],
      "name": "MarketFrozen",
      "type": "error"
    },
    {
      "inputs": [],
      "name": "MaturityOverflow",
      "type": "error"
    },
    {
      "inputs": [],
      "name": "NotAuditor",
      "type": "error"
    },
    {
      "inputs": [],
      "name": "NotPausingRole",
      "type": "error"
    },
    {
      "inputs": [],
      "name": "SelfLiquidation",
      "type": "error"
    },
    {
      "inputs": [
        {
          "internalType": "uint8",
          "name": "state",
          "type": "uint8"
        },
        {
          "internalType": "uint8",
          "name": "requiredState",
          "type": "uint8"
        }
      ],
      "name": "UnmatchedPoolState",
      "type": "error"
    },
    {
      "inputs": [
        {
          "internalType": "uint8",
          "name": "state",
          "type": "uint8"
        },
        {
          "internalType": "uint8",
          "name": "requiredState",
          "type": "uint8"
        },
        {
          "internalType": "uint8",
          "name": "alternativeState",
          "type": "uint8"
        }
      ],
      "name": "UnmatchedPoolStates",
      "type": "error"
    },
    {
      "inputs": [],
      "name": "ZeroBorrow",
      "type": "error"
    },
    {
      "inputs": [],
      "name": "ZeroDeposit",
      "type": "error"
    },
    {
      "inputs": [],
      "name": "ZeroRepay",
      "type": "error"
    },
    {
      "inputs": [],
      "name": "ZeroWithdraw",
      "type": "error"
    },
    {
      "anonymous": false,
      "inputs": [
        {
          "indexed": false,
          "internalType": "uint256",
          "name": "timestamp",
          "type": "uint256"
        }
      ],
      "name": "AccumulatorAccrual",
      "type": "event"
    },
    {
      "anonymous": false,
      "inputs": [
        {
          "indexed": true,
          "internalType": "address",
          "name": "owner",
          "type": "address"
        },
        {
          "indexed": true,
          "internalType": "address",
          "name": "spender",
          "type": "address"
        },
        {
          "indexed": false,
          "internalType": "uint256",
          "name": "amount",
          "type": "uint256"
        }
      ],
      "name": "Approval",
      "type": "event"
    },
    {
      "anonymous": false,
      "inputs": [
        {
          "indexed": false,
          "internalType": "uint256",
          "name": "backupFeeRate",
          "type": "uint256"
        }
      ],
      "name": "BackupFeeRateSet",
      "type": "event"
    },
    {
      "anonymous": false,
      "inputs": [
        {
          "indexed": true,
          "internalType": "address",
          "name": "caller",
          "type": "address"
        },
        {
          "indexed": true,
          "internalType": "address",
          "name": "receiver",
          "type": "address"
        },
        {
          "indexed": true,
          "internalType": "address",
          "name": "borrower",
          "type": "address"
        },
        {
          "indexed": false,
          "internalType": "uint256",
          "name": "assets",
          "type": "uint256"
        },
        {
          "indexed": false,
          "internalType": "uint256",
          "name": "shares",
          "type": "uint256"
        }
      ],
      "name": "Borrow",
      "type": "event"
    },
    {
      "anonymous": false,
      "inputs": [
        {
          "indexed": true,
          "internalType": "uint256",
          "name": "maturity",
          "type": "uint256"
        },
        {
          "indexed": false,
          "internalType": "address",
          "name": "caller",
          "type": "address"
        },
        {
          "indexed": true,
          "internalType": "address",
          "name": "receiver",
          "type": "address"
        },
        {
          "indexed": true,
          "internalType": "address",
          "name": "borrower",
          "type": "address"
        },
        {
          "indexed": false,
          "internalType": "uint256",
          "name": "assets",
          "type": "uint256"
        },
        {
          "indexed": false,
          "internalType": "uint256",
          "name": "fee",
          "type": "uint256"
        }
      ],
      "name": "BorrowAtMaturity",
      "type": "event"
    },
    {
      "anonymous": false,
      "inputs": [
        {
          "indexed": false,
          "internalType": "uint256",
          "name": "dampSpeedUp",
          "type": "uint256"
        },
        {
          "indexed": false,
          "internalType": "uint256",
          "name": "dampSpeedDown",
          "type": "uint256"
        }
      ],
      "name": "DampSpeedSet",
      "type": "event"
    },
    {
      "anonymous": false,
      "inputs": [
        {
          "indexed": true,
          "internalType": "address",
          "name": "caller",
          "type": "address"
        },
        {
          "indexed": true,
          "internalType": "address",
          "name": "owner",
          "type": "address"
        },
        {
          "indexed": false,
          "internalType": "uint256",
          "name": "assets",
          "type": "uint256"
        },
        {
          "indexed": false,
          "internalType": "uint256",
          "name": "shares",
          "type": "uint256"
        }
      ],
      "name": "Deposit",
      "type": "event"
    },
    {
      "anonymous": false,
      "inputs": [
        {
          "indexed": true,
          "internalType": "uint256",
          "name": "maturity",
          "type": "uint256"
        },
        {
          "indexed": true,
          "internalType": "address",
          "name": "caller",
          "type": "address"
        },
        {
          "indexed": true,
          "internalType": "address",
          "name": "owner",
          "type": "address"
        },
        {
          "indexed": false,
          "internalType": "uint256",
          "name": "assets",
          "type": "uint256"
        },
        {
          "indexed": false,
          "internalType": "uint256",
          "name": "fee",
          "type": "uint256"
        }
      ],
      "name": "DepositAtMaturity",
      "type": "event"
    },
    {
      "anonymous": false,
      "inputs": [
        {
          "indexed": false,
          "internalType": "uint256",
          "name": "earningsAccumulatorSmoothFactor",
          "type": "uint256"
        }
      ],
      "name": "EarningsAccumulatorSmoothFactorSet",
      "type": "event"
    },
    {
      "anonymous": false,
      "inputs": [
        {
          "indexed": false,
          "internalType": "uint256",
          "name": "timestamp",
          "type": "uint256"
        },
        {
          "indexed": true,
          "internalType": "uint256",
          "name": "maturity",
          "type": "uint256"
        },
        {
          "indexed": false,
          "internalType": "uint256",
          "name": "unassignedEarnings",
          "type": "uint256"
        }
      ],
      "name": "FixedEarningsUpdate",
      "type": "event"
    },
    {
      "anonymous": false,
      "inputs": [
        {
          "indexed": false,
          "internalType": "uint256",
          "name": "timestamp",
          "type": "uint256"
        },
        {
          "indexed": false,
          "internalType": "uint256",
          "name": "utilization",
          "type": "uint256"
        }
      ],
      "name": "FloatingDebtUpdate",
      "type": "event"
    },
    {
      "anonymous": false,
      "inputs": [
        {
          "indexed": true,
          "internalType": "address",
          "name": "account",
          "type": "address"
        },
        {
          "indexed": false,
          "internalType": "bool",
          "name": "isFrozen",
          "type": "bool"
        }
      ],
      "name": "Frozen",
      "type": "event"
    },
    {
      "anonymous": false,
      "inputs": [
        {
          "indexed": false,
          "internalType": "uint8",
          "name": "version",
          "type": "uint8"
        }
      ],
      "name": "Initialized",
      "type": "event"
    },
    {
      "anonymous": false,
      "inputs": [
        {
          "indexed": true,
          "internalType": "contract InterestRateModel",
          "name": "interestRateModel",
          "type": "address"
        }
      ],
      "name": "InterestRateModelSet",
      "type": "event"
    },
    {
      "anonymous": false,
      "inputs": [
        {
          "indexed": true,
          "internalType": "address",
          "name": "receiver",
          "type": "address"
        },
        {
          "indexed": true,
          "internalType": "address",
          "name": "borrower",
          "type": "address"
        },
        {
          "indexed": false,
          "internalType": "uint256",
          "name": "assets",
          "type": "uint256"
        },
        {
          "indexed": false,
          "internalType": "uint256",
          "name": "lendersAssets",
          "type": "uint256"
        },
        {
          "indexed": true,
          "internalType": "contract Market",
          "name": "seizeMarket",
          "type": "address"
        },
        {
          "indexed": false,
          "internalType": "uint256",
          "name": "seizedAssets",
          "type": "uint256"
        }
      ],
      "name": "Liquidate",
      "type": "event"
    },
    {
      "anonymous": false,
      "inputs": [
        {
          "indexed": false,
          "internalType": "uint256",
          "name": "timestamp",
          "type": "uint256"
        },
        {
          "indexed": false,
          "internalType": "uint256",
          "name": "floatingDepositShares",
          "type": "uint256"
        },
        {
          "indexed": false,
          "internalType": "uint256",
          "name": "floatingAssets",
          "type": "uint256"
        },
        {
          "indexed": false,
          "internalType": "uint256",
          "name": "floatingBorrowShares",
          "type": "uint256"
        },
        {
          "indexed": false,
          "internalType": "uint256",
          "name": "floatingDebt",
          "type": "uint256"
        },
        {
          "indexed": false,
          "internalType": "uint256",
          "name": "earningsAccumulator",
          "type": "uint256"
        }
      ],
      "name": "MarketUpdate",
      "type": "event"
    },
    {
      "anonymous": false,
      "inputs": [
        {
          "indexed": false,
          "internalType": "uint256",
          "name": "maxFuturePools",
          "type": "uint256"
        }
      ],
      "name": "MaxFuturePoolsSet",
      "type": "event"
    },
    {
      "anonymous": false,
      "inputs": [
        {
          "indexed": false,
          "internalType": "address",
          "name": "account",
          "type": "address"
        }
      ],
      "name": "Paused",
      "type": "event"
    },
    {
      "anonymous": false,
      "inputs": [
        {
          "indexed": false,
          "internalType": "uint256",
          "name": "penaltyRate",
          "type": "uint256"
        }
      ],
      "name": "PenaltyRateSet",
      "type": "event"
    },
    {
      "anonymous": false,
      "inputs": [
        {
          "indexed": true,
          "internalType": "address",
          "name": "caller",
          "type": "address"
        },
        {
          "indexed": true,
          "internalType": "address",
          "name": "borrower",
          "type": "address"
        },
        {
          "indexed": false,
          "internalType": "uint256",
          "name": "assets",
          "type": "uint256"
        },
        {
          "indexed": false,
          "internalType": "uint256",
          "name": "shares",
          "type": "uint256"
        }
      ],
      "name": "Repay",
      "type": "event"
    },
    {
      "anonymous": false,
      "inputs": [
        {
          "indexed": true,
          "internalType": "uint256",
          "name": "maturity",
          "type": "uint256"
        },
        {
          "indexed": true,
          "internalType": "address",
          "name": "caller",
          "type": "address"
        },
        {
          "indexed": true,
          "internalType": "address",
          "name": "borrower",
          "type": "address"
        },
        {
          "indexed": false,
          "internalType": "uint256",
          "name": "assets",
          "type": "uint256"
        },
        {
          "indexed": false,
          "internalType": "uint256",
          "name": "positionAssets",
          "type": "uint256"
        }
      ],
      "name": "RepayAtMaturity",
      "type": "event"
    },
    {
      "anonymous": false,
      "inputs": [
        {
          "indexed": false,
          "internalType": "uint256",
          "name": "reserveFactor",
          "type": "uint256"
        }
      ],
      "name": "ReserveFactorSet",
      "type": "event"
    },
    {
      "anonymous": false,
      "inputs": [
        {
          "indexed": true,
          "internalType": "contract RewardsController",
          "name": "rewardsController",
          "type": "address"
        }
      ],
      "name": "RewardsControllerSet",
      "type": "event"
    },
    {
      "anonymous": false,
      "inputs": [
        {
          "indexed": true,
          "internalType": "bytes32",
          "name": "role",
          "type": "bytes32"
        },
        {
          "indexed": true,
          "internalType": "bytes32",
          "name": "previousAdminRole",
          "type": "bytes32"
        },
        {
          "indexed": true,
          "internalType": "bytes32",
          "name": "newAdminRole",
          "type": "bytes32"
        }
      ],
      "name": "RoleAdminChanged",
      "type": "event"
    },
    {
      "anonymous": false,
      "inputs": [
        {
          "indexed": true,
          "internalType": "bytes32",
          "name": "role",
          "type": "bytes32"
        },
        {
          "indexed": true,
          "internalType": "address",
          "name": "account",
          "type": "address"
        },
        {
          "indexed": true,
          "internalType": "address",
          "name": "sender",
          "type": "address"
        }
      ],
      "name": "RoleGranted",
      "type": "event"
    },
    {
      "anonymous": false,
      "inputs": [
        {
          "indexed": true,
          "internalType": "bytes32",
          "name": "role",
          "type": "bytes32"
        },
        {
          "indexed": true,
          "internalType": "address",
          "name": "account",
          "type": "address"
        },
        {
          "indexed": true,
          "internalType": "address",
          "name": "sender",
          "type": "address"
        }
      ],
      "name": "RoleRevoked",
      "type": "event"
    },
    {
      "anonymous": false,
      "inputs": [
        {
          "indexed": true,
          "internalType": "address",
          "name": "liquidator",
          "type": "address"
        },
        {
          "indexed": true,
          "internalType": "address",
          "name": "borrower",
          "type": "address"
        },
        {
          "indexed": false,
          "internalType": "uint256",
          "name": "assets",
          "type": "uint256"
        }
      ],
      "name": "Seize",
      "type": "event"
    },
    {
      "anonymous": false,
      "inputs": [
        {
          "indexed": true,
          "internalType": "address",
          "name": "borrower",
          "type": "address"
        },
        {
          "indexed": false,
          "internalType": "uint256",
          "name": "assets",
          "type": "uint256"
        }
      ],
      "name": "SpreadBadDebt",
      "type": "event"
    },
    {
      "anonymous": false,
      "inputs": [
        {
          "indexed": true,
          "internalType": "address",
          "name": "from",
          "type": "address"
        },
        {
          "indexed": true,
          "internalType": "address",
          "name": "to",
          "type": "address"
        },
        {
          "indexed": false,
          "internalType": "uint256",
          "name": "amount",
          "type": "uint256"
        }
      ],
      "name": "Transfer",
      "type": "event"
    },
    {
      "anonymous": false,
      "inputs": [
        {
          "indexed": true,
          "internalType": "address",
          "name": "treasury",
          "type": "address"
        },
        {
          "indexed": false,
          "internalType": "uint256",
          "name": "treasuryFeeRate",
          "type": "uint256"
        }
      ],
      "name": "TreasurySet",
      "type": "event"
    },
    {
      "anonymous": false,
      "inputs": [
        {
          "indexed": false,
          "internalType": "address",
          "name": "account",
          "type": "address"
        }
      ],
      "name": "Unpaused",
      "type": "event"
    },
    {
      "anonymous": false,
      "inputs": [
        {
          "indexed": true,
          "internalType": "address",
          "name": "caller",
          "type": "address"
        },
        {
          "indexed": true,
          "internalType": "address",
          "name": "receiver",
          "type": "address"
        },
        {
          "indexed": true,
          "internalType": "address",
          "name": "owner",
          "type": "address"
        },
        {
          "indexed": false,
          "internalType": "uint256",
          "name": "assets",
          "type": "uint256"
        },
        {
          "indexed": false,
          "internalType": "uint256",
          "name": "shares",
          "type": "uint256"
        }
      ],
      "name": "Withdraw",
      "type": "event"
    },
    {
      "anonymous": false,
      "inputs": [
        {
          "indexed": true,
          "internalType": "uint256",
          "name": "maturity",
          "type": "uint256"
        },
        {
          "indexed": false,
          "internalType": "address",
          "name": "caller",
          "type": "address"
        },
        {
          "indexed": true,
          "internalType": "address",
          "name": "receiver",
          "type": "address"
        },
        {
          "indexed": true,
          "internalType": "address",
          "name": "owner",
          "type": "address"
        },
        {
          "indexed": false,
          "internalType": "uint256",
          "name": "positionAssets",
          "type": "uint256"
        },
        {
          "indexed": false,
          "internalType": "uint256",
          "name": "assets",
          "type": "uint256"
        }
      ],
      "name": "WithdrawAtMaturity",
      "type": "event"
    },
    {
      "inputs": [],
      "name": "DEFAULT_ADMIN_ROLE",
      "outputs": [
        {
          "internalType": "bytes32",
          "name": "",
          "type": "bytes32"
        }
      ],
      "stateMutability": "view",
      "type": "function"
    },
    {
      "inputs": [],
      "name": "DOMAIN_SEPARATOR",
      "outputs": [
        {
          "internalType": "bytes32",
          "name": "",
          "type": "bytes32"
        }
      ],
      "stateMutability": "view",
      "type": "function"
    },
    {
      "inputs": [],
      "name": "EMERGENCY_ADMIN_ROLE",
      "outputs": [
        {
          "internalType": "bytes32",
          "name": "",
          "type": "bytes32"
        }
      ],
      "stateMutability": "view",
      "type": "function"
    },
    {
      "inputs": [],
      "name": "PAUSER_ROLE",
      "outputs": [
        {
          "internalType": "bytes32",
          "name": "",
          "type": "bytes32"
        }
      ],
      "stateMutability": "view",
      "type": "function"
    },
    {
      "inputs": [
        {
          "internalType": "address",
          "name": "account",
          "type": "address"
        }
      ],
      "name": "accountSnapshot",
      "outputs": [
        {
          "internalType": "uint256",
          "name": "",
          "type": "uint256"
        },
        {
          "internalType": "uint256",
          "name": "",
          "type": "uint256"
        }
      ],
      "stateMutability": "view",
      "type": "function"
    },
    {
      "inputs": [
        {
          "internalType": "address",
          "name": "",
          "type": "address"
        }
      ],
      "name": "accounts",
      "outputs": [
        {
          "internalType": "uint256",
          "name": "fixedDeposits",
          "type": "uint256"
        },
        {
          "internalType": "uint256",
          "name": "fixedBorrows",
          "type": "uint256"
        },
        {
          "internalType": "uint256",
          "name": "floatingBorrowShares",
          "type": "uint256"
        }
      ],
      "stateMutability": "view",
      "type": "function"
    },
    {
      "inputs": [
        {
          "internalType": "address",
          "name": "",
          "type": "address"
        },
        {
          "internalType": "address",
          "name": "",
          "type": "address"
        }
      ],
      "name": "allowance",
      "outputs": [
        {
          "internalType": "uint256",
          "name": "",
          "type": "uint256"
        }
      ],
      "stateMutability": "view",
      "type": "function"
    },
    {
      "inputs": [
        {
          "internalType": "address",
          "name": "spender",
          "type": "address"
        },
        {
          "internalType": "uint256",
          "name": "amount",
          "type": "uint256"
        }
      ],
      "name": "approve",
      "outputs": [
        {
          "internalType": "bool",
          "name": "",
          "type": "bool"
        }
      ],
      "stateMutability": "nonpayable",
      "type": "function"
    },
    {
      "inputs": [],
      "name": "asset",
      "outputs": [
        {
          "internalType": "contract ERC20",
          "name": "",
          "type": "address"
        }
      ],
      "stateMutability": "view",
      "type": "function"
    },
    {
      "inputs": [],
      "name": "auditor",
      "outputs": [
        {
          "internalType": "contract Auditor",
          "name": "",
          "type": "address"
        }
      ],
      "stateMutability": "view",
      "type": "function"
    },
    {
      "inputs": [],
      "name": "backupFeeRate",
      "outputs": [
        {
          "internalType": "uint256",
          "name": "",
          "type": "uint256"
        }
      ],
      "stateMutability": "view",
      "type": "function"
    },
    {
      "inputs": [
        {
          "internalType": "address",
          "name": "",
          "type": "address"
        }
      ],
      "name": "balanceOf",
      "outputs": [
        {
          "internalType": "uint256",
          "name": "",
          "type": "uint256"
        }
      ],
      "stateMutability": "view",
      "type": "function"
    },
    {
      "inputs": [
        {
          "internalType": "uint256",
          "name": "assets",
          "type": "uint256"
        },
        {
          "internalType": "address",
          "name": "receiver",
          "type": "address"
        },
        {
          "internalType": "address",
          "name": "borrower",
          "type": "address"
        }
      ],
      "name": "borrow",
      "outputs": [
        {
          "internalType": "uint256",
          "name": "borrowShares",
          "type": "uint256"
        }
      ],
      "stateMutability": "nonpayable",
      "type": "function"
    },
    {
      "inputs": [
        {
          "internalType": "uint256",
          "name": "maturity",
          "type": "uint256"
        },
        {
          "internalType": "uint256",
          "name": "assets",
          "type": "uint256"
        },
        {
          "internalType": "uint256",
          "name": "maxAssets",
          "type": "uint256"
        },
        {
          "internalType": "address",
          "name": "receiver",
          "type": "address"
        },
        {
          "internalType": "address",
          "name": "borrower",
          "type": "address"
        }
      ],
      "name": "borrowAtMaturity",
      "outputs": [
        {
          "internalType": "uint256",
          "name": "assetsOwed",
          "type": "uint256"
        }
      ],
      "stateMutability": "nonpayable",
      "type": "function"
    },
    {
      "inputs": [
        {
          "internalType": "address",
          "name": "borrower",
          "type": "address"
        }
      ],
      "name": "clearBadDebt",
      "outputs": [],
      "stateMutability": "nonpayable",
      "type": "function"
    },
    {
      "inputs": [
        {
          "internalType": "uint256",
          "name": "shares",
          "type": "uint256"
        }
      ],
      "name": "convertToAssets",
      "outputs": [
        {
          "internalType": "uint256",
          "name": "",
          "type": "uint256"
        }
      ],
      "stateMutability": "view",
      "type": "function"
    },
    {
      "inputs": [
        {
          "internalType": "uint256",
          "name": "assets",
          "type": "uint256"
        }
      ],
      "name": "convertToShares",
      "outputs": [
        {
          "internalType": "uint256",
          "name": "",
          "type": "uint256"
        }
      ],
      "stateMutability": "view",
      "type": "function"
    },
    {
      "inputs": [],
      "name": "dampSpeedDown",
      "outputs": [
        {
          "internalType": "uint256",
          "name": "",
          "type": "uint256"
        }
      ],
      "stateMutability": "view",
      "type": "function"
    },
    {
      "inputs": [],
      "name": "dampSpeedUp",
      "outputs": [
        {
          "internalType": "uint256",
          "name": "",
          "type": "uint256"
        }
      ],
      "stateMutability": "view",
      "type": "function"
    },
    {
      "inputs": [],
      "name": "decimals",
      "outputs": [
        {
          "internalType": "uint8",
          "name": "",
          "type": "uint8"
        }
      ],
      "stateMutability": "view",
      "type": "function"
    },
    {
      "inputs": [
        {
          "internalType": "uint256",
          "name": "assets",
          "type": "uint256"
        },
        {
          "internalType": "address",
          "name": "receiver",
          "type": "address"
        }
      ],
      "name": "deposit",
      "outputs": [
        {
          "internalType": "uint256",
          "name": "shares",
          "type": "uint256"
        }
      ],
      "stateMutability": "nonpayable",
      "type": "function"
    },
    {
      "inputs": [
        {
          "internalType": "uint256",
          "name": "maturity",
          "type": "uint256"
        },
        {
          "internalType": "uint256",
          "name": "assets",
          "type": "uint256"
        },
        {
          "internalType": "uint256",
          "name": "minAssetsRequired",
          "type": "uint256"
        },
        {
          "internalType": "address",
          "name": "receiver",
          "type": "address"
        }
      ],
      "name": "depositAtMaturity",
      "outputs": [
        {
          "internalType": "uint256",
          "name": "positionAssets",
          "type": "uint256"
        }
      ],
      "stateMutability": "nonpayable",
      "type": "function"
    },
    {
      "inputs": [],
      "name": "earningsAccumulator",
      "outputs": [
        {
          "internalType": "uint256",
          "name": "",
          "type": "uint256"
        }
      ],
      "stateMutability": "view",
      "type": "function"
    },
    {
      "inputs": [],
      "name": "earningsAccumulatorSmoothFactor",
      "outputs": [
        {
          "internalType": "uint128",
          "name": "",
          "type": "uint128"
        }
      ],
      "stateMutability": "view",
      "type": "function"
    },
    {
      "inputs": [
        {
          "internalType": "uint256",
          "name": "",
          "type": "uint256"
        },
        {
          "internalType": "address",
          "name": "",
          "type": "address"
        }
      ],
      "name": "fixedBorrowPositions",
      "outputs": [
        {
          "internalType": "uint256",
          "name": "principal",
          "type": "uint256"
        },
        {
          "internalType": "uint256",
          "name": "fee",
          "type": "uint256"
        }
      ],
      "stateMutability": "view",
      "type": "function"
    },
    {
      "inputs": [
        {
          "internalType": "uint256",
          "name": "",
          "type": "uint256"
        },
        {
          "internalType": "address",
          "name": "",
          "type": "address"
        }
      ],
      "name": "fixedDepositPositions",
      "outputs": [
        {
          "internalType": "uint256",
          "name": "principal",
          "type": "uint256"
        },
        {
          "internalType": "uint256",
          "name": "fee",
          "type": "uint256"
        }
      ],
      "stateMutability": "view",
      "type": "function"
    },
    {
      "inputs": [
        {
          "internalType": "uint256",
          "name": "maturity",
          "type": "uint256"
        }
      ],
      "name": "fixedPoolBalance",
      "outputs": [
        {
          "internalType": "uint256",
          "name": "",
          "type": "uint256"
        },
        {
          "internalType": "uint256",
          "name": "",
          "type": "uint256"
        }
      ],
      "stateMutability": "view",
      "type": "function"
    },
    {
      "inputs": [
        {
          "internalType": "uint256",
          "name": "maturity",
          "type": "uint256"
        }
      ],
      "name": "fixedPoolBorrowed",
      "outputs": [
        {
          "internalType": "uint256",
          "name": "",
          "type": "uint256"
        }
      ],
      "stateMutability": "view",
      "type": "function"
    },
    {
      "inputs": [
        {
          "internalType": "uint256",
          "name": "",
          "type": "uint256"
        }
      ],
      "name": "fixedPools",
      "outputs": [
        {
          "internalType": "uint256",
          "name": "borrowed",
          "type": "uint256"
        },
        {
          "internalType": "uint256",
          "name": "supplied",
          "type": "uint256"
        },
        {
          "internalType": "uint256",
          "name": "unassignedEarnings",
          "type": "uint256"
        },
        {
          "internalType": "uint256",
          "name": "lastAccrual",
          "type": "uint256"
        }
      ],
      "stateMutability": "view",
      "type": "function"
    },
    {
      "inputs": [],
      "name": "floatingAssets",
      "outputs": [
        {
          "internalType": "uint256",
          "name": "",
          "type": "uint256"
        }
      ],
      "stateMutability": "view",
      "type": "function"
    },
    {
      "inputs": [],
      "name": "floatingAssetsAverage",
      "outputs": [
        {
          "internalType": "uint256",
          "name": "",
          "type": "uint256"
        }
      ],
      "stateMutability": "view",
      "type": "function"
    },
    {
      "inputs": [],
      "name": "floatingBackupBorrowed",
      "outputs": [
        {
          "internalType": "uint256",
          "name": "",
          "type": "uint256"
        }
      ],
      "stateMutability": "view",
      "type": "function"
    },
    {
      "inputs": [],
      "name": "floatingDebt",
      "outputs": [
        {
          "internalType": "uint256",
          "name": "",
          "type": "uint256"
        }
      ],
      "stateMutability": "view",
      "type": "function"
    },
    {
      "inputs": [
        {
          "internalType": "bytes32",
          "name": "role",
          "type": "bytes32"
        }
      ],
      "name": "getRoleAdmin",
      "outputs": [
        {
          "internalType": "bytes32",
          "name": "",
          "type": "bytes32"
        }
      ],
      "stateMutability": "view",
      "type": "function"
    },
    {
      "inputs": [
        {
          "internalType": "bytes32",
          "name": "role",
          "type": "bytes32"
        },
        {
          "internalType": "address",
          "name": "account",
          "type": "address"
        }
      ],
      "name": "grantRole",
      "outputs": [],
      "stateMutability": "nonpayable",
      "type": "function"
    },
    {
      "inputs": [
        {
          "internalType": "bytes32",
          "name": "role",
          "type": "bytes32"
        },
        {
          "internalType": "address",
          "name": "account",
          "type": "address"
        }
      ],
      "name": "hasRole",
      "outputs": [
        {
          "internalType": "bool",
          "name": "",
          "type": "bool"
        }
      ],
      "stateMutability": "view",
      "type": "function"
    },
    {
      "inputs": [
        {
          "internalType": "string",
          "name": "assetSymbol",
          "type": "string"
        },
        {
          "internalType": "uint8",
          "name": "maxFuturePools_",
          "type": "uint8"
        },
        {
          "internalType": "uint128",
          "name": "earningsAccumulatorSmoothFactor_",
          "type": "uint128"
        },
        {
          "internalType": "contract InterestRateModel",
          "name": "interestRateModel_",
          "type": "address"
        },
        {
          "internalType": "uint256",
          "name": "penaltyRate_",
          "type": "uint256"
        },
        {
          "internalType": "uint256",
          "name": "backupFeeRate_",
          "type": "uint256"
        },
        {
          "internalType": "uint128",
          "name": "reserveFactor_",
          "type": "uint128"
        },
        {
          "internalType": "uint256",
          "name": "dampSpeedUp_",
          "type": "uint256"
        },
        {
          "internalType": "uint256",
          "name": "dampSpeedDown_",
          "type": "uint256"
        }
      ],
      "name": "initialize",
      "outputs": [],
      "stateMutability": "nonpayable",
      "type": "function"
    },
    {
      "inputs": [],
      "name": "interestRateModel",
      "outputs": [
        {
          "internalType": "contract InterestRateModel",
          "name": "",
          "type": "address"
        }
      ],
      "stateMutability": "view",
      "type": "function"
    },
    {
      "inputs": [],
      "name": "isFrozen",
      "outputs": [
        {
          "internalType": "bool",
          "name": "",
          "type": "bool"
        }
      ],
      "stateMutability": "view",
      "type": "function"
    },
    {
      "inputs": [],
      "name": "lastAccumulatorAccrual",
      "outputs": [
        {
          "internalType": "uint32",
          "name": "",
          "type": "uint32"
        }
      ],
      "stateMutability": "view",
      "type": "function"
    },
    {
      "inputs": [],
      "name": "lastAverageUpdate",
      "outputs": [
        {
          "internalType": "uint32",
          "name": "",
          "type": "uint32"
        }
      ],
      "stateMutability": "view",
      "type": "function"
    },
    {
      "inputs": [],
      "name": "lastFloatingDebtUpdate",
      "outputs": [
        {
          "internalType": "uint32",
          "name": "",
          "type": "uint32"
        }
      ],
      "stateMutability": "view",
      "type": "function"
    },
    {
      "inputs": [
        {
          "internalType": "address",
          "name": "borrower",
          "type": "address"
        },
        {
          "internalType": "uint256",
          "name": "maxAssets",
          "type": "uint256"
        },
        {
          "internalType": "contract Market",
          "name": "seizeMarket",
          "type": "address"
        }
      ],
      "name": "liquidate",
      "outputs": [
        {
          "internalType": "uint256",
          "name": "repaidAssets",
          "type": "uint256"
        }
      ],
      "stateMutability": "nonpayable",
      "type": "function"
    },
    {
      "inputs": [
        {
          "internalType": "address",
          "name": "",
          "type": "address"
        }
      ],
      "name": "maxDeposit",
      "outputs": [
        {
          "internalType": "uint256",
          "name": "",
          "type": "uint256"
        }
      ],
      "stateMutability": "view",
      "type": "function"
    },
    {
      "inputs": [],
      "name": "maxFuturePools",
      "outputs": [
        {
          "internalType": "uint8",
          "name": "",
          "type": "uint8"
        }
      ],
      "stateMutability": "view",
      "type": "function"
    },
    {
      "inputs": [
        {
          "internalType": "address",
          "name": "",
          "type": "address"
        }
      ],
      "name": "maxMint",
      "outputs": [
        {
          "internalType": "uint256",
          "name": "",
          "type": "uint256"
        }
      ],
      "stateMutability": "view",
      "type": "function"
    },
    {
      "inputs": [
        {
          "internalType": "address",
          "name": "owner",
          "type": "address"
        }
      ],
      "name": "maxRedeem",
      "outputs": [
        {
          "internalType": "uint256",
          "name": "",
          "type": "uint256"
        }
      ],
      "stateMutability": "view",
      "type": "function"
    },
    {
      "inputs": [
        {
          "internalType": "address",
          "name": "owner",
          "type": "address"
        }
      ],
      "name": "maxWithdraw",
      "outputs": [
        {
          "internalType": "uint256",
          "name": "",
          "type": "uint256"
        }
      ],
      "stateMutability": "view",
      "type": "function"
    },
    {
      "inputs": [
        {
          "internalType": "uint256",
          "name": "shares",
          "type": "uint256"
        },
        {
          "internalType": "address",
          "name": "receiver",
          "type": "address"
        }
      ],
      "name": "mint",
      "outputs": [
        {
          "internalType": "uint256",
          "name": "assets",
          "type": "uint256"
        }
      ],
      "stateMutability": "nonpayable",
      "type": "function"
    },
    {
      "inputs": [],
      "name": "name",
      "outputs": [
        {
          "internalType": "string",
          "name": "",
          "type": "string"
        }
      ],
      "stateMutability": "view",
      "type": "function"
    },
    {
      "inputs": [
        {
          "internalType": "address",
          "name": "",
          "type": "address"
        }
      ],
      "name": "nonces",
      "outputs": [
        {
          "internalType": "uint256",
          "name": "",
          "type": "uint256"
        }
      ],
      "stateMutability": "view",
      "type": "function"
    },
    {
      "inputs": [],
      "name": "pause",
      "outputs": [],
      "stateMutability": "nonpayable",
      "type": "function"
    },
    {
      "inputs": [],
      "name": "paused",
      "outputs": [
        {
          "internalType": "bool",
          "name": "",
          "type": "bool"
        }
      ],
      "stateMutability": "view",
      "type": "function"
    },
    {
      "inputs": [],
      "name": "penaltyRate",
      "outputs": [
        {
          "internalType": "uint256",
          "name": "",
          "type": "uint256"
        }
      ],
      "stateMutability": "view",
      "type": "function"
    },
    {
      "inputs": [
        {
          "internalType": "address",
          "name": "owner",
          "type": "address"
        },
        {
          "internalType": "address",
          "name": "spender",
          "type": "address"
        },
        {
          "internalType": "uint256",
          "name": "value",
          "type": "uint256"
        },
        {
          "internalType": "uint256",
          "name": "deadline",
          "type": "uint256"
        },
        {
          "internalType": "uint8",
          "name": "v",
          "type": "uint8"
        },
        {
          "internalType": "bytes32",
          "name": "r",
          "type": "bytes32"
        },
        {
          "internalType": "bytes32",
          "name": "s",
          "type": "bytes32"
        }
      ],
      "name": "permit",
      "outputs": [],
      "stateMutability": "nonpayable",
      "type": "function"
    },
    {
      "inputs": [
        {
          "internalType": "uint256",
          "name": "assets",
          "type": "uint256"
        }
      ],
      "name": "previewBorrow",
      "outputs": [
        {
          "internalType": "uint256",
          "name": "",
          "type": "uint256"
        }
      ],
      "stateMutability": "view",
      "type": "function"
    },
    {
      "inputs": [
        {
          "internalType": "address",
          "name": "borrower",
          "type": "address"
        }
      ],
      "name": "previewDebt",
      "outputs": [
        {
          "internalType": "uint256",
          "name": "debt",
          "type": "uint256"
        }
      ],
      "stateMutability": "view",
      "type": "function"
    },
    {
      "inputs": [
        {
          "internalType": "uint256",
          "name": "assets",
          "type": "uint256"
        }
      ],
      "name": "previewDeposit",
      "outputs": [
        {
          "internalType": "uint256",
          "name": "",
          "type": "uint256"
        }
      ],
      "stateMutability": "view",
      "type": "function"
    },
    {
      "inputs": [],
      "name": "previewFloatingAssetsAverage",
      "outputs": [
        {
          "internalType": "uint256",
          "name": "",
          "type": "uint256"
        }
      ],
      "stateMutability": "view",
      "type": "function"
    },
    {
      "inputs": [
        {
          "internalType": "uint256",
          "name": "shares",
          "type": "uint256"
        }
      ],
      "name": "previewMint",
      "outputs": [
        {
          "internalType": "uint256",
          "name": "",
          "type": "uint256"
        }
      ],
      "stateMutability": "view",
      "type": "function"
    },
    {
      "inputs": [
        {
          "internalType": "uint256",
          "name": "shares",
          "type": "uint256"
        }
      ],
      "name": "previewRedeem",
      "outputs": [
        {
          "internalType": "uint256",
          "name": "",
          "type": "uint256"
        }
      ],
      "stateMutability": "view",
      "type": "function"
    },
    {
      "inputs": [
        {
          "internalType": "uint256",
          "name": "shares",
          "type": "uint256"
        }
      ],
      "name": "previewRefund",
      "outputs": [
        {
          "internalType": "uint256",
          "name": "",
          "type": "uint256"
        }
      ],
      "stateMutability": "view",
      "type": "function"
    },
    {
      "inputs": [
        {
          "internalType": "uint256",
          "name": "assets",
          "type": "uint256"
        }
      ],
      "name": "previewRepay",
      "outputs": [
        {
          "internalType": "uint256",
          "name": "",
          "type": "uint256"
        }
      ],
      "stateMutability": "view",
      "type": "function"
    },
    {
      "inputs": [
        {
          "internalType": "uint256",
          "name": "assets",
          "type": "uint256"
        }
      ],
      "name": "previewWithdraw",
      "outputs": [
        {
          "internalType": "uint256",
          "name": "",
          "type": "uint256"
        }
      ],
      "stateMutability": "view",
      "type": "function"
    },
    {
      "inputs": [
        {
          "internalType": "uint256",
          "name": "shares",
          "type": "uint256"
        },
        {
          "internalType": "address",
          "name": "receiver",
          "type": "address"
        },
        {
          "internalType": "address",
          "name": "owner",
          "type": "address"
        }
      ],
      "name": "redeem",
      "outputs": [
        {
          "internalType": "uint256",
          "name": "assets",
          "type": "uint256"
        }
      ],
      "stateMutability": "nonpayable",
      "type": "function"
    },
    {
      "inputs": [
        {
          "internalType": "uint256",
          "name": "borrowShares",
          "type": "uint256"
        },
        {
          "internalType": "address",
          "name": "borrower",
          "type": "address"
        }
      ],
      "name": "refund",
      "outputs": [
        {
          "internalType": "uint256",
          "name": "assets",
          "type": "uint256"
        },
        {
          "internalType": "uint256",
          "name": "actualShares",
          "type": "uint256"
        }
      ],
      "stateMutability": "nonpayable",
      "type": "function"
    },
    {
      "inputs": [
        {
          "internalType": "bytes32",
          "name": "role",
          "type": "bytes32"
        },
        {
          "internalType": "address",
          "name": "account",
          "type": "address"
        }
      ],
      "name": "renounceRole",
      "outputs": [],
      "stateMutability": "nonpayable",
      "type": "function"
    },
    {
      "inputs": [
        {
          "internalType": "uint256",
          "name": "assets",
          "type": "uint256"
        },
        {
          "internalType": "address",
          "name": "borrower",
          "type": "address"
        }
      ],
      "name": "repay",
      "outputs": [
        {
          "internalType": "uint256",
          "name": "actualRepay",
          "type": "uint256"
        },
        {
          "internalType": "uint256",
          "name": "borrowShares",
          "type": "uint256"
        }
      ],
      "stateMutability": "nonpayable",
      "type": "function"
    },
    {
      "inputs": [
        {
          "internalType": "uint256",
          "name": "maturity",
          "type": "uint256"
        },
        {
          "internalType": "uint256",
          "name": "positionAssets",
          "type": "uint256"
        },
        {
          "internalType": "uint256",
          "name": "maxAssets",
          "type": "uint256"
        },
        {
          "internalType": "address",
          "name": "borrower",
          "type": "address"
        }
      ],
      "name": "repayAtMaturity",
      "outputs": [
        {
          "internalType": "uint256",
          "name": "actualRepayAssets",
          "type": "uint256"
        }
      ],
      "stateMutability": "nonpayable",
      "type": "function"
    },
    {
      "inputs": [],
      "name": "reserveFactor",
      "outputs": [
        {
          "internalType": "uint128",
          "name": "",
          "type": "uint128"
        }
      ],
      "stateMutability": "view",
      "type": "function"
    },
    {
      "inputs": [
        {
          "internalType": "bytes32",
          "name": "role",
          "type": "bytes32"
        },
        {
          "internalType": "address",
          "name": "account",
          "type": "address"
        }
      ],
      "name": "revokeRole",
      "outputs": [],
      "stateMutability": "nonpayable",
      "type": "function"
    },
    {
      "inputs": [],
      "name": "rewardsController",
      "outputs": [
        {
          "internalType": "contract RewardsController",
          "name": "",
          "type": "address"
        }
      ],
      "stateMutability": "view",
      "type": "function"
    },
    {
      "inputs": [
        {
          "internalType": "address",
          "name": "liquidator",
          "type": "address"
        },
        {
          "internalType": "address",
          "name": "borrower",
          "type": "address"
        },
        {
          "internalType": "uint256",
          "name": "assets",
          "type": "uint256"
        }
      ],
      "name": "seize",
      "outputs": [],
      "stateMutability": "nonpayable",
      "type": "function"
    },
    {
      "inputs": [
        {
          "internalType": "string",
          "name": "assetSymbol",
          "type": "string"
        }
      ],
      "name": "setAssetSymbol",
      "outputs": [],
      "stateMutability": "nonpayable",
      "type": "function"
    },
    {
      "inputs": [
        {
          "internalType": "uint256",
          "name": "backupFeeRate_",
          "type": "uint256"
        }
      ],
      "name": "setBackupFeeRate",
      "outputs": [],
      "stateMutability": "nonpayable",
      "type": "function"
    },
    {
      "inputs": [
        {
          "internalType": "uint256",
          "name": "up",
          "type": "uint256"
        },
        {
          "internalType": "uint256",
          "name": "down",
          "type": "uint256"
        }
      ],
      "name": "setDampSpeed",
      "outputs": [],
      "stateMutability": "nonpayable",
      "type": "function"
    },
    {
      "inputs": [
        {
          "internalType": "uint128",
          "name": "earningsAccumulatorSmoothFactor_",
          "type": "uint128"
        }
      ],
      "name": "setEarningsAccumulatorSmoothFactor",
      "outputs": [],
      "stateMutability": "nonpayable",
      "type": "function"
    },
    {
      "inputs": [
        {
          "internalType": "bool",
          "name": "isFrozen_",
          "type": "bool"
        }
      ],
      "name": "setFrozen",
      "outputs": [],
      "stateMutability": "nonpayable",
      "type": "function"
    },
    {
      "inputs": [
        {
          "internalType": "contract InterestRateModel",
          "name": "interestRateModel_",
          "type": "address"
        }
      ],
      "name": "setInterestRateModel",
      "outputs": [],
      "stateMutability": "nonpayable",
      "type": "function"
    },
    {
      "inputs": [
        {
          "internalType": "uint8",
          "name": "futurePools",
          "type": "uint8"
        }
      ],
      "name": "setMaxFuturePools",
      "outputs": [],
      "stateMutability": "nonpayable",
      "type": "function"
    },
    {
      "inputs": [
        {
          "internalType": "uint256",
          "name": "penaltyRate_",
          "type": "uint256"
        }
      ],
      "name": "setPenaltyRate",
      "outputs": [],
      "stateMutability": "nonpayable",
      "type": "function"
    },
    {
      "inputs": [
        {
          "internalType": "uint128",
          "name": "reserveFactor_",
          "type": "uint128"
        }
      ],
      "name": "setReserveFactor",
      "outputs": [],
      "stateMutability": "nonpayable",
      "type": "function"
    },
    {
      "inputs": [
        {
          "internalType": "contract RewardsController",
          "name": "rewardsController_",
          "type": "address"
        }
      ],
      "name": "setRewardsController",
      "outputs": [],
      "stateMutability": "nonpayable",
      "type": "function"
    },
    {
      "inputs": [
        {
          "internalType": "address",
          "name": "treasury_",
          "type": "address"
        },
        {
          "internalType": "uint256",
          "name": "treasuryFeeRate_",
          "type": "uint256"
        }
      ],
      "name": "setTreasury",
      "outputs": [],
      "stateMutability": "nonpayable",
      "type": "function"
    },
    {
      "inputs": [
        {
          "internalType": "bytes4",
          "name": "interfaceId",
          "type": "bytes4"
        }
      ],
      "name": "supportsInterface",
      "outputs": [
        {
          "internalType": "bool",
          "name": "",
          "type": "bool"
        }
      ],
      "stateMutability": "view",
      "type": "function"
    },
    {
      "inputs": [],
      "name": "symbol",
      "outputs": [
        {
          "internalType": "string",
          "name": "",
          "type": "string"
        }
      ],
      "stateMutability": "view",
      "type": "function"
    },
    {
      "inputs": [],
      "name": "totalAssets",
      "outputs": [
        {
          "internalType": "uint256",
          "name": "",
          "type": "uint256"
        }
      ],
      "stateMutability": "view",
      "type": "function"
    },
    {
      "inputs": [],
      "name": "totalFloatingBorrowAssets",
      "outputs": [
        {
          "internalType": "uint256",
          "name": "",
          "type": "uint256"
        }
      ],
      "stateMutability": "view",
      "type": "function"
    },
    {
      "inputs": [],
      "name": "totalFloatingBorrowShares",
      "outputs": [
        {
          "internalType": "uint256",
          "name": "",
          "type": "uint256"
        }
      ],
      "stateMutability": "view",
      "type": "function"
    },
    {
      "inputs": [],
      "name": "totalSupply",
      "outputs": [
        {
          "internalType": "uint256",
          "name": "",
          "type": "uint256"
        }
      ],
      "stateMutability": "view",
      "type": "function"
    },
    {
      "inputs": [
        {
          "internalType": "address",
          "name": "to",
          "type": "address"
        },
        {
          "internalType": "uint256",
          "name": "shares",
          "type": "uint256"
        }
      ],
      "name": "transfer",
      "outputs": [
        {
          "internalType": "bool",
          "name": "",
          "type": "bool"
        }
      ],
      "stateMutability": "nonpayable",
      "type": "function"
    },
    {
      "inputs": [
        {
          "internalType": "address",
          "name": "from",
          "type": "address"
        },
        {
          "internalType": "address",
          "name": "to",
          "type": "address"
        },
        {
          "internalType": "uint256",
          "name": "shares",
          "type": "uint256"
        }
      ],
      "name": "transferFrom",
      "outputs": [
        {
          "internalType": "bool",
          "name": "",
          "type": "bool"
        }
      ],
      "stateMutability": "nonpayable",
      "type": "function"
    },
    {
      "inputs": [],
      "name": "treasury",
      "outputs": [
        {
          "internalType": "address",
          "name": "",
          "type": "address"
        }
      ],
      "stateMutability": "view",
      "type": "function"
    },
    {
      "inputs": [],
      "name": "treasuryFeeRate",
      "outputs": [
        {
          "internalType": "uint256",
          "name": "",
          "type": "uint256"
        }
      ],
      "stateMutability": "view",
      "type": "function"
    },
    {
      "inputs": [],
      "name": "unpause",
      "outputs": [],
      "stateMutability": "nonpayable",
      "type": "function"
    },
    {
      "inputs": [
        {
          "internalType": "uint256",
          "name": "assets",
          "type": "uint256"
        },
        {
          "internalType": "address",
          "name": "receiver",
          "type": "address"
        },
        {
          "internalType": "address",
          "name": "owner",
          "type": "address"
        }
      ],
      "name": "withdraw",
      "outputs": [
        {
          "internalType": "uint256",
          "name": "shares",
          "type": "uint256"
        }
      ],
      "stateMutability": "nonpayable",
      "type": "function"
    },
    {
      "inputs": [
        {
          "internalType": "uint256",
          "name": "maturity",
          "type": "uint256"
        },
        {
          "internalType": "uint256",
          "name": "positionAssets",
          "type": "uint256"
        },
        {
          "internalType": "uint256",
          "name": "minAssetsRequired",
          "type": "uint256"
        },
        {
          "internalType": "address",
          "name": "receiver",
          "type": "address"
        },
        {
          "internalType": "address",
          "name": "owner",
          "type": "address"
        }
      ],
      "name": "withdrawAtMaturity",
      "outputs": [
        {
          "internalType": "uint256",
          "name": "assetsDiscounted",
          "type": "uint256"
        }
      ],
      "stateMutability": "nonpayable",
      "type": "function"
    }
  ],
  "transactionHash": "0x2819cde4e6c58bf3ec84fbe217848b3d6515a695dc59d807822f48e817d126ea",
  "args": [
    "0xb2e4e4B2004208dC1B30208d5B6FaB2b780DC290",
    "0x7299b566bAa22F5C0F759b7598EeE4a219AdD2D3"
  ],
  "numDeployments": 2,
  "solcInputHash": "6e57950826dfd6055f8dc377807ae48e",
  "bytecode": "0x610120604052348015610010575f80fd5b5060405161651138038061651183398101604081905261002f9161021c565b8160405180602001604052805f81525060405180602001604052805f8152508181846001600160a01b031663313ce5676040518163ffffffff1660e01b8152600401602060405180830381865afa15801561008c573d5f803e3d5ffd5b505050506040513d601f19601f820116820180604052508101906100b09190610254565b60c96100bc8482610313565b5060ca6100c98382610313565b5060ff81166080524660a0526100dd610108565b60c0525050506001600160a01b0392831660e05250508116610100526101016101a1565b505061043e565b5f7f8b73c3c69bb8fe3d512ecc4cf759cc79239f7b179b0ffacaa9a75d522b39400f60c960405161013991906103cd565b6040805191829003822060208301939093528101919091527fc89efdaa54c0f20c7adf612882df0950f5a951637e0307cdcb4c672f298b8bc660608201524660808201523060a082015260c00160405160208183030381529060405280519060200120905090565b5f54610100900460ff16156101b4575f80fd5b5f5460ff90811614610203575f805460ff191660ff9081179091556040519081527f7f26b83ff96e1f2b6a682f133852f6798a09c465da95921460cefb38474024989060200160405180910390a15b565b6001600160a01b0381168114610219575f80fd5b50565b5f806040838503121561022d575f80fd5b825161023881610205565b602084015190925061024981610205565b809150509250929050565b5f60208284031215610264575f80fd5b815160ff81168114610274575f80fd5b9392505050565b634e487b7160e01b5f52604160045260245ffd5b600181811c908216806102a357607f821691505b6020821081036102c157634e487b7160e01b5f52602260045260245ffd5b50919050565b601f82111561030e57805f5260205f20601f840160051c810160208510156102ec5750805b601f840160051c820191505b8181101561030b575f81556001016102f8565b50505b505050565b81516001600160401b0381111561032c5761032c61027b565b6103408161033a845461028f565b846102c7565b6020601f821160018114610372575f831561035b5750848201515b5f19600385901b1c1916600184901b17845561030b565b5f84815260208120601f198516915b828110156103a15787850151825560209485019460019092019101610381565b50848210156103be57868401515f19600387901b60f8161c191681555b50505050600190811b01905550565b5f8083546103da8161028f565b6001821680156103f1576001811461040657610433565b60ff1983168652811515820286019350610433565b865f5260205f205f5b8381101561042b5781548882015260019091019060200161040f565b505081860193505b509195945050505050565b60805160a05160c05160e05161010051615ff561051c5f395f81816107840152818161154d015281816116fe01528181611d7a01528181611faa01528181612184015281816124b201528181612e8b0152818161303c0152818161312e015281816136700152614b2801525f8181610734015281816115be01528181611b7101528181611c650152818161206c015281816122780152818161233f0152818161282e01528181612e0d015281816136e101528181614cb2015281816151cd01526152cf01525f611bde01525f611ba901525f6106cb0152615ff55ff3fe608060405234801561000f575f80fd5b50600436106104c1575f3560e01c80636e76fc8f11610283578063b2a02ff111610168578063d5164184116100e0578063e63ab1e91161009a578063e63ab1e914610c98578063e94b3c2114610cac578063eee8c9e014610cb5578063ef8b30f714610cbd578063f3fdb15a14610cd0578063fb0fc4c314610ce3578063fea45d9414610cfa575f80fd5b8063d516418414610c04578063d547741f14610c17578063d6b7494f14610c2a578063d905777e14610c33578063dd62ed3e14610c5b578063e00b262514610c85575f80fd5b8063b2a02ff114610af7578063b3d7f6b914610b0a578063b460af9414610b1d578063ba08765214610b30578063bee36bb314610b43578063bf722ca214610b56578063c63d75b6146107ae578063c6e6f59214610b69578063ccfd8b1114610b7c578063ce96cb7714610bad578063d2681a0b14610bc0578063d505accf14610bf1575f80fd5b806391d14854116101fb57806391d1485414610a32578063926bb63314610a4557806394bf804d14610a5857806395d89b4114610a6b57806397bce8d014610a73578063a05a091a14610a86578063a16a885014610a99578063a1bab44714610aae578063a1e8f02b14610ac1578063a217fddf14610aca578063a9059cbb14610ad1578063acb7081514610ae4575f80fd5b80636e76fc8f146109325780636eb9ffeb1461095957806370a082311461098557806378007e23146109a45780637ad226dc146109b75780637e932d32146109ca5780637ecebe00146109dd5780638456cb59146109fc5780638a1baa4614610a045780638bcd401614610a0d5780638c3cba5a14610a205780638d0e5f0214610a29575f80fd5b8063313ce567116103a95780634322b714116103215780634322b714146107d557806347dffde0146107fc5780634914c0081461080f5780634cdad506146108225780634e7c5059146108355780635c975abb146108895780635cc2ef83146108945780635e5c06e2146108a757806361d027b3146108f057806366601032146109035780636bb65f531461090c5780636e553f651461091f575f80fd5b8063313ce567146106c657806333eeb147146106ed57806334f7d1f2146107015780633644e5151461071457806336568abe1461071c57806338d52e0f1461072f5780633aa18d6f146107635780633c6f317f1461076c5780633ec045a61461077f5780633f4ba83a146107a6578063402d267d146107ae57806342da42bf146107c2575f80fd5b8063137001011161043c57806313700101146105e557806318160ddd146105f85780631a5b9e62146106015780631a90f186146106145780631d43b30b1461061d57806323b872dd14610630578063248a9ca31461064357806325fc07a91461066557806328acf2cf146106845780632c5dcc77146106975780632e0af008146106aa5780632f2ff15d146106b3575f80fd5b8063014a296f146104c557806301e1d114146104f257806301ffc9a714610508578063022d8af51461052b5780630539fa8c1461054057806306fdde031461054957806307a2d13a1461055e578063095ea7b3146105715780630a28a477146105845780630ab69be8146105975780630e52dbec146105be5780630f2b75aa146105dd575b5f80fd5b6104d86104d336600461564e565b610d0d565b604080519283526020830191909152015b60405180910390f35b6104fa610d42565b6040519081526020016104e9565b61051b610516366004615669565b610dee565b60405190151581526020016104e9565b61053e6105393660046156ab565b610e24565b005b6104fa60d85481565b610551610eab565b6040516104e991906156c4565b6104fa61056c3660046156f9565b610f37565b61051b61057f366004615710565b610f63565b6104fa6105923660046156f9565b610fce565b6104d86105a53660046156f9565b5f90815260d16020526040902080546001909101549091565b60da546105cb9060ff1681565b60405160ff90911681526020016104e9565b6104fa610fed565b61053e6105f3366004615777565b611092565b6104fa60cb5481565b6104fa61060f3660046157b5565b611103565b6104fa60d45481565b6104fa61062b36600461564e565b6115f3565b61051b61063e366004615807565b6116f3565b6104fa6106513660046156f9565b5f9081526065602052604090206001015490565b6104fa6106733660046156f9565b5f90815260d1602052604090205490565b61053e610692366004615855565b61185a565b61053e6106a5366004615710565b6118a6565b6104fa60dd5481565b61053e6106c136600461586e565b611916565b6105cb7f000000000000000000000000000000000000000000000000000000000000000081565b60e35461051b90600160a01b900460ff1681565b6104fa61070f36600461589c565b61193f565b6104fa611ba6565b61053e61072a36600461586e565b611c00565b6107567f000000000000000000000000000000000000000000000000000000000000000081565b6040516104e991906158da565b6104fa60d95481565b6104fa61077a36600461589c565b611c22565b6107567f000000000000000000000000000000000000000000000000000000000000000081565b61053e611c95565b6104fa6107bc36600461564e565b505f1990565b61053e6107d03660046156f9565b611cb7565b60dc546107ef90600160801b90046001600160801b031681565b6040516104e991906158ee565b6104fa61080a3660046156f9565b611cf6565b6104fa61081d366004615902565b611d14565b6104fa6108303660046156f9565b6121f0565b6108696108433660046156f9565b60d16020525f908152604090208054600182015460028301546003909301549192909184565b6040805194855260208501939093529183015260608201526080016104e9565b60975460ff1661051b565b61053e6108a2366004615941565b6121fa565b6108d56108b536600461564e565b60d26020525f908152604090208054600182015460029092015490919083565b604080519384526020840192909252908201526060016104e9565b60e154610756906001600160a01b031681565b6104fa60e25481565b60e354610756906001600160a01b031681565b6104fa61092d36600461586e565b612254565b6104fa7f5358bcfd81d1ef3da152b1755e1c3c6739686fa7e83dbcad0071568cc4b73a6381565b60da5461097090600160281b900463ffffffff1681565b60405163ffffffff90911681526020016104e9565b6104fa61099336600461564e565b60cc6020525f908152604090205481565b6104fa6109b23660046156f9565b6122fa565b6104d86109c536600461586e565b612311565b61053e6109d8366004615961565b61236e565b6104fa6109eb36600461564e565b60ce6020525f908152604090205481565b61053e6123eb565b6104fa60d55481565b61053e610a1b36600461564e565b6123fd565b6104fa60d35481565b6104fa60df5481565b61051b610a4036600461586e565b61247d565b61053e610a5336600461564e565b6124a7565b6104fa610a6636600461586e565b612815565b6105516128b0565b61053e610a81366004615980565b6128bd565b6104fa610a943660046157b5565b612a1c565b60da5461097090610100900463ffffffff1681565b61053e610abc3660046156f9565b612e41565b6104fa60d75481565b6104fa5f81565b61051b610adf366004615710565b612e80565b6104d8610af236600461586e565b612fdd565b61053e610b05366004615807565b612ff9565b6104fa610b183660046156f9565b61300d565b6104fa610b2b366004615a2b565b613023565b6104fa610b3e366004615a2b565b61312b565b61053e610b5136600461564e565b613228565b6104fa610b643660046156f9565b61327c565b6104fa610b773660046156f9565b61329b565b6104d8610b8a36600461586e565b60cf60209081525f92835260408084209091529082529020805460019091015482565b6104fa610bbb36600461564e565b6132b2565b6104d8610bce36600461586e565b60d060209081525f92835260408084209091529082529020805460019091015482565b61053e610bff366004615a5f565b6132d3565b6104fa610c12366004615a2b565b613498565b61053e610c2536600461586e565b613713565b6104fa60d65481565b6104fa610c4136600461564e565b6001600160a01b03165f90815260cc602052604090205490565b6104fa610c69366004615ac9565b60cd60209081525f928352604080842090915290825290205481565b61053e610c933660046156ab565b613737565b6104fa5f80516020615f8083398151915281565b6104fa60de5481565b6104fa61378b565b6104fa610ccb3660046156f9565b61386c565b60db54610756906001600160a01b031681565b60da5461097090600160481b900463ffffffff1681565b60dc546107ef906001600160801b031681565b6001600160a01b0381165f90815260cc60205260408120548190610d3090610f37565b610d39846115f3565b91509150915091565b60da545f9081906224ea004281810690039160ff16028101815b818111610db4575f81815260d160205260409020600381015480831115610da857824210610d8e578160020154610da3565b6002820154610da39042839003838603613876565b860195505b50506224ea0001610d5c565b50610dd760e254670de0b6b3a76400000360d454610dd061378b565b0390613894565b610ddf6138a8565b8460dd54010101935050505090565b5f6001600160e01b03198216637965db0b60e01b1480610e1e57506301ffc9a760e01b6001600160e01b03198316145b92915050565b5f610e2e8161391e565b610e36613928565b60dd5f828254610e469190615b1d565b90915550610e5490506139a1565b60dc80546001600160801b0319166001600160801b0384161790556040517f5499a947330efc8c6d458d51fd04d56d7e44dc1469558b2300e359963cef317e90610e9f9084906158ee565b60405180910390a15050565b60c98054610eb890615b30565b80601f0160208091040260200160405190810160405280929190818152602001828054610ee490615b30565b8015610f2f5780601f10610f0657610100808354040283529160200191610f2f565b820191905f5260205f20905b815481529060010190602001808311610f1257829003601f168201915b505050505081565b60cb545f908015610f5a57610f55610f4d610d42565b849083613876565b610f5c565b825b9392505050565b335f81815260cd602090815260408083206001600160a01b038716808552925280832085905551919290917f8c5be1e5ebec7d5bd14f71427d1e84f3dd0314c0f7b2291e5b200ac8c7c3b92590610fbd9086815260200190565b60405180910390a350600192915050565b60cb545f908015610f5a57610f5581610fe5610d42565b859190613a07565b60dd5460de545f9190828183106110065760d85461100a565b60d9545b60da549091505f906110459061102d90600160481b900463ffffffff1642615b68565b6110379084615b7b565b61104090615b92565b613a34565b61105790670de0b6b3a7640000615bac565b90506110638185613894565b61107f61107883670de0b6b3a7640000615b68565b8590613894565b6110899190615b1d565b94505050505090565b5f61109c8161391e565b82826040516020016110af929190615bcb565b60405160208183030381529060405260c990816110cc9190615c46565b5082826040516020016110e0929190615d00565b60405160208183030381529060405260ca90816110fd9190615c46565b50505050565b5f61110c613ba7565b611114613bb6565b845f036111345760405163774257f760e01b815260040160405180910390fd5b60da5461114890879060ff1660035f613be1565b5f86815260d160205260409020611165611160613d7b565b613e89565b61116f8188613ec6565b60dd5f82825461117f9190615b1d565b909155505060e3546001600160a01b031680156111f057604051636c912dad60e01b81526001600160a01b03821690636c912dad906111c29087906004016158da565b5f604051808303815f87803b1580156111d9575f80fd5b505af11580156111eb573d5f803e3d5ffd5b505050505b5f6111fb8389613f44565b9050801561127f575f8160d3546112129190615b1d565b60dc549091506112509061123e90600160801b90046001600160801b0316670de0b6b3a7640000615d1e565b60dd54906001600160801b0316613894565b60d45461125d9083615b1d565b111561127b57604051622d41ad60e31b815260040160405180910390fd5b60d3555b505f8061128a610fed565b90505f60d45490505f60db5f9054906101000a90046001600160a01b03166001600160a01b031663d9d9048d8d60da5f9054906101000a900460ff166112d88a600101548b5f015489613f80565b6112e28888613fad565b6112ef898960d354613fc5565b6040518663ffffffff1660e01b815260040161130f959493929190615d3d565b602060405180830381865afa15801561132a573d5f803e3d5ffd5b505050506040513d601f19601f8201168201806040525081019061134e9190615d63565b905061137361136c611360428f615b68565b83906301e13380613876565b8c90613fe1565b935050505080886113849190615b1d565b9350868411156113a757604051632c1b6b4160e21b815260040160405180910390fd5b6113b18585613ff5565b5f89815260d0602090815260408083206001600160a01b038916845290915281208054909103611408576001600160a01b0386165f90815260d2602052604090206001810154611401908c61406b565b6001909101555b5f8061144b61141685614154565b604080516080810182528954815260018a0154602082015260028a01549181019190915260038901546060820152908d614180565b91509150815f1461146f5781866002015f8282546114699190615b1d565b90915550505b611478816141cc565b60405180604001604052808c855f01546114929190615b1d565b81526020018585600101546114a79190615b1d565b90525f8d815260d0602090815260408083206001600160a01b03808e168086529184529382902085518155949092015160019094019390935591519194508a1692508c91507f66866b472f27d55d69496091bbd651907b2fb1041b3eeaca6e565ae5b5af40139061151d9033908e908890615d7a565b60405180910390a461152d6139a1565b611536896141f8565b604051637b9d893160e01b81526001600160a01b037f00000000000000000000000000000000000000000000000000000000000000001690637b9d8931906115849030908990600401615d9b565b5f604051808303815f87803b15801561159b575f80fd5b505af11580156115ad573d5f803e3d5ffd5b506115e79250506001600160a01b037f0000000000000000000000000000000000000000000000000000000000000000169050878a614246565b50505095945050505050565b6001600160a01b0381165f90815260d260209081526040822060d6546001820154919290919081901c9063ffffffff165b81156116c85760018216156116ad575f81815260d0602090815260408083206001600160a01b038a1684529091528120600181015481549192916116689190615b1d565b90506116748188615b1d565b9650824211156116aa5761169d8561168c8542615b68565b6116969190615b7b565b8290613894565b6116a79088615b1d565b96505b50505b60019190911c906116c16224ea0082615b1d565b9050611624565b600284015480156116e9576116dc81611cf6565b6116e69087615b1d565b95505b5050505050919050565b5f6116fc613ba7565b7f00000000000000000000000000000000000000000000000000000000000000006001600160a01b031663a3883db53086611736866121f0565b6040518463ffffffff1660e01b815260040161175493929190615db5565b5f6040518083038186803b15801561176a575f80fd5b505afa15801561177c573d5f803e3d5ffd5b505060e3546001600160a01b0316915050801561184657604051630149e46f60e01b81526001600160a01b03821690630149e46f906117bf9088906004016158da565b5f604051808303815f87803b1580156117d6575f80fd5b505af11580156117e8573d5f803e3d5ffd5b5050604051630149e46f60e01b81526001600160a01b0384169250630149e46f91506118189087906004016158da565b5f604051808303815f87803b15801561182f575f80fd5b505af1158015611841573d5f803e3d5ffd5b505050505b611851858585614291565b95945050505050565b5f6118648161391e565b60da805460ff191660ff84169081179091556040519081527f23c0170203096819aed8a13739fe91ce445ec92a7e2aa228081b5e45ee582c8090602001610e9f565b5f6118b08161391e565b6118bb611160613d7b565b60e180546001600160a01b0319166001600160a01b03851690811790915560e28390556040518381527fd471a80a3a5fd21dfce2b1b7c88bbea4684ab90254a4e47345ac344d566788729060200160405180910390a2505050565b5f828152606560205260409020600101546119308161391e565b61193a838361436b565b505050565b5f611948613ba7565b611950613bb6565b835f03611970576040516356316e8760e01b815260040160405180910390fd5b60da5461198490869060ff1660035f613be1565b5f85815260d1602052604081209061199c8288613ec6565b90506119a9611160613d7b565b8060dd5f8282546119ba9190615b1d565b909155505060d754604080516080810182528454815260018501546020820152600285015491810191909152600384015460608201525f9182916119ff918a906143f0565b9092509050611a0e8289615b1d565b945086851015611a3157604051632c1b6b4160e21b815260040160405180910390fd5b611a3b8489614441565b60d35f828254611a4b9190615b68565b90915550611a5b90508183615b1d565b846002015f828254611a6d9190615b68565b925050819055508060d55f828254611a859190615b1d565b90915550505f89815260cf602090815260408083206001600160a01b038a16845290915281208054909103611ada576001600160a01b0387165f90815260d2602052604090208054611ad7908c61406b565b90555b88815f015f828254611aec9190615b1d565b9250508190555082816001015f828254611b069190615b1d565b9091555050604080518a8152602081018590526001600160a01b0389169133918d917fd9900507c64720c1a5e11858a42769b599616268b832495aa6afe8b9dc566e76910160405180910390a4611b5b6139a1565b611b648a6141f8565b611b996001600160a01b037f00000000000000000000000000000000000000000000000000000000000000001633308c614471565b5050505050949350505050565b5f7f00000000000000000000000000000000000000000000000000000000000000004614611bdb57611bd66144c9565b905090565b507f000000000000000000000000000000000000000000000000000000000000000090565b6001600160a01b0381163314611c14575f80fd5b611c1e8282614562565b5050565b5f611c2b613ba7565b60da54611c4090869060ff1660036002613be1565b611c4e8585858560016145c8565b9050611c586139a1565b611c8d6001600160a01b037f000000000000000000000000000000000000000000000000000000000000000016333084614471565b949350505050565b5f80516020615f80833981519152611cac8161391e565b611cb4614952565b50565b5f611cc18161391e565b60d78290556040518281527f08b437f29bc93f50025290193a680338033c3fccb93cf0ef95788eba3f003e2690602001610e9f565b60df545f908015610f5a57610f55611d0c61378b565b849083613a07565b5f611d1d613ba7565b6001600160a01b0384163303611d46576040516344511af160e01b815260040160405180910390fd5b611d4e613928565b60dd5f828254611d5e9190615b1d565b909155505060405163042dcf6b60e31b81526001600160a01b037f0000000000000000000000000000000000000000000000000000000000000000169063216e7b5890611db5903090869089908990600401615dd9565b602060405180830381865afa158015611dd0573d5f803e3d5ffd5b505050506040513d601f19601f82011682018060405250810190611df49190615d63565b9250825f03611e165760405163685e923560e01b815260040160405180910390fd5b6001600160a01b0384165f90815260d2602090815260409091206001810154909181901c9063ffffffff165b8115801590611e5057508515155b15611f5d576001821615611f42575f81421015611e8757611e748288898b5f6145c8565b9050611e808188615b68565b9650611f34565b5f82815260d0602090815260408083206001600160a01b038c168452909152812060018101548154611eb99190615b1d565b9150505f611ee060d6548542611ecf9190615b68565b611ed99190615b7b565b8390613894565b611eea9083615b1d565b9050888111611ef95788611f04565b611f04898383613876565b9250825f03611f15575f9850611f31565b611f2284848b8d5f6145c8565b9250611f2e838a615b68565b98505b50505b611f3e8186615b1d565b9450505b60019190911c90611f566224ea0082615b1d565b9050611e42565b50508315801590611f715750600281015415155b15611fa6575f611f808561327c565b90508015611fa4575f611f938288614994565b509050611fa08185615b1d565b9350505b505b5f807f00000000000000000000000000000000000000000000000000000000000000006001600160a01b0316636e1b003130878a886040518563ffffffff1660e01b8152600401611ffa9493929190615dd9565b6040805180830381865afa158015612014573d5f803e3d5ffd5b505050506040513d601f19601f820116820180604052508101906120389190615e03565b915091508160d55f82825461204d9190615b1d565b90915550612094905033306120628588615b1d565b6001600160a01b037f000000000000000000000000000000000000000000000000000000000000000016929190614471565b306001600160a01b038616036120b5576120b030338984614af1565b61211a565b60405163b2a02ff160e01b81526001600160a01b0386169063b2a02ff1906120e59033908b908690600401615db5565b5f604051808303815f87803b1580156120fc575f80fd5b505af115801561210e573d5f803e3d5ffd5b5050505061211a6139a1565b60408051858152602081018490529081018290526001600160a01b03808716919089169033907f67bb48f97d82192848c24158abf58ec614777328e19655e0a219652b773fd1db9060600160405180910390a46040516311fd52e160e01b81526001600160a01b037f000000000000000000000000000000000000000000000000000000000000000016906311fd52e1906121b9908a906004016158da565b5f604051808303815f87803b1580156121d0575f80fd5b505af11580156121e2573d5f803e3d5ffd5b505050505050509392505050565b5f610e1e82610f37565b5f6122048161391e565b61220c614cd9565b60d883905560d982905560408051848152602081018490527fd09fee08a2915f9ac9a77197b21a3e275d34ec9542f569eb15b95ce8f7fe2808910160405180910390a1505050565b5f61225e8361386c565b9050805f0361226b575f80fd5b6122a06001600160a01b037f000000000000000000000000000000000000000000000000000000000000000016333086614471565b6122aa8282614d04565b60408051848152602081018390526001600160a01b0384169133917fdcbc1c05240f31ff3ad067ef1ee35ce4997762752e3a095284754544f4c709d7910160405180910390a3610e1e8382614d7a565b60df545f908015610f5a57610f5581610fe561378b565b5f8061231b613ba7565b6123258484614994565b90925090506123326139a1565b6123676001600160a01b037f000000000000000000000000000000000000000000000000000000000000000016333085614471565b9250929050565b5f6123788161391e565b60e35460ff600160a01b90910416151582151514611c1e5760e38054831515600160a01b0260ff60a01b1990911617905560405133907f713eb400302cebac61f82eb8de5051d38458517ffac43ae45f4a9fd5d09ee698906123df90851515815260200190565b60405180910390a25050565b6123f3614dd9565b6123fb614e42565b565b5f6124078161391e565b60db546001600160a01b03161561242357612423611160613d7b565b60db80546001600160a01b0319166001600160a01b0384161790556124466139a1565b6040516001600160a01b038316907f7902cd1307c545e3f5782172612372bf997a93698917ced12b2f83d86e347d0c905f90a25050565b5f9182526065602090815260408084206001600160a01b0393909316845291905290205460ff1690565b336001600160a01b037f000000000000000000000000000000000000000000000000000000000000000016146124f0576040516317568c8f60e21b815260040160405180910390fd5b6124f8613928565b60dd5f8282546125089190615b1d565b90915550506001600160a01b0381165f90815260d260209081526040822060d55460018201549193909290919081901c9063ffffffff165b811561276c576001821615612751575f81815260d0602090815260408083206001600160a01b038a1684529091528120600181015481549192916125849190615b1d565b905080861061274e5760e3546001600160a01b031680156125f957604051636c912dad60e01b81526001600160a01b03821690636c912dad906125cb908c906004016158da565b5f604051808303815f87803b1580156125e2575f80fd5b505af11580156125f4573d5f803e3d5ffd5b505050505b6126038288615b68565b965061260f8287615b1d565b83545f86815260d1602052604081209298509161262b91614e7f565b905080156126c4578060d35f8282546126449190615b68565b909155505083545f906126739061265b9084614e9e565b5f88815260d160205260409020600201549084613876565b90508060d15f8881526020019081526020015f206002015f8282546126989190615b68565b925050819055508060d55f8282546126b09190615b1d565b909155506126c09050818a615b1d565b9850505b5f85815260d0602090815260408083206001600160a01b038e16845290915281208181556001908101919091558901546126fe9086614eb3565b60018a015560408051848152602081018590526001600160a01b038c1691339188917ff17fce321dd9fb005136a80c0bfb3789e455b7a70be9eb8922f1ad20a80d1a33910160405180910390a450505b50505b60019190911c906127656224ea0082615b1d565b9050612540565b60028501541580159061278957506127838461327c565b93508315155b156127aa575f6127998588614994565b5090506127a68185615b1d565b9350505b8215612805578260d55f8282546127c19190615b68565b90915550506040518381526001600160a01b038716907fde0e3a281fa92ee953a13c5bd96dcaf07b10c6b9f42c65d0e3752c855caa6e7c9060200160405180910390a25b61280d6139a1565b505050505050565b5f61281f8361300d565b90506128566001600160a01b037f000000000000000000000000000000000000000000000000000000000000000016333084614471565b6128608284614d04565b60408051828152602081018590526001600160a01b0384169133917fdcbc1c05240f31ff3ad067ef1ee35ce4997762752e3a095284754544f4c709d7910160405180910390a3610e1e8184614d7a565b60ca8054610eb890615b30565b5f54610100900460ff16158080156128db57505f54600160ff909116105b806128f45750303b1580156128f457505f5460ff166001145b6128fc575f80fd5b5f805460ff19166001179055801561291d575f805461ff0019166101001790555b612925614f72565b61292d614f84565b60da805468ffffffffffffffff0019166101004263ffffffff1690810263ffffffff60281b191691909117600160281b82021763ffffffff60481b1916600160481b919091021790556129805f3361436b565b61298a8b8b611092565b6129938961185a565b61299c88610e24565b6129a5876123fd565b6129ae86612e41565b6129b785611cb7565b6129c084613737565b6129ca83836121fa565b8015612a0f575f805461ff0019169055604051600181527f7f26b83ff96e1f2b6a682f133852f6798a09c465da95921460cefb38474024989060200160405180910390a15b5050505050505050505050565b5f612a25613ba7565b845f03612a455760405163b8cb621960e01b815260040160405180910390fd5b60da54612a5a90879060ff1660036002613be1565b5f86815260d160205260409020612a72611160613d7b565b612a7c8188613ec6565b60dd5f828254612a8c9190615b1d565b90915550505f87815260cf602090815260408083206001600160a01b038716845282529182902082518084019093528054808452600190910154918301829052612ad69190615b1d565b871115612af15760208101518151612aee9190615b1d565b96505b6040805180820190915281518152602080830151908201525f90612b2190612b19908a614f9e565b518490614fe4565b60d354612b2e9190615b1d565b905060dd5460d45482612b419190615b1d565b1115612b5f57604051622d41ad60e31b815260040160405180910390fd5b60d35542881115612c71575f612b73610fed565b90505f60d45490505f60d35490505f60db5f9054906101000a90046001600160a01b03166001600160a01b031663d9d9048d8d60da5f9054906101000a900460ff16612bc78a600101548b5f01548a613f80565b612bd18989613fad565b612bdc8a8a8a613fc5565b6040518663ffffffff1660e01b8152600401612bfc959493929190615d3d565b602060405180830381865afa158015612c17573d5f803e3d5ffd5b505050506040513d601f19601f82011682018060405250810190612c3b9190615d63565b9050612c66612c4d611360428f615b68565b612c5f90670de0b6b3a7640000615b1d565b8c90615028565b965050505050612c75565b8692505b85831015612c9657604051632c1b6b4160e21b815260040160405180910390fd5b612ca08484613ff5565b5f80612cec612cb7612cb2878c615b68565b614154565b604080516080810182528754815260018801546020820152600288015491810191909152600387015460608201529087614180565b9150915081846002015f828254612d039190615b1d565b90915550612d129050816141cc565b612d1c838a61503c565b5060208301518351175f03612d6f575f8a815260cf602090815260408083206001600160a01b038a168452825280832083815560010183905560d290915290208054612d68908c614eb3565b9055612d9f565b5f8a815260cf602090815260408083206001600160a01b038a168452825290912084518155908401516001909101555b856001600160a01b0316876001600160a01b03168b7fe57dbac0e7c42ad5f3b0fadb9c065565377cf771054fca70d35c96e01f9ec53c338d8a604051612de793929190615d7a565b60405180910390a4612df76139a1565b612e008a6141f8565b612e346001600160a01b037f0000000000000000000000000000000000000000000000000000000000000000168887614246565b5050505095945050505050565b5f612e4b8161391e565b60d68290556040518281527fdb0ebfb2503f7c16b45577ebbf6c7d6b99b6e8aaf6652b156e36d5d6654a3a5e90602001610e9f565b5f612e89613ba7565b7f00000000000000000000000000000000000000000000000000000000000000006001600160a01b031663a3883db53033612ec3866121f0565b6040518463ffffffff1660e01b8152600401612ee193929190615db5565b5f6040518083038186803b158015612ef7575f80fd5b505afa158015612f09573d5f803e3d5ffd5b505060e3546001600160a01b03169150508015612fd357604051630149e46f60e01b81526001600160a01b03821690630149e46f90612f4c9033906004016158da565b5f604051808303815f87803b158015612f63575f80fd5b505af1158015612f75573d5f803e3d5ffd5b5050604051630149e46f60e01b81526001600160a01b0384169250630149e46f9150612fa59087906004016158da565b5f604051808303815f87803b158015612fbc575f80fd5b505af1158015612fce573d5f803e3d5ffd5b505050505b611c8d848461509a565b5f80612fe7613ba7565b612325612ff38561327c565b84614994565b613001613ba7565b61193a33848484614af1565b60cb545f908015610f5a57610f55611d0c610d42565b60405163a3883db560e01b81525f906001600160a01b037f0000000000000000000000000000000000000000000000000000000000000000169063a3883db59061307590309086908990600401615db5565b5f6040518083038186803b15801561308b575f80fd5b505afa15801561309d573d5f803e3d5ffd5b505060e3546001600160a01b0316915050801561310e57604051630149e46f60e01b81526001600160a01b03821690630149e46f906130e09086906004016158da565b5f604051808303815f87803b1580156130f7575f80fd5b505af1158015613109573d5f803e3d5ffd5b505050505b6131198585856150fd565b91506131236139a1565b509392505050565b5f7f00000000000000000000000000000000000000000000000000000000000000006001600160a01b031663a3883db53084613166886121f0565b6040518463ffffffff1660e01b815260040161318493929190615db5565b5f6040518083038186803b15801561319a575f80fd5b505afa1580156131ac573d5f803e3d5ffd5b505060e3546001600160a01b0316915050801561321d57604051630149e46f60e01b81526001600160a01b03821690630149e46f906131ef9086906004016158da565b5f604051808303815f87803b158015613206575f80fd5b505af1158015613218573d5f803e3d5ffd5b505050505b6131198585856151f4565b5f6132328161391e565b60e380546001600160a01b0319166001600160a01b0384169081179091556040517fbe945f1688d0c44e4727dde3ee4f1f52c5263e6213e3d6321cf7804cbe33be3c905f90a25050565b60df545f908015610f5a57610f558161329361378b565b859190613876565b60cb545f908015610f5a57610f5581613293610d42565b6001600160a01b0381165f90815260cc6020526040812054610e1e90610f37565b428410156132df575f80fd5b5f60016132ea611ba6565b6001600160a01b038a81165f81815260ce602090815260409182902080546001810190915582517f6e71edae12b1b97f4d1f60370fef10105fa2faae0126114a169c64845d6126c98184015280840194909452938d166060840152608083018c905260a083019390935260c08083018b90528151808403909101815260e08301909152805192019190912061190160f01b6101008301526101028201929092526101228101919091526101420160408051601f1981840301815282825280516020918201205f84529083018083525260ff871690820152606081018590526080810184905260a0016020604051602081039080840390855afa1580156133f2573d5f803e3d5ffd5b5050604051601f1901519150506001600160a01b038116158015906134285750876001600160a01b0316816001600160a01b0316145b613430575f80fd5b6001600160a01b039081165f90815260cd602090815260408083208a8516808552908352928190208990555188815291928a16917f8c5be1e5ebec7d5bd14f71427d1e84f3dd0314c0f7b2291e5b200ac8c7c3b925910160405180910390a350505050505050565b5f6134a1613ba7565b6134a9613bb6565b835f036134c95760405163774257f760e01b815260040160405180910390fd5b6134d38285613ff5565b60e3546001600160a01b0316801561353f57604051636c912dad60e01b81526001600160a01b03821690636c912dad906135119086906004016158da565b5f604051808303815f87803b158015613528575f80fd5b505af115801561353a573d5f803e3d5ffd5b505050505b61354a611160613d7b565b613553856122fa565b91505f8560d4546135649190615b1d565b60d481905560dc549091506135959061123e90600160801b90046001600160801b0316670de0b6b3a7640000615d1e565b8160d3546135a39190615b1d565b11156135c157604051622d41ad60e31b815260040160405180910390fd5b8260df5f8282546135d29190615b1d565b90915550506001600160a01b0384165f90815260d2602052604081206002018054859290613601908490615b1d565b909155505060408051878152602081018590526001600160a01b03808716929088169133917f96558a334f4759f0e7c423d68c84721860bd8fbf94ddc4e55158ecb125ad04b5910160405180910390a46136596139a1565b604051637b9d893160e01b81526001600160a01b037f00000000000000000000000000000000000000000000000000000000000000001690637b9d8931906136a79030908890600401615d9b565b5f604051808303815f87803b1580156136be575f80fd5b505af11580156136d0573d5f803e3d5ffd5b5061370a9250506001600160a01b037f00000000000000000000000000000000000000000000000000000000000000001690508688614246565b50509392505050565b5f8281526065602052604090206001015461372d8161391e565b61193a8383614562565b5f6137418161391e565b60dc80546001600160801b03808516600160801b0291161790556040517fc197c4ec4c97f824717acfad017c2a16643adc8874798a0899da42c6b5ebf9bf90610e9f9084906158ee565b60d45460dd5460da545f929190839061385890613851906137b990600160281b900463ffffffff1642615b68565b60db546301e13380906001600160a01b0316637c21fb1d6137da888a613fad565b6137e7898b60d354613fc5565b6040516001600160e01b031960e085901b16815260048101929092526024820152604401602060405180830381865afa158015613826573d5f803e3d5ffd5b505050506040513d601f19601f8201168201806040525081019061384a9190615d63565b9190613876565b8490613894565b90506138648184615b1d565b935050505090565b5f610e1e8261329b565b82820281151584158583048514171661388d575f80fd5b0492915050565b5f610f5c8383670de0b6b3a7640000613876565b60da545f9081906138c490610100900463ffffffff1642615b68565b9050805f036138d4575f91505090565b60da54613918908290613904906138f2906224ea009060ff16615b7b565b60dc546001600160801b031690613894565b61390e9084615b1d565b60d5549190613876565b91505090565b611cb481336152f6565b5f6139316138a8565b90508060d55f8282546139449190615b68565b909155505060da805464ffffffff0019166101004263ffffffff811691909102919091179091556040519081527fe24d78f24f27ad7740c08c83f439e4c144df201bfd8f5c4c93e3e0898248b1bb9060200160405180910390a190565b60cb5460dd5460df5460d45460d5546040805142815260208101969096528501939093526060840191909152608083015260a08201527f7a71b92e3ef471c5ad18359e076f3df1c563d92e9ea1e33aa4761dbbc9b7ae409060c0015b60405180910390a1565b828202811515841585830485141716613a1e575f80fd5b6001826001830304018115150290509392505050565b5f680248ce36a70cb26b3e198213613a4d57505f919050565b680755bf798b4a1bf1e58212613a61575f80fd5b6503782dace9d9604e83901b0591505f60606bb17217f7d1cf79abc9e3b39884821b056001605f1b01901d6bb17217f7d1cf79abc9e3b39881029093036c240c330e9fb2d9cbaf0fd5aafb1981018102606090811d6d0277594991cfc85f6e2461837cd9018202811d6d1a521255e34f6a5061b25ef1c9c319018202811d6db1bbb201f443cf962f1a1d3db4a5018202811d6e02c72388d9f74f51a9331fed693f1419018202811d6e05180bb14799ab47a8a8cb2a527d57016d02d16720577bd19bf614176fe9ea6c10fe68e7fd37d0007b713f765084018402831d9081019084016d01d3967ed30fc4f89c02bab5708119010290911d6e0587f503bb6ea29d25fcb740196450019091026d360d7aeea093263ecc6e0ecb291760621b010574029d9dc38563c32e5c2f6dc192ee70ef65f9978af30260c3939093039290921c92915050565b60975460ff16156123fb575f80fd5b60e354600160a01b900460ff16156123fb5760405163b2ce2a9360e01b815260040160405180910390fd5b5f613bef6224ea0086615e25565b15613bfc57506001613c4f565b428511613c0b57506002613c4f565b613c1b60ff85166224ea00615b7b565b613c286224ea0042615e25565b613c329042615b68565b613c3c9190615b1d565b851115613c4b57506004613c4f565b5060035b826004811115613c6157613c61615e38565b816004811115613c7357613c73615e38565b14158015613ca35750816004811115613c8e57613c8e615e38565b816004811115613ca057613ca0615e38565b14155b15613d74575f826004811115613cbb57613cbb615e38565b03613d0f57806004811115613cd257613cd2615e38565b836004811115613ce457613ce4615e38565b604051631a71301d60e11b815260ff9283166004820152911660248201526044015b60405180910390fd5b806004811115613d2157613d21615e38565b836004811115613d3357613d33615e38565b836004811115613d4557613d45615e38565b604051637f2cef9960e01b815260ff938416600482015291831660248301529091166044820152606401613d06565b5050505050565b60d45460dd545f919082613d8f8284613fad565b60da549091505f90613de19061107890613db690600160281b900463ffffffff1642615b68565b60db5460d3546301e13380916001600160a01b031690637c21fb1d9088906137e7908b908d90613fc5565b9050613ded8185615b1d565b9350613e0460e2548261389490919063ffffffff16565b945084613e118285615b1d565b613e1b9190615b68565b60dd5560d484905560da805463ffffffff60281b1916600160281b4263ffffffff8116919091029190911790915560408051918252602082018490527f582b129106eba35020853cdae92ceb413a0227befcce433b67b23a630219b35f910160405180910390a15050505090565b8015611cb45760e154613ead906001600160a01b0316613ea88361386c565b614d04565b8060dd5f828254613ebe9190615b1d565b909155505050565b60038201545f9042831115613f1a5760028401544260038601819055613f0390613ef1908490615b68565b613efb8487615b68565b839190613876565b9250613f0f8382615b68565b600286015550613f3d565b828103613f29575f9150613f3d565b600384018390556002840180545f90915591505b5092915050565b81545f9081613f538483615b1d565b9050613f6c613f6683876001015461533c565b82614e9e565b613f769082615b68565b9455509192915050565b5f8115801590613f8f57508383115b613f99575f611c8d565b611c8d82613fa78686615b68565b9061534a565b5f825f03613fbb575f610f5c565b610f5c828461534a565b5f835f03613fd3575f611c8d565b611c8d84613fa78486615b1d565b5f610f5c8383670de0b6b3a7640000613a07565b336001600160a01b03831614611c1e576001600160a01b0382165f90815260cd602090815260408083203384529091529020545f19811461193a5761403982610fce565b6140439082615b68565b6001600160a01b0384165f90815260cd60209081526040808320338452909152902055505050565b5f825f036140805750600160201b8117610e1e565b63ffffffff8316808310156140fd575f6224ea0061409e8584615b68565b6140a89190615e4c565b90506140b681610100615b68565b85901c156140d75760405163293cc41f60e21b815260040160405180910390fd5b6140e2816020615b1d565b602086901c901b9450848417600160201b1792505050610e1e565b5f6224ea0061410c8386615b68565b6141169190615e4c565b905060df81111561413a5760405163293cc41f60e21b815260040160405180910390fd5b614145816020615b1d565b6001901b851792505050610e1e565b5f8061416b60e2548461389490919063ffffffff16565b905061417681613e89565b610f5c8184615b68565b5f8082156141b4576141af61419d6141978761535e565b85614e9e565b6141a79085615b68565b859085613876565b6141b6565b5f5b90506141c28185615b68565b9150935093915050565b805f036141d65750565b60e254156141e757611cb481613e89565b8060d55f828254613ebe9190615b1d565b5f81815260d160209081526040918290206002015482514281529182015282917fa2e6044136bec58e0605f40ac11a7bf87f1a8bdf3e2588b11b2cfae5acd9109f910160405180910390a250565b5f60405163a9059cbb60e01b5f526001600160a01b0384166004528260245260205f60445f80895af13d15601f3d1160015f511416171691505f6060528060405250806110fd575f80fd5b6001600160a01b0383165f90815260cd602090815260408083203384529091528120545f1981146142ea576142c68382615b68565b6001600160a01b0386165f90815260cd602090815260408083203384529091529020555b6001600160a01b0385165f90815260cc602052604081208054859290614311908490615b68565b90915550506001600160a01b038085165f81815260cc6020526040908190208054870190555190918716905f80516020615fa0833981519152906143589087815260200190565b60405180910390a3506001949350505050565b614375828261247d565b611c1e575f8281526065602090815260408083206001600160a01b03851684529091529020805460ff191660011790556143ac3390565b6001600160a01b0316816001600160a01b0316837f2f8788117e7eff1d82e926ec794901d17c78024a50270940304540a733656f0d60405160405180910390a45050565b5f805f6143fc8661535e565b905080156144385761441d6144118683614e9e565b60408801519083613876565b92506144298385613894565b91506144358284615b68565b92505b50935093915050565b815460018301545f91906144558482615b1d565b60018601556118516144678383614e9e565b6141979084615b68565b5f6040516323b872dd60e01b5f526001600160a01b0385166004526001600160a01b0384166024528260445260205f60645f808a5af13d15601f3d1160015f511416171691505f606052806040525080613d74575f80fd5b5f7f8b73c3c69bb8fe3d512ecc4cf759cc79239f7b179b0ffacaa9a75d522b39400f60c96040516144fa9190615e5f565b6040805191829003822060208301939093528101919091527fc89efdaa54c0f20c7adf612882df0950f5a951637e0307cdcb4c672f298b8bc660608201524660808201523060a082015260c00160405160208183030381529060405280519060200120905090565b61456c828261247d565b15611c1e575f8281526065602090815260408083206001600160a01b0385168085529252808320805460ff1916905551339285917ff6391f5c32d9c69d2a47ea670b442974b53935d1edc7fd64eb21e047a839171b9190a45050565b5f845f036145e95760405163685e923560e01b815260040160405180910390fd5b5f86815260d160205260408120906146018289613ec6565b905061460e611160613d7b565b8060dd5f82825461461f9190615b1d565b90915550505f88815260d0602090815260408083206001600160a01b0389168452825280832081518083019092528054808352600190910154928201839052909291614675918b9161467091615b1d565b614e9e565b6040805180820190915283518152602080850151908201529091505f9061469c9083614f9e565b5160e3549091506001600160a01b0316801561470c57604051636c912dad60e01b81526001600160a01b03821690636c912dad906146de908c906004016158da565b5f604051808303815f87803b1580156146f5575f80fd5b505af1158015614707573d5f803e3d5ffd5b505050505b8b4210156147d45760d754604080516080810182528854815260018901546020820152600289015491810191909152600388015460608201525f9182916147549186906143f0565b90925090506147638183615b1d565b886002015f8282546147759190615b68565b909155505089156147a8578060d55f8282546147919190615b1d565b909155506147a190508286615b68565b98506147cd565b6147b28183615b1d565b60d55f8282546147c29190615b1d565b925050819055508498505b505061481b565b60d6546147ef906147e58e42615b68565b6138519190615b7b565b6147f99084615b1d565b96506148058388615b68565b60d55f8282546148159190615b1d565b90915550505b8987111561483c57604051632c1b6b4160e21b815260040160405180910390fd5b6148468683614e7f565b60d35f8282546148569190615b68565b909155506148669050848461503c565b5060208401518451175f036148c2575f8c815260d0602090815260408083206001600160a01b038d1684528252808320838155600190810184905560d2909252909120908101546148b7908e614eb3565b6001909101556148f2565b5f8c815260d0602090815260408083206001600160a01b038d168452825290912085518155908501516001909101555b60408051888152602081018590526001600160a01b038b169133918f917ff17fce321dd9fb005136a80c0bfb3789e455b7a70be9eb8922f1ad20a80d1a33910160405180910390a46149438c6141f8565b50505050505095945050505050565b61495a61537c565b6097805460ff191690557f5db9ee0a495bf2e6ff9c91a7834c1ba4fdd244a5e8aa4e537bd38aeae4b073aa335b6040516139fd91906158da565b60e3545f9081906001600160a01b03168015614a0457604051636c912dad60e01b81526001600160a01b03821690636c912dad906149d69087906004016158da565b5f604051808303815f87803b1580156149ed575f80fd5b505af11580156149ff573d5f803e3d5ffd5b505050505b614a0f611160613d7b565b6001600160a01b0384165f90815260d2602052604090206002810154614a358782614e9e565b9350614a4084611cf6565b9450845f03614a625760405163685e923560e01b815260040160405180910390fd5b8460d45f828254614a739190615b68565b90915550614a8390508482615b68565b82600201819055508360df5f828254614a9c9190615b68565b909155505060408051868152602081018690526001600160a01b0388169133917fe4a1ae657f49cb1fb1c7d3a94ae6093565c4c8c0e03de488f79c377c3c3a24e0910160405180910390a35050509250929050565b805f03614b115760405163b8cb621960e01b815260040160405180910390fd5b60405163070b773960e51b81526001600160a01b037f0000000000000000000000000000000000000000000000000000000000000000169063e16ee72090614b5f9087903090600401615d9b565b5f6040518083038186803b158015614b75575f80fd5b505afa158015614b87573d5f803e3d5ffd5b505060e3546001600160a01b03169150508015614bf857604051630149e46f60e01b81526001600160a01b03821690630149e46f90614bca9086906004016158da565b5f604051808303815f87803b158015614be1575f80fd5b505af1158015614bf3573d5f803e3d5ffd5b505050505b5f614c0283610fce565b9050614c0e838261538a565b614c188482615403565b60408051848152602081018390526001600160a01b03808716929088169133915f80516020615f60833981519152910160405180910390a4836001600160a01b0316856001600160a01b03167f9e2db63c5a9dc5d08222447d76570029e4f2f3074c8aa4f1c511fa658506c71085604051614c9591815260200190565b60405180910390a3614ca56139a1565b61280d6001600160a01b037f0000000000000000000000000000000000000000000000000000000000000000168685614246565b614ce1610fed565b60de5560da805463ffffffff60481b1916600160481b4263ffffffff1602179055565b60e3546001600160a01b03168015614d7057604051630149e46f60e01b81526001600160a01b03821690630149e46f90614d429086906004016158da565b5f604051808303815f87803b158015614d59575f80fd5b505af1158015614d6b573d5f803e3d5ffd5b505050505b61193a838361546a565b614d82613ba7565b614d8a613bb6565b614d92614cd9565b5f614d9b613d7b565b90505f614da6613928565b9050614db28482615b1d565b60dd5f828254614dc29190615b1d565b90915550614dd1905082613e89565b6110fd6139a1565b614e037f5358bcfd81d1ef3da152b1755e1c3c6739686fa7e83dbcad0071568cc4b73a633361247d565b158015614e245750614e225f80516020615f808339815191523361247d565b155b156123fb57604051631d006fdb60e31b815260040160405180910390fd5b614e4a613ba7565b6097805460ff191660011790557f62e78cea01bee320cd4e420270b5ea74000d11b0c9f74754ebdbfc544b05a2586149873390565b815460018301545f9190614e938483615b68565b855561185161446783835b5f818310614eac5781610f5c565b5090919050565b5f821580614ec6575081600160201b1783145b15614ed257505f610e1e565b63ffffffff8316808303614f4057602184901c60015b60018216158015614ef857508115155b15614f0957600191821c9101614ee8565b6020614f158282615b1d565b9690961c90951b9485614f2b6224ea0083615b7b565b614f359087615b1d565b179350505050610e1e565b6224ea00614f4e8285615b68565b614f589190615e4c565b614f63906020615b1d565b6001901b198416915050610e1e565b5f54610100900460ff166123fb575f80fd5b5f54610100900460ff16614f96575f80fd5b6123fb6154b9565b604080518082019091525f8082526020820152825160208401515f91614fc8916132939082615b1d565b8085529050614fd78184615b68565b6020850152509192915050565b815460018301545f919082614ff98583615b68565b90506150058184614e9e565b61500f8385614e9e565b6150199190615b68565b60019096015550929392505050565b5f610f5c83670de0b6b3a764000084613876565b604080518082019091525f8082526020820152602083015183515f9161506191615b1d565b90505f61506e8483615b68565b855190915061507f90829084613876565b80865261508c9082615b68565b602086015250929392505050565b335f90815260cc60205260408120805483919083906150ba908490615b68565b90915550506001600160a01b0383165f81815260cc6020526040908190208054850190555133905f80516020615fa083398151915290610fbd9086815260200190565b5f61510784610fce565b9050336001600160a01b03831614615174576001600160a01b0382165f90815260cd602090815260408083203384529091529020545f1981146151725761514e8282615b68565b6001600160a01b0384165f90815260cd602090815260408083203384529091529020555b505b61517e848261538a565b6151888282615403565b60408051858152602081018390526001600160a01b03808516929086169133915f80516020615f60833981519152910160405180910390a4610f5c6001600160a01b037f0000000000000000000000000000000000000000000000000000000000000000168486614246565b5f336001600160a01b03831614615260576001600160a01b0382165f90815260cd602090815260408083203384529091529020545f19811461525e5761523a8582615b68565b6001600160a01b0384165f90815260cd602090815260408083203384529091529020555b505b615269846121f0565b9050805f03615276575f80fd5b615280818561538a565b61528a8285615403565b60408051828152602081018690526001600160a01b03808516929086169133915f80516020615f60833981519152910160405180910390a4610f5c6001600160a01b037f0000000000000000000000000000000000000000000000000000000000000000168483614246565b615300828261247d565b611c1e5761530d816154d7565b6153188360206154e9565b604051602001615329929190615ee7565b6040516020818303038152906040525f80fd5b5f818311614eac5781610f5c565b5f610f5c83670de0b6b3a764000084613a07565b805160208201515f91906153728282614e9e565b611c8d9083615b68565b60975460ff166123fb575f80fd5b615392613ba7565b61539a614cd9565b6153a5611160613d7b565b5f6153ae613928565b90505f838260dd546153c09190615b1d565b6153ca9190615b68565b90508060d45460d3546153dd9190615b1d565b11156153fb57604051622d41ad60e31b815260040160405180910390fd5b60dd55505050565b6001600160a01b0382165f90815260cc60205260408120805483929061542a908490615b68565b909155505060cb805482900390556040518181525f906001600160a01b038416905f80516020615fa0833981519152906020015b60405180910390a35050565b8060cb5f82825461547b9190615b1d565b90915550506001600160a01b0382165f81815260cc60209081526040808320805486019055518481525f80516020615fa0833981519152910161545e565b5f54610100900460ff166154cb575f80fd5b6097805460ff19169055565b6060610e1e6001600160a01b03831660145b60605f6154f7836002615b7b565b615502906002615b1d565b6001600160401b0381111561551957615519615bee565b6040519080825280601f01601f191660200182016040528015615543576020820181803683370190505b509050600360fc1b815f8151811061555d5761555d615f36565b60200101906001600160f81b03191690815f1a905350600f60fb1b8160018151811061558b5761558b615f36565b60200101906001600160f81b03191690815f1a9053505f6155ad846002615b7b565b6155b8906001615b1d565b90505b600181111561562f576f181899199a1a9b1b9c1cb0b131b232b360811b85600f16601081106155ec576155ec615f36565b1a60f81b82828151811061560257615602615f36565b60200101906001600160f81b03191690815f1a90535060049490941c9361562881615f4a565b90506155bb565b508315610f5c575f80fd5b6001600160a01b0381168114611cb4575f80fd5b5f6020828403121561565e575f80fd5b8135610f5c8161563a565b5f60208284031215615679575f80fd5b81356001600160e01b031981168114610f5c575f80fd5b80356001600160801b03811681146156a6575f80fd5b919050565b5f602082840312156156bb575f80fd5b610f5c82615690565b602081525f82518060208401528060208501604085015e5f604082850101526040601f19601f83011684010191505092915050565b5f60208284031215615709575f80fd5b5035919050565b5f8060408385031215615721575f80fd5b823561572c8161563a565b946020939093013593505050565b5f8083601f84011261574a575f80fd5b5081356001600160401b03811115615760575f80fd5b602083019150836020828501011115612367575f80fd5b5f8060208385031215615788575f80fd5b82356001600160401b0381111561579d575f80fd5b6157a98582860161573a565b90969095509350505050565b5f805f805f60a086880312156157c9575f80fd5b85359450602086013593506040860135925060608601356157e98161563a565b915060808601356157f98161563a565b809150509295509295909350565b5f805f60608486031215615819575f80fd5b83356158248161563a565b925060208401356158348161563a565b929592945050506040919091013590565b803560ff811681146156a6575f80fd5b5f60208284031215615865575f80fd5b610f5c82615845565b5f806040838503121561587f575f80fd5b8235915060208301356158918161563a565b809150509250929050565b5f805f80608085870312156158af575f80fd5b84359350602085013592506040850135915060608501356158cf8161563a565b939692955090935050565b6001600160a01b0391909116815260200190565b6001600160801b0391909116815260200190565b5f805f60608486031215615914575f80fd5b833561591f8161563a565b92506020840135915060408401356159368161563a565b809150509250925092565b5f8060408385031215615952575f80fd5b50508035926020909101359150565b5f60208284031215615971575f80fd5b81358015158114610f5c575f80fd5b5f805f805f805f805f806101208b8d03121561599a575f80fd5b8a356001600160401b038111156159af575f80fd5b6159bb8d828e0161573a565b909b5099506159ce905060208c01615845565b97506159dc60408c01615690565b965060608b01356159ec8161563a565b955060808b0135945060a08b01359350615a0860c08c01615690565b999c989b50969995989497939650919460e0810135936101009091013592509050565b5f805f60608486031215615a3d575f80fd5b833592506020840135615a4f8161563a565b915060408401356159368161563a565b5f805f805f805f60e0888a031215615a75575f80fd5b8735615a808161563a565b96506020880135615a908161563a565b95506040880135945060608801359350615aac60808901615845565b9699959850939692959460a0840135945060c09093013592915050565b5f8060408385031215615ada575f80fd5b8235615ae58161563a565b915060208301356158918161563a565b634e487b7160e01b5f52601260045260245ffd5b634e487b7160e01b5f52601160045260245ffd5b80820180821115610e1e57610e1e615b09565b600181811c90821680615b4457607f821691505b602082108103615b6257634e487b7160e01b5f52602260045260245ffd5b50919050565b81810381811115610e1e57610e1e615b09565b8082028115828204841417610e1e57610e1e615b09565b5f600160ff1b8201615ba657615ba6615b09565b505f0390565b8181035f831280158383131683831282161715613f3d57613f3d615b09565b67032bc30b1ba363c960c51b8152818360088301375f9101600801908152919050565b634e487b7160e01b5f52604160045260245ffd5b601f82111561193a57805f5260205f20601f840160051c81016020851015615c275750805b601f840160051c820191505b81811015613d74575f8155600101615c33565b81516001600160401b03811115615c5f57615c5f615bee565b615c7381615c6d8454615b30565b84615c02565b6020601f821160018114615ca5575f8315615c8e5750848201515b5f19600385901b1c1916600184901b178455613d74565b5f84815260208120601f198516915b82811015615cd45787850151825560209485019460019092019101615cb4565b5084821015615cf157868401515f19600387901b60f8161c191681555b50505050600190811b01905550565b6265786160e81b8152818360038301375f9101600301908152919050565b6001600160801b038281168282160390811115610e1e57610e1e615b09565b94855260ff93909316602085015260408401919091526060830152608082015260a00190565b5f60208284031215615d73575f80fd5b5051919050565b6001600160a01b039390931683526020830191909152604082015260600190565b6001600160a01b0392831681529116602082015260400190565b6001600160a01b039384168152919092166020820152604081019190915260600190565b6001600160a01b039485168152928416602084015292166040820152606081019190915260800190565b5f8060408385031215615e14575f80fd5b505080516020909101519092909150565b5f82615e3357615e33615af5565b500690565b634e487b7160e01b5f52602160045260245ffd5b5f82615e5a57615e5a615af5565b500490565b5f808354615e6c81615b30565b600182168015615e835760018114615e9857615ec5565b60ff1983168652811515820286019350615ec5565b865f5260205f205f5b83811015615ebd57815488820152600190910190602001615ea1565b505081860193505b509195945050505050565b5f81518060208401855e5f93019283525090919050565b76020b1b1b2b9b9a1b7b73a3937b61d1030b1b1b7bab73a1604d1b81525f615f126017830185615ed0565b7001034b99036b4b9b9b4b733903937b6329607d1b81526118516011820185615ed0565b634e487b7160e01b5f52603260045260245ffd5b5f81615f5857615f58615b09565b505f19019056fefbde797d201c681b91056529119e0b02407c7bb96a4a2c75c01fc9667232c8db65d7a28e3265b37a6474929f336521b332c1681b933f6cb9f3376673440d862addf252ad1be2c89b69c2b068fc378daa952ba7f163c4a11628f55a4df523b3efa264697066735822122005ec196d152ea67004b2106a9e8456d6fce9e4ca698150d3a643ce4c0c94880d64736f6c634300081a0033",
  "storageLayout": {
    "storage": [
      {
        "astId": 416,
        "contract": "contracts/Market.sol:Market",
        "label": "_initialized",
        "offset": 0,
        "slot": "0",
        "type": "t_uint8"
      },
      {
        "astId": 419,
        "contract": "contracts/Market.sol:Market",
        "label": "_initializing",
        "offset": 1,
        "slot": "0",
        "type": "t_bool"
      },
      {
        "astId": 1086,
        "contract": "contracts/Market.sol:Market",
        "label": "__gap",
        "offset": 0,
        "slot": "1",
        "type": "t_array(t_uint256)50_storage"
      },
      {
        "astId": 1360,
        "contract": "contracts/Market.sol:Market",
        "label": "__gap",
        "offset": 0,
        "slot": "51",
        "type": "t_array(t_uint256)50_storage"
      },
      {
        "astId": 28,
        "contract": "contracts/Market.sol:Market",
        "label": "_roles",
        "offset": 0,
        "slot": "101",
        "type": "t_mapping(t_bytes32,t_struct(RoleData)23_storage)"
      },
      {
        "astId": 335,
        "contract": "contracts/Market.sol:Market",
        "label": "__gap",
        "offset": 0,
        "slot": "102",
        "type": "t_array(t_uint256)49_storage"
      },
      {
        "astId": 600,
        "contract": "contracts/Market.sol:Market",
        "label": "_paused",
        "offset": 0,
        "slot": "151",
        "type": "t_bool"
      },
      {
        "astId": 705,
        "contract": "contracts/Market.sol:Market",
        "label": "__gap",
        "offset": 0,
        "slot": "152",
        "type": "t_array(t_uint256)49_storage"
      },
      {
        "astId": 16118,
        "contract": "contracts/Market.sol:Market",
        "label": "name",
        "offset": 0,
        "slot": "201",
        "type": "t_string_storage"
      },
      {
        "astId": 16120,
        "contract": "contracts/Market.sol:Market",
        "label": "symbol",
        "offset": 0,
        "slot": "202",
        "type": "t_string_storage"
      },
      {
        "astId": 16124,
        "contract": "contracts/Market.sol:Market",
        "label": "totalSupply",
        "offset": 0,
        "slot": "203",
        "type": "t_uint256"
      },
      {
        "astId": 16128,
        "contract": "contracts/Market.sol:Market",
        "label": "balanceOf",
        "offset": 0,
        "slot": "204",
        "type": "t_mapping(t_address,t_uint256)"
      },
      {
        "astId": 16134,
        "contract": "contracts/Market.sol:Market",
        "label": "allowance",
        "offset": 0,
        "slot": "205",
        "type": "t_mapping(t_address,t_mapping(t_address,t_uint256))"
      },
      {
        "astId": 16142,
        "contract": "contracts/Market.sol:Market",
        "label": "nonces",
        "offset": 0,
        "slot": "206",
        "type": "t_mapping(t_address,t_uint256)"
      },
      {
        "astId": 7382,
        "contract": "contracts/Market.sol:Market",
        "label": "fixedDepositPositions",
        "offset": 0,
        "slot": "207",
        "type": "t_mapping(t_uint256,t_mapping(t_address,t_struct(Position)15540_storage))"
      },
      {
        "astId": 7390,
        "contract": "contracts/Market.sol:Market",
        "label": "fixedBorrowPositions",
        "offset": 0,
        "slot": "208",
        "type": "t_mapping(t_uint256,t_mapping(t_address,t_struct(Position)15540_storage))"
      },
      {
        "astId": 7396,
        "contract": "contracts/Market.sol:Market",
        "label": "fixedPools",
        "offset": 0,
        "slot": "209",
        "type": "t_mapping(t_uint256,t_struct(Pool)15534_storage)"
      },
      {
        "astId": 7402,
        "contract": "contracts/Market.sol:Market",
        "label": "accounts",
        "offset": 0,
        "slot": "210",
        "type": "t_mapping(t_address,t_struct(Account)11401_storage)"
      },
      {
        "astId": 7405,
        "contract": "contracts/Market.sol:Market",
        "label": "floatingBackupBorrowed",
        "offset": 0,
        "slot": "211",
        "type": "t_uint256"
      },
      {
        "astId": 7408,
        "contract": "contracts/Market.sol:Market",
        "label": "floatingDebt",
        "offset": 0,
        "slot": "212",
        "type": "t_uint256"
      },
      {
        "astId": 7411,
        "contract": "contracts/Market.sol:Market",
        "label": "earningsAccumulator",
        "offset": 0,
        "slot": "213",
        "type": "t_uint256"
      },
      {
        "astId": 7414,
        "contract": "contracts/Market.sol:Market",
        "label": "penaltyRate",
        "offset": 0,
        "slot": "214",
        "type": "t_uint256"
      },
      {
        "astId": 7417,
        "contract": "contracts/Market.sol:Market",
        "label": "backupFeeRate",
        "offset": 0,
        "slot": "215",
        "type": "t_uint256"
      },
      {
        "astId": 7420,
        "contract": "contracts/Market.sol:Market",
        "label": "dampSpeedUp",
        "offset": 0,
        "slot": "216",
        "type": "t_uint256"
      },
      {
        "astId": 7423,
        "contract": "contracts/Market.sol:Market",
        "label": "dampSpeedDown",
        "offset": 0,
        "slot": "217",
        "type": "t_uint256"
      },
      {
        "astId": 7426,
        "contract": "contracts/Market.sol:Market",
        "label": "maxFuturePools",
        "offset": 0,
        "slot": "218",
        "type": "t_uint8"
      },
      {
        "astId": 7429,
        "contract": "contracts/Market.sol:Market",
        "label": "lastAccumulatorAccrual",
        "offset": 1,
        "slot": "218",
        "type": "t_uint32"
      },
      {
        "astId": 7432,
        "contract": "contracts/Market.sol:Market",
        "label": "lastFloatingDebtUpdate",
        "offset": 5,
        "slot": "218",
        "type": "t_uint32"
      },
      {
        "astId": 7435,
        "contract": "contracts/Market.sol:Market",
        "label": "lastAverageUpdate",
        "offset": 9,
        "slot": "218",
        "type": "t_uint32"
      },
      {
        "astId": 7439,
        "contract": "contracts/Market.sol:Market",
        "label": "interestRateModel",
        "offset": 0,
        "slot": "219",
        "type": "t_contract(InterestRateModel)7266"
      },
      {
        "astId": 7442,
        "contract": "contracts/Market.sol:Market",
        "label": "earningsAccumulatorSmoothFactor",
        "offset": 0,
        "slot": "220",
        "type": "t_uint128"
      },
      {
        "astId": 7445,
        "contract": "contracts/Market.sol:Market",
        "label": "reserveFactor",
        "offset": 16,
        "slot": "220",
        "type": "t_uint128"
      },
      {
        "astId": 7448,
        "contract": "contracts/Market.sol:Market",
        "label": "floatingAssets",
        "offset": 0,
        "slot": "221",
        "type": "t_uint256"
      },
      {
        "astId": 7451,
        "contract": "contracts/Market.sol:Market",
        "label": "floatingAssetsAverage",
        "offset": 0,
        "slot": "222",
        "type": "t_uint256"
      },
      {
        "astId": 7454,
        "contract": "contracts/Market.sol:Market",
        "label": "totalFloatingBorrowShares",
        "offset": 0,
        "slot": "223",
        "type": "t_uint256"
      },
      {
        "astId": 7457,
        "contract": "contracts/Market.sol:Market",
        "label": "__gap",
        "offset": 0,
        "slot": "224",
        "type": "t_uint256"
      },
      {
        "astId": 7460,
        "contract": "contracts/Market.sol:Market",
        "label": "treasury",
        "offset": 0,
        "slot": "225",
        "type": "t_address"
      },
      {
        "astId": 7463,
        "contract": "contracts/Market.sol:Market",
        "label": "treasuryFeeRate",
        "offset": 0,
        "slot": "226",
        "type": "t_uint256"
      },
      {
        "astId": 7467,
        "contract": "contracts/Market.sol:Market",
        "label": "rewardsController",
        "offset": 0,
        "slot": "227",
        "type": "t_contract(RewardsController)14682"
      },
      {
        "astId": 7470,
        "contract": "contracts/Market.sol:Market",
        "label": "isFrozen",
        "offset": 20,
        "slot": "227",
        "type": "t_bool"
      }
    ],
    "types": {
      "t_address": {
        "encoding": "inplace",
        "label": "address",
        "numberOfBytes": "20"
      },
      "t_array(t_uint256)49_storage": {
        "base": "t_uint256",
        "encoding": "inplace",
        "label": "uint256[49]",
        "numberOfBytes": "1568"
      },
      "t_array(t_uint256)50_storage": {
        "base": "t_uint256",
        "encoding": "inplace",
        "label": "uint256[50]",
        "numberOfBytes": "1600"
      },
      "t_bool": {
        "encoding": "inplace",
        "label": "bool",
        "numberOfBytes": "1"
      },
      "t_bytes32": {
        "encoding": "inplace",
        "label": "bytes32",
        "numberOfBytes": "32"
      },
      "t_contract(InterestRateModel)7266": {
        "encoding": "inplace",
        "label": "contract InterestRateModel",
        "numberOfBytes": "20"
      },
      "t_contract(RewardsController)14682": {
        "encoding": "inplace",
        "label": "contract RewardsController",
        "numberOfBytes": "20"
      },
      "t_mapping(t_address,t_bool)": {
        "encoding": "mapping",
        "key": "t_address",
        "label": "mapping(address => bool)",
        "numberOfBytes": "32",
        "value": "t_bool"
      },
      "t_mapping(t_address,t_mapping(t_address,t_uint256))": {
        "encoding": "mapping",
        "key": "t_address",
        "label": "mapping(address => mapping(address => uint256))",
        "numberOfBytes": "32",
        "value": "t_mapping(t_address,t_uint256)"
      },
      "t_mapping(t_address,t_struct(Account)11401_storage)": {
        "encoding": "mapping",
        "key": "t_address",
        "label": "mapping(address => struct Market.Account)",
        "numberOfBytes": "32",
        "value": "t_struct(Account)11401_storage"
      },
      "t_mapping(t_address,t_struct(Position)15540_storage)": {
        "encoding": "mapping",
        "key": "t_address",
        "label": "mapping(address => struct FixedLib.Position)",
        "numberOfBytes": "32",
        "value": "t_struct(Position)15540_storage"
      },
      "t_mapping(t_address,t_uint256)": {
        "encoding": "mapping",
        "key": "t_address",
        "label": "mapping(address => uint256)",
        "numberOfBytes": "32",
        "value": "t_uint256"
      },
      "t_mapping(t_bytes32,t_struct(RoleData)23_storage)": {
        "encoding": "mapping",
        "key": "t_bytes32",
        "label": "mapping(bytes32 => struct AccessControlUpgradeable.RoleData)",
        "numberOfBytes": "32",
        "value": "t_struct(RoleData)23_storage"
      },
      "t_mapping(t_uint256,t_mapping(t_address,t_struct(Position)15540_storage))": {
        "encoding": "mapping",
        "key": "t_uint256",
        "label": "mapping(uint256 => mapping(address => struct FixedLib.Position))",
        "numberOfBytes": "32",
        "value": "t_mapping(t_address,t_struct(Position)15540_storage)"
      },
      "t_mapping(t_uint256,t_struct(Pool)15534_storage)": {
        "encoding": "mapping",
        "key": "t_uint256",
        "label": "mapping(uint256 => struct FixedLib.Pool)",
        "numberOfBytes": "32",
        "value": "t_struct(Pool)15534_storage"
      },
      "t_string_storage": {
        "encoding": "bytes",
        "label": "string",
        "numberOfBytes": "32"
      },
      "t_struct(Account)11401_storage": {
        "encoding": "inplace",
        "label": "struct Market.Account",
        "members": [
          {
            "astId": 11396,
            "contract": "contracts/Market.sol:Market",
            "label": "fixedDeposits",
            "offset": 0,
            "slot": "0",
            "type": "t_uint256"
          },
          {
            "astId": 11398,
            "contract": "contracts/Market.sol:Market",
            "label": "fixedBorrows",
            "offset": 0,
            "slot": "1",
            "type": "t_uint256"
          },
          {
            "astId": 11400,
            "contract": "contracts/Market.sol:Market",
            "label": "floatingBorrowShares",
            "offset": 0,
            "slot": "2",
            "type": "t_uint256"
          }
        ],
        "numberOfBytes": "96"
      },
      "t_struct(Pool)15534_storage": {
        "encoding": "inplace",
        "label": "struct FixedLib.Pool",
        "members": [
          {
            "astId": 15527,
            "contract": "contracts/Market.sol:Market",
            "label": "borrowed",
            "offset": 0,
            "slot": "0",
            "type": "t_uint256"
          },
          {
            "astId": 15529,
            "contract": "contracts/Market.sol:Market",
            "label": "supplied",
            "offset": 0,
            "slot": "1",
            "type": "t_uint256"
          },
          {
            "astId": 15531,
            "contract": "contracts/Market.sol:Market",
            "label": "unassignedEarnings",
            "offset": 0,
            "slot": "2",
            "type": "t_uint256"
          },
          {
            "astId": 15533,
            "contract": "contracts/Market.sol:Market",
            "label": "lastAccrual",
            "offset": 0,
            "slot": "3",
            "type": "t_uint256"
          }
        ],
        "numberOfBytes": "128"
      },
      "t_struct(Position)15540_storage": {
        "encoding": "inplace",
        "label": "struct FixedLib.Position",
        "members": [
          {
            "astId": 15537,
            "contract": "contracts/Market.sol:Market",
            "label": "principal",
            "offset": 0,
            "slot": "0",
            "type": "t_uint256"
          },
          {
            "astId": 15539,
            "contract": "contracts/Market.sol:Market",
            "label": "fee",
            "offset": 0,
            "slot": "1",
            "type": "t_uint256"
          }
        ],
        "numberOfBytes": "64"
      },
      "t_struct(RoleData)23_storage": {
        "encoding": "inplace",
        "label": "struct AccessControlUpgradeable.RoleData",
        "members": [
          {
            "astId": 20,
            "contract": "contracts/Market.sol:Market",
            "label": "members",
            "offset": 0,
            "slot": "0",
            "type": "t_mapping(t_address,t_bool)"
          },
          {
            "astId": 22,
            "contract": "contracts/Market.sol:Market",
            "label": "adminRole",
            "offset": 0,
            "slot": "1",
            "type": "t_bytes32"
          }
        ],
        "numberOfBytes": "64"
      },
      "t_uint128": {
        "encoding": "inplace",
        "label": "uint128",
        "numberOfBytes": "16"
      },
      "t_uint256": {
        "encoding": "inplace",
        "label": "uint256",
        "numberOfBytes": "32"
      },
      "t_uint32": {
        "encoding": "inplace",
        "label": "uint32",
        "numberOfBytes": "4"
      },
      "t_uint8": {
        "encoding": "inplace",
        "label": "uint8",
        "numberOfBytes": "1"
      }
    }
  }
}