{
  "address": "0x42e7bCbB8Eb39Fab6d142D2494c22AbEcB28a5e3",
  "abi": [
    {
      "inputs": [
        {
          "internalType": "contract ERC20",
          "name": "asset_",
          "type": "address"
        },
        {
          "internalType": "contract Auditor",
          "name": "auditor_",
          "type": "address"
        }
      ],
      "stateMutability": "nonpayable",
      "type": "constructor"
    },
    {
      "inputs": [],
      "name": "Disagreement",
      "type": "error"
    },
    {
      "inputs": [],
      "name": "InsufficientProtocolLiquidity",
      "type": "error"
    },
    {
      "inputs": [],
      "name": "MarketFrozen",
      "type": "error"
    },
    {
      "inputs": [],
      "name": "MaturityOverflow",
      "type": "error"
    },
    {
      "inputs": [],
      "name": "NotAuditor",
      "type": "error"
    },
    {
      "inputs": [],
      "name": "NotPausingRole",
      "type": "error"
    },
    {
      "inputs": [],
      "name": "SelfLiquidation",
      "type": "error"
    },
    {
      "inputs": [
        {
          "internalType": "uint8",
          "name": "state",
          "type": "uint8"
        },
        {
          "internalType": "uint8",
          "name": "requiredState",
          "type": "uint8"
        }
      ],
      "name": "UnmatchedPoolState",
      "type": "error"
    },
    {
      "inputs": [
        {
          "internalType": "uint8",
          "name": "state",
          "type": "uint8"
        },
        {
          "internalType": "uint8",
          "name": "requiredState",
          "type": "uint8"
        },
        {
          "internalType": "uint8",
          "name": "alternativeState",
          "type": "uint8"
        }
      ],
      "name": "UnmatchedPoolStates",
      "type": "error"
    },
    {
      "inputs": [],
      "name": "ZeroBorrow",
      "type": "error"
    },
    {
      "inputs": [],
      "name": "ZeroDeposit",
      "type": "error"
    },
    {
      "inputs": [],
      "name": "ZeroRepay",
      "type": "error"
    },
    {
      "inputs": [],
      "name": "ZeroWithdraw",
      "type": "error"
    },
    {
      "anonymous": false,
      "inputs": [
        {
          "indexed": false,
          "internalType": "uint256",
          "name": "timestamp",
          "type": "uint256"
        }
      ],
      "name": "AccumulatorAccrual",
      "type": "event"
    },
    {
      "anonymous": false,
      "inputs": [
        {
          "indexed": true,
          "internalType": "address",
          "name": "owner",
          "type": "address"
        },
        {
          "indexed": true,
          "internalType": "address",
          "name": "spender",
          "type": "address"
        },
        {
          "indexed": false,
          "internalType": "uint256",
          "name": "amount",
          "type": "uint256"
        }
      ],
      "name": "Approval",
      "type": "event"
    },
    {
      "anonymous": false,
      "inputs": [
        {
          "indexed": false,
          "internalType": "uint256",
          "name": "backupFeeRate",
          "type": "uint256"
        }
      ],
      "name": "BackupFeeRateSet",
      "type": "event"
    },
    {
      "anonymous": false,
      "inputs": [
        {
          "indexed": true,
          "internalType": "address",
          "name": "caller",
          "type": "address"
        },
        {
          "indexed": true,
          "internalType": "address",
          "name": "receiver",
          "type": "address"
        },
        {
          "indexed": true,
          "internalType": "address",
          "name": "borrower",
          "type": "address"
        },
        {
          "indexed": false,
          "internalType": "uint256",
          "name": "assets",
          "type": "uint256"
        },
        {
          "indexed": false,
          "internalType": "uint256",
          "name": "shares",
          "type": "uint256"
        }
      ],
      "name": "Borrow",
      "type": "event"
    },
    {
      "anonymous": false,
      "inputs": [
        {
          "indexed": true,
          "internalType": "uint256",
          "name": "maturity",
          "type": "uint256"
        },
        {
          "indexed": false,
          "internalType": "address",
          "name": "caller",
          "type": "address"
        },
        {
          "indexed": true,
          "internalType": "address",
          "name": "receiver",
          "type": "address"
        },
        {
          "indexed": true,
          "internalType": "address",
          "name": "borrower",
          "type": "address"
        },
        {
          "indexed": false,
          "internalType": "uint256",
          "name": "assets",
          "type": "uint256"
        },
        {
          "indexed": false,
          "internalType": "uint256",
          "name": "fee",
          "type": "uint256"
        }
      ],
      "name": "BorrowAtMaturity",
      "type": "event"
    },
    {
      "anonymous": false,
      "inputs": [
        {
          "indexed": false,
          "internalType": "uint256",
          "name": "dampSpeedUp",
          "type": "uint256"
        },
        {
          "indexed": false,
          "internalType": "uint256",
          "name": "dampSpeedDown",
          "type": "uint256"
        }
      ],
      "name": "DampSpeedSet",
      "type": "event"
    },
    {
      "anonymous": false,
      "inputs": [
        {
          "indexed": true,
          "internalType": "address",
          "name": "caller",
          "type": "address"
        },
        {
          "indexed": true,
          "internalType": "address",
          "name": "owner",
          "type": "address"
        },
        {
          "indexed": false,
          "internalType": "uint256",
          "name": "assets",
          "type": "uint256"
        },
        {
          "indexed": false,
          "internalType": "uint256",
          "name": "shares",
          "type": "uint256"
        }
      ],
      "name": "Deposit",
      "type": "event"
    },
    {
      "anonymous": false,
      "inputs": [
        {
          "indexed": true,
          "internalType": "uint256",
          "name": "maturity",
          "type": "uint256"
        },
        {
          "indexed": true,
          "internalType": "address",
          "name": "caller",
          "type": "address"
        },
        {
          "indexed": true,
          "internalType": "address",
          "name": "owner",
          "type": "address"
        },
        {
          "indexed": false,
          "internalType": "uint256",
          "name": "assets",
          "type": "uint256"
        },
        {
          "indexed": false,
          "internalType": "uint256",
          "name": "fee",
          "type": "uint256"
        }
      ],
      "name": "DepositAtMaturity",
      "type": "event"
    },
    {
      "anonymous": false,
      "inputs": [
        {
          "indexed": false,
          "internalType": "uint256",
          "name": "earningsAccumulatorSmoothFactor",
          "type": "uint256"
        }
      ],
      "name": "EarningsAccumulatorSmoothFactorSet",
      "type": "event"
    },
    {
      "anonymous": false,
      "inputs": [
        {
          "indexed": false,
          "internalType": "uint256",
          "name": "timestamp",
          "type": "uint256"
        },
        {
          "indexed": true,
          "internalType": "uint256",
          "name": "maturity",
          "type": "uint256"
        },
        {
          "indexed": false,
          "internalType": "uint256",
          "name": "unassignedEarnings",
          "type": "uint256"
        }
      ],
      "name": "FixedEarningsUpdate",
      "type": "event"
    },
    {
      "anonymous": false,
      "inputs": [
        {
          "indexed": false,
          "internalType": "uint256",
          "name": "timestamp",
          "type": "uint256"
        },
        {
          "indexed": false,
          "internalType": "uint256",
          "name": "utilization",
          "type": "uint256"
        }
      ],
      "name": "FloatingDebtUpdate",
      "type": "event"
    },
    {
      "anonymous": false,
      "inputs": [
        {
          "indexed": true,
          "internalType": "address",
          "name": "account",
          "type": "address"
        },
        {
          "indexed": false,
          "internalType": "bool",
          "name": "isFrozen",
          "type": "bool"
        }
      ],
      "name": "Frozen",
      "type": "event"
    },
    {
      "anonymous": false,
      "inputs": [
        {
          "indexed": false,
          "internalType": "uint8",
          "name": "version",
          "type": "uint8"
        }
      ],
      "name": "Initialized",
      "type": "event"
    },
    {
      "anonymous": false,
      "inputs": [
        {
          "indexed": true,
          "internalType": "contract InterestRateModel",
          "name": "interestRateModel",
          "type": "address"
        }
      ],
      "name": "InterestRateModelSet",
      "type": "event"
    },
    {
      "anonymous": false,
      "inputs": [
        {
          "indexed": true,
          "internalType": "address",
          "name": "receiver",
          "type": "address"
        },
        {
          "indexed": true,
          "internalType": "address",
          "name": "borrower",
          "type": "address"
        },
        {
          "indexed": false,
          "internalType": "uint256",
          "name": "assets",
          "type": "uint256"
        },
        {
          "indexed": false,
          "internalType": "uint256",
          "name": "lendersAssets",
          "type": "uint256"
        },
        {
          "indexed": true,
          "internalType": "contract Market",
          "name": "seizeMarket",
          "type": "address"
        },
        {
          "indexed": false,
          "internalType": "uint256",
          "name": "seizedAssets",
          "type": "uint256"
        }
      ],
      "name": "Liquidate",
      "type": "event"
    },
    {
      "anonymous": false,
      "inputs": [
        {
          "indexed": false,
          "internalType": "uint256",
          "name": "timestamp",
          "type": "uint256"
        },
        {
          "indexed": false,
          "internalType": "uint256",
          "name": "floatingDepositShares",
          "type": "uint256"
        },
        {
          "indexed": false,
          "internalType": "uint256",
          "name": "floatingAssets",
          "type": "uint256"
        },
        {
          "indexed": false,
          "internalType": "uint256",
          "name": "floatingBorrowShares",
          "type": "uint256"
        },
        {
          "indexed": false,
          "internalType": "uint256",
          "name": "floatingDebt",
          "type": "uint256"
        },
        {
          "indexed": false,
          "internalType": "uint256",
          "name": "earningsAccumulator",
          "type": "uint256"
        }
      ],
      "name": "MarketUpdate",
      "type": "event"
    },
    {
      "anonymous": false,
      "inputs": [
        {
          "indexed": false,
          "internalType": "uint256",
          "name": "maxFuturePools",
          "type": "uint256"
        }
      ],
      "name": "MaxFuturePoolsSet",
      "type": "event"
    },
    {
      "anonymous": false,
      "inputs": [
        {
          "indexed": false,
          "internalType": "address",
          "name": "account",
          "type": "address"
        }
      ],
      "name": "Paused",
      "type": "event"
    },
    {
      "anonymous": false,
      "inputs": [
        {
          "indexed": false,
          "internalType": "uint256",
          "name": "penaltyRate",
          "type": "uint256"
        }
      ],
      "name": "PenaltyRateSet",
      "type": "event"
    },
    {
      "anonymous": false,
      "inputs": [
        {
          "indexed": true,
          "internalType": "address",
          "name": "caller",
          "type": "address"
        },
        {
          "indexed": true,
          "internalType": "address",
          "name": "borrower",
          "type": "address"
        },
        {
          "indexed": false,
          "internalType": "uint256",
          "name": "assets",
          "type": "uint256"
        },
        {
          "indexed": false,
          "internalType": "uint256",
          "name": "shares",
          "type": "uint256"
        }
      ],
      "name": "Repay",
      "type": "event"
    },
    {
      "anonymous": false,
      "inputs": [
        {
          "indexed": true,
          "internalType": "uint256",
          "name": "maturity",
          "type": "uint256"
        },
        {
          "indexed": true,
          "internalType": "address",
          "name": "caller",
          "type": "address"
        },
        {
          "indexed": true,
          "internalType": "address",
          "name": "borrower",
          "type": "address"
        },
        {
          "indexed": false,
          "internalType": "uint256",
          "name": "assets",
          "type": "uint256"
        },
        {
          "indexed": false,
          "internalType": "uint256",
          "name": "positionAssets",
          "type": "uint256"
        }
      ],
      "name": "RepayAtMaturity",
      "type": "event"
    },
    {
      "anonymous": false,
      "inputs": [
        {
          "indexed": false,
          "internalType": "uint256",
          "name": "reserveFactor",
          "type": "uint256"
        }
      ],
      "name": "ReserveFactorSet",
      "type": "event"
    },
    {
      "anonymous": false,
      "inputs": [
        {
          "indexed": true,
          "internalType": "contract RewardsController",
          "name": "rewardsController",
          "type": "address"
        }
      ],
      "name": "RewardsControllerSet",
      "type": "event"
    },
    {
      "anonymous": false,
      "inputs": [
        {
          "indexed": true,
          "internalType": "bytes32",
          "name": "role",
          "type": "bytes32"
        },
        {
          "indexed": true,
          "internalType": "bytes32",
          "name": "previousAdminRole",
          "type": "bytes32"
        },
        {
          "indexed": true,
          "internalType": "bytes32",
          "name": "newAdminRole",
          "type": "bytes32"
        }
      ],
      "name": "RoleAdminChanged",
      "type": "event"
    },
    {
      "anonymous": false,
      "inputs": [
        {
          "indexed": true,
          "internalType": "bytes32",
          "name": "role",
          "type": "bytes32"
        },
        {
          "indexed": true,
          "internalType": "address",
          "name": "account",
          "type": "address"
        },
        {
          "indexed": true,
          "internalType": "address",
          "name": "sender",
          "type": "address"
        }
      ],
      "name": "RoleGranted",
      "type": "event"
    },
    {
      "anonymous": false,
      "inputs": [
        {
          "indexed": true,
          "internalType": "bytes32",
          "name": "role",
          "type": "bytes32"
        },
        {
          "indexed": true,
          "internalType": "address",
          "name": "account",
          "type": "address"
        },
        {
          "indexed": true,
          "internalType": "address",
          "name": "sender",
          "type": "address"
        }
      ],
      "name": "RoleRevoked",
      "type": "event"
    },
    {
      "anonymous": false,
      "inputs": [
        {
          "indexed": true,
          "internalType": "address",
          "name": "liquidator",
          "type": "address"
        },
        {
          "indexed": true,
          "internalType": "address",
          "name": "borrower",
          "type": "address"
        },
        {
          "indexed": false,
          "internalType": "uint256",
          "name": "assets",
          "type": "uint256"
        }
      ],
      "name": "Seize",
      "type": "event"
    },
    {
      "anonymous": false,
      "inputs": [
        {
          "indexed": true,
          "internalType": "address",
          "name": "borrower",
          "type": "address"
        },
        {
          "indexed": false,
          "internalType": "uint256",
          "name": "assets",
          "type": "uint256"
        }
      ],
      "name": "SpreadBadDebt",
      "type": "event"
    },
    {
      "anonymous": false,
      "inputs": [
        {
          "indexed": true,
          "internalType": "address",
          "name": "from",
          "type": "address"
        },
        {
          "indexed": true,
          "internalType": "address",
          "name": "to",
          "type": "address"
        },
        {
          "indexed": false,
          "internalType": "uint256",
          "name": "amount",
          "type": "uint256"
        }
      ],
      "name": "Transfer",
      "type": "event"
    },
    {
      "anonymous": false,
      "inputs": [
        {
          "indexed": true,
          "internalType": "address",
          "name": "treasury",
          "type": "address"
        },
        {
          "indexed": false,
          "internalType": "uint256",
          "name": "treasuryFeeRate",
          "type": "uint256"
        }
      ],
      "name": "TreasurySet",
      "type": "event"
    },
    {
      "anonymous": false,
      "inputs": [
        {
          "indexed": false,
          "internalType": "address",
          "name": "account",
          "type": "address"
        }
      ],
      "name": "Unpaused",
      "type": "event"
    },
    {
      "anonymous": false,
      "inputs": [
        {
          "indexed": true,
          "internalType": "address",
          "name": "caller",
          "type": "address"
        },
        {
          "indexed": true,
          "internalType": "address",
          "name": "receiver",
          "type": "address"
        },
        {
          "indexed": true,
          "internalType": "address",
          "name": "owner",
          "type": "address"
        },
        {
          "indexed": false,
          "internalType": "uint256",
          "name": "assets",
          "type": "uint256"
        },
        {
          "indexed": false,
          "internalType": "uint256",
          "name": "shares",
          "type": "uint256"
        }
      ],
      "name": "Withdraw",
      "type": "event"
    },
    {
      "anonymous": false,
      "inputs": [
        {
          "indexed": true,
          "internalType": "uint256",
          "name": "maturity",
          "type": "uint256"
        },
        {
          "indexed": false,
          "internalType": "address",
          "name": "caller",
          "type": "address"
        },
        {
          "indexed": true,
          "internalType": "address",
          "name": "receiver",
          "type": "address"
        },
        {
          "indexed": true,
          "internalType": "address",
          "name": "owner",
          "type": "address"
        },
        {
          "indexed": false,
          "internalType": "uint256",
          "name": "positionAssets",
          "type": "uint256"
        },
        {
          "indexed": false,
          "internalType": "uint256",
          "name": "assets",
          "type": "uint256"
        }
      ],
      "name": "WithdrawAtMaturity",
      "type": "event"
    },
    {
      "inputs": [],
      "name": "DEFAULT_ADMIN_ROLE",
      "outputs": [
        {
          "internalType": "bytes32",
          "name": "",
          "type": "bytes32"
        }
      ],
      "stateMutability": "view",
      "type": "function"
    },
    {
      "inputs": [],
      "name": "DOMAIN_SEPARATOR",
      "outputs": [
        {
          "internalType": "bytes32",
          "name": "",
          "type": "bytes32"
        }
      ],
      "stateMutability": "view",
      "type": "function"
    },
    {
      "inputs": [],
      "name": "EMERGENCY_ADMIN_ROLE",
      "outputs": [
        {
          "internalType": "bytes32",
          "name": "",
          "type": "bytes32"
        }
      ],
      "stateMutability": "view",
      "type": "function"
    },
    {
      "inputs": [],
      "name": "PAUSER_ROLE",
      "outputs": [
        {
          "internalType": "bytes32",
          "name": "",
          "type": "bytes32"
        }
      ],
      "stateMutability": "view",
      "type": "function"
    },
    {
      "inputs": [
        {
          "internalType": "address",
          "name": "account",
          "type": "address"
        }
      ],
      "name": "accountSnapshot",
      "outputs": [
        {
          "internalType": "uint256",
          "name": "",
          "type": "uint256"
        },
        {
          "internalType": "uint256",
          "name": "",
          "type": "uint256"
        }
      ],
      "stateMutability": "view",
      "type": "function"
    },
    {
      "inputs": [
        {
          "internalType": "address",
          "name": "",
          "type": "address"
        }
      ],
      "name": "accounts",
      "outputs": [
        {
          "internalType": "uint256",
          "name": "fixedDeposits",
          "type": "uint256"
        },
        {
          "internalType": "uint256",
          "name": "fixedBorrows",
          "type": "uint256"
        },
        {
          "internalType": "uint256",
          "name": "floatingBorrowShares",
          "type": "uint256"
        }
      ],
      "stateMutability": "view",
      "type": "function"
    },
    {
      "inputs": [
        {
          "internalType": "address",
          "name": "",
          "type": "address"
        },
        {
          "internalType": "address",
          "name": "",
          "type": "address"
        }
      ],
      "name": "allowance",
      "outputs": [
        {
          "internalType": "uint256",
          "name": "",
          "type": "uint256"
        }
      ],
      "stateMutability": "view",
      "type": "function"
    },
    {
      "inputs": [
        {
          "internalType": "address",
          "name": "spender",
          "type": "address"
        },
        {
          "internalType": "uint256",
          "name": "amount",
          "type": "uint256"
        }
      ],
      "name": "approve",
      "outputs": [
        {
          "internalType": "bool",
          "name": "",
          "type": "bool"
        }
      ],
      "stateMutability": "nonpayable",
      "type": "function"
    },
    {
      "inputs": [],
      "name": "asset",
      "outputs": [
        {
          "internalType": "contract ERC20",
          "name": "",
          "type": "address"
        }
      ],
      "stateMutability": "view",
      "type": "function"
    },
    {
      "inputs": [],
      "name": "auditor",
      "outputs": [
        {
          "internalType": "contract Auditor",
          "name": "",
          "type": "address"
        }
      ],
      "stateMutability": "view",
      "type": "function"
    },
    {
      "inputs": [],
      "name": "backupFeeRate",
      "outputs": [
        {
          "internalType": "uint256",
          "name": "",
          "type": "uint256"
        }
      ],
      "stateMutability": "view",
      "type": "function"
    },
    {
      "inputs": [
        {
          "internalType": "address",
          "name": "",
          "type": "address"
        }
      ],
      "name": "balanceOf",
      "outputs": [
        {
          "internalType": "uint256",
          "name": "",
          "type": "uint256"
        }
      ],
      "stateMutability": "view",
      "type": "function"
    },
    {
      "inputs": [
        {
          "internalType": "uint256",
          "name": "assets",
          "type": "uint256"
        },
        {
          "internalType": "address",
          "name": "receiver",
          "type": "address"
        },
        {
          "internalType": "address",
          "name": "borrower",
          "type": "address"
        }
      ],
      "name": "borrow",
      "outputs": [
        {
          "internalType": "uint256",
          "name": "borrowShares",
          "type": "uint256"
        }
      ],
      "stateMutability": "nonpayable",
      "type": "function"
    },
    {
      "inputs": [
        {
          "internalType": "uint256",
          "name": "maturity",
          "type": "uint256"
        },
        {
          "internalType": "uint256",
          "name": "assets",
          "type": "uint256"
        },
        {
          "internalType": "uint256",
          "name": "maxAssets",
          "type": "uint256"
        },
        {
          "internalType": "address",
          "name": "receiver",
          "type": "address"
        },
        {
          "internalType": "address",
          "name": "borrower",
          "type": "address"
        }
      ],
      "name": "borrowAtMaturity",
      "outputs": [
        {
          "internalType": "uint256",
          "name": "assetsOwed",
          "type": "uint256"
        }
      ],
      "stateMutability": "nonpayable",
      "type": "function"
    },
    {
      "inputs": [
        {
          "internalType": "address",
          "name": "borrower",
          "type": "address"
        }
      ],
      "name": "clearBadDebt",
      "outputs": [],
      "stateMutability": "nonpayable",
      "type": "function"
    },
    {
      "inputs": [
        {
          "internalType": "uint256",
          "name": "shares",
          "type": "uint256"
        }
      ],
      "name": "convertToAssets",
      "outputs": [
        {
          "internalType": "uint256",
          "name": "",
          "type": "uint256"
        }
      ],
      "stateMutability": "view",
      "type": "function"
    },
    {
      "inputs": [
        {
          "internalType": "uint256",
          "name": "assets",
          "type": "uint256"
        }
      ],
      "name": "convertToShares",
      "outputs": [
        {
          "internalType": "uint256",
          "name": "",
          "type": "uint256"
        }
      ],
      "stateMutability": "view",
      "type": "function"
    },
    {
      "inputs": [],
      "name": "dampSpeedDown",
      "outputs": [
        {
          "internalType": "uint256",
          "name": "",
          "type": "uint256"
        }
      ],
      "stateMutability": "view",
      "type": "function"
    },
    {
      "inputs": [],
      "name": "dampSpeedUp",
      "outputs": [
        {
          "internalType": "uint256",
          "name": "",
          "type": "uint256"
        }
      ],
      "stateMutability": "view",
      "type": "function"
    },
    {
      "inputs": [],
      "name": "decimals",
      "outputs": [
        {
          "internalType": "uint8",
          "name": "",
          "type": "uint8"
        }
      ],
      "stateMutability": "view",
      "type": "function"
    },
    {
      "inputs": [
        {
          "internalType": "uint256",
          "name": "assets",
          "type": "uint256"
        },
        {
          "internalType": "address",
          "name": "receiver",
          "type": "address"
        }
      ],
      "name": "deposit",
      "outputs": [
        {
          "internalType": "uint256",
          "name": "shares",
          "type": "uint256"
        }
      ],
      "stateMutability": "nonpayable",
      "type": "function"
    },
    {
      "inputs": [
        {
          "internalType": "uint256",
          "name": "maturity",
          "type": "uint256"
        },
        {
          "internalType": "uint256",
          "name": "assets",
          "type": "uint256"
        },
        {
          "internalType": "uint256",
          "name": "minAssetsRequired",
          "type": "uint256"
        },
        {
          "internalType": "address",
          "name": "receiver",
          "type": "address"
        }
      ],
      "name": "depositAtMaturity",
      "outputs": [
        {
          "internalType": "uint256",
          "name": "positionAssets",
          "type": "uint256"
        }
      ],
      "stateMutability": "nonpayable",
      "type": "function"
    },
    {
      "inputs": [],
      "name": "earningsAccumulator",
      "outputs": [
        {
          "internalType": "uint256",
          "name": "",
          "type": "uint256"
        }
      ],
      "stateMutability": "view",
      "type": "function"
    },
    {
      "inputs": [],
      "name": "earningsAccumulatorSmoothFactor",
      "outputs": [
        {
          "internalType": "uint128",
          "name": "",
          "type": "uint128"
        }
      ],
      "stateMutability": "view",
      "type": "function"
    },
    {
      "inputs": [
        {
          "internalType": "uint256",
          "name": "",
          "type": "uint256"
        },
        {
          "internalType": "address",
          "name": "",
          "type": "address"
        }
      ],
      "name": "fixedBorrowPositions",
      "outputs": [
        {
          "internalType": "uint256",
          "name": "principal",
          "type": "uint256"
        },
        {
          "internalType": "uint256",
          "name": "fee",
          "type": "uint256"
        }
      ],
      "stateMutability": "view",
      "type": "function"
    },
    {
      "inputs": [
        {
          "internalType": "address",
          "name": "account",
          "type": "address"
        }
      ],
      "name": "fixedConsolidated",
      "outputs": [
        {
          "internalType": "uint256",
          "name": "deposits",
          "type": "uint256"
        },
        {
          "internalType": "uint256",
          "name": "borrows",
          "type": "uint256"
        }
      ],
      "stateMutability": "view",
      "type": "function"
    },
    {
      "inputs": [
        {
          "internalType": "uint256",
          "name": "",
          "type": "uint256"
        },
        {
          "internalType": "address",
          "name": "",
          "type": "address"
        }
      ],
      "name": "fixedDepositPositions",
      "outputs": [
        {
          "internalType": "uint256",
          "name": "principal",
          "type": "uint256"
        },
        {
          "internalType": "uint256",
          "name": "fee",
          "type": "uint256"
        }
      ],
      "stateMutability": "view",
      "type": "function"
    },
    {
      "inputs": [],
      "name": "fixedOps",
      "outputs": [
        {
          "internalType": "uint256",
          "name": "deposits",
          "type": "uint256"
        },
        {
          "internalType": "uint256",
          "name": "borrows",
          "type": "uint256"
        }
      ],
      "stateMutability": "view",
      "type": "function"
    },
    {
      "inputs": [
        {
          "internalType": "uint256",
          "name": "maturity",
          "type": "uint256"
        }
      ],
      "name": "fixedPoolBalance",
      "outputs": [
        {
          "internalType": "uint256",
          "name": "",
          "type": "uint256"
        },
        {
          "internalType": "uint256",
          "name": "",
          "type": "uint256"
        }
      ],
      "stateMutability": "view",
      "type": "function"
    },
    {
      "inputs": [
        {
          "internalType": "uint256",
          "name": "maturity",
          "type": "uint256"
        }
      ],
      "name": "fixedPoolBorrowed",
      "outputs": [
        {
          "internalType": "uint256",
          "name": "",
          "type": "uint256"
        }
      ],
      "stateMutability": "view",
      "type": "function"
    },
    {
      "inputs": [
        {
          "internalType": "uint256",
          "name": "",
          "type": "uint256"
        }
      ],
      "name": "fixedPools",
      "outputs": [
        {
          "internalType": "uint256",
          "name": "borrowed",
          "type": "uint256"
        },
        {
          "internalType": "uint256",
          "name": "supplied",
          "type": "uint256"
        },
        {
          "internalType": "uint256",
          "name": "unassignedEarnings",
          "type": "uint256"
        },
        {
          "internalType": "uint256",
          "name": "lastAccrual",
          "type": "uint256"
        }
      ],
      "stateMutability": "view",
      "type": "function"
    },
    {
      "inputs": [],
      "name": "floatingAssets",
      "outputs": [
        {
          "internalType": "uint256",
          "name": "",
          "type": "uint256"
        }
      ],
      "stateMutability": "view",
      "type": "function"
    },
    {
      "inputs": [],
      "name": "floatingAssetsAverage",
      "outputs": [
        {
          "internalType": "uint256",
          "name": "",
          "type": "uint256"
        }
      ],
      "stateMutability": "view",
      "type": "function"
    },
    {
      "inputs": [],
      "name": "floatingBackupBorrowed",
      "outputs": [
        {
          "internalType": "uint256",
          "name": "",
          "type": "uint256"
        }
      ],
      "stateMutability": "view",
      "type": "function"
    },
    {
      "inputs": [],
      "name": "floatingDebt",
      "outputs": [
        {
          "internalType": "uint256",
          "name": "",
          "type": "uint256"
        }
      ],
      "stateMutability": "view",
      "type": "function"
    },
    {
      "inputs": [
        {
          "internalType": "bytes32",
          "name": "role",
          "type": "bytes32"
        }
      ],
      "name": "getRoleAdmin",
      "outputs": [
        {
          "internalType": "bytes32",
          "name": "",
          "type": "bytes32"
        }
      ],
      "stateMutability": "view",
      "type": "function"
    },
    {
      "inputs": [
        {
          "internalType": "bytes32",
          "name": "role",
          "type": "bytes32"
        },
        {
          "internalType": "address",
          "name": "account",
          "type": "address"
        }
      ],
      "name": "grantRole",
      "outputs": [],
      "stateMutability": "nonpayable",
      "type": "function"
    },
    {
      "inputs": [
        {
          "internalType": "bytes32",
          "name": "role",
          "type": "bytes32"
        },
        {
          "internalType": "address",
          "name": "account",
          "type": "address"
        }
      ],
      "name": "hasRole",
      "outputs": [
        {
          "internalType": "bool",
          "name": "",
          "type": "bool"
        }
      ],
      "stateMutability": "view",
      "type": "function"
    },
    {
      "inputs": [
        {
          "internalType": "address",
          "name": "account",
          "type": "address"
        }
      ],
      "name": "initConsolidated",
      "outputs": [],
      "stateMutability": "nonpayable",
      "type": "function"
    },
    {
      "inputs": [
        {
          "internalType": "string",
          "name": "assetSymbol",
          "type": "string"
        },
        {
          "internalType": "uint8",
          "name": "maxFuturePools_",
          "type": "uint8"
        },
        {
          "internalType": "uint128",
          "name": "earningsAccumulatorSmoothFactor_",
          "type": "uint128"
        },
        {
          "internalType": "contract InterestRateModel",
          "name": "interestRateModel_",
          "type": "address"
        },
        {
          "internalType": "uint256",
          "name": "penaltyRate_",
          "type": "uint256"
        },
        {
          "internalType": "uint256",
          "name": "backupFeeRate_",
          "type": "uint256"
        },
        {
          "internalType": "uint128",
          "name": "reserveFactor_",
          "type": "uint128"
        },
        {
          "internalType": "uint256",
          "name": "dampSpeedUp_",
          "type": "uint256"
        },
        {
          "internalType": "uint256",
          "name": "dampSpeedDown_",
          "type": "uint256"
        }
      ],
      "name": "initialize",
      "outputs": [],
      "stateMutability": "nonpayable",
      "type": "function"
    },
    {
      "inputs": [],
      "name": "interestRateModel",
      "outputs": [
        {
          "internalType": "contract InterestRateModel",
          "name": "",
          "type": "address"
        }
      ],
      "stateMutability": "view",
      "type": "function"
    },
    {
      "inputs": [],
      "name": "isFrozen",
      "outputs": [
        {
          "internalType": "bool",
          "name": "",
          "type": "bool"
        }
      ],
      "stateMutability": "view",
      "type": "function"
    },
    {
      "inputs": [
        {
          "internalType": "address",
          "name": "account",
          "type": "address"
        }
      ],
      "name": "isInitialized",
      "outputs": [
        {
          "internalType": "bool",
          "name": "initialized",
          "type": "bool"
        }
      ],
      "stateMutability": "view",
      "type": "function"
    },
    {
      "inputs": [],
      "name": "lastAccumulatorAccrual",
      "outputs": [
        {
          "internalType": "uint32",
          "name": "",
          "type": "uint32"
        }
      ],
      "stateMutability": "view",
      "type": "function"
    },
    {
      "inputs": [],
      "name": "lastAverageUpdate",
      "outputs": [
        {
          "internalType": "uint32",
          "name": "",
          "type": "uint32"
        }
      ],
      "stateMutability": "view",
      "type": "function"
    },
    {
      "inputs": [],
      "name": "lastFloatingDebtUpdate",
      "outputs": [
        {
          "internalType": "uint32",
          "name": "",
          "type": "uint32"
        }
      ],
      "stateMutability": "view",
      "type": "function"
    },
    {
      "inputs": [
        {
          "internalType": "address",
          "name": "borrower",
          "type": "address"
        },
        {
          "internalType": "uint256",
          "name": "maxAssets",
          "type": "uint256"
        },
        {
          "internalType": "contract Market",
          "name": "seizeMarket",
          "type": "address"
        }
      ],
      "name": "liquidate",
      "outputs": [
        {
          "internalType": "uint256",
          "name": "repaidAssets",
          "type": "uint256"
        }
      ],
      "stateMutability": "nonpayable",
      "type": "function"
    },
    {
      "inputs": [
        {
          "internalType": "address",
          "name": "",
          "type": "address"
        }
      ],
      "name": "maxDeposit",
      "outputs": [
        {
          "internalType": "uint256",
          "name": "",
          "type": "uint256"
        }
      ],
      "stateMutability": "view",
      "type": "function"
    },
    {
      "inputs": [],
      "name": "maxFuturePools",
      "outputs": [
        {
          "internalType": "uint8",
          "name": "",
          "type": "uint8"
        }
      ],
      "stateMutability": "view",
      "type": "function"
    },
    {
      "inputs": [
        {
          "internalType": "address",
          "name": "",
          "type": "address"
        }
      ],
      "name": "maxMint",
      "outputs": [
        {
          "internalType": "uint256",
          "name": "",
          "type": "uint256"
        }
      ],
      "stateMutability": "view",
      "type": "function"
    },
    {
      "inputs": [
        {
          "internalType": "address",
          "name": "owner",
          "type": "address"
        }
      ],
      "name": "maxRedeem",
      "outputs": [
        {
          "internalType": "uint256",
          "name": "",
          "type": "uint256"
        }
      ],
      "stateMutability": "view",
      "type": "function"
    },
    {
      "inputs": [
        {
          "internalType": "address",
          "name": "owner",
          "type": "address"
        }
      ],
      "name": "maxWithdraw",
      "outputs": [
        {
          "internalType": "uint256",
          "name": "",
          "type": "uint256"
        }
      ],
      "stateMutability": "view",
      "type": "function"
    },
    {
      "inputs": [
        {
          "internalType": "uint256",
          "name": "shares",
          "type": "uint256"
        },
        {
          "internalType": "address",
          "name": "receiver",
          "type": "address"
        }
      ],
      "name": "mint",
      "outputs": [
        {
          "internalType": "uint256",
          "name": "assets",
          "type": "uint256"
        }
      ],
      "stateMutability": "nonpayable",
      "type": "function"
    },
    {
      "inputs": [],
      "name": "name",
      "outputs": [
        {
          "internalType": "string",
          "name": "",
          "type": "string"
        }
      ],
      "stateMutability": "view",
      "type": "function"
    },
    {
      "inputs": [
        {
          "internalType": "address",
          "name": "",
          "type": "address"
        }
      ],
      "name": "nonces",
      "outputs": [
        {
          "internalType": "uint256",
          "name": "",
          "type": "uint256"
        }
      ],
      "stateMutability": "view",
      "type": "function"
    },
    {
      "inputs": [],
      "name": "pause",
      "outputs": [],
      "stateMutability": "nonpayable",
      "type": "function"
    },
    {
      "inputs": [],
      "name": "paused",
      "outputs": [
        {
          "internalType": "bool",
          "name": "",
          "type": "bool"
        }
      ],
      "stateMutability": "view",
      "type": "function"
    },
    {
      "inputs": [],
      "name": "penaltyRate",
      "outputs": [
        {
          "internalType": "uint256",
          "name": "",
          "type": "uint256"
        }
      ],
      "stateMutability": "view",
      "type": "function"
    },
    {
      "inputs": [
        {
          "internalType": "address",
          "name": "owner",
          "type": "address"
        },
        {
          "internalType": "address",
          "name": "spender",
          "type": "address"
        },
        {
          "internalType": "uint256",
          "name": "value",
          "type": "uint256"
        },
        {
          "internalType": "uint256",
          "name": "deadline",
          "type": "uint256"
        },
        {
          "internalType": "uint8",
          "name": "v",
          "type": "uint8"
        },
        {
          "internalType": "bytes32",
          "name": "r",
          "type": "bytes32"
        },
        {
          "internalType": "bytes32",
          "name": "s",
          "type": "bytes32"
        }
      ],
      "name": "permit",
      "outputs": [],
      "stateMutability": "nonpayable",
      "type": "function"
    },
    {
      "inputs": [
        {
          "internalType": "uint256",
          "name": "assets",
          "type": "uint256"
        }
      ],
      "name": "previewBorrow",
      "outputs": [
        {
          "internalType": "uint256",
          "name": "",
          "type": "uint256"
        }
      ],
      "stateMutability": "view",
      "type": "function"
    },
    {
      "inputs": [
        {
          "internalType": "address",
          "name": "borrower",
          "type": "address"
        }
      ],
      "name": "previewDebt",
      "outputs": [
        {
          "internalType": "uint256",
          "name": "debt",
          "type": "uint256"
        }
      ],
      "stateMutability": "view",
      "type": "function"
    },
    {
      "inputs": [
        {
          "internalType": "uint256",
          "name": "assets",
          "type": "uint256"
        }
      ],
      "name": "previewDeposit",
      "outputs": [
        {
          "internalType": "uint256",
          "name": "",
          "type": "uint256"
        }
      ],
      "stateMutability": "view",
      "type": "function"
    },
    {
      "inputs": [],
      "name": "previewFloatingAssetsAverage",
      "outputs": [
        {
          "internalType": "uint256",
          "name": "",
          "type": "uint256"
        }
      ],
      "stateMutability": "view",
      "type": "function"
    },
    {
      "inputs": [
        {
          "internalType": "uint256",
          "name": "shares",
          "type": "uint256"
        }
      ],
      "name": "previewMint",
      "outputs": [
        {
          "internalType": "uint256",
          "name": "",
          "type": "uint256"
        }
      ],
      "stateMutability": "view",
      "type": "function"
    },
    {
      "inputs": [
        {
          "internalType": "uint256",
          "name": "shares",
          "type": "uint256"
        }
      ],
      "name": "previewRedeem",
      "outputs": [
        {
          "internalType": "uint256",
          "name": "",
          "type": "uint256"
        }
      ],
      "stateMutability": "view",
      "type": "function"
    },
    {
      "inputs": [
        {
          "internalType": "uint256",
          "name": "shares",
          "type": "uint256"
        }
      ],
      "name": "previewRefund",
      "outputs": [
        {
          "internalType": "uint256",
          "name": "",
          "type": "uint256"
        }
      ],
      "stateMutability": "view",
      "type": "function"
    },
    {
      "inputs": [
        {
          "internalType": "uint256",
          "name": "assets",
          "type": "uint256"
        }
      ],
      "name": "previewRepay",
      "outputs": [
        {
          "internalType": "uint256",
          "name": "",
          "type": "uint256"
        }
      ],
      "stateMutability": "view",
      "type": "function"
    },
    {
      "inputs": [
        {
          "internalType": "uint256",
          "name": "assets",
          "type": "uint256"
        }
      ],
      "name": "previewWithdraw",
      "outputs": [
        {
          "internalType": "uint256",
          "name": "",
          "type": "uint256"
        }
      ],
      "stateMutability": "view",
      "type": "function"
    },
    {
      "inputs": [
        {
          "internalType": "uint256",
          "name": "shares",
          "type": "uint256"
        },
        {
          "internalType": "address",
          "name": "receiver",
          "type": "address"
        },
        {
          "internalType": "address",
          "name": "owner",
          "type": "address"
        }
      ],
      "name": "redeem",
      "outputs": [
        {
          "internalType": "uint256",
          "name": "assets",
          "type": "uint256"
        }
      ],
      "stateMutability": "nonpayable",
      "type": "function"
    },
    {
      "inputs": [
        {
          "internalType": "uint256",
          "name": "borrowShares",
          "type": "uint256"
        },
        {
          "internalType": "address",
          "name": "borrower",
          "type": "address"
        }
      ],
      "name": "refund",
      "outputs": [
        {
          "internalType": "uint256",
          "name": "assets",
          "type": "uint256"
        },
        {
          "internalType": "uint256",
          "name": "actualShares",
          "type": "uint256"
        }
      ],
      "stateMutability": "nonpayable",
      "type": "function"
    },
    {
      "inputs": [
        {
          "internalType": "bytes32",
          "name": "role",
          "type": "bytes32"
        },
        {
          "internalType": "address",
          "name": "account",
          "type": "address"
        }
      ],
      "name": "renounceRole",
      "outputs": [],
      "stateMutability": "nonpayable",
      "type": "function"
    },
    {
      "inputs": [
        {
          "internalType": "uint256",
          "name": "assets",
          "type": "uint256"
        },
        {
          "internalType": "address",
          "name": "borrower",
          "type": "address"
        }
      ],
      "name": "repay",
      "outputs": [
        {
          "internalType": "uint256",
          "name": "actualRepay",
          "type": "uint256"
        },
        {
          "internalType": "uint256",
          "name": "borrowShares",
          "type": "uint256"
        }
      ],
      "stateMutability": "nonpayable",
      "type": "function"
    },
    {
      "inputs": [
        {
          "internalType": "uint256",
          "name": "maturity",
          "type": "uint256"
        },
        {
          "internalType": "uint256",
          "name": "positionAssets",
          "type": "uint256"
        },
        {
          "internalType": "uint256",
          "name": "maxAssets",
          "type": "uint256"
        },
        {
          "internalType": "address",
          "name": "borrower",
          "type": "address"
        }
      ],
      "name": "repayAtMaturity",
      "outputs": [
        {
          "internalType": "uint256",
          "name": "actualRepayAssets",
          "type": "uint256"
        }
      ],
      "stateMutability": "nonpayable",
      "type": "function"
    },
    {
      "inputs": [],
      "name": "reserveFactor",
      "outputs": [
        {
          "internalType": "uint128",
          "name": "",
          "type": "uint128"
        }
      ],
      "stateMutability": "view",
      "type": "function"
    },
    {
      "inputs": [
        {
          "internalType": "bytes32",
          "name": "role",
          "type": "bytes32"
        },
        {
          "internalType": "address",
          "name": "account",
          "type": "address"
        }
      ],
      "name": "revokeRole",
      "outputs": [],
      "stateMutability": "nonpayable",
      "type": "function"
    },
    {
      "inputs": [],
      "name": "rewardsController",
      "outputs": [
        {
          "internalType": "contract RewardsController",
          "name": "",
          "type": "address"
        }
      ],
      "stateMutability": "view",
      "type": "function"
    },
    {
      "inputs": [
        {
          "internalType": "address",
          "name": "liquidator",
          "type": "address"
        },
        {
          "internalType": "address",
          "name": "borrower",
          "type": "address"
        },
        {
          "internalType": "uint256",
          "name": "assets",
          "type": "uint256"
        }
      ],
      "name": "seize",
      "outputs": [],
      "stateMutability": "nonpayable",
      "type": "function"
    },
    {
      "inputs": [
        {
          "internalType": "string",
          "name": "assetSymbol",
          "type": "string"
        }
      ],
      "name": "setAssetSymbol",
      "outputs": [],
      "stateMutability": "nonpayable",
      "type": "function"
    },
    {
      "inputs": [
        {
          "internalType": "uint256",
          "name": "backupFeeRate_",
          "type": "uint256"
        }
      ],
      "name": "setBackupFeeRate",
      "outputs": [],
      "stateMutability": "nonpayable",
      "type": "function"
    },
    {
      "inputs": [
        {
          "internalType": "uint256",
          "name": "up",
          "type": "uint256"
        },
        {
          "internalType": "uint256",
          "name": "down",
          "type": "uint256"
        }
      ],
      "name": "setDampSpeed",
      "outputs": [],
      "stateMutability": "nonpayable",
      "type": "function"
    },
    {
      "inputs": [
        {
          "internalType": "uint128",
          "name": "earningsAccumulatorSmoothFactor_",
          "type": "uint128"
        }
      ],
      "name": "setEarningsAccumulatorSmoothFactor",
      "outputs": [],
      "stateMutability": "nonpayable",
      "type": "function"
    },
    {
      "inputs": [
        {
          "internalType": "bool",
          "name": "isFrozen_",
          "type": "bool"
        }
      ],
      "name": "setFrozen",
      "outputs": [],
      "stateMutability": "nonpayable",
      "type": "function"
    },
    {
      "inputs": [
        {
          "internalType": "contract InterestRateModel",
          "name": "interestRateModel_",
          "type": "address"
        }
      ],
      "name": "setInterestRateModel",
      "outputs": [],
      "stateMutability": "nonpayable",
      "type": "function"
    },
    {
      "inputs": [
        {
          "internalType": "uint8",
          "name": "futurePools",
          "type": "uint8"
        }
      ],
      "name": "setMaxFuturePools",
      "outputs": [],
      "stateMutability": "nonpayable",
      "type": "function"
    },
    {
      "inputs": [
        {
          "internalType": "uint256",
          "name": "penaltyRate_",
          "type": "uint256"
        }
      ],
      "name": "setPenaltyRate",
      "outputs": [],
      "stateMutability": "nonpayable",
      "type": "function"
    },
    {
      "inputs": [
        {
          "internalType": "uint128",
          "name": "reserveFactor_",
          "type": "uint128"
        }
      ],
      "name": "setReserveFactor",
      "outputs": [],
      "stateMutability": "nonpayable",
      "type": "function"
    },
    {
      "inputs": [
        {
          "internalType": "contract RewardsController",
          "name": "rewardsController_",
          "type": "address"
        }
      ],
      "name": "setRewardsController",
      "outputs": [],
      "stateMutability": "nonpayable",
      "type": "function"
    },
    {
      "inputs": [
        {
          "internalType": "address",
          "name": "treasury_",
          "type": "address"
        },
        {
          "internalType": "uint256",
          "name": "treasuryFeeRate_",
          "type": "uint256"
        }
      ],
      "name": "setTreasury",
      "outputs": [],
      "stateMutability": "nonpayable",
      "type": "function"
    },
    {
      "inputs": [
        {
          "internalType": "bytes4",
          "name": "interfaceId",
          "type": "bytes4"
        }
      ],
      "name": "supportsInterface",
      "outputs": [
        {
          "internalType": "bool",
          "name": "",
          "type": "bool"
        }
      ],
      "stateMutability": "view",
      "type": "function"
    },
    {
      "inputs": [],
      "name": "symbol",
      "outputs": [
        {
          "internalType": "string",
          "name": "",
          "type": "string"
        }
      ],
      "stateMutability": "view",
      "type": "function"
    },
    {
      "inputs": [],
      "name": "totalAssets",
      "outputs": [
        {
          "internalType": "uint256",
          "name": "",
          "type": "uint256"
        }
      ],
      "stateMutability": "view",
      "type": "function"
    },
    {
      "inputs": [],
      "name": "totalFloatingBorrowAssets",
      "outputs": [
        {
          "internalType": "uint256",
          "name": "",
          "type": "uint256"
        }
      ],
      "stateMutability": "view",
      "type": "function"
    },
    {
      "inputs": [],
      "name": "totalFloatingBorrowShares",
      "outputs": [
        {
          "internalType": "uint256",
          "name": "",
          "type": "uint256"
        }
      ],
      "stateMutability": "view",
      "type": "function"
    },
    {
      "inputs": [],
      "name": "totalSupply",
      "outputs": [
        {
          "internalType": "uint256",
          "name": "",
          "type": "uint256"
        }
      ],
      "stateMutability": "view",
      "type": "function"
    },
    {
      "inputs": [
        {
          "internalType": "address",
          "name": "to",
          "type": "address"
        },
        {
          "internalType": "uint256",
          "name": "shares",
          "type": "uint256"
        }
      ],
      "name": "transfer",
      "outputs": [
        {
          "internalType": "bool",
          "name": "",
          "type": "bool"
        }
      ],
      "stateMutability": "nonpayable",
      "type": "function"
    },
    {
      "inputs": [
        {
          "internalType": "address",
          "name": "from",
          "type": "address"
        },
        {
          "internalType": "address",
          "name": "to",
          "type": "address"
        },
        {
          "internalType": "uint256",
          "name": "shares",
          "type": "uint256"
        }
      ],
      "name": "transferFrom",
      "outputs": [
        {
          "internalType": "bool",
          "name": "",
          "type": "bool"
        }
      ],
      "stateMutability": "nonpayable",
      "type": "function"
    },
    {
      "inputs": [],
      "name": "treasury",
      "outputs": [
        {
          "internalType": "address",
          "name": "",
          "type": "address"
        }
      ],
      "stateMutability": "view",
      "type": "function"
    },
    {
      "inputs": [],
      "name": "treasuryFeeRate",
      "outputs": [
        {
          "internalType": "uint256",
          "name": "",
          "type": "uint256"
        }
      ],
      "stateMutability": "view",
      "type": "function"
    },
    {
      "inputs": [],
      "name": "unpause",
      "outputs": [],
      "stateMutability": "nonpayable",
      "type": "function"
    },
    {
      "inputs": [
        {
          "internalType": "uint256",
          "name": "assets",
          "type": "uint256"
        },
        {
          "internalType": "address",
          "name": "receiver",
          "type": "address"
        },
        {
          "internalType": "address",
          "name": "owner",
          "type": "address"
        }
      ],
      "name": "withdraw",
      "outputs": [
        {
          "internalType": "uint256",
          "name": "shares",
          "type": "uint256"
        }
      ],
      "stateMutability": "nonpayable",
      "type": "function"
    },
    {
      "inputs": [
        {
          "internalType": "uint256",
          "name": "maturity",
          "type": "uint256"
        },
        {
          "internalType": "uint256",
          "name": "positionAssets",
          "type": "uint256"
        },
        {
          "internalType": "uint256",
          "name": "minAssetsRequired",
          "type": "uint256"
        },
        {
          "internalType": "address",
          "name": "receiver",
          "type": "address"
        },
        {
          "internalType": "address",
          "name": "owner",
          "type": "address"
        }
      ],
      "name": "withdrawAtMaturity",
      "outputs": [
        {
          "internalType": "uint256",
          "name": "assetsDiscounted",
          "type": "uint256"
        }
      ],
      "stateMutability": "nonpayable",
      "type": "function"
    }
  ],
  "transactionHash": "0x828d771b547906495a05eb87d75c7eb1b7c97f921791cc67183355503051c31e",
  "args": [
    "0x531784fd9aBa26c965de4423D331de8d89cD6ab3",
    "0x7299b566bAa22F5C0F759b7598EeE4a219AdD2D3"
  ],
  "numDeployments": 6,
  "solcInputHash": "da1bcc1b579f3b2eb1e7feb14927fef2",
  "bytecode": "0x610120604052348015610010575f80fd5b506040516164fa3803806164fa83398101604081905261002f9161021c565b8160405180602001604052805f81525060405180602001604052805f8152508181846001600160a01b031663313ce5676040518163ffffffff1660e01b8152600401602060405180830381865afa15801561008c573d5f803e3d5ffd5b505050506040513d601f19601f820116820180604052508101906100b09190610254565b60c96100bc8482610313565b5060ca6100c98382610313565b5060ff81166080524660a0526100dd610108565b60c0525050506001600160a01b0392831660e05250508116610100526101016101a1565b505061043e565b5f7f8b73c3c69bb8fe3d512ecc4cf759cc79239f7b179b0ffacaa9a75d522b39400f60c960405161013991906103cd565b6040805191829003822060208301939093528101919091527fc89efdaa54c0f20c7adf612882df0950f5a951637e0307cdcb4c672f298b8bc660608201524660808201523060a082015260c00160405160208183030381529060405280519060200120905090565b5f54610100900460ff16156101b4575f80fd5b5f5460ff90811614610203575f805460ff191660ff9081179091556040519081527f7f26b83ff96e1f2b6a682f133852f6798a09c465da95921460cefb38474024989060200160405180910390a15b565b6001600160a01b0381168114610219575f80fd5b50565b5f806040838503121561022d575f80fd5b825161023881610205565b602084015190925061024981610205565b809150509250929050565b5f60208284031215610264575f80fd5b815160ff81168114610274575f80fd5b9392505050565b634e487b7160e01b5f52604160045260245ffd5b600181811c908216806102a357607f821691505b6020821081036102c157634e487b7160e01b5f52602260045260245ffd5b50919050565b601f82111561030e57805f5260205f20601f840160051c810160208510156102ec5750805b601f840160051c820191505b8181101561030b575f81556001016102f8565b50505b505050565b81516001600160401b0381111561032c5761032c61027b565b6103408161033a845461028f565b846102c7565b6020601f821160018114610372575f831561035b5750848201515b5f19600385901b1c1916600184901b17845561030b565b5f84815260208120601f198516915b828110156103a15787850151825560209485019460019092019101610381565b50848210156103be57868401515f19600387901b60f8161c191681555b50505050600190811b01905550565b5f8083546103da8161028f565b6001821680156103f1576001811461040657610433565b60ff1983168652811515820286019350610433565b865f5260205f205f5b8381101561042b5781548882015260019091019060200161040f565b505081860193505b509195945050505050565b60805160a05160c05160e05161010051615fde61051c5f395f81816107ec015281816115ee0152818161179e01528181611db001528181611fe0015281816121ba015281816126260152818161304c0152818161314b015281816131d2015281816136500152614b3a01525f818161079c0152818161165f01528181611baf01528181611ca3015281816120a2015281816122ae015281816124b30152818161298b01528181612fce015281816136c101528181614c61015281816151b601526152b801525f611c1c01525f611be701525f6107330152615fde5ff3fe608060405234801561000f575f80fd5b5060043610610529575f3560e01c806370a08231116102b7578063b2a02ff111610182578063d547741f116100e0578063e63ab1e91161009a578063e63ab1e914610d69578063e94b3c2114610d7d578063eee8c9e014610d86578063ef8b30f714610d8e578063f3fdb15a14610da1578063fb0fc4c314610db4578063fea45d9414610dcb575f80fd5b8063d547741f14610cc6578063d60b347f14610cd9578063d6b7494f14610cfb578063d905777e14610d04578063dd62ed3e14610d2c578063e00b262514610d56575f80fd5b8063c63d75b61161013c578063c63d75b614610816578063c6e6f59214610c18578063ccfd8b1114610c2b578063ce96cb7714610c5c578063d2681a0b14610c6f578063d505accf14610ca0578063d516418414610cb3575f80fd5b8063b2a02ff114610ba6578063b3d7f6b914610bb9578063b460af9414610bcc578063ba08765214610bdf578063bee36bb314610bf2578063bf722ca214610c05575f80fd5b8063910a8f1a1161022f578063a05a091a116101e9578063a05a091a14610b35578063a16a885014610b48578063a1bab44714610b5d578063a1e8f02b14610b70578063a217fddf14610b79578063a9059cbb14610b80578063acb7081514610b93575f80fd5b8063910a8f1a14610abb57806391d1485414610ae1578063926bb63314610af457806394bf804d14610b0757806395d89b4114610b1a57806397bce8d014610b22575f80fd5b806370a08231146109ed57806372b06b4d14610a0c57806378007e2314610a1f5780637ad226dc14610a325780637e932d3214610a455780637ecebe0014610a585780638456cb5914610a775780638a1baa4614610a7f5780638bcd401614610a885780638c3cba5a14610a9b5780638d0e5f0214610aa4578063904876bd14610aad575f80fd5b806333eeb147116103f757806347dffde01161036f5780635e5c06e2116103295780635e5c06e21461090f57806361d027b314610958578063666010321461096b5780636bb65f53146109745780636e553f65146109875780636e76fc8f1461099a5780636eb9ffeb146109c1575f80fd5b806347dffde0146108645780634914c008146108775780634cdad5061461088a5780634e7c50591461089d5780635c975abb146108f15780635cc2ef83146108fc575f80fd5b806333eeb1471461075557806334f7d1f2146107695780633644e5151461077c57806336568abe1461078457806338d52e0f146107975780633aa18d6f146107cb5780633c6f317f146107d45780633ec045a6146107e75780633f4ba83a1461080e578063402d267d1461081657806342da42bf1461082a5780634322b7141461083d575f80fd5b806313700101116104a4578063248a9ca31161045e578063248a9ca3146106ab57806325fc07a9146106cd57806328acf2cf146106ec5780632c5dcc77146106ff5780632e0af008146107125780632f2ff15d1461071b578063313ce5671461072e575f80fd5b8063137001011461064d57806318160ddd146106605780631a5b9e62146106695780631a90f1861461067c5780631d43b30b1461068557806323b872dd14610698575f80fd5b8063014a296f1461052d57806301e1d1141461055a57806301ffc9a714610570578063022d8af5146105935780630539fa8c146105a857806306fdde03146105b157806307a2d13a146105c6578063095ea7b3146105d95780630a28a477146105ec5780630ab69be8146105ff5780630e52dbec146106265780630f2b75aa14610645575b5f80fd5b61054061053b366004615637565b610dde565b604080519283526020830191909152015b60405180910390f35b610562610e13565b604051908152602001610551565b61058361057e366004615652565b610ebf565b6040519015158152602001610551565b6105a66105a1366004615694565b610ef5565b005b61056260d85481565b6105b9610f7c565b60405161055191906156ad565b6105626105d43660046156e2565b611008565b6105836105e73660046156f9565b611034565b6105626105fa3660046156e2565b61109f565b61054061060d3660046156e2565b5f90815260d16020526040902080546001909101549091565b60da546106339060ff1681565b60405160ff9091168152602001610551565b6105626110be565b6105a661065b366004615760565b611163565b61056260cb5481565b61056261067736600461579e565b6111d4565b61056260d45481565b610562610693366004615637565b611693565b6105836106a63660046157f0565b611793565b6105626106b93660046156e2565b5f9081526065602052604090206001015490565b6105626106db3660046156e2565b5f90815260d1602052604090205490565b6105a66106fa36600461583e565b611847565b6105a661070d3660046156f9565b611893565b61056260dd5481565b6105a6610729366004615857565b611903565b6106337f000000000000000000000000000000000000000000000000000000000000000081565b60e35461058390600160a01b900460ff1681565b610562610777366004615885565b61192c565b610562611be4565b6105a6610792366004615857565b611c3e565b6107be7f000000000000000000000000000000000000000000000000000000000000000081565b60405161055191906158c3565b61056260d95481565b6105626107e2366004615885565b611c60565b6107be7f000000000000000000000000000000000000000000000000000000000000000081565b6105a6611ccb565b610562610824366004615637565b505f1990565b6105a66108383660046156e2565b611ced565b60dc5461085790600160801b90046001600160801b031681565b60405161055191906158d7565b6105626108723660046156e2565b611d2c565b6105626108853660046158eb565b611d4a565b6105626108983660046156e2565b612226565b6108d16108ab3660046156e2565b60d16020525f908152604090208054600182015460028301546003909301549192909184565b604080519485526020850193909352918301526060820152608001610551565b60975460ff16610583565b6105a661090a36600461592a565b612230565b61093d61091d366004615637565b60d26020525f908152604090208054600182015460029092015490919083565b60408051938452602084019290925290820152606001610551565b60e1546107be906001600160a01b031681565b61056260e25481565b60e3546107be906001600160a01b031681565b610562610995366004615857565b61228a565b6105627f5358bcfd81d1ef3da152b1755e1c3c6739686fa7e83dbcad0071568cc4b73a6381565b60da546109d890600160281b900463ffffffff1681565b60405163ffffffff9091168152602001610551565b6105626109fb366004615637565b60cc6020525f908152604090205481565b6105a6610a1a366004615637565b612330565b610562610a2d3660046156e2565b61246e565b610540610a40366004615857565b612485565b6105a6610a5336600461594a565b6124e2565b610562610a66366004615637565b60ce6020525f908152604090205481565b6105a661255f565b61056260d55481565b6105a6610a96366004615637565b612571565b61056260d35481565b61056260df5481565b60e55460e654610540919082565b610540610ac9366004615637565b60e46020525f90815260409020805460019091015482565b610583610aef366004615857565b6125f1565b6105a6610b02366004615637565b61261b565b610562610b15366004615857565b612972565b6105b9612a0d565b6105a6610b30366004615969565b612a1a565b610562610b4336600461579e565b612b79565b60da546109d890610100900463ffffffff1681565b6105a6610b6b3660046156e2565b613002565b61056260d75481565b6105625f81565b610583610b8e3660046156f9565b613041565b610540610ba1366004615857565b6130ec565b6105a6610bb43660046157f0565b613108565b610562610bc73660046156e2565b61311c565b610562610bda366004615a14565b613132565b610562610bed366004615a14565b6131cf565b6105a6610c00366004615637565b613269565b610562610c133660046156e2565b6132bd565b610562610c263660046156e2565b6132dc565b610540610c39366004615857565b60cf60209081525f92835260408084209091529082529020805460019091015482565b610562610c6a366004615637565b6132f3565b610540610c7d366004615857565b60d060209081525f92835260408084209091529082529020805460019091015482565b6105a6610cae366004615a48565b613314565b610562610cc1366004615a14565b6134d9565b6105a6610cd4366004615857565b6136f2565b610583610ce7366004615637565b60e76020525f908152604090205460ff1681565b61056260d65481565b610562610d12366004615637565b6001600160a01b03165f90815260cc602052604090205490565b610562610d3a366004615ab2565b60cd60209081525f928352604080842090915290825290205481565b6105a6610d64366004615694565b613716565b6105625f80516020615f6983398151915281565b61056260de5481565b61056261376a565b610562610d9c3660046156e2565b61384b565b60db546107be906001600160a01b031681565b60da546109d890600160481b900463ffffffff1681565b60dc54610857906001600160801b031681565b6001600160a01b0381165f90815260cc60205260408120548190610e0190611008565b610e0a84611693565b91509150915091565b60da545f9081906224ea004281810690039160ff16028101815b818111610e85575f81815260d160205260409020600381015480831115610e7957824210610e5f578160020154610e74565b6002820154610e749042839003838603613855565b860195505b50506224ea0001610e2d565b50610ea860e254670de0b6b3a76400000360d454610ea161376a565b0390613873565b610eb0613887565b8460dd54010101935050505090565b5f6001600160e01b03198216637965db0b60e01b1480610eef57506301ffc9a760e01b6001600160e01b03198316145b92915050565b5f610eff816138fd565b610f07613907565b60dd5f828254610f179190615b06565b90915550610f259050613980565b60dc80546001600160801b0319166001600160801b0384161790556040517f5499a947330efc8c6d458d51fd04d56d7e44dc1469558b2300e359963cef317e90610f709084906158d7565b60405180910390a15050565b60c98054610f8990615b19565b80601f0160208091040260200160405190810160405280929190818152602001828054610fb590615b19565b80156110005780601f10610fd757610100808354040283529160200191611000565b820191905f5260205f20905b815481529060010190602001808311610fe357829003601f168201915b505050505081565b60cb545f90801561102b5761102661101e610e13565b849083613855565b61102d565b825b9392505050565b335f81815260cd602090815260408083206001600160a01b038716808552925280832085905551919290917f8c5be1e5ebec7d5bd14f71427d1e84f3dd0314c0f7b2291e5b200ac8c7c3b9259061108e9086815260200190565b60405180910390a350600192915050565b60cb545f90801561102b57611026816110b6610e13565b8591906139e6565b60dd5460de545f9190828183106110d75760d8546110db565b60d9545b60da549091505f90611116906110fe90600160481b900463ffffffff1642615b51565b6111089084615b64565b61111190615b7b565b613a13565b61112890670de0b6b3a7640000615b95565b90506111348185613873565b61115061114983670de0b6b3a7640000615b51565b8590613873565b61115a9190615b06565b94505050505090565b5f61116d816138fd565b8282604051602001611180929190615bb4565b60405160208183030381529060405260c9908161119d9190615c2f565b5082826040516020016111b1929190615ce9565b60405160208183030381529060405260ca90816111ce9190615c2f565b50505050565b5f6111dd613b86565b6111e5613b95565b845f036112055760405163774257f760e01b815260040160405180910390fd5b60da5461121990879060ff1660035f613bc0565b5f86815260d160205260409020611236611231613d5a565b613e68565b6112408188613ea5565b60dd5f8282546112509190615b06565b909155506112619050600184613f23565b5f61126c8288613fc5565b905080156112f0575f8160d3546112839190615b06565b60dc549091506112c1906112af90600160801b90046001600160801b0316670de0b6b3a7640000615d07565b60dd54906001600160801b0316613873565b60d4546112ce9083615b06565b11156112ec57604051622d41ad60e31b815260040160405180910390fd5b60d3555b505f806112fb6110be565b60d45460db5460da546001870154875494955092935f936001600160a01b039093169263d9d9048d928f9260ff909116916113369189614001565b611340888861402e565b61134d898960d354614046565b6040518663ffffffff1660e01b815260040161136d959493929190615d26565b602060405180830381865afa158015611388573d5f803e3d5ffd5b505050506040513d601f19601f820116820180604052508101906113ac9190615d4c565b90506113d16113ca6113be428e615b51565b83906301e13380613855565b8b90614062565b935050505080876113e29190615b06565b92508583111561140557604051632c1b6b4160e21b815260040160405180910390fd5b61140f8484614076565b5f88815260d0602090815260408083206001600160a01b038816845290915281208054909103611466576001600160a01b0385165f90815260d260205260409020600181015461145f908b6140ec565b6001909101555b5f806114a9611474856141d5565b60408051608081018252885481526001890154602082015260028901549181019190915260038801546060820152908c614201565b91509150815f146114cd5781856002015f8282546114c79190615b06565b90915550505b6114d68161424d565b60405180604001604052808b855f01546114f09190615b06565b81526020018585600101546115059190615b06565b90525f8c815260d0602090815260408083206001600160a01b038c1684528252808320845181559382015160019485015560e4909152812090910180548c9550909350909150611556908490615b06565b909155505060e680548891905f9061156f908490615b06565b92505081905550836001600160a01b0316856001600160a01b0316897f66866b472f27d55d69496091bbd651907b2fb1041b3eeaca6e565ae5b5af4013338b866040516115be93929190615d63565b60405180910390a46115ce613980565b6115d788614279565b604051637b9d893160e01b81526001600160a01b037f00000000000000000000000000000000000000000000000000000000000000001690637b9d8931906116259030908890600401615d84565b5f604051808303815f87803b15801561163c575f80fd5b505af115801561164e573d5f803e3d5ffd5b506116889250506001600160a01b037f000000000000000000000000000000000000000000000000000000000000000016905086896142c7565b505095945050505050565b6001600160a01b0381165f90815260d260209081526040822060d6546001820154919290919081901c9063ffffffff165b811561176857600182161561174d575f81815260d0602090815260408083206001600160a01b038a1684529091528120600181015481549192916117089190615b06565b90506117148188615b06565b96508242111561174a5761173d8561172c8542615b51565b6117369190615b64565b8290613873565b6117479088615b06565b96505b50505b60019190911c906117616224ea0082615b06565b90506116c4565b600284015480156117895761177c81611d2c565b6117869087615b06565b95505b5050505050919050565b5f61179c613b86565b7f00000000000000000000000000000000000000000000000000000000000000006001600160a01b031663a3883db530866117d686612226565b6040518463ffffffff1660e01b81526004016117f493929190615d9e565b5f6040518083038186803b15801561180a575f80fd5b505afa15801561181c573d5f803e3d5ffd5b5050505061182a5f85613f23565b6118345f84613f23565b61183f848484614312565b949350505050565b5f611851816138fd565b60da805460ff191660ff84169081179091556040519081527f23c0170203096819aed8a13739fe91ce445ec92a7e2aa228081b5e45ee582c8090602001610f70565b5f61189d816138fd565b6118a8611231613d5a565b60e180546001600160a01b0319166001600160a01b03851690811790915560e28390556040518381527fd471a80a3a5fd21dfce2b1b7c88bbea4684ab90254a4e47345ac344d566788729060200160405180910390a2505050565b5f8281526065602052604090206001015461191d816138fd565b61192783836143ec565b505050565b5f611935613b86565b61193d613b95565b835f0361195d576040516356316e8760e01b815260040160405180910390fd5b60da5461197190869060ff1660035f613bc0565b5f85815260d160205260408120906119898288613ea5565b9050611996611231613d5a565b8060dd5f8282546119a79190615b06565b909155506119b790505f85613f23565b60d754604080516080810182528454815260018501546020820152600285015491810191909152600384015460608201525f9182916119f7918a90614471565b9092509050611a068289615b06565b945086851015611a2957604051632c1b6b4160e21b815260040160405180910390fd5b611a3384896144c2565b60d35f828254611a439190615b51565b90915550611a5390508183615b06565b846002015f828254611a659190615b51565b925050819055508060d55f828254611a7d9190615b06565b90915550505f89815260cf602090815260408083206001600160a01b038a16845290915281208054909103611ad2576001600160a01b0387165f90815260d2602052604090208054611acf908c6140ec565b90555b6001600160a01b0387165f90815260e46020526040812080548b9290611af9908490615b06565b909155505060e580548a91905f90611b12908490615b06565b90915550508054899082905f90611b2a908490615b06565b9250508190555082816001015f828254611b449190615b06565b9091555050604080518a8152602081018590526001600160a01b0389169133918d917fd9900507c64720c1a5e11858a42769b599616268b832495aa6afe8b9dc566e76910160405180910390a4611b99613980565b611ba28a614279565b611bd76001600160a01b037f00000000000000000000000000000000000000000000000000000000000000001633308c6144fb565b5050505050949350505050565b5f7f00000000000000000000000000000000000000000000000000000000000000004614611c1957611c14614553565b905090565b507f000000000000000000000000000000000000000000000000000000000000000090565b6001600160a01b0381163314611c52575f80fd5b611c5c82826145ec565b5050565b5f611c69613b86565b60da54611c7e90869060ff1660036002613bc0565b611c8c858585856001614652565b9050611c96613980565b61183f6001600160a01b037f0000000000000000000000000000000000000000000000000000000000000000163330846144fb565b5f80516020615f69833981519152611ce2816138fd565b611cea6149c8565b50565b5f611cf7816138fd565b60d78290556040518281527f08b437f29bc93f50025290193a680338033c3fccb93cf0ef95788eba3f003e2690602001610f70565b60df545f90801561102b57611026611d4261376a565b8490836139e6565b5f611d53613b86565b6001600160a01b0384163303611d7c576040516344511af160e01b815260040160405180910390fd5b611d84613907565b60dd5f828254611d949190615b06565b909155505060405163042dcf6b60e31b81526001600160a01b037f0000000000000000000000000000000000000000000000000000000000000000169063216e7b5890611deb903090869089908990600401615dc2565b602060405180830381865afa158015611e06573d5f803e3d5ffd5b505050506040513d601f19601f82011682018060405250810190611e2a9190615d4c565b9250825f03611e4c5760405163685e923560e01b815260040160405180910390fd5b6001600160a01b0384165f90815260d2602090815260409091206001810154909181901c9063ffffffff165b8115801590611e8657508515155b15611f93576001821615611f78575f81421015611ebd57611eaa8288898b5f614652565b9050611eb68188615b51565b9650611f6a565b5f82815260d0602090815260408083206001600160a01b038c168452909152812060018101548154611eef9190615b06565b9150505f611f1660d6548542611f059190615b51565b611f0f9190615b64565b8390613873565b611f209083615b06565b9050888111611f2f5788611f3a565b611f3a898383613855565b9250825f03611f4b575f9850611f67565b611f5884848b8d5f614652565b9250611f64838a615b51565b98505b50505b611f748186615b06565b9450505b60019190911c90611f8c6224ea0082615b06565b9050611e78565b50508315801590611fa75750600281015415155b15611fdc575f611fb6856132bd565b90508015611fda575f611fc98288614a0a565b509050611fd68185615b06565b9350505b505b5f807f00000000000000000000000000000000000000000000000000000000000000006001600160a01b0316636e1b003130878a886040518563ffffffff1660e01b81526004016120309493929190615dc2565b6040805180830381865afa15801561204a573d5f803e3d5ffd5b505050506040513d601f19601f8201168201806040525081019061206e9190615dec565b915091508160d55f8282546120839190615b06565b909155506120ca905033306120988588615b06565b6001600160a01b037f0000000000000000000000000000000000000000000000000000000000000000169291906144fb565b306001600160a01b038616036120eb576120e630338984614b03565b612150565b60405163b2a02ff160e01b81526001600160a01b0386169063b2a02ff19061211b9033908b908690600401615d9e565b5f604051808303815f87803b158015612132575f80fd5b505af1158015612144573d5f803e3d5ffd5b50505050612150613980565b60408051858152602081018490529081018290526001600160a01b03808716919089169033907f67bb48f97d82192848c24158abf58ec614777328e19655e0a219652b773fd1db9060600160405180910390a46040516311fd52e160e01b81526001600160a01b037f000000000000000000000000000000000000000000000000000000000000000016906311fd52e1906121ef908a906004016158c3565b5f604051808303815f87803b158015612206575f80fd5b505af1158015612218573d5f803e3d5ffd5b505050505050509392505050565b5f610eef82611008565b5f61223a816138fd565b612242614c88565b60d883905560d982905560408051848152602081018490527fd09fee08a2915f9ac9a77197b21a3e275d34ec9542f569eb15b95ce8f7fe2808910160405180910390a1505050565b5f6122948361384b565b9050805f036122a1575f80fd5b6122d66001600160a01b037f0000000000000000000000000000000000000000000000000000000000000000163330866144fb565b6122e08282614cb3565b60408051848152602081018390526001600160a01b0384169133917fdcbc1c05240f31ff3ad067ef1ee35ce4997762752e3a095284754544f4c709d7910160405180910390a3610eef8382614cc7565b6001600160a01b0381165f90815260e7602052604090205460ff16156123535750565b6001600160a01b0381165f90815260e760209081526040808320805460ff1916600190811790915560d2909252822080820154909291612394918591614d26565b905080156123f5576001600160a01b0383165f90815260e460205260409020600101546123c19082615b51565b60e680545f906123d2908490615b06565b90915550506001600160a01b0383165f90815260e4602052604090206001018190555b5f61240484845f01545f614d26565b905080156111ce576124165f85613f23565b6001600160a01b0384165f90815260e460205260409020546124389082615b51565b60e580545f90612449908490615b06565b90915550506001600160a01b0384165f90815260e46020526040902081905550505050565b60df545f90801561102b57611026816110b661376a565b5f8061248f613b86565b6124998484614a0a565b90925090506124a6613980565b6124db6001600160a01b037f0000000000000000000000000000000000000000000000000000000000000000163330856144fb565b9250929050565b5f6124ec816138fd565b60e35460ff600160a01b90910416151582151514611c5c5760e38054831515600160a01b0260ff60a01b1990911617905560405133907f713eb400302cebac61f82eb8de5051d38458517ffac43ae45f4a9fd5d09ee6989061255390851515815260200190565b60405180910390a25050565b612567614dc2565b61256f614e2b565b565b5f61257b816138fd565b60db546001600160a01b03161561259757612597611231613d5a565b60db80546001600160a01b0319166001600160a01b0384161790556125ba613980565b6040516001600160a01b038316907f7902cd1307c545e3f5782172612372bf997a93698917ced12b2f83d86e347d0c905f90a25050565b5f9182526065602090815260408084206001600160a01b0393909316845291905290205460ff1690565b336001600160a01b037f00000000000000000000000000000000000000000000000000000000000000001614612664576040516317568c8f60e21b815260040160405180910390fd5b61266c613907565b60dd5f82825461267c9190615b06565b90915550506001600160a01b0381165f90815260d260209081526040822060d55460018201549193909290919081901c9063ffffffff165b81156128c95760018216156128ae575f81815260d0602090815260408083206001600160a01b038a1684529091528120600181015481549192916126f89190615b06565b90508086106128ab5761270c600189613f23565b6127168187615b51565b95506127228186615b06565b82545f85815260d1602052604081209297509161273e91614e68565b905080156127d7578060d35f8282546127579190615b51565b909155505082545f906127869061276e9084614e87565b5f87815260d160205260409020600201549084613855565b90508060d15f8781526020019081526020015f206002015f8282546127ab9190615b51565b925050819055508060d55f8282546127c39190615b06565b909155506127d390508189615b06565b9750505b82546001600160a01b038a165f90815260e4602052604081206001018054839290612803908490615b51565b909155505060e680548291905f9061281c908490615b51565b90915550505f85815260d0602090815260408083206001600160a01b038e168452909152812081815560019081019190915589015461285b9086614e9c565b60018a015560408051848152602081018590526001600160a01b038c1691339188917ff17fce321dd9fb005136a80c0bfb3789e455b7a70be9eb8922f1ad20a80d1a33910160405180910390a450505b50505b60019190911c906128c26224ea0082615b06565b90506126b4565b6002850154158015906128e657506128e0846132bd565b93508315155b15612907575f6128f68588614a0a565b5090506129038185615b06565b9350505b8215612962578260d55f82825461291e9190615b51565b90915550506040518381526001600160a01b038716907fde0e3a281fa92ee953a13c5bd96dcaf07b10c6b9f42c65d0e3752c855caa6e7c9060200160405180910390a25b61296a613980565b505050505050565b5f61297c8361311c565b90506129b36001600160a01b037f0000000000000000000000000000000000000000000000000000000000000000163330846144fb565b6129bd8284614cb3565b60408051828152602081018590526001600160a01b0384169133917fdcbc1c05240f31ff3ad067ef1ee35ce4997762752e3a095284754544f4c709d7910160405180910390a3610eef8184614cc7565b60ca8054610f8990615b19565b5f54610100900460ff1615808015612a3857505f54600160ff909116105b80612a515750303b158015612a5157505f5460ff166001145b612a59575f80fd5b5f805460ff191660011790558015612a7a575f805461ff0019166101001790555b612a82614f5b565b612a8a614f6d565b60da805468ffffffffffffffff0019166101004263ffffffff1690810263ffffffff60281b191691909117600160281b82021763ffffffff60481b1916600160481b91909102179055612add5f336143ec565b612ae78b8b611163565b612af089611847565b612af988610ef5565b612b0287612571565b612b0b86613002565b612b1485611ced565b612b1d84613716565b612b278383612230565b8015612b6c575f805461ff0019169055604051600181527f7f26b83ff96e1f2b6a682f133852f6798a09c465da95921460cefb38474024989060200160405180910390a15b5050505050505050505050565b5f612b82613b86565b845f03612ba25760405163b8cb621960e01b815260040160405180910390fd5b60da54612bb790879060ff1660036002613bc0565b5f86815260d160205260409020612bcf611231613d5a565b612bd98188613ea5565b60dd5f828254612be99190615b06565b90915550612bf990505f84613f23565b5f87815260cf602090815260408083206001600160a01b038716845282529182902082518084019093528054808452600190910154918301829052612c3e9190615b06565b871115612c595760208101518151612c569190615b06565b96505b6040805180820190915281518152602080830151908201525f90612c8990612c81908a614f87565b518490614fcd565b60d354612c969190615b06565b905060dd5460d45482612ca99190615b06565b1115612cc757604051622d41ad60e31b815260040160405180910390fd5b60d35542881115612dd9575f612cdb6110be565b90505f60d45490505f60d35490505f60db5f9054906101000a90046001600160a01b03166001600160a01b031663d9d9048d8d60da5f9054906101000a900460ff16612d2f8a600101548b5f01548a614001565b612d39898961402e565b612d448a8a8a614046565b6040518663ffffffff1660e01b8152600401612d64959493929190615d26565b602060405180830381865afa158015612d7f573d5f803e3d5ffd5b505050506040513d601f19601f82011682018060405250810190612da39190615d4c565b9050612dce612db56113be428f615b51565b612dc790670de0b6b3a7640000615b06565b8c90615011565b965050505050612ddd565b8692505b85831015612dfe57604051632c1b6b4160e21b815260040160405180910390fd5b612e088484614076565b5f80612e54612e1f612e1a878c615b51565b6141d5565b604080516080810182528754815260018801546020820152600288015491810191909152600387015460608201529087614201565b9150915081846002015f828254612e6b9190615b06565b90915550612e7a90508161424d565b82515f612e87858c615025565b51612e929083615b51565b6001600160a01b0389165f90815260e46020526040812080549293508392909190612ebe908490615b51565b909155505060e580548291905f90612ed7908490615b51565b9091555050505060208301518351175f03612f30575f8a815260cf602090815260408083206001600160a01b038a168452825280832083815560010183905560d290915290208054612f29908c614e9c565b9055612f60565b5f8a815260cf602090815260408083206001600160a01b038a168452825290912084518155908401516001909101555b856001600160a01b0316876001600160a01b03168b7fe57dbac0e7c42ad5f3b0fadb9c065565377cf771054fca70d35c96e01f9ec53c338d8a604051612fa893929190615d63565b60405180910390a4612fb8613980565b612fc18a614279565b612ff56001600160a01b037f00000000000000000000000000000000000000000000000000000000000000001688876142c7565b5050505095945050505050565b5f61300c816138fd565b60d68290556040518281527fdb0ebfb2503f7c16b45577ebbf6c7d6b99b6e8aaf6652b156e36d5d6654a3a5e90602001610f70565b5f61304a613b86565b7f00000000000000000000000000000000000000000000000000000000000000006001600160a01b031663a3883db5303361308486612226565b6040518463ffffffff1660e01b81526004016130a293929190615d9e565b5f6040518083038186803b1580156130b8575f80fd5b505afa1580156130ca573d5f803e3d5ffd5b505050506130d85f33613f23565b6130e25f84613f23565b61102d8383615083565b5f806130f6613b86565b612499613102856132bd565b84614a0a565b613110613b86565b61192733848484614b03565b60cb545f90801561102b57611026611d42610e13565b60405163a3883db560e01b81525f906001600160a01b037f0000000000000000000000000000000000000000000000000000000000000000169063a3883db59061318490309086908990600401615d9e565b5f6040518083038186803b15801561319a575f80fd5b505afa1580156131ac573d5f803e3d5ffd5b505050506131ba5f83613f23565b6131c58484846150e6565b905061102d613980565b5f7f00000000000000000000000000000000000000000000000000000000000000006001600160a01b031663a3883db5308461320a88612226565b6040518463ffffffff1660e01b815260040161322893929190615d9e565b5f6040518083038186803b15801561323e575f80fd5b505afa158015613250573d5f803e3d5ffd5b5050505061325e5f83613f23565b6131c58484846151dd565b5f613273816138fd565b60e380546001600160a01b0319166001600160a01b0384169081179091556040517fbe945f1688d0c44e4727dde3ee4f1f52c5263e6213e3d6321cf7804cbe33be3c905f90a25050565b60df545f90801561102b57611026816132d461376a565b859190613855565b60cb545f90801561102b57611026816132d4610e13565b6001600160a01b0381165f90815260cc6020526040812054610eef90611008565b42841015613320575f80fd5b5f600161332b611be4565b6001600160a01b038a81165f81815260ce602090815260409182902080546001810190915582517f6e71edae12b1b97f4d1f60370fef10105fa2faae0126114a169c64845d6126c98184015280840194909452938d166060840152608083018c905260a083019390935260c08083018b90528151808403909101815260e08301909152805192019190912061190160f01b6101008301526101028201929092526101228101919091526101420160408051601f1981840301815282825280516020918201205f84529083018083525260ff871690820152606081018590526080810184905260a0016020604051602081039080840390855afa158015613433573d5f803e3d5ffd5b5050604051601f1901519150506001600160a01b038116158015906134695750876001600160a01b0316816001600160a01b0316145b613471575f80fd5b6001600160a01b039081165f90815260cd602090815260408083208a8516808552908352928190208990555188815291928a16917f8c5be1e5ebec7d5bd14f71427d1e84f3dd0314c0f7b2291e5b200ac8c7c3b925910160405180910390a350505050505050565b5f6134e2613b86565b6134ea613b95565b835f0361350a5760405163774257f760e01b815260040160405180910390fd5b6135148285614076565b61351f600183613f23565b61352a611231613d5a565b6135338461246e565b90505f8460d4546135449190615b06565b60d481905560dc54909150613575906112af90600160801b90046001600160801b0316670de0b6b3a7640000615d07565b8160d3546135839190615b06565b11156135a157604051622d41ad60e31b815260040160405180910390fd5b8160df5f8282546135b29190615b06565b90915550506001600160a01b0383165f90815260d26020526040812060020180548492906135e1908490615b06565b909155505060408051868152602081018490526001600160a01b03808616929087169133917f96558a334f4759f0e7c423d68c84721860bd8fbf94ddc4e55158ecb125ad04b5910160405180910390a4613639613980565b604051637b9d893160e01b81526001600160a01b037f00000000000000000000000000000000000000000000000000000000000000001690637b9d8931906136879030908790600401615d84565b5f604051808303815f87803b15801561369e575f80fd5b505af11580156136b0573d5f803e3d5ffd5b506136ea9250506001600160a01b037f000000000000000000000000000000000000000000000000000000000000000016905085876142c7565b509392505050565b5f8281526065602052604090206001015461370c816138fd565b61192783836145ec565b5f613720816138fd565b60dc80546001600160801b03808516600160801b0291161790556040517fc197c4ec4c97f824717acfad017c2a16643adc8874798a0899da42c6b5ebf9bf90610f709084906158d7565b60d45460dd5460da545f9291908390613837906138309061379890600160281b900463ffffffff1642615b51565b60db546301e13380906001600160a01b0316637c21fb1d6137b9888a61402e565b6137c6898b60d354614046565b6040516001600160e01b031960e085901b16815260048101929092526024820152604401602060405180830381865afa158015613805573d5f803e3d5ffd5b505050506040513d601f19601f820116820180604052508101906138299190615d4c565b9190613855565b8490613873565b90506138438184615b06565b935050505090565b5f610eef826132dc565b82820281151584158583048514171661386c575f80fd5b0492915050565b5f61102d8383670de0b6b3a7640000613855565b60da545f9081906138a390610100900463ffffffff1642615b51565b9050805f036138b3575f91505090565b60da546138f79082906138e3906138d1906224ea009060ff16615b64565b60dc546001600160801b031690613873565b6138ed9084615b06565b60d5549190613855565b91505090565b611cea81336152df565b5f613910613887565b90508060d55f8282546139239190615b51565b909155505060da805464ffffffff0019166101004263ffffffff811691909102919091179091556040519081527fe24d78f24f27ad7740c08c83f439e4c144df201bfd8f5c4c93e3e0898248b1bb9060200160405180910390a190565b60cb5460dd5460df5460d45460d5546040805142815260208101969096528501939093526060840191909152608083015260a08201527f7a71b92e3ef471c5ad18359e076f3df1c563d92e9ea1e33aa4761dbbc9b7ae409060c0015b60405180910390a1565b8282028115158415858304851417166139fd575f80fd5b6001826001830304018115150290509392505050565b5f680248ce36a70cb26b3e198213613a2c57505f919050565b680755bf798b4a1bf1e58212613a40575f80fd5b6503782dace9d9604e83901b0591505f60606bb17217f7d1cf79abc9e3b39884821b056001605f1b01901d6bb17217f7d1cf79abc9e3b39881029093036c240c330e9fb2d9cbaf0fd5aafb1981018102606090811d6d0277594991cfc85f6e2461837cd9018202811d6d1a521255e34f6a5061b25ef1c9c319018202811d6db1bbb201f443cf962f1a1d3db4a5018202811d6e02c72388d9f74f51a9331fed693f1419018202811d6e05180bb14799ab47a8a8cb2a527d57016d02d16720577bd19bf614176fe9ea6c10fe68e7fd37d0007b713f765084018402831d9081019084016d01d3967ed30fc4f89c02bab5708119010290911d6e0587f503bb6ea29d25fcb740196450019091026d360d7aeea093263ecc6e0ecb291760621b010574029d9dc38563c32e5c2f6dc192ee70ef65f9978af30260c3939093039290921c92915050565b60975460ff161561256f575f80fd5b60e354600160a01b900460ff161561256f5760405163b2ce2a9360e01b815260040160405180910390fd5b5f613bce6224ea0086615e0e565b15613bdb57506001613c2e565b428511613bea57506002613c2e565b613bfa60ff85166224ea00615b64565b613c076224ea0042615e0e565b613c119042615b51565b613c1b9190615b06565b851115613c2a57506004613c2e565b5060035b826004811115613c4057613c40615e21565b816004811115613c5257613c52615e21565b14158015613c825750816004811115613c6d57613c6d615e21565b816004811115613c7f57613c7f615e21565b14155b15613d53575f826004811115613c9a57613c9a615e21565b03613cee57806004811115613cb157613cb1615e21565b836004811115613cc357613cc3615e21565b604051631a71301d60e11b815260ff9283166004820152911660248201526044015b60405180910390fd5b806004811115613d0057613d00615e21565b836004811115613d1257613d12615e21565b836004811115613d2457613d24615e21565b604051637f2cef9960e01b815260ff938416600482015291831660248301529091166044820152606401613ce5565b5050505050565b60d45460dd545f919082613d6e828461402e565b60da549091505f90613dc09061114990613d9590600160281b900463ffffffff1642615b51565b60db5460d3546301e13380916001600160a01b031690637c21fb1d9088906137c6908b908d90614046565b9050613dcc8185615b06565b9350613de360e2548261387390919063ffffffff16565b945084613df08285615b06565b613dfa9190615b51565b60dd5560d484905560da805463ffffffff60281b1916600160281b4263ffffffff8116919091029190911790915560408051918252602082018490527f582b129106eba35020853cdae92ceb413a0227befcce433b67b23a630219b35f910160405180910390a15050505090565b8015611cea5760e154613e8c906001600160a01b0316613e878361384b565b614cb3565b8060dd5f828254613e9d9190615b06565b909155505050565b60038201545f9042831115613ef95760028401544260038601819055613ee290613ed0908490615b51565b613eda8487615b51565b839190613855565b9250613eee8382615b51565b600286015550613f1c565b828103613f08575f9150613f1c565b600384018390556002840180545f90915591505b5092915050565b60e3546001600160a01b03168015611927578215613f9957604051636c912dad60e01b81526001600160a01b03821690636c912dad90613f679085906004016158c3565b5f604051808303815f87803b158015613f7e575f80fd5b505af1158015613f90573d5f803e3d5ffd5b50505050505050565b604051630149e46f60e01b81526001600160a01b03821690630149e46f90613f679085906004016158c3565b81545f9081613fd48483615b06565b9050613fed613fe7838760010154615325565b82614e87565b613ff79082615b51565b9455509192915050565b5f811580159061401057508383115b61401a575f61183f565b61183f826140288686615b51565b90615333565b5f825f0361403c575f61102d565b61102d8284615333565b5f835f03614054575f61183f565b61183f846140288486615b06565b5f61102d8383670de0b6b3a76400006139e6565b336001600160a01b03831614611c5c576001600160a01b0382165f90815260cd602090815260408083203384529091529020545f198114611927576140ba8261109f565b6140c49082615b51565b6001600160a01b0384165f90815260cd60209081526040808320338452909152902055505050565b5f825f036141015750600160201b8117610eef565b63ffffffff83168083101561417e575f6224ea0061411f8584615b51565b6141299190615e35565b905061413781610100615b51565b85901c156141585760405163293cc41f60e21b815260040160405180910390fd5b614163816020615b06565b602086901c901b9450848417600160201b1792505050610eef565b5f6224ea0061418d8386615b51565b6141979190615e35565b905060df8111156141bb5760405163293cc41f60e21b815260040160405180910390fd5b6141c6816020615b06565b6001901b851792505050610eef565b5f806141ec60e2548461387390919063ffffffff16565b90506141f781613e68565b61102d8184615b51565b5f8082156142355761423061421e61421887615347565b85614e87565b6142289085615b51565b859085613855565b614237565b5f5b90506142438185615b51565b9150935093915050565b805f036142575750565b60e2541561426857611cea81613e68565b8060d55f828254613e9d9190615b06565b5f81815260d160209081526040918290206002015482514281529182015282917fa2e6044136bec58e0605f40ac11a7bf87f1a8bdf3e2588b11b2cfae5acd9109f910160405180910390a250565b5f60405163a9059cbb60e01b5f526001600160a01b0384166004528260245260205f60445f80895af13d15601f3d1160015f511416171691505f6060528060405250806111ce575f80fd5b6001600160a01b0383165f90815260cd602090815260408083203384529091528120545f19811461436b576143478382615b51565b6001600160a01b0386165f90815260cd602090815260408083203384529091529020555b6001600160a01b0385165f90815260cc602052604081208054859290614392908490615b51565b90915550506001600160a01b038085165f81815260cc6020526040908190208054870190555190918716905f80516020615f89833981519152906143d99087815260200190565b60405180910390a3506001949350505050565b6143f682826125f1565b611c5c575f8281526065602090815260408083206001600160a01b03851684529091529020805460ff1916600117905561442d3390565b6001600160a01b0316816001600160a01b0316837f2f8788117e7eff1d82e926ec794901d17c78024a50270940304540a733656f0d60405160405180910390a45050565b5f805f61447d86615347565b905080156144b95761449e6144928683614e87565b60408801519083613855565b92506144aa8385613873565b91506144b68284615b51565b92505b50935093915050565b815460018301545f91906144d68482615b06565b60018601556144f26144e88383614e87565b6142189084615b51565b95945050505050565b5f6040516323b872dd60e01b5f526001600160a01b0385166004526001600160a01b0384166024528260445260205f60645f808a5af13d15601f3d1160015f511416171691505f606052806040525080613d53575f80fd5b5f7f8b73c3c69bb8fe3d512ecc4cf759cc79239f7b179b0ffacaa9a75d522b39400f60c96040516145849190615e48565b6040805191829003822060208301939093528101919091527fc89efdaa54c0f20c7adf612882df0950f5a951637e0307cdcb4c672f298b8bc660608201524660808201523060a082015260c00160405160208183030381529060405280519060200120905090565b6145f682826125f1565b15611c5c575f8281526065602090815260408083206001600160a01b0385168085529252808320805460ff1916905551339285917ff6391f5c32d9c69d2a47ea670b442974b53935d1edc7fd64eb21e047a839171b9190a45050565b5f845f036146735760405163685e923560e01b815260040160405180910390fd5b5f86815260d1602052604081209061468b8289613ea5565b9050614698611231613d5a565b8060dd5f8282546146a99190615b06565b90915550505f88815260d0602090815260408083206001600160a01b03891684528252808320815180830190925280548083526001909101549282018390529092916146ff918b916146fa91615b06565b614e87565b6040805180820190915283518152602080850151908201529091505f906147269083614f87565b519050614734600189613f23565b8a4210156147fc5760d754604080516080810182528754815260018801546020820152600288015491810191909152600387015460608201525f91829161477c918590614471565b909250905061478b8183615b06565b876002015f82825461479d9190615b51565b909155505088156147d0578060d55f8282546147b99190615b06565b909155506147c990508285615b51565b97506147f5565b6147da8183615b06565b60d55f8282546147ea9190615b06565b925050819055508397505b5050614839565b60d65461480d90611f058d42615b51565b6148179083615b06565b95506148238287615b51565b60d55f8282546148339190615b06565b90915550505b8886111561485a57604051632c1b6b4160e21b815260040160405180910390fd5b6148648582614e68565b60d35f8282546148749190615b51565b909155505082516148858484615025565b516148909082615b51565b6001600160a01b038a165f90815260e460205260408120600101805492945084929091906148bf908490615b51565b909155505060e680548391905f906148d8908490615b51565b909155505060208401518451175f03614938575f8c815260d0602090815260408083206001600160a01b038d1684528252808320838155600190810184905560d29092529091209081015461492d908e614e9c565b600190910155614968565b5f8c815260d0602090815260408083206001600160a01b038d168452825290912085518155908501516001909101555b60408051888152602081018590526001600160a01b038b169133918f917ff17fce321dd9fb005136a80c0bfb3789e455b7a70be9eb8922f1ad20a80d1a33910160405180910390a46149b98c614279565b50505050505095945050505050565b6149d0615365565b6097805460ff191690557f5db9ee0a495bf2e6ff9c91a7834c1ba4fdd244a5e8aa4e537bd38aeae4b073aa335b6040516139dc91906158c3565b5f80614a17600184613f23565b614a22611231613d5a565b6001600160a01b0383165f90815260d2602052604090206002810154614a488682614e87565b9250614a5383611d2c565b9350835f03614a755760405163685e923560e01b815260040160405180910390fd5b8360d45f828254614a869190615b51565b90915550614a9690508382615b51565b82600201819055508260df5f828254614aaf9190615b51565b909155505060408051858152602081018590526001600160a01b0387169133917fe4a1ae657f49cb1fb1c7d3a94ae6093565c4c8c0e03de488f79c377c3c3a24e0910160405180910390a350509250929050565b805f03614b235760405163b8cb621960e01b815260040160405180910390fd5b60405163070b773960e51b81526001600160a01b037f0000000000000000000000000000000000000000000000000000000000000000169063e16ee72090614b719087903090600401615d84565b5f6040518083038186803b158015614b87575f80fd5b505afa158015614b99573d5f803e3d5ffd5b50505050614ba75f83613f23565b5f614bb18261109f565b9050614bbd8282615373565b614bc783826153ec565b60408051838152602081018390526001600160a01b03808616929087169133915f80516020615f49833981519152910160405180910390a4826001600160a01b0316846001600160a01b03167f9e2db63c5a9dc5d08222447d76570029e4f2f3074c8aa4f1c511fa658506c71084604051614c4491815260200190565b60405180910390a3614c54613980565b613d536001600160a01b037f00000000000000000000000000000000000000000000000000000000000000001685846142c7565b614c906110be565b60de5560da805463ffffffff60481b1916600160481b4263ffffffff1602179055565b614cbd5f83613f23565b611c5c8282615453565b614ccf613b86565b614cd7613b95565b614cdf614c88565b5f614ce8613d5a565b90505f614cf3613907565b9050614cff8482615b06565b60dd5f828254614d0f9190615b06565b90915550614d1e905082613e68565b6111ce613980565b602082901c915f9063ffffffff168183614d415760cf614d44565b60d05b90505b8415614db9576001851615614d9e575f828152602082815260408083206001600160a01b038a1684528252918290208251808401909352805480845260019091015491830191909152614d9a9085615b06565b9350505b60019490941c93614db26224ea0083615b06565b9150614d47565b50509392505050565b614dec7f5358bcfd81d1ef3da152b1755e1c3c6739686fa7e83dbcad0071568cc4b73a63336125f1565b158015614e0d5750614e0b5f80516020615f69833981519152336125f1565b155b1561256f57604051631d006fdb60e31b815260040160405180910390fd5b614e33613b86565b6097805460ff191660011790557f62e78cea01bee320cd4e420270b5ea74000d11b0c9f74754ebdbfc544b05a2586149fd3390565b815460018301545f9190614e7c8483615b51565b85556144f26144e883835b5f818310614e95578161102d565b5090919050565b5f821580614eaf575081600160201b1783145b15614ebb57505f610eef565b63ffffffff8316808303614f2957602184901c60015b60018216158015614ee157508115155b15614ef257600191821c9101614ed1565b6020614efe8282615b06565b9690961c90951b9485614f146224ea0083615b64565b614f1e9087615b06565b179350505050610eef565b6224ea00614f378285615b51565b614f419190615e35565b614f4c906020615b06565b6001901b198416915050610eef565b5f54610100900460ff1661256f575f80fd5b5f54610100900460ff16614f7f575f80fd5b61256f6154a2565b604080518082019091525f8082526020820152825160208401515f91614fb1916132d49082615b06565b8085529050614fc08184615b51565b6020850152509192915050565b815460018301545f919082614fe28583615b51565b9050614fee8184614e87565b614ff88385614e87565b6150029190615b51565b60019096015550929392505050565b5f61102d83670de0b6b3a764000084613855565b604080518082019091525f8082526020820152602083015183515f9161504a91615b06565b90505f6150578483615b51565b855190915061506890829084613855565b8086526150759082615b51565b602086015250929392505050565b335f90815260cc60205260408120805483919083906150a3908490615b51565b90915550506001600160a01b0383165f81815260cc6020526040908190208054850190555133905f80516020615f898339815191529061108e9086815260200190565b5f6150f08461109f565b9050336001600160a01b0383161461515d576001600160a01b0382165f90815260cd602090815260408083203384529091529020545f19811461515b576151378282615b51565b6001600160a01b0384165f90815260cd602090815260408083203384529091529020555b505b6151678482615373565b61517182826153ec565b60408051858152602081018390526001600160a01b03808516929086169133915f80516020615f49833981519152910160405180910390a461102d6001600160a01b037f00000000000000000000000000000000000000000000000000000000000000001684866142c7565b5f336001600160a01b03831614615249576001600160a01b0382165f90815260cd602090815260408083203384529091529020545f198114615247576152238582615b51565b6001600160a01b0384165f90815260cd602090815260408083203384529091529020555b505b61525284612226565b9050805f0361525f575f80fd5b6152698185615373565b61527382856153ec565b60408051828152602081018690526001600160a01b03808516929086169133915f80516020615f49833981519152910160405180910390a461102d6001600160a01b037f00000000000000000000000000000000000000000000000000000000000000001684836142c7565b6152e982826125f1565b611c5c576152f6816154c0565b6153018360206154d2565b604051602001615312929190615ed0565b6040516020818303038152906040525f80fd5b5f818311614e95578161102d565b5f61102d83670de0b6b3a7640000846139e6565b805160208201515f919061535b8282614e87565b61183f9083615b51565b60975460ff1661256f575f80fd5b61537b613b86565b615383614c88565b61538e611231613d5a565b5f615397613907565b90505f838260dd546153a99190615b06565b6153b39190615b51565b90508060d45460d3546153c69190615b06565b11156153e457604051622d41ad60e31b815260040160405180910390fd5b60dd55505050565b6001600160a01b0382165f90815260cc602052604081208054839290615413908490615b51565b909155505060cb805482900390556040518181525f906001600160a01b038416905f80516020615f89833981519152906020015b60405180910390a35050565b8060cb5f8282546154649190615b06565b90915550506001600160a01b0382165f81815260cc60209081526040808320805486019055518481525f80516020615f898339815191529101615447565b5f54610100900460ff166154b4575f80fd5b6097805460ff19169055565b6060610eef6001600160a01b03831660145b60605f6154e0836002615b64565b6154eb906002615b06565b6001600160401b0381111561550257615502615bd7565b6040519080825280601f01601f19166020018201604052801561552c576020820181803683370190505b509050600360fc1b815f8151811061554657615546615f1f565b60200101906001600160f81b03191690815f1a905350600f60fb1b8160018151811061557457615574615f1f565b60200101906001600160f81b03191690815f1a9053505f615596846002615b64565b6155a1906001615b06565b90505b6001811115615618576f181899199a1a9b1b9c1cb0b131b232b360811b85600f16601081106155d5576155d5615f1f565b1a60f81b8282815181106155eb576155eb615f1f565b60200101906001600160f81b03191690815f1a90535060049490941c9361561181615f33565b90506155a4565b50831561102d575f80fd5b6001600160a01b0381168114611cea575f80fd5b5f60208284031215615647575f80fd5b813561102d81615623565b5f60208284031215615662575f80fd5b81356001600160e01b03198116811461102d575f80fd5b80356001600160801b038116811461568f575f80fd5b919050565b5f602082840312156156a4575f80fd5b61102d82615679565b602081525f82518060208401528060208501604085015e5f604082850101526040601f19601f83011684010191505092915050565b5f602082840312156156f2575f80fd5b5035919050565b5f806040838503121561570a575f80fd5b823561571581615623565b946020939093013593505050565b5f8083601f840112615733575f80fd5b5081356001600160401b03811115615749575f80fd5b6020830191508360208285010111156124db575f80fd5b5f8060208385031215615771575f80fd5b82356001600160401b03811115615786575f80fd5b61579285828601615723565b90969095509350505050565b5f805f805f60a086880312156157b2575f80fd5b85359450602086013593506040860135925060608601356157d281615623565b915060808601356157e281615623565b809150509295509295909350565b5f805f60608486031215615802575f80fd5b833561580d81615623565b9250602084013561581d81615623565b929592945050506040919091013590565b803560ff8116811461568f575f80fd5b5f6020828403121561584e575f80fd5b61102d8261582e565b5f8060408385031215615868575f80fd5b82359150602083013561587a81615623565b809150509250929050565b5f805f8060808587031215615898575f80fd5b84359350602085013592506040850135915060608501356158b881615623565b939692955090935050565b6001600160a01b0391909116815260200190565b6001600160801b0391909116815260200190565b5f805f606084860312156158fd575f80fd5b833561590881615623565b925060208401359150604084013561591f81615623565b809150509250925092565b5f806040838503121561593b575f80fd5b50508035926020909101359150565b5f6020828403121561595a575f80fd5b8135801515811461102d575f80fd5b5f805f805f805f805f806101208b8d031215615983575f80fd5b8a356001600160401b03811115615998575f80fd5b6159a48d828e01615723565b909b5099506159b7905060208c0161582e565b97506159c560408c01615679565b965060608b01356159d581615623565b955060808b0135945060a08b013593506159f160c08c01615679565b999c989b50969995989497939650919460e0810135936101009091013592509050565b5f805f60608486031215615a26575f80fd5b833592506020840135615a3881615623565b9150604084013561591f81615623565b5f805f805f805f60e0888a031215615a5e575f80fd5b8735615a6981615623565b96506020880135615a7981615623565b95506040880135945060608801359350615a956080890161582e565b9699959850939692959460a0840135945060c09093013592915050565b5f8060408385031215615ac3575f80fd5b8235615ace81615623565b9150602083013561587a81615623565b634e487b7160e01b5f52601260045260245ffd5b634e487b7160e01b5f52601160045260245ffd5b80820180821115610eef57610eef615af2565b600181811c90821680615b2d57607f821691505b602082108103615b4b57634e487b7160e01b5f52602260045260245ffd5b50919050565b81810381811115610eef57610eef615af2565b8082028115828204841417610eef57610eef615af2565b5f600160ff1b8201615b8f57615b8f615af2565b505f0390565b8181035f831280158383131683831282161715613f1c57613f1c615af2565b67032bc30b1ba363c960c51b8152818360088301375f9101600801908152919050565b634e487b7160e01b5f52604160045260245ffd5b601f82111561192757805f5260205f20601f840160051c81016020851015615c105750805b601f840160051c820191505b81811015613d53575f8155600101615c1c565b81516001600160401b03811115615c4857615c48615bd7565b615c5c81615c568454615b19565b84615beb565b6020601f821160018114615c8e575f8315615c775750848201515b5f19600385901b1c1916600184901b178455613d53565b5f84815260208120601f198516915b82811015615cbd5787850151825560209485019460019092019101615c9d565b5084821015615cda57868401515f19600387901b60f8161c191681555b50505050600190811b01905550565b6265786160e81b8152818360038301375f9101600301908152919050565b6001600160801b038281168282160390811115610eef57610eef615af2565b94855260ff93909316602085015260408401919091526060830152608082015260a00190565b5f60208284031215615d5c575f80fd5b5051919050565b6001600160a01b039390931683526020830191909152604082015260600190565b6001600160a01b0392831681529116602082015260400190565b6001600160a01b039384168152919092166020820152604081019190915260600190565b6001600160a01b039485168152928416602084015292166040820152606081019190915260800190565b5f8060408385031215615dfd575f80fd5b505080516020909101519092909150565b5f82615e1c57615e1c615ade565b500690565b634e487b7160e01b5f52602160045260245ffd5b5f82615e4357615e43615ade565b500490565b5f808354615e5581615b19565b600182168015615e6c5760018114615e8157615eae565b60ff1983168652811515820286019350615eae565b865f5260205f205f5b83811015615ea657815488820152600190910190602001615e8a565b505081860193505b509195945050505050565b5f81518060208401855e5f93019283525090919050565b76020b1b1b2b9b9a1b7b73a3937b61d1030b1b1b7bab73a1604d1b81525f615efb6017830185615eb9565b7001034b99036b4b9b9b4b733903937b6329607d1b81526144f26011820185615eb9565b634e487b7160e01b5f52603260045260245ffd5b5f81615f4157615f41615af2565b505f19019056fefbde797d201c681b91056529119e0b02407c7bb96a4a2c75c01fc9667232c8db65d7a28e3265b37a6474929f336521b332c1681b933f6cb9f3376673440d862addf252ad1be2c89b69c2b068fc378daa952ba7f163c4a11628f55a4df523b3efa264697066735822122010636862dc47a08851cae5e3c39d68a1572c505b1f2d864ec15b93cebea84a0864736f6c634300081a0033",
  "storageLayout": {
    "storage": [
      {
        "astId": 416,
        "contract": "contracts/Market.sol:Market",
        "label": "_initialized",
        "offset": 0,
        "slot": "0",
        "type": "t_uint8"
      },
      {
        "astId": 419,
        "contract": "contracts/Market.sol:Market",
        "label": "_initializing",
        "offset": 1,
        "slot": "0",
        "type": "t_bool"
      },
      {
        "astId": 1086,
        "contract": "contracts/Market.sol:Market",
        "label": "__gap",
        "offset": 0,
        "slot": "1",
        "type": "t_array(t_uint256)50_storage"
      },
      {
        "astId": 1360,
        "contract": "contracts/Market.sol:Market",
        "label": "__gap",
        "offset": 0,
        "slot": "51",
        "type": "t_array(t_uint256)50_storage"
      },
      {
        "astId": 28,
        "contract": "contracts/Market.sol:Market",
        "label": "_roles",
        "offset": 0,
        "slot": "101",
        "type": "t_mapping(t_bytes32,t_struct(RoleData)23_storage)"
      },
      {
        "astId": 335,
        "contract": "contracts/Market.sol:Market",
        "label": "__gap",
        "offset": 0,
        "slot": "102",
        "type": "t_array(t_uint256)49_storage"
      },
      {
        "astId": 600,
        "contract": "contracts/Market.sol:Market",
        "label": "_paused",
        "offset": 0,
        "slot": "151",
        "type": "t_bool"
      },
      {
        "astId": 705,
        "contract": "contracts/Market.sol:Market",
        "label": "__gap",
        "offset": 0,
        "slot": "152",
        "type": "t_array(t_uint256)49_storage"
      },
      {
        "astId": 16489,
        "contract": "contracts/Market.sol:Market",
        "label": "name",
        "offset": 0,
        "slot": "201",
        "type": "t_string_storage"
      },
      {
        "astId": 16491,
        "contract": "contracts/Market.sol:Market",
        "label": "symbol",
        "offset": 0,
        "slot": "202",
        "type": "t_string_storage"
      },
      {
        "astId": 16495,
        "contract": "contracts/Market.sol:Market",
        "label": "totalSupply",
        "offset": 0,
        "slot": "203",
        "type": "t_uint256"
      },
      {
        "astId": 16499,
        "contract": "contracts/Market.sol:Market",
        "label": "balanceOf",
        "offset": 0,
        "slot": "204",
        "type": "t_mapping(t_address,t_uint256)"
      },
      {
        "astId": 16505,
        "contract": "contracts/Market.sol:Market",
        "label": "allowance",
        "offset": 0,
        "slot": "205",
        "type": "t_mapping(t_address,t_mapping(t_address,t_uint256))"
      },
      {
        "astId": 16513,
        "contract": "contracts/Market.sol:Market",
        "label": "nonces",
        "offset": 0,
        "slot": "206",
        "type": "t_mapping(t_address,t_uint256)"
      },
      {
        "astId": 7382,
        "contract": "contracts/Market.sol:Market",
        "label": "fixedDepositPositions",
        "offset": 0,
        "slot": "207",
        "type": "t_mapping(t_uint256,t_mapping(t_address,t_struct(Position)15911_storage))"
      },
      {
        "astId": 7390,
        "contract": "contracts/Market.sol:Market",
        "label": "fixedBorrowPositions",
        "offset": 0,
        "slot": "208",
        "type": "t_mapping(t_uint256,t_mapping(t_address,t_struct(Position)15911_storage))"
      },
      {
        "astId": 7396,
        "contract": "contracts/Market.sol:Market",
        "label": "fixedPools",
        "offset": 0,
        "slot": "209",
        "type": "t_mapping(t_uint256,t_struct(Pool)15905_storage)"
      },
      {
        "astId": 7402,
        "contract": "contracts/Market.sol:Market",
        "label": "accounts",
        "offset": 0,
        "slot": "210",
        "type": "t_mapping(t_address,t_struct(Account)11548_storage)"
      },
      {
        "astId": 7405,
        "contract": "contracts/Market.sol:Market",
        "label": "floatingBackupBorrowed",
        "offset": 0,
        "slot": "211",
        "type": "t_uint256"
      },
      {
        "astId": 7408,
        "contract": "contracts/Market.sol:Market",
        "label": "floatingDebt",
        "offset": 0,
        "slot": "212",
        "type": "t_uint256"
      },
      {
        "astId": 7411,
        "contract": "contracts/Market.sol:Market",
        "label": "earningsAccumulator",
        "offset": 0,
        "slot": "213",
        "type": "t_uint256"
      },
      {
        "astId": 7414,
        "contract": "contracts/Market.sol:Market",
        "label": "penaltyRate",
        "offset": 0,
        "slot": "214",
        "type": "t_uint256"
      },
      {
        "astId": 7417,
        "contract": "contracts/Market.sol:Market",
        "label": "backupFeeRate",
        "offset": 0,
        "slot": "215",
        "type": "t_uint256"
      },
      {
        "astId": 7420,
        "contract": "contracts/Market.sol:Market",
        "label": "dampSpeedUp",
        "offset": 0,
        "slot": "216",
        "type": "t_uint256"
      },
      {
        "astId": 7423,
        "contract": "contracts/Market.sol:Market",
        "label": "dampSpeedDown",
        "offset": 0,
        "slot": "217",
        "type": "t_uint256"
      },
      {
        "astId": 7426,
        "contract": "contracts/Market.sol:Market",
        "label": "maxFuturePools",
        "offset": 0,
        "slot": "218",
        "type": "t_uint8"
      },
      {
        "astId": 7429,
        "contract": "contracts/Market.sol:Market",
        "label": "lastAccumulatorAccrual",
        "offset": 1,
        "slot": "218",
        "type": "t_uint32"
      },
      {
        "astId": 7432,
        "contract": "contracts/Market.sol:Market",
        "label": "lastFloatingDebtUpdate",
        "offset": 5,
        "slot": "218",
        "type": "t_uint32"
      },
      {
        "astId": 7435,
        "contract": "contracts/Market.sol:Market",
        "label": "lastAverageUpdate",
        "offset": 9,
        "slot": "218",
        "type": "t_uint32"
      },
      {
        "astId": 7439,
        "contract": "contracts/Market.sol:Market",
        "label": "interestRateModel",
        "offset": 0,
        "slot": "219",
        "type": "t_contract(InterestRateModel)7266"
      },
      {
        "astId": 7442,
        "contract": "contracts/Market.sol:Market",
        "label": "earningsAccumulatorSmoothFactor",
        "offset": 0,
        "slot": "220",
        "type": "t_uint128"
      },
      {
        "astId": 7445,
        "contract": "contracts/Market.sol:Market",
        "label": "reserveFactor",
        "offset": 16,
        "slot": "220",
        "type": "t_uint128"
      },
      {
        "astId": 7448,
        "contract": "contracts/Market.sol:Market",
        "label": "floatingAssets",
        "offset": 0,
        "slot": "221",
        "type": "t_uint256"
      },
      {
        "astId": 7451,
        "contract": "contracts/Market.sol:Market",
        "label": "floatingAssetsAverage",
        "offset": 0,
        "slot": "222",
        "type": "t_uint256"
      },
      {
        "astId": 7454,
        "contract": "contracts/Market.sol:Market",
        "label": "totalFloatingBorrowShares",
        "offset": 0,
        "slot": "223",
        "type": "t_uint256"
      },
      {
        "astId": 7457,
        "contract": "contracts/Market.sol:Market",
        "label": "__gap",
        "offset": 0,
        "slot": "224",
        "type": "t_uint256"
      },
      {
        "astId": 7460,
        "contract": "contracts/Market.sol:Market",
        "label": "treasury",
        "offset": 0,
        "slot": "225",
        "type": "t_address"
      },
      {
        "astId": 7463,
        "contract": "contracts/Market.sol:Market",
        "label": "treasuryFeeRate",
        "offset": 0,
        "slot": "226",
        "type": "t_uint256"
      },
      {
        "astId": 7467,
        "contract": "contracts/Market.sol:Market",
        "label": "rewardsController",
        "offset": 0,
        "slot": "227",
        "type": "t_contract(RewardsController)15051"
      },
      {
        "astId": 7470,
        "contract": "contracts/Market.sol:Market",
        "label": "isFrozen",
        "offset": 20,
        "slot": "227",
        "type": "t_bool"
      },
      {
        "astId": 7476,
        "contract": "contracts/Market.sol:Market",
        "label": "fixedConsolidated",
        "offset": 0,
        "slot": "228",
        "type": "t_mapping(t_address,t_struct(FixedOps)11554_storage)"
      },
      {
        "astId": 7480,
        "contract": "contracts/Market.sol:Market",
        "label": "fixedOps",
        "offset": 0,
        "slot": "229",
        "type": "t_struct(FixedOps)11554_storage"
      },
      {
        "astId": 7485,
        "contract": "contracts/Market.sol:Market",
        "label": "isInitialized",
        "offset": 0,
        "slot": "231",
        "type": "t_mapping(t_address,t_bool)"
      }
    ],
    "types": {
      "t_address": {
        "encoding": "inplace",
        "label": "address",
        "numberOfBytes": "20"
      },
      "t_array(t_uint256)49_storage": {
        "base": "t_uint256",
        "encoding": "inplace",
        "label": "uint256[49]",
        "numberOfBytes": "1568"
      },
      "t_array(t_uint256)50_storage": {
        "base": "t_uint256",
        "encoding": "inplace",
        "label": "uint256[50]",
        "numberOfBytes": "1600"
      },
      "t_bool": {
        "encoding": "inplace",
        "label": "bool",
        "numberOfBytes": "1"
      },
      "t_bytes32": {
        "encoding": "inplace",
        "label": "bytes32",
        "numberOfBytes": "32"
      },
      "t_contract(InterestRateModel)7266": {
        "encoding": "inplace",
        "label": "contract InterestRateModel",
        "numberOfBytes": "20"
      },
      "t_contract(RewardsController)15051": {
        "encoding": "inplace",
        "label": "contract RewardsController",
        "numberOfBytes": "20"
      },
      "t_mapping(t_address,t_bool)": {
        "encoding": "mapping",
        "key": "t_address",
        "label": "mapping(address => bool)",
        "numberOfBytes": "32",
        "value": "t_bool"
      },
      "t_mapping(t_address,t_mapping(t_address,t_uint256))": {
        "encoding": "mapping",
        "key": "t_address",
        "label": "mapping(address => mapping(address => uint256))",
        "numberOfBytes": "32",
        "value": "t_mapping(t_address,t_uint256)"
      },
      "t_mapping(t_address,t_struct(Account)11548_storage)": {
        "encoding": "mapping",
        "key": "t_address",
        "label": "mapping(address => struct Market.Account)",
        "numberOfBytes": "32",
        "value": "t_struct(Account)11548_storage"
      },
      "t_mapping(t_address,t_struct(FixedOps)11554_storage)": {
        "encoding": "mapping",
        "key": "t_address",
        "label": "mapping(address => struct Market.FixedOps)",
        "numberOfBytes": "32",
        "value": "t_struct(FixedOps)11554_storage"
      },
      "t_mapping(t_address,t_struct(Position)15911_storage)": {
        "encoding": "mapping",
        "key": "t_address",
        "label": "mapping(address => struct FixedLib.Position)",
        "numberOfBytes": "32",
        "value": "t_struct(Position)15911_storage"
      },
      "t_mapping(t_address,t_uint256)": {
        "encoding": "mapping",
        "key": "t_address",
        "label": "mapping(address => uint256)",
        "numberOfBytes": "32",
        "value": "t_uint256"
      },
      "t_mapping(t_bytes32,t_struct(RoleData)23_storage)": {
        "encoding": "mapping",
        "key": "t_bytes32",
        "label": "mapping(bytes32 => struct AccessControlUpgradeable.RoleData)",
        "numberOfBytes": "32",
        "value": "t_struct(RoleData)23_storage"
      },
      "t_mapping(t_uint256,t_mapping(t_address,t_struct(Position)15911_storage))": {
        "encoding": "mapping",
        "key": "t_uint256",
        "label": "mapping(uint256 => mapping(address => struct FixedLib.Position))",
        "numberOfBytes": "32",
        "value": "t_mapping(t_address,t_struct(Position)15911_storage)"
      },
      "t_mapping(t_uint256,t_struct(Pool)15905_storage)": {
        "encoding": "mapping",
        "key": "t_uint256",
        "label": "mapping(uint256 => struct FixedLib.Pool)",
        "numberOfBytes": "32",
        "value": "t_struct(Pool)15905_storage"
      },
      "t_string_storage": {
        "encoding": "bytes",
        "label": "string",
        "numberOfBytes": "32"
      },
      "t_struct(Account)11548_storage": {
        "encoding": "inplace",
        "label": "struct Market.Account",
        "members": [
          {
            "astId": 11543,
            "contract": "contracts/Market.sol:Market",
            "label": "fixedDeposits",
            "offset": 0,
            "slot": "0",
            "type": "t_uint256"
          },
          {
            "astId": 11545,
            "contract": "contracts/Market.sol:Market",
            "label": "fixedBorrows",
            "offset": 0,
            "slot": "1",
            "type": "t_uint256"
          },
          {
            "astId": 11547,
            "contract": "contracts/Market.sol:Market",
            "label": "floatingBorrowShares",
            "offset": 0,
            "slot": "2",
            "type": "t_uint256"
          }
        ],
        "numberOfBytes": "96"
      },
      "t_struct(FixedOps)11554_storage": {
        "encoding": "inplace",
        "label": "struct Market.FixedOps",
        "members": [
          {
            "astId": 11551,
            "contract": "contracts/Market.sol:Market",
            "label": "deposits",
            "offset": 0,
            "slot": "0",
            "type": "t_uint256"
          },
          {
            "astId": 11553,
            "contract": "contracts/Market.sol:Market",
            "label": "borrows",
            "offset": 0,
            "slot": "1",
            "type": "t_uint256"
          }
        ],
        "numberOfBytes": "64"
      },
      "t_struct(Pool)15905_storage": {
        "encoding": "inplace",
        "label": "struct FixedLib.Pool",
        "members": [
          {
            "astId": 15898,
            "contract": "contracts/Market.sol:Market",
            "label": "borrowed",
            "offset": 0,
            "slot": "0",
            "type": "t_uint256"
          },
          {
            "astId": 15900,
            "contract": "contracts/Market.sol:Market",
            "label": "supplied",
            "offset": 0,
            "slot": "1",
            "type": "t_uint256"
          },
          {
            "astId": 15902,
            "contract": "contracts/Market.sol:Market",
            "label": "unassignedEarnings",
            "offset": 0,
            "slot": "2",
            "type": "t_uint256"
          },
          {
            "astId": 15904,
            "contract": "contracts/Market.sol:Market",
            "label": "lastAccrual",
            "offset": 0,
            "slot": "3",
            "type": "t_uint256"
          }
        ],
        "numberOfBytes": "128"
      },
      "t_struct(Position)15911_storage": {
        "encoding": "inplace",
        "label": "struct FixedLib.Position",
        "members": [
          {
            "astId": 15908,
            "contract": "contracts/Market.sol:Market",
            "label": "principal",
            "offset": 0,
            "slot": "0",
            "type": "t_uint256"
          },
          {
            "astId": 15910,
            "contract": "contracts/Market.sol:Market",
            "label": "fee",
            "offset": 0,
            "slot": "1",
            "type": "t_uint256"
          }
        ],
        "numberOfBytes": "64"
      },
      "t_struct(RoleData)23_storage": {
        "encoding": "inplace",
        "label": "struct AccessControlUpgradeable.RoleData",
        "members": [
          {
            "astId": 20,
            "contract": "contracts/Market.sol:Market",
            "label": "members",
            "offset": 0,
            "slot": "0",
            "type": "t_mapping(t_address,t_bool)"
          },
          {
            "astId": 22,
            "contract": "contracts/Market.sol:Market",
            "label": "adminRole",
            "offset": 0,
            "slot": "1",
            "type": "t_bytes32"
          }
        ],
        "numberOfBytes": "64"
      },
      "t_uint128": {
        "encoding": "inplace",
        "label": "uint128",
        "numberOfBytes": "16"
      },
      "t_uint256": {
        "encoding": "inplace",
        "label": "uint256",
        "numberOfBytes": "32"
      },
      "t_uint32": {
        "encoding": "inplace",
        "label": "uint32",
        "numberOfBytes": "4"
      },
      "t_uint8": {
        "encoding": "inplace",
        "label": "uint8",
        "numberOfBytes": "1"
      }
    }
  }
}