{
  "address": "0x0b925fc3466C9d7a4b1058EE95cA86b97690edbb",
  "abi": [
    {
      "inputs": [
        {
          "internalType": "uint8",
          "name": "decimals_",
          "type": "uint8"
        },
        {
          "internalType": "int256",
          "name": "price_",
          "type": "int256"
        }
      ],
      "stateMutability": "nonpayable",
      "type": "constructor"
    },
    {
      "anonymous": false,
      "inputs": [
        {
          "indexed": true,
          "internalType": "int256",
          "name": "current",
          "type": "int256"
        },
        {
          "indexed": true,
          "internalType": "uint256",
          "name": "roundId",
          "type": "uint256"
        },
        {
          "indexed": false,
          "internalType": "uint256",
          "name": "timestamp",
          "type": "uint256"
        }
      ],
      "name": "AnswerUpdated",
      "type": "event"
    },
    {
      "inputs": [],
      "name": "decimals",
      "outputs": [
        {
          "internalType": "uint8",
          "name": "",
          "type": "uint8"
        }
      ],
      "stateMutability": "view",
      "type": "function"
    },
    {
      "inputs": [],
      "name": "latestAnswer",
      "outputs": [
        {
          "internalType": "int256",
          "name": "",
          "type": "int256"
        }
      ],
      "stateMutability": "view",
      "type": "function"
    },
    {
      "inputs": [],
      "name": "price",
      "outputs": [
        {
          "internalType": "int256",
          "name": "",
          "type": "int256"
        }
      ],
      "stateMutability": "view",
      "type": "function"
    },
    {
      "inputs": [
        {
          "internalType": "int256",
          "name": "price_",
          "type": "int256"
        }
      ],
      "name": "setPrice",
      "outputs": [],
      "stateMutability": "nonpayable",
      "type": "function"
    }
  ],
  "transactionHash": "0xd6ff2f1ee6984f35ecbab88dafe850b868f3e8b21f4622431dab5930c8307040",
  "args": [
    8,
    "100000000"
  ],
  "numDeployments": 1,
  "solcInputHash": "68c1f2da1fa9af8ddb3bbbd41fd709ed",
  "bytecode": "0x60a060405234801561000f575f80fd5b5060405161020c38038061020c83398101604081905261002e91610081565b60ff821660805261003e81610045565b50506100b2565b5f81815560405142815282907f0559884fd3a460db3073b7fc896cc77986f16e378210ded43186175bf646fc5f9060200160405180910390a350565b5f8060408385031215610092575f80fd5b825160ff811681146100a2575f80fd5b6020939093015192949293505050565b6080516101436100c95f395f605301526101435ff3fe608060405234801561000f575f80fd5b506004361061004a575f3560e01c8063313ce5671461004e57806350d25bcd1461008c578063a035b1fe1461009d578063f7a30806146100a5575b5f80fd5b6100757f000000000000000000000000000000000000000000000000000000000000000081565b60405160ff90911681526020015b60405180910390f35b5f545b604051908152602001610083565b61008f5f5481565b6100b86100b33660046100f6565b6100ba565b005b5f81815560405142815282907f0559884fd3a460db3073b7fc896cc77986f16e378210ded43186175bf646fc5f9060200160405180910390a350565b5f60208284031215610106575f80fd5b503591905056fea2646970667358221220f14b91a4dff8a2d1c182e7df27c9176c633568e64d6891aca5187d15bd7dbae064736f6c63430008170033",
  "devdoc": {
    "kind": "dev",
    "methods": {},
    "version": 1
  },
  "userdoc": {
    "kind": "user",
    "methods": {},
    "version": 1
  },
  "storageLayout": {
    "storage": [
      {
        "astId": 23958,
        "contract": "contracts/mocks/MockPriceFeed.sol:MockPriceFeed",
        "label": "price",
        "offset": 0,
        "slot": "0",
        "type": "t_int256"
      }
    ],
    "types": {
      "t_int256": {
        "encoding": "inplace",
        "label": "int256",
        "numberOfBytes": "32"
      }
    }
  }
}