{
  "address": "0x8cc77B081DD126cECC3C60ba0FA697d456226855",
  "abi": [
    {
      "inputs": [],
      "stateMutability": "nonpayable",
      "type": "constructor"
    },
    {
      "inputs": [],
      "name": "IndexOverflow",
      "type": "error"
    },
    {
      "inputs": [],
      "name": "InvalidConfig",
      "type": "error"
    },
    {
      "inputs": [],
      "name": "NotKeeper",
      "type": "error"
    },
    {
      "anonymous": false,
      "inputs": [
        {
          "indexed": true,
          "internalType": "contract Market",
          "name": "market",
          "type": "address"
        },
        {
          "indexed": true,
          "internalType": "contract ERC20",
          "name": "reward",
          "type": "address"
        },
        {
          "indexed": true,
          "internalType": "address",
          "name": "account",
          "type": "address"
        },
        {
          "indexed": false,
          "internalType": "bool",
          "name": "operation",
          "type": "bool"
        },
        {
          "indexed": false,
          "internalType": "uint256",
          "name": "accountIndex",
          "type": "uint256"
        },
        {
          "indexed": false,
          "internalType": "uint256",
          "name": "operationIndex",
          "type": "uint256"
        },
        {
          "indexed": false,
          "internalType": "uint256",
          "name": "rewardsAccrued",
          "type": "uint256"
        }
      ],
      "name": "Accrue",
      "type": "event"
    },
    {
      "anonymous": false,
      "inputs": [
        {
          "indexed": true,
          "internalType": "address",
          "name": "account",
          "type": "address"
        },
        {
          "indexed": true,
          "internalType": "contract ERC20",
          "name": "reward",
          "type": "address"
        },
        {
          "indexed": true,
          "internalType": "address",
          "name": "to",
          "type": "address"
        },
        {
          "indexed": false,
          "internalType": "uint256",
          "name": "amount",
          "type": "uint256"
        }
      ],
      "name": "Claim",
      "type": "event"
    },
    {
      "anonymous": false,
      "inputs": [
        {
          "indexed": true,
          "internalType": "contract Market",
          "name": "market",
          "type": "address"
        },
        {
          "indexed": true,
          "internalType": "contract ERC20",
          "name": "reward",
          "type": "address"
        },
        {
          "components": [
            {
              "internalType": "contract Market",
              "name": "market",
              "type": "address"
            },
            {
              "internalType": "contract ERC20",
              "name": "reward",
              "type": "address"
            },
            {
              "internalType": "contract IPriceFeed",
              "name": "priceFeed",
              "type": "address"
            },
            {
              "internalType": "uint32",
              "name": "start",
              "type": "uint32"
            },
            {
              "internalType": "uint256",
              "name": "distributionPeriod",
              "type": "uint256"
            },
            {
              "internalType": "uint256",
              "name": "targetDebt",
              "type": "uint256"
            },
            {
              "internalType": "uint256",
              "name": "totalDistribution",
              "type": "uint256"
            },
            {
              "internalType": "uint256",
              "name": "undistributedFactor",
              "type": "uint256"
            },
            {
              "internalType": "int128",
              "name": "flipSpeed",
              "type": "int128"
            },
            {
              "internalType": "uint64",
              "name": "compensationFactor",
              "type": "uint64"
            },
            {
              "internalType": "uint64",
              "name": "transitionFactor",
              "type": "uint64"
            },
            {
              "internalType": "uint64",
              "name": "borrowAllocationWeightFactor",
              "type": "uint64"
            },
            {
              "internalType": "uint64",
              "name": "depositAllocationWeightAddend",
              "type": "uint64"
            },
            {
              "internalType": "uint64",
              "name": "depositAllocationWeightFactor",
              "type": "uint64"
            }
          ],
          "indexed": false,
          "internalType": "struct RewardsController.Config",
          "name": "config",
          "type": "tuple"
        }
      ],
      "name": "DistributionSet",
      "type": "event"
    },
    {
      "anonymous": false,
      "inputs": [
        {
          "indexed": true,
          "internalType": "contract Market",
          "name": "market",
          "type": "address"
        },
        {
          "indexed": true,
          "internalType": "contract ERC20",
          "name": "reward",
          "type": "address"
        },
        {
          "indexed": false,
          "internalType": "uint256",
          "name": "borrowIndex",
          "type": "uint256"
        },
        {
          "indexed": false,
          "internalType": "uint256",
          "name": "depositIndex",
          "type": "uint256"
        },
        {
          "indexed": false,
          "internalType": "uint256",
          "name": "newUndistributed",
          "type": "uint256"
        },
        {
          "indexed": false,
          "internalType": "uint256",
          "name": "lastUpdate",
          "type": "uint256"
        }
      ],
      "name": "IndexUpdate",
      "type": "event"
    },
    {
      "anonymous": false,
      "inputs": [
        {
          "indexed": false,
          "internalType": "uint8",
          "name": "version",
          "type": "uint8"
        }
      ],
      "name": "Initialized",
      "type": "event"
    },
    {
      "anonymous": false,
      "inputs": [
        {
          "indexed": true,
          "internalType": "bytes32",
          "name": "role",
          "type": "bytes32"
        },
        {
          "indexed": true,
          "internalType": "bytes32",
          "name": "previousAdminRole",
          "type": "bytes32"
        },
        {
          "indexed": true,
          "internalType": "bytes32",
          "name": "newAdminRole",
          "type": "bytes32"
        }
      ],
      "name": "RoleAdminChanged",
      "type": "event"
    },
    {
      "anonymous": false,
      "inputs": [
        {
          "indexed": true,
          "internalType": "bytes32",
          "name": "role",
          "type": "bytes32"
        },
        {
          "indexed": true,
          "internalType": "address",
          "name": "account",
          "type": "address"
        },
        {
          "indexed": true,
          "internalType": "address",
          "name": "sender",
          "type": "address"
        }
      ],
      "name": "RoleGranted",
      "type": "event"
    },
    {
      "anonymous": false,
      "inputs": [
        {
          "indexed": true,
          "internalType": "bytes32",
          "name": "role",
          "type": "bytes32"
        },
        {
          "indexed": true,
          "internalType": "address",
          "name": "account",
          "type": "address"
        },
        {
          "indexed": true,
          "internalType": "address",
          "name": "sender",
          "type": "address"
        }
      ],
      "name": "RoleRevoked",
      "type": "event"
    },
    {
      "inputs": [],
      "name": "DEFAULT_ADMIN_ROLE",
      "outputs": [
        {
          "internalType": "bytes32",
          "name": "",
          "type": "bytes32"
        }
      ],
      "stateMutability": "view",
      "type": "function"
    },
    {
      "inputs": [],
      "name": "DOMAIN_SEPARATOR",
      "outputs": [
        {
          "internalType": "bytes32",
          "name": "",
          "type": "bytes32"
        }
      ],
      "stateMutability": "view",
      "type": "function"
    },
    {
      "inputs": [],
      "name": "UTILIZATION_CAP",
      "outputs": [
        {
          "internalType": "uint256",
          "name": "",
          "type": "uint256"
        }
      ],
      "stateMutability": "view",
      "type": "function"
    },
    {
      "inputs": [
        {
          "internalType": "address",
          "name": "account",
          "type": "address"
        },
        {
          "internalType": "contract Market",
          "name": "market",
          "type": "address"
        },
        {
          "internalType": "bool",
          "name": "operation",
          "type": "bool"
        },
        {
          "internalType": "contract ERC20",
          "name": "reward",
          "type": "address"
        }
      ],
      "name": "accountOperation",
      "outputs": [
        {
          "internalType": "uint256",
          "name": "",
          "type": "uint256"
        },
        {
          "internalType": "uint256",
          "name": "",
          "type": "uint256"
        }
      ],
      "stateMutability": "view",
      "type": "function"
    },
    {
      "inputs": [
        {
          "internalType": "address",
          "name": "account",
          "type": "address"
        },
        {
          "internalType": "contract ERC20",
          "name": "reward",
          "type": "address"
        }
      ],
      "name": "allClaimable",
      "outputs": [
        {
          "internalType": "uint256",
          "name": "unclaimedRewards",
          "type": "uint256"
        }
      ],
      "stateMutability": "view",
      "type": "function"
    },
    {
      "inputs": [],
      "name": "allMarketsOperations",
      "outputs": [
        {
          "components": [
            {
              "internalType": "contract Market",
              "name": "market",
              "type": "address"
            },
            {
              "internalType": "bool[]",
              "name": "operations",
              "type": "bool[]"
            }
          ],
          "internalType": "struct RewardsController.MarketOperation[]",
          "name": "marketOps",
          "type": "tuple[]"
        }
      ],
      "stateMutability": "view",
      "type": "function"
    },
    {
      "inputs": [],
      "name": "allRewards",
      "outputs": [
        {
          "internalType": "contract ERC20[]",
          "name": "",
          "type": "address[]"
        }
      ],
      "stateMutability": "view",
      "type": "function"
    },
    {
      "inputs": [
        {
          "internalType": "contract Market",
          "name": "market",
          "type": "address"
        }
      ],
      "name": "availableRewardsCount",
      "outputs": [
        {
          "internalType": "uint256",
          "name": "",
          "type": "uint256"
        }
      ],
      "stateMutability": "view",
      "type": "function"
    },
    {
      "inputs": [
        {
          "components": [
            {
              "internalType": "contract Market",
              "name": "market",
              "type": "address"
            },
            {
              "internalType": "bool[]",
              "name": "operations",
              "type": "bool[]"
            }
          ],
          "internalType": "struct RewardsController.MarketOperation[]",
          "name": "marketOps",
          "type": "tuple[]"
        },
        {
          "components": [
            {
              "internalType": "address",
              "name": "owner",
              "type": "address"
            },
            {
              "internalType": "contract ERC20[]",
              "name": "assets",
              "type": "address[]"
            },
            {
              "internalType": "uint256",
              "name": "deadline",
              "type": "uint256"
            },
            {
              "internalType": "uint8",
              "name": "v",
              "type": "uint8"
            },
            {
              "internalType": "bytes32",
              "name": "r",
              "type": "bytes32"
            },
            {
              "internalType": "bytes32",
              "name": "s",
              "type": "bytes32"
            }
          ],
          "internalType": "struct ClaimPermit",
          "name": "permit",
          "type": "tuple"
        }
      ],
      "name": "claim",
      "outputs": [
        {
          "internalType": "contract ERC20[]",
          "name": "",
          "type": "address[]"
        },
        {
          "internalType": "uint256[]",
          "name": "claimedAmounts",
          "type": "uint256[]"
        }
      ],
      "stateMutability": "nonpayable",
      "type": "function"
    },
    {
      "inputs": [
        {
          "components": [
            {
              "internalType": "contract Market",
              "name": "market",
              "type": "address"
            },
            {
              "internalType": "bool[]",
              "name": "operations",
              "type": "bool[]"
            }
          ],
          "internalType": "struct RewardsController.MarketOperation[]",
          "name": "marketOps",
          "type": "tuple[]"
        },
        {
          "internalType": "address",
          "name": "to",
          "type": "address"
        },
        {
          "internalType": "contract ERC20[]",
          "name": "rewardsList",
          "type": "address[]"
        }
      ],
      "name": "claim",
      "outputs": [
        {
          "internalType": "contract ERC20[]",
          "name": "",
          "type": "address[]"
        },
        {
          "internalType": "uint256[]",
          "name": "",
          "type": "uint256[]"
        }
      ],
      "stateMutability": "nonpayable",
      "type": "function"
    },
    {
      "inputs": [
        {
          "internalType": "address",
          "name": "to",
          "type": "address"
        }
      ],
      "name": "claimAll",
      "outputs": [
        {
          "internalType": "contract ERC20[]",
          "name": "rewardsList",
          "type": "address[]"
        },
        {
          "internalType": "uint256[]",
          "name": "claimedAmounts",
          "type": "uint256[]"
        }
      ],
      "stateMutability": "nonpayable",
      "type": "function"
    },
    {
      "inputs": [
        {
          "components": [
            {
              "internalType": "contract Market",
              "name": "market",
              "type": "address"
            },
            {
              "internalType": "bool[]",
              "name": "operations",
              "type": "bool[]"
            }
          ],
          "internalType": "struct RewardsController.MarketOperation[]",
          "name": "marketOps",
          "type": "tuple[]"
        },
        {
          "internalType": "address",
          "name": "account",
          "type": "address"
        },
        {
          "internalType": "contract ERC20[]",
          "name": "rewardsList",
          "type": "address[]"
        }
      ],
      "name": "claimOnBehalfOf",
      "outputs": [
        {
          "internalType": "contract ERC20[]",
          "name": "",
          "type": "address[]"
        },
        {
          "internalType": "uint256[]",
          "name": "",
          "type": "uint256[]"
        }
      ],
      "stateMutability": "nonpayable",
      "type": "function"
    },
    {
      "inputs": [
        {
          "components": [
            {
              "internalType": "contract Market",
              "name": "market",
              "type": "address"
            },
            {
              "internalType": "bool[]",
              "name": "operations",
              "type": "bool[]"
            }
          ],
          "internalType": "struct RewardsController.MarketOperation[]",
          "name": "marketOps",
          "type": "tuple[]"
        },
        {
          "internalType": "address",
          "name": "account",
          "type": "address"
        },
        {
          "internalType": "contract ERC20",
          "name": "reward",
          "type": "address"
        }
      ],
      "name": "claimable",
      "outputs": [
        {
          "internalType": "uint256",
          "name": "unclaimedRewards",
          "type": "uint256"
        }
      ],
      "stateMutability": "view",
      "type": "function"
    },
    {
      "inputs": [
        {
          "components": [
            {
              "internalType": "contract Market",
              "name": "market",
              "type": "address"
            },
            {
              "internalType": "contract ERC20",
              "name": "reward",
              "type": "address"
            },
            {
              "internalType": "contract IPriceFeed",
              "name": "priceFeed",
              "type": "address"
            },
            {
              "internalType": "uint32",
              "name": "start",
              "type": "uint32"
            },
            {
              "internalType": "uint256",
              "name": "distributionPeriod",
              "type": "uint256"
            },
            {
              "internalType": "uint256",
              "name": "targetDebt",
              "type": "uint256"
            },
            {
              "internalType": "uint256",
              "name": "totalDistribution",
              "type": "uint256"
            },
            {
              "internalType": "uint256",
              "name": "undistributedFactor",
              "type": "uint256"
            },
            {
              "internalType": "int128",
              "name": "flipSpeed",
              "type": "int128"
            },
            {
              "internalType": "uint64",
              "name": "compensationFactor",
              "type": "uint64"
            },
            {
              "internalType": "uint64",
              "name": "transitionFactor",
              "type": "uint64"
            },
            {
              "internalType": "uint64",
              "name": "borrowAllocationWeightFactor",
              "type": "uint64"
            },
            {
              "internalType": "uint64",
              "name": "depositAllocationWeightAddend",
              "type": "uint64"
            },
            {
              "internalType": "uint64",
              "name": "depositAllocationWeightFactor",
              "type": "uint64"
            }
          ],
          "internalType": "struct RewardsController.Config[]",
          "name": "configs",
          "type": "tuple[]"
        }
      ],
      "name": "config",
      "outputs": [],
      "stateMutability": "nonpayable",
      "type": "function"
    },
    {
      "inputs": [
        {
          "internalType": "contract Market",
          "name": "",
          "type": "address"
        }
      ],
      "name": "distribution",
      "outputs": [
        {
          "internalType": "uint8",
          "name": "availableRewardsCount",
          "type": "uint8"
        },
        {
          "internalType": "uint256",
          "name": "baseUnit",
          "type": "uint256"
        }
      ],
      "stateMutability": "view",
      "type": "function"
    },
    {
      "inputs": [
        {
          "internalType": "contract Market",
          "name": "market",
          "type": "address"
        },
        {
          "internalType": "contract ERC20",
          "name": "reward",
          "type": "address"
        }
      ],
      "name": "distributionTime",
      "outputs": [
        {
          "internalType": "uint32",
          "name": "",
          "type": "uint32"
        },
        {
          "internalType": "uint32",
          "name": "",
          "type": "uint32"
        },
        {
          "internalType": "uint32",
          "name": "",
          "type": "uint32"
        }
      ],
      "stateMutability": "view",
      "type": "function"
    },
    {
      "inputs": [
        {
          "internalType": "bytes32",
          "name": "role",
          "type": "bytes32"
        }
      ],
      "name": "getRoleAdmin",
      "outputs": [
        {
          "internalType": "bytes32",
          "name": "",
          "type": "bytes32"
        }
      ],
      "stateMutability": "view",
      "type": "function"
    },
    {
      "inputs": [
        {
          "internalType": "bytes32",
          "name": "role",
          "type": "bytes32"
        },
        {
          "internalType": "address",
          "name": "account",
          "type": "address"
        }
      ],
      "name": "grantRole",
      "outputs": [],
      "stateMutability": "nonpayable",
      "type": "function"
    },
    {
      "inputs": [
        {
          "internalType": "address",
          "name": "account",
          "type": "address"
        }
      ],
      "name": "handleBorrow",
      "outputs": [],
      "stateMutability": "nonpayable",
      "type": "function"
    },
    {
      "inputs": [
        {
          "internalType": "address",
          "name": "account",
          "type": "address"
        }
      ],
      "name": "handleDeposit",
      "outputs": [],
      "stateMutability": "nonpayable",
      "type": "function"
    },
    {
      "inputs": [
        {
          "internalType": "bytes32",
          "name": "role",
          "type": "bytes32"
        },
        {
          "internalType": "address",
          "name": "account",
          "type": "address"
        }
      ],
      "name": "hasRole",
      "outputs": [
        {
          "internalType": "bool",
          "name": "",
          "type": "bool"
        }
      ],
      "stateMutability": "view",
      "type": "function"
    },
    {
      "inputs": [],
      "name": "initialize",
      "outputs": [],
      "stateMutability": "nonpayable",
      "type": "function"
    },
    {
      "inputs": [
        {
          "internalType": "address",
          "name": "account",
          "type": "address"
        }
      ],
      "name": "keepers",
      "outputs": [
        {
          "internalType": "address",
          "name": "keeper",
          "type": "address"
        }
      ],
      "stateMutability": "view",
      "type": "function"
    },
    {
      "inputs": [
        {
          "internalType": "uint256",
          "name": "",
          "type": "uint256"
        }
      ],
      "name": "marketList",
      "outputs": [
        {
          "internalType": "contract Market",
          "name": "",
          "type": "address"
        }
      ],
      "stateMutability": "view",
      "type": "function"
    },
    {
      "inputs": [
        {
          "internalType": "address",
          "name": "",
          "type": "address"
        }
      ],
      "name": "nonces",
      "outputs": [
        {
          "internalType": "uint256",
          "name": "",
          "type": "uint256"
        }
      ],
      "stateMutability": "view",
      "type": "function"
    },
    {
      "inputs": [
        {
          "internalType": "contract Market",
          "name": "market",
          "type": "address"
        },
        {
          "internalType": "contract ERC20",
          "name": "reward",
          "type": "address"
        },
        {
          "internalType": "uint256",
          "name": "deltaTime",
          "type": "uint256"
        }
      ],
      "name": "previewAllocation",
      "outputs": [
        {
          "internalType": "uint256",
          "name": "borrowIndex",
          "type": "uint256"
        },
        {
          "internalType": "uint256",
          "name": "depositIndex",
          "type": "uint256"
        },
        {
          "internalType": "uint256",
          "name": "newUndistributed",
          "type": "uint256"
        }
      ],
      "stateMutability": "view",
      "type": "function"
    },
    {
      "inputs": [
        {
          "internalType": "bytes32",
          "name": "role",
          "type": "bytes32"
        },
        {
          "internalType": "address",
          "name": "account",
          "type": "address"
        }
      ],
      "name": "renounceRole",
      "outputs": [],
      "stateMutability": "nonpayable",
      "type": "function"
    },
    {
      "inputs": [
        {
          "internalType": "bytes32",
          "name": "role",
          "type": "bytes32"
        },
        {
          "internalType": "address",
          "name": "account",
          "type": "address"
        }
      ],
      "name": "revokeRole",
      "outputs": [],
      "stateMutability": "nonpayable",
      "type": "function"
    },
    {
      "inputs": [
        {
          "internalType": "contract Market",
          "name": "market",
          "type": "address"
        },
        {
          "internalType": "contract ERC20",
          "name": "reward",
          "type": "address"
        }
      ],
      "name": "rewardConfig",
      "outputs": [
        {
          "components": [
            {
              "internalType": "contract Market",
              "name": "market",
              "type": "address"
            },
            {
              "internalType": "contract ERC20",
              "name": "reward",
              "type": "address"
            },
            {
              "internalType": "contract IPriceFeed",
              "name": "priceFeed",
              "type": "address"
            },
            {
              "internalType": "uint32",
              "name": "start",
              "type": "uint32"
            },
            {
              "internalType": "uint256",
              "name": "distributionPeriod",
              "type": "uint256"
            },
            {
              "internalType": "uint256",
              "name": "targetDebt",
              "type": "uint256"
            },
            {
              "internalType": "uint256",
              "name": "totalDistribution",
              "type": "uint256"
            },
            {
              "internalType": "uint256",
              "name": "undistributedFactor",
              "type": "uint256"
            },
            {
              "internalType": "int128",
              "name": "flipSpeed",
              "type": "int128"
            },
            {
              "internalType": "uint64",
              "name": "compensationFactor",
              "type": "uint64"
            },
            {
              "internalType": "uint64",
              "name": "transitionFactor",
              "type": "uint64"
            },
            {
              "internalType": "uint64",
              "name": "borrowAllocationWeightFactor",
              "type": "uint64"
            },
            {
              "internalType": "uint64",
              "name": "depositAllocationWeightAddend",
              "type": "uint64"
            },
            {
              "internalType": "uint64",
              "name": "depositAllocationWeightFactor",
              "type": "uint64"
            }
          ],
          "internalType": "struct RewardsController.Config",
          "name": "",
          "type": "tuple"
        }
      ],
      "stateMutability": "view",
      "type": "function"
    },
    {
      "inputs": [
        {
          "internalType": "contract ERC20",
          "name": "",
          "type": "address"
        }
      ],
      "name": "rewardEnabled",
      "outputs": [
        {
          "internalType": "bool",
          "name": "",
          "type": "bool"
        }
      ],
      "stateMutability": "view",
      "type": "function"
    },
    {
      "inputs": [
        {
          "internalType": "contract Market",
          "name": "market",
          "type": "address"
        },
        {
          "internalType": "contract ERC20",
          "name": "reward",
          "type": "address"
        }
      ],
      "name": "rewardIndexes",
      "outputs": [
        {
          "internalType": "uint256",
          "name": "",
          "type": "uint256"
        },
        {
          "internalType": "uint256",
          "name": "",
          "type": "uint256"
        },
        {
          "internalType": "uint256",
          "name": "",
          "type": "uint256"
        }
      ],
      "stateMutability": "view",
      "type": "function"
    },
    {
      "inputs": [
        {
          "internalType": "uint256",
          "name": "",
          "type": "uint256"
        }
      ],
      "name": "rewardList",
      "outputs": [
        {
          "internalType": "contract ERC20",
          "name": "",
          "type": "address"
        }
      ],
      "stateMutability": "view",
      "type": "function"
    },
    {
      "inputs": [
        {
          "internalType": "address",
          "name": "account",
          "type": "address"
        },
        {
          "internalType": "address",
          "name": "keeper",
          "type": "address"
        }
      ],
      "name": "setKeeper",
      "outputs": [],
      "stateMutability": "nonpayable",
      "type": "function"
    },
    {
      "inputs": [
        {
          "internalType": "bytes4",
          "name": "interfaceId",
          "type": "bytes4"
        }
      ],
      "name": "supportsInterface",
      "outputs": [
        {
          "internalType": "bool",
          "name": "",
          "type": "bool"
        }
      ],
      "stateMutability": "view",
      "type": "function"
    },
    {
      "inputs": [
        {
          "internalType": "contract ERC20",
          "name": "asset",
          "type": "address"
        },
        {
          "internalType": "address",
          "name": "to",
          "type": "address"
        }
      ],
      "name": "withdraw",
      "outputs": [],
      "stateMutability": "nonpayable",
      "type": "function"
    }
  ],
  "transactionHash": "0xbc9b0d72e26cf4ac12337b04c64b77928331d325ee55fe987e1ee24b8065fe12",
  "args": [],
  "numDeployments": 3,
  "solcInputHash": "6a557ee70d62b80968609ef7922ee609",
  "bytecode": "0x6080604052348015600e575f80fd5b5060156019565b607b565b5f54610100900460ff1615602b575f80fd5b5f5460ff908116146079575f805460ff191660ff9081179091556040519081527f7f26b83ff96e1f2b6a682f133852f6798a09c465da95921460cefb38474024989060200160405180910390a15b565b6150ab806100885f395ff3fe608060405234801561000f575f80fd5b5060043610610235575f3560e01c806377329f351161013d578063c2db09c1116100b8578063de7ea7c611610088578063f2426f9a1161006e578063f2426f9a14610748578063f940e38514610768578063fc1960681461077b575f80fd5b8063de7ea7c614610713578063e9c50ff714610726575f80fd5b8063c2db09c114610696578063d219f395146106de578063d547741f146106f1578063d681afb514610704575f80fd5b806391d148541161010d578063a361654a116100f3578063a361654a1461063e578063b658e67314610653578063b7eec41314610681575f80fd5b806391d14854146105ff578063a217fddf14610637575f80fd5b806377329f35146105b25780637ecebe00146105c55780638129fc1c146105e45780638acbf3de146105ec575f80fd5b806336568abe116101cd5780635684aa461161019d57806364e8d1801161018357806364e8d180146105795780636c912dad1461058c578063714b25231461059f575f80fd5b80635684aa46146104d85780635dadb2dc14610558575f80fd5b806336568abe14610418578063382e85ad1461042b5780633bbd64bc1461043e57806344e250f814610466575f80fd5b8063248a9ca311610208578063248a9ca3146102b4578063249e6d9c146102e45780632f2ff15d1461035e5780633644e51514610371575f80fd5b80630149e46f1461023957806301ffc9a71461024e57806310d6667714610276578063232b956c146102a1575b5f80fd5b61024c610247366004614276565b61078e565b005b61026161025c366004614291565b6108e6565b60405190151581526020015b60405180910390f35b6102896102843660046142b8565b61094e565b6040516001600160a01b03909116815260200161026d565b6102896102af3660046142b8565b610976565b6102d66102c23660046142b8565b5f9081526065602052604090206001015490565b60405190815260200161026d565b6103496102f23660046142ee565b6001600160a01b039283165f9081526097602090815260408083209386168352928152828220959094168152600b9094018352808420911515845291529020546001600160801b03600160801b8204811692911690565b6040805192835260208301919091520161026d565b61024c61036c366004614345565b610985565b6102d6604080517f8b73c3c69bb8fe3d512ecc4cf759cc79239f7b179b0ffacaa9a75d522b39400f60208201527f2c55a9465497be0b743b67bd2d3ee61e8212e4c4aa51feb7beee992dcf383117918101919091527fc89efdaa54c0f20c7adf612882df0950f5a951637e0307cdcb4c672f298b8bc660608201524660808201523060a08201525f9060c00160405160208183030381529060405280519060200120905090565b61024c610426366004614345565b6109ae565b6102d661043936600461456c565b6109d0565b61028961044c366004614276565b609d6020525f90815260409020546001600160a01b031681565b6104bd6104743660046145cc565b6001600160a01b039182165f908152609760209081526040808320939094168252919091522060078101546004909101546001600160801b0380831693600160801b9093041691565b6040805193845260208401929092529082015260600161026d565b6105316104e63660046145cc565b6001600160a01b039182165f90815260976020908152604080832093909416825291909152206008015463ffffffff808216926401000000008304821692600160401b900490911690565b6040805163ffffffff9485168152928416602084015292169181019190915260600161026d565b61056b6105663660046145f8565b610b66565b60405161026d92919061469b565b61024c6105873660046145cc565b610e88565b61024c61059a366004614276565b610ec0565b61056b6105ad3660046146f3565b611042565b61056b6105c0366004614276565b6110b2565b6102d66105d3366004614276565b609b6020525f908152604090205481565b61024c611128565b6102d66105fa3660046145cc565b6111e2565b61026161060d366004614345565b5f9182526065602090815260408084206001600160a01b0393909316845291905290205460ff1690565b6102d65f81565b6106466111fc565b60405161026d91906147cb565b6102d6610661366004614276565b6001600160a01b03165f9081526097602052604090206002015460ff1690565b610689611395565b60405161026d919061487b565b6106c56106a4366004614276565b60976020525f90815260409020600281015460039091015460ff9091169082565b6040805160ff909316835260208301919091520161026d565b61056b6106ec3660046146f3565b6113f5565b61024c6106ff366004614345565b611452565b6102d6670de0b6b3a763ffff81565b61024c6107213660046148c8565b611476565b610261610734366004614276565b60986020525f908152604090205460ff1681565b61075b6107563660046145cc565b611fd2565b60405161026d9190614a42565b61024c6107763660046145cc565b612141565b6104bd610789366004614b7d565b6121c8565b60408051600180825281830190925233915f9190816020015b604080518082019091525f80825260208201528152602001906001900390816107a7579050506040805180820182525f815290516370a0823160e01b81526001600160a01b03868116600483015292935090916020830191908516906370a0823190602401602060405180830381865afa158015610827573d5f803e3d5ffd5b505050506040513d601f19601f8201168201806040525081019061084b9190614bbb565b815250815f8151811061086057610860614bd2565b6020908102919091018101919091526001600160a01b0383165f9081526097909152604081206002810154909160ff909116905b81816001600160801b031610156108de576001600160801b0381165f9081526001840160205260409020546108d690879087906001600160a01b03168761220d565b600101610894565b505050505050565b5f6001600160e01b031982167f7965db0b00000000000000000000000000000000000000000000000000000000148061094857507f01ffc9a7000000000000000000000000000000000000000000000000000000006001600160e01b03198316145b92915050565b6099818154811061095d575f80fd5b5f918252602090912001546001600160a01b0316905081565b609a818154811061095d575f80fd5b5f8281526065602052604090206001015461099f8161255e565b6109a98383612568565b505050565b6001600160a01b03811633146109c2575f80fd5b6109cc8282612608565b5050565b5f805b8451811015610b5e575f8582815181106109ef576109ef614bd2565b60209081029190910181015180516001600160a01b039081165f90815260978452604080822092891682529382905292832060028201549294509092909160ff169003610a44578360010193505050506109d3565b8251602084015160088301545f92610a659290918b9063ffffffff16612689565b90505f805b8251811015610b0f576001600160a01b038a165f908152600b8501602052604081208451909190859084908110610aa357610aa3614bd2565b60209081029190910181015151151582528101919091526040015f2054610ada90600160801b90046001600160801b031689614bfa565b9750828181518110610aee57610aee614bd2565b60200260200101516020015182610b059190614bfa565b9150600101610a6a565b508015610b4e57610b4189896040518060400160405280895f01516001600160a01b031681526020018681525061287f565b610b4b9088614bfa565b96505b85600101955050505050506109d3565b509392505050565b609c54606090819083906001600160a01b031615610b8657610b86614c0d565b4281604001351015610b9a57610b9a614c0d565b5f6001610c44604080517f8b73c3c69bb8fe3d512ecc4cf759cc79239f7b179b0ffacaa9a75d522b39400f60208201527f2c55a9465497be0b743b67bd2d3ee61e8212e4c4aa51feb7beee992dcf383117918101919091527fc89efdaa54c0f20c7adf612882df0950f5a951637e0307cdcb4c672f298b8bc660608201524660808201523060a08201525f9060c00160405160208183030381529060405280519060200120905090565b7f8b66e7894ecc5180298853ab3de30e198ac84d63bc1587efdff2eaa728ec269e610c726020860186614276565b33610c806020880188614c21565b609b5f610c9060208c018c614276565b6001600160a01b0316815260208082019290925260409081015f208054600181019091558151610ccb98979695949391928d01359101614c6e565b60405160208183030381529060405280519060200120604051602001610d239291907f190100000000000000000000000000000000000000000000000000000000000081526002810192909252602282015260420190565b60408051601f198184030181529190528051602090910120610d4b6080850160608601614cf4565b604080515f8152602081018083529390935260ff90911690820152608080850135606083015260a08086013591830191909152016020604051602081039080840390855afa158015610d9f573d5f803e3d5ffd5b5050604051601f1901519150506001600160a01b03811615801590610de15750610dcc6020830183614276565b6001600160a01b0316816001600160a01b0316145b610ded57610ded614c0d565b610dfa6020830183614276565b609c80546001600160a01b0319166001600160a01b039290921691909117905550610e638533610e2d6020880188614c21565b808060200260200160405190810160405280939291908181526020018383602002808284375f920191909152506113f592505050565b92509250609c546001600160a01b031615610e8057610e80614c0d565b509250929050565b5f610e928161255e565b506001600160a01b039182165f908152609d6020526040902080546001600160a01b03191691909216179055565b60408051600180825281830190925233915f9190816020015b604080518082019091525f8082526020820152815260200190600190039081610ed957905050604051632f2e037160e11b81526001600160a01b0385811660048301529192505f91841690635e5c06e290602401606060405180830381865afa158015610f48573d5f803e3d5ffd5b505050506040513d601f19601f82011682018060405250810190610f6c9190614d0f565b6001600160a01b0386165f9081526097602052604081206002810154929550935060ff90911691505b81816001600160801b03161015611039576001600160801b0381165f90815260018085016020908152604080842054815180830183529384526001600160a01b031680855287835293206008015490820190610ffa908a908c9063ffffffff166129dc565b6110049088614bfa565b815250865f8151811061101957611019614bd2565b60200260200101819052506110308833838961220d565b50600101610f95565b50505050505050565b6001600160a01b038281165f908152609d60205260409020546060918291163314611099576040517ff512b27800000000000000000000000000000000000000000000000000000000815260040160405180910390fd5b6110a585858686612bc1565b915091505b935093915050565b60608061111f6110c06111fc565b84609980548060200260200160405190810160405280929190818152602001828054801561111557602002820191905f5260205f20905b81546001600160a01b031681526001909101906020018083116110f7575b50505050506113f5565b91509150915091565b5f54610100900460ff161580801561114657505f54600160ff909116105b8061115f5750303b15801561115f57505f5460ff166001145b611167575f80fd5b5f805460ff191660011790558015611188575f805461ff0019166101001790555b611190612f35565b61119a5f33612568565b80156111df575f805461ff0019169055604051600181527f7f26b83ff96e1f2b6a682f133852f6798a09c465da95921460cefb38474024989060200160405180910390a15b50565b5f6111f56111ee6111fc565b84846109d0565b9392505050565b60605f609a80548060200260200160405190810160405280929190818152602001828054801561125357602002820191905f5260205f20905b81546001600160a01b03168152600190910190602001808311611235575b50505050509050805167ffffffffffffffff81111561127457611274614373565b6040519080825280602002602001820160405280156112b957816020015b604080518082019091525f8152606060208201528152602001906001900390816112925790505b5091505f5b8151811015611390576040805160028082526060820183525f926020830190803683370190505090506001815f815181106112fb576112fb614bd2565b6020026020010190151590811515815250505f8160018151811061132157611321614bd2565b602002602001019015159081151581525050604051806040016040528084848151811061135057611350614bd2565b60200260200101516001600160a01b031681526020018281525084838151811061137c5761137c614bd2565b6020908102919091010152506001016112be565b505090565b606060998054806020026020016040519081016040528092919081815260200182805480156113eb57602002820191905f5260205f20905b81546001600160a01b031681526001909101906020018083116113cd575b5050505050905090565b609c5460609081906001600160a01b031661141d57609c80546001600160a01b031916331790555b609c546114369086906001600160a01b03168686612bc1565b609c80546001600160a01b031916905590969095509350505050565b5f8281526065602052604090206001015461146c8161255e565b6109a98383612608565b5f6114808161255e565b5f5b82518110156109a957670de0b6b3a76400008382815181106114a6576114a6614bd2565b6020026020010151610140015167ffffffffffffffff16106114db576040516306b7c75960e31b815260040160405180910390fd5b8281815181106114ed576114ed614bd2565b60200260200101516101a0015167ffffffffffffffff165f03611523576040516306b7c75960e31b815260040160405180910390fd5b5f60975f85848151811061153957611539614bd2565b60200260200101515f01516001600160a01b03166001600160a01b031681526020019081526020015f2090505f815f015f86858151811061157c5761157c614bd2565b6020026020010151602001516001600160a01b03166001600160a01b031681526020019081526020015f20905081600301545f0361160457609a8584815181106115c8576115c8614bd2565b6020908102919091018101515182546001810184555f938452919092200180546001600160a01b0319166001600160a01b039092169190911790555b60985f86858151811061161957611619614bd2565b6020908102919091018101518101516001600160a01b031682528101919091526040015f205460ff166116f057600160985f87868151811061165d5761165d614bd2565b6020026020010151602001516001600160a01b03166001600160a01b031681526020019081526020015f205f6101000a81548160ff02191690831515021790555060998584815181106116b2576116b2614bd2565b60209081029190910181015181015182546001810184555f938452919092200180546001600160a01b0319166001600160a01b039092169190911790555b6008810154600160401b900463ffffffff165f036118f45784838151811061171a5761171a614bd2565b602090810291909101810151015160028301805460018501915f9160ff16908261174383614d3a565b91906101000a81548160ff021916908360ff16021790555060ff166001600160801b031681526020019081526020015f205f6101000a8154816001600160a01b0302191690836001600160a01b031602179055508483815181106117a9576117a9614bd2565b60200260200101515f01516001600160a01b031663313ce5676040518163ffffffff1660e01b8152600401602060405180830381865afa1580156117ef573d5f803e3d5ffd5b505050506040513d601f19601f820116820180604052508101906118139190614d58565b61181e90600a614e4e565b6003830155845185908490811061183757611837614bd2565b602002602001015160600151816008015f6101000a81548163ffffffff021916908363ffffffff16021790555084838151811061187657611876614bd2565b6020026020010151606001518160080160086101000a81548163ffffffff021916908363ffffffff1602179055508483815181106118b6576118b6614bd2565b6020026020010151608001518584815181106118d4576118d4614bd2565b602002602001015160c001516118ea9190614e70565b6001820155611c25565b600881015460408051600180825281830190925263ffffffff80841693640100000000900416915f9190602080830190803683370190505090506001815f8151811061194257611942614bd2565b6020026020010190151590811515815250506119c05f89888151811061196a5761196a614bd2565b60200260200101515f01518a898151811061198757611987614bd2565b6020026020010151602001516119bb8c8b815181106119a8576119a8614bd2565b60200260200101515f0151865f8a612689565b61220d565b8163ffffffff16421015611b1b575f808463ffffffff16421115611ab2576008860154611a079063ffffffff6c010000000000000000000000009091048116908716612f49565b611a119042614e83565b8660010154611a209190614e96565b8660090154611a2f9190614bfa565b9150611a4163ffffffff861642614e83565b9050818a8981518110611a5657611a56614bd2565b602002602001015160c00151111580611a8c5750808a8981518110611a7d57611a7d614bd2565b60200260200101516080015111155b15611aaa576040516306b7c75960e31b815260040160405180910390fd5b600986018290555b808a8981518110611ac557611ac5614bd2565b602002602001015160800151611adb9190614e83565b828b8a81518110611aee57611aee614bd2565b602002602001015160c00151611b049190614e83565b611b0e9190614e70565b600187015550611c219050565b878681518110611b2d57611b2d614bd2565b602090810291909101015160600151600885015463ffffffff908116911614611c2157878681518110611b6257611b62614bd2565b602002602001015160600151846008015f6101000a81548163ffffffff021916908363ffffffff160217905550878681518110611ba157611ba1614bd2565b6020026020010151606001518460080160086101000a81548163ffffffff021916908363ffffffff160217905550878681518110611be157611be1614bd2565b602002602001015160800151888781518110611bff57611bff614bd2565b602002602001015160c00151611c159190614e70565b60018501555f60098501555b5050505b6008810180547fffffffffffffffffffffffffffffffff00000000ffffffffffffffffffffffff166c010000000000000000000000004263ffffffff16021790558451859084908110611c7a57611c7a614bd2565b6020908102919091010151608001516008820154611c9e919063ffffffff16614ead565b8160080160046101000a81548163ffffffff021916908363ffffffff160217905550848381518110611cd257611cd2614bd2565b60200260200101516040015181600a015f6101000a8154816001600160a01b0302191690836001600160a01b03160217905550848381518110611d1757611d17614bd2565b602002602001015160c001518160020181905550848381518110611d3d57611d3d614bd2565b602002602001015160a00151815f0181905550848381518110611d6257611d62614bd2565b602002602001015160e001518160030181905550848381518110611d8857611d88614bd2565b60200260200101516101000151816005015f6101000a8154816001600160801b030219169083600f0b6001600160801b03160217905550848381518110611dd157611dd1614bd2565b602002602001015161012001518160050160106101000a81548167ffffffffffffffff021916908367ffffffffffffffff160217905550848381518110611e1a57611e1a614bd2565b60200260200101516101600151816006015f6101000a81548167ffffffffffffffff021916908367ffffffffffffffff160217905550848381518110611e6257611e62614bd2565b602002602001015161018001518160060160086101000a81548167ffffffffffffffff021916908367ffffffffffffffff160217905550848381518110611eab57611eab614bd2565b602002602001015161014001518160050160186101000a81548167ffffffffffffffff021916908367ffffffffffffffff160217905550848381518110611ef457611ef4614bd2565b60200260200101516101a001518160060160106101000a81548167ffffffffffffffff021916908367ffffffffffffffff160217905550848381518110611f3d57611f3d614bd2565b6020026020010151602001516001600160a01b0316858481518110611f6457611f64614bd2565b60200260200101515f01516001600160a01b03167fbb1f0f9f2e246d18022362060458bdfde9ab9b4e4eb514b800b155df7ea8ecac878681518110611fab57611fab614bd2565b6020026020010151604051611fc09190614a42565b60405180910390a35050600101611482565b604080516101c0810182525f80825260208201819052918101829052606081018290526080810182905260a0810182905260c0810182905260e08101829052610100810182905261012081018290526101408101829052610160810182905261018081018290526101a08101919091526001600160a01b038084165f8181526097602090815260408083208786168085529083529281902081516101c08101835294855291840192909252600a81015490931690820152600882015463ffffffff8082166060840181905260808401926120b59264010000000090910416614ec9565b63ffffffff1681528254602082015260028301546040820152600383015460608201526005830154600f81900b608083015267ffffffffffffffff600160801b808304821660a0850152600160c01b909204811660c084015260069094015480851660e0840152600160401b810485166101008401520490921661012090920191909152905092915050565b5f61214b8161255e565b6040516370a0823160e01b81523060048201526109a99083906001600160a01b038616906370a0823190602401602060405180830381865afa158015612193573d5f803e3d5ffd5b505050506040513d601f19601f820116820180604052508101906121b79190614bbb565b6001600160a01b0386169190612f5e565b6001600160a01b038084165f9081526097602090815260408083209386168352929052908120819081906121fd908786612fc8565b9250925092505b93509350939050565b6001600160a01b038381165f9081526097602090815260408083206003810154948716845290915290206008810154600160401b900463ffffffff16428110801561227657506008820154640100000000900463ffffffff168110806122765750600482015415155b15612396575f8080612292858a61228d8742614e83565b612fc8565b919450925090506001600160801b038311806122b457506001600160801b0382115b156122eb576040517f7decd25700000000000000000000000000000000000000000000000000000000815260040160405180910390fd5b6001600160801b03828116600160801b0290841617600786015560088501805463ffffffff42908116600160401b026bffffffff0000000000000000199092169190911790915560048601829055604080518581526020810185905290810183905260608101919091526001600160a01b0389811691908b16907f1be815035b13056fba0f0dcbaec5d30add5d95e5f1b6990581607fbccdc930509060800160405180910390a35050505b506001600160a01b0386165f908152600b820160205260408120905b8451811015612554575f8582815181106123ce576123ce614bd2565b602090810291909101810151805115155f90815291859052604082208054825192945090926001600160801b039091169115612418575060078601546001600160801b031661242f565b506007860154600160801b90046001600160801b03165b8082146125455782547fffffffffffffffffffffffffffffffff00000000000000000000000000000000166001600160801b038216178355602084015115612545575f612482856020015183858c613bf7565b8454909150819085906010906124a9908490600160801b90046001600160801b0316614ee5565b92506101000a8154816001600160801b0302191690836001600160801b031602179055508c6001600160a01b03168b6001600160a01b03168d6001600160a01b03167fc4278cd1497fedb2697092108a0141a0cbecdd1472913b6e803010998aa63537885f015187878760405161253b9493929190931515845260208401929092526040830152606082015260800190565b60405180910390a4505b846001019450505050506123b2565b5050505050505050565b6111df8133613c16565b5f8281526065602090815260408083206001600160a01b038516845290915290205460ff166109cc575f8281526065602090815260408083206001600160a01b03851684529091529020805460ff191660011790556125c43390565b6001600160a01b0316816001600160a01b0316837f2f8788117e7eff1d82e926ec794901d17c78024a50270940304540a733656f0d60405160405180910390a45050565b5f8281526065602090815260408083206001600160a01b038516845290915290205460ff16156109cc575f8281526065602090815260408083206001600160a01b0385168085529252808320805460ff1916905551339285917ff6391f5c32d9c69d2a47ea670b442974b53935d1edc7fd64eb21e047a839171b9190a45050565b6060835167ffffffffffffffff8111156126a5576126a5614373565b6040519080825280602002602001820160405280156126e957816020015b604080518082019091525f80825260208201528152602001906001900390816126c35790505b5090505f5b84518110156128765784818151811061270957612709614bd2565b6020026020010151156127d457604051632f2e037160e11b81526001600160a01b0385811660048301525f9190881690635e5c06e290602401606060405180830381865afa15801561275d573d5f803e3d5ffd5b505050506040513d601f19601f820116820180604052508101906127819190614d0f565b9250505060405180604001604052806001151581526020016127a48988886129dc565b6127ae9084614bfa565b8152508383815181106127c3576127c3614bd2565b60200260200101819052505061286e565b6040805180820182525f815290516370a0823160e01b81526001600160a01b0386811660048301526020830191908916906370a0823190602401602060405180830381865afa158015612829573d5f803e3d5ffd5b505050506040513d601f19601f8201168201806040525081019061284d9190614bbb565b81525082828151811061286257612862614bd2565b60200260200101819052505b6001016126ee565b50949350505050565b80516001600160a01b039081165f908152609760208181526040808420878616855282528084208651909516845291905281206003015460088301548451929392600160401b90910463ffffffff1690849081906128f09086904286106128e6575f612fc8565b61228d8642614e83565b506001600160a01b038b165f908152600b8801602052604081209294509092505b8860200151518110156129ce575f8960200151828151811061293557612935614bd2565b60200260200101515f01511561294c57508361294f565b50825b6129b98a60200151838151811061296857612968614bd2565b60200260200101516020015182855f8e60200151878151811061298d5761298d614bd2565b60209081029190910181015151151582528101919091526040015f20546001600160801b03168a613bf7565b6129c3908a614bfa565b985050600101612911565b505050505050509392505050565b5f806224ea006129f28163ffffffff8616614f04565b612a029063ffffffff8616614e83565b612a0c9190614bfa565b90505f856001600160a01b0316630e52dbec6040518163ffffffff1660e01b8152600401602060405180830381865afa158015612a4b573d5f803e3d5ffd5b505050506040513d601f19601f82011682018060405250810190612a6f9190614d58565b612a7f9060ff166224ea00614e96565b612a8c6224ea0042614f04565b612a969042614e83565b612aa09190614bfa565b9050815b818111612b4f576040517fd2681a0b000000000000000000000000000000000000000000000000000000008152600481018290526001600160a01b0387811660248301525f919089169063d2681a0b906044016040805180830381865afa158015612b11573d5f803e3d5ffd5b505050506040513d601f19601f82011682018060405250810190612b359190614f17565b509050612b428186614bfa565b9450506224ea0001612aa4565b50604051635fb9165160e11b8152600481018490526001600160a01b0387169063bf722ca290602401602060405180830381865afa158015612b93573d5f803e3d5ffd5b505050506040513d601f19601f82011682018060405250810190612bb79190614bbb565b9695505050505050565b606080825167ffffffffffffffff811115612bde57612bde614373565b604051908082528060200260200182016040528015612c07578160200160208202803683370190505b5090505f5b8651811015612e46575f878281518110612c2857612c28614bd2565b60209081029190910181015180516001600160a01b03165f908152609790925260408220909250905b600282015460ff166001600160801b0382161015612ccd5782516001600160801b0382165f9081526001840160209081526040808320548751838901516001600160a01b03909216808652938890529190932060080154612cc5948e949093926119bb92909190869063ffffffff16612689565b600101612c51565b505f5b8651811015612e38575f825f015f898481518110612cf057612cf0614bd2565b60200260200101516001600160a01b03166001600160a01b031681526020019081526020015f2090505f5b846020015151811015612e2e576001600160a01b038b165f908152600b830160209081526040822090870151805183919085908110612d5c57612d5c614bd2565b602090810291909101810151151582528101919091526040015f2054600160801b90046001600160801b031690508015612e255780888581518110612da357612da3614bd2565b60200260200101818151612db79190614bfa565b9052506001600160a01b038c165f908152600b840160209081526040822090880151805183919086908110612dee57612dee614bd2565b602090810291909101810151151582528101919091526040015f2080546001600160801b03928316600160801b0292169190911790555b50600101612d1b565b5050600101612cd0565b508260010192505050612c0c565b505f5b8351811015612f28575f828281518110612e6557612e65614bd2565b602002602001015190505f811115612f1f57612eae8682878581518110612e8e57612e8e614bd2565b60200260200101516001600160a01b0316612f5e9092919063ffffffff16565b856001600160a01b0316858381518110612eca57612eca614bd2565b60200260200101516001600160a01b0316886001600160a01b03167fc1405953cccdad6b442e266c84d66ad671e2534c6584f8e6ef92802f7ad294d584604051612f1691815260200190565b60405180910390a45b50600101612e49565b5082915094509492505050565b5f54610100900460ff16612f47575f80fd5b565b5f818311612f5757816111f5565b5090919050565b5f6040517fa9059cbb000000000000000000000000000000000000000000000000000000005f526001600160a01b0384166004528260245260205f60445f80895af13d15601f3d1160015f511416171691505f606052806040525080612fc2575f80fd5b50505050565b5f805f612ff260405180608001604052805f81526020015f81526020015f81526020015f81525090565b856001600160a01b0316631a90f1866040518163ffffffff1660e01b8152600401602060405180830381865afa15801561302e573d5f803e3d5ffd5b505050506040513d601f19601f820116820180604052508101906130529190614bbb565b816040018181525050856001600160a01b0316632e0af0086040518163ffffffff1660e01b8152600401602060405180830381865afa158015613097573d5f803e3d5ffd5b505050506040513d601f19601f820116820180604052508101906130bb9190614bbb565b6060828101919091526040805191820181525f908201819052600889015463ffffffff8082168085526401000000009092041660208401526224ea0090613103908290614f04565b835161310f9190614e83565b6131199190614bfa565b90505f886001600160a01b0316630e52dbec6040518163ffffffff1660e01b8152600401602060405180830381865afa158015613158573d5f803e3d5ffd5b505050506040513d601f19601f8201168201806040525081019061317c9190614d58565b61318c9060ff166224ea00614e96565b6131996224ea0042614f04565b6131a39042614e83565b6131ad9190614bfa565b90505f825b828111613254576040517f0ab69be8000000000000000000000000000000000000000000000000000000008152600481018290525f906001600160a01b038d1690630ab69be8906024016040805180830381865afa158015613216573d5f803e3d5ffd5b505050506040513d601f19601f8201168201806040525081019061323a9190614f17565b5090506132478184614bfa565b9250506224ea00016131b2565b508085604001516132659190614bfa565b8552604051635fb9165160e11b8152600481018290526001600160a01b038b169063bf722ca290602401602060405180830381865afa1580156132aa573d5f803e3d5ffd5b505050506040513d601f19601f820116820180604052508101906132ce9190614bbb565b60208601525050885483515f925081116132f057670de0b6b3a76400006132fc565b83516132fc9082613c77565b60018b015460048c0154855160208701519395505f94509192909161332091614e83565b604086018190525f90613333575f613363565b613363858760400151670de0b6b3a764000061334f9190614e96565b8f60030154613c879092919063ffffffff16565b9050856020015142116134415780156133e8575f6133926133848d84614e96565b61338d90614f39565b613ca5565b90506133cc6133a982670de0b6b3a7640000614e83565b6133c66133be89670de0b6b3a7640000614e83565b879086613c87565b90613e39565b6133d68483613e4d565b6133e09190614bfa565b98505061341c565b8a6134056133fe87670de0b6b3a7640000614e83565b8590613e4d565b61340f9190614e96565b6134199083614bfa565b97505b6134268289614f53565b6134308c85614e96565b61343a9190614f53565b93506135ae565b602086015160088e0154600160401b900463ffffffff1611156134a65761348761346e6133848d84614e96565b61348090670de0b6b3a7640000614e83565b8390613e39565b6134919083614e83565b975061349d8289614f53565b61343a90614f39565b60088d015460208701515f916134ca91600160401b90910463ffffffff1690614e83565b9b508115613511576134df6133848d84614e96565b90506134f66133a982670de0b6b3a7640000614e83565b6135008483613e4d565b61350a9190614bfa565b9850613545565b8b61352e61352788670de0b6b3a7640000614e83565b8690613e4d565b6135389190614e96565b6135429084614bfa565b98505b6135628760200151426135589190614e83565b6133849084614e96565b905061358061357982670de0b6b3a7640000614e83565b8a90613e39565b61358a908a614e83565b9850613596838a614f53565b6135a08d86614e96565b6135aa9190614f53565b9450505b835f036135df5750505060078a01546001600160801b038082169850600160801b9091041695506122049350505050565b5050506136286040518061012001604052805f81526020015f81526020015f81526020015f81526020015f81526020015f81526020015f81526020015f81526020015f81525090565b6136e885606001515f0361363c575f6136da565b6136c886606001518c6001600160a01b0316638c3cba5a6040518163ffffffff1660e01b8152600401602060405180830381865afa158015613680573d5f803e3d5ffd5b505050506040513d601f19601f820116820180604052508101906136a49190614bbb565b886040015189606001516136b89190614e83565b6136c29190614e83565b90613c77565b6136da90670de0b6b3a7640000614e83565b670de0b6b3a763ffff613e61565b80825260058c015467ffffffffffffffff600160c01b8204811660c0850152600f9190910b60e084015260068d015416610100830152613728575f6137d6565b6137d66137b5670de0b6b3a76400006137656137608560c00151670de0b6b3a76400006137559190614e83565b60c087015190613c77565b613e6f565b8451613789906137609061378190670de0b6b3a7640000614e83565b875190613c77565b6137939190614f53565b8460e001516137a29190614f72565b6137ab90614f39565b61338d9190614fa1565b6137c790670de0b6b3a7640000614bfa565b670de0b6b3a764000090613c77565b602082018190526139b1906137f390670de0b6b3a7640000614e83565b61398583610100015161398b61387c8f6001600160a01b031663666010326040518163ffffffff1660e01b8152600401602060405180830381865afa15801561383e573d5f803e3d5ffd5b505050506040513d601f19601f820116820180604052508101906138629190614bbb565b61387490670de0b6b3a7640000614e83565b875190613e39565b61388e90670de0b6b3a7640000614e83565b8f6001600160a01b031663f3fdb15a6040518163ffffffff1660e01b8152600401602060405180830381865afa1580156138ca573d5f803e3d5ffd5b505050506040513d601f19601f820116820180604052508101906138ee9190614fcd565b6001600160a01b0316637c21fb1d8c606001515f0361390d575f613920565b60608d015160408e015161392091613c77565b895160405160e084901b6001600160e01b031916815260048101929092526024820152604401602060405180830381865afa158015613961573d5f803e3d5ffd5b505050506040513d601f19601f820116820180604052508101906139859190614bbb565b90613e4d565b6139959190614bfa565b60058f0154600160801b900467ffffffffffffffff1690613e4d565b6040820152602081015160068c01546139dc91600160801b90910467ffffffffffffffff1690613e4d565b613a138260200151670de0b6b3a76400006139f79190614e83565b60068e0154600160401b900467ffffffffffffffff1690613e4d565b613a1d9190614bfa565b606082018190526040820151613a4191613a3691614bfa565b604083015190613c77565b60808201819052613a5a90670de0b6b3a7640000614e83565b8160a00181815250505f8a6001600160a01b03166318160ddd6040518163ffffffff1660e01b8152600401602060405180830381865afa158015613aa0573d5f803e3d5ffd5b505050506040513d601f19601f82011682018060405250810190613ac49190614bbb565b90505f86602001518c6001600160a01b0316638d0e5f026040518163ffffffff1660e01b8152600401602060405180830381865afa158015613b08573d5f803e3d5ffd5b505050506040513d601f19601f82011682018060405250810190613b2c9190614bbb565b613b369190614bfa565b6001600160a01b038d165f9081526097602052604090206003015490915081613b5f575f613b82565b613b828183613b7b876080015189613e4d90919063ffffffff16565b9190613c87565b60078f0154613b9a91906001600160801b0316614bfa565b9a505f8311613ba9575f613bc5565b613bc58184613b7b8760a0015189613e4d90919063ffffffff16565b60078f0154613be49190600160801b90046001600160801b0316614bfa565b9950505050505050505093509350939050565b5f613c0d613c058486614e83565b869084613c87565b95945050505050565b5f8281526065602090815260408083206001600160a01b038516845290915290205460ff166109cc57613c488161401e565b613c53836020614030565b604051602001613c64929190614fff565b6040516020818303038152906040525f80fd5b5f6111f583670de0b6b3a7640000845b828202811515841585830485141716613c9e575f80fd5b0492915050565b5f680248ce36a70cb26b3e198213613cbe57505f919050565b680755bf798b4a1bf1e58212613cd2575f80fd5b6503782dace9d9604e83901b0591505f60606bb17217f7d1cf79abc9e3b39884821b056b80000000000000000000000001901d6bb17217f7d1cf79abc9e3b39881029093036c240c330e9fb2d9cbaf0fd5aafb1981018102606090811d6d0277594991cfc85f6e2461837cd9018202811d6d1a521255e34f6a5061b25ef1c9c319018202811d6db1bbb201f443cf962f1a1d3db4a5018202811d7ffffffffffffffffffffffffffffffffffffd38dc772608b0ae56cce01296c0eb018202811d6e05180bb14799ab47a8a8cb2a527d57016d02d16720577bd19bf614176fe9ea6c10fe68e7fd37d0007b713f765084018402831d9081019084016d01d3967ed30fc4f89c02bab5708119010290911d6e0587f503bb6ea29d25fcb7401964500190910279d835ebba824c98fb31b83b2ca45c000000000000000000000000010574029d9dc38563c32e5c2f6dc192ee70ef65f9978af30260c3939093039290921c92915050565b5f6111f58383670de0b6b3a76400006141c7565b5f6111f58383670de0b6b3a7640000613c87565b5f818310612f5757816111f5565b5f808213613e7b575f80fd5b5f6060613e87846141f4565b03609f8181039490941b90931c6c465772b2bbbb5f824b15207a3081018102606090811d6d0388eaa27412d5aca026815d636e018202811d6d0df99ac502031bf953eff472fdcc018202811d6d13cdffb29d51d99322bdff5f2211018202811d6d0a0f742023def783a307a986912e018202811d6d01920d8043ca89b5239253284e42018202811d6c0b7a86d7375468fac667a0a527016c29508e458543d8aa4df2abee7883018302821d6d0139601a2efabe717e604cbb4894018302821d6d02247f7a7b6594320649aa03aba1018302821d6c8c3f38e95a6b1ff2ab1c3b343619018302821d6d02384773bdf1ac5676facced60901901830290911d6cb9a025d814b29c212b8b1a07cd19019091027ffffffffffffffff5f6af8f7b3396644f18e157960000000000000000000000000105711340daa0d5f769dba1915cef59f0815a5506027d0267a36c0c95b3975ab3ee5b203a7614a3f75373f047d803ae7b6687f2b393909302929092017d57115e47018c7177eebf7cd370a3356a1b7863008a5ae8028c72b88642840160ae1d92915050565b60606109486001600160a01b03831660145b60605f61403e836002614e96565b614049906002614bfa565b67ffffffffffffffff81111561406157614061614373565b6040519080825280601f01601f19166020018201604052801561408b576020820181803683370190505b5090507f3000000000000000000000000000000000000000000000000000000000000000815f815181106140c1576140c1614bd2565b60200101906001600160f81b03191690815f1a9053507f78000000000000000000000000000000000000000000000000000000000000008160018151811061410b5761410b614bd2565b60200101906001600160f81b03191690815f1a9053505f61412d846002614e96565b614138906001614bfa565b90505b60018111156141bc577f303132333435363738396162636465660000000000000000000000000000000085600f166010811061417957614179614bd2565b1a60f81b82828151811061418f5761418f614bd2565b60200101906001600160f81b03191690815f1a90535060049490941c936141b581615060565b905061413b565b5083156111f5575f80fd5b8282028115158415858304851417166141de575f80fd5b6001826001830304018115150290509392505050565b5f808211614200575f80fd5b5060016001600160801b03821160071b82811c67ffffffffffffffff1060061b1782811c63ffffffff1060051b1782811c61ffff1060041b1782811c60ff10600390811b90911783811c600f1060021b1783811c909110821b1791821c111790565b6001600160a01b03811681146111df575f80fd5b5f60208284031215614286575f80fd5b81356111f581614262565b5f602082840312156142a1575f80fd5b81356001600160e01b0319811681146111f5575f80fd5b5f602082840312156142c8575f80fd5b5035919050565b80356142da81614262565b919050565b803580151581146142da575f80fd5b5f805f8060808587031215614301575f80fd5b843561430c81614262565b9350602085013561431c81614262565b925061432a604086016142df565b9150606085013561433a81614262565b939692955090935050565b5f8060408385031215614356575f80fd5b82359150602083013561436881614262565b809150509250929050565b634e487b7160e01b5f52604160045260245ffd5b6040805190810167ffffffffffffffff811182821017156143aa576143aa614373565b60405290565b6040516101c0810167ffffffffffffffff811182821017156143aa576143aa614373565b604051601f8201601f1916810167ffffffffffffffff811182821017156143fd576143fd614373565b604052919050565b5f67ffffffffffffffff82111561441e5761441e614373565b5060051b60200190565b5f82601f830112614437575f80fd5b813561444a61444582614405565b6143d4565b8082825260208201915060208360051b86010192508583111561446b575f80fd5b602085015b8381101561456257803567ffffffffffffffff81111561448e575f80fd5b86016040818903601f190112156144a3575f80fd5b6144ab614387565b60208201356144b981614262565b8152604082013567ffffffffffffffff8111156144d4575f80fd5b60208184010192505088601f8301126144eb575f80fd5b81356144f961444582614405565b8082825260208201915060208360051b86010192508b83111561451a575f80fd5b6020850194505b8285101561454357614532856142df565b825260209485019490910190614521565b8060208501525050508085525050602083019250602081019050614470565b5095945050505050565b5f805f6060848603121561457e575f80fd5b833567ffffffffffffffff811115614594575f80fd5b6145a086828701614428565b93505060208401356145b181614262565b915060408401356145c181614262565b809150509250925092565b5f80604083850312156145dd575f80fd5b82356145e881614262565b9150602083013561436881614262565b5f8060408385031215614609575f80fd5b823567ffffffffffffffff81111561461f575f80fd5b61462b85828601614428565b925050602083013567ffffffffffffffff811115614647575f80fd5b830160c08186031215614368575f80fd5b5f8151808452602084019350602083015f5b828110156146915781516001600160a01b031686526020958601959091019060010161466a565b5093949350505050565b604081525f6146ad6040830185614658565b82810360208401528084518083526020830191506020860192505f5b818110156146e75783518352602093840193909201916001016146c9565b50909695505050505050565b5f805f60608486031215614705575f80fd5b833567ffffffffffffffff81111561471b575f80fd5b61472786828701614428565b935050602084013561473881614262565b9150604084013567ffffffffffffffff811115614753575f80fd5b8401601f81018613614763575f80fd5b803561477161444582614405565b8082825260208201915060208360051b850101925088831115614792575f80fd5b6020840193505b828410156147bd5783356147ac81614262565b825260209384019390910190614799565b809450505050509250925092565b5f602082016020835280845180835260408501915060408160051b8601019250602086015f5b8281101561486f57868503603f19018452815180516001600160a01b03168652602090810151604082880181905281519088018190529101905f9060608801905b8083101561485757835115158252602082019150602084019350600183019250614832565b509650505060209384019391909101906001016147f1565b50929695505050505050565b602081525f6111f56020830184614658565b803563ffffffff811681146142da575f80fd5b8035600f81900b81146142da575f80fd5b803567ffffffffffffffff811681146142da575f80fd5b5f602082840312156148d8575f80fd5b813567ffffffffffffffff8111156148ee575f80fd5b8201601f810184136148fe575f80fd5b803561490c61444582614405565b8082825260208201915060206101c0840285010192508683111561492e575f80fd5b6020840193505b82841015612bb7576101c0848803121561494d575f80fd5b6149556143b0565b61495e856142cf565b815261496c602086016142cf565b602082015261497d604086016142cf565b604082015261498e6060860161488d565b60608201526080858101359082015260a0808601359082015260c0808601359082015260e080860135908201526149c861010086016148a0565b6101008201526149db61012086016148b1565b6101208201526149ee61014086016148b1565b610140820152614a0161016086016148b1565b610160820152614a1461018086016148b1565b610180820152614a276101a086016148b1565b6101a082015282526101c09390930192602090910190614935565b81516001600160a01b031681526101c081016020830151614a6e60208401826001600160a01b03169052565b506040830151614a8960408401826001600160a01b03169052565b506060830151614aa1606084018263ffffffff169052565b506080830151608083015260a083015160a083015260c083015160c083015260e083015160e0830152610100830151614ae0610100840182600f0b9052565b50610120830151614afe61012084018267ffffffffffffffff169052565b50610140830151614b1c61014084018267ffffffffffffffff169052565b50610160830151614b3a61016084018267ffffffffffffffff169052565b50610180830151614b5861018084018267ffffffffffffffff169052565b506101a0830151614b766101a084018267ffffffffffffffff169052565b5092915050565b5f805f60608486031215614b8f575f80fd5b8335614b9a81614262565b92506020840135614baa81614262565b929592945050506040919091013590565b5f60208284031215614bcb575f80fd5b5051919050565b634e487b7160e01b5f52603260045260245ffd5b634e487b7160e01b5f52601160045260245ffd5b8082018082111561094857610948614be6565b634e487b7160e01b5f52600160045260245ffd5b5f808335601e19843603018112614c36575f80fd5b83018035915067ffffffffffffffff821115614c50575f80fd5b6020019150600581901b3603821315614c67575f80fd5b9250929050565b8781526001600160a01b0387811660208301528616604082015260c06060820181905281018490525f8560e08301825b87811015614cce578235614cb181614262565b6001600160a01b0316825260209283019290910190600101614c9e565b506080840195909552505060a0015295945050505050565b60ff811681146111df575f80fd5b5f60208284031215614d04575f80fd5b81356111f581614ce6565b5f805f60608486031215614d21575f80fd5b5050815160208301516040909301519094929350919050565b5f60ff821660ff8103614d4f57614d4f614be6565b60010192915050565b5f60208284031215614d68575f80fd5b81516111f581614ce6565b6001815b60018411156110aa57808504811115614d9257614d92614be6565b6001841615614da057908102905b60019390931c928002614d77565b5f82614dbc57506001610948565b81614dc857505f610948565b8160018114614dde5760028114614de857614e04565b6001915050610948565b60ff841115614df957614df9614be6565b50506001821b610948565b5060208310610133831016604e8410600b8410161715614e27575081810a610948565b614e335f198484614d73565b805f1904821115614e4657614e46614be6565b029392505050565b5f6111f560ff841683614dae565b634e487b7160e01b5f52601260045260245ffd5b5f82614e7e57614e7e614e5c565b500490565b8181038181111561094857610948614be6565b808202811582820484141761094857610948614be6565b63ffffffff818116838216019081111561094857610948614be6565b63ffffffff828116828216039081111561094857610948614be6565b6001600160801b03818116838216019081111561094857610948614be6565b5f82614f1257614f12614e5c565b500690565b5f8060408385031215614f28575f80fd5b505080516020909101519092909150565b5f600160ff1b8203614f4d57614f4d614be6565b505f0390565b8181035f831280158383131683831282161715614b7657614b76614be6565b8082025f8212600160ff1b84141615614f8d57614f8d614be6565b818105831482151761094857610948614be6565b5f82614faf57614faf614e5c565b600160ff1b82145f1984141615614fc857614fc8614be6565b500590565b5f60208284031215614fdd575f80fd5b81516111f581614262565b5f81518060208401855e5f93019283525090919050565b7f416363657373436f6e74726f6c3a206163636f756e742000000000000000000081525f6150306017830185614fe8565b7f206973206d697373696e6720726f6c65200000000000000000000000000000008152613c0d6011820185614fe8565b5f8161506e5761506e614be6565b505f19019056fea26469706673582212200d0c969dbe5e231557e9807e2c176f734b25787b7efa829c13afe35d09c10b4664736f6c634300081a0033",
  "devdoc": {
    "events": {
      "Accrue(address,address,address,bool,uint256,uint256,uint256)": {
        "params": {
          "account": "account that accrued the rewards.",
          "accountIndex": "previous account index.",
          "market": "Market where the operation was made.",
          "operation": "true if the operation was a borrow, false if it was a deposit.",
          "operationIndex": "new operation index that is assigned to the `accountIndex`.",
          "reward": "reward asset.",
          "rewardsAccrued": "amount of rewards accrued."
        }
      },
      "Claim(address,address,address,uint256)": {
        "params": {
          "account": "account that claimed the rewards.",
          "amount": "amount of rewards claimed.",
          "reward": "reward asset.",
          "to": "account that received the rewards."
        }
      },
      "DistributionSet(address,address,(address,address,address,uint32,uint256,uint256,uint256,uint256,int128,uint64,uint64,uint64,uint64,uint64))": {
        "params": {
          "config": "configuration struct containing the distribution parameters.",
          "market": "Market whose distribution was set.",
          "reward": "reward asset to be distributed when operating with the Market."
        }
      },
      "IndexUpdate(address,address,uint256,uint256,uint256,uint256)": {
        "params": {
          "borrowIndex": "index of the borrow operations of a distribution.",
          "depositIndex": "index of the deposit operations of a distribution.",
          "lastUpdate": "current timestamp.",
          "market": "Market of the distribution.",
          "newUndistributed": "amount of undistributed rewards.",
          "reward": "reward asset."
        }
      },
      "Initialized(uint8)": {
        "details": "Triggered when the contract has been initialized or reinitialized."
      },
      "RoleAdminChanged(bytes32,bytes32,bytes32)": {
        "details": "Emitted when `newAdminRole` is set as ``role``'s admin role, replacing `previousAdminRole` `DEFAULT_ADMIN_ROLE` is the starting admin for all roles, despite {RoleAdminChanged} not being emitted signaling this. _Available since v3.1._"
      },
      "RoleGranted(bytes32,address,address)": {
        "details": "Emitted when `account` is granted `role`. `sender` is the account that originated the contract call, an admin role bearer except when using {AccessControl-_setupRole}."
      },
      "RoleRevoked(bytes32,address,address)": {
        "details": "Emitted when `account` is revoked `role`. `sender` is the account that originated the contract call:   - if using `revokeRole`, it is the admin role bearer   - if using `renounceRole`, it is the role bearer (i.e. `account`)"
      }
    },
    "kind": "dev",
    "methods": {
      "accountOperation(address,address,bool,address)": {
        "params": {
          "account": "The account to get the operation data from.",
          "market": "The market in which the operation was made.",
          "operation": "True if the operation was a borrow, false if it was a deposit.",
          "reward": "The reward asset."
        },
        "returns": {
          "_0": "accrued The accrued amount.",
          "_1": "index The account index."
        }
      },
      "allClaimable(address,address)": {
        "params": {
          "account": "The account to get the claimable amount for.",
          "reward": "The reward asset."
        },
        "returns": {
          "unclaimedRewards": "The claimable amount for the given account."
        }
      },
      "allMarketsOperations()": {
        "returns": {
          "marketOps": "The list of market operations."
        }
      },
      "availableRewardsCount(address)": {
        "params": {
          "market": "Market to get the number of available rewards to distribute."
        },
        "returns": {
          "_0": "The amount reward assets set to a Market."
        }
      },
      "claim((address,bool[])[],(address,address[],uint256,uint8,bytes32,bytes32))": {
        "params": {
          "marketOps": "The operations to claim rewards for.",
          "permit": "Arguments and signature from `permit.owner`."
        },
        "returns": {
          "_0": "rewardsList The list of rewards assets.",
          "claimedAmounts": "The list of claimed amounts."
        }
      },
      "claim((address,bool[])[],address,address[])": {
        "params": {
          "marketOps": "The operations to claim rewards for.",
          "rewardsList": "The list of rewards assets to claim.",
          "to": "The address to send the rewards to."
        },
        "returns": {
          "_0": "rewardsList The list of rewards assets.",
          "_1": "claimedAmounts The list of claimed amounts."
        }
      },
      "claimAll(address)": {
        "params": {
          "to": "The address to send the rewards to."
        },
        "returns": {
          "claimedAmounts": "The list of claimed amounts.",
          "rewardsList": "The list of rewards assets."
        }
      },
      "claimOnBehalfOf((address,bool[])[],address,address[])": {
        "params": {
          "account": "The account to claim the rewards for.",
          "marketOps": "The operations to claim rewards for.",
          "rewardsList": "The list of rewards assets to claim."
        },
        "returns": {
          "_0": "rewardsList The list of rewards assets.",
          "_1": "claimedAmounts The list of claimed amounts."
        }
      },
      "claimable((address,bool[])[],address,address)": {
        "params": {
          "account": "The account to get the claimable amount for.",
          "marketOps": "The list of Market operations to get the accrued and pending rewards from.",
          "reward": "The reward asset."
        },
        "returns": {
          "unclaimedRewards": "The claimable amount for the given account."
        }
      },
      "config((address,address,address,uint32,uint256,uint256,uint256,uint256,int128,uint64,uint64,uint64,uint64,uint64)[])": {
        "params": {
          "configs": "The configurations to update each RewardData with."
        }
      },
      "constructor": {
        "custom:oz-upgrades-unsafe-allow": "constructor"
      },
      "distributionTime(address,address)": {
        "params": {
          "market": "The market to get the distribution times.",
          "reward": "The reward asset."
        },
        "returns": {
          "_0": "The distribution `start`, `end` and `lastUpdate` time."
        }
      },
      "getRoleAdmin(bytes32)": {
        "details": "Returns the admin role that controls `role`. See {grantRole} and {revokeRole}. To change a role's admin, use {_setRoleAdmin}."
      },
      "grantRole(bytes32,address)": {
        "details": "Grants `role` to `account`. If `account` had not been already granted `role`, emits a {RoleGranted} event. Requirements: - the caller must have ``role``'s admin role. May emit a {RoleGranted} event."
      },
      "handleBorrow(address)": {
        "details": "There's no need to check that `msg.sender` is a valid Market as it won't have available rewards if it's not.",
        "params": {
          "account": "The account to which the index is updated."
        }
      },
      "handleDeposit(address)": {
        "details": "There's no need to check that `msg.sender` is a valid Market as it won't have available rewards if it's not.",
        "params": {
          "account": "The account to which the index is updated."
        }
      },
      "hasRole(bytes32,address)": {
        "details": "Returns `true` if `account` has been granted `role`."
      },
      "initialize()": {
        "details": "Can only be called once."
      },
      "previewAllocation(address,address,uint256)": {
        "params": {
          "deltaTime": "The elapsed time since the last update.",
          "market": "The market to calculate the indexes for.",
          "reward": "The reward asset to calculate the indexes for."
        },
        "returns": {
          "borrowIndex": "The index for the borrow operation.",
          "depositIndex": "The index for the deposit operation.",
          "newUndistributed": "The new undistributed rewards of the distribution."
        }
      },
      "renounceRole(bytes32,address)": {
        "details": "Revokes `role` from the calling account. Roles are often managed via {grantRole} and {revokeRole}: this function's purpose is to provide a mechanism for accounts to lose their privileges if they are compromised (such as when a trusted device is misplaced). If the calling account had been revoked `role`, emits a {RoleRevoked} event. Requirements: - the caller must be `account`. May emit a {RoleRevoked} event."
      },
      "revokeRole(bytes32,address)": {
        "details": "Revokes `role` from `account`. If `account` had been granted `role`, emits a {RoleRevoked} event. Requirements: - the caller must have ``role``'s admin role. May emit a {RoleRevoked} event."
      },
      "rewardConfig(address,address)": {
        "params": {
          "market": "The market to get the distribution configuration for.",
          "reward": "The reward asset."
        },
        "returns": {
          "_0": "The distribution configuration."
        }
      },
      "rewardIndexes(address,address)": {
        "params": {
          "market": "The market to get the reward indexes for.",
          "reward": "The reward asset to get the reward indexes for."
        },
        "returns": {
          "_0": "borrowIndex The index for the floating and fixed borrow operation.",
          "_1": "depositIndex The index for the floating deposit operation.",
          "_2": "lastUndistributed The last amount of undistributed rewards."
        }
      },
      "setKeeper(address,address)": {
        "params": {
          "account": "The account to set the `keeper` for.",
          "keeper": "The address to set as the `keeper`."
        }
      },
      "supportsInterface(bytes4)": {
        "details": "See {IERC165-supportsInterface}."
      },
      "withdraw(address,address)": {
        "params": {
          "asset": "The asset to withdraw.",
          "to": "The address to withdraw the asset to."
        }
      }
    },
    "version": 1
  },
  "userdoc": {
    "events": {
      "Accrue(address,address,address,bool,uint256,uint256,uint256)": {
        "notice": "Emitted when rewards are accrued by an account."
      },
      "Claim(address,address,address,uint256)": {
        "notice": "Emitted when rewards are claimed by an account."
      },
      "DistributionSet(address,address,(address,address,address,uint32,uint256,uint256,uint256,uint256,int128,uint64,uint64,uint64,uint64,uint64))": {
        "notice": "Emitted when a distribution is set."
      },
      "IndexUpdate(address,address,uint256,uint256,uint256,uint256)": {
        "notice": "Emitted when the distribution indexes are updated."
      }
    },
    "kind": "user",
    "methods": {
      "UTILIZATION_CAP()": {
        "notice": "Max utilization supported by the sigmoid function not to cause a division by zero (1e18 = WAD)."
      },
      "accountOperation(address,address,bool,address)": {
        "notice": "Gets the account data of a given account, Market, operation and reward asset."
      },
      "allClaimable(address,address)": {
        "notice": "Gets the claimable amount of rewards for a given account and reward asset."
      },
      "allMarketsOperations()": {
        "notice": "Gets all market and operations."
      },
      "allRewards()": {
        "notice": "Retrieves all rewards addresses."
      },
      "availableRewardsCount(address)": {
        "notice": "Gets the amount of reward assets that are being distributed for a Market."
      },
      "claim((address,bool[])[],(address,address[],uint256,uint8,bytes32,bytes32))": {
        "notice": "Claims `permit.owner` rewards for the given operations and reward assets to the given account."
      },
      "claim((address,bool[])[],address,address[])": {
        "notice": "Claims `msg.sender` rewards for the given operations and reward assets to the given account."
      },
      "claimAll(address)": {
        "notice": "Claims all `msg.sender` rewards to the given account."
      },
      "claimOnBehalfOf((address,bool[])[],address,address[])": {
        "notice": "Claims `account` rewards for the given operations and reward assets."
      },
      "claimable((address,bool[])[],address,address)": {
        "notice": "Gets the claimable amount of rewards for a given account, Market operations and reward asset."
      },
      "config((address,address,address,uint32,uint256,uint256,uint256,uint256,int128,uint64,uint64,uint64,uint64,uint64)[])": {
        "notice": "Enables or updates the reward distribution for the given markets and rewards."
      },
      "distribution(address)": {
        "notice": "Tracks the reward distribution data for a given market."
      },
      "distributionTime(address,address)": {
        "notice": "Gets the distribution `start`, `end` and `lastUpdate` value of a given market and reward."
      },
      "handleBorrow(address)": {
        "notice": "Hook to be called by the Market to update the index of the account that made a rewarded borrow."
      },
      "handleDeposit(address)": {
        "notice": "Hook to be called by the Market to update the index of the account that made a rewarded deposit."
      },
      "initialize()": {
        "notice": "Initializes the contract."
      },
      "keepers(address)": {
        "notice": "Tracks the allowed `keeper` to claim on behalf of `account`."
      },
      "marketList(uint256)": {
        "notice": "Stores Markets with distributions set."
      },
      "nonces(address)": {
        "notice": "Tracks the owner nonces for the claim permit."
      },
      "previewAllocation(address,address,uint256)": {
        "notice": "Retrieves projected distribution indexes and new undistributed amount for a given `deltaTime`."
      },
      "rewardConfig(address,address)": {
        "notice": "Gets the configuration of a given distribution."
      },
      "rewardEnabled(address)": {
        "notice": "Tracks enabled asset rewards."
      },
      "rewardIndexes(address,address)": {
        "notice": "Gets the reward indexes and last amount of undistributed rewards for a given market and reward asset."
      },
      "rewardList(uint256)": {
        "notice": "Stores registered asset rewards."
      },
      "setKeeper(address,address)": {
        "notice": "Sets the `keeper` address for the given `account`."
      },
      "withdraw(address,address)": {
        "notice": "Withdraws the contract's balance of the given asset to the given address."
      }
    },
    "version": 1
  },
  "storageLayout": {
    "storage": [
      {
        "astId": 543,
        "contract": "contracts/RewardsController.sol:RewardsController",
        "label": "_initialized",
        "offset": 0,
        "slot": "0",
        "type": "t_uint8"
      },
      {
        "astId": 546,
        "contract": "contracts/RewardsController.sol:RewardsController",
        "label": "_initializing",
        "offset": 1,
        "slot": "0",
        "type": "t_bool"
      },
      {
        "astId": 3288,
        "contract": "contracts/RewardsController.sol:RewardsController",
        "label": "__gap",
        "offset": 0,
        "slot": "1",
        "type": "t_array(t_uint256)50_storage"
      },
      {
        "astId": 4287,
        "contract": "contracts/RewardsController.sol:RewardsController",
        "label": "__gap",
        "offset": 0,
        "slot": "51",
        "type": "t_array(t_uint256)50_storage"
      },
      {
        "astId": 28,
        "contract": "contracts/RewardsController.sol:RewardsController",
        "label": "_roles",
        "offset": 0,
        "slot": "101",
        "type": "t_mapping(t_bytes32,t_struct(RoleData)23_storage)"
      },
      {
        "astId": 335,
        "contract": "contracts/RewardsController.sol:RewardsController",
        "label": "__gap",
        "offset": 0,
        "slot": "102",
        "type": "t_array(t_uint256)49_storage"
      },
      {
        "astId": 28326,
        "contract": "contracts/RewardsController.sol:RewardsController",
        "label": "distribution",
        "offset": 0,
        "slot": "151",
        "type": "t_mapping(t_contract(Market)27481,t_struct(Distribution)31475_storage)"
      },
      {
        "astId": 28332,
        "contract": "contracts/RewardsController.sol:RewardsController",
        "label": "rewardEnabled",
        "offset": 0,
        "slot": "152",
        "type": "t_mapping(t_contract(ERC20)47828,t_bool)"
      },
      {
        "astId": 28337,
        "contract": "contracts/RewardsController.sol:RewardsController",
        "label": "rewardList",
        "offset": 0,
        "slot": "153",
        "type": "t_array(t_contract(ERC20)47828)dyn_storage"
      },
      {
        "astId": 28342,
        "contract": "contracts/RewardsController.sol:RewardsController",
        "label": "marketList",
        "offset": 0,
        "slot": "154",
        "type": "t_array(t_contract(Market)27481)dyn_storage"
      },
      {
        "astId": 28347,
        "contract": "contracts/RewardsController.sol:RewardsController",
        "label": "nonces",
        "offset": 0,
        "slot": "155",
        "type": "t_mapping(t_address,t_uint256)"
      },
      {
        "astId": 28350,
        "contract": "contracts/RewardsController.sol:RewardsController",
        "label": "_claimSender",
        "offset": 0,
        "slot": "156",
        "type": "t_address"
      },
      {
        "astId": 28355,
        "contract": "contracts/RewardsController.sol:RewardsController",
        "label": "keepers",
        "offset": 0,
        "slot": "157",
        "type": "t_mapping(t_address,t_address)"
      }
    ],
    "types": {
      "t_address": {
        "encoding": "inplace",
        "label": "address",
        "numberOfBytes": "20"
      },
      "t_array(t_contract(ERC20)47828)dyn_storage": {
        "base": "t_contract(ERC20)47828",
        "encoding": "dynamic_array",
        "label": "contract ERC20[]",
        "numberOfBytes": "32"
      },
      "t_array(t_contract(Market)27481)dyn_storage": {
        "base": "t_contract(Market)27481",
        "encoding": "dynamic_array",
        "label": "contract Market[]",
        "numberOfBytes": "32"
      },
      "t_array(t_uint256)49_storage": {
        "base": "t_uint256",
        "encoding": "inplace",
        "label": "uint256[49]",
        "numberOfBytes": "1568"
      },
      "t_array(t_uint256)50_storage": {
        "base": "t_uint256",
        "encoding": "inplace",
        "label": "uint256[50]",
        "numberOfBytes": "1600"
      },
      "t_bool": {
        "encoding": "inplace",
        "label": "bool",
        "numberOfBytes": "1"
      },
      "t_bytes32": {
        "encoding": "inplace",
        "label": "bytes32",
        "numberOfBytes": "32"
      },
      "t_contract(ERC20)47828": {
        "encoding": "inplace",
        "label": "contract ERC20",
        "numberOfBytes": "20"
      },
      "t_contract(IPriceFeed)46863": {
        "encoding": "inplace",
        "label": "contract IPriceFeed",
        "numberOfBytes": "20"
      },
      "t_contract(Market)27481": {
        "encoding": "inplace",
        "label": "contract Market",
        "numberOfBytes": "20"
      },
      "t_int128": {
        "encoding": "inplace",
        "label": "int128",
        "numberOfBytes": "16"
      },
      "t_mapping(t_address,t_address)": {
        "encoding": "mapping",
        "key": "t_address",
        "label": "mapping(address => address)",
        "numberOfBytes": "32",
        "value": "t_address"
      },
      "t_mapping(t_address,t_bool)": {
        "encoding": "mapping",
        "key": "t_address",
        "label": "mapping(address => bool)",
        "numberOfBytes": "32",
        "value": "t_bool"
      },
      "t_mapping(t_address,t_mapping(t_bool,t_struct(Account)31380_storage))": {
        "encoding": "mapping",
        "key": "t_address",
        "label": "mapping(address => mapping(bool => struct RewardsController.Account))",
        "numberOfBytes": "32",
        "value": "t_mapping(t_bool,t_struct(Account)31380_storage)"
      },
      "t_mapping(t_address,t_uint256)": {
        "encoding": "mapping",
        "key": "t_address",
        "label": "mapping(address => uint256)",
        "numberOfBytes": "32",
        "value": "t_uint256"
      },
      "t_mapping(t_bool,t_struct(Account)31380_storage)": {
        "encoding": "mapping",
        "key": "t_bool",
        "label": "mapping(bool => struct RewardsController.Account)",
        "numberOfBytes": "32",
        "value": "t_struct(Account)31380_storage"
      },
      "t_mapping(t_bytes32,t_struct(RoleData)23_storage)": {
        "encoding": "mapping",
        "key": "t_bytes32",
        "label": "mapping(bytes32 => struct AccessControlUpgradeable.RoleData)",
        "numberOfBytes": "32",
        "value": "t_struct(RoleData)23_storage"
      },
      "t_mapping(t_contract(ERC20)47828,t_bool)": {
        "encoding": "mapping",
        "key": "t_contract(ERC20)47828",
        "label": "mapping(contract ERC20 => bool)",
        "numberOfBytes": "32",
        "value": "t_bool"
      },
      "t_mapping(t_contract(ERC20)47828,t_struct(RewardData)31459_storage)": {
        "encoding": "mapping",
        "key": "t_contract(ERC20)47828",
        "label": "mapping(contract ERC20 => struct RewardsController.RewardData)",
        "numberOfBytes": "32",
        "value": "t_struct(RewardData)31459_storage"
      },
      "t_mapping(t_contract(Market)27481,t_struct(Distribution)31475_storage)": {
        "encoding": "mapping",
        "key": "t_contract(Market)27481",
        "label": "mapping(contract Market => struct RewardsController.Distribution)",
        "numberOfBytes": "32",
        "value": "t_struct(Distribution)31475_storage"
      },
      "t_mapping(t_uint128,t_contract(ERC20)47828)": {
        "encoding": "mapping",
        "key": "t_uint128",
        "label": "mapping(uint128 => contract ERC20)",
        "numberOfBytes": "32",
        "value": "t_contract(ERC20)47828"
      },
      "t_struct(Account)31380_storage": {
        "encoding": "inplace",
        "label": "struct RewardsController.Account",
        "members": [
          {
            "astId": 31377,
            "contract": "contracts/RewardsController.sol:RewardsController",
            "label": "index",
            "offset": 0,
            "slot": "0",
            "type": "t_uint128"
          },
          {
            "astId": 31379,
            "contract": "contracts/RewardsController.sol:RewardsController",
            "label": "accrued",
            "offset": 16,
            "slot": "0",
            "type": "t_uint128"
          }
        ],
        "numberOfBytes": "32"
      },
      "t_struct(Distribution)31475_storage": {
        "encoding": "inplace",
        "label": "struct RewardsController.Distribution",
        "members": [
          {
            "astId": 31465,
            "contract": "contracts/RewardsController.sol:RewardsController",
            "label": "rewards",
            "offset": 0,
            "slot": "0",
            "type": "t_mapping(t_contract(ERC20)47828,t_struct(RewardData)31459_storage)"
          },
          {
            "astId": 31470,
            "contract": "contracts/RewardsController.sol:RewardsController",
            "label": "availableRewards",
            "offset": 0,
            "slot": "1",
            "type": "t_mapping(t_uint128,t_contract(ERC20)47828)"
          },
          {
            "astId": 31472,
            "contract": "contracts/RewardsController.sol:RewardsController",
            "label": "availableRewardsCount",
            "offset": 0,
            "slot": "2",
            "type": "t_uint8"
          },
          {
            "astId": 31474,
            "contract": "contracts/RewardsController.sol:RewardsController",
            "label": "baseUnit",
            "offset": 0,
            "slot": "3",
            "type": "t_uint256"
          }
        ],
        "numberOfBytes": "128"
      },
      "t_struct(RewardData)31459_storage": {
        "encoding": "inplace",
        "label": "struct RewardsController.RewardData",
        "members": [
          {
            "astId": 31414,
            "contract": "contracts/RewardsController.sol:RewardsController",
            "label": "targetDebt",
            "offset": 0,
            "slot": "0",
            "type": "t_uint256"
          },
          {
            "astId": 31416,
            "contract": "contracts/RewardsController.sol:RewardsController",
            "label": "releaseRate",
            "offset": 0,
            "slot": "1",
            "type": "t_uint256"
          },
          {
            "astId": 31418,
            "contract": "contracts/RewardsController.sol:RewardsController",
            "label": "totalDistribution",
            "offset": 0,
            "slot": "2",
            "type": "t_uint256"
          },
          {
            "astId": 31420,
            "contract": "contracts/RewardsController.sol:RewardsController",
            "label": "undistributedFactor",
            "offset": 0,
            "slot": "3",
            "type": "t_uint256"
          },
          {
            "astId": 31422,
            "contract": "contracts/RewardsController.sol:RewardsController",
            "label": "lastUndistributed",
            "offset": 0,
            "slot": "4",
            "type": "t_uint256"
          },
          {
            "astId": 31424,
            "contract": "contracts/RewardsController.sol:RewardsController",
            "label": "flipSpeed",
            "offset": 0,
            "slot": "5",
            "type": "t_int128"
          },
          {
            "astId": 31426,
            "contract": "contracts/RewardsController.sol:RewardsController",
            "label": "compensationFactor",
            "offset": 16,
            "slot": "5",
            "type": "t_uint64"
          },
          {
            "astId": 31428,
            "contract": "contracts/RewardsController.sol:RewardsController",
            "label": "transitionFactor",
            "offset": 24,
            "slot": "5",
            "type": "t_uint64"
          },
          {
            "astId": 31430,
            "contract": "contracts/RewardsController.sol:RewardsController",
            "label": "borrowAllocationWeightFactor",
            "offset": 0,
            "slot": "6",
            "type": "t_uint64"
          },
          {
            "astId": 31432,
            "contract": "contracts/RewardsController.sol:RewardsController",
            "label": "depositAllocationWeightAddend",
            "offset": 8,
            "slot": "6",
            "type": "t_uint64"
          },
          {
            "astId": 31434,
            "contract": "contracts/RewardsController.sol:RewardsController",
            "label": "depositAllocationWeightFactor",
            "offset": 16,
            "slot": "6",
            "type": "t_uint64"
          },
          {
            "astId": 31436,
            "contract": "contracts/RewardsController.sol:RewardsController",
            "label": "borrowIndex",
            "offset": 0,
            "slot": "7",
            "type": "t_uint128"
          },
          {
            "astId": 31438,
            "contract": "contracts/RewardsController.sol:RewardsController",
            "label": "depositIndex",
            "offset": 16,
            "slot": "7",
            "type": "t_uint128"
          },
          {
            "astId": 31440,
            "contract": "contracts/RewardsController.sol:RewardsController",
            "label": "start",
            "offset": 0,
            "slot": "8",
            "type": "t_uint32"
          },
          {
            "astId": 31442,
            "contract": "contracts/RewardsController.sol:RewardsController",
            "label": "end",
            "offset": 4,
            "slot": "8",
            "type": "t_uint32"
          },
          {
            "astId": 31444,
            "contract": "contracts/RewardsController.sol:RewardsController",
            "label": "lastUpdate",
            "offset": 8,
            "slot": "8",
            "type": "t_uint32"
          },
          {
            "astId": 31446,
            "contract": "contracts/RewardsController.sol:RewardsController",
            "label": "lastConfig",
            "offset": 12,
            "slot": "8",
            "type": "t_uint32"
          },
          {
            "astId": 31448,
            "contract": "contracts/RewardsController.sol:RewardsController",
            "label": "lastConfigReleased",
            "offset": 0,
            "slot": "9",
            "type": "t_uint256"
          },
          {
            "astId": 31451,
            "contract": "contracts/RewardsController.sol:RewardsController",
            "label": "priceFeed",
            "offset": 0,
            "slot": "10",
            "type": "t_contract(IPriceFeed)46863"
          },
          {
            "astId": 31458,
            "contract": "contracts/RewardsController.sol:RewardsController",
            "label": "accounts",
            "offset": 0,
            "slot": "11",
            "type": "t_mapping(t_address,t_mapping(t_bool,t_struct(Account)31380_storage))"
          }
        ],
        "numberOfBytes": "384"
      },
      "t_struct(RoleData)23_storage": {
        "encoding": "inplace",
        "label": "struct AccessControlUpgradeable.RoleData",
        "members": [
          {
            "astId": 20,
            "contract": "contracts/RewardsController.sol:RewardsController",
            "label": "members",
            "offset": 0,
            "slot": "0",
            "type": "t_mapping(t_address,t_bool)"
          },
          {
            "astId": 22,
            "contract": "contracts/RewardsController.sol:RewardsController",
            "label": "adminRole",
            "offset": 0,
            "slot": "1",
            "type": "t_bytes32"
          }
        ],
        "numberOfBytes": "64"
      },
      "t_uint128": {
        "encoding": "inplace",
        "label": "uint128",
        "numberOfBytes": "16"
      },
      "t_uint256": {
        "encoding": "inplace",
        "label": "uint256",
        "numberOfBytes": "32"
      },
      "t_uint32": {
        "encoding": "inplace",
        "label": "uint32",
        "numberOfBytes": "4"
      },
      "t_uint64": {
        "encoding": "inplace",
        "label": "uint64",
        "numberOfBytes": "8"
      },
      "t_uint8": {
        "encoding": "inplace",
        "label": "uint8",
        "numberOfBytes": "1"
      }
    }
  }
}