{
  "address": "0xa0E81ADedfB2113cF7869ABEf3c81D2097000A65",
  "abi": [
    {
      "inputs": [
        {
          "internalType": "contract IERC20Upgradeable",
          "name": "exa_",
          "type": "address"
        }
      ],
      "stateMutability": "nonpayable",
      "type": "constructor"
    },
    {
      "inputs": [],
      "name": "AlreadyListed",
      "type": "error"
    },
    {
      "inputs": [],
      "name": "InsufficientBalance",
      "type": "error"
    },
    {
      "inputs": [],
      "name": "NotFinished",
      "type": "error"
    },
    {
      "inputs": [],
      "name": "NotPausingRole",
      "type": "error"
    },
    {
      "inputs": [],
      "name": "RewardNotListed",
      "type": "error"
    },
    {
      "inputs": [],
      "name": "Untransferable",
      "type": "error"
    },
    {
      "inputs": [],
      "name": "ZeroAmount",
      "type": "error"
    },
    {
      "inputs": [],
      "name": "ZeroRate",
      "type": "error"
    },
    {
      "anonymous": false,
      "inputs": [
        {
          "indexed": true,
          "internalType": "address",
          "name": "owner",
          "type": "address"
        },
        {
          "indexed": true,
          "internalType": "address",
          "name": "spender",
          "type": "address"
        },
        {
          "indexed": false,
          "internalType": "uint256",
          "name": "value",
          "type": "uint256"
        }
      ],
      "name": "Approval",
      "type": "event"
    },
    {
      "anonymous": false,
      "inputs": [
        {
          "indexed": true,
          "internalType": "address",
          "name": "sender",
          "type": "address"
        },
        {
          "indexed": true,
          "internalType": "address",
          "name": "owner",
          "type": "address"
        },
        {
          "indexed": false,
          "internalType": "uint256",
          "name": "assets",
          "type": "uint256"
        },
        {
          "indexed": false,
          "internalType": "uint256",
          "name": "shares",
          "type": "uint256"
        }
      ],
      "name": "Deposit",
      "type": "event"
    },
    {
      "anonymous": false,
      "inputs": [],
      "name": "EIP712DomainChanged",
      "type": "event"
    },
    {
      "anonymous": false,
      "inputs": [
        {
          "indexed": false,
          "internalType": "uint8",
          "name": "version",
          "type": "uint8"
        }
      ],
      "name": "Initialized",
      "type": "event"
    },
    {
      "anonymous": false,
      "inputs": [
        {
          "indexed": false,
          "internalType": "address",
          "name": "account",
          "type": "address"
        }
      ],
      "name": "Paused",
      "type": "event"
    },
    {
      "anonymous": false,
      "inputs": [
        {
          "indexed": true,
          "internalType": "contract ERC20",
          "name": "reward",
          "type": "address"
        },
        {
          "indexed": true,
          "internalType": "address",
          "name": "notifier",
          "type": "address"
        },
        {
          "indexed": false,
          "internalType": "uint256",
          "name": "amount",
          "type": "uint256"
        }
      ],
      "name": "RewardAmountNotified",
      "type": "event"
    },
    {
      "anonymous": false,
      "inputs": [
        {
          "indexed": true,
          "internalType": "contract ERC20",
          "name": "reward",
          "type": "address"
        },
        {
          "indexed": true,
          "internalType": "address",
          "name": "account",
          "type": "address"
        }
      ],
      "name": "RewardListed",
      "type": "event"
    },
    {
      "anonymous": false,
      "inputs": [
        {
          "indexed": true,
          "internalType": "contract ERC20",
          "name": "reward",
          "type": "address"
        },
        {
          "indexed": true,
          "internalType": "address",
          "name": "account",
          "type": "address"
        },
        {
          "indexed": false,
          "internalType": "uint256",
          "name": "amount",
          "type": "uint256"
        }
      ],
      "name": "RewardPaid",
      "type": "event"
    },
    {
      "anonymous": false,
      "inputs": [
        {
          "indexed": true,
          "internalType": "contract ERC20",
          "name": "reward",
          "type": "address"
        },
        {
          "indexed": true,
          "internalType": "address",
          "name": "account",
          "type": "address"
        },
        {
          "indexed": false,
          "internalType": "uint256",
          "name": "duration",
          "type": "uint256"
        }
      ],
      "name": "RewardsDurationSet",
      "type": "event"
    },
    {
      "anonymous": false,
      "inputs": [
        {
          "indexed": true,
          "internalType": "bytes32",
          "name": "role",
          "type": "bytes32"
        },
        {
          "indexed": true,
          "internalType": "bytes32",
          "name": "previousAdminRole",
          "type": "bytes32"
        },
        {
          "indexed": true,
          "internalType": "bytes32",
          "name": "newAdminRole",
          "type": "bytes32"
        }
      ],
      "name": "RoleAdminChanged",
      "type": "event"
    },
    {
      "anonymous": false,
      "inputs": [
        {
          "indexed": true,
          "internalType": "bytes32",
          "name": "role",
          "type": "bytes32"
        },
        {
          "indexed": true,
          "internalType": "address",
          "name": "account",
          "type": "address"
        },
        {
          "indexed": true,
          "internalType": "address",
          "name": "sender",
          "type": "address"
        }
      ],
      "name": "RoleGranted",
      "type": "event"
    },
    {
      "anonymous": false,
      "inputs": [
        {
          "indexed": true,
          "internalType": "bytes32",
          "name": "role",
          "type": "bytes32"
        },
        {
          "indexed": true,
          "internalType": "address",
          "name": "account",
          "type": "address"
        },
        {
          "indexed": true,
          "internalType": "address",
          "name": "sender",
          "type": "address"
        }
      ],
      "name": "RoleRevoked",
      "type": "event"
    },
    {
      "anonymous": false,
      "inputs": [
        {
          "indexed": true,
          "internalType": "address",
          "name": "from",
          "type": "address"
        },
        {
          "indexed": true,
          "internalType": "address",
          "name": "to",
          "type": "address"
        },
        {
          "indexed": false,
          "internalType": "uint256",
          "name": "value",
          "type": "uint256"
        }
      ],
      "name": "Transfer",
      "type": "event"
    },
    {
      "anonymous": false,
      "inputs": [
        {
          "indexed": false,
          "internalType": "address",
          "name": "account",
          "type": "address"
        }
      ],
      "name": "Unpaused",
      "type": "event"
    },
    {
      "anonymous": false,
      "inputs": [
        {
          "indexed": true,
          "internalType": "address",
          "name": "sender",
          "type": "address"
        },
        {
          "indexed": true,
          "internalType": "address",
          "name": "receiver",
          "type": "address"
        },
        {
          "indexed": true,
          "internalType": "address",
          "name": "owner",
          "type": "address"
        },
        {
          "indexed": false,
          "internalType": "uint256",
          "name": "assets",
          "type": "uint256"
        },
        {
          "indexed": false,
          "internalType": "uint256",
          "name": "shares",
          "type": "uint256"
        }
      ],
      "name": "Withdraw",
      "type": "event"
    },
    {
      "inputs": [],
      "name": "CLOCK_MODE",
      "outputs": [
        {
          "internalType": "string",
          "name": "",
          "type": "string"
        }
      ],
      "stateMutability": "pure",
      "type": "function"
    },
    {
      "inputs": [],
      "name": "DEFAULT_ADMIN_ROLE",
      "outputs": [
        {
          "internalType": "bytes32",
          "name": "",
          "type": "bytes32"
        }
      ],
      "stateMutability": "view",
      "type": "function"
    },
    {
      "inputs": [],
      "name": "DOMAIN_SEPARATOR",
      "outputs": [
        {
          "internalType": "bytes32",
          "name": "",
          "type": "bytes32"
        }
      ],
      "stateMutability": "view",
      "type": "function"
    },
    {
      "inputs": [],
      "name": "EMERGENCY_ADMIN_ROLE",
      "outputs": [
        {
          "internalType": "bytes32",
          "name": "",
          "type": "bytes32"
        }
      ],
      "stateMutability": "view",
      "type": "function"
    },
    {
      "inputs": [],
      "name": "PAUSER_ROLE",
      "outputs": [
        {
          "internalType": "bytes32",
          "name": "",
          "type": "bytes32"
        }
      ],
      "stateMutability": "view",
      "type": "function"
    },
    {
      "inputs": [
        {
          "internalType": "address",
          "name": "owner",
          "type": "address"
        },
        {
          "internalType": "address",
          "name": "spender",
          "type": "address"
        }
      ],
      "name": "allowance",
      "outputs": [
        {
          "internalType": "uint256",
          "name": "",
          "type": "uint256"
        }
      ],
      "stateMutability": "view",
      "type": "function"
    },
    {
      "inputs": [
        {
          "internalType": "address",
          "name": "spender",
          "type": "address"
        },
        {
          "internalType": "uint256",
          "name": "amount",
          "type": "uint256"
        }
      ],
      "name": "approve",
      "outputs": [
        {
          "internalType": "bool",
          "name": "",
          "type": "bool"
        }
      ],
      "stateMutability": "nonpayable",
      "type": "function"
    },
    {
      "inputs": [],
      "name": "asset",
      "outputs": [
        {
          "internalType": "address",
          "name": "",
          "type": "address"
        }
      ],
      "stateMutability": "view",
      "type": "function"
    },
    {
      "inputs": [
        {
          "internalType": "contract ERC20",
          "name": "reward",
          "type": "address"
        },
        {
          "internalType": "address",
          "name": "account",
          "type": "address"
        }
      ],
      "name": "avgIndex",
      "outputs": [
        {
          "internalType": "uint256",
          "name": "",
          "type": "uint256"
        }
      ],
      "stateMutability": "view",
      "type": "function"
    },
    {
      "inputs": [
        {
          "internalType": "address",
          "name": "account",
          "type": "address"
        },
        {
          "internalType": "contract ERC20",
          "name": "reward",
          "type": "address"
        }
      ],
      "name": "avgIndexes",
      "outputs": [
        {
          "internalType": "uint256",
          "name": "index",
          "type": "uint256"
        }
      ],
      "stateMutability": "view",
      "type": "function"
    },
    {
      "inputs": [
        {
          "internalType": "address",
          "name": "account",
          "type": "address"
        }
      ],
      "name": "avgStart",
      "outputs": [
        {
          "internalType": "uint256",
          "name": "time",
          "type": "uint256"
        }
      ],
      "stateMutability": "view",
      "type": "function"
    },
    {
      "inputs": [
        {
          "internalType": "address",
          "name": "account",
          "type": "address"
        }
      ],
      "name": "balanceOf",
      "outputs": [
        {
          "internalType": "uint256",
          "name": "",
          "type": "uint256"
        }
      ],
      "stateMutability": "view",
      "type": "function"
    },
    {
      "inputs": [
        {
          "internalType": "contract ERC20[]",
          "name": "rewardTokens",
          "type": "address[]"
        }
      ],
      "name": "claim",
      "outputs": [],
      "stateMutability": "nonpayable",
      "type": "function"
    },
    {
      "inputs": [],
      "name": "claimAll",
      "outputs": [],
      "stateMutability": "nonpayable",
      "type": "function"
    },
    {
      "inputs": [
        {
          "internalType": "contract ERC20",
          "name": "reward",
          "type": "address"
        },
        {
          "internalType": "address",
          "name": "account",
          "type": "address"
        }
      ],
      "name": "claimable",
      "outputs": [
        {
          "internalType": "uint256",
          "name": "",
          "type": "uint256"
        }
      ],
      "stateMutability": "view",
      "type": "function"
    },
    {
      "inputs": [],
      "name": "clock",
      "outputs": [
        {
          "internalType": "uint48",
          "name": "",
          "type": "uint48"
        }
      ],
      "stateMutability": "view",
      "type": "function"
    },
    {
      "inputs": [
        {
          "internalType": "uint256",
          "name": "shares",
          "type": "uint256"
        }
      ],
      "name": "convertToAssets",
      "outputs": [
        {
          "internalType": "uint256",
          "name": "",
          "type": "uint256"
        }
      ],
      "stateMutability": "view",
      "type": "function"
    },
    {
      "inputs": [
        {
          "internalType": "uint256",
          "name": "assets",
          "type": "uint256"
        }
      ],
      "name": "convertToShares",
      "outputs": [
        {
          "internalType": "uint256",
          "name": "",
          "type": "uint256"
        }
      ],
      "stateMutability": "view",
      "type": "function"
    },
    {
      "inputs": [],
      "name": "decimals",
      "outputs": [
        {
          "internalType": "uint8",
          "name": "",
          "type": "uint8"
        }
      ],
      "stateMutability": "view",
      "type": "function"
    },
    {
      "inputs": [
        {
          "internalType": "address",
          "name": "spender",
          "type": "address"
        },
        {
          "internalType": "uint256",
          "name": "subtractedValue",
          "type": "uint256"
        }
      ],
      "name": "decreaseAllowance",
      "outputs": [
        {
          "internalType": "bool",
          "name": "",
          "type": "bool"
        }
      ],
      "stateMutability": "nonpayable",
      "type": "function"
    },
    {
      "inputs": [
        {
          "internalType": "uint256",
          "name": "assets",
          "type": "uint256"
        },
        {
          "internalType": "address",
          "name": "receiver",
          "type": "address"
        }
      ],
      "name": "deposit",
      "outputs": [
        {
          "internalType": "uint256",
          "name": "",
          "type": "uint256"
        }
      ],
      "stateMutability": "nonpayable",
      "type": "function"
    },
    {
      "inputs": [
        {
          "internalType": "contract ERC20",
          "name": "reward",
          "type": "address"
        },
        {
          "internalType": "address",
          "name": "account",
          "type": "address"
        },
        {
          "internalType": "uint256",
          "name": "assets",
          "type": "uint256"
        }
      ],
      "name": "earned",
      "outputs": [
        {
          "internalType": "uint256",
          "name": "",
          "type": "uint256"
        }
      ],
      "stateMutability": "view",
      "type": "function"
    },
    {
      "inputs": [
        {
          "internalType": "contract ERC20",
          "name": "reward",
          "type": "address"
        },
        {
          "internalType": "address",
          "name": "account",
          "type": "address"
        }
      ],
      "name": "earned",
      "outputs": [
        {
          "internalType": "uint256",
          "name": "",
          "type": "uint256"
        }
      ],
      "stateMutability": "view",
      "type": "function"
    },
    {
      "inputs": [],
      "name": "eip712Domain",
      "outputs": [
        {
          "internalType": "bytes1",
          "name": "fields",
          "type": "bytes1"
        },
        {
          "internalType": "string",
          "name": "name",
          "type": "string"
        },
        {
          "internalType": "string",
          "name": "version",
          "type": "string"
        },
        {
          "internalType": "uint256",
          "name": "chainId",
          "type": "uint256"
        },
        {
          "internalType": "address",
          "name": "verifyingContract",
          "type": "address"
        },
        {
          "internalType": "bytes32",
          "name": "salt",
          "type": "bytes32"
        },
        {
          "internalType": "uint256[]",
          "name": "extensions",
          "type": "uint256[]"
        }
      ],
      "stateMutability": "view",
      "type": "function"
    },
    {
      "inputs": [
        {
          "internalType": "contract ERC20",
          "name": "reward",
          "type": "address"
        }
      ],
      "name": "enableReward",
      "outputs": [],
      "stateMutability": "nonpayable",
      "type": "function"
    },
    {
      "inputs": [],
      "name": "exa",
      "outputs": [
        {
          "internalType": "contract IERC20Upgradeable",
          "name": "",
          "type": "address"
        }
      ],
      "stateMutability": "view",
      "type": "function"
    },
    {
      "inputs": [],
      "name": "excessFactor",
      "outputs": [
        {
          "internalType": "uint256",
          "name": "",
          "type": "uint256"
        }
      ],
      "stateMutability": "view",
      "type": "function"
    },
    {
      "inputs": [
        {
          "internalType": "bytes32",
          "name": "role",
          "type": "bytes32"
        }
      ],
      "name": "getRoleAdmin",
      "outputs": [
        {
          "internalType": "bytes32",
          "name": "",
          "type": "bytes32"
        }
      ],
      "stateMutability": "view",
      "type": "function"
    },
    {
      "inputs": [
        {
          "internalType": "contract ERC20",
          "name": "reward",
          "type": "address"
        }
      ],
      "name": "globalIndex",
      "outputs": [
        {
          "internalType": "uint256",
          "name": "",
          "type": "uint256"
        }
      ],
      "stateMutability": "view",
      "type": "function"
    },
    {
      "inputs": [
        {
          "internalType": "bytes32",
          "name": "role",
          "type": "bytes32"
        },
        {
          "internalType": "address",
          "name": "account",
          "type": "address"
        }
      ],
      "name": "grantRole",
      "outputs": [],
      "stateMutability": "nonpayable",
      "type": "function"
    },
    {
      "inputs": [],
      "name": "harvest",
      "outputs": [],
      "stateMutability": "nonpayable",
      "type": "function"
    },
    {
      "inputs": [
        {
          "internalType": "bytes32",
          "name": "role",
          "type": "bytes32"
        },
        {
          "internalType": "address",
          "name": "account",
          "type": "address"
        }
      ],
      "name": "hasRole",
      "outputs": [
        {
          "internalType": "bool",
          "name": "",
          "type": "bool"
        }
      ],
      "stateMutability": "view",
      "type": "function"
    },
    {
      "inputs": [
        {
          "internalType": "address",
          "name": "spender",
          "type": "address"
        },
        {
          "internalType": "uint256",
          "name": "addedValue",
          "type": "uint256"
        }
      ],
      "name": "increaseAllowance",
      "outputs": [
        {
          "internalType": "bool",
          "name": "",
          "type": "bool"
        }
      ],
      "stateMutability": "nonpayable",
      "type": "function"
    },
    {
      "inputs": [
        {
          "internalType": "uint256",
          "name": "minTime_",
          "type": "uint256"
        },
        {
          "internalType": "uint256",
          "name": "refTime_",
          "type": "uint256"
        },
        {
          "internalType": "uint256",
          "name": "excessFactor_",
          "type": "uint256"
        },
        {
          "internalType": "uint256",
          "name": "penaltyGrowth_",
          "type": "uint256"
        },
        {
          "internalType": "uint256",
          "name": "penaltyThreshold_",
          "type": "uint256"
        },
        {
          "internalType": "contract Market",
          "name": "market_",
          "type": "address"
        },
        {
          "internalType": "address",
          "name": "provider_",
          "type": "address"
        },
        {
          "internalType": "address",
          "name": "savings_",
          "type": "address"
        },
        {
          "internalType": "uint256",
          "name": "duration_",
          "type": "uint256"
        },
        {
          "internalType": "uint256",
          "name": "providerRatio_",
          "type": "uint256"
        }
      ],
      "name": "initialize",
      "outputs": [],
      "stateMutability": "nonpayable",
      "type": "function"
    },
    {
      "inputs": [
        {
          "internalType": "uint256",
          "name": "finishAt",
          "type": "uint256"
        }
      ],
      "name": "lastTimeRewardApplicable",
      "outputs": [
        {
          "internalType": "uint256",
          "name": "",
          "type": "uint256"
        }
      ],
      "stateMutability": "view",
      "type": "function"
    },
    {
      "inputs": [],
      "name": "market",
      "outputs": [
        {
          "internalType": "contract Market",
          "name": "",
          "type": "address"
        }
      ],
      "stateMutability": "view",
      "type": "function"
    },
    {
      "inputs": [
        {
          "internalType": "address",
          "name": "",
          "type": "address"
        }
      ],
      "name": "maxDeposit",
      "outputs": [
        {
          "internalType": "uint256",
          "name": "",
          "type": "uint256"
        }
      ],
      "stateMutability": "view",
      "type": "function"
    },
    {
      "inputs": [
        {
          "internalType": "address",
          "name": "",
          "type": "address"
        }
      ],
      "name": "maxMint",
      "outputs": [
        {
          "internalType": "uint256",
          "name": "",
          "type": "uint256"
        }
      ],
      "stateMutability": "view",
      "type": "function"
    },
    {
      "inputs": [
        {
          "internalType": "address",
          "name": "owner",
          "type": "address"
        }
      ],
      "name": "maxRedeem",
      "outputs": [
        {
          "internalType": "uint256",
          "name": "",
          "type": "uint256"
        }
      ],
      "stateMutability": "view",
      "type": "function"
    },
    {
      "inputs": [
        {
          "internalType": "address",
          "name": "owner",
          "type": "address"
        }
      ],
      "name": "maxWithdraw",
      "outputs": [
        {
          "internalType": "uint256",
          "name": "",
          "type": "uint256"
        }
      ],
      "stateMutability": "view",
      "type": "function"
    },
    {
      "inputs": [],
      "name": "minTime",
      "outputs": [
        {
          "internalType": "uint256",
          "name": "",
          "type": "uint256"
        }
      ],
      "stateMutability": "view",
      "type": "function"
    },
    {
      "inputs": [
        {
          "internalType": "uint256",
          "name": "shares",
          "type": "uint256"
        },
        {
          "internalType": "address",
          "name": "receiver",
          "type": "address"
        }
      ],
      "name": "mint",
      "outputs": [
        {
          "internalType": "uint256",
          "name": "",
          "type": "uint256"
        }
      ],
      "stateMutability": "nonpayable",
      "type": "function"
    },
    {
      "inputs": [],
      "name": "name",
      "outputs": [
        {
          "internalType": "string",
          "name": "",
          "type": "string"
        }
      ],
      "stateMutability": "view",
      "type": "function"
    },
    {
      "inputs": [
        {
          "internalType": "address",
          "name": "owner",
          "type": "address"
        }
      ],
      "name": "nonces",
      "outputs": [
        {
          "internalType": "uint256",
          "name": "",
          "type": "uint256"
        }
      ],
      "stateMutability": "view",
      "type": "function"
    },
    {
      "inputs": [
        {
          "internalType": "contract ERC20",
          "name": "reward",
          "type": "address"
        },
        {
          "internalType": "uint256",
          "name": "amount",
          "type": "uint256"
        }
      ],
      "name": "notifyRewardAmount",
      "outputs": [],
      "stateMutability": "nonpayable",
      "type": "function"
    },
    {
      "inputs": [
        {
          "internalType": "address",
          "name": "account",
          "type": "address"
        },
        {
          "internalType": "contract ERC20",
          "name": "reward",
          "type": "address"
        }
      ],
      "name": "paidRewards",
      "outputs": [
        {
          "internalType": "uint256",
          "name": "",
          "type": "uint256"
        }
      ],
      "stateMutability": "view",
      "type": "function"
    },
    {
      "inputs": [],
      "name": "pause",
      "outputs": [],
      "stateMutability": "nonpayable",
      "type": "function"
    },
    {
      "inputs": [],
      "name": "paused",
      "outputs": [
        {
          "internalType": "bool",
          "name": "",
          "type": "bool"
        }
      ],
      "stateMutability": "view",
      "type": "function"
    },
    {
      "inputs": [
        {
          "internalType": "address",
          "name": "account",
          "type": "address"
        },
        {
          "internalType": "contract ERC20",
          "name": "reward",
          "type": "address"
        }
      ],
      "name": "penalizedRewards",
      "outputs": [
        {
          "internalType": "uint256",
          "name": "",
          "type": "uint256"
        }
      ],
      "stateMutability": "view",
      "type": "function"
    },
    {
      "inputs": [],
      "name": "penaltyGrowth",
      "outputs": [
        {
          "internalType": "uint256",
          "name": "",
          "type": "uint256"
        }
      ],
      "stateMutability": "view",
      "type": "function"
    },
    {
      "inputs": [],
      "name": "penaltyThreshold",
      "outputs": [
        {
          "internalType": "uint256",
          "name": "",
          "type": "uint256"
        }
      ],
      "stateMutability": "view",
      "type": "function"
    },
    {
      "inputs": [
        {
          "internalType": "address",
          "name": "owner",
          "type": "address"
        },
        {
          "internalType": "address",
          "name": "spender",
          "type": "address"
        },
        {
          "internalType": "uint256",
          "name": "value",
          "type": "uint256"
        },
        {
          "internalType": "uint256",
          "name": "deadline",
          "type": "uint256"
        },
        {
          "internalType": "uint8",
          "name": "v",
          "type": "uint8"
        },
        {
          "internalType": "bytes32",
          "name": "r",
          "type": "bytes32"
        },
        {
          "internalType": "bytes32",
          "name": "s",
          "type": "bytes32"
        }
      ],
      "name": "permit",
      "outputs": [],
      "stateMutability": "nonpayable",
      "type": "function"
    },
    {
      "inputs": [
        {
          "internalType": "uint256",
          "name": "assets",
          "type": "uint256"
        }
      ],
      "name": "previewDeposit",
      "outputs": [
        {
          "internalType": "uint256",
          "name": "",
          "type": "uint256"
        }
      ],
      "stateMutability": "view",
      "type": "function"
    },
    {
      "inputs": [
        {
          "internalType": "uint256",
          "name": "shares",
          "type": "uint256"
        }
      ],
      "name": "previewMint",
      "outputs": [
        {
          "internalType": "uint256",
          "name": "",
          "type": "uint256"
        }
      ],
      "stateMutability": "view",
      "type": "function"
    },
    {
      "inputs": [
        {
          "internalType": "uint256",
          "name": "shares",
          "type": "uint256"
        }
      ],
      "name": "previewRedeem",
      "outputs": [
        {
          "internalType": "uint256",
          "name": "",
          "type": "uint256"
        }
      ],
      "stateMutability": "view",
      "type": "function"
    },
    {
      "inputs": [
        {
          "internalType": "uint256",
          "name": "assets",
          "type": "uint256"
        }
      ],
      "name": "previewWithdraw",
      "outputs": [
        {
          "internalType": "uint256",
          "name": "",
          "type": "uint256"
        }
      ],
      "stateMutability": "view",
      "type": "function"
    },
    {
      "inputs": [],
      "name": "provider",
      "outputs": [
        {
          "internalType": "address",
          "name": "",
          "type": "address"
        }
      ],
      "stateMutability": "view",
      "type": "function"
    },
    {
      "inputs": [],
      "name": "providerRatio",
      "outputs": [
        {
          "internalType": "uint256",
          "name": "",
          "type": "uint256"
        }
      ],
      "stateMutability": "view",
      "type": "function"
    },
    {
      "inputs": [
        {
          "internalType": "uint256",
          "name": "shares",
          "type": "uint256"
        },
        {
          "internalType": "address",
          "name": "receiver",
          "type": "address"
        },
        {
          "internalType": "address",
          "name": "owner",
          "type": "address"
        }
      ],
      "name": "redeem",
      "outputs": [
        {
          "internalType": "uint256",
          "name": "",
          "type": "uint256"
        }
      ],
      "stateMutability": "nonpayable",
      "type": "function"
    },
    {
      "inputs": [],
      "name": "refTime",
      "outputs": [
        {
          "internalType": "uint256",
          "name": "",
          "type": "uint256"
        }
      ],
      "stateMutability": "view",
      "type": "function"
    },
    {
      "inputs": [
        {
          "internalType": "bytes32",
          "name": "role",
          "type": "bytes32"
        },
        {
          "internalType": "address",
          "name": "account",
          "type": "address"
        }
      ],
      "name": "renounceRole",
      "outputs": [],
      "stateMutability": "nonpayable",
      "type": "function"
    },
    {
      "inputs": [
        {
          "internalType": "bytes32",
          "name": "role",
          "type": "bytes32"
        },
        {
          "internalType": "address",
          "name": "account",
          "type": "address"
        }
      ],
      "name": "revokeRole",
      "outputs": [],
      "stateMutability": "nonpayable",
      "type": "function"
    },
    {
      "inputs": [
        {
          "internalType": "contract ERC20",
          "name": "reward",
          "type": "address"
        }
      ],
      "name": "rewards",
      "outputs": [
        {
          "internalType": "uint256",
          "name": "duration",
          "type": "uint256"
        },
        {
          "internalType": "uint256",
          "name": "finishAt",
          "type": "uint256"
        },
        {
          "internalType": "uint256",
          "name": "index",
          "type": "uint256"
        },
        {
          "internalType": "bool",
          "name": "isEnabled",
          "type": "bool"
        },
        {
          "internalType": "uint256",
          "name": "rate",
          "type": "uint256"
        },
        {
          "internalType": "uint256",
          "name": "updatedAt",
          "type": "uint256"
        }
      ],
      "stateMutability": "view",
      "type": "function"
    },
    {
      "inputs": [
        {
          "internalType": "uint256",
          "name": "",
          "type": "uint256"
        }
      ],
      "name": "rewardsTokens",
      "outputs": [
        {
          "internalType": "contract ERC20",
          "name": "",
          "type": "address"
        }
      ],
      "stateMutability": "view",
      "type": "function"
    },
    {
      "inputs": [],
      "name": "savings",
      "outputs": [
        {
          "internalType": "address",
          "name": "",
          "type": "address"
        }
      ],
      "stateMutability": "view",
      "type": "function"
    },
    {
      "inputs": [
        {
          "internalType": "contract ERC20",
          "name": "reward",
          "type": "address"
        },
        {
          "internalType": "uint256",
          "name": "duration",
          "type": "uint256"
        }
      ],
      "name": "setRewardsDuration",
      "outputs": [],
      "stateMutability": "nonpayable",
      "type": "function"
    },
    {
      "inputs": [
        {
          "internalType": "bytes4",
          "name": "interfaceId",
          "type": "bytes4"
        }
      ],
      "name": "supportsInterface",
      "outputs": [
        {
          "internalType": "bool",
          "name": "",
          "type": "bool"
        }
      ],
      "stateMutability": "view",
      "type": "function"
    },
    {
      "inputs": [],
      "name": "symbol",
      "outputs": [
        {
          "internalType": "string",
          "name": "",
          "type": "string"
        }
      ],
      "stateMutability": "view",
      "type": "function"
    },
    {
      "inputs": [],
      "name": "totalAssets",
      "outputs": [
        {
          "internalType": "uint256",
          "name": "",
          "type": "uint256"
        }
      ],
      "stateMutability": "view",
      "type": "function"
    },
    {
      "inputs": [],
      "name": "totalSupply",
      "outputs": [
        {
          "internalType": "uint256",
          "name": "",
          "type": "uint256"
        }
      ],
      "stateMutability": "view",
      "type": "function"
    },
    {
      "inputs": [
        {
          "internalType": "address",
          "name": "to",
          "type": "address"
        },
        {
          "internalType": "uint256",
          "name": "amount",
          "type": "uint256"
        }
      ],
      "name": "transfer",
      "outputs": [
        {
          "internalType": "bool",
          "name": "",
          "type": "bool"
        }
      ],
      "stateMutability": "nonpayable",
      "type": "function"
    },
    {
      "inputs": [
        {
          "internalType": "address",
          "name": "from",
          "type": "address"
        },
        {
          "internalType": "address",
          "name": "to",
          "type": "address"
        },
        {
          "internalType": "uint256",
          "name": "amount",
          "type": "uint256"
        }
      ],
      "name": "transferFrom",
      "outputs": [
        {
          "internalType": "bool",
          "name": "",
          "type": "bool"
        }
      ],
      "stateMutability": "nonpayable",
      "type": "function"
    },
    {
      "inputs": [],
      "name": "unpause",
      "outputs": [],
      "stateMutability": "nonpayable",
      "type": "function"
    },
    {
      "inputs": [
        {
          "internalType": "uint256",
          "name": "assets",
          "type": "uint256"
        },
        {
          "internalType": "address",
          "name": "receiver",
          "type": "address"
        },
        {
          "internalType": "address",
          "name": "owner",
          "type": "address"
        }
      ],
      "name": "withdraw",
      "outputs": [
        {
          "internalType": "uint256",
          "name": "",
          "type": "uint256"
        }
      ],
      "stateMutability": "nonpayable",
      "type": "function"
    }
  ],
  "transactionHash": "0xe7bc1e28da9d1106a86fcfd49cc2180537e753e0a83c1184d170eb9489808f30",
  "args": [
    "0x7aC6D8376353f76B440bC5Ff04f9023AF54ffb6a"
  ],
  "numDeployments": 1,
  "solcInputHash": "54f364bae5511ef880b0e0f5872904e0",
  "bytecode": "0x60a060405234801561000f575f80fd5b5060405161421d38038061421d83398101604081905261002e916100ad565b6001600160a01b038116608052610043610049565b506100da565b5f54610100900460ff161561005c575f80fd5b5f5460ff908116146100ab575f805460ff191660ff9081179091556040519081527f7f26b83ff96e1f2b6a682f133852f6798a09c465da95921460cefb38474024989060200160405180910390a15b565b5f602082840312156100bd575f80fd5b81516001600160a01b03811681146100d3575f80fd5b9392505050565b6080516141246100f95f395f81816107cb0152610ec201526141245ff3fe608060405234801561000f575f80fd5b506004361061042d575f3560e01c80637965b6361161022c578063b6d0dcd811610135578063d4570c1c116100bf578063dd62ed3e11610084578063dd62ed3e146109fb578063e63ab1e914610a0e578063eeca156214610a35578063ef8b30f714610938578063f2be153614610a48575f80fd5b8063d4570c1c14610984578063d505accf14610997578063d547741f146109aa578063d8d5eaf4146109bd578063d905777e146109e8575f80fd5b8063c6e6f59211610105578063c6e6f59214610938578063c86d6ae41461094b578063c91e51491461095f578063ce96cb7714610969578063d1058e591461097c575f80fd5b8063b6d0dcd8146108ff578063b81ff16114610912578063ba08765214610925578063c63d75b6146106b9575f80fd5b806395d89b41116101b6578063afe7d3b411610186578063afe7d3b4146108b2578063b3d7f6b9146108bc578063b460af94146108cf578063b66503cf146108e2578063b6748528146108f5575f80fd5b806395d89b411461087d578063a217fddf14610885578063a457c2d71461088c578063a9059cbb1461089f575f80fd5b806384b0196e116101fc57806384b0196e1461081c5780638cc59a0a1461083757806391d148541461084157806391ddadf41461085457806394bf804d1461086a575f80fd5b80637965b636146107c65780637ecebe00146107ed57806380f55605146108005780638456cb5914610814575f80fd5b8063313ce567116103395780634641257d116102c35780635c975abb116102885780635c975abb146107435780636e553f651461074e5780636e76fc8f1461076157806370a08231146107885780637772c0071461079b575f80fd5b80634641257d146106cd5780634bf5d7e9146106d55780634cdad506146104fa5780634fcb7d31146106ff5780635bae7f1b14610709575f80fd5b806336568abe1161030957806336568abe1461067a57806338d52e0f1461068d578063395093511461069e5780633f4ba83a146106b1578063402d267d146106b9575f80fd5b8063313ce567146106325780633165789b1461064c578063318d9e5d1461065f5780633644e51514610672575f80fd5b806314bc8237116103ba578063211dc32d1161038a578063211dc32d146105c25780632378bea6146105d557806323b872dd146105ea578063248a9ca3146105fd5780632f2ff15d1461061f575f80fd5b806314bc82371461057257806318160ddd146105855780631aa430781461058d5780631aedc65e14610597575f80fd5b806307a2d13a1161040057806307a2d13a146104fa578063085d48831461050d578063095ea7b3146105395780630a28a4771461054c5780630bf0fc821461055f575f80fd5b806301e1d1141461043157806301ffc9a71461044c57806306fdde031461046f5780630700037d14610484575b5f80fd5b610439610a68565b6040519081526020015b60405180910390f35b61045f61045a366004613915565b610ad7565b6040519015158152602001610443565b610477610b0d565b604051610443919061396a565b6104cb610492366004613990565b6101956020525f908152604090208054600182015460028301546003840154600485015460059095015493949293919260ff9091169186565b6040805196875260208701959095529385019290925215156060840152608083015260a082015260c001610443565b6104396105083660046139ab565b610b9d565b61019e54610521906001600160a01b031681565b6040516001600160a01b039091168152602001610443565b61045f6105473660046139c2565b610ba8565b61043961055a3660046139ab565b610bbf565b61043961056d366004613990565b610bcb565b6104396105803660046139ec565b610c92565b60cb54610439565b6104396101965481565b6104396105a5366004613a2a565b6101a260209081525f928352604080842090915290825290205481565b6104396105d0366004613a2a565b610ce0565b6105e86105e33660046139c2565b610cef565b005b61045f6105f83660046139ec565b610dbf565b61043961060b3660046139ab565b5f9081526065602052604090206001015490565b6105e861062d366004613a61565b610de2565b61063a610e0b565b60405160ff9091168152602001610443565b6105e861065a366004613a84565b610e14565b6105e861066d366004613b0f565b611189565b610439611233565b6105e8610688366004613a61565b61123c565b60fb546001600160a01b0316610521565b61045f6106ac3660046139c2565b61125e565b6105e861127f565b6104396106c7366004613990565b505f1990565b6105e86112b4565b60408051808201909152600e81526d06d6f64653d74696d657374616d760941b6020820152610477565b6104396101985481565b610439610717366004613a2a565b6001600160a01b038082165f90815261019c602090815260408083209386168352929052205492915050565b60975460ff1661045f565b61043961075c366004613a61565b6115a7565b6104397f5358bcfd81d1ef3da152b1755e1c3c6739686fa7e83dbcad0071568cc4b73a6381565b610439610796366004613990565b6115c0565b6104396107a9366004613a2a565b6101a160209081525f928352604080842090915290825290205481565b6105217f000000000000000000000000000000000000000000000000000000000000000081565b6104396107fb366004613990565b6115da565b61019d54610521906001600160a01b031681565b6105e86115f8565b61082461160a565b6040516104439796959493929190613b7e565b6104396101995481565b61045f61084f366004613a61565b611669565b60405165ffffffffffff42168152602001610443565b610439610878366004613a61565b611693565b6104776116ac565b6104395f81565b61045f61089a3660046139c2565b6116bb565b61045f6108ad3660046139c2565b6116e3565b6104396101975481565b6104396108ca3660046139ab565b6116f0565b6104396108dd366004613c15565b6116fc565b6105e86108f03660046139c2565b61172a565b6104396101a05481565b61052161090d3660046139ab565b611748565b6105e8610920366004613990565b611771565b610439610933366004613c15565b61184b565b6104396109463660046139ab565b611879565b61019f54610521906001600160a01b031681565b61043961019a5481565b610439610977366004613990565b611884565b6105e8611897565b610439610992366004613a2a565b6118c3565b6105e86109a5366004613c54565b611919565b6105e86109b8366004613a61565b6119f2565b6104396109cb366004613a2a565b61019c60209081525f928352604080842090915290825290205481565b6104396109f6366004613990565b611a16565b610439610a09366004613a2a565b611a20565b6104397f65d7a28e3265b37a6474929f336521b332c1681b933f6cb9f3376673440d862a81565b610439610a433660046139ab565b611a4a565b610439610a56366004613990565b61019b6020525f908152604090205481565b60fb546040516370a0823160e01b81523060048201525f916001600160a01b0316906370a0823190602401602060405180830381865afa158015610aae573d5f803e3d5ffd5b505050506040513d601f19601f82011682018060405250810190610ad29190613cc5565b905090565b5f6001600160e01b03198216637965db0b60e01b1480610b0757506301ffc9a760e01b6001600160e01b03198316145b92915050565b606060cc8054610b1c90613cdc565b80601f0160208091040260200160405190810160405280929190818152602001828054610b4890613cdc565b8015610b935780601f10610b6a57610100808354040283529160200191610b93565b820191905f5260205f20905b815481529060010190602001808311610b7657829003601f168201915b5050505050905090565b5f610b07825f611a55565b5f33610bb5818585611a8d565b5060019392505050565b5f610b07826001611b11565b6001600160a01b0381165f90815261019560209081526040808320815160c08101835281548152600182015493810193909352600281015491830191909152600381015460ff1615156060830152600481015460808301526005015460a082015260cb545f03610c3f576040015192915050565b610c7c610c4b60cb5490565b8260a00151610c5d8460200151611a4a565b610c679190613d22565b8360800151610c769190613d35565b90611b40565b8160400151610c8b9190613d4c565b9392505050565b6001600160a01b038083165f90815261019c60209081526040808320938716835292905290812054610cd890610cc786610bcb565b610cd19190613d22565b8390611b54565b949350505050565b5f610c8b8383610580856115c0565b5f610cf981611b68565b6001600160a01b0383165f9081526101956020526040902060030154839060ff16610d375760405163dd15e71560e01b815260040160405180910390fd5b6001600160a01b0384165f908152610195602052604090206001810154421015610d74576040516314bc085360e21b815260040160405180910390fd5b83815560405184815233906001600160a01b038716907f307065155c111638dfa8c188a29ab8abc925f17d3616388c7683d0d45a29a453906020015b60405180910390a35050505050565b5f33610dcc858285611b72565b610dd7858585611ba6565b506001949350505050565b5f82815260656020526040902060010154610dfc81611b68565b610e068383611c65565b505050565b5f610ad2611cea565b5f54610100900460ff1615808015610e3257505f54600160ff909116105b80610e4b5750303b158015610e4b57505f5460ff166001145b610e53575f80fd5b5f805460ff191660011790558015610e74575f805461ff0019166101001790555b610ebd6040518060400160405280600a8152602001697374616b65642045584160b01b81525060405180604001604052806005815260200164737445584160d81b815250611d03565b610ee67f0000000000000000000000000000000000000000000000000000000000000000611d1f565b610f116040518060400160405280600a8152602001697374616b65642045584160b01b815250611d3a565b610f19611d6f565b610f235f33611c65565b6101968b90556101978a905561019889905561019988905561019a87905561019d80546001600160a01b0319166001600160a01b038816908117909155604080516338d52e0f60e01b81529051610fc192916338d52e0f9160048083019260209291908290030181865afa158015610f9d573d5f803e3d5ffd5b505050506040513d601f19601f820116820180604052508101906109209190613d5f565b61102a866001600160a01b03166338d52e0f6040518163ffffffff1660e01b8152600401602060405180830381865afa158015611000573d5f803e3d5ffd5b505050506040513d601f19601f820116820180604052508101906110249190613d5f565b84610cef565b856001600160a01b03166338d52e0f6040518163ffffffff1660e01b8152600401602060405180830381865afa158015611066573d5f803e3d5ffd5b505050506040513d601f19601f8201168201806040525081019061108a9190613d5f565b61019d5460405163095ea7b360e01b81526001600160a01b0391821660048201525f19602482015291169063095ea7b3906044016020604051808303815f875af11580156110da573d5f803e3d5ffd5b505050506040513d601f19601f820116820180604052508101906110fe9190613d7a565b5061019e80546001600160a01b038088166001600160a01b0319928316179092556101a084905561019f805492871692909116919091179055801561117c575f805461ff0019169055604051600181527f7f26b83ff96e1f2b6a682f133852f6798a09c465da95921460cefb38474024989060200160405180910390a15b5050505050505050505050565b5f5b81811015610e06576101955f8484848181106111a9576111a9613d99565b90506020020160208101906111be9190613990565b6001600160a01b0316815260208101919091526040015f206003015460ff166111fa5760405163dd15e71560e01b815260040160405180910390fd5b61122b610194828154811061121157611211613d99565b5f918252602090912001546001600160a01b031633611d81565b60010161118b565b5f610ad2612037565b6001600160a01b0381163314611250575f80fd5b61125a8282612040565b5050565b5f33610bb58185856112708383611a20565b61127a9190613d4c565b611a8d565b7f65d7a28e3265b37a6474929f336521b332c1681b933f6cb9f3376673440d862a6112a981611b68565b6112b16120a6565b50565b61019d5461019e54604051636eb1769f60e11b81526001600160a01b039182166004820181905230602483015291909216915f906114089084906307a2d13a90829063dd62ed3e90604401602060405180830381865afa15801561131a573d5f803e3d5ffd5b505050506040513d601f19601f8201168201806040525081019061133e9190613cc5565b6040518263ffffffff1660e01b815260040161135c91815260200190565b602060405180830381865afa158015611377573d5f803e3d5ffd5b505050506040513d601f19601f8201168201806040525081019061139b9190613cc5565b60405163ce96cb7760e01b81526001600160a01b03858116600483015286169063ce96cb7790602401602060405180830381865afa1580156113df573d5f803e3d5ffd5b505050506040513d601f19601f820116820180604052508101906114039190613cc5565b6120f8565b9050805f0361141657505050565b604051632d182be560e21b8152600481018290523060248201526001600160a01b03838116604483015284169063b460af94906064016020604051808303815f875af1158015611468573d5f803e3d5ffd5b505050506040513d601f19601f8201168201806040525081019061148c9190613cc5565b505f6114a46101a05483611b5490919063ffffffff16565b90505f6114b18284613d22565b905080156115305761019f54604051636e553f6560e01b8152600481018390526001600160a01b03918216602482015290861690636e553f65906044016020604051808303815f875af115801561150a573d5f803e3d5ffd5b505050506040513d601f19601f8201168201806040525081019061152e9190613cc5565b505b81156115a0576115a0856001600160a01b03166338d52e0f6040518163ffffffff1660e01b8152600401602060405180830381865afa158015611575573d5f803e3d5ffd5b505050506040513d601f19601f820116820180604052508101906115999190613d5f565b833061210d565b5050505050565b5f806115b284611879565b9050610c8b338486846122de565b6001600160a01b03165f90815260c9602052604090205490565b6001600160a01b0381165f9081526101616020526040812054610b07565b61160061235c565b6116086123d8565b565b5f6060805f805f606061012d545f801b148015611628575061012e54155b611630575f80fd5b611638612415565b611640612425565b604080515f80825260208201909252600f60f81b9b939a50919850469750309650945092509050565b5f9182526065602090815260408084206001600160a01b0393909316845291905290205460ff1690565b5f8061169e846116f0565b9050610c8b338483876122de565b606060cd8054610b1c90613cdc565b5f33816116c88286611a20565b9050838110156116d6575f80fd5b610dd78286868403611a8d565b5f33610bb5818585611ba6565b5f610b07826001611a55565b5f61170682611884565b841115611711575f80fd5b5f61171b85610bbf565b9050610cd83385858885612435565b5f61173481611b68565b61173d836124e1565b610e0683833361210d565b6101948181548110611758575f80fd5b5f918252602090912001546001600160a01b0316905081565b5f61177b81611b68565b6001600160a01b0382165f908152610195602052604090206003015460ff16156117b8576040516328f560bb60e21b815260040160405180910390fd5b6001600160a01b0382165f8181526101956020526040808220600301805460ff191660019081179091556101948054918201815583527fa6f1ac7ad7b125ba5a5e1c96b00ad6914f90a503b1ac3d85a9dadbb4c639df920180546001600160a01b03191684179055513392917f9749fb908457c4fa0afa13661b7b5b02c584a8ae47610ccc7a65d7d500951db491a35050565b5f61185582611a16565b841115611860575f80fd5b5f61186a85610b9d565b9050610cd83385858489612435565b5f610b07825f611b11565b5f610b07611891836115c0565b5f611a55565b5f5b610194548110156112b1576118bb610194828154811061121157611211613d99565b600101611899565b6001600160a01b0381165f90815261019b6020526040812054819061190e906118f442670de0b6b3a7640000613d35565b6118fe9190613d22565b8585611909876115c0565b61251e565b509095945050505050565b83421115611925575f80fd5b5f7f6e71edae12b1b97f4d1f60370fef10105fa2faae0126114a169c64845d6126c98888886119538c612724565b6040805160208101969096526001600160a01b0394851690860152929091166060840152608083015260a082015260c0810186905260e0016040516020818303038152906040528051906020012090505f6119ad8261274c565b90505f6119bc82878787612778565b9050896001600160a01b0316816001600160a01b0316146119db575f80fd5b6119e68a8a8a611a8d565b50505050505050505050565b5f82815260656020526040902060010154611a0c81611b68565b610e068383612040565b5f610b07826115c0565b6001600160a01b039182165f90815260ca6020908152604080832093909416825291909152205490565b5f610b0782426120f8565b5f610c8b611a61610a68565b611a6c906001613d4c565b611a775f600a613ea1565b60cb54611a849190613d4c565b8591908561279e565b6001600160a01b038316611a9f575f80fd5b6001600160a01b038216611ab1575f80fd5b6001600160a01b038381165f81815260ca602090815260408083209487168084529482529182902085905590518481527f8c5be1e5ebec7d5bd14f71427d1e84f3dd0314c0f7b2291e5b200ac8c7c3b925910160405180910390a3505050565b5f610c8b611b2082600a613ea1565b60cb54611b2d9190613d4c565b611b35610a68565b611a84906001613d4c565b5f610c8b83670de0b6b3a7640000846127f9565b5f610c8b8383670de0b6b3a76400006127f9565b6112b18133612817565b5f611b7d8484611a20565b90505f198114611ba05781811015611b93575f80fd5b611ba08484848403611a8d565b50505050565b6001600160a01b038316611bb8575f80fd5b6001600160a01b038216611bca575f80fd5b611bd583838361285d565b6001600160a01b0383165f90815260c9602052604090205481811015611bf9575f80fd5b6001600160a01b038085165f81815260c9602052604080822086860390559286168082529083902080548601905591517fddf252ad1be2c89b69c2b068fc378daa952ba7f163c4a11628f55a4df523b3ef90611c589086815260200190565b60405180910390a3611ba0565b611c6f8282611669565b61125a575f8281526065602090815260408083206001600160a01b03851684529091529020805460ff19166001179055611ca63390565b6001600160a01b0316816001600160a01b0316837f2f8788117e7eff1d82e926ec794901d17c78024a50270940304540a733656f0d60405160405180910390a45050565b5f8060fb54610ad29190600160a01b900460ff16613eaf565b5f54610100900460ff16611d15575f80fd5b61125a8282612b82565b5f54610100900460ff16611d31575f80fd5b6112b181612bad565b5f54610100900460ff16611d4c575f80fd5b6112b181604051806040016040528060018152602001603160f81b815250612c1c565b5f54610100900460ff16611608575f80fd5b6001600160a01b0381165f90815261019b6020526040812054611dac42670de0b6b3a7640000613d35565b611db69190613d22565b90505f805f611dca848787611909896115c0565b92509250925061019654670de0b6b3a7640000611de79190613d35565b841015611df657505050505050565b6001600160a01b038086165f9081526101a160209081526040808320938a1683529290529081208054859290611e2d908490613d4c565b9091555050610197545f90611e4a90670de0b6b3a7640000613d35565b9050808510611f24576001600160a01b038087165f9081526101a260209081526040808320938b168352929052205415611ea7576001600160a01b038087165f9081526101a260209081526040808320938b168352929052908120555b8215611f245761019f5460405163a9059cbb60e01b81526001600160a01b039182166004820152602481018590529088169063a9059cbb906044016020604051808303815f875af1158015611efe573d5f803e3d5ffd5b505050506040513d601f19601f82011682018060405250810190611f229190613d7a565b505b80851015611f69576001600160a01b038087165f9081526101a260209081526040808320938b1683529290529081208054849290611f63908490613d4c565b90915550505b831561202e5760405163a9059cbb60e01b81526001600160a01b0387811660048301526024820186905288169063a9059cbb906044016020604051808303815f875af1158015611fbb573d5f803e3d5ffd5b505050506040513d601f19601f82011682018060405250810190611fdf9190613d7a565b50856001600160a01b0316876001600160a01b03167f540798df468d7b23d11f156fdb954cb19ad414d150722a7b6d55ba369dea792e8660405161202591815260200190565b60405180910390a35b50505050505050565b5f610ad2612c59565b61204a8282611669565b1561125a575f8281526065602090815260408083206001600160a01b0385168085529252808320805460ff1916905551339285917ff6391f5c32d9c69d2a47ea670b442974b53935d1edc7fd64eb21e047a839171b9190a45050565b6120ae612ccc565b6097805460ff191690557f5db9ee0a495bf2e6ff9c91a7834c1ba4fdd244a5e8aa4e537bd38aeae4b073aa335b6040516001600160a01b03909116815260200160405180910390a1565b5f8183106121065781610c8b565b5090919050565b6001600160a01b0383165f9081526101956020526040902060030154839060ff1661214b5760405163dd15e71560e01b815260040160405180910390fd5b612154846124e1565b6001600160a01b0384165f908152610195602052604090206001810154421061218d5780546121839085613edc565b60048201556121cd565b5f81600401544283600101546121a39190613d22565b6121ad9190613d35565b82549091506121bc8287613d4c565b6121c69190613edc565b6004830155505b80600401545f036121f1576040516314cee7cd60e11b815260040160405180910390fd5b6040516370a0823160e01b81523060048201526001600160a01b038616906370a0823190602401602060405180830381865afa158015612233573d5f803e3d5ffd5b505050506040513d601f19601f820116820180604052508101906122579190613cc5565b815460048301546122689190613d35565b111561228757604051631e9acf1760e31b815260040160405180910390fd5b80546122939042613d4c565b60018201554260058201556040518481526001600160a01b0384811691908716907f73e403d263176fde0447fee5fa024d13c5d6bf70748f23cf4ad463764cc8f2f390602001610db0565b60fb546122f6906001600160a01b0316853085612cda565b6123008382612d45565b826001600160a01b0316846001600160a01b03167fdcbc1c05240f31ff3ad067ef1ee35ce4997762752e3a095284754544f4c709d7848460405161234e929190918252602082015260400190565b60405180910390a350505050565b6123867f5358bcfd81d1ef3da152b1755e1c3c6739686fa7e83dbcad0071568cc4b73a6333611669565b1580156123ba57506123b87f65d7a28e3265b37a6474929f336521b332c1681b933f6cb9f3376673440d862a33611669565b155b1561160857604051631d006fdb60e31b815260040160405180910390fd5b6123e0612dcb565b6097805460ff191660011790557f62e78cea01bee320cd4e420270b5ea74000d11b0c9f74754ebdbfc544b05a2586120db3390565b606061012f8054610b1c90613cdc565b60606101308054610b1c90613cdc565b826001600160a01b0316856001600160a01b03161461245957612459838683611b72565b6124638382612dda565b60fb5461247a906001600160a01b03168584612e7a565b826001600160a01b0316846001600160a01b0316866001600160a01b03167ffbde797d201c681b91056529119e0b02407c7bb96a4a2c75c01fc9667232c8db85856040516124d2929190918252602082015260400190565b60405180910390a45050505050565b6001600160a01b0381165f9081526101956020526040902061250282610bcb565b6002820155600181015461251590611a4a565b60059091015550565b5f805f8061019654670de0b6b3a76400006125399190613d35565b9050808811612551575f805f9350935093505061271a565b5f61255d888888610c92565b6001600160a01b038089165f9081526101a160209081526040808320938d16835292905290812054610197549293509161259f90670de0b6b3a7640000613d35565b9050808b036125d0578183116125b5575f6125bf565b6125bf8284613d22565b5f809650965096505050505061271a565b808b1015612621575f6125e48c8684612eaa565b9050826125f18583611b54565b6125fb9190613d22565b97506126078482611b54565b6126119085613d22565b5f9750955061271a945050505050565b5f61262c8c83612f56565b90505f6101a25f8c6001600160a01b03166001600160a01b031681526020019081526020015f205f8d6001600160a01b03166001600160a01b031681526020019081526020015f205490505f8161268c8488611b5490919063ffffffff16565b6126969190613d4c565b8511156126bf57816126a88785611b54565b6126b29087613d22565b6126bc9190613d22565b90505b80156126cb575f6126eb565b84826126d78886611b54565b6126e19190613d4c565b6126eb9190613d22565b995080156126f9575f61270d565b6127038684611b54565b61270d9087613d22565b98505f9750505050505050505b9450945094915050565b6001600160a01b0381165f908152610161602052604090208054600181018255905b50919050565b5f610b07612758612037565b8360405161190160f01b8152600281019290925260228201526042902090565b5f805f61278787878787612f99565b9150915061279481613056565b5095945050505050565b5f806127ab8686866130c8565b905060018360028111156127c1576127c1613eef565b1480156127dd57505f84806127d8576127d8613ec8565b868809115b156127f0576127ed600182613d4c565b90505b95945050505050565b828202811515841585830485141716612810575f80fd5b0492915050565b6128218282611669565b61125a5761282e81613171565b612839836020613183565b60405160200161284a929190613f1a565b6040516020818303038152906040525f80fd5b612865612dcb565b805f0361288557604051631f2a200560e01b815260040160405180910390fd5b6001600160a01b038316612a05575f61289d836115c0565b90505f6128b46128ad8484613d4c565b8390611b40565b90505f5b6101945481101561299a575f61019482815481106128d8576128d8613d99565b5f918252602090912001546001600160a01b031690506128f7816124e1565b61292e61290c84670de0b6b3a7640000613d22565b6001600160a01b0383165f908152610195602052604090206002015490611b54565b6001600160a01b038088165f90815261019c602090815260408083209386168352929052205461295e9085611b54565b6129689190613d4c565b6001600160a01b038088165f90815261019c6020908152604080832095909316825293909352909120556001016128b8565b506129ad81670de0b6b3a7640000613d22565b6129b79042613d35565b6001600160a01b0385165f90815261019b60205260409020546129da9083611b54565b6129e49190613d4c565b6001600160a01b0385165f90815261019b602052604090205550610e069050565b6001600160a01b038216612b69575f5b61019454811015611ba0575f6101948281548110612a3557612a35613d99565b5f918252602090912001546001600160a01b03169050612a54816124e1565b6001600160a01b0385165f90815261019b6020526040812054612a9590612a8342670de0b6b3a7640000613d35565b612a8d9190613d22565b83888761251e565b50509050805f14612b5f5760405163a9059cbb60e01b81526001600160a01b0387811660048301526024820183905283169063a9059cbb906044016020604051808303815f875af1158015612aec573d5f803e3d5ffd5b505050506040513d601f19601f82011682018060405250810190612b109190613d7a565b50856001600160a01b0316826001600160a01b03167f540798df468d7b23d11f156fdb954cb19ad414d150722a7b6d55ba369dea792e83604051612b5691815260200190565b60405180910390a35b5050600101612a15565b60405163072b78c760e01b815260040160405180910390fd5b5f54610100900460ff16612b94575f80fd5b60cc612ba08382613fb3565b5060cd610e068282613fb3565b5f54610100900460ff16612bbf575f80fd5b5f80612bca836132d5565b9150915081612bda576012612bdc565b805b60fb80546001600160a01b039095166001600160a01b031960ff93909316600160a01b02929092166001600160a81b031990951694909417179092555050565b5f54610100900460ff16612c2e575f80fd5b61012f612c3b8382613fb3565b50610130612c498282613fb3565b50505f61012d81905561012e5550565b5f7f8b73c3c69bb8fe3d512ecc4cf759cc79239f7b179b0ffacaa9a75d522b39400f612c836133ab565b612c8b613404565b60408051602081019490945283019190915260608201524660808201523060a082015260c00160405160208183030381529060405280519060200120905090565b60975460ff16611608575f80fd5b6040516001600160a01b0380851660248301528316604482015260648101829052611ba09085906323b872dd60e01b906084015b60408051601f198184030181529190526020810180516001600160e01b03166001600160e01b031990931692909217909152613435565b6001600160a01b038216612d57575f80fd5b612d625f838361285d565b8060cb5f828254612d739190613d4c565b90915550506001600160a01b0382165f81815260c960209081526040808320805486019055518481527fddf252ad1be2c89b69c2b068fc378daa952ba7f163c4a11628f55a4df523b3ef910160405180910390a35050565b60975460ff1615611608575f80fd5b6001600160a01b038216612dec575f80fd5b612df7825f8361285d565b6001600160a01b0382165f90815260c9602052604090205481811015612e1b575f80fd5b6001600160a01b0383165f81815260c960209081526040808320868603905560cb80548790039055518581529192917fddf252ad1be2c89b69c2b068fc378daa952ba7f163c4a11628f55a4df523b3ef910160405180910390a3505050565b6040516001600160a01b038316602482015260448101829052610e0690849063a9059cbb60e01b90606401612d0e565b5f80612f0d670de0b6b3a7640000612ef0612ec58787613d22565b612ecf888a613d22565b612ee190670de0b6b3a7640000613d35565b612eeb9190613edc565b6134b1565b61019954612efe9190614073565b612f0891906140a2565b61365a565b61019a54909150612f4c81612f3484612f2e83670de0b6b3a7640000613d22565b90611b54565b612f3e9190613d4c565b670de0b6b3a76400006120f8565b9695505050505050565b610198545f9080612f8f85612f7386670de0b6b3a7640000613d35565b612f7d9190613edc565b612f2e84670de0b6b3a7640000613d22565b610cd89190613d4c565b5f807f7fffffffffffffffffffffffffffffff5d576e7357a4501ddfe92f46681b20a0831115612fce57505f9050600361304d565b604080515f8082526020820180845289905260ff881692820192909252606081018690526080810185905260019060a0016020604051602081039080840390855afa15801561301f573d5f803e3d5ffd5b5050604051601f1901519150506001600160a01b038116613047575f6001925092505061304d565b91505f90505b94509492505050565b5f81600481111561306957613069613eef565b036130715750565b600181600481111561308557613085613eef565b0361308e575f80fd5b60028160048111156130a2576130a2613eef565b036130ab575f80fd5b60038160048111156130bf576130bf613eef565b036112b1575f80fd5b5f80805f19858709858702925082811083820303915050805f036130ff578382816130f5576130f5613ec8565b0492505050610c8b565b80841161310a575f80fd5b5f8486880960026001871981018816978890046003810283188082028403028082028403028082028403028082028403028082028403029081029092039091025f889003889004909101858311909403939093029303949094049190911702949350505050565b6060610b076001600160a01b03831660145b60605f613191836002613d35565b61319c906002613d4c565b67ffffffffffffffff8111156131b4576131b4613dad565b6040519080825280601f01601f1916602001820160405280156131de576020820181803683370190505b509050600360fc1b815f815181106131f8576131f8613d99565b60200101906001600160f81b03191690815f1a905350600f60fb1b8160018151811061322657613226613d99565b60200101906001600160f81b03191690815f1a9053505f613248846002613d35565b613253906001613d4c565b90505b60018111156132ca576f181899199a1a9b1b9c1cb0b131b232b360811b85600f166010811061328757613287613d99565b1a60f81b82828151811061329d5761329d613d99565b60200101906001600160f81b03191690815f1a90535060049490941c936132c3816140ce565b9050613256565b508315610c8b575f80fd5b60408051600481526024810182526020810180516001600160e01b031663313ce56760e01b17905290515f918291829182916001600160a01b0387169161331b916140e3565b5f60405180830381855afa9150503d805f8114613353576040519150601f19603f3d011682016040523d82523d5f602084013e613358565b606091505b509150915081801561336c57506020815110155b1561339f575f818060200190518101906133869190613cc5565b905060ff811161339d576001969095509350505050565b505b505f9485945092505050565b5f806133b5612415565b8051909150156133cc578051602090910120919050565b61012d5480156133dc5792915050565b7fc5d2460186f7233c927e7db2dcc703c0e500b653ca82273b7bfad8045d85a4709250505090565b5f8061340e612425565b805190915015613425578051602090910120919050565b61012e5480156133dc5792915050565b5f613489826040518060400160405280602081526020017f5361666545524332303a206c6f772d6c6576656c2063616c6c206661696c6564815250856001600160a01b03166137cd9092919063ffffffff16565b905080515f14806134a95750808060200190518101906134a99190613d7a565b610e06575f80fd5b5f8082136134bd575f80fd5b5f60606134c9846137db565b03609f8181039490941b90931c6c465772b2bbbb5f824b15207a3081018102606090811d6d0388eaa27412d5aca026815d636e018202811d6d0df99ac502031bf953eff472fdcc018202811d6d13cdffb29d51d99322bdff5f2211018202811d6d0a0f742023def783a307a986912e018202811d6d01920d8043ca89b5239253284e42018202811d6c0b7a86d7375468fac667a0a527016c29508e458543d8aa4df2abee7883018302821d6d0139601a2efabe717e604cbb4894018302821d6d02247f7a7b6594320649aa03aba1018302821d6c8c3f38e95a6b1ff2ab1c3b343619018302821d6d02384773bdf1ac5676facced60901901830290911d6cb9a025d814b29c212b8b1a07cd1901909102780a09507084cc699bb0e71ea869ffffffffffffffffffffffff190105711340daa0d5f769dba1915cef59f0815a5506027d0267a36c0c95b3975ab3ee5b203a7614a3f75373f047d803ae7b6687f2b393909302929092017d57115e47018c7177eebf7cd370a3356a1b7863008a5ae8028c72b88642840160ae1d92915050565b5f680248ce36a70cb26b3e19821361367357505f919050565b680755bf798b4a1bf1e58212613687575f80fd5b6503782dace9d9604e83901b0591505f60606bb17217f7d1cf79abc9e3b39884821b056001605f1b01901d6bb17217f7d1cf79abc9e3b39881029093036c240c330e9fb2d9cbaf0fd5aafb1981018102606090811d6d0277594991cfc85f6e2461837cd9018202811d6d1a521255e34f6a5061b25ef1c9c319018202811d6db1bbb201f443cf962f1a1d3db4a5018202811d6e02c72388d9f74f51a9331fed693f1419018202811d6e05180bb14799ab47a8a8cb2a527d57016d02d16720577bd19bf614176fe9ea6c10fe68e7fd37d0007b713f765084018402831d9081019084016d01d3967ed30fc4f89c02bab5708119010290911d6e0587f503bb6ea29d25fcb740196450019091026d360d7aeea093263ecc6e0ecb291760621b010574029d9dc38563c32e5c2f6dc192ee70ef65f9978af30260c3939093039290921c92915050565b6060610cd884845f85613852565b5f8082116137e7575f80fd5b5060016fffffffffffffffffffffffffffffffff821160071b82811c67ffffffffffffffff1060061b1782811c63ffffffff1060051b1782811c61ffff1060041b1782811c60ff10600390811b90911783811c600f1060021b1783811c909110821b1791821c111790565b606082471015613860575f80fd5b5f80866001600160a01b0316858760405161387b91906140e3565b5f6040518083038185875af1925050503d805f81146138b5576040519150601f19603f3d011682016040523d82523d5f602084013e6138ba565b606091505b50915091506138cb878383876138d6565b979650505050505050565b606083156139005782515f036138f9576001600160a01b0385163b6138f9575f80fd5b5081610cd8565b610cd8838381511561042d5781518083602001fd5b5f60208284031215613925575f80fd5b81356001600160e01b031981168114610c8b575f80fd5b5f81518084528060208401602086015e5f602082860101526020601f19601f83011685010191505092915050565b602081525f610c8b602083018461393c565b6001600160a01b03811681146112b1575f80fd5b5f602082840312156139a0575f80fd5b8135610c8b8161397c565b5f602082840312156139bb575f80fd5b5035919050565b5f80604083850312156139d3575f80fd5b82356139de8161397c565b946020939093013593505050565b5f805f606084860312156139fe575f80fd5b8335613a098161397c565b92506020840135613a198161397c565b929592945050506040919091013590565b5f8060408385031215613a3b575f80fd5b8235613a468161397c565b91506020830135613a568161397c565b809150509250929050565b5f8060408385031215613a72575f80fd5b823591506020830135613a568161397c565b5f805f805f805f805f806101408b8d031215613a9e575f80fd5b8a35995060208b0135985060408b0135975060608b0135965060808b0135955060a08b0135613acc8161397c565b945060c08b0135613adc8161397c565b935060e08b0135613aec8161397c565b809350506101008b013591506101208b013590509295989b9194979a5092959850565b5f8060208385031215613b20575f80fd5b823567ffffffffffffffff80821115613b37575f80fd5b818501915085601f830112613b4a575f80fd5b813581811115613b58575f80fd5b8660208260051b8501011115613b6c575f80fd5b60209290920196919550909350505050565b60ff60f81b881681525f602060e06020840152613b9e60e084018a61393c565b8381036040850152613bb0818a61393c565b606085018990526001600160a01b038816608086015260a0850187905284810360c0860152855180825260208088019350909101905f5b81811015613c0357835183529284019291840191600101613be7565b50909c9b505050505050505050505050565b5f805f60608486031215613c27575f80fd5b833592506020840135613c398161397c565b91506040840135613c498161397c565b809150509250925092565b5f805f805f805f60e0888a031215613c6a575f80fd5b8735613c758161397c565b96506020880135613c858161397c565b95506040880135945060608801359350608088013560ff81168114613ca8575f80fd5b9699959850939692959460a0840135945060c09093013592915050565b5f60208284031215613cd5575f80fd5b5051919050565b600181811c90821680613cf057607f821691505b60208210810361274657634e487b7160e01b5f52602260045260245ffd5b634e487b7160e01b5f52601160045260245ffd5b81810381811115610b0757610b07613d0e565b8082028115828204841417610b0757610b07613d0e565b80820180821115610b0757610b07613d0e565b5f60208284031215613d6f575f80fd5b8151610c8b8161397c565b5f60208284031215613d8a575f80fd5b81518015158114610c8b575f80fd5b634e487b7160e01b5f52603260045260245ffd5b634e487b7160e01b5f52604160045260245ffd5b600181815b80851115613dfb57815f1904821115613de157613de1613d0e565b80851615613dee57918102915b93841c9390800290613dc6565b509250929050565b5f82613e1157506001610b07565b81613e1d57505f610b07565b8160018114613e335760028114613e3d57613e59565b6001915050610b07565b60ff841115613e4e57613e4e613d0e565b50506001821b610b07565b5060208310610133831016604e8410600b8410161715613e7c575081810a610b07565b613e868383613dc1565b805f1904821115613e9957613e99613d0e565b029392505050565b5f610c8b60ff841683613e03565b60ff8181168382160190811115610b0757610b07613d0e565b634e487b7160e01b5f52601260045260245ffd5b5f82613eea57613eea613ec8565b500490565b634e487b7160e01b5f52602160045260245ffd5b5f81518060208401855e5f93019283525090919050565b7f416363657373436f6e74726f6c3a206163636f756e742000000000000000000081525f613f4b6017830185613f03565b7001034b99036b4b9b9b4b733903937b6329607d1b81526127f06011820185613f03565b601f821115610e0657805f5260205f20601f840160051c81016020851015613f945750805b601f840160051c820191505b818110156115a0575f8155600101613fa0565b815167ffffffffffffffff811115613fcd57613fcd613dad565b613fe181613fdb8454613cdc565b84613f6f565b602080601f831160018114614014575f8415613ffd5750858301515b5f19600386901b1c1916600185901b17855561406b565b5f85815260208120601f198616915b8281101561404257888601518255948401946001909101908401614023565b508582101561405f57878501515f19600388901b60f8161c191681555b505060018460011b0185555b505050505050565b8082025f8212600160ff1b8414161561408e5761408e613d0e565b8181058314821517610b0757610b07613d0e565b5f826140b0576140b0613ec8565b600160ff1b82145f19841416156140c9576140c9613d0e565b500590565b5f816140dc576140dc613d0e565b505f190190565b5f610c8b8284613f0356fea264697066735822122065c66f2f50a0756f35e4a3a448cb8aa0be306b900907d80969416bb1392f2aef64736f6c63430008190033",
  "devdoc": {
    "events": {
      "Approval(address,address,uint256)": {
        "details": "Emitted when the allowance of a `spender` for an `owner` is set by a call to {approve}. `value` is the new allowance."
      },
      "EIP712DomainChanged()": {
        "details": "MAY be emitted to signal that the domain could have changed."
      },
      "Initialized(uint8)": {
        "details": "Triggered when the contract has been initialized or reinitialized."
      },
      "Paused(address)": {
        "details": "Emitted when the pause is triggered by `account`."
      },
      "RoleAdminChanged(bytes32,bytes32,bytes32)": {
        "details": "Emitted when `newAdminRole` is set as ``role``'s admin role, replacing `previousAdminRole` `DEFAULT_ADMIN_ROLE` is the starting admin for all roles, despite {RoleAdminChanged} not being emitted signaling this. _Available since v3.1._"
      },
      "RoleGranted(bytes32,address,address)": {
        "details": "Emitted when `account` is granted `role`. `sender` is the account that originated the contract call, an admin role bearer except when using {AccessControl-_setupRole}."
      },
      "RoleRevoked(bytes32,address,address)": {
        "details": "Emitted when `account` is revoked `role`. `sender` is the account that originated the contract call:   - if using `revokeRole`, it is the admin role bearer   - if using `renounceRole`, it is the role bearer (i.e. `account`)"
      },
      "Transfer(address,address,uint256)": {
        "details": "Emitted when `value` tokens are moved from one account (`from`) to another (`to`). Note that `value` may be zero."
      },
      "Unpaused(address)": {
        "details": "Emitted when the pause is lifted by `account`."
      }
    },
    "kind": "dev",
    "methods": {
      "CLOCK_MODE()": {
        "details": "Description of the clock"
      },
      "DOMAIN_SEPARATOR()": {
        "details": "Returns the domain separator used in the encoding of the signature for {permit}, as defined by {EIP712}."
      },
      "allowance(address,address)": {
        "details": "See {IERC20-allowance}."
      },
      "approve(address,uint256)": {
        "details": "See {IERC20-approve}. NOTE: If `amount` is the maximum `uint256`, the allowance is not updated on `transferFrom`. This is semantically equivalent to an infinite approval. Requirements: - `spender` cannot be the zero address."
      },
      "asset()": {
        "details": "See {IERC4626-asset}. "
      },
      "balanceOf(address)": {
        "details": "See {IERC20-balanceOf}."
      },
      "clock()": {
        "details": "Clock used for flagging checkpoints. Can be overridden to implement timestamp based checkpoints (and voting)."
      },
      "constructor": {
        "custom:oz-upgrades-unsafe-allow": "constructor"
      },
      "convertToAssets(uint256)": {
        "details": "See {IERC4626-convertToAssets}. "
      },
      "convertToShares(uint256)": {
        "details": "See {IERC4626-convertToShares}. "
      },
      "decreaseAllowance(address,uint256)": {
        "details": "Atomically decreases the allowance granted to `spender` by the caller. This is an alternative to {approve} that can be used as a mitigation for problems described in {IERC20-approve}. Emits an {Approval} event indicating the updated allowance. Requirements: - `spender` cannot be the zero address. - `spender` must have allowance for the caller of at least `subtractedValue`."
      },
      "deposit(uint256,address)": {
        "details": "See {IERC4626-deposit}. "
      },
      "earned(address,address)": {
        "details": "Computes earned rewards by taking the product of the account's balance and the difference between the global reward per token and the reward per token already paid to the user. This result is then added to any rewards that have already been accumulated but not yet paid out.",
        "params": {
          "account": "The address of the user for whom to calculate the rewards."
        },
        "returns": {
          "_0": "The total amount of earned rewards for the specified user."
        }
      },
      "eip712Domain()": {
        "details": "See {EIP-5267}. _Available since v4.9._"
      },
      "getRoleAdmin(bytes32)": {
        "details": "Returns the admin role that controls `role`. See {grantRole} and {revokeRole}. To change a role's admin, use {_setRoleAdmin}."
      },
      "grantRole(bytes32,address)": {
        "details": "Grants `role` to `account`. If `account` had not been already granted `role`, emits a {RoleGranted} event. Requirements: - the caller must have ``role``'s admin role. May emit a {RoleGranted} event."
      },
      "hasRole(bytes32,address)": {
        "details": "Returns `true` if `account` has been granted `role`."
      },
      "increaseAllowance(address,uint256)": {
        "details": "Atomically increases the allowance granted to `spender` by the caller. This is an alternative to {approve} that can be used as a mitigation for problems described in {IERC20-approve}. Emits an {Approval} event indicating the updated allowance. Requirements: - `spender` cannot be the zero address."
      },
      "initialize(uint256,uint256,uint256,uint256,uint256,address,address,address,uint256,uint256)": {
        "details": "can only be called once."
      },
      "maxDeposit(address)": {
        "details": "See {IERC4626-maxDeposit}. "
      },
      "maxMint(address)": {
        "details": "See {IERC4626-maxMint}. "
      },
      "maxRedeem(address)": {
        "details": "See {IERC4626-maxRedeem}. "
      },
      "maxWithdraw(address)": {
        "details": "See {IERC4626-maxWithdraw}. "
      },
      "mint(uint256,address)": {
        "details": "See {IERC4626-mint}. As opposed to {deposit}, minting is allowed even if the vault is in a state where the price of a share is zero. In this case, the shares will be minted without requiring any assets to be deposited."
      },
      "name()": {
        "details": "Returns the name of the token."
      },
      "nonces(address)": {
        "details": "Returns the current nonce for `owner`. This value must be included whenever a signature is generated for {permit}. Every successful call to {permit} increases ``owner``'s nonce by one. This prevents a signature from being used multiple times."
      },
      "paused()": {
        "details": "Returns true if the contract is paused, and false otherwise."
      },
      "permit(address,address,uint256,uint256,uint8,bytes32,bytes32)": {
        "details": "Sets `value` as the allowance of `spender` over ``owner``'s tokens, given ``owner``'s signed approval. IMPORTANT: The same issues {IERC20-approve} has related to transaction ordering also apply here. Emits an {Approval} event. Requirements: - `spender` cannot be the zero address. - `deadline` must be a timestamp in the future. - `v`, `r` and `s` must be a valid `secp256k1` signature from `owner` over the EIP712-formatted function arguments. - the signature must use ``owner``'s current nonce (see {nonces}). For more information on the signature format, see the https://eips.ethereum.org/EIPS/eip-2612#specification[relevant EIP section]. CAUTION: See Security Considerations above."
      },
      "previewDeposit(uint256)": {
        "details": "See {IERC4626-previewDeposit}. "
      },
      "previewMint(uint256)": {
        "details": "See {IERC4626-previewMint}. "
      },
      "previewRedeem(uint256)": {
        "details": "See {IERC4626-previewRedeem}. "
      },
      "previewWithdraw(uint256)": {
        "details": "See {IERC4626-previewWithdraw}. "
      },
      "redeem(uint256,address,address)": {
        "details": "See {IERC4626-redeem}. "
      },
      "renounceRole(bytes32,address)": {
        "details": "Revokes `role` from the calling account. Roles are often managed via {grantRole} and {revokeRole}: this function's purpose is to provide a mechanism for accounts to lose their privileges if they are compromised (such as when a trusted device is misplaced). If the calling account had been revoked `role`, emits a {RoleRevoked} event. Requirements: - the caller must be `account`. May emit a {RoleRevoked} event."
      },
      "revokeRole(bytes32,address)": {
        "details": "Revokes `role` from `account`. If `account` had been granted `role`, emits a {RoleRevoked} event. Requirements: - the caller must have ``role``'s admin role. May emit a {RoleRevoked} event."
      },
      "supportsInterface(bytes4)": {
        "details": "See {IERC165-supportsInterface}."
      },
      "symbol()": {
        "details": "Returns the symbol of the token, usually a shorter version of the name."
      },
      "totalAssets()": {
        "details": "See {IERC4626-totalAssets}. "
      },
      "totalSupply()": {
        "details": "See {IERC20-totalSupply}."
      },
      "transfer(address,uint256)": {
        "details": "See {IERC20-transfer}. Requirements: - `to` cannot be the zero address. - the caller must have a balance of at least `amount`."
      },
      "transferFrom(address,address,uint256)": {
        "details": "See {IERC20-transferFrom}. Emits an {Approval} event indicating the updated allowance. This is not required by the EIP. See the note at the beginning of {ERC20}. NOTE: Does not update the allowance if the current allowance is the maximum `uint256`. Requirements: - `from` and `to` cannot be the zero address. - `from` must have a balance of at least `amount`. - the caller must have allowance for ``from``'s tokens of at least `amount`."
      },
      "withdraw(uint256,address,address)": {
        "details": "See {IERC4626-withdraw}. "
      }
    },
    "stateVariables": {
      "exa": {
        "custom:oz-upgrades-unsafe-allow": "state-variable-immutable"
      }
    },
    "version": 1
  },
  "userdoc": {
    "kind": "user",
    "methods": {
      "avgIndexes(address,address)": {
        "notice": "Accounts average indexes per reward token"
      },
      "avgStart(address)": {
        "notice": "Average starting time with the tokens staked per account"
      },
      "earned(address,address)": {
        "notice": "Calculate the amount of rewards that an account has earned but not yet claimed."
      },
      "exa()": {
        "notice": "Staking token"
      },
      "excessFactor()": {
        "notice": "Discount factor for excess exposure"
      },
      "initialize(uint256,uint256,uint256,uint256,uint256,address,address,address,uint256,uint256)": {
        "notice": "Initializes the contract."
      },
      "minTime()": {
        "notice": "Minimum time to stake and get rewards"
      },
      "pause()": {
        "notice": "Sets the pause state to true in case of emergency, triggered by an authorized account."
      },
      "penaltyGrowth()": {
        "notice": "Penalty growth factor"
      },
      "penaltyThreshold()": {
        "notice": "Threshold penalty factor for withdrawing before the reference time"
      },
      "refTime()": {
        "notice": "Reference period to stake and get full rewards"
      },
      "rewards(address)": {
        "notice": "Rewards data per token"
      },
      "rewardsTokens(uint256)": {
        "notice": "Rewards tokens"
      },
      "unpause()": {
        "notice": "Sets the pause state to false when threat is gone, triggered by an authorized account."
      }
    },
    "version": 1
  },
  "storageLayout": {
    "storage": [
      {
        "astId": 624,
        "contract": "contracts/StakedEXA.sol:StakedEXA",
        "label": "_initialized",
        "offset": 0,
        "slot": "0",
        "type": "t_uint8"
      },
      {
        "astId": 627,
        "contract": "contracts/StakedEXA.sol:StakedEXA",
        "label": "_initializing",
        "offset": 1,
        "slot": "0",
        "type": "t_bool"
      },
      {
        "astId": 3265,
        "contract": "contracts/StakedEXA.sol:StakedEXA",
        "label": "__gap",
        "offset": 0,
        "slot": "1",
        "type": "t_array(t_uint256)50_storage"
      },
      {
        "astId": 4264,
        "contract": "contracts/StakedEXA.sol:StakedEXA",
        "label": "__gap",
        "offset": 0,
        "slot": "51",
        "type": "t_array(t_uint256)50_storage"
      },
      {
        "astId": 28,
        "contract": "contracts/StakedEXA.sol:StakedEXA",
        "label": "_roles",
        "offset": 0,
        "slot": "101",
        "type": "t_mapping(t_bytes32,t_struct(RoleData)23_storage)"
      },
      {
        "astId": 335,
        "contract": "contracts/StakedEXA.sol:StakedEXA",
        "label": "__gap",
        "offset": 0,
        "slot": "102",
        "type": "t_array(t_uint256)49_storage"
      },
      {
        "astId": 808,
        "contract": "contracts/StakedEXA.sol:StakedEXA",
        "label": "_paused",
        "offset": 0,
        "slot": "151",
        "type": "t_bool"
      },
      {
        "astId": 913,
        "contract": "contracts/StakedEXA.sol:StakedEXA",
        "label": "__gap",
        "offset": 0,
        "slot": "152",
        "type": "t_array(t_uint256)49_storage"
      },
      {
        "astId": 934,
        "contract": "contracts/StakedEXA.sol:StakedEXA",
        "label": "_balances",
        "offset": 0,
        "slot": "201",
        "type": "t_mapping(t_address,t_uint256)"
      },
      {
        "astId": 940,
        "contract": "contracts/StakedEXA.sol:StakedEXA",
        "label": "_allowances",
        "offset": 0,
        "slot": "202",
        "type": "t_mapping(t_address,t_mapping(t_address,t_uint256))"
      },
      {
        "astId": 942,
        "contract": "contracts/StakedEXA.sol:StakedEXA",
        "label": "_totalSupply",
        "offset": 0,
        "slot": "203",
        "type": "t_uint256"
      },
      {
        "astId": 944,
        "contract": "contracts/StakedEXA.sol:StakedEXA",
        "label": "_name",
        "offset": 0,
        "slot": "204",
        "type": "t_string_storage"
      },
      {
        "astId": 946,
        "contract": "contracts/StakedEXA.sol:StakedEXA",
        "label": "_symbol",
        "offset": 0,
        "slot": "205",
        "type": "t_string_storage"
      },
      {
        "astId": 1526,
        "contract": "contracts/StakedEXA.sol:StakedEXA",
        "label": "__gap",
        "offset": 0,
        "slot": "206",
        "type": "t_array(t_uint256)45_storage"
      },
      {
        "astId": 1818,
        "contract": "contracts/StakedEXA.sol:StakedEXA",
        "label": "_asset",
        "offset": 0,
        "slot": "251",
        "type": "t_contract(IERC20Upgradeable)1605"
      },
      {
        "astId": 1820,
        "contract": "contracts/StakedEXA.sol:StakedEXA",
        "label": "_underlyingDecimals",
        "offset": 20,
        "slot": "251",
        "type": "t_uint8"
      },
      {
        "astId": 2447,
        "contract": "contracts/StakedEXA.sol:StakedEXA",
        "label": "__gap",
        "offset": 0,
        "slot": "252",
        "type": "t_array(t_uint256)49_storage"
      },
      {
        "astId": 3954,
        "contract": "contracts/StakedEXA.sol:StakedEXA",
        "label": "_hashedName",
        "offset": 0,
        "slot": "301",
        "type": "t_bytes32"
      },
      {
        "astId": 3957,
        "contract": "contracts/StakedEXA.sol:StakedEXA",
        "label": "_hashedVersion",
        "offset": 0,
        "slot": "302",
        "type": "t_bytes32"
      },
      {
        "astId": 3959,
        "contract": "contracts/StakedEXA.sol:StakedEXA",
        "label": "_name",
        "offset": 0,
        "slot": "303",
        "type": "t_string_storage"
      },
      {
        "astId": 3961,
        "contract": "contracts/StakedEXA.sol:StakedEXA",
        "label": "_version",
        "offset": 0,
        "slot": "304",
        "type": "t_string_storage"
      },
      {
        "astId": 4219,
        "contract": "contracts/StakedEXA.sol:StakedEXA",
        "label": "__gap",
        "offset": 0,
        "slot": "305",
        "type": "t_array(t_uint256)48_storage"
      },
      {
        "astId": 1632,
        "contract": "contracts/StakedEXA.sol:StakedEXA",
        "label": "_nonces",
        "offset": 0,
        "slot": "353",
        "type": "t_mapping(t_address,t_struct(Counter)3272_storage)"
      },
      {
        "astId": 1640,
        "contract": "contracts/StakedEXA.sol:StakedEXA",
        "label": "_PERMIT_TYPEHASH_DEPRECATED_SLOT",
        "offset": 0,
        "slot": "354",
        "type": "t_bytes32"
      },
      {
        "astId": 1796,
        "contract": "contracts/StakedEXA.sol:StakedEXA",
        "label": "__gap",
        "offset": 0,
        "slot": "355",
        "type": "t_array(t_uint256)49_storage"
      },
      {
        "astId": 17505,
        "contract": "contracts/StakedEXA.sol:StakedEXA",
        "label": "rewardsTokens",
        "offset": 0,
        "slot": "404",
        "type": "t_array(t_contract(ERC20)20773)dyn_storage"
      },
      {
        "astId": 17512,
        "contract": "contracts/StakedEXA.sol:StakedEXA",
        "label": "rewards",
        "offset": 0,
        "slot": "405",
        "type": "t_mapping(t_contract(ERC20)20773,t_struct(RewardData)18991_storage)"
      },
      {
        "astId": 17515,
        "contract": "contracts/StakedEXA.sol:StakedEXA",
        "label": "minTime",
        "offset": 0,
        "slot": "406",
        "type": "t_uint256"
      },
      {
        "astId": 17518,
        "contract": "contracts/StakedEXA.sol:StakedEXA",
        "label": "refTime",
        "offset": 0,
        "slot": "407",
        "type": "t_uint256"
      },
      {
        "astId": 17521,
        "contract": "contracts/StakedEXA.sol:StakedEXA",
        "label": "excessFactor",
        "offset": 0,
        "slot": "408",
        "type": "t_uint256"
      },
      {
        "astId": 17524,
        "contract": "contracts/StakedEXA.sol:StakedEXA",
        "label": "penaltyGrowth",
        "offset": 0,
        "slot": "409",
        "type": "t_uint256"
      },
      {
        "astId": 17527,
        "contract": "contracts/StakedEXA.sol:StakedEXA",
        "label": "penaltyThreshold",
        "offset": 0,
        "slot": "410",
        "type": "t_uint256"
      },
      {
        "astId": 17532,
        "contract": "contracts/StakedEXA.sol:StakedEXA",
        "label": "avgStart",
        "offset": 0,
        "slot": "411",
        "type": "t_mapping(t_address,t_uint256)"
      },
      {
        "astId": 17540,
        "contract": "contracts/StakedEXA.sol:StakedEXA",
        "label": "avgIndexes",
        "offset": 0,
        "slot": "412",
        "type": "t_mapping(t_address,t_mapping(t_contract(ERC20)20773,t_uint256))"
      },
      {
        "astId": 17543,
        "contract": "contracts/StakedEXA.sol:StakedEXA",
        "label": "market",
        "offset": 0,
        "slot": "413",
        "type": "t_contract(Market)14233"
      },
      {
        "astId": 17545,
        "contract": "contracts/StakedEXA.sol:StakedEXA",
        "label": "provider",
        "offset": 0,
        "slot": "414",
        "type": "t_address"
      },
      {
        "astId": 17547,
        "contract": "contracts/StakedEXA.sol:StakedEXA",
        "label": "savings",
        "offset": 0,
        "slot": "415",
        "type": "t_address"
      },
      {
        "astId": 17549,
        "contract": "contracts/StakedEXA.sol:StakedEXA",
        "label": "providerRatio",
        "offset": 0,
        "slot": "416",
        "type": "t_uint256"
      },
      {
        "astId": 17556,
        "contract": "contracts/StakedEXA.sol:StakedEXA",
        "label": "paidRewards",
        "offset": 0,
        "slot": "417",
        "type": "t_mapping(t_address,t_mapping(t_contract(ERC20)20773,t_uint256))"
      },
      {
        "astId": 17563,
        "contract": "contracts/StakedEXA.sol:StakedEXA",
        "label": "penalizedRewards",
        "offset": 0,
        "slot": "418",
        "type": "t_mapping(t_address,t_mapping(t_contract(ERC20)20773,t_uint256))"
      }
    ],
    "types": {
      "t_address": {
        "encoding": "inplace",
        "label": "address",
        "numberOfBytes": "20"
      },
      "t_array(t_contract(ERC20)20773)dyn_storage": {
        "base": "t_contract(ERC20)20773",
        "encoding": "dynamic_array",
        "label": "contract ERC20[]",
        "numberOfBytes": "32"
      },
      "t_array(t_uint256)45_storage": {
        "base": "t_uint256",
        "encoding": "inplace",
        "label": "uint256[45]",
        "numberOfBytes": "1440"
      },
      "t_array(t_uint256)48_storage": {
        "base": "t_uint256",
        "encoding": "inplace",
        "label": "uint256[48]",
        "numberOfBytes": "1536"
      },
      "t_array(t_uint256)49_storage": {
        "base": "t_uint256",
        "encoding": "inplace",
        "label": "uint256[49]",
        "numberOfBytes": "1568"
      },
      "t_array(t_uint256)50_storage": {
        "base": "t_uint256",
        "encoding": "inplace",
        "label": "uint256[50]",
        "numberOfBytes": "1600"
      },
      "t_bool": {
        "encoding": "inplace",
        "label": "bool",
        "numberOfBytes": "1"
      },
      "t_bytes32": {
        "encoding": "inplace",
        "label": "bytes32",
        "numberOfBytes": "32"
      },
      "t_contract(ERC20)20773": {
        "encoding": "inplace",
        "label": "contract ERC20",
        "numberOfBytes": "20"
      },
      "t_contract(IERC20Upgradeable)1605": {
        "encoding": "inplace",
        "label": "contract IERC20Upgradeable",
        "numberOfBytes": "20"
      },
      "t_contract(Market)14233": {
        "encoding": "inplace",
        "label": "contract Market",
        "numberOfBytes": "20"
      },
      "t_mapping(t_address,t_bool)": {
        "encoding": "mapping",
        "key": "t_address",
        "label": "mapping(address => bool)",
        "numberOfBytes": "32",
        "value": "t_bool"
      },
      "t_mapping(t_address,t_mapping(t_address,t_uint256))": {
        "encoding": "mapping",
        "key": "t_address",
        "label": "mapping(address => mapping(address => uint256))",
        "numberOfBytes": "32",
        "value": "t_mapping(t_address,t_uint256)"
      },
      "t_mapping(t_address,t_mapping(t_contract(ERC20)20773,t_uint256))": {
        "encoding": "mapping",
        "key": "t_address",
        "label": "mapping(address => mapping(contract ERC20 => uint256))",
        "numberOfBytes": "32",
        "value": "t_mapping(t_contract(ERC20)20773,t_uint256)"
      },
      "t_mapping(t_address,t_struct(Counter)3272_storage)": {
        "encoding": "mapping",
        "key": "t_address",
        "label": "mapping(address => struct CountersUpgradeable.Counter)",
        "numberOfBytes": "32",
        "value": "t_struct(Counter)3272_storage"
      },
      "t_mapping(t_address,t_uint256)": {
        "encoding": "mapping",
        "key": "t_address",
        "label": "mapping(address => uint256)",
        "numberOfBytes": "32",
        "value": "t_uint256"
      },
      "t_mapping(t_bytes32,t_struct(RoleData)23_storage)": {
        "encoding": "mapping",
        "key": "t_bytes32",
        "label": "mapping(bytes32 => struct AccessControlUpgradeable.RoleData)",
        "numberOfBytes": "32",
        "value": "t_struct(RoleData)23_storage"
      },
      "t_mapping(t_contract(ERC20)20773,t_struct(RewardData)18991_storage)": {
        "encoding": "mapping",
        "key": "t_contract(ERC20)20773",
        "label": "mapping(contract ERC20 => struct RewardData)",
        "numberOfBytes": "32",
        "value": "t_struct(RewardData)18991_storage"
      },
      "t_mapping(t_contract(ERC20)20773,t_uint256)": {
        "encoding": "mapping",
        "key": "t_contract(ERC20)20773",
        "label": "mapping(contract ERC20 => uint256)",
        "numberOfBytes": "32",
        "value": "t_uint256"
      },
      "t_string_storage": {
        "encoding": "bytes",
        "label": "string",
        "numberOfBytes": "32"
      },
      "t_struct(Counter)3272_storage": {
        "encoding": "inplace",
        "label": "struct CountersUpgradeable.Counter",
        "members": [
          {
            "astId": 3271,
            "contract": "contracts/StakedEXA.sol:StakedEXA",
            "label": "_value",
            "offset": 0,
            "slot": "0",
            "type": "t_uint256"
          }
        ],
        "numberOfBytes": "32"
      },
      "t_struct(RewardData)18991_storage": {
        "encoding": "inplace",
        "label": "struct RewardData",
        "members": [
          {
            "astId": 18980,
            "contract": "contracts/StakedEXA.sol:StakedEXA",
            "label": "duration",
            "offset": 0,
            "slot": "0",
            "type": "t_uint256"
          },
          {
            "astId": 18982,
            "contract": "contracts/StakedEXA.sol:StakedEXA",
            "label": "finishAt",
            "offset": 0,
            "slot": "1",
            "type": "t_uint256"
          },
          {
            "astId": 18984,
            "contract": "contracts/StakedEXA.sol:StakedEXA",
            "label": "index",
            "offset": 0,
            "slot": "2",
            "type": "t_uint256"
          },
          {
            "astId": 18986,
            "contract": "contracts/StakedEXA.sol:StakedEXA",
            "label": "isEnabled",
            "offset": 0,
            "slot": "3",
            "type": "t_bool"
          },
          {
            "astId": 18988,
            "contract": "contracts/StakedEXA.sol:StakedEXA",
            "label": "rate",
            "offset": 0,
            "slot": "4",
            "type": "t_uint256"
          },
          {
            "astId": 18990,
            "contract": "contracts/StakedEXA.sol:StakedEXA",
            "label": "updatedAt",
            "offset": 0,
            "slot": "5",
            "type": "t_uint256"
          }
        ],
        "numberOfBytes": "192"
      },
      "t_struct(RoleData)23_storage": {
        "encoding": "inplace",
        "label": "struct AccessControlUpgradeable.RoleData",
        "members": [
          {
            "astId": 20,
            "contract": "contracts/StakedEXA.sol:StakedEXA",
            "label": "members",
            "offset": 0,
            "slot": "0",
            "type": "t_mapping(t_address,t_bool)"
          },
          {
            "astId": 22,
            "contract": "contracts/StakedEXA.sol:StakedEXA",
            "label": "adminRole",
            "offset": 0,
            "slot": "1",
            "type": "t_bytes32"
          }
        ],
        "numberOfBytes": "64"
      },
      "t_uint256": {
        "encoding": "inplace",
        "label": "uint256",
        "numberOfBytes": "32"
      },
      "t_uint8": {
        "encoding": "inplace",
        "label": "uint8",
        "numberOfBytes": "1"
      }
    }
  }
}