{
  "address": "0x603F32F5823Bf93431Df7bA5de0570777F87b60e",
  "abi": [
    {
      "inputs": [
        {
          "internalType": "uint256",
          "name": "priceDecimals_",
          "type": "uint256"
        }
      ],
      "stateMutability": "nonpayable",
      "type": "constructor"
    },
    {
      "inputs": [],
      "name": "AuditorMismatch",
      "type": "error"
    },
    {
      "inputs": [],
      "name": "InsufficientAccountLiquidity",
      "type": "error"
    },
    {
      "inputs": [],
      "name": "InsufficientShortfall",
      "type": "error"
    },
    {
      "inputs": [],
      "name": "InvalidInitializer",
      "type": "error"
    },
    {
      "inputs": [],
      "name": "InvalidOperation",
      "type": "error"
    },
    {
      "inputs": [],
      "name": "InvalidPrice",
      "type": "error"
    },
    {
      "inputs": [],
      "name": "InvalidPriceFeed",
      "type": "error"
    },
    {
      "inputs": [],
      "name": "MarketAlreadyListed",
      "type": "error"
    },
    {
      "inputs": [],
      "name": "MarketNotListed",
      "type": "error"
    },
    {
      "inputs": [
        {
          "internalType": "address",
          "name": "account",
          "type": "address"
        }
      ],
      "name": "NotAllowed",
      "type": "error"
    },
    {
      "inputs": [],
      "name": "NotMarket",
      "type": "error"
    },
    {
      "inputs": [],
      "name": "RemainingDebt",
      "type": "error"
    },
    {
      "anonymous": false,
      "inputs": [
        {
          "indexed": true,
          "internalType": "contract Market",
          "name": "market",
          "type": "address"
        },
        {
          "indexed": false,
          "internalType": "uint256",
          "name": "adjustFactor",
          "type": "uint256"
        }
      ],
      "name": "AdjustFactorSet",
      "type": "event"
    },
    {
      "anonymous": false,
      "inputs": [
        {
          "indexed": true,
          "internalType": "contract Firewall",
          "name": "firewall",
          "type": "address"
        }
      ],
      "name": "FirewallSet",
      "type": "event"
    },
    {
      "anonymous": false,
      "inputs": [
        {
          "indexed": false,
          "internalType": "uint8",
          "name": "version",
          "type": "uint8"
        }
      ],
      "name": "Initialized",
      "type": "event"
    },
    {
      "anonymous": false,
      "inputs": [
        {
          "components": [
            {
              "internalType": "uint128",
              "name": "liquidator",
              "type": "uint128"
            },
            {
              "internalType": "uint128",
              "name": "lenders",
              "type": "uint128"
            }
          ],
          "indexed": false,
          "internalType": "struct Auditor.LiquidationIncentive",
          "name": "liquidationIncentive",
          "type": "tuple"
        }
      ],
      "name": "LiquidationIncentiveSet",
      "type": "event"
    },
    {
      "anonymous": false,
      "inputs": [
        {
          "indexed": true,
          "internalType": "contract Market",
          "name": "market",
          "type": "address"
        },
        {
          "indexed": true,
          "internalType": "address",
          "name": "account",
          "type": "address"
        }
      ],
      "name": "MarketEntered",
      "type": "event"
    },
    {
      "anonymous": false,
      "inputs": [
        {
          "indexed": true,
          "internalType": "contract Market",
          "name": "market",
          "type": "address"
        },
        {
          "indexed": true,
          "internalType": "address",
          "name": "account",
          "type": "address"
        }
      ],
      "name": "MarketExited",
      "type": "event"
    },
    {
      "anonymous": false,
      "inputs": [
        {
          "indexed": true,
          "internalType": "contract Market",
          "name": "market",
          "type": "address"
        },
        {
          "indexed": false,
          "internalType": "uint8",
          "name": "decimals",
          "type": "uint8"
        }
      ],
      "name": "MarketListed",
      "type": "event"
    },
    {
      "anonymous": false,
      "inputs": [
        {
          "indexed": true,
          "internalType": "contract Market",
          "name": "market",
          "type": "address"
        },
        {
          "indexed": true,
          "internalType": "contract IPriceFeed",
          "name": "priceFeed",
          "type": "address"
        }
      ],
      "name": "PriceFeedSet",
      "type": "event"
    },
    {
      "anonymous": false,
      "inputs": [
        {
          "indexed": true,
          "internalType": "bytes32",
          "name": "role",
          "type": "bytes32"
        },
        {
          "indexed": true,
          "internalType": "bytes32",
          "name": "previousAdminRole",
          "type": "bytes32"
        },
        {
          "indexed": true,
          "internalType": "bytes32",
          "name": "newAdminRole",
          "type": "bytes32"
        }
      ],
      "name": "RoleAdminChanged",
      "type": "event"
    },
    {
      "anonymous": false,
      "inputs": [
        {
          "indexed": true,
          "internalType": "bytes32",
          "name": "role",
          "type": "bytes32"
        },
        {
          "indexed": true,
          "internalType": "address",
          "name": "account",
          "type": "address"
        },
        {
          "indexed": true,
          "internalType": "address",
          "name": "sender",
          "type": "address"
        }
      ],
      "name": "RoleGranted",
      "type": "event"
    },
    {
      "anonymous": false,
      "inputs": [
        {
          "indexed": true,
          "internalType": "bytes32",
          "name": "role",
          "type": "bytes32"
        },
        {
          "indexed": true,
          "internalType": "address",
          "name": "account",
          "type": "address"
        },
        {
          "indexed": true,
          "internalType": "address",
          "name": "sender",
          "type": "address"
        }
      ],
      "name": "RoleRevoked",
      "type": "event"
    },
    {
      "inputs": [],
      "name": "ASSETS_THRESHOLD",
      "outputs": [
        {
          "internalType": "uint256",
          "name": "",
          "type": "uint256"
        }
      ],
      "stateMutability": "view",
      "type": "function"
    },
    {
      "inputs": [],
      "name": "BASE_FEED",
      "outputs": [
        {
          "internalType": "address",
          "name": "",
          "type": "address"
        }
      ],
      "stateMutability": "view",
      "type": "function"
    },
    {
      "inputs": [],
      "name": "DEFAULT_ADMIN_ROLE",
      "outputs": [
        {
          "internalType": "bytes32",
          "name": "",
          "type": "bytes32"
        }
      ],
      "stateMutability": "view",
      "type": "function"
    },
    {
      "inputs": [],
      "name": "TARGET_HEALTH",
      "outputs": [
        {
          "internalType": "uint256",
          "name": "",
          "type": "uint256"
        }
      ],
      "stateMutability": "view",
      "type": "function"
    },
    {
      "inputs": [
        {
          "internalType": "address",
          "name": "account",
          "type": "address"
        },
        {
          "internalType": "contract Market",
          "name": "marketToSimulate",
          "type": "address"
        },
        {
          "internalType": "uint256",
          "name": "withdrawAmount",
          "type": "uint256"
        }
      ],
      "name": "accountLiquidity",
      "outputs": [
        {
          "internalType": "uint256",
          "name": "sumCollateral",
          "type": "uint256"
        },
        {
          "internalType": "uint256",
          "name": "sumDebtPlusEffects",
          "type": "uint256"
        }
      ],
      "stateMutability": "view",
      "type": "function"
    },
    {
      "inputs": [
        {
          "internalType": "address",
          "name": "",
          "type": "address"
        }
      ],
      "name": "accountMarkets",
      "outputs": [
        {
          "internalType": "uint256",
          "name": "",
          "type": "uint256"
        }
      ],
      "stateMutability": "view",
      "type": "function"
    },
    {
      "inputs": [],
      "name": "allMarkets",
      "outputs": [
        {
          "internalType": "contract Market[]",
          "name": "",
          "type": "address[]"
        }
      ],
      "stateMutability": "view",
      "type": "function"
    },
    {
      "inputs": [
        {
          "internalType": "contract IPriceFeed",
          "name": "priceFeed",
          "type": "address"
        }
      ],
      "name": "assetPrice",
      "outputs": [
        {
          "internalType": "uint256",
          "name": "",
          "type": "uint256"
        }
      ],
      "stateMutability": "view",
      "type": "function"
    },
    {
      "inputs": [
        {
          "internalType": "contract Market",
          "name": "repayMarket",
          "type": "address"
        },
        {
          "internalType": "contract Market",
          "name": "seizeMarket",
          "type": "address"
        },
        {
          "internalType": "address",
          "name": "borrower",
          "type": "address"
        },
        {
          "internalType": "uint256",
          "name": "actualRepayAssets",
          "type": "uint256"
        }
      ],
      "name": "calculateSeize",
      "outputs": [
        {
          "internalType": "uint256",
          "name": "lendersAssets",
          "type": "uint256"
        },
        {
          "internalType": "uint256",
          "name": "seizeAssets",
          "type": "uint256"
        }
      ],
      "stateMutability": "view",
      "type": "function"
    },
    {
      "inputs": [
        {
          "internalType": "contract Market",
          "name": "market",
          "type": "address"
        },
        {
          "internalType": "address",
          "name": "borrower",
          "type": "address"
        }
      ],
      "name": "checkBorrow",
      "outputs": [],
      "stateMutability": "nonpayable",
      "type": "function"
    },
    {
      "inputs": [
        {
          "internalType": "contract Market",
          "name": "repayMarket",
          "type": "address"
        },
        {
          "internalType": "contract Market",
          "name": "seizeMarket",
          "type": "address"
        },
        {
          "internalType": "address",
          "name": "borrower",
          "type": "address"
        },
        {
          "internalType": "uint256",
          "name": "maxLiquidatorAssets",
          "type": "uint256"
        }
      ],
      "name": "checkLiquidation",
      "outputs": [
        {
          "internalType": "uint256",
          "name": "maxRepayAssets",
          "type": "uint256"
        }
      ],
      "stateMutability": "view",
      "type": "function"
    },
    {
      "inputs": [
        {
          "internalType": "contract Market",
          "name": "repayMarket",
          "type": "address"
        },
        {
          "internalType": "contract Market",
          "name": "seizeMarket",
          "type": "address"
        }
      ],
      "name": "checkSeize",
      "outputs": [],
      "stateMutability": "view",
      "type": "function"
    },
    {
      "inputs": [
        {
          "internalType": "contract Market",
          "name": "market",
          "type": "address"
        },
        {
          "internalType": "address",
          "name": "account",
          "type": "address"
        },
        {
          "internalType": "uint256",
          "name": "amount",
          "type": "uint256"
        }
      ],
      "name": "checkShortfall",
      "outputs": [],
      "stateMutability": "view",
      "type": "function"
    },
    {
      "inputs": [
        {
          "internalType": "contract Market",
          "name": "market",
          "type": "address"
        },
        {
          "internalType": "contract IPriceFeed",
          "name": "priceFeed",
          "type": "address"
        },
        {
          "internalType": "uint128",
          "name": "adjustFactor",
          "type": "uint128"
        }
      ],
      "name": "enableMarket",
      "outputs": [],
      "stateMutability": "nonpayable",
      "type": "function"
    },
    {
      "inputs": [
        {
          "internalType": "contract Market",
          "name": "market",
          "type": "address"
        }
      ],
      "name": "enterMarket",
      "outputs": [],
      "stateMutability": "nonpayable",
      "type": "function"
    },
    {
      "inputs": [
        {
          "internalType": "contract Market",
          "name": "market",
          "type": "address"
        }
      ],
      "name": "exitMarket",
      "outputs": [],
      "stateMutability": "nonpayable",
      "type": "function"
    },
    {
      "inputs": [],
      "name": "firewall",
      "outputs": [
        {
          "internalType": "contract Firewall",
          "name": "",
          "type": "address"
        }
      ],
      "stateMutability": "view",
      "type": "function"
    },
    {
      "inputs": [
        {
          "internalType": "bytes32",
          "name": "role",
          "type": "bytes32"
        }
      ],
      "name": "getRoleAdmin",
      "outputs": [
        {
          "internalType": "bytes32",
          "name": "",
          "type": "bytes32"
        }
      ],
      "stateMutability": "view",
      "type": "function"
    },
    {
      "inputs": [
        {
          "internalType": "bytes32",
          "name": "role",
          "type": "bytes32"
        },
        {
          "internalType": "address",
          "name": "account",
          "type": "address"
        }
      ],
      "name": "grantRole",
      "outputs": [],
      "stateMutability": "nonpayable",
      "type": "function"
    },
    {
      "inputs": [
        {
          "internalType": "address",
          "name": "account",
          "type": "address"
        }
      ],
      "name": "handleBadDebt",
      "outputs": [],
      "stateMutability": "nonpayable",
      "type": "function"
    },
    {
      "inputs": [
        {
          "internalType": "bytes32",
          "name": "role",
          "type": "bytes32"
        },
        {
          "internalType": "address",
          "name": "account",
          "type": "address"
        }
      ],
      "name": "hasRole",
      "outputs": [
        {
          "internalType": "bool",
          "name": "",
          "type": "bool"
        }
      ],
      "stateMutability": "view",
      "type": "function"
    },
    {
      "inputs": [
        {
          "components": [
            {
              "internalType": "uint128",
              "name": "liquidator",
              "type": "uint128"
            },
            {
              "internalType": "uint128",
              "name": "lenders",
              "type": "uint128"
            }
          ],
          "internalType": "struct Auditor.LiquidationIncentive",
          "name": "",
          "type": "tuple"
        }
      ],
      "name": "initialize",
      "outputs": [],
      "stateMutability": "pure",
      "type": "function"
    },
    {
      "inputs": [
        {
          "components": [
            {
              "internalType": "uint128",
              "name": "liquidator",
              "type": "uint128"
            },
            {
              "internalType": "uint128",
              "name": "lenders",
              "type": "uint128"
            }
          ],
          "internalType": "struct Auditor.LiquidationIncentive",
          "name": "liquidationIncentive_",
          "type": "tuple"
        },
        {
          "internalType": "contract Firewall",
          "name": "firewall_",
          "type": "address"
        }
      ],
      "name": "initializeVerified",
      "outputs": [],
      "stateMutability": "nonpayable",
      "type": "function"
    },
    {
      "inputs": [],
      "name": "liquidationIncentive",
      "outputs": [
        {
          "internalType": "uint128",
          "name": "liquidator",
          "type": "uint128"
        },
        {
          "internalType": "uint128",
          "name": "lenders",
          "type": "uint128"
        }
      ],
      "stateMutability": "view",
      "type": "function"
    },
    {
      "inputs": [
        {
          "internalType": "address",
          "name": "account",
          "type": "address"
        }
      ],
      "name": "lock",
      "outputs": [],
      "stateMutability": "nonpayable",
      "type": "function"
    },
    {
      "inputs": [
        {
          "internalType": "uint256",
          "name": "",
          "type": "uint256"
        }
      ],
      "name": "marketList",
      "outputs": [
        {
          "internalType": "contract Market",
          "name": "",
          "type": "address"
        }
      ],
      "stateMutability": "view",
      "type": "function"
    },
    {
      "inputs": [
        {
          "internalType": "contract Market",
          "name": "",
          "type": "address"
        }
      ],
      "name": "markets",
      "outputs": [
        {
          "internalType": "uint128",
          "name": "adjustFactor",
          "type": "uint128"
        },
        {
          "internalType": "uint8",
          "name": "decimals",
          "type": "uint8"
        },
        {
          "internalType": "uint8",
          "name": "index",
          "type": "uint8"
        },
        {
          "internalType": "bool",
          "name": "isListed",
          "type": "bool"
        },
        {
          "internalType": "contract IPriceFeed",
          "name": "priceFeed",
          "type": "address"
        }
      ],
      "stateMutability": "view",
      "type": "function"
    },
    {
      "inputs": [],
      "name": "priceDecimals",
      "outputs": [
        {
          "internalType": "uint256",
          "name": "",
          "type": "uint256"
        }
      ],
      "stateMutability": "view",
      "type": "function"
    },
    {
      "inputs": [
        {
          "internalType": "bytes32",
          "name": "role",
          "type": "bytes32"
        },
        {
          "internalType": "address",
          "name": "account",
          "type": "address"
        }
      ],
      "name": "renounceRole",
      "outputs": [],
      "stateMutability": "nonpayable",
      "type": "function"
    },
    {
      "inputs": [
        {
          "internalType": "bytes32",
          "name": "role",
          "type": "bytes32"
        },
        {
          "internalType": "address",
          "name": "account",
          "type": "address"
        }
      ],
      "name": "revokeRole",
      "outputs": [],
      "stateMutability": "nonpayable",
      "type": "function"
    },
    {
      "inputs": [
        {
          "internalType": "contract Market",
          "name": "market",
          "type": "address"
        },
        {
          "internalType": "uint128",
          "name": "adjustFactor",
          "type": "uint128"
        }
      ],
      "name": "setAdjustFactor",
      "outputs": [],
      "stateMutability": "nonpayable",
      "type": "function"
    },
    {
      "inputs": [
        {
          "internalType": "contract Firewall",
          "name": "firewall_",
          "type": "address"
        }
      ],
      "name": "setFirewall",
      "outputs": [],
      "stateMutability": "nonpayable",
      "type": "function"
    },
    {
      "inputs": [
        {
          "components": [
            {
              "internalType": "uint128",
              "name": "liquidator",
              "type": "uint128"
            },
            {
              "internalType": "uint128",
              "name": "lenders",
              "type": "uint128"
            }
          ],
          "internalType": "struct Auditor.LiquidationIncentive",
          "name": "liquidationIncentive_",
          "type": "tuple"
        }
      ],
      "name": "setLiquidationIncentive",
      "outputs": [],
      "stateMutability": "nonpayable",
      "type": "function"
    },
    {
      "inputs": [
        {
          "internalType": "contract Market",
          "name": "market",
          "type": "address"
        },
        {
          "internalType": "contract IPriceFeed",
          "name": "priceFeed",
          "type": "address"
        }
      ],
      "name": "setPriceFeed",
      "outputs": [],
      "stateMutability": "nonpayable",
      "type": "function"
    },
    {
      "inputs": [
        {
          "internalType": "bytes4",
          "name": "interfaceId",
          "type": "bytes4"
        }
      ],
      "name": "supportsInterface",
      "outputs": [
        {
          "internalType": "bool",
          "name": "",
          "type": "bool"
        }
      ],
      "stateMutability": "view",
      "type": "function"
    },
    {
      "inputs": [
        {
          "internalType": "address",
          "name": "account",
          "type": "address"
        }
      ],
      "name": "unlock",
      "outputs": [],
      "stateMutability": "nonpayable",
      "type": "function"
    }
  ],
  "transactionHash": "0xad8255b4a856ff13ac3c245e5ad4df8e154e954588621a29659f8b992997559f",
  "args": [
    8
  ],
  "numDeployments": 1,
  "solcInputHash": "1efe89910a1006a79c00d1a1dd21a99c",
  "bytecode": "0x60e060405234801561000f575f80fd5b5060405161322138038061322183398101604081905261002e916100ce565b60808190528061003f8160126100f9565b61004a90600a6101f5565b60a05261005881600a6101f5565b60c05261006361006a565b5050610207565b5f54610100900460ff161561007d575f80fd5b5f5460ff908116146100cc575f805460ff191660ff9081179091556040519081527f7f26b83ff96e1f2b6a682f133852f6798a09c465da95921460cefb38474024989060200160405180910390a15b565b5f602082840312156100de575f80fd5b5051919050565b634e487b7160e01b5f52601160045260245ffd5b8181038181111561010c5761010c6100e5565b92915050565b6001815b600184111561014d57808504811115610131576101316100e5565b600184161561013f57908102905b60019390931c928002610116565b935093915050565b5f826101635750600161010c565b8161016f57505f61010c565b8160018114610185576002811461018f576101ab565b600191505061010c565b60ff8411156101a0576101a06100e5565b50506001821b61010c565b5060208310610133831016604e8410600b84101617156101ce575081810a61010c565b6101da5f198484610112565b805f19048211156101ed576101ed6100e5565b029392505050565b5f6102008383610155565b9392505050565b60805160a05160c051612fe261023f5f395f61139801525f61145c01525f818161029501528181610fa801526115e30152612fe25ff3fe608060405234801561000f575f80fd5b506004361061024f575f3560e01c80638c36d02d1161013d578063c22a4a85116100b8578063e16ee72011610088578063ede4edd01161006e578063ede4edd014610606578063f435f5a714610619578063ff383ae61461062c575f80fd5b8063e16ee720146105e0578063e7bf4b02146105f3575f80fd5b8063c22a4a8514610594578063d547741f146105a7578063e037945b146105ba578063e1536d21146105cd575f80fd5b80639e9d79671161010d578063a3883db5116100f3578063a3883db51461055f578063ae53953314610572578063b883b05814610581575f80fd5b80639e9d796714610545578063a217fddf14610558575f80fd5b80638c36d02d1461041d5780638c765e94146104305780638e8f294b1461046e57806391d148541461050d575f80fd5b806336568abe116101cd5780636e1b00311161019d5780637b9d8931116101835780637b9d8931146103ef578063891f4b08146104025780638b9e811314610415575f80fd5b80636e1b0031146103b457806376e11286146103dc575f80fd5b806336568abe1461035e578063375a7cba146103715780633fe5d4251461038657806351e1498b14610399575f80fd5b8063216e7b5811610222578063248a9ca311610208578063248a9ca3146103165780632f2ff15d146103385780632f6c493c1461034b575f80fd5b8063216e7b58146102d8578063232b956c146102eb575f80fd5b806301ffc9a71461025357806303f2a1ea1461027b57806305300b281461029057806311fd52e1146102c5575b5f80fd5b6102666102613660046129ef565b61064b565b60405190151581526020015b60405180910390f35b61028e610289366004612ac5565b6106e3565b005b6102b77f000000000000000000000000000000000000000000000000000000000000000081565b604051908152602001610272565b61028e6102d3366004612af3565b610715565b6102b76102e6366004612b0e565b610908565b6102fe6102f9366004612b5c565b610bff565b6040516001600160a01b039091168152602001610272565b6102b7610324366004612b5c565b5f9081526065602052604090206001015490565b61028e610346366004612b73565b610c27565b61028e610359366004612af3565b610c50565b61028e61036c366004612b73565b610d88565b610379610daa565b6040516102729190612ba1565b61028e610394366004612af3565b610e0a565b6102fe73eeeeeeeeeeeeeeeeeeeeeeeeeeeeeeeeeeeeeeee81565b6103c76103c2366004612b0e565b610ec0565b60408051928352602083019190915201610272565b61028e6103ea366004612bec565b610f74565b61028e6103fd366004612bec565b6110b2565b61028e610410366004612ac5565b6110c6565b6102b7611134565b61028e61042b366004612af3565b61114a565b609a5461044e906001600160801b0380821691600160801b90041682565b604080516001600160801b03938416815292909116602083015201610272565b6104c961047c366004612af3565b60986020525f9081526040902080546001909101546001600160801b0382169160ff600160801b8204811692600160881b8304821692600160901b9004909116906001600160a01b031685565b604080516001600160801b03909616865260ff9485166020870152939092169284019290925290151560608301526001600160a01b0316608082015260a001610272565b61026661051b366004612b73565b5f9182526065602090815260408084206001600160a01b0393909316845291905290205460ff1690565b6103c7610553366004612c18565b61115d565b6102b75f81565b61028e61056d366004612c18565b61134f565b6102b7671158e460913d000081565b6102b761058f366004612af3565b611364565b609b546102fe906001600160a01b031681565b61028e6105b5366004612b73565b611488565b61028e6105c8366004612c56565b6114ac565b61028e6105db366004612c9a565b611929565b61028e6105ee366004612bec565b61193b565b61028e610601366004612cc5565b6119a6565b61028e610614366004612af3565b611a73565b61028e610627366004612af3565b611bcd565b6102b761063a366004612af3565b60976020525f908152604090205481565b5f7fffffffff0000000000000000000000000000000000000000000000000000000082167f7965db0b0000000000000000000000000000000000000000000000000000000014806106dd57507f01ffc9a7000000000000000000000000000000000000000000000000000000007fffffffff000000000000000000000000000000000000000000000000000000008316145b92915050565b6040517fadc06ae700000000000000000000000000000000000000000000000000000000815260040160405180910390fd5b6001600160a01b0381165f908152609760205260408120549081905b8115610852576001821615610846575f6099828154811061075457610754612cf8565b5f918252602080832091909101546001600160a01b0390811680845260989092526040808420905163ce96cb7760e01b81529189166004830152919350909190839063ce96cb7790602401602060405180830381865afa1580156107ba573d5f803e3d5ffd5b505050506040513d601f19601f820116820180604052508101906107de9190612d0c565b825460018401549192505f91610833916001600160801b03169061082d9061080e906001600160a01b0316611364565b865461082590600160801b900460ff16600a612e1a565b869190611dea565b90611e08565b11156108425750505050505050565b5050505b600191821c9101610731565b508190505f5b81156109025760018216156108f6576099818154811061087a5761087a612cf8565b5f918252602090912001546040517f926bb6330000000000000000000000000000000000000000000000000000000081526001600160a01b0386811660048301529091169063926bb633906024015f604051808303815f87803b1580156108df575f80fd5b505af11580156108f1573d5f803e3d5ffd5b505050505b600191821c9101610858565b50505050565b6001600160a01b0384165f90815260986020526040812054600160901b900460ff16158061095557506001600160a01b0384165f90815260986020526040902054600160901b900460ff16155b15610973576040516334b04fe360e11b815260040160405180910390fd5b61099d60405180606001604052805f81526020015f81526020015f6001600160801b031681525090565b6109ca6040518060a001604052805f81526020015f81526020015f81526020015f81526020015f81525090565b6001600160a01b0385165f90815260976020526040812054905b8115610be4576001821615610bd8575f60998281548110610a0757610a07612cf8565b5f9182526020808320909101546001600160a01b03908116808452609890925260408084208151606081019092526001810154939550939290918291610a4d9116611364565b81528354602090910190610a6c90600160801b900460ff16600a612e1a565b815283546001600160801b031660209091015290506001600160a01b03808d1690841603610a98578096505b60405163014a296f60e01b81526001600160a01b038b811660048301525f91829186169063014a296f906024016040805180830381865afa158015610adf573d5f803e3d5ffd5b505050506040513d601f19601f82011682018060405250810190610b039190612e28565b845160208601519294509092505f91610b1d918491611e1c565b905080895f01818151610b309190612e4a565b9052506040840151610b4c9082906001600160801b0316611e49565b89604001818151610b5d9190612e4a565b90525083516020850151610b72918591611dea565b90508089602001818151610b869190612e4a565b9052506040840151610ba29082906001600160801b0316611e08565b89606001818151610bb39190612e4a565b9052506001600160a01b03808f1690871603610bd157608089018190525b5050505050505b600191821c91016109e4565b50610bf182848789611e5d565b93505050505b949350505050565b60998181548110610c0e575f80fd5b5f918252602090912001546001600160a01b0316905081565b5f82815260656020526040902060010154610c4181611f17565b610c4b8383611f24565b505050565b33610c5a81611fc4565b609b5460405163babcc53960e01b81526001600160a01b0384811660048301529091169063babcc53990602401602060405180830381865afa158015610ca2573d5f803e3d5ffd5b505050506040513d601f19601f82011682018060405250810190610cc69190612e5d565b610ce357604051631cc6a69960e11b815260040160405180910390fd5b5f5b609954811015610c4b5760998181548110610d0257610d02612cf8565b5f918252602090912001546040517f2f6c493c0000000000000000000000000000000000000000000000000000000081526001600160a01b03858116600483015290911690632f6c493c906024015f604051808303815f87803b158015610d67575f80fd5b505af1158015610d79573d5f803e3d5ffd5b50505050806001019050610ce5565b6001600160a01b0381163314610d9c575f80fd5b610da68282612075565b5050565b60606099805480602002602001604051908101604052809291908181526020018280548015610e0057602002820191905f5260205f20905b81546001600160a01b03168152600190910190602001808311610de2575b5050505050905090565b6001600160a01b0381165f9081526098602052604090208054600160901b900460ff16610e4a576040516334b04fe360e11b815260040160405180910390fd5b335f9081526097602052604090205481546001600160881b90910460ff161b80821615610e775750505050565b335f818152609760205260408082208585179055516001600160a01b038716917f3ab23ab0d51cccc0c3085aec51f99228625aa1a922b3a8ca89a26b0f2027a1a591a350505050565b6001600160a01b038085165f90815260986020526040812060010154909182918291610eec9116611364565b6001600160a01b038088165f9081526098602052604081206001015492935091610f169116611364565b6001600160a01b0389165f9081526098602052604081205491925090610f55908490610f4d90600160801b900460ff16600a612e1a565b889190611e1c565b9050610f648882848a8a6120f6565b9450945050505094509492505050565b5f610f7e81611f17565b6001600160a01b03821673eeeeeeeeeeeeeeeeeeeeeeeeeeeeeeeeeeeeeeee1480159061102d57507f0000000000000000000000000000000000000000000000000000000000000000826001600160a01b031663313ce5676040518163ffffffff1660e01b8152600401602060405180830381865afa158015611003573d5f803e3d5ffd5b505050506040513d601f19601f820116820180604052508101906110279190612e7c565b60ff1614155b1561104b576040516352cc3f7d60e01b815260040160405180910390fd5b6001600160a01b038381165f81815260986020526040808220600101805473ffffffffffffffffffffffffffffffffffffffff19169487169485179055517fd2d8394cf7549a5ddbc2ba3dd7b2de8d53c891472d1f2907008ed6a10045fdae9190a3505050565b806110bc81611fc4565b610c4b8383612239565b5f6110d081611f17565b8151602080840180516001600160801b03908116600160801b02938116938417609a5560408051948552915116918301919091527f01681c947e6239f022bfc57fdcd1eecd249153804b38e0085d885e5aeed1b05491015b60405180910390a15050565b611147670de0b6b3a76400005f19612e9c565b81565b5f61115481611f17565b610da682612376565b5f8061118060405180606001604052805f81526020015f81526020015f81525090565b6001600160a01b0386165f90815260976020526040812054905b8115611344576001821615611338575f609982815481106111bd576111bd612cf8565b5f9182526020808320909101546001600160a01b0316808352609890915260408220805491935091906111fc9060ff600160801b90910416600a612e1a565b825460405163014a296f60e01b81526001600160a01b038e811660048301529293506001600160801b039091169185169063014a296f906024016040805180830381865afa158015611250573d5f803e3d5ffd5b505050506040513d601f19601f820116820180604052508101906112749190612e28565b602089015287526001830154611292906001600160a01b0316611364565b6040880181905287516112ab91839161082d9186611dea565b6112b5908a612e4a565b98506112de816112d88960400151858b60200151611e1c9092919063ffffffff16565b90611e49565b6112e89089612e4a565b97508a6001600160a01b0316846001600160a01b031603611333578915611333576113268161082d8960400151858e611dea9092919063ffffffff16565b6113309089612e4a565b97505b505050505b600191821c910161119a565b505050935093915050565b8161135981611fc4565b6109028484846123cc565b5f7fffffffffffffffffffffffff11111111111111111111111111111111111111126001600160a01b038316016113bc57507f0000000000000000000000000000000000000000000000000000000000000000919050565b5f826001600160a01b03166350d25bcd6040518163ffffffff1660e01b8152600401602060405180830381865afa1580156113f9573d5f803e3d5ffd5b505050506040513d601f19601f8201168201806040525081019061141d9190612d0c565b90505f8113611457576040517ebfc92100000000000000000000000000000000000000000000000000000000815260040160405180910390fd5b6114817f000000000000000000000000000000000000000000000000000000000000000082612ebb565b9392505050565b5f828152606560205260409020600101546114a281611f17565b610c4b8383612075565b5f6114b681611f17565b306001600160a01b0316846001600160a01b0316633ec045a66040518163ffffffff1660e01b8152600401602060405180830381865afa1580156114fc573d5f803e3d5ffd5b505050506040513d601f19601f820116820180604052508101906115209190612ed2565b6001600160a01b031614611560576040517f16b2972f00000000000000000000000000000000000000000000000000000000815260040160405180910390fd5b6001600160a01b0384165f90815260986020526040902054600160901b900460ff16156115b9576040517f4d5eeb4900000000000000000000000000000000000000000000000000000000815260040160405180910390fd5b6001600160a01b03831673eeeeeeeeeeeeeeeeeeeeeeeeeeeeeeeeeeeeeeee1480159061166857507f0000000000000000000000000000000000000000000000000000000000000000836001600160a01b031663313ce5676040518163ffffffff1660e01b8152600401602060405180830381865afa15801561163e573d5f803e3d5ffd5b505050506040513d601f19601f820116820180604052508101906116629190612e7c565b60ff1614155b15611686576040516352cc3f7d60e01b815260040160405180910390fd5b5f846001600160a01b031663313ce5676040518163ffffffff1660e01b8152600401602060405180830381865afa1580156116c3573d5f803e3d5ffd5b505050506040513d601f19601f820116820180604052508101906116e79190612e7c565b90506040518060a00160405280846001600160801b031681526020018260ff16815260200160998054905060ff168152602001600115158152602001856001600160a01b031681525060985f876001600160a01b03166001600160a01b031681526020019081526020015f205f820151815f015f6101000a8154816001600160801b0302191690836001600160801b031602179055506020820151815f0160106101000a81548160ff021916908360ff1602179055506040820151815f0160116101000a81548160ff021916908360ff1602179055506060820151815f0160126101000a81548160ff0219169083151502179055506080820151816001015f6101000a8154816001600160a01b0302191690836001600160a01b03160217905550905050609985908060018154018082558091505060019003905f5260205f20015f9091909190916101000a8154816001600160a01b0302191690836001600160a01b03160217905550846001600160a01b03167f4baa14f9cb96bf2fd4a6def4c4a6d8290bf89e48bfdd33d7586d8471674ac0e682604051611893919060ff91909116815260200190565b60405180910390a2836001600160a01b0316856001600160a01b03167fd2d8394cf7549a5ddbc2ba3dd7b2de8d53c891472d1f2907008ed6a10045fdae60405160405180910390a36040516001600160801b03841681526001600160a01b038616907f2e6cff6894398a38e2957a38e34bbbcebbc7f1cd5ec3c6cc0172ea7b40bd5b829060200160405180910390a25050505050565b6119328261244d565b610da681612376565b6001600160a01b0381165f90815260986020526040902054600160901b900460ff16158061198857506001600160a01b0382165f90815260986020526040902054600160901b900460ff16155b15610da6576040516334b04fe360e11b815260040160405180910390fd5b5f6119b081611f17565b6001600160a01b0383165f90815260986020526040902054600160901b900460ff166119ef576040516334b04fe360e11b815260040160405180910390fd5b6001600160a01b0383165f8181526098602090815260409182902080547fffffffffffffffffffffffffffffffff00000000000000000000000000000000166001600160801b03871690811790915591519182527f2e6cff6894398a38e2957a38e34bbbcebbc7f1cd5ec3c6cc0172ea7b40bd5b82910160405180910390a2505050565b6001600160a01b0381165f9081526098602052604090208054600160901b900460ff16611ab3576040516334b04fe360e11b815260040160405180910390fd5b60405163014a296f60e01b81523360048201525f9081906001600160a01b0385169063014a296f906024016040805180830381865afa158015611af8573d5f803e3d5ffd5b505050506040513d601f19601f82011682018060405250810190611b1c9190612e28565b91509150805f14611b40576040516304fdb01160e51b815260040160405180910390fd5b611b4b84338461134f565b335f90815260976020526040812054845490916001600160881b90920460ff169190911b908183169003611b8157505050505050565b335f81815260976020526040808220841986169055516001600160a01b038916917fe699a64c18b07ac5b7301aa273f36a2287239eb9501d81950672794afba29a0d91a3505050505050565b33611bd781611fc4565b609b5460405163babcc53960e01b81526001600160a01b0384811660048301529091169063babcc53990602401602060405180830381865afa158015611c1f573d5f803e3d5ffd5b505050506040513d601f19601f82011682018060405250810190611c439190612e5d565b15611c6157604051631cc6a69960e11b815260040160405180910390fd5b6001600160a01b0382165f90815260976020526040812054905b8115611d44576001821615611d38575f60998281548110611c9e57611c9e612cf8565b5f91825260208220015460405163014a296f60e01b81526001600160a01b0388811660048301529091169250829063014a296f906024016040805180830381865afa158015611cef573d5f803e3d5ffd5b505050506040513d601f19601f82011682018060405250810190611d139190612e28565b9150508015611d35576040516304fdb01160e51b815260040160405180910390fd5b50505b600191821c9101611c7b565b505f5b6099548110156109025760998181548110611d6457611d64612cf8565b5f918252602090912001546040517ff435f5a70000000000000000000000000000000000000000000000000000000081526001600160a01b0386811660048301529091169063f435f5a7906024015f604051808303815f87803b158015611dc9575f80fd5b505af1158015611ddb573d5f803e3d5ffd5b50505050806001019050611d47565b828202811515841585830485141716611e01575f80fd5b0492915050565b5f6114818383670de0b6b3a7640000611dea565b828202811515841585830485141716611e33575f80fd5b6001826001830304018115150290509392505050565b5f61148183670de0b6b3a764000084611e1c565b609b5460405163babcc53960e01b81526001600160a01b0383811660048301525f92169063babcc53990602401602060405180830381865afa158015611ea5573d5f803e3d5ffd5b505050506040513d601f19601f82011682018060405250810190611ec99190612e5d565b15611ee157611eda85858585612509565b9050610bf7565b611f0e611f088560200151865f0151611f01895f01518a608001516126d4565b9190611e1c565b846126d4565b95945050505050565b611f2181336126e9565b50565b5f8281526065602090815260408083206001600160a01b038516845290915290205460ff16610da6575f8281526065602090815260408083206001600160a01b03851684529091529020805460ff19166001179055611f803390565b6001600160a01b0316816001600160a01b0316837f2f8788117e7eff1d82e926ec794901d17c78024a50270940304540a733656f0d60405160405180910390a45050565b609b5460405163babcc53960e01b81526001600160a01b0383811660048301529091169063babcc53990602401602060405180830381865afa15801561200c573d5f803e3d5ffd5b505050506040513d601f19601f820116820180604052508101906120309190612e5d565b611f21576040517ffa5cd00f0000000000000000000000000000000000000000000000000000000081526001600160a01b038216600482015260240160405180910390fd5b5f8281526065602090815260408083206001600160a01b038516845290915290205460ff1615610da6575f8281526065602090815260408083206001600160a01b0385168085529252808320805460ff1916905551339285917ff6391f5c32d9c69d2a47ea670b442974b53935d1edc7fd64eb21e047a839171b9190a45050565b609b5460405163babcc53960e01b81526001600160a01b0384811660048301525f92839291169063babcc53990602401602060405180830381865afa158015612141573d5f803e3d5ffd5b505050506040513d601f19601f820116820180604052508101906121659190612e5d565b1561218057612177878787878761274a565b9150915061222f565b6001600160a01b0387165f9081526098602052604081205461222a906121bd906121b590600160801b900460ff16600a612e1a565b899089611e1c565b60405163ce96cb7760e01b81526001600160a01b0388811660048301528b169063ce96cb7790602401602060405180830381865afa158015612201573d5f803e3d5ffd5b505050506040513d601f19601f820116820180604052508101906122259190612d0c565b6126d4565b915091505b9550959350505050565b6001600160a01b0382165f9081526098602052604090208054600160901b900460ff16612279576040516334b04fe360e11b815260040160405180910390fd5b6001600160a01b0382165f90815260976020526040812054825490916001600160881b90920460ff169190911b90818316900361233b57336001600160a01b038616146122f2576040517fc4bbea6900000000000000000000000000000000000000000000000000000000815260040160405180910390fd5b6001600160a01b038085165f8181526097602052604080822086861790555191928816917f3ab23ab0d51cccc0c3085aec51f99228625aa1a922b3a8ca89a26b0f2027a1a59190a35b5f80612348865f8061115d565b915091508082101561236d57604051630aeac0bb60e11b815260040160405180910390fd5b50505050505050565b609b805473ffffffffffffffffffffffffffffffffffffffff19166001600160a01b0383169081179091556040517f6ced0ba4ec93ba57fbd2239c9f8e8478fa524995aac7a9810d936195e47abef2905f90a250565b6001600160a01b038381165f90815260986020908152604080832054938616835260979091528120546001600160881b90930460ff169290921b909116900361241457505050565b5f8061242184868561115d565b915091508082101561244657604051630aeac0bb60e11b815260040160405180910390fd5b5050505050565b5f54610100900460ff161580801561246b57505f54600160ff909116105b806124845750303b15801561248457505f5460ff166001145b61248c575f80fd5b5f805460ff1916600117905580156124ad575f805461ff0019166101001790555b6124b561280a565b6124bf5f33611f24565b6124c8826110c6565b8015610da6575f805461ff0019169055604051600181527f7f26b83ff96e1f2b6a682f133852f6798a09c465da95921460cefb384740249890602001611128565b5f846040015185606001511061254b576040517f095bf33300000000000000000000000000000000000000000000000000000000815260040160405180910390fd5b604080518082018252609a546001600160801b038082168352600160801b909104166020808301919091528701519187015190915f9161259f9161258f919061281e565b885160608a01516112d891611e08565b90505f6126156125de8460200151855f0151670de0b6b3a76400006125c49190612eed565b6125ce9190612eed565b84906001600160801b0316611e08565b6125f090671158e460913d0000612f0c565b60408a015160608b015161260391611e49565b6112d890671158e460913d0000612f0c565b9050610bf161268a8860200151895f0151611f0161264661263e670de0b6b3a7640000886126d4565b8e519061281e565b60208901518951612225919061266490670de0b6b3a7640000612eed565b61266e9190612eed565b6001600160801b03168f60800151611e4990919063ffffffff16565b61269d670de0b6b3a76400005f19612e9c565b88106126a957876126d4565b6122258560200151670de0b6b3a76400006126c49190612eed565b89906001600160801b0316612832565b5f8183106126e25781611481565b5090919050565b5f8281526065602090815260408083206001600160a01b038516845290915290205460ff16610da65761271b81612846565b612726836020612858565b604051602001612737929190612f36565b6040516020818303038152906040525f80fd5b60408051808201909152609a546001600160801b038082168352600160801b90910416602082018190525f918291612783908590611e08565b92506127fd6121bd8260200151835f0151670de0b6b3a76400006127a79190612eed565b6127b19190612eed565b6001600160a01b038b165f908152609860205260409020546001600160801b0391909116906127f7906127ef90600160801b900460ff16600a612e1a565b8b908b611e1c565b9061281e565b9150509550959350505050565b5f54610100900460ff1661281c575f80fd5b565b5f6114818383670de0b6b3a7640000611e1c565b5f61148183670de0b6b3a764000084611dea565b60606106dd6001600160a01b03831660145b60605f612866836002612ebb565b612871906002612e4a565b67ffffffffffffffff81111561288957612889612a2e565b6040519080825280601f01601f1916602001820160405280156128b3576020820181803683370190505b5090507f3000000000000000000000000000000000000000000000000000000000000000815f815181106128e9576128e9612cf8565b60200101906001600160f81b03191690815f1a9053507f78000000000000000000000000000000000000000000000000000000000000008160018151811061293357612933612cf8565b60200101906001600160f81b03191690815f1a9053505f612955846002612ebb565b612960906001612e4a565b90505b60018111156129e4577f303132333435363738396162636465660000000000000000000000000000000085600f16601081106129a1576129a1612cf8565b1a60f81b8282815181106129b7576129b7612cf8565b60200101906001600160f81b03191690815f1a90535060049490941c936129dd81612f97565b9050612963565b508315611481575f80fd5b5f602082840312156129ff575f80fd5b81357fffffffff0000000000000000000000000000000000000000000000000000000081168114611481575f80fd5b634e487b7160e01b5f52604160045260245ffd5b80356001600160801b0381168114612a58575f80fd5b919050565b5f60408284031215612a6d575f80fd5b6040516040810181811067ffffffffffffffff82111715612a9c57634e487b7160e01b5f52604160045260245ffd5b604052905080612aab83612a42565b8152612ab960208401612a42565b60208201525092915050565b5f60408284031215612ad5575f80fd5b6114818383612a5d565b6001600160a01b0381168114611f21575f80fd5b5f60208284031215612b03575f80fd5b813561148181612adf565b5f805f8060808587031215612b21575f80fd5b8435612b2c81612adf565b93506020850135612b3c81612adf565b92506040850135612b4c81612adf565b9396929550929360600135925050565b5f60208284031215612b6c575f80fd5b5035919050565b5f8060408385031215612b84575f80fd5b823591506020830135612b9681612adf565b809150509250929050565b602080825282518282018190525f918401906040840190835b81811015612be15783516001600160a01b0316835260209384019390920191600101612bba565b509095945050505050565b5f8060408385031215612bfd575f80fd5b8235612c0881612adf565b91506020830135612b9681612adf565b5f805f60608486031215612c2a575f80fd5b8335612c3581612adf565b92506020840135612c4581612adf565b929592945050506040919091013590565b5f805f60608486031215612c68575f80fd5b8335612c7381612adf565b92506020840135612c8381612adf565b9150612c9160408501612a42565b90509250925092565b5f8060608385031215612cab575f80fd5b612cb58484612a5d565b91506040830135612b9681612adf565b5f8060408385031215612cd6575f80fd5b8235612ce181612adf565b9150612cef60208401612a42565b90509250929050565b634e487b7160e01b5f52603260045260245ffd5b5f60208284031215612d1c575f80fd5b5051919050565b634e487b7160e01b5f52601160045260245ffd5b6001815b6001841115612d7257808504811115612d5657612d56612d23565b6001841615612d6457908102905b60019390931c928002612d3b565b935093915050565b5f82612d88575060016106dd565b81612d9457505f6106dd565b8160018114612daa5760028114612db457612dd0565b60019150506106dd565b60ff841115612dc557612dc5612d23565b50506001821b6106dd565b5060208310610133831016604e8410600b8410161715612df3575081810a6106dd565b612dff5f198484612d37565b805f1904821115612e1257612e12612d23565b029392505050565b5f61148160ff841683612d7a565b5f8060408385031215612e39575f80fd5b505080516020909101519092909150565b808201808211156106dd576106dd612d23565b5f60208284031215612e6d575f80fd5b81518015158114611481575f80fd5b5f60208284031215612e8c575f80fd5b815160ff81168114611481575f80fd5b5f82612eb657634e487b7160e01b5f52601260045260245ffd5b500490565b80820281158282048414176106dd576106dd612d23565b5f60208284031215612ee2575f80fd5b815161148181612adf565b6001600160801b0381811683821601908111156106dd576106dd612d23565b818103818111156106dd576106dd612d23565b5f81518060208401855e5f93019283525090919050565b7f416363657373436f6e74726f6c3a206163636f756e742000000000000000000081525f612f676017830185612f1f565b7f206973206d697373696e6720726f6c65200000000000000000000000000000008152611f0e6011820185612f1f565b5f81612fa557612fa5612d23565b505f19019056fea26469706673582212208d9d5441bf564d21dd77259aa4653c2c175d7992fd84372abcadecb56636e89564736f6c634300081a0033",
  "devdoc": {
    "events": {
      "AdjustFactorSet(address,uint256)": {
        "params": {
          "adjustFactor": "adjust factor for the underlying asset.",
          "market": "address of the market that has a new adjust factor."
        }
      },
      "FirewallSet(address)": {
        "params": {
          "firewall": "the new firewall."
        }
      },
      "Initialized(uint8)": {
        "details": "Triggered when the contract has been initialized or reinitialized."
      },
      "LiquidationIncentiveSet((uint128,uint128))": {
        "params": {
          "liquidationIncentive": "represented with 18 decimals."
        }
      },
      "MarketEntered(address,address)": {
        "params": {
          "account": "address of the account that just entered a market.",
          "market": "address of the market that the account entered."
        }
      },
      "MarketExited(address,address)": {
        "params": {
          "account": "address of the account that just left a market.",
          "market": "address of the market that the account just left."
        }
      },
      "MarketListed(address,uint8)": {
        "params": {
          "decimals": "decimals of the market's underlying asset.",
          "market": "address of the market that was listed."
        }
      },
      "PriceFeedSet(address,address)": {
        "params": {
          "market": "address of the asset used to get the price.",
          "priceFeed": "address of Chainlink's Price Feed aggregator used to query the asset price in base."
        }
      },
      "RoleAdminChanged(bytes32,bytes32,bytes32)": {
        "details": "Emitted when `newAdminRole` is set as ``role``'s admin role, replacing `previousAdminRole` `DEFAULT_ADMIN_ROLE` is the starting admin for all roles, despite {RoleAdminChanged} not being emitted signaling this. _Available since v3.1._"
      },
      "RoleGranted(bytes32,address,address)": {
        "details": "Emitted when `account` is granted `role`. `sender` is the account that originated the contract call, an admin role bearer except when using {AccessControl-_setupRole}."
      },
      "RoleRevoked(bytes32,address,address)": {
        "details": "Emitted when `account` is revoked `role`. `sender` is the account that originated the contract call:   - if using `revokeRole`, it is the admin role bearer   - if using `renounceRole`, it is the role bearer (i.e. `account`)"
      }
    },
    "kind": "dev",
    "methods": {
      "accountLiquidity(address,address,uint256)": {
        "params": {
          "account": "account in which the liquidity will be calculated.",
          "marketToSimulate": "market in which to simulate withdraw operation.",
          "withdrawAmount": "amount to simulate as withdraw."
        },
        "returns": {
          "sumCollateral": "sum of all collateral, already multiplied by each adjust factor (denominated in base).",
          "sumDebtPlusEffects": "sum of all debt divided by adjust factor considering withdrawal (denominated in base)."
        }
      },
      "assetPrice(address)": {
        "details": "If Chainlink's asset price is <= 0 the call is reverted.",
        "params": {
          "priceFeed": "address of Chainlink's Price Feed aggregator used to query the asset price."
        },
        "returns": {
          "_0": "The price of the asset scaled to 18-digit decimals."
        }
      },
      "calculateSeize(address,address,address,uint256)": {
        "params": {
          "actualRepayAssets": "amount being repaid.",
          "borrower": "account in which assets are being seized.",
          "repayMarket": "market from where the debt will be repaid.",
          "seizeMarket": "market from where the assets will be seized by the liquidator."
        },
        "returns": {
          "lendersAssets": "amount to be added for other lenders as a compensation of bad debt clearing.",
          "seizeAssets": "amount that can be seized by the liquidator."
        }
      },
      "checkBorrow(address,address)": {
        "details": "To be called after adding the borrowed debt to the account position.",
        "params": {
          "borrower": "address of the account that will repay the debt.",
          "market": "address of the market where the borrow is made."
        }
      },
      "checkLiquidation(address,address,address,uint256)": {
        "details": "This function can be called externally, but only will have effect when called from a market.",
        "params": {
          "borrower": "address in which the assets are being liquidated.",
          "maxLiquidatorAssets": "maximum amount of debt the liquidator is willing to accept.",
          "repayMarket": "market from where the debt is being repaid.",
          "seizeMarket": "market from where the liquidator will seize assets."
        },
        "returns": {
          "maxRepayAssets": "capped amount of debt the liquidator is allowed to repay."
        }
      },
      "checkSeize(address,address)": {
        "details": "This function can be called externally, but only will have effect when called from a market.",
        "params": {
          "repayMarket": "market from where the debt will be repaid.",
          "seizeMarket": "market where the assets will be seized."
        }
      },
      "checkShortfall(address,address,uint256)": {
        "params": {
          "account": "address of the account to check for possible shortfall.",
          "amount": "amount that the account wants to withdraw or transfer.",
          "market": "address of the market where the operation will happen."
        }
      },
      "enableMarket(address,address,uint128)": {
        "details": "Enabling more than 256 markets will cause an overflow when casting market index to uint8.",
        "params": {
          "adjustFactor": "market's adjust factor for the underlying asset.",
          "market": "market to add to the protocol.",
          "priceFeed": "address of Chainlink's Price Feed aggregator used to query the asset price in base."
        }
      },
      "enterMarket(address)": {
        "params": {
          "market": "market to enabled as collateral."
        }
      },
      "exitMarket(address)": {
        "details": "Sender must not have an outstanding borrow balance in the asset, or be providing necessary collateral for an outstanding borrow.",
        "params": {
          "market": "market to be disabled as collateral."
        }
      },
      "getRoleAdmin(bytes32)": {
        "details": "Returns the admin role that controls `role`. See {grantRole} and {revokeRole}. To change a role's admin, use {_setRoleAdmin}."
      },
      "grantRole(bytes32,address)": {
        "details": "Grants `role` to `account`. If `account` had not been already granted `role`, emits a {RoleGranted} event. Requirements: - the caller must have ``role``'s admin role. May emit a {RoleGranted} event."
      },
      "handleBadDebt(address)": {
        "details": "Collateral is multiplied by price and adjust factor to be accurately evaluated as positive collateral asset.",
        "params": {
          "account": "account in which debt is being checked."
        }
      },
      "hasRole(bytes32,address)": {
        "details": "Returns `true` if `account` has been granted `role`."
      },
      "renounceRole(bytes32,address)": {
        "details": "Revokes `role` from the calling account. Roles are often managed via {grantRole} and {revokeRole}: this function's purpose is to provide a mechanism for accounts to lose their privileges if they are compromised (such as when a trusted device is misplaced). If the calling account had been revoked `role`, emits a {RoleRevoked} event. Requirements: - the caller must be `account`. May emit a {RoleRevoked} event."
      },
      "revokeRole(bytes32,address)": {
        "details": "Revokes `role` from `account`. If `account` had been granted `role`, emits a {RoleRevoked} event. Requirements: - the caller must have ``role``'s admin role. May emit a {RoleRevoked} event."
      },
      "setAdjustFactor(address,uint128)": {
        "params": {
          "adjustFactor": "adjust factor for the underlying asset.",
          "market": "address of the market to change adjust factor for."
        }
      },
      "setLiquidationIncentive((uint128,uint128))": {
        "params": {
          "liquidationIncentive_": "new liquidation incentive."
        }
      },
      "setPriceFeed(address,address)": {
        "params": {
          "market": "market address of the asset.",
          "priceFeed": "address of Chainlink's Price Feed aggregator used to query the asset price in base."
        }
      },
      "supportsInterface(bytes4)": {
        "details": "See {IERC165-supportsInterface}."
      }
    },
    "version": 1
  },
  "userdoc": {
    "events": {
      "AdjustFactorSet(address,uint256)": {
        "notice": "Emitted when a adjust factor is changed by admin."
      },
      "FirewallSet(address)": {
        "notice": "Emitted when the firewall is set."
      },
      "LiquidationIncentiveSet((uint128,uint128))": {
        "notice": "Emitted when a new liquidationIncentive has been set."
      },
      "MarketEntered(address,address)": {
        "notice": "Emitted when an account enters a market to use his deposit as collateral for a loan."
      },
      "MarketExited(address,address)": {
        "notice": "Emitted when an account leaves a market. Means that they would stop using their deposit as collateral and won't ask for any loans in this market."
      },
      "MarketListed(address,uint8)": {
        "notice": "Emitted when a new market is listed for borrow/lending."
      },
      "PriceFeedSet(address,address)": {
        "notice": "Emitted when a market and prie feed is changed by admin."
      }
    },
    "kind": "user",
    "methods": {
      "ASSETS_THRESHOLD()": {
        "notice": "Maximum value the liquidator can send and still have granular control of max assets. Above this threshold, they should send `type(uint256).max`."
      },
      "BASE_FEED()": {
        "notice": "Address that a market should have as price feed to consider as base price and avoid external price call."
      },
      "TARGET_HEALTH()": {
        "notice": "Target health factor that the account should have after it's liquidated to prevent cascade liquidations."
      },
      "accountLiquidity(address,address,uint256)": {
        "notice": "Returns account's liquidity calculation."
      },
      "accountMarkets(address)": {
        "notice": "Tracks the markets' indexes that an account has entered as collateral."
      },
      "allMarkets()": {
        "notice": "Retrieves all markets."
      },
      "assetPrice(address)": {
        "notice": "Gets the asset price of a price feed."
      },
      "calculateSeize(address,address,address,uint256)": {
        "notice": "Calculates the amount of collateral to be seized when a position is undercollateralized."
      },
      "checkBorrow(address,address)": {
        "notice": "Validates that the current state of the position and system are valid."
      },
      "checkLiquidation(address,address,address,uint256)": {
        "notice": "Allows/rejects liquidation of assets."
      },
      "checkSeize(address,address)": {
        "notice": "Allow/rejects seizing of assets."
      },
      "checkShortfall(address,address,uint256)": {
        "notice": "Checks if the account has liquidity shortfall."
      },
      "enableMarket(address,address,uint128)": {
        "notice": "Enables a certain market."
      },
      "enterMarket(address)": {
        "notice": "Allows assets of a certain market to be used as collateral for borrowing other assets."
      },
      "exitMarket(address)": {
        "notice": "Removes market from sender's account liquidity calculation."
      },
      "handleBadDebt(address)": {
        "notice": "Checks if account has debt with no collateral, if so then call `clearBadDebt` from each market."
      },
      "liquidationIncentive()": {
        "notice": "Liquidation incentive factors for the liquidator and the lenders of the market where the debt is repaid."
      },
      "marketList(uint256)": {
        "notice": "Array of all enabled markets."
      },
      "markets(address)": {
        "notice": "Stores market parameters per each enabled market."
      },
      "priceDecimals()": {
        "notice": "Decimals that the answer of all price feeds should have."
      },
      "setAdjustFactor(address,uint128)": {
        "notice": "Sets the adjust factor for a certain market."
      },
      "setLiquidationIncentive((uint128,uint128))": {
        "notice": "Sets liquidation incentive (liquidator and lenders) for the whole ecosystem."
      },
      "setPriceFeed(address,address)": {
        "notice": "Sets the Chainlink Price Feed Aggregator source for a market."
      }
    },
    "version": 1
  },
  "storageLayout": {
    "storage": [
      {
        "astId": 543,
        "contract": "contracts/verified/VerifiedAuditor.sol:VerifiedAuditor",
        "label": "_initialized",
        "offset": 0,
        "slot": "0",
        "type": "t_uint8"
      },
      {
        "astId": 546,
        "contract": "contracts/verified/VerifiedAuditor.sol:VerifiedAuditor",
        "label": "_initializing",
        "offset": 1,
        "slot": "0",
        "type": "t_bool"
      },
      {
        "astId": 3288,
        "contract": "contracts/verified/VerifiedAuditor.sol:VerifiedAuditor",
        "label": "__gap",
        "offset": 0,
        "slot": "1",
        "type": "t_array(t_uint256)50_storage"
      },
      {
        "astId": 4287,
        "contract": "contracts/verified/VerifiedAuditor.sol:VerifiedAuditor",
        "label": "__gap",
        "offset": 0,
        "slot": "51",
        "type": "t_array(t_uint256)50_storage"
      },
      {
        "astId": 28,
        "contract": "contracts/verified/VerifiedAuditor.sol:VerifiedAuditor",
        "label": "_roles",
        "offset": 0,
        "slot": "101",
        "type": "t_mapping(t_bytes32,t_struct(RoleData)23_storage)"
      },
      {
        "astId": 335,
        "contract": "contracts/verified/VerifiedAuditor.sol:VerifiedAuditor",
        "label": "__gap",
        "offset": 0,
        "slot": "102",
        "type": "t_array(t_uint256)49_storage"
      },
      {
        "astId": 20883,
        "contract": "contracts/verified/VerifiedAuditor.sol:VerifiedAuditor",
        "label": "accountMarkets",
        "offset": 0,
        "slot": "151",
        "type": "t_mapping(t_address,t_uint256)"
      },
      {
        "astId": 20890,
        "contract": "contracts/verified/VerifiedAuditor.sol:VerifiedAuditor",
        "label": "markets",
        "offset": 0,
        "slot": "152",
        "type": "t_mapping(t_contract(Market)27533,t_struct(MarketData)22238_storage)"
      },
      {
        "astId": 20895,
        "contract": "contracts/verified/VerifiedAuditor.sol:VerifiedAuditor",
        "label": "marketList",
        "offset": 0,
        "slot": "153",
        "type": "t_array(t_contract(Market)27533)dyn_storage"
      },
      {
        "astId": 20899,
        "contract": "contracts/verified/VerifiedAuditor.sol:VerifiedAuditor",
        "label": "liquidationIncentive",
        "offset": 0,
        "slot": "154",
        "type": "t_struct(LiquidationIncentive)22244_storage"
      },
      {
        "astId": 47311,
        "contract": "contracts/verified/VerifiedAuditor.sol:VerifiedAuditor",
        "label": "firewall",
        "offset": 0,
        "slot": "155",
        "type": "t_contract(Firewall)47272"
      }
    ],
    "types": {
      "t_address": {
        "encoding": "inplace",
        "label": "address",
        "numberOfBytes": "20"
      },
      "t_array(t_contract(Market)27533)dyn_storage": {
        "base": "t_contract(Market)27533",
        "encoding": "dynamic_array",
        "label": "contract Market[]",
        "numberOfBytes": "32"
      },
      "t_array(t_uint256)49_storage": {
        "base": "t_uint256",
        "encoding": "inplace",
        "label": "uint256[49]",
        "numberOfBytes": "1568"
      },
      "t_array(t_uint256)50_storage": {
        "base": "t_uint256",
        "encoding": "inplace",
        "label": "uint256[50]",
        "numberOfBytes": "1600"
      },
      "t_bool": {
        "encoding": "inplace",
        "label": "bool",
        "numberOfBytes": "1"
      },
      "t_bytes32": {
        "encoding": "inplace",
        "label": "bytes32",
        "numberOfBytes": "32"
      },
      "t_contract(Firewall)47272": {
        "encoding": "inplace",
        "label": "contract Firewall",
        "numberOfBytes": "20"
      },
      "t_contract(IPriceFeed)47136": {
        "encoding": "inplace",
        "label": "contract IPriceFeed",
        "numberOfBytes": "20"
      },
      "t_contract(Market)27533": {
        "encoding": "inplace",
        "label": "contract Market",
        "numberOfBytes": "20"
      },
      "t_mapping(t_address,t_bool)": {
        "encoding": "mapping",
        "key": "t_address",
        "label": "mapping(address => bool)",
        "numberOfBytes": "32",
        "value": "t_bool"
      },
      "t_mapping(t_address,t_uint256)": {
        "encoding": "mapping",
        "key": "t_address",
        "label": "mapping(address => uint256)",
        "numberOfBytes": "32",
        "value": "t_uint256"
      },
      "t_mapping(t_bytes32,t_struct(RoleData)23_storage)": {
        "encoding": "mapping",
        "key": "t_bytes32",
        "label": "mapping(bytes32 => struct AccessControlUpgradeable.RoleData)",
        "numberOfBytes": "32",
        "value": "t_struct(RoleData)23_storage"
      },
      "t_mapping(t_contract(Market)27533,t_struct(MarketData)22238_storage)": {
        "encoding": "mapping",
        "key": "t_contract(Market)27533",
        "label": "mapping(contract Market => struct Auditor.MarketData)",
        "numberOfBytes": "32",
        "value": "t_struct(MarketData)22238_storage"
      },
      "t_struct(LiquidationIncentive)22244_storage": {
        "encoding": "inplace",
        "label": "struct Auditor.LiquidationIncentive",
        "members": [
          {
            "astId": 22241,
            "contract": "contracts/verified/VerifiedAuditor.sol:VerifiedAuditor",
            "label": "liquidator",
            "offset": 0,
            "slot": "0",
            "type": "t_uint128"
          },
          {
            "astId": 22243,
            "contract": "contracts/verified/VerifiedAuditor.sol:VerifiedAuditor",
            "label": "lenders",
            "offset": 16,
            "slot": "0",
            "type": "t_uint128"
          }
        ],
        "numberOfBytes": "32"
      },
      "t_struct(MarketData)22238_storage": {
        "encoding": "inplace",
        "label": "struct Auditor.MarketData",
        "members": [
          {
            "astId": 22228,
            "contract": "contracts/verified/VerifiedAuditor.sol:VerifiedAuditor",
            "label": "adjustFactor",
            "offset": 0,
            "slot": "0",
            "type": "t_uint128"
          },
          {
            "astId": 22230,
            "contract": "contracts/verified/VerifiedAuditor.sol:VerifiedAuditor",
            "label": "decimals",
            "offset": 16,
            "slot": "0",
            "type": "t_uint8"
          },
          {
            "astId": 22232,
            "contract": "contracts/verified/VerifiedAuditor.sol:VerifiedAuditor",
            "label": "index",
            "offset": 17,
            "slot": "0",
            "type": "t_uint8"
          },
          {
            "astId": 22234,
            "contract": "contracts/verified/VerifiedAuditor.sol:VerifiedAuditor",
            "label": "isListed",
            "offset": 18,
            "slot": "0",
            "type": "t_bool"
          },
          {
            "astId": 22237,
            "contract": "contracts/verified/VerifiedAuditor.sol:VerifiedAuditor",
            "label": "priceFeed",
            "offset": 0,
            "slot": "1",
            "type": "t_contract(IPriceFeed)47136"
          }
        ],
        "numberOfBytes": "64"
      },
      "t_struct(RoleData)23_storage": {
        "encoding": "inplace",
        "label": "struct AccessControlUpgradeable.RoleData",
        "members": [
          {
            "astId": 20,
            "contract": "contracts/verified/VerifiedAuditor.sol:VerifiedAuditor",
            "label": "members",
            "offset": 0,
            "slot": "0",
            "type": "t_mapping(t_address,t_bool)"
          },
          {
            "astId": 22,
            "contract": "contracts/verified/VerifiedAuditor.sol:VerifiedAuditor",
            "label": "adminRole",
            "offset": 0,
            "slot": "1",
            "type": "t_bytes32"
          }
        ],
        "numberOfBytes": "64"
      },
      "t_uint128": {
        "encoding": "inplace",
        "label": "uint128",
        "numberOfBytes": "16"
      },
      "t_uint256": {
        "encoding": "inplace",
        "label": "uint256",
        "numberOfBytes": "32"
      },
      "t_uint8": {
        "encoding": "inplace",
        "label": "uint8",
        "numberOfBytes": "1"
      }
    }
  }
}