{
  "address": "0xCCB82D9d8f33377e7D67B1d19e2603bAD08AAE09",
  "abi": [
    {
      "inputs": [
        {
          "internalType": "contract IFlashLoanRecipient",
          "name": "recipient",
          "type": "address"
        },
        {
          "internalType": "contract ERC20[]",
          "name": "tokens",
          "type": "address[]"
        },
        {
          "internalType": "uint256[]",
          "name": "amounts",
          "type": "uint256[]"
        },
        {
          "internalType": "bytes",
          "name": "userData",
          "type": "bytes"
        }
      ],
      "name": "flashLoan",
      "outputs": [],
      "stateMutability": "nonpayable",
      "type": "function"
    }
  ],
  "transactionHash": "0xa7e4dd5fc6309eadb06d3a315eccd33d65b333442317eaa7758f19bc1f3112d6",
  "args": [],
  "numDeployments": 1,
  "solcInputHash": "1efe89910a1006a79c00d1a1dd21a99c",
  "bytecode": "0x608060405260015f553480156012575f80fd5b506107f0806100205f395ff3fe608060405234801561000f575f80fd5b5060043610610029575f3560e01c80635c38449e1461002d575b5f80fd5b61004061003b366004610595565b610042565b005b5f5460011461004f575f80fd5b60025f55815183511461006457610064610696565b5f835167ffffffffffffffff81111561007f5761007f610457565b6040519080825280602002602001820160405280156100a8578160200160208202803683370190505b5090505f805b8551811015610266575f8682815181106100ca576100ca6106aa565b602002602001015190505f8683815181106100e7576100e76106aa565b60200260200101519050836001600160a01b0316826001600160a01b0316115f6001600160a01b0316836001600160a01b03161461015a576040518060400160405280600f81526020017f556e736f7274656420746f6b656e730000000000000000000000000000000000815250610191565b6040518060400160405280600a81526020017f5a65726f20746f6b656e000000000000000000000000000000000000000000008152505b5061019a575f80fd5b6040516370a0823160e01b815230600482015291935083916001600160a01b038316906370a0823190602401602060405180830381865afa1580156101e1573d5f803e3d5ffd5b505050506040513d601f19601f8201168201806040525081019061020591906106be565b858481518110610217576102176106aa565b60200260200101818152505080858481518110610236576102366106aa565b60200260200101511015610248575f80fd5b61025c6001600160a01b0383168a836103d6565b50506001016100ae565b50856001600160a01b031663f04f27078686885167ffffffffffffffff81111561029257610292610457565b6040519080825280602002602001820160405280156102bb578160200160208202803683370190505b50876040518563ffffffff1660e01b81526004016102dc949392919061070f565b5f604051808303815f87803b1580156102f3575f80fd5b505af1158015610305573d5f803e3d5ffd5b505050505f5b85518110156103c9575f868281518110610327576103276106aa565b60209081029190910101516040516370a0823160e01b81523060048201526001600160a01b03909116906370a0823190602401602060405180830381865afa158015610375573d5f803e3d5ffd5b505050506040513d601f19601f8201168201806040525081019061039991906106be565b90508382815181106103ad576103ad6106aa565b60200260200101518110156103c0575f80fd5b5060010161030b565b505060015f555050505050565b5f6040517fa9059cbb000000000000000000000000000000000000000000000000000000005f526001600160a01b0384166004528260245260205f60445f80895af13d15601f3d1160015f511416171691505f60605280604052508061043a575f80fd5b50505050565b6001600160a01b0381168114610454575f80fd5b50565b634e487b7160e01b5f52604160045260245ffd5b604051601f8201601f1916810167ffffffffffffffff8111828210171561049457610494610457565b604052919050565b5f67ffffffffffffffff8211156104b5576104b5610457565b5060051b60200190565b5f82601f8301126104ce575f80fd5b81356104e16104dc8261049c565b61046b565b8082825260208201915060208360051b860101925085831115610502575f80fd5b602085015b8381101561051f578035835260209283019201610507565b5095945050505050565b5f82601f830112610538575f80fd5b813567ffffffffffffffff81111561055257610552610457565b610565601f8201601f191660200161046b565b818152846020838601011115610579575f80fd5b816020850160208301375f918101602001919091529392505050565b5f805f80608085870312156105a8575f80fd5b84356105b381610440565b9350602085013567ffffffffffffffff8111156105ce575f80fd5b8501601f810187136105de575f80fd5b80356105ec6104dc8261049c565b8082825260208201915060208360051b85010192508983111561060d575f80fd5b6020840193505b8284101561063857833561062781610440565b825260209384019390910190610614565b9550505050604085013567ffffffffffffffff811115610656575f80fd5b610662878288016104bf565b925050606085013567ffffffffffffffff81111561067e575f80fd5b61068a87828801610529565b91505092959194509250565b634e487b7160e01b5f52600160045260245ffd5b634e487b7160e01b5f52603260045260245ffd5b5f602082840312156106ce575f80fd5b5051919050565b5f8151808452602084019350602083015f5b828110156107055781518652602095860195909101906001016106e7565b5093949350505050565b608080825285519082018190525f90602087019060a0840190835b818110156107515783516001600160a01b031683526020938401939092019160010161072a565b5050838103602085015261076581886106d5565b915050828103604084015261077a81866106d5565b905082810360608401525f84518083528060208701602085015e5f602082850101526020601f19601f83011684010191505080925050509594505050505056fea2646970667358221220d3fa79dd4c8297fc089eec2377fcf88ed94e9c878b0d335b12b4f3d8eaf2159764736f6c634300081a0033",
  "devdoc": {
    "kind": "dev",
    "methods": {},
    "version": 1
  },
  "userdoc": {
    "kind": "user",
    "methods": {},
    "version": 1
  },
  "storageLayout": {
    "storage": [
      {
        "astId": 49949,
        "contract": "contracts/mocks/MockBalancerVault.sol:MockBalancerVault",
        "label": "locked",
        "offset": 0,
        "slot": "0",
        "type": "t_uint256"
      }
    ],
    "types": {
      "t_uint256": {
        "encoding": "inplace",
        "label": "uint256",
        "numberOfBytes": "32"
      }
    }
  }
}