{
  "address": "0x7C8094719A815d5388D4721F199b9f36004408A3",
  "abi": [
    {
      "inputs": [],
      "stateMutability": "nonpayable",
      "type": "constructor"
    },
    {
      "inputs": [],
      "name": "AccessControlBadConfirmation",
      "type": "error"
    },
    {
      "inputs": [
        {
          "internalType": "address",
          "name": "account",
          "type": "address"
        },
        {
          "internalType": "bytes32",
          "name": "neededRole",
          "type": "bytes32"
        }
      ],
      "name": "AccessControlUnauthorizedAccount",
      "type": "error"
    },
    {
      "inputs": [
        {
          "internalType": "address",
          "name": "account",
          "type": "address"
        }
      ],
      "name": "AlreadyAllowed",
      "type": "error"
    },
    {
      "inputs": [],
      "name": "InvalidInitialization",
      "type": "error"
    },
    {
      "inputs": [
        {
          "internalType": "address",
          "name": "account",
          "type": "address"
        },
        {
          "internalType": "address",
          "name": "allower",
          "type": "address"
        }
      ],
      "name": "NotAllower",
      "type": "error"
    },
    {
      "inputs": [],
      "name": "NotInitializing",
      "type": "error"
    },
    {
      "anonymous": false,
      "inputs": [
        {
          "indexed": true,
          "internalType": "address",
          "name": "account",
          "type": "address"
        },
        {
          "indexed": true,
          "internalType": "address",
          "name": "allower",
          "type": "address"
        },
        {
          "indexed": false,
          "internalType": "bool",
          "name": "allowed",
          "type": "bool"
        }
      ],
      "name": "AllowlistSet",
      "type": "event"
    },
    {
      "anonymous": false,
      "inputs": [
        {
          "indexed": false,
          "internalType": "uint64",
          "name": "version",
          "type": "uint64"
        }
      ],
      "name": "Initialized",
      "type": "event"
    },
    {
      "anonymous": false,
      "inputs": [
        {
          "indexed": true,
          "internalType": "bytes32",
          "name": "role",
          "type": "bytes32"
        },
        {
          "indexed": true,
          "internalType": "bytes32",
          "name": "previousAdminRole",
          "type": "bytes32"
        },
        {
          "indexed": true,
          "internalType": "bytes32",
          "name": "newAdminRole",
          "type": "bytes32"
        }
      ],
      "name": "RoleAdminChanged",
      "type": "event"
    },
    {
      "anonymous": false,
      "inputs": [
        {
          "indexed": true,
          "internalType": "bytes32",
          "name": "role",
          "type": "bytes32"
        },
        {
          "indexed": true,
          "internalType": "address",
          "name": "account",
          "type": "address"
        },
        {
          "indexed": true,
          "internalType": "address",
          "name": "sender",
          "type": "address"
        }
      ],
      "name": "RoleGranted",
      "type": "event"
    },
    {
      "anonymous": false,
      "inputs": [
        {
          "indexed": true,
          "internalType": "bytes32",
          "name": "role",
          "type": "bytes32"
        },
        {
          "indexed": true,
          "internalType": "address",
          "name": "account",
          "type": "address"
        },
        {
          "indexed": true,
          "internalType": "address",
          "name": "sender",
          "type": "address"
        }
      ],
      "name": "RoleRevoked",
      "type": "event"
    },
    {
      "inputs": [],
      "name": "ALLOWER_ROLE",
      "outputs": [
        {
          "internalType": "bytes32",
          "name": "",
          "type": "bytes32"
        }
      ],
      "stateMutability": "view",
      "type": "function"
    },
    {
      "inputs": [],
      "name": "DEFAULT_ADMIN_ROLE",
      "outputs": [
        {
          "internalType": "bytes32",
          "name": "",
          "type": "bytes32"
        }
      ],
      "stateMutability": "view",
      "type": "function"
    },
    {
      "inputs": [
        {
          "internalType": "address",
          "name": "account",
          "type": "address"
        },
        {
          "internalType": "bool",
          "name": "allowed",
          "type": "bool"
        }
      ],
      "name": "allow",
      "outputs": [],
      "stateMutability": "nonpayable",
      "type": "function"
    },
    {
      "inputs": [
        {
          "internalType": "address",
          "name": "account",
          "type": "address"
        }
      ],
      "name": "allowlist",
      "outputs": [
        {
          "internalType": "address",
          "name": "allower",
          "type": "address"
        },
        {
          "internalType": "bool",
          "name": "allowed",
          "type": "bool"
        }
      ],
      "stateMutability": "view",
      "type": "function"
    },
    {
      "inputs": [
        {
          "internalType": "bytes32",
          "name": "role",
          "type": "bytes32"
        }
      ],
      "name": "getRoleAdmin",
      "outputs": [
        {
          "internalType": "bytes32",
          "name": "",
          "type": "bytes32"
        }
      ],
      "stateMutability": "view",
      "type": "function"
    },
    {
      "inputs": [
        {
          "internalType": "bytes32",
          "name": "role",
          "type": "bytes32"
        },
        {
          "internalType": "address",
          "name": "account",
          "type": "address"
        }
      ],
      "name": "grantRole",
      "outputs": [],
      "stateMutability": "nonpayable",
      "type": "function"
    },
    {
      "inputs": [
        {
          "internalType": "bytes32",
          "name": "role",
          "type": "bytes32"
        },
        {
          "internalType": "address",
          "name": "account",
          "type": "address"
        }
      ],
      "name": "hasRole",
      "outputs": [
        {
          "internalType": "bool",
          "name": "",
          "type": "bool"
        }
      ],
      "stateMutability": "view",
      "type": "function"
    },
    {
      "inputs": [],
      "name": "initialize",
      "outputs": [],
      "stateMutability": "nonpayable",
      "type": "function"
    },
    {
      "inputs": [
        {
          "internalType": "address",
          "name": "account",
          "type": "address"
        }
      ],
      "name": "isAllowed",
      "outputs": [
        {
          "internalType": "bool",
          "name": "",
          "type": "bool"
        }
      ],
      "stateMutability": "view",
      "type": "function"
    },
    {
      "inputs": [
        {
          "internalType": "bytes32",
          "name": "role",
          "type": "bytes32"
        },
        {
          "internalType": "address",
          "name": "callerConfirmation",
          "type": "address"
        }
      ],
      "name": "renounceRole",
      "outputs": [],
      "stateMutability": "nonpayable",
      "type": "function"
    },
    {
      "inputs": [
        {
          "internalType": "bytes32",
          "name": "role",
          "type": "bytes32"
        },
        {
          "internalType": "address",
          "name": "account",
          "type": "address"
        }
      ],
      "name": "revokeRole",
      "outputs": [],
      "stateMutability": "nonpayable",
      "type": "function"
    },
    {
      "inputs": [
        {
          "internalType": "bytes4",
          "name": "interfaceId",
          "type": "bytes4"
        }
      ],
      "name": "supportsInterface",
      "outputs": [
        {
          "internalType": "bool",
          "name": "",
          "type": "bool"
        }
      ],
      "stateMutability": "view",
      "type": "function"
    }
  ],
  "transactionHash": "0xaed1cf4d4a3c1b6218b306f3af2a662daae7f74bf2cb21a5628116d60c374c9f",
  "args": [],
  "numDeployments": 1,
  "solcInputHash": "1efe89910a1006a79c00d1a1dd21a99c",
  "bytecode": "0x6080604052348015600e575f80fd5b5060156019565b60c9565b7ff0c57e16840df040f15088dc2f81fe391c3923bec73e23a9662efc9c229c6a00805468010000000000000000900460ff161560685760405163f92ee8a960e01b815260040160405180910390fd5b80546001600160401b039081161460c65780546001600160401b0319166001600160401b0390811782556040519081527fc7f505b2f371ae2175ee4913f4499e1f2633a7b5936321eed1cdaeb6115181d29060200160405180910390a15b50565b610ab9806100d65f395ff3fe608060405234801561000f575f80fd5b50600436106100cf575f3560e01c80638129fc1c1161007d578063a7cd52cb11610058578063a7cd52cb14610212578063babcc53914610265578063d547741f14610297575f80fd5b80638129fc1c146101ac57806391d14854146101b4578063a217fddf1461020b575f80fd5b8063248a9ca3116100ad578063248a9ca3146101455780632f2ff15d1461018657806336568abe14610199575f80fd5b806301ffc9a7146100d357806310766f6f146100fb578063110496e514610130575b5f80fd5b6100e66100e136600461098f565b6102aa565b60405190151581526020015b60405180910390f35b6101227f2e304fa367e6bae25074aa208a0f43e2334743818f7c95fe77cf129d05fbe9fa81565b6040519081526020016100f2565b61014361013e3660046109f0565b610342565b005b610122610153366004610a29565b5f9081527f02dd7bc7dec4dceedda775e58dd541e08a116c6c53815c0bd028192f7b626800602052604090206001015490565b610143610194366004610a40565b6104f0565b6101436101a7366004610a40565b610539565b61014361058a565b6100e66101c2366004610a40565b5f9182527f02dd7bc7dec4dceedda775e58dd541e08a116c6c53815c0bd028192f7b626800602090815260408084206001600160a01b0393909316845291905290205460ff1690565b6101225f81565b610246610220366004610a6a565b5f602081905290815260409020546001600160a01b03811690600160a01b900460ff1682565b604080516001600160a01b0390931683529015156020830152016100f2565b6100e6610273366004610a6a565b6001600160a01b03165f90815260208190526040902054600160a01b900460ff1690565b6101436102a5366004610a40565b6106ce565b5f7fffffffff0000000000000000000000000000000000000000000000000000000082167f7965db0b00000000000000000000000000000000000000000000000000000000148061033c57507f01ffc9a7000000000000000000000000000000000000000000000000000000007fffffffff000000000000000000000000000000000000000000000000000000008316145b92915050565b7f2e304fa367e6bae25074aa208a0f43e2334743818f7c95fe77cf129d05fbe9fa61036c81610711565b8115801561039357506001600160a01b038381165f90815260208190526040902054163314155b156103e0576040517f69c3db450000000000000000000000000000000000000000000000000000000081526001600160a01b03841660048201523360248201526044015b60405180910390fd5b81801561040b57506001600160a01b0383165f90815260208190526040902054600160a01b900460ff165b1561044d576040517f0e8a49410000000000000000000000000000000000000000000000000000000081526001600160a01b03841660048201526024016103d7565b6040805180820182523380825284151560208084018281526001600160a01b038981165f8181528085528890209651875493511515600160a01b027fffffffffffffffffffffff00000000000000000000000000000000000000000090941692169190911791909117909455935190815290927f415a38d2d31f9f0081a62a0143bf0ae0f91eac6f080435a3e85edc7d6efa58d8910160405180910390a3505050565b5f8281527f02dd7bc7dec4dceedda775e58dd541e08a116c6c53815c0bd028192f7b626800602052604090206001015461052981610711565b610533838361071e565b50505050565b6001600160a01b038116331461057b576040517f6697b23200000000000000000000000000000000000000000000000000000000815260040160405180910390fd5b61058582826107ea565b505050565b7ff0c57e16840df040f15088dc2f81fe391c3923bec73e23a9662efc9c229c6a00805468010000000000000000810460ff16159067ffffffffffffffff165f811580156105d45750825b90505f8267ffffffffffffffff1660011480156105f05750303b155b9050811580156105fe575080155b15610635576040517ff92ee8a900000000000000000000000000000000000000000000000000000000815260040160405180910390fd5b845467ffffffffffffffff19166001178555831561066957845468ff00000000000000001916680100000000000000001785555b61067161088e565b61067b5f3361071e565b5083156106c757845468ff000000000000000019168555604051600181527fc7f505b2f371ae2175ee4913f4499e1f2633a7b5936321eed1cdaeb6115181d29060200160405180910390a15b5050505050565b5f8281527f02dd7bc7dec4dceedda775e58dd541e08a116c6c53815c0bd028192f7b626800602052604090206001015461070781610711565b61053383836107ea565b61071b8133610898565b50565b5f8281527f02dd7bc7dec4dceedda775e58dd541e08a116c6c53815c0bd028192f7b626800602081815260408084206001600160a01b038616855290915282205460ff166107e1575f848152602082815260408083206001600160a01b03871684529091529020805460ff191660011790556107973390565b6001600160a01b0316836001600160a01b0316857f2f8788117e7eff1d82e926ec794901d17c78024a50270940304540a733656f0d60405160405180910390a4600191505061033c565b5f91505061033c565b5f8281527f02dd7bc7dec4dceedda775e58dd541e08a116c6c53815c0bd028192f7b626800602081815260408084206001600160a01b038616855290915282205460ff16156107e1575f848152602082815260408083206001600160a01b0387168085529252808320805460ff1916905551339287917ff6391f5c32d9c69d2a47ea670b442974b53935d1edc7fd64eb21e047a839171b9190a4600191505061033c565b610896610928565b565b5f8281527f02dd7bc7dec4dceedda775e58dd541e08a116c6c53815c0bd028192f7b626800602090815260408083206001600160a01b038516845290915290205460ff16610924576040517fe2517d3f0000000000000000000000000000000000000000000000000000000081526001600160a01b0382166004820152602481018390526044016103d7565b5050565b7ff0c57e16840df040f15088dc2f81fe391c3923bec73e23a9662efc9c229c6a005468010000000000000000900460ff16610896576040517fd7e6bcf800000000000000000000000000000000000000000000000000000000815260040160405180910390fd5b5f6020828403121561099f575f80fd5b81357fffffffff00000000000000000000000000000000000000000000000000000000811681146109ce575f80fd5b9392505050565b80356001600160a01b03811681146109eb575f80fd5b919050565b5f8060408385031215610a01575f80fd5b610a0a836109d5565b915060208301358015158114610a1e575f80fd5b809150509250929050565b5f60208284031215610a39575f80fd5b5035919050565b5f8060408385031215610a51575f80fd5b82359150610a61602084016109d5565b90509250929050565b5f60208284031215610a7a575f80fd5b6109ce826109d556fea264697066735822122090150ff47b57c1aad893bd2d012a28d3fb0915f9a96595366694f8764149bf0564736f6c634300081a0033",
  "devdoc": {
    "errors": {
      "AccessControlBadConfirmation()": [
        {
          "details": "The caller of a function is not the expected one. NOTE: Don't confuse with {AccessControlUnauthorizedAccount}."
        }
      ],
      "AccessControlUnauthorizedAccount(address,bytes32)": [
        {
          "details": "The `account` is missing a role."
        }
      ],
      "InvalidInitialization()": [
        {
          "details": "The contract is already initialized."
        }
      ],
      "NotInitializing()": [
        {
          "details": "The contract is not initializing."
        }
      ]
    },
    "events": {
      "AllowlistSet(address,address,bool)": {
        "params": {
          "account": "address of the account that was allowlisted.",
          "allowed": "whether the account is allowlisted.",
          "allower": "address of the allower that allowed the account."
        }
      },
      "Initialized(uint64)": {
        "details": "Triggered when the contract has been initialized or reinitialized."
      },
      "RoleAdminChanged(bytes32,bytes32,bytes32)": {
        "details": "Emitted when `newAdminRole` is set as ``role``'s admin role, replacing `previousAdminRole` `DEFAULT_ADMIN_ROLE` is the starting admin for all roles, despite {RoleAdminChanged} not being emitted signaling this."
      },
      "RoleGranted(bytes32,address,address)": {
        "details": "Emitted when `account` is granted `role`. `sender` is the account that originated the contract call, an admin role bearer except when using {AccessControl-_setupRole}."
      },
      "RoleRevoked(bytes32,address,address)": {
        "details": "Emitted when `account` is revoked `role`. `sender` is the account that originated the contract call:   - if using `revokeRole`, it is the admin role bearer   - if using `renounceRole`, it is the role bearer (i.e. `account`)"
      }
    },
    "kind": "dev",
    "methods": {
      "constructor": {
        "custom:oz-upgrades-unsafe-allow": "constructor"
      },
      "getRoleAdmin(bytes32)": {
        "details": "Returns the admin role that controls `role`. See {grantRole} and {revokeRole}. To change a role's admin, use {_setRoleAdmin}."
      },
      "grantRole(bytes32,address)": {
        "details": "Grants `role` to `account`. If `account` had not been already granted `role`, emits a {RoleGranted} event. Requirements: - the caller must have ``role``'s admin role. May emit a {RoleGranted} event."
      },
      "hasRole(bytes32,address)": {
        "details": "Returns `true` if `account` has been granted `role`."
      },
      "initialize()": {
        "details": "can only be called once."
      },
      "renounceRole(bytes32,address)": {
        "details": "Revokes `role` from the calling account. Roles are often managed via {grantRole} and {revokeRole}: this function's purpose is to provide a mechanism for accounts to lose their privileges if they are compromised (such as when a trusted device is misplaced). If the calling account had been revoked `role`, emits a {RoleRevoked} event. Requirements: - the caller must be `callerConfirmation`. May emit a {RoleRevoked} event."
      },
      "revokeRole(bytes32,address)": {
        "details": "Revokes `role` from `account`. If `account` had been granted `role`, emits a {RoleRevoked} event. Requirements: - the caller must have ``role``'s admin role. May emit a {RoleRevoked} event."
      },
      "supportsInterface(bytes4)": {
        "details": "See {IERC165-supportsInterface}."
      }
    },
    "version": 1
  },
  "userdoc": {
    "events": {
      "AllowlistSet(address,address,bool)": {
        "notice": "Emitted when a new account is allowlisted."
      }
    },
    "kind": "user",
    "methods": {
      "initialize()": {
        "notice": "Initializes the contract."
      }
    },
    "version": 1
  },
  "storageLayout": {
    "storage": [
      {
        "astId": 47169,
        "contract": "contracts/verified/Firewall.sol:Firewall",
        "label": "allowlist",
        "offset": 0,
        "slot": "0",
        "type": "t_mapping(t_address,t_struct(Allowed)47277_storage)"
      }
    ],
    "types": {
      "t_address": {
        "encoding": "inplace",
        "label": "address",
        "numberOfBytes": "20"
      },
      "t_bool": {
        "encoding": "inplace",
        "label": "bool",
        "numberOfBytes": "1"
      },
      "t_mapping(t_address,t_struct(Allowed)47277_storage)": {
        "encoding": "mapping",
        "key": "t_address",
        "label": "mapping(address => struct Allowed)",
        "numberOfBytes": "32",
        "value": "t_struct(Allowed)47277_storage"
      },
      "t_struct(Allowed)47277_storage": {
        "encoding": "inplace",
        "label": "struct Allowed",
        "members": [
          {
            "astId": 47274,
            "contract": "contracts/verified/Firewall.sol:Firewall",
            "label": "allower",
            "offset": 0,
            "slot": "0",
            "type": "t_address"
          },
          {
            "astId": 47276,
            "contract": "contracts/verified/Firewall.sol:Firewall",
            "label": "allowed",
            "offset": 20,
            "slot": "0",
            "type": "t_bool"
          }
        ],
        "numberOfBytes": "32"
      }
    }
  }
}