{
  "address": "0x61C646888ed31192d610bA97D61f33a81aEef986",
  "abi": [
    {
      "inputs": [
        {
          "internalType": "contract Auditor",
          "name": "auditor_",
          "type": "address"
        }
      ],
      "stateMutability": "nonpayable",
      "type": "constructor"
    },
    {
      "inputs": [],
      "name": "auditor",
      "outputs": [
        {
          "internalType": "contract Auditor",
          "name": "",
          "type": "address"
        }
      ],
      "stateMutability": "view",
      "type": "function"
    },
    {
      "inputs": [
        {
          "internalType": "address",
          "name": "account",
          "type": "address"
        },
        {
          "internalType": "contract Market",
          "name": "market",
          "type": "address"
        },
        {
          "internalType": "uint256",
          "name": "targetHealthFactor",
          "type": "uint256"
        }
      ],
      "name": "borrowLimit",
      "outputs": [
        {
          "internalType": "uint256",
          "name": "",
          "type": "uint256"
        }
      ],
      "stateMutability": "view",
      "type": "function"
    },
    {
      "inputs": [
        {
          "internalType": "address",
          "name": "account",
          "type": "address"
        },
        {
          "internalType": "contract Market",
          "name": "market",
          "type": "address"
        },
        {
          "internalType": "uint256",
          "name": "maturity",
          "type": "uint256"
        },
        {
          "internalType": "uint256",
          "name": "positionAssets",
          "type": "uint256"
        }
      ],
      "name": "fixedRepayAssets",
      "outputs": [
        {
          "internalType": "uint256",
          "name": "assets",
          "type": "uint256"
        }
      ],
      "stateMutability": "view",
      "type": "function"
    },
    {
      "inputs": [
        {
          "internalType": "address",
          "name": "account",
          "type": "address"
        },
        {
          "internalType": "contract Market",
          "name": "market",
          "type": "address"
        },
        {
          "internalType": "uint256",
          "name": "maturity",
          "type": "uint256"
        },
        {
          "internalType": "uint256",
          "name": "assets",
          "type": "uint256"
        }
      ],
      "name": "fixedRepayPosition",
      "outputs": [
        {
          "internalType": "uint256",
          "name": "positionAssets",
          "type": "uint256"
        }
      ],
      "stateMutability": "view",
      "type": "function"
    },
    {
      "inputs": [
        {
          "internalType": "address",
          "name": "account",
          "type": "address"
        },
        {
          "internalType": "contract Market",
          "name": "market",
          "type": "address"
        },
        {
          "internalType": "uint256",
          "name": "maturity",
          "type": "uint256"
        }
      ],
      "name": "fixedRepaySnapshot",
      "outputs": [
        {
          "components": [
            {
              "internalType": "uint256",
              "name": "penaltyRate",
              "type": "uint256"
            },
            {
              "internalType": "uint256",
              "name": "backupFeeRate",
              "type": "uint256"
            },
            {
              "internalType": "uint256",
              "name": "borrowed",
              "type": "uint256"
            },
            {
              "internalType": "uint256",
              "name": "supplied",
              "type": "uint256"
            },
            {
              "internalType": "uint256",
              "name": "unassignedEarnings",
              "type": "uint256"
            },
            {
              "internalType": "uint256",
              "name": "lastAccrual",
              "type": "uint256"
            },
            {
              "internalType": "uint256",
              "name": "principal",
              "type": "uint256"
            },
            {
              "internalType": "uint256",
              "name": "fee",
              "type": "uint256"
            }
          ],
          "internalType": "struct IntegrationPreviewer.FixedRepaySnapshot",
          "name": "snapshot",
          "type": "tuple"
        }
      ],
      "stateMutability": "view",
      "type": "function"
    },
    {
      "inputs": [
        {
          "internalType": "address",
          "name": "account",
          "type": "address"
        }
      ],
      "name": "healthFactor",
      "outputs": [
        {
          "internalType": "uint256",
          "name": "",
          "type": "uint256"
        }
      ],
      "stateMutability": "view",
      "type": "function"
    }
  ],
  "transactionHash": "0x6a2565aa4d56204a4a1fc08b77db75dde6428130be7798f997b75bed8163d975",
  "args": [
    "0xcE8cAf2e6D0A6329818d262D1Eb81f8C8d3b7f51"
  ],
  "numDeployments": 1,
  "solcInputHash": "d44607eb90e97bcc9d251feca04d1d52",
  "bytecode": "0x60a0604052348015600e575f80fd5b506040516112dc3803806112dc833981016040819052602b91603b565b6001600160a01b03166080526066565b5f60208284031215604a575f80fd5b81516001600160a01b0381168114605f575f80fd5b9392505050565b6080516112436100995f395f8181609e015281816105a60152818161065401528181610758015261081601526112435ff3fe608060405234801561000f575f80fd5b506004361061006f575f3560e01c80636ad9f9df1161004d5780636ad9f9df146100eb5780636d6a8cb4146100fe5780639398edfe14610111575f80fd5b8063126c0417146100735780633ec045a61461009957806361fd92c7146100d8575b5f80fd5b610086610081366004610f10565b610184565b6040519081526020015b60405180910390f35b6100c07f000000000000000000000000000000000000000000000000000000000000000081565b6040516001600160a01b039091168152602001610090565b6100866100e6366004610f53565b610572565b6100866100f9366004610f91565b6107e3565b61008661010c366004610f10565b61089f565b61012461011f366004610f53565b610b94565b60405161009091905f61010082019050825182526020830151602083015260408301516040830152606083015160608301526080830151608083015260a083015160a083015260c083015160c083015260e083015160e083015292915050565b60405163d2681a0b60e01b8152600481018390526001600160a01b0385811660248301525f91829182919087169063d2681a0b906044016040805180830381865afa1580156101d5573d5f803e3d5ffd5b505050506040513d601f19601f820116820180604052508101906101f99190610fac565b90925090505f6102098284610fe2565b9050805f0361021d575f935050505061056a565b610230670de0b6b3a76400005f19610ff5565b85111561024157925061056a915050565b8542106102eb576102e16102db886001600160a01b031663d6b7494f6040518163ffffffff1660e01b8152600401602060405180830381865afa15801561028a573d5f803e3d5ffd5b505050506040513d601f19601f820116820180604052508101906102ae9190611014565b6102b8894261102b565b6102c2919061103e565b6102d490670de0b6b3a7640000610fe2565b8790610dd8565b82610df5565b935050505061056a565b8085106102fc57925061056a915050565b5f805f808a6001600160a01b0316634e7c50598b6040518263ffffffff1660e01b815260040161032e91815260200190565b608060405180830381865afa158015610349573d5f803e3d5ffd5b505050506040513d601f19601f8201168201806040525081019061036d9190611055565b9350935093509350808a11156103a95761039c61038a824261102b565b610394838d61102b565b849190610e0a565b6103a6908361102b565b91505b815f036103bf578897505050505050505061056a565b5f6103ca8585610df5565b6103d4908661102b565b9050805f036103ed57899850505050505050505061056a565b5f6103f88988610dd8565b9050805f03610412578a995050505050505050505061056a565b5f61048f8e6001600160a01b031663a1e8f02b6040518163ffffffff1660e01b8152600401602060405180830381865afa158015610452573d5f803e3d5ffd5b505050506040513d601f19601f820116820180604052508101906104769190611014565b61048890670de0b6b3a764000061102b565b8690610e28565b9050805f036104aa578b9a505050505050505050505061056a565b5f6104b6828486610e0a565b9050670de0b6b3a764000081106104ec576104da6104d4838f610fe2565b8a610df5565b9b50505050505050505050505061056a565b5f61050961050283670de0b6b3a764000061102b565b8f90610dd8565b9050846105168583610e28565b111580156105245750898111155b1561053c579b5061056a9a5050505050505050505050565b610551838f8c61054c919061102b565b610df5565b61055b908f610fe2565b9c505050505050505050505050505b949350505050565b604051639e9d796760e01b81526001600160a01b03848116600483015283811660248301525f6044830181905291829182917f000000000000000000000000000000000000000000000000000000000000000090911690639e9d7967906064016040805180830381865afa1580156105ec573d5f803e3d5ffd5b505050506040513d601f19601f820116820180604052508101906106109190610fac565b6040517f8e8f294b0000000000000000000000000000000000000000000000000000000081526001600160a01b0388811660048301529294509092505f91829182917f00000000000000000000000000000000000000000000000000000000000000001690638e8f294b9060240160a060405180830381865afa158015610699573d5f803e3d5ffd5b505050506040513d601f19601f820116820180604052508101906106bd919061109d565b9450505060ff1692506fffffffffffffffffffffffffffffffff1692505f6106ee8887610dd890919063ffffffff16565b9050808510610705575f96505050505050506107dc565b5f610710868361102b565b90506107d261072085600a611202565b6040517fb883b0580000000000000000000000000000000000000000000000000000000081526001600160a01b0386811660048301527f0000000000000000000000000000000000000000000000000000000000000000169063b883b05890602401602060405180830381865afa15801561079d573d5f803e3d5ffd5b505050506040513d601f19601f820116820180604052508101906107c19190611014565b6107cb8489610e28565b9190610e0a565b9750505050505050505b9392505050565b604051639e9d796760e01b81526001600160a01b0382811660048301525f602483018190526044830181905291829182917f000000000000000000000000000000000000000000000000000000000000000090911690639e9d7967906064016040805180830381865afa15801561085c573d5f803e3d5ffd5b505050506040513d601f19601f820116820180604052508101906108809190610fac565b91509150805f0361089557505f199392505050565b61056a8282610dd8565b5f6108bb60405180604001604052805f81526020015f81525090565b60405163d2681a0b60e01b8152600481018590526001600160a01b03878116602483015286169063d2681a0b906044016040805180830381865afa158015610905573d5f803e3d5ffd5b505050506040513d601f19601f820116820180604052508101906109299190610fac565b602083018190528183525f9161093f9190610fe2565b9050805f03610952575f9250505061056a565b8084111561095e578093505b8442106109f6576109e3866001600160a01b031663d6b7494f6040518163ffffffff1660e01b8152600401602060405180830381865afa1580156109a4573d5f803e3d5ffd5b505050506040513d601f19601f820116820180604052508101906109c89190611014565b6109d2874261102b565b6109dc919061103e565b8590610e28565b6109ed9085610fe2565b9250505061056a565b610a1d60405180608001604052805f81526020015f81526020015f81526020015f81525090565b6040517f4e7c5059000000000000000000000000000000000000000000000000000000008152600481018790526001600160a01b03881690634e7c505990602401608060405180830381865afa158015610a79573d5f803e3d5ffd5b505050506040513d601f19601f82011682018060405250810190610a9d9190611055565b6060850181905260408501919091526020840191909152908252861115610b0157610aec816060015142610ad1919061102b565b6060830151610ae0908961102b565b60408401519190610e0a565b81604001818151610afd919061102b565b9052505b5f610b7a610b0f8588610e3c565b5f0151896001600160a01b031663a1e8f02b6040518163ffffffff1660e01b8152600401602060405180830381865afa158015610b4e573d5f803e3d5ffd5b505050506040513d601f19601f82011682018060405250810190610b729190611014565b849190610e8a565b509050610b87818761102b565b9998505050505050505050565b610bd46040518061010001604052805f81526020015f81526020015f81526020015f81526020015f81526020015f81526020015f81526020015f81525090565b5f805f80866001600160a01b0316634e7c5059876040518263ffffffff1660e01b8152600401610c0691815260200190565b608060405180830381865afa158015610c21573d5f803e3d5ffd5b505050506040513d601f19601f82011682018060405250810190610c459190611055565b93509350935093505f80886001600160a01b031663d2681a0b898c6040518363ffffffff1660e01b8152600401610c8f9291909182526001600160a01b0316602082015260400190565b6040805180830381865afa158015610ca9573d5f803e3d5ffd5b505050506040513d601f19601f82011682018060405250810190610ccd9190610fac565b915091506040518061010001604052808a6001600160a01b031663d6b7494f6040518163ffffffff1660e01b8152600401602060405180830381865afa158015610d19573d5f803e3d5ffd5b505050506040513d601f19601f82011682018060405250810190610d3d9190611014565b81526020018a6001600160a01b031663a1e8f02b6040518163ffffffff1660e01b8152600401602060405180830381865afa158015610d7e573d5f803e3d5ffd5b505050506040513d601f19601f82011682018060405250810190610da29190611014565b81526020018781526020018681526020018581526020018481526020018381526020018281525096505050505050509392505050565b5f610dec83670de0b6b3a764000084610e0a565b90505b92915050565b5f818310610e035781610dec565b5090919050565b828202811515841585830485141716610e21575f80fd5b0492915050565b5f610dec8383670de0b6b3a7640000610e0a565b604080518082019091525f8082526020820152825160208401515f91610e6e91610e669082610fe2565b859190610e0a565b8085529050610e7d818461102b565b6020850152509192915050565b5f805f610e9686610edb565b90508015610ed257610eb7610eab8683610df5565b60408801519083610e0a565b9250610ec38385610e28565b9150610ecf828461102b565b92505b50935093915050565b805160208201515f9190610eef8282610df5565b61056a908361102b565b6001600160a01b0381168114610f0d575f80fd5b50565b5f805f8060808587031215610f23575f80fd5b8435610f2e81610ef9565b93506020850135610f3e81610ef9565b93969395505050506040820135916060013590565b5f805f60608486031215610f65575f80fd5b8335610f7081610ef9565b92506020840135610f8081610ef9565b929592945050506040919091013590565b5f60208284031215610fa1575f80fd5b81356107dc81610ef9565b5f8060408385031215610fbd575f80fd5b505080516020909101519092909150565b634e487b7160e01b5f52601160045260245ffd5b80820180821115610def57610def610fce565b5f8261100f57634e487b7160e01b5f52601260045260245ffd5b500490565b5f60208284031215611024575f80fd5b5051919050565b81810381811115610def57610def610fce565b8082028115828204841417610def57610def610fce565b5f805f8060808587031215611068575f80fd5b505082516020840151604085015160609095015191969095509092509050565b805160ff81168114611098575f80fd5b919050565b5f805f805f60a086880312156110b1575f80fd5b85516fffffffffffffffffffffffffffffffff811681146110d0575f80fd5b94506110de60208701611088565b93506110ec60408701611088565b925060608601518015158114611100575f80fd5b608087015190925061111181610ef9565b809150509295509295909350565b6001815b600184111561115a5780850481111561113e5761113e610fce565b600184161561114c57908102905b60019390931c928002611123565b935093915050565b5f8261117057506001610def565b8161117c57505f610def565b8160018114611192576002811461119c576111b8565b6001915050610def565b60ff8411156111ad576111ad610fce565b50506001821b610def565b5060208310610133831016604e8410600b84101617156111db575081810a610def565b6111e75f19848461111f565b805f19048211156111fa576111fa610fce565b029392505050565b5f610dec838361116256fea2646970667358221220a13b5b1feaf75f09e921e5d49cd04052f505566f2c45856681adbfb42b6be8a564736f6c634300081a0033",
  "devdoc": {
    "kind": "dev",
    "methods": {
      "borrowLimit(address,address,uint256)": {
        "details": "Computes the limit from current adjusted collateral and debt, applying the market adjust factor and oracle price. All arithmetic is rounded down for safety. Returns 0 if the account is already at or past the target.",
        "params": {
          "account": "The borrower address to evaluate.",
          "market": "The market from which additional assets would be borrowed.",
          "targetHealthFactor": "The desired health factor in WAD (1e18 = 1.0)."
        },
        "returns": {
          "_0": "maxAssets The maximum extra underlying assets that can be borrowed safely."
        }
      },
      "constructor": {
        "custom:oz-upgrades-unsafe-allow": "constructor"
      },
      "fixedRepayAssets(address,address,uint256,uint256)": {
        "details": "Caps `positionAssets` to the total position (principal + fee). If the position is past maturity, applies a linear penalty proportional to the elapsed time. Before maturity, uses pool state and `calculateDeposit` to account for unassigned earnings and backup fee rate; result is rounded down.",
        "params": {
          "account": "The borrower whose fixed position is being repaid.",
          "market": "The market that holds the fixed-rate position.",
          "maturity": "The UNIX timestamp identifying the fixed-rate pool.",
          "positionAssets": "The amount of position (principal + fee) to repay."
        },
        "returns": {
          "assets": "The required amount of underlying assets to transfer for the repay."
        }
      },
      "fixedRepayPosition(address,address,uint256,uint256)": {
        "details": "Bounded by the total position (principal + fee). If the pool is past maturity, accounts for the linear penalty. Before maturity, estimates based on pool unassigned earnings and backup-supplied liquidity, using an unsaturated guess with a saturated fallback when assumptions do not hold. All arithmetic rounds down.",
        "params": {
          "account": "The borrower whose fixed position is being repaid.",
          "assets": "The amount of underlying assets provided to cover the position.",
          "market": "The market that holds the fixed-rate position.",
          "maturity": "The UNIX timestamp identifying the fixed-rate pool."
        },
        "returns": {
          "positionAssets": "The portion of the position (principal + fee) that would be covered."
        }
      },
      "fixedRepaySnapshot(address,address,uint256)": {
        "details": "Reads pool aggregates and the borrower's position at `maturity`; does not mutate state. Useful for off-chain simulations and UI previews.",
        "params": {
          "account": "The borrower whose position is queried.",
          "market": "The market to query.",
          "maturity": "The UNIX timestamp identifying the fixed-rate pool."
        },
        "returns": {
          "snapshot": "A `FixedRepaySnapshot` with penalty/fee rates, pool, and position data."
        }
      },
      "healthFactor(address)": {
        "details": "Uses `auditor.accountLiquidity` with no delta to obtain adjusted collateral and debt. If the account has no debt, returns `type(uint256).max`. Health factor is expressed in WAD (1e18 = 1.0).",
        "params": {
          "account": "The account whose health factor is being queried."
        },
        "returns": {
          "_0": "healthFactor The account health factor in WAD, or max when there is no debt."
        }
      }
    },
    "stateVariables": {
      "auditor": {
        "custom:oz-upgrades-unsafe-allow": "state-variable-immutable"
      }
    },
    "version": 1
  },
  "userdoc": {
    "kind": "user",
    "methods": {
      "borrowLimit(address,address,uint256)": {
        "notice": "Returns the maximum additional amount of underlying assets the `account` can borrow from `market` so that its health factor becomes `targetHealthFactor`."
      },
      "fixedRepayAssets(address,address,uint256,uint256)": {
        "notice": "Preview the amount of underlying `assets` required to repay `positionAssets` of a fixed-rate borrow position for `account` at `maturity` in `market`."
      },
      "fixedRepayPosition(address,address,uint256,uint256)": {
        "notice": "Preview the portion of the fixed-rate position that can be covered with `assets` provided by `account` in `market` at `maturity`."
      },
      "fixedRepaySnapshot(address,address,uint256)": {
        "notice": "Returns a snapshot of pool and position parameters used for fixed repay previews."
      },
      "healthFactor(address)": {
        "notice": "Returns the health factor of an `account` across supported markets."
      }
    },
    "version": 1
  },
  "storageLayout": {
    "storage": [],
    "types": null
  }
}