{
  "address": "0xE1F0895C5C40Ff6c7d1C22A28Bb656D57192e49b",
  "abi": [
    {
      "inputs": [
        {
          "internalType": "contract ERC20",
          "name": "asset_",
          "type": "address"
        },
        {
          "internalType": "contract VerifiedAuditor",
          "name": "auditor_",
          "type": "address"
        }
      ],
      "stateMutability": "nonpayable",
      "type": "constructor"
    },
    {
      "inputs": [],
      "name": "Disagreement",
      "type": "error"
    },
    {
      "inputs": [],
      "name": "InsufficientProtocolLiquidity",
      "type": "error"
    },
    {
      "inputs": [],
      "name": "MarketFrozen",
      "type": "error"
    },
    {
      "inputs": [],
      "name": "MaturityOverflow",
      "type": "error"
    },
    {
      "inputs": [
        {
          "internalType": "address",
          "name": "account",
          "type": "address"
        }
      ],
      "name": "NotAllowed",
      "type": "error"
    },
    {
      "inputs": [],
      "name": "NotAuditor",
      "type": "error"
    },
    {
      "inputs": [],
      "name": "NotPausingRole",
      "type": "error"
    },
    {
      "inputs": [],
      "name": "SelfLiquidation",
      "type": "error"
    },
    {
      "inputs": [
        {
          "internalType": "uint8",
          "name": "state",
          "type": "uint8"
        },
        {
          "internalType": "uint8",
          "name": "requiredState",
          "type": "uint8"
        }
      ],
      "name": "UnmatchedPoolState",
      "type": "error"
    },
    {
      "inputs": [
        {
          "internalType": "uint8",
          "name": "state",
          "type": "uint8"
        },
        {
          "internalType": "uint8",
          "name": "requiredState",
          "type": "uint8"
        },
        {
          "internalType": "uint8",
          "name": "alternativeState",
          "type": "uint8"
        }
      ],
      "name": "UnmatchedPoolStates",
      "type": "error"
    },
    {
      "inputs": [],
      "name": "ZeroBorrow",
      "type": "error"
    },
    {
      "inputs": [],
      "name": "ZeroDeposit",
      "type": "error"
    },
    {
      "inputs": [],
      "name": "ZeroRepay",
      "type": "error"
    },
    {
      "inputs": [],
      "name": "ZeroWithdraw",
      "type": "error"
    },
    {
      "anonymous": false,
      "inputs": [
        {
          "indexed": false,
          "internalType": "uint256",
          "name": "timestamp",
          "type": "uint256"
        }
      ],
      "name": "AccumulatorAccrual",
      "type": "event"
    },
    {
      "anonymous": false,
      "inputs": [
        {
          "indexed": true,
          "internalType": "address",
          "name": "owner",
          "type": "address"
        },
        {
          "indexed": true,
          "internalType": "address",
          "name": "spender",
          "type": "address"
        },
        {
          "indexed": false,
          "internalType": "uint256",
          "name": "amount",
          "type": "uint256"
        }
      ],
      "name": "Approval",
      "type": "event"
    },
    {
      "anonymous": false,
      "inputs": [
        {
          "indexed": false,
          "internalType": "uint256",
          "name": "backupFeeRate",
          "type": "uint256"
        }
      ],
      "name": "BackupFeeRateSet",
      "type": "event"
    },
    {
      "anonymous": false,
      "inputs": [
        {
          "indexed": true,
          "internalType": "address",
          "name": "caller",
          "type": "address"
        },
        {
          "indexed": true,
          "internalType": "address",
          "name": "receiver",
          "type": "address"
        },
        {
          "indexed": true,
          "internalType": "address",
          "name": "borrower",
          "type": "address"
        },
        {
          "indexed": false,
          "internalType": "uint256",
          "name": "assets",
          "type": "uint256"
        },
        {
          "indexed": false,
          "internalType": "uint256",
          "name": "shares",
          "type": "uint256"
        }
      ],
      "name": "Borrow",
      "type": "event"
    },
    {
      "anonymous": false,
      "inputs": [
        {
          "indexed": true,
          "internalType": "uint256",
          "name": "maturity",
          "type": "uint256"
        },
        {
          "indexed": false,
          "internalType": "address",
          "name": "caller",
          "type": "address"
        },
        {
          "indexed": true,
          "internalType": "address",
          "name": "receiver",
          "type": "address"
        },
        {
          "indexed": true,
          "internalType": "address",
          "name": "borrower",
          "type": "address"
        },
        {
          "indexed": false,
          "internalType": "uint256",
          "name": "assets",
          "type": "uint256"
        },
        {
          "indexed": false,
          "internalType": "uint256",
          "name": "fee",
          "type": "uint256"
        }
      ],
      "name": "BorrowAtMaturity",
      "type": "event"
    },
    {
      "anonymous": false,
      "inputs": [
        {
          "indexed": false,
          "internalType": "uint256",
          "name": "dampSpeedUp",
          "type": "uint256"
        },
        {
          "indexed": false,
          "internalType": "uint256",
          "name": "dampSpeedDown",
          "type": "uint256"
        }
      ],
      "name": "DampSpeedSet",
      "type": "event"
    },
    {
      "anonymous": false,
      "inputs": [
        {
          "indexed": true,
          "internalType": "address",
          "name": "caller",
          "type": "address"
        },
        {
          "indexed": true,
          "internalType": "address",
          "name": "owner",
          "type": "address"
        },
        {
          "indexed": false,
          "internalType": "uint256",
          "name": "assets",
          "type": "uint256"
        },
        {
          "indexed": false,
          "internalType": "uint256",
          "name": "shares",
          "type": "uint256"
        }
      ],
      "name": "Deposit",
      "type": "event"
    },
    {
      "anonymous": false,
      "inputs": [
        {
          "indexed": true,
          "internalType": "uint256",
          "name": "maturity",
          "type": "uint256"
        },
        {
          "indexed": true,
          "internalType": "address",
          "name": "caller",
          "type": "address"
        },
        {
          "indexed": true,
          "internalType": "address",
          "name": "owner",
          "type": "address"
        },
        {
          "indexed": false,
          "internalType": "uint256",
          "name": "assets",
          "type": "uint256"
        },
        {
          "indexed": false,
          "internalType": "uint256",
          "name": "fee",
          "type": "uint256"
        }
      ],
      "name": "DepositAtMaturity",
      "type": "event"
    },
    {
      "anonymous": false,
      "inputs": [
        {
          "indexed": false,
          "internalType": "uint256",
          "name": "earningsAccumulatorSmoothFactor",
          "type": "uint256"
        }
      ],
      "name": "EarningsAccumulatorSmoothFactorSet",
      "type": "event"
    },
    {
      "anonymous": false,
      "inputs": [
        {
          "indexed": false,
          "internalType": "uint256",
          "name": "timestamp",
          "type": "uint256"
        },
        {
          "indexed": true,
          "internalType": "uint256",
          "name": "maturity",
          "type": "uint256"
        },
        {
          "indexed": false,
          "internalType": "uint256",
          "name": "unassignedEarnings",
          "type": "uint256"
        }
      ],
      "name": "FixedEarningsUpdate",
      "type": "event"
    },
    {
      "anonymous": false,
      "inputs": [
        {
          "indexed": false,
          "internalType": "uint256",
          "name": "timestamp",
          "type": "uint256"
        },
        {
          "indexed": false,
          "internalType": "uint256",
          "name": "utilization",
          "type": "uint256"
        }
      ],
      "name": "FloatingDebtUpdate",
      "type": "event"
    },
    {
      "anonymous": false,
      "inputs": [
        {
          "indexed": true,
          "internalType": "address",
          "name": "account",
          "type": "address"
        },
        {
          "indexed": false,
          "internalType": "bool",
          "name": "isFrozen",
          "type": "bool"
        }
      ],
      "name": "Frozen",
      "type": "event"
    },
    {
      "anonymous": false,
      "inputs": [
        {
          "indexed": false,
          "internalType": "uint8",
          "name": "version",
          "type": "uint8"
        }
      ],
      "name": "Initialized",
      "type": "event"
    },
    {
      "anonymous": false,
      "inputs": [
        {
          "indexed": true,
          "internalType": "contract InterestRateModel",
          "name": "interestRateModel",
          "type": "address"
        }
      ],
      "name": "InterestRateModelSet",
      "type": "event"
    },
    {
      "anonymous": false,
      "inputs": [
        {
          "indexed": true,
          "internalType": "address",
          "name": "receiver",
          "type": "address"
        },
        {
          "indexed": true,
          "internalType": "address",
          "name": "borrower",
          "type": "address"
        },
        {
          "indexed": false,
          "internalType": "uint256",
          "name": "assets",
          "type": "uint256"
        },
        {
          "indexed": false,
          "internalType": "uint256",
          "name": "lendersAssets",
          "type": "uint256"
        },
        {
          "indexed": true,
          "internalType": "contract Market",
          "name": "seizeMarket",
          "type": "address"
        },
        {
          "indexed": false,
          "internalType": "uint256",
          "name": "seizedAssets",
          "type": "uint256"
        }
      ],
      "name": "Liquidate",
      "type": "event"
    },
    {
      "anonymous": false,
      "inputs": [
        {
          "indexed": true,
          "internalType": "address",
          "name": "account",
          "type": "address"
        },
        {
          "indexed": false,
          "internalType": "uint256",
          "name": "assets",
          "type": "uint256"
        }
      ],
      "name": "Locked",
      "type": "event"
    },
    {
      "anonymous": false,
      "inputs": [
        {
          "indexed": false,
          "internalType": "uint256",
          "name": "timestamp",
          "type": "uint256"
        },
        {
          "indexed": false,
          "internalType": "uint256",
          "name": "floatingDepositShares",
          "type": "uint256"
        },
        {
          "indexed": false,
          "internalType": "uint256",
          "name": "floatingAssets",
          "type": "uint256"
        },
        {
          "indexed": false,
          "internalType": "uint256",
          "name": "floatingBorrowShares",
          "type": "uint256"
        },
        {
          "indexed": false,
          "internalType": "uint256",
          "name": "floatingDebt",
          "type": "uint256"
        },
        {
          "indexed": false,
          "internalType": "uint256",
          "name": "earningsAccumulator",
          "type": "uint256"
        }
      ],
      "name": "MarketUpdate",
      "type": "event"
    },
    {
      "anonymous": false,
      "inputs": [
        {
          "indexed": false,
          "internalType": "uint256",
          "name": "maxFuturePools",
          "type": "uint256"
        }
      ],
      "name": "MaxFuturePoolsSet",
      "type": "event"
    },
    {
      "anonymous": false,
      "inputs": [
        {
          "indexed": false,
          "internalType": "address",
          "name": "account",
          "type": "address"
        }
      ],
      "name": "Paused",
      "type": "event"
    },
    {
      "anonymous": false,
      "inputs": [
        {
          "indexed": false,
          "internalType": "uint256",
          "name": "penaltyRate",
          "type": "uint256"
        }
      ],
      "name": "PenaltyRateSet",
      "type": "event"
    },
    {
      "anonymous": false,
      "inputs": [
        {
          "indexed": true,
          "internalType": "address",
          "name": "caller",
          "type": "address"
        },
        {
          "indexed": true,
          "internalType": "address",
          "name": "borrower",
          "type": "address"
        },
        {
          "indexed": false,
          "internalType": "uint256",
          "name": "assets",
          "type": "uint256"
        },
        {
          "indexed": false,
          "internalType": "uint256",
          "name": "shares",
          "type": "uint256"
        }
      ],
      "name": "Repay",
      "type": "event"
    },
    {
      "anonymous": false,
      "inputs": [
        {
          "indexed": true,
          "internalType": "uint256",
          "name": "maturity",
          "type": "uint256"
        },
        {
          "indexed": true,
          "internalType": "address",
          "name": "caller",
          "type": "address"
        },
        {
          "indexed": true,
          "internalType": "address",
          "name": "borrower",
          "type": "address"
        },
        {
          "indexed": false,
          "internalType": "uint256",
          "name": "assets",
          "type": "uint256"
        },
        {
          "indexed": false,
          "internalType": "uint256",
          "name": "positionAssets",
          "type": "uint256"
        }
      ],
      "name": "RepayAtMaturity",
      "type": "event"
    },
    {
      "anonymous": false,
      "inputs": [
        {
          "indexed": false,
          "internalType": "uint256",
          "name": "reserveFactor",
          "type": "uint256"
        }
      ],
      "name": "ReserveFactorSet",
      "type": "event"
    },
    {
      "anonymous": false,
      "inputs": [
        {
          "indexed": true,
          "internalType": "contract RewardsController",
          "name": "rewardsController",
          "type": "address"
        }
      ],
      "name": "RewardsControllerSet",
      "type": "event"
    },
    {
      "anonymous": false,
      "inputs": [
        {
          "indexed": true,
          "internalType": "bytes32",
          "name": "role",
          "type": "bytes32"
        },
        {
          "indexed": true,
          "internalType": "bytes32",
          "name": "previousAdminRole",
          "type": "bytes32"
        },
        {
          "indexed": true,
          "internalType": "bytes32",
          "name": "newAdminRole",
          "type": "bytes32"
        }
      ],
      "name": "RoleAdminChanged",
      "type": "event"
    },
    {
      "anonymous": false,
      "inputs": [
        {
          "indexed": true,
          "internalType": "bytes32",
          "name": "role",
          "type": "bytes32"
        },
        {
          "indexed": true,
          "internalType": "address",
          "name": "account",
          "type": "address"
        },
        {
          "indexed": true,
          "internalType": "address",
          "name": "sender",
          "type": "address"
        }
      ],
      "name": "RoleGranted",
      "type": "event"
    },
    {
      "anonymous": false,
      "inputs": [
        {
          "indexed": true,
          "internalType": "bytes32",
          "name": "role",
          "type": "bytes32"
        },
        {
          "indexed": true,
          "internalType": "address",
          "name": "account",
          "type": "address"
        },
        {
          "indexed": true,
          "internalType": "address",
          "name": "sender",
          "type": "address"
        }
      ],
      "name": "RoleRevoked",
      "type": "event"
    },
    {
      "anonymous": false,
      "inputs": [
        {
          "indexed": true,
          "internalType": "address",
          "name": "liquidator",
          "type": "address"
        },
        {
          "indexed": true,
          "internalType": "address",
          "name": "borrower",
          "type": "address"
        },
        {
          "indexed": false,
          "internalType": "uint256",
          "name": "assets",
          "type": "uint256"
        }
      ],
      "name": "Seize",
      "type": "event"
    },
    {
      "anonymous": false,
      "inputs": [
        {
          "indexed": true,
          "internalType": "address",
          "name": "borrower",
          "type": "address"
        },
        {
          "indexed": false,
          "internalType": "uint256",
          "name": "assets",
          "type": "uint256"
        }
      ],
      "name": "SpreadBadDebt",
      "type": "event"
    },
    {
      "anonymous": false,
      "inputs": [
        {
          "indexed": true,
          "internalType": "address",
          "name": "from",
          "type": "address"
        },
        {
          "indexed": true,
          "internalType": "address",
          "name": "to",
          "type": "address"
        },
        {
          "indexed": false,
          "internalType": "uint256",
          "name": "amount",
          "type": "uint256"
        }
      ],
      "name": "Transfer",
      "type": "event"
    },
    {
      "anonymous": false,
      "inputs": [
        {
          "indexed": true,
          "internalType": "address",
          "name": "treasury",
          "type": "address"
        },
        {
          "indexed": false,
          "internalType": "uint256",
          "name": "treasuryFeeRate",
          "type": "uint256"
        }
      ],
      "name": "TreasurySet",
      "type": "event"
    },
    {
      "anonymous": false,
      "inputs": [
        {
          "indexed": true,
          "internalType": "address",
          "name": "account",
          "type": "address"
        },
        {
          "indexed": false,
          "internalType": "uint256",
          "name": "assets",
          "type": "uint256"
        }
      ],
      "name": "Unlocked",
      "type": "event"
    },
    {
      "anonymous": false,
      "inputs": [
        {
          "indexed": false,
          "internalType": "address",
          "name": "account",
          "type": "address"
        }
      ],
      "name": "Unpaused",
      "type": "event"
    },
    {
      "anonymous": false,
      "inputs": [
        {
          "indexed": true,
          "internalType": "address",
          "name": "caller",
          "type": "address"
        },
        {
          "indexed": true,
          "internalType": "address",
          "name": "receiver",
          "type": "address"
        },
        {
          "indexed": true,
          "internalType": "address",
          "name": "owner",
          "type": "address"
        },
        {
          "indexed": false,
          "internalType": "uint256",
          "name": "assets",
          "type": "uint256"
        },
        {
          "indexed": false,
          "internalType": "uint256",
          "name": "shares",
          "type": "uint256"
        }
      ],
      "name": "Withdraw",
      "type": "event"
    },
    {
      "anonymous": false,
      "inputs": [
        {
          "indexed": true,
          "internalType": "uint256",
          "name": "maturity",
          "type": "uint256"
        },
        {
          "indexed": false,
          "internalType": "address",
          "name": "caller",
          "type": "address"
        },
        {
          "indexed": true,
          "internalType": "address",
          "name": "receiver",
          "type": "address"
        },
        {
          "indexed": true,
          "internalType": "address",
          "name": "owner",
          "type": "address"
        },
        {
          "indexed": false,
          "internalType": "uint256",
          "name": "positionAssets",
          "type": "uint256"
        },
        {
          "indexed": false,
          "internalType": "uint256",
          "name": "assets",
          "type": "uint256"
        }
      ],
      "name": "WithdrawAtMaturity",
      "type": "event"
    },
    {
      "inputs": [],
      "name": "DEFAULT_ADMIN_ROLE",
      "outputs": [
        {
          "internalType": "bytes32",
          "name": "",
          "type": "bytes32"
        }
      ],
      "stateMutability": "view",
      "type": "function"
    },
    {
      "inputs": [],
      "name": "DOMAIN_SEPARATOR",
      "outputs": [
        {
          "internalType": "bytes32",
          "name": "",
          "type": "bytes32"
        }
      ],
      "stateMutability": "view",
      "type": "function"
    },
    {
      "inputs": [
        {
          "internalType": "address",
          "name": "account",
          "type": "address"
        }
      ],
      "name": "accountSnapshot",
      "outputs": [
        {
          "internalType": "uint256",
          "name": "",
          "type": "uint256"
        },
        {
          "internalType": "uint256",
          "name": "",
          "type": "uint256"
        }
      ],
      "stateMutability": "view",
      "type": "function"
    },
    {
      "inputs": [
        {
          "internalType": "address",
          "name": "",
          "type": "address"
        }
      ],
      "name": "accounts",
      "outputs": [
        {
          "internalType": "uint256",
          "name": "fixedDeposits",
          "type": "uint256"
        },
        {
          "internalType": "uint256",
          "name": "fixedBorrows",
          "type": "uint256"
        },
        {
          "internalType": "uint256",
          "name": "floatingBorrowShares",
          "type": "uint256"
        }
      ],
      "stateMutability": "view",
      "type": "function"
    },
    {
      "inputs": [
        {
          "internalType": "address",
          "name": "",
          "type": "address"
        },
        {
          "internalType": "address",
          "name": "",
          "type": "address"
        }
      ],
      "name": "allowance",
      "outputs": [
        {
          "internalType": "uint256",
          "name": "",
          "type": "uint256"
        }
      ],
      "stateMutability": "view",
      "type": "function"
    },
    {
      "inputs": [
        {
          "internalType": "address",
          "name": "spender",
          "type": "address"
        },
        {
          "internalType": "uint256",
          "name": "amount",
          "type": "uint256"
        }
      ],
      "name": "approve",
      "outputs": [
        {
          "internalType": "bool",
          "name": "",
          "type": "bool"
        }
      ],
      "stateMutability": "nonpayable",
      "type": "function"
    },
    {
      "inputs": [],
      "name": "asset",
      "outputs": [
        {
          "internalType": "contract ERC20",
          "name": "",
          "type": "address"
        }
      ],
      "stateMutability": "view",
      "type": "function"
    },
    {
      "inputs": [],
      "name": "auditor",
      "outputs": [
        {
          "internalType": "contract Auditor",
          "name": "",
          "type": "address"
        }
      ],
      "stateMutability": "view",
      "type": "function"
    },
    {
      "inputs": [],
      "name": "backupFeeRate",
      "outputs": [
        {
          "internalType": "uint256",
          "name": "",
          "type": "uint256"
        }
      ],
      "stateMutability": "view",
      "type": "function"
    },
    {
      "inputs": [
        {
          "internalType": "address",
          "name": "",
          "type": "address"
        }
      ],
      "name": "balanceOf",
      "outputs": [
        {
          "internalType": "uint256",
          "name": "",
          "type": "uint256"
        }
      ],
      "stateMutability": "view",
      "type": "function"
    },
    {
      "inputs": [
        {
          "internalType": "uint256",
          "name": "assets",
          "type": "uint256"
        },
        {
          "internalType": "address",
          "name": "receiver",
          "type": "address"
        },
        {
          "internalType": "address",
          "name": "borrower",
          "type": "address"
        }
      ],
      "name": "borrow",
      "outputs": [
        {
          "internalType": "uint256",
          "name": "borrowShares",
          "type": "uint256"
        }
      ],
      "stateMutability": "nonpayable",
      "type": "function"
    },
    {
      "inputs": [
        {
          "internalType": "uint256",
          "name": "maturity",
          "type": "uint256"
        },
        {
          "internalType": "uint256",
          "name": "assets",
          "type": "uint256"
        },
        {
          "internalType": "uint256",
          "name": "maxAssets",
          "type": "uint256"
        },
        {
          "internalType": "address",
          "name": "receiver",
          "type": "address"
        },
        {
          "internalType": "address",
          "name": "borrower",
          "type": "address"
        }
      ],
      "name": "borrowAtMaturity",
      "outputs": [
        {
          "internalType": "uint256",
          "name": "assetsOwed",
          "type": "uint256"
        }
      ],
      "stateMutability": "nonpayable",
      "type": "function"
    },
    {
      "inputs": [
        {
          "internalType": "address",
          "name": "borrower",
          "type": "address"
        }
      ],
      "name": "clearBadDebt",
      "outputs": [],
      "stateMutability": "nonpayable",
      "type": "function"
    },
    {
      "inputs": [
        {
          "internalType": "uint256",
          "name": "shares",
          "type": "uint256"
        }
      ],
      "name": "convertToAssets",
      "outputs": [
        {
          "internalType": "uint256",
          "name": "",
          "type": "uint256"
        }
      ],
      "stateMutability": "view",
      "type": "function"
    },
    {
      "inputs": [
        {
          "internalType": "uint256",
          "name": "assets",
          "type": "uint256"
        }
      ],
      "name": "convertToShares",
      "outputs": [
        {
          "internalType": "uint256",
          "name": "",
          "type": "uint256"
        }
      ],
      "stateMutability": "view",
      "type": "function"
    },
    {
      "inputs": [],
      "name": "dampSpeedDown",
      "outputs": [
        {
          "internalType": "uint256",
          "name": "",
          "type": "uint256"
        }
      ],
      "stateMutability": "view",
      "type": "function"
    },
    {
      "inputs": [],
      "name": "dampSpeedUp",
      "outputs": [
        {
          "internalType": "uint256",
          "name": "",
          "type": "uint256"
        }
      ],
      "stateMutability": "view",
      "type": "function"
    },
    {
      "inputs": [],
      "name": "decimals",
      "outputs": [
        {
          "internalType": "uint8",
          "name": "",
          "type": "uint8"
        }
      ],
      "stateMutability": "view",
      "type": "function"
    },
    {
      "inputs": [
        {
          "internalType": "uint256",
          "name": "assets",
          "type": "uint256"
        },
        {
          "internalType": "address",
          "name": "receiver",
          "type": "address"
        }
      ],
      "name": "deposit",
      "outputs": [
        {
          "internalType": "uint256",
          "name": "shares",
          "type": "uint256"
        }
      ],
      "stateMutability": "nonpayable",
      "type": "function"
    },
    {
      "inputs": [
        {
          "internalType": "uint256",
          "name": "maturity",
          "type": "uint256"
        },
        {
          "internalType": "uint256",
          "name": "assets",
          "type": "uint256"
        },
        {
          "internalType": "uint256",
          "name": "minAssetsRequired",
          "type": "uint256"
        },
        {
          "internalType": "address",
          "name": "receiver",
          "type": "address"
        }
      ],
      "name": "depositAtMaturity",
      "outputs": [
        {
          "internalType": "uint256",
          "name": "",
          "type": "uint256"
        }
      ],
      "stateMutability": "nonpayable",
      "type": "function"
    },
    {
      "inputs": [],
      "name": "earningsAccumulator",
      "outputs": [
        {
          "internalType": "uint256",
          "name": "",
          "type": "uint256"
        }
      ],
      "stateMutability": "view",
      "type": "function"
    },
    {
      "inputs": [],
      "name": "earningsAccumulatorSmoothFactor",
      "outputs": [
        {
          "internalType": "uint128",
          "name": "",
          "type": "uint128"
        }
      ],
      "stateMutability": "view",
      "type": "function"
    },
    {
      "inputs": [
        {
          "internalType": "uint256",
          "name": "",
          "type": "uint256"
        },
        {
          "internalType": "address",
          "name": "",
          "type": "address"
        }
      ],
      "name": "fixedBorrowPositions",
      "outputs": [
        {
          "internalType": "uint256",
          "name": "principal",
          "type": "uint256"
        },
        {
          "internalType": "uint256",
          "name": "fee",
          "type": "uint256"
        }
      ],
      "stateMutability": "view",
      "type": "function"
    },
    {
      "inputs": [
        {
          "internalType": "address",
          "name": "account",
          "type": "address"
        }
      ],
      "name": "fixedConsolidated",
      "outputs": [
        {
          "internalType": "uint256",
          "name": "deposits",
          "type": "uint256"
        },
        {
          "internalType": "uint256",
          "name": "borrows",
          "type": "uint256"
        }
      ],
      "stateMutability": "view",
      "type": "function"
    },
    {
      "inputs": [
        {
          "internalType": "uint256",
          "name": "",
          "type": "uint256"
        },
        {
          "internalType": "address",
          "name": "",
          "type": "address"
        }
      ],
      "name": "fixedDepositPositions",
      "outputs": [
        {
          "internalType": "uint256",
          "name": "principal",
          "type": "uint256"
        },
        {
          "internalType": "uint256",
          "name": "fee",
          "type": "uint256"
        }
      ],
      "stateMutability": "view",
      "type": "function"
    },
    {
      "inputs": [],
      "name": "fixedOps",
      "outputs": [
        {
          "internalType": "uint256",
          "name": "deposits",
          "type": "uint256"
        },
        {
          "internalType": "uint256",
          "name": "borrows",
          "type": "uint256"
        }
      ],
      "stateMutability": "view",
      "type": "function"
    },
    {
      "inputs": [
        {
          "internalType": "uint256",
          "name": "maturity",
          "type": "uint256"
        }
      ],
      "name": "fixedPoolBalance",
      "outputs": [
        {
          "internalType": "uint256",
          "name": "",
          "type": "uint256"
        },
        {
          "internalType": "uint256",
          "name": "",
          "type": "uint256"
        }
      ],
      "stateMutability": "view",
      "type": "function"
    },
    {
      "inputs": [
        {
          "internalType": "uint256",
          "name": "maturity",
          "type": "uint256"
        }
      ],
      "name": "fixedPoolBorrowed",
      "outputs": [
        {
          "internalType": "uint256",
          "name": "",
          "type": "uint256"
        }
      ],
      "stateMutability": "view",
      "type": "function"
    },
    {
      "inputs": [
        {
          "internalType": "uint256",
          "name": "",
          "type": "uint256"
        }
      ],
      "name": "fixedPools",
      "outputs": [
        {
          "internalType": "uint256",
          "name": "borrowed",
          "type": "uint256"
        },
        {
          "internalType": "uint256",
          "name": "supplied",
          "type": "uint256"
        },
        {
          "internalType": "uint256",
          "name": "unassignedEarnings",
          "type": "uint256"
        },
        {
          "internalType": "uint256",
          "name": "lastAccrual",
          "type": "uint256"
        }
      ],
      "stateMutability": "view",
      "type": "function"
    },
    {
      "inputs": [],
      "name": "floatingAssets",
      "outputs": [
        {
          "internalType": "uint256",
          "name": "",
          "type": "uint256"
        }
      ],
      "stateMutability": "view",
      "type": "function"
    },
    {
      "inputs": [],
      "name": "floatingAssetsAverage",
      "outputs": [
        {
          "internalType": "uint256",
          "name": "",
          "type": "uint256"
        }
      ],
      "stateMutability": "view",
      "type": "function"
    },
    {
      "inputs": [],
      "name": "floatingBackupBorrowed",
      "outputs": [
        {
          "internalType": "uint256",
          "name": "",
          "type": "uint256"
        }
      ],
      "stateMutability": "view",
      "type": "function"
    },
    {
      "inputs": [],
      "name": "floatingDebt",
      "outputs": [
        {
          "internalType": "uint256",
          "name": "",
          "type": "uint256"
        }
      ],
      "stateMutability": "view",
      "type": "function"
    },
    {
      "inputs": [
        {
          "internalType": "bytes32",
          "name": "role",
          "type": "bytes32"
        }
      ],
      "name": "getRoleAdmin",
      "outputs": [
        {
          "internalType": "bytes32",
          "name": "",
          "type": "bytes32"
        }
      ],
      "stateMutability": "view",
      "type": "function"
    },
    {
      "inputs": [
        {
          "internalType": "bytes32",
          "name": "role",
          "type": "bytes32"
        },
        {
          "internalType": "address",
          "name": "account",
          "type": "address"
        }
      ],
      "name": "grantRole",
      "outputs": [],
      "stateMutability": "nonpayable",
      "type": "function"
    },
    {
      "inputs": [
        {
          "internalType": "bytes32",
          "name": "role",
          "type": "bytes32"
        },
        {
          "internalType": "address",
          "name": "account",
          "type": "address"
        }
      ],
      "name": "hasRole",
      "outputs": [
        {
          "internalType": "bool",
          "name": "",
          "type": "bool"
        }
      ],
      "stateMutability": "view",
      "type": "function"
    },
    {
      "inputs": [
        {
          "internalType": "string",
          "name": "assetSymbol",
          "type": "string"
        },
        {
          "internalType": "uint8",
          "name": "maxFuturePools_",
          "type": "uint8"
        },
        {
          "internalType": "uint128",
          "name": "earningsAccumulatorSmoothFactor_",
          "type": "uint128"
        },
        {
          "internalType": "contract InterestRateModel",
          "name": "interestRateModel_",
          "type": "address"
        },
        {
          "internalType": "uint256",
          "name": "penaltyRate_",
          "type": "uint256"
        },
        {
          "internalType": "uint256",
          "name": "backupFeeRate_",
          "type": "uint256"
        },
        {
          "internalType": "uint128",
          "name": "reserveFactor_",
          "type": "uint128"
        },
        {
          "internalType": "uint256",
          "name": "dampSpeedUp_",
          "type": "uint256"
        },
        {
          "internalType": "uint256",
          "name": "dampSpeedDown_",
          "type": "uint256"
        }
      ],
      "name": "initialize",
      "outputs": [],
      "stateMutability": "nonpayable",
      "type": "function"
    },
    {
      "inputs": [],
      "name": "interestRateModel",
      "outputs": [
        {
          "internalType": "contract InterestRateModel",
          "name": "",
          "type": "address"
        }
      ],
      "stateMutability": "view",
      "type": "function"
    },
    {
      "inputs": [],
      "name": "isFrozen",
      "outputs": [
        {
          "internalType": "bool",
          "name": "",
          "type": "bool"
        }
      ],
      "stateMutability": "view",
      "type": "function"
    },
    {
      "inputs": [],
      "name": "lastAccumulatorAccrual",
      "outputs": [
        {
          "internalType": "uint32",
          "name": "",
          "type": "uint32"
        }
      ],
      "stateMutability": "view",
      "type": "function"
    },
    {
      "inputs": [],
      "name": "lastAverageUpdate",
      "outputs": [
        {
          "internalType": "uint32",
          "name": "",
          "type": "uint32"
        }
      ],
      "stateMutability": "view",
      "type": "function"
    },
    {
      "inputs": [],
      "name": "lastFloatingDebtUpdate",
      "outputs": [
        {
          "internalType": "uint32",
          "name": "",
          "type": "uint32"
        }
      ],
      "stateMutability": "view",
      "type": "function"
    },
    {
      "inputs": [
        {
          "internalType": "address",
          "name": "borrower",
          "type": "address"
        },
        {
          "internalType": "uint256",
          "name": "maxAssets",
          "type": "uint256"
        },
        {
          "internalType": "contract Market",
          "name": "seizeMarket",
          "type": "address"
        }
      ],
      "name": "liquidate",
      "outputs": [
        {
          "internalType": "uint256",
          "name": "repaidAssets",
          "type": "uint256"
        }
      ],
      "stateMutability": "nonpayable",
      "type": "function"
    },
    {
      "inputs": [
        {
          "internalType": "address",
          "name": "account",
          "type": "address"
        }
      ],
      "name": "lock",
      "outputs": [],
      "stateMutability": "nonpayable",
      "type": "function"
    },
    {
      "inputs": [
        {
          "internalType": "address",
          "name": "account",
          "type": "address"
        }
      ],
      "name": "lockedAssets",
      "outputs": [
        {
          "internalType": "uint256",
          "name": "assets",
          "type": "uint256"
        }
      ],
      "stateMutability": "view",
      "type": "function"
    },
    {
      "inputs": [
        {
          "internalType": "address",
          "name": "",
          "type": "address"
        }
      ],
      "name": "maxDeposit",
      "outputs": [
        {
          "internalType": "uint256",
          "name": "",
          "type": "uint256"
        }
      ],
      "stateMutability": "view",
      "type": "function"
    },
    {
      "inputs": [],
      "name": "maxFuturePools",
      "outputs": [
        {
          "internalType": "uint8",
          "name": "",
          "type": "uint8"
        }
      ],
      "stateMutability": "view",
      "type": "function"
    },
    {
      "inputs": [
        {
          "internalType": "address",
          "name": "",
          "type": "address"
        }
      ],
      "name": "maxMint",
      "outputs": [
        {
          "internalType": "uint256",
          "name": "",
          "type": "uint256"
        }
      ],
      "stateMutability": "view",
      "type": "function"
    },
    {
      "inputs": [
        {
          "internalType": "address",
          "name": "owner",
          "type": "address"
        }
      ],
      "name": "maxRedeem",
      "outputs": [
        {
          "internalType": "uint256",
          "name": "",
          "type": "uint256"
        }
      ],
      "stateMutability": "view",
      "type": "function"
    },
    {
      "inputs": [
        {
          "internalType": "address",
          "name": "owner",
          "type": "address"
        }
      ],
      "name": "maxWithdraw",
      "outputs": [
        {
          "internalType": "uint256",
          "name": "",
          "type": "uint256"
        }
      ],
      "stateMutability": "view",
      "type": "function"
    },
    {
      "inputs": [
        {
          "internalType": "uint256",
          "name": "shares",
          "type": "uint256"
        },
        {
          "internalType": "address",
          "name": "receiver",
          "type": "address"
        }
      ],
      "name": "mint",
      "outputs": [
        {
          "internalType": "uint256",
          "name": "assets",
          "type": "uint256"
        }
      ],
      "stateMutability": "nonpayable",
      "type": "function"
    },
    {
      "inputs": [],
      "name": "name",
      "outputs": [
        {
          "internalType": "string",
          "name": "",
          "type": "string"
        }
      ],
      "stateMutability": "view",
      "type": "function"
    },
    {
      "inputs": [
        {
          "internalType": "address",
          "name": "",
          "type": "address"
        }
      ],
      "name": "nonces",
      "outputs": [
        {
          "internalType": "uint256",
          "name": "",
          "type": "uint256"
        }
      ],
      "stateMutability": "view",
      "type": "function"
    },
    {
      "inputs": [],
      "name": "pause",
      "outputs": [],
      "stateMutability": "nonpayable",
      "type": "function"
    },
    {
      "inputs": [],
      "name": "paused",
      "outputs": [
        {
          "internalType": "bool",
          "name": "",
          "type": "bool"
        }
      ],
      "stateMutability": "view",
      "type": "function"
    },
    {
      "inputs": [],
      "name": "penaltyRate",
      "outputs": [
        {
          "internalType": "uint256",
          "name": "",
          "type": "uint256"
        }
      ],
      "stateMutability": "view",
      "type": "function"
    },
    {
      "inputs": [
        {
          "internalType": "address",
          "name": "owner",
          "type": "address"
        },
        {
          "internalType": "address",
          "name": "spender",
          "type": "address"
        },
        {
          "internalType": "uint256",
          "name": "value",
          "type": "uint256"
        },
        {
          "internalType": "uint256",
          "name": "deadline",
          "type": "uint256"
        },
        {
          "internalType": "uint8",
          "name": "v",
          "type": "uint8"
        },
        {
          "internalType": "bytes32",
          "name": "r",
          "type": "bytes32"
        },
        {
          "internalType": "bytes32",
          "name": "s",
          "type": "bytes32"
        }
      ],
      "name": "permit",
      "outputs": [],
      "stateMutability": "nonpayable",
      "type": "function"
    },
    {
      "inputs": [
        {
          "internalType": "uint256",
          "name": "assets",
          "type": "uint256"
        }
      ],
      "name": "previewBorrow",
      "outputs": [
        {
          "internalType": "uint256",
          "name": "",
          "type": "uint256"
        }
      ],
      "stateMutability": "view",
      "type": "function"
    },
    {
      "inputs": [
        {
          "internalType": "address",
          "name": "borrower",
          "type": "address"
        }
      ],
      "name": "previewDebt",
      "outputs": [
        {
          "internalType": "uint256",
          "name": "debt",
          "type": "uint256"
        }
      ],
      "stateMutability": "view",
      "type": "function"
    },
    {
      "inputs": [
        {
          "internalType": "uint256",
          "name": "assets",
          "type": "uint256"
        }
      ],
      "name": "previewDeposit",
      "outputs": [
        {
          "internalType": "uint256",
          "name": "",
          "type": "uint256"
        }
      ],
      "stateMutability": "view",
      "type": "function"
    },
    {
      "inputs": [],
      "name": "previewFloatingAssetsAverage",
      "outputs": [
        {
          "internalType": "uint256",
          "name": "",
          "type": "uint256"
        }
      ],
      "stateMutability": "view",
      "type": "function"
    },
    {
      "inputs": [
        {
          "internalType": "uint256",
          "name": "shares",
          "type": "uint256"
        }
      ],
      "name": "previewMint",
      "outputs": [
        {
          "internalType": "uint256",
          "name": "",
          "type": "uint256"
        }
      ],
      "stateMutability": "view",
      "type": "function"
    },
    {
      "inputs": [
        {
          "internalType": "uint256",
          "name": "shares",
          "type": "uint256"
        }
      ],
      "name": "previewRedeem",
      "outputs": [
        {
          "internalType": "uint256",
          "name": "",
          "type": "uint256"
        }
      ],
      "stateMutability": "view",
      "type": "function"
    },
    {
      "inputs": [
        {
          "internalType": "uint256",
          "name": "shares",
          "type": "uint256"
        }
      ],
      "name": "previewRefund",
      "outputs": [
        {
          "internalType": "uint256",
          "name": "",
          "type": "uint256"
        }
      ],
      "stateMutability": "view",
      "type": "function"
    },
    {
      "inputs": [
        {
          "internalType": "uint256",
          "name": "assets",
          "type": "uint256"
        }
      ],
      "name": "previewRepay",
      "outputs": [
        {
          "internalType": "uint256",
          "name": "",
          "type": "uint256"
        }
      ],
      "stateMutability": "view",
      "type": "function"
    },
    {
      "inputs": [
        {
          "internalType": "uint256",
          "name": "assets",
          "type": "uint256"
        }
      ],
      "name": "previewWithdraw",
      "outputs": [
        {
          "internalType": "uint256",
          "name": "",
          "type": "uint256"
        }
      ],
      "stateMutability": "view",
      "type": "function"
    },
    {
      "inputs": [
        {
          "internalType": "uint256",
          "name": "shares",
          "type": "uint256"
        },
        {
          "internalType": "address",
          "name": "receiver",
          "type": "address"
        },
        {
          "internalType": "address",
          "name": "owner",
          "type": "address"
        }
      ],
      "name": "redeem",
      "outputs": [
        {
          "internalType": "uint256",
          "name": "assets",
          "type": "uint256"
        }
      ],
      "stateMutability": "nonpayable",
      "type": "function"
    },
    {
      "inputs": [
        {
          "internalType": "uint256",
          "name": "borrowShares",
          "type": "uint256"
        },
        {
          "internalType": "address",
          "name": "borrower",
          "type": "address"
        }
      ],
      "name": "refund",
      "outputs": [
        {
          "internalType": "uint256",
          "name": "assets",
          "type": "uint256"
        },
        {
          "internalType": "uint256",
          "name": "actualShares",
          "type": "uint256"
        }
      ],
      "stateMutability": "nonpayable",
      "type": "function"
    },
    {
      "inputs": [
        {
          "internalType": "bytes32",
          "name": "role",
          "type": "bytes32"
        },
        {
          "internalType": "address",
          "name": "account",
          "type": "address"
        }
      ],
      "name": "renounceRole",
      "outputs": [],
      "stateMutability": "nonpayable",
      "type": "function"
    },
    {
      "inputs": [
        {
          "internalType": "uint256",
          "name": "assets",
          "type": "uint256"
        },
        {
          "internalType": "address",
          "name": "borrower",
          "type": "address"
        }
      ],
      "name": "repay",
      "outputs": [
        {
          "internalType": "uint256",
          "name": "actualRepay",
          "type": "uint256"
        },
        {
          "internalType": "uint256",
          "name": "borrowShares",
          "type": "uint256"
        }
      ],
      "stateMutability": "nonpayable",
      "type": "function"
    },
    {
      "inputs": [
        {
          "internalType": "uint256",
          "name": "maturity",
          "type": "uint256"
        },
        {
          "internalType": "uint256",
          "name": "assets",
          "type": "uint256"
        },
        {
          "internalType": "uint256",
          "name": "maxAssets",
          "type": "uint256"
        },
        {
          "internalType": "address",
          "name": "borrower",
          "type": "address"
        }
      ],
      "name": "repayAtMaturity",
      "outputs": [
        {
          "internalType": "uint256",
          "name": "actualRepayAssets",
          "type": "uint256"
        }
      ],
      "stateMutability": "nonpayable",
      "type": "function"
    },
    {
      "inputs": [],
      "name": "reserveFactor",
      "outputs": [
        {
          "internalType": "uint128",
          "name": "",
          "type": "uint128"
        }
      ],
      "stateMutability": "view",
      "type": "function"
    },
    {
      "inputs": [
        {
          "internalType": "bytes32",
          "name": "role",
          "type": "bytes32"
        },
        {
          "internalType": "address",
          "name": "account",
          "type": "address"
        }
      ],
      "name": "revokeRole",
      "outputs": [],
      "stateMutability": "nonpayable",
      "type": "function"
    },
    {
      "inputs": [],
      "name": "rewardsController",
      "outputs": [
        {
          "internalType": "contract RewardsController",
          "name": "",
          "type": "address"
        }
      ],
      "stateMutability": "pure",
      "type": "function"
    },
    {
      "inputs": [
        {
          "internalType": "address",
          "name": "liquidator",
          "type": "address"
        },
        {
          "internalType": "address",
          "name": "borrower",
          "type": "address"
        },
        {
          "internalType": "uint256",
          "name": "assets",
          "type": "uint256"
        }
      ],
      "name": "seize",
      "outputs": [],
      "stateMutability": "nonpayable",
      "type": "function"
    },
    {
      "inputs": [
        {
          "internalType": "uint256",
          "name": "backupFeeRate_",
          "type": "uint256"
        }
      ],
      "name": "setBackupFeeRate",
      "outputs": [],
      "stateMutability": "nonpayable",
      "type": "function"
    },
    {
      "inputs": [
        {
          "internalType": "bool",
          "name": "isFrozen_",
          "type": "bool"
        }
      ],
      "name": "setFrozen",
      "outputs": [],
      "stateMutability": "nonpayable",
      "type": "function"
    },
    {
      "inputs": [
        {
          "internalType": "contract InterestRateModel",
          "name": "interestRateModel_",
          "type": "address"
        }
      ],
      "name": "setInterestRateModel",
      "outputs": [],
      "stateMutability": "nonpayable",
      "type": "function"
    },
    {
      "inputs": [
        {
          "internalType": "uint8",
          "name": "futurePools",
          "type": "uint8"
        }
      ],
      "name": "setMaxFuturePools",
      "outputs": [],
      "stateMutability": "nonpayable",
      "type": "function"
    },
    {
      "inputs": [
        {
          "internalType": "uint256",
          "name": "penaltyRate_",
          "type": "uint256"
        }
      ],
      "name": "setPenaltyRate",
      "outputs": [],
      "stateMutability": "nonpayable",
      "type": "function"
    },
    {
      "inputs": [
        {
          "internalType": "uint128",
          "name": "reserveFactor_",
          "type": "uint128"
        }
      ],
      "name": "setReserveFactor",
      "outputs": [],
      "stateMutability": "nonpayable",
      "type": "function"
    },
    {
      "inputs": [
        {
          "internalType": "address",
          "name": "treasury_",
          "type": "address"
        },
        {
          "internalType": "uint256",
          "name": "treasuryFeeRate_",
          "type": "uint256"
        }
      ],
      "name": "setTreasury",
      "outputs": [],
      "stateMutability": "nonpayable",
      "type": "function"
    },
    {
      "inputs": [
        {
          "internalType": "bytes4",
          "name": "interfaceId",
          "type": "bytes4"
        }
      ],
      "name": "supportsInterface",
      "outputs": [
        {
          "internalType": "bool",
          "name": "",
          "type": "bool"
        }
      ],
      "stateMutability": "view",
      "type": "function"
    },
    {
      "inputs": [],
      "name": "symbol",
      "outputs": [
        {
          "internalType": "string",
          "name": "",
          "type": "string"
        }
      ],
      "stateMutability": "view",
      "type": "function"
    },
    {
      "inputs": [],
      "name": "totalAssets",
      "outputs": [
        {
          "internalType": "uint256",
          "name": "",
          "type": "uint256"
        }
      ],
      "stateMutability": "view",
      "type": "function"
    },
    {
      "inputs": [],
      "name": "totalFloatingBorrowAssets",
      "outputs": [
        {
          "internalType": "uint256",
          "name": "",
          "type": "uint256"
        }
      ],
      "stateMutability": "view",
      "type": "function"
    },
    {
      "inputs": [],
      "name": "totalFloatingBorrowShares",
      "outputs": [
        {
          "internalType": "uint256",
          "name": "",
          "type": "uint256"
        }
      ],
      "stateMutability": "view",
      "type": "function"
    },
    {
      "inputs": [],
      "name": "totalSupply",
      "outputs": [
        {
          "internalType": "uint256",
          "name": "",
          "type": "uint256"
        }
      ],
      "stateMutability": "view",
      "type": "function"
    },
    {
      "inputs": [
        {
          "internalType": "address",
          "name": "to",
          "type": "address"
        },
        {
          "internalType": "uint256",
          "name": "shares",
          "type": "uint256"
        }
      ],
      "name": "transfer",
      "outputs": [
        {
          "internalType": "bool",
          "name": "",
          "type": "bool"
        }
      ],
      "stateMutability": "nonpayable",
      "type": "function"
    },
    {
      "inputs": [
        {
          "internalType": "address",
          "name": "from",
          "type": "address"
        },
        {
          "internalType": "address",
          "name": "to",
          "type": "address"
        },
        {
          "internalType": "uint256",
          "name": "shares",
          "type": "uint256"
        }
      ],
      "name": "transferFrom",
      "outputs": [
        {
          "internalType": "bool",
          "name": "",
          "type": "bool"
        }
      ],
      "stateMutability": "nonpayable",
      "type": "function"
    },
    {
      "inputs": [],
      "name": "treasury",
      "outputs": [
        {
          "internalType": "address",
          "name": "",
          "type": "address"
        }
      ],
      "stateMutability": "view",
      "type": "function"
    },
    {
      "inputs": [],
      "name": "treasuryFeeRate",
      "outputs": [
        {
          "internalType": "uint256",
          "name": "",
          "type": "uint256"
        }
      ],
      "stateMutability": "view",
      "type": "function"
    },
    {
      "inputs": [
        {
          "internalType": "address",
          "name": "account",
          "type": "address"
        }
      ],
      "name": "unlock",
      "outputs": [],
      "stateMutability": "nonpayable",
      "type": "function"
    },
    {
      "inputs": [],
      "name": "unpause",
      "outputs": [],
      "stateMutability": "nonpayable",
      "type": "function"
    },
    {
      "inputs": [
        {
          "internalType": "uint256",
          "name": "assets",
          "type": "uint256"
        },
        {
          "internalType": "address",
          "name": "receiver",
          "type": "address"
        },
        {
          "internalType": "address",
          "name": "owner",
          "type": "address"
        }
      ],
      "name": "withdraw",
      "outputs": [
        {
          "internalType": "uint256",
          "name": "shares",
          "type": "uint256"
        }
      ],
      "stateMutability": "nonpayable",
      "type": "function"
    },
    {
      "inputs": [
        {
          "internalType": "uint256",
          "name": "maturity",
          "type": "uint256"
        },
        {
          "internalType": "uint256",
          "name": "positionAssets",
          "type": "uint256"
        },
        {
          "internalType": "uint256",
          "name": "minAssetsRequired",
          "type": "uint256"
        },
        {
          "internalType": "address",
          "name": "receiver",
          "type": "address"
        },
        {
          "internalType": "address",
          "name": "owner",
          "type": "address"
        }
      ],
      "name": "withdrawAtMaturity",
      "outputs": [
        {
          "internalType": "uint256",
          "name": "assetsDiscounted",
          "type": "uint256"
        }
      ],
      "stateMutability": "nonpayable",
      "type": "function"
    }
  ],
  "transactionHash": "0x78bdb70e8160045fdea4c28ae60ebf9cd06820531768dc76bcddc29613ee5262",
  "args": [
    "0x3F2FF762e33bbA4c97df56BC180F8818bD11AbED",
    "0xcE8cAf2e6D0A6329818d262D1Eb81f8C8d3b7f51"
  ],
  "numDeployments": 1,
  "solcInputHash": "bae3ece9a4d9c70237ee3519beeaec1e",
  "bytecode": "0x610120604052348015610010575f80fd5b5060405161652a38038061652a83398101604081905261002f91610220565b81818160405180602001604052805f81525060405180602001604052805f8152508181846001600160a01b031663313ce5676040518163ffffffff1660e01b8152600401602060405180830381865afa15801561008e573d5f803e3d5ffd5b505050506040513d601f19601f820116820180604052508101906100b29190610258565b60c96100be8482610317565b5060ca6100cb8382610317565b5060ff81166080524660a0526100df61010c565b60c0525050506001600160a01b0392831660e05250508116610100526101036101a5565b50505050610442565b5f7f8b73c3c69bb8fe3d512ecc4cf759cc79239f7b179b0ffacaa9a75d522b39400f60c960405161013d91906103d1565b6040805191829003822060208301939093528101919091527fc89efdaa54c0f20c7adf612882df0950f5a951637e0307cdcb4c672f298b8bc660608201524660808201523060a082015260c00160405160208183030381529060405280519060200120905090565b5f54610100900460ff16156101b8575f80fd5b5f5460ff90811614610207575f805460ff191660ff9081179091556040519081527f7f26b83ff96e1f2b6a682f133852f6798a09c465da95921460cefb38474024989060200160405180910390a15b565b6001600160a01b038116811461021d575f80fd5b50565b5f8060408385031215610231575f80fd5b825161023c81610209565b602084015190925061024d81610209565b809150509250929050565b5f60208284031215610268575f80fd5b815160ff81168114610278575f80fd5b9392505050565b634e487b7160e01b5f52604160045260245ffd5b600181811c908216806102a757607f821691505b6020821081036102c557634e487b7160e01b5f52602260045260245ffd5b50919050565b601f82111561031257805f5260205f20601f840160051c810160208510156102f05750805b601f840160051c820191505b8181101561030f575f81556001016102fc565b50505b505050565b81516001600160401b038111156103305761033061027f565b6103448161033e8454610293565b846102cb565b6020601f821160018114610376575f831561035f5750848201515b5f19600385901b1c1916600184901b17845561030f565b5f84815260208120601f198516915b828110156103a55787850151825560209485019460019092019101610385565b50848210156103c257868401515f19600387901b60f8161c191681555b50505050600190811b01905550565b5f8083546103de81610293565b6001821680156103f5576001811461040a57610437565b60ff1983168652811515820286019350610437565b865f5260205f205f5b8381101561042f57815488820152600190910190602001610413565b505081860193505b509195945050505050565b60805160a05160c05160e05161010051615ffc61052e5f395f818161070a0152818161136b015281816119ca01528181611fae0152818161202b0152818161243b015281816131880152818161329a015281816133c10152818161393501528181613b6501528181613d3f015281816143c501526144a401525f81816106ba015281816113dc015281816124ac015281816136ee0152818161386501528181613c2701528181613dcf01528181613e73015281816141c301528181614393015281816145ba015281816146bd01526147cb01525f61172701525f6116f201525f6106510152615ffc5ff3fe608060405234801561000f575f80fd5b506004361061044d575f3560e01c806370a082311161023c57806370a08231146108c457806378007e23146108e35780637ad226dc146108f65780637e932d32146109095780637ecebe001461091c5780638456cb591461093b5780638a1baa46146109435780638bcd40161461094c5780638c3cba5a1461095f5780638d0e5f0214610968578063904876bd14610971578063910a8f1a1461097f57806391d14854146109a5578063926bb633146109b857806394bf804d146109cb57806395d89b41146109de57806397bce8d0146109e6578063a05a091a146109f9578063a16a885014610a0c578063a1bab44714610a21578063a1e8f02b14610a34578063a217fddf14610a3d578063a9059cbb14610a44578063acb7081514610a57578063b2a02ff114610a6a578063b3d7f6b914610a7d578063b460af9414610a90578063ba08765214610aa3578063bf722ca214610ab6578063c63d75b614610734578063c6e6f59214610ac9578063ccfd8b1114610adc578063ce96cb7714610b0d578063d2681a0b14610b20578063d505accf14610b51578063d516418414610b64578063d547741f14610b77578063d6b7494f14610b8a578063d905777e14610b93578063dd62ed3e14610bbb578063e00b262514610be5578063e94b3c2114610bf8578063eee8c9e014610c01578063ef8b30f714610c09578063f3fdb15a14610c1c578063f435f5a714610c2f578063fb0fc4c314610c42578063fea45d9414610c59575f80fd5b8063014a296f1461045157806301e1d1141461047b57806301ffc9a7146104915780630539fa8c146104b457806306fdde03146104bd57806307a2d13a146104d2578063095ea7b3146104e55780630a28a477146104f85780630ab69be81461050b5780630e52dbec146105325780630f2b75aa146105515780631721c5aa1461055957806318160ddd146105785780631a5b9e62146105815780631a90f186146105945780631d43b30b1461059d57806323b872dd146105b0578063248a9ca3146105c357806325fc07a9146105d657806328acf2cf146105f55780632c5dcc771461060a5780632e0af0081461061d5780632f2ff15d146106265780632f6c493c14610639578063313ce5671461064c57806333eeb1471461067357806334f7d1f2146106875780633644e5151461069a57806336568abe146106a257806338d52e0f146106b55780633aa18d6f146106e95780633c6f317f146106f25780633ec045a6146107055780633f4ba83a1461072c578063402d267d1461073457806342da42bf146107485780634322b7141461075b57806347dffde0146107825780634914c008146107955780634cdad506146107a85780634e7c5059146107bb5780635c975abb1461080f5780635e5c06e21461081a57806361d027b31461086357806366601032146108765780636bb65f531461087f5780636e553f65146108855780636eb9ffeb14610898575b5f80fd5b61046461045f3660046155ef565b610c6c565b60405161047292919061560a565b60405180910390f35b610483610ca1565b604051908152602001610472565b6104a461049f366004615618565b610d4d565b6040519015158152602001610472565b61048360d85481565b6104c5610d83565b604051610472919061563f565b6104836104e0366004615674565b610e0f565b6104a46104f336600461568b565b610e3b565b610483610506366004615674565b610e93565b610464610519366004615674565b5f90815260d16020526040902080546001909101549091565b60da5461053f9060ff1681565b60405160ff9091168152602001610472565b610483610eb2565b6104836105673660046155ef565b60e76020525f908152604090205481565b61048360cb5481565b61048361058f3660046156b5565b610f57565b61048360d45481565b6104836105ab3660046155ef565b611410565b6104a46105be366004615707565b611510565b6104836105d1366004615674565b61152d565b6104836105e4366004615674565b5f90815260d1602052604090205490565b61060861060336600461575a565b611541565b005b61060861061836600461568b565b611595565b61048360dd5481565b610608610634366004615773565b611606565b6106086106473660046155ef565b611627565b61053f7f000000000000000000000000000000000000000000000000000000000000000081565b60e3546104a490600160a01b900460ff1681565b6104836106953660046157a1565b6116c7565b6104836116ef565b6106086106b0366004615773565b611749565b6106dc7f000000000000000000000000000000000000000000000000000000000000000081565b60405161047291906157df565b61048360d95481565b6104836107003660046157a1565b61176b565b6106dc7f000000000000000000000000000000000000000000000000000000000000000081565b61060861178a565b6104836107423660046155ef565b505f1990565b610608610756366004615674565b6117ac565b60dc5461077590600160801b90046001600160801b031681565b60405161047291906157f3565b610483610790366004615674565b6117eb565b6104836107a3366004615807565b611809565b6104836107b6366004615674565b61181e565b6107ef6107c9366004615674565b60d16020525f908152604090208054600182015460028301546003909301549192909184565b604080519485526020850193909352918301526060820152608001610472565b60975460ff166104a4565b6108486108283660046155ef565b60d26020525f908152604090208054600182015460029092015490919083565b60408051938452602084019290925290820152606001610472565b60e1546106dc906001600160a01b031681565b61048360e25481565b5f6106dc565b610483610893366004615773565b611828565b60da546108af90600160281b900463ffffffff1681565b60405163ffffffff9091168152602001610472565b6104836108d23660046155ef565b60cc6020525f908152604090205481565b6104836108f1366004615674565b611845565b610464610904366004615773565b61185c565b610608610917366004615853565b611886565b61048361092a3660046155ef565b60ce6020525f908152604090205481565b610608611903565b61048360d55481565b61060861095a3660046155ef565b611915565b61048360d35481565b61048360df5481565b60e55460e654610464919082565b61046461098d3660046155ef565b60e46020525f90815260409020805460019091015482565b6104a46109b3366004615773565b611995565b6106086109c63660046155ef565b6119bf565b6104836109d9366004615773565b611cf9565b6104c5611d16565b6106086109f436600461588f565b611d23565b610483610a073660046156b5565b611ed9565b60da546108af90610100900463ffffffff1681565b610608610a2f366004615674565b611efa565b61048360d75481565b6104835f81565b6104a4610a5236600461568b565b611f39565b610464610a65366004615773565b611f4d565b610608610a78366004615707565b611f6b565b610483610a8b366004615674565b611f7f565b610483610a9e366004615963565b611f95565b610483610ab1366004615963565b612028565b610483610ac4366004615674565b6120b8565b610483610ad7366004615674565b6120d7565b610464610aea366004615773565b60cf60209081525f92835260408084209091529082529020805460019091015482565b610483610b1b3660046155ef565b6120ee565b610464610b2e366004615773565b60d060209081525f92835260408084209091529082529020805460019091015482565b610608610b5f366004615997565b61210f565b610483610b72366004615963565b6122c1565b610608610b85366004615773565b6124dd565b61048360d65481565b610483610ba13660046155ef565b6001600160a01b03165f90815260cc602052604090205490565b610483610bc9366004615a01565b60cd60209081525f928352604080842090915290825290205481565b610608610bf3366004615a2d565b6124f9565b61048360de5481565b61048361254d565b610483610c17366004615674565b612627565b60db546106dc906001600160a01b031681565b610608610c3d3660046155ef565b612631565b60da546108af90600160481b900463ffffffff1681565b60dc54610775906001600160801b031681565b6001600160a01b0381165f90815260cc60205260408120548190610c8f90610e0f565b610c9884611410565b91509150915091565b60da545f9081906224ea004281810690039160ff16028101815b818111610d13575f81815260d160205260409020600381015480831115610d0757824210610ced578160020154610d02565b6002820154610d0290428390038386036127ef565b860195505b50506224ea0001610cbb565b50610d3660e254670de0b6b3a76400000360d454610d2f61254d565b039061280d565b610d3e612821565b8460dd54010101935050505090565b5f6001600160e01b03198216637965db0b60e01b1480610d7d57506301ffc9a760e01b6001600160e01b03198316145b92915050565b60c98054610d9090615a5a565b80601f0160208091040260200160405190810160405280929190818152602001828054610dbc90615a5a565b8015610e075780601f10610dde57610100808354040283529160200191610e07565b820191905f5260205f20905b815481529060010190602001808311610dea57829003601f168201915b505050505081565b60cb545f908015610e3257610e2d610e25610ca1565b8490836127ef565b610e34565b825b9392505050565b335f81815260cd602090815260408083206001600160a01b038716808552925280832085905551919290915f80516020615f8783398151915290610e829086815260200190565b60405180910390a350600192915050565b60cb545f908015610e3257610e2d81610eaa610ca1565b859190612897565b60dd5460de545f919082818310610ecb5760d854610ecf565b60d9545b60da549091505f90610f0a90610ef290600160481b900463ffffffff1642615aa6565b610efc9084615ab9565b610f0590615ad0565b6128c4565b610f1c90670de0b6b3a7640000615aea565b9050610f28818561280d565b610f44610f3d83670de0b6b3a7640000615aa6565b859061280d565b610f4e9190615b09565b94505050505090565b5f610f60612a37565b610f68612a46565b845f03610f885760405163774257f760e01b815260040160405180910390fd5b60da54610f9c90879060ff1660035f612a71565b5f86815260d160205260409020610fb9610fb4612c04565b612d11565b610fc38188612d4e565b60dd5f828254610fd39190615b09565b90915550610fde9050565b5f610fe98288612dcc565b9050801561106d575f8160d3546110009190615b09565b60dc5490915061103e9061102c90600160801b90046001600160801b0316670de0b6b3a7640000615b1c565b60dd54906001600160801b031661280d565b60d45461104b9083615b09565b111561106957604051622d41ad60e31b815260040160405180910390fd5b60d3555b505f80611078610eb2565b60d45460db5460da546001870154875494955092935f936001600160a01b039093169263d9d9048d928f9260ff909116916110b39189612e08565b6110bd8888612e35565b6110ca898960d354612e4d565b6040518663ffffffff1660e01b81526004016110ea959493929190615b3b565b602060405180830381865afa158015611105573d5f803e3d5ffd5b505050506040513d601f19601f820116820180604052508101906111299190615b61565b905061114e61114761113b428e615aa6565b83906301e133806127ef565b8b90612e69565b9350505050808761115f9190615b09565b92508583111561118257604051632c1b6b4160e21b815260040160405180910390fd5b61118c8484612e7d565b5f88815260d0602090815260408083206001600160a01b0388168452909152812080549091036111e3576001600160a01b0385165f90815260d26020526040902060018101546111dc908b612ef3565b6001909101555b5f806112266111f185612fdc565b60408051608081018252885481526001890154602082015260028901549181019190915260038801546060820152908c613008565b91509150815f1461124a5781856002015f8282546112449190615b09565b90915550505b61125381613054565b60405180604001604052808b855f015461126d9190615b09565b81526020018585600101546112829190615b09565b90525f8c815260d0602090815260408083206001600160a01b038c1684528252808320845181559382015160019485015560e4909152812090910180548c95509093509091506112d3908490615b09565b909155505060e680548891905f906112ec908490615b09565b92505081905550836001600160a01b0316856001600160a01b0316897f66866b472f27d55d69496091bbd651907b2fb1041b3eeaca6e565ae5b5af4013338b8660405161133b93929190615b78565b60405180910390a461134b613080565b611354886130e6565b604051637b9d893160e01b81526001600160a01b037f00000000000000000000000000000000000000000000000000000000000000001690637b9d8931906113a29030908890600401615b99565b5f604051808303815f87803b1580156113b9575f80fd5b505af11580156113cb573d5f803e3d5ffd5b506114059250506001600160a01b037f00000000000000000000000000000000000000000000000000000000000000001690508689613135565b505095945050505050565b6001600160a01b0381165f90815260d260209081526040822060d6546001820154919290919081901c9063ffffffff165b81156114e55760018216156114ca575f81815260d0602090815260408083206001600160a01b038a1684529091528120600181015481549192916114859190615b09565b90506114918188615b09565b9650824211156114c7576114ba856114a98542615aa6565b6114b39190615ab9565b829061280d565b6114c49088615b09565b96505b50505b60019190911c906114de6224ea0082615b09565b9050611441565b60028401548015611506576114f9816117eb565b6115039087615b09565b95505b5050505050919050565b5f61151a83613186565b61152584848461328f565b949350505050565b5f9081526065602052604090206001015490565b5f61154b81613327565b60da805460ff191660ff84169081179091556040519081527f23c0170203096819aed8a13739fe91ce445ec92a7e2aa228081b5e45ee582c80906020015b60405180910390a15050565b5f61159f81613327565b6115aa610fb4612c04565b60e180546001600160a01b0319166001600160a01b03851690811790915560e28390556040518381527fd471a80a3a5fd21dfce2b1b7c88bbea4684ab90254a4e47345ac344d56678872906020015b60405180910390a2505050565b61160f8261152d565b61161881613327565b6116228383613331565b505050565b61162f6133b6565b6001600160a01b0381165f90815260e7602052604081205490819003611653575050565b6001600160a01b0382165f90815260e76020526040812081905561167682612627565b905061168283826133ff565b61168c8282613409565b826001600160a01b03167f0f0bc5b519ddefdd8e5f9e6423433aa2b869738de2ae34d58ebc796fc749fa0d836040516115f991815260200190565b5f6116d133613186565b6116da82613186565b6116e685858585613468565b95945050505050565b5f7f000000000000000000000000000000000000000000000000000000000000000046146117245761171f613723565b905090565b507f000000000000000000000000000000000000000000000000000000000000000090565b6001600160a01b038116331461175d575f80fd5b61176782826137bc565b5050565b5f61177533613186565b61177e82613186565b6116e685858585613822565b5f80516020615f478339815191526117a181613327565b6117a961388d565b50565b5f6117b681613327565b60d78290556040518281527f08b437f29bc93f50025290193a680338033c3fccb93cf0ef95788eba3f003e2690602001611589565b60df545f908015610e3257610e2d61180161254d565b849083612897565b5f61181333613186565b6115258484846138cf565b5f610d7d82610e0f565b5f61183282613186565b61183b33613186565b610e348383613dab565b60df545f908015610e3257610e2d81610eaa61254d565b5f8061186733613186565b61187083613186565b61187a8484613e45565b915091505b9250929050565b5f61189081613327565b60e35460ff600160a01b909104161515821515146117675760e38054831515600160a01b0260ff60a01b1990911617905560405133907f713eb400302cebac61f82eb8de5051d38458517ffac43ae45f4a9fd5d09ee698906118f790851515815260200190565b60405180910390a25050565b61190b613e9b565b611913613f04565b565b5f61191f81613327565b60db546001600160a01b03161561193b5761193b610fb4612c04565b60db80546001600160a01b0319166001600160a01b03841617905561195e613080565b6040516001600160a01b038316907f7902cd1307c545e3f5782172612372bf997a93698917ced12b2f83d86e347d0c905f90a25050565b5f9182526065602090815260408084206001600160a01b0393909316845291905290205460ff1690565b336001600160a01b037f00000000000000000000000000000000000000000000000000000000000000001614611a08576040516317568c8f60e21b815260040160405180910390fd5b611a10613f41565b60dd5f828254611a209190615b09565b90915550506001600160a01b0381165f90815260d260209081526040822060d55460018201549193909290919081901c9063ffffffff165b8115611c50576001821615611c35575f81815260d0602090815260408083206001600160a01b038a168452909152812060018101548154919291611a9c9190615b09565b9050808610611c3257611aaf8187615aa6565b9550611abb8186615b09565b82545f85815260d16020526040812092975091611ad791613fba565b90508015611b70578060d35f828254611af09190615aa6565b909155505082545f90611b1f90611b079084613fe7565b5f87815260d1602052604090206002015490846127ef565b90508060d15f8781526020019081526020015f206002015f828254611b449190615aa6565b925050819055508060d55f828254611b5c9190615b09565b90915550611b6c90508189615b09565b9750505b82546001600160a01b038a165f90815260e4602052604081206001018054839290611b9c908490615aa6565b909155505060e680548291905f90611bb5908490615aa6565b90915550505f85815260d0602090815260408083206001600160a01b038e1684529091528120818155600190810191909155890154611bf49086613ffc565b60018a01556040516001600160a01b038b1690339087905f80516020615ee783398151915290611c27908890819061560a565b60405180910390a450505b50505b60019190911c90611c496224ea0082615b09565b9050611a58565b600285015415801590611c6d5750611c67846120b8565b93508315155b15611c8e575f611c7d85886140bb565b509050611c8a8185615b09565b9350505b8215611ce9578260d55f828254611ca59190615aa6565b90915550506040518381526001600160a01b038716907fde0e3a281fa92ee953a13c5bd96dcaf07b10c6b9f42c65d0e3752c855caa6e7c9060200160405180910390a25b611cf1613080565b505050505050565b5f611d0333613186565b611d0c82613186565b610e3483836141aa565b60ca8054610d9090615a5a565b5f54610100900460ff1615808015611d4157505f54600160ff909116105b80611d5a5750303b158015611d5a57505f5460ff166001145b611d62575f80fd5b5f805460ff191660011790558015611d83575f805461ff0019166101001790555b611d8b614239565b611d9361424b565b8a8a604051602001611da6929190615bb3565b60405160208183030381529060405260c99081611dc39190615c2e565b508a8a604051602001611dd7929190615ce8565b60405160208183030381529060405260ca9081611df49190615c2e565b5060da8054610100600160481b0319166101004263ffffffff1690810263ffffffff60281b191691909117600160281b82021763ffffffff60481b1916600160481b91909102179055611e475f33613331565b611e5089611541565b611e5987611915565b611e6286611efa565b611e6b856117ac565b611e74846124f9565b611e7e8383614265565b611e87886142a1565b8015611ecc575f805461ff0019169055604051600181527f7f26b83ff96e1f2b6a682f133852f6798a09c465da95921460cefb38474024989060200160405180910390a15b5050505050505050505050565b5f611ee382613186565b611ef086868686866142f7565b9695505050505050565b5f611f0481613327565b60d68290556040518281527fdb0ebfb2503f7c16b45577ebbf6c7d6b99b6e8aaf6652b156e36d5d6654a3a5e90602001611589565b5f611f4383613186565b610e3483836143ba565b5f80611f5833613186565b611f6183613186565b61187a8484614451565b611f73612a37565b6116223384848461446d565b60cb545f908015610e3257610e2d611801610ca1565b60405163a3883db560e01b81525f906001600160a01b037f0000000000000000000000000000000000000000000000000000000000000000169063a3883db590611fe790309086908990600401615d06565b5f6040518083038186803b158015611ffd575f80fd5b505afa15801561200f573d5f803e3d5ffd5b5050505061201e8484846145e1565b9050610e34613080565b5f7f00000000000000000000000000000000000000000000000000000000000000006001600160a01b031663a3883db530846120638861181e565b6040518463ffffffff1660e01b815260040161208193929190615d06565b5f6040518083038186803b158015612097575f80fd5b505afa1580156120a9573d5f803e3d5ffd5b5050505061201e8484846146e4565b60df545f908015610e3257610e2d816120cf61254d565b8591906127ef565b60cb545f908015610e3257610e2d816120cf610ca1565b6001600160a01b0381165f90815260cc6020526040812054610d7d90610e0f565b4284101561211b575f80fd5b5f60016121266116ef565b6001600160a01b038a81165f81815260ce602090815260409182902080546001810190915582517f6e71edae12b1b97f4d1f60370fef10105fa2faae0126114a169c64845d6126c98184015280840194909452938d166060840152608083018c905260a083019390935260c08083018b90528151808403909101815260e08301909152805192019190912061190160f01b6101008301526101028201929092526101228101919091526101420160408051601f1981840301815282825280516020918201205f84529083018083525260ff871690820152606081018590526080810184905260a0016020604051602081039080840390855afa15801561222e573d5f803e3d5ffd5b5050604051601f1901519150506001600160a01b038116158015906122645750876001600160a01b0316816001600160a01b0316145b61226c575f80fd5b6001600160a01b039081165f90815260cd602090815260408083208a8516808552908352928190208990555188815291928a16915f80516020615f87833981519152910160405180910390a350505050505050565b5f6122ca612a37565b6122d2612a46565b835f036122f25760405163774257f760e01b815260040160405180910390fd5b6122fc8285612e7d565b612307610fb4612c04565b61231084611845565b90505f8460d4546123219190615b09565b60d481905560dc549091506123529061102c90600160801b90046001600160801b0316670de0b6b3a7640000615b1c565b8160d3546123609190615b09565b111561237e57604051622d41ad60e31b815260040160405180910390fd5b8160df5f82825461238f9190615b09565b90915550506001600160a01b0383165f90815260d26020526040812060020180548492906123be908490615b09565b92505081905550826001600160a01b0316846001600160a01b0316336001600160a01b03167f96558a334f4759f0e7c423d68c84721860bd8fbf94ddc4e55158ecb125ad04b5888660405161241492919061560a565b60405180910390a4612424613080565b604051637b9d893160e01b81526001600160a01b037f00000000000000000000000000000000000000000000000000000000000000001690637b9d8931906124729030908790600401615b99565b5f604051808303815f87803b158015612489575f80fd5b505af115801561249b573d5f803e3d5ffd5b506124d59250506001600160a01b037f00000000000000000000000000000000000000000000000000000000000000001690508587613135565b509392505050565b6124e68261152d565b6124ef81613327565b61162283836137bc565b5f61250381613327565b60dc80546001600160801b03808516600160801b0291161790556040517fc197c4ec4c97f824717acfad017c2a16643adc8874798a0899da42c6b5ebf9bf906115899084906157f3565b60d45460dd5460da545f92919083906126139061260c9061257b90600160281b900463ffffffff1642615aa6565b60db546301e13380906001600160a01b0316637c21fb1d61259c888a612e35565b6125a9898b60d354612e4d565b6040518363ffffffff1660e01b81526004016125c692919061560a565b602060405180830381865afa1580156125e1573d5f803e3d5ffd5b505050506040513d601f19601f820116820180604052508101906126059190615b61565b91906127ef565b849061280d565b905061261f8184615b09565b935050505090565b5f610d7d826120d7565b6126396133b6565b6001600160a01b0381165f90815260cc60205260408120549061265b82610e0f565b905061266781836147f2565b612671838361486b565b6001600160a01b0383165f90815260d260209081526040909120549081901c9063ffffffff165b8115612744576001821615612729575f81815260cf602090815260408083206001600160a01b03891684528252808320815180830190925280548083526001909101549282018390529092916126ed91615b09565b90508015612726575f8061270385845f8c6148d2565b505091509150612717818587868d87614b71565b6127218288615b09565b965050505b50505b60019190911c9061273d6224ea0082615b09565b9050612698565b6001600160a01b0385165f90815260e760205260408120805485929061276b908490615b09565b90915550506040518381526001600160a01b0386169033905f80516020615f078339815191529060200160405180910390a3846001600160a01b03167f9f1ec8c880f76798e7b793325d625e9b60e4082a553c98f42b6cda368dd60008846040516127d891815260200190565b60405180910390a26127e8613080565b5050505050565b828202811515841585830485141716612806575f80fd5b0492915050565b5f610e348383670de0b6b3a76400006127ef565b60da545f90819061283d90610100900463ffffffff1642615aa6565b9050805f0361284d575f91505090565b60da5461289190829061287d9061286b906224ea009060ff16615ab9565b60dc546001600160801b03169061280d565b6128879084615b09565b60d55491906127ef565b91505090565b8282028115158415858304851417166128ae575f80fd5b6001826001830304018115150290509392505050565b5f680248ce36a70cb26b3e1982136128dd57505f919050565b680755bf798b4a1bf1e582126128f1575f80fd5b6503782dace9d9604e83901b0591505f60606bb17217f7d1cf79abc9e3b39884821b056001605f1b01901d6bb17217f7d1cf79abc9e3b39881029093036c240c330e9fb2d9cbaf0fd5aafb1981018102606090811d6d0277594991cfc85f6e2461837cd9018202811d6d1a521255e34f6a5061b25ef1c9c319018202811d6db1bbb201f443cf962f1a1d3db4a5018202811d6e02c72388d9f74f51a9331fed693f1419018202811d6e05180bb14799ab47a8a8cb2a527d57016d02d16720577bd19bf614176fe9ea6c10fe68e7fd37d0007b713f765084018402831d9081019084016d01d3967ed30fc4f89c02bab5708119010290911d6e0587f503bb6ea29d25fcb740196450019091026d360d7aeea093263ecc6e0ecb291760621b010574029d9dc38563c32e5c2f6dc192ee70ef65f9978af30260c3939093039290921c92915050565b60975460ff1615611913575f80fd5b60e354600160a01b900460ff16156119135760405163b2ce2a9360e01b815260040160405180910390fd5b5f612a7f6224ea0086615d2a565b15612a8c57506001612adf565b428511612a9b57506002612adf565b612aab60ff85166224ea00615ab9565b612ab86224ea0042615d2a565b612ac29042615aa6565b612acc9190615b09565b851115612adb57506004612adf565b5060035b826004811115612af157612af1615d3d565b816004811115612b0357612b03615d3d565b14158015612b335750816004811115612b1e57612b1e615d3d565b816004811115612b3057612b30615d3d565b14155b156127e8575f826004811115612b4b57612b4b615d3d565b03612b9f57806004811115612b6257612b62615d3d565b836004811115612b7457612b74615d3d565b604051631a71301d60e11b815260ff9283166004820152911660248201526044015b60405180910390fd5b806004811115612bb157612bb1615d3d565b836004811115612bc357612bc3615d3d565b836004811115612bd557612bd5615d3d565b604051637f2cef9960e01b815260ff938416600482015291831660248301529091166044820152606401612b96565b60d45460dd545f919082612c188284612e35565b60da549091505f90612c6a90610f3d90612c3f90600160281b900463ffffffff1642615aa6565b60db5460d3546301e13380916001600160a01b031690637c21fb1d9088906125a9908b908d90612e4d565b9050612c768185615b09565b9350612c8d60e2548261280d90919063ffffffff16565b945084612c9a8285615b09565b612ca49190615aa6565b60dd5560d484905560da805463ffffffff42908116600160281b0263ffffffff60281b19909216919091179091556040517f582b129106eba35020853cdae92ceb413a0227befcce433b67b23a630219b35f91612d0291859061560a565b60405180910390a15050505090565b80156117a95760e154612d35906001600160a01b0316612d3083612627565b6133ff565b8060dd5f828254612d469190615b09565b909155505050565b60038201545f9042831115612da25760028401544260038601819055612d8b90612d79908490615aa6565b612d838487615aa6565b8391906127ef565b9250612d978382615aa6565b600286015550612dc5565b828103612db1575f9150612dc5565b600384018390556002840180545f90915591505b5092915050565b81545f9081612ddb8483615b09565b9050612df4612dee838760010154614ce4565b82613fe7565b612dfe9082615aa6565b9455509192915050565b5f8115801590612e1757508383115b612e21575f611525565b61152582612e2f8686615aa6565b90614cf2565b5f825f03612e43575f610e34565b610e348284614cf2565b5f835f03612e5b575f611525565b61152584612e2f8486615b09565b5f610e348383670de0b6b3a7640000612897565b336001600160a01b03831614611767576001600160a01b0382165f90815260cd602090815260408083203384529091529020545f19811461162257612ec182610e93565b612ecb9082615aa6565b6001600160a01b0384165f90815260cd60209081526040808320338452909152902055505050565b5f825f03612f085750600160201b8117610d7d565b63ffffffff831680831015612f85575f6224ea00612f268584615aa6565b612f309190615d51565b9050612f3e81610100615aa6565b85901c15612f5f5760405163293cc41f60e21b815260040160405180910390fd5b612f6a816020615b09565b602086901c901b9450848417600160201b1792505050610d7d565b5f6224ea00612f948386615aa6565b612f9e9190615d51565b905060df811115612fc25760405163293cc41f60e21b815260040160405180910390fd5b612fcd816020615b09565b6001901b851792505050610d7d565b5f80612ff360e2548461280d90919063ffffffff16565b9050612ffe81612d11565b610e348184615aa6565b5f80821561303c5761303761302561301f87614d06565b85613fe7565b61302f9085615aa6565b8590856127ef565b61303e565b5f5b905061304a8185615aa6565b9150935093915050565b805f0361305e5750565b60e2541561306f576117a981612d11565b8060d55f828254612d469190615b09565b60cb5460dd5460df5460d45460d5546040805142815260208101969096528501939093526060840191909152608083015260a08201527f7a71b92e3ef471c5ad18359e076f3df1c563d92e9ea1e33aa4761dbbc9b7ae409060c0015b60405180910390a1565b5f81815260d160205260409081902060020154905182917fa2e6044136bec58e0605f40ac11a7bf87f1a8bdf3e2588b11b2cfae5acd9109f9161312a91429161560a565b60405180910390a250565b5f60405163a9059cbb60e01b5f526001600160a01b0384166004528260245260205f60445f80895af13d15601f3d1160015f511416171691505f606052806040525080613180575f80fd5b50505050565b7f00000000000000000000000000000000000000000000000000000000000000006001600160a01b031663c22a4a856040518163ffffffff1660e01b8152600401602060405180830381865afa1580156131e2573d5f803e3d5ffd5b505050506040513d601f19601f820116820180604052508101906132069190615d64565b6001600160a01b031663babcc539826040518263ffffffff1660e01b815260040161323191906157df565b602060405180830381865afa15801561324c573d5f803e3d5ffd5b505050506040513d601f19601f820116820180604052508101906132709190615d7f565b6117a9578060405163fa5cd00f60e01b8152600401612b9691906157df565b5f613298612a37565b7f00000000000000000000000000000000000000000000000000000000000000006001600160a01b031663a3883db530866132d28661181e565b6040518463ffffffff1660e01b81526004016132f093929190615d06565b5f6040518083038186803b158015613306575f80fd5b505afa158015613318573d5f803e3d5ffd5b50505050611525848484614d24565b6117a98133614dfe565b61333b8282611995565b611767575f8281526065602090815260408083206001600160a01b03851684529091529020805460ff191660011790556133723390565b6001600160a01b0316816001600160a01b0316837f2f8788117e7eff1d82e926ec794901d17c78024a50270940304540a733656f0d60405160405180910390a45050565b336001600160a01b037f00000000000000000000000000000000000000000000000000000000000000001614611913576040516317568c8f60e21b815260040160405180910390fd5b6117678282614e44565b613411612a37565b613419612a46565b613421614e93565b5f61342a612c04565b90505f613435613f41565b90506134418482615b09565b60dd5f8282546134519190615b09565b90915550613460905082612d11565b613180613080565b5f613471612a37565b613479612a46565b835f03613499576040516356316e8760e01b815260040160405180910390fd5b60da546134ad90869060ff1660035f612a71565b5f85815260d160205260408120906134c58288612d4e565b90506134d2610fb4612c04565b8060dd5f8282546134e39190615b09565b909155506134ee9050565b60d754604080516080810182528454815260018501546020820152600285015491810191909152600384015460608201525f91829161352e918a90614ebe565b909250905061353d8289615b09565b94508685101561356057604051632c1b6b4160e21b815260040160405180910390fd5b61356a8489614f0f565b60d35f82825461357a9190615aa6565b9091555061358a90508183615b09565b846002015f82825461359c9190615aa6565b925050819055508060d55f8282546135b49190615b09565b90915550505f89815260cf602090815260408083206001600160a01b038a16845290915281208054909103613609576001600160a01b0387165f90815260d2602052604090208054613606908c612ef3565b90555b6001600160a01b0387165f90815260e46020526040812080548b9290613630908490615b09565b909155505060e580548a91905f90613649908490615b09565b90915550508054899082905f90613661908490615b09565b9250508190555082816001015f82825461367b9190615b09565b92505081905550866001600160a01b0316336001600160a01b03168b7fd9900507c64720c1a5e11858a42769b599616268b832495aa6afe8b9dc566e768c876040516136c892919061560a565b60405180910390a46136d8613080565b6136e18a6130e6565b6137166001600160a01b037f00000000000000000000000000000000000000000000000000000000000000001633308c614f35565b5050505050949350505050565b5f7f8b73c3c69bb8fe3d512ecc4cf759cc79239f7b179b0ffacaa9a75d522b39400f60c96040516137549190615d9a565b6040805191829003822060208301939093528101919091527fc89efdaa54c0f20c7adf612882df0950f5a951637e0307cdcb4c672f298b8bc660608201524660808201523060a082015260c00160405160208183030381529060405280519060200120905090565b6137c68282611995565b15611767575f8281526065602090815260408083206001600160a01b0385168085529252808320805460ff1916905551339285917ff6391f5c32d9c69d2a47ea670b442974b53935d1edc7fd64eb21e047a839171b9190a45050565b5f61382b612a37565b60da5461384090869060ff1660036002612a71565b61384e858585856001614f8d565b9050613858613080565b6115256001600160a01b037f000000000000000000000000000000000000000000000000000000000000000016333084614f35565b6138956152eb565b6097805460ff191690557f5db9ee0a495bf2e6ff9c91a7834c1ba4fdd244a5e8aa4e537bd38aeae4b073aa335b6040516130dc91906157df565b5f6138d8612a37565b6001600160a01b0384163303613901576040516344511af160e01b815260040160405180910390fd5b613909613f41565b60dd5f8282546139199190615b09565b909155505060405163042dcf6b60e31b81526001600160a01b037f0000000000000000000000000000000000000000000000000000000000000000169063216e7b5890613970903090869089908990600401615e0b565b602060405180830381865afa15801561398b573d5f803e3d5ffd5b505050506040513d601f19601f820116820180604052508101906139af9190615b61565b9250825f036139d15760405163685e923560e01b815260040160405180910390fd5b6001600160a01b0384165f90815260d2602090815260409091206001810154909181901c9063ffffffff165b8115801590613a0b57508515155b15613b18576001821615613afd575f81421015613a4257613a2f8288898b5f614f8d565b9050613a3b8188615aa6565b9650613aef565b5f82815260d0602090815260408083206001600160a01b038c168452909152812060018101548154613a749190615b09565b9150505f613a9b60d6548542613a8a9190615aa6565b613a949190615ab9565b839061280d565b613aa59083615b09565b9050888111613ab45788613abf565b613abf8983836127ef565b9250825f03613ad0575f9850613aec565b613add84848b8d5f614f8d565b9250613ae9838a615aa6565b98505b50505b613af98186615b09565b9450505b60019190911c90613b116224ea0082615b09565b90506139fd565b50508315801590613b2c5750600281015415155b15613b61575f613b3b856120b8565b90508015613b5f575f613b4e82886140bb565b509050613b5b8185615b09565b9350505b505b5f807f00000000000000000000000000000000000000000000000000000000000000006001600160a01b0316636e1b003130878a886040518563ffffffff1660e01b8152600401613bb59493929190615e0b565b6040805180830381865afa158015613bcf573d5f803e3d5ffd5b505050506040513d601f19601f82011682018060405250810190613bf39190615e35565b915091508160d55f828254613c089190615b09565b90915550613c4f90503330613c1d8588615b09565b6001600160a01b037f000000000000000000000000000000000000000000000000000000000000000016929190614f35565b306001600160a01b03861603613c7057613c6b3033898461446d565b613cd5565b60405163b2a02ff160e01b81526001600160a01b0386169063b2a02ff190613ca09033908b908690600401615d06565b5f604051808303815f87803b158015613cb7575f80fd5b505af1158015613cc9573d5f803e3d5ffd5b50505050613cd5613080565b60408051858152602081018490529081018290526001600160a01b03808716919089169033907f67bb48f97d82192848c24158abf58ec614777328e19655e0a219652b773fd1db9060600160405180910390a46040516311fd52e160e01b81526001600160a01b037f000000000000000000000000000000000000000000000000000000000000000016906311fd52e190613d74908a906004016157df565b5f604051808303815f87803b158015613d8b575f80fd5b505af1158015613d9d573d5f803e3d5ffd5b505050505050509392505050565b5f613db583612627565b9050805f03613dc2575f80fd5b613df76001600160a01b037f000000000000000000000000000000000000000000000000000000000000000016333086614f35565b613e0182826133ff565b816001600160a01b0316336001600160a01b03165f80516020615fa78339815191528584604051613e3392919061560a565b60405180910390a3610d7d8382613409565b5f80613e4f612a37565b613e5984846140bb565b9092509050613e66613080565b61187f6001600160a01b037f000000000000000000000000000000000000000000000000000000000000000016333085614f35565b613ec57f5358bcfd81d1ef3da152b1755e1c3c6739686fa7e83dbcad0071568cc4b73a6333611995565b158015613ee65750613ee45f80516020615f4783398151915233611995565b155b1561191357604051631d006fdb60e31b815260040160405180910390fd5b613f0c612a37565b6097805460ff191660011790557f62e78cea01bee320cd4e420270b5ea74000d11b0c9f74754ebdbfc544b05a2586138c23390565b5f613f4a612821565b90508060d55f828254613f5d9190615aa6565b909155505060da805464ffffffff0019166101004263ffffffff811691909102919091179091556040519081527fe24d78f24f27ad7740c08c83f439e4c144df201bfd8f5c4c93e3e0898248b1bb9060200160405180910390a190565b815460018301545f9190613fce8483615aa6565b85556116e6613fdd8383613fe7565b61301f9084615aa6565b5f818310613ff55781610e34565b5090919050565b5f82158061400f575081600160201b1783145b1561401b57505f610d7d565b63ffffffff831680830361408957602184901c60015b6001821615801561404157508115155b1561405257600191821c9101614031565b602061405e8282615b09565b9690961c90951b94856140746224ea0083615ab9565b61407e9087615b09565b179350505050610d7d565b6224ea006140978285615aa6565b6140a19190615d51565b6140ac906020615b09565b6001901b198416915050610d7d565b5f806140c8610fb4612c04565b6001600160a01b0383165f90815260d26020526040902060028101546140ee8682613fe7565b92506140f9836117eb565b9350835f0361411b5760405163685e923560e01b815260040160405180910390fd5b8360d45f82825461412c9190615aa6565b9091555061413c90508382615aa6565b82600201819055508260df5f8282546141559190615aa6565b90915550506040516001600160a01b0386169033907fe4a1ae657f49cb1fb1c7d3a94ae6093565c4c8c0e03de488f79c377c3c3a24e090614199908890889061560a565b60405180910390a350509250929050565b5f6141b483611f7f565b90506141eb6001600160a01b037f000000000000000000000000000000000000000000000000000000000000000016333084614f35565b6141f582846133ff565b816001600160a01b0316336001600160a01b03165f80516020615fa7833981519152838660405161422792919061560a565b60405180910390a3610d7d8184613409565b5f54610100900460ff16611913575f80fd5b5f54610100900460ff1661425d575f80fd5b6119136152f9565b60d882905560d98190556040517fd09fee08a2915f9ac9a77197b21a3e275d34ec9542f569eb15b95ce8f7fe280890611589908490849061560a565b60dc80546001600160801b0319166001600160801b0383161790556040517f5499a947330efc8c6d458d51fd04d56d7e44dc1469558b2300e359963cef317e906142ec9083906157f3565b60405180910390a150565b5f614300612a37565b5f6143096155c3565b614315888888876148d2565b9950919450925090506143288484612e7d565b61433682828a8a8888614b71565b836001600160a01b0316856001600160a01b0316897fe57dbac0e7c42ad5f3b0fadb9c065565377cf771054fca70d35c96e01f9ec53c338b8860405161437e93929190615b78565b60405180910390a46114056001600160a01b037f0000000000000000000000000000000000000000000000000000000000000000168685613135565b5f6143c3612a37565b7f00000000000000000000000000000000000000000000000000000000000000006001600160a01b031663a3883db530336143fd8661181e565b6040518463ffffffff1660e01b815260040161441b93929190615d06565b5f6040518083038186803b158015614431575f80fd5b505afa158015614443573d5f803e3d5ffd5b50505050610e348383615317565b5f8061445b612a37565b613e59614467856120b8565b846140bb565b805f0361448d5760405163b8cb621960e01b815260040160405180910390fd5b60405163070b773960e51b81526001600160a01b037f0000000000000000000000000000000000000000000000000000000000000000169063e16ee720906144db9087903090600401615b99565b5f6040518083038186803b1580156144f1575f80fd5b505afa158015614503573d5f803e3d5ffd5b505050505f61451182610e93565b905061451d82826147f2565b614527838261486b565b826001600160a01b0316846001600160a01b0316336001600160a01b03165f80516020615f27833981519152858560405161456392919061560a565b60405180910390a4826001600160a01b0316846001600160a01b03165f80516020615f078339815191528460405161459d91815260200190565b60405180910390a36145ad613080565b6127e86001600160a01b037f0000000000000000000000000000000000000000000000000000000000000000168584613135565b5f6145eb84610e93565b9050336001600160a01b03831614614658576001600160a01b0382165f90815260cd602090815260408083203384529091529020545f198114614656576146328282615aa6565b6001600160a01b0384165f90815260cd602090815260408083203384529091529020555b505b61466284826147f2565b61466c828261486b565b816001600160a01b0316836001600160a01b0316336001600160a01b03165f80516020615f2783398151915287856040516146a892919061560a565b60405180910390a4610e346001600160a01b037f0000000000000000000000000000000000000000000000000000000000000000168486613135565b5f336001600160a01b03831614614750576001600160a01b0382165f90815260cd602090815260408083203384529091529020545f19811461474e5761472a8582615aa6565b6001600160a01b0384165f90815260cd602090815260408083203384529091529020555b505b6147598461181e565b9050805f03614766575f80fd5b61477081856147f2565b61477a828561486b565b816001600160a01b0316836001600160a01b0316336001600160a01b03165f80516020615f2783398151915284886040516147b692919061560a565b60405180910390a4610e346001600160a01b037f0000000000000000000000000000000000000000000000000000000000000000168483613135565b6147fa612a37565b614802614e93565b61480d610fb4612c04565b5f614816613f41565b90505f838260dd546148289190615b09565b6148329190615aa6565b90508060d45460d3546148459190615b09565b111561486357604051622d41ad60e31b815260040160405180910390fd5b60dd55505050565b6001600160a01b0382165f90815260cc602052604081208054839290614892908490615aa6565b909155505060cb805482900390556040518181525f906001600160a01b038416905f80516020615f67833981519152906020015b60405180910390a35050565b5f806148dc6155c3565b5f865f036148fd5760405163b8cb621960e01b815260040160405180910390fd5b60da5461491290899060ff1660036002612a71565b5f88815260d160205260409020925061492c610fb4612c04565b6149368389612d4e565b60dd5f8282546149469190615b09565b909155506149519050565b5f88815260cf602090815260408083206001600160a01b03891684528252918290208251808401909352805480845260019091015491830182905291935061499891615b09565b87116149a457866149b5565b602082015182516149b59190615b09565b90505f6149f16149e9836040518060400160405280875f01518152602001876020015181525061537a90919063ffffffff16565b5185906153b5565b60d3546149fe9190615b09565b905060dd5460d45482614a119190615b09565b1115614a2f57604051622d41ad60e31b815260040160405180910390fd5b60d35542881115614b41575f614a43610eb2565b90505f60d45490505f60d35490505f60db5f9054906101000a90046001600160a01b03166001600160a01b031663d9d9048d8d60da5f9054906101000a900460ff16614a978b600101548c5f01548a612e08565b614aa18989612e35565b614aac8a8a8a612e4d565b6040518663ffffffff1660e01b8152600401614acc959493929190615b3b565b602060405180830381865afa158015614ae7573d5f803e3d5ffd5b505050506040513d601f19601f82011682018060405250810190614b0b9190615b61565b9050614b36614b1d61113b428f615aa6565b614b2f90670de0b6b3a7640000615b09565b86906153f9565b975050505050614b45565b8093505b85841015614b6657604051632c1b6b4160e21b815260040160405180910390fd5b945094509450949050565b5f80614bbd614b88614b838588615aa6565b612fdc565b604080516080810182528b54815260018c0154602082015260028c01549181019190915260038b015460608201529085613008565b9150915081886002015f828254614bd49190615b09565b90915550614be3905081613054565b86515f614bf0898861540d565b51614bfb9083615aa6565b6001600160a01b0387165f90815260e46020526040812080549293508392909190614c27908490615aa6565b909155505060e580548291905f90614c40908490615aa6565b9091555050505060208701518751175f03614c99575f86815260cf602090815260408083206001600160a01b0388168452825280832083815560010183905560d290915290208054614c929088613ffc565b9055614cc9565b5f86815260cf602090815260408083206001600160a01b0388168452825290912088518155908801516001909101555b614cd1613080565b614cda866130e6565b5050505050505050565b5f818311613ff55781610e34565b5f610e3483670de0b6b3a764000084612897565b805160208201515f9190614d1a8282613fe7565b6115259083615aa6565b6001600160a01b0383165f90815260cd602090815260408083203384529091528120545f198114614d7d57614d598382615aa6565b6001600160a01b0386165f90815260cd602090815260408083203384529091529020555b6001600160a01b0385165f90815260cc602052604081208054859290614da4908490615aa6565b90915550506001600160a01b038085165f81815260cc6020526040908190208054870190555190918716905f80516020615f6783398151915290614deb9087815260200190565b60405180910390a3506001949350505050565b614e088282611995565b61176757614e1581615460565b614e20836020615472565b604051602001614e31929190615e6e565b6040516020818303038152906040525f80fd5b8060cb5f828254614e559190615b09565b90915550506001600160a01b0382165f81815260cc60209081526040808320805486019055518481525f80516020615f6783398151915291016148c6565b614e9b610eb2565b60de5560da805463ffffffff60481b1916600160481b4263ffffffff1602179055565b5f805f614eca86614d06565b90508015614f0657614eeb614edf8683613fe7565b604088015190836127ef565b9250614ef7838561280d565b9150614f038284615aa6565b92505b50935093915050565b815460018301545f9190614f238482615b09565b60018601556116e6613fdd8383613fe7565b5f6040516323b872dd60e01b5f526001600160a01b0385166004526001600160a01b0384166024528260445260205f60645f808a5af13d15601f3d1160015f511416171691505f6060528060405250806127e8575f80fd5b5f845f03614fae5760405163685e923560e01b815260040160405180910390fd5b5f86815260d16020526040812090614fc68289612d4e565b9050614fd3610fb4612c04565b8060dd5f828254614fe49190615b09565b90915550505f88815260d0602090815260408083206001600160a01b038916845282528083208151808301909252805480835260019091015492820183905290929161503a918b9161503591615b09565b613fe7565b6040805180820190915283518152602080850151908201529091505f90615061908361537a565b5190508a42101561512c5760d754604080516080810182528754815260018801546020820152600288015491810191909152600387015460608201525f9182916150ac918590614ebe565b90925090506150bb8183615b09565b876002015f8282546150cd9190615aa6565b90915550508815615100578060d55f8282546150e99190615b09565b909155506150f990508285615aa6565b9750615125565b61510a8183615b09565b60d55f82825461511a9190615b09565b925050819055508397505b5050615169565b60d65461513d90613a8a8d42615aa6565b6151479083615b09565b95506151538287615aa6565b60d55f8282546151639190615b09565b90915550505b8886111561518a57604051632c1b6b4160e21b815260040160405180910390fd5b6151948582613fba565b60d35f8282546151a49190615aa6565b909155505082516151b5848461540d565b516151c09082615aa6565b6001600160a01b038a165f90815260e460205260408120600101805492945084929091906151ef908490615aa6565b909155505060e680548391905f90615208908490615aa6565b909155505060208401518451175f03615268575f8c815260d0602090815260408083206001600160a01b038d1684528252808320838155600190810184905560d29092529091209081015461525d908e613ffc565b600190910155615298565b5f8c815260d0602090815260408083206001600160a01b038d168452825290912085518155908501516001909101555b886001600160a01b0316336001600160a01b03168d5f80516020615ee78339815191528a876040516152cb92919061560a565b60405180910390a46152dc8c6130e6565b50505050505095945050505050565b60975460ff16611913575f80fd5b5f54610100900460ff1661530b575f80fd5b6097805460ff19169055565b335f90815260cc6020526040812080548391908390615337908490615aa6565b90915550506001600160a01b0383165f81815260cc6020526040908190208054850190555133905f80516020615f6783398151915290610e829086815260200190565b6153826155c3565b825160208401515f91615399916120cf9082615b09565b80855290506153a88184615aa6565b6020850152509192915050565b815460018301545f9190826153ca8583615aa6565b90506153d68184613fe7565b6153e08385613fe7565b6153ea9190615aa6565b60019096015550929392505050565b5f610e3483670de0b6b3a7640000846127ef565b6154156155c3565b602083015183515f9161542791615b09565b90505f6154348483615aa6565b8551909150615445908290846127ef565b8086526154529082615aa6565b602086015250929392505050565b6060610d7d6001600160a01b03831660145b60605f615480836002615ab9565b61548b906002615b09565b6001600160401b038111156154a2576154a2615bd6565b6040519080825280601f01601f1916602001820160405280156154cc576020820181803683370190505b509050600360fc1b815f815181106154e6576154e6615ebd565b60200101906001600160f81b03191690815f1a905350600f60fb1b8160018151811061551457615514615ebd565b60200101906001600160f81b03191690815f1a9053505f615536846002615ab9565b615541906001615b09565b90505b60018111156155b8576f181899199a1a9b1b9c1cb0b131b232b360811b85600f166010811061557557615575615ebd565b1a60f81b82828151811061558b5761558b615ebd565b60200101906001600160f81b03191690815f1a90535060049490941c936155b181615ed1565b9050615544565b508315610e34575f80fd5b60405180604001604052805f81526020015f81525090565b6001600160a01b03811681146117a9575f80fd5b5f602082840312156155ff575f80fd5b8135610e34816155db565b918252602082015260400190565b5f60208284031215615628575f80fd5b81356001600160e01b031981168114610e34575f80fd5b602081525f82518060208401528060208501604085015e5f604082850101526040601f19601f83011684010191505092915050565b5f60208284031215615684575f80fd5b5035919050565b5f806040838503121561569c575f80fd5b82356156a7816155db565b946020939093013593505050565b5f805f805f60a086880312156156c9575f80fd5b85359450602086013593506040860135925060608601356156e9816155db565b915060808601356156f9816155db565b809150509295509295909350565b5f805f60608486031215615719575f80fd5b8335615724816155db565b92506020840135615734816155db565b929592945050506040919091013590565b803560ff81168114615755575f80fd5b919050565b5f6020828403121561576a575f80fd5b610e3482615745565b5f8060408385031215615784575f80fd5b823591506020830135615796816155db565b809150509250929050565b5f805f80608085870312156157b4575f80fd5b84359350602085013592506040850135915060608501356157d4816155db565b939692955090935050565b6001600160a01b0391909116815260200190565b6001600160801b0391909116815260200190565b5f805f60608486031215615819575f80fd5b8335615824816155db565b925060208401359150604084013561583b816155db565b809150509250925092565b80151581146117a9575f80fd5b5f60208284031215615863575f80fd5b8135610e3481615846565b8035615755816155db565b80356001600160801b0381168114615755575f80fd5b5f805f805f805f805f806101208b8d0312156158a9575f80fd5b8a356001600160401b038111156158be575f80fd5b8b01601f81018d136158ce575f80fd5b80356001600160401b038111156158e3575f80fd5b8d60208284010111156158f4575f80fd5b60209182019b509950615908908c01615745565b975061591660408c01615879565b965061592460608c0161586e565b955060808b0135945060a08b0135935061594060c08c01615879565b999c989b50969995989497939650919460e0810135936101009091013592509050565b5f805f60608486031215615975575f80fd5b833592506020840135615987816155db565b9150604084013561583b816155db565b5f805f805f805f60e0888a0312156159ad575f80fd5b87356159b8816155db565b965060208801356159c8816155db565b955060408801359450606088013593506159e460808901615745565b9699959850939692959460a0840135945060c09093013592915050565b5f8060408385031215615a12575f80fd5b8235615a1d816155db565b91506020830135615796816155db565b5f60208284031215615a3d575f80fd5b610e3482615879565b634e487b7160e01b5f52601260045260245ffd5b600181811c90821680615a6e57607f821691505b602082108103615a8c57634e487b7160e01b5f52602260045260245ffd5b50919050565b634e487b7160e01b5f52601160045260245ffd5b81810381811115610d7d57610d7d615a92565b8082028115828204841417610d7d57610d7d615a92565b5f600160ff1b8201615ae457615ae4615a92565b505f0390565b8181035f831280158383131683831282161715612dc557612dc5615a92565b80820180821115610d7d57610d7d615a92565b6001600160801b038281168282160390811115610d7d57610d7d615a92565b94855260ff93909316602085015260408401919091526060830152608082015260a00190565b5f60208284031215615b71575f80fd5b5051919050565b6001600160a01b039390931683526020830191909152604082015260600190565b6001600160a01b0392831681529116602082015260400190565b67032bc30b1ba363c960c51b8152818360088301375f9101600801908152919050565b634e487b7160e01b5f52604160045260245ffd5b601f82111561162257805f5260205f20601f840160051c81016020851015615c0f5750805b601f840160051c820191505b818110156127e8575f8155600101615c1b565b81516001600160401b03811115615c4757615c47615bd6565b615c5b81615c558454615a5a565b84615bea565b6020601f821160018114615c8d575f8315615c765750848201515b5f19600385901b1c1916600184901b1784556127e8565b5f84815260208120601f198516915b82811015615cbc5787850151825560209485019460019092019101615c9c565b5084821015615cd957868401515f19600387901b60f8161c191681555b50505050600190811b01905550565b6265786160e81b8152818360038301375f9101600301908152919050565b6001600160a01b039384168152919092166020820152604081019190915260600190565b5f82615d3857615d38615a46565b500690565b634e487b7160e01b5f52602160045260245ffd5b5f82615d5f57615d5f615a46565b500490565b5f60208284031215615d74575f80fd5b8151610e34816155db565b5f60208284031215615d8f575f80fd5b8151610e3481615846565b5f808354615da781615a5a565b600182168015615dbe5760018114615dd357615e00565b60ff1983168652811515820286019350615e00565b865f5260205f205f5b83811015615df857815488820152600190910190602001615ddc565b505081860193505b509195945050505050565b6001600160a01b039485168152928416602084015292166040820152606081019190915260800190565b5f8060408385031215615e46575f80fd5b505080516020909101519092909150565b5f81518060208401855e5f93019283525090919050565b76020b1b1b2b9b9a1b7b73a3937b61d1030b1b1b7bab73a1604d1b81525f615e996017830185615e57565b7001034b99036b4b9b9b4b733903937b6329607d1b81526116e66011820185615e57565b634e487b7160e01b5f52603260045260245ffd5b5f81615edf57615edf615a92565b505f19019056fef17fce321dd9fb005136a80c0bfb3789e455b7a70be9eb8922f1ad20a80d1a339e2db63c5a9dc5d08222447d76570029e4f2f3074c8aa4f1c511fa658506c710fbde797d201c681b91056529119e0b02407c7bb96a4a2c75c01fc9667232c8db65d7a28e3265b37a6474929f336521b332c1681b933f6cb9f3376673440d862addf252ad1be2c89b69c2b068fc378daa952ba7f163c4a11628f55a4df523b3ef8c5be1e5ebec7d5bd14f71427d1e84f3dd0314c0f7b2291e5b200ac8c7c3b925dcbc1c05240f31ff3ad067ef1ee35ce4997762752e3a095284754544f4c709d7a264697066735822122048b8009205a9117aeb833e196aec94f9ce1242e51aa7b4159f3fdd56d566a3ff64736f6c634300081a0033",
  "storageLayout": {
    "storage": [
      {
        "astId": 416,
        "contract": "contracts/verified/VerifiedMarket.sol:VerifiedMarket",
        "label": "_initialized",
        "offset": 0,
        "slot": "0",
        "type": "t_uint8"
      },
      {
        "astId": 419,
        "contract": "contracts/verified/VerifiedMarket.sol:VerifiedMarket",
        "label": "_initializing",
        "offset": 1,
        "slot": "0",
        "type": "t_bool"
      },
      {
        "astId": 1086,
        "contract": "contracts/verified/VerifiedMarket.sol:VerifiedMarket",
        "label": "__gap",
        "offset": 0,
        "slot": "1",
        "type": "t_array(t_uint256)50_storage"
      },
      {
        "astId": 1360,
        "contract": "contracts/verified/VerifiedMarket.sol:VerifiedMarket",
        "label": "__gap",
        "offset": 0,
        "slot": "51",
        "type": "t_array(t_uint256)50_storage"
      },
      {
        "astId": 28,
        "contract": "contracts/verified/VerifiedMarket.sol:VerifiedMarket",
        "label": "_roles",
        "offset": 0,
        "slot": "101",
        "type": "t_mapping(t_bytes32,t_struct(RoleData)23_storage)"
      },
      {
        "astId": 335,
        "contract": "contracts/verified/VerifiedMarket.sol:VerifiedMarket",
        "label": "__gap",
        "offset": 0,
        "slot": "102",
        "type": "t_array(t_uint256)49_storage"
      },
      {
        "astId": 600,
        "contract": "contracts/verified/VerifiedMarket.sol:VerifiedMarket",
        "label": "_paused",
        "offset": 0,
        "slot": "151",
        "type": "t_bool"
      },
      {
        "astId": 705,
        "contract": "contracts/verified/VerifiedMarket.sol:VerifiedMarket",
        "label": "__gap",
        "offset": 0,
        "slot": "152",
        "type": "t_array(t_uint256)49_storage"
      },
      {
        "astId": 19350,
        "contract": "contracts/verified/VerifiedMarket.sol:VerifiedMarket",
        "label": "name",
        "offset": 0,
        "slot": "201",
        "type": "t_string_storage"
      },
      {
        "astId": 19352,
        "contract": "contracts/verified/VerifiedMarket.sol:VerifiedMarket",
        "label": "symbol",
        "offset": 0,
        "slot": "202",
        "type": "t_string_storage"
      },
      {
        "astId": 19356,
        "contract": "contracts/verified/VerifiedMarket.sol:VerifiedMarket",
        "label": "totalSupply",
        "offset": 0,
        "slot": "203",
        "type": "t_uint256"
      },
      {
        "astId": 19360,
        "contract": "contracts/verified/VerifiedMarket.sol:VerifiedMarket",
        "label": "balanceOf",
        "offset": 0,
        "slot": "204",
        "type": "t_mapping(t_address,t_uint256)"
      },
      {
        "astId": 19366,
        "contract": "contracts/verified/VerifiedMarket.sol:VerifiedMarket",
        "label": "allowance",
        "offset": 0,
        "slot": "205",
        "type": "t_mapping(t_address,t_mapping(t_address,t_uint256))"
      },
      {
        "astId": 19374,
        "contract": "contracts/verified/VerifiedMarket.sol:VerifiedMarket",
        "label": "nonces",
        "offset": 0,
        "slot": "206",
        "type": "t_mapping(t_address,t_uint256)"
      },
      {
        "astId": 9284,
        "contract": "contracts/verified/VerifiedMarket.sol:VerifiedMarket",
        "label": "fixedDepositPositions",
        "offset": 0,
        "slot": "207",
        "type": "t_mapping(t_uint256,t_mapping(t_address,t_struct(Position)17640_storage))"
      },
      {
        "astId": 9292,
        "contract": "contracts/verified/VerifiedMarket.sol:VerifiedMarket",
        "label": "fixedBorrowPositions",
        "offset": 0,
        "slot": "208",
        "type": "t_mapping(t_uint256,t_mapping(t_address,t_struct(Position)17640_storage))"
      },
      {
        "astId": 9298,
        "contract": "contracts/verified/VerifiedMarket.sol:VerifiedMarket",
        "label": "fixedPools",
        "offset": 0,
        "slot": "209",
        "type": "t_mapping(t_uint256,t_struct(Pool)17634_storage)"
      },
      {
        "astId": 9304,
        "contract": "contracts/verified/VerifiedMarket.sol:VerifiedMarket",
        "label": "accounts",
        "offset": 0,
        "slot": "210",
        "type": "t_mapping(t_address,t_struct(Account)13299_storage)"
      },
      {
        "astId": 9307,
        "contract": "contracts/verified/VerifiedMarket.sol:VerifiedMarket",
        "label": "floatingBackupBorrowed",
        "offset": 0,
        "slot": "211",
        "type": "t_uint256"
      },
      {
        "astId": 9310,
        "contract": "contracts/verified/VerifiedMarket.sol:VerifiedMarket",
        "label": "floatingDebt",
        "offset": 0,
        "slot": "212",
        "type": "t_uint256"
      },
      {
        "astId": 9313,
        "contract": "contracts/verified/VerifiedMarket.sol:VerifiedMarket",
        "label": "earningsAccumulator",
        "offset": 0,
        "slot": "213",
        "type": "t_uint256"
      },
      {
        "astId": 9316,
        "contract": "contracts/verified/VerifiedMarket.sol:VerifiedMarket",
        "label": "penaltyRate",
        "offset": 0,
        "slot": "214",
        "type": "t_uint256"
      },
      {
        "astId": 9319,
        "contract": "contracts/verified/VerifiedMarket.sol:VerifiedMarket",
        "label": "backupFeeRate",
        "offset": 0,
        "slot": "215",
        "type": "t_uint256"
      },
      {
        "astId": 9322,
        "contract": "contracts/verified/VerifiedMarket.sol:VerifiedMarket",
        "label": "dampSpeedUp",
        "offset": 0,
        "slot": "216",
        "type": "t_uint256"
      },
      {
        "astId": 9325,
        "contract": "contracts/verified/VerifiedMarket.sol:VerifiedMarket",
        "label": "dampSpeedDown",
        "offset": 0,
        "slot": "217",
        "type": "t_uint256"
      },
      {
        "astId": 9328,
        "contract": "contracts/verified/VerifiedMarket.sol:VerifiedMarket",
        "label": "maxFuturePools",
        "offset": 0,
        "slot": "218",
        "type": "t_uint8"
      },
      {
        "astId": 9331,
        "contract": "contracts/verified/VerifiedMarket.sol:VerifiedMarket",
        "label": "lastAccumulatorAccrual",
        "offset": 1,
        "slot": "218",
        "type": "t_uint32"
      },
      {
        "astId": 9334,
        "contract": "contracts/verified/VerifiedMarket.sol:VerifiedMarket",
        "label": "lastFloatingDebtUpdate",
        "offset": 5,
        "slot": "218",
        "type": "t_uint32"
      },
      {
        "astId": 9337,
        "contract": "contracts/verified/VerifiedMarket.sol:VerifiedMarket",
        "label": "lastAverageUpdate",
        "offset": 9,
        "slot": "218",
        "type": "t_uint32"
      },
      {
        "astId": 9341,
        "contract": "contracts/verified/VerifiedMarket.sol:VerifiedMarket",
        "label": "interestRateModel",
        "offset": 0,
        "slot": "219",
        "type": "t_contract(InterestRateModel)9168"
      },
      {
        "astId": 9344,
        "contract": "contracts/verified/VerifiedMarket.sol:VerifiedMarket",
        "label": "earningsAccumulatorSmoothFactor",
        "offset": 0,
        "slot": "220",
        "type": "t_uint128"
      },
      {
        "astId": 9347,
        "contract": "contracts/verified/VerifiedMarket.sol:VerifiedMarket",
        "label": "reserveFactor",
        "offset": 16,
        "slot": "220",
        "type": "t_uint128"
      },
      {
        "astId": 9350,
        "contract": "contracts/verified/VerifiedMarket.sol:VerifiedMarket",
        "label": "floatingAssets",
        "offset": 0,
        "slot": "221",
        "type": "t_uint256"
      },
      {
        "astId": 9353,
        "contract": "contracts/verified/VerifiedMarket.sol:VerifiedMarket",
        "label": "floatingAssetsAverage",
        "offset": 0,
        "slot": "222",
        "type": "t_uint256"
      },
      {
        "astId": 9356,
        "contract": "contracts/verified/VerifiedMarket.sol:VerifiedMarket",
        "label": "totalFloatingBorrowShares",
        "offset": 0,
        "slot": "223",
        "type": "t_uint256"
      },
      {
        "astId": 9359,
        "contract": "contracts/verified/VerifiedMarket.sol:VerifiedMarket",
        "label": "__gap",
        "offset": 0,
        "slot": "224",
        "type": "t_uint256"
      },
      {
        "astId": 9362,
        "contract": "contracts/verified/VerifiedMarket.sol:VerifiedMarket",
        "label": "treasury",
        "offset": 0,
        "slot": "225",
        "type": "t_address"
      },
      {
        "astId": 9365,
        "contract": "contracts/verified/VerifiedMarket.sol:VerifiedMarket",
        "label": "treasuryFeeRate",
        "offset": 0,
        "slot": "226",
        "type": "t_uint256"
      },
      {
        "astId": 9369,
        "contract": "contracts/verified/VerifiedMarket.sol:VerifiedMarket",
        "label": "_rewardsController",
        "offset": 0,
        "slot": "227",
        "type": "t_contract(RewardsController)16780"
      },
      {
        "astId": 9372,
        "contract": "contracts/verified/VerifiedMarket.sol:VerifiedMarket",
        "label": "isFrozen",
        "offset": 20,
        "slot": "227",
        "type": "t_bool"
      },
      {
        "astId": 9378,
        "contract": "contracts/verified/VerifiedMarket.sol:VerifiedMarket",
        "label": "fixedConsolidated",
        "offset": 0,
        "slot": "228",
        "type": "t_mapping(t_address,t_struct(FixedOps)13305_storage)"
      },
      {
        "astId": 9382,
        "contract": "contracts/verified/VerifiedMarket.sol:VerifiedMarket",
        "label": "fixedOps",
        "offset": 0,
        "slot": "229",
        "type": "t_struct(FixedOps)13305_storage"
      },
      {
        "astId": 18252,
        "contract": "contracts/verified/VerifiedMarket.sol:VerifiedMarket",
        "label": "lockedAssets",
        "offset": 0,
        "slot": "231",
        "type": "t_mapping(t_address,t_uint256)"
      }
    ],
    "types": {
      "t_address": {
        "encoding": "inplace",
        "label": "address",
        "numberOfBytes": "20"
      },
      "t_array(t_uint256)49_storage": {
        "base": "t_uint256",
        "encoding": "inplace",
        "label": "uint256[49]",
        "numberOfBytes": "1568"
      },
      "t_array(t_uint256)50_storage": {
        "base": "t_uint256",
        "encoding": "inplace",
        "label": "uint256[50]",
        "numberOfBytes": "1600"
      },
      "t_bool": {
        "encoding": "inplace",
        "label": "bool",
        "numberOfBytes": "1"
      },
      "t_bytes32": {
        "encoding": "inplace",
        "label": "bytes32",
        "numberOfBytes": "32"
      },
      "t_contract(InterestRateModel)9168": {
        "encoding": "inplace",
        "label": "contract InterestRateModel",
        "numberOfBytes": "20"
      },
      "t_contract(RewardsController)16780": {
        "encoding": "inplace",
        "label": "contract RewardsController",
        "numberOfBytes": "20"
      },
      "t_mapping(t_address,t_bool)": {
        "encoding": "mapping",
        "key": "t_address",
        "label": "mapping(address => bool)",
        "numberOfBytes": "32",
        "value": "t_bool"
      },
      "t_mapping(t_address,t_mapping(t_address,t_uint256))": {
        "encoding": "mapping",
        "key": "t_address",
        "label": "mapping(address => mapping(address => uint256))",
        "numberOfBytes": "32",
        "value": "t_mapping(t_address,t_uint256)"
      },
      "t_mapping(t_address,t_struct(Account)13299_storage)": {
        "encoding": "mapping",
        "key": "t_address",
        "label": "mapping(address => struct Market.Account)",
        "numberOfBytes": "32",
        "value": "t_struct(Account)13299_storage"
      },
      "t_mapping(t_address,t_struct(FixedOps)13305_storage)": {
        "encoding": "mapping",
        "key": "t_address",
        "label": "mapping(address => struct Market.FixedOps)",
        "numberOfBytes": "32",
        "value": "t_struct(FixedOps)13305_storage"
      },
      "t_mapping(t_address,t_struct(Position)17640_storage)": {
        "encoding": "mapping",
        "key": "t_address",
        "label": "mapping(address => struct FixedLib.Position)",
        "numberOfBytes": "32",
        "value": "t_struct(Position)17640_storage"
      },
      "t_mapping(t_address,t_uint256)": {
        "encoding": "mapping",
        "key": "t_address",
        "label": "mapping(address => uint256)",
        "numberOfBytes": "32",
        "value": "t_uint256"
      },
      "t_mapping(t_bytes32,t_struct(RoleData)23_storage)": {
        "encoding": "mapping",
        "key": "t_bytes32",
        "label": "mapping(bytes32 => struct AccessControlUpgradeable.RoleData)",
        "numberOfBytes": "32",
        "value": "t_struct(RoleData)23_storage"
      },
      "t_mapping(t_uint256,t_mapping(t_address,t_struct(Position)17640_storage))": {
        "encoding": "mapping",
        "key": "t_uint256",
        "label": "mapping(uint256 => mapping(address => struct FixedLib.Position))",
        "numberOfBytes": "32",
        "value": "t_mapping(t_address,t_struct(Position)17640_storage)"
      },
      "t_mapping(t_uint256,t_struct(Pool)17634_storage)": {
        "encoding": "mapping",
        "key": "t_uint256",
        "label": "mapping(uint256 => struct FixedLib.Pool)",
        "numberOfBytes": "32",
        "value": "t_struct(Pool)17634_storage"
      },
      "t_string_storage": {
        "encoding": "bytes",
        "label": "string",
        "numberOfBytes": "32"
      },
      "t_struct(Account)13299_storage": {
        "encoding": "inplace",
        "label": "struct Market.Account",
        "members": [
          {
            "astId": 13294,
            "contract": "contracts/verified/VerifiedMarket.sol:VerifiedMarket",
            "label": "fixedDeposits",
            "offset": 0,
            "slot": "0",
            "type": "t_uint256"
          },
          {
            "astId": 13296,
            "contract": "contracts/verified/VerifiedMarket.sol:VerifiedMarket",
            "label": "fixedBorrows",
            "offset": 0,
            "slot": "1",
            "type": "t_uint256"
          },
          {
            "astId": 13298,
            "contract": "contracts/verified/VerifiedMarket.sol:VerifiedMarket",
            "label": "floatingBorrowShares",
            "offset": 0,
            "slot": "2",
            "type": "t_uint256"
          }
        ],
        "numberOfBytes": "96"
      },
      "t_struct(FixedOps)13305_storage": {
        "encoding": "inplace",
        "label": "struct Market.FixedOps",
        "members": [
          {
            "astId": 13302,
            "contract": "contracts/verified/VerifiedMarket.sol:VerifiedMarket",
            "label": "deposits",
            "offset": 0,
            "slot": "0",
            "type": "t_uint256"
          },
          {
            "astId": 13304,
            "contract": "contracts/verified/VerifiedMarket.sol:VerifiedMarket",
            "label": "borrows",
            "offset": 0,
            "slot": "1",
            "type": "t_uint256"
          }
        ],
        "numberOfBytes": "64"
      },
      "t_struct(Pool)17634_storage": {
        "encoding": "inplace",
        "label": "struct FixedLib.Pool",
        "members": [
          {
            "astId": 17627,
            "contract": "contracts/verified/VerifiedMarket.sol:VerifiedMarket",
            "label": "borrowed",
            "offset": 0,
            "slot": "0",
            "type": "t_uint256"
          },
          {
            "astId": 17629,
            "contract": "contracts/verified/VerifiedMarket.sol:VerifiedMarket",
            "label": "supplied",
            "offset": 0,
            "slot": "1",
            "type": "t_uint256"
          },
          {
            "astId": 17631,
            "contract": "contracts/verified/VerifiedMarket.sol:VerifiedMarket",
            "label": "unassignedEarnings",
            "offset": 0,
            "slot": "2",
            "type": "t_uint256"
          },
          {
            "astId": 17633,
            "contract": "contracts/verified/VerifiedMarket.sol:VerifiedMarket",
            "label": "lastAccrual",
            "offset": 0,
            "slot": "3",
            "type": "t_uint256"
          }
        ],
        "numberOfBytes": "128"
      },
      "t_struct(Position)17640_storage": {
        "encoding": "inplace",
        "label": "struct FixedLib.Position",
        "members": [
          {
            "astId": 17637,
            "contract": "contracts/verified/VerifiedMarket.sol:VerifiedMarket",
            "label": "principal",
            "offset": 0,
            "slot": "0",
            "type": "t_uint256"
          },
          {
            "astId": 17639,
            "contract": "contracts/verified/VerifiedMarket.sol:VerifiedMarket",
            "label": "fee",
            "offset": 0,
            "slot": "1",
            "type": "t_uint256"
          }
        ],
        "numberOfBytes": "64"
      },
      "t_struct(RoleData)23_storage": {
        "encoding": "inplace",
        "label": "struct AccessControlUpgradeable.RoleData",
        "members": [
          {
            "astId": 20,
            "contract": "contracts/verified/VerifiedMarket.sol:VerifiedMarket",
            "label": "members",
            "offset": 0,
            "slot": "0",
            "type": "t_mapping(t_address,t_bool)"
          },
          {
            "astId": 22,
            "contract": "contracts/verified/VerifiedMarket.sol:VerifiedMarket",
            "label": "adminRole",
            "offset": 0,
            "slot": "1",
            "type": "t_bytes32"
          }
        ],
        "numberOfBytes": "64"
      },
      "t_uint128": {
        "encoding": "inplace",
        "label": "uint128",
        "numberOfBytes": "16"
      },
      "t_uint256": {
        "encoding": "inplace",
        "label": "uint256",
        "numberOfBytes": "32"
      },
      "t_uint32": {
        "encoding": "inplace",
        "label": "uint32",
        "numberOfBytes": "4"
      },
      "t_uint8": {
        "encoding": "inplace",
        "label": "uint8",
        "numberOfBytes": "1"
      }
    }
  }
}