{
  "address": "0x3F2FF762e33bbA4c97df56BC180F8818bD11AbED",
  "abi": [
    {
      "anonymous": false,
      "inputs": [
        {
          "indexed": true,
          "internalType": "address",
          "name": "owner",
          "type": "address"
        },
        {
          "indexed": true,
          "internalType": "address",
          "name": "spender",
          "type": "address"
        },
        {
          "indexed": false,
          "internalType": "uint256",
          "name": "amount",
          "type": "uint256"
        }
      ],
      "name": "Approval",
      "type": "event"
    },
    {
      "anonymous": false,
      "inputs": [
        {
          "indexed": true,
          "internalType": "address",
          "name": "from",
          "type": "address"
        },
        {
          "indexed": false,
          "internalType": "uint256",
          "name": "amount",
          "type": "uint256"
        }
      ],
      "name": "Deposit",
      "type": "event"
    },
    {
      "anonymous": false,
      "inputs": [
        {
          "indexed": true,
          "internalType": "address",
          "name": "from",
          "type": "address"
        },
        {
          "indexed": true,
          "internalType": "address",
          "name": "to",
          "type": "address"
        },
        {
          "indexed": false,
          "internalType": "uint256",
          "name": "amount",
          "type": "uint256"
        }
      ],
      "name": "Transfer",
      "type": "event"
    },
    {
      "anonymous": false,
      "inputs": [
        {
          "indexed": true,
          "internalType": "address",
          "name": "to",
          "type": "address"
        },
        {
          "indexed": false,
          "internalType": "uint256",
          "name": "amount",
          "type": "uint256"
        }
      ],
      "name": "Withdrawal",
      "type": "event"
    },
    {
      "inputs": [],
      "name": "DOMAIN_SEPARATOR",
      "outputs": [
        {
          "internalType": "bytes32",
          "name": "",
          "type": "bytes32"
        }
      ],
      "stateMutability": "view",
      "type": "function"
    },
    {
      "inputs": [
        {
          "internalType": "address",
          "name": "",
          "type": "address"
        },
        {
          "internalType": "address",
          "name": "",
          "type": "address"
        }
      ],
      "name": "allowance",
      "outputs": [
        {
          "internalType": "uint256",
          "name": "",
          "type": "uint256"
        }
      ],
      "stateMutability": "view",
      "type": "function"
    },
    {
      "inputs": [
        {
          "internalType": "address",
          "name": "spender",
          "type": "address"
        },
        {
          "internalType": "uint256",
          "name": "amount",
          "type": "uint256"
        }
      ],
      "name": "approve",
      "outputs": [
        {
          "internalType": "bool",
          "name": "",
          "type": "bool"
        }
      ],
      "stateMutability": "nonpayable",
      "type": "function"
    },
    {
      "inputs": [
        {
          "internalType": "address",
          "name": "",
          "type": "address"
        }
      ],
      "name": "balanceOf",
      "outputs": [
        {
          "internalType": "uint256",
          "name": "",
          "type": "uint256"
        }
      ],
      "stateMutability": "view",
      "type": "function"
    },
    {
      "inputs": [
        {
          "internalType": "address",
          "name": "from",
          "type": "address"
        },
        {
          "internalType": "uint256",
          "name": "value",
          "type": "uint256"
        }
      ],
      "name": "burn",
      "outputs": [],
      "stateMutability": "nonpayable",
      "type": "function"
    },
    {
      "inputs": [],
      "name": "decimals",
      "outputs": [
        {
          "internalType": "uint8",
          "name": "",
          "type": "uint8"
        }
      ],
      "stateMutability": "view",
      "type": "function"
    },
    {
      "inputs": [],
      "name": "deposit",
      "outputs": [],
      "stateMutability": "payable",
      "type": "function"
    },
    {
      "inputs": [
        {
          "internalType": "address",
          "name": "to",
          "type": "address"
        },
        {
          "internalType": "uint256",
          "name": "value",
          "type": "uint256"
        }
      ],
      "name": "mint",
      "outputs": [],
      "stateMutability": "nonpayable",
      "type": "function"
    },
    {
      "inputs": [],
      "name": "name",
      "outputs": [
        {
          "internalType": "string",
          "name": "",
          "type": "string"
        }
      ],
      "stateMutability": "view",
      "type": "function"
    },
    {
      "inputs": [
        {
          "internalType": "address",
          "name": "",
          "type": "address"
        }
      ],
      "name": "nonces",
      "outputs": [
        {
          "internalType": "uint256",
          "name": "",
          "type": "uint256"
        }
      ],
      "stateMutability": "view",
      "type": "function"
    },
    {
      "inputs": [
        {
          "internalType": "address",
          "name": "owner",
          "type": "address"
        },
        {
          "internalType": "address",
          "name": "spender",
          "type": "address"
        },
        {
          "internalType": "uint256",
          "name": "value",
          "type": "uint256"
        },
        {
          "internalType": "uint256",
          "name": "deadline",
          "type": "uint256"
        },
        {
          "internalType": "uint8",
          "name": "v",
          "type": "uint8"
        },
        {
          "internalType": "bytes32",
          "name": "r",
          "type": "bytes32"
        },
        {
          "internalType": "bytes32",
          "name": "s",
          "type": "bytes32"
        }
      ],
      "name": "permit",
      "outputs": [],
      "stateMutability": "nonpayable",
      "type": "function"
    },
    {
      "inputs": [],
      "name": "symbol",
      "outputs": [
        {
          "internalType": "string",
          "name": "",
          "type": "string"
        }
      ],
      "stateMutability": "view",
      "type": "function"
    },
    {
      "inputs": [],
      "name": "totalSupply",
      "outputs": [
        {
          "internalType": "uint256",
          "name": "",
          "type": "uint256"
        }
      ],
      "stateMutability": "view",
      "type": "function"
    },
    {
      "inputs": [
        {
          "internalType": "address",
          "name": "to",
          "type": "address"
        },
        {
          "internalType": "uint256",
          "name": "amount",
          "type": "uint256"
        }
      ],
      "name": "transfer",
      "outputs": [
        {
          "internalType": "bool",
          "name": "",
          "type": "bool"
        }
      ],
      "stateMutability": "nonpayable",
      "type": "function"
    },
    {
      "inputs": [
        {
          "internalType": "address",
          "name": "from",
          "type": "address"
        },
        {
          "internalType": "address",
          "name": "to",
          "type": "address"
        },
        {
          "internalType": "uint256",
          "name": "amount",
          "type": "uint256"
        }
      ],
      "name": "transferFrom",
      "outputs": [
        {
          "internalType": "bool",
          "name": "",
          "type": "bool"
        }
      ],
      "stateMutability": "nonpayable",
      "type": "function"
    },
    {
      "inputs": [
        {
          "internalType": "uint256",
          "name": "amount",
          "type": "uint256"
        }
      ],
      "name": "withdraw",
      "outputs": [],
      "stateMutability": "nonpayable",
      "type": "function"
    },
    {
      "stateMutability": "payable",
      "type": "receive"
    }
  ],
  "transactionHash": "0x2873121154f34f11c5b8ee415b586702b7ece3d8a18ba6afc0e990eb3c73616b",
  "args": [],
  "numDeployments": 1,
  "solcInputHash": "1efe89910a1006a79c00d1a1dd21a99c",
  "bytecode": "0x60e060405234801561000f575f80fd5b506040518060400160405280600d81526020016c2bb930b83832b21022ba3432b960991b815250604051806040016040528060048152602001630ae8aa8960e31b8152506012825f908161006391906101c0565b50600161007083826101c0565b5060ff81166080524660a052610084610090565b60c052506102eb915050565b5f7f8b73c3c69bb8fe3d512ecc4cf759cc79239f7b179b0ffacaa9a75d522b39400f5f6040516100c0919061027a565b6040805191829003822060208301939093528101919091527fc89efdaa54c0f20c7adf612882df0950f5a951637e0307cdcb4c672f298b8bc660608201524660808201523060a082015260c00160405160208183030381529060405280519060200120905090565b634e487b7160e01b5f52604160045260245ffd5b600181811c9082168061015057607f821691505b60208210810361016e57634e487b7160e01b5f52602260045260245ffd5b50919050565b601f8211156101bb57805f5260205f20601f840160051c810160208510156101995750805b601f840160051c820191505b818110156101b8575f81556001016101a5565b50505b505050565b81516001600160401b038111156101d9576101d9610128565b6101ed816101e7845461013c565b84610174565b6020601f82116001811461021f575f83156102085750848201515b5f19600385901b1c1916600184901b1784556101b8565b5f84815260208120601f198516915b8281101561024e578785015182556020948501946001909201910161022e565b508482101561026b57868401515f19600387901b60f8161c191681555b50505050600190811b01905550565b5f8083546102878161013c565b60018216801561029e57600181146102b3576102e0565b60ff19831686528115158202860193506102e0565b865f5260205f205f5b838110156102d8578154888201526001909101906020016102bc565b505081860193505b509195945050505050565b60805160a05160c051610cda6103155f395f6105e501525f6105b001525f6101d00152610cda5ff3fe6080604052600436106100f2575f3560e01c806370a0823111610087578063a9059cbb11610057578063a9059cbb146102c0578063d0e30db0146102df578063d505accf146102e7578063dd62ed3e14610306575f80fd5b806370a08231146102375780637ecebe001461026257806395d89b411461028d5780639dc29fac146102a1575f80fd5b80632e1a7d4d116100c25780632e1a7d4d146101a0578063313ce567146101bf5780633644e5151461020457806340c10f1914610218575f80fd5b806306fdde0314610105578063095ea7b31461012f57806318160ddd1461015e57806323b872dd14610181575f80fd5b36610101576100ff61033c565b005b5f80fd5b348015610110575f80fd5b5061011961037d565b6040516101269190610a0f565b60405180910390f35b34801561013a575f80fd5b5061014e610149366004610a5f565b610408565b6040519015158152602001610126565b348015610169575f80fd5b5061017360025481565b604051908152602001610126565b34801561018c575f80fd5b5061014e61019b366004610a87565b610474565b3480156101ab575f80fd5b506100ff6101ba366004610ac1565b610561565b3480156101ca575f80fd5b506101f27f000000000000000000000000000000000000000000000000000000000000000081565b60405160ff9091168152602001610126565b34801561020f575f80fd5b506101736105ad565b348015610223575f80fd5b506100ff610232366004610a5f565b610607565b348015610242575f80fd5b50610173610251366004610ad8565b60036020525f908152604090205481565b34801561026d575f80fd5b5061017361027c366004610ad8565b60056020525f908152604090205481565b348015610298575f80fd5b50610119610615565b3480156102ac575f80fd5b506100ff6102bb366004610a5f565b610622565b3480156102cb575f80fd5b5061014e6102da366004610a5f565b61062c565b6100ff61033c565b3480156102f2575f80fd5b506100ff610301366004610af8565b6106a2565b348015610311575f80fd5b50610173610320366004610b65565b600460209081525f928352604080842090915290825290205481565b6103463334610882565b60405134815233907fe1fffcc4923d04b559f4d29a8bfc6cda04eb5b0d3c460751c2402c5c5cc9109c9060200160405180910390a2565b5f805461038990610b96565b80601f01602080910402602001604051908101604052809291908181526020018280546103b590610b96565b80156104005780601f106103d757610100808354040283529160200191610400565b820191905f5260205f20905b8154815290600101906020018083116103e357829003601f168201915b505050505081565b335f8181526004602090815260408083206001600160a01b038716808552925280832085905551919290917f8c5be1e5ebec7d5bd14f71427d1e84f3dd0314c0f7b2291e5b200ac8c7c3b925906104629086815260200190565b60405180910390a35060015b92915050565b6001600160a01b0383165f9081526004602090815260408083203384529091528120545f1981146104cd576104a98382610be2565b6001600160a01b0386165f9081526004602090815260408083203384529091529020555b6001600160a01b0385165f90815260036020526040812080548592906104f4908490610be2565b90915550506001600160a01b038085165f81815260036020526040908190208054870190555190918716907fddf252ad1be2c89b69c2b068fc378daa952ba7f163c4a11628f55a4df523b3ef9061054e9087815260200190565b60405180910390a3506001949350505050565b61056b33826108ec565b60405181815233907f7fcf532c15f0a6db0bd6d0e038bea71d30d808c7d98cb3bf7268a95bf5081b659060200160405180910390a26105aa338261095e565b50565b5f7f000000000000000000000000000000000000000000000000000000000000000046146105e2576105dd610977565b905090565b507f000000000000000000000000000000000000000000000000000000000000000090565b6106118282610882565b5050565b6001805461038990610b96565b61061182826108ec565b335f9081526003602052604081208054839190839061064c908490610be2565b90915550506001600160a01b0383165f81815260036020526040908190208054850190555133907fddf252ad1be2c89b69c2b068fc378daa952ba7f163c4a11628f55a4df523b3ef906104629086815260200190565b428410156106ae575f80fd5b5f60016106b96105ad565b6001600160a01b038a81165f8181526005602090815260409182902080546001810190915582517f6e71edae12b1b97f4d1f60370fef10105fa2faae0126114a169c64845d6126c98184015280840194909452938d166060840152608083018c905260a083019390935260c08083018b90528151808403909101815260e0830190915280519201919091207f19010000000000000000000000000000000000000000000000000000000000006101008301526101028201929092526101228101919091526101420160408051601f1981840301815282825280516020918201205f84529083018083525260ff871690820152606081018590526080810184905260a0016020604051602081039080840390855afa1580156107dc573d5f803e3d5ffd5b5050604051601f1901519150506001600160a01b038116158015906108125750876001600160a01b0316816001600160a01b0316145b61081a575f80fd5b6001600160a01b039081165f9081526004602090815260408083208a8516808552908352928190208990555188815291928a16917f8c5be1e5ebec7d5bd14f71427d1e84f3dd0314c0f7b2291e5b200ac8c7c3b925910160405180910390a350505050505050565b8060025f8282546108939190610bf5565b90915550506001600160a01b0382165f818152600360209081526040808320805486019055518481527fddf252ad1be2c89b69c2b068fc378daa952ba7f163c4a11628f55a4df523b3ef91015b60405180910390a35050565b6001600160a01b0382165f9081526003602052604081208054839290610913908490610be2565b90915550506002805482900390556040518181525f906001600160a01b038416907fddf252ad1be2c89b69c2b068fc378daa952ba7f163c4a11628f55a4df523b3ef906020016108e0565b5f805f805f85875af1905080610972575f80fd5b505050565b5f7f8b73c3c69bb8fe3d512ecc4cf759cc79239f7b179b0ffacaa9a75d522b39400f5f6040516109a79190610c08565b6040805191829003822060208301939093528101919091527fc89efdaa54c0f20c7adf612882df0950f5a951637e0307cdcb4c672f298b8bc660608201524660808201523060a082015260c00160405160208183030381529060405280519060200120905090565b602081525f82518060208401528060208501604085015e5f604082850101526040601f19601f83011684010191505092915050565b80356001600160a01b0381168114610a5a575f80fd5b919050565b5f8060408385031215610a70575f80fd5b610a7983610a44565b946020939093013593505050565b5f805f60608486031215610a99575f80fd5b610aa284610a44565b9250610ab060208501610a44565b929592945050506040919091013590565b5f60208284031215610ad1575f80fd5b5035919050565b5f60208284031215610ae8575f80fd5b610af182610a44565b9392505050565b5f805f805f805f60e0888a031215610b0e575f80fd5b610b1788610a44565b9650610b2560208901610a44565b95506040880135945060608801359350608088013560ff81168114610b48575f80fd5b9699959850939692959460a0840135945060c09093013592915050565b5f8060408385031215610b76575f80fd5b610b7f83610a44565b9150610b8d60208401610a44565b90509250929050565b600181811c90821680610baa57607f821691505b602082108103610bc857634e487b7160e01b5f52602260045260245ffd5b50919050565b634e487b7160e01b5f52601160045260245ffd5b8181038181111561046e5761046e610bce565b8082018082111561046e5761046e610bce565b5f8083545f8160011c90506001821680610c2357607f821691505b602082108103610c4157634e487b7160e01b5f52602260045260245ffd5b808015610c555760018114610c6a57610c98565b60ff1984168752821515830287019450610c98565b5f888152602090205f5b84811015610c9057815489820152600190910190602001610c74565b505082870194505b5092969550505050505056fea26469706673582212202491c7688527000b853db2a2263ed11fcee7a40fd3e06e2c34730bc07947a62664736f6c634300081a0033",
  "devdoc": {
    "details": "Used only for testing purposes.",
    "kind": "dev",
    "methods": {},
    "version": 1
  },
  "userdoc": {
    "kind": "user",
    "methods": {},
    "version": 1
  },
  "storageLayout": {
    "storage": [
      {
        "astId": 48866,
        "contract": "contracts/mocks/MockWETH.sol:MockWETH",
        "label": "name",
        "offset": 0,
        "slot": "0",
        "type": "t_string_storage"
      },
      {
        "astId": 48868,
        "contract": "contracts/mocks/MockWETH.sol:MockWETH",
        "label": "symbol",
        "offset": 0,
        "slot": "1",
        "type": "t_string_storage"
      },
      {
        "astId": 48872,
        "contract": "contracts/mocks/MockWETH.sol:MockWETH",
        "label": "totalSupply",
        "offset": 0,
        "slot": "2",
        "type": "t_uint256"
      },
      {
        "astId": 48876,
        "contract": "contracts/mocks/MockWETH.sol:MockWETH",
        "label": "balanceOf",
        "offset": 0,
        "slot": "3",
        "type": "t_mapping(t_address,t_uint256)"
      },
      {
        "astId": 48882,
        "contract": "contracts/mocks/MockWETH.sol:MockWETH",
        "label": "allowance",
        "offset": 0,
        "slot": "4",
        "type": "t_mapping(t_address,t_mapping(t_address,t_uint256))"
      },
      {
        "astId": 48890,
        "contract": "contracts/mocks/MockWETH.sol:MockWETH",
        "label": "nonces",
        "offset": 0,
        "slot": "5",
        "type": "t_mapping(t_address,t_uint256)"
      }
    ],
    "types": {
      "t_address": {
        "encoding": "inplace",
        "label": "address",
        "numberOfBytes": "20"
      },
      "t_mapping(t_address,t_mapping(t_address,t_uint256))": {
        "encoding": "mapping",
        "key": "t_address",
        "label": "mapping(address => mapping(address => uint256))",
        "numberOfBytes": "32",
        "value": "t_mapping(t_address,t_uint256)"
      },
      "t_mapping(t_address,t_uint256)": {
        "encoding": "mapping",
        "key": "t_address",
        "label": "mapping(address => uint256)",
        "numberOfBytes": "32",
        "value": "t_uint256"
      },
      "t_string_storage": {
        "encoding": "bytes",
        "label": "string",
        "numberOfBytes": "32"
      },
      "t_uint256": {
        "encoding": "inplace",
        "label": "uint256",
        "numberOfBytes": "32"
      }
    }
  }
}