{
  "address": "0xaEE75012690E928CCbEd011b38C6035F2629Be83",
  "abi": [
    {
      "inputs": [
        {
          "internalType": "uint256",
          "name": "priceExpiration_",
          "type": "uint256"
        }
      ],
      "stateMutability": "nonpayable",
      "type": "constructor"
    },
    {
      "inputs": [],
      "name": "InvalidPrice",
      "type": "error"
    },
    {
      "inputs": [],
      "name": "InvalidSource",
      "type": "error"
    },
    {
      "anonymous": false,
      "inputs": [
        {
          "indexed": true,
          "internalType": "contract FixedLender",
          "name": "fixedLender",
          "type": "address"
        },
        {
          "indexed": true,
          "internalType": "contract AggregatorV2V3Interface",
          "name": "source",
          "type": "address"
        }
      ],
      "name": "AssetSourceSet",
      "type": "event"
    },
    {
      "anonymous": false,
      "inputs": [
        {
          "indexed": true,
          "internalType": "bytes32",
          "name": "role",
          "type": "bytes32"
        },
        {
          "indexed": true,
          "internalType": "bytes32",
          "name": "previousAdminRole",
          "type": "bytes32"
        },
        {
          "indexed": true,
          "internalType": "bytes32",
          "name": "newAdminRole",
          "type": "bytes32"
        }
      ],
      "name": "RoleAdminChanged",
      "type": "event"
    },
    {
      "anonymous": false,
      "inputs": [
        {
          "indexed": true,
          "internalType": "bytes32",
          "name": "role",
          "type": "bytes32"
        },
        {
          "indexed": true,
          "internalType": "address",
          "name": "account",
          "type": "address"
        },
        {
          "indexed": true,
          "internalType": "address",
          "name": "sender",
          "type": "address"
        }
      ],
      "name": "RoleGranted",
      "type": "event"
    },
    {
      "anonymous": false,
      "inputs": [
        {
          "indexed": true,
          "internalType": "bytes32",
          "name": "role",
          "type": "bytes32"
        },
        {
          "indexed": true,
          "internalType": "address",
          "name": "account",
          "type": "address"
        },
        {
          "indexed": true,
          "internalType": "address",
          "name": "sender",
          "type": "address"
        }
      ],
      "name": "RoleRevoked",
      "type": "event"
    },
    {
      "inputs": [],
      "name": "DEFAULT_ADMIN_ROLE",
      "outputs": [
        {
          "internalType": "bytes32",
          "name": "",
          "type": "bytes32"
        }
      ],
      "stateMutability": "view",
      "type": "function"
    },
    {
      "inputs": [],
      "name": "ORACLE_DECIMALS",
      "outputs": [
        {
          "internalType": "uint256",
          "name": "",
          "type": "uint256"
        }
      ],
      "stateMutability": "view",
      "type": "function"
    },
    {
      "inputs": [],
      "name": "TARGET_DECIMALS",
      "outputs": [
        {
          "internalType": "uint256",
          "name": "",
          "type": "uint256"
        }
      ],
      "stateMutability": "view",
      "type": "function"
    },
    {
      "inputs": [
        {
          "internalType": "contract FixedLender",
          "name": "",
          "type": "address"
        }
      ],
      "name": "assetsSources",
      "outputs": [
        {
          "internalType": "contract AggregatorV2V3Interface",
          "name": "",
          "type": "address"
        }
      ],
      "stateMutability": "view",
      "type": "function"
    },
    {
      "inputs": [
        {
          "internalType": "contract FixedLender",
          "name": "fixedLender",
          "type": "address"
        }
      ],
      "name": "getAssetPrice",
      "outputs": [
        {
          "internalType": "uint256",
          "name": "",
          "type": "uint256"
        }
      ],
      "stateMutability": "view",
      "type": "function"
    },
    {
      "inputs": [
        {
          "internalType": "bytes32",
          "name": "role",
          "type": "bytes32"
        }
      ],
      "name": "getRoleAdmin",
      "outputs": [
        {
          "internalType": "bytes32",
          "name": "",
          "type": "bytes32"
        }
      ],
      "stateMutability": "view",
      "type": "function"
    },
    {
      "inputs": [
        {
          "internalType": "bytes32",
          "name": "role",
          "type": "bytes32"
        },
        {
          "internalType": "address",
          "name": "account",
          "type": "address"
        }
      ],
      "name": "grantRole",
      "outputs": [],
      "stateMutability": "nonpayable",
      "type": "function"
    },
    {
      "inputs": [
        {
          "internalType": "bytes32",
          "name": "role",
          "type": "bytes32"
        },
        {
          "internalType": "address",
          "name": "account",
          "type": "address"
        }
      ],
      "name": "hasRole",
      "outputs": [
        {
          "internalType": "bool",
          "name": "",
          "type": "bool"
        }
      ],
      "stateMutability": "view",
      "type": "function"
    },
    {
      "inputs": [],
      "name": "priceExpiration",
      "outputs": [
        {
          "internalType": "uint256",
          "name": "",
          "type": "uint256"
        }
      ],
      "stateMutability": "view",
      "type": "function"
    },
    {
      "inputs": [
        {
          "internalType": "bytes32",
          "name": "role",
          "type": "bytes32"
        },
        {
          "internalType": "address",
          "name": "account",
          "type": "address"
        }
      ],
      "name": "renounceRole",
      "outputs": [],
      "stateMutability": "nonpayable",
      "type": "function"
    },
    {
      "inputs": [
        {
          "internalType": "bytes32",
          "name": "role",
          "type": "bytes32"
        },
        {
          "internalType": "address",
          "name": "account",
          "type": "address"
        }
      ],
      "name": "revokeRole",
      "outputs": [],
      "stateMutability": "nonpayable",
      "type": "function"
    },
    {
      "inputs": [
        {
          "internalType": "contract FixedLender",
          "name": "fixedLender",
          "type": "address"
        },
        {
          "internalType": "contract AggregatorV2V3Interface",
          "name": "source",
          "type": "address"
        }
      ],
      "name": "setAssetSource",
      "outputs": [],
      "stateMutability": "nonpayable",
      "type": "function"
    },
    {
      "inputs": [
        {
          "internalType": "bytes4",
          "name": "interfaceId",
          "type": "bytes4"
        }
      ],
      "name": "supportsInterface",
      "outputs": [
        {
          "internalType": "bool",
          "name": "",
          "type": "bool"
        }
      ],
      "stateMutability": "view",
      "type": "function"
    }
  ],
  "transactionHash": "0xe87ff563afb679cc06ec85f61762f3545fb769b9c0ef3e27ed6ef263f93421d8",
  "args": [
    "115792089237316195423570985008687907853269984665640564039457584007913129639935"
  ],
  "numDeployments": 1,
  "solcInputHash": "3885bcb2ff82e675bed0fcc39e7a5ac1",
  "bytecode": "0x60a060405234801561001057600080fd5b506040516111a73803806111a783398101604081905261002f916100e1565b61003a600033610042565b6080526100fa565b6000828152602081815260408083206001600160a01b038516845290915290205460ff166100dd576000828152602081815260408083206001600160a01b03851684529091529020805460ff1916600117905561009c3390565b6001600160a01b0316816001600160a01b0316837f2f8788117e7eff1d82e926ec794901d17c78024a50270940304540a733656f0d60405160405180910390a45b5050565b6000602082840312156100f357600080fd5b5051919050565b60805161108b61011c6000396000818161018501526105e6015261108b6000f3fe608060405234801561001057600080fd5b50600436106100df5760003560e01c806385d77e5f1161008c578063a217fddf11610066578063a217fddf146101f3578063b3596f07146101fb578063b4458df41461020e578063d547741f1461026957600080fd5b806385d77e5f146101805780638670588b146101a757806391d14854146101af57600080fd5b8063248a9ca3116100bd578063248a9ca3146101375780632f2ff15d1461015a57806336568abe1461016d57600080fd5b806301ffc9a7146100e45780630aa339f91461010c5780631ea1550214610121575b600080fd5b6100f76100f2366004610b6f565b61027c565b60405190151581526020015b60405180910390f35b61011f61011a366004610bd3565b610315565b005b610129600881565b604051908152602001610103565b610129610145366004610c0c565b60009081526020819052604090206001015490565b61011f610168366004610c25565b610448565b61011f61017b366004610c25565b610472565b6101297f000000000000000000000000000000000000000000000000000000000000000081565b610129601281565b6100f76101bd366004610c25565b60009182526020828152604080842073ffffffffffffffffffffffffffffffffffffffff93909316845291905290205460ff1690565b610129600081565b610129610209366004610c4a565b61052a565b61024461021c366004610c4a565b60016020526000908152604090205473ffffffffffffffffffffffffffffffffffffffff1681565b60405173ffffffffffffffffffffffffffffffffffffffff9091168152602001610103565b61011f610277366004610c25565b610659565b60007fffffffff0000000000000000000000000000000000000000000000000000000082167f7965db0b00000000000000000000000000000000000000000000000000000000148061030f57507f01ffc9a7000000000000000000000000000000000000000000000000000000007fffffffff000000000000000000000000000000000000000000000000000000008316145b92915050565b60006103208161067e565b60088273ffffffffffffffffffffffffffffffffffffffff1663313ce5676040518163ffffffff1660e01b8152600401602060405180830381865afa15801561036d573d6000803e3d6000fd5b505050506040513d601f19601f820116820180604052508101906103919190610c67565b60ff16146103cb576040517f8154374b00000000000000000000000000000000000000000000000000000000815260040160405180910390fd5b73ffffffffffffffffffffffffffffffffffffffff83811660008181526001602052604080822080547fffffffffffffffffffffffff0000000000000000000000000000000000000000169487169485179055517f3324bf6ce86fa9a55d26e825079402ab9f43fe64b1af5c51dbfce72d76b8a9989190a3505050565b6000828152602081905260409020600101546104638161067e565b61046d838361068b565b505050565b73ffffffffffffffffffffffffffffffffffffffff8116331461051c576040517f08c379a000000000000000000000000000000000000000000000000000000000815260206004820152602f60248201527f416363657373436f6e74726f6c3a2063616e206f6e6c792072656e6f756e636560448201527f20726f6c657320666f722073656c66000000000000000000000000000000000060648201526084015b60405180910390fd5b610526828261077b565b5050565b73ffffffffffffffffffffffffffffffffffffffff8082166000908152600160205260408082205481517ffeaf968c0000000000000000000000000000000000000000000000000000000081529151929384938493929091169163feaf968c9160048083019260a09291908290030181865afa1580156105ae573d6000803e3d6000fd5b505050506040513d601f19601f820116820180604052508101906105d29190610ca9565b5093505092505060008213801561061257507f000000000000000000000000000000000000000000000000000000000000000061060f8242610d28565b11155b156106285761062082610832565b949350505050565b6040517ebfc92100000000000000000000000000000000000000000000000000000000815260040160405180910390fd5b6000828152602081905260409020600101546106748161067e565b61046d838361077b565b6106888133610855565b50565b60008281526020818152604080832073ffffffffffffffffffffffffffffffffffffffff8516845290915290205460ff166105265760008281526020818152604080832073ffffffffffffffffffffffffffffffffffffffff85168452909152902080547fffffffffffffffffffffffffffffffffffffffffffffffffffffffffffffff0016600117905561071d3390565b73ffffffffffffffffffffffffffffffffffffffff168173ffffffffffffffffffffffffffffffffffffffff16837f2f8788117e7eff1d82e926ec794901d17c78024a50270940304540a733656f0d60405160405180910390a45050565b60008281526020818152604080832073ffffffffffffffffffffffffffffffffffffffff8516845290915290205460ff16156105265760008281526020818152604080832073ffffffffffffffffffffffffffffffffffffffff8516808552925280832080547fffffffffffffffffffffffffffffffffffffffffffffffffffffffffffffff0016905551339285917ff6391f5c32d9c69d2a47ea670b442974b53935d1edc7fd64eb21e047a839171b9190a45050565b600061084060086012610d28565b61084b90600a610e5f565b61030f9083610e6b565b60008281526020818152604080832073ffffffffffffffffffffffffffffffffffffffff8516845290915290205460ff16610526576108ab8173ffffffffffffffffffffffffffffffffffffffff166014610925565b6108b6836020610925565b6040516020016108c7929190610ed8565b604080517fffffffffffffffffffffffffffffffffffffffffffffffffffffffffffffffe0818403018152908290527f08c379a000000000000000000000000000000000000000000000000000000000825261051391600401610f59565b60606000610934836002610e6b565b61093f906002610faa565b67ffffffffffffffff81111561095757610957610fc2565b6040519080825280601f01601f191660200182016040528015610981576020820181803683370190505b5090507f3000000000000000000000000000000000000000000000000000000000000000816000815181106109b8576109b8610ff1565b60200101907effffffffffffffffffffffffffffffffffffffffffffffffffffffffffffff1916908160001a9053507f780000000000000000000000000000000000000000000000000000000000000081600181518110610a1b57610a1b610ff1565b60200101907effffffffffffffffffffffffffffffffffffffffffffffffffffffffffffff1916908160001a9053506000610a57846002610e6b565b610a62906001610faa565b90505b6001811115610aff577f303132333435363738396162636465660000000000000000000000000000000085600f1660108110610aa357610aa3610ff1565b1a60f81b828281518110610ab957610ab9610ff1565b60200101907effffffffffffffffffffffffffffffffffffffffffffffffffffffffffffff1916908160001a90535060049490941c93610af881611020565b9050610a65565b508315610b68576040517f08c379a000000000000000000000000000000000000000000000000000000000815260206004820181905260248201527f537472696e67733a20686578206c656e67746820696e73756666696369656e746044820152606401610513565b9392505050565b600060208284031215610b8157600080fd5b81357fffffffff0000000000000000000000000000000000000000000000000000000081168114610b6857600080fd5b73ffffffffffffffffffffffffffffffffffffffff8116811461068857600080fd5b60008060408385031215610be657600080fd5b8235610bf181610bb1565b91506020830135610c0181610bb1565b809150509250929050565b600060208284031215610c1e57600080fd5b5035919050565b60008060408385031215610c3857600080fd5b823591506020830135610c0181610bb1565b600060208284031215610c5c57600080fd5b8135610b6881610bb1565b600060208284031215610c7957600080fd5b815160ff81168114610b6857600080fd5b805169ffffffffffffffffffff81168114610ca457600080fd5b919050565b600080600080600060a08688031215610cc157600080fd5b610cca86610c8a565b9450602086015193506040860151925060608601519150610ced60808701610c8a565b90509295509295909350565b7f4e487b7100000000000000000000000000000000000000000000000000000000600052601160045260246000fd5b600082821015610d3a57610d3a610cf9565b500390565b600181815b80851115610d9857817fffffffffffffffffffffffffffffffffffffffffffffffffffffffffffffffff04821115610d7e57610d7e610cf9565b80851615610d8b57918102915b93841c9390800290610d44565b509250929050565b600082610daf5750600161030f565b81610dbc5750600061030f565b8160018114610dd25760028114610ddc57610df8565b600191505061030f565b60ff841115610ded57610ded610cf9565b50506001821b61030f565b5060208310610133831016604e8410600b8410161715610e1b575081810a61030f565b610e258383610d3f565b807fffffffffffffffffffffffffffffffffffffffffffffffffffffffffffffffff04821115610e5757610e57610cf9565b029392505050565b6000610b688383610da0565b6000817fffffffffffffffffffffffffffffffffffffffffffffffffffffffffffffffff0483118215151615610ea357610ea3610cf9565b500290565b60005b83811015610ec3578181015183820152602001610eab565b83811115610ed2576000848401525b50505050565b7f416363657373436f6e74726f6c3a206163636f756e7420000000000000000000815260008351610f10816017850160208801610ea8565b7f206973206d697373696e6720726f6c65200000000000000000000000000000006017918401918201528351610f4d816028840160208801610ea8565b01602801949350505050565b6020815260008251806020840152610f78816040850160208701610ea8565b601f017fffffffffffffffffffffffffffffffffffffffffffffffffffffffffffffffe0169190910160400192915050565b60008219821115610fbd57610fbd610cf9565b500190565b7f4e487b7100000000000000000000000000000000000000000000000000000000600052604160045260246000fd5b7f4e487b7100000000000000000000000000000000000000000000000000000000600052603260045260246000fd5b60008161102f5761102f610cf9565b507fffffffffffffffffffffffffffffffffffffffffffffffffffffffffffffffff019056fea2646970667358221220c96f6b58b7f4d6c0949dfb4ab279d6dc6b831ddf5f1c2b35f7ac0a4d5605640d64736f6c634300080d0033",
  "devdoc": {
    "events": {
      "AssetSourceSet(address,address)": {
        "params": {
          "fixedLender": "address of the asset used to get the price from this oracle.",
          "source": "address of Chainlink's Price Feed aggregator used to query the asset price in USD."
        }
      }
    },
    "kind": "dev",
    "methods": {
      "constructor": {
        "params": {
          "priceExpiration_": "The max delay time for Chainlink's prices to be considered as updated."
        }
      },
      "getAssetPrice(address)": {
        "details": "If Chainlink's asset price is <= 0 or the updatedAt time is outdated the call is reverted.",
        "params": {
          "fixedLender": "The FixedLender address of the asset."
        },
        "returns": {
          "_0": "The price of the asset scaled to 18-digit decimals."
        }
      },
      "getRoleAdmin(bytes32)": {
        "details": "Returns the admin role that controls `role`. See {grantRole} and {revokeRole}. To change a role's admin, use {_setRoleAdmin}."
      },
      "grantRole(bytes32,address)": {
        "details": "Grants `role` to `account`. If `account` had not been already granted `role`, emits a {RoleGranted} event. Requirements: - the caller must have ``role``'s admin role."
      },
      "hasRole(bytes32,address)": {
        "details": "Returns `true` if `account` has been granted `role`."
      },
      "renounceRole(bytes32,address)": {
        "details": "Revokes `role` from the calling account. Roles are often managed via {grantRole} and {revokeRole}: this function's purpose is to provide a mechanism for accounts to lose their privileges if they are compromised (such as when a trusted device is misplaced). If the calling account had been revoked `role`, emits a {RoleRevoked} event. Requirements: - the caller must be `account`."
      },
      "revokeRole(bytes32,address)": {
        "details": "Revokes `role` from `account`. If `account` had been granted `role`, emits a {RoleRevoked} event. Requirements: - the caller must have ``role``'s admin role."
      },
      "setAssetSource(address,address)": {
        "params": {
          "fixedLender": "The FixedLender address of the asset.",
          "source": "address of Chainlink's Price Feed aggregator used to query the asset price in USD."
        }
      },
      "supportsInterface(bytes4)": {
        "details": "See {IERC165-supportsInterface}."
      }
    },
    "title": "ExactlyOracle",
    "version": 1
  },
  "userdoc": {
    "events": {
      "AssetSourceSet(address,address)": {
        "notice": "Emitted when a FixedLender and source is changed by admin."
      }
    },
    "kind": "user",
    "methods": {
      "ORACLE_DECIMALS()": {
        "notice": "Chainlink's Price Feed precision when using USD as the base currency."
      },
      "TARGET_DECIMALS()": {
        "notice": "Auditor's target precision."
      },
      "constructor": {
        "notice": "Constructor."
      },
      "getAssetPrice(address)": {
        "notice": "Gets an asset price by FixedLender."
      },
      "setAssetSource(address,address)": {
        "notice": "Sets the Chainlink Price Feed Aggregator source for an asset."
      }
    },
    "notice": "Proxy to get the price of an asset from a price source (Chainlink Price Feed Aggregator).",
    "version": 1
  },
  "storageLayout": {
    "storage": [
      {
        "astId": 127,
        "contract": "contracts/ExactlyOracle.sol:ExactlyOracle",
        "label": "_roles",
        "offset": 0,
        "slot": "0",
        "type": "t_mapping(t_bytes32,t_struct(RoleData)122_storage)"
      },
      {
        "astId": 4851,
        "contract": "contracts/ExactlyOracle.sol:ExactlyOracle",
        "label": "assetsSources",
        "offset": 0,
        "slot": "1",
        "type": "t_mapping(t_contract(FixedLender)7711,t_contract(AggregatorV2V3Interface)56)"
      }
    ],
    "types": {
      "t_address": {
        "encoding": "inplace",
        "label": "address",
        "numberOfBytes": "20"
      },
      "t_bool": {
        "encoding": "inplace",
        "label": "bool",
        "numberOfBytes": "1"
      },
      "t_bytes32": {
        "encoding": "inplace",
        "label": "bytes32",
        "numberOfBytes": "32"
      },
      "t_contract(AggregatorV2V3Interface)56": {
        "encoding": "inplace",
        "label": "contract AggregatorV2V3Interface",
        "numberOfBytes": "20"
      },
      "t_contract(FixedLender)7711": {
        "encoding": "inplace",
        "label": "contract FixedLender",
        "numberOfBytes": "20"
      },
      "t_mapping(t_address,t_bool)": {
        "encoding": "mapping",
        "key": "t_address",
        "label": "mapping(address => bool)",
        "numberOfBytes": "32",
        "value": "t_bool"
      },
      "t_mapping(t_bytes32,t_struct(RoleData)122_storage)": {
        "encoding": "mapping",
        "key": "t_bytes32",
        "label": "mapping(bytes32 => struct AccessControl.RoleData)",
        "numberOfBytes": "32",
        "value": "t_struct(RoleData)122_storage"
      },
      "t_mapping(t_contract(FixedLender)7711,t_contract(AggregatorV2V3Interface)56)": {
        "encoding": "mapping",
        "key": "t_contract(FixedLender)7711",
        "label": "mapping(contract FixedLender => contract AggregatorV2V3Interface)",
        "numberOfBytes": "32",
        "value": "t_contract(AggregatorV2V3Interface)56"
      },
      "t_struct(RoleData)122_storage": {
        "encoding": "inplace",
        "label": "struct AccessControl.RoleData",
        "members": [
          {
            "astId": 119,
            "contract": "contracts/ExactlyOracle.sol:ExactlyOracle",
            "label": "members",
            "offset": 0,
            "slot": "0",
            "type": "t_mapping(t_address,t_bool)"
          },
          {
            "astId": 121,
            "contract": "contracts/ExactlyOracle.sol:ExactlyOracle",
            "label": "adminRole",
            "offset": 0,
            "slot": "1",
            "type": "t_bytes32"
          }
        ],
        "numberOfBytes": "64"
      }
    }
  }
}