{
  "address": "0x15C48E3dd78432E268D029E664f83879C357C1e5",
  "abi": [
    {
      "inputs": [
        {
          "internalType": "address",
          "name": "_priceOracleAddress",
          "type": "address"
        }
      ],
      "stateMutability": "nonpayable",
      "type": "constructor"
    },
    {
      "anonymous": false,
      "inputs": [
        {
          "indexed": false,
          "internalType": "contract IExafin",
          "name": "exafin",
          "type": "address"
        },
        {
          "indexed": false,
          "internalType": "address",
          "name": "account",
          "type": "address"
        }
      ],
      "name": "MarketEntered",
      "type": "event"
    },
    {
      "anonymous": false,
      "inputs": [
        {
          "indexed": true,
          "internalType": "address",
          "name": "previousOwner",
          "type": "address"
        },
        {
          "indexed": true,
          "internalType": "address",
          "name": "newOwner",
          "type": "address"
        }
      ],
      "name": "OwnershipTransferred",
      "type": "event"
    },
    {
      "inputs": [
        {
          "internalType": "address",
          "name": "",
          "type": "address"
        },
        {
          "internalType": "uint256",
          "name": "",
          "type": "uint256"
        }
      ],
      "name": "accountAssets",
      "outputs": [
        {
          "internalType": "contract IExafin",
          "name": "",
          "type": "address"
        }
      ],
      "stateMutability": "view",
      "type": "function"
    },
    {
      "inputs": [
        {
          "internalType": "address",
          "name": "exafin",
          "type": "address"
        },
        {
          "internalType": "uint256",
          "name": "collateralFactor",
          "type": "uint256"
        }
      ],
      "name": "enableMarket",
      "outputs": [],
      "stateMutability": "nonpayable",
      "type": "function"
    },
    {
      "inputs": [
        {
          "internalType": "address[]",
          "name": "exafins",
          "type": "address[]"
        }
      ],
      "name": "enterMarkets",
      "outputs": [
        {
          "internalType": "uint256[]",
          "name": "",
          "type": "uint256[]"
        }
      ],
      "stateMutability": "nonpayable",
      "type": "function"
    },
    {
      "inputs": [
        {
          "internalType": "address",
          "name": "account",
          "type": "address"
        },
        {
          "internalType": "uint256",
          "name": "maturityDate",
          "type": "uint256"
        }
      ],
      "name": "getAccountLiquidity",
      "outputs": [
        {
          "internalType": "uint256",
          "name": "",
          "type": "uint256"
        },
        {
          "internalType": "uint256",
          "name": "",
          "type": "uint256"
        },
        {
          "internalType": "uint256",
          "name": "",
          "type": "uint256"
        }
      ],
      "stateMutability": "view",
      "type": "function"
    },
    {
      "inputs": [
        {
          "internalType": "address",
          "name": "",
          "type": "address"
        }
      ],
      "name": "markets",
      "outputs": [
        {
          "internalType": "bool",
          "name": "isListed",
          "type": "bool"
        },
        {
          "internalType": "uint256",
          "name": "collateralFactor",
          "type": "uint256"
        }
      ],
      "stateMutability": "view",
      "type": "function"
    },
    {
      "inputs": [],
      "name": "owner",
      "outputs": [
        {
          "internalType": "address",
          "name": "",
          "type": "address"
        }
      ],
      "stateMutability": "view",
      "type": "function"
    },
    {
      "inputs": [],
      "name": "renounceOwnership",
      "outputs": [],
      "stateMutability": "nonpayable",
      "type": "function"
    },
    {
      "inputs": [
        {
          "internalType": "address",
          "name": "_priceOracleAddress",
          "type": "address"
        }
      ],
      "name": "setOracle",
      "outputs": [],
      "stateMutability": "nonpayable",
      "type": "function"
    },
    {
      "inputs": [
        {
          "internalType": "address",
          "name": "newOwner",
          "type": "address"
        }
      ],
      "name": "transferOwnership",
      "outputs": [],
      "stateMutability": "nonpayable",
      "type": "function"
    }
  ],
  "transactionHash": "0x376a7d5ec04ab3715cd01b15a4a160b656e0b0a4714cdb4761eae147541ee276",
  "args": [
    "0x6d2299c48a8dd07a872fdd0f8233924872ad1071"
  ],
  "solcInputHash": "26eff0c182b74e7350e8ed1ffccff940",
  "bytecode": "0x60806040523480156200001157600080fd5b5060405162001afb38038062001afb83398181016040528101906200003791906200014e565b6000620000496200012f60201b60201c565b9050806000806101000a81548173ffffffffffffffffffffffffffffffffffffffff021916908373ffffffffffffffffffffffffffffffffffffffff1602179055508073ffffffffffffffffffffffffffffffffffffffff16600073ffffffffffffffffffffffffffffffffffffffff167f8be0079c531659141344cd1fd0a4f28419497f9722a3daafe3b4186f6b6457e060405160405180910390a35080600360006101000a81548173ffffffffffffffffffffffffffffffffffffffff021916908373ffffffffffffffffffffffffffffffffffffffff16021790555050620001c8565b600033905090565b6000815190506200014881620001ae565b92915050565b6000602082840312156200016157600080fd5b6000620001718482850162000137565b91505092915050565b600062000187826200018e565b9050919050565b600073ffffffffffffffffffffffffffffffffffffffff82169050919050565b620001b9816200017a565b8114620001c557600080fd5b50565b61192380620001d86000396000f3fe608060405234801561001057600080fd5b50600436106100935760003560e01c80638e8f294b116100665780638e8f294b146100f85780639e35e14214610129578063c29982381461015b578063dce154491461018b578063f2fde38b146101bb57610093565b806301823bb114610098578063715018a6146100b45780637adbf973146100be5780638da5cb5b146100da575b600080fd5b6100b260048036038101906100ad9190611128565b6101d7565b005b6100bc6102c1565b005b6100d860048036038101906100d391906110ff565b6103fb565b005b6100e26104bb565b6040516100ef9190611402565b60405180910390f35b610112600480360381019061010d91906110ff565b6104e4565b604051610120929190611468565b60405180910390f35b610143600480360381019061013e9190611128565b610515565b60405161015293929190611537565b60405180910390f35b61017560048036038101906101709190611164565b61057e565b6040516101829190611446565b60405180910390f35b6101a560048036038101906101a09190611128565b6106ff565b6040516101b29190611491565b60405180910390f35b6101d560048036038101906101d091906110ff565b61074d565b005b6101df6108f6565b73ffffffffffffffffffffffffffffffffffffffff166101fd6104bb565b73ffffffffffffffffffffffffffffffffffffffff1614610253576040517f08c379a000000000000000000000000000000000000000000000000000000000815260040161024a90611517565b60405180910390fd5b6000600160008473ffffffffffffffffffffffffffffffffffffffff1673ffffffffffffffffffffffffffffffffffffffff168152602001908152602001600020905060018160000160006101000a81548160ff021916908315150217905550818160010181905550505050565b6102c96108f6565b73ffffffffffffffffffffffffffffffffffffffff166102e76104bb565b73ffffffffffffffffffffffffffffffffffffffff161461033d576040517f08c379a000000000000000000000000000000000000000000000000000000000815260040161033490611517565b60405180910390fd5b600073ffffffffffffffffffffffffffffffffffffffff1660008054906101000a900473ffffffffffffffffffffffffffffffffffffffff1673ffffffffffffffffffffffffffffffffffffffff167f8be0079c531659141344cd1fd0a4f28419497f9722a3daafe3b4186f6b6457e060405160405180910390a360008060006101000a81548173ffffffffffffffffffffffffffffffffffffffff021916908373ffffffffffffffffffffffffffffffffffffffff160217905550565b6104036108f6565b73ffffffffffffffffffffffffffffffffffffffff166104216104bb565b73ffffffffffffffffffffffffffffffffffffffff1614610477576040517f08c379a000000000000000000000000000000000000000000000000000000000815260040161046e90611517565b60405180910390fd5b80600360006101000a81548173ffffffffffffffffffffffffffffffffffffffff021916908373ffffffffffffffffffffffffffffffffffffffff16021790555050565b60008060009054906101000a900473ffffffffffffffffffffffffffffffffffffffff16905090565b60016020528060005260406000206000915090508060000160009054906101000a900460ff16908060010154905082565b60008060008060008061052d888860008060006108fe565b92509250925082600381111561056c577f4e487b7100000000000000000000000000000000000000000000000000000000600052602160045260246000fd5b82829550955095505050509250925092565b6060600083839050905060008167ffffffffffffffff8111156105ca577f4e487b7100000000000000000000000000000000000000000000000000000000600052604160045260246000fd5b6040519080825280602002602001820160405280156105f85781602001602082028036833780820191505090505b50905060005b828110156106f3576000868683818110610641577f4e487b7100000000000000000000000000000000000000000000000000000000600052603260045260246000fd5b905060200201602081019061065691906110ff565b90506106628133610d85565b600381111561069a577f4e487b7100000000000000000000000000000000000000000000000000000000600052602160045260246000fd5b8383815181106106d3577f4e487b7100000000000000000000000000000000000000000000000000000000600052603260045260246000fd5b6020026020010181815250505080806106eb906117d8565b9150506105fe565b50809250505092915050565b6002602052816000526040600020818154811061071b57600080fd5b906000526020600020016000915091509054906101000a900473ffffffffffffffffffffffffffffffffffffffff1681565b6107556108f6565b73ffffffffffffffffffffffffffffffffffffffff166107736104bb565b73ffffffffffffffffffffffffffffffffffffffff16146107c9576040517f08c379a00000000000000000000000000000000000000000000000000000000081526004016107c090611517565b60405180910390fd5b600073ffffffffffffffffffffffffffffffffffffffff168173ffffffffffffffffffffffffffffffffffffffff161415610839576040517f08c379a0000000000000000000000000000000000000000000000000000000008152600401610830906114f7565b60405180910390fd5b8073ffffffffffffffffffffffffffffffffffffffff1660008054906101000a900473ffffffffffffffffffffffffffffffffffffffff1673ffffffffffffffffffffffffffffffffffffffff167f8be0079c531659141344cd1fd0a4f28419497f9722a3daafe3b4186f6b6457e060405160405180910390a3806000806101000a81548173ffffffffffffffffffffffffffffffffffffffff021916908373ffffffffffffffffffffffffffffffffffffffff16021790555050565b600033905090565b600080600061090b610fd8565b600080600260008c73ffffffffffffffffffffffffffffffffffffffff1673ffffffffffffffffffffffffffffffffffffffff1681526020019081526020016000208054806020026020016040519081016040528092919081815260200182805480156109cd57602002820191906000526020600020905b8160009054906101000a900473ffffffffffffffffffffffffffffffffffffffff1673ffffffffffffffffffffffffffffffffffffffff1681526020019060010190808311610983575b5050505050905060005b8151811015610d21576000828281518110610a1b577f4e487b7100000000000000000000000000000000000000000000000000000000600052603260045260246000fd5b602002602001015190508073ffffffffffffffffffffffffffffffffffffffff166355a1ac2e8e8e6040518363ffffffff1660e01b8152600401610a6092919061141d565b60606040518083038186803b158015610a7857600080fd5b505afa158015610a8c573d6000803e3d6000fd5b505050506040513d601f19601f82011682018060405250810190610ab09190611213565b8760000188602001828152508281525082965050505060008414610ae35760026000809750975097505050505050610d7a565b600160008273ffffffffffffffffffffffffffffffffffffffff1673ffffffffffffffffffffffffffffffffffffffff16815260200190815260200160002060010154856040018181525050600360009054906101000a900473ffffffffffffffffffffffffffffffffffffffff1673ffffffffffffffffffffffffffffffffffffffff1663fe2c61988273ffffffffffffffffffffffffffffffffffffffff16636c02a9316040518163ffffffff1660e01b815260040160006040518083038186803b158015610bb357600080fd5b505afa158015610bc7573d6000803e3d6000fd5b505050506040513d6000823e3d601f19601f82011682018060405250810190610bf091906111a9565b6040518263ffffffff1660e01b8152600401610c0c91906114d5565b60206040518083038186803b158015610c2457600080fd5b505afa158015610c38573d6000803e3d6000fd5b505050506040513d601f19601f82011682018060405250810190610c5c91906111ea565b856060018181525050600085606001511415610c875760036000809750975097505050505050610d7a565b8460800151610cc28660600151620f4240610cb389604001518a60000151610f8d90919063ffffffff16565b610fb69092919063ffffffff16565b610ccc9190611624565b8560800181815250508460a00151610cfa8660600151620f42408860200151610fb69092919063ffffffff16565b610d049190611624565b8560a0018181525050508080610d19906117d8565b9150506109d7565b508260a0015183608001511115610d585760018360a001518460800151610d489190611705565b6000955095509550505050610d7a565b6001600084608001518560a00151610d709190611705565b9550955095505050505b955095509592505050565b600080600160008573ffffffffffffffffffffffffffffffffffffffff1673ffffffffffffffffffffffffffffffffffffffff16815260200190815260200160002090508060000160009054906101000a900460ff16610de9576000915050610f87565b600115158160020160008573ffffffffffffffffffffffffffffffffffffffff1673ffffffffffffffffffffffffffffffffffffffff16815260200190815260200160002060009054906101000a900460ff1615151415610e4e576001915050610f87565b60018160020160008573ffffffffffffffffffffffffffffffffffffffff1673ffffffffffffffffffffffffffffffffffffffff16815260200190815260200160002060006101000a81548160ff021916908315150217905550600260008473ffffffffffffffffffffffffffffffffffffffff1673ffffffffffffffffffffffffffffffffffffffff168152602001908152602001600020849080600181540180825580915050600190039060005260206000200160009091909190916101000a81548173ffffffffffffffffffffffffffffffffffffffff021916908373ffffffffffffffffffffffffffffffffffffffff1602179055507f3ab23ab0d51cccc0c3085aec51f99228625aa1a922b3a8ca89a26b0f2027a1a58484604051610f799291906114ac565b60405180910390a160019150505b92915050565b6000670de0b6b3a76400008284610fa491906116ab565b610fae919061167a565b905092915050565b6000818385610fc591906116ab565b610fcf919061167a565b90509392505050565b6040518060c001604052806000815260200160008152602001600081526020016000815260200160008152602001600081525090565b600061102161101c8461159f565b61156e565b90508281526020810184848401111561103957600080fd5b6110448482856117a5565b509392505050565b60008135905061105b816118bf565b92915050565b60008083601f84011261107357600080fd5b8235905067ffffffffffffffff81111561108c57600080fd5b6020830191508360208202830111156110a457600080fd5b9250929050565b600082601f8301126110bc57600080fd5b81516110cc84826020860161100e565b91505092915050565b6000813590506110e4816118d6565b92915050565b6000815190506110f9816118d6565b92915050565b60006020828403121561111157600080fd5b600061111f8482850161104c565b91505092915050565b6000806040838503121561113b57600080fd5b60006111498582860161104c565b925050602061115a858286016110d5565b9150509250929050565b6000806020838503121561117757600080fd5b600083013567ffffffffffffffff81111561119157600080fd5b61119d85828601611061565b92509250509250929050565b6000602082840312156111bb57600080fd5b600082015167ffffffffffffffff8111156111d557600080fd5b6111e1848285016110ab565b91505092915050565b6000602082840312156111fc57600080fd5b600061120a848285016110ea565b91505092915050565b60008060006060848603121561122857600080fd5b6000611236868287016110ea565b9350506020611247868287016110ea565b9250506040611258868287016110ea565b9150509250925092565b600061126e83836113e4565b60208301905092915050565b61128381611739565b82525050565b6000611294826115df565b61129e8185611602565b93506112a9836115cf565b8060005b838110156112da5781516112c18882611262565b97506112cc836115f5565b9250506001810190506112ad565b5085935050505092915050565b6112f08161174b565b82525050565b6112ff81611781565b82525050565b6000611310826115ea565b61131a8185611613565b935061132a8185602086016117a5565b611333816118ae565b840191505092915050565b600061134b602683611613565b91507f4f776e61626c653a206e6577206f776e657220697320746865207a65726f206160008301527f64647265737300000000000000000000000000000000000000000000000000006020830152604082019050919050565b60006113b1602083611613565b91507f4f776e61626c653a2063616c6c6572206973206e6f7420746865206f776e65726000830152602082019050919050565b6113ed81611777565b82525050565b6113fc81611777565b82525050565b6000602082019050611417600083018461127a565b92915050565b6000604082019050611432600083018561127a565b61143f60208301846113f3565b9392505050565b600060208201905081810360008301526114608184611289565b905092915050565b600060408201905061147d60008301856112e7565b61148a60208301846113f3565b9392505050565b60006020820190506114a660008301846112f6565b92915050565b60006040820190506114c160008301856112f6565b6114ce602083018461127a565b9392505050565b600060208201905081810360008301526114ef8184611305565b905092915050565b600060208201905081810360008301526115108161133e565b9050919050565b60006020820190508181036000830152611530816113a4565b9050919050565b600060608201905061154c60008301866113f3565b61155960208301856113f3565b61156660408301846113f3565b949350505050565b6000604051905081810181811067ffffffffffffffff821117156115955761159461187f565b5b8060405250919050565b600067ffffffffffffffff8211156115ba576115b961187f565b5b601f19601f8301169050602081019050919050565b6000819050602082019050919050565b600081519050919050565b600081519050919050565b6000602082019050919050565b600082825260208201905092915050565b600082825260208201905092915050565b600061162f82611777565b915061163a83611777565b9250827fffffffffffffffffffffffffffffffffffffffffffffffffffffffffffffffff0382111561166f5761166e611821565b5b828201905092915050565b600061168582611777565b915061169083611777565b9250826116a05761169f611850565b5b828204905092915050565b60006116b682611777565b91506116c183611777565b9250817fffffffffffffffffffffffffffffffffffffffffffffffffffffffffffffffff04831182151516156116fa576116f9611821565b5b828202905092915050565b600061171082611777565b915061171b83611777565b92508282101561172e5761172d611821565b5b828203905092915050565b600061174482611757565b9050919050565b60008115159050919050565b600073ffffffffffffffffffffffffffffffffffffffff82169050919050565b6000819050919050565b600061178c82611793565b9050919050565b600061179e82611757565b9050919050565b60005b838110156117c35780820151818401526020810190506117a8565b838111156117d2576000848401525b50505050565b60006117e382611777565b91507fffffffffffffffffffffffffffffffffffffffffffffffffffffffffffffffff82141561181657611815611821565b5b600182019050919050565b7f4e487b7100000000000000000000000000000000000000000000000000000000600052601160045260246000fd5b7f4e487b7100000000000000000000000000000000000000000000000000000000600052601260045260246000fd5b7f4e487b7100000000000000000000000000000000000000000000000000000000600052604160045260246000fd5b6000601f19601f8301169050919050565b6118c881611739565b81146118d357600080fd5b50565b6118df81611777565b81146118ea57600080fd5b5056fea2646970667358221220ed180b94f06d877c89981ad11458038dffe07a2b66963b6dfd11028328ad1b9764736f6c63430008000033",
  "devdoc": {
    "kind": "dev",
    "methods": {
      "enableMarket(address,uint256)": {
        "details": "Function to enable a certain Exafin market to be used as collateral",
        "params": {
          "collateralFactor": "exafin's collateral factor for the underlying asset",
          "exafin": "address to add to the protocol"
        }
      },
      "enterMarkets(address[])": {
        "details": "Allows wallet to enter certain markets (exafinDAI, exafinETH, etc) By performing this action, the wallet's money could be used as collateral",
        "params": {
          "exafins": "contracts addresses to enable for `msg.sender`"
        }
      },
      "getAccountLiquidity(address,uint256)": {
        "details": "Function to get account's liquidity for a certain maturity pool",
        "params": {
          "account": "wallet to retrieve liquidity for a certain maturity date",
          "maturityDate": "timestamp to calculate maturity's pool"
        }
      },
      "owner()": {
        "details": "Returns the address of the current owner."
      },
      "renounceOwnership()": {
        "details": "Leaves the contract without owner. It will not be possible to call `onlyOwner` functions anymore. Can only be called by the current owner. NOTE: Renouncing ownership will leave the contract without an owner, thereby removing any functionality that is only available to the owner."
      },
      "transferOwnership(address)": {
        "details": "Transfers ownership of the contract to a new account (`newOwner`). Can only be called by the current owner."
      }
    },
    "version": 1
  },
  "userdoc": {
    "kind": "user",
    "methods": {},
    "version": 1
  },
  "storageLayout": {
    "storage": [
      {
        "astId": 7,
        "contract": "contracts/ExaFront.sol:ExaFront",
        "label": "_owner",
        "offset": 0,
        "slot": "0",
        "type": "t_address"
      },
      {
        "astId": 785,
        "contract": "contracts/ExaFront.sol:ExaFront",
        "label": "markets",
        "offset": 0,
        "slot": "1",
        "type": "t_mapping(t_address,t_struct(Market)800_storage)"
      },
      {
        "astId": 791,
        "contract": "contracts/ExaFront.sol:ExaFront",
        "label": "accountAssets",
        "offset": 0,
        "slot": "2",
        "type": "t_mapping(t_address,t_array(t_contract(IExafin)1294)dyn_storage)"
      },
      {
        "astId": 821,
        "contract": "contracts/ExaFront.sol:ExaFront",
        "label": "oracle",
        "offset": 0,
        "slot": "3",
        "type": "t_contract(Oracle)1304"
      }
    ],
    "types": {
      "t_address": {
        "encoding": "inplace",
        "label": "address",
        "numberOfBytes": "20"
      },
      "t_array(t_contract(IExafin)1294)dyn_storage": {
        "base": "t_contract(IExafin)1294",
        "encoding": "dynamic_array",
        "label": "contract IExafin[]",
        "numberOfBytes": "32"
      },
      "t_bool": {
        "encoding": "inplace",
        "label": "bool",
        "numberOfBytes": "1"
      },
      "t_contract(IExafin)1294": {
        "encoding": "inplace",
        "label": "contract IExafin",
        "numberOfBytes": "20"
      },
      "t_contract(Oracle)1304": {
        "encoding": "inplace",
        "label": "contract Oracle",
        "numberOfBytes": "20"
      },
      "t_mapping(t_address,t_array(t_contract(IExafin)1294)dyn_storage)": {
        "encoding": "mapping",
        "key": "t_address",
        "label": "mapping(address => contract IExafin[])",
        "numberOfBytes": "32",
        "value": "t_array(t_contract(IExafin)1294)dyn_storage"
      },
      "t_mapping(t_address,t_bool)": {
        "encoding": "mapping",
        "key": "t_address",
        "label": "mapping(address => bool)",
        "numberOfBytes": "32",
        "value": "t_bool"
      },
      "t_mapping(t_address,t_struct(Market)800_storage)": {
        "encoding": "mapping",
        "key": "t_address",
        "label": "mapping(address => struct ExaFront.Market)",
        "numberOfBytes": "32",
        "value": "t_struct(Market)800_storage"
      },
      "t_struct(Market)800_storage": {
        "encoding": "inplace",
        "label": "struct ExaFront.Market",
        "members": [
          {
            "astId": 793,
            "contract": "contracts/ExaFront.sol:ExaFront",
            "label": "isListed",
            "offset": 0,
            "slot": "0",
            "type": "t_bool"
          },
          {
            "astId": 795,
            "contract": "contracts/ExaFront.sol:ExaFront",
            "label": "collateralFactor",
            "offset": 0,
            "slot": "1",
            "type": "t_uint256"
          },
          {
            "astId": 799,
            "contract": "contracts/ExaFront.sol:ExaFront",
            "label": "accountMembership",
            "offset": 0,
            "slot": "2",
            "type": "t_mapping(t_address,t_bool)"
          }
        ],
        "numberOfBytes": "96"
      },
      "t_uint256": {
        "encoding": "inplace",
        "label": "uint256",
        "numberOfBytes": "32"
      }
    }
  }
}