{
  "address": "0x934CF721f5DD02594b6e97dff0C15EC3320133E0",
  "abi": [
    {
      "inputs": [
        {
          "internalType": "address",
          "name": "_priceOracleAddress",
          "type": "address"
        }
      ],
      "stateMutability": "nonpayable",
      "type": "constructor"
    },
    {
      "anonymous": false,
      "inputs": [
        {
          "indexed": false,
          "internalType": "address",
          "name": "exafin",
          "type": "address"
        },
        {
          "indexed": false,
          "internalType": "string",
          "name": "action",
          "type": "string"
        },
        {
          "indexed": false,
          "internalType": "bool",
          "name": "paused",
          "type": "bool"
        }
      ],
      "name": "ActionPaused",
      "type": "event"
    },
    {
      "anonymous": false,
      "inputs": [
        {
          "indexed": false,
          "internalType": "contract IExafin",
          "name": "exafin",
          "type": "address"
        },
        {
          "indexed": false,
          "internalType": "address",
          "name": "account",
          "type": "address"
        }
      ],
      "name": "MarketEntered",
      "type": "event"
    },
    {
      "anonymous": false,
      "inputs": [
        {
          "indexed": true,
          "internalType": "address",
          "name": "previousOwner",
          "type": "address"
        },
        {
          "indexed": true,
          "internalType": "address",
          "name": "newOwner",
          "type": "address"
        }
      ],
      "name": "OwnershipTransferred",
      "type": "event"
    },
    {
      "inputs": [
        {
          "internalType": "address",
          "name": "",
          "type": "address"
        },
        {
          "internalType": "uint256",
          "name": "",
          "type": "uint256"
        }
      ],
      "name": "accountAssets",
      "outputs": [
        {
          "internalType": "contract IExafin",
          "name": "",
          "type": "address"
        }
      ],
      "stateMutability": "view",
      "type": "function"
    },
    {
      "inputs": [
        {
          "internalType": "address",
          "name": "exafinAddress",
          "type": "address"
        },
        {
          "internalType": "address",
          "name": "borrower",
          "type": "address"
        },
        {
          "internalType": "uint256",
          "name": "borrowAmount",
          "type": "uint256"
        },
        {
          "internalType": "uint256",
          "name": "maturityDate",
          "type": "uint256"
        }
      ],
      "name": "borrowAllowed",
      "outputs": [
        {
          "internalType": "uint256",
          "name": "",
          "type": "uint256"
        }
      ],
      "stateMutability": "nonpayable",
      "type": "function"
    },
    {
      "inputs": [
        {
          "internalType": "address",
          "name": "",
          "type": "address"
        }
      ],
      "name": "borrowCaps",
      "outputs": [
        {
          "internalType": "uint256",
          "name": "",
          "type": "uint256"
        }
      ],
      "stateMutability": "view",
      "type": "function"
    },
    {
      "inputs": [
        {
          "internalType": "address",
          "name": "",
          "type": "address"
        }
      ],
      "name": "borrowPaused",
      "outputs": [
        {
          "internalType": "bool",
          "name": "",
          "type": "bool"
        }
      ],
      "stateMutability": "view",
      "type": "function"
    },
    {
      "inputs": [
        {
          "internalType": "address",
          "name": "exafin",
          "type": "address"
        },
        {
          "internalType": "uint256",
          "name": "collateralFactor",
          "type": "uint256"
        },
        {
          "internalType": "string",
          "name": "symbol",
          "type": "string"
        },
        {
          "internalType": "string",
          "name": "name",
          "type": "string"
        }
      ],
      "name": "enableMarket",
      "outputs": [],
      "stateMutability": "nonpayable",
      "type": "function"
    },
    {
      "inputs": [
        {
          "internalType": "address[]",
          "name": "exafins",
          "type": "address[]"
        }
      ],
      "name": "enterMarkets",
      "outputs": [
        {
          "internalType": "uint256[]",
          "name": "",
          "type": "uint256[]"
        }
      ],
      "stateMutability": "nonpayable",
      "type": "function"
    },
    {
      "inputs": [
        {
          "internalType": "address",
          "name": "account",
          "type": "address"
        },
        {
          "internalType": "uint256",
          "name": "maturityDate",
          "type": "uint256"
        }
      ],
      "name": "getAccountLiquidity",
      "outputs": [
        {
          "internalType": "uint256",
          "name": "",
          "type": "uint256"
        },
        {
          "internalType": "uint256",
          "name": "",
          "type": "uint256"
        },
        {
          "internalType": "uint256",
          "name": "",
          "type": "uint256"
        }
      ],
      "stateMutability": "view",
      "type": "function"
    },
    {
      "inputs": [
        {
          "internalType": "address",
          "name": "contractAddress",
          "type": "address"
        }
      ],
      "name": "getMarketByAddress",
      "outputs": [
        {
          "internalType": "address",
          "name": "",
          "type": "address"
        },
        {
          "internalType": "string",
          "name": "",
          "type": "string"
        },
        {
          "internalType": "bool",
          "name": "",
          "type": "bool"
        },
        {
          "internalType": "uint256",
          "name": "",
          "type": "uint256"
        },
        {
          "internalType": "string",
          "name": "",
          "type": "string"
        }
      ],
      "stateMutability": "view",
      "type": "function"
    },
    {
      "inputs": [],
      "name": "getMarkets",
      "outputs": [
        {
          "internalType": "address[]",
          "name": "",
          "type": "address[]"
        },
        {
          "internalType": "string[]",
          "name": "",
          "type": "string[]"
        },
        {
          "internalType": "bool[]",
          "name": "",
          "type": "bool[]"
        },
        {
          "internalType": "uint256[]",
          "name": "",
          "type": "uint256[]"
        },
        {
          "internalType": "string[]",
          "name": "",
          "type": "string[]"
        }
      ],
      "stateMutability": "view",
      "type": "function"
    },
    {
      "inputs": [
        {
          "internalType": "address",
          "name": "exafin",
          "type": "address"
        }
      ],
      "name": "listMarket",
      "outputs": [],
      "stateMutability": "nonpayable",
      "type": "function"
    },
    {
      "inputs": [
        {
          "internalType": "address",
          "name": "",
          "type": "address"
        }
      ],
      "name": "listedMarkets",
      "outputs": [
        {
          "internalType": "string",
          "name": "symbol",
          "type": "string"
        },
        {
          "internalType": "string",
          "name": "name",
          "type": "string"
        },
        {
          "internalType": "bool",
          "name": "isListed",
          "type": "bool"
        },
        {
          "internalType": "uint256",
          "name": "collateralFactor",
          "type": "uint256"
        },
        {
          "internalType": "bool",
          "name": "exists",
          "type": "bool"
        }
      ],
      "stateMutability": "view",
      "type": "function"
    },
    {
      "inputs": [
        {
          "internalType": "address",
          "name": "",
          "type": "address"
        }
      ],
      "name": "markets",
      "outputs": [
        {
          "components": [
            {
              "internalType": "string",
              "name": "symbol",
              "type": "string"
            },
            {
              "internalType": "string",
              "name": "name",
              "type": "string"
            },
            {
              "internalType": "bool",
              "name": "isListed",
              "type": "bool"
            },
            {
              "internalType": "uint256",
              "name": "collateralFactor",
              "type": "uint256"
            },
            {
              "internalType": "bool",
              "name": "exists",
              "type": "bool"
            }
          ],
          "internalType": "struct ExaFront.BaseMarket",
          "name": "baseMarket",
          "type": "tuple"
        }
      ],
      "stateMutability": "view",
      "type": "function"
    },
    {
      "inputs": [],
      "name": "owner",
      "outputs": [
        {
          "internalType": "address",
          "name": "",
          "type": "address"
        }
      ],
      "stateMutability": "view",
      "type": "function"
    },
    {
      "inputs": [
        {
          "internalType": "address",
          "name": "exafin",
          "type": "address"
        },
        {
          "internalType": "bool",
          "name": "paused",
          "type": "bool"
        }
      ],
      "name": "pauseBorrow",
      "outputs": [
        {
          "internalType": "bool",
          "name": "",
          "type": "bool"
        }
      ],
      "stateMutability": "nonpayable",
      "type": "function"
    },
    {
      "inputs": [],
      "name": "renounceOwnership",
      "outputs": [],
      "stateMutability": "nonpayable",
      "type": "function"
    },
    {
      "inputs": [
        {
          "internalType": "address",
          "name": "_priceOracleAddress",
          "type": "address"
        }
      ],
      "name": "setOracle",
      "outputs": [],
      "stateMutability": "nonpayable",
      "type": "function"
    },
    {
      "inputs": [
        {
          "internalType": "address",
          "name": "newOwner",
          "type": "address"
        }
      ],
      "name": "transferOwnership",
      "outputs": [],
      "stateMutability": "nonpayable",
      "type": "function"
    },
    {
      "inputs": [
        {
          "internalType": "address",
          "name": "exafin",
          "type": "address"
        }
      ],
      "name": "unlistMarket",
      "outputs": [],
      "stateMutability": "nonpayable",
      "type": "function"
    }
  ],
  "transactionHash": "0x137a39bebf8bbff8d39930045f1777d3824be1b66cfdaa49754218241a643d73",
  "args": [
    "0x6d2299c48a8dd07a872fdd0f8233924872ad1071"
  ],
  "solcInputHash": "f1e0a98d1bbc0a4e8201e1d4cb692bf1",
  "bytecode": "0x608060405260006006553480156200001657600080fd5b50604051620040ee380380620040ee83398181016040528101906200003c919062000153565b60006200004e6200013460201b60201c565b9050806000806101000a81548173ffffffffffffffffffffffffffffffffffffffff021916908373ffffffffffffffffffffffffffffffffffffffff1602179055508073ffffffffffffffffffffffffffffffffffffffff16600073ffffffffffffffffffffffffffffffffffffffff167f8be0079c531659141344cd1fd0a4f28419497f9722a3daafe3b4186f6b6457e060405160405180910390a35080600860006101000a81548173ffffffffffffffffffffffffffffffffffffffff021916908373ffffffffffffffffffffffffffffffffffffffff16021790555050620001cd565b600033905090565b6000815190506200014d81620001b3565b92915050565b6000602082840312156200016657600080fd5b600062000176848285016200013c565b91505092915050565b60006200018c8262000193565b9050919050565b600073ffffffffffffffffffffffffffffffffffffffff82169050919050565b620001be816200017f565b8114620001ca57600080fd5b50565b613f1180620001dd6000396000f3fe608060405234801561001057600080fd5b50600436106101165760003560e01c80639e35e142116100a2578063dce1544911610071578063dce1544914610309578063dec481b814610339578063df26c46814610369578063ec2c90161461039d578063f2fde38b146103bf57610116565b80639e35e1421461025b578063c29982381461028d578063ce819019146102bd578063d76a6779146102d957610116565b80634a584432116100e95780634a584432146101b7578063715018a6146101e75780637adbf973146101f15780638da5cb5b1461020d5780638e8f294b1461022b57610116565b8063059a80081461011b5780630686dab61461014b57806326319519146101675780632ee0121614610183575b600080fd5b61013560048036038101906101309190612e95565b6103db565b60405161014291906139c7565b60405180910390f35b61016560048036038101906101609190612e6c565b610b93565b005b610181600480360381019061017c9190612e6c565b610d18565b005b61019d60048036038101906101989190612e6c565b610f32565b6040516101ae959493929190613864565b60405180910390f35b6101d160048036038101906101cc9190612e6c565b611092565b6040516101de91906139c7565b60405180910390f35b6101ef6110aa565b005b61020b60048036038101906102069190612e6c565b6111e4565b005b6102156112a4565b604051610222919061366a565b60405180910390f35b61024560048036038101906102409190612e6c565b6112cd565b60405161025291906139a5565b60405180910390f35b61027560048036038101906102709190612f34565b611459565b604051610284939291906139e2565b60405180910390f35b6102a760048036038101906102a29190613003565b6114c2565b6040516102b491906137c1565b60405180910390f35b6102d760048036038101906102d29190612f70565b611643565b005b6102f360048036038101906102ee9190612e6c565b6118f4565b60405161030091906137e3565b60405180910390f35b610323600480360381019061031e9190612f34565b611914565b60405161033091906137fe565b60405180910390f35b610353600480360381019061034e9190612ef8565b611962565b60405161036091906137e3565b60405180910390f35b610383600480360381019061037e9190612e6c565b611b0b565b604051610394959493929190613685565b60405180910390f35b6103a5611caf565b6040516103b695949392919061374b565b60405180910390f35b6103d960048036038101906103d49190612e6c565b612256565b005b6000600360008673ffffffffffffffffffffffffffffffffffffffff1673ffffffffffffffffffffffffffffffffffffffff16815260200190815260200160002060009054906101000a900460ff161561046a576040517f08c379a000000000000000000000000000000000000000000000000000000000815260040161046190613985565b60405180910390fd5b600160008673ffffffffffffffffffffffffffffffffffffffff1673ffffffffffffffffffffffffffffffffffffffff16815260200190815260200160002060000160020160009054906101000a900460ff1661050257600160048111156104fb577f4e487b7100000000000000000000000000000000000000000000000000000000600052602160045260246000fd5b9050610b8b565b600160008673ffffffffffffffffffffffffffffffffffffffff1673ffffffffffffffffffffffffffffffffffffffff16815260200190815260200160002060050160008573ffffffffffffffffffffffffffffffffffffffff1673ffffffffffffffffffffffffffffffffffffffff16815260200190815260200160002060009054906101000a900460ff1661078a578473ffffffffffffffffffffffffffffffffffffffff163373ffffffffffffffffffffffffffffffffffffffff1614610601576040517f08c379a00000000000000000000000000000000000000000000000000000000081526004016105f890613905565b60405180910390fd5b600061060d33866123ff565b905060006004811115610649577f4e487b7100000000000000000000000000000000000000000000000000000000600052602160045260246000fd5b816004811115610682577f4e487b7100000000000000000000000000000000000000000000000000000000600052602160045260246000fd5b146106c8578060048111156106c0577f4e487b7100000000000000000000000000000000000000000000000000000000600052602160045260246000fd5b915050610b8b565b600160008773ffffffffffffffffffffffffffffffffffffffff1673ffffffffffffffffffffffffffffffffffffffff16815260200190815260200160002060050160008673ffffffffffffffffffffffffffffffffffffffff1673ffffffffffffffffffffffffffffffffffffffff16815260200190815260200160002060009054906101000a900460ff16610788577f4e487b7100000000000000000000000000000000000000000000000000000000600052600160045260246000fd5b505b6000600860009054906101000a900473ffffffffffffffffffffffffffffffffffffffff1673ffffffffffffffffffffffffffffffffffffffff1663fe2c61988773ffffffffffffffffffffffffffffffffffffffff16636c02a9316040518163ffffffff1660e01b815260040160006040518083038186803b15801561081057600080fd5b505afa158015610824573d6000803e3d6000fd5b505050506040513d6000823e3d601f19601f8201168201806040525081019061084d9190613048565b6040518263ffffffff1660e01b81526004016108699190613842565b60206040518083038186803b15801561088157600080fd5b505afa158015610895573d6000803e3d6000fd5b505050506040513d601f19601f820116820180604052508101906108b99190613089565b141561090057600360048111156108f9577f4e487b7100000000000000000000000000000000000000000000000000000000600052602160045260246000fd5b9050610b8b565b6000600460008773ffffffffffffffffffffffffffffffffffffffff1673ffffffffffffffffffffffffffffffffffffffff16815260200190815260200160002054905060008114610a2e5760008673ffffffffffffffffffffffffffffffffffffffff1663ea1cd41f856040518263ffffffff1660e01b815260040161098791906139c7565b60206040518083038186803b15801561099f57600080fd5b505afa1580156109b3573d6000803e3d6000fd5b505050506040513d601f19601f820116820180604052508101906109d79190613089565b9050600085826109e79190613b8b565b9050828110610a2b576040517f08c379a0000000000000000000000000000000000000000000000000000000008152600401610a2290613945565b60405180910390fd5b50505b600080610a3f87868a60008a61260a565b925050915060006004811115610a7e577f4e487b7100000000000000000000000000000000000000000000000000000000600052602160045260246000fd5b826004811115610ab7577f4e487b7100000000000000000000000000000000000000000000000000000000600052602160045260246000fd5b14610aff57816004811115610af5577f4e487b7100000000000000000000000000000000000000000000000000000000600052602160045260246000fd5b9350505050610b8b565b6000811115610b4b57600480811115610b41577f4e487b7100000000000000000000000000000000000000000000000000000000600052602160045260246000fd5b9350505050610b8b565b60006004811115610b85577f4e487b7100000000000000000000000000000000000000000000000000000000600052602160045260246000fd5b93505050505b949350505050565b600160008273ffffffffffffffffffffffffffffffffffffffff1673ffffffffffffffffffffffffffffffffffffffff16815260200190815260200160002060000160040160009054906101000a900460ff16610c25576040517f08c379a0000000000000000000000000000000000000000000000000000000008152600401610c1c90613965565b60405180910390fd5b6000600160008373ffffffffffffffffffffffffffffffffffffffff1673ffffffffffffffffffffffffffffffffffffffff16815260200190815260200160002060000160020160006101000a81548160ff021916908315150217905550600260008273ffffffffffffffffffffffffffffffffffffffff1673ffffffffffffffffffffffffffffffffffffffff16815260200190815260200160002060008082016000610cd39190612b58565b600182016000610ce39190612b58565b6002820160006101000a81549060ff021916905560038201600090556004820160006101000a81549060ff0219169055505050565b600160008273ffffffffffffffffffffffffffffffffffffffff1673ffffffffffffffffffffffffffffffffffffffff16815260200190815260200160002060000160040160009054906101000a900460ff16610daa576040517f08c379a0000000000000000000000000000000000000000000000000000000008152600401610da190613965565b60405180910390fd5b60018060008373ffffffffffffffffffffffffffffffffffffffff1673ffffffffffffffffffffffffffffffffffffffff16815260200190815260200160002060000160020160006101000a81548160ff021916908315150217905550600160008273ffffffffffffffffffffffffffffffffffffffff1673ffffffffffffffffffffffffffffffffffffffff168152602001908152602001600020600001600260008373ffffffffffffffffffffffffffffffffffffffff1673ffffffffffffffffffffffffffffffffffffffff1681526020019081526020016000206000820181600001908054610e9c90613d4e565b610ea7929190612b98565b506001820181600101908054610ebc90613d4e565b610ec7929190612b98565b506002820160009054906101000a900460ff168160020160006101000a81548160ff021916908315150217905550600382015481600301556004820160009054906101000a900460ff168160040160006101000a81548160ff02191690831515021790555090505050565b6002602052806000526040600020600091509050806000018054610f5590613d4e565b80601f0160208091040260200160405190810160405280929190818152602001828054610f8190613d4e565b8015610fce5780601f10610fa357610100808354040283529160200191610fce565b820191906000526020600020905b815481529060010190602001808311610fb157829003601f168201915b505050505090806001018054610fe390613d4e565b80601f016020809104026020016040519081016040528092919081815260200182805461100f90613d4e565b801561105c5780601f106110315761010080835404028352916020019161105c565b820191906000526020600020905b81548152906001019060200180831161103f57829003601f168201915b5050505050908060020160009054906101000a900460ff16908060030154908060040160009054906101000a900460ff16905085565b60046020528060005260406000206000915090505481565b6110b2612b05565b73ffffffffffffffffffffffffffffffffffffffff166110d06112a4565b73ffffffffffffffffffffffffffffffffffffffff1614611126576040517f08c379a000000000000000000000000000000000000000000000000000000000815260040161111d906138e5565b60405180910390fd5b600073ffffffffffffffffffffffffffffffffffffffff1660008054906101000a900473ffffffffffffffffffffffffffffffffffffffff1673ffffffffffffffffffffffffffffffffffffffff167f8be0079c531659141344cd1fd0a4f28419497f9722a3daafe3b4186f6b6457e060405160405180910390a360008060006101000a81548173ffffffffffffffffffffffffffffffffffffffff021916908373ffffffffffffffffffffffffffffffffffffffff160217905550565b6111ec612b05565b73ffffffffffffffffffffffffffffffffffffffff1661120a6112a4565b73ffffffffffffffffffffffffffffffffffffffff1614611260576040517f08c379a0000000000000000000000000000000000000000000000000000000008152600401611257906138e5565b60405180910390fd5b80600860006101000a81548173ffffffffffffffffffffffffffffffffffffffff021916908373ffffffffffffffffffffffffffffffffffffffff16021790555050565b60008060009054906101000a900473ffffffffffffffffffffffffffffffffffffffff16905090565b6001602052806000526040600020600091509050806000016040518060a001604052908160008201805461130090613d4e565b80601f016020809104026020016040519081016040528092919081815260200182805461132c90613d4e565b80156113795780601f1061134e57610100808354040283529160200191611379565b820191906000526020600020905b81548152906001019060200180831161135c57829003601f168201915b5050505050815260200160018201805461139290613d4e565b80601f01602080910402602001604051908101604052809291908181526020018280546113be90613d4e565b801561140b5780601f106113e05761010080835404028352916020019161140b565b820191906000526020600020905b8154815290600101906020018083116113ee57829003601f168201915b505050505081526020016002820160009054906101000a900460ff16151515158152602001600382015481526020016004820160009054906101000a900460ff161515151581525050905081565b6000806000806000806114718888600080600061260a565b9250925092508260048111156114b0577f4e487b7100000000000000000000000000000000000000000000000000000000600052602160045260246000fd5b82829550955095505050509250925092565b6060600083839050905060008167ffffffffffffffff81111561150e577f4e487b7100000000000000000000000000000000000000000000000000000000600052604160045260246000fd5b60405190808252806020026020018201604052801561153c5781602001602082028036833780820191505090505b50905060005b82811015611637576000868683818110611585577f4e487b7100000000000000000000000000000000000000000000000000000000600052603260045260246000fd5b905060200201602081019061159a9190612e6c565b90506115a681336123ff565b60048111156115de577f4e487b7100000000000000000000000000000000000000000000000000000000600052602160045260246000fd5b838381518110611617577f4e487b7100000000000000000000000000000000000000000000000000000000600052603260045260246000fd5b60200260200101818152505050808061162f90613d80565b915050611542565b50809250505092915050565b61164b612b05565b73ffffffffffffffffffffffffffffffffffffffff166116696112a4565b73ffffffffffffffffffffffffffffffffffffffff16146116bf576040517f08c379a00000000000000000000000000000000000000000000000000000000081526004016116b6906138e5565b60405180910390fd5b6000600160008673ffffffffffffffffffffffffffffffffffffffff1673ffffffffffffffffffffffffffffffffffffffff168152602001908152602001600020905060018160000160020160006101000a81548160ff02191690831515021790555060018160000160040160006101000a81548160ff02191690831515021790555083816000016003018190555082816000016000019080519060200190611769929190612c25565b5081816000016001019080519060200190611785929190612c25565b5080600001600260008773ffffffffffffffffffffffffffffffffffffffff1673ffffffffffffffffffffffffffffffffffffffff16815260200190815260200160002060008201816000019080546117dd90613d4e565b6117e8929190612b98565b5060018201816001019080546117fd90613d4e565b611808929190612b98565b506002820160009054906101000a900460ff168160020160006101000a81548160ff021916908315150217905550600382015481600301556004820160009054906101000a900460ff168160040160006101000a81548160ff0219169083151502179055509050506001600660008282546118839190613b8b565b925050819055506007859080600181540180825580915050600190039060005260206000200160009091909190916101000a81548173ffffffffffffffffffffffffffffffffffffffff021916908373ffffffffffffffffffffffffffffffffffffffff1602179055505050505050565b60036020528060005260406000206000915054906101000a900460ff1681565b6005602052816000526040600020818154811061193057600080fd5b906000526020600020016000915091509054906101000a900473ffffffffffffffffffffffffffffffffffffffff1681565b600061196c612b05565b73ffffffffffffffffffffffffffffffffffffffff1661198a6112a4565b73ffffffffffffffffffffffffffffffffffffffff16146119e0576040517f08c379a00000000000000000000000000000000000000000000000000000000081526004016119d7906138e5565b60405180910390fd5b600160008473ffffffffffffffffffffffffffffffffffffffff1673ffffffffffffffffffffffffffffffffffffffff16815260200190815260200160002060000160020160009054906101000a900460ff16611a72576040517f08c379a0000000000000000000000000000000000000000000000000000000008152600401611a6990613925565b60405180910390fd5b81600360008573ffffffffffffffffffffffffffffffffffffffff1673ffffffffffffffffffffffffffffffffffffffff16815260200190815260200160002060006101000a81548160ff0219169083151502179055507f71aec636243f9709bb0007ae15e9afb8150ab01716d75fd7573be5cc096e03b08383604051611afa9291906136e6565b60405180910390a181905092915050565b6000606060008060606000600160008873ffffffffffffffffffffffffffffffffffffffff1673ffffffffffffffffffffffffffffffffffffffff168152602001908152602001600020905086816000016000018260000160020160009054906101000a900460ff16836000016003015484600001600101838054611b8f90613d4e565b80601f0160208091040260200160405190810160405280929190818152602001828054611bbb90613d4e565b8015611c085780601f10611bdd57610100808354040283529160200191611c08565b820191906000526020600020905b815481529060010190602001808311611beb57829003601f168201915b50505050509350808054611c1b90613d4e565b80601f0160208091040260200160405190810160405280929190818152602001828054611c4790613d4e565b8015611c945780601f10611c6957610100808354040283529160200191611c94565b820191906000526020600020905b815481529060010190602001808311611c7757829003601f168201915b50505050509050955095509550955095505091939590929450565b6060806060806060600060065467ffffffffffffffff811115611cfb577f4e487b7100000000000000000000000000000000000000000000000000000000600052604160045260246000fd5b604051908082528060200260200182016040528015611d295781602001602082028036833780820191505090505b509050600060065467ffffffffffffffff811115611d70577f4e487b7100000000000000000000000000000000000000000000000000000000600052604160045260246000fd5b604051908082528060200260200182016040528015611da357816020015b6060815260200190600190039081611d8e5790505b509050600060065467ffffffffffffffff811115611dea577f4e487b7100000000000000000000000000000000000000000000000000000000600052604160045260246000fd5b604051908082528060200260200182016040528015611e1d57816020015b6060815260200190600190039081611e085790505b509050600060065467ffffffffffffffff811115611e64577f4e487b7100000000000000000000000000000000000000000000000000000000600052604160045260246000fd5b604051908082528060200260200182016040528015611e925781602001602082028036833780820191505090505b50905060005b6006548110156121b25760006001600060078481548110611ee2577f4e487b7100000000000000000000000000000000000000000000000000000000600052603260045260246000fd5b9060005260206000200160009054906101000a900473ffffffffffffffffffffffffffffffffffffffff1673ffffffffffffffffffffffffffffffffffffffff1673ffffffffffffffffffffffffffffffffffffffff16815260200190815260200160002090508060000160020160009054906101000a900460ff16868381518110611f97577f4e487b7100000000000000000000000000000000000000000000000000000000600052603260045260246000fd5b602002602001019015159081151581525050806000016000018054611fbb90613d4e565b80601f0160208091040260200160405190810160405280929190818152602001828054611fe790613d4e565b80156120345780601f1061200957610100808354040283529160200191612034565b820191906000526020600020905b81548152906001019060200180831161201757829003601f168201915b5050505050858381518110612072577f4e487b7100000000000000000000000000000000000000000000000000000000600052603260045260246000fd5b602002602001018190525080600001600101805461208f90613d4e565b80601f01602080910402602001604051908101604052809291908181526020018280546120bb90613d4e565b80156121085780601f106120dd57610100808354040283529160200191612108565b820191906000526020600020905b8154815290600101906020018083116120eb57829003601f168201915b5050505050848381518110612146577f4e487b7100000000000000000000000000000000000000000000000000000000600052603260045260246000fd5b60200260200101819052508060000160030154838381518110612192577f4e487b7100000000000000000000000000000000000000000000000000000000600052603260045260246000fd5b6020026020010181815250505080806121aa90613d80565b915050611e98565b506007838583858480548060200260200160405190810160405280929190818152602001828054801561223a57602002820191906000526020600020905b8160009054906101000a900473ffffffffffffffffffffffffffffffffffffffff1673ffffffffffffffffffffffffffffffffffffffff16815260200190600101908083116121f0575b5050505050945098509850985098509850505050509091929394565b61225e612b05565b73ffffffffffffffffffffffffffffffffffffffff1661227c6112a4565b73ffffffffffffffffffffffffffffffffffffffff16146122d2576040517f08c379a00000000000000000000000000000000000000000000000000000000081526004016122c9906138e5565b60405180910390fd5b600073ffffffffffffffffffffffffffffffffffffffff168173ffffffffffffffffffffffffffffffffffffffff161415612342576040517f08c379a0000000000000000000000000000000000000000000000000000000008152600401612339906138c5565b60405180910390fd5b8073ffffffffffffffffffffffffffffffffffffffff1660008054906101000a900473ffffffffffffffffffffffffffffffffffffffff1673ffffffffffffffffffffffffffffffffffffffff167f8be0079c531659141344cd1fd0a4f28419497f9722a3daafe3b4186f6b6457e060405160405180910390a3806000806101000a81548173ffffffffffffffffffffffffffffffffffffffff021916908373ffffffffffffffffffffffffffffffffffffffff16021790555050565b600080600160008573ffffffffffffffffffffffffffffffffffffffff1673ffffffffffffffffffffffffffffffffffffffff16815260200190815260200160002090508060000160020160009054906101000a900460ff16612466576001915050612604565b600115158160050160008573ffffffffffffffffffffffffffffffffffffffff1673ffffffffffffffffffffffffffffffffffffffff16815260200190815260200160002060009054906101000a900460ff16151514156124cb576000915050612604565b60018160050160008573ffffffffffffffffffffffffffffffffffffffff1673ffffffffffffffffffffffffffffffffffffffff16815260200190815260200160002060006101000a81548160ff021916908315150217905550600560008473ffffffffffffffffffffffffffffffffffffffff1673ffffffffffffffffffffffffffffffffffffffff168152602001908152602001600020849080600181540180825580915050600190039060005260206000200160009091909190916101000a81548173ffffffffffffffffffffffffffffffffffffffff021916908373ffffffffffffffffffffffffffffffffffffffff1602179055507f3ab23ab0d51cccc0c3085aec51f99228625aa1a922b3a8ca89a26b0f2027a1a584846040516125f6929190613819565b60405180910390a160009150505b92915050565b6000806000612617612cab565b600080600560008c73ffffffffffffffffffffffffffffffffffffffff1673ffffffffffffffffffffffffffffffffffffffff1681526020019081526020016000208054806020026020016040519081016040528092919081815260200182805480156126d957602002820191906000526020600020905b8160009054906101000a900473ffffffffffffffffffffffffffffffffffffffff1673ffffffffffffffffffffffffffffffffffffffff168152602001906001019080831161268f575b5050505050905060005b8151811015612aa2576000828281518110612727577f4e487b7100000000000000000000000000000000000000000000000000000000600052603260045260246000fd5b602002602001015190508073ffffffffffffffffffffffffffffffffffffffff166355a1ac2e8e8e6040518363ffffffff1660e01b815260040161276c929190613722565b60606040518083038186803b15801561278457600080fd5b505afa158015612798573d6000803e3d6000fd5b505050506040513d601f19601f820116820180604052508101906127bc91906130b2565b87600001886020018281525082815250829650505050600084146127ef5760026000809750975097505050505050612afa565b600160008273ffffffffffffffffffffffffffffffffffffffff1673ffffffffffffffffffffffffffffffffffffffff16815260200190815260200160002060000160030154856040018181525050600860009054906101000a900473ffffffffffffffffffffffffffffffffffffffff1673ffffffffffffffffffffffffffffffffffffffff1663fe2c61988273ffffffffffffffffffffffffffffffffffffffff16636c02a9316040518163ffffffff1660e01b815260040160006040518083038186803b1580156128c257600080fd5b505afa1580156128d6573d6000803e3d6000fd5b505050506040513d6000823e3d601f19601f820116820180604052508101906128ff9190613048565b6040518263ffffffff1660e01b815260040161291b9190613842565b60206040518083038186803b15801561293357600080fd5b505afa158015612947573d6000803e3d6000fd5b505050506040513d601f19601f8201168201806040525081019061296b9190613089565b8560600181815250506000856060015114156129965760036000809750975097505050505050612afa565b84608001516129d18660600151620f42406129c289604001518a60000151612b0d90919063ffffffff16565b612b369092919063ffffffff16565b6129db9190613b8b565b8560800181815250508460a00151612a098660600151620f42408860200151612b369092919063ffffffff16565b612a139190613b8b565b8560a00181815250508a73ffffffffffffffffffffffffffffffffffffffff168173ffffffffffffffffffffffffffffffffffffffff161415612a8e5760008914612a8d578460a00151612a798660600151620f42408c612b369092919063ffffffff16565b612a839190613b8b565b8560a00181815250505b5b508080612a9a90613d80565b9150506126e3565b508260a0015183608001511115612ad95760008360a001518460800151612ac99190613c6c565b6000955095509550505050612afa565b60008084608001518560a00151612af09190613c6c565b9550955095505050505b955095509592505050565b600033905090565b6000670de0b6b3a76400008284612b249190613c12565b612b2e9190613be1565b905092915050565b6000818385612b459190613c12565b612b4f9190613be1565b90509392505050565b508054612b6490613d4e565b6000825580601f10612b765750612b95565b601f016020900490600052602060002090810190612b949190612ce1565b5b50565b828054612ba490613d4e565b90600052602060002090601f016020900481019282612bc65760008555612c14565b82601f10612bd75780548555612c14565b82800160010185558215612c1457600052602060002091601f016020900482015b82811115612c13578254825591600101919060010190612bf8565b5b509050612c219190612ce1565b5090565b828054612c3190613d4e565b90600052602060002090601f016020900481019282612c535760008555612c9a565b82601f10612c6c57805160ff1916838001178555612c9a565b82800160010185558215612c9a579182015b82811115612c99578251825591602001919060010190612c7e565b5b509050612ca79190612ce1565b5090565b6040518060c001604052806000815260200160008152602001600081526020016000815260200160008152602001600081525090565b5b80821115612cfa576000816000905550600101612ce2565b5090565b6000612d11612d0c84613a4a565b613a19565b905082815260208101848484011115612d2957600080fd5b612d34848285613d0c565b509392505050565b6000612d4f612d4a84613a4a565b613a19565b905082815260208101848484011115612d6757600080fd5b612d72848285613d1b565b509392505050565b600081359050612d8981613e96565b92915050565b60008083601f840112612da157600080fd5b8235905067ffffffffffffffff811115612dba57600080fd5b602083019150836020820283011115612dd257600080fd5b9250929050565b600081359050612de881613ead565b92915050565b600082601f830112612dff57600080fd5b8135612e0f848260208601612cfe565b91505092915050565b600082601f830112612e2957600080fd5b8151612e39848260208601612d3c565b91505092915050565b600081359050612e5181613ec4565b92915050565b600081519050612e6681613ec4565b92915050565b600060208284031215612e7e57600080fd5b6000612e8c84828501612d7a565b91505092915050565b60008060008060808587031215612eab57600080fd5b6000612eb987828801612d7a565b9450506020612eca87828801612d7a565b9350506040612edb87828801612e42565b9250506060612eec87828801612e42565b91505092959194509250565b60008060408385031215612f0b57600080fd5b6000612f1985828601612d7a565b9250506020612f2a85828601612dd9565b9150509250929050565b60008060408385031215612f4757600080fd5b6000612f5585828601612d7a565b9250506020612f6685828601612e42565b9150509250929050565b60008060008060808587031215612f8657600080fd5b6000612f9487828801612d7a565b9450506020612fa587828801612e42565b935050604085013567ffffffffffffffff811115612fc257600080fd5b612fce87828801612dee565b925050606085013567ffffffffffffffff811115612feb57600080fd5b612ff787828801612dee565b91505092959194509250565b6000806020838503121561301657600080fd5b600083013567ffffffffffffffff81111561303057600080fd5b61303c85828601612d8f565b92509250509250929050565b60006020828403121561305a57600080fd5b600082015167ffffffffffffffff81111561307457600080fd5b61308084828501612e18565b91505092915050565b60006020828403121561309b57600080fd5b60006130a984828501612e57565b91505092915050565b6000806000606084860312156130c757600080fd5b60006130d586828701612e57565b93505060206130e686828701612e57565b92505060406130f786828701612e57565b9150509250925092565b600061310d838361315d565b60208301905092915050565b6000613125838361330a565b60208301905092915050565b600061313d8383613337565b905092915050565b6000613151838361364c565b60208301905092915050565b61316681613ca0565b82525050565b61317581613ca0565b82525050565b600061318682613aba565b6131908185613b25565b935061319b83613a7a565b8060005b838110156131cc5781516131b38882613101565b97506131be83613af1565b92505060018101905061319f565b5085935050505092915050565b60006131e482613ac5565b6131ee8185613b36565b93506131f983613a8a565b8060005b8381101561322a5781516132118882613119565b975061321c83613afe565b9250506001810190506131fd565b5085935050505092915050565b600061324282613ad0565b61324c8185613b47565b93508360208202850161325e85613a9a565b8060005b8581101561329a578484038952815161327b8582613131565b945061328683613b0b565b925060208a01995050600181019050613262565b50829750879550505050505092915050565b60006132b782613adb565b6132c18185613b58565b93506132cc83613aaa565b8060005b838110156132fd5781516132e48882613145565b97506132ef83613b18565b9250506001810190506132d0565b5085935050505092915050565b61331381613cb2565b82525050565b61332281613cb2565b82525050565b61333181613ce8565b82525050565b600061334282613ae6565b61334c8185613b69565b935061335c818560208601613d1b565b61336581613e85565b840191505092915050565b600061337b82613ae6565b6133858185613b7a565b9350613395818560208601613d1b565b61339e81613e85565b840191505092915050565b60006133b6602683613b7a565b91507f4f776e61626c653a206e6577206f776e657220697320746865207a65726f206160008301527f64647265737300000000000000000000000000000000000000000000000000006020830152604082019050919050565b600061341c600683613b7a565b91507f426f72726f7700000000000000000000000000000000000000000000000000006000830152602082019050919050565b600061345c602083613b7a565b91507f4f776e61626c653a2063616c6c6572206973206e6f7420746865206f776e65726000830152602082019050919050565b600061349c601583613b7a565b91507f73656e646572206d7573742062652063546f6b656e00000000000000000000006000830152602082019050919050565b60006134dc600a83613b7a565b91507f6e6f74206c6973746564000000000000000000000000000000000000000000006000830152602082019050919050565b600061351c601983613b7a565b91507f6d61726b657420626f72726f77206361702072656163686564000000000000006000830152602082019050919050565b600061355c601783613b7a565b91507f41646472657373206973206e6f742061206d61726b65740000000000000000006000830152602082019050919050565b600061359c601083613b7a565b91507f626f72726f7720697320706175736564000000000000000000000000000000006000830152602082019050919050565b600060a08301600083015184820360008601526135ec8282613337565b915050602083015184820360208601526136068282613337565b915050604083015161361b604086018261330a565b50606083015161362e606086018261364c565b506080830151613641608086018261330a565b508091505092915050565b61365581613cde565b82525050565b61366481613cde565b82525050565b600060208201905061367f600083018461316c565b92915050565b600060a08201905061369a600083018861316c565b81810360208301526136ac8187613370565b90506136bb6040830186613319565b6136c8606083018561365b565b81810360808301526136da8184613370565b90509695505050505050565b60006060820190506136fb600083018561316c565b818103602083015261370c8161340f565b905061371b6040830184613319565b9392505050565b6000604082019050613737600083018561316c565b613744602083018461365b565b9392505050565b600060a0820190508181036000830152613765818861317b565b905081810360208301526137798187613237565b9050818103604083015261378d81866131d9565b905081810360608301526137a181856132ac565b905081810360808301526137b58184613237565b90509695505050505050565b600060208201905081810360008301526137db81846132ac565b905092915050565b60006020820190506137f86000830184613319565b92915050565b60006020820190506138136000830184613328565b92915050565b600060408201905061382e6000830185613328565b61383b602083018461316c565b9392505050565b6000602082019050818103600083015261385c8184613370565b905092915050565b600060a082019050818103600083015261387e8188613370565b905081810360208301526138928187613370565b90506138a16040830186613319565b6138ae606083018561365b565b6138bb6080830184613319565b9695505050505050565b600060208201905081810360008301526138de816133a9565b9050919050565b600060208201905081810360008301526138fe8161344f565b9050919050565b6000602082019050818103600083015261391e8161348f565b9050919050565b6000602082019050818103600083015261393e816134cf565b9050919050565b6000602082019050818103600083015261395e8161350f565b9050919050565b6000602082019050818103600083015261397e8161354f565b9050919050565b6000602082019050818103600083015261399e8161358f565b9050919050565b600060208201905081810360008301526139bf81846135cf565b905092915050565b60006020820190506139dc600083018461365b565b92915050565b60006060820190506139f7600083018661365b565b613a04602083018561365b565b613a11604083018461365b565b949350505050565b6000604051905081810181811067ffffffffffffffff82111715613a4057613a3f613e56565b5b8060405250919050565b600067ffffffffffffffff821115613a6557613a64613e56565b5b601f19601f8301169050602081019050919050565b6000819050602082019050919050565b6000819050602082019050919050565b6000819050602082019050919050565b6000819050602082019050919050565b600081519050919050565b600081519050919050565b600081519050919050565b600081519050919050565b600081519050919050565b6000602082019050919050565b6000602082019050919050565b6000602082019050919050565b6000602082019050919050565b600082825260208201905092915050565b600082825260208201905092915050565b600082825260208201905092915050565b600082825260208201905092915050565b600082825260208201905092915050565b600082825260208201905092915050565b6000613b9682613cde565b9150613ba183613cde565b9250827fffffffffffffffffffffffffffffffffffffffffffffffffffffffffffffffff03821115613bd657613bd5613dc9565b5b828201905092915050565b6000613bec82613cde565b9150613bf783613cde565b925082613c0757613c06613df8565b5b828204905092915050565b6000613c1d82613cde565b9150613c2883613cde565b9250817fffffffffffffffffffffffffffffffffffffffffffffffffffffffffffffffff0483118215151615613c6157613c60613dc9565b5b828202905092915050565b6000613c7782613cde565b9150613c8283613cde565b925082821015613c9557613c94613dc9565b5b828203905092915050565b6000613cab82613cbe565b9050919050565b60008115159050919050565b600073ffffffffffffffffffffffffffffffffffffffff82169050919050565b6000819050919050565b6000613cf382613cfa565b9050919050565b6000613d0582613cbe565b9050919050565b82818337600083830152505050565b60005b83811015613d39578082015181840152602081019050613d1e565b83811115613d48576000848401525b50505050565b60006002820490506001821680613d6657607f821691505b60208210811415613d7a57613d79613e27565b5b50919050565b6000613d8b82613cde565b91507fffffffffffffffffffffffffffffffffffffffffffffffffffffffffffffffff821415613dbe57613dbd613dc9565b5b600182019050919050565b7f4e487b7100000000000000000000000000000000000000000000000000000000600052601160045260246000fd5b7f4e487b7100000000000000000000000000000000000000000000000000000000600052601260045260246000fd5b7f4e487b7100000000000000000000000000000000000000000000000000000000600052602260045260246000fd5b7f4e487b7100000000000000000000000000000000000000000000000000000000600052604160045260246000fd5b6000601f19601f8301169050919050565b613e9f81613ca0565b8114613eaa57600080fd5b50565b613eb681613cb2565b8114613ec157600080fd5b50565b613ecd81613cde565b8114613ed857600080fd5b5056fea264697066735822122091c152af14508b22c8578f1ab91e2c62e11d2a5a7fbe86acad3176e92dc4bdca64736f6c63430008000033",
  "devdoc": {
    "kind": "dev",
    "methods": {
      "enableMarket(address,uint256,string,string)": {
        "details": "Function to enable a certain Exafin market to be used as collateral",
        "params": {
          "collateralFactor": "exafin's collateral factor for the underlying asset",
          "exafin": "address to add to the protocol"
        }
      },
      "enterMarkets(address[])": {
        "details": "Allows wallet to enter certain markets (exafinDAI, exafinETH, etc) By performing this action, the wallet's money could be used as collateral",
        "params": {
          "exafins": "contracts addresses to enable for `msg.sender`"
        }
      },
      "getAccountLiquidity(address,uint256)": {
        "details": "Function to get account's liquidity for a certain maturity pool",
        "params": {
          "account": "wallet to retrieve liquidity for a certain maturity date",
          "maturityDate": "timestamp to calculate maturity's pool"
        }
      },
      "getMarketByAddress(address)": {
        "details": "Get market data filtered by address",
        "params": {
          "contractAddress": "address to get market data"
        }
      },
      "getMarkets()": {
        "details": "List all markets, listed or not"
      },
      "listMarket(address)": {
        "details": "Add market to listedMarkets and change boolean to true",
        "params": {
          "exafin": "address to add to the protocol"
        }
      },
      "owner()": {
        "details": "Returns the address of the current owner."
      },
      "pauseBorrow(address,bool)": {
        "details": "Function to pause/unpause borrowing on a certain market",
        "params": {
          "exafin": "address to pause",
          "paused": "true/false"
        }
      },
      "renounceOwnership()": {
        "details": "Leaves the contract without owner. It will not be possible to call `onlyOwner` functions anymore. Can only be called by the current owner. NOTE: Renouncing ownership will leave the contract without an owner, thereby removing any functionality that is only available to the owner."
      },
      "transferOwnership(address)": {
        "details": "Transfers ownership of the contract to a new account (`newOwner`). Can only be called by the current owner."
      },
      "unlistMarket(address)": {
        "details": "Delete market to listedMarkets and change boolean to false",
        "params": {
          "exafin": "address to add to the protocol"
        }
      }
    },
    "version": 1
  },
  "userdoc": {
    "kind": "user",
    "methods": {},
    "version": 1
  },
  "storageLayout": {
    "storage": [
      {
        "astId": 7,
        "contract": "contracts/ExaFront.sol:ExaFront",
        "label": "_owner",
        "offset": 0,
        "slot": "0",
        "type": "t_address"
      },
      {
        "astId": 797,
        "contract": "contracts/ExaFront.sol:ExaFront",
        "label": "markets",
        "offset": 0,
        "slot": "1",
        "type": "t_mapping(t_address,t_struct(Market)841_storage)"
      },
      {
        "astId": 802,
        "contract": "contracts/ExaFront.sol:ExaFront",
        "label": "listedMarkets",
        "offset": 0,
        "slot": "2",
        "type": "t_mapping(t_address,t_struct(BaseMarket)833_storage)"
      },
      {
        "astId": 806,
        "contract": "contracts/ExaFront.sol:ExaFront",
        "label": "borrowPaused",
        "offset": 0,
        "slot": "3",
        "type": "t_mapping(t_address,t_bool)"
      },
      {
        "astId": 810,
        "contract": "contracts/ExaFront.sol:ExaFront",
        "label": "borrowCaps",
        "offset": 0,
        "slot": "4",
        "type": "t_mapping(t_address,t_uint256)"
      },
      {
        "astId": 816,
        "contract": "contracts/ExaFront.sol:ExaFront",
        "label": "accountAssets",
        "offset": 0,
        "slot": "5",
        "type": "t_mapping(t_address,t_array(t_contract(IExafin)1885)dyn_storage)"
      },
      {
        "astId": 819,
        "contract": "contracts/ExaFront.sol:ExaFront",
        "label": "marketCount",
        "offset": 0,
        "slot": "6",
        "type": "t_uint256"
      },
      {
        "astId": 822,
        "contract": "contracts/ExaFront.sol:ExaFront",
        "label": "marketsAddress",
        "offset": 0,
        "slot": "7",
        "type": "t_array(t_address)dyn_storage"
      },
      {
        "astId": 857,
        "contract": "contracts/ExaFront.sol:ExaFront",
        "label": "oracle",
        "offset": 0,
        "slot": "8",
        "type": "t_contract(Oracle)1895"
      }
    ],
    "types": {
      "t_address": {
        "encoding": "inplace",
        "label": "address",
        "numberOfBytes": "20"
      },
      "t_array(t_address)dyn_storage": {
        "base": "t_address",
        "encoding": "dynamic_array",
        "label": "address[]",
        "numberOfBytes": "32"
      },
      "t_array(t_contract(IExafin)1885)dyn_storage": {
        "base": "t_contract(IExafin)1885",
        "encoding": "dynamic_array",
        "label": "contract IExafin[]",
        "numberOfBytes": "32"
      },
      "t_bool": {
        "encoding": "inplace",
        "label": "bool",
        "numberOfBytes": "1"
      },
      "t_contract(IExafin)1885": {
        "encoding": "inplace",
        "label": "contract IExafin",
        "numberOfBytes": "20"
      },
      "t_contract(Oracle)1895": {
        "encoding": "inplace",
        "label": "contract Oracle",
        "numberOfBytes": "20"
      },
      "t_mapping(t_address,t_array(t_contract(IExafin)1885)dyn_storage)": {
        "encoding": "mapping",
        "key": "t_address",
        "label": "mapping(address => contract IExafin[])",
        "numberOfBytes": "32",
        "value": "t_array(t_contract(IExafin)1885)dyn_storage"
      },
      "t_mapping(t_address,t_bool)": {
        "encoding": "mapping",
        "key": "t_address",
        "label": "mapping(address => bool)",
        "numberOfBytes": "32",
        "value": "t_bool"
      },
      "t_mapping(t_address,t_struct(BaseMarket)833_storage)": {
        "encoding": "mapping",
        "key": "t_address",
        "label": "mapping(address => struct ExaFront.BaseMarket)",
        "numberOfBytes": "32",
        "value": "t_struct(BaseMarket)833_storage"
      },
      "t_mapping(t_address,t_struct(Market)841_storage)": {
        "encoding": "mapping",
        "key": "t_address",
        "label": "mapping(address => struct ExaFront.Market)",
        "numberOfBytes": "32",
        "value": "t_struct(Market)841_storage"
      },
      "t_mapping(t_address,t_uint256)": {
        "encoding": "mapping",
        "key": "t_address",
        "label": "mapping(address => uint256)",
        "numberOfBytes": "32",
        "value": "t_uint256"
      },
      "t_string_storage": {
        "encoding": "bytes",
        "label": "string",
        "numberOfBytes": "32"
      },
      "t_struct(BaseMarket)833_storage": {
        "encoding": "inplace",
        "label": "struct ExaFront.BaseMarket",
        "members": [
          {
            "astId": 824,
            "contract": "contracts/ExaFront.sol:ExaFront",
            "label": "symbol",
            "offset": 0,
            "slot": "0",
            "type": "t_string_storage"
          },
          {
            "astId": 826,
            "contract": "contracts/ExaFront.sol:ExaFront",
            "label": "name",
            "offset": 0,
            "slot": "1",
            "type": "t_string_storage"
          },
          {
            "astId": 828,
            "contract": "contracts/ExaFront.sol:ExaFront",
            "label": "isListed",
            "offset": 0,
            "slot": "2",
            "type": "t_bool"
          },
          {
            "astId": 830,
            "contract": "contracts/ExaFront.sol:ExaFront",
            "label": "collateralFactor",
            "offset": 0,
            "slot": "3",
            "type": "t_uint256"
          },
          {
            "astId": 832,
            "contract": "contracts/ExaFront.sol:ExaFront",
            "label": "exists",
            "offset": 0,
            "slot": "4",
            "type": "t_bool"
          }
        ],
        "numberOfBytes": "160"
      },
      "t_struct(Market)841_storage": {
        "encoding": "inplace",
        "label": "struct ExaFront.Market",
        "members": [
          {
            "astId": 836,
            "contract": "contracts/ExaFront.sol:ExaFront",
            "label": "baseMarket",
            "offset": 0,
            "slot": "0",
            "type": "t_struct(BaseMarket)833_storage"
          },
          {
            "astId": 840,
            "contract": "contracts/ExaFront.sol:ExaFront",
            "label": "accountMembership",
            "offset": 0,
            "slot": "5",
            "type": "t_mapping(t_address,t_bool)"
          }
        ],
        "numberOfBytes": "192"
      },
      "t_uint256": {
        "encoding": "inplace",
        "label": "uint256",
        "numberOfBytes": "32"
      }
    }
  }
}