{
  "address": "0xc81FA90d69db5DF590741BFA5094b560364a0Dc2",
  "abi": [
    {
      "inputs": [
        {
          "internalType": "address",
          "name": "stableAddress",
          "type": "address"
        }
      ],
      "stateMutability": "nonpayable",
      "type": "constructor"
    },
    {
      "anonymous": false,
      "inputs": [
        {
          "indexed": true,
          "internalType": "address",
          "name": "to",
          "type": "address"
        },
        {
          "indexed": false,
          "internalType": "uint256",
          "name": "amount",
          "type": "uint256"
        },
        {
          "indexed": false,
          "internalType": "uint256",
          "name": "maturityDate",
          "type": "uint256"
        }
      ],
      "name": "Borrowed",
      "type": "event"
    },
    {
      "anonymous": false,
      "inputs": [
        {
          "indexed": true,
          "internalType": "address",
          "name": "from",
          "type": "address"
        },
        {
          "indexed": false,
          "internalType": "uint256",
          "name": "amount",
          "type": "uint256"
        },
        {
          "indexed": false,
          "internalType": "uint256",
          "name": "maturityDate",
          "type": "uint256"
        }
      ],
      "name": "Lent",
      "type": "event"
    },
    {
      "anonymous": false,
      "inputs": [
        {
          "indexed": true,
          "internalType": "address",
          "name": "previousOwner",
          "type": "address"
        },
        {
          "indexed": true,
          "internalType": "address",
          "name": "newOwner",
          "type": "address"
        }
      ],
      "name": "OwnershipTransferred",
      "type": "event"
    },
    {
      "inputs": [
        {
          "internalType": "address",
          "name": "",
          "type": "address"
        },
        {
          "internalType": "uint256",
          "name": "",
          "type": "uint256"
        }
      ],
      "name": "addressPools",
      "outputs": [
        {
          "internalType": "uint256",
          "name": "",
          "type": "uint256"
        }
      ],
      "stateMutability": "view",
      "type": "function"
    },
    {
      "inputs": [
        {
          "internalType": "address",
          "name": "from",
          "type": "address"
        },
        {
          "internalType": "uint256",
          "name": "amount",
          "type": "uint256"
        },
        {
          "internalType": "uint256",
          "name": "maturityDate",
          "type": "uint256"
        }
      ],
      "name": "borrow",
      "outputs": [],
      "stateMutability": "nonpayable",
      "type": "function"
    },
    {
      "inputs": [
        {
          "internalType": "uint256",
          "name": "",
          "type": "uint256"
        },
        {
          "internalType": "address",
          "name": "",
          "type": "address"
        }
      ],
      "name": "borrowedAmounts",
      "outputs": [
        {
          "internalType": "uint256",
          "name": "",
          "type": "uint256"
        }
      ],
      "stateMutability": "view",
      "type": "function"
    },
    {
      "inputs": [
        {
          "internalType": "address",
          "name": "to",
          "type": "address"
        },
        {
          "internalType": "uint256",
          "name": "amount",
          "type": "uint256"
        },
        {
          "internalType": "uint256",
          "name": "maturityDate",
          "type": "uint256"
        }
      ],
      "name": "lend",
      "outputs": [],
      "stateMutability": "nonpayable",
      "type": "function"
    },
    {
      "inputs": [
        {
          "internalType": "uint256",
          "name": "",
          "type": "uint256"
        },
        {
          "internalType": "address",
          "name": "",
          "type": "address"
        }
      ],
      "name": "lentAmounts",
      "outputs": [
        {
          "internalType": "uint256",
          "name": "",
          "type": "uint256"
        }
      ],
      "stateMutability": "view",
      "type": "function"
    },
    {
      "inputs": [],
      "name": "owner",
      "outputs": [
        {
          "internalType": "address",
          "name": "",
          "type": "address"
        }
      ],
      "stateMutability": "view",
      "type": "function"
    },
    {
      "inputs": [
        {
          "internalType": "uint256",
          "name": "",
          "type": "uint256"
        }
      ],
      "name": "pools",
      "outputs": [
        {
          "internalType": "uint256",
          "name": "borrowed",
          "type": "uint256"
        },
        {
          "internalType": "uint256",
          "name": "lent",
          "type": "uint256"
        }
      ],
      "stateMutability": "view",
      "type": "function"
    },
    {
      "inputs": [
        {
          "internalType": "uint256",
          "name": "amount",
          "type": "uint256"
        },
        {
          "internalType": "uint256",
          "name": "maturityDate",
          "type": "uint256"
        }
      ],
      "name": "rateBorrow",
      "outputs": [
        {
          "internalType": "uint256",
          "name": "",
          "type": "uint256"
        },
        {
          "components": [
            {
              "internalType": "uint256",
              "name": "borrowed",
              "type": "uint256"
            },
            {
              "internalType": "uint256",
              "name": "lent",
              "type": "uint256"
            }
          ],
          "internalType": "struct Pool",
          "name": "",
          "type": "tuple"
        }
      ],
      "stateMutability": "view",
      "type": "function"
    },
    {
      "inputs": [
        {
          "internalType": "uint256",
          "name": "amount",
          "type": "uint256"
        },
        {
          "internalType": "uint256",
          "name": "maturityDate",
          "type": "uint256"
        }
      ],
      "name": "rateLend",
      "outputs": [
        {
          "internalType": "uint256",
          "name": "",
          "type": "uint256"
        },
        {
          "components": [
            {
              "internalType": "uint256",
              "name": "borrowed",
              "type": "uint256"
            },
            {
              "internalType": "uint256",
              "name": "lent",
              "type": "uint256"
            }
          ],
          "internalType": "struct Pool",
          "name": "",
          "type": "tuple"
        }
      ],
      "stateMutability": "view",
      "type": "function"
    },
    {
      "inputs": [],
      "name": "renounceOwnership",
      "outputs": [],
      "stateMutability": "nonpayable",
      "type": "function"
    },
    {
      "inputs": [
        {
          "internalType": "address",
          "name": "newOwner",
          "type": "address"
        }
      ],
      "name": "transferOwnership",
      "outputs": [],
      "stateMutability": "nonpayable",
      "type": "function"
    }
  ],
  "transactionHash": "0xd018166d308204482ad81c79581d10b8d527db1608ae24eaceb6bf7cd5d5b4ff",
  "args": [
    "0xc778417e063141139fce010982780140aa0cd5ab"
  ],
  "solcInputHash": "04f14d63fd1b9a79257502ddc1c8c16b",
  "bytecode": "0x60806040523480156200001157600080fd5b506040516200277d3803806200277d83398181016040528101906200003791906200062d565b600062000049620001cd60201b60201c565b9050806000806101000a81548173ffffffffffffffffffffffffffffffffffffffff021916908373ffffffffffffffffffffffffffffffffffffffff1602179055508073ffffffffffffffffffffffffffffffffffffffff16600073ffffffffffffffffffffffffffffffffffffffff167f8be0079c531659141344cd1fd0a4f28419497f9722a3daafe3b4186f6b6457e060405160405180910390a35080600860006101000a81548173ffffffffffffffffffffffffffffffffffffffff021916908373ffffffffffffffffffffffffffffffffffffffff1602179055506200019c307fffffffffffffffffffffffffffffffffffffffffffffffffffffffffffffffff600860009054906101000a900473ffffffffffffffffffffffffffffffffffffffff1673ffffffffffffffffffffffffffffffffffffffff16620001d560201b62000d05179092919060201c565b66470de4df820000600581905550662386f26fc1000060068190555066f8b0a10e4700006007819055505062000af5565b600033905090565b600081148062000275575060008373ffffffffffffffffffffffffffffffffffffffff1663dd62ed3e30856040518363ffffffff1660e01b81526004016200021f929190620008de565b60206040518083038186803b1580156200023857600080fd5b505afa1580156200024d573d6000803e3d6000fd5b505050506040513d601f19601f8201168201806040525081019062000273919062000685565b145b620002b7576040517f08c379a0000000000000000000000000000000000000000000000000000000008152600401620002ae90620009c2565b60405180910390fd5b620003428363095ea7b360e01b8484604051602401620002d99291906200090b565b604051602081830303815290604052907bffffffffffffffffffffffffffffffffffffffffffffffffffffffff19166020820180517bffffffffffffffffffffffffffffffffffffffffffffffffffffffff83818316178352505050506200034760201b60201c565b505050565b6000620003b0826040518060400160405280602081526020017f5361666545524332303a206c6f772d6c6576656c2063616c6c206661696c65648152508573ffffffffffffffffffffffffffffffffffffffff166200041b60201b62000e63179092919060201c565b9050600081511115620004165780806020019051810190620003d3919062000659565b62000415576040517f08c379a00000000000000000000000000000000000000000000000000000000081526004016200040c90620009a0565b60405180910390fd5b5b505050565b60606200043284846000856200043b60201b60201c565b90509392505050565b60608247101562000483576040517f08c379a00000000000000000000000000000000000000000000000000000000081526004016200047a906200095c565b60405180910390fd5b62000494856200056960201b60201c565b620004d6576040517f08c379a0000000000000000000000000000000000000000000000000000000008152600401620004cd906200097e565b60405180910390fd5b6000808673ffffffffffffffffffffffffffffffffffffffff168587604051620005019190620008c5565b60006040518083038185875af1925050503d806000811462000540576040519150601f19603f3d011682016040523d82523d6000602084013e62000545565b606091505b50915091506200055d8282866200057c60201b60201c565b92505050949350505050565b600080823b905060008111915050919050565b606083156200058e57829050620005e1565b600083511115620005a25782518084602001fd5b816040517f08c379a0000000000000000000000000000000000000000000000000000000008152600401620005d8919062000938565b60405180910390fd5b9392505050565b600081519050620005f98162000aa7565b92915050565b600081519050620006108162000ac1565b92915050565b600081519050620006278162000adb565b92915050565b6000602082840312156200064057600080fd5b60006200065084828501620005e8565b91505092915050565b6000602082840312156200066c57600080fd5b60006200067c84828501620005ff565b91505092915050565b6000602082840312156200069857600080fd5b6000620006a88482850162000616565b91505092915050565b620006bc8162000a16565b82525050565b6000620006cf82620009e4565b620006db8185620009fa565b9350620006ed81856020860162000a60565b80840191505092915050565b60006200070682620009ef565b62000712818562000a05565b93506200072481856020860162000a60565b6200072f8162000a96565b840191505092915050565b60006200074960268362000a05565b91507f416464726573733a20696e73756666696369656e742062616c616e636520666f60008301527f722063616c6c00000000000000000000000000000000000000000000000000006020830152604082019050919050565b6000620007b1601d8362000a05565b91507f416464726573733a2063616c6c20746f206e6f6e2d636f6e74726163740000006000830152602082019050919050565b6000620007f3602a8362000a05565b91507f5361666545524332303a204552433230206f7065726174696f6e20646964206e60008301527f6f742073756363656564000000000000000000000000000000000000000000006020830152604082019050919050565b60006200085b60368362000a05565b91507f5361666545524332303a20617070726f76652066726f6d206e6f6e2d7a65726f60008301527f20746f206e6f6e2d7a65726f20616c6c6f77616e6365000000000000000000006020830152604082019050919050565b620008bf8162000a56565b82525050565b6000620008d38284620006c2565b915081905092915050565b6000604082019050620008f56000830185620006b1565b620009046020830184620006b1565b9392505050565b6000604082019050620009226000830185620006b1565b620009316020830184620008b4565b9392505050565b60006020820190508181036000830152620009548184620006f9565b905092915050565b6000602082019050818103600083015262000977816200073a565b9050919050565b600060208201905081810360008301526200099981620007a2565b9050919050565b60006020820190508181036000830152620009bb81620007e4565b9050919050565b60006020820190508181036000830152620009dd816200084c565b9050919050565b600081519050919050565b600081519050919050565b600081905092915050565b600082825260208201905092915050565b600062000a238262000a36565b9050919050565b60008115159050919050565b600073ffffffffffffffffffffffffffffffffffffffff82169050919050565b6000819050919050565b60005b8381101562000a8057808201518184015260208101905062000a63565b8381111562000a90576000848401525b50505050565b6000601f19601f8301169050919050565b62000ab28162000a16565b811462000abe57600080fd5b50565b62000acc8162000a2a565b811462000ad857600080fd5b50565b62000ae68162000a56565b811462000af257600080fd5b50565b611c788062000b056000396000f3fe608060405234801561001057600080fd5b50600436106100a95760003560e01c80638da5cb5b116100715780638da5cb5b14610166578063ac4afa3814610184578063b1931b3d146101b5578063c1bce0b7146101e5578063d2cdcad314610201578063f2fde38b14610231576100a9565b80633c5b1c59146100ae5780635dfe55d8146100de5780637082d2031461010f578063715018a61461012b5780638d249b9d14610135575b600080fd5b6100c860048036038101906100c39190611275565b61024d565b6040516100d5919061192e565b60405180910390f35b6100f860048036038101906100f391906113b7565b61027e565b604051610106929190611949565b60405180910390f35b610129600480360381019061012491906112b1565b6103d3565b005b6101336105fe565b005b61014f600480360381019061014a91906113b7565b610738565b60405161015d929190611949565b60405180910390f35b61016e61089a565b60405161017b9190611768565b60405180910390f35b61019e60048036038101906101999190611329565b6108c3565b6040516101ac929190611972565b60405180910390f35b6101cf60048036038101906101ca919061137b565b6108e7565b6040516101dc919061192e565b60405180910390f35b6101ff60048036038101906101fa91906112b1565b61090c565b005b61021b6004803603810190610216919061137b565b610b37565b604051610228919061192e565b60405180910390f35b61024b6004803603810190610246919061124c565b610b5c565b005b6004602052816000526040600020818154811061026957600080fd5b90600052602060002001600091509150505481565b60006102886111de565b600061029384610e7b565b90508042106102d7576040517f08c379a00000000000000000000000000000000000000000000000000000000081526004016102ce9061188e565b60405180910390fd5b600060036000838152602001908152602001600020604051806040016040529081600082015481526020016001820154815250509050858160000181815161031f91906119cd565b91508181525050600062015180610340428561033b9190611aae565b610e9a565b61034a9190611a23565b905060008260000151670de0b6b3a7640000846020015161036b9190611a54565b6103759190611a23565b90506000670de0b6b3a7640000826007546103909190611a54565b61039a9190611a23565b6005546103a791906119cd565b905061016d83826103b89190611a54565b6103c29190611a23565b849650965050505050509250929050565b60006103de82610e7b565b9050804210610422576040517f08c379a00000000000000000000000000000000000000000000000000000000081526004016104199061188e565b60405180910390fd5b60006002600083815260200190815260200160002060008673ffffffffffffffffffffffffffffffffffffffff1673ffffffffffffffffffffffffffffffffffffffff168152602001908152602001600020549050600081146104ba576040517f08c379a00000000000000000000000000000000000000000000000000000000081526004016104b19061190e565b60405180910390fd5b610509308686600860009054906101000a900473ffffffffffffffffffffffffffffffffffffffff1673ffffffffffffffffffffffffffffffffffffffff16610ebd909392919063ffffffff16565b6000806105168686610738565b91509150818661052691906119cd565b6002600086815260200190815260200160002060008973ffffffffffffffffffffffffffffffffffffffff1673ffffffffffffffffffffffffffffffffffffffff16815260200190815260200160002081905550806003600086815260200190815260200160002060008201518160000155602082015181600101559050508673ffffffffffffffffffffffffffffffffffffffff167f06153dfb5bbf321206abf6a0d656bffd50bce385b925414cf7a7dd4ebcbca7ae87866040516105ed929190611972565b60405180910390a250505050505050565b610606610f46565b73ffffffffffffffffffffffffffffffffffffffff1661062461089a565b73ffffffffffffffffffffffffffffffffffffffff161461067a576040517f08c379a00000000000000000000000000000000000000000000000000000000081526004016106719061186e565b60405180910390fd5b600073ffffffffffffffffffffffffffffffffffffffff1660008054906101000a900473ffffffffffffffffffffffffffffffffffffffff1673ffffffffffffffffffffffffffffffffffffffff167f8be0079c531659141344cd1fd0a4f28419497f9722a3daafe3b4186f6b6457e060405160405180910390a360008060006101000a81548173ffffffffffffffffffffffffffffffffffffffff021916908373ffffffffffffffffffffffffffffffffffffffff160217905550565b60006107426111de565b600061074d84610e7b565b9050804210610791576040517f08c379a00000000000000000000000000000000000000000000000000000000081526004016107889061188e565b60405180910390fd5b60006003600083815260200190815260200160002060405180604001604052908160008201548152602001600182015481525050905085816020018181516107d991906119cd565b915081815250506000620151806107fa42856107f59190611aae565b610e9a565b6108049190611a23565b905060008260000151670de0b6b3a764000084602001516108259190611a54565b61082f9190611a23565b90506000670de0b6b3a76400008260075461084a9190611a54565b6108549190611a23565b60065460055461086491906119cd565b61086e91906119cd565b905061016d838261087f9190611a54565b6108899190611a23565b849650965050505050509250929050565b60008060009054906101000a900473ffffffffffffffffffffffffffffffffffffffff16905090565b60036020528060005260406000206000915090508060000154908060010154905082565b6002602052816000526040600020602052806000526040600020600091509150505481565b600061091782610e7b565b905080421061095b576040517f08c379a00000000000000000000000000000000000000000000000000000000081526004016109529061188e565b60405180910390fd5b60006001600083815260200190815260200160002060008673ffffffffffffffffffffffffffffffffffffffff1673ffffffffffffffffffffffffffffffffffffffff168152602001908152602001600020549050600081146109f3576040517f08c379a00000000000000000000000000000000000000000000000000000000081526004016109ea9061190e565b60405180910390fd5b610a42853086600860009054906101000a900473ffffffffffffffffffffffffffffffffffffffff1673ffffffffffffffffffffffffffffffffffffffff16610ebd909392919063ffffffff16565b600080610a4f868661027e565b915091508186610a5f91906119cd565b6002600086815260200190815260200160002060008973ffffffffffffffffffffffffffffffffffffffff1673ffffffffffffffffffffffffffffffffffffffff16815260200190815260200160002081905550806003600086815260200190815260200160002060008201518160000155602082015181600101559050508673ffffffffffffffffffffffffffffffffffffffff167feae9cfbc77fdd40ca899f36b608256063b2bc9d8178b0220f7ad513e178d67308786604051610b26929190611972565b60405180910390a250505050505050565b6001602052816000526040600020602052806000526040600020600091509150505481565b610b64610f46565b73ffffffffffffffffffffffffffffffffffffffff16610b8261089a565b73ffffffffffffffffffffffffffffffffffffffff1614610bd8576040517f08c379a0000000000000000000000000000000000000000000000000000000008152600401610bcf9061186e565b60405180910390fd5b600073ffffffffffffffffffffffffffffffffffffffff168173ffffffffffffffffffffffffffffffffffffffff161415610c48576040517f08c379a0000000000000000000000000000000000000000000000000000000008152600401610c3f9061182e565b60405180910390fd5b8073ffffffffffffffffffffffffffffffffffffffff1660008054906101000a900473ffffffffffffffffffffffffffffffffffffffff1673ffffffffffffffffffffffffffffffffffffffff167f8be0079c531659141344cd1fd0a4f28419497f9722a3daafe3b4186f6b6457e060405160405180910390a3806000806101000a81548173ffffffffffffffffffffffffffffffffffffffff021916908373ffffffffffffffffffffffffffffffffffffffff16021790555050565b6000811480610d9e575060008373ffffffffffffffffffffffffffffffffffffffff1663dd62ed3e30856040518363ffffffff1660e01b8152600401610d4c929190611783565b60206040518083038186803b158015610d6457600080fd5b505afa158015610d78573d6000803e3d6000fd5b505050506040513d601f19601f82011682018060405250810190610d9c9190611352565b145b610ddd576040517f08c379a0000000000000000000000000000000000000000000000000000000008152600401610dd4906118ee565b60405180910390fd5b610e5e8363095ea7b360e01b8484604051602401610dfc9291906117e3565b604051602081830303815290604052907bffffffffffffffffffffffffffffffffffffffffffffffffffffffff19166020820180517bffffffffffffffffffffffffffffffffffffffffffffffffffffffff8381831617835250505050610f4e565b505050565b6060610e728484600085611015565b90509392505050565b600080610e8f610e8a84611129565b61114c565b905080915050919050565b600062014a7882610eab9190611b5d565b82610eb69190611aae565b9050919050565b610f40846323b872dd60e01b858585604051602401610ede939291906117ac565b604051602081830303815290604052907bffffffffffffffffffffffffffffffffffffffffffffffffffffffff19166020820180517bffffffffffffffffffffffffffffffffffffffffffffffffffffffff8381831617835250505050610f4e565b50505050565b600033905090565b6000610fb0826040518060400160405280602081526020017f5361666545524332303a206c6f772d6c6576656c2063616c6c206661696c65648152508573ffffffffffffffffffffffffffffffffffffffff16610e639092919063ffffffff16565b90506000815111156110105780806020019051810190610fd09190611300565b61100f576040517f08c379a0000000000000000000000000000000000000000000000000000000008152600401611006906118ce565b60405180910390fd5b5b505050565b60608247101561105a576040517f08c379a00000000000000000000000000000000000000000000000000000000081526004016110519061184e565b60405180910390fd5b61106385611164565b6110a2576040517f08c379a0000000000000000000000000000000000000000000000000000000008152600401611099906118ae565b60405180910390fd5b6000808673ffffffffffffffffffffffffffffffffffffffff1685876040516110cb9190611751565b60006040518083038185875af1925050503d8060008114611108576040519150601f19603f3d011682016040523d82523d6000602084013e61110d565b606091505b509150915061111d828286611177565b92505050949350505050565b600062278d008261113a9190611b5d565b826111459190611aae565b9050919050565b600062278d008261115d91906119cd565b9050919050565b600080823b905060008111915050919050565b60608315611187578290506111d7565b60008351111561119a5782518084602001fd5b816040517f08c379a00000000000000000000000000000000000000000000000000000000081526004016111ce919061180c565b60405180910390fd5b9392505050565b604051806040016040528060008152602001600081525090565b60008135905061120781611bfd565b92915050565b60008151905061121c81611c14565b92915050565b60008135905061123181611c2b565b92915050565b60008151905061124681611c2b565b92915050565b60006020828403121561125e57600080fd5b600061126c848285016111f8565b91505092915050565b6000806040838503121561128857600080fd5b6000611296858286016111f8565b92505060206112a785828601611222565b9150509250929050565b6000806000606084860312156112c657600080fd5b60006112d4868287016111f8565b93505060206112e586828701611222565b92505060406112f686828701611222565b9150509250925092565b60006020828403121561131257600080fd5b60006113208482850161120d565b91505092915050565b60006020828403121561133b57600080fd5b600061134984828501611222565b91505092915050565b60006020828403121561136457600080fd5b600061137284828501611237565b91505092915050565b6000806040838503121561138e57600080fd5b600061139c85828601611222565b92505060206113ad858286016111f8565b9150509250929050565b600080604083850312156113ca57600080fd5b60006113d885828601611222565b92505060206113e985828601611222565b9150509250929050565b6113fc81611ae2565b82525050565b600061140d8261199b565b61141781856119b1565b9350611427818560208601611b2a565b80840191505092915050565b600061143e826119a6565b61144881856119bc565b9350611458818560208601611b2a565b61146181611bec565b840191505092915050565b60006114796026836119bc565b91507f4f776e61626c653a206e6577206f776e657220697320746865207a65726f206160008301527f64647265737300000000000000000000000000000000000000000000000000006020830152604082019050919050565b60006114df6026836119bc565b91507f416464726573733a20696e73756666696369656e742062616c616e636520666f60008301527f722063616c6c00000000000000000000000000000000000000000000000000006020830152604082019050919050565b60006115456020836119bc565b91507f4f776e61626c653a2063616c6c6572206973206e6f7420746865206f776e65726000830152602082019050919050565b60006115856014836119bc565b91507f45786166696e3a20506f6f6c204d6174757265640000000000000000000000006000830152602082019050919050565b60006115c5601d836119bc565b91507f416464726573733a2063616c6c20746f206e6f6e2d636f6e74726163740000006000830152602082019050919050565b6000611605602a836119bc565b91507f5361666545524332303a204552433230206f7065726174696f6e20646964206e60008301527f6f742073756363656564000000000000000000000000000000000000000000006020830152604082019050919050565b600061166b6036836119bc565b91507f5361666545524332303a20617070726f76652066726f6d206e6f6e2d7a65726f60008301527f20746f206e6f6e2d7a65726f20616c6c6f77616e6365000000000000000000006020830152604082019050919050565b60006116d1601b836119bc565b91507f45786166696e3a2057616c6c657420416c7265616479205573656400000000006000830152602082019050919050565b60408201600082015161171a6000850182611733565b50602082015161172d6020850182611733565b50505050565b61173c81611b20565b82525050565b61174b81611b20565b82525050565b600061175d8284611402565b915081905092915050565b600060208201905061177d60008301846113f3565b92915050565b600060408201905061179860008301856113f3565b6117a560208301846113f3565b9392505050565b60006060820190506117c160008301866113f3565b6117ce60208301856113f3565b6117db6040830184611742565b949350505050565b60006040820190506117f860008301856113f3565b6118056020830184611742565b9392505050565b600060208201905081810360008301526118268184611433565b905092915050565b600060208201905081810360008301526118478161146c565b9050919050565b60006020820190508181036000830152611867816114d2565b9050919050565b6000602082019050818103600083015261188781611538565b9050919050565b600060208201905081810360008301526118a781611578565b9050919050565b600060208201905081810360008301526118c7816115b8565b9050919050565b600060208201905081810360008301526118e7816115f8565b9050919050565b600060208201905081810360008301526119078161165e565b9050919050565b60006020820190508181036000830152611927816116c4565b9050919050565b60006020820190506119436000830184611742565b92915050565b600060608201905061195e6000830185611742565b61196b6020830184611704565b9392505050565b60006040820190506119876000830185611742565b6119946020830184611742565b9392505050565b600081519050919050565b600081519050919050565b600081905092915050565b600082825260208201905092915050565b60006119d882611b20565b91506119e383611b20565b9250827fffffffffffffffffffffffffffffffffffffffffffffffffffffffffffffffff03821115611a1857611a17611b8e565b5b828201905092915050565b6000611a2e82611b20565b9150611a3983611b20565b925082611a4957611a48611bbd565b5b828204905092915050565b6000611a5f82611b20565b9150611a6a83611b20565b9250817fffffffffffffffffffffffffffffffffffffffffffffffffffffffffffffffff0483118215151615611aa357611aa2611b8e565b5b828202905092915050565b6000611ab982611b20565b9150611ac483611b20565b925082821015611ad757611ad6611b8e565b5b828203905092915050565b6000611aed82611b00565b9050919050565b60008115159050919050565b600073ffffffffffffffffffffffffffffffffffffffff82169050919050565b6000819050919050565b60005b83811015611b48578082015181840152602081019050611b2d565b83811115611b57576000848401525b50505050565b6000611b6882611b20565b9150611b7383611b20565b925082611b8357611b82611bbd565b5b828206905092915050565b7f4e487b7100000000000000000000000000000000000000000000000000000000600052601160045260246000fd5b7f4e487b7100000000000000000000000000000000000000000000000000000000600052601260045260246000fd5b6000601f19601f8301169050919050565b611c0681611ae2565b8114611c1157600080fd5b50565b611c1d81611af4565b8114611c2857600080fd5b50565b611c3481611b20565b8114611c3f57600080fd5b5056fea2646970667358221220405f1bf7b5b433d03c79b35f6cd7959bdf8c46f5d887dbcc76698054ad17f94b64736f6c63430008000033",
  "devdoc": {
    "kind": "dev",
    "methods": {
      "borrow(address,uint256,uint256)": {
        "details": "Borrows from a wallet for a certain maturity date/pool",
        "params": {
          "amount": "amount to receive from the specified wallet",
          "from": "wallet to receive amount from",
          "maturityDate": "maturity date "
        }
      },
      "lend(address,uint256,uint256)": {
        "details": "Lends to a wallet for a certain maturity date/pool",
        "params": {
          "amount": "amount to send to the specified wallet",
          "maturityDate": "maturity date for repayment",
          "to": "wallet to send the amount"
        }
      },
      "owner()": {
        "details": "Returns the address of the current owner."
      },
      "rateBorrow(uint256,uint256)": {
        "details": "Rate that the protocol will pay when borrowing from an address a certain amount at the end of the maturity date",
        "params": {
          "amount": "amount to calculate how it would affect the pool ",
          "maturityDate": "maturity date to calculate the pool"
        }
      },
      "rateLend(uint256,uint256)": {
        "details": "Rate that the protocol will collect when lending to an address a certain amount at the end of the maturity date",
        "params": {
          "amount": "amount to calculate how it would affect the pool ",
          "maturityDate": "maturity date to calculate the pool"
        }
      },
      "renounceOwnership()": {
        "details": "Leaves the contract without owner. It will not be possible to call `onlyOwner` functions anymore. Can only be called by the current owner. NOTE: Renouncing ownership will leave the contract without an owner, thereby removing any functionality that is only available to the owner."
      },
      "transferOwnership(address)": {
        "details": "Transfers ownership of the contract to a new account (`newOwner`). Can only be called by the current owner."
      }
    },
    "version": 1
  },
  "userdoc": {
    "kind": "user",
    "methods": {},
    "version": 1
  },
  "storageLayout": {
    "storage": [
      {
        "astId": 7,
        "contract": "contracts/Exafin.sol:Exafin",
        "label": "_owner",
        "offset": 0,
        "slot": "0",
        "type": "t_address"
      },
      {
        "astId": 1932,
        "contract": "contracts/Exafin.sol:Exafin",
        "label": "borrowedAmounts",
        "offset": 0,
        "slot": "1",
        "type": "t_mapping(t_uint256,t_mapping(t_address,t_uint256))"
      },
      {
        "astId": 1938,
        "contract": "contracts/Exafin.sol:Exafin",
        "label": "lentAmounts",
        "offset": 0,
        "slot": "2",
        "type": "t_mapping(t_uint256,t_mapping(t_address,t_uint256))"
      },
      {
        "astId": 1943,
        "contract": "contracts/Exafin.sol:Exafin",
        "label": "pools",
        "offset": 0,
        "slot": "3",
        "type": "t_mapping(t_uint256,t_struct(Pool)2392_storage)"
      },
      {
        "astId": 1948,
        "contract": "contracts/Exafin.sol:Exafin",
        "label": "addressPools",
        "offset": 0,
        "slot": "4",
        "type": "t_mapping(t_address,t_array(t_uint256)dyn_storage)"
      },
      {
        "astId": 1950,
        "contract": "contracts/Exafin.sol:Exafin",
        "label": "baseRate",
        "offset": 0,
        "slot": "5",
        "type": "t_uint256"
      },
      {
        "astId": 1952,
        "contract": "contracts/Exafin.sol:Exafin",
        "label": "marginRate",
        "offset": 0,
        "slot": "6",
        "type": "t_uint256"
      },
      {
        "astId": 1954,
        "contract": "contracts/Exafin.sol:Exafin",
        "label": "slopeRate",
        "offset": 0,
        "slot": "7",
        "type": "t_uint256"
      },
      {
        "astId": 1960,
        "contract": "contracts/Exafin.sol:Exafin",
        "label": "trustedUnderlying",
        "offset": 0,
        "slot": "8",
        "type": "t_contract(IERC20)694"
      }
    ],
    "types": {
      "t_address": {
        "encoding": "inplace",
        "label": "address",
        "numberOfBytes": "20"
      },
      "t_array(t_uint256)dyn_storage": {
        "base": "t_uint256",
        "encoding": "dynamic_array",
        "label": "uint256[]",
        "numberOfBytes": "32"
      },
      "t_contract(IERC20)694": {
        "encoding": "inplace",
        "label": "contract IERC20",
        "numberOfBytes": "20"
      },
      "t_mapping(t_address,t_array(t_uint256)dyn_storage)": {
        "encoding": "mapping",
        "key": "t_address",
        "label": "mapping(address => uint256[])",
        "numberOfBytes": "32",
        "value": "t_array(t_uint256)dyn_storage"
      },
      "t_mapping(t_address,t_uint256)": {
        "encoding": "mapping",
        "key": "t_address",
        "label": "mapping(address => uint256)",
        "numberOfBytes": "32",
        "value": "t_uint256"
      },
      "t_mapping(t_uint256,t_mapping(t_address,t_uint256))": {
        "encoding": "mapping",
        "key": "t_uint256",
        "label": "mapping(uint256 => mapping(address => uint256))",
        "numberOfBytes": "32",
        "value": "t_mapping(t_address,t_uint256)"
      },
      "t_mapping(t_uint256,t_struct(Pool)2392_storage)": {
        "encoding": "mapping",
        "key": "t_uint256",
        "label": "mapping(uint256 => struct Pool)",
        "numberOfBytes": "32",
        "value": "t_struct(Pool)2392_storage"
      },
      "t_struct(Pool)2392_storage": {
        "encoding": "inplace",
        "label": "struct Pool",
        "members": [
          {
            "astId": 2389,
            "contract": "contracts/Exafin.sol:Exafin",
            "label": "borrowed",
            "offset": 0,
            "slot": "0",
            "type": "t_uint256"
          },
          {
            "astId": 2391,
            "contract": "contracts/Exafin.sol:Exafin",
            "label": "lent",
            "offset": 0,
            "slot": "1",
            "type": "t_uint256"
          }
        ],
        "numberOfBytes": "64"
      },
      "t_uint256": {
        "encoding": "inplace",
        "label": "uint256",
        "numberOfBytes": "32"
      }
    }
  }
}