{
  "address": "0x62F782D0701Ea7FeF8B46686c088e3a2f4238fF9",
  "abi": [
    {
      "inputs": [
        {
          "internalType": "address",
          "name": "_stableAddress",
          "type": "address"
        },
        {
          "internalType": "string",
          "name": "_tokenName",
          "type": "string"
        }
      ],
      "stateMutability": "nonpayable",
      "type": "constructor"
    },
    {
      "anonymous": false,
      "inputs": [
        {
          "indexed": true,
          "internalType": "address",
          "name": "to",
          "type": "address"
        },
        {
          "indexed": false,
          "internalType": "uint256",
          "name": "amount",
          "type": "uint256"
        },
        {
          "indexed": false,
          "internalType": "uint256",
          "name": "maturityDate",
          "type": "uint256"
        }
      ],
      "name": "Borrowed",
      "type": "event"
    },
    {
      "anonymous": false,
      "inputs": [
        {
          "indexed": true,
          "internalType": "address",
          "name": "from",
          "type": "address"
        },
        {
          "indexed": false,
          "internalType": "uint256",
          "name": "amount",
          "type": "uint256"
        },
        {
          "indexed": false,
          "internalType": "uint256",
          "name": "maturityDate",
          "type": "uint256"
        }
      ],
      "name": "Lent",
      "type": "event"
    },
    {
      "anonymous": false,
      "inputs": [
        {
          "indexed": true,
          "internalType": "address",
          "name": "previousOwner",
          "type": "address"
        },
        {
          "indexed": true,
          "internalType": "address",
          "name": "newOwner",
          "type": "address"
        }
      ],
      "name": "OwnershipTransferred",
      "type": "event"
    },
    {
      "inputs": [
        {
          "internalType": "address",
          "name": "",
          "type": "address"
        },
        {
          "internalType": "uint256",
          "name": "",
          "type": "uint256"
        }
      ],
      "name": "addressPools",
      "outputs": [
        {
          "internalType": "uint256",
          "name": "",
          "type": "uint256"
        }
      ],
      "stateMutability": "view",
      "type": "function"
    },
    {
      "inputs": [
        {
          "internalType": "address",
          "name": "from",
          "type": "address"
        },
        {
          "internalType": "uint256",
          "name": "amount",
          "type": "uint256"
        },
        {
          "internalType": "uint256",
          "name": "maturityDate",
          "type": "uint256"
        }
      ],
      "name": "borrowFrom",
      "outputs": [],
      "stateMutability": "nonpayable",
      "type": "function"
    },
    {
      "inputs": [
        {
          "internalType": "uint256",
          "name": "",
          "type": "uint256"
        },
        {
          "internalType": "address",
          "name": "",
          "type": "address"
        }
      ],
      "name": "borrowedAmounts",
      "outputs": [
        {
          "internalType": "uint256",
          "name": "",
          "type": "uint256"
        }
      ],
      "stateMutability": "view",
      "type": "function"
    },
    {
      "inputs": [
        {
          "internalType": "address",
          "name": "who",
          "type": "address"
        },
        {
          "internalType": "uint256",
          "name": "maturityDate",
          "type": "uint256"
        }
      ],
      "name": "getAccountSnapshot",
      "outputs": [
        {
          "internalType": "uint256",
          "name": "",
          "type": "uint256"
        },
        {
          "internalType": "uint256",
          "name": "",
          "type": "uint256"
        },
        {
          "internalType": "uint256",
          "name": "",
          "type": "uint256"
        }
      ],
      "stateMutability": "view",
      "type": "function"
    },
    {
      "inputs": [
        {
          "internalType": "address",
          "name": "to",
          "type": "address"
        },
        {
          "internalType": "uint256",
          "name": "amount",
          "type": "uint256"
        },
        {
          "internalType": "uint256",
          "name": "maturityDate",
          "type": "uint256"
        }
      ],
      "name": "lendTo",
      "outputs": [],
      "stateMutability": "nonpayable",
      "type": "function"
    },
    {
      "inputs": [
        {
          "internalType": "uint256",
          "name": "",
          "type": "uint256"
        },
        {
          "internalType": "address",
          "name": "",
          "type": "address"
        }
      ],
      "name": "lentAmounts",
      "outputs": [
        {
          "internalType": "uint256",
          "name": "",
          "type": "uint256"
        }
      ],
      "stateMutability": "view",
      "type": "function"
    },
    {
      "inputs": [],
      "name": "owner",
      "outputs": [
        {
          "internalType": "address",
          "name": "",
          "type": "address"
        }
      ],
      "stateMutability": "view",
      "type": "function"
    },
    {
      "inputs": [
        {
          "internalType": "uint256",
          "name": "",
          "type": "uint256"
        }
      ],
      "name": "pools",
      "outputs": [
        {
          "internalType": "uint256",
          "name": "borrowed",
          "type": "uint256"
        },
        {
          "internalType": "uint256",
          "name": "lent",
          "type": "uint256"
        }
      ],
      "stateMutability": "view",
      "type": "function"
    },
    {
      "inputs": [
        {
          "internalType": "uint256",
          "name": "amount",
          "type": "uint256"
        },
        {
          "internalType": "uint256",
          "name": "maturityDate",
          "type": "uint256"
        }
      ],
      "name": "rateBorrow",
      "outputs": [
        {
          "internalType": "uint256",
          "name": "",
          "type": "uint256"
        },
        {
          "components": [
            {
              "internalType": "uint256",
              "name": "borrowed",
              "type": "uint256"
            },
            {
              "internalType": "uint256",
              "name": "lent",
              "type": "uint256"
            }
          ],
          "internalType": "struct Pool",
          "name": "",
          "type": "tuple"
        }
      ],
      "stateMutability": "view",
      "type": "function"
    },
    {
      "inputs": [
        {
          "internalType": "uint256",
          "name": "amount",
          "type": "uint256"
        },
        {
          "internalType": "uint256",
          "name": "maturityDate",
          "type": "uint256"
        }
      ],
      "name": "rateLend",
      "outputs": [
        {
          "internalType": "uint256",
          "name": "",
          "type": "uint256"
        },
        {
          "components": [
            {
              "internalType": "uint256",
              "name": "borrowed",
              "type": "uint256"
            },
            {
              "internalType": "uint256",
              "name": "lent",
              "type": "uint256"
            }
          ],
          "internalType": "struct Pool",
          "name": "",
          "type": "tuple"
        }
      ],
      "stateMutability": "view",
      "type": "function"
    },
    {
      "inputs": [],
      "name": "renounceOwnership",
      "outputs": [],
      "stateMutability": "nonpayable",
      "type": "function"
    },
    {
      "inputs": [],
      "name": "tokenName",
      "outputs": [
        {
          "internalType": "string",
          "name": "",
          "type": "string"
        }
      ],
      "stateMutability": "view",
      "type": "function"
    },
    {
      "inputs": [
        {
          "internalType": "address",
          "name": "newOwner",
          "type": "address"
        }
      ],
      "name": "transferOwnership",
      "outputs": [],
      "stateMutability": "nonpayable",
      "type": "function"
    }
  ],
  "transactionHash": "0x1719872929f07060cbc757a8901bba4575638444108c5b09958341727af2a7ba",
  "args": [
    "0xc778417e063141139fce010982780140aa0cd5ab",
    "ETH"
  ],
  "solcInputHash": "90d187692155632ac5888c54fc3a1e66",
  "bytecode": "0x60806040523480156200001157600080fd5b5060405162002cff38038062002cff833981810160405281019062000037919062000769565b600062000049620001e760201b60201c565b9050806000806101000a81548173ffffffffffffffffffffffffffffffffffffffff021916908373ffffffffffffffffffffffffffffffffffffffff1602179055508073ffffffffffffffffffffffffffffffffffffffff16600073ffffffffffffffffffffffffffffffffffffffff167f8be0079c531659141344cd1fd0a4f28419497f9722a3daafe3b4186f6b6457e060405160405180910390a35081600860006101000a81548173ffffffffffffffffffffffffffffffffffffffff021916908373ffffffffffffffffffffffffffffffffffffffff1602179055506200019c307fffffffffffffffffffffffffffffffffffffffffffffffffffffffffffffffff600860009054906101000a900473ffffffffffffffffffffffffffffffffffffffff1673ffffffffffffffffffffffffffffffffffffffff16620001ef60201b62000f8a179092919060201c565b8060099080519060200190620001b492919062000602565b5066470de4df820000600581905550662386f26fc1000060068190555066f8b0a10e470000600781905550505062000d5a565b600033905090565b60008114806200028f575060008373ffffffffffffffffffffffffffffffffffffffff1663dd62ed3e30856040518363ffffffff1660e01b81526004016200023992919062000a48565b60206040518083038186803b1580156200025257600080fd5b505afa15801562000267573d6000803e3d6000fd5b505050506040513d601f19601f820116820180604052508101906200028d9190620007ef565b145b620002d1576040517f08c379a0000000000000000000000000000000000000000000000000000000008152600401620002c89062000b2c565b60405180910390fd5b6200035c8363095ea7b360e01b8484604051602401620002f392919062000a75565b604051602081830303815290604052907bffffffffffffffffffffffffffffffffffffffffffffffffffffffff19166020820180517bffffffffffffffffffffffffffffffffffffffffffffffffffffffff83818316178352505050506200036160201b60201c565b505050565b6000620003ca826040518060400160405280602081526020017f5361666545524332303a206c6f772d6c6576656c2063616c6c206661696c65648152508573ffffffffffffffffffffffffffffffffffffffff166200043560201b620010e8179092919060201c565b9050600081511115620004305780806020019051810190620003ed9190620007c3565b6200042f576040517f08c379a0000000000000000000000000000000000000000000000000000000008152600401620004269062000b0a565b60405180910390fd5b5b505050565b60606200044c84846000856200045560201b60201c565b90509392505050565b6060824710156200049d576040517f08c379a0000000000000000000000000000000000000000000000000000000008152600401620004949062000ac6565b60405180910390fd5b620004ae856200058360201b60201c565b620004f0576040517f08c379a0000000000000000000000000000000000000000000000000000000008152600401620004e79062000ae8565b60405180910390fd5b6000808673ffffffffffffffffffffffffffffffffffffffff1685876040516200051b919062000a2f565b60006040518083038185875af1925050503d80600081146200055a576040519150601f19603f3d011682016040523d82523d6000602084013e6200055f565b606091505b5091509150620005778282866200059660201b60201c565b92505050949350505050565b600080823b905060008111915050919050565b60608315620005a857829050620005fb565b600083511115620005bc5782518084602001fd5b816040517f08c379a0000000000000000000000000000000000000000000000000000000008152600401620005f2919062000aa2565b60405180910390fd5b9392505050565b828054620006109062000c67565b90600052602060002090601f01602090048101928262000634576000855562000680565b82601f106200064f57805160ff191683800117855562000680565b8280016001018555821562000680579182015b828111156200067f57825182559160200191906001019062000662565b5b5090506200068f919062000693565b5090565b5b80821115620006ae57600081600090555060010162000694565b5090565b6000620006c9620006c38462000b82565b62000b4e565b905082815260208101848484011115620006e257600080fd5b620006ef84828562000c31565b509392505050565b600081519050620007088162000d0c565b92915050565b6000815190506200071f8162000d26565b92915050565b600082601f8301126200073757600080fd5b815162000749848260208601620006b2565b91505092915050565b600081519050620007638162000d40565b92915050565b600080604083850312156200077d57600080fd5b60006200078d85828601620006f7565b925050602083015167ffffffffffffffff811115620007ab57600080fd5b620007b98582860162000725565b9150509250929050565b600060208284031215620007d657600080fd5b6000620007e6848285016200070e565b91505092915050565b6000602082840312156200080257600080fd5b6000620008128482850162000752565b91505092915050565b620008268162000be7565b82525050565b6000620008398262000bb5565b62000845818562000bcb565b93506200085781856020860162000c31565b80840191505092915050565b6000620008708262000bc0565b6200087c818562000bd6565b93506200088e81856020860162000c31565b620008998162000cfb565b840191505092915050565b6000620008b360268362000bd6565b91507f416464726573733a20696e73756666696369656e742062616c616e636520666f60008301527f722063616c6c00000000000000000000000000000000000000000000000000006020830152604082019050919050565b60006200091b601d8362000bd6565b91507f416464726573733a2063616c6c20746f206e6f6e2d636f6e74726163740000006000830152602082019050919050565b60006200095d602a8362000bd6565b91507f5361666545524332303a204552433230206f7065726174696f6e20646964206e60008301527f6f742073756363656564000000000000000000000000000000000000000000006020830152604082019050919050565b6000620009c560368362000bd6565b91507f5361666545524332303a20617070726f76652066726f6d206e6f6e2d7a65726f60008301527f20746f206e6f6e2d7a65726f20616c6c6f77616e6365000000000000000000006020830152604082019050919050565b62000a298162000c27565b82525050565b600062000a3d82846200082c565b915081905092915050565b600060408201905062000a5f60008301856200081b565b62000a6e60208301846200081b565b9392505050565b600060408201905062000a8c60008301856200081b565b62000a9b602083018462000a1e565b9392505050565b6000602082019050818103600083015262000abe818462000863565b905092915050565b6000602082019050818103600083015262000ae181620008a4565b9050919050565b6000602082019050818103600083015262000b03816200090c565b9050919050565b6000602082019050818103600083015262000b25816200094e565b9050919050565b6000602082019050818103600083015262000b4781620009b6565b9050919050565b6000604051905081810181811067ffffffffffffffff8211171562000b785762000b7762000ccc565b5b8060405250919050565b600067ffffffffffffffff82111562000ba05762000b9f62000ccc565b5b601f19601f8301169050602081019050919050565b600081519050919050565b600081519050919050565b600081905092915050565b600082825260208201905092915050565b600062000bf48262000c07565b9050919050565b60008115159050919050565b600073ffffffffffffffffffffffffffffffffffffffff82169050919050565b6000819050919050565b60005b8381101562000c5157808201518184015260208101905062000c34565b8381111562000c61576000848401525b50505050565b6000600282049050600182168062000c8057607f821691505b6020821081141562000c975762000c9662000c9d565b5b50919050565b7f4e487b7100000000000000000000000000000000000000000000000000000000600052602260045260246000fd5b7f4e487b7100000000000000000000000000000000000000000000000000000000600052604160045260246000fd5b6000601f19601f8301169050919050565b62000d178162000be7565b811462000d2357600080fd5b50565b62000d318162000bfb565b811462000d3d57600080fd5b50565b62000d4b8162000c27565b811462000d5757600080fd5b50565b611f958062000d6a6000396000f3fe608060405234801561001057600080fd5b50600436106100cf5760003560e01c80638da5cb5b1161008c578063b1931b3d11610066578063b1931b3d1461022b578063ce02da181461025b578063d2cdcad314610277578063f2fde38b146102a7576100cf565b80638da5cb5b146101c05780639b73499b146101de578063ac4afa38146101fa576100cf565b80633c5b1c59146100d457806355a1ac2e146101045780635dfe55d8146101365780636c02a93114610167578063715018a6146101855780638d249b9d1461018f575b600080fd5b6100ee60048036038101906100e991906114fa565b6102c3565b6040516100fb9190611bb3565b60405180910390f35b61011e600480360381019061011991906114fa565b6102f4565b60405161012d93929190611c20565b60405180910390f35b610150600480360381019061014b919061163c565b6103f9565b60405161015e929190611bce565b60405180910390f35b61016f61054e565b60405161017c9190611a91565b60405180910390f35b61018d6105dc565b005b6101a960048036038101906101a4919061163c565b610716565b6040516101b7929190611bce565b60405180910390f35b6101c8610878565b6040516101d591906119ed565b60405180910390f35b6101f860048036038101906101f39190611536565b6108a1565b005b610214600480360381019061020f91906115ae565b610b48565b604051610222929190611bf7565b60405180910390f35b61024560048036038101906102409190611600565b610b6c565b6040516102529190611bb3565b60405180910390f35b61027560048036038101906102709190611536565b610b91565b005b610291600480360381019061028c9190611600565b610dbc565b60405161029e9190611bb3565b60405180910390f35b6102c160048036038101906102bc91906114d1565b610de1565b005b600460205281600052604060002081815481106102df57600080fd5b90600052602060002001600091509150505481565b60008060008061030385611100565b9050804210610347576040517f08c379a000000000000000000000000000000000000000000000000000000000815260040161033e90611b13565b60405180910390fd5b60006001600083815260200190815260200160002060008873ffffffffffffffffffffffffffffffffffffffff1673ffffffffffffffffffffffffffffffffffffffff168152602001908152602001600020546002600084815260200190815260200160002060008973ffffffffffffffffffffffffffffffffffffffff1673ffffffffffffffffffffffffffffffffffffffff16815260200190815260200160002054935093509350509250925092565b6000610403611463565b600061040e84611100565b9050804210610452576040517f08c379a000000000000000000000000000000000000000000000000000000000815260040161044990611b13565b60405180910390fd5b600060036000838152602001908152602001600020604051806040016040529081600082015481526020016001820154815250509050858160000181815161049a9190611c89565b915081815250506000620151806104bb42856104b69190611d6a565b61111f565b6104c59190611cdf565b905060008260000151670de0b6b3a764000084602001516104e69190611d10565b6104f09190611cdf565b90506000670de0b6b3a76400008260075461050b9190611d10565b6105159190611cdf565b6005546105229190611c89565b905061016d83826105339190611d10565b61053d9190611cdf565b849650965050505050509250929050565b6009805461055b90611e19565b80601f016020809104026020016040519081016040528092919081815260200182805461058790611e19565b80156105d45780601f106105a9576101008083540402835291602001916105d4565b820191906000526020600020905b8154815290600101906020018083116105b757829003601f168201915b505050505081565b6105e4611142565b73ffffffffffffffffffffffffffffffffffffffff16610602610878565b73ffffffffffffffffffffffffffffffffffffffff1614610658576040517f08c379a000000000000000000000000000000000000000000000000000000000815260040161064f90611af3565b60405180910390fd5b600073ffffffffffffffffffffffffffffffffffffffff1660008054906101000a900473ffffffffffffffffffffffffffffffffffffffff1673ffffffffffffffffffffffffffffffffffffffff167f8be0079c531659141344cd1fd0a4f28419497f9722a3daafe3b4186f6b6457e060405160405180910390a360008060006101000a81548173ffffffffffffffffffffffffffffffffffffffff021916908373ffffffffffffffffffffffffffffffffffffffff160217905550565b6000610720611463565b600061072b84611100565b905080421061076f576040517f08c379a000000000000000000000000000000000000000000000000000000000815260040161076690611b13565b60405180910390fd5b60006003600083815260200190815260200160002060405180604001604052908160008201548152602001600182015481525050905085816020018181516107b79190611c89565b915081815250506000620151806107d842856107d39190611d6a565b61111f565b6107e29190611cdf565b905060008260000151670de0b6b3a764000084602001516108039190611d10565b61080d9190611cdf565b90506000670de0b6b3a7640000826007546108289190611d10565b6108329190611cdf565b6006546005546108429190611c89565b61084c9190611c89565b905061016d838261085d9190611d10565b6108679190611cdf565b849650965050505050509250929050565b60008060009054906101000a900473ffffffffffffffffffffffffffffffffffffffff16905090565b6108a9611142565b73ffffffffffffffffffffffffffffffffffffffff166108c7610878565b73ffffffffffffffffffffffffffffffffffffffff161461091d576040517f08c379a000000000000000000000000000000000000000000000000000000000815260040161091490611af3565b60405180910390fd5b600061092882611100565b905080421061096c576040517f08c379a000000000000000000000000000000000000000000000000000000000815260040161096390611b13565b60405180910390fd5b60006002600083815260200190815260200160002060008673ffffffffffffffffffffffffffffffffffffffff1673ffffffffffffffffffffffffffffffffffffffff16815260200190815260200160002054905060008114610a04576040517f08c379a00000000000000000000000000000000000000000000000000000000081526004016109fb90611b93565b60405180910390fd5b600080610a118686610716565b915091508186610a219190611c89565b6002600086815260200190815260200160002060008973ffffffffffffffffffffffffffffffffffffffff1673ffffffffffffffffffffffffffffffffffffffff1681526020019081526020016000208190555080600360008681526020019081526020016000206000820151816000015560208201518160010155905050610aef308888600860009054906101000a900473ffffffffffffffffffffffffffffffffffffffff1673ffffffffffffffffffffffffffffffffffffffff1661114a909392919063ffffffff16565b8673ffffffffffffffffffffffffffffffffffffffff167f06153dfb5bbf321206abf6a0d656bffd50bce385b925414cf7a7dd4ebcbca7ae8786604051610b37929190611bf7565b60405180910390a250505050505050565b60036020528060005260406000206000915090508060000154908060010154905082565b6002602052816000526040600020602052806000526040600020600091509150505481565b6000610b9c82611100565b9050804210610be0576040517f08c379a0000000000000000000000000000000000000000000000000000000008152600401610bd790611b13565b60405180910390fd5b60006001600083815260200190815260200160002060008673ffffffffffffffffffffffffffffffffffffffff1673ffffffffffffffffffffffffffffffffffffffff16815260200190815260200160002054905060008114610c78576040517f08c379a0000000000000000000000000000000000000000000000000000000008152600401610c6f90611b93565b60405180910390fd5b600080610c8586866103f9565b915091508186610c959190611c89565b6001600086815260200190815260200160002060008973ffffffffffffffffffffffffffffffffffffffff1673ffffffffffffffffffffffffffffffffffffffff1681526020019081526020016000208190555080600360008681526020019081526020016000206000820151816000015560208201518160010155905050610d63873088600860009054906101000a900473ffffffffffffffffffffffffffffffffffffffff1673ffffffffffffffffffffffffffffffffffffffff1661114a909392919063ffffffff16565b8673ffffffffffffffffffffffffffffffffffffffff167feae9cfbc77fdd40ca899f36b608256063b2bc9d8178b0220f7ad513e178d67308786604051610dab929190611bf7565b60405180910390a250505050505050565b6001602052816000526040600020602052806000526040600020600091509150505481565b610de9611142565b73ffffffffffffffffffffffffffffffffffffffff16610e07610878565b73ffffffffffffffffffffffffffffffffffffffff1614610e5d576040517f08c379a0000000000000000000000000000000000000000000000000000000008152600401610e5490611af3565b60405180910390fd5b600073ffffffffffffffffffffffffffffffffffffffff168173ffffffffffffffffffffffffffffffffffffffff161415610ecd576040517f08c379a0000000000000000000000000000000000000000000000000000000008152600401610ec490611ab3565b60405180910390fd5b8073ffffffffffffffffffffffffffffffffffffffff1660008054906101000a900473ffffffffffffffffffffffffffffffffffffffff1673ffffffffffffffffffffffffffffffffffffffff167f8be0079c531659141344cd1fd0a4f28419497f9722a3daafe3b4186f6b6457e060405160405180910390a3806000806101000a81548173ffffffffffffffffffffffffffffffffffffffff021916908373ffffffffffffffffffffffffffffffffffffffff16021790555050565b6000811480611023575060008373ffffffffffffffffffffffffffffffffffffffff1663dd62ed3e30856040518363ffffffff1660e01b8152600401610fd1929190611a08565b60206040518083038186803b158015610fe957600080fd5b505afa158015610ffd573d6000803e3d6000fd5b505050506040513d601f19601f8201168201806040525081019061102191906115d7565b145b611062576040517f08c379a000000000000000000000000000000000000000000000000000000000815260040161105990611b73565b60405180910390fd5b6110e38363095ea7b360e01b8484604051602401611081929190611a68565b604051602081830303815290604052907bffffffffffffffffffffffffffffffffffffffffffffffffffffffff19166020820180517bffffffffffffffffffffffffffffffffffffffffffffffffffffffff83818316178352505050506111d3565b505050565b60606110f7848460008561129a565b90509392505050565b60008061111461110f846113ae565b6113d1565b905080915050919050565b600062014a78826111309190611e4b565b8261113b9190611d6a565b9050919050565b600033905090565b6111cd846323b872dd60e01b85858560405160240161116b93929190611a31565b604051602081830303815290604052907bffffffffffffffffffffffffffffffffffffffffffffffffffffffff19166020820180517bffffffffffffffffffffffffffffffffffffffffffffffffffffffff83818316178352505050506111d3565b50505050565b6000611235826040518060400160405280602081526020017f5361666545524332303a206c6f772d6c6576656c2063616c6c206661696c65648152508573ffffffffffffffffffffffffffffffffffffffff166110e89092919063ffffffff16565b905060008151111561129557808060200190518101906112559190611585565b611294576040517f08c379a000000000000000000000000000000000000000000000000000000000815260040161128b90611b53565b60405180910390fd5b5b505050565b6060824710156112df576040517f08c379a00000000000000000000000000000000000000000000000000000000081526004016112d690611ad3565b60405180910390fd5b6112e8856113e9565b611327576040517f08c379a000000000000000000000000000000000000000000000000000000000815260040161131e90611b33565b60405180910390fd5b6000808673ffffffffffffffffffffffffffffffffffffffff16858760405161135091906119d6565b60006040518083038185875af1925050503d806000811461138d576040519150601f19603f3d011682016040523d82523d6000602084013e611392565b606091505b50915091506113a28282866113fc565b92505050949350505050565b600062278d00826113bf9190611e4b565b826113ca9190611d6a565b9050919050565b600062278d00826113e29190611c89565b9050919050565b600080823b905060008111915050919050565b6060831561140c5782905061145c565b60008351111561141f5782518084602001fd5b816040517f08c379a00000000000000000000000000000000000000000000000000000000081526004016114539190611a91565b60405180910390fd5b9392505050565b604051806040016040528060008152602001600081525090565b60008135905061148c81611f1a565b92915050565b6000815190506114a181611f31565b92915050565b6000813590506114b681611f48565b92915050565b6000815190506114cb81611f48565b92915050565b6000602082840312156114e357600080fd5b60006114f18482850161147d565b91505092915050565b6000806040838503121561150d57600080fd5b600061151b8582860161147d565b925050602061152c858286016114a7565b9150509250929050565b60008060006060848603121561154b57600080fd5b60006115598682870161147d565b935050602061156a868287016114a7565b925050604061157b868287016114a7565b9150509250925092565b60006020828403121561159757600080fd5b60006115a584828501611492565b91505092915050565b6000602082840312156115c057600080fd5b60006115ce848285016114a7565b91505092915050565b6000602082840312156115e957600080fd5b60006115f7848285016114bc565b91505092915050565b6000806040838503121561161357600080fd5b6000611621858286016114a7565b92505060206116328582860161147d565b9150509250929050565b6000806040838503121561164f57600080fd5b600061165d858286016114a7565b925050602061166e858286016114a7565b9150509250929050565b61168181611d9e565b82525050565b600061169282611c57565b61169c8185611c6d565b93506116ac818560208601611de6565b80840191505092915050565b60006116c382611c62565b6116cd8185611c78565b93506116dd818560208601611de6565b6116e681611f09565b840191505092915050565b60006116fe602683611c78565b91507f4f776e61626c653a206e6577206f776e657220697320746865207a65726f206160008301527f64647265737300000000000000000000000000000000000000000000000000006020830152604082019050919050565b6000611764602683611c78565b91507f416464726573733a20696e73756666696369656e742062616c616e636520666f60008301527f722063616c6c00000000000000000000000000000000000000000000000000006020830152604082019050919050565b60006117ca602083611c78565b91507f4f776e61626c653a2063616c6c6572206973206e6f7420746865206f776e65726000830152602082019050919050565b600061180a601483611c78565b91507f45786166696e3a20506f6f6c204d6174757265640000000000000000000000006000830152602082019050919050565b600061184a601d83611c78565b91507f416464726573733a2063616c6c20746f206e6f6e2d636f6e74726163740000006000830152602082019050919050565b600061188a602a83611c78565b91507f5361666545524332303a204552433230206f7065726174696f6e20646964206e60008301527f6f742073756363656564000000000000000000000000000000000000000000006020830152604082019050919050565b60006118f0603683611c78565b91507f5361666545524332303a20617070726f76652066726f6d206e6f6e2d7a65726f60008301527f20746f206e6f6e2d7a65726f20616c6c6f77616e6365000000000000000000006020830152604082019050919050565b6000611956601b83611c78565b91507f45786166696e3a2057616c6c657420416c7265616479205573656400000000006000830152602082019050919050565b60408201600082015161199f60008501826119b8565b5060208201516119b260208501826119b8565b50505050565b6119c181611ddc565b82525050565b6119d081611ddc565b82525050565b60006119e28284611687565b915081905092915050565b6000602082019050611a026000830184611678565b92915050565b6000604082019050611a1d6000830185611678565b611a2a6020830184611678565b9392505050565b6000606082019050611a466000830186611678565b611a536020830185611678565b611a6060408301846119c7565b949350505050565b6000604082019050611a7d6000830185611678565b611a8a60208301846119c7565b9392505050565b60006020820190508181036000830152611aab81846116b8565b905092915050565b60006020820190508181036000830152611acc816116f1565b9050919050565b60006020820190508181036000830152611aec81611757565b9050919050565b60006020820190508181036000830152611b0c816117bd565b9050919050565b60006020820190508181036000830152611b2c816117fd565b9050919050565b60006020820190508181036000830152611b4c8161183d565b9050919050565b60006020820190508181036000830152611b6c8161187d565b9050919050565b60006020820190508181036000830152611b8c816118e3565b9050919050565b60006020820190508181036000830152611bac81611949565b9050919050565b6000602082019050611bc860008301846119c7565b92915050565b6000606082019050611be360008301856119c7565b611bf06020830184611989565b9392505050565b6000604082019050611c0c60008301856119c7565b611c1960208301846119c7565b9392505050565b6000606082019050611c3560008301866119c7565b611c4260208301856119c7565b611c4f60408301846119c7565b949350505050565b600081519050919050565b600081519050919050565b600081905092915050565b600082825260208201905092915050565b6000611c9482611ddc565b9150611c9f83611ddc565b9250827fffffffffffffffffffffffffffffffffffffffffffffffffffffffffffffffff03821115611cd457611cd3611e7c565b5b828201905092915050565b6000611cea82611ddc565b9150611cf583611ddc565b925082611d0557611d04611eab565b5b828204905092915050565b6000611d1b82611ddc565b9150611d2683611ddc565b9250817fffffffffffffffffffffffffffffffffffffffffffffffffffffffffffffffff0483118215151615611d5f57611d5e611e7c565b5b828202905092915050565b6000611d7582611ddc565b9150611d8083611ddc565b925082821015611d9357611d92611e7c565b5b828203905092915050565b6000611da982611dbc565b9050919050565b60008115159050919050565b600073ffffffffffffffffffffffffffffffffffffffff82169050919050565b6000819050919050565b60005b83811015611e04578082015181840152602081019050611de9565b83811115611e13576000848401525b50505050565b60006002820490506001821680611e3157607f821691505b60208210811415611e4557611e44611eda565b5b50919050565b6000611e5682611ddc565b9150611e6183611ddc565b925082611e7157611e70611eab565b5b828206905092915050565b7f4e487b7100000000000000000000000000000000000000000000000000000000600052601160045260246000fd5b7f4e487b7100000000000000000000000000000000000000000000000000000000600052601260045260246000fd5b7f4e487b7100000000000000000000000000000000000000000000000000000000600052602260045260246000fd5b6000601f19601f8301169050919050565b611f2381611d9e565b8114611f2e57600080fd5b50565b611f3a81611db0565b8114611f4557600080fd5b50565b611f5181611ddc565b8114611f5c57600080fd5b5056fea2646970667358221220a1b000e6af8aa0ac23d6da1a7642b9e608e7599901643f67c31eabcfeb7a577664736f6c63430008000033",
  "devdoc": {
    "kind": "dev",
    "methods": {
      "borrowFrom(address,uint256,uint256)": {
        "details": "Borrows from a wallet for a certain maturity date/pool",
        "params": {
          "amount": "amount to receive from the specified wallet",
          "from": "wallet to receive amount from",
          "maturityDate": "maturity date "
        }
      },
      "getAccountSnapshot(address,uint256)": {
        "details": "Gets current snapshot for a wallet in a certain maturity",
        "params": {
          "maturityDate": "maturity date",
          "who": "wallet to return status snapshot in the specified maturity date"
        }
      },
      "lendTo(address,uint256,uint256)": {
        "details": "Lends to a wallet for a certain maturity date/pool",
        "params": {
          "amount": "amount to send to the specified wallet",
          "maturityDate": "maturity date for repayment",
          "to": "wallet to send the amount"
        }
      },
      "owner()": {
        "details": "Returns the address of the current owner."
      },
      "rateBorrow(uint256,uint256)": {
        "details": "Rate that the protocol will pay when borrowing from an address a certain amount at the end of the maturity date",
        "params": {
          "amount": "amount to calculate how it would affect the pool ",
          "maturityDate": "maturity date to calculate the pool"
        }
      },
      "rateLend(uint256,uint256)": {
        "details": "Rate that the protocol will collect when lending to an address a certain amount at the end of the maturity date",
        "params": {
          "amount": "amount to calculate how it would affect the pool ",
          "maturityDate": "maturity date to calculate the pool"
        }
      },
      "renounceOwnership()": {
        "details": "Leaves the contract without owner. It will not be possible to call `onlyOwner` functions anymore. Can only be called by the current owner. NOTE: Renouncing ownership will leave the contract without an owner, thereby removing any functionality that is only available to the owner."
      },
      "transferOwnership(address)": {
        "details": "Transfers ownership of the contract to a new account (`newOwner`). Can only be called by the current owner."
      }
    },
    "version": 1
  },
  "userdoc": {
    "kind": "user",
    "methods": {},
    "version": 1
  },
  "storageLayout": {
    "storage": [
      {
        "astId": 7,
        "contract": "contracts/Exafin.sol:Exafin",
        "label": "_owner",
        "offset": 0,
        "slot": "0",
        "type": "t_address"
      },
      {
        "astId": 1400,
        "contract": "contracts/Exafin.sol:Exafin",
        "label": "borrowedAmounts",
        "offset": 0,
        "slot": "1",
        "type": "t_mapping(t_uint256,t_mapping(t_address,t_uint256))"
      },
      {
        "astId": 1406,
        "contract": "contracts/Exafin.sol:Exafin",
        "label": "lentAmounts",
        "offset": 0,
        "slot": "2",
        "type": "t_mapping(t_uint256,t_mapping(t_address,t_uint256))"
      },
      {
        "astId": 1411,
        "contract": "contracts/Exafin.sol:Exafin",
        "label": "pools",
        "offset": 0,
        "slot": "3",
        "type": "t_mapping(t_uint256,t_struct(Pool)1887_storage)"
      },
      {
        "astId": 1416,
        "contract": "contracts/Exafin.sol:Exafin",
        "label": "addressPools",
        "offset": 0,
        "slot": "4",
        "type": "t_mapping(t_address,t_array(t_uint256)dyn_storage)"
      },
      {
        "astId": 1418,
        "contract": "contracts/Exafin.sol:Exafin",
        "label": "baseRate",
        "offset": 0,
        "slot": "5",
        "type": "t_uint256"
      },
      {
        "astId": 1420,
        "contract": "contracts/Exafin.sol:Exafin",
        "label": "marginRate",
        "offset": 0,
        "slot": "6",
        "type": "t_uint256"
      },
      {
        "astId": 1422,
        "contract": "contracts/Exafin.sol:Exafin",
        "label": "slopeRate",
        "offset": 0,
        "slot": "7",
        "type": "t_uint256"
      },
      {
        "astId": 1428,
        "contract": "contracts/Exafin.sol:Exafin",
        "label": "trustedUnderlying",
        "offset": 0,
        "slot": "8",
        "type": "t_contract(IERC20)187"
      },
      {
        "astId": 1431,
        "contract": "contracts/Exafin.sol:Exafin",
        "label": "tokenName",
        "offset": 0,
        "slot": "9",
        "type": "t_string_storage"
      }
    ],
    "types": {
      "t_address": {
        "encoding": "inplace",
        "label": "address",
        "numberOfBytes": "20"
      },
      "t_array(t_uint256)dyn_storage": {
        "base": "t_uint256",
        "encoding": "dynamic_array",
        "label": "uint256[]",
        "numberOfBytes": "32"
      },
      "t_contract(IERC20)187": {
        "encoding": "inplace",
        "label": "contract IERC20",
        "numberOfBytes": "20"
      },
      "t_mapping(t_address,t_array(t_uint256)dyn_storage)": {
        "encoding": "mapping",
        "key": "t_address",
        "label": "mapping(address => uint256[])",
        "numberOfBytes": "32",
        "value": "t_array(t_uint256)dyn_storage"
      },
      "t_mapping(t_address,t_uint256)": {
        "encoding": "mapping",
        "key": "t_address",
        "label": "mapping(address => uint256)",
        "numberOfBytes": "32",
        "value": "t_uint256"
      },
      "t_mapping(t_uint256,t_mapping(t_address,t_uint256))": {
        "encoding": "mapping",
        "key": "t_uint256",
        "label": "mapping(uint256 => mapping(address => uint256))",
        "numberOfBytes": "32",
        "value": "t_mapping(t_address,t_uint256)"
      },
      "t_mapping(t_uint256,t_struct(Pool)1887_storage)": {
        "encoding": "mapping",
        "key": "t_uint256",
        "label": "mapping(uint256 => struct Pool)",
        "numberOfBytes": "32",
        "value": "t_struct(Pool)1887_storage"
      },
      "t_string_storage": {
        "encoding": "bytes",
        "label": "string",
        "numberOfBytes": "32"
      },
      "t_struct(Pool)1887_storage": {
        "encoding": "inplace",
        "label": "struct Pool",
        "members": [
          {
            "astId": 1884,
            "contract": "contracts/Exafin.sol:Exafin",
            "label": "borrowed",
            "offset": 0,
            "slot": "0",
            "type": "t_uint256"
          },
          {
            "astId": 1886,
            "contract": "contracts/Exafin.sol:Exafin",
            "label": "lent",
            "offset": 0,
            "slot": "1",
            "type": "t_uint256"
          }
        ],
        "numberOfBytes": "64"
      },
      "t_uint256": {
        "encoding": "inplace",
        "label": "uint256",
        "numberOfBytes": "32"
      }
    }
  }
}