{
  "address": "0x69295eaC101184f825EF551E0d500B2AD414adBD",
  "abi": [
    {
      "inputs": [
        {
          "internalType": "contract ERC20",
          "name": "asset_",
          "type": "address"
        },
        {
          "internalType": "uint8",
          "name": "maxFuturePools_",
          "type": "uint8"
        },
        {
          "internalType": "uint128",
          "name": "accumulatedEarningsSmoothFactor_",
          "type": "uint128"
        },
        {
          "internalType": "contract Auditor",
          "name": "auditor_",
          "type": "address"
        },
        {
          "internalType": "contract InterestRateModel",
          "name": "interestRateModel_",
          "type": "address"
        },
        {
          "internalType": "uint256",
          "name": "penaltyRate_",
          "type": "uint256"
        },
        {
          "internalType": "uint256",
          "name": "smartPoolReserveFactor_",
          "type": "uint256"
        },
        {
          "components": [
            {
              "internalType": "uint256",
              "name": "up",
              "type": "uint256"
            },
            {
              "internalType": "uint256",
              "name": "down",
              "type": "uint256"
            }
          ],
          "internalType": "struct PoolAccounting.DampSpeed",
          "name": "dampSpeed_",
          "type": "tuple"
        }
      ],
      "stateMutability": "nonpayable",
      "type": "constructor"
    },
    {
      "inputs": [],
      "name": "InsufficientProtocolLiquidity",
      "type": "error"
    },
    {
      "inputs": [],
      "name": "InvalidParameter",
      "type": "error"
    },
    {
      "inputs": [],
      "name": "MaturityOverflow",
      "type": "error"
    },
    {
      "inputs": [],
      "name": "SmartPoolReserveExceeded",
      "type": "error"
    },
    {
      "inputs": [],
      "name": "TooMuchSlippage",
      "type": "error"
    },
    {
      "inputs": [
        {
          "internalType": "uint8",
          "name": "state",
          "type": "uint8"
        },
        {
          "internalType": "uint8",
          "name": "requiredState",
          "type": "uint8"
        }
      ],
      "name": "UnmatchedPoolState",
      "type": "error"
    },
    {
      "inputs": [
        {
          "internalType": "uint8",
          "name": "state",
          "type": "uint8"
        },
        {
          "internalType": "uint8",
          "name": "requiredState",
          "type": "uint8"
        },
        {
          "internalType": "uint8",
          "name": "alternativeState",
          "type": "uint8"
        }
      ],
      "name": "UnmatchedPoolStateMultiple",
      "type": "error"
    },
    {
      "inputs": [],
      "name": "ZeroRepay",
      "type": "error"
    },
    {
      "inputs": [],
      "name": "ZeroWithdraw",
      "type": "error"
    },
    {
      "anonymous": false,
      "inputs": [
        {
          "indexed": false,
          "internalType": "uint128",
          "name": "newAccumulatedEarningsSmoothFactor",
          "type": "uint128"
        }
      ],
      "name": "AccumulatedEarningsSmoothFactorSet",
      "type": "event"
    },
    {
      "anonymous": false,
      "inputs": [
        {
          "indexed": true,
          "internalType": "address",
          "name": "owner",
          "type": "address"
        },
        {
          "indexed": true,
          "internalType": "address",
          "name": "spender",
          "type": "address"
        },
        {
          "indexed": false,
          "internalType": "uint256",
          "name": "amount",
          "type": "uint256"
        }
      ],
      "name": "Approval",
      "type": "event"
    },
    {
      "anonymous": false,
      "inputs": [
        {
          "indexed": true,
          "internalType": "address",
          "name": "liquidator",
          "type": "address"
        },
        {
          "indexed": true,
          "internalType": "address",
          "name": "borrower",
          "type": "address"
        },
        {
          "indexed": false,
          "internalType": "uint256",
          "name": "assets",
          "type": "uint256"
        }
      ],
      "name": "AssetSeized",
      "type": "event"
    },
    {
      "anonymous": false,
      "inputs": [
        {
          "indexed": true,
          "internalType": "uint256",
          "name": "maturity",
          "type": "uint256"
        },
        {
          "indexed": false,
          "internalType": "address",
          "name": "caller",
          "type": "address"
        },
        {
          "indexed": true,
          "internalType": "address",
          "name": "receiver",
          "type": "address"
        },
        {
          "indexed": true,
          "internalType": "address",
          "name": "borrower",
          "type": "address"
        },
        {
          "indexed": false,
          "internalType": "uint256",
          "name": "assets",
          "type": "uint256"
        },
        {
          "indexed": false,
          "internalType": "uint256",
          "name": "fee",
          "type": "uint256"
        }
      ],
      "name": "BorrowAtMaturity",
      "type": "event"
    },
    {
      "anonymous": false,
      "inputs": [
        {
          "indexed": false,
          "internalType": "uint256",
          "name": "newDampSpeedUp",
          "type": "uint256"
        },
        {
          "indexed": false,
          "internalType": "uint256",
          "name": "newDampSpeedDown",
          "type": "uint256"
        }
      ],
      "name": "DampSpeedSet",
      "type": "event"
    },
    {
      "anonymous": false,
      "inputs": [
        {
          "indexed": true,
          "internalType": "address",
          "name": "caller",
          "type": "address"
        },
        {
          "indexed": true,
          "internalType": "address",
          "name": "owner",
          "type": "address"
        },
        {
          "indexed": false,
          "internalType": "uint256",
          "name": "assets",
          "type": "uint256"
        },
        {
          "indexed": false,
          "internalType": "uint256",
          "name": "shares",
          "type": "uint256"
        }
      ],
      "name": "Deposit",
      "type": "event"
    },
    {
      "anonymous": false,
      "inputs": [
        {
          "indexed": true,
          "internalType": "uint256",
          "name": "maturity",
          "type": "uint256"
        },
        {
          "indexed": true,
          "internalType": "address",
          "name": "caller",
          "type": "address"
        },
        {
          "indexed": true,
          "internalType": "address",
          "name": "owner",
          "type": "address"
        },
        {
          "indexed": false,
          "internalType": "uint256",
          "name": "assets",
          "type": "uint256"
        },
        {
          "indexed": false,
          "internalType": "uint256",
          "name": "fee",
          "type": "uint256"
        }
      ],
      "name": "DepositAtMaturity",
      "type": "event"
    },
    {
      "anonymous": false,
      "inputs": [
        {
          "indexed": true,
          "internalType": "contract InterestRateModel",
          "name": "newInterestRateModel",
          "type": "address"
        }
      ],
      "name": "InterestRateModelSet",
      "type": "event"
    },
    {
      "anonymous": false,
      "inputs": [
        {
          "indexed": true,
          "internalType": "address",
          "name": "receiver",
          "type": "address"
        },
        {
          "indexed": true,
          "internalType": "address",
          "name": "borrower",
          "type": "address"
        },
        {
          "indexed": false,
          "internalType": "uint256",
          "name": "assets",
          "type": "uint256"
        },
        {
          "indexed": true,
          "internalType": "contract FixedLender",
          "name": "collateralFixedLender",
          "type": "address"
        },
        {
          "indexed": false,
          "internalType": "uint256",
          "name": "seizedAssets",
          "type": "uint256"
        }
      ],
      "name": "LiquidateBorrow",
      "type": "event"
    },
    {
      "anonymous": false,
      "inputs": [
        {
          "indexed": false,
          "internalType": "uint256",
          "name": "newMaxFuturePools",
          "type": "uint256"
        }
      ],
      "name": "MaxFuturePoolsSet",
      "type": "event"
    },
    {
      "anonymous": false,
      "inputs": [
        {
          "indexed": false,
          "internalType": "address",
          "name": "account",
          "type": "address"
        }
      ],
      "name": "Paused",
      "type": "event"
    },
    {
      "anonymous": false,
      "inputs": [
        {
          "indexed": false,
          "internalType": "uint256",
          "name": "newPenaltyRate",
          "type": "uint256"
        }
      ],
      "name": "PenaltyRateSet",
      "type": "event"
    },
    {
      "anonymous": false,
      "inputs": [
        {
          "indexed": true,
          "internalType": "uint256",
          "name": "maturity",
          "type": "uint256"
        },
        {
          "indexed": true,
          "internalType": "address",
          "name": "caller",
          "type": "address"
        },
        {
          "indexed": true,
          "internalType": "address",
          "name": "borrower",
          "type": "address"
        },
        {
          "indexed": false,
          "internalType": "uint256",
          "name": "assets",
          "type": "uint256"
        },
        {
          "indexed": false,
          "internalType": "uint256",
          "name": "positionAssets",
          "type": "uint256"
        }
      ],
      "name": "RepayAtMaturity",
      "type": "event"
    },
    {
      "anonymous": false,
      "inputs": [
        {
          "indexed": true,
          "internalType": "bytes32",
          "name": "role",
          "type": "bytes32"
        },
        {
          "indexed": true,
          "internalType": "bytes32",
          "name": "previousAdminRole",
          "type": "bytes32"
        },
        {
          "indexed": true,
          "internalType": "bytes32",
          "name": "newAdminRole",
          "type": "bytes32"
        }
      ],
      "name": "RoleAdminChanged",
      "type": "event"
    },
    {
      "anonymous": false,
      "inputs": [
        {
          "indexed": true,
          "internalType": "bytes32",
          "name": "role",
          "type": "bytes32"
        },
        {
          "indexed": true,
          "internalType": "address",
          "name": "account",
          "type": "address"
        },
        {
          "indexed": true,
          "internalType": "address",
          "name": "sender",
          "type": "address"
        }
      ],
      "name": "RoleGranted",
      "type": "event"
    },
    {
      "anonymous": false,
      "inputs": [
        {
          "indexed": true,
          "internalType": "bytes32",
          "name": "role",
          "type": "bytes32"
        },
        {
          "indexed": true,
          "internalType": "address",
          "name": "account",
          "type": "address"
        },
        {
          "indexed": true,
          "internalType": "address",
          "name": "sender",
          "type": "address"
        }
      ],
      "name": "RoleRevoked",
      "type": "event"
    },
    {
      "anonymous": false,
      "inputs": [
        {
          "indexed": false,
          "internalType": "uint256",
          "name": "previousAssets",
          "type": "uint256"
        },
        {
          "indexed": false,
          "internalType": "uint256",
          "name": "earnings",
          "type": "uint256"
        }
      ],
      "name": "SmartPoolEarningsAccrued",
      "type": "event"
    },
    {
      "anonymous": false,
      "inputs": [
        {
          "indexed": false,
          "internalType": "uint256",
          "name": "newSmartPoolReserveFactor",
          "type": "uint256"
        }
      ],
      "name": "SmartPoolReserveFactorSet",
      "type": "event"
    },
    {
      "anonymous": false,
      "inputs": [
        {
          "indexed": true,
          "internalType": "address",
          "name": "from",
          "type": "address"
        },
        {
          "indexed": true,
          "internalType": "address",
          "name": "to",
          "type": "address"
        },
        {
          "indexed": false,
          "internalType": "uint256",
          "name": "amount",
          "type": "uint256"
        }
      ],
      "name": "Transfer",
      "type": "event"
    },
    {
      "anonymous": false,
      "inputs": [
        {
          "indexed": false,
          "internalType": "address",
          "name": "account",
          "type": "address"
        }
      ],
      "name": "Unpaused",
      "type": "event"
    },
    {
      "anonymous": false,
      "inputs": [
        {
          "indexed": true,
          "internalType": "address",
          "name": "caller",
          "type": "address"
        },
        {
          "indexed": true,
          "internalType": "address",
          "name": "receiver",
          "type": "address"
        },
        {
          "indexed": true,
          "internalType": "address",
          "name": "owner",
          "type": "address"
        },
        {
          "indexed": false,
          "internalType": "uint256",
          "name": "assets",
          "type": "uint256"
        },
        {
          "indexed": false,
          "internalType": "uint256",
          "name": "shares",
          "type": "uint256"
        }
      ],
      "name": "Withdraw",
      "type": "event"
    },
    {
      "anonymous": false,
      "inputs": [
        {
          "indexed": true,
          "internalType": "uint256",
          "name": "maturity",
          "type": "uint256"
        },
        {
          "indexed": false,
          "internalType": "address",
          "name": "caller",
          "type": "address"
        },
        {
          "indexed": true,
          "internalType": "address",
          "name": "receiver",
          "type": "address"
        },
        {
          "indexed": true,
          "internalType": "address",
          "name": "owner",
          "type": "address"
        },
        {
          "indexed": false,
          "internalType": "uint256",
          "name": "assets",
          "type": "uint256"
        },
        {
          "indexed": false,
          "internalType": "uint256",
          "name": "assetsDiscounted",
          "type": "uint256"
        }
      ],
      "name": "WithdrawAtMaturity",
      "type": "event"
    },
    {
      "inputs": [],
      "name": "CLOSE_FACTOR",
      "outputs": [
        {
          "internalType": "uint256",
          "name": "",
          "type": "uint256"
        }
      ],
      "stateMutability": "view",
      "type": "function"
    },
    {
      "inputs": [],
      "name": "DEFAULT_ADMIN_ROLE",
      "outputs": [
        {
          "internalType": "bytes32",
          "name": "",
          "type": "bytes32"
        }
      ],
      "stateMutability": "view",
      "type": "function"
    },
    {
      "inputs": [],
      "name": "DOMAIN_SEPARATOR",
      "outputs": [
        {
          "internalType": "bytes32",
          "name": "",
          "type": "bytes32"
        }
      ],
      "stateMutability": "view",
      "type": "function"
    },
    {
      "inputs": [],
      "name": "PAUSER_ROLE",
      "outputs": [
        {
          "internalType": "bytes32",
          "name": "",
          "type": "bytes32"
        }
      ],
      "stateMutability": "view",
      "type": "function"
    },
    {
      "inputs": [],
      "name": "accumulatedEarningsSmoothFactor",
      "outputs": [
        {
          "internalType": "uint128",
          "name": "",
          "type": "uint128"
        }
      ],
      "stateMutability": "view",
      "type": "function"
    },
    {
      "inputs": [
        {
          "internalType": "address",
          "name": "",
          "type": "address"
        },
        {
          "internalType": "address",
          "name": "",
          "type": "address"
        }
      ],
      "name": "allowance",
      "outputs": [
        {
          "internalType": "uint256",
          "name": "",
          "type": "uint256"
        }
      ],
      "stateMutability": "view",
      "type": "function"
    },
    {
      "inputs": [
        {
          "internalType": "address",
          "name": "spender",
          "type": "address"
        },
        {
          "internalType": "uint256",
          "name": "amount",
          "type": "uint256"
        }
      ],
      "name": "approve",
      "outputs": [
        {
          "internalType": "bool",
          "name": "",
          "type": "bool"
        }
      ],
      "stateMutability": "nonpayable",
      "type": "function"
    },
    {
      "inputs": [],
      "name": "asset",
      "outputs": [
        {
          "internalType": "contract ERC20",
          "name": "",
          "type": "address"
        }
      ],
      "stateMutability": "view",
      "type": "function"
    },
    {
      "inputs": [],
      "name": "auditor",
      "outputs": [
        {
          "internalType": "contract Auditor",
          "name": "",
          "type": "address"
        }
      ],
      "stateMutability": "view",
      "type": "function"
    },
    {
      "inputs": [
        {
          "internalType": "address",
          "name": "",
          "type": "address"
        }
      ],
      "name": "balanceOf",
      "outputs": [
        {
          "internalType": "uint256",
          "name": "",
          "type": "uint256"
        }
      ],
      "stateMutability": "view",
      "type": "function"
    },
    {
      "inputs": [
        {
          "internalType": "uint256",
          "name": "maturity",
          "type": "uint256"
        },
        {
          "internalType": "uint256",
          "name": "assets",
          "type": "uint256"
        },
        {
          "internalType": "uint256",
          "name": "maxAssetsAllowed",
          "type": "uint256"
        },
        {
          "internalType": "address",
          "name": "receiver",
          "type": "address"
        },
        {
          "internalType": "address",
          "name": "borrower",
          "type": "address"
        }
      ],
      "name": "borrowAtMaturity",
      "outputs": [
        {
          "internalType": "uint256",
          "name": "assetsOwed",
          "type": "uint256"
        }
      ],
      "stateMutability": "nonpayable",
      "type": "function"
    },
    {
      "inputs": [
        {
          "internalType": "uint256",
          "name": "shares",
          "type": "uint256"
        }
      ],
      "name": "convertToAssets",
      "outputs": [
        {
          "internalType": "uint256",
          "name": "",
          "type": "uint256"
        }
      ],
      "stateMutability": "view",
      "type": "function"
    },
    {
      "inputs": [
        {
          "internalType": "uint256",
          "name": "assets",
          "type": "uint256"
        }
      ],
      "name": "convertToShares",
      "outputs": [
        {
          "internalType": "uint256",
          "name": "",
          "type": "uint256"
        }
      ],
      "stateMutability": "view",
      "type": "function"
    },
    {
      "inputs": [],
      "name": "dampSpeedDown",
      "outputs": [
        {
          "internalType": "uint256",
          "name": "",
          "type": "uint256"
        }
      ],
      "stateMutability": "view",
      "type": "function"
    },
    {
      "inputs": [],
      "name": "dampSpeedUp",
      "outputs": [
        {
          "internalType": "uint256",
          "name": "",
          "type": "uint256"
        }
      ],
      "stateMutability": "view",
      "type": "function"
    },
    {
      "inputs": [],
      "name": "decimals",
      "outputs": [
        {
          "internalType": "uint8",
          "name": "",
          "type": "uint8"
        }
      ],
      "stateMutability": "view",
      "type": "function"
    },
    {
      "inputs": [
        {
          "internalType": "uint256",
          "name": "assets",
          "type": "uint256"
        },
        {
          "internalType": "address",
          "name": "receiver",
          "type": "address"
        }
      ],
      "name": "deposit",
      "outputs": [
        {
          "internalType": "uint256",
          "name": "shares",
          "type": "uint256"
        }
      ],
      "stateMutability": "nonpayable",
      "type": "function"
    },
    {
      "inputs": [
        {
          "internalType": "uint256",
          "name": "maturity",
          "type": "uint256"
        },
        {
          "internalType": "uint256",
          "name": "assets",
          "type": "uint256"
        },
        {
          "internalType": "uint256",
          "name": "minAssetsRequired",
          "type": "uint256"
        },
        {
          "internalType": "address",
          "name": "receiver",
          "type": "address"
        }
      ],
      "name": "depositAtMaturity",
      "outputs": [
        {
          "internalType": "uint256",
          "name": "maturityAssets",
          "type": "uint256"
        }
      ],
      "stateMutability": "nonpayable",
      "type": "function"
    },
    {
      "inputs": [
        {
          "internalType": "address",
          "name": "who",
          "type": "address"
        },
        {
          "internalType": "uint256",
          "name": "maturity",
          "type": "uint256"
        }
      ],
      "name": "getAccountBorrows",
      "outputs": [
        {
          "internalType": "uint256",
          "name": "sumPositions",
          "type": "uint256"
        },
        {
          "internalType": "uint256",
          "name": "sumPenalties",
          "type": "uint256"
        }
      ],
      "stateMutability": "view",
      "type": "function"
    },
    {
      "inputs": [
        {
          "internalType": "address",
          "name": "who",
          "type": "address"
        },
        {
          "internalType": "uint256",
          "name": "maturity",
          "type": "uint256"
        }
      ],
      "name": "getAccountSnapshot",
      "outputs": [
        {
          "internalType": "uint256",
          "name": "",
          "type": "uint256"
        },
        {
          "internalType": "uint256",
          "name": "",
          "type": "uint256"
        }
      ],
      "stateMutability": "view",
      "type": "function"
    },
    {
      "inputs": [
        {
          "internalType": "bytes32",
          "name": "role",
          "type": "bytes32"
        }
      ],
      "name": "getRoleAdmin",
      "outputs": [
        {
          "internalType": "bytes32",
          "name": "",
          "type": "bytes32"
        }
      ],
      "stateMutability": "view",
      "type": "function"
    },
    {
      "inputs": [
        {
          "internalType": "bytes32",
          "name": "role",
          "type": "bytes32"
        },
        {
          "internalType": "address",
          "name": "account",
          "type": "address"
        }
      ],
      "name": "grantRole",
      "outputs": [],
      "stateMutability": "nonpayable",
      "type": "function"
    },
    {
      "inputs": [
        {
          "internalType": "bytes32",
          "name": "role",
          "type": "bytes32"
        },
        {
          "internalType": "address",
          "name": "account",
          "type": "address"
        }
      ],
      "name": "hasRole",
      "outputs": [
        {
          "internalType": "bool",
          "name": "",
          "type": "bool"
        }
      ],
      "stateMutability": "view",
      "type": "function"
    },
    {
      "inputs": [],
      "name": "interestRateModel",
      "outputs": [
        {
          "internalType": "contract InterestRateModel",
          "name": "",
          "type": "address"
        }
      ],
      "stateMutability": "view",
      "type": "function"
    },
    {
      "inputs": [],
      "name": "lastAccumulatedEarningsAccrual",
      "outputs": [
        {
          "internalType": "uint32",
          "name": "",
          "type": "uint32"
        }
      ],
      "stateMutability": "view",
      "type": "function"
    },
    {
      "inputs": [],
      "name": "lastAverageUpdate",
      "outputs": [
        {
          "internalType": "uint32",
          "name": "",
          "type": "uint32"
        }
      ],
      "stateMutability": "view",
      "type": "function"
    },
    {
      "inputs": [
        {
          "internalType": "address",
          "name": "borrower",
          "type": "address"
        },
        {
          "internalType": "uint256",
          "name": "positionAssets",
          "type": "uint256"
        },
        {
          "internalType": "uint256",
          "name": "maxAssetsAllowed",
          "type": "uint256"
        },
        {
          "internalType": "contract FixedLender",
          "name": "collateralFixedLender",
          "type": "address"
        }
      ],
      "name": "liquidate",
      "outputs": [
        {
          "internalType": "uint256",
          "name": "repaidAssets",
          "type": "uint256"
        }
      ],
      "stateMutability": "nonpayable",
      "type": "function"
    },
    {
      "inputs": [
        {
          "internalType": "uint256",
          "name": "",
          "type": "uint256"
        }
      ],
      "name": "maturityPools",
      "outputs": [
        {
          "internalType": "uint256",
          "name": "borrowed",
          "type": "uint256"
        },
        {
          "internalType": "uint256",
          "name": "supplied",
          "type": "uint256"
        },
        {
          "internalType": "uint256",
          "name": "earningsUnassigned",
          "type": "uint256"
        },
        {
          "internalType": "uint256",
          "name": "lastAccrual",
          "type": "uint256"
        }
      ],
      "stateMutability": "view",
      "type": "function"
    },
    {
      "inputs": [
        {
          "internalType": "address",
          "name": "",
          "type": "address"
        }
      ],
      "name": "maxDeposit",
      "outputs": [
        {
          "internalType": "uint256",
          "name": "",
          "type": "uint256"
        }
      ],
      "stateMutability": "view",
      "type": "function"
    },
    {
      "inputs": [],
      "name": "maxFuturePools",
      "outputs": [
        {
          "internalType": "uint8",
          "name": "",
          "type": "uint8"
        }
      ],
      "stateMutability": "view",
      "type": "function"
    },
    {
      "inputs": [
        {
          "internalType": "address",
          "name": "",
          "type": "address"
        }
      ],
      "name": "maxMint",
      "outputs": [
        {
          "internalType": "uint256",
          "name": "",
          "type": "uint256"
        }
      ],
      "stateMutability": "view",
      "type": "function"
    },
    {
      "inputs": [
        {
          "internalType": "address",
          "name": "owner",
          "type": "address"
        }
      ],
      "name": "maxRedeem",
      "outputs": [
        {
          "internalType": "uint256",
          "name": "",
          "type": "uint256"
        }
      ],
      "stateMutability": "view",
      "type": "function"
    },
    {
      "inputs": [
        {
          "internalType": "address",
          "name": "owner",
          "type": "address"
        }
      ],
      "name": "maxWithdraw",
      "outputs": [
        {
          "internalType": "uint256",
          "name": "",
          "type": "uint256"
        }
      ],
      "stateMutability": "view",
      "type": "function"
    },
    {
      "inputs": [
        {
          "internalType": "uint256",
          "name": "shares",
          "type": "uint256"
        },
        {
          "internalType": "address",
          "name": "receiver",
          "type": "address"
        }
      ],
      "name": "mint",
      "outputs": [
        {
          "internalType": "uint256",
          "name": "assets",
          "type": "uint256"
        }
      ],
      "stateMutability": "nonpayable",
      "type": "function"
    },
    {
      "inputs": [
        {
          "internalType": "uint256",
          "name": "",
          "type": "uint256"
        },
        {
          "internalType": "address",
          "name": "",
          "type": "address"
        }
      ],
      "name": "mpUserBorrowedAmount",
      "outputs": [
        {
          "internalType": "uint256",
          "name": "principal",
          "type": "uint256"
        },
        {
          "internalType": "uint256",
          "name": "fee",
          "type": "uint256"
        }
      ],
      "stateMutability": "view",
      "type": "function"
    },
    {
      "inputs": [
        {
          "internalType": "uint256",
          "name": "",
          "type": "uint256"
        },
        {
          "internalType": "address",
          "name": "",
          "type": "address"
        }
      ],
      "name": "mpUserSuppliedAmount",
      "outputs": [
        {
          "internalType": "uint256",
          "name": "principal",
          "type": "uint256"
        },
        {
          "internalType": "uint256",
          "name": "fee",
          "type": "uint256"
        }
      ],
      "stateMutability": "view",
      "type": "function"
    },
    {
      "inputs": [],
      "name": "name",
      "outputs": [
        {
          "internalType": "string",
          "name": "",
          "type": "string"
        }
      ],
      "stateMutability": "view",
      "type": "function"
    },
    {
      "inputs": [
        {
          "internalType": "address",
          "name": "",
          "type": "address"
        }
      ],
      "name": "nonces",
      "outputs": [
        {
          "internalType": "uint256",
          "name": "",
          "type": "uint256"
        }
      ],
      "stateMutability": "view",
      "type": "function"
    },
    {
      "inputs": [],
      "name": "pause",
      "outputs": [],
      "stateMutability": "nonpayable",
      "type": "function"
    },
    {
      "inputs": [],
      "name": "paused",
      "outputs": [
        {
          "internalType": "bool",
          "name": "",
          "type": "bool"
        }
      ],
      "stateMutability": "view",
      "type": "function"
    },
    {
      "inputs": [],
      "name": "penaltyRate",
      "outputs": [
        {
          "internalType": "uint256",
          "name": "",
          "type": "uint256"
        }
      ],
      "stateMutability": "view",
      "type": "function"
    },
    {
      "inputs": [
        {
          "internalType": "address",
          "name": "owner",
          "type": "address"
        },
        {
          "internalType": "address",
          "name": "spender",
          "type": "address"
        },
        {
          "internalType": "uint256",
          "name": "value",
          "type": "uint256"
        },
        {
          "internalType": "uint256",
          "name": "deadline",
          "type": "uint256"
        },
        {
          "internalType": "uint8",
          "name": "v",
          "type": "uint8"
        },
        {
          "internalType": "bytes32",
          "name": "r",
          "type": "bytes32"
        },
        {
          "internalType": "bytes32",
          "name": "s",
          "type": "bytes32"
        }
      ],
      "name": "permit",
      "outputs": [],
      "stateMutability": "nonpayable",
      "type": "function"
    },
    {
      "inputs": [
        {
          "internalType": "uint256",
          "name": "assets",
          "type": "uint256"
        }
      ],
      "name": "previewDeposit",
      "outputs": [
        {
          "internalType": "uint256",
          "name": "",
          "type": "uint256"
        }
      ],
      "stateMutability": "view",
      "type": "function"
    },
    {
      "inputs": [
        {
          "internalType": "uint256",
          "name": "shares",
          "type": "uint256"
        }
      ],
      "name": "previewMint",
      "outputs": [
        {
          "internalType": "uint256",
          "name": "",
          "type": "uint256"
        }
      ],
      "stateMutability": "view",
      "type": "function"
    },
    {
      "inputs": [
        {
          "internalType": "uint256",
          "name": "shares",
          "type": "uint256"
        }
      ],
      "name": "previewRedeem",
      "outputs": [
        {
          "internalType": "uint256",
          "name": "",
          "type": "uint256"
        }
      ],
      "stateMutability": "view",
      "type": "function"
    },
    {
      "inputs": [
        {
          "internalType": "uint256",
          "name": "assets",
          "type": "uint256"
        }
      ],
      "name": "previewWithdraw",
      "outputs": [
        {
          "internalType": "uint256",
          "name": "",
          "type": "uint256"
        }
      ],
      "stateMutability": "view",
      "type": "function"
    },
    {
      "inputs": [
        {
          "internalType": "uint256",
          "name": "shares",
          "type": "uint256"
        },
        {
          "internalType": "address",
          "name": "receiver",
          "type": "address"
        },
        {
          "internalType": "address",
          "name": "owner",
          "type": "address"
        }
      ],
      "name": "redeem",
      "outputs": [
        {
          "internalType": "uint256",
          "name": "",
          "type": "uint256"
        }
      ],
      "stateMutability": "nonpayable",
      "type": "function"
    },
    {
      "inputs": [
        {
          "internalType": "bytes32",
          "name": "role",
          "type": "bytes32"
        },
        {
          "internalType": "address",
          "name": "account",
          "type": "address"
        }
      ],
      "name": "renounceRole",
      "outputs": [],
      "stateMutability": "nonpayable",
      "type": "function"
    },
    {
      "inputs": [
        {
          "internalType": "uint256",
          "name": "maturity",
          "type": "uint256"
        },
        {
          "internalType": "uint256",
          "name": "positionAssets",
          "type": "uint256"
        },
        {
          "internalType": "uint256",
          "name": "maxAssetsAllowed",
          "type": "uint256"
        },
        {
          "internalType": "address",
          "name": "borrower",
          "type": "address"
        }
      ],
      "name": "repayAtMaturity",
      "outputs": [
        {
          "internalType": "uint256",
          "name": "actualRepayAssets",
          "type": "uint256"
        }
      ],
      "stateMutability": "nonpayable",
      "type": "function"
    },
    {
      "inputs": [
        {
          "internalType": "bytes32",
          "name": "role",
          "type": "bytes32"
        },
        {
          "internalType": "address",
          "name": "account",
          "type": "address"
        }
      ],
      "name": "revokeRole",
      "outputs": [],
      "stateMutability": "nonpayable",
      "type": "function"
    },
    {
      "inputs": [
        {
          "internalType": "address",
          "name": "liquidator",
          "type": "address"
        },
        {
          "internalType": "address",
          "name": "borrower",
          "type": "address"
        },
        {
          "internalType": "uint256",
          "name": "assets",
          "type": "uint256"
        }
      ],
      "name": "seize",
      "outputs": [],
      "stateMutability": "nonpayable",
      "type": "function"
    },
    {
      "inputs": [
        {
          "internalType": "uint128",
          "name": "accumulatedEarningsSmoothFactor_",
          "type": "uint128"
        }
      ],
      "name": "setAccumulatedEarningsSmoothFactor",
      "outputs": [],
      "stateMutability": "nonpayable",
      "type": "function"
    },
    {
      "inputs": [
        {
          "components": [
            {
              "internalType": "uint256",
              "name": "up",
              "type": "uint256"
            },
            {
              "internalType": "uint256",
              "name": "down",
              "type": "uint256"
            }
          ],
          "internalType": "struct PoolAccounting.DampSpeed",
          "name": "dampSpeed",
          "type": "tuple"
        }
      ],
      "name": "setDampSpeed",
      "outputs": [],
      "stateMutability": "nonpayable",
      "type": "function"
    },
    {
      "inputs": [
        {
          "internalType": "contract InterestRateModel",
          "name": "interestRateModel_",
          "type": "address"
        }
      ],
      "name": "setInterestRateModel",
      "outputs": [],
      "stateMutability": "nonpayable",
      "type": "function"
    },
    {
      "inputs": [
        {
          "internalType": "uint8",
          "name": "futurePools",
          "type": "uint8"
        }
      ],
      "name": "setMaxFuturePools",
      "outputs": [],
      "stateMutability": "nonpayable",
      "type": "function"
    },
    {
      "inputs": [
        {
          "internalType": "uint256",
          "name": "penaltyRate_",
          "type": "uint256"
        }
      ],
      "name": "setPenaltyRate",
      "outputs": [],
      "stateMutability": "nonpayable",
      "type": "function"
    },
    {
      "inputs": [
        {
          "internalType": "uint256",
          "name": "smartPoolReserveFactor_",
          "type": "uint256"
        }
      ],
      "name": "setSmartPoolReserveFactor",
      "outputs": [],
      "stateMutability": "nonpayable",
      "type": "function"
    },
    {
      "inputs": [],
      "name": "smartPoolAssets",
      "outputs": [
        {
          "internalType": "uint256",
          "name": "",
          "type": "uint256"
        }
      ],
      "stateMutability": "view",
      "type": "function"
    },
    {
      "inputs": [],
      "name": "smartPoolAssetsAverage",
      "outputs": [
        {
          "internalType": "uint256",
          "name": "",
          "type": "uint256"
        }
      ],
      "stateMutability": "view",
      "type": "function"
    },
    {
      "inputs": [],
      "name": "smartPoolBorrowed",
      "outputs": [
        {
          "internalType": "uint256",
          "name": "",
          "type": "uint256"
        }
      ],
      "stateMutability": "view",
      "type": "function"
    },
    {
      "inputs": [],
      "name": "smartPoolEarningsAccumulator",
      "outputs": [
        {
          "internalType": "uint256",
          "name": "",
          "type": "uint256"
        }
      ],
      "stateMutability": "view",
      "type": "function"
    },
    {
      "inputs": [],
      "name": "smartPoolReserveFactor",
      "outputs": [
        {
          "internalType": "uint256",
          "name": "",
          "type": "uint256"
        }
      ],
      "stateMutability": "view",
      "type": "function"
    },
    {
      "inputs": [
        {
          "internalType": "bytes4",
          "name": "interfaceId",
          "type": "bytes4"
        }
      ],
      "name": "supportsInterface",
      "outputs": [
        {
          "internalType": "bool",
          "name": "",
          "type": "bool"
        }
      ],
      "stateMutability": "view",
      "type": "function"
    },
    {
      "inputs": [],
      "name": "symbol",
      "outputs": [
        {
          "internalType": "string",
          "name": "",
          "type": "string"
        }
      ],
      "stateMutability": "view",
      "type": "function"
    },
    {
      "inputs": [],
      "name": "totalAssets",
      "outputs": [
        {
          "internalType": "uint256",
          "name": "",
          "type": "uint256"
        }
      ],
      "stateMutability": "view",
      "type": "function"
    },
    {
      "inputs": [],
      "name": "totalSupply",
      "outputs": [
        {
          "internalType": "uint256",
          "name": "",
          "type": "uint256"
        }
      ],
      "stateMutability": "view",
      "type": "function"
    },
    {
      "inputs": [
        {
          "internalType": "address",
          "name": "to",
          "type": "address"
        },
        {
          "internalType": "uint256",
          "name": "shares",
          "type": "uint256"
        }
      ],
      "name": "transfer",
      "outputs": [
        {
          "internalType": "bool",
          "name": "",
          "type": "bool"
        }
      ],
      "stateMutability": "nonpayable",
      "type": "function"
    },
    {
      "inputs": [
        {
          "internalType": "address",
          "name": "from",
          "type": "address"
        },
        {
          "internalType": "address",
          "name": "to",
          "type": "address"
        },
        {
          "internalType": "uint256",
          "name": "shares",
          "type": "uint256"
        }
      ],
      "name": "transferFrom",
      "outputs": [
        {
          "internalType": "bool",
          "name": "",
          "type": "bool"
        }
      ],
      "stateMutability": "nonpayable",
      "type": "function"
    },
    {
      "inputs": [],
      "name": "unpause",
      "outputs": [],
      "stateMutability": "nonpayable",
      "type": "function"
    },
    {
      "inputs": [
        {
          "internalType": "address",
          "name": "",
          "type": "address"
        }
      ],
      "name": "userMpBorrowed",
      "outputs": [
        {
          "internalType": "uint256",
          "name": "",
          "type": "uint256"
        }
      ],
      "stateMutability": "view",
      "type": "function"
    },
    {
      "inputs": [
        {
          "internalType": "address",
          "name": "",
          "type": "address"
        }
      ],
      "name": "userMpSupplied",
      "outputs": [
        {
          "internalType": "uint256",
          "name": "",
          "type": "uint256"
        }
      ],
      "stateMutability": "view",
      "type": "function"
    },
    {
      "inputs": [
        {
          "internalType": "uint256",
          "name": "assets",
          "type": "uint256"
        },
        {
          "internalType": "address",
          "name": "receiver",
          "type": "address"
        },
        {
          "internalType": "address",
          "name": "owner",
          "type": "address"
        }
      ],
      "name": "withdraw",
      "outputs": [
        {
          "internalType": "uint256",
          "name": "",
          "type": "uint256"
        }
      ],
      "stateMutability": "nonpayable",
      "type": "function"
    },
    {
      "inputs": [
        {
          "internalType": "uint256",
          "name": "maturity",
          "type": "uint256"
        },
        {
          "internalType": "uint256",
          "name": "positionAssets",
          "type": "uint256"
        },
        {
          "internalType": "uint256",
          "name": "minAssetsRequired",
          "type": "uint256"
        },
        {
          "internalType": "address",
          "name": "receiver",
          "type": "address"
        },
        {
          "internalType": "address",
          "name": "owner",
          "type": "address"
        }
      ],
      "name": "withdrawAtMaturity",
      "outputs": [
        {
          "internalType": "uint256",
          "name": "assetsDiscounted",
          "type": "uint256"
        }
      ],
      "stateMutability": "nonpayable",
      "type": "function"
    }
  ],
  "transactionHash": "0x40dd796f942f28dd67c0f3aa66059d6073425dc08fca50bff7acbd4277fe8dc8",
  "args": [
    "0xb18d016cDD2d9439A19f15633005A6b2cd6Aa774",
    3,
    "2000000000000000000",
    "0x778c90630f26447FD92719937627981e5582db66",
    "0xeC00E4A3f1c170E57f0261632c139f8330BAfbA3",
    "231481481481",
    "100000000000000000",
    {
      "up": "4600000000000000",
      "down": "420000000000000000"
    }
  ],
  "numDeployments": 1,
  "solcInputHash": "a3edfed24954129c15f7c8541495d815",
  "bytecode": "0x61012060405260016014553480156200001757600080fd5b50604051620069ea380380620069ea8339810160408190526200003a9162000a74565b838383838b8c6001600160a01b03166395d89b416040518163ffffffff1660e01b8152600401600060405180830381865afa1580156200007e573d6000803e3d6000fd5b505050506040513d6000823e601f3d908101601f19168201604052620000a8919081019062000b79565b604051602001620000ba919062000c31565b6040516020818303038152906040528d6001600160a01b03166395d89b416040518163ffffffff1660e01b8152600401600060405180830381865afa15801562000108573d6000803e3d6000fd5b505050506040513d6000823e601f3d908101601f1916820160405262000132919081019062000b79565b60405160200162000144919062000c61565b6040516020818303038152906040528181846001600160a01b031663313ce5676040518163ffffffff1660e01b8152600401602060405180830381865afa15801562000194573d6000803e3d6000fd5b505050506040513d601f19601f82011682018060405250810190620001ba919062000c8c565b8251620001cf90600090602086019062000960565b508151620001e590600190602085019062000960565b5060ff81166080524660a052620001fb62000299565b60c0525050506001600160a01b0390921660e052506200021f905060003362000335565b6200022a84620003da565b62000235836200043f565b6200024082620004c0565b6200024b816200052d565b50506015805460ff191690555062000267905060003362000335565b6001600160a01b038516610100526200028087620005c2565b6200028b866200064d565b505050505050505062000eba565b60007f8b73c3c69bb8fe3d512ecc4cf759cc79239f7b179b0ffacaa9a75d522b39400f6000604051620002cd919062000ce6565b6040805191829003822060208301939093528101919091527fc89efdaa54c0f20c7adf612882df0950f5a951637e0307cdcb4c672f298b8bc660608201524660808201523060a082015260c00160405160208183030381529060405280519060200120905090565b60008281526006602090815260408083206001600160a01b038516845290915290205460ff16620003d65760008281526006602090815260408083206001600160a01b03851684529091529020805460ff19166001179055620003953390565b6001600160a01b0316816001600160a01b0316837f2f8788117e7eff1d82e926ec794901d17c78024a50270940304540a733656f0d60405160405180910390a45b5050565b6000620003e781620006eb565b600f8054600160201b600160c01b0319166401000000006001600160a01b038516908102919091179091556040517f7902cd1307c545e3f5782172612372bf997a93698917ced12b2f83d86e347d0c90600090a25050565b60006200044c81620006eb565b6486cf16de00821180620004645750641ac688be0082105b156200048357604051630309cb8760e51b815260040160405180910390fd5b60108290556040518281527fdb0ebfb2503f7c16b45577ebbf6c7d6b99b6e8aaf6652b156e36d5d6654a3a5e906020015b60405180910390a15050565b6000620004cd81620006eb565b6702c68af0bb140000821115620004f757604051630309cb8760e51b815260040160405180910390fd5b60118290556040518281527fc424e64f100ae550a498ed25323459966a5c0b91426b22e1d62d9a5ec7d01e0a90602001620004b4565b60006200053a81620006eb565b8151670de0b6b3a764000010806200055d5750670de0b6b3a76400008260200151115b156200057c57604051630309cb8760e51b815260040160405180910390fd5b81516012819055602080840151601381905560408051938452918301527fd09fee08a2915f9ac9a77197b21a3e275d34ec9542f569eb15b95ce8f7fe28089101620004b4565b6000620005cf81620006eb565b60e08260ff161180620005e3575060ff8216155b156200060257604051630309cb8760e51b815260040160405180910390fd5b6015805461ff00191661010060ff8516908102919091179091556040519081527f23c0170203096819aed8a13739fe91ce445ec92a7e2aa228081b5e45ee582c8090602001620004b4565b60006200065a81620006eb565b673782dace9d900000826001600160801b031611156200068d57604051630309cb8760e51b815260040160405180910390fd5b60158054600160301b600160b01b03191666010000000000006001600160801b038516908102919091179091556040519081527f23b551d40eff810596d9326aa0c01a3f4e9399def252648a5b47a2cf032443c790602001620004b4565b620006f78133620006fa565b50565b60008281526006602090815260408083206001600160a01b038516845290915290205460ff16620003d65762000746816001600160a01b03166014620007a060201b6200292c1760201c565b6200075c8360206200292c620007a0821b17811c565b6040516020016200076f92919062000d89565b60408051601f198184030181529082905262461bcd60e51b8252620007979160040162000e02565b60405180910390fd5b60606000620007b183600262000e4d565b620007be90600262000e6f565b6001600160401b03811115620007d857620007d862000a33565b6040519080825280601f01601f19166020018201604052801562000803576020820181803683370190505b509050600360fc1b8160008151811062000821576200082162000e8a565b60200101906001600160f81b031916908160001a905350600f60fb1b8160018151811062000853576200085362000e8a565b60200101906001600160f81b031916908160001a90535060006200087984600262000e4d565b6200088690600162000e6f565b90505b600181111562000908576f181899199a1a9b1b9c1cb0b131b232b360811b85600f1660108110620008be57620008be62000e8a565b1a60f81b828281518110620008d757620008d762000e8a565b60200101906001600160f81b031916908160001a90535060049490941c93620009008162000ea0565b905062000889565b508315620009595760405162461bcd60e51b815260206004820181905260248201527f537472696e67733a20686578206c656e67746820696e73756666696369656e74604482015260640162000797565b9392505050565b8280546200096e9062000caa565b90600052602060002090601f016020900481019282620009925760008555620009dd565b82601f10620009ad57805160ff1916838001178555620009dd565b82800160010185558215620009dd579182015b82811115620009dd578251825591602001919060010190620009c0565b50620009eb929150620009ef565b5090565b5b80821115620009eb5760008155600101620009f0565b6001600160a01b0381168114620006f757600080fd5b805160ff8116811462000a2e57600080fd5b919050565b634e487b7160e01b600052604160045260246000fd5b604080519081016001600160401b038111828210171562000a6e5762000a6e62000a33565b60405290565b600080600080600080600080888a0361012081121562000a9357600080fd5b895162000aa08162000a06565b985062000ab060208b0162000a1c565b60408b01519098506001600160801b038116811462000ace57600080fd5b60608b015190975062000ae18162000a06565b60808b015190965062000af48162000a06565b60a08b015160c08c015191965094509250604060df198201121562000b1857600080fd5b5062000b2362000a49565b60e08a015181526101008a01516020820152809150509295985092959890939650565b60005b8381101562000b6357818101518382015260200162000b49565b8381111562000b73576000848401525b50505050565b60006020828403121562000b8c57600080fd5b81516001600160401b038082111562000ba457600080fd5b818401915084601f83011262000bb957600080fd5b81518181111562000bce5762000bce62000a33565b604051601f8201601f19908116603f0116810190838211818310171562000bf95762000bf962000a33565b8160405282815287602084870101111562000c1357600080fd5b62000c2683602083016020880162000b46565b979650505050505050565b6522aa37b5b2b760d11b81526000825162000c5481600685016020870162000b46565b9190910160060192915050565b606560f81b81526000825162000c7f81600185016020870162000b46565b9190910160010192915050565b60006020828403121562000c9f57600080fd5b620009598262000a1c565b600181811c9082168062000cbf57607f821691505b60208210810362000ce057634e487b7160e01b600052602260045260246000fd5b50919050565b600080835481600182811c91508083168062000d0357607f831692505b6020808410820362000d2357634e487b7160e01b86526022600452602486fd5b81801562000d3a576001811462000d4c5762000d7b565b60ff1986168952848901965062000d7b565b60008a81526020902060005b8681101562000d735781548b82015290850190830162000d58565b505084890196505b509498975050505050505050565b7f416363657373436f6e74726f6c3a206163636f756e742000000000000000000081526000835162000dc381601785016020880162000b46565b7001034b99036b4b9b9b4b733903937b6329607d1b601791840191820152835162000df681602884016020880162000b46565b01602801949350505050565b602081526000825180602084015262000e2381604085016020870162000b46565b601f01601f19169190910160400192915050565b634e487b7160e01b600052601160045260246000fd5b600081600019048311821515161562000e6a5762000e6a62000e37565b500290565b6000821982111562000e855762000e8562000e37565b500190565b634e487b7160e01b600052603260045260246000fd5b60008162000eb25762000eb262000e37565b506000190190565b60805160a05160c05160e05161010051615a6d62000f7d600039600081816106f40152818161106a0152818161123b01528181611f5f01528181612156015281816122ff015281816124e5015281816125500152613fb1015260008181610699015281816110d301528181611569015281816117680152818161195501528181611b4401528181611d62015281816122c0015281816140840152818161425e01526143bc015260006115d9015260006115a40152600061063b0152615a6d6000f3fe608060405234801561001057600080fd5b50600436106104c35760003560e01c806370a0823111610286578063b460af941161016b578063d547741f116100e3578063ef8b30f711610097578063f618bd1e1161007c578063f618bd1e14610b5f578063fb0fc4c314610b7f578063fd8ecd1714610b8f57600080fd5b8063ef8b30f714610b31578063f3fdb15a14610b4457600080fd5b8063d905777e116100c8578063d905777e14610ab6578063dd62ed3e14610adf578063e63ab1e914610b0a57600080fd5b8063d547741f14610a9a578063d6b7494f14610aad57600080fd5b8063c6e6f5921161013a578063ce42af671161011f578063ce42af6714610a54578063ce96cb7714610a74578063d505accf14610a8757600080fd5b8063c6e6f592146109fa578063cb0f6d4814610a0d57600080fd5b8063b460af94146109cb578063b87d7d8d146109de578063ba087652146109e7578063c63d75b61461071e57600080fd5b8063a05a091a116101fe578063a31e8cb5116101cd578063b0f64c19116101b2578063b0f64c191461099c578063b2a02ff1146109a5578063b3d7f6b9146109b857600080fd5b8063a31e8cb514610976578063a9059cbb1461098957600080fd5b8063a05a091a146108f3578063a1bab44714610906578063a217fddf14610919578063a29cb7e11461092157600080fd5b80638456cb591161025557806391d148541161023a57806391d148541461089f57806394bf804d146108d857806395d89b41146108eb57600080fd5b80638456cb59146108845780638bcd40161461088c57600080fd5b806370a08231146107ff57806373d9aa2f1461081f5780637ecebe0014610832578063821993ec1461085257600080fd5b8063360c78bc116103ac5780634051cf11116103245780634dab4dc0116102f35780635b1afd67116102d85780635b1afd67146107d85780635c975abb146107e15780636e553f65146107ec57600080fd5b80634dab4dc0146107b657806355a1ac2e146107c557600080fd5b80634051cf111461073357806340eb6eb81461075e57806345227d5f146107715780634cdad506146107a357600080fd5b80633aa18d6f1161037b5780633ec045a6116103605780633ec045a6146106ef5780633f4ba83a14610716578063402d267d1461071e57600080fd5b80633aa18d6f146106d35780633c6f317f146106dc57600080fd5b8063360c78bc146106705780633644e5151461067957806336568abe1461068157806338d52e0f1461069457600080fd5b806318160ddd1161043f578063248a9ca31161040e5780632f2ff15d116103f35780632f2ff15d14610623578063313ce5671461063657806334f7d1f21461065d57600080fd5b8063248a9ca3146105ed57806328acf2cf1461061057600080fd5b806318160ddd146105965780631a5b9e621461059f5780631b0a67fe146105b257806323b872dd146105da57600080fd5b806306fdde0311610496578063095ea7b31161047b578063095ea7b31461054c5780630a28a4771461055f5780630e52dbec1461057257600080fd5b806306fdde031461052457806307a2d13a1461053957600080fd5b806301e1d114146104c857806301ffc9a7146104e357806303be1e3f146105065780630539fa8c1461051b575b600080fd5b6104d0610b98565b6040519081526020015b60405180910390f35b6104f66104f1366004615195565b610c23565b60405190151581526020016104da565b6105196105143660046151d7565b610cbc565b005b6104d060125481565b61052c610d46565b6040516104da919061521c565b6104d06105473660046151d7565b610dd4565b6104f661055a366004615282565b610e01565b6104d061056d3660046151d7565b610e6d565b60155461058490610100900460ff1681565b60405160ff90911681526020016104da565b6104d060025481565b6104d06105ad3660046152ae565b610e8d565b6105c56105c0366004615282565b611171565b604080519283526020830191909152016104da565b6104f66105e8366004615304565b611237565b6104d06105fb3660046151d7565b60009081526006602052604090206001015490565b61051961061e36600461535b565b611303565b610519610631366004615376565b6113bf565b6105847f000000000000000000000000000000000000000000000000000000000000000081565b6104d061066b3660046153a6565b6113e9565b6104d0600d5481565b6104d06115a0565b61051961068f366004615376565b6115fb565b6106bb7f000000000000000000000000000000000000000000000000000000000000000081565b6040516001600160a01b0390911681526020016104da565b6104d060135481565b6104d06106ea3660046153a6565b611687565b6106bb7f000000000000000000000000000000000000000000000000000000000000000081565b61051961179d565b6104d061072c3660046153e7565b5060001990565b6015546107499062010000900463ffffffff1681565b60405163ffffffff90911681526020016104da565b61051961076c366004615404565b6117d2565b6105c561077f366004615376565b60076020908152600092835260408084209091529082529020805460019091015482565b6104d06107b13660046151d7565b6118ac565b6104d06706f05b59d3b2000081565b6105c56107d3366004615282565b6118b7565b6104d060115481565b60155460ff166104f6565b6104d06107fa366004615376565b6118eb565b6104d061080d3660046153e7565b60036020526000908152604090205481565b61051961082d366004615465565b6119d7565b6104d06108403660046153e7565b60056020526000908152604090205481565b6105c5610860366004615376565b60086020908152600092835260408084209091529082529020805460019091015482565b610519611a80565b61051961089a3660046153e7565b611ab2565b6104f66108ad366004615376565b60009182526006602090815260408084206001600160a01b0393909316845291905290205460ff1690565b6104d06108e6366004615376565b611b2a565b61052c611bc6565b6104d06109013660046152ae565b611bd3565b6105196109143660046151d7565b611dd9565b6104d0600081565b61095661092f3660046151d7565b600b6020526000908152604090208054600182015460028301546003909301549192909184565b6040805194855260208501939093529183015260608201526080016104da565b6104d06109843660046154db565b611e67565b6104f6610997366004615282565b6122fb565b6104d060165481565b6105196109b3366004615304565b6123be565b6104d06109c63660046151d7565b61247e565b6104d06109d936600461551a565b61249d565b6104d0600e5481565b6104d06109f536600461551a565b61254c565b6104d0610a083660046151d7565b612610565b601554610a3390660100000000000090046fffffffffffffffffffffffffffffffff1681565b6040516fffffffffffffffffffffffffffffffff90911681526020016104da565b6104d0610a623660046153e7565b60096020526000908152604090205481565b6104d0610a823660046153e7565b612630565b610519610a9536600461555c565b612652565b610519610aa8366004615376565b6128fc565b6104d060105481565b6104d0610ac43660046153e7565b6001600160a01b031660009081526003602052604090205490565b6104d0610aed3660046155ca565b600460209081526000928352604080842090915290825290205481565b6104d07f65d7a28e3265b37a6474929f336521b332c1681b933f6cb9f3376673440d862a81565b6104d0610b3f3660046151d7565b612921565b600f546106bb9064010000000090046001600160a01b031681565b6104d0610b6d3660046153e7565b600a6020526000908152604090205481565b600f546107499063ffffffff1681565b6104d0600c5481565b601554600090610100900460ff16818080806224ea0042600b60205206420390506224ea0085028101815b818111610c095780600052604060002060028101549450600381015495505084811115610bff57610bfa8442879003878403612b55565b860195505b6224ea0001610bc3565b50610c12612b74565b856016540101965050505050505090565b60007fffffffff0000000000000000000000000000000000000000000000000000000082167f7965db0b000000000000000000000000000000000000000000000000000000001480610cb657507f01ffc9a7000000000000000000000000000000000000000000000000000000007fffffffff000000000000000000000000000000000000000000000000000000008316145b92915050565b6000610cc781612c10565b6702c68af0bb140000821115610d09576040517f613970e000000000000000000000000000000000000000000000000000000000815260040160405180910390fd5b60118290556040518281527fc424e64f100ae550a498ed25323459966a5c0b91426b22e1d62d9a5ec7d01e0a906020015b60405180910390a15050565b60008054610d5390615627565b80601f0160208091040260200160405190810160405280929190818152602001828054610d7f90615627565b8015610dcc5780601f10610da157610100808354040283529160200191610dcc565b820191906000526020600020905b815481529060010190602001808311610daf57829003601f168201915b505050505081565b6002546000908015610df857610df3610deb610b98565b849083612b55565b610dfa565b825b9392505050565b3360008181526004602090815260408083206001600160a01b038716808552925280832085905551919290917f8c5be1e5ebec7d5bd14f71427d1e84f3dd0314c0f7b2291e5b200ac8c7c3b92590610e5c9086815260200190565b60405180910390a350600192915050565b6002546000908015610df857610df381610e85610b98565b859190612c1a565b6000601454600114610ee65760405162461bcd60e51b815260206004820152600a60248201527f5245454e5452414e43590000000000000000000000000000000000000000000060448201526064015b60405180910390fd5b600260145560155460ff1615610f3e5760405162461bcd60e51b815260206004820152601060248201527f5061757361626c653a20706175736564000000000000000000000000000000006044820152606401610edd565b601554610f5790610100900460ff168760036000612c48565b601654600090610f6a8885898985612db1565b9093509150336001600160a01b03851614610fe6576001600160a01b03841660009081526004602090815260408083203384529091529020546000198114610fe457610fb584610e6d565b610fbf90826156a9565b6001600160a01b03861660009081526004602090815260408083203384529091529020555b505b60408051828152602081018490527fd2297b31b9dc44ba485ec9ae19f75c6d336e647a6040455c7f4c429c1f9cf568910160405180910390a161102982826156c0565b6016556040517f144348d50000000000000000000000000000000000000000000000000000000081523060048201526001600160a01b0385811660248301527f0000000000000000000000000000000000000000000000000000000000000000169063144348d590604401600060405180830381600087803b1580156110ae57600080fd5b505af11580156110c2573d6000803e3d6000fd5b506110fc9250506001600160a01b037f000000000000000000000000000000000000000000000000000000000000000016905086896130f4565b6001600160a01b03808516908616897f66866b472f27d55d69496091bbd651907b2fb1041b3eeaca6e565ae5b5af4013338b611138818a6156a9565b604080516001600160a01b0390941684526020840192909252908201526060015b60405180910390a45050600160145595945050505050565b6000806000198303611220576001600160a01b038416600090815260096020526040812054906111a6640100000000836156d8565b9050602082901c60005b60e0811015611217576001811b821615611207576000806111e78a6111d86224ea00866156ec565b6111e290886156c0565b61319f565b90925090506111f682896156c0565b975061120281886156c0565b965050505b600190810190811b8210156111b0575b50505050611230565b61122a848461319f565b90925090505b9250929050565b60007f00000000000000000000000000000000000000000000000000000000000000006001600160a01b0316639cbda20e30866112738661247e565b6040517fffffffff0000000000000000000000000000000000000000000000000000000060e086901b1681526001600160a01b039384166004820152929091166024830152604482015260640160006040518083038186803b1580156112d857600080fd5b505afa1580156112ec573d6000803e3d6000fd5b505050506112fb84848461321f565b949350505050565b600061130e81612c10565b60e08260ff161180611321575060ff8216155b15611358576040517f613970e000000000000000000000000000000000000000000000000000000000815260040160405180910390fd5b601580547fffffffffffffffffffffffffffffffffffffffffffffffffffffffffffff00ff1661010060ff8516908102919091179091556040519081527f23c0170203096819aed8a13739fe91ce445ec92a7e2aa228081b5e45ee582c8090602001610d3a565b6000828152600660205260409020600101546113da81612c10565b6113e48383613311565b505050565b600060145460011461143d5760405162461bcd60e51b815260206004820152600a60248201527f5245454e5452414e4359000000000000000000000000000000000000000000006044820152606401610edd565b600260145560155460ff16156114955760405162461bcd60e51b815260206004820152601060248201527f5061757361626c653a20706175736564000000000000000000000000000000006044820152606401610edd565b6015546114ae90610100900460ff168660036000612c48565b60006114bc868487876133d1565b6016546040805182815260208101849052939550919350917fd2297b31b9dc44ba485ec9ae19f75c6d336e647a6040455c7f4c429c1f9cf568910160405180910390a161150982826156c0565b6016556001600160a01b03841633887fd9900507c64720c1a5e11858a42769b599616268b832495aa6afe8b9dc566e768961154481896156a9565b6040805192835260208301919091520160405180910390a46115916001600160a01b037f00000000000000000000000000000000000000000000000000000000000000001633308961363a565b50506001601455949350505050565b60007f000000000000000000000000000000000000000000000000000000000000000046146115d6576115d16136e3565b905090565b507f000000000000000000000000000000000000000000000000000000000000000090565b6001600160a01b03811633146116795760405162461bcd60e51b815260206004820152602f60248201527f416363657373436f6e74726f6c3a2063616e206f6e6c792072656e6f756e636560448201527f20726f6c657320666f722073656c6600000000000000000000000000000000006064820152608401610edd565b611683828261377d565b5050565b60006014546001146116db5760405162461bcd60e51b815260206004820152600a60248201527f5245454e5452414e4359000000000000000000000000000000000000000000006044820152606401610edd565b600260145560155460ff16156117335760405162461bcd60e51b815260206004820152601060248201527f5061757361626c653a20706175736564000000000000000000000000000000006044820152606401610edd565b60155461174c90610100900460ff168660036002612c48565b6117588585858561381e565b5090506117906001600160a01b037f00000000000000000000000000000000000000000000000000000000000000001633308461363a565b6001601455949350505050565b7f65d7a28e3265b37a6474929f336521b332c1681b933f6cb9f3376673440d862a6117c781612c10565b6117cf61390f565b50565b60006117dd81612c10565b673782dace9d900000826fffffffffffffffffffffffffffffffff161115611831576040517f613970e000000000000000000000000000000000000000000000000000000000815260040160405180910390fd5b601580547fffffffffffffffffffff00000000000000000000000000000000ffffffffffff1666010000000000006fffffffffffffffffffffffffffffffff8516908102919091179091556040519081527f23b551d40eff810596d9326aa0c01a3f4e9399def252648a5b47a2cf032443c790602001610d3a565b6000610cb682610dd4565b6000806000806118c78686611171565b915091506118d486612630565b6118de82846156c0565b9350935050509250929050565b60006118f683612921565b9050806000036119485760405162461bcd60e51b815260206004820152600b60248201527f5a45524f5f5348415245530000000000000000000000000000000000000000006044820152606401610edd565b61197d6001600160a01b037f00000000000000000000000000000000000000000000000000000000000000001633308661363a565b61198782826139c9565b60408051848152602081018390526001600160a01b0384169133917fdcbc1c05240f31ff3ad067ef1ee35ce4997762752e3a095284754544f4c709d7910160405180910390a3610cb68382613a35565b60006119e281612c10565b8151670de0b6b3a76400001080611a045750670de0b6b3a76400008260200151115b15611a3b576040517f613970e000000000000000000000000000000000000000000000000000000000815260040160405180910390fd5b81516012819055602080840151601381905560408051938452918301527fd09fee08a2915f9ac9a77197b21a3e275d34ec9542f569eb15b95ce8f7fe28089101610d3a565b7f65d7a28e3265b37a6474929f336521b332c1681b933f6cb9f3376673440d862a611aaa81612c10565b6117cf613b46565b6000611abd81612c10565b600f80547fffffffffffffffff0000000000000000000000000000000000000000ffffffff166401000000006001600160a01b038516908102919091179091556040517f7902cd1307c545e3f5782172612372bf997a93698917ced12b2f83d86e347d0c90600090a25050565b6000611b358361247e565b9050611b6c6001600160a01b037f00000000000000000000000000000000000000000000000000000000000000001633308461363a565b611b7682846139c9565b60408051828152602081018590526001600160a01b0384169133917fdcbc1c05240f31ff3ad067ef1ee35ce4997762752e3a095284754544f4c709d7910160405180910390a3610cb68184613a35565b60018054610d5390615627565b6000601454600114611c275760405162461bcd60e51b815260206004820152600a60248201527f5245454e5452414e4359000000000000000000000000000000000000000000006044820152606401610edd565b60026014556000859003611c67576040517fb8cb621900000000000000000000000000000000000000000000000000000000815260040160405180910390fd5b601554611c8090610100900460ff168760036002612c48565b601654600090611c938885898985613bec565b9093509150336001600160a01b03851614611d0f576001600160a01b03841660009081526004602090815260408083203384529091529020546000198114611d0d57611cde84610e6d565b611ce890826156a9565b6001600160a01b03861660009081526004602090815260408083203384529091529020555b505b60408051828152602081018490527fd2297b31b9dc44ba485ec9ae19f75c6d336e647a6040455c7f4c429c1f9cf568910160405180910390a1611d5282826156c0565b601655611d896001600160a01b037f00000000000000000000000000000000000000000000000000000000000000001686856130f4565b60408051338152602081018990529081018490526001600160a01b0380861691908716908a907fe57dbac0e7c42ad5f3b0fadb9c065565377cf771054fca70d35c96e01f9ec53c90606001611159565b6000611de481612c10565b6486cf16de00821180611dfb5750641ac688be0082105b15611e32576040517f613970e000000000000000000000000000000000000000000000000000000000815260040160405180910390fd5b60108290556040518281527fdb0ebfb2503f7c16b45577ebbf6c7d6b99b6e8aaf6652b156e36d5d6654a3a5e90602001610d3a565b6000601454600114611ebb5760405162461bcd60e51b815260206004820152600a60248201527f5245454e5452414e4359000000000000000000000000000000000000000000006044820152606401610edd565b600260145560155460ff1615611f135760405162461bcd60e51b815260206004820152601060248201527f5061757361626c653a20706175736564000000000000000000000000000000006044820152606401610edd565b6040517f505cd0780000000000000000000000000000000000000000000000000000000081523060048201526001600160a01b03838116602483015233604483015286811660648301527f0000000000000000000000000000000000000000000000000000000000000000169063505cd0789060840160006040518083038186803b158015611fa157600080fd5b505afa158015611fb5573d6000803e3d6000fd5b505050506000611fc786600019611171565b509050611fe585611fe06706f05b59d3b2000084613efe565b613f13565b6001600160a01b038716600090815260096020526040812054919650612010640100000000836156d8565b9050602082901c60005b60e0817bffffffffffffffffffffffffffffffffffffffffffffffffffffffff16101561210d5760017bffffffffffffffffffffffffffffffffffffffffffffffffffffffff82161b8216156120d9576000806120ad61207d6224ea008561570b565b6120a5907bffffffffffffffffffffffffffffffffffffffffffffffffffffffff16876156c0565b8c8c8f61381e565b90925090506120bc82896156c0565b97506120c8818c6156a9565b9a506120d4828b6156a9565b995050505b881561210d576001908101907bffffffffffffffffffffffffffffffffffffffffffffffffffffffff82161b82101561201a575b506040517f5efadbd10000000000000000000000000000000000000000000000000000000081523060048201526001600160a01b038781166024830152604482018790526000917f000000000000000000000000000000000000000000000000000000000000000090911690635efadbd190606401602060405180830381865afa15801561219f573d6000803e3d6000fd5b505050506040513d601f19601f820116820180604052508101906121c3919061574f565b9050306001600160a01b038816036121e6576121e130338c84613f29565b612268565b6040517fb2a02ff10000000000000000000000000000000000000000000000000000000081523360048201526001600160a01b038b811660248301526044820183905288169063b2a02ff190606401600060405180830381600087803b15801561224f57600080fd5b505af1158015612263573d6000803e3d6000fd5b505050505b60408051878152602081018390526001600160a01b03808a1692908d169133917f298637f684da70674f26509b10f07ec2fbc77a335ab1e7d6215a4b2484d8bb52910160405180910390a46122e86001600160a01b037f00000000000000000000000000000000000000000000000000000000000000001633308961363a565b5050600160145550919695505050505050565b60007f00000000000000000000000000000000000000000000000000000000000000006001600160a01b0316639cbda20e30336123378661247e565b6040517fffffffff0000000000000000000000000000000000000000000000000000000060e086901b1681526001600160a01b039384166004820152929091166024830152604482015260640160006040518083038186803b15801561239c57600080fd5b505afa1580156123b0573d6000803e3d6000fd5b50505050610dfa83836140ff565b6014546001146124105760405162461bcd60e51b815260206004820152600a60248201527f5245454e5452414e4359000000000000000000000000000000000000000000006044820152606401610edd565b600260145560155460ff16156124685760405162461bcd60e51b815260206004820152601060248201527f5061757361626c653a20706175736564000000000000000000000000000000006044820152606401610edd565b61247433848484613f29565b5050600160145550565b6002546000908015610df857610df3612495610b98565b849083612c1a565b6040517f9cbda20e0000000000000000000000000000000000000000000000000000000081523060048201526001600160a01b038281166024830152604482018590526000917f000000000000000000000000000000000000000000000000000000000000000090911690639cbda20e9060640160006040518083038186803b15801561252957600080fd5b505afa15801561253d573d6000803e3d6000fd5b505050506112fb848484614177565b60007f00000000000000000000000000000000000000000000000000000000000000006001600160a01b0316639cbda20e30846125888861247e565b6040517fffffffff0000000000000000000000000000000000000000000000000000000060e086901b1681526001600160a01b039384166004820152929091166024830152604482015260640160006040518083038186803b1580156125ed57600080fd5b505afa158015612601573d6000803e3d6000fd5b505050506112fb848484614285565b6002546000908015610df857610df381612628610b98565b859190612b55565b6001600160a01b038116600090815260036020526040812054610cb690610dd4565b428410156126a25760405162461bcd60e51b815260206004820152601760248201527f5045524d49545f444541444c494e455f455850495245440000000000000000006044820152606401610edd565b600060016126ae6115a0565b6001600160a01b038a811660008181526005602090815260409182902080546001810190915582517f6e71edae12b1b97f4d1f60370fef10105fa2faae0126114a169c64845d6126c98184015280840194909452938d166060840152608083018c905260a083019390935260c08083018b90528151808403909101815260e0830190915280519201919091207f190100000000000000000000000000000000000000000000000000000000000061010083015261010282019290925261012281019190915261014201604080517fffffffffffffffffffffffffffffffffffffffffffffffffffffffffffffffe08184030181528282528051602091820120600084529083018083525260ff871690820152606081018590526080810184905260a0016020604051602081039080840390855afa1580156127f3573d6000803e3d6000fd5b50506040517fffffffffffffffffffffffffffffffffffffffffffffffffffffffffffffffe001519150506001600160a01b038116158015906128475750876001600160a01b0316816001600160a01b0316145b6128935760405162461bcd60e51b815260206004820152600e60248201527f494e56414c49445f5349474e45520000000000000000000000000000000000006044820152606401610edd565b6001600160a01b0390811660009081526004602090815260408083208a8516808552908352928190208990555188815291928a16917f8c5be1e5ebec7d5bd14f71427d1e84f3dd0314c0f7b2291e5b200ac8c7c3b925910160405180910390a350505050505050565b60008281526006602052604090206001015461291781612c10565b6113e4838361377d565b6000610cb682612610565b6060600061293b8360026156ec565b6129469060026156c0565b67ffffffffffffffff81111561295e5761295e615436565b6040519080825280601f01601f191660200182016040528015612988576020820181803683370190505b5090507f3000000000000000000000000000000000000000000000000000000000000000816000815181106129bf576129bf615768565b60200101907effffffffffffffffffffffffffffffffffffffffffffffffffffffffffffff1916908160001a9053507f780000000000000000000000000000000000000000000000000000000000000081600181518110612a2257612a22615768565b60200101907effffffffffffffffffffffffffffffffffffffffffffffffffffffffffffff1916908160001a9053506000612a5e8460026156ec565b612a699060016156c0565b90505b6001811115612b06577f303132333435363738396162636465660000000000000000000000000000000085600f1660108110612aaa57612aaa615768565b1a60f81b828281518110612ac057612ac0615768565b60200101907effffffffffffffffffffffffffffffffffffffffffffffffffffffffffffff1916908160001a90535060049490941c93612aff81615797565b9050612a6c565b508315610dfa5760405162461bcd60e51b815260206004820181905260248201527f537472696e67733a20686578206c656e67746820696e73756666696369656e746044820152606401610edd565b828202811515841585830485141716612b6d57600080fd5b0492915050565b6015546000908190612b929062010000900463ffffffff16426156a9565b905080600003612ba457600091505090565b601554612c0a908290612bf690612bc7906224ea0090610100900460ff166157ae565b601554660100000000000090046fffffffffffffffffffffffffffffffff169063ffffffff90811690613efe16565b612c0090846156c0565b600d549190612b55565b91505090565b6117cf81336143e3565b828202811515841585830485141716612c3257600080fd5b6001826001830304018115150290509392505050565b6000612c55428587614481565b9050826004811115612c6957612c696157d1565b816004811115612c7b57612c7b6157d1565b14158015612cab5750816004811115612c9657612c966157d1565b816004811115612ca857612ca86157d1565b14155b15612daa576000826004811115612cc457612cc46157d1565b03612d2c57806004811115612cdb57612cdb6157d1565b836004811115612ced57612ced6157d1565b6040517f34e2603a00000000000000000000000000000000000000000000000000000000815260ff928316600482015291166024820152604401610edd565b806004811115612d3e57612d3e6157d1565b836004811115612d5057612d506157d1565b836004811115612d6257612d626157d1565b6040517f537c4e5100000000000000000000000000000000000000000000000000000000815260ff938416600482015291831660248301529091166044820152606401610edd565b5050505050565b6040805160c08101825260006080820181815260a083018290528252602082018190529181018290526060810182905281906000888152600b60205260409020612dfc818a426144fc565b9250612e0785614575565b600f5481546001830154600e546040517f7b5c15ef000000000000000000000000000000000000000000000000000000008152600481018e9052426024820152604481018c90526064810193909352608483019190915260a4820152612eca9164010000000090046001600160a01b031690637b5c15ef9060c401602060405180830381865afa158015612e9f573d6000803e3d6000fd5b505050506040513d601f19601f82011682018060405250810190612ec3919061574f565b8890613efe565b60208301819052612edb90886156c0565b600c54909450612ef788612eef83896156a9565b84919061463f565b612f0190826156c0565b600c819055601154909150612f2990612f2290670de0b6b3a76400006156a9565b8790613efe565b811115612f62576040517fe5b22fbf00000000000000000000000000000000000000000000000000000000815260040160405180910390fd5b86851115612f9c576040517ffa6ad35500000000000000000000000000000000000000000000000000000000815260040160405180910390fd5b60008a81526008602090815260408083206001600160a01b038d1684528252808320815180830190925280548252600101549181019190915280855251900361301c576001600160a01b038916600090815260096020526040902054613002908b6146be565b6001600160a01b038a166000908152600960205260409020555b613033836020015161302d846147eb565b8a61480a565b606085018190526040850191909152600d80546000906130549084906156c0565b909155505060408301516002830180546000906130729084906156c0565b9091555050604080518082019091528351518190613091908b906156c0565b815260200184602001518560000151602001516130ae91906156c0565b905260009a8b52600860209081526040808d206001600160a01b03909c168d529a815299909a208a51815599909801516001909901989098555090969095509350505050565b60006040517fa9059cbb000000000000000000000000000000000000000000000000000000006000528360045282602452602060006044600080895af13d15601f3d11600160005114161716915060006060528060405250806131995760405162461bcd60e51b815260206004820152600f60248201527f5452414e534645525f4641494c454400000000000000000000000000000000006044820152606401610edd565b50505050565b60008181526008602090815260408083206001600160a01b038616845282528083208151808301909252805480835260019091015492820183905283926131e5916156c0565b925060006131f38542614850565b90508015613216576132136010548261320c91906156ec565b8590613efe565b92505b50509250929050565b6001600160a01b0383166000908152600460209081526040808320338452909152812054600019811461327b5761325683826156a9565b6001600160a01b03861660009081526004602090815260408083203384529091529020555b6001600160a01b038516600090815260036020526040812080548592906132a39084906156a9565b90915550506001600160a01b03808516600081815260036020526040908190208054870190555190918716907fddf252ad1be2c89b69c2b068fc378daa952ba7f163c4a11628f55a4df523b3ef906132fe9087815260200190565b60405180910390a3506001949350505050565b60008281526006602090815260408083206001600160a01b038516845290915290205460ff166116835760008281526006602090815260408083206001600160a01b0385168452909152902080547fffffffffffffffffffffffffffffffffffffffffffffffffffffffffffffff0016600117905561338d3390565b6001600160a01b0316816001600160a01b0316837f2f8788117e7eff1d82e926ec794901d17c78024a50270940304540a733656f0d60405160405180910390a45050565b6000848152600b6020526040812081906133ec8188426144fc565b600f54909250600090819064010000000090046001600160a01b0316635e8e0ebe613416856147eb565b60028601546040517fffffffff0000000000000000000000000000000000000000000000000000000060e085901b16815260048101929092526024820152604481018a90526064016040805180830381865afa15801561347a573d6000803e3d6000fd5b505050506040513d601f19601f8201168201806040525081019061349e9190615800565b90925090506134ad82886156c0565b9450858510156134e9576040517ffa6ad35500000000000000000000000000000000000000000000000000000000815260040160405180910390fd5b6134f3838861486a565b600c600082825461350491906156a9565b90915550613514905081836156c0565b83600201600082825461352791906156a9565b9250508190555080600d600082825461354091906156c0565b909155505060008981526007602090815260408083206001600160a01b038c1684528252808320815180830190925280548083526001909101549282019290925291036135c4576001600160a01b0389166000908152600a60205260409020546135aa908b6146be565b6001600160a01b038a166000908152600a60205260409020555b60405180604001604052808983600001516135df91906156c0565b81526020018483602001516135f491906156c0565b905260009a8b52600760209081526040808d206001600160a01b03909c168d529a815299909a208a51815599909801516001909901989098555091969095509350505050565b60006040517f23b872dd000000000000000000000000000000000000000000000000000000006000528460045283602452826044526020600060646000808a5af13d15601f3d1160016000511416171691506000606052806040525080612daa5760405162461bcd60e51b815260206004820152601460248201527f5452414e534645525f46524f4d5f4641494c45440000000000000000000000006044820152606401610edd565b60007f8b73c3c69bb8fe3d512ecc4cf759cc79239f7b179b0ffacaa9a75d522b39400f60006040516137159190615824565b6040805191829003822060208301939093528101919091527fc89efdaa54c0f20c7adf612882df0950f5a951637e0307cdcb4c672f298b8bc660608201524660808201523060a082015260c00160405160208183030381529060405280519060200120905090565b60008281526006602090815260408083206001600160a01b038516845290915290205460ff16156116835760008281526006602090815260408083206001600160a01b038516808552925280832080547fffffffffffffffffffffffffffffffffffffffffffffffffffffffffffffff0016905551339285917ff6391f5c32d9c69d2a47ea670b442974b53935d1edc7fd64eb21e047a839171b9190a45050565b6000808460000361385b576040517f685e923500000000000000000000000000000000000000000000000000000000815260040160405180910390fd5b6000613869878588886148aa565b6016546040805182815260208101849052949750929550909350917fd2297b31b9dc44ba485ec9ae19f75c6d336e647a6040455c7f4c429c1f9cf568910160405180910390a16138b982826156c0565b60165560408051858152602081018590526001600160a01b0387169133918b917ff17fce321dd9fb005136a80c0bfb3789e455b7a70be9eb8922f1ad20a80d1a33910160405180910390a4505094509492505050565b60155460ff166139615760405162461bcd60e51b815260206004820152601460248201527f5061757361626c653a206e6f74207061757365640000000000000000000000006044820152606401610edd565b601580547fffffffffffffffffffffffffffffffffffffffffffffffffffffffffffffff001690557f5db9ee0a495bf2e6ff9c91a7834c1ba4fdd244a5e8aa4e537bd38aeae4b073aa335b6040516001600160a01b03909116815260200160405180910390a1565b80600260008282546139db91906156c0565b90915550506001600160a01b0382166000818152600360209081526040808320805486019055518481527fddf252ad1be2c89b69c2b068fc378daa952ba7f163c4a11628f55a4df523b3ef91015b60405180910390a35050565b60155460ff1615613a885760405162461bcd60e51b815260206004820152601060248201527f5061757361626c653a20706175736564000000000000000000000000000000006044820152606401610edd565b601654613a9481614575565b6000613a9e612b74565b601580547fffffffffffffffffffffffffffffffffffffffffffffffffffff00000000ffff16620100004263ffffffff1602179055600d80549192508291600090613aea9084906156a9565b909155505060408051838152602081018390527fd2297b31b9dc44ba485ec9ae19f75c6d336e647a6040455c7f4c429c1f9cf568910160405180910390a183613b3382846156c0565b613b3d91906156c0565b60165550505050565b60155460ff1615613b995760405162461bcd60e51b815260206004820152601060248201527f5061757361626c653a20706175736564000000000000000000000000000000006044820152606401610edd565b601580547fffffffffffffffffffffffffffffffffffffffffffffffffffffffffffffff001660011790557f62e78cea01bee320cd4e420270b5ea74000d11b0c9f74754ebdbfc544b05a2586139ac3390565b6000858152600b602052604081208190613c078189426144fc565b60008981526007602090815260408083206001600160a01b038c168452825291829020825180840190935280548084526001909101549183018290529294509091613c5291906156c0565b871115613c6d5760208101518151613c6a91906156c0565b96505b88421015613d5a57613c7e85614575565b600f5482546001840154600e546040517f7b5c15ef000000000000000000000000000000000000000000000000000000008152600481018e9052426024820152604481018c90526064810193909352608483019190915260a4820152613d539164010000000090046001600160a01b031690637b5c15ef9060c401602060405180830381865afa158015613d16573d6000803e3d6000fd5b505050506040513d601f19601f82011682018060405250810190613d3a919061574f565b613d4c90670de0b6b3a76400006156c0565b8890614bb8565b9350613d5e565b8693505b85841015613d98576040517ffa6ad35500000000000000000000000000000000000000000000000000000000815260040160405180910390fd5b604080518082019091528151815260208083015190820152613dd490613dbe9089614bcd565b51600c54613dcc90886156a9565b849190614c15565b600c6000828254613de591906156c0565b909155506000905080613e0a613dfb878b6156a9565b613e04866147eb565b8861480a565b9150915081846002016000828254613e2291906156c0565b9250508190555080600d6000828254613e3b91906156c0565b90915550613e4b9050838a614c98565b5060208301518351613e5d91906156c0565b600003613ebf5760008b81526007602090815260408083206001600160a01b038e1684528252808320838155600101839055600a909152902054613ea1908c614d01565b6001600160a01b038b166000908152600a6020526040902055613ef0565b60008b81526007602090815260408083206001600160a01b038e168452825290912084518155908401516001909101555b505050509550959350505050565b6000610dfa8383670de0b6b3a7640000612b55565b6000818310613f225781610dfa565b5090919050565b80600003613f63576040517fb8cb621900000000000000000000000000000000000000000000000000000000815260040160405180910390fd5b6040517feafe967b0000000000000000000000000000000000000000000000000000000081523060048201526001600160a01b038581166024830152848116604483015283811660648301527f0000000000000000000000000000000000000000000000000000000000000000169063eafe967b9060840160006040518083038186803b158015613ff357600080fd5b505afa158015614007573d6000803e3d6000fd5b50505050600061401682610e6d565b90506140228282614dcf565b61402c8382614ec8565b60408051838152602081018390526001600160a01b03808616929087169133917ffbde797d201c681b91056529119e0b02407c7bb96a4a2c75c01fc9667232c8db910160405180910390a46140ab6001600160a01b037f00000000000000000000000000000000000000000000000000000000000000001685846130f4565b826001600160a01b0316846001600160a01b03167f1f9fff5fe5a36583a0ece4969d1292bc264a38a717ba45feb449f91a21ba1ecb846040516140f091815260200190565b60405180910390a35050505050565b336000908152600360205260408120805483919083906141209084906156a9565b90915550506001600160a01b038316600081815260036020526040908190208054850190555133907fddf252ad1be2c89b69c2b068fc378daa952ba7f163c4a11628f55a4df523b3ef90610e5c9086815260200190565b600061418284610e6d565b9050336001600160a01b038316146141f2576001600160a01b038216600090815260046020908152604080832033845290915290205460001981146141f0576141cb82826156a9565b6001600160a01b03841660009081526004602090815260408083203384529091529020555b505b6141fc8482614dcf565b6142068282614ec8565b60408051858152602081018390526001600160a01b03808516929086169133917ffbde797d201c681b91056529119e0b02407c7bb96a4a2c75c01fc9667232c8db910160405180910390a4610dfa6001600160a01b037f00000000000000000000000000000000000000000000000000000000000000001684866130f4565b6000336001600160a01b038316146142f5576001600160a01b038216600090815260046020908152604080832033845290915290205460001981146142f3576142ce85826156a9565b6001600160a01b03841660009081526004602090815260408083203384529091529020555b505b6142fe846118ac565b9050806000036143505760405162461bcd60e51b815260206004820152600b60248201527f5a45524f5f4153534554530000000000000000000000000000000000000000006044820152606401610edd565b61435a8185614dcf565b6143648285614ec8565b60408051828152602081018690526001600160a01b03808516929086169133917ffbde797d201c681b91056529119e0b02407c7bb96a4a2c75c01fc9667232c8db910160405180910390a4610dfa6001600160a01b037f00000000000000000000000000000000000000000000000000000000000000001684836130f4565b60008281526006602090815260408083206001600160a01b038516845290915290205460ff1661168357614421816001600160a01b0316601461292c565b61442c83602061292c565b60405160200161443d9291906158f6565b604080517fffffffffffffffffffffffffffffffffffffffffffffffffffffffffffffffe08184030181529082905262461bcd60e51b8252610edd9160040161521c565b60006144906224ea00846156d8565b1561449d57506001610dfa565b8383116144ac57506002610dfa565b6144bc60ff83166224ea006157ae565b63ffffffff166144cf6224ea00866156d8565b6144d990866156a9565b6144e391906156c0565b8311156144f257506004610dfa565b5060039392505050565b6003830154600090838103614515576000915050610dfa565b600061452a826145258787613f13565b614850565b905060006145388387614850565b90506145448686613f13565b60038801556002870154614559818484612b55565b945061456585826156a9565b6002890155505050509392505050565b6000600e5482106145885760125461458c565b6013545b600f549091506000906145c1906145a99063ffffffff16426156a9565b6145b390846156ec565b6145bc90615977565b614f3c565b6145d390670de0b6b3a76400006159af565b90506145df8184613efe565b6145fd6145f483670de0b6b3a76400006156a9565b600e5490613efe565b61460791906156c0565b600e555050600f80547fffffffffffffffffffffffffffffffffffffffffffffffffffffffff00000000164263ffffffff1617905550565b82546000908161464f85836156c0565b90506000614661838860010154615161565b905061466d8183613f13565b61467790836156a9565b9350848411156146b3576040517f016a0d6800000000000000000000000000000000000000000000000000000000815260040160405180910390fd5b509094559392505050565b6000826000036146d657506401000000008117610cb6565b60006146e7640100000000856156d8565b90508083101561477a5760006224ea0061470185846156a9565b61470b9190615a23565b9050614719816101006156a9565b85901c15614753576040517fa4f3107c00000000000000000000000000000000000000000000000000000000815260040160405180910390fd5b61475e8160206156c0565b602086901c901b94508484176401000000001792505050610cb6565b60006224ea0061478a83866156a9565b6147949190615a23565b905060df8111156147d1576040517fa4f3107c00000000000000000000000000000000000000000000000000000000815260040160405180910390fd5b6147dc8160206156c0565b6001901b851792505050610cb6565b80546001820154600091906148008282613f13565b6112fb90836156a9565b6000808215614837576148326148208585613f13565b61482a90856156a9565b869085612b55565b61483a565b60005b905061484681866156a9565b9150935093915050565b6000818310614860576000610dfa565b610dfa83836156a9565b815460018301546000919061487f84826156c0565b60018601556148a16148918383613f13565b61489b90846156a9565b85613f13565b95945050505050565b6000848152600b60205260408120819081906148c78189426144fc565b60008981526008602090815260408083206001600160a01b038c168452825291829020825180840190935280548084526001909101549183018290529294509091614918918991611fe091906156c0565b6040805180820190915282518152602080840151908201529094506000906149409086614bcd565b905089421015614a4f57600f54600090819064010000000090046001600160a01b0316635e8e0ebe614971876147eb565b6002880154865160405160e085901b7fffffffff000000000000000000000000000000000000000000000000000000001681526004810193909352602483019190915260448201526064016040805180830381865afa1580156149d8573d6000803e3d6000fd5b505050506040513d601f19601f820116820180604052508101906149fc9190615800565b9092509050614a0b81836156c0565b856002016000828254614a1e91906156a9565b90915550614a2e905082886156a9565b975080600d6000828254614a4291906156c0565b90915550614a9e92505050565b601054614a7190614a608c426156a9565b614a6a91906156ec565b8690613efe565b614a7b90866156c0565b9550614a8785876156a9565b600d6000828254614a9891906156c0565b90915550505b86861115614ad8576040517ffa6ad35500000000000000000000000000000000000000000000000000000000815260040160405180910390fd5b8051614ae5908490615171565b600c6000828254614af691906156a9565b90915550614b0690508286614c98565b5060208201518251614b1891906156c0565b600003614b7a5760008a81526008602090815260408083206001600160a01b038d16845282528083208381556001018390556009909152902054614b5c908b614d01565b6001600160a01b038a16600090815260096020526040902055614bab565b60008a81526008602090815260408083206001600160a01b038d168452825290912083518155908301516001909101555b5050509450945094915050565b6000610dfa83670de0b6b3a764000084612b55565b604080518082019091526000808252602082015282516020840151600091614bf99161262890826156c0565b8085529050614c0881846156a9565b6020850152509192915050565b825460018401546000919082614c2b86836156a9565b9050614c378184613f13565b614c418385613f13565b614c4b91906156a9565b935084841115614c87576040517f016a0d6800000000000000000000000000000000000000000000000000000000815260040160405180910390fd5b600190960195909555509392505050565b604080518082019091526000808252602082015282516020840151600091614cc49161262890826156c0565b90508084600001818151614cd891906156a9565b905250614ce581846156a9565b84602001818151614cf691906156a9565b905250929392505050565b6000821580614d165750816401000000001783145b15614d2357506000610cb6565b6000614d34640100000000856156d8565b9050808303614d9d57602184901c60015b60018216158015614d5557508115155b15614d6657600191821c9101614d45565b6020614d7282826156c0565b9690961c90951b9485614d886224ea00836156ec565b614d9290876156c0565b179350505050610cb6565b6224ea00614dab82856156a9565b614db59190615a23565b614dc09060206156c0565b6001901b198416915050610cb6565b601654614ddb81614575565b6000614de5612b74565b601580547fffffffffffffffffffffffffffffffffffffffffffffffffffff00000000ffff16620100004263ffffffff1602179055600d80549192508291600090614e319084906156a9565b909155505060408051838152602081018390527fd2297b31b9dc44ba485ec9ae19f75c6d336e647a6040455c7f4c429c1f9cf568910160405180910390a183614e7a82846156c0565b614e8491906156a9565b6016819055600c54909250821015613199576040517f016a0d6800000000000000000000000000000000000000000000000000000000815260040160405180910390fd5b6001600160a01b03821660009081526003602052604081208054839290614ef09084906156a9565b90915550506002805482900390556040518181526000906001600160a01b038416907fddf252ad1be2c89b69c2b068fc378daa952ba7f163c4a11628f55a4df523b3ef90602001613a29565b60007ffffffffffffffffffffffffffffffffffffffffffffffffdb731c958f34d94c18213614f6d57506000919050565b680755bf798b4a1bf1e58212614fc55760405162461bcd60e51b815260206004820152600c60248201527f4558505f4f564552464c4f5700000000000000000000000000000000000000006044820152606401610edd565b6503782dace9d9604e83901b059150600060606bb17217f7d1cf79abc9e3b39884821b056b80000000000000000000000001901d6bb17217f7d1cf79abc9e3b39881029093037fffffffffffffffffffffffffffffffffffffffdbf3ccf1604d263450f02a550481018102606090811d6d0277594991cfc85f6e2461837cd9018202811d7fffffffffffffffffffffffffffffffffffffe5adedaa1cb095af9e4da10e363c018202811d6db1bbb201f443cf962f1a1d3db4a5018202811d7ffffffffffffffffffffffffffffffffffffd38dc772608b0ae56cce01296c0eb018202811d6e05180bb14799ab47a8a8cb2a527d57016d02d16720577bd19bf614176fe9ea6c10fe68e7fd37d0007b713f765084018402831d9081019084017ffffffffffffffffffffffffffffffffffffffe2c69812cf03b0763fd454a8f7e010290911d6e0587f503bb6ea29d25fcb7401964500190910279d835ebba824c98fb31b83b2ca45c000000000000000000000000010574029d9dc38563c32e5c2f6dc192ee70ef65f9978af30260c3939093039290921c92915050565b600081831015613f225781610dfa565b815460018301546000919061518684836156a9565b85556148a16148918383613f13565b6000602082840312156151a757600080fd5b81357fffffffff0000000000000000000000000000000000000000000000000000000081168114610dfa57600080fd5b6000602082840312156151e957600080fd5b5035919050565b60005b8381101561520b5781810151838201526020016151f3565b838111156131995750506000910152565b602081526000825180602084015261523b8160408501602087016151f0565b601f017fffffffffffffffffffffffffffffffffffffffffffffffffffffffffffffffe0169190910160400192915050565b6001600160a01b03811681146117cf57600080fd5b6000806040838503121561529557600080fd5b82356152a08161526d565b946020939093013593505050565b600080600080600060a086880312156152c657600080fd5b85359450602086013593506040860135925060608601356152e68161526d565b915060808601356152f68161526d565b809150509295509295909350565b60008060006060848603121561531957600080fd5b83356153248161526d565b925060208401356153348161526d565b929592945050506040919091013590565b803560ff8116811461535657600080fd5b919050565b60006020828403121561536d57600080fd5b610dfa82615345565b6000806040838503121561538957600080fd5b82359150602083013561539b8161526d565b809150509250929050565b600080600080608085870312156153bc57600080fd5b84359350602085013592506040850135915060608501356153dc8161526d565b939692955090935050565b6000602082840312156153f957600080fd5b8135610dfa8161526d565b60006020828403121561541657600080fd5b81356fffffffffffffffffffffffffffffffff81168114610dfa57600080fd5b7f4e487b7100000000000000000000000000000000000000000000000000000000600052604160045260246000fd5b60006040828403121561547757600080fd5b6040516040810181811067ffffffffffffffff821117156154c1577f4e487b7100000000000000000000000000000000000000000000000000000000600052604160045260246000fd5b604052823581526020928301359281019290925250919050565b600080600080608085870312156154f157600080fd5b84356154fc8161526d565b9350602085013592506040850135915060608501356153dc8161526d565b60008060006060848603121561552f57600080fd5b8335925060208401356155418161526d565b915060408401356155518161526d565b809150509250925092565b600080600080600080600060e0888a03121561557757600080fd5b87356155828161526d565b965060208801356155928161526d565b955060408801359450606088013593506155ae60808901615345565b925060a0880135915060c0880135905092959891949750929550565b600080604083850312156155dd57600080fd5b82356155e88161526d565b9150602083013561539b8161526d565b7f4e487b7100000000000000000000000000000000000000000000000000000000600052601260045260246000fd5b600181811c9082168061563b57607f821691505b602082108103615674577f4e487b7100000000000000000000000000000000000000000000000000000000600052602260045260246000fd5b50919050565b7f4e487b7100000000000000000000000000000000000000000000000000000000600052601160045260246000fd5b6000828210156156bb576156bb61567a565b500390565b600082198211156156d3576156d361567a565b500190565b6000826156e7576156e76155f8565b500690565b60008160001904831182151516156157065761570661567a565b500290565b60007bffffffffffffffffffffffffffffffffffffffffffffffffffffffff808316818516818304811182151516156157465761574661567a565b02949350505050565b60006020828403121561576157600080fd5b5051919050565b7f4e487b7100000000000000000000000000000000000000000000000000000000600052603260045260246000fd5b6000816157a6576157a661567a565b506000190190565b600063ffffffff808316818516818304811182151516156157465761574661567a565b7f4e487b7100000000000000000000000000000000000000000000000000000000600052602160045260246000fd5b6000806040838503121561581357600080fd5b505080516020909101519092909150565b600080835481600182811c91508083168061584057607f831692505b60208084108203615878577f4e487b710000000000000000000000000000000000000000000000000000000086526022600452602486fd5b81801561588c57600181146158bb576158e8565b7fffffffffffffffffffffffffffffffffffffffffffffffffffffffffffffff008616895284890196506158e8565b60008a81526020902060005b868110156158e05781548b8201529085019083016158c7565b505084890196505b509498975050505050505050565b7f416363657373436f6e74726f6c3a206163636f756e742000000000000000000081526000835161592e8160178501602088016151f0565b7f206973206d697373696e6720726f6c6520000000000000000000000000000000601791840191820152835161596b8160288401602088016151f0565b01602801949350505050565b60007f800000000000000000000000000000000000000000000000000000000000000082036159a8576159a861567a565b5060000390565b6000808312837f8000000000000000000000000000000000000000000000000000000000000000018312811516156159e9576159e961567a565b837f7fffffffffffffffffffffffffffffffffffffffffffffffffffffffffffffff018313811615615a1d57615a1d61567a565b50500390565b600082615a3257615a326155f8565b50049056fea2646970667358221220bfa74d8916b18970c972bf66722b4b1aa1ee2bc29409eb5755ddb61bd1219a6364736f6c634300080d0033",
  "devdoc": {
    "events": {
      "AccumulatedEarningsSmoothFactorSet(uint128)": {
        "params": {
          "newAccumulatedEarningsSmoothFactor": "factor represented with 1e18 decimals."
        }
      },
      "AssetSeized(address,address,uint256)": {
        "params": {
          "assets": "amount seized of the collateral.",
          "borrower": "address which had the original debt.",
          "liquidator": "address which seized this collateral."
        }
      },
      "BorrowAtMaturity(uint256,address,address,address,uint256,uint256)": {
        "params": {
          "assets": "amount of the asset that were borrowed.",
          "borrower": "address which will be repaying the borrowed assets.",
          "caller": "address which borrowed the asset.",
          "fee": "extra amount that will need to be paid at maturity.",
          "maturity": "maturity in which the user will have to repay the loan.",
          "receiver": "address that received the borrowed assets."
        }
      },
      "DepositAtMaturity(uint256,address,address,uint256,uint256)": {
        "params": {
          "assets": "amount of the asset that were deposited.",
          "caller": "address which deposited the assets.",
          "fee": "is the extra amount that it will be collected at maturity.",
          "maturity": "maturity in which the user will be able to collect his deposit + his fee.",
          "owner": "address that will be able to withdraw the deposited assets."
        }
      },
      "LiquidateBorrow(address,address,uint256,address,uint256)": {
        "params": {
          "assets": "amount of the asset that were repaid.",
          "borrower": "address which had the original debt.",
          "collateralFixedLender": "address of the asset that were seized by the liquidator.",
          "receiver": "address which repaid the previously borrowed amount.",
          "seizedAssets": "amount seized of the collateral."
        }
      },
      "MaxFuturePoolsSet(uint256)": {
        "params": {
          "newMaxFuturePools": "represented with 0 decimals."
        }
      },
      "RepayAtMaturity(uint256,address,address,uint256,uint256)": {
        "params": {
          "assets": "amount that was repaid.",
          "borrower": "address which had the original debt.",
          "caller": "address which repaid the previously borrowed amount.",
          "maturity": "maturity where the user repaid its borrowed amounts.",
          "positionAssets": "amount of the debt that was covered in this repayment (penalties could have been repaid)."
        }
      },
      "SmartPoolEarningsAccrued(uint256,uint256)": {
        "params": {
          "earnings": "new smart pool earnings, denominated in assets (underlying).",
          "previousAssets": "previous balance of the smart pool, denominated in assets (underlying)."
        }
      },
      "WithdrawAtMaturity(uint256,address,address,address,uint256,uint256)": {
        "params": {
          "assets": "amount of the asset that were withdrawn.",
          "assetsDiscounted": "amount of the asset that were deposited (in case of early withdrawal).",
          "caller": "address which withdraw the asset.",
          "maturity": "maturity where the user collected its deposits.",
          "owner": "address which had the assets withdrawn.",
          "receiver": "address which will be collecting the assets."
        }
      }
    },
    "kind": "dev",
    "methods": {
      "borrowAtMaturity(uint256,uint256,uint256,address,address)": {
        "details": "Borrows a certain amount from a maturity date.",
        "params": {
          "assets": "amount to send to borrower.",
          "borrower": "address that will repay the borrowed assets.",
          "maturity": "maturity date for repayment.",
          "maxAssetsAllowed": "maximum amount of debt that the user is willing to accept.",
          "receiver": "address that will receive the borrowed assets."
        }
      },
      "depositAtMaturity(uint256,uint256,uint256,address)": {
        "params": {
          "assets": "amount to receive from the msg.sender.",
          "maturity": "maturity date / pool ID.",
          "minAssetsRequired": "minimum amount of assets required by the depositor for the transaction to be accepted.",
          "receiver": "address that will be able to withdraw the deposited assets."
        },
        "returns": {
          "maturityAssets": "total amount of assets (principal + fee) to be withdrawn at maturity."
        }
      },
      "getAccountBorrows(address,uint256)": {
        "details": "Gets all borrows for an account in certain maturity (or MATURITY_ALL).",
        "params": {
          "maturity": "maturity where the borrow is taking place. MATURITY_ALL returns all borrows.",
          "who": "account to return status snapshot in the specified maturity date."
        },
        "returns": {
          "sumPenalties": "the total penalties for late repayment in all maturities.",
          "sumPositions": "the total amount of borrows in user position."
        }
      },
      "getAccountSnapshot(address,uint256)": {
        "params": {
          "maturity": "maturity. `PoolLib.MATURITY_ALL` (`type(uint256).max`) for all maturities.",
          "who": "wallet to return status snapshot in the specified maturity date."
        },
        "returns": {
          "_0": "the amount the user deposited to the smart pool and the total money he owes from maturities."
        }
      },
      "getRoleAdmin(bytes32)": {
        "details": "Returns the admin role that controls `role`. See {grantRole} and {revokeRole}. To change a role's admin, use {_setRoleAdmin}."
      },
      "grantRole(bytes32,address)": {
        "details": "Grants `role` to `account`. If `account` had not been already granted `role`, emits a {RoleGranted} event. Requirements: - the caller must have ``role``'s admin role."
      },
      "hasRole(bytes32,address)": {
        "details": "Returns `true` if `account` has been granted `role`."
      },
      "liquidate(address,uint256,uint256,address)": {
        "details": "Msg.sender liquidates borrower's position(s) and repays a certain amount of debt for multiple maturities, seizing a part of borrower's collateral.",
        "params": {
          "borrower": "wallet that has an outstanding debt across all maturities.",
          "collateralFixedLender": "fixedLender from which the collateral will be seized to give the liquidator.",
          "maxAssetsAllowed": "maximum amount of debt that the liquidator is willing to accept.",
          "positionAssets": "amount of debt to be covered by liquidator(msg.sender)."
        }
      },
      "paused()": {
        "details": "Returns true if the contract is paused, and false otherwise."
      },
      "redeem(uint256,address,address)": {
        "details": "Makes sure that the owner doesn't have shortfall after withdrawing.",
        "params": {
          "owner": "address which owns the smart pool assets.",
          "receiver": "address to which the assets will be transferred.",
          "shares": "amount of shares to be redeemed for underlying asset."
        }
      },
      "renounceRole(bytes32,address)": {
        "details": "Revokes `role` from the calling account. Roles are often managed via {grantRole} and {revokeRole}: this function's purpose is to provide a mechanism for accounts to lose their privileges if they are compromised (such as when a trusted device is misplaced). If the calling account had been revoked `role`, emits a {RoleRevoked} event. Requirements: - the caller must be `account`."
      },
      "repayAtMaturity(uint256,uint256,uint256,address)": {
        "params": {
          "borrower": "address of the account that has the debt.",
          "maturity": "maturity date where the assets will be repaid.",
          "maxAssetsAllowed": "maximum amount of debt that the user is willing to accept to be repaid.",
          "positionAssets": "amount to be paid for the borrower's debt."
        },
        "returns": {
          "actualRepayAssets": "the actual amount that was transferred into the protocol."
        }
      },
      "revokeRole(bytes32,address)": {
        "details": "Revokes `role` from `account`. If `account` had been granted `role`, emits a {RoleRevoked} event. Requirements: - the caller must have ``role``'s admin role."
      },
      "seize(address,address,uint256)": {
        "details": "Public function for liquidator to seize borrowers tokens in the smart pool. This function will only be called from another FixedLender, on `liquidation` calls. That's why msg.sender needs to be passed to the private function (to be validated as a market)",
        "params": {
          "assets": "amount to be removed from borrower's possession.",
          "borrower": "address from which the tokens will be seized.",
          "liquidator": "address which will receive the seized tokens."
        }
      },
      "setAccumulatedEarningsSmoothFactor(uint128)": {
        "details": "Value can only be lower than 4. If set at 0, then all remaining accumulated earnings are distributed in following operation to the smart pool.",
        "params": {
          "accumulatedEarningsSmoothFactor_": "represented with 18 decimals."
        }
      },
      "setDampSpeed((uint256,uint256))": {
        "details": "Values can only be set between 0 and 100%.",
        "params": {
          "dampSpeed": "represented with 18 decimals."
        }
      },
      "setInterestRateModel(address)": {
        "params": {
          "interestRateModel_": "new interest rate model."
        }
      },
      "setMaxFuturePools(uint8)": {
        "details": "Value can not be 0 or higher than 224. Value shouldn't be lower than previous value or VALID maturities will become NOT_READY.",
        "params": {
          "futurePools": "number of pools to be active at the same time."
        }
      },
      "setPenaltyRate(uint256)": {
        "details": "Value can only be set approximately between 5% and 1% daily.",
        "params": {
          "penaltyRate_": "percentage represented with 18 decimals."
        }
      },
      "setSmartPoolReserveFactor(uint256)": {
        "details": "Value can only be set between 20% and 0%.",
        "params": {
          "smartPoolReserveFactor_": "parameter represented with 18 decimals."
        }
      },
      "supportsInterface(bytes4)": {
        "details": "See {IERC165-supportsInterface}."
      },
      "totalAssets()": {
        "returns": {
          "_0": "actual smartPoolAssets plus earnings to be accrued at current timestamp."
        }
      },
      "transfer(address,uint256)": {
        "details": "It's expected that this function can't be paused to prevent freezing user funds. Makes sure that the caller doesn't have shortfall after transferring.",
        "params": {
          "shares": "amount of tokens.",
          "to": "address to which the tokens will be transferred."
        }
      },
      "transferFrom(address,address,uint256)": {
        "details": "It's expected that this function can't be paused to prevent freezing user funds. Makes sure that `from` address doesn't have shortfall after transferring.",
        "params": {
          "from": "address from which the tokens will be transferred.",
          "shares": "amount of tokens.",
          "to": "address to which the tokens will be transferred."
        }
      },
      "withdraw(uint256,address,address)": {
        "details": "Makes sure that the owner doesn't have shortfall after withdrawing.",
        "params": {
          "assets": "amount of underlying to be withdrawn.",
          "owner": "address which owns the smart pool assets.",
          "receiver": "address to which the assets will be transferred."
        }
      },
      "withdrawAtMaturity(uint256,uint256,uint256,address,address)": {
        "details": "It's expected that this function can't be paused to prevent freezing user funds.",
        "params": {
          "maturity": "maturity date where the assets will be withdrawn.",
          "minAssetsRequired": "minimum amount required by the user (if discount included for early withdrawal).",
          "owner": "address that previously deposited the assets.",
          "positionAssets": "the amount of assets (principal + fee) to be withdrawn.",
          "receiver": "address that will receive the withdrawn assets."
        },
        "returns": {
          "assetsDiscounted": "amount of assets withdrawn (can include a discount for early withdraw)."
        }
      }
    },
    "version": 1
  },
  "userdoc": {
    "events": {
      "AccumulatedEarningsSmoothFactorSet(uint128)": {
        "notice": "Event emitted when the accumulatedEarningsSmoothFactor is changed by admin."
      },
      "AssetSeized(address,address,uint256)": {
        "notice": "Event emitted when a user's collateral has been seized."
      },
      "BorrowAtMaturity(uint256,address,address,address,uint256,uint256)": {
        "notice": "Event emitted when a user borrows amount of an asset from a certain maturity date."
      },
      "DampSpeedSet(uint256,uint256)": {
        "notice": "emitted when the damp speeds are changed by admin."
      },
      "DepositAtMaturity(uint256,address,address,uint256,uint256)": {
        "notice": "Event emitted when a user deposits an amount of an asset to a certain maturity date collecting a fee at the end of the period."
      },
      "InterestRateModelSet(address)": {
        "notice": "emitted when the interestRateModel is changed by admin."
      },
      "LiquidateBorrow(address,address,uint256,address,uint256)": {
        "notice": "Event emitted when a user's position had a liquidation."
      },
      "MaxFuturePoolsSet(uint256)": {
        "notice": "Event emitted when the maxFuturePools is changed by admin."
      },
      "PenaltyRateSet(uint256)": {
        "notice": "emitted when the penaltyRate is changed by admin."
      },
      "RepayAtMaturity(uint256,address,address,uint256,uint256)": {
        "notice": "Event emitted when a user repays its borrows after maturity."
      },
      "SmartPoolEarningsAccrued(uint256,uint256)": {
        "notice": "Event emitted when earnings are accrued to the smart pool."
      },
      "SmartPoolReserveFactorSet(uint256)": {
        "notice": "emitted when the smartPoolReserveFactor is changed by admin."
      },
      "WithdrawAtMaturity(uint256,address,address,address,uint256,uint256)": {
        "notice": "Event emitted when a user collects its deposits after maturity."
      }
    },
    "kind": "user",
    "methods": {
      "depositAtMaturity(uint256,uint256,uint256,address)": {
        "notice": "Deposits a certain amount to a maturity."
      },
      "getAccountSnapshot(address,uint256)": {
        "notice": "Gets current snapshot for a wallet in certain maturity."
      },
      "liquidate(address,uint256,uint256,address)": {
        "notice": "Liquidates uncollaterized position(s)."
      },
      "pause()": {
        "notice": "Sets the _pause state to true in case of emergency, triggered by an authorized account."
      },
      "redeem(uint256,address,address)": {
        "notice": "Redeems the owner's smart pool assets to the receiver address."
      },
      "repayAtMaturity(uint256,uint256,uint256,address)": {
        "notice": "Repays a certain amount to a maturity."
      },
      "seize(address,address,uint256)": {
        "notice": "Public function to seize a certain amount of tokens."
      },
      "setAccumulatedEarningsSmoothFactor(uint128)": {
        "notice": "Sets the factor used when smoothly accruing earnings to the smart pool."
      },
      "setDampSpeed((uint256,uint256))": {
        "notice": "Sets the damp speed used to update the smartPoolAssetsAverage."
      },
      "setInterestRateModel(address)": {
        "notice": "Sets the interest rate model to be used by this PoolAccounting."
      },
      "setMaxFuturePools(uint8)": {
        "notice": "Sets the protocol's max future pools for borrowing and lending."
      },
      "setPenaltyRate(uint256)": {
        "notice": "Sets the penalty rate per second."
      },
      "setSmartPoolReserveFactor(uint256)": {
        "notice": "Sets the percentage that represents the smart pool liquidity reserves that can't be borrowed."
      },
      "totalAssets()": {
        "notice": "Calculates the smart pool balance plus earnings to be accrued at current timestamp from maturities and accumulator."
      },
      "transfer(address,uint256)": {
        "notice": "Moves amount of shares from the caller's account to `to`."
      },
      "transferFrom(address,address,uint256)": {
        "notice": "Moves amount of shares from `from` to `to` using the allowance mechanism."
      },
      "unpause()": {
        "notice": "Sets the _pause state to false when threat is gone, triggered by an authorized account."
      },
      "withdraw(uint256,address,address)": {
        "notice": "Withdraws the owner's smart pool assets to the receiver address."
      },
      "withdrawAtMaturity(uint256,uint256,uint256,address,address)": {
        "notice": "Withdraws a certain amount from a maturity."
      }
    },
    "version": 1
  },
  "storageLayout": {
    "storage": [
      {
        "astId": 2420,
        "contract": "contracts/FixedLender.sol:FixedLender",
        "label": "name",
        "offset": 0,
        "slot": "0",
        "type": "t_string_storage"
      },
      {
        "astId": 2422,
        "contract": "contracts/FixedLender.sol:FixedLender",
        "label": "symbol",
        "offset": 0,
        "slot": "1",
        "type": "t_string_storage"
      },
      {
        "astId": 2426,
        "contract": "contracts/FixedLender.sol:FixedLender",
        "label": "totalSupply",
        "offset": 0,
        "slot": "2",
        "type": "t_uint256"
      },
      {
        "astId": 2430,
        "contract": "contracts/FixedLender.sol:FixedLender",
        "label": "balanceOf",
        "offset": 0,
        "slot": "3",
        "type": "t_mapping(t_address,t_uint256)"
      },
      {
        "astId": 2436,
        "contract": "contracts/FixedLender.sol:FixedLender",
        "label": "allowance",
        "offset": 0,
        "slot": "4",
        "type": "t_mapping(t_address,t_mapping(t_address,t_uint256))"
      },
      {
        "astId": 2444,
        "contract": "contracts/FixedLender.sol:FixedLender",
        "label": "nonces",
        "offset": 0,
        "slot": "5",
        "type": "t_mapping(t_address,t_uint256)"
      },
      {
        "astId": 70,
        "contract": "contracts/FixedLender.sol:FixedLender",
        "label": "_roles",
        "offset": 0,
        "slot": "6",
        "type": "t_mapping(t_bytes32,t_struct(RoleData)65_storage)"
      },
      {
        "astId": 6767,
        "contract": "contracts/FixedLender.sol:FixedLender",
        "label": "mpUserSuppliedAmount",
        "offset": 0,
        "slot": "7",
        "type": "t_mapping(t_uint256,t_mapping(t_address,t_struct(Position)9398_storage))"
      },
      {
        "astId": 6774,
        "contract": "contracts/FixedLender.sol:FixedLender",
        "label": "mpUserBorrowedAmount",
        "offset": 0,
        "slot": "8",
        "type": "t_mapping(t_uint256,t_mapping(t_address,t_struct(Position)9398_storage))"
      },
      {
        "astId": 6778,
        "contract": "contracts/FixedLender.sol:FixedLender",
        "label": "userMpBorrowed",
        "offset": 0,
        "slot": "9",
        "type": "t_mapping(t_address,t_uint256)"
      },
      {
        "astId": 6782,
        "contract": "contracts/FixedLender.sol:FixedLender",
        "label": "userMpSupplied",
        "offset": 0,
        "slot": "10",
        "type": "t_mapping(t_address,t_uint256)"
      },
      {
        "astId": 6787,
        "contract": "contracts/FixedLender.sol:FixedLender",
        "label": "maturityPools",
        "offset": 0,
        "slot": "11",
        "type": "t_mapping(t_uint256,t_struct(MaturityPool)9393_storage)"
      },
      {
        "astId": 6789,
        "contract": "contracts/FixedLender.sol:FixedLender",
        "label": "smartPoolBorrowed",
        "offset": 0,
        "slot": "12",
        "type": "t_uint256"
      },
      {
        "astId": 6791,
        "contract": "contracts/FixedLender.sol:FixedLender",
        "label": "smartPoolEarningsAccumulator",
        "offset": 0,
        "slot": "13",
        "type": "t_uint256"
      },
      {
        "astId": 6793,
        "contract": "contracts/FixedLender.sol:FixedLender",
        "label": "smartPoolAssetsAverage",
        "offset": 0,
        "slot": "14",
        "type": "t_uint256"
      },
      {
        "astId": 6795,
        "contract": "contracts/FixedLender.sol:FixedLender",
        "label": "lastAverageUpdate",
        "offset": 0,
        "slot": "15",
        "type": "t_uint32"
      },
      {
        "astId": 6798,
        "contract": "contracts/FixedLender.sol:FixedLender",
        "label": "interestRateModel",
        "offset": 4,
        "slot": "15",
        "type": "t_contract(InterestRateModel)6704"
      },
      {
        "astId": 6800,
        "contract": "contracts/FixedLender.sol:FixedLender",
        "label": "penaltyRate",
        "offset": 0,
        "slot": "16",
        "type": "t_uint256"
      },
      {
        "astId": 6802,
        "contract": "contracts/FixedLender.sol:FixedLender",
        "label": "smartPoolReserveFactor",
        "offset": 0,
        "slot": "17",
        "type": "t_uint256"
      },
      {
        "astId": 6804,
        "contract": "contracts/FixedLender.sol:FixedLender",
        "label": "dampSpeedUp",
        "offset": 0,
        "slot": "18",
        "type": "t_uint256"
      },
      {
        "astId": 6806,
        "contract": "contracts/FixedLender.sol:FixedLender",
        "label": "dampSpeedDown",
        "offset": 0,
        "slot": "19",
        "type": "t_uint256"
      },
      {
        "astId": 3451,
        "contract": "contracts/FixedLender.sol:FixedLender",
        "label": "locked",
        "offset": 0,
        "slot": "20",
        "type": "t_uint256"
      },
      {
        "astId": 1348,
        "contract": "contracts/FixedLender.sol:FixedLender",
        "label": "_paused",
        "offset": 0,
        "slot": "21",
        "type": "t_bool"
      },
      {
        "astId": 4677,
        "contract": "contracts/FixedLender.sol:FixedLender",
        "label": "maxFuturePools",
        "offset": 1,
        "slot": "21",
        "type": "t_uint8"
      },
      {
        "astId": 4679,
        "contract": "contracts/FixedLender.sol:FixedLender",
        "label": "lastAccumulatedEarningsAccrual",
        "offset": 2,
        "slot": "21",
        "type": "t_uint32"
      },
      {
        "astId": 4681,
        "contract": "contracts/FixedLender.sol:FixedLender",
        "label": "accumulatedEarningsSmoothFactor",
        "offset": 6,
        "slot": "21",
        "type": "t_uint128"
      },
      {
        "astId": 4683,
        "contract": "contracts/FixedLender.sol:FixedLender",
        "label": "smartPoolAssets",
        "offset": 0,
        "slot": "22",
        "type": "t_uint256"
      }
    ],
    "types": {
      "t_address": {
        "encoding": "inplace",
        "label": "address",
        "numberOfBytes": "20"
      },
      "t_bool": {
        "encoding": "inplace",
        "label": "bool",
        "numberOfBytes": "1"
      },
      "t_bytes32": {
        "encoding": "inplace",
        "label": "bytes32",
        "numberOfBytes": "32"
      },
      "t_contract(InterestRateModel)6704": {
        "encoding": "inplace",
        "label": "contract InterestRateModel",
        "numberOfBytes": "20"
      },
      "t_mapping(t_address,t_bool)": {
        "encoding": "mapping",
        "key": "t_address",
        "label": "mapping(address => bool)",
        "numberOfBytes": "32",
        "value": "t_bool"
      },
      "t_mapping(t_address,t_mapping(t_address,t_uint256))": {
        "encoding": "mapping",
        "key": "t_address",
        "label": "mapping(address => mapping(address => uint256))",
        "numberOfBytes": "32",
        "value": "t_mapping(t_address,t_uint256)"
      },
      "t_mapping(t_address,t_struct(Position)9398_storage)": {
        "encoding": "mapping",
        "key": "t_address",
        "label": "mapping(address => struct PoolLib.Position)",
        "numberOfBytes": "32",
        "value": "t_struct(Position)9398_storage"
      },
      "t_mapping(t_address,t_uint256)": {
        "encoding": "mapping",
        "key": "t_address",
        "label": "mapping(address => uint256)",
        "numberOfBytes": "32",
        "value": "t_uint256"
      },
      "t_mapping(t_bytes32,t_struct(RoleData)65_storage)": {
        "encoding": "mapping",
        "key": "t_bytes32",
        "label": "mapping(bytes32 => struct AccessControl.RoleData)",
        "numberOfBytes": "32",
        "value": "t_struct(RoleData)65_storage"
      },
      "t_mapping(t_uint256,t_mapping(t_address,t_struct(Position)9398_storage))": {
        "encoding": "mapping",
        "key": "t_uint256",
        "label": "mapping(uint256 => mapping(address => struct PoolLib.Position))",
        "numberOfBytes": "32",
        "value": "t_mapping(t_address,t_struct(Position)9398_storage)"
      },
      "t_mapping(t_uint256,t_struct(MaturityPool)9393_storage)": {
        "encoding": "mapping",
        "key": "t_uint256",
        "label": "mapping(uint256 => struct PoolLib.MaturityPool)",
        "numberOfBytes": "32",
        "value": "t_struct(MaturityPool)9393_storage"
      },
      "t_string_storage": {
        "encoding": "bytes",
        "label": "string",
        "numberOfBytes": "32"
      },
      "t_struct(MaturityPool)9393_storage": {
        "encoding": "inplace",
        "label": "struct PoolLib.MaturityPool",
        "members": [
          {
            "astId": 9386,
            "contract": "contracts/FixedLender.sol:FixedLender",
            "label": "borrowed",
            "offset": 0,
            "slot": "0",
            "type": "t_uint256"
          },
          {
            "astId": 9388,
            "contract": "contracts/FixedLender.sol:FixedLender",
            "label": "supplied",
            "offset": 0,
            "slot": "1",
            "type": "t_uint256"
          },
          {
            "astId": 9390,
            "contract": "contracts/FixedLender.sol:FixedLender",
            "label": "earningsUnassigned",
            "offset": 0,
            "slot": "2",
            "type": "t_uint256"
          },
          {
            "astId": 9392,
            "contract": "contracts/FixedLender.sol:FixedLender",
            "label": "lastAccrual",
            "offset": 0,
            "slot": "3",
            "type": "t_uint256"
          }
        ],
        "numberOfBytes": "128"
      },
      "t_struct(Position)9398_storage": {
        "encoding": "inplace",
        "label": "struct PoolLib.Position",
        "members": [
          {
            "astId": 9395,
            "contract": "contracts/FixedLender.sol:FixedLender",
            "label": "principal",
            "offset": 0,
            "slot": "0",
            "type": "t_uint256"
          },
          {
            "astId": 9397,
            "contract": "contracts/FixedLender.sol:FixedLender",
            "label": "fee",
            "offset": 0,
            "slot": "1",
            "type": "t_uint256"
          }
        ],
        "numberOfBytes": "64"
      },
      "t_struct(RoleData)65_storage": {
        "encoding": "inplace",
        "label": "struct AccessControl.RoleData",
        "members": [
          {
            "astId": 62,
            "contract": "contracts/FixedLender.sol:FixedLender",
            "label": "members",
            "offset": 0,
            "slot": "0",
            "type": "t_mapping(t_address,t_bool)"
          },
          {
            "astId": 64,
            "contract": "contracts/FixedLender.sol:FixedLender",
            "label": "adminRole",
            "offset": 0,
            "slot": "1",
            "type": "t_bytes32"
          }
        ],
        "numberOfBytes": "64"
      },
      "t_uint128": {
        "encoding": "inplace",
        "label": "uint128",
        "numberOfBytes": "16"
      },
      "t_uint256": {
        "encoding": "inplace",
        "label": "uint256",
        "numberOfBytes": "32"
      },
      "t_uint32": {
        "encoding": "inplace",
        "label": "uint32",
        "numberOfBytes": "4"
      },
      "t_uint8": {
        "encoding": "inplace",
        "label": "uint8",
        "numberOfBytes": "1"
      }
    }
  }
}