{
  "address": "0x4d34a2C841327D149b469456EC91B049404688be",
  "abi": [
    {
      "inputs": [
        {
          "internalType": "contract FixedLender",
          "name": "fixedLender_",
          "type": "address"
        }
      ],
      "stateMutability": "nonpayable",
      "type": "constructor"
    },
    {
      "inputs": [],
      "name": "NotFromWETH",
      "type": "error"
    },
    {
      "inputs": [
        {
          "internalType": "uint256",
          "name": "maturity",
          "type": "uint256"
        },
        {
          "internalType": "uint256",
          "name": "assets",
          "type": "uint256"
        },
        {
          "internalType": "uint256",
          "name": "maxAssetsAllowed",
          "type": "uint256"
        }
      ],
      "name": "borrowAtMaturityETH",
      "outputs": [
        {
          "internalType": "uint256",
          "name": "assetsOwed",
          "type": "uint256"
        }
      ],
      "stateMutability": "nonpayable",
      "type": "function"
    },
    {
      "inputs": [
        {
          "internalType": "uint256",
          "name": "maturity",
          "type": "uint256"
        },
        {
          "internalType": "uint256",
          "name": "minAssetsRequired",
          "type": "uint256"
        }
      ],
      "name": "depositAtMaturityETH",
      "outputs": [
        {
          "internalType": "uint256",
          "name": "maturityAssets",
          "type": "uint256"
        }
      ],
      "stateMutability": "payable",
      "type": "function"
    },
    {
      "inputs": [],
      "name": "depositETH",
      "outputs": [
        {
          "internalType": "uint256",
          "name": "shares",
          "type": "uint256"
        }
      ],
      "stateMutability": "payable",
      "type": "function"
    },
    {
      "inputs": [],
      "name": "fixedLender",
      "outputs": [
        {
          "internalType": "contract FixedLender",
          "name": "",
          "type": "address"
        }
      ],
      "stateMutability": "view",
      "type": "function"
    },
    {
      "inputs": [
        {
          "internalType": "uint256",
          "name": "maturity",
          "type": "uint256"
        },
        {
          "internalType": "uint256",
          "name": "assets",
          "type": "uint256"
        }
      ],
      "name": "repayAtMaturityETH",
      "outputs": [
        {
          "internalType": "uint256",
          "name": "repaidAssets",
          "type": "uint256"
        }
      ],
      "stateMutability": "payable",
      "type": "function"
    },
    {
      "inputs": [],
      "name": "weth",
      "outputs": [
        {
          "internalType": "contract WETH",
          "name": "",
          "type": "address"
        }
      ],
      "stateMutability": "view",
      "type": "function"
    },
    {
      "inputs": [
        {
          "internalType": "uint256",
          "name": "maturity",
          "type": "uint256"
        },
        {
          "internalType": "uint256",
          "name": "assets",
          "type": "uint256"
        },
        {
          "internalType": "uint256",
          "name": "minAssetsRequired",
          "type": "uint256"
        }
      ],
      "name": "withdrawAtMaturityETH",
      "outputs": [
        {
          "internalType": "uint256",
          "name": "actualAssets",
          "type": "uint256"
        }
      ],
      "stateMutability": "nonpayable",
      "type": "function"
    },
    {
      "inputs": [
        {
          "internalType": "uint256",
          "name": "assets",
          "type": "uint256"
        }
      ],
      "name": "withdrawETH",
      "outputs": [
        {
          "internalType": "uint256",
          "name": "shares",
          "type": "uint256"
        }
      ],
      "stateMutability": "nonpayable",
      "type": "function"
    },
    {
      "stateMutability": "payable",
      "type": "receive"
    }
  ],
  "transactionHash": "0xefee02702ffc758339f3ee61ae2d86334facb8079764f8596dcc4d57696977e9",
  "args": [
    "0x108758bF5735f6871e944be3596454EdD1bb7C89"
  ],
  "numDeployments": 1,
  "solcInputHash": "3885bcb2ff82e675bed0fcc39e7a5ac1",
  "bytecode": "0x60c060405234801561001057600080fd5b50604051610cdf380380610cdf83398101604081905261002f91610136565b6001600160a01b0381166080819052604080516338d52e0f60e01b815290516338d52e0f916004808201926020929091908290030181865afa158015610079573d6000803e3d6000fd5b505050506040513d601f19601f8201168201806040525081019061009d9190610136565b6001600160a01b0390811660a081905260405163095ea7b360e01b8152918316600483015260001960248301529063095ea7b3906044016020604051808303816000875af11580156100f3573d6000803e3d6000fd5b505050506040513d601f19601f82011682018060405250810190610117919061015a565b505061017c565b6001600160a01b038116811461013357600080fd5b50565b60006020828403121561014857600080fd5b81516101538161011e565b9392505050565b60006020828403121561016c57600080fd5b8151801515811461015357600080fd5b60805160a051610af26101ed60003960008181609c0152818161013f0152818161030d015281816105600152818161078001526108ea0152600081816101ab01528181610274015281816103cb015281816104da0152818161061e015281816106fc01526108300152610af26000f3fe60806040526004361061007f5760003560e01c80639b283ed31161004e5780639b283ed3146101cd578063e46a66c0146101ed578063f14210a614610200578063f6326fb31461022057600080fd5b806321ce312e146100fa5780633fc8cef31461012d57806368c53694146101865780636bf1ad7a1461019957600080fd5b366100f5573373ffffffffffffffffffffffffffffffffffffffff7f000000000000000000000000000000000000000000000000000000000000000016146100f3576040517f61e790f900000000000000000000000000000000000000000000000000000000815260040160405180910390fd5b005b600080fd5b34801561010657600080fd5b5061011a6101153660046109fe565b610228565b6040519081526020015b60405180910390f35b34801561013957600080fd5b506101617f000000000000000000000000000000000000000000000000000000000000000081565b60405173ffffffffffffffffffffffffffffffffffffffff9091168152602001610124565b61011a610194366004610a2a565b610309565b3480156101a557600080fd5b506101617f000000000000000000000000000000000000000000000000000000000000000081565b3480156101d957600080fd5b5061011a6101e83660046109fe565b610474565b61011a6101fb366004610a2a565b61055c565b34801561020c57600080fd5b5061011a61021b366004610a4c565b6106a4565b61011a61077c565b6040517fa05a091a0000000000000000000000000000000000000000000000000000000081526004810184905260248101839052604481018290523060648201523360848201526000907f000000000000000000000000000000000000000000000000000000000000000073ffffffffffffffffffffffffffffffffffffffff169063a05a091a9060a4016020604051808303816000875af11580156102d2573d6000803e3d6000fd5b505050506040513d601f19601f820116820180604052508101906102f69190610a65565b905061030281336108bb565b9392505050565b60007f000000000000000000000000000000000000000000000000000000000000000073ffffffffffffffffffffffffffffffffffffffff1663d0e30db0346040518263ffffffff1660e01b81526004016000604051808303818588803b15801561037357600080fd5b505af1158015610387573d6000803e3d6000fd5b50506040517f3c6f317f00000000000000000000000000000000000000000000000000000000815260048101879052602481018690523460448201523360648201527f000000000000000000000000000000000000000000000000000000000000000073ffffffffffffffffffffffffffffffffffffffff169350633c6f317f925060840190506020604051808303816000875af115801561042d573d6000803e3d6000fd5b505050506040513d601f19601f820116820180604052508101906104519190610a65565b90508034111561046e5761046e6104688234610a7e565b336108bb565b92915050565b6040517f1a5b9e62000000000000000000000000000000000000000000000000000000008152600481018490526024810183905260448101829052306064820152336084820181905260009184919073ffffffffffffffffffffffffffffffffffffffff7f00000000000000000000000000000000000000000000000000000000000000001690631a5b9e629060a4016020604051808303816000875af1158015610523573d6000803e3d6000fd5b505050506040513d601f19601f820116820180604052508101906105479190610a65565b925061055382826108bb565b50509392505050565b60007f000000000000000000000000000000000000000000000000000000000000000073ffffffffffffffffffffffffffffffffffffffff1663d0e30db0346040518263ffffffff1660e01b81526004016000604051808303818588803b1580156105c657600080fd5b505af11580156105da573d6000803e3d6000fd5b50506040517f34f7d1f200000000000000000000000000000000000000000000000000000000815260048101879052346024820152604481018690523360648201527f000000000000000000000000000000000000000000000000000000000000000073ffffffffffffffffffffffffffffffffffffffff1693506334f7d1f2925060840190506020604051808303816000875af1158015610680573d6000803e3d6000fd5b505050506040513d601f19601f820116820180604052508101906103029190610a65565b6040517fb460af9400000000000000000000000000000000000000000000000000000000815260048101829052306024820152336044820181905260009183919073ffffffffffffffffffffffffffffffffffffffff7f0000000000000000000000000000000000000000000000000000000000000000169063b460af94906064016020604051808303816000875af1158015610745573d6000803e3d6000fd5b505050506040513d601f19601f820116820180604052508101906107699190610a65565b925061077582826108bb565b5050919050565b60007f000000000000000000000000000000000000000000000000000000000000000073ffffffffffffffffffffffffffffffffffffffff1663d0e30db0346040518263ffffffff1660e01b81526004016000604051808303818588803b1580156107e657600080fd5b505af11580156107fa573d6000803e3d6000fd5b50506040517f6e553f650000000000000000000000000000000000000000000000000000000081523460048201523360248201527f000000000000000000000000000000000000000000000000000000000000000073ffffffffffffffffffffffffffffffffffffffff169350636e553f65925060440190506020604051808303816000875af1158015610892573d6000803e3d6000fd5b505050506040513d601f19601f820116820180604052508101906108b69190610a65565b905090565b6040517f2e1a7d4d000000000000000000000000000000000000000000000000000000008152600481018390527f000000000000000000000000000000000000000000000000000000000000000073ffffffffffffffffffffffffffffffffffffffff1690632e1a7d4d90602401600060405180830381600087803b15801561094357600080fd5b505af1158015610957573d6000803e3d6000fd5b5061097c9250505073ffffffffffffffffffffffffffffffffffffffff821683610980565b5050565b600080600080600085875af19050806109f9576040517f08c379a000000000000000000000000000000000000000000000000000000000815260206004820152601360248201527f4554485f5452414e534645525f4641494c454400000000000000000000000000604482015260640160405180910390fd5b505050565b600080600060608486031215610a1357600080fd5b505081359360208301359350604090920135919050565b60008060408385031215610a3d57600080fd5b50508035926020909101359150565b600060208284031215610a5e57600080fd5b5035919050565b600060208284031215610a7757600080fd5b5051919050565b600082821015610ab7577f4e487b7100000000000000000000000000000000000000000000000000000000600052601160045260246000fd5b50039056fea2646970667358221220af91691c1158d0b89b1e958416ce1d4e6e1b8ab3ae6aa6b2cf825dc77070d2e364736f6c634300080d0033",
  "devdoc": {
    "kind": "dev",
    "methods": {},
    "version": 1
  },
  "userdoc": {
    "kind": "user",
    "methods": {},
    "version": 1
  },
  "storageLayout": {
    "storage": [],
    "types": null
  }
}