{
  "address": "0x3BD62fC13FdCAb8cD34Fb286A0DE4683cd625A00",
  "abi": [
    {
      "inputs": [
        {
          "internalType": "contract ERC20",
          "name": "asset_",
          "type": "address"
        },
        {
          "internalType": "uint8",
          "name": "maxFuturePools_",
          "type": "uint8"
        },
        {
          "internalType": "uint128",
          "name": "accumulatedEarningsSmoothFactor_",
          "type": "uint128"
        },
        {
          "internalType": "contract Auditor",
          "name": "auditor_",
          "type": "address"
        },
        {
          "internalType": "contract InterestRateModel",
          "name": "interestRateModel_",
          "type": "address"
        },
        {
          "internalType": "uint256",
          "name": "penaltyRate_",
          "type": "uint256"
        },
        {
          "internalType": "uint128",
          "name": "smartPoolReserveFactor_",
          "type": "uint128"
        },
        {
          "components": [
            {
              "internalType": "uint256",
              "name": "up",
              "type": "uint256"
            },
            {
              "internalType": "uint256",
              "name": "down",
              "type": "uint256"
            }
          ],
          "internalType": "struct FixedLender.DampSpeed",
          "name": "dampSpeed_",
          "type": "tuple"
        }
      ],
      "stateMutability": "nonpayable",
      "type": "constructor"
    },
    {
      "inputs": [],
      "name": "InsufficientProtocolLiquidity",
      "type": "error"
    },
    {
      "inputs": [],
      "name": "InvalidParameter",
      "type": "error"
    },
    {
      "inputs": [],
      "name": "MaturityOverflow",
      "type": "error"
    },
    {
      "inputs": [],
      "name": "SelfLiquidation",
      "type": "error"
    },
    {
      "inputs": [],
      "name": "SmartPoolReserveExceeded",
      "type": "error"
    },
    {
      "inputs": [],
      "name": "TooMuchSlippage",
      "type": "error"
    },
    {
      "inputs": [
        {
          "internalType": "uint8",
          "name": "state",
          "type": "uint8"
        },
        {
          "internalType": "uint8",
          "name": "requiredState",
          "type": "uint8"
        }
      ],
      "name": "UnmatchedPoolState",
      "type": "error"
    },
    {
      "inputs": [
        {
          "internalType": "uint8",
          "name": "state",
          "type": "uint8"
        },
        {
          "internalType": "uint8",
          "name": "requiredState",
          "type": "uint8"
        },
        {
          "internalType": "uint8",
          "name": "alternativeState",
          "type": "uint8"
        }
      ],
      "name": "UnmatchedPoolStateMultiple",
      "type": "error"
    },
    {
      "inputs": [],
      "name": "ZeroRepay",
      "type": "error"
    },
    {
      "inputs": [],
      "name": "ZeroWithdraw",
      "type": "error"
    },
    {
      "anonymous": false,
      "inputs": [
        {
          "indexed": false,
          "internalType": "uint128",
          "name": "newAccumulatedEarningsSmoothFactor",
          "type": "uint128"
        }
      ],
      "name": "AccumulatedEarningsSmoothFactorSet",
      "type": "event"
    },
    {
      "anonymous": false,
      "inputs": [
        {
          "indexed": true,
          "internalType": "address",
          "name": "owner",
          "type": "address"
        },
        {
          "indexed": true,
          "internalType": "address",
          "name": "spender",
          "type": "address"
        },
        {
          "indexed": false,
          "internalType": "uint256",
          "name": "amount",
          "type": "uint256"
        }
      ],
      "name": "Approval",
      "type": "event"
    },
    {
      "anonymous": false,
      "inputs": [
        {
          "indexed": true,
          "internalType": "address",
          "name": "liquidator",
          "type": "address"
        },
        {
          "indexed": true,
          "internalType": "address",
          "name": "borrower",
          "type": "address"
        },
        {
          "indexed": false,
          "internalType": "uint256",
          "name": "assets",
          "type": "uint256"
        }
      ],
      "name": "AssetSeized",
      "type": "event"
    },
    {
      "anonymous": false,
      "inputs": [
        {
          "indexed": true,
          "internalType": "uint256",
          "name": "maturity",
          "type": "uint256"
        },
        {
          "indexed": false,
          "internalType": "address",
          "name": "caller",
          "type": "address"
        },
        {
          "indexed": true,
          "internalType": "address",
          "name": "receiver",
          "type": "address"
        },
        {
          "indexed": true,
          "internalType": "address",
          "name": "borrower",
          "type": "address"
        },
        {
          "indexed": false,
          "internalType": "uint256",
          "name": "assets",
          "type": "uint256"
        },
        {
          "indexed": false,
          "internalType": "uint256",
          "name": "fee",
          "type": "uint256"
        }
      ],
      "name": "BorrowAtMaturity",
      "type": "event"
    },
    {
      "anonymous": false,
      "inputs": [
        {
          "indexed": false,
          "internalType": "uint256",
          "name": "newDampSpeedUp",
          "type": "uint256"
        },
        {
          "indexed": false,
          "internalType": "uint256",
          "name": "newDampSpeedDown",
          "type": "uint256"
        }
      ],
      "name": "DampSpeedSet",
      "type": "event"
    },
    {
      "anonymous": false,
      "inputs": [
        {
          "indexed": true,
          "internalType": "address",
          "name": "caller",
          "type": "address"
        },
        {
          "indexed": true,
          "internalType": "address",
          "name": "owner",
          "type": "address"
        },
        {
          "indexed": false,
          "internalType": "uint256",
          "name": "assets",
          "type": "uint256"
        },
        {
          "indexed": false,
          "internalType": "uint256",
          "name": "shares",
          "type": "uint256"
        }
      ],
      "name": "Deposit",
      "type": "event"
    },
    {
      "anonymous": false,
      "inputs": [
        {
          "indexed": true,
          "internalType": "uint256",
          "name": "maturity",
          "type": "uint256"
        },
        {
          "indexed": true,
          "internalType": "address",
          "name": "caller",
          "type": "address"
        },
        {
          "indexed": true,
          "internalType": "address",
          "name": "owner",
          "type": "address"
        },
        {
          "indexed": false,
          "internalType": "uint256",
          "name": "assets",
          "type": "uint256"
        },
        {
          "indexed": false,
          "internalType": "uint256",
          "name": "fee",
          "type": "uint256"
        }
      ],
      "name": "DepositAtMaturity",
      "type": "event"
    },
    {
      "anonymous": false,
      "inputs": [
        {
          "indexed": true,
          "internalType": "contract InterestRateModel",
          "name": "newInterestRateModel",
          "type": "address"
        }
      ],
      "name": "InterestRateModelSet",
      "type": "event"
    },
    {
      "anonymous": false,
      "inputs": [
        {
          "indexed": true,
          "internalType": "address",
          "name": "receiver",
          "type": "address"
        },
        {
          "indexed": true,
          "internalType": "address",
          "name": "borrower",
          "type": "address"
        },
        {
          "indexed": false,
          "internalType": "uint256",
          "name": "assets",
          "type": "uint256"
        },
        {
          "indexed": false,
          "internalType": "uint256",
          "name": "lendersAssets",
          "type": "uint256"
        },
        {
          "indexed": true,
          "internalType": "contract FixedLender",
          "name": "collateralMarket",
          "type": "address"
        },
        {
          "indexed": false,
          "internalType": "uint256",
          "name": "seizedAssets",
          "type": "uint256"
        }
      ],
      "name": "LiquidateBorrow",
      "type": "event"
    },
    {
      "anonymous": false,
      "inputs": [
        {
          "indexed": false,
          "internalType": "uint256",
          "name": "timestamp",
          "type": "uint256"
        },
        {
          "indexed": false,
          "internalType": "uint256",
          "name": "smartPoolShares",
          "type": "uint256"
        },
        {
          "indexed": false,
          "internalType": "uint256",
          "name": "smartPoolAssets",
          "type": "uint256"
        },
        {
          "indexed": false,
          "internalType": "uint256",
          "name": "smartPoolEarningsAccumulator",
          "type": "uint256"
        },
        {
          "indexed": true,
          "internalType": "uint256",
          "name": "maturity",
          "type": "uint256"
        },
        {
          "indexed": false,
          "internalType": "uint256",
          "name": "maturityUnassignedEarnings",
          "type": "uint256"
        }
      ],
      "name": "MarketUpdated",
      "type": "event"
    },
    {
      "anonymous": false,
      "inputs": [
        {
          "indexed": false,
          "internalType": "uint256",
          "name": "newMaxFuturePools",
          "type": "uint256"
        }
      ],
      "name": "MaxFuturePoolsSet",
      "type": "event"
    },
    {
      "anonymous": false,
      "inputs": [
        {
          "indexed": false,
          "internalType": "address",
          "name": "account",
          "type": "address"
        }
      ],
      "name": "Paused",
      "type": "event"
    },
    {
      "anonymous": false,
      "inputs": [
        {
          "indexed": false,
          "internalType": "uint256",
          "name": "newPenaltyRate",
          "type": "uint256"
        }
      ],
      "name": "PenaltyRateSet",
      "type": "event"
    },
    {
      "anonymous": false,
      "inputs": [
        {
          "indexed": true,
          "internalType": "uint256",
          "name": "maturity",
          "type": "uint256"
        },
        {
          "indexed": true,
          "internalType": "address",
          "name": "caller",
          "type": "address"
        },
        {
          "indexed": true,
          "internalType": "address",
          "name": "borrower",
          "type": "address"
        },
        {
          "indexed": false,
          "internalType": "uint256",
          "name": "assets",
          "type": "uint256"
        },
        {
          "indexed": false,
          "internalType": "uint256",
          "name": "positionAssets",
          "type": "uint256"
        }
      ],
      "name": "RepayAtMaturity",
      "type": "event"
    },
    {
      "anonymous": false,
      "inputs": [
        {
          "indexed": true,
          "internalType": "bytes32",
          "name": "role",
          "type": "bytes32"
        },
        {
          "indexed": true,
          "internalType": "bytes32",
          "name": "previousAdminRole",
          "type": "bytes32"
        },
        {
          "indexed": true,
          "internalType": "bytes32",
          "name": "newAdminRole",
          "type": "bytes32"
        }
      ],
      "name": "RoleAdminChanged",
      "type": "event"
    },
    {
      "anonymous": false,
      "inputs": [
        {
          "indexed": true,
          "internalType": "bytes32",
          "name": "role",
          "type": "bytes32"
        },
        {
          "indexed": true,
          "internalType": "address",
          "name": "account",
          "type": "address"
        },
        {
          "indexed": true,
          "internalType": "address",
          "name": "sender",
          "type": "address"
        }
      ],
      "name": "RoleGranted",
      "type": "event"
    },
    {
      "anonymous": false,
      "inputs": [
        {
          "indexed": true,
          "internalType": "bytes32",
          "name": "role",
          "type": "bytes32"
        },
        {
          "indexed": true,
          "internalType": "address",
          "name": "account",
          "type": "address"
        },
        {
          "indexed": true,
          "internalType": "address",
          "name": "sender",
          "type": "address"
        }
      ],
      "name": "RoleRevoked",
      "type": "event"
    },
    {
      "anonymous": false,
      "inputs": [
        {
          "indexed": false,
          "internalType": "uint256",
          "name": "previousAssets",
          "type": "uint256"
        },
        {
          "indexed": false,
          "internalType": "uint256",
          "name": "earnings",
          "type": "uint256"
        }
      ],
      "name": "SmartPoolEarningsAccrued",
      "type": "event"
    },
    {
      "anonymous": false,
      "inputs": [
        {
          "indexed": false,
          "internalType": "uint128",
          "name": "newSmartPoolReserveFactor",
          "type": "uint128"
        }
      ],
      "name": "SmartPoolReserveFactorSet",
      "type": "event"
    },
    {
      "anonymous": false,
      "inputs": [
        {
          "indexed": true,
          "internalType": "address",
          "name": "from",
          "type": "address"
        },
        {
          "indexed": true,
          "internalType": "address",
          "name": "to",
          "type": "address"
        },
        {
          "indexed": false,
          "internalType": "uint256",
          "name": "amount",
          "type": "uint256"
        }
      ],
      "name": "Transfer",
      "type": "event"
    },
    {
      "anonymous": false,
      "inputs": [
        {
          "indexed": false,
          "internalType": "address",
          "name": "account",
          "type": "address"
        }
      ],
      "name": "Unpaused",
      "type": "event"
    },
    {
      "anonymous": false,
      "inputs": [
        {
          "indexed": true,
          "internalType": "address",
          "name": "caller",
          "type": "address"
        },
        {
          "indexed": true,
          "internalType": "address",
          "name": "receiver",
          "type": "address"
        },
        {
          "indexed": true,
          "internalType": "address",
          "name": "owner",
          "type": "address"
        },
        {
          "indexed": false,
          "internalType": "uint256",
          "name": "assets",
          "type": "uint256"
        },
        {
          "indexed": false,
          "internalType": "uint256",
          "name": "shares",
          "type": "uint256"
        }
      ],
      "name": "Withdraw",
      "type": "event"
    },
    {
      "anonymous": false,
      "inputs": [
        {
          "indexed": true,
          "internalType": "uint256",
          "name": "maturity",
          "type": "uint256"
        },
        {
          "indexed": false,
          "internalType": "address",
          "name": "caller",
          "type": "address"
        },
        {
          "indexed": true,
          "internalType": "address",
          "name": "receiver",
          "type": "address"
        },
        {
          "indexed": true,
          "internalType": "address",
          "name": "owner",
          "type": "address"
        },
        {
          "indexed": false,
          "internalType": "uint256",
          "name": "assets",
          "type": "uint256"
        },
        {
          "indexed": false,
          "internalType": "uint256",
          "name": "assetsDiscounted",
          "type": "uint256"
        }
      ],
      "name": "WithdrawAtMaturity",
      "type": "event"
    },
    {
      "inputs": [],
      "name": "CLOSE_FACTOR",
      "outputs": [
        {
          "internalType": "uint256",
          "name": "",
          "type": "uint256"
        }
      ],
      "stateMutability": "view",
      "type": "function"
    },
    {
      "inputs": [],
      "name": "DEFAULT_ADMIN_ROLE",
      "outputs": [
        {
          "internalType": "bytes32",
          "name": "",
          "type": "bytes32"
        }
      ],
      "stateMutability": "view",
      "type": "function"
    },
    {
      "inputs": [],
      "name": "DOMAIN_SEPARATOR",
      "outputs": [
        {
          "internalType": "bytes32",
          "name": "",
          "type": "bytes32"
        }
      ],
      "stateMutability": "view",
      "type": "function"
    },
    {
      "inputs": [],
      "name": "PAUSER_ROLE",
      "outputs": [
        {
          "internalType": "bytes32",
          "name": "",
          "type": "bytes32"
        }
      ],
      "stateMutability": "view",
      "type": "function"
    },
    {
      "inputs": [],
      "name": "accumulatedEarningsSmoothFactor",
      "outputs": [
        {
          "internalType": "uint128",
          "name": "",
          "type": "uint128"
        }
      ],
      "stateMutability": "view",
      "type": "function"
    },
    {
      "inputs": [
        {
          "internalType": "address",
          "name": "",
          "type": "address"
        },
        {
          "internalType": "address",
          "name": "",
          "type": "address"
        }
      ],
      "name": "allowance",
      "outputs": [
        {
          "internalType": "uint256",
          "name": "",
          "type": "uint256"
        }
      ],
      "stateMutability": "view",
      "type": "function"
    },
    {
      "inputs": [
        {
          "internalType": "address",
          "name": "spender",
          "type": "address"
        },
        {
          "internalType": "uint256",
          "name": "amount",
          "type": "uint256"
        }
      ],
      "name": "approve",
      "outputs": [
        {
          "internalType": "bool",
          "name": "",
          "type": "bool"
        }
      ],
      "stateMutability": "nonpayable",
      "type": "function"
    },
    {
      "inputs": [],
      "name": "asset",
      "outputs": [
        {
          "internalType": "contract ERC20",
          "name": "",
          "type": "address"
        }
      ],
      "stateMutability": "view",
      "type": "function"
    },
    {
      "inputs": [],
      "name": "auditor",
      "outputs": [
        {
          "internalType": "contract Auditor",
          "name": "",
          "type": "address"
        }
      ],
      "stateMutability": "view",
      "type": "function"
    },
    {
      "inputs": [
        {
          "internalType": "address",
          "name": "",
          "type": "address"
        }
      ],
      "name": "balanceOf",
      "outputs": [
        {
          "internalType": "uint256",
          "name": "",
          "type": "uint256"
        }
      ],
      "stateMutability": "view",
      "type": "function"
    },
    {
      "inputs": [
        {
          "internalType": "uint256",
          "name": "maturity",
          "type": "uint256"
        },
        {
          "internalType": "uint256",
          "name": "assets",
          "type": "uint256"
        },
        {
          "internalType": "uint256",
          "name": "maxAssets",
          "type": "uint256"
        },
        {
          "internalType": "address",
          "name": "receiver",
          "type": "address"
        },
        {
          "internalType": "address",
          "name": "borrower",
          "type": "address"
        }
      ],
      "name": "borrowAtMaturity",
      "outputs": [
        {
          "internalType": "uint256",
          "name": "assetsOwed",
          "type": "uint256"
        }
      ],
      "stateMutability": "nonpayable",
      "type": "function"
    },
    {
      "inputs": [
        {
          "internalType": "uint256",
          "name": "shares",
          "type": "uint256"
        }
      ],
      "name": "convertToAssets",
      "outputs": [
        {
          "internalType": "uint256",
          "name": "",
          "type": "uint256"
        }
      ],
      "stateMutability": "view",
      "type": "function"
    },
    {
      "inputs": [
        {
          "internalType": "uint256",
          "name": "assets",
          "type": "uint256"
        }
      ],
      "name": "convertToShares",
      "outputs": [
        {
          "internalType": "uint256",
          "name": "",
          "type": "uint256"
        }
      ],
      "stateMutability": "view",
      "type": "function"
    },
    {
      "inputs": [],
      "name": "dampSpeedDown",
      "outputs": [
        {
          "internalType": "uint256",
          "name": "",
          "type": "uint256"
        }
      ],
      "stateMutability": "view",
      "type": "function"
    },
    {
      "inputs": [],
      "name": "dampSpeedUp",
      "outputs": [
        {
          "internalType": "uint256",
          "name": "",
          "type": "uint256"
        }
      ],
      "stateMutability": "view",
      "type": "function"
    },
    {
      "inputs": [],
      "name": "decimals",
      "outputs": [
        {
          "internalType": "uint8",
          "name": "",
          "type": "uint8"
        }
      ],
      "stateMutability": "view",
      "type": "function"
    },
    {
      "inputs": [
        {
          "internalType": "uint256",
          "name": "assets",
          "type": "uint256"
        },
        {
          "internalType": "address",
          "name": "receiver",
          "type": "address"
        }
      ],
      "name": "deposit",
      "outputs": [
        {
          "internalType": "uint256",
          "name": "shares",
          "type": "uint256"
        }
      ],
      "stateMutability": "nonpayable",
      "type": "function"
    },
    {
      "inputs": [
        {
          "internalType": "uint256",
          "name": "maturity",
          "type": "uint256"
        },
        {
          "internalType": "uint256",
          "name": "assets",
          "type": "uint256"
        },
        {
          "internalType": "uint256",
          "name": "minAssetsRequired",
          "type": "uint256"
        },
        {
          "internalType": "address",
          "name": "receiver",
          "type": "address"
        }
      ],
      "name": "depositAtMaturity",
      "outputs": [
        {
          "internalType": "uint256",
          "name": "positionAssets",
          "type": "uint256"
        }
      ],
      "stateMutability": "nonpayable",
      "type": "function"
    },
    {
      "inputs": [
        {
          "internalType": "uint256",
          "name": "",
          "type": "uint256"
        },
        {
          "internalType": "address",
          "name": "",
          "type": "address"
        }
      ],
      "name": "fixedBorrowPositions",
      "outputs": [
        {
          "internalType": "uint256",
          "name": "principal",
          "type": "uint256"
        },
        {
          "internalType": "uint256",
          "name": "fee",
          "type": "uint256"
        }
      ],
      "stateMutability": "view",
      "type": "function"
    },
    {
      "inputs": [
        {
          "internalType": "address",
          "name": "",
          "type": "address"
        }
      ],
      "name": "fixedBorrows",
      "outputs": [
        {
          "internalType": "uint256",
          "name": "",
          "type": "uint256"
        }
      ],
      "stateMutability": "view",
      "type": "function"
    },
    {
      "inputs": [
        {
          "internalType": "uint256",
          "name": "",
          "type": "uint256"
        },
        {
          "internalType": "address",
          "name": "",
          "type": "address"
        }
      ],
      "name": "fixedDepositPositions",
      "outputs": [
        {
          "internalType": "uint256",
          "name": "principal",
          "type": "uint256"
        },
        {
          "internalType": "uint256",
          "name": "fee",
          "type": "uint256"
        }
      ],
      "stateMutability": "view",
      "type": "function"
    },
    {
      "inputs": [
        {
          "internalType": "address",
          "name": "",
          "type": "address"
        }
      ],
      "name": "fixedDeposits",
      "outputs": [
        {
          "internalType": "uint256",
          "name": "",
          "type": "uint256"
        }
      ],
      "stateMutability": "view",
      "type": "function"
    },
    {
      "inputs": [
        {
          "internalType": "uint256",
          "name": "",
          "type": "uint256"
        }
      ],
      "name": "fixedPools",
      "outputs": [
        {
          "internalType": "uint256",
          "name": "borrowed",
          "type": "uint256"
        },
        {
          "internalType": "uint256",
          "name": "supplied",
          "type": "uint256"
        },
        {
          "internalType": "uint256",
          "name": "earningsUnassigned",
          "type": "uint256"
        },
        {
          "internalType": "uint256",
          "name": "lastAccrual",
          "type": "uint256"
        }
      ],
      "stateMutability": "view",
      "type": "function"
    },
    {
      "inputs": [
        {
          "internalType": "address",
          "name": "account",
          "type": "address"
        }
      ],
      "name": "getAccountSnapshot",
      "outputs": [
        {
          "internalType": "uint256",
          "name": "",
          "type": "uint256"
        },
        {
          "internalType": "uint256",
          "name": "",
          "type": "uint256"
        }
      ],
      "stateMutability": "view",
      "type": "function"
    },
    {
      "inputs": [
        {
          "internalType": "address",
          "name": "account",
          "type": "address"
        }
      ],
      "name": "getDebt",
      "outputs": [
        {
          "internalType": "uint256",
          "name": "debt",
          "type": "uint256"
        }
      ],
      "stateMutability": "view",
      "type": "function"
    },
    {
      "inputs": [
        {
          "internalType": "bytes32",
          "name": "role",
          "type": "bytes32"
        }
      ],
      "name": "getRoleAdmin",
      "outputs": [
        {
          "internalType": "bytes32",
          "name": "",
          "type": "bytes32"
        }
      ],
      "stateMutability": "view",
      "type": "function"
    },
    {
      "inputs": [
        {
          "internalType": "bytes32",
          "name": "role",
          "type": "bytes32"
        },
        {
          "internalType": "address",
          "name": "account",
          "type": "address"
        }
      ],
      "name": "grantRole",
      "outputs": [],
      "stateMutability": "nonpayable",
      "type": "function"
    },
    {
      "inputs": [
        {
          "internalType": "bytes32",
          "name": "role",
          "type": "bytes32"
        },
        {
          "internalType": "address",
          "name": "account",
          "type": "address"
        }
      ],
      "name": "hasRole",
      "outputs": [
        {
          "internalType": "bool",
          "name": "",
          "type": "bool"
        }
      ],
      "stateMutability": "view",
      "type": "function"
    },
    {
      "inputs": [],
      "name": "interestRateModel",
      "outputs": [
        {
          "internalType": "contract InterestRateModel",
          "name": "",
          "type": "address"
        }
      ],
      "stateMutability": "view",
      "type": "function"
    },
    {
      "inputs": [],
      "name": "lastAccumulatedEarningsAccrual",
      "outputs": [
        {
          "internalType": "uint32",
          "name": "",
          "type": "uint32"
        }
      ],
      "stateMutability": "view",
      "type": "function"
    },
    {
      "inputs": [],
      "name": "lastAverageUpdate",
      "outputs": [
        {
          "internalType": "uint32",
          "name": "",
          "type": "uint32"
        }
      ],
      "stateMutability": "view",
      "type": "function"
    },
    {
      "inputs": [
        {
          "internalType": "address",
          "name": "borrower",
          "type": "address"
        },
        {
          "internalType": "uint256",
          "name": "maxAssets",
          "type": "uint256"
        },
        {
          "internalType": "contract FixedLender",
          "name": "collateralMarket",
          "type": "address"
        }
      ],
      "name": "liquidate",
      "outputs": [
        {
          "internalType": "uint256",
          "name": "repaidAssets",
          "type": "uint256"
        }
      ],
      "stateMutability": "nonpayable",
      "type": "function"
    },
    {
      "inputs": [
        {
          "internalType": "address",
          "name": "",
          "type": "address"
        }
      ],
      "name": "maxDeposit",
      "outputs": [
        {
          "internalType": "uint256",
          "name": "",
          "type": "uint256"
        }
      ],
      "stateMutability": "view",
      "type": "function"
    },
    {
      "inputs": [],
      "name": "maxFuturePools",
      "outputs": [
        {
          "internalType": "uint8",
          "name": "",
          "type": "uint8"
        }
      ],
      "stateMutability": "view",
      "type": "function"
    },
    {
      "inputs": [
        {
          "internalType": "address",
          "name": "",
          "type": "address"
        }
      ],
      "name": "maxMint",
      "outputs": [
        {
          "internalType": "uint256",
          "name": "",
          "type": "uint256"
        }
      ],
      "stateMutability": "view",
      "type": "function"
    },
    {
      "inputs": [
        {
          "internalType": "address",
          "name": "owner",
          "type": "address"
        }
      ],
      "name": "maxRedeem",
      "outputs": [
        {
          "internalType": "uint256",
          "name": "",
          "type": "uint256"
        }
      ],
      "stateMutability": "view",
      "type": "function"
    },
    {
      "inputs": [
        {
          "internalType": "address",
          "name": "owner",
          "type": "address"
        }
      ],
      "name": "maxWithdraw",
      "outputs": [
        {
          "internalType": "uint256",
          "name": "",
          "type": "uint256"
        }
      ],
      "stateMutability": "view",
      "type": "function"
    },
    {
      "inputs": [
        {
          "internalType": "uint256",
          "name": "shares",
          "type": "uint256"
        },
        {
          "internalType": "address",
          "name": "receiver",
          "type": "address"
        }
      ],
      "name": "mint",
      "outputs": [
        {
          "internalType": "uint256",
          "name": "assets",
          "type": "uint256"
        }
      ],
      "stateMutability": "nonpayable",
      "type": "function"
    },
    {
      "inputs": [],
      "name": "name",
      "outputs": [
        {
          "internalType": "string",
          "name": "",
          "type": "string"
        }
      ],
      "stateMutability": "view",
      "type": "function"
    },
    {
      "inputs": [
        {
          "internalType": "address",
          "name": "",
          "type": "address"
        }
      ],
      "name": "nonces",
      "outputs": [
        {
          "internalType": "uint256",
          "name": "",
          "type": "uint256"
        }
      ],
      "stateMutability": "view",
      "type": "function"
    },
    {
      "inputs": [],
      "name": "pause",
      "outputs": [],
      "stateMutability": "nonpayable",
      "type": "function"
    },
    {
      "inputs": [],
      "name": "paused",
      "outputs": [
        {
          "internalType": "bool",
          "name": "",
          "type": "bool"
        }
      ],
      "stateMutability": "view",
      "type": "function"
    },
    {
      "inputs": [],
      "name": "penaltyRate",
      "outputs": [
        {
          "internalType": "uint256",
          "name": "",
          "type": "uint256"
        }
      ],
      "stateMutability": "view",
      "type": "function"
    },
    {
      "inputs": [
        {
          "internalType": "address",
          "name": "owner",
          "type": "address"
        },
        {
          "internalType": "address",
          "name": "spender",
          "type": "address"
        },
        {
          "internalType": "uint256",
          "name": "value",
          "type": "uint256"
        },
        {
          "internalType": "uint256",
          "name": "deadline",
          "type": "uint256"
        },
        {
          "internalType": "uint8",
          "name": "v",
          "type": "uint8"
        },
        {
          "internalType": "bytes32",
          "name": "r",
          "type": "bytes32"
        },
        {
          "internalType": "bytes32",
          "name": "s",
          "type": "bytes32"
        }
      ],
      "name": "permit",
      "outputs": [],
      "stateMutability": "nonpayable",
      "type": "function"
    },
    {
      "inputs": [
        {
          "internalType": "uint256",
          "name": "assets",
          "type": "uint256"
        }
      ],
      "name": "previewDeposit",
      "outputs": [
        {
          "internalType": "uint256",
          "name": "",
          "type": "uint256"
        }
      ],
      "stateMutability": "view",
      "type": "function"
    },
    {
      "inputs": [
        {
          "internalType": "uint256",
          "name": "shares",
          "type": "uint256"
        }
      ],
      "name": "previewMint",
      "outputs": [
        {
          "internalType": "uint256",
          "name": "",
          "type": "uint256"
        }
      ],
      "stateMutability": "view",
      "type": "function"
    },
    {
      "inputs": [
        {
          "internalType": "uint256",
          "name": "shares",
          "type": "uint256"
        }
      ],
      "name": "previewRedeem",
      "outputs": [
        {
          "internalType": "uint256",
          "name": "",
          "type": "uint256"
        }
      ],
      "stateMutability": "view",
      "type": "function"
    },
    {
      "inputs": [
        {
          "internalType": "uint256",
          "name": "assets",
          "type": "uint256"
        }
      ],
      "name": "previewWithdraw",
      "outputs": [
        {
          "internalType": "uint256",
          "name": "",
          "type": "uint256"
        }
      ],
      "stateMutability": "view",
      "type": "function"
    },
    {
      "inputs": [
        {
          "internalType": "uint256",
          "name": "shares",
          "type": "uint256"
        },
        {
          "internalType": "address",
          "name": "receiver",
          "type": "address"
        },
        {
          "internalType": "address",
          "name": "owner",
          "type": "address"
        }
      ],
      "name": "redeem",
      "outputs": [
        {
          "internalType": "uint256",
          "name": "assets",
          "type": "uint256"
        }
      ],
      "stateMutability": "nonpayable",
      "type": "function"
    },
    {
      "inputs": [
        {
          "internalType": "bytes32",
          "name": "role",
          "type": "bytes32"
        },
        {
          "internalType": "address",
          "name": "account",
          "type": "address"
        }
      ],
      "name": "renounceRole",
      "outputs": [],
      "stateMutability": "nonpayable",
      "type": "function"
    },
    {
      "inputs": [
        {
          "internalType": "uint256",
          "name": "maturity",
          "type": "uint256"
        },
        {
          "internalType": "uint256",
          "name": "positionAssets",
          "type": "uint256"
        },
        {
          "internalType": "uint256",
          "name": "maxAssets",
          "type": "uint256"
        },
        {
          "internalType": "address",
          "name": "borrower",
          "type": "address"
        }
      ],
      "name": "repayAtMaturity",
      "outputs": [
        {
          "internalType": "uint256",
          "name": "actualRepayAssets",
          "type": "uint256"
        }
      ],
      "stateMutability": "nonpayable",
      "type": "function"
    },
    {
      "inputs": [
        {
          "internalType": "bytes32",
          "name": "role",
          "type": "bytes32"
        },
        {
          "internalType": "address",
          "name": "account",
          "type": "address"
        }
      ],
      "name": "revokeRole",
      "outputs": [],
      "stateMutability": "nonpayable",
      "type": "function"
    },
    {
      "inputs": [
        {
          "internalType": "address",
          "name": "liquidator",
          "type": "address"
        },
        {
          "internalType": "address",
          "name": "borrower",
          "type": "address"
        },
        {
          "internalType": "uint256",
          "name": "assets",
          "type": "uint256"
        }
      ],
      "name": "seize",
      "outputs": [
        {
          "internalType": "bool",
          "name": "",
          "type": "bool"
        }
      ],
      "stateMutability": "nonpayable",
      "type": "function"
    },
    {
      "inputs": [
        {
          "internalType": "uint128",
          "name": "accumulatedEarningsSmoothFactor_",
          "type": "uint128"
        }
      ],
      "name": "setAccumulatedEarningsSmoothFactor",
      "outputs": [],
      "stateMutability": "nonpayable",
      "type": "function"
    },
    {
      "inputs": [
        {
          "components": [
            {
              "internalType": "uint256",
              "name": "up",
              "type": "uint256"
            },
            {
              "internalType": "uint256",
              "name": "down",
              "type": "uint256"
            }
          ],
          "internalType": "struct FixedLender.DampSpeed",
          "name": "dampSpeed",
          "type": "tuple"
        }
      ],
      "name": "setDampSpeed",
      "outputs": [],
      "stateMutability": "nonpayable",
      "type": "function"
    },
    {
      "inputs": [
        {
          "internalType": "contract InterestRateModel",
          "name": "interestRateModel_",
          "type": "address"
        }
      ],
      "name": "setInterestRateModel",
      "outputs": [],
      "stateMutability": "nonpayable",
      "type": "function"
    },
    {
      "inputs": [
        {
          "internalType": "uint8",
          "name": "futurePools",
          "type": "uint8"
        }
      ],
      "name": "setMaxFuturePools",
      "outputs": [],
      "stateMutability": "nonpayable",
      "type": "function"
    },
    {
      "inputs": [
        {
          "internalType": "uint256",
          "name": "penaltyRate_",
          "type": "uint256"
        }
      ],
      "name": "setPenaltyRate",
      "outputs": [],
      "stateMutability": "nonpayable",
      "type": "function"
    },
    {
      "inputs": [
        {
          "internalType": "uint128",
          "name": "smartPoolReserveFactor_",
          "type": "uint128"
        }
      ],
      "name": "setSmartPoolReserveFactor",
      "outputs": [],
      "stateMutability": "nonpayable",
      "type": "function"
    },
    {
      "inputs": [],
      "name": "smartPoolAssets",
      "outputs": [
        {
          "internalType": "uint256",
          "name": "",
          "type": "uint256"
        }
      ],
      "stateMutability": "view",
      "type": "function"
    },
    {
      "inputs": [],
      "name": "smartPoolAssetsAverage",
      "outputs": [
        {
          "internalType": "uint256",
          "name": "",
          "type": "uint256"
        }
      ],
      "stateMutability": "view",
      "type": "function"
    },
    {
      "inputs": [],
      "name": "smartPoolBorrowed",
      "outputs": [
        {
          "internalType": "uint256",
          "name": "",
          "type": "uint256"
        }
      ],
      "stateMutability": "view",
      "type": "function"
    },
    {
      "inputs": [],
      "name": "smartPoolEarningsAccumulator",
      "outputs": [
        {
          "internalType": "uint256",
          "name": "",
          "type": "uint256"
        }
      ],
      "stateMutability": "view",
      "type": "function"
    },
    {
      "inputs": [],
      "name": "smartPoolReserveFactor",
      "outputs": [
        {
          "internalType": "uint128",
          "name": "",
          "type": "uint128"
        }
      ],
      "stateMutability": "view",
      "type": "function"
    },
    {
      "inputs": [
        {
          "internalType": "bytes4",
          "name": "interfaceId",
          "type": "bytes4"
        }
      ],
      "name": "supportsInterface",
      "outputs": [
        {
          "internalType": "bool",
          "name": "",
          "type": "bool"
        }
      ],
      "stateMutability": "view",
      "type": "function"
    },
    {
      "inputs": [],
      "name": "symbol",
      "outputs": [
        {
          "internalType": "string",
          "name": "",
          "type": "string"
        }
      ],
      "stateMutability": "view",
      "type": "function"
    },
    {
      "inputs": [],
      "name": "totalAssets",
      "outputs": [
        {
          "internalType": "uint256",
          "name": "",
          "type": "uint256"
        }
      ],
      "stateMutability": "view",
      "type": "function"
    },
    {
      "inputs": [],
      "name": "totalSupply",
      "outputs": [
        {
          "internalType": "uint256",
          "name": "",
          "type": "uint256"
        }
      ],
      "stateMutability": "view",
      "type": "function"
    },
    {
      "inputs": [
        {
          "internalType": "address",
          "name": "to",
          "type": "address"
        },
        {
          "internalType": "uint256",
          "name": "shares",
          "type": "uint256"
        }
      ],
      "name": "transfer",
      "outputs": [
        {
          "internalType": "bool",
          "name": "",
          "type": "bool"
        }
      ],
      "stateMutability": "nonpayable",
      "type": "function"
    },
    {
      "inputs": [
        {
          "internalType": "address",
          "name": "from",
          "type": "address"
        },
        {
          "internalType": "address",
          "name": "to",
          "type": "address"
        },
        {
          "internalType": "uint256",
          "name": "shares",
          "type": "uint256"
        }
      ],
      "name": "transferFrom",
      "outputs": [
        {
          "internalType": "bool",
          "name": "",
          "type": "bool"
        }
      ],
      "stateMutability": "nonpayable",
      "type": "function"
    },
    {
      "inputs": [],
      "name": "unpause",
      "outputs": [],
      "stateMutability": "nonpayable",
      "type": "function"
    },
    {
      "inputs": [
        {
          "internalType": "uint256",
          "name": "assets",
          "type": "uint256"
        },
        {
          "internalType": "address",
          "name": "receiver",
          "type": "address"
        },
        {
          "internalType": "address",
          "name": "owner",
          "type": "address"
        }
      ],
      "name": "withdraw",
      "outputs": [
        {
          "internalType": "uint256",
          "name": "shares",
          "type": "uint256"
        }
      ],
      "stateMutability": "nonpayable",
      "type": "function"
    },
    {
      "inputs": [
        {
          "internalType": "uint256",
          "name": "maturity",
          "type": "uint256"
        },
        {
          "internalType": "uint256",
          "name": "positionAssets",
          "type": "uint256"
        },
        {
          "internalType": "uint256",
          "name": "minAssetsRequired",
          "type": "uint256"
        },
        {
          "internalType": "address",
          "name": "receiver",
          "type": "address"
        },
        {
          "internalType": "address",
          "name": "owner",
          "type": "address"
        }
      ],
      "name": "withdrawAtMaturity",
      "outputs": [
        {
          "internalType": "uint256",
          "name": "assetsDiscounted",
          "type": "uint256"
        }
      ],
      "stateMutability": "nonpayable",
      "type": "function"
    }
  ],
  "transactionHash": "0x4f9b74f58b521ae02f74058e6cf2456b6d1b69332244efe15ecab74a20d2f4f9",
  "args": [
    "0xb18d016cDD2d9439A19f15633005A6b2cd6Aa774",
    3,
    "2000000000000000000",
    "0xF89484B0D8f3fD665Bf1488ac940787a2247774e",
    "0x7189fE9576f03B23388774Bbac97FfBd6d8a68E6",
    "231481481481",
    "100000000000000000",
    {
      "up": "4600000000000000",
      "down": "420000000000000000"
    }
  ],
  "numDeployments": 1,
  "solcInputHash": "3885bcb2ff82e675bed0fcc39e7a5ac1",
  "bytecode": "0x61012060405260016007553480156200001757600080fd5b5060405162006e2938038062006e298339810160408190526200003a9162000a5a565b87886001600160a01b03166395d89b416040518163ffffffff1660e01b8152600401600060405180830381865afa1580156200007a573d6000803e3d6000fd5b505050506040513d6000823e601f3d908101601f19168201604052620000a4919081019062000b78565b604051602001620000b6919062000c30565b604051602081830303815290604052896001600160a01b03166395d89b416040518163ffffffff1660e01b8152600401600060405180830381865afa15801562000104573d6000803e3d6000fd5b505050506040513d6000823e601f3d908101601f191682016040526200012e919081019062000b78565b60405160200162000140919062000c60565b6040516020818303038152906040528181846001600160a01b031663313ce5676040518163ffffffff1660e01b8152600401602060405180830381865afa15801562000190573d6000803e3d6000fd5b505050506040513d601f19601f82011682018060405250810190620001b6919062000c8b565b8251620001cb90600090602086019062000959565b508151620001e190600190602085019062000959565b5060ff81166080524660a052620001f762000282565b60c0525050506001600160a01b0390921660e05250506008805460ff19169055620002246000336200031e565b6001600160a01b038516610100526200023d87620003c3565b62000248866200044d565b6200025384620004dc565b6200025e8362000546565b6200026982620005c0565b62000274816200064f565b505050505050505062000eb9565b60007f8b73c3c69bb8fe3d512ecc4cf759cc79239f7b179b0ffacaa9a75d522b39400f6000604051620002b6919062000ce5565b6040805191829003822060208301939093528101919091527fc89efdaa54c0f20c7adf612882df0950f5a951637e0307cdcb4c672f298b8bc660608201524660808201523060a082015260c00160405160208183030381529060405280519060200120905090565b60008281526006602090815260408083206001600160a01b038516845290915290205460ff16620003bf5760008281526006602090815260408083206001600160a01b03851684529091529020805460ff191660011790556200037e3390565b6001600160a01b0316816001600160a01b0316837f2f8788117e7eff1d82e926ec794901d17c78024a50270940304540a733656f0d60405160405180910390a45b5050565b6000620003d081620006e4565b60e08260ff161180620003e4575060ff8216155b156200040357604051630309cb8760e51b815260040160405180910390fd5b6013805460ff191660ff84169081179091556040519081527f23c0170203096819aed8a13739fe91ce445ec92a7e2aa228081b5e45ee582c80906020015b60405180910390a15050565b60006200045a81620006e4565b673782dace9d900000826001600160801b031611156200048d57604051630309cb8760e51b815260040160405180910390fd5b601480546001600160801b0319166001600160801b0384169081179091556040519081527f23b551d40eff810596d9326aa0c01a3f4e9399def252648a5b47a2cf032443c79060200162000441565b6000620004e981620006e4565b60138054600160481b600160e81b03191669010000000000000000006001600160a01b038516908102919091179091556040517f7902cd1307c545e3f5782172612372bf997a93698917ced12b2f83d86e347d0c90600090a25050565b60006200055381620006e4565b6486cf16de008211806200056b5750641ac688be0082105b156200058a57604051630309cb8760e51b815260040160405180910390fd5b60108290556040518281527fdb0ebfb2503f7c16b45577ebbf6c7d6b99b6e8aaf6652b156e36d5d6654a3a5e9060200162000441565b6000620005cd81620006e4565b6702c68af0bb140000826001600160801b031611156200060057604051630309cb8760e51b815260040160405180910390fd5b601480546001600160801b03908116600160801b918516918202179091556040519081527f3925d27aa42354a8d38bd707e02aa820a9afbf42b66254793b7986359874c2f89060200162000441565b60006200065c81620006e4565b8151670de0b6b3a764000010806200067f5750670de0b6b3a76400008260200151115b156200069e57604051630309cb8760e51b815260040160405180910390fd5b81516011819055602080840151601281905560408051938452918301527fd09fee08a2915f9ac9a77197b21a3e275d34ec9542f569eb15b95ce8f7fe2808910162000441565b620006f08133620006f3565b50565b60008281526006602090815260408083206001600160a01b038516845290915290205460ff16620003bf576200073f816001600160a01b031660146200079960201b620035f61760201c565b62000755836020620035f662000799821b17811c565b6040516020016200076892919062000d88565b60408051601f198184030181529082905262461bcd60e51b8252620007909160040162000e01565b60405180910390fd5b60606000620007aa83600262000e4c565b620007b790600262000e6e565b6001600160401b03811115620007d157620007d162000a44565b6040519080825280601f01601f191660200182016040528015620007fc576020820181803683370190505b509050600360fc1b816000815181106200081a576200081a62000e89565b60200101906001600160f81b031916908160001a905350600f60fb1b816001815181106200084c576200084c62000e89565b60200101906001600160f81b031916908160001a90535060006200087284600262000e4c565b6200087f90600162000e6e565b90505b600181111562000901576f181899199a1a9b1b9c1cb0b131b232b360811b85600f1660108110620008b757620008b762000e89565b1a60f81b828281518110620008d057620008d062000e89565b60200101906001600160f81b031916908160001a90535060049490941c93620008f98162000e9f565b905062000882565b508315620009525760405162461bcd60e51b815260206004820181905260248201527f537472696e67733a20686578206c656e67746820696e73756666696369656e74604482015260640162000790565b9392505050565b828054620009679062000ca9565b90600052602060002090601f0160209004810192826200098b5760008555620009d6565b82601f10620009a657805160ff1916838001178555620009d6565b82800160010185558215620009d6579182015b82811115620009d6578251825591602001919060010190620009b9565b50620009e4929150620009e8565b5090565b5b80821115620009e45760008155600101620009e9565b6001600160a01b0381168114620006f057600080fd5b805160ff8116811462000a2757600080fd5b919050565b80516001600160801b038116811462000a2757600080fd5b634e487b7160e01b600052604160045260246000fd5b600080600080600080600080888a0361012081121562000a7957600080fd5b895162000a8681620009ff565b985062000a9660208b0162000a15565b975062000aa660408b0162000a2c565b965060608a015162000ab881620009ff565b60808b015190965062000acb81620009ff565b60a08b0151909550935062000ae360c08b0162000a2c565b9250604060df198201121562000af857600080fd5b50604080519081016001600160401b038111828210171562000b1e5762000b1e62000a44565b60405260e08a015181526101009099015160208a0152509598949750929591949093909190565b60005b8381101562000b6257818101518382015260200162000b48565b8381111562000b72576000848401525b50505050565b60006020828403121562000b8b57600080fd5b81516001600160401b038082111562000ba357600080fd5b818401915084601f83011262000bb857600080fd5b81518181111562000bcd5762000bcd62000a44565b604051601f8201601f19908116603f0116810190838211818310171562000bf85762000bf862000a44565b8160405282815287602084870101111562000c1257600080fd5b62000c2583602083016020880162000b45565b979650505050505050565b6522aa37b5b2b760d11b81526000825162000c5381600685016020870162000b45565b9190910160060192915050565b606560f81b81526000825162000c7e81600185016020870162000b45565b9190910160010192915050565b60006020828403121562000c9e57600080fd5b620009528262000a15565b600181811c9082168062000cbe57607f821691505b60208210810362000cdf57634e487b7160e01b600052602260045260246000fd5b50919050565b600080835481600182811c91508083168062000d0257607f831692505b6020808410820362000d2257634e487b7160e01b86526022600452602486fd5b81801562000d39576001811462000d4b5762000d7a565b60ff1986168952848901965062000d7a565b60008a81526020902060005b8681101562000d725781548b82015290850190830162000d57565b505084890196505b509498975050505050505050565b7f416363657373436f6e74726f6c3a206163636f756e742000000000000000000081526000835162000dc281601785016020880162000b45565b7001034b99036b4b9b9b4b733903937b6329607d1b601791840191820152835162000df581602884016020880162000b45565b01602801949350505050565b602081526000825180602084015262000e2281604085016020870162000b45565b601f01601f19169190910160400192915050565b634e487b7160e01b600052601160045260246000fd5b600081600019048311821515161562000e695762000e6962000e36565b500290565b6000821982111562000e845762000e8462000e36565b500190565b634e487b7160e01b600052603260045260246000fd5b60008162000eb15762000eb162000e36565b506000190190565b60805160a05160c05160e05161010051615ead62000f7c600039600081816106b4015281816113080152818161146f01528181611e97015281816121cf01528181612f3801528181613116015281816131e4015261478b0152600081816106590152818161137101528181611a2101528181611c2101528181612368015281816126220152818161281601528181612e2f0152818161485e01528181614f7001526150ce01526000611a9601526000611a61015260006105fb0152615ead6000f3fe608060405234801561001057600080fd5b50600436106104c35760003560e01c806370a0823111610286578063ba0876521161016b578063d547741f116100e3578063e63ab1e911610097578063f3fdb15a1161007c578063f3fdb15a14610b7b578063fb0fc4c314610b9b578063fd8ecd1714610bb457600080fd5b8063e63ab1e914610b41578063ef8b30f714610b6857600080fd5b8063d905777e116100c8578063d905777e14610acd578063d93330fd14610af6578063dd62ed3e14610b1657600080fd5b8063d547741f14610ab1578063d6b7494f14610ac457600080fd5b8063cb0f6d481161013a578063ce96cb771161011f578063ce96cb7714610a59578063d2681a0b14610a6c578063d505accf14610a9e57600080fd5b8063cb0f6d4814610a0b578063ccfd8b1114610a2757600080fd5b8063ba087652146109bd578063c37f68e2146109d0578063c63d75b6146106de578063c6e6f592146109f857600080fd5b8063a05a091a116101fe578063b0f64c19116101cd578063b3d7f6b9116101b2578063b3d7f6b91461098e578063b460af94146109a1578063b87d7d8d146109b457600080fd5b8063b0f64c1914610972578063b2a02ff11461097b57600080fd5b8063a05a091a14610931578063a1bab44714610944578063a217fddf14610957578063a9059cbb1461095f57600080fd5b80638bcd40161161025557806394bf804d1161023a57806394bf804d1461090357806395d89b41146109165780639a78e72e1461091e57600080fd5b80638bcd4016146108b757806391d14854146108ca57600080fd5b806370a082311461085c57806373d9aa2f1461087c5780637ecebe001461088f5780638456cb59146108af57600080fd5b806336568abe116103ac5780634914c008116103245780635730e1b7116102f35780635c975abb116102d85780635c975abb1461082b5780636677bf04146108365780636e553f651461084957600080fd5b80635730e1b7146107ba5780635b1afd67146107da57600080fd5b80634914c008146107305780634cdad506146107435780634dab4dc0146107565780634e7c50591461076557600080fd5b80633ec045a61161037b578063402d267d11610360578063402d267d146106de5780634051cf11146106f357806340eb6eb81461071d57600080fd5b80633ec045a6146106af5780633f4ba83a146106d657600080fd5b806336568abe1461064157806338d52e0f146106545780633aa18d6f146106935780633c6f317f1461069c57600080fd5b80631a5b9e621161043f5780632f2ff15d1161040e57806334f7d1f2116103f357806334f7d1f21461061d578063360c78bc146106305780633644e5151461063957600080fd5b80632f2ff15d146105e3578063313ce567146105f657600080fd5b80631a5b9e621461058557806323b872dd14610598578063248a9ca3146105ab57806328acf2cf146105ce57600080fd5b806307a2d13a116104965780630a28a4771161047b5780630a28a4771461054a5780630e52dbec1461055d57806318160ddd1461057c57600080fd5b806307a2d13a14610524578063095ea7b31461053757600080fd5b806301e1d114146104c857806301ffc9a7146104e35780630539fa8c1461050657806306fdde031461050f575b600080fd5b6104d0610bbd565b6040519081526020015b60405180910390f35b6104f66104f13660046155ae565b610c3f565b60405190151581526020016104da565b6104d060115481565b610517610cd8565b6040516104da919061561c565b6104d061053236600461566d565b610d66565b6104f661054536600461569b565b610d93565b6104d061055836600461566d565b610dff565b60135461056a9060ff1681565b60405160ff90911681526020016104da565b6104d060025481565b6104d06105933660046156c7565b610e1f565b6104f66105a636600461571d565b61146b565b6104d06105b936600461566d565b60009081526006602052604090206001015490565b6105e16105dc366004615774565b611537565b005b6105e16105f136600461578f565b6115d6565b61056a7f000000000000000000000000000000000000000000000000000000000000000081565b6104d061062b3660046157bf565b611600565b6104d0600f5481565b6104d0611a5d565b6105e161064f36600461578f565b611ab8565b61067b7f000000000000000000000000000000000000000000000000000000000000000081565b6040516001600160a01b0390911681526020016104da565b6104d060125481565b6104d06106aa3660046157bf565b611b44565b61067b7f000000000000000000000000000000000000000000000000000000000000000081565b6105e1611c56565b6104d06106ec366004615800565b5060001990565b60135461070890610100900463ffffffff1681565b60405163ffffffff90911681526020016104da565b6105e161072b36600461581d565b611c8b565b6104d061073e36600461584f565b611d59565b6104d061075136600461566d565b6124ea565b6104d06706f05b59d3b2000081565b61079a61077336600461566d565b600d6020526000908152604090208054600182015460028301546003909301549192909184565b6040805194855260208501939093529183015260608201526080016104da565b6104d06107c8366004615800565b600b6020526000908152604090205481565b60145461080a9070010000000000000000000000000000000090046fffffffffffffffffffffffffffffffff1681565b6040516fffffffffffffffffffffffffffffffff90911681526020016104da565b60085460ff166104f6565b6105e161084436600461581d565b6124f5565b6104d061085736600461578f565b6125b8565b6104d061086a366004615800565b60036020526000908152604090205481565b6105e161088a3660046158c0565b6126a4565b6104d061089d366004615800565b60056020526000908152604090205481565b6105e161274d565b6105e16108c5366004615800565b61277f565b6104f66108d836600461578f565b60009182526006602090815260408084206001600160a01b0393909316845291905290205460ff1690565b6104d061091136600461578f565b6127fc565b610517612898565b6104d061092c366004615800565b6128a5565b6104d061093f3660046156c7565b6129b0565b6105e161095236600461566d565b612ea6565b6104d0600081565b6104f661096d36600461569b565b612f34565b6104d060155481565b6104f661098936600461571d565b612ff7565b6104d061099c36600461566d565b6130af565b6104d06109af366004615936565b6130ce565b6104d060165481565b6104d06109cb366004615936565b6131e0565b6109e36109de366004615800565b6132a4565b604080519283526020830191909152016104da565b6104d0610a0636600461566d565b6132da565b60145461080a906fffffffffffffffffffffffffffffffff1681565b6109e3610a3536600461578f565b60096020908152600092835260408084209091529082529020805460019091015482565b6104d0610a67366004615800565b6132fa565b6109e3610a7a36600461578f565b600a6020908152600092835260408084209091529082529020805460019091015482565b6105e1610aac36600461596d565b61331c565b6105e1610abf36600461578f565b6135c6565b6104d060105481565b6104d0610adb366004615800565b6001600160a01b031660009081526003602052604090205490565b6104d0610b04366004615800565b600c6020526000908152604090205481565b6104d0610b243660046159db565b600460209081526000928352604080842090915290825290205481565b6104d07f65d7a28e3265b37a6474929f336521b332c1681b933f6cb9f3376673440d862a81565b6104d0610b7636600461566d565b6135eb565b60135461067b90690100000000000000000090046001600160a01b031681565b6013546107089065010000000000900463ffffffff1681565b6104d0600e5481565b601354600d60205260009060ff168180806224ea004281810690039085028101815b818111610c255780600052604060002060028101549450600381015495505084811115610c1b57610c16844287900387840361381f565b860195505b6224ea0001610bdf565b50610c2e61383e565b856015540101965050505050505090565b60007fffffffff0000000000000000000000000000000000000000000000000000000082167f7965db0b000000000000000000000000000000000000000000000000000000001480610cd257507f01ffc9a7000000000000000000000000000000000000000000000000000000007fffffffff000000000000000000000000000000000000000000000000000000008316145b92915050565b60008054610ce590615a38565b80601f0160208091040260200160405190810160405280929190818152602001828054610d1190615a38565b8015610d5e5780601f10610d3357610100808354040283529160200191610d5e565b820191906000526020600020905b815481529060010190602001808311610d4157829003601f168201915b505050505081565b6002546000908015610d8a57610d85610d7d610bbd565b84908361381f565b610d8c565b825b9392505050565b3360008181526004602090815260408083206001600160a01b038716808552925280832085905551919290917f8c5be1e5ebec7d5bd14f71427d1e84f3dd0314c0f7b2291e5b200ac8c7c3b92590610dee9086815260200190565b60405180910390a350600192915050565b6002546000908015610d8a57610d8581610e17610bbd565b8591906138ca565b6000600754600114610e785760405162461bcd60e51b815260206004820152600a60248201527f5245454e5452414e43590000000000000000000000000000000000000000000060448201526064015b60405180910390fd5b600260075560085460ff1615610ed05760405162461bcd60e51b815260206004820152601060248201527f5061757361626c653a20706175736564000000000000000000000000000000006044820152606401610e6f565b601354610ee49060ff1687600360006138f8565b6000868152600d6020526040812090610efe828942613a61565b9050610f08613ada565b601354825460018401546016546040517f7b5c15ef000000000000000000000000000000000000000000000000000000008152600481018d9052426024820152604481018c90526064810193909352608483019190915260a4820152600091610fd49169010000000000000000009091046001600160a01b031690637b5c15ef9060c401602060405180830381865afa158015610fa9573d6000803e3d6000fd5b505050506040513d601f19601f82011682018060405250810190610fcd9190615a8b565b8990613bb8565b9050610fe08189615ad3565b601554600e54919550906110008a610ff88385615aeb565b879190613bcd565b61100a9082615ad3565b6014549091506110659061104c9070010000000000000000000000000000000090046fffffffffffffffffffffffffffffffff16670de0b6b3a7640000615b02565b83906fffffffffffffffffffffffffffffffff16613bb8565b81111561109e576040517fe5b22fbf00000000000000000000000000000000000000000000000000000000815260040160405180910390fd5b600e5550868411156110dc576040517ffa6ad35500000000000000000000000000000000000000000000000000000000815260040160405180910390fd5b336001600160a01b03861614611153576001600160a01b038516600090815260046020908152604080832033845290915290205460001981146111515761112285610dff565b61112c9082615aeb565b6001600160a01b03871660009081526004602090815260408083203384529091529020555b505b6000898152600a602090815260408083206001600160a01b03891684528252808320815180830190925280548083526001909101549282019290925291036111d2576001600160a01b0386166000908152600b60205260409020546111b8908b613c4c565b6001600160a01b0387166000908152600b60205260409020555b6000806111e8846111e288613d79565b8d613d98565b9150915080600f60008282546111fe9190615ad3565b92505081905550818660020160008282546112199190615ad3565b90915550506040805180820190915283518190611237908e90615ad3565b815260200185856020015161124c9190615ad3565b905260008d8152600a602090815260408083206001600160a01b038d16845282529182902083518155928101516001909301929092556015548151818152928301889052917fd2297b31b9dc44ba485ec9ae19f75c6d336e647a6040455c7f4c429c1f9cf568910160405180910390a16112c68682615ad3565b601555506040517fb574558e0000000000000000000000000000000000000000000000000000000081523060048201526001600160a01b0389811660248301527f0000000000000000000000000000000000000000000000000000000000000000169063b574558e90604401600060405180830381600087803b15801561134c57600080fd5b505af1158015611360573d6000803e3d6000fd5b5061139a9250506001600160a01b037f00000000000000000000000000000000000000000000000000000000000000001690508a8d613dde565b60408051338152602081018d90529081018590526001600160a01b03808a1691908b16908e907f66866b472f27d55d69496091bbd651907b2fb1041b3eeaca6e565ae5b5af4013906060015b60405180910390a48b7f4fb2d60922d7d8a118698627d6cfb1801f77922fa7d6fc7a5c65b1084ec51ca642600254601554600f548b6002015460405161144e959493929190948552602085019390935260408401919091526060830152608082015260a00190565b60405180910390a250506001600755509298975050505050505050565b60007f00000000000000000000000000000000000000000000000000000000000000006001600160a01b0316639cbda20e30866114a7866130af565b6040517fffffffff0000000000000000000000000000000000000000000000000000000060e086901b1681526001600160a01b039384166004820152929091166024830152604482015260640160006040518083038186803b15801561150c57600080fd5b505afa158015611520573d6000803e3d6000fd5b5050505061152f848484613e89565b949350505050565b600061154281613f7b565b60e08260ff161180611555575060ff8216155b1561158c576040517f613970e000000000000000000000000000000000000000000000000000000000815260040160405180910390fd5b6013805460ff191660ff84169081179091556040519081527f23c0170203096819aed8a13739fe91ce445ec92a7e2aa228081b5e45ee582c80906020015b60405180910390a15050565b6000828152600660205260409020600101546115f181613f7b565b6115fb8383613f85565b505050565b60006007546001146116545760405162461bcd60e51b815260206004820152600a60248201527f5245454e5452414e4359000000000000000000000000000000000000000000006044820152606401610e6f565b600260075560085460ff16156116ac5760405162461bcd60e51b815260206004820152601060248201527f5061757361626c653a20706175736564000000000000000000000000000000006044820152606401610e6f565b6013546116c09060ff1686600360006138f8565b6000858152600d60205260408120906116da828842613a61565b6013549091506000908190690100000000000000000090046001600160a01b0316635e8e0ebe61170986613d79565b60028701546040517fffffffff0000000000000000000000000000000000000000000000000000000060e085901b16815260048101929092526024820152604481018b90526064016040805180830381865afa15801561176d573d6000803e3d6000fd5b505050506040513d601f19601f820116820180604052508101906117919190615b33565b90925090506117a08289615ad3565b9450868510156117dc576040517ffa6ad35500000000000000000000000000000000000000000000000000000000815260040160405180910390fd5b6117e68489614027565b600e60008282546117f79190615aeb565b9091555061180790508183615ad3565b84600201600082825461181a9190615aeb565b9250508190555080600f60008282546118339190615ad3565b909155505060008981526009602090815260408083206001600160a01b038a1684528252808320815180830190925280548083526001909101549282019290925291036118b7576001600160a01b0387166000908152600c602052604090205461189d908b613c4c565b6001600160a01b0388166000908152600c60205260409020555b60405180604001604052808a83600001516118d29190615ad3565b81526020018483602001516118e79190615ad3565b905260008b81526009602090815260408083206001600160a01b038c16845282529182902083518155928101516001909301929092556015548151818152928301879052917fd2297b31b9dc44ba485ec9ae19f75c6d336e647a6040455c7f4c429c1f9cf568910160405180910390a16119618582615ad3565b601555604080518b8152602081018690526001600160a01b038a169133918e917fd9900507c64720c1a5e11858a42769b599616268b832495aa6afe8b9dc566e76910160405180910390a48a7f4fb2d60922d7d8a118698627d6cfb1801f77922fa7d6fc7a5c65b1084ec51ca642600254601554600f548b60020154604051611a0c959493929190948552602085019390935260408401919091526060830152608082015260a00190565b60405180910390a2611a496001600160a01b037f00000000000000000000000000000000000000000000000000000000000000001633308d614067565b505060016007555092979650505050505050565b60007f00000000000000000000000000000000000000000000000000000000000000004614611a9357611a8e614110565b905090565b507f000000000000000000000000000000000000000000000000000000000000000090565b6001600160a01b0381163314611b365760405162461bcd60e51b815260206004820152602f60248201527f416363657373436f6e74726f6c3a2063616e206f6e6c792072656e6f756e636560448201527f20726f6c657320666f722073656c6600000000000000000000000000000000006064820152608401610e6f565b611b4082826141aa565b5050565b6000600754600114611b985760405162461bcd60e51b815260206004820152600a60248201527f5245454e5452414e4359000000000000000000000000000000000000000000006044820152606401610e6f565b600260075560085460ff1615611bf05760405162461bcd60e51b815260206004820152601060248201527f5061757361626c653a20706175736564000000000000000000000000000000006044820152606401610e6f565b601354611c049060ff1686600360026138f8565b611c1285858585600161422d565b9050611c496001600160a01b037f000000000000000000000000000000000000000000000000000000000000000016333084614067565b6001600755949350505050565b7f65d7a28e3265b37a6474929f336521b332c1681b933f6cb9f3376673440d862a611c8081613f7b565b611c88614675565b50565b6000611c9681613f7b565b673782dace9d900000826fffffffffffffffffffffffffffffffff161115611cea576040517f613970e000000000000000000000000000000000000000000000000000000000815260040160405180910390fd5b601480547fffffffffffffffffffffffffffffffff00000000000000000000000000000000166fffffffffffffffffffffffffffffffff84169081179091556040519081527f23b551d40eff810596d9326aa0c01a3f4e9399def252648a5b47a2cf032443c7906020016115ca565b6000600754600114611dad5760405162461bcd60e51b815260206004820152600a60248201527f5245454e5452414e4359000000000000000000000000000000000000000000006044820152606401610e6f565b600260075560085460ff1615611e055760405162461bcd60e51b815260206004820152601060248201527f5061757361626c653a20706175736564000000000000000000000000000000006044820152606401610e6f565b6001600160a01b0384163303611e47576040517f44511af100000000000000000000000000000000000000000000000000000000815260040160405180910390fd5b6040517f216e7b580000000000000000000000000000000000000000000000000000000081523060048201526001600160a01b0383811660248301528581166044830152606482018590526000917f00000000000000000000000000000000000000000000000000000000000000009091169063216e7b58906084016040805180830381865afa158015611edf573d6000803e3d6000fd5b505050506040513d601f19601f82011682018060405250810190611f039190615b67565b90945090506000849003611f43576040517f685e923500000000000000000000000000000000000000000000000000000000815260040160405180910390fd5b6001600160a01b0385166000908152600b602052604081205490611f6c64010000000083615b93565b9050602082901c915060005b60e08110156124d9576001811b8316156124c9576000611f9b6224ea0083615ba7565b611fa59084615ad3565b9050871561239557600081421015611fd857611fc5828a8b8d600061422d565b9050611fd1818a615aeb565b985061214e565b6000828152600a602090815260408083206001600160a01b038e168452825280832081518083019092528054808352600190910154928201839052909161201e91615ad3565b915050600061204660105485426120359190615aeb565b61203f9190615ba7565b8390613bb8565b6120509083615ad3565b90508a811161205f578a61206a565b61206a8b838361381f565b92508260000361207d5760009a5061214b565b61208b84848d8f600061422d565b9250612097838c615aeb565b9a506000600a600086815260200190815260200160002060008e6001600160a01b03166001600160a01b03168152602001908152602001600020604051806040016040529081600082015481526020016001820154815250509050806020015181600001516121069190615ad3565b92505061211b60105485426120359190615aeb565b6121259083615ad3565b90508a8111612134578a61213f565b61213f8b838361381f565b60000361214b5760009a505b50505b6121588188615ad3565b965084612166846001615ad3565b6001901b111561217557600098505b88600003612393576040517fb80073d10000000000000000000000000000000000000000000000000000000081523060048201526001600160a01b0389811660248301528b811660448301526064820189905260009182917f0000000000000000000000000000000000000000000000000000000000000000169063b80073d1906084016040805180830381865afa158015612215573d6000803e3d6000fd5b505050506040513d601f19601f820116820180604052508101906122399190615b33565b90925090506001600160a01b038a1630146122e5576040517fb2a02ff10000000000000000000000000000000000000000000000000000000081523360048201526001600160a01b038d81166024830152604482018490528b169063b2a02ff1906064016020604051808303816000875af11580156122bc573d6000803e3d6000fd5b505050506040513d601f19601f820116820180604052508101906122e09190615bc6565b6122f1565b6122f130338e85614711565b806122f95750875b604080518b8152602081018490529081018490529098506001600160a01b03808c1691908e169033907f5792f003fe0ba32222d4b2d0f12f6e427a57e2635c45fbd23a2fc73f78a0372b9060600160405180910390a4612390333061235e848d615ad3565b6001600160a01b037f000000000000000000000000000000000000000000000000000000000000000016929190614067565b50505b505b871580156123a1575084155b156124c7576000818152600a602090815260408083206001600160a01b038d1684528252808320815180830190925280548083526001909101549282018390529092916123ed91615ad3565b905080156124c45781516000848152600d6020526040902061240e9161494f565b600e600082825461241f9190615aeb565b9091555050600f546000612433828461496f565b905061243f8183615aeb565b600f558281101561246b576124548184615aeb565b601560008282546124659190615aeb565b90915550505b50506000838152600a602090815260408083206001600160a01b038f1684528252808320838155600101839055600b9091529020546124aa9084614985565b6001600160a01b038c166000908152600b60205260409020555b50505b505b600190810190811b831015611f78575b505060016007555090949350505050565b6000610cd282610d66565b600061250081613f7b565b6702c68af0bb140000826fffffffffffffffffffffffffffffffff161115612554576040517f613970e000000000000000000000000000000000000000000000000000000000815260040160405180910390fd5b601480546fffffffffffffffffffffffffffffffff908116700100000000000000000000000000000000918516918202179091556040519081527f3925d27aa42354a8d38bd707e02aa820a9afbf42b66254793b7986359874c2f8906020016115ca565b60006125c3836135eb565b9050806000036126155760405162461bcd60e51b815260206004820152600b60248201527f5a45524f5f5348415245530000000000000000000000000000000000000000006044820152606401610e6f565b61264a6001600160a01b037f000000000000000000000000000000000000000000000000000000000000000016333086614067565b6126548282614a53565b60408051848152602081018390526001600160a01b0384169133917fdcbc1c05240f31ff3ad067ef1ee35ce4997762752e3a095284754544f4c709d7910160405180910390a3610cd28382614abf565b60006126af81613f7b565b8151670de0b6b3a764000010806126d15750670de0b6b3a76400008260200151115b15612708576040517f613970e000000000000000000000000000000000000000000000000000000000815260040160405180910390fd5b81516011819055602080840151601281905560408051938452918301527fd09fee08a2915f9ac9a77197b21a3e275d34ec9542f569eb15b95ce8f7fe280891016115ca565b7f65d7a28e3265b37a6474929f336521b332c1681b933f6cb9f3376673440d862a61277781613f7b565b611c88614c26565b600061278a81613f7b565b601380547fffffff0000000000000000000000000000000000000000ffffffffffffffffff1669010000000000000000006001600160a01b038516908102919091179091556040517f7902cd1307c545e3f5782172612372bf997a93698917ced12b2f83d86e347d0c90600090a25050565b6000612807836130af565b905061283e6001600160a01b037f000000000000000000000000000000000000000000000000000000000000000016333084614067565b6128488284614a53565b60408051828152602081018590526001600160a01b0384169133917fdcbc1c05240f31ff3ad067ef1ee35ce4997762752e3a095284754544f4c709d7910160405180910390a3610cd28184614abf565b60018054610ce590615a38565b6010546001600160a01b0382166000908152600b6020526040812054909190826128d464010000000083615b93565b9050602082901c915060005b60e08110156129a7576001811b8316156129975760006129036224ea0083615ba7565b61290d9084615ad3565b6000818152600a602090815260408083206001600160a01b038c168452825280832081518083019092528054808352600190910154928201839052939450926129569190615ad3565b90506129628189615ad3565b975060006129708442614cae565b905080156129925761298561203f8983615ba7565b61298f908a615ad3565b98505b505050505b600190810190811b8310156128e0575b50505050919050565b6000600754600114612a045760405162461bcd60e51b815260206004820152600a60248201527f5245454e5452414e4359000000000000000000000000000000000000000000006044820152606401610e6f565b60026007556000859003612a44576040517fb8cb621900000000000000000000000000000000000000000000000000000000815260040160405180910390fd5b601354612a589060ff1687600360026138f8565b6000868152600d6020526040812090612a72828942613a61565b60008981526009602090815260408083206001600160a01b0389168452825291829020825180840190935280548084526001909101549183018290529293509091612abd9190615ad3565b881115612ad85760208101518151612ad59190615ad3565b97505b88421015612bc957612ae8613ada565b601354835460018501546016546040517f7b5c15ef000000000000000000000000000000000000000000000000000000008152600481018e9052426024820152604481018d90526064810193909352608483019190915260a4820152612bc291690100000000000000000090046001600160a01b031690637b5c15ef9060c401602060405180830381865afa158015612b85573d6000803e3d6000fd5b505050506040513d601f19601f82011682018060405250810190612ba99190615a8b565b612bbb90670de0b6b3a7640000615ad3565b8990614cc8565b9350612bcd565b8793505b86841015612c07576040517ffa6ad35500000000000000000000000000000000000000000000000000000000815260040160405180910390fd5b336001600160a01b03861614612c7e576001600160a01b03851660009081526004602090815260408083203384529091529020546000198114612c7c57612c4d85610dff565b612c579082615aeb565b6001600160a01b03871660009081526004602090815260408083203384529091529020555b505b604080518082019091528151815260208083015190820152612cbd90612ca4908a614cdd565b51600e54601554612cb59190615aeb565b859190614d25565b600e6000828254612cce9190615ad3565b909155506000905080612cf3612ce4878c615aeb565b612ced87613d79565b88613d98565b9150915081856002016000828254612d0b9190615ad3565b9250508190555080600f6000828254612d249190615ad3565b90915550612d349050838b614da8565b5060208301518351612d469190615ad3565b600003612da85760008b81526009602090815260408083206001600160a01b038b1684528252808320838155600101839055600c909152902054612d8a908c614985565b6001600160a01b0388166000908152600c6020526040902055612dd9565b60008b81526009602090815260408083206001600160a01b038b168452825290912084518155908401516001909101555b60155460408051828152602081018790527fd2297b31b9dc44ba485ec9ae19f75c6d336e647a6040455c7f4c429c1f9cf568910160405180910390a1612e1f8582615ad3565b601555612e566001600160a01b037f0000000000000000000000000000000000000000000000000000000000000000168a89613dde565b60408051338152602081018d90529081018890526001600160a01b03808a1691908b16908e907fe57dbac0e7c42ad5f3b0fadb9c065565377cf771054fca70d35c96e01f9ec53c906060016113e6565b6000612eb181613f7b565b6486cf16de00821180612ec85750641ac688be0082105b15612eff576040517f613970e000000000000000000000000000000000000000000000000000000000815260040160405180910390fd5b60108290556040518281527fdb0ebfb2503f7c16b45577ebbf6c7d6b99b6e8aaf6652b156e36d5d6654a3a5e906020016115ca565b60007f00000000000000000000000000000000000000000000000000000000000000006001600160a01b0316639cbda20e3033612f70866130af565b6040517fffffffff0000000000000000000000000000000000000000000000000000000060e086901b1681526001600160a01b039384166004820152929091166024830152604482015260640160006040518083038186803b158015612fd557600080fd5b505afa158015612fe9573d6000803e3d6000fd5b50505050610d8c8383614e11565b600060075460011461304b5760405162461bcd60e51b815260206004820152600a60248201527f5245454e5452414e4359000000000000000000000000000000000000000000006044820152606401610e6f565b600260075560085460ff16156130a35760405162461bcd60e51b815260206004820152601060248201527f5061757361626c653a20706175736564000000000000000000000000000000006044820152606401610e6f565b611c4933858585614711565b6002546000908015610d8a57610d856130c6610bbd565b8490836138ca565b6040517f9cbda20e0000000000000000000000000000000000000000000000000000000081523060048201526001600160a01b038281166024830152604482018590526000917f000000000000000000000000000000000000000000000000000000000000000090911690639cbda20e9060640160006040518083038186803b15801561315a57600080fd5b505afa15801561316e573d6000803e3d6000fd5b5050505061317d848484614e89565b600254601554600f5460408051428152602081019490945283019190915260608201526000608082018190529192507f4fb2d60922d7d8a118698627d6cfb1801f77922fa7d6fc7a5c65b1084ec51ca69060a00160405180910390a29392505050565b60007f00000000000000000000000000000000000000000000000000000000000000006001600160a01b0316639cbda20e308461321c886130af565b6040517fffffffff0000000000000000000000000000000000000000000000000000000060e086901b1681526001600160a01b039384166004820152929091166024830152604482015260640160006040518083038186803b15801561328157600080fd5b505afa158015613295573d6000803e3d6000fd5b5050505061317d848484614f97565b6001600160a01b03811660009081526003602052604081205481906132c890610d66565b6132d1846128a5565b91509150915091565b6002546000908015610d8a57610d85816132f2610bbd565b85919061381f565b6001600160a01b038116600090815260036020526040812054610cd290610d66565b4284101561336c5760405162461bcd60e51b815260206004820152601760248201527f5045524d49545f444541444c494e455f455850495245440000000000000000006044820152606401610e6f565b60006001613378611a5d565b6001600160a01b038a811660008181526005602090815260409182902080546001810190915582517f6e71edae12b1b97f4d1f60370fef10105fa2faae0126114a169c64845d6126c98184015280840194909452938d166060840152608083018c905260a083019390935260c08083018b90528151808403909101815260e0830190915280519201919091207f190100000000000000000000000000000000000000000000000000000000000061010083015261010282019290925261012281019190915261014201604080517fffffffffffffffffffffffffffffffffffffffffffffffffffffffffffffffe08184030181528282528051602091820120600084529083018083525260ff871690820152606081018590526080810184905260a0016020604051602081039080840390855afa1580156134bd573d6000803e3d6000fd5b50506040517fffffffffffffffffffffffffffffffffffffffffffffffffffffffffffffffe001519150506001600160a01b038116158015906135115750876001600160a01b0316816001600160a01b0316145b61355d5760405162461bcd60e51b815260206004820152600e60248201527f494e56414c49445f5349474e45520000000000000000000000000000000000006044820152606401610e6f565b6001600160a01b0390811660009081526004602090815260408083208a8516808552908352928190208990555188815291928a16917f8c5be1e5ebec7d5bd14f71427d1e84f3dd0314c0f7b2291e5b200ac8c7c3b925910160405180910390a350505050505050565b6000828152600660205260409020600101546135e181613f7b565b6115fb83836141aa565b6000610cd2826132da565b60606000613605836002615ba7565b613610906002615ad3565b67ffffffffffffffff81111561362857613628615891565b6040519080825280601f01601f191660200182016040528015613652576020820181803683370190505b5090507f30000000000000000000000000000000000000000000000000000000000000008160008151811061368957613689615be1565b60200101907effffffffffffffffffffffffffffffffffffffffffffffffffffffffffffff1916908160001a9053507f7800000000000000000000000000000000000000000000000000000000000000816001815181106136ec576136ec615be1565b60200101907effffffffffffffffffffffffffffffffffffffffffffffffffffffffffffff1916908160001a9053506000613728846002615ba7565b613733906001615ad3565b90505b60018111156137d0577f303132333435363738396162636465660000000000000000000000000000000085600f166010811061377457613774615be1565b1a60f81b82828151811061378a5761378a615be1565b60200101907effffffffffffffffffffffffffffffffffffffffffffffffffffffffffffff1916908160001a90535060049490941c936137c981615c10565b9050613736565b508315610d8c5760405162461bcd60e51b815260206004820181905260248201527f537472696e67733a20686578206c656e67746820696e73756666696369656e746044820152606401610e6f565b82820281151584158583048514171661383757600080fd5b0492915050565b601354600090819061385b90610100900463ffffffff1642615aeb565b90508060000361386d57600091505090565b6013546138c49082906138b09061388b906224ea009060ff16615c27565b6014546fffffffffffffffffffffffffffffffff169063ffffffff90811690613bb816565b6138ba9084615ad3565b600f54919061381f565b91505090565b8282028115158415858304851417166138e257600080fd5b6001826001830304018115150290509392505050565b60006139054285876150f5565b905082600481111561391957613919615c53565b81600481111561392b5761392b615c53565b1415801561395b575081600481111561394657613946615c53565b81600481111561395857613958615c53565b14155b15613a5a57600082600481111561397457613974615c53565b036139dc5780600481111561398b5761398b615c53565b83600481111561399d5761399d615c53565b6040517f34e2603a00000000000000000000000000000000000000000000000000000000815260ff928316600482015291166024820152604401610e6f565b8060048111156139ee576139ee615c53565b836004811115613a0057613a00615c53565b836004811115613a1257613a12615c53565b6040517f537c4e5100000000000000000000000000000000000000000000000000000000815260ff938416600482015291831660248301529091166044820152606401610e6f565b5050505050565b6003830154600090838103613a7a576000915050610d8c565b6000613a8f82613a8a878761496f565b614cae565b90506000613a9d8387614cae565b9050613aa9868661496f565b60038801556002870154613abe81848461381f565b9450613aca8582615aeb565b6002890155505050509392505050565b6015546016546000818310613af157601154613af5565b6012545b601354909150600090613b3390613b1b9065010000000000900463ffffffff1642615aeb565b613b259084615ba7565b613b2e90615c82565b615170565b613b4590670de0b6b3a7640000615cba565b9050613b518185613bb8565b613b6d613b6683670de0b6b3a7640000615aeb565b8590613bb8565b613b779190615ad3565b6016555050601380547fffffffffffffffffffffffffffffffffffffffffffffff00000000ffffffffff16650100000000004263ffffffff16021790555050565b6000610d8c8383670de0b6b3a764000061381f565b825460009081613bdd8583615ad3565b90506000613bef838860010154615395565b9050613bfb818361496f565b613c059083615aeb565b935084841115613c41576040517f016a0d6800000000000000000000000000000000000000000000000000000000815260040160405180910390fd5b509094559392505050565b600082600003613c6457506401000000008117610cd2565b6000613c7564010000000085615b93565b905080831015613d085760006224ea00613c8f8584615aeb565b613c999190615d2e565b9050613ca781610100615aeb565b85901c15613ce1576040517fa4f3107c00000000000000000000000000000000000000000000000000000000815260040160405180910390fd5b613cec816020615ad3565b602086901c901b94508484176401000000001792505050610cd2565b60006224ea00613d188386615aeb565b613d229190615d2e565b905060df811115613d5f576040517fa4f3107c00000000000000000000000000000000000000000000000000000000815260040160405180910390fd5b613d6a816020615ad3565b6001901b851792505050610cd2565b8054600182015460009190613d8e828261496f565b61152f9083615aeb565b6000808215613dc557613dc0613dae858561496f565b613db89085615aeb565b86908561381f565b613dc8565b60005b9050613dd48186615aeb565b9150935093915050565b60006040517fa9059cbb000000000000000000000000000000000000000000000000000000006000528360045282602452602060006044600080895af13d15601f3d1160016000511416171691506000606052806040525080613e835760405162461bcd60e51b815260206004820152600f60248201527f5452414e534645525f4641494c454400000000000000000000000000000000006044820152606401610e6f565b50505050565b6001600160a01b03831660009081526004602090815260408083203384529091528120546000198114613ee557613ec08382615aeb565b6001600160a01b03861660009081526004602090815260408083203384529091529020555b6001600160a01b03851660009081526003602052604081208054859290613f0d908490615aeb565b90915550506001600160a01b03808516600081815260036020526040908190208054870190555190918716907fddf252ad1be2c89b69c2b068fc378daa952ba7f163c4a11628f55a4df523b3ef90613f689087815260200190565b60405180910390a3506001949350505050565b611c8881336153a5565b60008281526006602090815260408083206001600160a01b038516845290915290205460ff16611b405760008281526006602090815260408083206001600160a01b03851684529091529020805460ff19166001179055613fe33390565b6001600160a01b0316816001600160a01b0316837f2f8788117e7eff1d82e926ec794901d17c78024a50270940304540a733656f0d60405160405180910390a45050565b815460018301546000919061403c8482615ad3565b600186015561405e61404e838361496f565b6140589084615aeb565b8561496f565b95945050505050565b60006040517f23b872dd000000000000000000000000000000000000000000000000000000006000528460045283602452826044526020600060646000808a5af13d15601f3d1160016000511416171691506000606052806040525080613a5a5760405162461bcd60e51b815260206004820152601460248201527f5452414e534645525f46524f4d5f4641494c45440000000000000000000000006044820152606401610e6f565b60007f8b73c3c69bb8fe3d512ecc4cf759cc79239f7b179b0ffacaa9a75d522b39400f60006040516141429190615d42565b6040805191829003822060208301939093528101919091527fc89efdaa54c0f20c7adf612882df0950f5a951637e0307cdcb4c672f298b8bc660608201524660808201523060a082015260c00160405160208183030381529060405280519060200120905090565b60008281526006602090815260408083206001600160a01b038516845290915290205460ff1615611b405760008281526006602090815260408083206001600160a01b0385168085529252808320805460ff1916905551339285917ff6391f5c32d9c69d2a47ea670b442974b53935d1edc7fd64eb21e047a839171b9190a45050565b600084600003614269576040517f685e923500000000000000000000000000000000000000000000000000000000815260040160405180910390fd5b6000868152600d6020526040812090614283828942613a61565b6000898152600a602090815260408083206001600160a01b038a168452825280832081518083019092528054808352600190910154928201839052939450926142d7918b916142d29190615ad3565b61496f565b6040805180820190915283518152602080850151908201529091506000906142ff9083614cdd565b90508a42101561442257861561441a576013546000908190690100000000000000000090046001600160a01b0316635e8e0ebe61433b89613d79565b60028a0154865160405160e085901b7fffffffff000000000000000000000000000000000000000000000000000000001681526004810193909352602483019190915260448201526064016040805180830381865afa1580156143a2573d6000803e3d6000fd5b505050506040513d601f19601f820116820180604052508101906143c69190615b33565b90925090506143d58183615ad3565b8760020160008282546143e89190615aeb565b9250508190555080600f60008282546144019190615ad3565b9091555061441190508285615aeb565b97505050614460565b819550614460565b601054614433906120358d42615aeb565b61443d9083615ad3565b95506144498287615aeb565b600f600082825461445a9190615ad3565b90915550505b8886111561449a576040517ffa6ad35500000000000000000000000000000000000000000000000000000000815260040160405180910390fd5b80516144a790869061494f565b600e60008282546144b89190615aeb565b909155506144c890508383614da8565b50602083015183516144da9190615ad3565b60000361453c5760008b8152600a602090815260408083206001600160a01b038c1684528252808320838155600101839055600b90915290205461451e908c614985565b6001600160a01b0389166000908152600b602052604090205561456d565b60008b8152600a602090815260408083206001600160a01b038c168452825290912084518155908401516001909101555b60155460408051828152602081018790527fd2297b31b9dc44ba485ec9ae19f75c6d336e647a6040455c7f4c429c1f9cf568910160405180910390a16145b38582615ad3565b60155560408051888152602081018590526001600160a01b038b169133918f917ff17fce321dd9fb005136a80c0bfb3789e455b7a70be9eb8922f1ad20a80d1a33910160405180910390a48b7f4fb2d60922d7d8a118698627d6cfb1801f77922fa7d6fc7a5c65b1084ec51ca642600254601554600f548b6002015460405161465e959493929190948552602085019390935260408401919091526060830152608082015260a00190565b60405180910390a250505050505095945050505050565b60085460ff166146c75760405162461bcd60e51b815260206004820152601460248201527f5061757361626c653a206e6f74207061757365640000000000000000000000006044820152606401610e6f565b6008805460ff191690557f5db9ee0a495bf2e6ff9c91a7834c1ba4fdd244a5e8aa4e537bd38aeae4b073aa335b6040516001600160a01b03909116815260200160405180910390a1565b60008160000361474d576040517fb8cb621900000000000000000000000000000000000000000000000000000000815260040160405180910390fd5b6040517fe16ee7200000000000000000000000000000000000000000000000000000000081523060048201526001600160a01b0386811660248301527f0000000000000000000000000000000000000000000000000000000000000000169063e16ee7209060440160006040518083038186803b1580156147cd57600080fd5b505afa1580156147e1573d6000803e3d6000fd5b5050505060006147f083610dff565b90506147fc8382615443565b614806848261553a565b60408051848152602081018390526001600160a01b03808716929088169133917ffbde797d201c681b91056529119e0b02407c7bb96a4a2c75c01fc9667232c8db910160405180910390a46148856001600160a01b037f0000000000000000000000000000000000000000000000000000000000000000168685613dde565b836001600160a01b0316856001600160a01b03167f1f9fff5fe5a36583a0ece4969d1292bc264a38a717ba45feb449f91a21ba1ecb856040516148ca91815260200190565b60405180910390a3600254601554600f546040805142815260208101949094528301919091526060820152600060808201819052907f4fb2d60922d7d8a118698627d6cfb1801f77922fa7d6fc7a5c65b1084ec51ca69060a00160405180910390a25050506001600160a01b0316600090815260036020526040902054151592915050565b81546001830154600091906149648483615aeb565b855561405e61404e83835b600081831061497e5781610d8c565b5090919050565b600082158061499a5750816401000000001783145b156149a757506000610cd2565b60006149b864010000000085615b93565b9050808303614a2157602184901c60015b600182161580156149d957508115155b156149ea57600191821c91016149c9565b60206149f68282615ad3565b9690961c90951b9485614a0c6224ea0083615ba7565b614a169087615ad3565b179350505050610cd2565b6224ea00614a2f8285615aeb565b614a399190615d2e565b614a44906020615ad3565b6001901b198416915050610cd2565b8060026000828254614a659190615ad3565b90915550506001600160a01b0382166000818152600360209081526040808320805486019055518481527fddf252ad1be2c89b69c2b068fc378daa952ba7f163c4a11628f55a4df523b3ef91015b60405180910390a35050565b60085460ff1615614b125760405162461bcd60e51b815260206004820152601060248201527f5061757361626c653a20706175736564000000000000000000000000000000006044820152606401610e6f565b601554614b1d613ada565b6000614b2761383e565b601380547fffffffffffffffffffffffffffffffffffffffffffffffffffffff00000000ff166101004263ffffffff1602179055600f80549192508291600090614b72908490615aeb565b909155505060408051838152602081018390527fd2297b31b9dc44ba485ec9ae19f75c6d336e647a6040455c7f4c429c1f9cf568910160405180910390a183614bbb8284615ad3565b614bc59190615ad3565b6015819055600254600f5460408051428152602081019390935282810193909352606082015260006080820181905291517f4fb2d60922d7d8a118698627d6cfb1801f77922fa7d6fc7a5c65b1084ec51ca69181900360a00190a250505050565b60085460ff1615614c795760405162461bcd60e51b815260206004820152601060248201527f5061757361626c653a20706175736564000000000000000000000000000000006044820152606401610e6f565b6008805460ff191660011790557f62e78cea01bee320cd4e420270b5ea74000d11b0c9f74754ebdbfc544b05a2586146f43390565b6000818310614cbe576000610d8c565b610d8c8383615aeb565b6000610d8c83670de0b6b3a76400008461381f565b604080518082019091526000808252602082015282516020840151600091614d09916132f29082615ad3565b8085529050614d188184615aeb565b6020850152509192915050565b825460018401546000919082614d3b8683615aeb565b9050614d47818461496f565b614d51838561496f565b614d5b9190615aeb565b935084841115614d97576040517f016a0d6800000000000000000000000000000000000000000000000000000000815260040160405180910390fd5b600190960195909555509392505050565b604080518082019091526000808252602082015282516020840151600091614dd4916132f29082615ad3565b90508084600001818151614de89190615aeb565b905250614df58184615aeb565b84602001818151614e069190615aeb565b905250929392505050565b33600090815260036020526040812080548391908390614e32908490615aeb565b90915550506001600160a01b038316600081815260036020526040908190208054850190555133907fddf252ad1be2c89b69c2b068fc378daa952ba7f163c4a11628f55a4df523b3ef90610dee9086815260200190565b6000614e9484610dff565b9050336001600160a01b03831614614f04576001600160a01b03821660009081526004602090815260408083203384529091529020546000198114614f0257614edd8282615aeb565b6001600160a01b03841660009081526004602090815260408083203384529091529020555b505b614f0e8482615443565b614f18828261553a565b60408051858152602081018390526001600160a01b03808516929086169133917ffbde797d201c681b91056529119e0b02407c7bb96a4a2c75c01fc9667232c8db910160405180910390a4610d8c6001600160a01b037f0000000000000000000000000000000000000000000000000000000000000000168486613dde565b6000336001600160a01b03831614615007576001600160a01b0382166000908152600460209081526040808320338452909152902054600019811461500557614fe08582615aeb565b6001600160a01b03841660009081526004602090815260408083203384529091529020555b505b615010846124ea565b9050806000036150625760405162461bcd60e51b815260206004820152600b60248201527f5a45524f5f4153534554530000000000000000000000000000000000000000006044820152606401610e6f565b61506c8185615443565b615076828561553a565b60408051828152602081018690526001600160a01b03808516929086169133917ffbde797d201c681b91056529119e0b02407c7bb96a4a2c75c01fc9667232c8db910160405180910390a4610d8c6001600160a01b037f0000000000000000000000000000000000000000000000000000000000000000168483613dde565b60006151046224ea0084615b93565b1561511157506001610d8c565b83831161512057506002610d8c565b61513060ff83166224ea00615c27565b63ffffffff166151436224ea0086615b93565b61514d9086615aeb565b6151579190615ad3565b83111561516657506004610d8c565b5060039392505050565b60007ffffffffffffffffffffffffffffffffffffffffffffffffdb731c958f34d94c182136151a157506000919050565b680755bf798b4a1bf1e582126151f95760405162461bcd60e51b815260206004820152600c60248201527f4558505f4f564552464c4f5700000000000000000000000000000000000000006044820152606401610e6f565b6503782dace9d9604e83901b059150600060606bb17217f7d1cf79abc9e3b39884821b056b80000000000000000000000001901d6bb17217f7d1cf79abc9e3b39881029093037fffffffffffffffffffffffffffffffffffffffdbf3ccf1604d263450f02a550481018102606090811d6d0277594991cfc85f6e2461837cd9018202811d7fffffffffffffffffffffffffffffffffffffe5adedaa1cb095af9e4da10e363c018202811d6db1bbb201f443cf962f1a1d3db4a5018202811d7ffffffffffffffffffffffffffffffffffffd38dc772608b0ae56cce01296c0eb018202811d6e05180bb14799ab47a8a8cb2a527d57016d02d16720577bd19bf614176fe9ea6c10fe68e7fd37d0007b713f765084018402831d9081019084017ffffffffffffffffffffffffffffffffffffffe2c69812cf03b0763fd454a8f7e010290911d6e0587f503bb6ea29d25fcb7401964500190910279d835ebba824c98fb31b83b2ca45c000000000000000000000000010574029d9dc38563c32e5c2f6dc192ee70ef65f9978af30260c3939093039290921c92915050565b60008183101561497e5781610d8c565b60008281526006602090815260408083206001600160a01b038516845290915290205460ff16611b40576153e3816001600160a01b031660146135f6565b6153ee8360206135f6565b6040516020016153ff929190615df6565b604080517fffffffffffffffffffffffffffffffffffffffffffffffffffffffffffffffe08184030181529082905262461bcd60e51b8252610e6f9160040161561c565b61544b613ada565b600061545561383e565b601380547fffffffffffffffffffffffffffffffffffffffffffffffffffffff00000000ff166101004263ffffffff1602179055600f805491925082916000906154a0908490615aeb565b909155505060155460408051828152602081018490527fd2297b31b9dc44ba485ec9ae19f75c6d336e647a6040455c7f4c429c1f9cf568910160405180910390a1836154ec8383615ad3565b6154f69190615aeb565b6015819055600e54909150811015613e83576040517f016a0d6800000000000000000000000000000000000000000000000000000000815260040160405180910390fd5b6001600160a01b03821660009081526003602052604081208054839290615562908490615aeb565b90915550506002805482900390556040518181526000906001600160a01b038416907fddf252ad1be2c89b69c2b068fc378daa952ba7f163c4a11628f55a4df523b3ef90602001614ab3565b6000602082840312156155c057600080fd5b81357fffffffff0000000000000000000000000000000000000000000000000000000081168114610d8c57600080fd5b60005b8381101561560b5781810151838201526020016155f3565b83811115613e835750506000910152565b602081526000825180602084015261563b8160408501602087016155f0565b601f017fffffffffffffffffffffffffffffffffffffffffffffffffffffffffffffffe0169190910160400192915050565b60006020828403121561567f57600080fd5b5035919050565b6001600160a01b0381168114611c8857600080fd5b600080604083850312156156ae57600080fd5b82356156b981615686565b946020939093013593505050565b600080600080600060a086880312156156df57600080fd5b85359450602086013593506040860135925060608601356156ff81615686565b9150608086013561570f81615686565b809150509295509295909350565b60008060006060848603121561573257600080fd5b833561573d81615686565b9250602084013561574d81615686565b929592945050506040919091013590565b803560ff8116811461576f57600080fd5b919050565b60006020828403121561578657600080fd5b610d8c8261575e565b600080604083850312156157a257600080fd5b8235915060208301356157b481615686565b809150509250929050565b600080600080608085870312156157d557600080fd5b84359350602085013592506040850135915060608501356157f581615686565b939692955090935050565b60006020828403121561581257600080fd5b8135610d8c81615686565b60006020828403121561582f57600080fd5b81356fffffffffffffffffffffffffffffffff81168114610d8c57600080fd5b60008060006060848603121561586457600080fd5b833561586f81615686565b925060208401359150604084013561588681615686565b809150509250925092565b7f4e487b7100000000000000000000000000000000000000000000000000000000600052604160045260246000fd5b6000604082840312156158d257600080fd5b6040516040810181811067ffffffffffffffff8211171561591c577f4e487b7100000000000000000000000000000000000000000000000000000000600052604160045260246000fd5b604052823581526020928301359281019290925250919050565b60008060006060848603121561594b57600080fd5b83359250602084013561595d81615686565b9150604084013561588681615686565b600080600080600080600060e0888a03121561598857600080fd5b873561599381615686565b965060208801356159a381615686565b955060408801359450606088013593506159bf6080890161575e565b925060a0880135915060c0880135905092959891949750929550565b600080604083850312156159ee57600080fd5b82356159f981615686565b915060208301356157b481615686565b7f4e487b7100000000000000000000000000000000000000000000000000000000600052601260045260246000fd5b600181811c90821680615a4c57607f821691505b602082108103615a85577f4e487b7100000000000000000000000000000000000000000000000000000000600052602260045260246000fd5b50919050565b600060208284031215615a9d57600080fd5b5051919050565b7f4e487b7100000000000000000000000000000000000000000000000000000000600052601160045260246000fd5b60008219821115615ae657615ae6615aa4565b500190565b600082821015615afd57615afd615aa4565b500390565b60006fffffffffffffffffffffffffffffffff83811690831681811015615b2b57615b2b615aa4565b039392505050565b60008060408385031215615b4657600080fd5b505080516020909101519092909150565b8051801515811461576f57600080fd5b60008060408385031215615b7a57600080fd5b82519150615b8a60208401615b57565b90509250929050565b600082615ba257615ba2615a09565b500690565b6000816000190483118215151615615bc157615bc1615aa4565b500290565b600060208284031215615bd857600080fd5b610d8c82615b57565b7f4e487b7100000000000000000000000000000000000000000000000000000000600052603260045260246000fd5b600081615c1f57615c1f615aa4565b506000190190565b600063ffffffff80831681851681830481118215151615615c4a57615c4a615aa4565b02949350505050565b7f4e487b7100000000000000000000000000000000000000000000000000000000600052602160045260246000fd5b60007f80000000000000000000000000000000000000000000000000000000000000008203615cb357615cb3615aa4565b5060000390565b6000808312837f800000000000000000000000000000000000000000000000000000000000000001831281151615615cf457615cf4615aa4565b837f7fffffffffffffffffffffffffffffffffffffffffffffffffffffffffffffff018313811615615d2857615d28615aa4565b50500390565b600082615d3d57615d3d615a09565b500490565b600080835481600182811c915080831680615d5e57607f831692505b60208084108203615d96577f4e487b710000000000000000000000000000000000000000000000000000000086526022600452602486fd5b818015615daa5760018114615dbb57615de8565b60ff19861689528489019650615de8565b60008a81526020902060005b86811015615de05781548b820152908501908301615dc7565b505084890196505b509498975050505050505050565b7f416363657373436f6e74726f6c3a206163636f756e7420000000000000000000815260008351615e2e8160178501602088016155f0565b7f206973206d697373696e6720726f6c65200000000000000000000000000000006017918401918201528351615e6b8160288401602088016155f0565b0160280194935050505056fea26469706673582212203ec67802e35be4f9038ee7ffe8cf7f4a3d0e84a5ed4452c5f67bef37597587d464736f6c634300080d0033",
  "devdoc": {
    "events": {
      "AccumulatedEarningsSmoothFactorSet(uint128)": {
        "params": {
          "newAccumulatedEarningsSmoothFactor": "factor represented with 1e18 decimals."
        }
      },
      "AssetSeized(address,address,uint256)": {
        "params": {
          "assets": "amount seized of the collateral.",
          "borrower": "address which had the original debt.",
          "liquidator": "address which seized this collateral."
        }
      },
      "BorrowAtMaturity(uint256,address,address,address,uint256,uint256)": {
        "params": {
          "assets": "amount of the asset that were borrowed.",
          "borrower": "address which will be repaying the borrowed assets.",
          "caller": "address which borrowed the asset.",
          "fee": "extra amount that will need to be paid at maturity.",
          "maturity": "maturity in which the user will have to repay the loan.",
          "receiver": "address that received the borrowed assets."
        }
      },
      "DampSpeedSet(uint256,uint256)": {
        "params": {
          "newDampSpeedDown": "represented with 1e18 decimals.",
          "newDampSpeedUp": "represented with 1e18 decimals."
        }
      },
      "DepositAtMaturity(uint256,address,address,uint256,uint256)": {
        "params": {
          "assets": "amount of the asset that were deposited.",
          "caller": "address which deposited the assets.",
          "fee": "is the extra amount that it will be collected at maturity.",
          "maturity": "maturity at which the user will be able to collect his deposit + his fee.",
          "owner": "address that will be able to withdraw the deposited assets."
        }
      },
      "InterestRateModelSet(address)": {
        "params": {
          "newInterestRateModel": "new interest rate model to be used to calculate rates."
        }
      },
      "LiquidateBorrow(address,address,uint256,uint256,address,uint256)": {
        "params": {
          "assets": "amount of the asset that were repaid.",
          "borrower": "address which had the original debt.",
          "collateralMarket": "address of the asset that were seized by the liquidator.",
          "lendersAssets": "incentive paid to lenders.",
          "receiver": "address which repaid the previously borrowed amount.",
          "seizedAssets": "amount seized of the collateral."
        }
      },
      "MaxFuturePoolsSet(uint256)": {
        "params": {
          "newMaxFuturePools": "represented with 0 decimals."
        }
      },
      "PenaltyRateSet(uint256)": {
        "params": {
          "newPenaltyRate": "penaltyRate percentage per second represented with 1e18 decimals."
        }
      },
      "RepayAtMaturity(uint256,address,address,uint256,uint256)": {
        "params": {
          "assets": "amount that was repaid.",
          "borrower": "address which had the original debt.",
          "caller": "address which repaid the previously borrowed amount.",
          "maturity": "maturity where the user repaid its borrowed amounts.",
          "positionAssets": "amount of the debt that was covered in this repayment (penalties could have been repaid)."
        }
      },
      "SmartPoolEarningsAccrued(uint256,uint256)": {
        "params": {
          "earnings": "new smart pool earnings, denominated in assets (underlying).",
          "previousAssets": "previous balance of the smart pool, denominated in assets (underlying)."
        }
      },
      "SmartPoolReserveFactorSet(uint128)": {
        "params": {
          "newSmartPoolReserveFactor": "smartPoolReserveFactor percentage."
        }
      },
      "WithdrawAtMaturity(uint256,address,address,address,uint256,uint256)": {
        "params": {
          "assets": "amount of the asset that were withdrawn.",
          "assetsDiscounted": "amount of the asset that were deposited (in case of early withdrawal).",
          "caller": "address which withdraw the asset.",
          "maturity": "maturity where the user withdraw its deposits.",
          "owner": "address which had the assets withdrawn.",
          "receiver": "address which will be collecting the assets."
        }
      }
    },
    "kind": "dev",
    "methods": {
      "borrowAtMaturity(uint256,uint256,uint256,address,address)": {
        "details": "Borrows a certain amount from a maturity date.",
        "params": {
          "assets": "amount to send to borrower.",
          "borrower": "address that will repay the borrowed assets.",
          "maturity": "maturity date for repayment.",
          "maxAssets": "maximum amount of debt that the user is willing to accept.",
          "receiver": "address that will receive the borrowed assets."
        }
      },
      "depositAtMaturity(uint256,uint256,uint256,address)": {
        "params": {
          "assets": "amount to receive from the msg.sender.",
          "maturity": "maturity date / pool ID.",
          "minAssetsRequired": "minimum amount of assets required by the depositor for the transaction to be accepted.",
          "receiver": "address that will be able to withdraw the deposited assets."
        },
        "returns": {
          "positionAssets": "total amount of assets (principal + fee) to be withdrawn at maturity."
        }
      },
      "getAccountSnapshot(address)": {
        "params": {
          "account": "account to return status snapshot in the specified maturity date."
        },
        "returns": {
          "_0": "the amount the user deposited to the smart pool and the total money he owes from maturities."
        }
      },
      "getDebt(address)": {
        "details": "Gets all borrows and penalties for an account.",
        "params": {
          "account": "account to return status snapshot in the specified maturity date."
        },
        "returns": {
          "debt": "the total debt, denominated in number of tokens."
        }
      },
      "getRoleAdmin(bytes32)": {
        "details": "Returns the admin role that controls `role`. See {grantRole} and {revokeRole}. To change a role's admin, use {_setRoleAdmin}."
      },
      "grantRole(bytes32,address)": {
        "details": "Grants `role` to `account`. If `account` had not been already granted `role`, emits a {RoleGranted} event. Requirements: - the caller must have ``role``'s admin role."
      },
      "hasRole(bytes32,address)": {
        "details": "Returns `true` if `account` has been granted `role`."
      },
      "liquidate(address,uint256,address)": {
        "details": "Msg.sender liquidates borrower's position(s) and repays a certain amount of debt for multiple maturities, seizing a part of borrower's collateral.",
        "params": {
          "borrower": "wallet that has an outstanding debt across all maturities.",
          "collateralMarket": "fixedLender from which the collateral will be seized to give the liquidator.",
          "maxAssets": "maximum amount of debt that the liquidator is willing to accept. (it can be less)"
        }
      },
      "paused()": {
        "details": "Returns true if the contract is paused, and false otherwise."
      },
      "redeem(uint256,address,address)": {
        "details": "Makes sure that the owner doesn't have shortfall after withdrawing.",
        "params": {
          "owner": "address which owns the smart pool assets.",
          "receiver": "address to which the assets will be transferred.",
          "shares": "amount of shares to be redeemed for underlying asset."
        }
      },
      "renounceRole(bytes32,address)": {
        "details": "Revokes `role` from the calling account. Roles are often managed via {grantRole} and {revokeRole}: this function's purpose is to provide a mechanism for accounts to lose their privileges if they are compromised (such as when a trusted device is misplaced). If the calling account had been revoked `role`, emits a {RoleRevoked} event. Requirements: - the caller must be `account`."
      },
      "repayAtMaturity(uint256,uint256,uint256,address)": {
        "params": {
          "borrower": "address of the account that has the debt.",
          "maturity": "maturity date where the assets will be repaid.",
          "maxAssets": "maximum amount of debt that the user is willing to accept to be repaid.",
          "positionAssets": "amount to be paid for the borrower's debt."
        },
        "returns": {
          "actualRepayAssets": "the actual amount that was transferred into the protocol."
        }
      },
      "revokeRole(bytes32,address)": {
        "details": "Revokes `role` from `account`. If `account` had been granted `role`, emits a {RoleRevoked} event. Requirements: - the caller must have ``role``'s admin role."
      },
      "seize(address,address,uint256)": {
        "details": "Public function for liquidator to seize borrowers tokens in the smart pool. This function will only be called from another FixedLender, on `liquidation` calls. That's why msg.sender needs to be passed to the private function (to be validated as a market)",
        "params": {
          "assets": "amount to be removed from borrower's possession.",
          "borrower": "address from which the tokens will be seized.",
          "liquidator": "address which will receive the seized tokens."
        }
      },
      "setAccumulatedEarningsSmoothFactor(uint128)": {
        "details": "Value can only be lower than 4. If set at 0, then all remaining accumulated earnings are distributed in following operation to the smart pool.",
        "params": {
          "accumulatedEarningsSmoothFactor_": "represented with 18 decimals."
        }
      },
      "setDampSpeed((uint256,uint256))": {
        "details": "Values can only be set between 0 and 100%.",
        "params": {
          "dampSpeed": "represented with 18 decimals."
        }
      },
      "setInterestRateModel(address)": {
        "params": {
          "interestRateModel_": "new interest rate model."
        }
      },
      "setMaxFuturePools(uint8)": {
        "details": "Value can not be 0 or higher than 224. Value shouldn't be lower than previous value or VALID maturities will become NOT_READY.",
        "params": {
          "futurePools": "number of pools to be active at the same time."
        }
      },
      "setPenaltyRate(uint256)": {
        "details": "Value can only be set approximately between 5% and 1% daily.",
        "params": {
          "penaltyRate_": "percentage represented with 18 decimals."
        }
      },
      "setSmartPoolReserveFactor(uint128)": {
        "details": "Value can only be set between 20% and 0%.",
        "params": {
          "smartPoolReserveFactor_": "parameter represented with 18 decimals."
        }
      },
      "supportsInterface(bytes4)": {
        "details": "See {IERC165-supportsInterface}."
      },
      "totalAssets()": {
        "returns": {
          "_0": "actual smartPoolAssets plus earnings to be accrued at current timestamp."
        }
      },
      "transfer(address,uint256)": {
        "details": "It's expected that this function can't be paused to prevent freezing user funds. Makes sure that the caller doesn't have shortfall after transferring.",
        "params": {
          "shares": "amount of tokens.",
          "to": "address to which the tokens will be transferred."
        }
      },
      "transferFrom(address,address,uint256)": {
        "details": "It's expected that this function can't be paused to prevent freezing user funds. Makes sure that `from` address doesn't have shortfall after transferring.",
        "params": {
          "from": "address from which the tokens will be transferred.",
          "shares": "amount of tokens.",
          "to": "address to which the tokens will be transferred."
        }
      },
      "withdraw(uint256,address,address)": {
        "details": "Makes sure that the owner doesn't have shortfall after withdrawing.",
        "params": {
          "assets": "amount of underlying to be withdrawn.",
          "owner": "address which owns the smart pool assets.",
          "receiver": "address to which the assets will be transferred."
        }
      },
      "withdrawAtMaturity(uint256,uint256,uint256,address,address)": {
        "details": "It's expected that this function can't be paused to prevent freezing user funds.",
        "params": {
          "maturity": "maturity date where the assets will be withdrawn.",
          "minAssetsRequired": "minimum amount required by the user (if discount included for early withdrawal).",
          "owner": "address that previously deposited the assets.",
          "positionAssets": "the amount of assets (principal + fee) to be withdrawn.",
          "receiver": "address that will receive the withdrawn assets."
        },
        "returns": {
          "assetsDiscounted": "amount of assets withdrawn (can include a discount for early withdraw)."
        }
      }
    },
    "version": 1
  },
  "userdoc": {
    "events": {
      "AccumulatedEarningsSmoothFactorSet(uint128)": {
        "notice": "Event emitted when the accumulatedEarningsSmoothFactor is changed by admin."
      },
      "AssetSeized(address,address,uint256)": {
        "notice": "Event emitted when a user's collateral has been seized."
      },
      "BorrowAtMaturity(uint256,address,address,address,uint256,uint256)": {
        "notice": "Event emitted when a user borrows amount of an asset from a certain maturity date."
      },
      "DampSpeedSet(uint256,uint256)": {
        "notice": "emitted when the damp speeds are changed by admin."
      },
      "DepositAtMaturity(uint256,address,address,uint256,uint256)": {
        "notice": "Event emitted when a user deposits an amount of an asset to a certain fixed rate pool collecting a fee at the end of the period."
      },
      "InterestRateModelSet(address)": {
        "notice": "emitted when the interestRateModel is changed by admin."
      },
      "LiquidateBorrow(address,address,uint256,uint256,address,uint256)": {
        "notice": "Event emitted when a user's position had a liquidation."
      },
      "MaxFuturePoolsSet(uint256)": {
        "notice": "Event emitted when the maxFuturePools is changed by admin."
      },
      "PenaltyRateSet(uint256)": {
        "notice": "emitted when the penaltyRate is changed by admin."
      },
      "RepayAtMaturity(uint256,address,address,uint256,uint256)": {
        "notice": "Event emitted when a user repays its borrows after maturity."
      },
      "SmartPoolEarningsAccrued(uint256,uint256)": {
        "notice": "Event emitted when earnings are accrued to the smart pool."
      },
      "SmartPoolReserveFactorSet(uint128)": {
        "notice": "emitted when the smartPoolReserveFactor is changed by admin."
      },
      "WithdrawAtMaturity(uint256,address,address,address,uint256,uint256)": {
        "notice": "Event emitted when a user withdraws from a fixed rate pool."
      }
    },
    "kind": "user",
    "methods": {
      "depositAtMaturity(uint256,uint256,uint256,address)": {
        "notice": "Deposits a certain amount to a maturity."
      },
      "getAccountSnapshot(address)": {
        "notice": "Gets current snapshot for an account across all maturities."
      },
      "liquidate(address,uint256,address)": {
        "notice": "Liquidates undercollateralized position(s)."
      },
      "pause()": {
        "notice": "Sets the _pause state to true in case of emergency, triggered by an authorized account."
      },
      "redeem(uint256,address,address)": {
        "notice": "Redeems the owner's smart pool assets to the receiver address."
      },
      "repayAtMaturity(uint256,uint256,uint256,address)": {
        "notice": "Repays a certain amount to a maturity."
      },
      "seize(address,address,uint256)": {
        "notice": "Public function to seize a certain amount of tokens."
      },
      "setAccumulatedEarningsSmoothFactor(uint128)": {
        "notice": "Sets the factor used when smoothly accruing earnings to the smart pool."
      },
      "setDampSpeed((uint256,uint256))": {
        "notice": "Sets the damp speed used to update the smartPoolAssetsAverage."
      },
      "setInterestRateModel(address)": {
        "notice": "Sets the interest rate model to be used to calculate rates."
      },
      "setMaxFuturePools(uint8)": {
        "notice": "Sets the protocol's max future pools for borrowing and lending."
      },
      "setPenaltyRate(uint256)": {
        "notice": "Sets the penalty rate per second."
      },
      "setSmartPoolReserveFactor(uint128)": {
        "notice": "Sets the percentage that represents the smart pool liquidity reserves that can't be borrowed."
      },
      "totalAssets()": {
        "notice": "Calculates the smart pool balance plus earnings to be accrued at current timestamp from maturities and accumulator."
      },
      "transfer(address,uint256)": {
        "notice": "Moves amount of shares from the caller's account to `to`."
      },
      "transferFrom(address,address,uint256)": {
        "notice": "Moves amount of shares from `from` to `to` using the allowance mechanism."
      },
      "unpause()": {
        "notice": "Sets the _pause state to false when threat is gone, triggered by an authorized account."
      },
      "withdraw(uint256,address,address)": {
        "notice": "Withdraws the owner's smart pool assets to the receiver address."
      },
      "withdrawAtMaturity(uint256,uint256,uint256,address,address)": {
        "notice": "Withdraws a certain amount from a maturity."
      }
    },
    "version": 1
  },
  "storageLayout": {
    "storage": [
      {
        "astId": 2477,
        "contract": "contracts/FixedLender.sol:FixedLender",
        "label": "name",
        "offset": 0,
        "slot": "0",
        "type": "t_string_storage"
      },
      {
        "astId": 2479,
        "contract": "contracts/FixedLender.sol:FixedLender",
        "label": "symbol",
        "offset": 0,
        "slot": "1",
        "type": "t_string_storage"
      },
      {
        "astId": 2483,
        "contract": "contracts/FixedLender.sol:FixedLender",
        "label": "totalSupply",
        "offset": 0,
        "slot": "2",
        "type": "t_uint256"
      },
      {
        "astId": 2487,
        "contract": "contracts/FixedLender.sol:FixedLender",
        "label": "balanceOf",
        "offset": 0,
        "slot": "3",
        "type": "t_mapping(t_address,t_uint256)"
      },
      {
        "astId": 2493,
        "contract": "contracts/FixedLender.sol:FixedLender",
        "label": "allowance",
        "offset": 0,
        "slot": "4",
        "type": "t_mapping(t_address,t_mapping(t_address,t_uint256))"
      },
      {
        "astId": 2501,
        "contract": "contracts/FixedLender.sol:FixedLender",
        "label": "nonces",
        "offset": 0,
        "slot": "5",
        "type": "t_mapping(t_address,t_uint256)"
      },
      {
        "astId": 127,
        "contract": "contracts/FixedLender.sol:FixedLender",
        "label": "_roles",
        "offset": 0,
        "slot": "6",
        "type": "t_mapping(t_bytes32,t_struct(RoleData)122_storage)"
      },
      {
        "astId": 3508,
        "contract": "contracts/FixedLender.sol:FixedLender",
        "label": "locked",
        "offset": 0,
        "slot": "7",
        "type": "t_uint256"
      },
      {
        "astId": 1405,
        "contract": "contracts/FixedLender.sol:FixedLender",
        "label": "_paused",
        "offset": 0,
        "slot": "8",
        "type": "t_bool"
      },
      {
        "astId": 5055,
        "contract": "contracts/FixedLender.sol:FixedLender",
        "label": "fixedDepositPositions",
        "offset": 0,
        "slot": "9",
        "type": "t_mapping(t_uint256,t_mapping(t_address,t_struct(Position)10084_storage))"
      },
      {
        "astId": 5062,
        "contract": "contracts/FixedLender.sol:FixedLender",
        "label": "fixedBorrowPositions",
        "offset": 0,
        "slot": "10",
        "type": "t_mapping(t_uint256,t_mapping(t_address,t_struct(Position)10084_storage))"
      },
      {
        "astId": 5066,
        "contract": "contracts/FixedLender.sol:FixedLender",
        "label": "fixedBorrows",
        "offset": 0,
        "slot": "11",
        "type": "t_mapping(t_address,t_uint256)"
      },
      {
        "astId": 5070,
        "contract": "contracts/FixedLender.sol:FixedLender",
        "label": "fixedDeposits",
        "offset": 0,
        "slot": "12",
        "type": "t_mapping(t_address,t_uint256)"
      },
      {
        "astId": 5075,
        "contract": "contracts/FixedLender.sol:FixedLender",
        "label": "fixedPools",
        "offset": 0,
        "slot": "13",
        "type": "t_mapping(t_uint256,t_struct(FixedPool)10079_storage)"
      },
      {
        "astId": 5077,
        "contract": "contracts/FixedLender.sol:FixedLender",
        "label": "smartPoolBorrowed",
        "offset": 0,
        "slot": "14",
        "type": "t_uint256"
      },
      {
        "astId": 5079,
        "contract": "contracts/FixedLender.sol:FixedLender",
        "label": "smartPoolEarningsAccumulator",
        "offset": 0,
        "slot": "15",
        "type": "t_uint256"
      },
      {
        "astId": 5081,
        "contract": "contracts/FixedLender.sol:FixedLender",
        "label": "penaltyRate",
        "offset": 0,
        "slot": "16",
        "type": "t_uint256"
      },
      {
        "astId": 5083,
        "contract": "contracts/FixedLender.sol:FixedLender",
        "label": "dampSpeedUp",
        "offset": 0,
        "slot": "17",
        "type": "t_uint256"
      },
      {
        "astId": 5085,
        "contract": "contracts/FixedLender.sol:FixedLender",
        "label": "dampSpeedDown",
        "offset": 0,
        "slot": "18",
        "type": "t_uint256"
      },
      {
        "astId": 5087,
        "contract": "contracts/FixedLender.sol:FixedLender",
        "label": "maxFuturePools",
        "offset": 0,
        "slot": "19",
        "type": "t_uint8"
      },
      {
        "astId": 5089,
        "contract": "contracts/FixedLender.sol:FixedLender",
        "label": "lastAccumulatedEarningsAccrual",
        "offset": 1,
        "slot": "19",
        "type": "t_uint32"
      },
      {
        "astId": 5091,
        "contract": "contracts/FixedLender.sol:FixedLender",
        "label": "lastAverageUpdate",
        "offset": 5,
        "slot": "19",
        "type": "t_uint32"
      },
      {
        "astId": 5094,
        "contract": "contracts/FixedLender.sol:FixedLender",
        "label": "interestRateModel",
        "offset": 9,
        "slot": "19",
        "type": "t_contract(InterestRateModel)8373"
      },
      {
        "astId": 5099,
        "contract": "contracts/FixedLender.sol:FixedLender",
        "label": "accumulatedEarningsSmoothFactor",
        "offset": 0,
        "slot": "20",
        "type": "t_uint128"
      },
      {
        "astId": 5101,
        "contract": "contracts/FixedLender.sol:FixedLender",
        "label": "smartPoolReserveFactor",
        "offset": 16,
        "slot": "20",
        "type": "t_uint128"
      },
      {
        "astId": 5103,
        "contract": "contracts/FixedLender.sol:FixedLender",
        "label": "smartPoolAssets",
        "offset": 0,
        "slot": "21",
        "type": "t_uint256"
      },
      {
        "astId": 5105,
        "contract": "contracts/FixedLender.sol:FixedLender",
        "label": "smartPoolAssetsAverage",
        "offset": 0,
        "slot": "22",
        "type": "t_uint256"
      }
    ],
    "types": {
      "t_address": {
        "encoding": "inplace",
        "label": "address",
        "numberOfBytes": "20"
      },
      "t_bool": {
        "encoding": "inplace",
        "label": "bool",
        "numberOfBytes": "1"
      },
      "t_bytes32": {
        "encoding": "inplace",
        "label": "bytes32",
        "numberOfBytes": "32"
      },
      "t_contract(InterestRateModel)8373": {
        "encoding": "inplace",
        "label": "contract InterestRateModel",
        "numberOfBytes": "20"
      },
      "t_mapping(t_address,t_bool)": {
        "encoding": "mapping",
        "key": "t_address",
        "label": "mapping(address => bool)",
        "numberOfBytes": "32",
        "value": "t_bool"
      },
      "t_mapping(t_address,t_mapping(t_address,t_uint256))": {
        "encoding": "mapping",
        "key": "t_address",
        "label": "mapping(address => mapping(address => uint256))",
        "numberOfBytes": "32",
        "value": "t_mapping(t_address,t_uint256)"
      },
      "t_mapping(t_address,t_struct(Position)10084_storage)": {
        "encoding": "mapping",
        "key": "t_address",
        "label": "mapping(address => struct PoolLib.Position)",
        "numberOfBytes": "32",
        "value": "t_struct(Position)10084_storage"
      },
      "t_mapping(t_address,t_uint256)": {
        "encoding": "mapping",
        "key": "t_address",
        "label": "mapping(address => uint256)",
        "numberOfBytes": "32",
        "value": "t_uint256"
      },
      "t_mapping(t_bytes32,t_struct(RoleData)122_storage)": {
        "encoding": "mapping",
        "key": "t_bytes32",
        "label": "mapping(bytes32 => struct AccessControl.RoleData)",
        "numberOfBytes": "32",
        "value": "t_struct(RoleData)122_storage"
      },
      "t_mapping(t_uint256,t_mapping(t_address,t_struct(Position)10084_storage))": {
        "encoding": "mapping",
        "key": "t_uint256",
        "label": "mapping(uint256 => mapping(address => struct PoolLib.Position))",
        "numberOfBytes": "32",
        "value": "t_mapping(t_address,t_struct(Position)10084_storage)"
      },
      "t_mapping(t_uint256,t_struct(FixedPool)10079_storage)": {
        "encoding": "mapping",
        "key": "t_uint256",
        "label": "mapping(uint256 => struct PoolLib.FixedPool)",
        "numberOfBytes": "32",
        "value": "t_struct(FixedPool)10079_storage"
      },
      "t_string_storage": {
        "encoding": "bytes",
        "label": "string",
        "numberOfBytes": "32"
      },
      "t_struct(FixedPool)10079_storage": {
        "encoding": "inplace",
        "label": "struct PoolLib.FixedPool",
        "members": [
          {
            "astId": 10072,
            "contract": "contracts/FixedLender.sol:FixedLender",
            "label": "borrowed",
            "offset": 0,
            "slot": "0",
            "type": "t_uint256"
          },
          {
            "astId": 10074,
            "contract": "contracts/FixedLender.sol:FixedLender",
            "label": "supplied",
            "offset": 0,
            "slot": "1",
            "type": "t_uint256"
          },
          {
            "astId": 10076,
            "contract": "contracts/FixedLender.sol:FixedLender",
            "label": "earningsUnassigned",
            "offset": 0,
            "slot": "2",
            "type": "t_uint256"
          },
          {
            "astId": 10078,
            "contract": "contracts/FixedLender.sol:FixedLender",
            "label": "lastAccrual",
            "offset": 0,
            "slot": "3",
            "type": "t_uint256"
          }
        ],
        "numberOfBytes": "128"
      },
      "t_struct(Position)10084_storage": {
        "encoding": "inplace",
        "label": "struct PoolLib.Position",
        "members": [
          {
            "astId": 10081,
            "contract": "contracts/FixedLender.sol:FixedLender",
            "label": "principal",
            "offset": 0,
            "slot": "0",
            "type": "t_uint256"
          },
          {
            "astId": 10083,
            "contract": "contracts/FixedLender.sol:FixedLender",
            "label": "fee",
            "offset": 0,
            "slot": "1",
            "type": "t_uint256"
          }
        ],
        "numberOfBytes": "64"
      },
      "t_struct(RoleData)122_storage": {
        "encoding": "inplace",
        "label": "struct AccessControl.RoleData",
        "members": [
          {
            "astId": 119,
            "contract": "contracts/FixedLender.sol:FixedLender",
            "label": "members",
            "offset": 0,
            "slot": "0",
            "type": "t_mapping(t_address,t_bool)"
          },
          {
            "astId": 121,
            "contract": "contracts/FixedLender.sol:FixedLender",
            "label": "adminRole",
            "offset": 0,
            "slot": "1",
            "type": "t_bytes32"
          }
        ],
        "numberOfBytes": "64"
      },
      "t_uint128": {
        "encoding": "inplace",
        "label": "uint128",
        "numberOfBytes": "16"
      },
      "t_uint256": {
        "encoding": "inplace",
        "label": "uint256",
        "numberOfBytes": "32"
      },
      "t_uint32": {
        "encoding": "inplace",
        "label": "uint32",
        "numberOfBytes": "4"
      },
      "t_uint8": {
        "encoding": "inplace",
        "label": "uint8",
        "numberOfBytes": "1"
      }
    }
  }
}