{
  "address": "0xeC00E4A3f1c170E57f0261632c139f8330BAfbA3",
  "abi": [
    {
      "inputs": [
        {
          "internalType": "uint256",
          "name": "curveParameterA_",
          "type": "uint256"
        },
        {
          "internalType": "int256",
          "name": "curveParameterB_",
          "type": "int256"
        },
        {
          "internalType": "uint256",
          "name": "maxUtilization_",
          "type": "uint256"
        },
        {
          "internalType": "uint256",
          "name": "fullUtilization_",
          "type": "uint256"
        },
        {
          "internalType": "uint256",
          "name": "spFeeRate_",
          "type": "uint256"
        }
      ],
      "stateMutability": "nonpayable",
      "type": "constructor"
    },
    {
      "inputs": [],
      "name": "AlreadyMatured",
      "type": "error"
    },
    {
      "inputs": [],
      "name": "InvalidParameter",
      "type": "error"
    },
    {
      "inputs": [],
      "name": "UtilizationExceeded",
      "type": "error"
    },
    {
      "anonymous": false,
      "inputs": [
        {
          "indexed": false,
          "internalType": "uint256",
          "name": "a",
          "type": "uint256"
        },
        {
          "indexed": false,
          "internalType": "int256",
          "name": "b",
          "type": "int256"
        },
        {
          "indexed": false,
          "internalType": "uint256",
          "name": "maxUtilization",
          "type": "uint256"
        },
        {
          "indexed": false,
          "internalType": "uint256",
          "name": "fullUtilization",
          "type": "uint256"
        }
      ],
      "name": "CurveParametersSet",
      "type": "event"
    },
    {
      "anonymous": false,
      "inputs": [
        {
          "indexed": true,
          "internalType": "bytes32",
          "name": "role",
          "type": "bytes32"
        },
        {
          "indexed": true,
          "internalType": "bytes32",
          "name": "previousAdminRole",
          "type": "bytes32"
        },
        {
          "indexed": true,
          "internalType": "bytes32",
          "name": "newAdminRole",
          "type": "bytes32"
        }
      ],
      "name": "RoleAdminChanged",
      "type": "event"
    },
    {
      "anonymous": false,
      "inputs": [
        {
          "indexed": true,
          "internalType": "bytes32",
          "name": "role",
          "type": "bytes32"
        },
        {
          "indexed": true,
          "internalType": "address",
          "name": "account",
          "type": "address"
        },
        {
          "indexed": true,
          "internalType": "address",
          "name": "sender",
          "type": "address"
        }
      ],
      "name": "RoleGranted",
      "type": "event"
    },
    {
      "anonymous": false,
      "inputs": [
        {
          "indexed": true,
          "internalType": "bytes32",
          "name": "role",
          "type": "bytes32"
        },
        {
          "indexed": true,
          "internalType": "address",
          "name": "account",
          "type": "address"
        },
        {
          "indexed": true,
          "internalType": "address",
          "name": "sender",
          "type": "address"
        }
      ],
      "name": "RoleRevoked",
      "type": "event"
    },
    {
      "anonymous": false,
      "inputs": [
        {
          "indexed": false,
          "internalType": "uint256",
          "name": "spFeeRate",
          "type": "uint256"
        }
      ],
      "name": "SpFeeRateSet",
      "type": "event"
    },
    {
      "inputs": [],
      "name": "DEFAULT_ADMIN_ROLE",
      "outputs": [
        {
          "internalType": "bytes32",
          "name": "",
          "type": "bytes32"
        }
      ],
      "stateMutability": "view",
      "type": "function"
    },
    {
      "inputs": [],
      "name": "curveParameterA",
      "outputs": [
        {
          "internalType": "uint256",
          "name": "",
          "type": "uint256"
        }
      ],
      "stateMutability": "view",
      "type": "function"
    },
    {
      "inputs": [],
      "name": "curveParameterB",
      "outputs": [
        {
          "internalType": "int256",
          "name": "",
          "type": "int256"
        }
      ],
      "stateMutability": "view",
      "type": "function"
    },
    {
      "inputs": [],
      "name": "fullUtilization",
      "outputs": [
        {
          "internalType": "uint256",
          "name": "",
          "type": "uint256"
        }
      ],
      "stateMutability": "view",
      "type": "function"
    },
    {
      "inputs": [],
      "name": "getCurveParameters",
      "outputs": [
        {
          "internalType": "uint256",
          "name": "",
          "type": "uint256"
        },
        {
          "internalType": "int256",
          "name": "",
          "type": "int256"
        },
        {
          "internalType": "uint256",
          "name": "",
          "type": "uint256"
        },
        {
          "internalType": "uint256",
          "name": "",
          "type": "uint256"
        }
      ],
      "stateMutability": "view",
      "type": "function"
    },
    {
      "inputs": [
        {
          "internalType": "uint256",
          "name": "maturity",
          "type": "uint256"
        },
        {
          "internalType": "uint256",
          "name": "currentDate",
          "type": "uint256"
        },
        {
          "internalType": "uint256",
          "name": "amount",
          "type": "uint256"
        },
        {
          "internalType": "uint256",
          "name": "borrowedMP",
          "type": "uint256"
        },
        {
          "internalType": "uint256",
          "name": "suppliedMP",
          "type": "uint256"
        },
        {
          "internalType": "uint256",
          "name": "smartPoolAssetsAverage",
          "type": "uint256"
        }
      ],
      "name": "getRateToBorrow",
      "outputs": [
        {
          "internalType": "uint256",
          "name": "",
          "type": "uint256"
        }
      ],
      "stateMutability": "view",
      "type": "function"
    },
    {
      "inputs": [
        {
          "internalType": "bytes32",
          "name": "role",
          "type": "bytes32"
        }
      ],
      "name": "getRoleAdmin",
      "outputs": [
        {
          "internalType": "bytes32",
          "name": "",
          "type": "bytes32"
        }
      ],
      "stateMutability": "view",
      "type": "function"
    },
    {
      "inputs": [
        {
          "internalType": "uint256",
          "name": "suppliedSP",
          "type": "uint256"
        },
        {
          "internalType": "uint256",
          "name": "unassignedEarnings",
          "type": "uint256"
        },
        {
          "internalType": "uint256",
          "name": "amount",
          "type": "uint256"
        }
      ],
      "name": "getYieldForDeposit",
      "outputs": [
        {
          "internalType": "uint256",
          "name": "earningsShare",
          "type": "uint256"
        },
        {
          "internalType": "uint256",
          "name": "earningsShareSP",
          "type": "uint256"
        }
      ],
      "stateMutability": "view",
      "type": "function"
    },
    {
      "inputs": [
        {
          "internalType": "bytes32",
          "name": "role",
          "type": "bytes32"
        },
        {
          "internalType": "address",
          "name": "account",
          "type": "address"
        }
      ],
      "name": "grantRole",
      "outputs": [],
      "stateMutability": "nonpayable",
      "type": "function"
    },
    {
      "inputs": [
        {
          "internalType": "bytes32",
          "name": "role",
          "type": "bytes32"
        },
        {
          "internalType": "address",
          "name": "account",
          "type": "address"
        }
      ],
      "name": "hasRole",
      "outputs": [
        {
          "internalType": "bool",
          "name": "",
          "type": "bool"
        }
      ],
      "stateMutability": "view",
      "type": "function"
    },
    {
      "inputs": [],
      "name": "maxUtilization",
      "outputs": [
        {
          "internalType": "uint256",
          "name": "",
          "type": "uint256"
        }
      ],
      "stateMutability": "view",
      "type": "function"
    },
    {
      "inputs": [
        {
          "internalType": "bytes32",
          "name": "role",
          "type": "bytes32"
        },
        {
          "internalType": "address",
          "name": "account",
          "type": "address"
        }
      ],
      "name": "renounceRole",
      "outputs": [],
      "stateMutability": "nonpayable",
      "type": "function"
    },
    {
      "inputs": [
        {
          "internalType": "bytes32",
          "name": "role",
          "type": "bytes32"
        },
        {
          "internalType": "address",
          "name": "account",
          "type": "address"
        }
      ],
      "name": "revokeRole",
      "outputs": [],
      "stateMutability": "nonpayable",
      "type": "function"
    },
    {
      "inputs": [
        {
          "internalType": "uint256",
          "name": "curveParameterA_",
          "type": "uint256"
        },
        {
          "internalType": "int256",
          "name": "curveParameterB_",
          "type": "int256"
        },
        {
          "internalType": "uint256",
          "name": "maxUtilization_",
          "type": "uint256"
        },
        {
          "internalType": "uint256",
          "name": "fullUtilization_",
          "type": "uint256"
        }
      ],
      "name": "setCurveParameters",
      "outputs": [],
      "stateMutability": "nonpayable",
      "type": "function"
    },
    {
      "inputs": [
        {
          "internalType": "uint256",
          "name": "spFeeRate_",
          "type": "uint256"
        }
      ],
      "name": "setSPFeeRate",
      "outputs": [],
      "stateMutability": "nonpayable",
      "type": "function"
    },
    {
      "inputs": [],
      "name": "spFeeRate",
      "outputs": [
        {
          "internalType": "uint256",
          "name": "",
          "type": "uint256"
        }
      ],
      "stateMutability": "view",
      "type": "function"
    },
    {
      "inputs": [
        {
          "internalType": "bytes4",
          "name": "interfaceId",
          "type": "bytes4"
        }
      ],
      "name": "supportsInterface",
      "outputs": [
        {
          "internalType": "bool",
          "name": "",
          "type": "bool"
        }
      ],
      "stateMutability": "view",
      "type": "function"
    }
  ],
  "transactionHash": "0xa5a68a68c65a7e5ac8246e817d4af1a9210459d109c35fe301adfc187455f143",
  "args": [
    "1495312500000000000",
    "-166250000000000000",
    "8250000000000000000",
    "6000000000000000000",
    "100000000000000000"
  ],
  "numDeployments": 1,
  "solcInputHash": "a3edfed24954129c15f7c8541495d815",
  "bytecode": "0x60806040523480156200001157600080fd5b5060405162001f3b38038062001f3b833981016040819052620000349162000862565b6200004160003362000065565b6200004f8585858562000106565b6200005a81620001e5565b505050505062000ab7565b6000828152602081815260408083206001600160a01b038516845290915290205460ff1662000102576000828152602081815260408083206001600160a01b03851684529091529020805460ff19166001179055620000c13390565b6001600160a01b0316816001600160a01b0316837f2f8788117e7eff1d82e926ec794901d17c78024a50270940304540a733656f0d60405160405180910390a45b5050565b6000620001138162000258565b6802d1a51c7e00500000821180620001325750670de0b6b3a764000082105b806200013e5750828210155b8062000155575062000152600384620008b9565b82105b156200017457604051630309cb8760e51b815260040160405180910390fd5b60018590556002849055600383905560048290556200019560008062000267565b506040805186815260208101869052908101849052606081018390527f8ac59d511c374a4e38c0d38a9b1778f709a7ca27714236eedb6fe0347fd636539060800160405180910390a15050505050565b6000620001f28162000258565b6702c68af0bb1400008211156200021c57604051630309cb8760e51b815260040160405180910390fd5b60058290556040518281527f7043bfc403bb1c579b47c9b1e6cfe341fcee17e58043ace25aaa5c851d4c2e5e9060200160405180910390a15050565b62000264813362000355565b50565b600080600254639502f9008585620002809190620008dc565b106200030157620002fb620002d7620002c686600354620002a29190620008dc565b88600354620002b29190620008dc565b620003f960201b6200070e1790919060201c565b6200041060201b6200072a1760201c565b620002e38787620008dc565b600154620005e960201b6200096e179092919060201c565b6200032c565b6200032c85600354620003159190620008dc565b600154620003f960201b6200070e1790919060201c565b620003389190620008f6565b905060008112156200034e576200034e6200093d565b9392505050565b6000828152602081815260408083206001600160a01b038516845290915290205460ff1662000102576200039f816001600160a01b031660146200060960201b6200098d1760201c565b620003b58360206200098d62000609821b17811c565b604051602001620003c892919062000986565b60408051601f198184030181529082905262461bcd60e51b8252620003f091600401620009ff565b60405180910390fd5b60006200034e83670de0b6b3a764000084620005e9565b60008082136200044f5760405162461bcd60e51b815260206004820152600960248201526815539111519253915160ba1b6044820152606401620003f0565b600060606200045e84620007c2565b03609f8181039490941b90931c6c465772b2bbbb5f824b15207a3081018102606090811d6d0388eaa27412d5aca026815d636e018202811d6d0df99ac502031bf953eff472fdcc018202811d6d13cdffb29d51d99322bdff5f2211018202811d6d0a0f742023def783a307a986912e018202811d6d01920d8043ca89b5239253284e42018202811d6c0b7a86d7375468fac667a0a527016c29508e458543d8aa4df2abee7883018302821d6d0139601a2efabe717e604cbb4894018302821d6d02247f7a7b6594320649aa03aba1018302821d6c8c3f38e95a6b1ff2ab1c3b343619018302821d6d02384773bdf1ac5676facced60901901830290911d6cb9a025d814b29c212b8b1a07cd190190910260016c0504a838426634cdd8738f543560611b03190105711340daa0d5f769dba1915cef59f0815a5506027d0267a36c0c95b3975ab3ee5b203a7614a3f75373f047d803ae7b6687f2b393909302929092017d57115e47018c7177eebf7cd370a3356a1b7863008a5ae8028c72b88642840160ae1d92915050565b8282028115158415858304851417166200060257600080fd5b0492915050565b606060006200061a83600262000a34565b6200062790600262000a56565b6001600160401b0381111562000641576200064162000a71565b6040519080825280601f01601f1916602001820160405280156200066c576020820181803683370190505b509050600360fc1b816000815181106200068a576200068a62000a87565b60200101906001600160f81b031916908160001a905350600f60fb1b81600181518110620006bc57620006bc62000a87565b60200101906001600160f81b031916908160001a9053506000620006e284600262000a34565b620006ef90600162000a56565b90505b600181111562000771576f181899199a1a9b1b9c1cb0b131b232b360811b85600f166010811062000727576200072762000a87565b1a60f81b82828151811062000740576200074062000a87565b60200101906001600160f81b031916908160001a90535060049490941c93620007698162000a9d565b9050620006f2565b5083156200034e5760405162461bcd60e51b815260206004820181905260248201527f537472696e67733a20686578206c656e67746820696e73756666696369656e746044820152606401620003f0565b6000808211620008015760405162461bcd60e51b815260206004820152600960248201526815539111519253915160ba1b6044820152606401620003f0565b5060016001600160801b03821160071b82811c6001600160401b031060061b1782811c63ffffffff1060051b1782811c61ffff1060041b1782811c60ff10600390811b90911783811c600f1060021b1783811c909110821b1791821c111790565b600080600080600060a086880312156200087b57600080fd5b5050835160208501516040860151606087015160809097015192989197509594509092509050565b634e487b7160e01b600052601160045260246000fd5b600082620008d757634e487b7160e01b600052601260045260246000fd5b500490565b600082821015620008f157620008f1620008a3565b500390565b600080821280156001600160ff1b03849003851316156200091b576200091b620008a3565b600160ff1b8390038412811615620009375762000937620008a3565b50500190565b634e487b7160e01b600052600160045260246000fd5b60005b838110156200097057818101518382015260200162000956565b8381111562000980576000848401525b50505050565b7f416363657373436f6e74726f6c3a206163636f756e7420000000000000000000815260008351620009c081601785016020880162000953565b7001034b99036b4b9b9b4b733903937b6329607d1b6017918401918201528351620009f381602884016020880162000953565b01602801949350505050565b602081526000825180602084015262000a2081604085016020870162000953565b601f01601f19169190910160400192915050565b600081600019048311821515161562000a515762000a51620008a3565b500290565b6000821982111562000a6c5762000a6c620008a3565b500190565b634e487b7160e01b600052604160045260246000fd5b634e487b7160e01b600052603260045260246000fd5b60008162000aaf5762000aaf620008a3565b506000190190565b6114748062000ac76000396000f3fe608060405234801561001057600080fd5b506004361061011b5760003560e01c806374e86c97116100b2578063ab9abb1411610081578063e8125aa911610066578063e8125aa914610295578063f72578a3146102a8578063ff5fedb6146102b157600080fd5b8063ab9abb1414610279578063d547741f1461028257600080fd5b806374e86c97146102115780637b5c15ef1461021a57806391d148541461022d578063a217fddf1461027157600080fd5b80633e4a5dc0116100ee5780633e4a5dc0146101a1578063475dc8b3146101cd5780635e8e0ebe146101d65780636b7bb7bb146101fe57600080fd5b806301ffc9a714610120578063248a9ca3146101485780632f2ff15d1461017957806336568abe1461018e575b600080fd5b61013361012e366004610feb565b6102ba565b60405190151581526020015b60405180910390f35b61016b61015636600461102d565b60009081526020819052604090206001015490565b60405190815260200161013f565b61018c610187366004611046565b610353565b005b61018c61019c366004611046565b61037d565b60015460025460035460045460408051948552602085019390935291830152606082015260800161013f565b61016b60045481565b6101e96101e436600461108f565b610435565b6040805192835260208301919091520161013f565b61018c61020c36600461102d565b610481565b61016b60025481565b61016b6102283660046110bb565b61050a565b61013361023b366004611046565b60009182526020828152604080842073ffffffffffffffffffffffffffffffffffffffff93909316845291905290205460ff1690565b61016b600081565b61016b60055481565b61018c610290366004611046565b6105fb565b61018c6102a33660046110fe565b610620565b61016b60015481565b61016b60035481565b60007fffffffff0000000000000000000000000000000000000000000000000000000082167f7965db0b00000000000000000000000000000000000000000000000000000000148061034d57507f01ffc9a7000000000000000000000000000000000000000000000000000000007fffffffff000000000000000000000000000000000000000000000000000000008316145b92915050565b60008281526020819052604090206001015461036e81610bd0565b6103788383610bdd565b505050565b73ffffffffffffffffffffffffffffffffffffffff81163314610427576040517f08c379a000000000000000000000000000000000000000000000000000000000815260206004820152602f60248201527f416363657373436f6e74726f6c3a2063616e206f6e6c792072656e6f756e636560448201527f20726f6c657320666f722073656c66000000000000000000000000000000000060648201526084015b60405180910390fd5b6104318282610ccd565b5050565b60008084156104795761045361044b8487610d84565b85908761096e565b915061046a60055483610d9a90919063ffffffff16565b9050610476818361115f565b91505b935093915050565b600061048c81610bd0565b6702c68af0bb1400008211156104ce576040517f613970e000000000000000000000000000000000000000000000000000000000815260040160405180910390fd5b60058290556040518281527f7043bfc403bb1c579b47c9b1e6cfe341fcee17e58043ace25aaa5c851d4c2e5e9060200160405180910390a15050565b6000868610610545576040517fb453c22000000000000000000000000000000000000000000000000000000000815260040160405180910390fd5b600061055c6004548461070e90919063ffffffff16565b6105669085611176565b90506000610574868361070e565b9050600061058c836105868a8a611176565b9061070e565b90506004548111156105ca576040517f86a8c2bd00000000000000000000000000000000000000000000000000000000815260040160405180910390fd5b6105ed6105d78a8c61115f565b6301e133806105e68585610daf565b919061096e565b9a9950505050505050505050565b60008281526020819052604090206001015461061681610bd0565b6103788383610ccd565b600061062b81610bd0565b6802d1a51c7e005000008211806106495750670de0b6b3a764000082105b806106545750828210155b80610668575061066560038461118e565b82105b1561069f576040517f613970e000000000000000000000000000000000000000000000000000000000815260040160405180910390fd5b60018590556002849055600383905560048290556106be600080610daf565b506040805186815260208101869052908101849052606081018390527f8ac59d511c374a4e38c0d38a9b1778f709a7ca27714236eedb6fe0347fd636539060800160405180910390a15050505050565b600061072383670de0b6b3a76400008461096e565b9392505050565b6000808213610795576040517f08c379a000000000000000000000000000000000000000000000000000000000815260206004820152600960248201527f554e444546494e45440000000000000000000000000000000000000000000000604482015260640161041e565b600060606107a284610e45565b03609f8181039490941b90931c6c465772b2bbbb5f824b15207a3081018102606090811d6d0388eaa27412d5aca026815d636e018202811d6d0df99ac502031bf953eff472fdcc018202811d6d13cdffb29d51d99322bdff5f2211018202811d6d0a0f742023def783a307a986912e018202811d6d01920d8043ca89b5239253284e42018202811d6c0b7a86d7375468fac667a0a527016c29508e458543d8aa4df2abee7883018302821d6d0139601a2efabe717e604cbb4894018302821d6d02247f7a7b6594320649aa03aba1018302821d7fffffffffffffffffffffffffffffffffffffff73c0c716a594e00d54e3c4cbc9018302821d7ffffffffffffffffffffffffffffffffffffffdc7b88c420e53a9890533129f6f01830290911d7fffffffffffffffffffffffffffffffffffffff465fda27eb4d63ded474e5f832019091027ffffffffffffffff5f6af8f7b3396644f18e157960000000000000000000000000105711340daa0d5f769dba1915cef59f0815a5506027d0267a36c0c95b3975ab3ee5b203a7614a3f75373f047d803ae7b6687f2b393909302929092017d57115e47018c7177eebf7cd370a3356a1b7863008a5ae8028c72b88642840160ae1d92915050565b82820281151584158583048514171661098657600080fd5b0492915050565b6060600061099c8360026111c9565b6109a7906002611176565b67ffffffffffffffff8111156109bf576109bf611206565b6040519080825280601f01601f1916602001820160405280156109e9576020820181803683370190505b5090507f300000000000000000000000000000000000000000000000000000000000000081600081518110610a2057610a20611235565b60200101907effffffffffffffffffffffffffffffffffffffffffffffffffffffffffffff1916908160001a9053507f780000000000000000000000000000000000000000000000000000000000000081600181518110610a8357610a83611235565b60200101907effffffffffffffffffffffffffffffffffffffffffffffffffffffffffffff1916908160001a9053506000610abf8460026111c9565b610aca906001611176565b90505b6001811115610b67577f303132333435363738396162636465660000000000000000000000000000000085600f1660108110610b0b57610b0b611235565b1a60f81b828281518110610b2157610b21611235565b60200101907effffffffffffffffffffffffffffffffffffffffffffffffffffffffffffff1916908160001a90535060049490941c93610b6081611264565b9050610acd565b508315610723576040517f08c379a000000000000000000000000000000000000000000000000000000000815260206004820181905260248201527f537472696e67733a20686578206c656e67746820696e73756666696369656e74604482015260640161041e565b610bda8133610f1b565b50565b60008281526020818152604080832073ffffffffffffffffffffffffffffffffffffffff8516845290915290205460ff166104315760008281526020818152604080832073ffffffffffffffffffffffffffffffffffffffff85168452909152902080547fffffffffffffffffffffffffffffffffffffffffffffffffffffffffffffff00166001179055610c6f3390565b73ffffffffffffffffffffffffffffffffffffffff168173ffffffffffffffffffffffffffffffffffffffff16837f2f8788117e7eff1d82e926ec794901d17c78024a50270940304540a733656f0d60405160405180910390a45050565b60008281526020818152604080832073ffffffffffffffffffffffffffffffffffffffff8516845290915290205460ff16156104315760008281526020818152604080832073ffffffffffffffffffffffffffffffffffffffff8516808552925280832080547fffffffffffffffffffffffffffffffffffffffffffffffffffffffffffffff0016905551339285917ff6391f5c32d9c69d2a47ea670b442974b53935d1edc7fd64eb21e047a839171b9190a45050565b6000818310610d935781610723565b5090919050565b60006107238383670de0b6b3a764000061096e565b600080600254639502f9008585610dc6919061115f565b10610e0e57610e09610df5610df086600354610de2919061115f565b88600354610586919061115f565b61072a565b610dff878761115f565b600154919061096e565b610e28565b610e2885600354610e1f919061115f565b6001549061070e565b610e329190611299565b905060008112156107235761072361130d565b6000808211610eb0576040517f08c379a000000000000000000000000000000000000000000000000000000000815260206004820152600960248201527f554e444546494e45440000000000000000000000000000000000000000000000604482015260640161041e565b5060016fffffffffffffffffffffffffffffffff821160071b82811c67ffffffffffffffff1060061b1782811c63ffffffff1060051b1782811c61ffff1060041b1782811c60ff10600390811b90911783811c600f1060021b1783811c909110821b1791821c111790565b60008281526020818152604080832073ffffffffffffffffffffffffffffffffffffffff8516845290915290205460ff1661043157610f718173ffffffffffffffffffffffffffffffffffffffff16601461098d565b610f7c83602061098d565b604051602001610f8d92919061136c565b604080517fffffffffffffffffffffffffffffffffffffffffffffffffffffffffffffffe0818403018152908290527f08c379a000000000000000000000000000000000000000000000000000000000825261041e916004016113ed565b600060208284031215610ffd57600080fd5b81357fffffffff000000000000000000000000000000000000000000000000000000008116811461072357600080fd5b60006020828403121561103f57600080fd5b5035919050565b6000806040838503121561105957600080fd5b82359150602083013573ffffffffffffffffffffffffffffffffffffffff8116811461108457600080fd5b809150509250929050565b6000806000606084860312156110a457600080fd5b505081359360208301359350604090920135919050565b60008060008060008060c087890312156110d457600080fd5b505084359660208601359650604086013595606081013595506080810135945060a0013592509050565b6000806000806080858703121561111457600080fd5b5050823594602084013594506040840135936060013592509050565b7f4e487b7100000000000000000000000000000000000000000000000000000000600052601160045260246000fd5b60008282101561117157611171611130565b500390565b6000821982111561118957611189611130565b500190565b6000826111c4577f4e487b7100000000000000000000000000000000000000000000000000000000600052601260045260246000fd5b500490565b6000817fffffffffffffffffffffffffffffffffffffffffffffffffffffffffffffffff048311821515161561120157611201611130565b500290565b7f4e487b7100000000000000000000000000000000000000000000000000000000600052604160045260246000fd5b7f4e487b7100000000000000000000000000000000000000000000000000000000600052603260045260246000fd5b60008161127357611273611130565b507fffffffffffffffffffffffffffffffffffffffffffffffffffffffffffffffff0190565b6000808212827f7fffffffffffffffffffffffffffffffffffffffffffffffffffffffffffffff038413811516156112d3576112d3611130565b827f800000000000000000000000000000000000000000000000000000000000000003841281161561130757611307611130565b50500190565b7f4e487b7100000000000000000000000000000000000000000000000000000000600052600160045260246000fd5b60005b8381101561135757818101518382015260200161133f565b83811115611366576000848401525b50505050565b7f416363657373436f6e74726f6c3a206163636f756e74200000000000000000008152600083516113a481601785016020880161133c565b7f206973206d697373696e6720726f6c652000000000000000000000000000000060179184019182015283516113e181602884016020880161133c565b01602801949350505050565b602081526000825180602084015261140c81604085016020870161133c565b601f017fffffffffffffffffffffffffffffffffffffffffffffffffffffffffffffffe016919091016040019291505056fea26469706673582212202d29ba31fa042e0bd778b414a3cabc7e5b60ba5d0e84461dbf4e99ddd54b9efe64736f6c634300080d0033",
  "devdoc": {
    "events": {
      "CurveParametersSet(uint256,int256,uint256,uint256)": {
        "params": {
          "a": "new curve parameter A.",
          "b": "new curve parameter B.",
          "fullUtilization": "new full utilization rate.",
          "maxUtilization": "new max utilization rate."
        }
      },
      "SpFeeRateSet(uint256)": {
        "params": {
          "spFeeRate": "rate charged to the mp suppliers to be accrued by the sp suppliers."
        }
      }
    },
    "kind": "dev",
    "methods": {
      "getCurveParameters()": {
        "returns": {
          "_0": "parameters (curveA, curveB, maxUtilization, fullUtilization)."
        }
      },
      "getRateToBorrow(uint256,uint256,uint256,uint256,uint256,uint256)": {
        "params": {
          "amount": "the current borrow's amount.",
          "borrowedMP": "ex-ante amount borrowed from this maturity.",
          "currentDate": "the current block timestamp. Received from caller for easier testing.",
          "maturity": "maturity date for calculating days left to maturity.",
          "smartPoolAssetsAverage": "the average of the smart pool's assets.",
          "suppliedMP": "deposits in maturity pool."
        },
        "returns": {
          "_0": "fee the borrower will have to pay, as a factor (1% interest is represented as the wad for 0.01 == 10^16)."
        }
      },
      "getRoleAdmin(bytes32)": {
        "details": "Returns the admin role that controls `role`. See {grantRole} and {revokeRole}. To change a role's admin, use {_setRoleAdmin}."
      },
      "getYieldForDeposit(uint256,uint256,uint256)": {
        "params": {
          "amount": "amount being provided by the MP supplier.",
          "suppliedSP": "amount of money currently being supplied in the maturity pool.",
          "unassignedEarnings": "earnings not yet accrued to the SP that should be shared with the current supplier."
        },
        "returns": {
          "earningsShare": "yield to be offered to the MP supplier.",
          "earningsShareSP": "yield to be accrued by the SP suppliers for initially providing the liquidity."
        }
      },
      "grantRole(bytes32,address)": {
        "details": "Grants `role` to `account`. If `account` had not been already granted `role`, emits a {RoleGranted} event. Requirements: - the caller must have ``role``'s admin role."
      },
      "hasRole(bytes32,address)": {
        "details": "Returns `true` if `account` has been granted `role`."
      },
      "renounceRole(bytes32,address)": {
        "details": "Revokes `role` from the calling account. Roles are often managed via {grantRole} and {revokeRole}: this function's purpose is to provide a mechanism for accounts to lose their privileges if they are compromised (such as when a trusted device is misplaced). If the calling account had been revoked `role`, emits a {RoleRevoked} event. Requirements: - the caller must be `account`."
      },
      "revokeRole(bytes32,address)": {
        "details": "Revokes `role` from `account`. If `account` had been granted `role`, emits a {RoleRevoked} event. Requirements: - the caller must have ``role``'s admin role."
      },
      "setCurveParameters(uint256,int256,uint256,uint256)": {
        "details": "FullUR can only be between 1 and 52. UMaxUR can only be higher than FullUR and at most 3 times FullUR.",
        "params": {
          "curveParameterA_": "curve parameter A.",
          "curveParameterB_": "curve parameter B.",
          "fullUtilization_": "full UR.",
          "maxUtilization_": "% of MP supp."
        }
      },
      "setSPFeeRate(uint256)": {
        "details": "Value can only be set between 20% and 0%.",
        "params": {
          "spFeeRate_": "percentage amount represented with 1e18 decimals."
        }
      },
      "supportsInterface(bytes4)": {
        "details": "See {IERC165-supportsInterface}."
      }
    },
    "version": 1
  },
  "userdoc": {
    "events": {
      "CurveParametersSet(uint256,int256,uint256,uint256)": {
        "notice": "Emitted when the curve parameters are changed by admin."
      },
      "SpFeeRateSet(uint256)": {
        "notice": "Emitted when the spFeeRate parameter is changed by admin."
      }
    },
    "kind": "user",
    "methods": {
      "getCurveParameters()": {
        "notice": "Gets this model's curve parameters."
      },
      "getRateToBorrow(uint256,uint256,uint256,uint256,uint256,uint256)": {
        "notice": "Gets fee to borrow a certain amount in a certain maturity with supply/demand values in the maturity pool and supply/demand values in the smart pool."
      },
      "getYieldForDeposit(uint256,uint256,uint256)": {
        "notice": "Calculates the amount of revenue sharing between the smart pool and the new MP supplier."
      },
      "setCurveParameters(uint256,int256,uint256,uint256)": {
        "notice": "Updates this model's curve parameters."
      },
      "setSPFeeRate(uint256)": {
        "notice": "Sets the rate charged to the mp depositors that the sp suppliers will retain for initially providing liquidity."
      }
    },
    "version": 1
  },
  "storageLayout": {
    "storage": [
      {
        "astId": 70,
        "contract": "contracts/InterestRateModel.sol:InterestRateModel",
        "label": "_roles",
        "offset": 0,
        "slot": "0",
        "type": "t_mapping(t_bytes32,t_struct(RoleData)65_storage)"
      },
      {
        "astId": 6361,
        "contract": "contracts/InterestRateModel.sol:InterestRateModel",
        "label": "curveParameterA",
        "offset": 0,
        "slot": "1",
        "type": "t_uint256"
      },
      {
        "astId": 6363,
        "contract": "contracts/InterestRateModel.sol:InterestRateModel",
        "label": "curveParameterB",
        "offset": 0,
        "slot": "2",
        "type": "t_int256"
      },
      {
        "astId": 6365,
        "contract": "contracts/InterestRateModel.sol:InterestRateModel",
        "label": "maxUtilization",
        "offset": 0,
        "slot": "3",
        "type": "t_uint256"
      },
      {
        "astId": 6367,
        "contract": "contracts/InterestRateModel.sol:InterestRateModel",
        "label": "fullUtilization",
        "offset": 0,
        "slot": "4",
        "type": "t_uint256"
      },
      {
        "astId": 6369,
        "contract": "contracts/InterestRateModel.sol:InterestRateModel",
        "label": "spFeeRate",
        "offset": 0,
        "slot": "5",
        "type": "t_uint256"
      }
    ],
    "types": {
      "t_address": {
        "encoding": "inplace",
        "label": "address",
        "numberOfBytes": "20"
      },
      "t_bool": {
        "encoding": "inplace",
        "label": "bool",
        "numberOfBytes": "1"
      },
      "t_bytes32": {
        "encoding": "inplace",
        "label": "bytes32",
        "numberOfBytes": "32"
      },
      "t_int256": {
        "encoding": "inplace",
        "label": "int256",
        "numberOfBytes": "32"
      },
      "t_mapping(t_address,t_bool)": {
        "encoding": "mapping",
        "key": "t_address",
        "label": "mapping(address => bool)",
        "numberOfBytes": "32",
        "value": "t_bool"
      },
      "t_mapping(t_bytes32,t_struct(RoleData)65_storage)": {
        "encoding": "mapping",
        "key": "t_bytes32",
        "label": "mapping(bytes32 => struct AccessControl.RoleData)",
        "numberOfBytes": "32",
        "value": "t_struct(RoleData)65_storage"
      },
      "t_struct(RoleData)65_storage": {
        "encoding": "inplace",
        "label": "struct AccessControl.RoleData",
        "members": [
          {
            "astId": 62,
            "contract": "contracts/InterestRateModel.sol:InterestRateModel",
            "label": "members",
            "offset": 0,
            "slot": "0",
            "type": "t_mapping(t_address,t_bool)"
          },
          {
            "astId": 64,
            "contract": "contracts/InterestRateModel.sol:InterestRateModel",
            "label": "adminRole",
            "offset": 0,
            "slot": "1",
            "type": "t_bytes32"
          }
        ],
        "numberOfBytes": "64"
      },
      "t_uint256": {
        "encoding": "inplace",
        "label": "uint256",
        "numberOfBytes": "32"
      }
    }
  }
}