{
  "address": "0xB09f133D40244bc904f57aC1eCBFd0E3e4036DA5",
  "abi": [
    {
      "inputs": [
        {
          "internalType": "int256",
          "name": "price_",
          "type": "int256"
        }
      ],
      "stateMutability": "nonpayable",
      "type": "constructor"
    },
    {
      "anonymous": false,
      "inputs": [
        {
          "indexed": true,
          "internalType": "int256",
          "name": "current",
          "type": "int256"
        },
        {
          "indexed": true,
          "internalType": "uint256",
          "name": "roundId",
          "type": "uint256"
        },
        {
          "indexed": false,
          "internalType": "uint256",
          "name": "updatedAt",
          "type": "uint256"
        }
      ],
      "name": "AnswerUpdated",
      "type": "event"
    },
    {
      "inputs": [],
      "name": "decimals",
      "outputs": [
        {
          "internalType": "uint8",
          "name": "",
          "type": "uint8"
        }
      ],
      "stateMutability": "view",
      "type": "function"
    },
    {
      "inputs": [],
      "name": "latestRoundData",
      "outputs": [
        {
          "internalType": "uint80",
          "name": "",
          "type": "uint80"
        },
        {
          "internalType": "int256",
          "name": "",
          "type": "int256"
        },
        {
          "internalType": "uint256",
          "name": "",
          "type": "uint256"
        },
        {
          "internalType": "uint256",
          "name": "",
          "type": "uint256"
        },
        {
          "internalType": "uint80",
          "name": "",
          "type": "uint80"
        }
      ],
      "stateMutability": "view",
      "type": "function"
    },
    {
      "inputs": [],
      "name": "price",
      "outputs": [
        {
          "internalType": "int256",
          "name": "",
          "type": "int256"
        }
      ],
      "stateMutability": "view",
      "type": "function"
    },
    {
      "inputs": [
        {
          "internalType": "int256",
          "name": "price_",
          "type": "int256"
        }
      ],
      "name": "setPrice",
      "outputs": [],
      "stateMutability": "nonpayable",
      "type": "function"
    },
    {
      "inputs": [
        {
          "internalType": "uint256",
          "name": "timestamp",
          "type": "uint256"
        }
      ],
      "name": "setUpdatedAt",
      "outputs": [],
      "stateMutability": "nonpayable",
      "type": "function"
    },
    {
      "inputs": [],
      "name": "updatedAt",
      "outputs": [
        {
          "internalType": "uint256",
          "name": "",
          "type": "uint256"
        }
      ],
      "stateMutability": "view",
      "type": "function"
    }
  ],
  "transactionHash": "0x3c74e8bbc0495e35482ac9db360e513aca6037436525d1eb1a26b3a4f0aeebd8",
  "args": [
    "5700000000000"
  ],
  "numDeployments": 1,
  "solcInputHash": "3885bcb2ff82e675bed0fcc39e7a5ac1",
  "bytecode": "0x608060405234801561001057600080fd5b5060405161024938038061024983398101604081905261002f91610081565b6100388161003e565b5061009a565b600081815542600181905560405190815282907f0559884fd3a460db3073b7fc896cc77986f16e378210ded43186175bf646fc5f9060200160405180910390a350565b60006020828403121561009357600080fd5b5051919050565b6101a0806100a96000396000f3fe608060405234801561001057600080fd5b50600436106100725760003560e01c8063a035b1fe11610050578063a035b1fe146100c2578063f7a30806146100cb578063feaf968c146100de57600080fd5b80631ecc7d8814610077578063313ce5671461008c5780637519ab50146100ab575b600080fd5b61008a610085366004610151565b600155565b005b610094600881565b60405160ff90911681526020015b60405180910390f35b6100b460015481565b6040519081526020016100a2565b6100b460005481565b61008a6100d9366004610151565b61010e565b6000805460015460408051848152602081019390935282018390526060820152608081019190915260a0016100a2565b600081815542600181905560405190815282907f0559884fd3a460db3073b7fc896cc77986f16e378210ded43186175bf646fc5f9060200160405180910390a350565b60006020828403121561016357600080fd5b503591905056fea2646970667358221220b2e0c0fe4ffc489dd86b4c48f2f3098b1c0e60fddd4b47520607cf66e2d65b4c64736f6c634300080d0033",
  "devdoc": {
    "kind": "dev",
    "methods": {},
    "version": 1
  },
  "userdoc": {
    "kind": "user",
    "methods": {},
    "version": 1
  },
  "storageLayout": {
    "storage": [
      {
        "astId": 8942,
        "contract": "contracts/mocks/MockPriceFeed.sol:MockPriceFeed",
        "label": "price",
        "offset": 0,
        "slot": "0",
        "type": "t_int256"
      },
      {
        "astId": 8944,
        "contract": "contracts/mocks/MockPriceFeed.sol:MockPriceFeed",
        "label": "updatedAt",
        "offset": 0,
        "slot": "1",
        "type": "t_uint256"
      }
    ],
    "types": {
      "t_int256": {
        "encoding": "inplace",
        "label": "int256",
        "numberOfBytes": "32"
      },
      "t_uint256": {
        "encoding": "inplace",
        "label": "uint256",
        "numberOfBytes": "32"
      }
    }
  }
}