{
  "address": "0x4339F33f5e36974E8650cF00B2699d993e29d93F",
  "abi": [
    {
      "inputs": [
        {
          "internalType": "contract Auditor",
          "name": "auditor_",
          "type": "address"
        }
      ],
      "stateMutability": "nonpayable",
      "type": "constructor"
    },
    {
      "inputs": [],
      "name": "AlreadyMatured",
      "type": "error"
    },
    {
      "inputs": [
        {
          "internalType": "address",
          "name": "account",
          "type": "address"
        }
      ],
      "name": "accounts",
      "outputs": [
        {
          "components": [
            {
              "internalType": "contract FixedLender",
              "name": "market",
              "type": "address"
            },
            {
              "internalType": "string",
              "name": "assetSymbol",
              "type": "string"
            },
            {
              "internalType": "uint256",
              "name": "oraclePrice",
              "type": "uint256"
            },
            {
              "internalType": "uint128",
              "name": "penaltyRate",
              "type": "uint128"
            },
            {
              "internalType": "uint128",
              "name": "adjustFactor",
              "type": "uint128"
            },
            {
              "internalType": "uint8",
              "name": "decimals",
              "type": "uint8"
            },
            {
              "internalType": "uint8",
              "name": "maxFuturePools",
              "type": "uint8"
            },
            {
              "internalType": "bool",
              "name": "isCollateral",
              "type": "bool"
            },
            {
              "internalType": "uint256",
              "name": "smartPoolShares",
              "type": "uint256"
            },
            {
              "internalType": "uint256",
              "name": "smartPoolAssets",
              "type": "uint256"
            },
            {
              "components": [
                {
                  "internalType": "uint256",
                  "name": "maturity",
                  "type": "uint256"
                },
                {
                  "internalType": "uint256",
                  "name": "assets",
                  "type": "uint256"
                }
              ],
              "internalType": "struct Previewer.MaturityLiquidity[]",
              "name": "availableLiquidity",
              "type": "tuple[]"
            },
            {
              "components": [
                {
                  "internalType": "uint256",
                  "name": "maturity",
                  "type": "uint256"
                },
                {
                  "components": [
                    {
                      "internalType": "uint256",
                      "name": "principal",
                      "type": "uint256"
                    },
                    {
                      "internalType": "uint256",
                      "name": "fee",
                      "type": "uint256"
                    }
                  ],
                  "internalType": "struct PoolLib.Position",
                  "name": "position",
                  "type": "tuple"
                }
              ],
              "internalType": "struct Previewer.MaturityPosition[]",
              "name": "maturitySupplyPositions",
              "type": "tuple[]"
            },
            {
              "components": [
                {
                  "internalType": "uint256",
                  "name": "maturity",
                  "type": "uint256"
                },
                {
                  "components": [
                    {
                      "internalType": "uint256",
                      "name": "principal",
                      "type": "uint256"
                    },
                    {
                      "internalType": "uint256",
                      "name": "fee",
                      "type": "uint256"
                    }
                  ],
                  "internalType": "struct PoolLib.Position",
                  "name": "position",
                  "type": "tuple"
                }
              ],
              "internalType": "struct Previewer.MaturityPosition[]",
              "name": "maturityBorrowPositions",
              "type": "tuple[]"
            }
          ],
          "internalType": "struct Previewer.MarketAccount[]",
          "name": "data",
          "type": "tuple[]"
        }
      ],
      "stateMutability": "view",
      "type": "function"
    },
    {
      "inputs": [],
      "name": "auditor",
      "outputs": [
        {
          "internalType": "contract Auditor",
          "name": "",
          "type": "address"
        }
      ],
      "stateMutability": "view",
      "type": "function"
    },
    {
      "inputs": [
        {
          "internalType": "contract FixedLender",
          "name": "market",
          "type": "address"
        },
        {
          "internalType": "uint256",
          "name": "maturity",
          "type": "uint256"
        },
        {
          "internalType": "uint256",
          "name": "assets",
          "type": "uint256"
        }
      ],
      "name": "previewBorrowAtMaturity",
      "outputs": [
        {
          "internalType": "uint256",
          "name": "positionAssets",
          "type": "uint256"
        }
      ],
      "stateMutability": "view",
      "type": "function"
    },
    {
      "inputs": [
        {
          "internalType": "contract FixedLender",
          "name": "market",
          "type": "address"
        },
        {
          "internalType": "uint256",
          "name": "assets",
          "type": "uint256"
        }
      ],
      "name": "previewDepositAtAllMaturities",
      "outputs": [
        {
          "components": [
            {
              "internalType": "uint256",
              "name": "maturity",
              "type": "uint256"
            },
            {
              "internalType": "uint256",
              "name": "assets",
              "type": "uint256"
            }
          ],
          "internalType": "struct Previewer.MaturityLiquidity[]",
          "name": "positionAssetsMaturities",
          "type": "tuple[]"
        }
      ],
      "stateMutability": "view",
      "type": "function"
    },
    {
      "inputs": [
        {
          "internalType": "contract FixedLender",
          "name": "market",
          "type": "address"
        },
        {
          "internalType": "uint256",
          "name": "maturity",
          "type": "uint256"
        },
        {
          "internalType": "uint256",
          "name": "assets",
          "type": "uint256"
        }
      ],
      "name": "previewDepositAtMaturity",
      "outputs": [
        {
          "internalType": "uint256",
          "name": "positionAssets",
          "type": "uint256"
        }
      ],
      "stateMutability": "view",
      "type": "function"
    },
    {
      "inputs": [
        {
          "internalType": "contract FixedLender",
          "name": "market",
          "type": "address"
        },
        {
          "internalType": "uint256",
          "name": "maturity",
          "type": "uint256"
        },
        {
          "internalType": "uint256",
          "name": "positionAssets",
          "type": "uint256"
        },
        {
          "internalType": "address",
          "name": "borrower",
          "type": "address"
        }
      ],
      "name": "previewRepayAtMaturity",
      "outputs": [
        {
          "internalType": "uint256",
          "name": "repayAssets",
          "type": "uint256"
        }
      ],
      "stateMutability": "view",
      "type": "function"
    },
    {
      "inputs": [
        {
          "internalType": "contract FixedLender",
          "name": "market",
          "type": "address"
        },
        {
          "internalType": "uint256",
          "name": "maturity",
          "type": "uint256"
        },
        {
          "internalType": "uint256",
          "name": "positionAssets",
          "type": "uint256"
        }
      ],
      "name": "previewWithdrawAtMaturity",
      "outputs": [
        {
          "internalType": "uint256",
          "name": "withdrawAssets",
          "type": "uint256"
        }
      ],
      "stateMutability": "view",
      "type": "function"
    }
  ],
  "transactionHash": "0xa1f847e9d492ab7762a27d829420437c400629eba821a06a94e23f6ff363edd1",
  "args": [
    "0x778c90630f26447FD92719937627981e5582db66"
  ],
  "numDeployments": 3,
  "solcInputHash": "d458a8179032d046da879dd185ed2161",
  "bytecode": "0x60a06040523480156200001157600080fd5b5060405162002b0c38038062002b0c833981016040819052620000349162000046565b6001600160a01b031660805262000078565b6000602082840312156200005957600080fd5b81516001600160a01b03811681146200007157600080fd5b9392505050565b608051612a56620000b66000396000818160d301528181610810015281816108ce0152818161093f01528181610a8a0152610b2e0152612a566000f3fe608060405234801561001057600080fd5b506004361061007d5760003560e01c80633ec045a61161005b5780633ec045a6146100ce5780635e5c06e21461010d5780638eab0a2a1461012d578063b15a3f611461014057600080fd5b8063109c46ce14610082578063221e81f6146100a857806338e73ff3146100bb575b600080fd5b6100956100903660046121b7565b610160565b6040519081526020015b60405180910390f35b6100956100b63660046121ec565b610363565b6100956100c93660046121b7565b6105de565b6100f57f000000000000000000000000000000000000000000000000000000000000000081565b6040516001600160a01b03909116815260200161009f565b61012061011b366004612236565b61080a565b60405161009f919061234d565b61009561013b3660046121b7565b611004565b61015361014e3660046124cc565b61121d565b60405161009f91906124f8565b600061018d6040518060800160405280600081526020016000815260200160008152602001600081525090565b6040517fa29cb7e1000000000000000000000000000000000000000000000000000000008152600481018590526001600160a01b0386169063a29cb7e190602401608060405180830381865afa1580156101eb573d6000803e3d6000fd5b505050506040513d601f19601f8201168201806040525081019061020f919061254f565b905050826000018360200182815250828152505050600061034d866001600160a01b031663f3fdb15a6040518163ffffffff1660e01b8152600401602060405180830381865afa158015610267573d6000803e3d6000fd5b505050506040513d601f19601f8201168201806040525081019061028b9190612585565b6001600160a01b0316637b5c15ef874288876000015188602001516102af8e61139b565b6040517fffffffff0000000000000000000000000000000000000000000000000000000060e089901b1681526004810196909652602486019490945260448501929092526064840152608483015260a482015260c401602060405180830381865afa158015610322573d6000803e3d6000fd5b505050506040513d601f19601f8201168201806040525081019061034691906125a2565b85906116c8565b905061035981856125ea565b9695505050505050565b60008342106103fd576103ec856001600160a01b031663d6b7494f6040518163ffffffff1660e01b8152600401602060405180830381865afa1580156103ad573d6000803e3d6000fd5b505050506040513d601f19601f820116820180604052508101906103d191906125a2565b6103db8642612602565b6103e59190612619565b84906116c8565b6103f690846125ea565b90506105d6565b60008061040a87876116dd565b9150915061042b604051806040016040528060008152602001600081525090565b6040517f821993ec000000000000000000000000000000000000000000000000000000008152600481018890526001600160a01b03868116602483015289169063821993ec906044016040805180830381865afa158015610490573d6000803e3d6000fd5b505050506040513d601f19601f820116820180604052508101906104b49190612656565b6020830152815260006104c78288611800565b90506000896001600160a01b031663f3fdb15a6040518163ffffffff1660e01b8152600401602060405180830381865afa158015610509573d6000803e3d6000fd5b505050506040513d601f19601f8201168201806040525081019061052d9190612585565b82516040517f5e8e0ebe000000000000000000000000000000000000000000000000000000008152600481018890526024810187905260448101919091526001600160a01b039190911690635e8e0ebe906064016040805180830381865afa15801561059d573d6000803e3d6000fd5b505050506040513d601f19601f820116820180604052508101906105c19190612656565b5090506105ce8189612602565b955050505050505b949350505050565b60008242106105ee575080610803565b6106196040518060800160405280600081526020016000815260200160008152602001600081525090565b6040517fa29cb7e1000000000000000000000000000000000000000000000000000000008152600481018590526001600160a01b0386169063a29cb7e190602401608060405180830381865afa158015610677573d6000803e3d6000fd5b505050506040513d601f19601f8201168201806040525081019061069b919061254f565b5050602080840191909152908252604080517ff3fdb15a00000000000000000000000000000000000000000000000000000000815290516107ff926001600160a01b0389169263f3fdb15a92600480830193928290030181865afa158015610707573d6000803e3d6000fd5b505050506040513d601f19601f8201168201806040525081019061072b9190612585565b6001600160a01b0316637b5c15ef8642878660000151876020015161074f8d61139b565b6040517fffffffff0000000000000000000000000000000000000000000000000000000060e089901b1681526004810196909652602486019490945260448501929092526064840152608483015260a482015260c401602060405180830381865afa1580156107c2573d6000803e3d6000fd5b505050506040513d601f19601f820116820180604052508101906107e691906125a2565b6107f890670de0b6b3a76400006125ea565b8490611850565b9150505b9392505050565b606060007f00000000000000000000000000000000000000000000000000000000000000006001600160a01b0316637dc0d1d06040518163ffffffff1660e01b8152600401602060405180830381865afa15801561086c573d6000803e3d6000fd5b505050506040513d601f19601f820116820180604052508101906108909190612585565b6040517fff383ae60000000000000000000000000000000000000000000000000000000081526001600160a01b0385811660048301529192506000917f0000000000000000000000000000000000000000000000000000000000000000169063ff383ae690602401602060405180830381865afa158015610915573d6000803e3d6000fd5b505050506040513d601f19601f8201168201806040525081019061093991906125a2565b905060007f00000000000000000000000000000000000000000000000000000000000000006001600160a01b031663b0772d0b6040518163ffffffff1660e01b8152600401600060405180830381865afa15801561099b573d6000803e3d6000fd5b505050506040513d6000823e601f3d908101601f191682016040526109c391908101906126da565b5190508067ffffffffffffffff8111156109df576109df61267a565b604051908082528060200260200182016040528015610a7857816020015b604080516101a08101825260008082526060602083018190529282018190528282018190526080820181905260a0820181905260c0820181905260e082018190526101008201819052610120820152610140810182905261016081018290526101808101919091528152602001906001900390816109fd5790505b50935060005b81811015610ffb5760007f00000000000000000000000000000000000000000000000000000000000000006001600160a01b031663b0772d0b6040518163ffffffff1660e01b8152600401600060405180830381865afa158015610ae6573d6000803e3d6000fd5b505050506040513d6000823e601f3d908101601f19168201604052610b0e91908101906126da565b8281518110610b1f57610b1f612780565b602002602001015190506000807f00000000000000000000000000000000000000000000000000000000000000006001600160a01b0316638e8f294b846040518263ffffffff1660e01b8152600401610b8791906001600160a01b0391909116815260200190565b608060405180830381865afa158015610ba4573d6000803e3d6000fd5b505050506040513d601f19601f82011682018060405250810190610bc891906127c5565b505091509150604051806101a00160405280846001600160a01b03168152602001846001600160a01b03166338d52e0f6040518163ffffffff1660e01b8152600401602060405180830381865afa158015610c27573d6000803e3d6000fd5b505050506040513d601f19601f82011682018060405250810190610c4b9190612585565b6001600160a01b03166395d89b416040518163ffffffff1660e01b8152600401600060405180830381865afa158015610c88573d6000803e3d6000fd5b505050506040513d6000823e601f3d908101601f19168201604052610cb0919081019061282c565b81526040517fb3596f070000000000000000000000000000000000000000000000000000000081526001600160a01b0386811660048301526020909201918a169063b3596f0790602401602060405180830381865afa158015610d17573d6000803e3d6000fd5b505050506040513d601f19601f82011682018060405250810190610d3b91906125a2565b8152602001846001600160a01b031663d6b7494f6040518163ffffffff1660e01b8152600401602060405180830381865afa158015610d7e573d6000803e3d6000fd5b505050506040513d601f19601f82011682018060405250810190610da291906125a2565b6fffffffffffffffffffffffffffffffff168152602001836fffffffffffffffffffffffffffffffff1681526020018260ff168152602001846001600160a01b0316630e52dbec6040518163ffffffff1660e01b8152600401602060405180830381865afa158015610e18573d6000803e3d6000fd5b505050506040513d601f19601f82011682018060405250810190610e3c91906128c0565b60ff1681526020016001861b8816600003610e58576000610e5b565b60015b151581526040517f70a082310000000000000000000000000000000000000000000000000000000081526001600160a01b038c811660048301526020909201918616906370a0823190602401602060405180830381865afa158015610ec4573d6000803e3d6000fd5b505050506040513d601f19601f82011682018060405250810190610ee891906125a2565b81526040517fce96cb770000000000000000000000000000000000000000000000000000000081526001600160a01b038c8116600483015260209092019186169063ce96cb7790602401602060405180830381865afa158015610f4f573d6000803e3d6000fd5b505050506040513d601f19601f82011682018060405250810190610f7391906125a2565b8152602001610f8185611865565b8152602001610fa48b6001600160a01b03871663f618bd1e816345227d5f611c0d565b8152602001610fc78b6001600160a01b03871663ce42af678163821993ec611c0d565b815250888581518110610fdc57610fdc612780565b602002602001018190525050505080610ff4906128db565b9050610a7e565b50505050919050565b600082421115611040576040517fb453c22000000000000000000000000000000000000000000000000000000000815260040160405180910390fd5b61106b6040518060800160405280600081526020016000815260200160008152602001600081525090565b6040517fa29cb7e1000000000000000000000000000000000000000000000000000000008152600481018590526001600160a01b0386169063a29cb7e190602401608060405180830381865afa1580156110c9573d6000803e3d6000fd5b505050506040513d601f19601f820116820180604052508101906110ed919061254f565b606085015260408401526020830152815260008061110b87876116dd565b915091506000876001600160a01b031663f3fdb15a6040518163ffffffff1660e01b8152600401602060405180830381865afa15801561114f573d6000803e3d6000fd5b505050506040513d601f19601f820116820180604052508101906111739190612585565b6040517f5e8e0ebe0000000000000000000000000000000000000000000000000000000081526004810185905260248101849052604481018890526001600160a01b039190911690635e8e0ebe906064016040805180830381865afa1580156111e0573d6000803e3d6000fd5b505050506040513d601f19601f820116820180604052508101906112049190612656565b50905061121181876125ea565b98975050505050505050565b60606000836001600160a01b0316630e52dbec6040518163ffffffff1660e01b8152600401602060405180830381865afa15801561125f573d6000803e3d6000fd5b505050506040513d601f19601f8201168201806040525081019061128391906128c0565b60ff16905060006224ea006112988142612913565b6112a29042612602565b6112ac91906125ea565b90508167ffffffffffffffff8111156112c7576112c761267a565b60405190808252806020026020018201604052801561130c57816020015b60408051808201909152600080825260208201528152602001906001900390816112e55790505b50925060005b82811015611392576000611329826224ea00612619565b61133390846125ea565b90508085838151811061134857611348612780565b60209081029190910101515261135f878288611004565b85838151811061137157611371612780565b6020908102919091018101510152508061138a816128db565b915050611312565b50505092915050565b600080826001600160a01b031663b87d7d8d6040518163ffffffff1660e01b8152600401602060405180830381865afa1580156113dc573d6000803e3d6000fd5b505050506040513d601f19601f8201168201806040525081019061140091906125a2565b836001600160a01b031663b0f64c196040518163ffffffff1660e01b8152600401602060405180830381865afa15801561143e573d6000803e3d6000fd5b505050506040513d601f19601f8201168201806040525081019061146291906125a2565b106114ce57826001600160a01b0316630539fa8c6040518163ffffffff1660e01b8152600401602060405180830381865afa1580156114a5573d6000803e3d6000fd5b505050506040513d601f19601f820116820180604052508101906114c991906125a2565b611530565b826001600160a01b0316633aa18d6f6040518163ffffffff1660e01b8152600401602060405180830381865afa15801561150c573d6000803e3d6000fd5b505050506040513d601f19601f8201168201806040525081019061153091906125a2565b905060006115c1846001600160a01b031663fb0fc4c36040518163ffffffff1660e01b8152600401602060405180830381865afa158015611575573d6000803e3d6000fd5b505050506040513d601f19601f82011682018060405250810190611599919061294e565b6115a99063ffffffff1642612602565b6115b39084612619565b6115bc90612974565b611ef3565b6115d390670de0b6b3a76400006129ac565b9050611641846001600160a01b031663b0f64c196040518163ffffffff1660e01b8152600401602060405180830381865afa158015611616573d6000803e3d6000fd5b505050506040513d601f19601f8201168201806040525081019061163a91906125a2565b82906116c8565b6116be61165683670de0b6b3a7640000612602565b866001600160a01b031663b87d7d8d6040518163ffffffff1660e01b8152600401602060405180830381865afa158015611694573d6000803e3d6000fd5b505050506040513d601f19601f820116820180604052508101906116b891906125a2565b906116c8565b6105d691906125ea565b60006108038383670de0b6b3a7640000612136565b60008061170b6040518060800160405280600081526020016000815260200160008152602001600081525090565b6040517fa29cb7e1000000000000000000000000000000000000000000000000000000008152600481018590526001600160a01b0386169063a29cb7e190602401608060405180830381865afa158015611769573d6000803e3d6000fd5b505050506040513d601f19601f8201168201806040525081019061178d919061254f565b60608501526040840152602083018190528183526117ab9190612155565b81516117b79190612602565b92506117e78160600151426117cc9190612602565b60608301516117db9087612602565b60408401519190612136565b81604001516117f69190612602565b9150509250929050565b6040805180820190915260008082526020820152825160208401516000916118349161182c90826125ea565b859190612136565b80855290506118438184612602565b6020850152509192915050565b600061080383670de0b6b3a764000084612136565b60606000826001600160a01b0316630e52dbec6040518163ffffffff1660e01b8152600401602060405180830381865afa1580156118a7573d6000803e3d6000fd5b505050506040513d601f19601f820116820180604052508101906118cb91906128c0565b60ff16905060006224ea006118e08142612913565b6118ea9042612602565b6118f491906125ea565b90508167ffffffffffffffff81111561190f5761190f61267a565b60405190808252806020026020018201604052801561195457816020015b604080518082019091526000808252602082015281526020019060019003908161192d5790505b50925060005b82811015611c05576000611971826224ea00612619565b61197b90846125ea565b90506119a86040518060800160405280600081526020016000815260200160008152602001600081525090565b6040517fa29cb7e1000000000000000000000000000000000000000000000000000000008152600481018390526001600160a01b0388169063a29cb7e190602401608060405180830381865afa158015611a06573d6000803e3d6000fd5b505050506040513d601f19601f82011682018060405250810190611a2a919061254f565b9050508260000183602001828152508281525050506000611af6886001600160a01b0316635b1afd676040518163ffffffff1660e01b8152600401602060405180830381865afa158015611a82573d6000803e3d6000fd5b505050506040513d601f19601f82011682018060405250810190611aa691906125a2565b611ab890670de0b6b3a7640000612602565b896001600160a01b031663b0f64c196040518163ffffffff1660e01b8152600401602060405180830381865afa158015611694573d6000803e3d6000fd5b90506000611b0c83602001518460000151612155565b8360200151611b1b9190612602565b905083888681518110611b3057611b30612780565b6020026020010151600001818152505080611bc2611baf848c6001600160a01b031663fd8ecd176040518163ffffffff1660e01b8152600401602060405180830381865afa158015611b86573d6000803e3d6000fd5b505050506040513d601f19601f82011682018060405250810190611baa91906125a2565b612155565b611bb99085612602565b611baa8c61139b565b611bcc91906125ea565b888681518110611bde57611bde612780565b60200260200101516020018181525050505050508080611bfd906128db565b91505061195a565b505050919050565b6040805160e0808252611c2082019092526060916000918291816020015b611c3361216b565b815260200190600190039081611c2b57505060408051808201909152600080825260208201529091506040517fffffffff0000000000000000000000000000000000000000000000000000000060e089901b1681526001600160a01b038a16600482015288908890602401602060405180830381865afa158015611cbb573d6000803e3d6000fd5b505050506040513d601f19601f82011682018060405250810190611cdf91906125a2565b60208201819052611cf69064010000000090612913565b81526020808201805190911c905260005b60e0811015611e3d5760208201516001821b1615611e1f576000611d2e6224ea0083612619565b8351611d3a91906125ea565b90506000808989848f6040518363ffffffff1660e01b8152600401611d729291909182526001600160a01b0316602082015260400190565b6040805180830381865afa158015611d8e573d6000803e3d6000fd5b505050506040513d601f19601f82011682018060405250810190611db29190612656565b9150915082868881518110611dc957611dc9612780565b60200260200101516000018181525050604051806040016040528083815260200182815250868881518110611e0057611e00612780565b60200260200101516020018190525086611e19906128db565b96505050505b60208201516001821b11611e3d57611e36816128db565b9050611d07565b508267ffffffffffffffff811115611e5757611e5761267a565b604051908082528060200260200182016040528015611e9057816020015b611e7d61216b565b815260200190600190039081611e755790505b50935060005b83811015611ee657828181518110611eb057611eb0612780565b6020026020010151858281518110611eca57611eca612780565b602002602001018190525080611edf906128db565b9050611e96565b5050505095945050505050565b60007ffffffffffffffffffffffffffffffffffffffffffffffffdb731c958f34d94c18213611f2457506000919050565b680755bf798b4a1bf1e58212611f9a576040517f08c379a000000000000000000000000000000000000000000000000000000000815260206004820152600c60248201527f4558505f4f564552464c4f570000000000000000000000000000000000000000604482015260640160405180910390fd5b6503782dace9d9604e83901b059150600060606bb17217f7d1cf79abc9e3b39884821b056b80000000000000000000000001901d6bb17217f7d1cf79abc9e3b39881029093037fffffffffffffffffffffffffffffffffffffffdbf3ccf1604d263450f02a550481018102606090811d6d0277594991cfc85f6e2461837cd9018202811d7fffffffffffffffffffffffffffffffffffffe5adedaa1cb095af9e4da10e363c018202811d6db1bbb201f443cf962f1a1d3db4a5018202811d7ffffffffffffffffffffffffffffffffffffd38dc772608b0ae56cce01296c0eb018202811d6e05180bb14799ab47a8a8cb2a527d57016d02d16720577bd19bf614176fe9ea6c10fe68e7fd37d0007b713f765084018402831d9081019084017ffffffffffffffffffffffffffffffffffffffe2c69812cf03b0763fd454a8f7e010290911d6e0587f503bb6ea29d25fcb7401964500190910279d835ebba824c98fb31b83b2ca45c000000000000000000000000010574029d9dc38563c32e5c2f6dc192ee70ef65f9978af30260c3939093039290921c92915050565b82820281151584158583048514171661214e57600080fd5b0492915050565b60008183106121645781610803565b5090919050565b60405180604001604052806000815260200161219a604051806040016040528060008152602001600081525090565b905290565b6001600160a01b03811681146121b457600080fd5b50565b6000806000606084860312156121cc57600080fd5b83356121d78161219f565b95602085013595506040909401359392505050565b6000806000806080858703121561220257600080fd5b843561220d8161219f565b93506020850135925060408501359150606085013561222b8161219f565b939692955090935050565b60006020828403121561224857600080fd5b81356108038161219f565b60005b8381101561226e578181015183820152602001612256565b8381111561227d576000848401525b50505050565b6000815180845261229b816020860160208601612253565b601f01601f19169290920160200192915050565b600081518084526020808501945080840160005b838110156122f3576122e087835180518252602090810151910152565b60409690960195908201906001016122c3565b509495945050505050565b600081518084526020808501945080840160005b838110156122f3578151805188528301516123398489018280518252602090810151910152565b506060969096019590820190600101612312565b60006020808301818452808551808352604092508286019150828160051b87010184880160005b838110156124be578883037fffffffffffffffffffffffffffffffffffffffffffffffffffffffffffffffc0018552815180516001600160a01b031684526101a088820151818a8701526123ca82870182612283565b91505087820151888601526060808301516123f8828801826fffffffffffffffffffffffffffffffff169052565b50506080828101516fffffffffffffffffffffffffffffffff169086015260a08083015160ff9081169187019190915260c0808401519091169086015260e08083015115159086015261010080830151908601526101208083015190860152610140808301518683038288015261246f83826122af565b92505050610160808301518683038288015261248b83826122fe565b9250505061018080830151925085820381870152506124aa81836122fe565b968901969450505090860190600101612374565b509098975050505050505050565b600080604083850312156124df57600080fd5b82356124ea8161219f565b946020939093013593505050565b602080825282518282018190526000919060409081850190868401855b828110156125425761253284835180518252602090810151910152565b9284019290850190600101612515565b5091979650505050505050565b6000806000806080858703121561256557600080fd5b505082516020840151604085015160609095015191969095509092509050565b60006020828403121561259757600080fd5b81516108038161219f565b6000602082840312156125b457600080fd5b5051919050565b7f4e487b7100000000000000000000000000000000000000000000000000000000600052601160045260246000fd5b600082198211156125fd576125fd6125bb565b500190565b600082821015612614576126146125bb565b500390565b6000817fffffffffffffffffffffffffffffffffffffffffffffffffffffffffffffffff0483118215151615612651576126516125bb565b500290565b6000806040838503121561266957600080fd5b505080516020909101519092909150565b7f4e487b7100000000000000000000000000000000000000000000000000000000600052604160045260246000fd5b604051601f8201601f1916810167ffffffffffffffff811182821017156126d2576126d261267a565b604052919050565b600060208083850312156126ed57600080fd5b825167ffffffffffffffff8082111561270557600080fd5b818501915085601f83011261271957600080fd5b81518181111561272b5761272b61267a565b8060051b915061273c8483016126a9565b818152918301840191848101908884111561275657600080fd5b938501935b8385101561121157845192506127708361219f565b828252938501939085019061275b565b7f4e487b7100000000000000000000000000000000000000000000000000000000600052603260045260246000fd5b805160ff811681146127c057600080fd5b919050565b600080600080608085870312156127db57600080fd5b84516fffffffffffffffffffffffffffffffff811681146127fb57600080fd5b9350612809602086016127af565b9250612817604086016127af565b91506060850151801515811461222b57600080fd5b60006020828403121561283e57600080fd5b815167ffffffffffffffff8082111561285657600080fd5b818401915084601f83011261286a57600080fd5b81518181111561287c5761287c61267a565b61288f6020601f19601f840116016126a9565b91508082528560208285010111156128a657600080fd5b6128b7816020840160208601612253565b50949350505050565b6000602082840312156128d257600080fd5b610803826127af565b60007fffffffffffffffffffffffffffffffffffffffffffffffffffffffffffffffff820361290c5761290c6125bb565b5060010190565b600082612949577f4e487b7100000000000000000000000000000000000000000000000000000000600052601260045260246000fd5b500690565b60006020828403121561296057600080fd5b815163ffffffff8116811461080357600080fd5b60007f800000000000000000000000000000000000000000000000000000000000000082036129a5576129a56125bb565b5060000390565b6000808312837f8000000000000000000000000000000000000000000000000000000000000000018312811516156129e6576129e66125bb565b837f7fffffffffffffffffffffffffffffffffffffffffffffffffffffffffffffff018313811615612a1a57612a1a6125bb565b5050039056fea26469706673582212206a97d299e1e98674a81c215f371a4d1e421c9ca2cab08dbb6328cf803d694f2664736f6c634300080d0033",
  "devdoc": {
    "kind": "dev",
    "methods": {
      "accounts(address)": {
        "params": {
          "account": "address which the extended data will be calculated."
        },
        "returns": {
          "data": "extended accountability of all markets for the account."
        }
      },
      "previewBorrowAtMaturity(address,uint256,uint256)": {
        "params": {
          "assets": "amount of assets that will be borrowed.",
          "market": "address of the market.",
          "maturity": "maturity date/pool where the assets will be borrowed."
        },
        "returns": {
          "positionAssets": "amount plus fees that the depositor will repay at maturity."
        }
      },
      "previewDepositAtAllMaturities(address,uint256)": {
        "params": {
          "assets": "amount of assets that will be deposited.",
          "market": "address of the market."
        },
        "returns": {
          "positionAssetsMaturities": "array containing amount plus yield that user will receive after each maturity."
        }
      },
      "previewDepositAtMaturity(address,uint256,uint256)": {
        "params": {
          "assets": "amount of assets that will be deposited.",
          "market": "address of the market.",
          "maturity": "maturity date/pool where the assets will be deposited."
        },
        "returns": {
          "positionAssets": "amount plus yield that the depositor will receive after maturity."
        }
      },
      "previewRepayAtMaturity(address,uint256,uint256,address)": {
        "params": {
          "borrower": "address of the borrower.",
          "market": "address of the market.",
          "maturity": "maturity date/pool where the assets will be repaid.",
          "positionAssets": "amount of assets that will be subtracted from the position."
        },
        "returns": {
          "repayAssets": "amount of assets that will be repaid."
        }
      },
      "previewWithdrawAtMaturity(address,uint256,uint256)": {
        "params": {
          "market": "address of the market.",
          "maturity": "maturity date/pool where the assets will be withdrawn.",
          "positionAssets": "amount of assets that will be tried to withdraw."
        },
        "returns": {
          "withdrawAssets": "amount that will be withdrawn."
        }
      }
    },
    "title": "Previewer",
    "version": 1
  },
  "userdoc": {
    "kind": "user",
    "methods": {
      "accounts(address)": {
        "notice": "Function to get a certain account extended data."
      },
      "previewBorrowAtMaturity(address,uint256,uint256)": {
        "notice": "Gets the amount plus fees to be repaid at maturity when borrowing certain amount of assets."
      },
      "previewDepositAtAllMaturities(address,uint256)": {
        "notice": "Gets the assets plus yield offered by all VALID maturities when depositing a certain amount."
      },
      "previewDepositAtMaturity(address,uint256,uint256)": {
        "notice": "Gets the assets plus yield offered by a maturity when depositing a certain amount."
      },
      "previewRepayAtMaturity(address,uint256,uint256,address)": {
        "notice": "Gets the assets that will be repaid when repaying a certain amount at the current maturity."
      },
      "previewWithdrawAtMaturity(address,uint256,uint256)": {
        "notice": "Gets the amount to be withdrawn for a certain positionAmount of assets at maturity."
      }
    },
    "notice": "Contract to be consumed by Exactly's front-end dApp.",
    "version": 1
  },
  "storageLayout": {
    "storage": [],
    "types": null
  }
}