{
  "address": "0xfE0c5ABF52E3e3076f3CB7F6323C7C1c91F54b74",
  "abi": [
    {
      "inputs": [
        {
          "internalType": "contract Auditor",
          "name": "auditor_",
          "type": "address"
        },
        {
          "internalType": "contract IBalancerVault",
          "name": "balancerVault_",
          "type": "address"
        }
      ],
      "stateMutability": "nonpayable",
      "type": "constructor"
    },
    {
      "inputs": [],
      "name": "Disagreement",
      "type": "error"
    },
    {
      "inputs": [],
      "name": "InvalidOperation",
      "type": "error"
    },
    {
      "inputs": [],
      "name": "MarketNotListed",
      "type": "error"
    },
    {
      "anonymous": false,
      "inputs": [
        {
          "indexed": false,
          "internalType": "uint8",
          "name": "version",
          "type": "uint8"
        }
      ],
      "name": "Initialized",
      "type": "event"
    },
    {
      "inputs": [
        {
          "internalType": "contract Market",
          "name": "market",
          "type": "address"
        }
      ],
      "name": "approve",
      "outputs": [],
      "stateMutability": "nonpayable",
      "type": "function"
    },
    {
      "inputs": [],
      "name": "auditor",
      "outputs": [
        {
          "internalType": "contract Auditor",
          "name": "",
          "type": "address"
        }
      ],
      "stateMutability": "view",
      "type": "function"
    },
    {
      "inputs": [],
      "name": "availableLiquidity",
      "outputs": [
        {
          "components": [
            {
              "internalType": "contract ERC20",
              "name": "asset",
              "type": "address"
            },
            {
              "internalType": "uint256",
              "name": "liquidity",
              "type": "uint256"
            }
          ],
          "internalType": "struct DebtManager.AvailableAsset[]",
          "name": "availableAssets",
          "type": "tuple[]"
        }
      ],
      "stateMutability": "view",
      "type": "function"
    },
    {
      "inputs": [],
      "name": "balancerVault",
      "outputs": [
        {
          "internalType": "contract IBalancerVault",
          "name": "",
          "type": "address"
        }
      ],
      "stateMutability": "view",
      "type": "function"
    },
    {
      "inputs": [
        {
          "internalType": "contract Market",
          "name": "market",
          "type": "address"
        },
        {
          "internalType": "uint256",
          "name": "maturity",
          "type": "uint256"
        },
        {
          "internalType": "uint256",
          "name": "maxAssets",
          "type": "uint256"
        },
        {
          "internalType": "uint256",
          "name": "percentage",
          "type": "uint256"
        }
      ],
      "name": "deleverage",
      "outputs": [],
      "stateMutability": "nonpayable",
      "type": "function"
    },
    {
      "inputs": [],
      "name": "initialize",
      "outputs": [],
      "stateMutability": "nonpayable",
      "type": "function"
    },
    {
      "inputs": [
        {
          "internalType": "contract Market",
          "name": "market",
          "type": "address"
        },
        {
          "internalType": "uint256",
          "name": "principal",
          "type": "uint256"
        },
        {
          "internalType": "uint256",
          "name": "targetHealthFactor",
          "type": "uint256"
        },
        {
          "internalType": "bool",
          "name": "deposit",
          "type": "bool"
        }
      ],
      "name": "leverage",
      "outputs": [],
      "stateMutability": "nonpayable",
      "type": "function"
    },
    {
      "inputs": [
        {
          "internalType": "contract ERC20[]",
          "name": "",
          "type": "address[]"
        },
        {
          "internalType": "uint256[]",
          "name": "",
          "type": "uint256[]"
        },
        {
          "internalType": "uint256[]",
          "name": "",
          "type": "uint256[]"
        },
        {
          "internalType": "bytes",
          "name": "userData",
          "type": "bytes"
        }
      ],
      "name": "receiveFlashLoan",
      "outputs": [],
      "stateMutability": "nonpayable",
      "type": "function"
    },
    {
      "inputs": [
        {
          "internalType": "contract Market",
          "name": "market",
          "type": "address"
        },
        {
          "internalType": "uint256",
          "name": "repayMaturity",
          "type": "uint256"
        },
        {
          "internalType": "uint256",
          "name": "borrowMaturity",
          "type": "uint256"
        },
        {
          "internalType": "uint256",
          "name": "maxRepayAssets",
          "type": "uint256"
        },
        {
          "internalType": "uint256",
          "name": "maxBorrowAssets",
          "type": "uint256"
        },
        {
          "internalType": "uint256",
          "name": "percentage",
          "type": "uint256"
        }
      ],
      "name": "rollFixed",
      "outputs": [],
      "stateMutability": "nonpayable",
      "type": "function"
    },
    {
      "inputs": [
        {
          "internalType": "contract Market",
          "name": "market",
          "type": "address"
        },
        {
          "internalType": "uint256",
          "name": "repayMaturity",
          "type": "uint256"
        },
        {
          "internalType": "uint256",
          "name": "borrowMaturity",
          "type": "uint256"
        },
        {
          "internalType": "uint256",
          "name": "maxRepayAssets",
          "type": "uint256"
        },
        {
          "internalType": "uint256",
          "name": "maxBorrowAssets",
          "type": "uint256"
        },
        {
          "internalType": "uint256",
          "name": "percentage",
          "type": "uint256"
        },
        {
          "components": [
            {
              "internalType": "address",
              "name": "account",
              "type": "address"
            },
            {
              "internalType": "uint256",
              "name": "deadline",
              "type": "uint256"
            },
            {
              "internalType": "uint8",
              "name": "v",
              "type": "uint8"
            },
            {
              "internalType": "bytes32",
              "name": "r",
              "type": "bytes32"
            },
            {
              "internalType": "bytes32",
              "name": "s",
              "type": "bytes32"
            }
          ],
          "internalType": "struct Permit",
          "name": "p",
          "type": "tuple"
        }
      ],
      "name": "rollFixed",
      "outputs": [],
      "stateMutability": "nonpayable",
      "type": "function"
    },
    {
      "inputs": [
        {
          "internalType": "contract Market",
          "name": "market",
          "type": "address"
        },
        {
          "internalType": "uint256",
          "name": "repayMaturity",
          "type": "uint256"
        },
        {
          "internalType": "uint256",
          "name": "maxRepayAssets",
          "type": "uint256"
        },
        {
          "internalType": "uint256",
          "name": "percentage",
          "type": "uint256"
        }
      ],
      "name": "rollFixedToFloating",
      "outputs": [],
      "stateMutability": "nonpayable",
      "type": "function"
    },
    {
      "inputs": [
        {
          "internalType": "contract Market",
          "name": "market",
          "type": "address"
        },
        {
          "internalType": "uint256",
          "name": "repayMaturity",
          "type": "uint256"
        },
        {
          "internalType": "uint256",
          "name": "maxRepayAssets",
          "type": "uint256"
        },
        {
          "internalType": "uint256",
          "name": "percentage",
          "type": "uint256"
        },
        {
          "components": [
            {
              "internalType": "address",
              "name": "account",
              "type": "address"
            },
            {
              "internalType": "uint256",
              "name": "deadline",
              "type": "uint256"
            },
            {
              "internalType": "uint8",
              "name": "v",
              "type": "uint8"
            },
            {
              "internalType": "bytes32",
              "name": "r",
              "type": "bytes32"
            },
            {
              "internalType": "bytes32",
              "name": "s",
              "type": "bytes32"
            }
          ],
          "internalType": "struct Permit",
          "name": "p",
          "type": "tuple"
        }
      ],
      "name": "rollFixedToFloating",
      "outputs": [],
      "stateMutability": "nonpayable",
      "type": "function"
    },
    {
      "inputs": [
        {
          "internalType": "contract Market",
          "name": "market",
          "type": "address"
        },
        {
          "internalType": "uint256",
          "name": "borrowMaturity",
          "type": "uint256"
        },
        {
          "internalType": "uint256",
          "name": "maxBorrowAssets",
          "type": "uint256"
        },
        {
          "internalType": "uint256",
          "name": "percentage",
          "type": "uint256"
        }
      ],
      "name": "rollFloatingToFixed",
      "outputs": [],
      "stateMutability": "nonpayable",
      "type": "function"
    },
    {
      "inputs": [
        {
          "internalType": "contract Market",
          "name": "market",
          "type": "address"
        },
        {
          "internalType": "uint256",
          "name": "borrowMaturity",
          "type": "uint256"
        },
        {
          "internalType": "uint256",
          "name": "maxBorrowAssets",
          "type": "uint256"
        },
        {
          "internalType": "uint256",
          "name": "percentage",
          "type": "uint256"
        },
        {
          "components": [
            {
              "internalType": "address",
              "name": "account",
              "type": "address"
            },
            {
              "internalType": "uint256",
              "name": "deadline",
              "type": "uint256"
            },
            {
              "internalType": "uint8",
              "name": "v",
              "type": "uint8"
            },
            {
              "internalType": "bytes32",
              "name": "r",
              "type": "bytes32"
            },
            {
              "internalType": "bytes32",
              "name": "s",
              "type": "bytes32"
            }
          ],
          "internalType": "struct Permit",
          "name": "p",
          "type": "tuple"
        }
      ],
      "name": "rollFloatingToFixed",
      "outputs": [],
      "stateMutability": "nonpayable",
      "type": "function"
    }
  ],
  "transactionHash": "0x63933d9c3bf6ec88a69bb410108f694dc5b3d514706ba51845341c3fba7d24db",
  "args": [
    "0x310A2694521f75C7B2b64b5937C16CE65C3EFE01",
    "0xBA12222222228d8Ba445958a75a0704d566BF2C8"
  ],
  "numDeployments": 1,
  "solcInputHash": "1d150c43eaec84155a253efe8f389af9",
  "bytecode": "0x60c06040523480156200001157600080fd5b50604051620038b7380380620038b78339810160408190526200003491620000dd565b6001600160a01b03808316608052811660a0526200005162000059565b50506200011c565b600054610100900460ff16156200006f57600080fd5b60005460ff9081161015620000c2576000805460ff191660ff9081179091556040519081527f7f26b83ff96e1f2b6a682f133852f6798a09c465da95921460cefb38474024989060200160405180910390a15b565b6001600160a01b0381168114620000da57600080fd5b50565b60008060408385031215620000f157600080fd5b8251620000fe81620000c4565b60208401519092506200011181620000c4565b809150509250929050565b60805160a0516136ea620001cd6000396000818160f4015281816103d0015281816105fd015281816106b401528181610a9601528181610c8901528181610d330152818161116a015281816113b60152818161146d015281816117a601528181611d3f01528181611db9015281816120b0015281816125980152612612015260008181610160015281816115a1015281816116ad015281816118c401528181611b760152611f2801526136ea6000f3fe608060405234801561001057600080fd5b50600436106100ea5760003560e01c8063912019c91161008c578063e4a3434c11610066578063e4a3434c146101eb578063f04f2707146101fe578063f3e3c11114610211578063fad6cf0f1461022457600080fd5b8063912019c9146101b2578063cc7e37d9146101c5578063daea85c5146101d857600080fd5b80633ec045a6116100c85780633ec045a61461015b57806340c714ce1461018257806374375359146101955780638129fc1c146101aa57600080fd5b8063158274a5146100ef57806320ba6def146101335780633e25640214610148575b600080fd5b6101167f000000000000000000000000000000000000000000000000000000000000000081565b6040516001600160a01b0390911681526020015b60405180910390f35b610146610141366004612cba565b610237565b005b610146610156366004612d06565b610899565b6101167f000000000000000000000000000000000000000000000000000000000000000081565b610146610190366004612d06565b610ee0565b61019d61159b565b60405161012a9190612d41565b61014661185a565b6101466101c0366004612da7565b611a5e565b6101466101d3366004612e09565b611e5c565b6101466101e6366004612e5d565b611f06565b6101466101f9366004612e09565b612002565b61014661020c366004612fd0565b6120a2565b61014661021f3660046130db565b612176565b610146610232366004612d06565b612224565b6040805160018082528183019092526000916020808301908036833750506040805160018082528183019092529293506000929150602080830190803683370190505090506060610286612c68565b896001600160a01b03166338d52e0f6040518163ffffffff1660e01b8152600401602060405180830381865afa1580156102c4573d6000803e3d6000fd5b505050506040513d601f19601f820116820180604052508101906102e89190613142565b836000815181106102fb576102fb61315f565b6001600160a01b03928316602091820292909201015260405163d2681a0b60e01b8152600481018a9052336024820152908b169063d2681a0b906044016040805180830381865afa158015610354573d6000803e3d6000fd5b505050506040513d601f19601f820116820180604052508101906103789190613175565b60a0830152608082015261038d8a8a876126a5565b8252602082015282516104509060019085906000906103ae576103ae61315f565b60209081029190910101516040516370a0823160e01b81526001600160a01b037f000000000000000000000000000000000000000000000000000000000000000081166004830152909116906370a0823190602401602060405180830381865afa158015610420573d6000803e3d6000fd5b505050506040513d601f19601f820116820180604052508101906104449190613199565b60208401519190612998565b60608201819052600110801561046557508789145b1561048357604051631cc6a69960e11b815260040160405180910390fd5b6060810151602082015161049991600190612998565b846000815181106104ac576104ac61315f565b6020908102919091010152606081015181516104c891906131c8565b815260608101516104da9060026131ea565b67ffffffffffffffff8111156104f2576104f2612e81565b60405190808252806020026020018201604052801561052557816020015b60608152602001906001900390816105105790505b50600060c083015291505b80606001518160c0015110156106b2578051604051602481018b90526044810191909152600019606482015233608482015260a40160408051601f198184030181529181526020820180516001600160e01b0316633c6f317f60e01b17905282018051849161059e82613201565b9052815181106105b0576105b061315f565b602002602001018190525087846000815181106105cf576105cf61315f565b602002602001015160001983606001518460c0015160016105f0919061321a565b146105fb573061061d565b7f00000000000000000000000000000000000000000000000000000000000000005b6040516024810194909452604484019290925260648301526001600160a01b031660848201523360a482015260c40160408051601f198184030181529181526020820180516001600160e01b0316630d2dcf3160e11b17905282018051849161068582613201565b9052815181106106975761069761315f565b602090810291909101015260c0810180516001019052610530565b7f00000000000000000000000000000000000000000000000000000000000000006001600160a01b0316635c38449e3085876107168f886040516020016106fa92919061327d565b6040516020818303038152906040528051602082012060015590565b6040518563ffffffff1660e01b815260040161073594939291906132ef565b600060405180830381600087803b15801561074f57600080fd5b505af1158015610763573d6000803e3d6000fd5b505060405163d2681a0b60e01b8152600481018b9052336024820152600092508291506001600160a01b038d169063d2681a0b906044016040805180830381865afa1580156107b6573d6000803e3d6000fd5b505050506040513d601f19601f820116820180604052508101906107da9190613175565b915091508260a0015183608001516000196107f5919061338b565b6107ff919061338b565b881061080d5760001961082b565b60a08301516080840151610821908a61321a565b61082b919061321a565b610835828461321a565b118061086d5750608083015161084d9060001961338b565b891061085b5760001961086a565b608083015161086a908a61321a565b82115b1561088b57604051632c1b6b4160e21b815260040160405180910390fd5b505050505050505050505050565b60408051600180825281830190925260009160208083019080368337505060408051600180825281830190925292935060009291506020808301908036833701905050905060606108e8612c68565b876001600160a01b03166338d52e0f6040518163ffffffff1660e01b8152600401602060405180830381865afa158015610926573d6000803e3d6000fd5b505050506040513d601f19601f8201168201806040525081019061094a9190613142565b8360008151811061095d5761095d61315f565b6001600160a01b039283166020918202929092010152604051632f2e037160e11b81523360048201526000918a1690635e5c06e290602401606060405180830381865afa1580156109b2573d6000803e3d6000fd5b505050506040513d601f19601f820116820180604052508101906109d6919061339e565b60405163023effef60e51b8152600481018290529093506001600160a01b038c1692506347dffde09150602401602060405180830381865afa158015610a20573d6000803e3d6000fd5b505050506040513d601f19601f82011682018060405250810190610a449190613199565b608083015250600080610a588a8a896126a5565b91509150610b12600186600081518110610a7457610a7461315f565b60209081029190910101516040516370a0823160e01b81526001600160a01b037f000000000000000000000000000000000000000000000000000000000000000081166004830152909116906370a0823190602401602060405180830381865afa158015610ae6573d6000803e3d6000fd5b505050506040513d601f19601f82011682018060405250810190610b0a9190613199565b849190612998565b60608401819052610b2390826131c8565b9050610b3f60018460600151846129989092919063ffffffff16565b86600081518110610b5257610b5261315f565b60209081029190910101526060830151610b6d9060026131ea565b67ffffffffffffffff811115610b8557610b85612e81565b604051908082528060200260200182016040528015610bb857816020015b6060815260200190600190039081610ba35790505b50600060c085015293505b82606001518360c001511015610d3157604051602481018a905260448101829052600019606482015233608482015260a40160408051601f198184030181529181526020820180516001600160e01b0316633c6f317f60e01b179052840180518691610c2e82613201565b905281518110610c4057610c4061315f565b602002602001018190525085600081518110610c5e57610c5e61315f565b602002602001015183606001518460c001516001610c7c919061321a565b14610c875730610ca9565b7f00000000000000000000000000000000000000000000000000000000000000005b60405160248101929092526001600160a01b0316604482015233606482015260840160408051601f198184030181529181526020820180516001600160e01b0316633545906160e21b179052840180518691610d0482613201565b905281518110610d1657610d1661315f565b602090810291909101015260c0830180516001019052610bc3565b7f00000000000000000000000000000000000000000000000000000000000000006001600160a01b0316635c38449e308789610d798f8a6040516020016106fa92919061327d565b6040518563ffffffff1660e01b8152600401610d9894939291906132ef565b600060405180830381600087803b158015610db257600080fd5b505af1158015610dc6573d6000803e3d6000fd5b5050604051632f2e037160e11b8152336004820152600092506001600160a01b038d169150635e5c06e290602401606060405180830381865afa158015610e11573d6000803e3d6000fd5b505050506040513d601f19601f82011682018060405250810190610e35919061339e565b608087015160405163023effef60e51b81526004810183905291945092506001600160a01b038e1691506347dffde090602401602060405180830381865afa158015610e85573d6000803e3d6000fd5b505050506040513d601f19601f82011682018060405250810190610ea99190613199565b610eb3919061338b565b891015610ed357604051632c1b6b4160e21b815260040160405180910390fd5b5050505050505050505050565b6040805160018082528183019092526000916020808301908036833750506040805160018082528183019092529293506000929150602080830190803683370190505090506060610f2f612c68565b876001600160a01b03166338d52e0f6040518163ffffffff1660e01b8152600401602060405180830381865afa158015610f6d573d6000803e3d6000fd5b505050506040513d601f19601f82011682018060405250810190610f919190613142565b83600081518110610fa457610fa461315f565b6001600160a01b03928316602091820292909201015260405163d2681a0b60e01b8152600481018990523360248201529089169063d2681a0b906044016040805180830381865afa158015610ffd573d6000803e3d6000fd5b505050506040513d601f19601f820116820180604052508101906110219190613175565b60a08301526080820152604051632f2e037160e11b81523360048201526000906001600160a01b038a1690635e5c06e290602401606060405180830381865afa158015611072573d6000803e3d6000fd5b505050506040513d601f19601f82011682018060405250810190611096919061339e565b92505050886001600160a01b03166347dffde0670de0b6b3a764000088106110be57826110c8565b6110c883896129c6565b6040518263ffffffff1660e01b81526004016110e691815260200190565b602060405180830381865afa158015611103573d6000803e3d6000fd5b505050506040513d601f19601f820116820180604052508101906111279190613199565b8260200181815250506111ea6001856000815181106111485761114861315f565b60209081029190910101516040516370a0823160e01b81526001600160a01b037f000000000000000000000000000000000000000000000000000000000000000081166004830152909116906370a0823190602401602060405180830381865afa1580156111ba573d6000803e3d6000fd5b505050506040513d601f19601f820116820180604052508101906111de9190613199565b60208501519190612998565b60608301819052602083015161120291600190612998565b856000815181106112155761121561315f565b602090810291909101015260608201516112309060026131ea565b67ffffffffffffffff81111561124857611248612e81565b60405190808252806020026020018201604052801561127b57816020015b60608152602001906001900390816112665790505b50600060c084015292505b81606001518260c00151101561146b5760c0820151156112b957816060015182602001516112b491906131c8565b6112d5565b846000815181106112cc576112cc61315f565b60200260200101515b604051602481019190915233604482015260640160408051601f198184030181529181526020820180516001600160e01b031663acb7081560e01b17905283018051859161132282613201565b9052815181106113345761133461315f565b60200260200101819052508782606001518360c001516001611356919061321a565b14611374578260600151836020015161136f91906131c8565b611390565b856000815181106113875761138761315f565b60200260200101515b60001984606001518560c0015160016113a9919061321a565b146113b457306113d6565b7f00000000000000000000000000000000000000000000000000000000000000005b6040516024810194909452604484019290925260648301526001600160a01b031660848201523360a482015260c40160408051601f198184030181529181526020820180516001600160e01b0316630d2dcf3160e11b17905283018051859161143e82613201565b9052815181106114505761145061315f565b602090810291909101015260c0820180516001019052611286565b7f00000000000000000000000000000000000000000000000000000000000000006001600160a01b0316635c38449e3086886114b38e896040516020016106fa92919061327d565b6040518563ffffffff1660e01b81526004016114d294939291906132ef565b600060405180830381600087803b1580156114ec57600080fd5b505af1158015611500573d6000803e3d6000fd5b505060405163d2681a0b60e01b8152600481018b9052336024820152600092508291506001600160a01b038c169063d2681a0b906044016040805180830381865afa158015611553573d6000803e3d6000fd5b505050506040513d601f19601f820116820180604052508101906115779190613175565b915091508360a0015184608001518284611591919061321a565b610ea9919061338b565b606060007f00000000000000000000000000000000000000000000000000000000000000006001600160a01b031663375a7cba6040518163ffffffff1660e01b8152600401600060405180830381865afa1580156115fd573d6000803e3d6000fd5b505050506040513d6000823e601f3d908101601f1916820160405261162591908101906133cc565b5190508067ffffffffffffffff81111561164157611641612e81565b60405190808252806020026020018201604052801561168657816020015b604080518082019091526000808252602082015281526020019060019003908161165f5790505b50915060005b81811015611855576040516308cae55b60e21b8152600481018290526000907f00000000000000000000000000000000000000000000000000000000000000006001600160a01b03169063232b956c90602401602060405180830381865afa1580156116fc573d6000803e3d6000fd5b505050506040513d601f19601f820116820180604052508101906117209190613142565b6001600160a01b03166338d52e0f6040518163ffffffff1660e01b8152600401602060405180830381865afa15801561175d573d6000803e3d6000fd5b505050506040513d601f19601f820116820180604052508101906117819190613142565b6040805180820182526001600160a01b0380841680835292516370a0823160e01b81527f00000000000000000000000000000000000000000000000000000000000000009091166004820152929350916020830191906370a0823190602401602060405180830381865afa1580156117fd573d6000803e3d6000fd5b505050506040513d601f19601f820116820180604052508101906118219190613199565b8152508483815181106118365761183661315f565b602002602001018190525050808061184d90613201565b91505061168c565b505090565b600054610100900460ff161580801561187a5750600054600160ff909116105b806118945750303b158015611894575060005460ff166001145b61189d57600080fd5b6000805460ff1916600117905580156118c0576000805461ff0019166101001790555b60007f00000000000000000000000000000000000000000000000000000000000000006001600160a01b031663375a7cba6040518163ffffffff1660e01b8152600401600060405180830381865afa158015611920573d6000803e3d6000fd5b505050506040513d6000823e601f3d908101601f1916820160405261194891908101906133cc565b905060005b8151811015611a1357611a0182828151811061196b5761196b61315f565b60200260200101516000198484815181106119885761198861315f565b60200260200101516001600160a01b03166338d52e0f6040518163ffffffff1660e01b8152600401602060405180830381865afa1580156119cd573d6000803e3d6000fd5b505050506040513d601f19601f820116820180604052508101906119f19190613142565b6001600160a01b031691906129e4565b80611a0b81613201565b91505061194d565b50508015611a5b576000805461ff0019169055604051600181527f7f26b83ff96e1f2b6a682f133852f6798a09c465da95921460cefb38474024989060200160405180910390a15b50565b6040805160018082528183019092526000916020808301908036833750506040805160018082528183019092529293506000929150602080830190803683375050604080516002808252606082019092529293506000929150602082015b6060815260200190600190039081611abc5790505090506000876001600160a01b03166338d52e0f6040518163ffffffff1660e01b8152600401602060405180830381865afa158015611b13573d6000803e3d6000fd5b505050506040513d601f19601f82011682018060405250810190611b379190613142565b90508415611b5457611b546001600160a01b03821633308a612a33565b604051638e8f294b60e01b81526001600160a01b0389811660048301526000917f000000000000000000000000000000000000000000000000000000000000000090911690638e8f294b9060240160a060405180830381865afa158015611bbf573d6000803e3d6000fd5b505050506040513d601f19601f82011682018060405250810190611be3919061346a565b505050506001600160801b031690506000611c1188611c0b84856129c690919063ffffffff16565b90612a87565b90508285600081518110611c2757611c2761315f565b6001600160a01b0390921660209283029190910190910152611c5e611c5482670de0b6b3a764000061338b565b611c0b8b846129c6565b86600081518110611c7157611c7161315f565b60200260200101818152505086611c89576000611c8b565b885b86600081518110611c9e57611c9e61315f565b6020026020010151611cb0919061321a565b604051602481019190915233604482015260640160408051601f198184030181529190526020810180516001600160e01b0316636e553f6560e01b17905284518590600090611d0157611d0161315f565b602002602001018190525085600081518110611d1f57611d1f61315f565b602090810291909101015160405160248101919091526001600160a01b037f000000000000000000000000000000000000000000000000000000000000000016604482015233606482015260840160408051601f198184030181529190526020810180516001600160e01b0316633545906160e21b179052845185906001908110611dac57611dac61315f565b60200260200101819052507f00000000000000000000000000000000000000000000000000000000000000006001600160a01b0316635c38449e308789611dff8f8a6040516020016106fa92919061327d565b6040518563ffffffff1660e01b8152600401611e1e94939291906132ef565b600060405180830381600087803b158015611e3857600080fd5b505af1158015611e4c573d6000803e3d6000fd5b5050505050505050505050505050565b8483826001600160a01b03831663d505accf611e7b6020840184612e5d565b30856020860135611e9260608801604089016134eb565b876060013588608001356040518863ffffffff1660e01b8152600401611ebe9796959493929190613508565b600060405180830381600087803b158015611ed857600080fd5b505af1158015611eec573d6000803e3d6000fd5b50505050611efc88888888610ee0565b5050505050505050565b604051638e8f294b60e01b81526001600160a01b0382811660048301526000917f000000000000000000000000000000000000000000000000000000000000000090911690638e8f294b9060240160a060405180830381865afa158015611f71573d6000803e3d6000fd5b505050506040513d601f19601f82011682018060405250810190611f95919061346a565b50935050505080611fb9576040516334b04fe360e11b815260040160405180910390fd5b611ffe82600019846001600160a01b03166338d52e0f6040518163ffffffff1660e01b8152600401602060405180830381865afa1580156119cd573d6000803e3d6000fd5b5050565b8483826001600160a01b03831663d505accf6120216020840184612e5d565b3085602086013561203860608801604089016134eb565b876060013588608001356040518863ffffffff1660e01b81526004016120649796959493929190613508565b600060405180830381600087803b15801561207e57600080fd5b505af1158015612092573d6000803e3d6000fd5b50505050611efc88888888610899565b600154336001600160a01b037f0000000000000000000000000000000000000000000000000000000000000000161480156120dc57508015155b80156120ed57508151602083012081145b6120f9576120f9613549565b6000600181905582518190612117908501602090810190860161355f565b9150915060005b8151811015611efc5761216d82828151811061213c5761213c61315f565b602002602001015160405180602001604052806000815250856001600160a01b0316612a9c9092919063ffffffff16565b5060010161211e565b8683826001600160a01b03831663d505accf6121956020840184612e5d565b308560208601356121ac60608801604089016134eb565b876060013588608001356040518863ffffffff1660e01b81526004016121d89796959493929190613508565b600060405180830381600087803b1580156121f257600080fd5b505af1158015612206573d6000803e3d6000fd5b505050506122188a8a8a8a8a8a610237565b50505050505050505050565b6040805160018082528183019092526000916020808301908036833750506040805160018082528183019092529293506000929150602080830190803683375050604080516002808252606082019092529293506000929150602082015b6060815260200190600190039081612282579050509050866001600160a01b03166338d52e0f6040518163ffffffff1660e01b8152600401602060405180830381865afa1580156122d7573d6000803e3d6000fd5b505050506040513d601f19601f820116820180604052508101906122fb9190613142565b8260008151811061230e5761230e61315f565b60200260200101906001600160a01b031690816001600160a01b031681525050856000036124c957604051632f2e037160e11b81523360048201526000906001600160a01b03891690635e5c06e290602401606060405180830381865afa15801561237d573d6000803e3d6000fd5b505050506040513d601f19601f820116820180604052508101906123a1919061339e565b925050506001600160a01b0388166347dffde06123be83886129c6565b6040518263ffffffff1660e01b81526004016123dc91815260200190565b602060405180830381865afa1580156123f9573d6000803e3d6000fd5b505050506040513d601f19601f8201168201806040525081019061241d9190613199565b846000815181106124305761243061315f565b6020026020010181815250508360008151811061244f5761244f61315f565b60200260200101513360405160240161247b9291909182526001600160a01b0316602082015260400190565b60408051601f198184030181529190526020810180516001600160e01b031663acb7081560e01b179052825183906000906124b8576124b861315f565b602002602001018190525050612565565b60006124d68888876126a5565b856000815181106124e9576124e961315f565b602090810291909101019190915260405160248101899052604481018290526064810188905233608482015290915060a40160408051601f198184030181529190526020810180516001600160e01b0316633c6f317f60e01b179052825183906000906125585761255861315f565b6020026020010181905250505b826000815181106125785761257861315f565b602090810291909101015160405160248101919091526001600160a01b037f000000000000000000000000000000000000000000000000000000000000000016604482015233606482015260840160408051601f198184030181529190526020810180516001600160e01b0316632d182be560e21b1790528151829060019081106126055761260561315f565b60200260200101819052507f00000000000000000000000000000000000000000000000000000000000000006001600160a01b0316635c38449e3084866126588c876040516020016106fa92919061327d565b6040518563ffffffff1660e01b815260040161267794939291906132ef565b600060405180830381600087803b15801561269157600080fd5b505af1158015610ed3573d6000803e3d6000fd5b6000806126c5604051806040016040528060008152602001600081525090565b60405163d2681a0b60e01b8152600481018690523360248201526001600160a01b0387169063d2681a0b906044016040805180830381865afa15801561270f573d6000803e3d6000fd5b505050506040513d601f19601f820116820180604052508101906127339190613175565b60208301528152670de0b6b3a7640000841061275f576020810151815161275a919061321a565b61277a565b6020810151815161277a916127739161321a565b85906129c6565b915084421015612902576127af6040518060800160405280600081526020016000815260200160008152602001600081525090565b604051634e7c505960e01b8152600481018790526001600160a01b03881690634e7c505990602401608060405180830381865afa1580156127f4573d6000803e3d6000fd5b505050506040513d601f19601f820116820180604052508101906128189190613662565b606085018190526040850191909152602084019190915290825261285b90612840904261338b565b606083015161284f908961338b565b60408401519190612ab3565b8160400181815161286c919061338b565b90525060006128ec61287e8486612ad2565b60000151896001600160a01b031663a1e8f02b6040518163ffffffff1660e01b8152600401602060405180830381865afa1580156128c0573d6000803e3d6000fd5b505050506040513d601f19601f820116820180604052508101906128e49190613199565b849190612b22565b5090506128f9818561338b565b9450505061298f565b612982866001600160a01b031663d6b7494f6040518163ffffffff1660e01b8152600401602060405180830381865afa158015612943573d6000803e3d6000fd5b505050506040513d601f19601f820116820180604052508101906129679190613199565b612971874261338b565b61297b91906131ea565b83906129c6565b61298c908361321a565b92505b50935093915050565b8282028115158415858304851417166129b057600080fd5b6001826001830304018115150290509392505050565b60006129db8383670de0b6b3a7640000612ab3565b90505b92915050565b600060405163095ea7b360e01b6000528360045282602452602060006044600080895af13d15601f3d1160016000511416171691506000606052806040525080612a2d57600080fd5b50505050565b60006040516323b872dd60e01b6000528460045283602452826044526020600060646000808a5af13d15601f3d1160016000511416171691506000606052806040525080612a8057600080fd5b5050505050565b60006129db83670de0b6b3a764000084612ab3565b6060612aab8484600085612b69565b949350505050565b828202811515841585830485141716612acb57600080fd5b0492915050565b604080518082019091526000808252602082015282516020840151600091612b0691612afe908261321a565b859190612ab3565b8085529050612b15818461338b565b6020850152509192915050565b6000806000612b3086612bf2565b9050801561298f57612b51612b458683612c11565b60408801519083612ab3565b9250612b5d83856129c6565b915061298c828461338b565b606082471015612b7857600080fd5b600080866001600160a01b03168587604051612b949190613698565b60006040518083038185875af1925050503d8060008114612bd1576040519150601f19603f3d011682016040523d82523d6000602084013e612bd6565b606091505b5091509150612be787838387612c27565b979650505050505050565b8051602082015160009190612c078282612c11565b612aab908361338b565b6000818310612c2057816129db565b5090919050565b60608315612c53578251600003612c4c576001600160a01b0385163b612c4c57600080fd5b5081612aab565b612aab83838151156100ea5781518083602001fd5b6040518060e00160405280600081526020016000815260200160008152602001600081526020016000815260200160008152602001600081525090565b6001600160a01b0381168114611a5b57600080fd5b60008060008060008060c08789031215612cd357600080fd5b8635612cde81612ca5565b9860208801359850604088013597606081013597506080810135965060a00135945092505050565b60008060008060808587031215612d1c57600080fd5b8435612d2781612ca5565b966020860135965060408601359560600135945092505050565b602080825282518282018190526000919060409081850190868401855b82811015612d8c57815180516001600160a01b03168552860151868501529284019290850190600101612d5e565b5091979650505050505050565b8015158114611a5b57600080fd5b60008060008060808587031215612dbd57600080fd5b8435612dc881612ca5565b935060208501359250604085013591506060850135612de681612d99565b939692955090935050565b600060a08284031215612e0357600080fd5b50919050565b60008060008060006101208688031215612e2257600080fd5b8535612e2d81612ca5565b9450602086013593506040860135925060608601359150612e518760808801612df1565b90509295509295909350565b600060208284031215612e6f57600080fd5b8135612e7a81612ca5565b9392505050565b634e487b7160e01b600052604160045260246000fd5b604051601f8201601f1916810167ffffffffffffffff81118282101715612ec057612ec0612e81565b604052919050565b600067ffffffffffffffff821115612ee257612ee2612e81565b5060051b60200190565b600082601f830112612efd57600080fd5b81356020612f12612f0d83612ec8565b612e97565b82815260059290921b84018101918181019086841115612f3157600080fd5b8286015b84811015612f4c5780358352918301918301612f35565b509695505050505050565b600067ffffffffffffffff821115612f7157612f71612e81565b50601f01601f191660200190565b600082601f830112612f9057600080fd5b8135612f9e612f0d82612f57565b818152846020838601011115612fb357600080fd5b816020850160208301376000918101602001919091529392505050565b60008060008060808587031215612fe657600080fd5b843567ffffffffffffffff80821115612ffe57600080fd5b818701915087601f83011261301257600080fd5b81356020613022612f0d83612ec8565b82815260059290921b8401810191818101908b84111561304157600080fd5b948201945b8386101561306857853561305981612ca5565b82529482019490820190613046565b9850508801359250508082111561307e57600080fd5b61308a88838901612eec565b945060408701359150808211156130a057600080fd5b6130ac88838901612eec565b935060608701359150808211156130c257600080fd5b506130cf87828801612f7f565b91505092959194509250565b6000806000806000806000610160888a0312156130f757600080fd5b873561310281612ca5565b96506020880135955060408801359450606088013593506080880135925060a088013591506131348960c08a01612df1565b905092959891949750929550565b60006020828403121561315457600080fd5b8151612e7a81612ca5565b634e487b7160e01b600052603260045260246000fd5b6000806040838503121561318857600080fd5b505080516020909101519092909150565b6000602082840312156131ab57600080fd5b5051919050565b634e487b7160e01b600052601160045260246000fd5b6000826131e557634e487b7160e01b600052601260045260246000fd5b500490565b80820281158282048414176129de576129de6131b2565b600060018201613213576132136131b2565b5060010190565b808201808211156129de576129de6131b2565b60005b83811015613248578181015183820152602001613230565b50506000910152565b6000815180845261326981602086016020860161322d565b601f01601f19169290920160200192915050565b60006040820160018060a01b0385168352602060408185015281855180845260608601915060608160051b870101935082870160005b828110156132e157605f198887030184526132cf868351613251565b955092840192908401906001016132b3565b509398975050505050505050565b6001600160a01b0385811682526080602080840182905286519184018290526000928782019290919060a0860190855b8181101561333d57855185168352948301949183019160010161331f565b5050858103604087015287518082529082019350915080870160005b8381101561337557815185529382019390820190600101613359565b505050508281036060840152612be78185613251565b818103818111156129de576129de6131b2565b6000806000606084860312156133b357600080fd5b8351925060208401519150604084015190509250925092565b600060208083850312156133df57600080fd5b825167ffffffffffffffff8111156133f657600080fd5b8301601f8101851361340757600080fd5b8051613415612f0d82612ec8565b81815260059190911b8201830190838101908783111561343457600080fd5b928401925b82841015612be757835161344c81612ca5565b82529284019290840190613439565b60ff81168114611a5b57600080fd5b600080600080600060a0868803121561348257600080fd5b85516001600160801b038116811461349957600080fd5b60208701519095506134aa8161345b565b60408701519094506134bb8161345b565b60608701519093506134cc81612d99565b60808701519092506134dd81612ca5565b809150509295509295909350565b6000602082840312156134fd57600080fd5b8135612e7a8161345b565b6001600160a01b0397881681529590961660208601526040850193909352606084019190915260ff16608083015260a082015260c081019190915260e00190565b634e487b7160e01b600052600160045260246000fd5b600080604080848603121561357357600080fd5b835161357e81612ca5565b8093505060208085015167ffffffffffffffff8082111561359e57600080fd5b818701915087601f8301126135b257600080fd5b81516135c0612f0d82612ec8565b81815260059190911b8301840190848101908a8311156135df57600080fd5b8585015b83811015613650578051858111156135fb5760008081fd5b8601603f81018d1361360d5760008081fd5b8781015161361d612f0d82612f57565b8181528e8b8385010111156136325760008081fd5b613641828b83018d860161322d565b855250509186019186016135e3565b50809750505050505050509250929050565b6000806000806080858703121561367857600080fd5b505082516020840151604085015160609095015191969095509092509050565b600082516136aa81846020870161322d565b919091019291505056fea26469706673582212205b8af7cdf1ab05f84e235026d3ac5798d4996351f7ba9a2f425aaebdbcceca1f64736f6c63430008110033",
  "devdoc": {
    "kind": "dev",
    "methods": {
      "approve(address)": {
        "details": "The Market must be listed by the Auditor in order to be valid for approval.",
        "params": {
          "market": "The Market to spend the contract's balance."
        }
      },
      "constructor": {
        "custom:oz-upgrades-unsafe-allow": "constructor"
      },
      "deleverage(address,uint256,uint256,uint256)": {
        "params": {
          "market": "The Market to deleverage the position out.",
          "maturity": "The maturity of the fixed pool that the position is being deleveraged out of, `0` if floating.",
          "maxAssets": "Max amount of fixed debt that the sender is willing to accept.",
          "percentage": "The percentage of the borrow that will be repaid, represented with 18 decimals."
        }
      },
      "initialize()": {
        "details": "can only be called once."
      },
      "leverage(address,uint256,uint256,bool)": {
        "params": {
          "deposit": "True if the principal is being deposited, false if the principal is already deposited.",
          "market": "The Market to leverage the position in.",
          "principal": "The amount of assets to deposit or deposited.",
          "targetHealthFactor": "The desired target health factor that the account will be leveraged to."
        }
      },
      "receiveFlashLoan(address[],uint256[],uint256[],bytes)": {
        "details": "Only the Balancer Vault contract is allowed to call this function.",
        "params": {
          "userData": "Additional data provided by the borrower for the flash loan."
        }
      },
      "rollFixed(address,uint256,uint256,uint256,uint256,uint256)": {
        "params": {
          "borrowMaturity": "The maturity of the fixed pool that the position is being rolled to.",
          "market": "The Market to roll the position in.",
          "maxBorrowAssets": "Max amount of debt that the sender is willing to accept to be borrowed.",
          "maxRepayAssets": "Max amount of debt that the account is willing to accept to be repaid.",
          "percentage": "The percentage of the position that will be rolled, represented with 18 decimals.",
          "repayMaturity": "The maturity of the fixed pool that the position is being rolled from."
        }
      },
      "rollFixed(address,uint256,uint256,uint256,uint256,uint256,(address,uint256,uint8,bytes32,bytes32))": {
        "params": {
          "borrowMaturity": "The maturity of the fixed pool that the position is being rolled to.",
          "market": "The Market to roll the position in.",
          "maxBorrowAssets": "Max amount of debt that the sender is willing to accept to be borrowed.",
          "maxRepayAssets": "Max amount of debt that the account is willing to accept to be repaid.",
          "p": "Arguments for the permit call to `market` on behalf of `permit.account`.",
          "percentage": "The percentage of the position that will be rolled, represented with 18 decimals.",
          "repayMaturity": "The maturity of the fixed pool that the position is being rolled from."
        }
      },
      "rollFixedToFloating(address,uint256,uint256,uint256)": {
        "params": {
          "market": "The Market to roll the position in.",
          "maxRepayAssets": "Max amount of debt that the account is willing to accept to be repaid.",
          "percentage": "The percentage of the position that will be rolled, represented with 18 decimals.",
          "repayMaturity": "The maturity of the fixed pool that the position is being rolled from."
        }
      },
      "rollFixedToFloating(address,uint256,uint256,uint256,(address,uint256,uint8,bytes32,bytes32))": {
        "params": {
          "market": "The Market to roll the position in.",
          "maxRepayAssets": "Max amount of debt that the account is willing to accept to be repaid.",
          "p": "Arguments for the permit call to `market` on behalf of `permit.account`.",
          "percentage": "The percentage of the position that will be rolled, represented with 18 decimals.",
          "repayMaturity": "The maturity of the fixed pool that the position is being rolled from."
        }
      },
      "rollFloatingToFixed(address,uint256,uint256,uint256)": {
        "params": {
          "borrowMaturity": "The maturity of the fixed pool that the position is being rolled to.",
          "market": "The Market to roll the position in.",
          "maxBorrowAssets": "Max amount of debt that the sender is willing to accept to be borrowed.",
          "percentage": "The percentage of the position that will be rolled, represented with 18 decimals."
        }
      },
      "rollFloatingToFixed(address,uint256,uint256,uint256,(address,uint256,uint8,bytes32,bytes32))": {
        "params": {
          "borrowMaturity": "The maturity of the fixed pool that the position is being rolled to.",
          "market": "The Market to roll the position in.",
          "maxBorrowAssets": "Max amount of debt that the sender is willing to accept to be borrowed.",
          "p": "Arguments for the permit call to `market` on behalf of `permit.account`.",
          "percentage": "The percentage of the position that will be rolled, represented with 18 decimals."
        }
      }
    },
    "stateVariables": {
      "auditor": {
        "custom:oz-upgrades-unsafe-allow": "state-variable-immutable"
      },
      "balancerVault": {
        "custom:oz-upgrades-unsafe-allow": "state-variable-immutable"
      }
    },
    "title": "DebtManager",
    "version": 1
  },
  "userdoc": {
    "kind": "user",
    "methods": {
      "approve(address)": {
        "notice": "Approves the Market to spend the contract's balance of the underlying asset."
      },
      "auditor()": {
        "notice": "Auditor contract that lists the markets that can be leveraged."
      },
      "availableLiquidity()": {
        "notice": "Returns Balancer Vault's available liquidity of each enabled underlying asset."
      },
      "balancerVault()": {
        "notice": "Balancer's vault contract that is used to take flash loans."
      },
      "deleverage(address,uint256,uint256,uint256)": {
        "notice": "Deleverages the position of `msg.sender` a certain `percentage` by taking a flash loan from Balancer's vault to repay the borrow."
      },
      "initialize()": {
        "notice": "Initializes the contract."
      },
      "leverage(address,uint256,uint256,bool)": {
        "notice": "Leverages the floating position of `msg.sender` to match `targetHealthFactor` by taking a flash loan from Balancer's vault."
      },
      "receiveFlashLoan(address[],uint256[],uint256[],bytes)": {
        "notice": "Callback function called by the Balancer Vault contract when a flash loan is initiated."
      },
      "rollFixed(address,uint256,uint256,uint256,uint256,uint256)": {
        "notice": "Rolls a percentage of the fixed position of `msg.sender` to another fixed pool."
      },
      "rollFixed(address,uint256,uint256,uint256,uint256,uint256,(address,uint256,uint8,bytes32,bytes32))": {
        "notice": "Rolls a percentage of the fixed position of `msg.sender` to another fixed pool after calling `market.permit`."
      },
      "rollFixedToFloating(address,uint256,uint256,uint256)": {
        "notice": "Rolls a percentage of the fixed position of `msg.sender` to a floating position."
      },
      "rollFixedToFloating(address,uint256,uint256,uint256,(address,uint256,uint8,bytes32,bytes32))": {
        "notice": "Rolls a percentage of the fixed position of `msg.sender` to a floating position after calling `market.permit`."
      },
      "rollFloatingToFixed(address,uint256,uint256,uint256)": {
        "notice": "Rolls a percentage of the floating position of `msg.sender` to a fixed position."
      },
      "rollFloatingToFixed(address,uint256,uint256,uint256,(address,uint256,uint8,bytes32,bytes32))": {
        "notice": "Rolls a percentage of the floating position of `msg.sender` to a fixed position after calling `market.permit`."
      }
    },
    "notice": "Contract for efficient debt management of accounts interacting with Exactly Protocol.",
    "version": 1
  },
  "storageLayout": {
    "storage": [
      {
        "astId": 415,
        "contract": "contracts/periphery/DebtManager.sol:DebtManager",
        "label": "_initialized",
        "offset": 0,
        "slot": "0",
        "type": "t_uint8"
      },
      {
        "astId": 418,
        "contract": "contracts/periphery/DebtManager.sol:DebtManager",
        "label": "_initializing",
        "offset": 1,
        "slot": "0",
        "type": "t_bool"
      },
      {
        "astId": 12931,
        "contract": "contracts/periphery/DebtManager.sol:DebtManager",
        "label": "callHash",
        "offset": 0,
        "slot": "1",
        "type": "t_bytes32"
      }
    ],
    "types": {
      "t_bool": {
        "encoding": "inplace",
        "label": "bool",
        "numberOfBytes": "1"
      },
      "t_bytes32": {
        "encoding": "inplace",
        "label": "bytes32",
        "numberOfBytes": "32"
      },
      "t_uint8": {
        "encoding": "inplace",
        "label": "uint8",
        "numberOfBytes": "1"
      }
    }
  }
}