{
  "address": "0xe94E0068Ea2b8Ed9490d29Bb534D1BA996412567",
  "abi": [
    {
      "inputs": [
        {
          "internalType": "contract Auditor",
          "name": "auditor_",
          "type": "address"
        },
        {
          "internalType": "contract IPermit2",
          "name": "permit2_",
          "type": "address"
        },
        {
          "internalType": "contract IBalancerVault",
          "name": "balancerVault_",
          "type": "address"
        },
        {
          "internalType": "address",
          "name": "uniswapV3Factory_",
          "type": "address"
        }
      ],
      "stateMutability": "nonpayable",
      "type": "constructor"
    },
    {
      "inputs": [],
      "name": "Disagreement",
      "type": "error"
    },
    {
      "inputs": [],
      "name": "InvalidOperation",
      "type": "error"
    },
    {
      "inputs": [],
      "name": "MarketNotListed",
      "type": "error"
    },
    {
      "anonymous": false,
      "inputs": [
        {
          "indexed": false,
          "internalType": "uint8",
          "name": "version",
          "type": "uint8"
        }
      ],
      "name": "Initialized",
      "type": "event"
    },
    {
      "inputs": [
        {
          "internalType": "contract Market",
          "name": "market",
          "type": "address"
        }
      ],
      "name": "approve",
      "outputs": [],
      "stateMutability": "nonpayable",
      "type": "function"
    },
    {
      "inputs": [],
      "name": "auditor",
      "outputs": [
        {
          "internalType": "contract Auditor",
          "name": "",
          "type": "address"
        }
      ],
      "stateMutability": "view",
      "type": "function"
    },
    {
      "inputs": [],
      "name": "balancerVault",
      "outputs": [
        {
          "internalType": "contract IBalancerVault",
          "name": "",
          "type": "address"
        }
      ],
      "stateMutability": "view",
      "type": "function"
    },
    {
      "inputs": [
        {
          "internalType": "contract Market",
          "name": "marketIn",
          "type": "address"
        },
        {
          "internalType": "contract Market",
          "name": "marketOut",
          "type": "address"
        },
        {
          "internalType": "uint24",
          "name": "fee",
          "type": "uint24"
        },
        {
          "internalType": "uint256",
          "name": "withdraw",
          "type": "uint256"
        },
        {
          "internalType": "uint256",
          "name": "ratio",
          "type": "uint256"
        },
        {
          "internalType": "uint160",
          "name": "sqrtPriceLimitX96",
          "type": "uint160"
        },
        {
          "internalType": "uint256",
          "name": "permitAssets",
          "type": "uint256"
        },
        {
          "components": [
            {
              "internalType": "address",
              "name": "account",
              "type": "address"
            },
            {
              "internalType": "uint256",
              "name": "deadline",
              "type": "uint256"
            },
            {
              "internalType": "uint8",
              "name": "v",
              "type": "uint8"
            },
            {
              "internalType": "bytes32",
              "name": "r",
              "type": "bytes32"
            },
            {
              "internalType": "bytes32",
              "name": "s",
              "type": "bytes32"
            }
          ],
          "internalType": "struct Permit",
          "name": "p",
          "type": "tuple"
        }
      ],
      "name": "crossDeleverage",
      "outputs": [],
      "stateMutability": "nonpayable",
      "type": "function"
    },
    {
      "inputs": [
        {
          "internalType": "contract Market",
          "name": "marketIn",
          "type": "address"
        },
        {
          "internalType": "contract Market",
          "name": "marketOut",
          "type": "address"
        },
        {
          "internalType": "uint24",
          "name": "fee",
          "type": "uint24"
        },
        {
          "internalType": "uint256",
          "name": "withdraw",
          "type": "uint256"
        },
        {
          "internalType": "uint256",
          "name": "ratio",
          "type": "uint256"
        },
        {
          "internalType": "uint160",
          "name": "sqrtPriceLimitX96",
          "type": "uint160"
        }
      ],
      "name": "crossDeleverage",
      "outputs": [],
      "stateMutability": "nonpayable",
      "type": "function"
    },
    {
      "inputs": [
        {
          "internalType": "contract Market",
          "name": "marketIn",
          "type": "address"
        },
        {
          "internalType": "contract Market",
          "name": "marketOut",
          "type": "address"
        },
        {
          "internalType": "uint24",
          "name": "fee",
          "type": "uint24"
        },
        {
          "internalType": "uint256",
          "name": "deposit",
          "type": "uint256"
        },
        {
          "internalType": "uint256",
          "name": "ratio",
          "type": "uint256"
        },
        {
          "internalType": "uint160",
          "name": "sqrtPriceLimitX96",
          "type": "uint160"
        },
        {
          "internalType": "uint256",
          "name": "borrowAssets",
          "type": "uint256"
        },
        {
          "components": [
            {
              "internalType": "address",
              "name": "account",
              "type": "address"
            },
            {
              "internalType": "uint256",
              "name": "deadline",
              "type": "uint256"
            },
            {
              "internalType": "uint8",
              "name": "v",
              "type": "uint8"
            },
            {
              "internalType": "bytes32",
              "name": "r",
              "type": "bytes32"
            },
            {
              "internalType": "bytes32",
              "name": "s",
              "type": "bytes32"
            }
          ],
          "internalType": "struct Permit",
          "name": "marketPermit",
          "type": "tuple"
        },
        {
          "components": [
            {
              "internalType": "address",
              "name": "account",
              "type": "address"
            },
            {
              "internalType": "uint256",
              "name": "deadline",
              "type": "uint256"
            },
            {
              "internalType": "uint8",
              "name": "v",
              "type": "uint8"
            },
            {
              "internalType": "bytes32",
              "name": "r",
              "type": "bytes32"
            },
            {
              "internalType": "bytes32",
              "name": "s",
              "type": "bytes32"
            }
          ],
          "internalType": "struct Permit",
          "name": "assetPermit",
          "type": "tuple"
        }
      ],
      "name": "crossLeverage",
      "outputs": [],
      "stateMutability": "nonpayable",
      "type": "function"
    },
    {
      "inputs": [
        {
          "internalType": "contract Market",
          "name": "marketIn",
          "type": "address"
        },
        {
          "internalType": "contract Market",
          "name": "marketOut",
          "type": "address"
        },
        {
          "internalType": "uint24",
          "name": "fee",
          "type": "uint24"
        },
        {
          "internalType": "uint256",
          "name": "deposit",
          "type": "uint256"
        },
        {
          "internalType": "uint256",
          "name": "ratio",
          "type": "uint256"
        },
        {
          "internalType": "uint160",
          "name": "sqrtPriceLimitX96",
          "type": "uint160"
        },
        {
          "internalType": "uint256",
          "name": "borrowAssets",
          "type": "uint256"
        },
        {
          "components": [
            {
              "internalType": "address",
              "name": "account",
              "type": "address"
            },
            {
              "internalType": "uint256",
              "name": "deadline",
              "type": "uint256"
            },
            {
              "internalType": "uint8",
              "name": "v",
              "type": "uint8"
            },
            {
              "internalType": "bytes32",
              "name": "r",
              "type": "bytes32"
            },
            {
              "internalType": "bytes32",
              "name": "s",
              "type": "bytes32"
            }
          ],
          "internalType": "struct Permit",
          "name": "marketPermit",
          "type": "tuple"
        },
        {
          "components": [
            {
              "internalType": "uint256",
              "name": "deadline",
              "type": "uint256"
            },
            {
              "internalType": "bytes",
              "name": "signature",
              "type": "bytes"
            }
          ],
          "internalType": "struct Permit2",
          "name": "assetPermit",
          "type": "tuple"
        }
      ],
      "name": "crossLeverage",
      "outputs": [],
      "stateMutability": "nonpayable",
      "type": "function"
    },
    {
      "inputs": [
        {
          "internalType": "contract Market",
          "name": "marketIn",
          "type": "address"
        },
        {
          "internalType": "contract Market",
          "name": "marketOut",
          "type": "address"
        },
        {
          "internalType": "uint24",
          "name": "fee",
          "type": "uint24"
        },
        {
          "internalType": "uint256",
          "name": "deposit",
          "type": "uint256"
        },
        {
          "internalType": "uint256",
          "name": "ratio",
          "type": "uint256"
        },
        {
          "internalType": "uint160",
          "name": "sqrtPriceLimitX96",
          "type": "uint160"
        }
      ],
      "name": "crossLeverage",
      "outputs": [],
      "stateMutability": "nonpayable",
      "type": "function"
    },
    {
      "inputs": [
        {
          "internalType": "contract Market",
          "name": "market",
          "type": "address"
        },
        {
          "internalType": "uint256",
          "name": "withdraw",
          "type": "uint256"
        },
        {
          "internalType": "uint256",
          "name": "ratio",
          "type": "uint256"
        }
      ],
      "name": "deleverage",
      "outputs": [],
      "stateMutability": "nonpayable",
      "type": "function"
    },
    {
      "inputs": [
        {
          "internalType": "contract Market",
          "name": "market",
          "type": "address"
        },
        {
          "internalType": "uint256",
          "name": "withdraw",
          "type": "uint256"
        },
        {
          "internalType": "uint256",
          "name": "ratio",
          "type": "uint256"
        },
        {
          "internalType": "uint256",
          "name": "permitAssets",
          "type": "uint256"
        },
        {
          "components": [
            {
              "internalType": "address",
              "name": "account",
              "type": "address"
            },
            {
              "internalType": "uint256",
              "name": "deadline",
              "type": "uint256"
            },
            {
              "internalType": "uint8",
              "name": "v",
              "type": "uint8"
            },
            {
              "internalType": "bytes32",
              "name": "r",
              "type": "bytes32"
            },
            {
              "internalType": "bytes32",
              "name": "s",
              "type": "bytes32"
            }
          ],
          "internalType": "struct Permit",
          "name": "p",
          "type": "tuple"
        }
      ],
      "name": "deleverage",
      "outputs": [],
      "stateMutability": "nonpayable",
      "type": "function"
    },
    {
      "inputs": [],
      "name": "initialize",
      "outputs": [],
      "stateMutability": "nonpayable",
      "type": "function"
    },
    {
      "inputs": [
        {
          "internalType": "contract Market",
          "name": "market",
          "type": "address"
        },
        {
          "internalType": "uint256",
          "name": "deposit",
          "type": "uint256"
        },
        {
          "internalType": "uint256",
          "name": "ratio",
          "type": "uint256"
        },
        {
          "internalType": "uint256",
          "name": "borrowAssets",
          "type": "uint256"
        },
        {
          "components": [
            {
              "internalType": "address",
              "name": "account",
              "type": "address"
            },
            {
              "internalType": "uint256",
              "name": "deadline",
              "type": "uint256"
            },
            {
              "internalType": "uint8",
              "name": "v",
              "type": "uint8"
            },
            {
              "internalType": "bytes32",
              "name": "r",
              "type": "bytes32"
            },
            {
              "internalType": "bytes32",
              "name": "s",
              "type": "bytes32"
            }
          ],
          "internalType": "struct Permit",
          "name": "marketPermit",
          "type": "tuple"
        }
      ],
      "name": "leverage",
      "outputs": [],
      "stateMutability": "nonpayable",
      "type": "function"
    },
    {
      "inputs": [
        {
          "internalType": "contract Market",
          "name": "market",
          "type": "address"
        },
        {
          "internalType": "uint256",
          "name": "deposit",
          "type": "uint256"
        },
        {
          "internalType": "uint256",
          "name": "ratio",
          "type": "uint256"
        }
      ],
      "name": "leverage",
      "outputs": [],
      "stateMutability": "nonpayable",
      "type": "function"
    },
    {
      "inputs": [
        {
          "internalType": "contract Market",
          "name": "market",
          "type": "address"
        },
        {
          "internalType": "uint256",
          "name": "deposit",
          "type": "uint256"
        },
        {
          "internalType": "uint256",
          "name": "ratio",
          "type": "uint256"
        },
        {
          "internalType": "uint256",
          "name": "borrowAssets",
          "type": "uint256"
        },
        {
          "components": [
            {
              "internalType": "address",
              "name": "account",
              "type": "address"
            },
            {
              "internalType": "uint256",
              "name": "deadline",
              "type": "uint256"
            },
            {
              "internalType": "uint8",
              "name": "v",
              "type": "uint8"
            },
            {
              "internalType": "bytes32",
              "name": "r",
              "type": "bytes32"
            },
            {
              "internalType": "bytes32",
              "name": "s",
              "type": "bytes32"
            }
          ],
          "internalType": "struct Permit",
          "name": "marketPermit",
          "type": "tuple"
        },
        {
          "components": [
            {
              "internalType": "address",
              "name": "account",
              "type": "address"
            },
            {
              "internalType": "uint256",
              "name": "deadline",
              "type": "uint256"
            },
            {
              "internalType": "uint8",
              "name": "v",
              "type": "uint8"
            },
            {
              "internalType": "bytes32",
              "name": "r",
              "type": "bytes32"
            },
            {
              "internalType": "bytes32",
              "name": "s",
              "type": "bytes32"
            }
          ],
          "internalType": "struct Permit",
          "name": "assetPermit",
          "type": "tuple"
        }
      ],
      "name": "leverage",
      "outputs": [],
      "stateMutability": "nonpayable",
      "type": "function"
    },
    {
      "inputs": [
        {
          "internalType": "contract Market",
          "name": "market",
          "type": "address"
        },
        {
          "internalType": "uint256",
          "name": "deposit",
          "type": "uint256"
        },
        {
          "internalType": "uint256",
          "name": "ratio",
          "type": "uint256"
        },
        {
          "internalType": "uint256",
          "name": "borrowAssets",
          "type": "uint256"
        },
        {
          "components": [
            {
              "internalType": "address",
              "name": "account",
              "type": "address"
            },
            {
              "internalType": "uint256",
              "name": "deadline",
              "type": "uint256"
            },
            {
              "internalType": "uint8",
              "name": "v",
              "type": "uint8"
            },
            {
              "internalType": "bytes32",
              "name": "r",
              "type": "bytes32"
            },
            {
              "internalType": "bytes32",
              "name": "s",
              "type": "bytes32"
            }
          ],
          "internalType": "struct Permit",
          "name": "marketPermit",
          "type": "tuple"
        },
        {
          "components": [
            {
              "internalType": "uint256",
              "name": "deadline",
              "type": "uint256"
            },
            {
              "internalType": "bytes",
              "name": "signature",
              "type": "bytes"
            }
          ],
          "internalType": "struct Permit2",
          "name": "assetPermit",
          "type": "tuple"
        }
      ],
      "name": "leverage",
      "outputs": [],
      "stateMutability": "nonpayable",
      "type": "function"
    },
    {
      "inputs": [],
      "name": "permit2",
      "outputs": [
        {
          "internalType": "contract IPermit2",
          "name": "",
          "type": "address"
        }
      ],
      "stateMutability": "view",
      "type": "function"
    },
    {
      "inputs": [
        {
          "internalType": "contract ERC20[]",
          "name": "",
          "type": "address[]"
        },
        {
          "internalType": "uint256[]",
          "name": "",
          "type": "uint256[]"
        },
        {
          "internalType": "uint256[]",
          "name": "",
          "type": "uint256[]"
        },
        {
          "internalType": "bytes",
          "name": "userData",
          "type": "bytes"
        }
      ],
      "name": "receiveFlashLoan",
      "outputs": [],
      "stateMutability": "nonpayable",
      "type": "function"
    },
    {
      "inputs": [
        {
          "internalType": "contract Market",
          "name": "market",
          "type": "address"
        },
        {
          "internalType": "uint256",
          "name": "repayMaturity",
          "type": "uint256"
        },
        {
          "internalType": "uint256",
          "name": "borrowMaturity",
          "type": "uint256"
        },
        {
          "internalType": "uint256",
          "name": "maxRepayAssets",
          "type": "uint256"
        },
        {
          "internalType": "uint256",
          "name": "maxBorrowAssets",
          "type": "uint256"
        },
        {
          "internalType": "uint256",
          "name": "percentage",
          "type": "uint256"
        }
      ],
      "name": "rollFixed",
      "outputs": [],
      "stateMutability": "nonpayable",
      "type": "function"
    },
    {
      "inputs": [
        {
          "internalType": "contract Market",
          "name": "market",
          "type": "address"
        },
        {
          "internalType": "uint256",
          "name": "repayMaturity",
          "type": "uint256"
        },
        {
          "internalType": "uint256",
          "name": "borrowMaturity",
          "type": "uint256"
        },
        {
          "internalType": "uint256",
          "name": "maxRepayAssets",
          "type": "uint256"
        },
        {
          "internalType": "uint256",
          "name": "maxBorrowAssets",
          "type": "uint256"
        },
        {
          "internalType": "uint256",
          "name": "percentage",
          "type": "uint256"
        },
        {
          "components": [
            {
              "internalType": "address",
              "name": "account",
              "type": "address"
            },
            {
              "internalType": "uint256",
              "name": "deadline",
              "type": "uint256"
            },
            {
              "internalType": "uint8",
              "name": "v",
              "type": "uint8"
            },
            {
              "internalType": "bytes32",
              "name": "r",
              "type": "bytes32"
            },
            {
              "internalType": "bytes32",
              "name": "s",
              "type": "bytes32"
            }
          ],
          "internalType": "struct Permit",
          "name": "p",
          "type": "tuple"
        }
      ],
      "name": "rollFixed",
      "outputs": [],
      "stateMutability": "nonpayable",
      "type": "function"
    },
    {
      "inputs": [
        {
          "internalType": "contract Market",
          "name": "market",
          "type": "address"
        },
        {
          "internalType": "uint256",
          "name": "repayMaturity",
          "type": "uint256"
        },
        {
          "internalType": "uint256",
          "name": "maxRepayAssets",
          "type": "uint256"
        },
        {
          "internalType": "uint256",
          "name": "percentage",
          "type": "uint256"
        }
      ],
      "name": "rollFixedToFloating",
      "outputs": [],
      "stateMutability": "nonpayable",
      "type": "function"
    },
    {
      "inputs": [
        {
          "internalType": "contract Market",
          "name": "market",
          "type": "address"
        },
        {
          "internalType": "uint256",
          "name": "repayMaturity",
          "type": "uint256"
        },
        {
          "internalType": "uint256",
          "name": "maxRepayAssets",
          "type": "uint256"
        },
        {
          "internalType": "uint256",
          "name": "percentage",
          "type": "uint256"
        },
        {
          "components": [
            {
              "internalType": "address",
              "name": "account",
              "type": "address"
            },
            {
              "internalType": "uint256",
              "name": "deadline",
              "type": "uint256"
            },
            {
              "internalType": "uint8",
              "name": "v",
              "type": "uint8"
            },
            {
              "internalType": "bytes32",
              "name": "r",
              "type": "bytes32"
            },
            {
              "internalType": "bytes32",
              "name": "s",
              "type": "bytes32"
            }
          ],
          "internalType": "struct Permit",
          "name": "p",
          "type": "tuple"
        }
      ],
      "name": "rollFixedToFloating",
      "outputs": [],
      "stateMutability": "nonpayable",
      "type": "function"
    },
    {
      "inputs": [
        {
          "internalType": "contract Market",
          "name": "market",
          "type": "address"
        },
        {
          "internalType": "uint256",
          "name": "borrowMaturity",
          "type": "uint256"
        },
        {
          "internalType": "uint256",
          "name": "maxBorrowAssets",
          "type": "uint256"
        },
        {
          "internalType": "uint256",
          "name": "percentage",
          "type": "uint256"
        }
      ],
      "name": "rollFloatingToFixed",
      "outputs": [],
      "stateMutability": "nonpayable",
      "type": "function"
    },
    {
      "inputs": [
        {
          "internalType": "contract Market",
          "name": "market",
          "type": "address"
        },
        {
          "internalType": "uint256",
          "name": "borrowMaturity",
          "type": "uint256"
        },
        {
          "internalType": "uint256",
          "name": "maxBorrowAssets",
          "type": "uint256"
        },
        {
          "internalType": "uint256",
          "name": "percentage",
          "type": "uint256"
        },
        {
          "components": [
            {
              "internalType": "address",
              "name": "account",
              "type": "address"
            },
            {
              "internalType": "uint256",
              "name": "deadline",
              "type": "uint256"
            },
            {
              "internalType": "uint8",
              "name": "v",
              "type": "uint8"
            },
            {
              "internalType": "bytes32",
              "name": "r",
              "type": "bytes32"
            },
            {
              "internalType": "bytes32",
              "name": "s",
              "type": "bytes32"
            }
          ],
          "internalType": "struct Permit",
          "name": "p",
          "type": "tuple"
        }
      ],
      "name": "rollFloatingToFixed",
      "outputs": [],
      "stateMutability": "nonpayable",
      "type": "function"
    },
    {
      "inputs": [],
      "name": "uniswapV3Factory",
      "outputs": [
        {
          "internalType": "address",
          "name": "",
          "type": "address"
        }
      ],
      "stateMutability": "view",
      "type": "function"
    },
    {
      "inputs": [
        {
          "internalType": "int256",
          "name": "amount0Delta",
          "type": "int256"
        },
        {
          "internalType": "int256",
          "name": "amount1Delta",
          "type": "int256"
        },
        {
          "internalType": "bytes",
          "name": "data",
          "type": "bytes"
        }
      ],
      "name": "uniswapV3SwapCallback",
      "outputs": [],
      "stateMutability": "nonpayable",
      "type": "function"
    }
  ],
  "transactionHash": "0xd8e1f648fa95bf702937f3297cba16d791eec07e44c2fbe4d3ecfe8aa106d7de",
  "args": [
    "0x310A2694521f75C7B2b64b5937C16CE65C3EFE01",
    "0x000000000022D473030F116dDEE9F6B43aC78BA3",
    "0xBA12222222228d8Ba445958a75a0704d566BF2C8",
    "0x1F98431c8aD98523631AE4a59f267346ea31F984"
  ],
  "numDeployments": 1,
  "solcInputHash": "9ca8e03415e27341b26b34e07f4f7fa1",
  "bytecode": "0x6101006040523480156200001257600080fd5b5060405162006070380380620060708339810160408190526200003591620000ec565b6001600160a01b0380851660805283811660a05282811660c052811660e0526200005e62000068565b5050505062000154565b600054610100900460ff16156200007e57600080fd5b60005460ff9081161015620000d1576000805460ff191660ff9081179091556040519081527f7f26b83ff96e1f2b6a682f133852f6798a09c465da95921460cefb38474024989060200160405180910390a15b565b6001600160a01b0381168114620000e957600080fd5b50565b600080600080608085870312156200010357600080fd5b84516200011081620000d3565b60208601519094506200012381620000d3565b60408601519093506200013681620000d3565b60608601519092506200014981620000d3565b939692955090935050565b60805160a05160c05160e051615e1762000259600039600081816102bb01528181612aae01528181612f850152613c180152600081816101fb015281816108d801528181610b0e01528181610c1f01528181610f1101528181611170015281816112360152818161157e0152818161179a0152818161184101528181611cb601528181611d7c01528181612dd8015281816138af01526139430152600081816101b801528181611fd3015261271501526000818161025b0152818161233701528181612c2c01528181614243015281816142d4015281816143da0152818161446801528181614604015281816146950152818161479b01526148290152615e176000f3fe608060405234801561001057600080fd5b50600436106101735760003560e01c80635b549182116100de578063cc7e37d911610097578063e4a3434c11610071578063e4a3434c1461036a578063f04f27071461037d578063f3e3c11114610390578063fa461e33146103a357600080fd5b8063cc7e37d914610331578063d232fa9314610344578063daea85c51461035757600080fd5b80635b549182146102b65780636491a032146102dd5780636c063009146102f05780638129fc1c14610303578063b2e5093e1461030b578063c8991ea01461031e57600080fd5b806320ba6def1161013057806320ba6def146102305780633e256402146102435780633ec045a61461025657806340c714ce1461027d5780634a034ff514610290578063582ce893146102a357600080fd5b806303ee9f3714610178578063053095091461018d5780630d8934eb146101a057806312261ee7146101b3578063158274a5146101f65780631ef240551461021d575b600080fd5b61018b610186366004614d04565b6103b6565b005b61018b61019b366004614d6b565b610531565b61018b6101ae366004614e06565b6106f7565b6101da7f000000000000000000000000000000000000000000000000000000000000000081565b6040516001600160a01b03909116815260200160405180910390f35b6101da7f000000000000000000000000000000000000000000000000000000000000000081565b61018b61022b366004614e06565b610cf8565b61018b61023e366004614e3b565b610d45565b61018b610251366004614e87565b61141d565b6101da7f000000000000000000000000000000000000000000000000000000000000000081565b61018b61028b366004614e87565b611936565b61018b61029e366004614ed4565b611eb9565b61018b6102b1366004614f88565b61211a565b6101da7f000000000000000000000000000000000000000000000000000000000000000081565b61018b6102eb366004614ff6565b61216d565b61018b6102fe366004614d04565b612225565b61018b6122cd565b61018b61031936600461507f565b612446565b61018b61032c3660046150e4565b6125fb565b61018b61033f366004614d04565b612859565b61018b610352366004614f88565b6128e9565b61018b610365366004615162565b612c0a565b61018b610378366004614d04565b612d3a565b61018b61038b3660046152cb565b612dca565b61018b61039e3660046153d5565b612e9e565b61018b6103b136600461543c565b612f55565b8482826103fe6103c96020830183615162565b308460208501356103e060608701604088016154ca565b6001600160a01b03891694939291906060880135608089013561332e565b6002546001600160a01b0316806104415761041c6020830183615162565b600280546001600160a01b0319166001600160a01b039290921691909117905561046e565b6001600160a01b0381166104586020840184615162565b6001600160a01b03161461046e5761046e6154e7565b506002546001600160a01b031661049257600280546001600160a01b031916331790555b61050b3330898b6001600160a01b03166338d52e0f6040518163ffffffff1660e01b8152600401602060405180830381865afa1580156104d6573d6000803e3d6000fd5b505050506040513d601f19601f820116820180604052508101906104fa91906154fd565b6001600160a01b03169291906134ab565b6105168888886134ff565b600280546001600160a01b03191690555b5050505050505050565b8783836105446103c96020830183615162565b6002546001600160a01b031680610587576105626020830183615162565b600280546001600160a01b0319166001600160a01b03929092169190911790556105b4565b6001600160a01b03811661059e6020840184615162565b6001600160a01b0316146105b4576105b46154e7565b508b6001600160a01b03166338d52e0f6040518163ffffffff1660e01b8152600401602060405180830381865afa1580156105f3573d6000803e3d6000fd5b505050506040513d601f19601f8201168201806040525081019061061791906154fd565b89856106296103c96020830183615162565b6002546001600160a01b03168061066c576106476020830183615162565b600280546001600160a01b0319166001600160a01b0392909216919091179055610699565b6001600160a01b0381166106836020840184615162565b6001600160a01b031614610699576106996154e7565b506002546001600160a01b03166106bd57600280546001600160a01b031916331790555b6106c78f8d6139e5565b6106d58f8f8f8f8f8f613a44565b5050600280546001600160a01b0319169055505b505050505050505050505050565b6002546001600160a01b031661071a57600280546001600160a01b031916331790555b610722614c74565b604080516001808252818301909252906020808301908036833750505081526040805160018082528183019092529060208083019080368337019050508160200181905250836001600160a01b03166338d52e0f6040518163ffffffff1660e01b8152600401602060405180830381865afa1580156107a5573d6000803e3d6000fd5b505050506040513d601f19601f820116820180604052508101906107c991906154fd565b81602001516000815181106107e0576107e061551a565b6001600160a01b03928316602091820292909201015260025460405163ce96cb7760e01b81529082166004820181905291600091869188169063ce96cb7790602401602060405180830381865afa15801561083f573d6000803e3d6000fd5b505050506040513d601f19601f820116820180604052508101906108639190615530565b61086d919061555f565b9050600061088e8561087e89613df2565b610888908561555f565b90613eda565b610898908361555f565b9050610954600185602001516000815181106108b6576108b661551a565b60209081029190910101516040516370a0823160e01b81526001600160a01b037f000000000000000000000000000000000000000000000000000000000000000081166004830152909116906370a0823190602401602060405180830381865afa158015610928573d6000803e3d6000fd5b505050506040513d601f19601f8201168201806040525081019061094c9190615530565b839190613ef8565b60c08501819052610969908290600190613ef8565b8451805160009061097c5761097c61551a565b60209081029190910101528515610994576001610997565b60005b60ff168460c0015160026109ab9190615572565b6109b59190615589565b6001600160401b038111156109cc576109cc61517f565b6040519080825280602002602001820160405280156109ff57816020015b60608152602001906001900390816109ea5790505b5060408501526000805b8560c00151811015610ba357886001600160a01b031663acb708158760000151600081518110610a3b57610a3b61551a565b602002602001015187604051602401610a679291909182526001600160a01b0316602082015260400190565b604051602081830303815290604052915060e01b6020820180516001600160e01b03838183161783525050505086604001518380610aa49061559c565b945081518110610ab657610ab661551a565b6020026020010181905250886001600160a01b031663b460af948760000151600081518110610ae757610ae761551a565b60200260200101518860c00151846001610b019190615589565b14610b0c5730610b2e565b7f00000000000000000000000000000000000000000000000000000000000000005b88604051602401610b41939291906155b5565b604051602081830303815290604052915060e01b6020820180516001600160e01b03838183161783525050505086604001518380610b7e9061559c565b945081518110610b9057610b9061551a565b6020908102919091010152600101610a09565b508615610c1d57876001600160a01b031663b460af94888687604051602401610bce939291906155b5565b604051602081830303815290604052915060e01b6020820180516001600160e01b03838183161783525050505085604001518281518110610c1157610c1161551a565b60200260200101819052505b7f00000000000000000000000000000000000000000000000000000000000000006001600160a01b0316635c38449e3087602001518860000151610c8d8d8b60400151604051602001610c71929190615624565b6040516020818303038152906040528051602082012060015590565b6040518563ffffffff1660e01b8152600401610cac9493929190615696565b600060405180830381600087803b158015610cc657600080fd5b505af1158015610cda573d6000803e3d6000fd5b5050600280546001600160a01b031916905550505050505050505050565b6002546001600160a01b0316610d1b57600280546001600160a01b031916331790555b610d2583836139e5565b610d308383836134ff565b5050600280546001600160a01b031916905550565b6002546001600160a01b0316610d6857600280546001600160a01b031916331790555b610d70614c74565b604080516001808252818301909252906020808301908036833750505081526040805160018082528183019092529060208083019080368337019050508160200181905250866001600160a01b03166338d52e0f6040518163ffffffff1660e01b8152600401602060405180830381865afa158015610df3573d6000803e3d6000fd5b505050506040513d601f19601f82011682018060405250810190610e1791906154fd565b8160200151600081518110610e2e57610e2e61551a565b6001600160a01b03928316602091820292909201015260025460405163d2681a0b60e01b815260048101889052908216602482018190529189169063d2681a0b906044016040805180830381865afa158015610e8e573d6000803e3d6000fd5b505050506040513d601f19601f82011682018060405250810190610eb2919061573d565b61010084015260e0830152610ec8888885613f26565b6060840152608083015260208201518051610f9191600191600090610eef57610eef61551a565b60209081029190910101516040516370a0823160e01b81526001600160a01b037f000000000000000000000000000000000000000000000000000000000000000081166004830152909116906370a0823190602401602060405180830381865afa158015610f61573d6000803e3d6000fd5b505050506040513d601f19601f82011682018060405250810190610f859190615530565b60808501519190613ef8565b60c083018190526001108015610fa657508587145b15610fc457604051631cc6a69960e11b815260040160405180910390fd5b60c08201516080830151610fda91600190613ef8565b82518051600090610fed57610fed61551a565b6020026020010181815250508160c00151826060015161100d9190615761565b606083015260c0820151611022906002615572565b6001600160401b038111156110395761103961517f565b60405190808252806020026020018201604052801561106c57816020015b60608152602001906001900390816110575790505b50604083015260006101208301525b8160c00151826101200151101561123457606082015160408051602481018a9052604481019290925260001960648301526001600160a01b0383166084808401919091528151808403909101815260a490920181526020820180516001600160e01b0316633c6f317f60e01b17905283015160a084018051906110fd8261559c565b90528151811061110f5761110f61551a565b6020026020010181905250876001600160a01b0316631a5b9e628784600001516000815181106111415761114161551a565b60200260200101516000198660c0015187610120015160016111639190615589565b1461116e5730611190565b7f00000000000000000000000000000000000000000000000000000000000000005b6040516024810194909452604484019290925260648301526001600160a01b039081166084830152841660a482015260c401604051602081830303815290604052915060e01b6020820180516001600160e01b03838183161783525050505082604001518360a00180518091906112069061559c565b9052815181106112185761121861551a565b602090810291909101015261012082018051600101905261107b565b7f00000000000000000000000000000000000000000000000000000000000000006001600160a01b0316635c38449e30846020015185600001516112888d8860400151604051602001610c71929190615624565b6040518563ffffffff1660e01b81526004016112a79493929190615696565b600060405180830381600087803b1580156112c157600080fd5b505af11580156112d5573d6000803e3d6000fd5b505060405163d2681a0b60e01b8152600481018990526001600160a01b038481166024830152600093508392508b169063d2681a0b906044016040805180830381865afa15801561132a573d6000803e3d6000fd5b505050506040513d601f19601f8201168201806040525081019061134e919061573d565b915091508361010001518460e0015160001961136a919061555f565b611374919061555f565b8610611382576000196113a1565b61010084015160e08501516113979088615589565b6113a19190615589565b6113ab8284615589565b11806113e3575060e08401516113c39060001961555f565b87106113d1576000196113e0565b60e08401516113e09088615589565b82115b1561140157604051632c1b6b4160e21b815260040160405180910390fd5b5050600280546001600160a01b03191690555050505050505050565b6002546001600160a01b031661144057600280546001600160a01b031916331790555b611448614c74565b604080516001808252818301909252906020808301908036833750505081526040805160018082528183019092529060208083019080368337019050508160200181905250846001600160a01b03166338d52e0f6040518163ffffffff1660e01b8152600401602060405180830381865afa1580156114cb573d6000803e3d6000fd5b505050506040513d601f19601f820116820180604052508101906114ef91906154fd565b81602001516000815181106115065761150661551a565b6001600160a01b0392831660209182029290920101526002541661152986613df2565b60e083015260008061153c888887613f26565b915091506115fa6001856020015160008151811061155c5761155c61551a565b60209081029190910101516040516370a0823160e01b81526001600160a01b037f000000000000000000000000000000000000000000000000000000000000000081166004830152909116906370a0823190602401602060405180830381865afa1580156115ce573d6000803e3d6000fd5b505050506040513d601f19601f820116820180604052508101906115f29190615530565b849190613ef8565b60c0850181905261160b9082615761565b905061162760018560c0015184613ef89092919063ffffffff16565b8451805160009061163a5761163a61551a565b602090810291909101015260c0840151611655906002615572565b6001600160401b0381111561166c5761166c61517f565b60405190808252806020026020018201604052801561169f57816020015b606081526020019060019003908161168a5790505b50604085015260006101208501525b8360c00151846101200151101561183f5760408051602481018990526044810183905260001960648201526001600160a01b0385166084808301919091528251808303909101815260a490910182526020810180516001600160e01b0316633c6f317f60e01b1790529085015160a0860180519061172b8261559c565b90528151811061173d5761173d61551a565b6020026020010181905250876001600160a01b031663d5164184856000015160008151811061176e5761176e61551a565b60200260200101518660c00151876101200151600161178d9190615589565b1461179857306117ba565b7f00000000000000000000000000000000000000000000000000000000000000005b866040516024016117cd939291906155b5565b604051602081830303815290604052915060e01b6020820180516001600160e01b03838183161783525050505084604001518560a00180518091906118119061559c565b9052815181106118235761182361551a565b60209081029190910101526101208401805160010190526116ae565b7f00000000000000000000000000000000000000000000000000000000000000006001600160a01b0316635c38449e30866020015187600001516118938d8a60400151604051602001610c71929190615624565b6040518563ffffffff1660e01b81526004016118b29493929190615696565b600060405180830381600087803b1580156118cc57600080fd5b505af11580156118e0573d6000803e3d6000fd5b505050508360e001516118f289613df2565b6118fc919061555f565b86101561191c57604051632c1b6b4160e21b815260040160405180910390fd5b5050600280546001600160a01b0319169055505050505050565b6002546001600160a01b031661195957600280546001600160a01b031916331790555b611961614c74565b604080516001808252818301909252906020808301908036833750505081526040805160018082528183019092529060208083019080368337019050508160200181905250846001600160a01b03166338d52e0f6040518163ffffffff1660e01b8152600401602060405180830381865afa1580156119e4573d6000803e3d6000fd5b505050506040513d601f19601f82011682018060405250810190611a0891906154fd565b8160200151600081518110611a1f57611a1f61551a565b6001600160a01b03928316602091820292909201015260025460405163d2681a0b60e01b815260048101879052908216602482018190529187169063d2681a0b906044016040805180830381865afa158015611a7f573d6000803e3d6000fd5b505050506040513d601f19601f82011682018060405250810190611aa3919061573d565b61010084015260e0830152611ab786613df2565b6080830152670de0b6b3a7640000831015611ae1576080820151611adb9084613eda565b60808301525b611afd60018360200151600081518110610eef57610eef61551a565b60c083018190526080830151611b1591600190613ef8565b82518051600090611b2857611b2861551a565b602090810291909101015260c0820151611b43906002615572565b6001600160401b03811115611b5a57611b5a61517f565b604051908082528060200260200182016040528015611b8d57816020015b6060815260200190600190039081611b785790505b50604083015260006101208301525b8160c001518261012001511015611d7a57856001600160a01b031663acb708158360000151600081518110611bd357611bd361551a565b602002602001015183604051602401611bff9291909182526001600160a01b0316602082015260400190565b604051602081830303815290604052915060e01b6020820180516001600160e01b03838183161783525050505082604001518360a0018051809190611c439061559c565b905281518110611c5557611c5561551a565b6020026020010181905250856001600160a01b0316631a5b9e62868460000151600081518110611c8757611c8761551a565b60200260200101516000198660c001518761012001516001611ca99190615589565b14611cb45730611cd6565b7f00000000000000000000000000000000000000000000000000000000000000005b6040516024810194909452604484019290925260648301526001600160a01b039081166084830152841660a482015260c401604051602081830303815290604052915060e01b6020820180516001600160e01b03838183161783525050505082604001518360a0018051809190611d4c9061559c565b905281518110611d5e57611d5e61551a565b6020908102919091010152610120820180516001019052611b9c565b7f00000000000000000000000000000000000000000000000000000000000000006001600160a01b0316635c38449e3084602001518560000151611dce8b8860400151604051602001610c71929190615624565b6040518563ffffffff1660e01b8152600401611ded9493929190615696565b600060405180830381600087803b158015611e0757600080fd5b505af1158015611e1b573d6000803e3d6000fd5b505060405163d2681a0b60e01b8152600481018890526001600160a01b0384811660248301526000935083925089169063d2681a0b906044016040805180830381865afa158015611e70573d6000803e3d6000fd5b505050506040513d601f19601f82011682018060405250810190611e94919061573d565b915091508361010001518460e001518284611eaf9190615589565b6118f2919061555f565b878383611ecc6103c96020830183615162565b6002546001600160a01b031680611f0f57611eea6020830183615162565b600280546001600160a01b0319166001600160a01b0392909216919091179055611f3c565b6001600160a01b038116611f266020840184615162565b6001600160a01b031614611f3c57611f3c6154e7565b508b6001600160a01b03166338d52e0f6040518163ffffffff1660e01b8152600401602060405180830381865afa158015611f7b573d6000803e3d6000fd5b505050506040513d601f19601f82011682018060405250810190611f9f91906154fd565b6002546040805160a0810182526001600160a01b0384811660608301908152608083018f9052825291518d938993908116927f0000000000000000000000000000000000000000000000000000000000000000909116916330f28b7a919060208083019161203a9187918b918b918b3591016001600160a01b0394851681529290931660208301526040820152606081019190915260800190565b60408051601f19818403018152918152815160209283012083528735928201929092528151808301909252308252818101889052859061207c90880188615783565b6040518663ffffffff1660e01b815260040161209c9594939291906157d0565b600060405180830381600087803b1580156120b657600080fd5b505af11580156120ca573d6000803e3d6000fd5b50506002546001600160a01b031692506120f491505057600280546001600160a01b031916331790555b6121028f8f8f8f8f8f613a44565b5050600280546001600160a01b0319169055506106e9565b6002546001600160a01b031661213d57600280546001600160a01b031916331790555b61214786846139e5565b612155868686868686613a44565b5050600280546001600160a01b031916905550505050565b8782826121806103c96020830183615162565b6002546001600160a01b0316806121c35761219e6020830183615162565b600280546001600160a01b0319166001600160a01b03929092169190911790556121f0565b6001600160a01b0381166121da6020840184615162565b6001600160a01b0316146121f0576121f06154e7565b506121ff8b8b8b8b8b8b6128e9565b6002546001600160a01b031615612218576122186154e7565b5050505050505050505050565b8482826122386103c96020830183615162565b6002546001600160a01b03168061227b576122566020830183615162565b600280546001600160a01b0319166001600160a01b03929092169190911790556122a8565b6001600160a01b0381166122926020840184615162565b6001600160a01b0316146122a8576122a86154e7565b506122b48888886106f7565b6002546001600160a01b031615610527576105276154e7565b600054610100900460ff16158080156122ed5750600054600160ff909116105b806123075750303b158015612307575060005460ff166001145b61231057600080fd5b6000805460ff191660011790558015612333576000805461ff0019166101001790555b60007f00000000000000000000000000000000000000000000000000000000000000006001600160a01b031663375a7cba6040518163ffffffff1660e01b8152600401600060405180830381865afa158015612393573d6000803e3d6000fd5b505050506040513d6000823e601f3d908101601f191682016040526123bb919081019061586b565b905060005b81518110156123fb576123eb8282815181106123de576123de61551a565b6020026020010151612c0a565b6123f48161559c565b90506123c0565b50508015612443576000805461ff0019169055604051600181527f7f26b83ff96e1f2b6a682f133852f6798a09c465da95921460cefb38474024989060200160405180910390a15b50565b8583836124596103c96020830183615162565b6002546001600160a01b03168061249c576124776020830183615162565b600280546001600160a01b0319166001600160a01b03929092169190911790556124c9565b6001600160a01b0381166124b36020840184615162565b6001600160a01b0316146124c9576124c96154e7565b50886001600160a01b03166338d52e0f6040518163ffffffff1660e01b8152600401602060405180830381865afa158015612508573d6000803e3d6000fd5b505050506040513d601f19601f8201168201806040525081019061252c91906154fd565b888561253e6103c96020830183615162565b6002546001600160a01b0316806125815761255c6020830183615162565b600280546001600160a01b0319166001600160a01b03929092169190911790556125ae565b6001600160a01b0381166125986020840184615162565b6001600160a01b0316146125ae576125ae6154e7565b506125ba8c8c8c610cf8565b6002546001600160a01b0316156125d3576125d36154e7565b50506002546001600160a01b03161590506125f0576125f06154e7565b505050505050505050565b85838361260e6103c96020830183615162565b6002546001600160a01b0316806126515761262c6020830183615162565b600280546001600160a01b0319166001600160a01b039290921691909117905561267e565b6001600160a01b0381166126686020840184615162565b6001600160a01b03161461267e5761267e6154e7565b50886001600160a01b03166338d52e0f6040518163ffffffff1660e01b8152600401602060405180830381865afa1580156126bd573d6000803e3d6000fd5b505050506040513d601f19601f820116820180604052508101906126e191906154fd565b6002546040805160a0810182526001600160a01b0384811660608301908152608083018e9052825291518c938993908116927f0000000000000000000000000000000000000000000000000000000000000000909116916330f28b7a919060208083019161277c9187918b918b918b3591016001600160a01b0394851681529290931660208301526040820152606081019190915260800190565b60408051601f1981840301815291815281516020928301208352873592820192909252815180830190925230825281810188905285906127be90880188615783565b6040518663ffffffff1660e01b81526004016127de9594939291906157d0565b600060405180830381600087803b1580156127f857600080fd5b505af115801561280c573d6000803e3d6000fd5b50506002546001600160a01b0316925061283691505057600280546001600160a01b031916331790555b6128418c8c8c6134ff565b5050600280546001600160a01b0319169055506125f0565b84838261286c6103c96020830183615162565b6002546001600160a01b0316806128af5761288a6020830183615162565b600280546001600160a01b0319166001600160a01b03929092169190911790556128dc565b6001600160a01b0381166128c66020840184615162565b6001600160a01b0316146128dc576128dc6154e7565b506122b488888888611936565b6002546001600160a01b031661290c57600280546001600160a01b031916331790555b604080516080810182526000808252602082018190529181018290526060810191909152866001600160a01b03166338d52e0f6040518163ffffffff1660e01b8152600401602060405180830381865afa15801561296e573d6000803e3d6000fd5b505050506040513d601f19601f8201168201806040525081019061299291906154fd565b81602001906001600160a01b031690816001600160a01b031681525050856001600160a01b03166338d52e0f6040518163ffffffff1660e01b8152600401602060405180830381865afa1580156129ed573d6000803e3d6000fd5b505050506040513d601f19601f82011682018060405250810190612a1191906154fd565b6001600160a01b039081166040830152600254168152670de0b6b3a76400008311612a3d576000612a78565b612a788787612a73612a57670de0b6b3a76400008861555f565b88612a698d8d60008a6000015161421f565b610888919061555f565b6145e0565b612a8187613df2565b612a8b919061555f565b606082015260208101516040820151600091612aa79188614915565b9050612ad37f000000000000000000000000000000000000000000000000000000000000000082614980565b6001600160a01b031663128acb083083600001516001600160a01b031685602001516001600160a01b0316148560600151612b0d906158f9565b876040518061010001604052808f6001600160a01b031681526020018e6001600160a01b0316815260200189602001516001600160a01b0316815260200189604001516001600160a01b0316815260200189600001516001600160a01b031681526020018c81526020018d62ffffff16815260200160001515815250604051602001612b999190615915565b6040516020818303038152906040526040518663ffffffff1660e01b8152600401612bc895949392919061598f565b60408051808303816000875af1158015612be6573d6000803e3d6000fd5b505050506040513d601f19601f82011682018060405250810190611401919061573d565b604051638e8f294b60e01b81526001600160a01b0382811660048301526000917f000000000000000000000000000000000000000000000000000000000000000090911690638e8f294b9060240160a060405180830381865afa158015612c75573d6000803e3d6000fd5b505050506040513d601f19601f82011682018060405250810190612c9991906159d8565b50935050505080612cbd576040516334b04fe360e11b815260040160405180910390fd5b612d3682600019846001600160a01b03166338d52e0f6040518163ffffffff1660e01b8152600401602060405180830381865afa158015612d02573d6000803e3d6000fd5b505050506040513d601f19601f82011682018060405250810190612d2691906154fd565b6001600160a01b03169190614a6c565b5050565b848382612d4d6103c96020830183615162565b6002546001600160a01b031680612d9057612d6b6020830183615162565b600280546001600160a01b0319166001600160a01b0392909216919091179055612dbd565b6001600160a01b038116612da76020840184615162565b6001600160a01b031614612dbd57612dbd6154e7565b506122b48888888861141d565b600154336001600160a01b037f000000000000000000000000000000000000000000000000000000000000000016148015612e0457508015155b8015612e1557508151602083012081145b612e2157612e216154e7565b6000600181905582518190612e3f9085016020908101908601615a62565b9150915060005b815181101561052757612e95828281518110612e6457612e6461551a565b602002602001015160405180602001604052806000815250856001600160a01b0316614abb9092919063ffffffff16565b50600101612e46565b868382612eb16103c96020830183615162565b6002546001600160a01b031680612ef457612ecf6020830183615162565b600280546001600160a01b0319166001600160a01b0392909216919091179055612f21565b6001600160a01b038116612f0b6020840184615162565b6001600160a01b031614612f2157612f216154e7565b50612f308a8a8a8a8a8a610d45565b6002546001600160a01b031615612f4957612f496154e7565b50505050505050505050565b6000612f6382840184615b6f565b90506000612f7e826040015183606001518460c00151614915565b9050612faa7f000000000000000000000000000000000000000000000000000000000000000082614980565b6001600160a01b0316336001600160a01b031614612fca57612fca6154e7565b8160e00151156131475781600001516001600160a01b0316636e553f6582600001516001600160a01b031684604001516001600160a01b03161461300e5786613010565b875b613019906158f9565b8460a001516130289190615589565b60808501516040516001600160e01b031960e085901b16815260048101929092526001600160a01b031660248201526044016020604051808303816000875af1158015613079573d6000803e3d6000fd5b505050506040513d601f19601f8201168201806040525081019061309d9190615530565b5081602001516001600160a01b031663d516418482602001516001600160a01b031684604001516001600160a01b0316146130d857866130da565b875b3385608001516040518463ffffffff1660e01b81526004016130fe939291906155b5565b6020604051808303816000875af115801561311d573d6000803e3d6000fd5b505050506040513d601f19601f820116820180604052508101906131419190615530565b50613326565b81602001516001600160a01b031663acb7081582602001516001600160a01b031684604001516001600160a01b0316146131815786613183565b875b61318c906158f9565b60808501516040516001600160e01b031960e085901b16815260048101929092526001600160a01b0316602482015260440160408051808303816000875af11580156131dc573d6000803e3d6000fd5b505050506040513d601f19601f82011682018060405250810190613200919061573d565b505081600001516001600160a01b031663b460af9482602001516001600160a01b031684604001516001600160a01b03161461323c578761323e565b865b3385608001516040518463ffffffff1660e01b8152600401613262939291906155b5565b6020604051808303816000875af1158015613281573d6000803e3d6000fd5b505050506040513d601f19601f820116820180604052508101906132a59190615530565b50815160a08301516080840151604051632d182be560e21b81526001600160a01b039093169263b460af94926132e192909181906004016155b5565b6020604051808303816000875af1158015613300573d6000803e3d6000fd5b505050506040513d601f19601f820116820180604052508101906133249190615530565b505b505050505050565b604051623f675f60e91b81526001600160a01b038881166004830152600091908a1690637ecebe0090602401602060405180830381865afa158015613377573d6000803e3d6000fd5b505050506040513d601f19601f8201168201806040525081019061339b9190615530565b60405163d505accf60e01b81526001600160a01b038a811660048301528981166024830152604482018990526064820188905260ff8716608483015260a4820186905260c48201859052919250908a169063d505accf9060e401600060405180830381600087803b15801561340f57600080fd5b505af1158015613423573d6000803e3d6000fd5b5050604051623f675f60e91b81526001600160a01b038b81166004830152600093508c169150637ecebe0090602401602060405180830381865afa15801561346f573d6000803e3d6000fd5b505050506040513d601f19601f820116820180604052508101906134939190615530565b90506134a0826001615589565b8114612f4957600080fd5b60006040516323b872dd60e01b6000528460045283602452826044526020600060646000808a5af13d15601f3d11600160005114161716915060006060528060405250806134f857600080fd5b5050505050565b604080516001808252818301909252600091602080830190803683375050604080516001808252818301909252929350600092915060208083019080368337019050509050846001600160a01b03166338d52e0f6040518163ffffffff1660e01b8152600401602060405180830381865afa158015613582573d6000803e3d6000fd5b505050506040513d601f19601f820116820180604052508101906135a691906154fd565b816000815181106135b9576135b961551a565b6001600160a01b03928316602091820292909201015260025460405163ce96cb7760e01b81529082166004820181905291600091829189169063ce96cb7790602401602060405180830381865afa158015613618573d6000803e3d6000fd5b505050506040513d601f19601f8201168201806040525081019061363c9190615530565b905060006136578761364d8b613df2565b612a698b86615589565b905060006136658984615589565b61366f9083615c31565b9050600081136136ec57604051636e553f6560e01b8152600481018a90526001600160a01b0386811660248301528b1690636e553f65906044016020604051808303816000875af11580156136c8573d6000803e3d6000fd5b505050506040513d601f19601f820116820180604052508101906122189190615530565b6137046001876000815181106108b6576108b661551a565b935061371281600186613ef8565b876000815181106137255761372561551a565b60200260200101818152505050505060008160026137439190615572565b6001600160401b0381111561375a5761375a61517f565b60405190808252806020026020018201604052801561378d57816020015b60608152602001906001900390816137785790505b5090506000805b83811015613940576001600160a01b038a16636e553f6582156137d157886000815181106137c4576137c461551a565b60200260200101516137f7565b8a896000815181106137e5576137e561551a565b60200260200101516137f79190615589565b60405160248101919091526001600160a01b0388166044820152606401604051602081830303815290604052915060e01b6020820180516001600160e01b03838183161783525050505083838061384d9061559c565b94508151811061385f5761385f61551a565b6020026020010181905250896001600160a01b031663d51641848860008151811061388c5761388c61551a565b6020026020010151868460016138a29190615589565b146138ad57306138cf565b7f00000000000000000000000000000000000000000000000000000000000000005b886040516024016138e2939291906155b5565b604051602081830303815290604052915060e01b6020820180516001600160e01b03838183161783525050505083838061391b9061559c565b94508151811061392d5761392d61551a565b6020908102919091010152600101613794565b507f00000000000000000000000000000000000000000000000000000000000000006001600160a01b0316635c38449e3087896139898e88604051602001610c71929190615624565b6040518563ffffffff1660e01b81526004016139a89493929190615696565b600060405180830381600087803b1580156139c257600080fd5b505af11580156139d6573d6000803e3d6000fd5b50505050505050505050505050565b8015612d3657612d36600260009054906101000a90046001600160a01b03163083856001600160a01b03166338d52e0f6040518163ffffffff1660e01b8152600401602060405180830381865afa1580156104d6573d6000803e3d6000fd5b604080516080810182526000808252602082018190529181018290526060810191909152866001600160a01b03166338d52e0f6040518163ffffffff1660e01b8152600401602060405180830381865afa158015613aa6573d6000803e3d6000fd5b505050506040513d601f19601f82011682018060405250810190613aca91906154fd565b81602001906001600160a01b031690816001600160a01b031681525050856001600160a01b03166338d52e0f6040518163ffffffff1660e01b8152600401602060405180830381865afa158015613b25573d6000803e3d6000fd5b505050506040513d601f19601f82011682018060405250810190613b4991906154fd565b6001600160a01b039081166040838101919091526002548216808452905163ce96cb7760e01b81526004810191909152859189169063ce96cb7790602401602060405180830381865afa158015613ba4573d6000803e3d6000fd5b505050506040513d601f19601f82011682018060405250810190613bc89190615530565b613bdc856108888b8b8a886000015161421f565b613be6919061555f565b613bf0919061555f565b6060820181905215613d7c576000613c118260200151836040015188614915565b9050613c3d7f000000000000000000000000000000000000000000000000000000000000000082614980565b6001600160a01b031663128acb083083600001516001600160a01b031685604001516001600160a01b0316148560600151613c77906158f9565b876040518061010001604052808f6001600160a01b031681526020018e6001600160a01b0316815260200189602001516001600160a01b0316815260200189604001516001600160a01b0316815260200189600001516001600160a01b031681526020018c81526020018d62ffffff16815260200160011515815250604051602001613d039190615915565b6040516020818303038152906040526040518663ffffffff1660e01b8152600401613d3295949392919061598f565b60408051808303816000875af1158015613d50573d6000803e3d6000fd5b505050506040513d601f19601f82011682018060405250810190613d74919061573d565b505050613324565b8051604051636e553f6560e01b8152600481018690526001600160a01b03918216602482015290881690636e553f65906044016020604051808303816000875af1158015613dce573d6000803e3d6000fd5b505050506040513d601f19601f820116820180604052508101906105279190615530565b600254604051632f2e037160e11b81526001600160a01b039182166004820152600091829190841690635e5c06e290602401606060405180830381865afa158015613e41573d6000803e3d6000fd5b505050506040513d601f19601f82011682018060405250810190613e659190615c51565b60405163023effef60e51b8152600481018290529093506001600160a01b03861692506347dffde09150602401602060405180830381865afa158015613eaf573d6000803e3d6000fd5b505050506040513d601f19601f82011682018060405250810190613ed39190615530565b9392505050565b6000613eef8383670de0b6b3a7640000614aca565b90505b92915050565b828202811515841585830485141716613f1057600080fd5b6001826001830304018115150290509392505050565b600080613f46604051806040016040528060008152602001600081525090565b60025460405163d2681a0b60e01b8152600481018790526001600160a01b0391821660248201529087169063d2681a0b906044016040805180830381865afa158015613f96573d6000803e3d6000fd5b505050506040513d601f19601f82011682018060405250810190613fba919061573d565b60208301528152670de0b6b3a76400008410613fe65760208101518151613fe19190615589565b614001565b6020810151815161400191613ffa91615589565b8590613eda565b915084421015614189576140366040518060800160405280600081526020016000815260200160008152602001600081525090565b604051634e7c505960e01b8152600481018790526001600160a01b03881690634e7c505990602401608060405180830381865afa15801561407b573d6000803e3d6000fd5b505050506040513d601f19601f8201168201806040525081019061409f9190615c7f565b60608501819052604085019190915260208401919091529082526140e2906140c7904261555f565b60608301516140d6908961555f565b60408401519190614aca565b816040018181516140f3919061555f565b90525060006141736141058486614ae9565b60000151896001600160a01b031663a1e8f02b6040518163ffffffff1660e01b8152600401602060405180830381865afa158015614147573d6000803e3d6000fd5b505050506040513d601f19601f8201168201806040525081019061416b9190615530565b849190614b39565b509050614180818561555f565b94505050614216565b614209866001600160a01b031663d6b7494f6040518163ffffffff1660e01b8152600401602060405180830381865afa1580156141ca573d6000803e3d6000fd5b505050506040513d601f19601f820116820180604052508101906141ee9190615530565b6141f8874261555f565b6142029190615572565b8390613eda565b6142139083615589565b92505b50935093915050565b604051638e8f294b60e01b81526001600160a01b03858116600483015260009182917f00000000000000000000000000000000000000000000000000000000000000001690638e8f294b9060240160a060405180830381865afa15801561428a573d6000803e3d6000fd5b505050506040513d601f19601f820116820180604052508101906142ae91906159d8565b604051638e8f294b60e01b81526001600160a01b038b81166004830152919650600095507f00000000000000000000000000000000000000000000000000000000000000009091169350638e8f294b9250602401905060a060405180830381865afa158015614321573d6000803e3d6000fd5b505050506040513d601f19601f8201168201806040525081019061434591906159d8565b945050505050614552876001600160a01b031663313ce5676040518163ffffffff1660e01b8152600401602060405180830381865afa15801561438c573d6000803e3d6000fd5b505050506040513d601f19601f820116820180604052508101906143b09190615cb5565b6143bb90600a615db6565b604051631710760b60e31b81526001600160a01b0385811660048301527f0000000000000000000000000000000000000000000000000000000000000000169063b883b05890602401602060405180830381865afa158015614421573d6000803e3d6000fd5b505050506040513d601f19601f820116820180604052508101906144459190615530565b604051631710760b60e31b81526001600160a01b03858116600483015261454b917f00000000000000000000000000000000000000000000000000000000000000009091169063b883b05890602401602060405180830381865afa1580156144b1573d6000803e3d6000fd5b505050506040513d601f19601f820116820180604052508101906144d59190615530565b8a6001600160a01b031663313ce5676040518163ffffffff1660e01b8152600401602060405180830381865afa158015614513573d6000803e3d6000fd5b505050506040513d601f19601f820116820180604052508101906145379190615cb5565b61454290600a615db6565b61454b8c613df2565b9190614aca565b60405163ce96cb7760e01b81526001600160a01b0386811660048301528791908a169063ce96cb7790602401602060405180830381865afa15801561459b573d6000803e3d6000fd5b505050506040513d601f19601f820116820180604052508101906145bf9190615530565b6145c99190615589565b6145d3919061555f565b925050505b949350505050565b604051638e8f294b60e01b81526001600160a01b03848116600483015260009182917f00000000000000000000000000000000000000000000000000000000000000001690638e8f294b9060240160a060405180830381865afa15801561464b573d6000803e3d6000fd5b505050506040513d601f19601f8201168201806040525081019061466f91906159d8565b604051638e8f294b60e01b81526001600160a01b038a81166004830152919650600095507f00000000000000000000000000000000000000000000000000000000000000009091169350638e8f294b9250602401905060a060405180830381865afa1580156146e2573d6000803e3d6000fd5b505050506040513d601f19601f8201168201806040525081019061470691906159d8565b94505050505061490b856001600160a01b031663313ce5676040518163ffffffff1660e01b8152600401602060405180830381865afa15801561474d573d6000803e3d6000fd5b505050506040513d601f19601f820116820180604052508101906147719190615cb5565b61477c90600a615db6565b604051631710760b60e31b81526001600160a01b0384811660048301527f0000000000000000000000000000000000000000000000000000000000000000169063b883b05890602401602060405180830381865afa1580156147e2573d6000803e3d6000fd5b505050506040513d601f19601f820116820180604052508101906148069190615530565b604051631710760b60e31b81526001600160a01b03868116600483015261454b917f00000000000000000000000000000000000000000000000000000000000000009091169063b883b05890602401602060405180830381865afa158015614872573d6000803e3d6000fd5b505050506040513d601f19601f820116820180604052508101906148969190615530565b8a6001600160a01b031663313ce5676040518163ffffffff1660e01b8152600401602060405180830381865afa1580156148d4573d6000803e3d6000fd5b505050506040513d601f19601f820116820180604052508101906148f89190615cb5565b61490390600a615db6565b899190614aca565b9695505050505050565b6040805160608101825260008082526020820181905291810191909152826001600160a01b0316846001600160a01b03161115614950579192915b50604080516060810182526001600160a01b03948516815292909316602083015262ffffff169181019190915290565b600081602001516001600160a01b031682600001516001600160a01b0316106149ab576149ab6154e7565b815160208084015160408086015181516001600160a01b0395861681860152949092168482015262ffffff90911660608085019190915281518085038201815260808501909252815191909201206001600160f81b031960a08401529085901b6bffffffffffffffffffffffff191660a183015260b58201527fe34f199b19b2b4f47f68442619d555527d244f78a3297ea89325f843f87b8b5460d582015260f50160408051601f1981840301815291905280516020909101209392505050565b600060405163095ea7b360e01b6000528360045282602452602060006044600080895af13d15601f3d1160016000511416171691506000606052806040525080614ab557600080fd5b50505050565b60606145d88484600085614b80565b828202811515841585830485141716614ae257600080fd5b0492915050565b604080518082019091526000808252602082015282516020840151600091614b1d91614b159082615589565b859190614aca565b8085529050614b2c818461555f565b6020850152509192915050565b6000806000614b4786614bfe565b9050801561421657614b68614b5c8683614c1d565b60408801519083614aca565b9250614b748385613eda565b9150614213828461555f565b606082471015614b8f57600080fd5b600080866001600160a01b03168587604051614bab9190615dc5565b60006040518083038185875af1925050503d8060008114614be8576040519150601f19603f3d011682016040523d82523d6000602084013e614bed565b606091505b50915091506145d387838387614c33565b8051602082015160009190614c138282614c1d565b6145d8908361555f565b6000818310614c2c5781613eef565b5090919050565b60608315614c5f578251600003614c58576001600160a01b0385163b614c5857600080fd5b50816145d8565b6145d883838151156101735781518083602001fd5b604051806101400160405280606081526020016060815260200160608152602001600081526020016000815260200160008152602001600081526020016000815260200160008152602001600081525090565b6001600160a01b038116811461244357600080fd5b8035614ce781614cc7565b919050565b600060a08284031215614cfe57600080fd5b50919050565b60008060008060006101208688031215614d1d57600080fd5b8535614d2881614cc7565b9450602086013593506040860135925060608601359150614d4c8760808801614cec565b90509295509295909350565b803562ffffff81168114614ce757600080fd5b60008060008060008060008060006102208a8c031215614d8a57600080fd5b8935614d9581614cc7565b985060208a0135614da581614cc7565b9750614db360408b01614d58565b965060608a0135955060808a0135945060a08a0135614dd181614cc7565b935060c08a01359250614de78b60e08c01614cec565b9150614df78b6101808c01614cec565b90509295985092959850929598565b600080600060608486031215614e1b57600080fd5b8335614e2681614cc7565b95602085013595506040909401359392505050565b60008060008060008060c08789031215614e5457600080fd5b8635614e5f81614cc7565b9860208801359850604088013597606081013597506080810135965060a00135945092505050565b60008060008060808587031215614e9d57600080fd5b8435614ea881614cc7565b966020860135965060408601359560600135945092505050565b600060408284031215614cfe57600080fd5b60008060008060008060008060006101a08a8c031215614ef357600080fd5b8935614efe81614cc7565b985060208a0135614f0e81614cc7565b9750614f1c60408b01614d58565b965060608a0135955060808a0135945060a08a0135614f3a81614cc7565b935060c08a01359250614f508b60e08c01614cec565b91506101808a01356001600160401b03811115614f6c57600080fd5b614f788c828d01614ec2565b9150509295985092959850929598565b60008060008060008060c08789031215614fa157600080fd5b8635614fac81614cc7565b95506020870135614fbc81614cc7565b9450614fca60408801614d58565b9350606087013592506080870135915060a0870135614fe881614cc7565b809150509295509295509295565b600080600080600080600080610180898b03121561501357600080fd5b883561501e81614cc7565b9750602089013561502e81614cc7565b965061503c60408a01614d58565b9550606089013594506080890135935060a089013561505a81614cc7565b925060c089013591506150708a60e08b01614cec565b90509295985092959890939650565b6000806000806000806101c0878903121561509957600080fd5b86356150a481614cc7565b95506020870135945060408701359350606087013592506150c88860808901614cec565b91506150d8886101208901614cec565b90509295509295509295565b60008060008060008061014087890312156150fe57600080fd5b863561510981614cc7565b955060208701359450604087013593506060870135925061512d8860808901614cec565b91506101208701356001600160401b0381111561514957600080fd5b61515589828a01614ec2565b9150509295509295509295565b60006020828403121561517457600080fd5b8135613ed381614cc7565b634e487b7160e01b600052604160045260246000fd5b604051601f8201601f191681016001600160401b03811182821017156151bd576151bd61517f565b604052919050565b60006001600160401b038211156151de576151de61517f565b5060051b60200190565b600082601f8301126151f957600080fd5b8135602061520e615209836151c5565b615195565b82815260059290921b8401810191818101908684111561522d57600080fd5b8286015b848110156152485780358352918301918301615231565b509695505050505050565b60006001600160401b0382111561526c5761526c61517f565b50601f01601f191660200190565b600082601f83011261528b57600080fd5b813561529961520982615253565b8181528460208386010111156152ae57600080fd5b816020850160208301376000918101602001919091529392505050565b600080600080608085870312156152e157600080fd5b84356001600160401b03808211156152f857600080fd5b818701915087601f83011261530c57600080fd5b8135602061531c615209836151c5565b82815260059290921b8401810191818101908b84111561533b57600080fd5b948201945b8386101561536257853561535381614cc7565b82529482019490820190615340565b9850508801359250508082111561537857600080fd5b615384888389016151e8565b9450604087013591508082111561539a57600080fd5b6153a6888389016151e8565b935060608701359150808211156153bc57600080fd5b506153c98782880161527a565b91505092959194509250565b6000806000806000806000610160888a0312156153f157600080fd5b87356153fc81614cc7565b96506020880135955060408801359450606088013593506080880135925060a0880135915061542e8960c08a01614cec565b905092959891949750929550565b6000806000806060858703121561545257600080fd5b843593506020850135925060408501356001600160401b038082111561547757600080fd5b818701915087601f83011261548b57600080fd5b81358181111561549a57600080fd5b8860208285010111156154ac57600080fd5b95989497505060200194505050565b60ff8116811461244357600080fd5b6000602082840312156154dc57600080fd5b8135613ed3816154bb565b634e487b7160e01b600052600160045260246000fd5b60006020828403121561550f57600080fd5b8151613ed381614cc7565b634e487b7160e01b600052603260045260246000fd5b60006020828403121561554257600080fd5b5051919050565b634e487b7160e01b600052601160045260246000fd5b81810381811115613ef257613ef2615549565b8082028115828204841417613ef257613ef2615549565b80820180821115613ef257613ef2615549565b6000600182016155ae576155ae615549565b5060010190565b9283526001600160a01b03918216602084015216604082015260600190565b60005b838110156155ef5781810151838201526020016155d7565b50506000910152565b600081518084526156108160208601602086016155d4565b601f01601f19169290920160200192915050565b60006040820160018060a01b0385168352602060408185015281855180845260608601915060608160051b870101935082870160005b8281101561568857605f198887030184526156768683516155f8565b9550928401929084019060010161565a565b509398975050505050505050565b6001600160a01b0385811682526080602080840182905286519184018290526000928782019290919060a0860190855b818110156156e45785518516835294830194918301916001016156c6565b5050858103604087015287518082529082019350915080870160005b8381101561571c57815185529382019390820190600101615700565b50505050828103606084015261573281856155f8565b979650505050505050565b6000806040838503121561575057600080fd5b505080516020909101519092909150565b60008261577e57634e487b7160e01b600052601260045260246000fd5b500490565b6000808335601e1984360301811261579a57600080fd5b8301803591506001600160401b038211156157b457600080fd5b6020019150368190038213156157c957600080fd5b9250929050565b60006101006157f383895180516001600160a01b03168252602090810151910152565b6020880151604084015260408801516060840152615827608084018880516001600160a01b03168252602090810151910152565b6001600160a01b03861660c084015260e0830181905282018390526101208385828501376000838501820152601f909301601f191690910190910195945050505050565b6000602080838503121561587e57600080fd5b82516001600160401b0381111561589457600080fd5b8301601f810185136158a557600080fd5b80516158b3615209826151c5565b81815260059190911b820183019083810190878311156158d257600080fd5b928401925b828410156157325783516158ea81614cc7565b825292840192908401906158d7565b6000600160ff1b820161590e5761590e615549565b5060000390565b60006101008201905060018060a01b038084511683528060208501511660208401528060408501511660408401528060608501511660608401528060808501511660808401525060a083015160a083015262ffffff60c08401511660c083015260e083015161598860e084018215159052565b5092915050565b6001600160a01b0386811682528515156020830152604082018590528316606082015260a060808201819052600090615732908301846155f8565b801515811461244357600080fd5b600080600080600060a086880312156159f057600080fd5b85516fffffffffffffffffffffffffffffffff81168114615a1057600080fd5b6020870151909550615a21816154bb565b6040870151909450615a32816154bb565b6060870151909350615a43816159ca565b6080870151909250615a5481614cc7565b809150509295509295909350565b6000806040808486031215615a7657600080fd5b8351615a8181614cc7565b809350506020808501516001600160401b0380821115615aa057600080fd5b818701915087601f830112615ab457600080fd5b8151615ac2615209826151c5565b81815260059190911b8301840190848101908a831115615ae157600080fd5b8585015b83811015615b5257805185811115615afd5760008081fd5b8601603f81018d13615b0f5760008081fd5b87810151615b1f61520982615253565b8181528e8b838501011115615b345760008081fd5b615b43828b83018d86016155d4565b85525050918601918601615ae5565b50809750505050505050509250929050565b8035614ce7816159ca565b6000610100808385031215615b8357600080fd5b604051908101906001600160401b0382118183101715615ba557615ba561517f565b8160405283359150615bb682614cc7565b818152615bc560208501614cdc565b6020820152615bd660408501614cdc565b6040820152615be760608501614cdc565b6060820152615bf860808501614cdc565b608082015260a084013560a0820152615c1360c08501614d58565b60c0820152615c2460e08501615b64565b60e0820152949350505050565b818103600083128015838313168383128216171561598857615988615549565b600080600060608486031215615c6657600080fd5b8351925060208401519150604084015190509250925092565b60008060008060808587031215615c9557600080fd5b505082516020840151604085015160609095015191969095509092509050565b600060208284031215615cc757600080fd5b8151613ed3816154bb565b600181815b80851115615d0d578160001904821115615cf357615cf3615549565b80851615615d0057918102915b93841c9390800290615cd7565b509250929050565b600082615d2457506001613ef2565b81615d3157506000613ef2565b8160018114615d475760028114615d5157615d6d565b6001915050613ef2565b60ff841115615d6257615d62615549565b50506001821b613ef2565b5060208310610133831016604e8410600b8410161715615d90575081810a613ef2565b615d9a8383615cd2565b8060001904821115615dae57615dae615549565b029392505050565b6000613eef60ff841683615d15565b60008251615dd78184602087016155d4565b919091019291505056fea26469706673582212202ce766cde3cbc1cde2096f4218565f719a9ee1760702e66b59e5825a73fcbf0d64736f6c63430008110033",
  "devdoc": {
    "kind": "dev",
    "methods": {
      "approve(address)": {
        "details": "The Market must be listed by the Auditor in order to be valid for approval.",
        "params": {
          "market": "The Market to spend the contract's balance."
        }
      },
      "constructor": {
        "custom:oz-upgrades-unsafe-allow": "constructor"
      },
      "crossDeleverage(address,address,uint24,uint256,uint256,uint160)": {
        "params": {
          "fee": "The fee of the pool that will be used to swap the assets.",
          "marketIn": "The Market to withdraw the leveraged position.",
          "marketOut": "The Market to repay the leveraged position.",
          "ratio": "The number of times that the current principal will end up leveraged, represented with 18 decimals.",
          "sqrtPriceLimitX96": "The Q64.96 sqrt price limit. If zero for one, the price cannot be less than this.",
          "withdraw": "The amount of assets that will be withdrawn to `_msgSender`."
        }
      },
      "crossDeleverage(address,address,uint24,uint256,uint256,uint160,uint256,(address,uint256,uint8,bytes32,bytes32))": {
        "params": {
          "fee": "The fee of the pool that will be used to swap the assets.",
          "marketIn": "The Market to withdraw the leveraged position.",
          "marketOut": "The Market to repay the leveraged position.",
          "p": "Arguments for the permit call to `marketIn` on behalf of `_msgSender`. Permit `value` should be `permitAssets`.",
          "permitAssets": "The amount of assets to allow.",
          "ratio": "The number of times that the current principal will end up leveraged, represented with 18 decimals.",
          "sqrtPriceLimitX96": "The Q64.96 sqrt price limit. If zero for one, the price cannot be less than this.",
          "withdraw": "The amount of assets that will be withdrawn to `_msgSender`."
        }
      },
      "crossLeverage(address,address,uint24,uint256,uint256,uint160)": {
        "params": {
          "deposit": "The amount of `marketIn` underlying assets to deposit.",
          "fee": "The fee of the pool that will be used to swap the assets.",
          "marketIn": "The Market to deposit the leveraged position.",
          "marketOut": "The Market to borrow the leveraged position.",
          "ratio": "The number of times that the current principal will be leveraged, represented with 18 decimals.",
          "sqrtPriceLimitX96": "The Q64.96 sqrt price limit. If zero for one, the price cannot be less than this."
        }
      },
      "crossLeverage(address,address,uint24,uint256,uint256,uint160,uint256,(address,uint256,uint8,bytes32,bytes32),(address,uint256,uint8,bytes32,bytes32))": {
        "params": {
          "assetPermit": "Arguments for the permit2 asset call. Permit `value` should be `borrowAssets`.",
          "borrowAssets": "The amount of assets to allow this contract to borrow on behalf of `_msgSender`.",
          "deposit": "The amount of `marketIn` underlying assets to deposit.",
          "fee": "The fee of the pool that will be used to swap the assets.",
          "marketIn": "The Market to deposit the leveraged position.",
          "marketOut": "The Market to borrow the leveraged position.",
          "marketPermit": "Arguments for the permit call to `marketOut` on behalf of `_msgSender`.",
          "ratio": "The number of times that the current principal will be leveraged, represented with 18 decimals.",
          "sqrtPriceLimitX96": "The Q64.96 sqrt price limit. If zero for one, the price cannot be less than this."
        }
      },
      "crossLeverage(address,address,uint24,uint256,uint256,uint160,uint256,(address,uint256,uint8,bytes32,bytes32),(uint256,bytes))": {
        "params": {
          "assetPermit": "Arguments for the permit2 asset call. Permit `value` should be `borrowAssets`.",
          "borrowAssets": "The amount of assets to allow this contract to borrow on behalf of `_msgSender`.",
          "deposit": "The amount of `marketIn` underlying assets to deposit.",
          "fee": "The fee of the pool that will be used to swap the assets.",
          "marketIn": "The Market to deposit the leveraged position.",
          "marketOut": "The Market to borrow the leveraged position.",
          "marketPermit": "Arguments for the permit call to `marketOut` on behalf of `_msgSender`.",
          "ratio": "The number of times that the current principal will be leveraged, represented with 18 decimals.",
          "sqrtPriceLimitX96": "The Q64.96 sqrt price limit. If zero for one, the price cannot be less than this."
        }
      },
      "deleverage(address,uint256,uint256)": {
        "params": {
          "market": "The Market to deleverage the position out.",
          "ratio": "The number of times that the current principal will be leveraged, represented with 18 decimals.",
          "withdraw": "The amount of assets that will be withdrawn to `_msgSender`."
        }
      },
      "deleverage(address,uint256,uint256,uint256,(address,uint256,uint8,bytes32,bytes32))": {
        "params": {
          "market": "The Market to deleverage the position out.",
          "p": "Arguments for the permit call to `market` on behalf of `permit.account`. Permit `value` should be `permitAssets`.",
          "permitAssets": "The amount of assets to allow this contract to withdraw on behalf of `_msgSender`.",
          "ratio": "The ratio of the borrow that will be repaid, represented with 18 decimals.",
          "withdraw": "The amount of assets that will be withdrawn to `_msgSender`."
        }
      },
      "initialize()": {
        "details": "can only be called once."
      },
      "leverage(address,uint256,uint256)": {
        "params": {
          "deposit": "The amount of assets to deposit.",
          "market": "The Market to leverage the position in.",
          "ratio": "The number of times that the current principal will be leveraged, represented with 18 decimals."
        }
      },
      "leverage(address,uint256,uint256,uint256,(address,uint256,uint8,bytes32,bytes32))": {
        "params": {
          "borrowAssets": "The amount of assets to allow this contract to borrow on behalf of `_msgSender`.",
          "deposit": "The amount of assets to deposit.",
          "market": "The Market to leverage the position in.",
          "marketPermit": "Arguments for the permit call to `market` on behalf of `_msgSender`. Permit `value` should be `borrowAssets`.",
          "ratio": "The number of times that the current principal will be leveraged, represented with 18 decimals."
        }
      },
      "leverage(address,uint256,uint256,uint256,(address,uint256,uint8,bytes32,bytes32),(address,uint256,uint8,bytes32,bytes32))": {
        "params": {
          "assetPermit": "Arguments for the permit2 asset call. Permit `value` should be `borrowAssets`.",
          "borrowAssets": "The amount of assets to allow this contract to borrow on behalf of `_msgSender`.",
          "deposit": "The amount of assets to deposit.",
          "market": "The Market to leverage the position in.",
          "marketPermit": "Arguments for the permit call to `market` on behalf of `_msgSender`.",
          "ratio": "The number of times that the current principal will be leveraged, represented with 18 decimals."
        }
      },
      "leverage(address,uint256,uint256,uint256,(address,uint256,uint8,bytes32,bytes32),(uint256,bytes))": {
        "params": {
          "assetPermit": "Arguments for the permit2 asset call. Permit `value` should be `borrowAssets`.",
          "borrowAssets": "The amount of assets to allow this contract to borrow on behalf of `_msgSender`.",
          "deposit": "The amount of assets to deposit.",
          "market": "The Market to leverage the position in.",
          "marketPermit": "Arguments for the permit call to `market` on behalf of `_msgSender`.",
          "ratio": "The number of times that the current principal will be leveraged, represented with 18 decimals."
        }
      },
      "receiveFlashLoan(address[],uint256[],uint256[],bytes)": {
        "details": "Only the Balancer Vault contract is allowed to call this function.",
        "params": {
          "userData": "Additional data provided by the borrower for the flash loan."
        }
      },
      "rollFixed(address,uint256,uint256,uint256,uint256,uint256)": {
        "params": {
          "borrowMaturity": "The maturity of the fixed pool that the position is being rolled to.",
          "market": "The Market to roll the position in.",
          "maxBorrowAssets": "Max amount of debt that the sender is willing to accept to be borrowed.",
          "maxRepayAssets": "Max amount of debt that the account is willing to accept to be repaid.",
          "percentage": "The percentage of the position that will be rolled, represented with 18 decimals.",
          "repayMaturity": "The maturity of the fixed pool that the position is being rolled from."
        }
      },
      "rollFixed(address,uint256,uint256,uint256,uint256,uint256,(address,uint256,uint8,bytes32,bytes32))": {
        "params": {
          "borrowMaturity": "The maturity of the fixed pool that the position is being rolled to.",
          "market": "The Market to roll the position in.",
          "maxBorrowAssets": "Max amount of debt that the sender is willing to accept to be borrowed.",
          "maxRepayAssets": "Max amount of debt that the account is willing to accept to be repaid.",
          "p": "Arguments for the permit call to `market` on behalf of `permit.account`. Permit `value` should be `maxBorrowAssets`.",
          "percentage": "The percentage of the position that will be rolled, represented with 18 decimals.",
          "repayMaturity": "The maturity of the fixed pool that the position is being rolled from."
        }
      },
      "rollFixedToFloating(address,uint256,uint256,uint256)": {
        "params": {
          "market": "The Market to roll the position in.",
          "maxRepayAssets": "Max amount of debt that the account is willing to accept to be repaid.",
          "percentage": "The percentage of the position that will be rolled, represented with 18 decimals.",
          "repayMaturity": "The maturity of the fixed pool that the position is being rolled from."
        }
      },
      "rollFixedToFloating(address,uint256,uint256,uint256,(address,uint256,uint8,bytes32,bytes32))": {
        "params": {
          "market": "The Market to roll the position in.",
          "maxRepayAssets": "Max amount of debt that the account is willing to accept to be repaid.",
          "p": "Arguments for the permit call to `market` on behalf of `permit.account`. Permit `value` should be `maxRepayAssets`.",
          "percentage": "The percentage of the position that will be rolled, represented with 18 decimals.",
          "repayMaturity": "The maturity of the fixed pool that the position is being rolled from."
        }
      },
      "rollFloatingToFixed(address,uint256,uint256,uint256)": {
        "params": {
          "borrowMaturity": "The maturity of the fixed pool that the position is being rolled to.",
          "market": "The Market to roll the position in.",
          "maxBorrowAssets": "Max amount of debt that the sender is willing to accept to be borrowed.",
          "percentage": "The percentage of the position that will be rolled, represented with 18 decimals."
        }
      },
      "rollFloatingToFixed(address,uint256,uint256,uint256,(address,uint256,uint8,bytes32,bytes32))": {
        "params": {
          "borrowMaturity": "The maturity of the fixed pool that the position is being rolled to.",
          "market": "The Market to roll the position in.",
          "maxBorrowAssets": "Max amount of debt that the sender is willing to accept to be borrowed.",
          "p": "Arguments for the permit call to `market` on behalf of `permit.account`. Permit `value` should be `maxBorrowAssets`.",
          "percentage": "The percentage of the position that will be rolled, represented with 18 decimals."
        }
      },
      "uniswapV3SwapCallback(int256,int256,bytes)": {
        "details": "Only the Uniswap V3 pool contract is allowed to call this function.",
        "params": {
          "amount0Delta": "The amount of token0 that was sent (negative) or must be received (positive) by the pool by the end of the swap. If positive, the callback must send that amount of token0 to the pool.",
          "amount1Delta": "The amount of token1 that was sent (negative) or must be received (positive) by the pool by the end of the swap. If positive, the callback must send that amount of token1 to the pool.",
          "data": "Any data passed through by the caller via the IUniswapV3PoolActions#swap call"
        }
      }
    },
    "stateVariables": {
      "auditor": {
        "custom:oz-upgrades-unsafe-allow": "state-variable-immutable"
      },
      "balancerVault": {
        "custom:oz-upgrades-unsafe-allow": "state-variable-immutable"
      },
      "permit2": {
        "custom:oz-upgrades-unsafe-allow": "state-variable-immutable"
      },
      "uniswapV3Factory": {
        "custom:oz-upgrades-unsafe-allow": "state-variable-immutable"
      }
    },
    "title": "DebtManager",
    "version": 1
  },
  "userdoc": {
    "kind": "user",
    "methods": {
      "approve(address)": {
        "notice": "Approves the Market to spend the contract's balance of the underlying asset."
      },
      "auditor()": {
        "notice": "Auditor contract that lists the markets that can be leveraged."
      },
      "balancerVault()": {
        "notice": "Balancer's vault contract that is used to take flash loans."
      },
      "crossDeleverage(address,address,uint24,uint256,uint256,uint160)": {
        "notice": "Cross-deleverages `_msgSender`'s position to a `ratio` via flash swap from Uniswap's pool."
      },
      "crossDeleverage(address,address,uint24,uint256,uint256,uint160,uint256,(address,uint256,uint8,bytes32,bytes32))": {
        "notice": "Cross-deleverages `_msgSender`'s position to a `ratio` via flash swap from Uniswap's pool."
      },
      "crossLeverage(address,address,uint24,uint256,uint256,uint160)": {
        "notice": "Cross-leverages `_msgSender`'s position to a `ratio` via flash swap from Uniswap's pool."
      },
      "crossLeverage(address,address,uint24,uint256,uint256,uint160,uint256,(address,uint256,uint8,bytes32,bytes32),(address,uint256,uint8,bytes32,bytes32))": {
        "notice": "Cross-leverages `_msgSender`'s position to a `ratio` via flash swap from Uniswap's pool."
      },
      "crossLeverage(address,address,uint24,uint256,uint256,uint160,uint256,(address,uint256,uint8,bytes32,bytes32),(uint256,bytes))": {
        "notice": "Cross-leverages `_msgSender`'s position to a `ratio` via flash swap from Uniswap's pool."
      },
      "deleverage(address,uint256,uint256)": {
        "notice": "Deleverages `_msgSender`'s position to a `ratio` via flash loan from Balancer's vault."
      },
      "deleverage(address,uint256,uint256,uint256,(address,uint256,uint8,bytes32,bytes32))": {
        "notice": "Deleverages `_msgSender`'s position to a `ratio` via flash loan from Balancer's vault."
      },
      "initialize()": {
        "notice": "Initializes the contract."
      },
      "leverage(address,uint256,uint256)": {
        "notice": "Leverages the floating position of `_msgSender` a certain `ratio` by taking a flash loan from Balancer's vault."
      },
      "leverage(address,uint256,uint256,uint256,(address,uint256,uint8,bytes32,bytes32))": {
        "notice": "Leverages the floating position of `_msgSender` a certain `ratio` by taking a flash loan from Balancer's vault."
      },
      "leverage(address,uint256,uint256,uint256,(address,uint256,uint8,bytes32,bytes32),(address,uint256,uint8,bytes32,bytes32))": {
        "notice": "Leverages the floating position of `_msgSender` a certain `ratio` by taking a flash loan from Balancer's vault."
      },
      "leverage(address,uint256,uint256,uint256,(address,uint256,uint8,bytes32,bytes32),(uint256,bytes))": {
        "notice": "Leverages the floating position of `_msgSender` a certain `ratio` by taking a flash loan from Balancer's vault."
      },
      "permit2()": {
        "notice": "Permit2 contract to be used to transfer assets from accounts."
      },
      "receiveFlashLoan(address[],uint256[],uint256[],bytes)": {
        "notice": "Callback function called by the Balancer Vault contract when a flash loan is initiated."
      },
      "rollFixed(address,uint256,uint256,uint256,uint256,uint256)": {
        "notice": "Rolls a percentage of the fixed position of `_msgSender` to another fixed pool."
      },
      "rollFixed(address,uint256,uint256,uint256,uint256,uint256,(address,uint256,uint8,bytes32,bytes32))": {
        "notice": "Rolls a percentage of the fixed position of `_msgSender` to another fixed pool after calling `market.permit`."
      },
      "rollFixedToFloating(address,uint256,uint256,uint256)": {
        "notice": "Rolls a percentage of the fixed position of `_msgSender` to a floating position."
      },
      "rollFixedToFloating(address,uint256,uint256,uint256,(address,uint256,uint8,bytes32,bytes32))": {
        "notice": "Rolls a percentage of the fixed position of `_msgSender` to a floating position after calling `market.permit`."
      },
      "rollFloatingToFixed(address,uint256,uint256,uint256)": {
        "notice": "Rolls a percentage of the floating position of `_msgSender` to a fixed position."
      },
      "rollFloatingToFixed(address,uint256,uint256,uint256,(address,uint256,uint8,bytes32,bytes32))": {
        "notice": "Rolls a percentage of the floating position of `_msgSender` to a fixed position after calling `market.permit`."
      },
      "uniswapV3Factory()": {
        "notice": "Factory contract to be used to compute the address of the Uniswap V3 pool."
      },
      "uniswapV3SwapCallback(int256,int256,bytes)": {
        "notice": "Callback function called by the Uniswap V3 pool contract when a swap is initiated."
      }
    },
    "notice": "Contract for efficient debt management of accounts interacting with Exactly Protocol.",
    "version": 1
  },
  "storageLayout": {
    "storage": [
      {
        "astId": 415,
        "contract": "contracts/periphery/DebtManager.sol:DebtManager",
        "label": "_initialized",
        "offset": 0,
        "slot": "0",
        "type": "t_uint8"
      },
      {
        "astId": 418,
        "contract": "contracts/periphery/DebtManager.sol:DebtManager",
        "label": "_initializing",
        "offset": 1,
        "slot": "0",
        "type": "t_bool"
      },
      {
        "astId": 18531,
        "contract": "contracts/periphery/DebtManager.sol:DebtManager",
        "label": "callHash",
        "offset": 0,
        "slot": "1",
        "type": "t_bytes32"
      },
      {
        "astId": 18917,
        "contract": "contracts/periphery/DebtManager.sol:DebtManager",
        "label": "_msgSender",
        "offset": 0,
        "slot": "2",
        "type": "t_address"
      }
    ],
    "types": {
      "t_address": {
        "encoding": "inplace",
        "label": "address",
        "numberOfBytes": "20"
      },
      "t_bool": {
        "encoding": "inplace",
        "label": "bool",
        "numberOfBytes": "1"
      },
      "t_bytes32": {
        "encoding": "inplace",
        "label": "bytes32",
        "numberOfBytes": "32"
      },
      "t_uint8": {
        "encoding": "inplace",
        "label": "uint8",
        "numberOfBytes": "1"
      }
    }
  }
}