{
  "address": "0xC91DC7A797cd5FBCf6F334C792a2b24EFf55292C",
  "abi": [
    {
      "inputs": [
        {
          "internalType": "uint256",
          "name": "fixedCurveA_",
          "type": "uint256"
        },
        {
          "internalType": "int256",
          "name": "fixedCurveB_",
          "type": "int256"
        },
        {
          "internalType": "uint256",
          "name": "fixedMaxUtilization_",
          "type": "uint256"
        },
        {
          "internalType": "uint256",
          "name": "floatingCurveA_",
          "type": "uint256"
        },
        {
          "internalType": "int256",
          "name": "floatingCurveB_",
          "type": "int256"
        },
        {
          "internalType": "uint256",
          "name": "floatingMaxUtilization_",
          "type": "uint256"
        }
      ],
      "stateMutability": "nonpayable",
      "type": "constructor"
    },
    {
      "inputs": [],
      "name": "AlreadyMatured",
      "type": "error"
    },
    {
      "inputs": [],
      "name": "UtilizationExceeded",
      "type": "error"
    },
    {
      "inputs": [
        {
          "internalType": "uint256",
          "name": "maturity",
          "type": "uint256"
        },
        {
          "internalType": "uint256",
          "name": "amount",
          "type": "uint256"
        },
        {
          "internalType": "uint256",
          "name": "borrowed",
          "type": "uint256"
        },
        {
          "internalType": "uint256",
          "name": "supplied",
          "type": "uint256"
        },
        {
          "internalType": "uint256",
          "name": "backupAssets",
          "type": "uint256"
        }
      ],
      "name": "fixedBorrowRate",
      "outputs": [
        {
          "internalType": "uint256",
          "name": "",
          "type": "uint256"
        }
      ],
      "stateMutability": "view",
      "type": "function"
    },
    {
      "inputs": [],
      "name": "fixedCurveA",
      "outputs": [
        {
          "internalType": "uint256",
          "name": "",
          "type": "uint256"
        }
      ],
      "stateMutability": "view",
      "type": "function"
    },
    {
      "inputs": [],
      "name": "fixedCurveB",
      "outputs": [
        {
          "internalType": "int256",
          "name": "",
          "type": "int256"
        }
      ],
      "stateMutability": "view",
      "type": "function"
    },
    {
      "inputs": [],
      "name": "fixedMaxUtilization",
      "outputs": [
        {
          "internalType": "uint256",
          "name": "",
          "type": "uint256"
        }
      ],
      "stateMutability": "view",
      "type": "function"
    },
    {
      "inputs": [
        {
          "internalType": "uint256",
          "name": "utilizationBefore",
          "type": "uint256"
        },
        {
          "internalType": "uint256",
          "name": "utilizationAfter",
          "type": "uint256"
        }
      ],
      "name": "floatingBorrowRate",
      "outputs": [
        {
          "internalType": "uint256",
          "name": "",
          "type": "uint256"
        }
      ],
      "stateMutability": "view",
      "type": "function"
    },
    {
      "inputs": [],
      "name": "floatingCurveA",
      "outputs": [
        {
          "internalType": "uint256",
          "name": "",
          "type": "uint256"
        }
      ],
      "stateMutability": "view",
      "type": "function"
    },
    {
      "inputs": [],
      "name": "floatingCurveB",
      "outputs": [
        {
          "internalType": "int256",
          "name": "",
          "type": "int256"
        }
      ],
      "stateMutability": "view",
      "type": "function"
    },
    {
      "inputs": [],
      "name": "floatingMaxUtilization",
      "outputs": [
        {
          "internalType": "uint256",
          "name": "",
          "type": "uint256"
        }
      ],
      "stateMutability": "view",
      "type": "function"
    },
    {
      "inputs": [
        {
          "internalType": "uint256",
          "name": "borrowed",
          "type": "uint256"
        },
        {
          "internalType": "uint256",
          "name": "supplied",
          "type": "uint256"
        },
        {
          "internalType": "uint256",
          "name": "backupAssets",
          "type": "uint256"
        }
      ],
      "name": "minFixedRate",
      "outputs": [
        {
          "internalType": "uint256",
          "name": "rate",
          "type": "uint256"
        },
        {
          "internalType": "uint256",
          "name": "utilization",
          "type": "uint256"
        }
      ],
      "stateMutability": "view",
      "type": "function"
    }
  ],
  "transactionHash": "0x991bf9436538a9eb56b27e9354c1f4758fc24090a5b0b8e4e241dfd1925b44ec",
  "args": [
    "346800000000000000",
    "-341700000000000000",
    "1000300000000000000",
    "43800000000000000",
    "-33000000000000000",
    "1017300000000000000"
  ],
  "numDeployments": 2,
  "solcInputHash": "097a4f15e656ba3036603e36d961b780",
  "bytecode": "0x6101406040523480156200001257600080fd5b5060405162001322380380620013228339810160408190526200003591620005f6565b608086905260a085905260c084905260e0839052610100829052610120819052620000626000806200007d565b506200007060008062000218565b50505050505050620006e7565b6000808360c05162000090919062000657565b90506000620000a0858562000657565b9050600060a0516602aa1efb94e000620000c985856200033b60201b6200030f1790919060201c565b1062000130576200012a62000111620001008860c051620000eb919062000657565b876200033b60201b6200030f1790919060201c565b6200035960201b620003241760201c565b846080516200053660201b62000504179092919060201c565b620001eb565b60066200015d8760c05162000146919062000657565b6080516200033b60201b6200030f1790919060201c565b620001ab673782dace9d9000006002620001788c8c6200066d565b62000184919062000683565b60c05162000193919062000657565b6080516200053660201b62000504179092919060201c565b620001c7876080516200033b60201b6200030f1790919060201c565b620001d391906200066d565b620001df91906200066d565b620001eb919062000683565b620001f79190620006a6565b905060008112156200020d576200020d620006d1565b925050505b92915050565b60008083610120516200022c919062000657565b905060006200023c858562000657565b90506000610100516602aa1efb94e0006200026685856200033b60201b6200030f1790919060201c565b10620002a2576200012a62000289620001008861012051620000eb919062000657565b8460e0516200053660201b62000504179092919060201c565b6006620002d08761012051620002b9919062000657565b60e0516200033b60201b6200030f1790919060201c565b6200031f673782dace9d9000006002620002eb8c8c6200066d565b620002f7919062000683565b6101205162000307919062000657565b60e0516200053660201b62000504179092919060201c565b620001c78760e0516200033b60201b6200030f1790919060201c565b60006200035283670de0b6b3a76400008462000536565b9392505050565b60008082136200039c5760405162461bcd60e51b815260206004820152600960248201526815539111519253915160ba1b60448201526064015b60405180910390fd5b60006060620003ab8462000556565b03609f8181039490941b90931c6c465772b2bbbb5f824b15207a3081018102606090811d6d0388eaa27412d5aca026815d636e018202811d6d0df99ac502031bf953eff472fdcc018202811d6d13cdffb29d51d99322bdff5f2211018202811d6d0a0f742023def783a307a986912e018202811d6d01920d8043ca89b5239253284e42018202811d6c0b7a86d7375468fac667a0a527016c29508e458543d8aa4df2abee7883018302821d6d0139601a2efabe717e604cbb4894018302821d6d02247f7a7b6594320649aa03aba1018302821d6c8c3f38e95a6b1ff2ab1c3b343619018302821d6d02384773bdf1ac5676facced60901901830290911d6cb9a025d814b29c212b8b1a07cd190190910260016c0504a838426634cdd8738f543560611b03190105711340daa0d5f769dba1915cef59f0815a5506027d0267a36c0c95b3975ab3ee5b203a7614a3f75373f047d803ae7b6687f2b393909302929092017d57115e47018c7177eebf7cd370a3356a1b7863008a5ae8028c72b88642840160ae1d92915050565b8282028115158415858304851417166200054f57600080fd5b0492915050565b6000808211620005955760405162461bcd60e51b815260206004820152600960248201526815539111519253915160ba1b604482015260640162000393565b5060016001600160801b03821160071b82811c6001600160401b031060061b1782811c63ffffffff1060051b1782811c61ffff1060041b1782811c60ff10600390811b90911783811c600f1060021b1783811c909110821b1791821c111790565b60008060008060008060c087890312156200061057600080fd5b865195506020870151945060408701519350606087015192506080870151915060a087015190509295509295509295565b634e487b7160e01b600052601160045260246000fd5b8181038181111562000212576200021262000641565b8082018082111562000212576200021262000641565b600082620006a157634e487b7160e01b600052601260045260246000fd5b500490565b8082018281126000831280158216821582161715620006c957620006c962000641565b505092915050565b634e487b7160e01b600052600160045260246000fd5b60805160a05160c05160e0516101005161012051610b70620007b26000396000818161017401528181610782015281816107ff0152818161085601526108c901526000818160d701526107ba01526000818161014d015281816108250152818161087c015281816108ef015261091a015260008181609d01528181610541015281816105be0152818161062601526106990152600081816101ae015261057901526000818160fe015281816105f00152818161064c015281816106bf01526106ea0152610b706000f3fe608060405234801561001057600080fd5b50600436106100935760003560e01c8063b996993411610066578063b996993414610148578063d83726851461016f578063df635f3d14610196578063dfb08e10146101a9578063fdb9d1f0146101d057600080fd5b80630481520b1461009857806326980121146100d25780634d6fc522146100f957806362caa04914610120575b600080fd5b6100bf7f000000000000000000000000000000000000000000000000000000000000000081565b6040519081526020015b60405180910390f35b6100bf7f000000000000000000000000000000000000000000000000000000000000000081565b6100bf7f000000000000000000000000000000000000000000000000000000000000000081565b61013361012e366004610a15565b6101e3565b604080519283526020830191909152016100c9565b6100bf7f000000000000000000000000000000000000000000000000000000000000000081565b6100bf7f000000000000000000000000000000000000000000000000000000000000000081565b6100bf6101a4366004610a41565b610210565b6100bf7f000000000000000000000000000000000000000000000000000000000000000081565b6100bf6101de366004610a7c565b6102bf565b6000806101fa6101f38486610ab4565b8690610523565b90506102068182610538565b9150935093915050565b6000854210610232576040516305a29e1160e51b815260040160405180910390fd5b600061023e8385610ab4565b90506000610256826102508989610ab4565b90610523565b9050670de0b6b3a7640000811115610281576040516386a8c2bd60e01b815260040160405180910390fd5b600061028d878461030f565b90506102b261029c428b610ac7565b6301e133806102ab8486610538565b9190610504565b9998505050505050505050565b6000670de0b6b3a76400008211156102ea576040516386a8c2bd60e01b815260040160405180910390fd5b6103066102f78484610753565b6103018585610769565b610779565b90505b92915050565b600061030683670de0b6b3a764000084610504565b60008082136103665760405162461bcd60e51b815260206004820152600960248201526815539111519253915160ba1b60448201526064015b60405180910390fd5b600060606103738461093f565b03609f8181039490941b90931c6c465772b2bbbb5f824b15207a3081018102606090811d6d0388eaa27412d5aca026815d636e018202811d6d0df99ac502031bf953eff472fdcc018202811d6d13cdffb29d51d99322bdff5f2211018202811d6d0a0f742023def783a307a986912e018202811d6d01920d8043ca89b5239253284e42018202811d6c0b7a86d7375468fac667a0a527016c29508e458543d8aa4df2abee7883018302821d6d0139601a2efabe717e604cbb4894018302821d6d02247f7a7b6594320649aa03aba1018302821d6c8c3f38e95a6b1ff2ab1c3b343619018302821d6d02384773bdf1ac5676facced60901901830290911d6cb9a025d814b29c212b8b1a07cd1901909102780a09507084cc699bb0e71ea869ffffffffffffffffffffffff190105711340daa0d5f769dba1915cef59f0815a5506027d0267a36c0c95b3975ab3ee5b203a7614a3f75373f047d803ae7b6687f2b393909302929092017d57115e47018c7177eebf7cd370a3356a1b7863008a5ae8028c72b88642840160ae1d92915050565b82820281151584158583048514171661051c57600080fd5b0492915050565b600061030683670de0b6b3a7640000846109e7565b600080610565847f0000000000000000000000000000000000000000000000000000000000000000610ac7565b905060006105738585610ac7565b905060007f00000000000000000000000000000000000000000000000000000000000000006602aa1efb94e0006105aa848661030f565b1061061b576106166105ee6105e96105e2897f0000000000000000000000000000000000000000000000000000000000000000610ac7565b879061030f565b610324565b7f00000000000000000000000000000000000000000000000000000000000000009085610504565b61072d565b600661067161064a887f0000000000000000000000000000000000000000000000000000000000000000610ac7565b7f00000000000000000000000000000000000000000000000000000000000000009061030f565b6106e5673782dace9d90000060026106898c8c610ab4565b6106939190610ada565b6106bd907f0000000000000000000000000000000000000000000000000000000000000000610ac7565b7f00000000000000000000000000000000000000000000000000000000000000009190610504565b61070f7f00000000000000000000000000000000000000000000000000000000000000008861030f565b6107199190610ab4565b6107239190610ab4565b61072d9190610ada565b6107379190610afc565b9050600081121561074a5761074a610b24565b95945050505050565b60008183106107625781610306565b5090919050565b6000818310156107625781610306565b6000806107a6847f0000000000000000000000000000000000000000000000000000000000000000610ac7565b905060006107b48585610ac7565b905060007f00000000000000000000000000000000000000000000000000000000000000006602aa1efb94e0006107eb848661030f565b1061084b576106166108236105e96105e2897f0000000000000000000000000000000000000000000000000000000000000000610ac7565b7f00000000000000000000000000000000000000000000000000000000000000009085610504565b60066108a161087a887f0000000000000000000000000000000000000000000000000000000000000000610ac7565b7f00000000000000000000000000000000000000000000000000000000000000009061030f565b610915673782dace9d90000060026108b98c8c610ab4565b6108c39190610ada565b6108ed907f0000000000000000000000000000000000000000000000000000000000000000610ac7565b7f00000000000000000000000000000000000000000000000000000000000000009190610504565b61070f7f00000000000000000000000000000000000000000000000000000000000000008861030f565b600080821161097c5760405162461bcd60e51b815260206004820152600960248201526815539111519253915160ba1b604482015260640161035d565b5060016fffffffffffffffffffffffffffffffff821160071b82811c67ffffffffffffffff1060061b1782811c63ffffffff1060051b1782811c61ffff1060041b1782811c60ff10600390811b90911783811c600f1060021b1783811c909110821b1791821c111790565b8282028115158415858304851417166109ff57600080fd5b6001826001830304018115150290509392505050565b600080600060608486031215610a2a57600080fd5b505081359360208301359350604090920135919050565b600080600080600060a08688031215610a5957600080fd5b505083359560208501359550604085013594606081013594506080013592509050565b60008060408385031215610a8f57600080fd5b50508035926020909101359150565b634e487b7160e01b600052601160045260246000fd5b8082018082111561030957610309610a9e565b8181038181111561030957610309610a9e565b600082610af757634e487b7160e01b600052601260045260246000fd5b500490565b8082018281126000831280158216821582161715610b1c57610b1c610a9e565b505092915050565b634e487b7160e01b600052600160045260246000fdfea26469706673582212206a786d9aeaaae22c4937ac0f308cd59729d09151c617e00dc092512097c0e02064736f6c63430008110033",
  "devdoc": {
    "kind": "dev",
    "methods": {
      "fixedBorrowRate(uint256,uint256,uint256,uint256,uint256)": {
        "params": {
          "amount": "the current borrow's amount.",
          "backupAssets": "backup supplier assets.",
          "borrowed": "ex-ante amount borrowed from this fixed rate pool.",
          "maturity": "maturity date for calculating days left to maturity.",
          "supplied": "deposits in the fixed rate pool."
        },
        "returns": {
          "_0": "rate of the fee that the borrower will have to pay (represented with 18 decimals)."
        }
      },
      "floatingBorrowRate(uint256,uint256)": {
        "details": "Minimum and maximum checks to avoid negative rate.",
        "params": {
          "utilizationAfter": "ex-post utilization rate, with 18 decimals precision.",
          "utilizationBefore": "ex-ante utilization rate, with 18 decimals precision."
        },
        "returns": {
          "_0": "the interest rate, with 18 decimals precision."
        }
      },
      "minFixedRate(uint256,uint256,uint256)": {
        "params": {
          "backupAssets": "backup supplier assets.",
          "borrowed": "amount borrowed from the fixed rate pool.",
          "supplied": "deposits in the fixed rate pool."
        },
        "returns": {
          "rate": "of the fee that the borrower will have to pay and current utilization."
        }
      }
    },
    "stateVariables": {
      "PRECISION_THRESHOLD": {
        "details": "When `eta` (`delta / alpha`) is lower than this value, use simpson's rule for approximation."
      }
    },
    "version": 1
  },
  "userdoc": {
    "kind": "user",
    "methods": {
      "fixedBorrowRate(uint256,uint256,uint256,uint256,uint256)": {
        "notice": "Gets the rate to borrow a certain amount at a certain maturity with supply/demand values in the fixed rate pool and assets from the backup supplier."
      },
      "fixedCurveA()": {
        "notice": "Scale factor of the fixed curve."
      },
      "fixedCurveB()": {
        "notice": "Origin intercept of the fixed curve."
      },
      "fixedMaxUtilization()": {
        "notice": "Asymptote of the fixed curve."
      },
      "floatingBorrowRate(uint256,uint256)": {
        "notice": "Returns the interest rate integral from utilizationBefore to utilizationAfter."
      },
      "floatingCurveA()": {
        "notice": "Scale factor of the floating curve."
      },
      "floatingCurveB()": {
        "notice": "Origin intercept of the floating curve."
      },
      "floatingMaxUtilization()": {
        "notice": "Asymptote of the floating curve."
      },
      "minFixedRate(uint256,uint256,uint256)": {
        "notice": "Gets the current annualized fixed rate to borrow with supply/demand values in the fixed rate pool and assets from the backup supplier."
      }
    },
    "version": 1
  },
  "storageLayout": {
    "storage": [],
    "types": null
  }
}