{
  "address": "0x7189fE9576f03B23388774Bbac97FfBd6d8a68E6",
  "abi": [
    {
      "inputs": [
        {
          "internalType": "contract ERC20",
          "name": "exa_",
          "type": "address"
        },
        {
          "internalType": "bytes32",
          "name": "root_",
          "type": "bytes32"
        },
        {
          "internalType": "contract ISablierV2LockupLinear",
          "name": "sablier_",
          "type": "address"
        }
      ],
      "stateMutability": "nonpayable",
      "type": "constructor"
    },
    {
      "anonymous": false,
      "inputs": [
        {
          "indexed": true,
          "internalType": "address",
          "name": "account",
          "type": "address"
        },
        {
          "indexed": true,
          "internalType": "uint256",
          "name": "streamId",
          "type": "uint256"
        },
        {
          "indexed": false,
          "internalType": "uint256",
          "name": "amount",
          "type": "uint256"
        }
      ],
      "name": "Claim",
      "type": "event"
    },
    {
      "anonymous": false,
      "inputs": [
        {
          "indexed": false,
          "internalType": "uint8",
          "name": "version",
          "type": "uint8"
        }
      ],
      "name": "Initialized",
      "type": "event"
    },
    {
      "inputs": [
        {
          "internalType": "uint128",
          "name": "amount",
          "type": "uint128"
        },
        {
          "internalType": "bytes32[]",
          "name": "proof",
          "type": "bytes32[]"
        }
      ],
      "name": "claim",
      "outputs": [
        {
          "internalType": "uint256",
          "name": "streamId",
          "type": "uint256"
        }
      ],
      "stateMutability": "nonpayable",
      "type": "function"
    },
    {
      "inputs": [
        {
          "internalType": "address",
          "name": "",
          "type": "address"
        }
      ],
      "name": "claimed",
      "outputs": [
        {
          "internalType": "bool",
          "name": "",
          "type": "bool"
        }
      ],
      "stateMutability": "view",
      "type": "function"
    },
    {
      "inputs": [],
      "name": "exa",
      "outputs": [
        {
          "internalType": "contract ERC20",
          "name": "",
          "type": "address"
        }
      ],
      "stateMutability": "view",
      "type": "function"
    },
    {
      "inputs": [],
      "name": "initialize",
      "outputs": [],
      "stateMutability": "nonpayable",
      "type": "function"
    },
    {
      "inputs": [],
      "name": "root",
      "outputs": [
        {
          "internalType": "bytes32",
          "name": "",
          "type": "bytes32"
        }
      ],
      "stateMutability": "view",
      "type": "function"
    },
    {
      "inputs": [],
      "name": "sablier",
      "outputs": [
        {
          "internalType": "contract ISablierV2LockupLinear",
          "name": "",
          "type": "address"
        }
      ],
      "stateMutability": "view",
      "type": "function"
    },
    {
      "inputs": [
        {
          "internalType": "address",
          "name": "",
          "type": "address"
        }
      ],
      "name": "streams",
      "outputs": [
        {
          "internalType": "uint256",
          "name": "",
          "type": "uint256"
        }
      ],
      "stateMutability": "view",
      "type": "function"
    }
  ],
  "transactionHash": "0x616d13069106d266ab2ced54004081d63dd817eb5df73a1af720410974218a3b",
  "args": [
    "0x2De40D1c613Cdd9D754899B40901455827C2AB3b",
    "0xd9280c48ade2863290ace2fac4aa43024417d06cf42c599290cfce0d4d3fd384",
    "0x6E3678c005815Ab34986D8d66A353Cd3699103DE"
  ],
  "numDeployments": 1,
  "solcInputHash": "3d12c484a0f6e7e8ecde7c399350a3ae",
  "bytecode": "0x60e060405234801561001057600080fd5b5060405161086938038061086983398101604081905261002f916100d7565b6001600160a01b0380841660805260a0839052811660c05261004f610057565b50505061011a565b600054610100900460ff161561006c57600080fd5b60005460ff908116146100bd576000805460ff191660ff9081179091556040519081527f7f26b83ff96e1f2b6a682f133852f6798a09c465da95921460cefb38474024989060200160405180910390a15b565b6001600160a01b03811681146100d457600080fd5b50565b6000806000606084860312156100ec57600080fd5b83516100f7816100bf565b60208501516040860151919450925061010f816100bf565b809150509250925092565b60805160a05160c0516106ff61016a6000396000818160870152818161022701526103d701526000818161017001526102d801526000818160cb01528181610205015261037001526106ff6000f3fe608060405234801561001057600080fd5b506004361061007d5760003560e01c8063836992751161005b57806383699275146100f7578063c884ef8314610125578063dadb4ce914610158578063ebf0c7171461016b57600080fd5b8063482879aa146100825780637965b636146100c65780638129fc1c146100ed575b600080fd5b6100a97f000000000000000000000000000000000000000000000000000000000000000081565b6040516001600160a01b0390911681526020015b60405180910390f35b6100a97f000000000000000000000000000000000000000000000000000000000000000081565b6100f5610192565b005b61011761010536600461053a565b60026020526000908152604090205481565b6040519081526020016100bd565b61014861013336600461053a565b60016020526000908152604090205460ff1681565b60405190151581526020016100bd565b61011761016636600461056a565b610297565b6101177f000000000000000000000000000000000000000000000000000000000000000081565b600054610100900460ff16158080156101b25750600054600160ff909116105b806101cc5750303b1580156101cc575060005460ff166001145b6101d557600080fd5b6000805460ff1916600117905580156101f8576000805461ff0019166101001790555b61024e6001600160a01b037f0000000000000000000000000000000000000000000000000000000000000000167f00000000000000000000000000000000000000000000000000000000000000006000196104ab565b8015610294576000805461ff0019169055604051600181527f7f26b83ff96e1f2b6a682f133852f6798a09c465da95921460cefb38474024989060200160405180910390a15b50565b3360009081526001602052604081205460ff16156102b7576102b76105fe565b604080513360208201526001600160801b0386169181019190915261031c907f00000000000000000000000000000000000000000000000000000000000000009060600160408051601f198184030181529190528051602090910120859185916104fa565b610328576103286105fe565b336000818152600160208181526040808420805460ff1916909317909255815160e081018352308152808201949094526001600160801b038816848301526001600160a01b037f00000000000000000000000000000000000000000000000000000000000000008116606086015260808501849052825180840184528481526293a8008184015260a0860152825180840184528481529182019390935260c084015251631b4103a960e01b81527f000000000000000000000000000000000000000000000000000000000000000090911691631b4103a99161040d9190600401610614565b6020604051808303816000875af115801561042c573d6000803e3d6000fd5b505050506040513d601f19601f8201168201806040525081019061045091906106b0565b3360008181526002602090815260409182902084905590516001600160801b038816815292935083927f34fcbac0073d7c3d388e51312faf357774904998eeb8fca628b9e6f65ee1cbf7910160405180910390a39392505050565b600060405163095ea7b360e01b6000528360045282602452602060006044600080895af13d15601f3d11600160005114161716915060006060528060405250806104f457600080fd5b50505050565b600081858560051b81015b8082101561052d57813580841160051b93845260209384185260406000209290910190610505565b5050909214949350505050565b60006020828403121561054c57600080fd5b81356001600160a01b038116811461056357600080fd5b9392505050565b60008060006040848603121561057f57600080fd5b83356001600160801b038116811461059657600080fd5b9250602084013567ffffffffffffffff808211156105b357600080fd5b818601915086601f8301126105c757600080fd5b8135818111156105d657600080fd5b8760208260051b85010111156105eb57600080fd5b6020830194508093505050509250925092565b634e487b7160e01b600052600160045260246000fd5b60006101208201905060018060a01b038084511683528060208501511660208401526001600160801b0360408501511660408401528060608501511660608401525060808301511515608083015260a083015164ffffffffff8082511660a08501528060208301511660c0850152505060c08301516106a960e084018280516001600160a01b03168252602090810151910152565b5092915050565b6000602082840312156106c257600080fd5b505191905056fea2646970667358221220698008088bd1dc6efbc531ed63ec4fbc426b3ea520051ddce7b1d3cb27eff4c364736f6c63430008110033",
  "devdoc": {
    "kind": "dev",
    "methods": {
      "constructor": {
        "custom:oz-upgrades-unsafe-allow": "constructor"
      }
    },
    "stateVariables": {
      "exa": {
        "custom:oz-upgrades-unsafe-allow": "state-variable-immutable"
      },
      "root": {
        "custom:oz-upgrades-unsafe-allow": "state-variable-immutable"
      },
      "sablier": {
        "custom:oz-upgrades-unsafe-allow": "state-variable-immutable"
      }
    },
    "version": 1
  },
  "userdoc": {
    "kind": "user",
    "methods": {},
    "version": 1
  },
  "storageLayout": {
    "storage": [
      {
        "astId": 542,
        "contract": "contracts/periphery/Airdrop.sol:Airdrop",
        "label": "_initialized",
        "offset": 0,
        "slot": "0",
        "type": "t_uint8"
      },
      {
        "astId": 545,
        "contract": "contracts/periphery/Airdrop.sol:Airdrop",
        "label": "_initializing",
        "offset": 1,
        "slot": "0",
        "type": "t_bool"
      },
      {
        "astId": 21118,
        "contract": "contracts/periphery/Airdrop.sol:Airdrop",
        "label": "claimed",
        "offset": 0,
        "slot": "1",
        "type": "t_mapping(t_address,t_bool)"
      },
      {
        "astId": 21122,
        "contract": "contracts/periphery/Airdrop.sol:Airdrop",
        "label": "streams",
        "offset": 0,
        "slot": "2",
        "type": "t_mapping(t_address,t_uint256)"
      }
    ],
    "types": {
      "t_address": {
        "encoding": "inplace",
        "label": "address",
        "numberOfBytes": "20"
      },
      "t_bool": {
        "encoding": "inplace",
        "label": "bool",
        "numberOfBytes": "1"
      },
      "t_mapping(t_address,t_bool)": {
        "encoding": "mapping",
        "key": "t_address",
        "label": "mapping(address => bool)",
        "numberOfBytes": "32",
        "value": "t_bool"
      },
      "t_mapping(t_address,t_uint256)": {
        "encoding": "mapping",
        "key": "t_address",
        "label": "mapping(address => uint256)",
        "numberOfBytes": "32",
        "value": "t_uint256"
      },
      "t_uint256": {
        "encoding": "inplace",
        "label": "uint256",
        "numberOfBytes": "32"
      },
      "t_uint8": {
        "encoding": "inplace",
        "label": "uint8",
        "numberOfBytes": "1"
      }
    }
  }
}