{
  "address": "0xB67736B5A84DB0e6721Fe13641578233488CFf5f",
  "abi": [
    {
      "inputs": [
        {
          "internalType": "contract IFlashLoanRecipient",
          "name": "recipient",
          "type": "address"
        },
        {
          "internalType": "contract ERC20[]",
          "name": "tokens",
          "type": "address[]"
        },
        {
          "internalType": "uint256[]",
          "name": "amounts",
          "type": "uint256[]"
        },
        {
          "internalType": "bytes",
          "name": "userData",
          "type": "bytes"
        }
      ],
      "name": "flashLoan",
      "outputs": [],
      "stateMutability": "nonpayable",
      "type": "function"
    }
  ],
  "transactionHash": "0xac82e2b6947623c2935c279b31e7fafeffd0d2d7b49ae721f55c2c303ffbf2eb",
  "args": [],
  "numDeployments": 1,
  "solcInputHash": "21a3d4ced22feb90680d5ad1d4142e99",
  "bytecode": "0x6080604052600160005534801561001557600080fd5b50610818806100256000396000f3fe608060405234801561001057600080fd5b506004361061002b5760003560e01c80635c38449e14610030575b600080fd5b61004361003e36600461058d565b610045565b005b60005460011461005457600080fd5b6002600055815183511461006a5761006a610688565b6000835167ffffffffffffffff81111561008657610086610447565b6040519080825280602002602001820160405280156100af578160200160208202803683370190505b5090506000805b855181101561025d5760008682815181106100d3576100d361069e565b6020026020010151905060008683815181106100f1576100f161069e565b60200260200101519050836001600160a01b0316826001600160a01b03161160006001600160a01b0316836001600160a01b031614610157576040518060400160405280600f81526020016e556e736f7274656420746f6b656e7360881b81525061017b565b6040518060400160405280600a8152602001692d32b937903a37b5b2b760b11b8152505b5061018557600080fd5b6040516370a0823160e01b815230600482015291935083916001600160a01b038316906370a0823190602401602060405180830381865afa1580156101ce573d6000803e3d6000fd5b505050506040513d601f19601f820116820180604052508101906101f291906106b4565b8584815181106102045761020461069e565b602002602001018181525050808584815181106102235761022361069e565b6020026020010151101561023657600080fd5b61024a6001600160a01b0383168a836103e0565b505080610256906106cd565b90506100b6565b50856001600160a01b031663f04f27078686885167ffffffffffffffff81111561028957610289610447565b6040519080825280602002602001820160405280156102b2578160200160208202803683370190505b50876040518563ffffffff1660e01b81526004016102d3949392919061072f565b600060405180830381600087803b1580156102ed57600080fd5b505af1158015610301573d6000803e3d6000fd5b5050505060005b85518110156103d25760008682815181106103255761032561069e565b60209081029190910101516040516370a0823160e01b81523060048201526001600160a01b03909116906370a0823190602401602060405180830381865afa158015610375573d6000803e3d6000fd5b505050506040513d601f19601f8201168201806040525081019061039991906106b4565b90508382815181106103ad576103ad61069e565b60200260200101518110156103c157600080fd5b506103cb816106cd565b9050610308565b505060016000555050505050565b600060405163a9059cbb60e01b6000528360045282602452602060006044600080895af13d15601f3d116001600051141617169150600060605280604052508061042957600080fd5b50505050565b6001600160a01b038116811461044457600080fd5b50565b634e487b7160e01b600052604160045260246000fd5b604051601f8201601f1916810167ffffffffffffffff8111828210171561048657610486610447565b604052919050565b600067ffffffffffffffff8211156104a8576104a8610447565b5060051b60200190565b600082601f8301126104c357600080fd5b813560206104d86104d38361048e565b61045d565b82815260059290921b840181019181810190868411156104f757600080fd5b8286015b8481101561051257803583529183019183016104fb565b509695505050505050565b600082601f83011261052e57600080fd5b813567ffffffffffffffff81111561054857610548610447565b61055b601f8201601f191660200161045d565b81815284602083860101111561057057600080fd5b816020850160208301376000918101602001919091529392505050565b600080600080608085870312156105a357600080fd5b84356105ae8161042f565b935060208581013567ffffffffffffffff808211156105cc57600080fd5b818801915088601f8301126105e057600080fd5b81356105ee6104d38261048e565b81815260059190911b8301840190848101908b83111561060d57600080fd5b938501935b828510156106345784356106258161042f565b82529385019390850190610612565b97505050604088013592508083111561064c57600080fd5b61065889848a016104b2565b9450606088013592508083111561066e57600080fd5b505061067c8782880161051d565b91505092959194509250565b634e487b7160e01b600052600160045260246000fd5b634e487b7160e01b600052603260045260246000fd5b6000602082840312156106c657600080fd5b5051919050565b6000600182016106ed57634e487b7160e01b600052601160045260246000fd5b5060010190565b600081518084526020808501945080840160005b8381101561072457815187529582019590820190600101610708565b509495945050505050565b6080808252855190820181905260009060209060a0840190828901845b828110156107715781516001600160a01b03168452928401929084019060010161074c565b5050508381038285015261078581886106f4565b9050838103604085015261079981876106f4565b90508381036060850152845180825260005b818110156107c65786810184015183820185015283016107ab565b506000828201840152601f01601f19160101969550505050505056fea26469706673582212202eb337662a82c4b88f0bb3409aa4cbf05f6adc9ee039fc413fc89ee658ca3c1564736f6c63430008110033",
  "devdoc": {
    "kind": "dev",
    "methods": {},
    "version": 1
  },
  "userdoc": {
    "kind": "user",
    "methods": {},
    "version": 1
  },
  "storageLayout": {
    "storage": [
      {
        "astId": 22384,
        "contract": "contracts/mocks/MockBalancerVault.sol:MockBalancerVault",
        "label": "locked",
        "offset": 0,
        "slot": "0",
        "type": "t_uint256"
      }
    ],
    "types": {
      "t_uint256": {
        "encoding": "inplace",
        "label": "uint256",
        "numberOfBytes": "32"
      }
    }
  }
}