{
  "address": "0x2073C7B72565670aF6D75e7DDd022c92cb90612e",
  "abi": [
    {
      "inputs": [
        {
          "internalType": "contract DebtManager",
          "name": "debtManager_",
          "type": "address"
        },
        {
          "internalType": "contract IUniswapQuoter",
          "name": "uniswapV3Quoter_",
          "type": "address"
        }
      ],
      "stateMutability": "nonpayable",
      "type": "constructor"
    },
    {
      "inputs": [],
      "name": "InvalidPreview",
      "type": "error"
    },
    {
      "anonymous": false,
      "inputs": [
        {
          "indexed": false,
          "internalType": "uint8",
          "name": "version",
          "type": "uint8"
        }
      ],
      "name": "Initialized",
      "type": "event"
    },
    {
      "inputs": [],
      "name": "debtManager",
      "outputs": [
        {
          "internalType": "contract DebtManager",
          "name": "",
          "type": "address"
        }
      ],
      "stateMutability": "view",
      "type": "function"
    },
    {
      "inputs": [
        {
          "components": [
            {
              "internalType": "address",
              "name": "tokenA",
              "type": "address"
            },
            {
              "internalType": "address",
              "name": "tokenB",
              "type": "address"
            }
          ],
          "internalType": "struct Pool[]",
          "name": "pools",
          "type": "tuple[]"
        },
        {
          "internalType": "uint24[]",
          "name": "fees",
          "type": "uint24[]"
        }
      ],
      "name": "initialize",
      "outputs": [],
      "stateMutability": "nonpayable",
      "type": "function"
    },
    {
      "inputs": [
        {
          "internalType": "contract Market",
          "name": "marketDeposit",
          "type": "address"
        },
        {
          "internalType": "contract Market",
          "name": "marketBorrow",
          "type": "address"
        },
        {
          "internalType": "address",
          "name": "account",
          "type": "address"
        },
        {
          "internalType": "uint256",
          "name": "minHealthFactor",
          "type": "uint256"
        }
      ],
      "name": "leverage",
      "outputs": [
        {
          "components": [
            {
              "internalType": "uint256",
              "name": "ratio",
              "type": "uint256"
            },
            {
              "internalType": "uint256",
              "name": "borrow",
              "type": "uint256"
            },
            {
              "internalType": "uint256",
              "name": "deposit",
              "type": "uint256"
            },
            {
              "internalType": "int256",
              "name": "principal",
              "type": "int256"
            },
            {
              "internalType": "uint256",
              "name": "maxRatio",
              "type": "uint256"
            },
            {
              "internalType": "uint256",
              "name": "minDeposit",
              "type": "uint256"
            },
            {
              "internalType": "uint256",
              "name": "maxWithdraw",
              "type": "uint256"
            },
            {
              "components": [
                {
                  "internalType": "address",
                  "name": "token0",
                  "type": "address"
                },
                {
                  "internalType": "address",
                  "name": "token1",
                  "type": "address"
                },
                {
                  "internalType": "uint24",
                  "name": "fee",
                  "type": "uint24"
                }
              ],
              "internalType": "struct PoolKey",
              "name": "pool",
              "type": "tuple"
            },
            {
              "internalType": "uint256",
              "name": "sqrtPriceX96",
              "type": "uint256"
            },
            {
              "components": [
                {
                  "internalType": "contract ERC20",
                  "name": "asset",
                  "type": "address"
                },
                {
                  "internalType": "uint256",
                  "name": "liquidity",
                  "type": "uint256"
                }
              ],
              "internalType": "struct AvailableAsset[]",
              "name": "availableAssets",
              "type": "tuple[]"
            }
          ],
          "internalType": "struct Leverage",
          "name": "",
          "type": "tuple"
        }
      ],
      "stateMutability": "nonpayable",
      "type": "function"
    },
    {
      "inputs": [
        {
          "internalType": "contract Market",
          "name": "marketDeposit",
          "type": "address"
        },
        {
          "internalType": "contract Market",
          "name": "marketBorrow",
          "type": "address"
        },
        {
          "internalType": "address",
          "name": "account",
          "type": "address"
        },
        {
          "internalType": "int256",
          "name": "assets",
          "type": "int256"
        },
        {
          "internalType": "uint256",
          "name": "targetRatio",
          "type": "uint256"
        },
        {
          "internalType": "uint256",
          "name": "depositRate",
          "type": "uint256"
        },
        {
          "internalType": "uint256",
          "name": "nativeRate",
          "type": "uint256"
        },
        {
          "internalType": "uint256",
          "name": "nativeRateBorrow",
          "type": "uint256"
        }
      ],
      "name": "leverageRates",
      "outputs": [
        {
          "components": [
            {
              "internalType": "int256",
              "name": "native",
              "type": "int256"
            },
            {
              "internalType": "uint256",
              "name": "borrow",
              "type": "uint256"
            },
            {
              "internalType": "uint256",
              "name": "deposit",
              "type": "uint256"
            },
            {
              "components": [
                {
                  "internalType": "contract ERC20",
                  "name": "asset",
                  "type": "address"
                },
                {
                  "internalType": "string",
                  "name": "assetName",
                  "type": "string"
                },
                {
                  "internalType": "string",
                  "name": "assetSymbol",
                  "type": "string"
                },
                {
                  "internalType": "uint256",
                  "name": "borrow",
                  "type": "uint256"
                },
                {
                  "internalType": "uint256",
                  "name": "deposit",
                  "type": "uint256"
                }
              ],
              "internalType": "struct RewardRate[]",
              "name": "rewards",
              "type": "tuple[]"
            }
          ],
          "internalType": "struct Rates",
          "name": "rates",
          "type": "tuple"
        }
      ],
      "stateMutability": "view",
      "type": "function"
    },
    {
      "inputs": [
        {
          "internalType": "address",
          "name": "",
          "type": "address"
        },
        {
          "internalType": "address",
          "name": "",
          "type": "address"
        }
      ],
      "name": "poolFees",
      "outputs": [
        {
          "internalType": "uint24",
          "name": "",
          "type": "uint24"
        }
      ],
      "stateMutability": "view",
      "type": "function"
    },
    {
      "inputs": [
        {
          "internalType": "contract Market",
          "name": "marketDeposit",
          "type": "address"
        },
        {
          "internalType": "contract Market",
          "name": "marketBorrow",
          "type": "address"
        },
        {
          "internalType": "address",
          "name": "account",
          "type": "address"
        },
        {
          "internalType": "uint256",
          "name": "withdraw",
          "type": "uint256"
        },
        {
          "internalType": "uint256",
          "name": "ratio",
          "type": "uint256"
        },
        {
          "internalType": "uint256",
          "name": "minHealthFactor",
          "type": "uint256"
        }
      ],
      "name": "previewDeleverage",
      "outputs": [
        {
          "components": [
            {
              "internalType": "uint256",
              "name": "ratio",
              "type": "uint256"
            },
            {
              "internalType": "uint256",
              "name": "borrow",
              "type": "uint256"
            },
            {
              "internalType": "uint256",
              "name": "deposit",
              "type": "uint256"
            },
            {
              "internalType": "int256",
              "name": "principal",
              "type": "int256"
            },
            {
              "internalType": "uint256",
              "name": "maxRatio",
              "type": "uint256"
            },
            {
              "internalType": "uint256",
              "name": "swapRatio",
              "type": "uint256"
            },
            {
              "internalType": "uint256",
              "name": "maxWithdraw",
              "type": "uint256"
            }
          ],
          "internalType": "struct Limit",
          "name": "limit",
          "type": "tuple"
        }
      ],
      "stateMutability": "nonpayable",
      "type": "function"
    },
    {
      "inputs": [
        {
          "internalType": "contract Market",
          "name": "marketDeposit",
          "type": "address"
        },
        {
          "internalType": "contract Market",
          "name": "marketBorrow",
          "type": "address"
        },
        {
          "internalType": "address",
          "name": "account",
          "type": "address"
        },
        {
          "internalType": "uint256",
          "name": "deposit",
          "type": "uint256"
        },
        {
          "internalType": "uint256",
          "name": "ratio",
          "type": "uint256"
        },
        {
          "internalType": "uint256",
          "name": "minHealthFactor",
          "type": "uint256"
        }
      ],
      "name": "previewLeverage",
      "outputs": [
        {
          "components": [
            {
              "internalType": "uint256",
              "name": "ratio",
              "type": "uint256"
            },
            {
              "internalType": "uint256",
              "name": "borrow",
              "type": "uint256"
            },
            {
              "internalType": "uint256",
              "name": "deposit",
              "type": "uint256"
            },
            {
              "internalType": "int256",
              "name": "principal",
              "type": "int256"
            },
            {
              "internalType": "uint256",
              "name": "maxRatio",
              "type": "uint256"
            },
            {
              "internalType": "uint256",
              "name": "swapRatio",
              "type": "uint256"
            },
            {
              "internalType": "uint256",
              "name": "maxWithdraw",
              "type": "uint256"
            }
          ],
          "internalType": "struct Limit",
          "name": "limit",
          "type": "tuple"
        }
      ],
      "stateMutability": "nonpayable",
      "type": "function"
    },
    {
      "inputs": [],
      "name": "uniswapV3Quoter",
      "outputs": [
        {
          "internalType": "contract IUniswapQuoter",
          "name": "",
          "type": "address"
        }
      ],
      "stateMutability": "view",
      "type": "function"
    }
  ],
  "transactionHash": "0x848a4ded1edf6a29e7105d9874dee336020369afdf597d7683d7c480c2c679e4",
  "args": [
    "0xA5DF45A240eebE3745062c616688a2AafA6a55DA",
    "0xb27308f9F90D607463bb33eA1BeBb41C27CE5AB6"
  ],
  "numDeployments": 1,
  "solcInputHash": "39bae6864561a7e1dc4bd48c7d6345ef",
  "bytecode": "0x60c06040523480156200001157600080fd5b5060405162005c3c38038062005c3c833981016040819052620000349162000065565b6001600160a01b039182166080521660a052620000a4565b6001600160a01b03811681146200006257600080fd5b50565b600080604083850312156200007957600080fd5b825162000086816200004c565b602084015190925062000099816200004c565b809150509250929050565b60805160a051615b2c620001106000396000818161012401526142ad01526000818161016301528181610eca0152818161154b0152818161186301528181612b2901528181612ef5015281816138dc01528181614411015281816147e401526148d50152615b2c6000f3fe608060405234801561001057600080fd5b50600436106100885760003560e01c80639241c9201161005b5780639241c92014610185578063926da1b41461019a578063a9563e4f146101ba578063ecd0cca0146101fe57600080fd5b80630b76ed4f1461008d57806337ad93f1146100b65780634d20d0f81461011f57806360b3a0331461015e575b600080fd5b6100a061009b366004614ddb565b610211565b6040516100ad9190614ea2565b60405180910390f35b6100c96100c4366004614f7c565b61076f565b6040516100ad9190600060e082019050825182526020830151602083015260408301516040830152606083015160608301526080830151608083015260a083015160a083015260c083015160c083015292915050565b6101467f000000000000000000000000000000000000000000000000000000000000000081565b6040516001600160a01b0390911681526020016100ad565b6101467f000000000000000000000000000000000000000000000000000000000000000081565b610198610193366004615112565b610bb2565b005b6101ad6101a8366004615200565b610d34565b6040516100ad91906152a0565b6101ea6101c8366004615349565b600160209081526000928352604080842090915290825290205462ffffff1681565b60405162ffffff90911681526020016100ad565b6100c961020c366004614f7c565b6110dc565b61023c6040518060800160405280600081526020016000815260200160008152602001606081525090565b6102706040518060a00160405280600081526020016000815260200160001515815260200160008152602001600081525090565b6102858a8a8a8a670de0b6b3a7640000611453565b506020830152606082018190526001600160a01b038b8116908b161460408301526000126103845761037a896001600160a01b03166301e1d1146040518163ffffffff1660e01b8152600401602060405180830381865afa1580156102ee573d6000803e3d6000fd5b505050506040513d601f19601f820116820180604052508101906103129190615382565b8a6001600160a01b031663eee8c9e06040518163ffffffff1660e01b8152600401602060405180830381865afa158015610350573d6000803e3d6000fd5b505050506040513d601f19601f820116820180604052508101906103749190615382565b90611513565b60808201526105c7565b80602001518610156104ae576103ae8682602001516103a391906153b1565b606083015190611531565b8152604081015161037a906103c45760006103c7565b81515b8a6001600160a01b03166301e1d1146040518163ffffffff1660e01b8152600401602060405180830381865afa158015610405573d6000803e3d6000fd5b505050506040513d601f19601f820116820180604052508101906104299190615382565b61043391906153b1565b6104428c8c8560000151611546565b8b6001600160a01b031663eee8c9e06040518163ffffffff1660e01b8152600401602060405180830381865afa158015610480573d6000803e3d6000fd5b505050506040513d601f19601f820116820180604052508101906104a49190615382565b61037491906153b1565b6104c18160200151876103a391906153b1565b815260408101516105c1906104d75760006104da565b81515b8a6001600160a01b03166301e1d1146040518163ffffffff1660e01b8152600401602060405180830381865afa158015610518573d6000803e3d6000fd5b505050506040513d601f19601f8201168201806040525081019061053c9190615382565b61054691906153c4565b6105558c8c8560000151611546565b8b6001600160a01b031663eee8c9e06040518163ffffffff1660e01b8152600401602060405180830381865afa158015610593573d6000803e3d6000fd5b505050506040513d601f19601f820116820180604052508101906105b79190615382565b61037491906153c4565b60808201525b6106b66105dc670de0b6b3a7640000886153b1565b8a6001600160a01b031663f3fdb15a6040518163ffffffff1660e01b8152600401602060405180830381865afa15801561061a573d6000803e3d6000fd5b505050506040513d601f19601f8201168201806040525081019061063e91906153d7565b6001600160a01b03166384a8746684608001516040518263ffffffff1660e01b815260040161066f91815260200190565b602060405180830381865afa15801561068c573d6000803e3d6000fd5b505050506040513d601f19601f820116820180604052508101906106b09190615382565b90611531565b60208301526106c58587611531565b60408301526106e66106df670de0b6b3a7640000886153b1565b8490611531565b6106f08588611531565b6106fa91906153fb565b825261075d6107088b6117d5565b826040015161071f5761071a8b6117d5565b610752565b6040805160008082526020820190925290610750565b61073d614bb2565b8152602001906001900390816107355790505b505b8360400151896127bf565b60608301525098975050505050505050565b6107af6040518060e00160405280600081526020016000815260200160008152602001600081526020016000815260200160008152602001600081525090565b60006107bc888888612b1e565b6060830181905212156107e2576040516342a7200160e11b815260040160405180910390fd5b60006107f18888888787612e17565b90508160600151851161083257848260600181815161081091906153fb565b915081815250506108288888888560600151876138d7565b6080830152610889565b8085116108705761084385826153b1565b6060830181905260001261085f57670de0b6b3a7640000610828565b6108288888888560600151876138d7565b6040516342a7200160e11b815260040160405180910390fd5b8160800151841161089a57836108a0565b81608001515b80835260c083018290526000906108dc908a908a906108d7906108cc90670de0b6b3a7640000906153b1565b606088015190611531565b611546565b6108e6898961407f565b6108f091906153b1565b905060006109c28a6001600160a01b03166338d52e0f6040518163ffffffff1660e01b8152600401602060405180830381865afa158015610935573d6000803e3d6000fd5b505050506040513d601f19601f8201168201806040525081019061095991906153d7565b8a6001600160a01b03166338d52e0f6040518163ffffffff1660e01b8152600401602060405180830381865afa158015610997573d6000803e3d6000fd5b505050506040513d601f19601f820116820180604052508101906109bb91906153d7565b6000614164565b80516001600160a01b0390811660009081526001602090815260408083208286015190941683529290528190205462ffffff1690820152905081610a068a8a61407f565b610a1091906153b1565b60208501526001600160a01b03808a16908b1603610ac55760405163ce96cb7760e01b81526001600160a01b038981166004830152839189918d169063ce96cb7790602401602060405180830381865afa158015610a72573d6000803e3d6000fd5b505050506040513d601f19601f82011682018060405250810190610a969190615382565b610aa091906153b1565b610aaa91906153b1565b60408501525050670de0b6b3a764000060a083015250610ba8565b610ad58a8a8484604001516141cf565b60405163ce96cb7760e01b81526001600160a01b038a811660048301528991908d169063ce96cb7790602401602060405180830381865afa158015610b1e573d6000803e3d6000fd5b505050506040513d601f19601f82011682018060405250810190610b429190615382565b610b4c91906153b1565b610b5691906153b1565b60408501526000610b688a8c85611546565b11610b7b57670de0b6b3a7640000610b9f565b610b9f610b898a8c85611546565b610b998c8c8686604001516141cf565b906143c7565b60a08501525050505b9695505050505050565b600054610100900460ff1615808015610bd25750600054600160ff909116105b80610bec5750303b158015610bec575060005460ff166001145b610bf557600080fd5b6000805460ff191660011790558015610c18576000805461ff0019166101001790555b8151835114610c2957610c29615432565b60005b8351811015610ce8576000610c95858381518110610c4c57610c4c615448565b602002602001015160000151868481518110610c6a57610c6a615448565b602002602001015160200151868581518110610c8857610c88615448565b6020026020010151614164565b60408181015182516001600160a01b039081166000908152600160208181528583209681015190931682529490915291909120805462ffffff191662ffffff909216919091179055919091019050610c2c565b508015610d2f576000805461ff0019169055604051600181527f7f26b83ff96e1f2b6a682f133852f6798a09c465da95921460cefb38474024989060200160405180910390a15b505050565b610d3c614bea565b604051632f2e037160e11b81526001600160a01b03848116600483015260009190861690635e5c06e290602401606060405180830381865afa158015610d86573d6000803e3d6000fd5b505050506040513d601f19601f82011682018060405250810190610daa919061545e565b60405163ce96cb7760e01b81526001600160a01b03888116600483015291945060009350908916915063ce96cb7790602401602060405180830381865afa158015610df9573d6000803e3d6000fd5b505050506040513d601f19601f82011682018060405250810190610e1d9190615382565b90506000610e2d888888886143dc565b90506000610e3c898989612b1e565b90506000610e818a6001600160a01b03166338d52e0f6040518163ffffffff1660e01b8152600401602060405180830381865afa158015610935573d6000803e3d6000fd5b80516001600160a01b03908116600090815260016020908152604080832082860151851684529091528082205462ffffff16908401529192508b8116908b1614610fc557610f507f00000000000000000000000000000000000000000000000000000000000000006001600160a01b0316635b5491826040518163ffffffff1660e01b8152600401602060405180830381865afa158015610f26573d6000803e3d6000fd5b505050506040513d601f19601f82011682018060405250810190610f4a91906153d7565b836146f2565b6001600160a01b0316633850c7bd6040518163ffffffff1660e01b815260040160e060405180830381865afa158015610f8d573d6000803e3d6000fd5b505050506040513d601f19601f82011682018060405250810190610fb191906154bf565b50506001600160a01b039094169450505050505b6000808413610fd5576000610fdf565b610fdf86856143c7565b90506040518061014001604052808281526020018c6001600160a01b03166347dffde08a6040518263ffffffff1660e01b815260040161102191815260200190565b602060405180830381865afa15801561103e573d6000803e3d6000fd5b505050506040513d601f19601f820116820180604052508101906110629190615382565b81526020018781526020018581526020016110808e8e8e898f6138d7565b81526020018688101561109c5761109788886153b1565b61109f565b60005b81526020016110b18e8e8e868f612e17565b81526020018481526020018381526020016110ca6147de565b90529c9b505050505050505050505050565b61111c6040518060e00160405280600081526020016000815260200160008152602001600081526020016000815260200160008152602001600081525090565b600061112b8888888887611453565b6080850152606084019190915290508084108061114b5750816080015184115b6111555783611157565b805b8260000181815250506000611205896001600160a01b03166338d52e0f6040518163ffffffff1660e01b8152600401602060405180830381865afa1580156111a3573d6000803e3d6000fd5b505050506040513d601f19601f820116820180604052508101906111c791906153d7565b896001600160a01b03166338d52e0f6040518163ffffffff1660e01b8152600401602060405180830381865afa158015610997573d6000803e3d6000fd5b80516001600160a01b0390811660009081526001602090815260408083208286015190941683529290528181205462ffffff16918301919091526060850151919250126112df57611256888861407f565b602084015260405163ce96cb7760e01b81526001600160a01b0388811660048301528791908b169063ce96cb7790602401602060405180830381865afa1580156112a4573d6000803e3d6000fd5b505050506040513d601f19601f820116820180604052508101906112c89190615382565b6112d291906153c4565b604084015250610ba89050565b825160608401516112ef91614b3e565b60408401526113018989898888612e17565b60c08401526001600160a01b03808916908a160361135757825161133d9061133290670de0b6b3a7640000906153b1565b606085015190611531565b60208401525050670de0b6b3a764000060a0820152610ba8565b60405163ce96cb7760e01b81526001600160a01b03888116600483015260009188918c169063ce96cb7790602401602060405180830381865afa1580156113a2573d6000803e3d6000fd5b505050506040513d601f19601f820116820180604052508101906113c69190615382565b85604001516113d591906153b1565b6113df91906153b1565b90506113f1898b8385604001516141cf565b6113fb8a8a61407f565b61140591906153c4565b60208501528015801590611423575060006114218b8b84611546565b115b61143557670de0b6b3a7640000610b9f565b610b9f6114438b8b84611546565b610b998b8d8587604001516141cf565b600080600084611464898989612b1e565b61146e9190615551565b925061147d88888886886138d7565b905060008313156115085760405163ce96cb7760e01b81526001600160a01b0387811660048301526115059185918891908c169063ce96cb7790602401602060405180830381865afa1580156114d7573d6000803e3d6000fd5b505050506040513d601f19601f820116820180604052508101906114fb9190615382565b6103749190615551565b91505b955095509592505050565b600061152883670de0b6b3a764000084614b4f565b90505b92915050565b60006115288383670de0b6b3a7640000614b7d565b6000807f00000000000000000000000000000000000000000000000000000000000000006001600160a01b0316633ec045a66040518163ffffffff1660e01b8152600401602060405180830381865afa1580156115a7573d6000803e3d6000fd5b505050506040513d601f19601f820116820180604052508101906115cb91906153d7565b604051638e8f294b60e01b81526001600160a01b038681166004830152919250600091829190841690638e8f294b9060240160a060405180830381865afa15801561161a573d6000803e3d6000fd5b505050506040513d601f19601f8201168201806040525081019061163e9190615579565b604051638e8f294b60e01b81526001600160a01b038d8116600483015260ff95909516975090955060009450849388169250638e8f294b915060240160a060405180830381865afa158015611697573d6000803e3d6000fd5b505050506040513d601f19601f820116820180604052508101906116bb9190615579565b9450505060ff169250506117c884600a6116d591906156d4565b604051631710760b60e31b81526001600160a01b03868116600483015288169063b883b05890602401602060405180830381865afa15801561171b573d6000803e3d6000fd5b505050506040513d601f19601f8201168201806040525081019061173f9190615382565b604051631710760b60e31b81526001600160a01b0385811660048301526117c191908a169063b883b05890602401602060405180830381865afa15801561178a573d6000803e3d6000fd5b505050506040513d601f19601f820116820180604052508101906117ae9190615382565b6117b987600a6156d4565b8c9190614b7d565b9190614b7d565b9998505050505050505050565b60606117df614c5e565b826001600160a01b0316636bb65f536040518163ffffffff1660e01b8152600401602060405180830381865afa15801561181d573d6000803e3d6000fd5b505050506040513d601f19601f8201168201806040525081019061184191906153d7565b6001600160a01b03908116825260408051631f6022d360e11b815290516000927f00000000000000000000000000000000000000000000000000000000000000001691633ec045a69160048083019260209291908290030181865afa1580156118ae573d6000803e3d6000fd5b505050506040513d601f19601f820116820180604052508101906118d291906153d7565b82519091506001600160a01b0316156127b857604051638e8f294b60e01b81526001600160a01b038581166004830152821690638e8f294b9060240160a060405180830381865afa15801561192b573d6000803e3d6000fd5b505050506040513d601f19601f8201168201806040525081019061194f9190615579565b6001600160a01b0390811661010088015260ff9093166101608701819052600a0a60c08701525050610e1061018085015283516040805163b7eec41360e01b8152905191909216925063b7eec413916004808201926000929091908290030181865afa1580156119c3573d6000803e3d6000fd5b505050506040513d6000823e601f3d908101601f191682016040526119eb91908101906156e0565b6101408301819052516001600160401b03811115611a0b57611a0b614fe1565b604051908082528060200260200182016040528015611a4457816020015b611a31614bb2565b815260200190600190039081611a295790505b5060006101a084018190529093505b82610140015151836101a001511015611b985782600001516001600160a01b0316635684aa4686856101400151866101a0015181518110611a9657611a96615448565b60200260200101516040518363ffffffff1660e01b8152600401611ad09291906001600160a01b0392831681529116602082015260400190565b606060405180830381865afa158015611aed573d6000803e3d6000fd5b505050506040513d601f19601f82011682018060405250810190611b119190615782565b505063ffffffff166101c0840181905215611b8157826101400151836101a0015181518110611b4257611b42615448565b6020026020010151848280611b56906157c5565b935081518110611b6857611b68615448565b60209081029190910101516001600160a01b0390911690525b826101a0018051611b91906157c5565b9052611a53565b83816001600160401b03811115611bb157611bb1614fe1565b604051908082528060200260200182016040528015611bea57816020015b611bd7614bb2565b815260200190600190039081611bcf5790505b5060006101a086015294505b8451846101a001511015611c5c5780846101a0015181518110611c1b57611c1b615448565b602002602001015185856101a0015181518110611c3a57611c3a615448565b6020026020010181905250836101a0018051611c55906157c5565b9052611bf6565b505060006101a08301525b8251826101a0015110156127b85781600001516001600160a01b031663f2426f9a8585856101a0015181518110611ca057611ca0615448565b6020908102919091010151516040516001600160e01b031960e085901b1681526001600160a01b039283166004820152911660248201526044016101c060405180830381865afa158015611cf8573d6000803e3d6000fd5b505050506040513d601f19601f82011682018060405250810190611d1c9190615807565b82610120018190525081600001516001600160a01b03166344e250f88585856101a0015181518110611d5057611d50615448565b6020908102919091010151516040516001600160e01b031960e085901b1681526001600160a01b03928316600482015291166024820152604401606060405180830381865afa158015611da7573d6000803e3d6000fd5b505050506040513d601f19601f82011682018060405250810190611dcb919061545e565b506040840152606083015281516101a083015184516001600160a01b039092169163fc1960689187918791908110611e0557611e05615448565b6020026020010151600001518561012001516060015163ffffffff164211611e2e576000611e35565b8561018001515b6040516001600160e01b031960e086901b1681526001600160a01b0393841660048201529290911660248301526044820152606401606060405180830381865afa158015611e87573d6000803e3d6000fd5b505050506040513d601f19601f82011682018060405250810190611eab919061545e565b50608084015260a08301526101c08201516224ea0090611ecc908290615911565b836101c00151611edc91906153b1565b611ee691906153c4565b82610240018181525050836001600160a01b0316630e52dbec6040518163ffffffff1660e01b8152600401602060405180830381865afa158015611f2e573d6000803e3d6000fd5b505050506040513d601f19601f82011682018060405250810190611f529190615925565b611f629060ff166224ea00615940565b611f6f6224ea0042615911565b611f7990426153b1565b611f8391906153c4565b61022083018190526102408301516224ea0091611fa091906153b1565b611faa9190615957565b611fb59060016153c4565b6001600160401b03811115611fcc57611fcc614fe1565b604051908082528060200260200182016040528015611ff5578160200160208202803683370190505b5060e083015260006101c08301526102408201516101e08301525b816102200151826101e00151116120fd576101e0820151604051630156d37d60e31b81526000916001600160a01b03871691630ab69be8916120589160040190815260200190565b6040805180830381865afa158015612074573d6000803e3d6000fd5b505050506040513d601f19601f82011682018060405250810190612098919061596b565b5090508083610200018181516120ae91906153c4565b9052506101e083015160e08401516101c0850151815181106120d2576120d2615448565b6020908102919091010152506101e0820180516224ea000190526101c0820180516001019052612010565b6040518060a0016040528084846101a001518151811061211f5761211f615448565b6020026020010151600001516001600160a01b0316815260200184846101a001518151811061215057612150615448565b6020026020010151600001516001600160a01b03166306fdde036040518163ffffffff1660e01b8152600401600060405180830381865afa158015612199573d6000803e3d6000fd5b505050506040513d6000823e601f3d908101601f191682016040526121c1919081019061598f565b815260200184846101a00151815181106121dd576121dd615448565b6020026020010151600001516001600160a01b03166395d89b416040518163ffffffff1660e01b8152600401600060405180830381865afa158015612226573d6000803e3d6000fd5b505050506040513d6000823e601f3d908101601f1916820160405261224e919081019061598f565b81526020016000846102000151876001600160a01b031663eee8c9e06040518163ffffffff1660e01b8152600401602060405180830381865afa158015612299573d6000803e3d6000fd5b505050506040513d601f19601f820116820180604052508101906122bd9190615382565b6122c791906153c4565b116122d3576000612549565b61018084015160c0850151610100860151604051631710760b60e31b81526001600160a01b039182166004820152612549936301e133809390926117c1926123d4918a169063b883b05890602401602060405180830381865afa15801561233e573d6000803e3d6000fd5b505050506040513d601f19601f820116820180604052508101906123629190615382565b8a61020001518d6001600160a01b031663eee8c9e06040518163ffffffff1660e01b8152600401602060405180830381865afa1580156123a6573d6000803e3d6000fd5b505050506040513d601f19601f820116820180604052508101906123ca9190615382565b6106b091906153c4565b6101208a01516040908101519051631710760b60e31b81526001600160a01b0391821660048201526117c1918b169063b883b05890602401602060405180830381865afa158015612429573d6000803e3d6000fd5b505050506040513d601f19601f8201168201806040525081019061244d9190615382565b6106b08e6001600160a01b031663bf722ca28e61020001516040518263ffffffff1660e01b815260040161248391815260200190565b602060405180830381865afa1580156124a0573d6000803e3d6000fd5b505050506040513d601f19601f820116820180604052508101906124c49190615382565b8f6001600160a01b0316638d0e5f026040518163ffffffff1660e01b8152600401602060405180830381865afa158015612502573d6000803e3d6000fd5b505050506040513d601f19601f820116820180604052508101906125269190615382565b61253091906153c4565b8d60c001518e606001518f60a001516117c191906153b1565b81526020016000866001600160a01b03166301e1d1146040518163ffffffff1660e01b8152600401602060405180830381865afa15801561258e573d6000803e3d6000fd5b505050506040513d601f19601f820116820180604052508101906125b29190615382565b116125be576000612782565b61018084015160c0850151610100860151604051631710760b60e31b81526001600160a01b039182166004820152612782936301e133809390926117c19261268b918a169063b883b05890602401602060405180830381865afa158015612629573d6000803e3d6000fd5b505050506040513d601f19601f8201168201806040525081019061264d9190615382565b8c6001600160a01b03166301e1d1146040518163ffffffff1660e01b8152600401602060405180830381865afa15801561068c573d6000803e3d6000fd5b6101208a01516040908101519051631710760b60e31b81526001600160a01b0391821660048201526117c1918b169063b883b05890602401602060405180830381865afa1580156126e0573d6000803e3d6000fd5b505050506040513d601f19601f820116820180604052508101906127049190615382565b6106b08e6001600160a01b03166318160ddd6040518163ffffffff1660e01b8152600401602060405180830381865afa158015612745573d6000803e3d6000fd5b505050506040513d601f19601f820116820180604052508101906127699190615382565b8d60c001518e604001518f608001516117c191906153b1565b81525083836101a001518151811061279c5761279c615448565b60209081029190910101526101a0820180516001019052611c67565b5050919050565b6060835185516127cf91906153c4565b6001600160401b038111156127e6576127e6614fe1565b60405190808252806020026020018201604052801561281f57816020015b61280c614bb2565b8152602001906001900390816128045790505b50905060005b85518110156129ba5761285e8387838151811061284457612844615448565b60200260200101516080015161153190919063ffffffff16565b82828151811061287057612870615448565b6020026020010151608001818152505083156128ea576128c761289b670de0b6b3a7640000856153b1565b8783815181106128ad576128ad615448565b60200260200101516060015161153190919063ffffffff16565b8282815181106128d9576128d9615448565b602002602001015160600181815250505b8581815181106128fc576128fc615448565b60200260200101516000015182828151811061291a5761291a615448565b60209081029190910101516001600160a01b039091169052855186908290811061294657612946615448565b60200260200101516020015182828151811061296457612964615448565b60200260200101516020018190525085818151811061298557612985615448565b6020026020010151604001518282815181106129a3576129a3615448565b602090810291909101015160400152600101612825565b83612b15575060005b8451811015612b15576129f36129e1670de0b6b3a7640000856153b1565b8683815181106128ad576128ad615448565b82875183612a0191906153c4565b81518110612a1157612a11615448565b60200260200101516060018181525050848181518110612a3357612a33615448565b60200260200101516000015182875183612a4d91906153c4565b81518110612a5d57612a5d615448565b60209081029190910101516001600160a01b0390911690528451859082908110612a8957612a89615448565b60200260200101516020015182875183612aa391906153c4565b81518110612ab357612ab3615448565b602002602001015160200181905250848181518110612ad457612ad4615448565b60200260200101516040015182875183612aee91906153c4565b81518110612afe57612afe615448565b6020908102919091010151604001526001016129c3565b50949350505050565b6000806000806000807f00000000000000000000000000000000000000000000000000000000000000006001600160a01b0316633ec045a66040518163ffffffff1660e01b8152600401602060405180830381865afa158015612b85573d6000803e3d6000fd5b505050506040513d601f19601f82011682018060405250810190612ba991906153d7565b604051638e8f294b60e01b81526001600160a01b038b8116600483015291925090821690638e8f294b9060240160a060405180830381865afa158015612bf3573d6000803e3d6000fd5b505050506040513d601f19601f82011682018060405250810190612c179190615579565b604051638e8f294b60e01b81526001600160a01b038e8116600483015260ff959095169a509097509285169350638e8f294b926024019150612c569050565b60a060405180830381865afa158015612c73573d6000803e3d6000fd5b505050506040513d601f19601f82011682018060405250810190612c979190615579565b60ff9093169750919450612da39250612cb59150879050600a6156d4565b604051631710760b60e31b81526001600160a01b03868116600483015284169063b883b05890602401602060405180830381865afa158015612cfb573d6000803e3d6000fd5b505050506040513d601f19601f82011682018060405250810190612d1f9190615382565b604051631710760b60e31b81526001600160a01b0386811660048301526117c1919086169063b883b05890602401602060405180830381865afa158015612d6a573d6000803e3d6000fd5b505050506040513d601f19601f82011682018060405250810190612d8e9190615382565b612d9989600a6156d4565b6117c18e8e61407f565b60405163ce96cb7760e01b81526001600160a01b0389811660048301528b169063ce96cb7790602401602060405180830381865afa158015612de9573d6000803e3d6000fd5b505050506040513d601f19601f82011682018060405250810190612e0d9190615382565b6117c891906153fb565b6000612ed0604051806102800160405280600081526020016000815260200160008152602001600081526020016000815260200160008152602001600081526020016000815260200160008152602001600081526020016000815260200160008152602001600081526020016000815260200160008152602001600081526020016000815260200160006001600160a01b0316815260200160006001600160a01b0316815260200160006001600160a01b031681525090565b612edb878787612b1e565b60208201819052600012612ef35760009150506138ce565b7f00000000000000000000000000000000000000000000000000000000000000006001600160a01b0316633ec045a66040518163ffffffff1660e01b8152600401602060405180830381865afa158015612f51573d6000803e3d6000fd5b505050506040513d601f19601f82011682018060405250810190612f7591906153d7565b6001600160a01b03166102408201526040805160a0810182526000808252602080830182905282840182905260608084018390526080840183905284519081018552828152908101829052928301529061024083015160405160016263e28d60e11b031981526001600160a01b0389811660048301529091169063ff383ae690602401602060405180830381865afa158015613015573d6000803e3d6000fd5b505050506040513d601f19601f820116820180604052508101906130399190615382565b6040840152613048888861407f565b610100840152600083525b6040830151156134de576040830151600116156134c55761024083015183516040516308cae55b60e21b81526001600160a01b039092169163232b956c916130a19160040190815260200190565b602060405180830381865afa1580156130be573d6000803e3d6000fd5b505050506040513d601f19601f820116820180604052508101906130e291906153d7565b6001600160a01b039081166102608501819052610240850151604051638e8f294b60e01b8152600481019290925290911690638e8f294b9060240160a060405180830381865afa15801561313a573d6000803e3d6000fd5b505050506040513d601f19601f8201168201806040525081019061315e9190615579565b6001600160a01b03166080870152505060ff16602084018190526001600160801b03909116835260009061319390600a615a19565b61026085015160405163014a296f60e01b81526001600160a01b038b8116600483015292935091169063014a296f906024016040805180830381865afa1580156131e1573d6000803e3d6000fd5b505050506040513d601f19601f82011682018060405250810190613205919061596b565b602084015282526102408401516080840151604051631710760b60e31b81526001600160a01b03918216600482015291169063b883b05890602401602060405180830381865afa15801561325d573d6000803e3d6000fd5b505050506040513d601f19601f820116820180604052508101906132819190615382565b60408301819052835183516132a7926001600160801b03909216916106b0919085614b7d565b60a08501528251604083015160208401516132d1926001600160801b031691610b99919085614b7d565b608085015260a08401516101e0850180516132ed9083906153c4565b905250608084015160e0850180516133069083906153c4565b905250608084015160608501805161331f9083906153c4565b9052506102608401516001600160a01b03808b1691160361337d5782516040830151610100860151613360926001600160801b031691610b99919085614b7d565b61012085018190526060850180516133799083906153b1565b9052505b8361026001516001600160a01b03168a6001600160a01b0316146133ba578360a0015184610180018181516133b291906153c4565b9052506134c3565b61341d83600001516001600160801b03166106b084604001518460008961010001511180156133fb57508e6001600160a01b03168e6001600160a01b031614155b61340a578861010001516117c1565b6117c18f8f8b61010001516101f46141cf565b61020085018190528351604080850151610260880151915163ce96cb7760e01b81526001600160a01b038d811660048301526134b2946001600160801b0316936106b0939288929091169063ce96cb7790602401602060405180830381865afa15801561348e573d6000803e3d6000fd5b505050506040513d601f19601f820116820180604052508101906117c19190615382565b6134bc91906153b1565b6101a08501525b505b82516001908101845260408401805190911c9052613053565b610240830151604051638e8f294b60e01b81526001600160a01b038b8116600483015290911690638e8f294b9060240160a060405180830381865afa15801561352b573d6000803e3d6000fd5b505050506040513d601f19601f8201168201806040525081019061354f9190615579565b6001600160a01b039081166102208901526001600160801b0394909416610140880152505050610240840151604051638e8f294b60e01b81528a83166004820152911690638e8f294b9060240160a060405180830381865afa1580156135b9573d6000803e3d6000fd5b505050506040513d601f19601f820116820180604052508101906135dd9190615579565b505050506001600160801b0316610160840181905260608401516136069187916106b091611531565b60c084015261016083015161018084015161362091611531565b6101c0840181905260c08401511161377b57613771613767846101400151610b998c6001600160a01b031663313ce5676040518163ffffffff1660e01b8152600401602060405180830381865afa15801561367f573d6000803e3d6000fd5b505050506040513d601f19601f820116820180604052508101906136a39190615925565b6136ae90600a615a19565b610240880151610220890151604051631710760b60e31b81526001600160a01b03918216600482015291169063b883b05890602401602060405180830381865afa158015613700573d6000803e3d6000fd5b505050506040513d601f19601f820116820180604052508101906137249190615382565b6117c18961020001518a60e001518b61012001518c6101e0015161374891906153c4565b61375291906153b1565b61375c91906153b1565b8a6101a00151614b9c565b8460200151614b9c565b93505050506138ce565b6138b9896001600160a01b031663313ce5676040518163ffffffff1660e01b8152600401602060405180830381865afa1580156137bc573d6000803e3d6000fd5b505050506040513d601f19601f820116820180604052508101906137e09190615925565b6137eb90600a615a19565b610240850151610220860151604051631710760b60e31b81526001600160a01b03918216600482015291169063b883b05890602401602060405180830381865afa15801561383d573d6000803e3d6000fd5b505050506040513d601f19601f820116820180604052508101906138619190615382565b6117c161386e8a8a611531565b896138908961016001516106b08e8c610140015161153190919063ffffffff16565b61389a91906153c4565b6138a491906153b1565b876101c001518860c00151610b9991906153b1565b83602001516138c891906153b1565b93505050505b95945050505050565b6000807f00000000000000000000000000000000000000000000000000000000000000006001600160a01b0316633ec045a66040518163ffffffff1660e01b8152600401602060405180830381865afa158015613938573d6000803e3d6000fd5b505050506040513d601f19601f8201168201806040525081019061395c91906153d7565b90506139c6604051806101400160405280600081526020016000815260200160008152602001600081526020016000815260200160008152602001600081526020016000815260200160006001600160a01b0316815260200160006001600160a01b031681525090565b604051638e8f294b60e01b81526001600160a01b038981166004830152831690638e8f294b9060240160a060405180830381865afa158015613a0c573d6000803e3d6000fd5b505050506040513d601f19601f82011682018060405250810190613a309190615579565b6001600160a01b039081166101008701526001600160801b039490941660a08601525050604051638e8f294b60e01b8152898316600482015291841691638e8f294b915060240160a060405180830381865afa158015613a94573d6000803e3d6000fd5b505050506040513d601f19601f82011682018060405250810190613ab89190615579565b505050506001600160801b031660c0820181905260a0820151600091613af291613ae191611531565b613aeb90876153b1565b86906143c7565b905060008613613b065792506138ce915050565b60405160016263e28d60e11b031981526001600160a01b03888116600483015284169063ff383ae690602401602060405180830381865afa158015613b4f573d6000803e3d6000fd5b505050506040513d601f19601f82011682018060405250810190613b739190615382565b6040838101919091526101008301519051631710760b60e31b81526001600160a01b039182166004820152613c649185169063b883b05890602401602060405180830381865afa158015613bcb573d6000803e3d6000fd5b505050506040513d601f19601f82011682018060405250810190613bef9190615382565b8a6001600160a01b031663313ce5676040518163ffffffff1660e01b8152600401602060405180830381865afa158015613c2d573d6000803e3d6000fd5b505050506040513d601f19601f82011682018060405250810190613c519190615925565b613c5c90600a615a19565b889190614b7d565b6060830152600082525b604082015115613fe457604082015160011615613fcb576040805160a0810182526000808252602080830182905282840182905260608084018390526080840183905284519081018552828152908101829052928301529083516040516308cae55b60e21b815260048101919091526001600160a01b0386169063232b956c90602401602060405180830381865afa158015613d0e573d6000803e3d6000fd5b505050506040513d601f19601f82011682018060405250810190613d3291906153d7565b6001600160a01b039081166101208601819052604051638e8f294b60e01b8152600481019190915290861690638e8f294b9060240160a060405180830381865afa158015613d84573d6000803e3d6000fd5b505050506040513d601f19601f82011682018060405250810190613da89190615579565b6001600160a01b03908116608088015260ff93909316602087015250506001600160801b0391909116835261012085015160405163014a296f60e01b81528b8316600482015291169063014a296f906024016040805180830381865afa158015613e16573d6000803e3d6000fd5b505050506040513d601f19601f82011682018060405250810190613e3a919061596b565b602083015281526080820151604051631710760b60e31b81526001600160a01b0391821660048201529086169063b883b05890602401602060405180830381865afa158015613e8d573d6000803e3d6000fd5b505050506040513d601f19601f82011682018060405250810190613eb19190615382565b60408201526020820151613ec690600a615a19565b60208501526101208401516001600160a01b03808c16911603613f3357613f1a82600001516001600160801b031661037483604001518760200151613f0b8f8f61407f565b86602001516117c191906153b1565b84608001818151613f2b91906153c4565b905250613f70565b8151604082015160208087015190840151613f5b936001600160801b03169261037492614b4f565b84608001818151613f6c91906153c4565b9052505b8a6001600160a01b03168461012001516001600160a01b031614613fc8578151604082015160208601518351613fb3936001600160801b0316926106b092614b7d565b8460e001818151613fc491906153c4565b9052505b50505b81516001908101835260408301805190911c9052613c6e565b6138c861407961401d6140088560c001518660a0015161153190919063ffffffff16565b61401290896153b1565b606086015190611531565b61404261403b8660c00151876080015161153190919063ffffffff16565b8990611531565b6060860151614052908a90611531565b60c087015160e088015161406591611531565b61406f91906153c4565b610b9991906153b1565b82614b9c565b604051632f2e037160e11b81526001600160a01b0382811660048301526000918291851690635e5c06e290602401606060405180830381865afa1580156140ca573d6000803e3d6000fd5b505050506040513d601f19601f820116820180604052508101906140ee919061545e565b60405163023effef60e51b8152600481018290529093506001600160a01b03871692506347dffde09150602401602060405180830381865afa158015614138573d6000803e3d6000fd5b505050506040513d601f19601f8201168201806040525081019061415c9190615382565b949350505050565b6040805160608101825260008082526020820181905291810191909152826001600160a01b0316846001600160a01b0316111561419f579192915b50604080516060810182526001600160a01b03948516815292909316602083015262ffffff169181019190915290565b600080856001600160a01b03166338d52e0f6040518163ffffffff1660e01b8152600401602060405180830381865afa158015614210573d6000803e3d6000fd5b505050506040513d601f19601f8201168201806040525081019061423491906153d7565b90506000856001600160a01b03166338d52e0f6040518163ffffffff1660e01b8152600401602060405180830381865afa158015614276573d6000803e3d6000fd5b505050506040513d601f19601f8201168201806040525081019061429a91906153d7565b9050600085116142ab5760006143bc565b7f00000000000000000000000000000000000000000000000000000000000000006001600160a01b03166330d07f21838387896142e988888c614164565b516001600160a01b038981169116146143205761431b600173fffd8963efd1fc6a506488495d951d5263988d26615a28565b614330565b6143306401000276a36001615a48565b6040516001600160e01b031960e088901b1681526001600160a01b039586166004820152938516602485015262ffffff9092166044840152606483015291909116608482015260a4016020604051808303816000875af1158015614398573d6000803e3d6000fd5b505050506040513d601f19601f820116820180604052508101906143bc9190615382565b979650505050505050565b600061152883670de0b6b3a764000084614b7d565b6040805160c081018252600080825260208201819052918101829052606081018290526080810182905260a0810182905260007f00000000000000000000000000000000000000000000000000000000000000006001600160a01b0316633ec045a66040518163ffffffff1660e01b8152600401602060405180830381865afa15801561446d573d6000803e3d6000fd5b505050506040513d601f19601f8201168201806040525081019061449191906153d7565b604051638e8f294b60e01b81526001600160a01b03898116600483015291925090821690638e8f294b9060240160a060405180830381865afa1580156144db573d6000803e3d6000fd5b505050506040513d601f19601f820116820180604052508101906144ff9190615579565b6001600160a01b03908116606088015260ff93909316865250506001600160801b039190911660408085019190915251638e8f294b60e01b8152878216600482015290821690638e8f294b9060240160a060405180830381865afa15801561456b573d6000803e3d6000fd5b505050506040513d601f19601f8201168201806040525081019061458f9190615579565b6001600160a01b031660a0870152505060ff1660208401526001600160801b0316608083015281516143bc906145c690600a6156d4565b6060840151604051631710760b60e31b81526001600160a01b0391821660048201529084169063b883b05890602401602060405180830381865afa158015614612573d6000803e3d6000fd5b505050506040513d601f19601f820116820180604052508101906146369190615382565b6146eb6146548660400151876080015161153190919063ffffffff16565b60a0870151604051631710760b60e31b81526001600160a01b039182166004820152610b999188169063b883b05890602401602060405180830381865afa1580156146a3573d6000803e3d6000fd5b505050506040513d601f19601f820116820180604052508101906146c79190615382565b60208901516146d790600a6156d4565b6117c16146e48f8f61407f565b8d90611531565b9190614b4f565b600081602001516001600160a01b031682600001516001600160a01b03161061471d5761471d615432565b815160208084015160408086015181516001600160a01b0395861681860152949092168482015262ffffff90911660608085019190915281518085038201815260808501909252815191909201206001600160f81b031960a08401529085901b6bffffffffffffffffffffffff191660a183015260b58201527fe34f199b19b2b4f47f68442619d555527d244f78a3297ea89325f843f87b8b5460d582015260f50160408051601f1981840301815291905280516020909101209392505050565b606060007f00000000000000000000000000000000000000000000000000000000000000006001600160a01b0316633ec045a66040518163ffffffff1660e01b8152600401602060405180830381865afa158015614840573d6000803e3d6000fd5b505050506040513d601f19601f8201168201806040525081019061486491906153d7565b90506000816001600160a01b031663375a7cba6040518163ffffffff1660e01b8152600401600060405180830381865afa1580156148a6573d6000803e3d6000fd5b505050506040513d6000823e601f3d908101601f191682016040526148ce9190810190615a68565b51905060007f00000000000000000000000000000000000000000000000000000000000000006001600160a01b031663158274a56040518163ffffffff1660e01b8152600401602060405180830381865afa158015614931573d6000803e3d6000fd5b505050506040513d601f19601f8201168201806040525081019061495591906153d7565b9050816001600160401b0381111561496f5761496f614fe1565b6040519080825280602002602001820160405280156149b457816020015b604080518082019091526000808252602082015281526020019060019003908161498d5790505b50935060005b82811015614b37576040516308cae55b60e21b8152600481018290526000906001600160a01b0386169063232b956c90602401602060405180830381865afa158015614a0a573d6000803e3d6000fd5b505050506040513d601f19601f82011682018060405250810190614a2e91906153d7565b6001600160a01b03166338d52e0f6040518163ffffffff1660e01b8152600401602060405180830381865afa158015614a6b573d6000803e3d6000fd5b505050506040513d601f19601f82011682018060405250810190614a8f91906153d7565b6040805180820182526001600160a01b0380841680835292516370a0823160e01b81529087166004820152929350916020830191906370a0823190602401602060405180830381865afa158015614aea573d6000803e3d6000fd5b505050506040513d601f19601f82011682018060405250810190614b0e9190615382565b815250868381518110614b2357614b23615448565b6020908102919091010152506001016149ba565b5050505090565b60006115288383670de0b6b3a76400005b828202811515841585830485141716614b6757600080fd5b6001826001830304018115150290509392505050565b828202811515841585830485141716614b9557600080fd5b0492915050565b6000818310614bab5781611528565b5090919050565b6040518060a0016040528060006001600160a01b03168152602001606081526020016060815260200160008152602001600081525090565b60405180610140016040528060008152602001600081526020016000815260200160008152602001600081526020016000815260200160008152602001614c4a604080516060810182526000808252602082018190529181019190915290565b815260200160008152602001606081525090565b60405180610260016040528060006001600160a01b031681526020016000815260200160008152602001600081526020016000815260200160008152602001600081526020016060815260200160006001600160a01b03168152602001614d7e604051806101c0016040528060006001600160a01b0316815260200160006001600160a01b0316815260200160006001600160a01b03168152602001600063ffffffff168152602001600081526020016000815260200160008152602001600081526020016000600f0b815260200160006001600160401b0316815260200160006001600160401b0316815260200160006001600160401b0316815260200160006001600160401b0316815260200160006001600160401b031681525090565b81526020016060815260200160008152602001600081526020016000815260200160008152602001600081526020016000815260200160008152602001600081525090565b6001600160a01b0381168114614dd857600080fd5b50565b600080600080600080600080610100898b031215614df857600080fd5b8835614e0381614dc3565b97506020890135614e1381614dc3565b96506040890135614e2381614dc3565b979a96995096976060810135975060808101359660a0820135965060c0820135955060e0909101359350915050565b60005b83811015614e6d578181015183820152602001614e55565b50506000910152565b60008151808452614e8e816020860160208601614e52565b601f01601f19169290920160200192915050565b6000602080835260a0808401855183860152828601516040818188015280880151915060608281890152808901519250608080818a015284845180875260c08b01915060c08160051b8c01019650888601955060005b81811015614f6b578b880360bf19018352865180516001600160a01b031689528a8101518b8a018b9052614f2e8b8b0182614e76565b9050878201518a8203898c0152614f458282614e76565b838901518c8a0152928701519a87019a909a525097509589019591890191600101614ef8565b50959b9a5050505050505050505050565b60008060008060008060c08789031215614f9557600080fd5b8635614fa081614dc3565b95506020870135614fb081614dc3565b94506040870135614fc081614dc3565b959894975094956060810135955060808101359460a0909101359350915050565b634e487b7160e01b600052604160045260246000fd5b604080519081016001600160401b038111828210171561501957615019614fe1565b60405290565b6040516101c081016001600160401b038111828210171561501957615019614fe1565b604051601f8201601f191681016001600160401b038111828210171561506a5761506a614fe1565b604052919050565b60006001600160401b0382111561508b5761508b614fe1565b5060051b60200190565b600082601f8301126150a657600080fd5b813560206150bb6150b683615072565b615042565b82815260059290921b840181019181810190868411156150da57600080fd5b8286015b8481101561510757803562ffffff811681146150fa5760008081fd5b83529183019183016150de565b509695505050505050565b600080604080848603121561512657600080fd5b83356001600160401b038082111561513d57600080fd5b818601915086601f83011261515157600080fd5b813560206151616150b683615072565b82815260069290921b8401810191818101908a84111561518057600080fd5b948201945b838610156151d25786868c03121561519d5760008081fd5b6151a5614ff7565b86356151b081614dc3565b8152868401356151bf81614dc3565b8185015282529486019490820190615185565b975050870135935050808311156151e857600080fd5b50506151f685828601615095565b9150509250929050565b6000806000806080858703121561521657600080fd5b843561522181614dc3565b9350602085013561523181614dc3565b9250604085013561524181614dc3565b9396929550929360600135925050565b600081518084526020808501945080840160005b8381101561529557815180516001600160a01b031688528301518388015260409096019590820190600101615265565b509495945050505050565b6020815281516020820152602082015160408201526040820151606082015260608201516080820152608082015160a082015260a082015160c082015260c082015160e0820152600060e08301516101006153248185018380516001600160a01b0390811683526020808301519091169083015260409081015162ffffff16910152565b840151610160840152506101208301516101808084015261415c6101a0840182615251565b6000806040838503121561535c57600080fd5b823561536781614dc3565b9150602083013561537781614dc3565b809150509250929050565b60006020828403121561539457600080fd5b5051919050565b634e487b7160e01b600052601160045260246000fd5b8181038181111561152b5761152b61539b565b8082018082111561152b5761152b61539b565b6000602082840312156153e957600080fd5b81516153f481614dc3565b9392505050565b818103600083128015838313168383128216171561541b5761541b61539b565b5092915050565b805161542d81614dc3565b919050565b634e487b7160e01b600052600160045260246000fd5b634e487b7160e01b600052603260045260246000fd5b60008060006060848603121561547357600080fd5b8351925060208401519150604084015190509250925092565b805161ffff8116811461542d57600080fd5b805160ff8116811461542d57600080fd5b8051801515811461542d57600080fd5b600080600080600080600060e0888a0312156154da57600080fd5b87516154e581614dc3565b8097505060208801518060020b81146154fd57600080fd5b955061550b6040890161548c565b94506155196060890161548c565b93506155276080890161548c565b925061553560a0890161549e565b915061554360c089016154af565b905092959891949750929550565b80820182811260008312801582168215821617156155715761557161539b565b505092915050565b600080600080600060a0868803121561559157600080fd5b85516001600160801b03811681146155a857600080fd5b94506155b66020870161549e565b93506155c46040870161549e565b92506155d2606087016154af565b915060808601516155e281614dc3565b809150509295509295909350565b600181815b8085111561562b5781600019048211156156115761561161539b565b8085161561561e57918102915b93841c93908002906155f5565b509250929050565b6000826156425750600161152b565b8161564f5750600061152b565b8160018114615665576002811461566f5761568b565b600191505061152b565b60ff8411156156805761568061539b565b50506001821b61152b565b5060208310610133831016604e8410600b84101617156156ae575081810a61152b565b6156b883836155f0565b80600019048211156156cc576156cc61539b565b029392505050565b60006115288383615633565b600060208083850312156156f357600080fd5b82516001600160401b0381111561570957600080fd5b8301601f8101851361571a57600080fd5b80516157286150b682615072565b81815260059190911b8201830190838101908783111561574757600080fd5b928401925b828410156143bc57835161575f81614dc3565b8252928401929084019061574c565b805163ffffffff8116811461542d57600080fd5b60008060006060848603121561579757600080fd5b6157a08461576e565b92506157ae6020850161576e565b91506157bc6040850161576e565b90509250925092565b6000600182016157d7576157d761539b565b5060010190565b8051600f81900b811461542d57600080fd5b80516001600160401b038116811461542d57600080fd5b60006101c0828403121561581a57600080fd5b61582261501f565b61582b83615422565b815261583960208401615422565b602082015261584a60408401615422565b604082015261585b6060840161576e565b60608201526080830151608082015260a083015160a082015260c083015160c082015260e083015160e08201526101006158968185016157de565b908201526101206158a88482016157f0565b908201526101406158ba8482016157f0565b908201526101606158cc8482016157f0565b908201526101806158de8482016157f0565b908201526101a06158f08482016157f0565b908201529392505050565b634e487b7160e01b600052601260045260246000fd5b600082615920576159206158fb565b500690565b60006020828403121561593757600080fd5b6115288261549e565b808202811582820484141761152b5761152b61539b565b600082615966576159666158fb565b500490565b6000806040838503121561597e57600080fd5b505080516020909101519092909150565b6000602082840312156159a157600080fd5b81516001600160401b03808211156159b857600080fd5b818401915084601f8301126159cc57600080fd5b8151818111156159de576159de614fe1565b6159f1601f8201601f1916602001615042565b9150808252856020828501011115615a0857600080fd5b612b15816020840160208601614e52565b600061152860ff841683615633565b6001600160a01b0382811682821603908082111561541b5761541b61539b565b6001600160a01b0381811683821601908082111561541b5761541b61539b565b60006020808385031215615a7b57600080fd5b82516001600160401b03811115615a9157600080fd5b8301601f81018513615aa257600080fd5b8051615ab06150b682615072565b81815260059190911b82018301908381019087831115615acf57600080fd5b928401925b828410156143bc578351615ae781614dc3565b82529284019290840190615ad456fea264697066735822122044ee5226d526fe77fe3ce429bd239723cd1dbdba948ad37681f7137ae402972064736f6c63430008110033",
  "devdoc": {
    "kind": "dev",
    "methods": {
      "constructor": {
        "custom:oz-upgrades-unsafe-allow": "constructor"
      },
      "initialize((address,address)[],uint24[])": {
        "details": "can only be called once."
      },
      "leverage(address,address,address,uint256)": {
        "params": {
          "account": "The account operating with the `DebtManager`.",
          "marketBorrow": "The borrow Market.",
          "marketDeposit": "The deposit Market.",
          "minHealthFactor": "The minimum health factor that the account must have after the leverage."
        },
        "returns": {
          "_0": "extended leverage data."
        }
      },
      "leverageRates(address,address,address,int256,uint256,uint256,uint256,uint256)": {
        "params": {
          "account": "The account to preview.",
          "assets": "The amount of assets that should be added or substracted to the principal.",
          "depositRate": "The current deposit rate of the deposit market.",
          "marketBorrow": "The borrow Market.",
          "marketDeposit": "The deposit Market.",
          "nativeRate": "The current native rate of the deposit market.",
          "nativeRateBorrow": "The current native rate of the borrow market.",
          "targetRatio": "The target ratio to preview."
        }
      },
      "previewDeleverage(address,address,address,uint256,uint256,uint256)": {
        "params": {
          "account": "The account that will be deleveraged.",
          "marketBorrow": "The borrow Market.",
          "marketDeposit": "The deposit Market.",
          "minHealthFactor": "The minimum health factor that the account must have after the leverage.",
          "ratio": "The ratio to be previewed.",
          "withdraw": "The amount of assets that will be withdrawn from the principal."
        }
      },
      "previewLeverage(address,address,address,uint256,uint256,uint256)": {
        "params": {
          "account": "The account that will be leveraged.",
          "deposit": "The amount of assets that will be added to the principal.",
          "marketBorrow": "The borrow Market.",
          "marketDeposit": "The deposit Market.",
          "minHealthFactor": "The minimum health factor that the account must have after the leverage.",
          "ratio": "The ratio to be previewed."
        }
      }
    },
    "stateVariables": {
      "MAX_SQRT_RATIO": {
        "details": "The maximum value that can be returned from #getSqrtRatioAtTick. Equivalent to getSqrtRatioAtTick(MAX_TICK)"
      },
      "MIN_SQRT_RATIO": {
        "details": "The minimum value that can be returned from #getSqrtRatioAtTick. Equivalent to getSqrtRatioAtTick(MIN_TICK)"
      },
      "debtManager": {
        "custom:oz-upgrades-unsafe-allow": "state-variable-immutable"
      },
      "uniswapV3Quoter": {
        "custom:oz-upgrades-unsafe-allow": "state-variable-immutable"
      }
    },
    "title": "DebtPreviewer",
    "version": 1
  },
  "userdoc": {
    "kind": "user",
    "methods": {
      "debtManager()": {
        "notice": "DebtManager contract to be used to get Auditor, BalancerVault and UniswapV3Factory addresses."
      },
      "initialize((address,address)[],uint24[])": {
        "notice": "Initializes the contract."
      },
      "leverage(address,address,address,uint256)": {
        "notice": "Returns extended data useful to leverage or deleverage an account principal position."
      },
      "leverageRates(address,address,address,int256,uint256,uint256,uint256,uint256)": {
        "notice": "returns rates based on inputs and leverage ratio impact on the borrow market"
      },
      "poolFees(address,address)": {
        "notice": "Mapping of Uniswap pools to their respective pool fee."
      },
      "previewDeleverage(address,address,address,uint256,uint256,uint256)": {
        "notice": "Returns the maximum ratio that an account can deleverage its principal minus `assets` amount."
      },
      "previewLeverage(address,address,address,uint256,uint256,uint256)": {
        "notice": "Returns the maximum ratio that an account can leverage its principal plus `assets` amount."
      },
      "uniswapV3Quoter()": {
        "notice": "Quoter contract to be used to preview the amount of assets to be swapped."
      }
    },
    "notice": "Contract to be consumed by Exactly's front-end dApp as a helper for `DebtManager`.",
    "version": 1
  },
  "storageLayout": {
    "storage": [
      {
        "astId": 415,
        "contract": "contracts/periphery/DebtPreviewer.sol:DebtPreviewer",
        "label": "_initialized",
        "offset": 0,
        "slot": "0",
        "type": "t_uint8"
      },
      {
        "astId": 418,
        "contract": "contracts/periphery/DebtPreviewer.sol:DebtPreviewer",
        "label": "_initializing",
        "offset": 1,
        "slot": "0",
        "type": "t_bool"
      },
      {
        "astId": 15606,
        "contract": "contracts/periphery/DebtPreviewer.sol:DebtPreviewer",
        "label": "poolFees",
        "offset": 0,
        "slot": "1",
        "type": "t_mapping(t_address,t_mapping(t_address,t_uint24))"
      }
    ],
    "types": {
      "t_address": {
        "encoding": "inplace",
        "label": "address",
        "numberOfBytes": "20"
      },
      "t_bool": {
        "encoding": "inplace",
        "label": "bool",
        "numberOfBytes": "1"
      },
      "t_mapping(t_address,t_mapping(t_address,t_uint24))": {
        "encoding": "mapping",
        "key": "t_address",
        "label": "mapping(address => mapping(address => uint24))",
        "numberOfBytes": "32",
        "value": "t_mapping(t_address,t_uint24)"
      },
      "t_mapping(t_address,t_uint24)": {
        "encoding": "mapping",
        "key": "t_address",
        "label": "mapping(address => uint24)",
        "numberOfBytes": "32",
        "value": "t_uint24"
      },
      "t_uint24": {
        "encoding": "inplace",
        "label": "uint24",
        "numberOfBytes": "3"
      },
      "t_uint8": {
        "encoding": "inplace",
        "label": "uint8",
        "numberOfBytes": "1"
      }
    }
  }
}