{
  "address": "0xec58A2a31bdEFA0a58772785661D41E5370385F5",
  "abi": [
    {
      "inputs": [
        {
          "internalType": "contract DebtManager",
          "name": "debtManager_",
          "type": "address"
        },
        {
          "internalType": "contract IUniswapQuoter",
          "name": "uniswapV3Quoter_",
          "type": "address"
        }
      ],
      "stateMutability": "nonpayable",
      "type": "constructor"
    },
    {
      "inputs": [],
      "name": "InvalidPreview",
      "type": "error"
    },
    {
      "anonymous": false,
      "inputs": [
        {
          "indexed": false,
          "internalType": "uint8",
          "name": "version",
          "type": "uint8"
        }
      ],
      "name": "Initialized",
      "type": "event"
    },
    {
      "inputs": [],
      "name": "debtManager",
      "outputs": [
        {
          "internalType": "contract DebtManager",
          "name": "",
          "type": "address"
        }
      ],
      "stateMutability": "view",
      "type": "function"
    },
    {
      "inputs": [
        {
          "components": [
            {
              "internalType": "address",
              "name": "tokenA",
              "type": "address"
            },
            {
              "internalType": "address",
              "name": "tokenB",
              "type": "address"
            }
          ],
          "internalType": "struct Pool[]",
          "name": "pools",
          "type": "tuple[]"
        },
        {
          "internalType": "uint24[]",
          "name": "fees",
          "type": "uint24[]"
        }
      ],
      "name": "initialize",
      "outputs": [],
      "stateMutability": "nonpayable",
      "type": "function"
    },
    {
      "inputs": [
        {
          "internalType": "contract Market",
          "name": "marketDeposit",
          "type": "address"
        },
        {
          "internalType": "contract Market",
          "name": "marketBorrow",
          "type": "address"
        },
        {
          "internalType": "address",
          "name": "account",
          "type": "address"
        },
        {
          "internalType": "uint256",
          "name": "minHealthFactor",
          "type": "uint256"
        }
      ],
      "name": "leverage",
      "outputs": [
        {
          "components": [
            {
              "internalType": "uint256",
              "name": "ratio",
              "type": "uint256"
            },
            {
              "internalType": "uint256",
              "name": "borrow",
              "type": "uint256"
            },
            {
              "internalType": "uint256",
              "name": "deposit",
              "type": "uint256"
            },
            {
              "internalType": "int256",
              "name": "principal",
              "type": "int256"
            },
            {
              "internalType": "uint256",
              "name": "maxRatio",
              "type": "uint256"
            },
            {
              "internalType": "uint256",
              "name": "minDeposit",
              "type": "uint256"
            },
            {
              "internalType": "uint256",
              "name": "maxWithdraw",
              "type": "uint256"
            },
            {
              "components": [
                {
                  "internalType": "address",
                  "name": "token0",
                  "type": "address"
                },
                {
                  "internalType": "address",
                  "name": "token1",
                  "type": "address"
                },
                {
                  "internalType": "uint24",
                  "name": "fee",
                  "type": "uint24"
                }
              ],
              "internalType": "struct PoolKey",
              "name": "pool",
              "type": "tuple"
            },
            {
              "internalType": "uint256",
              "name": "sqrtPriceX96",
              "type": "uint256"
            },
            {
              "components": [
                {
                  "internalType": "contract ERC20",
                  "name": "asset",
                  "type": "address"
                },
                {
                  "internalType": "uint256",
                  "name": "liquidity",
                  "type": "uint256"
                }
              ],
              "internalType": "struct AvailableAsset[]",
              "name": "availableAssets",
              "type": "tuple[]"
            }
          ],
          "internalType": "struct Leverage",
          "name": "",
          "type": "tuple"
        }
      ],
      "stateMutability": "nonpayable",
      "type": "function"
    },
    {
      "inputs": [
        {
          "internalType": "contract Market",
          "name": "marketDeposit",
          "type": "address"
        },
        {
          "internalType": "contract Market",
          "name": "marketBorrow",
          "type": "address"
        },
        {
          "internalType": "address",
          "name": "account",
          "type": "address"
        },
        {
          "internalType": "int256",
          "name": "assets",
          "type": "int256"
        },
        {
          "internalType": "uint256",
          "name": "targetRatio",
          "type": "uint256"
        },
        {
          "internalType": "uint256",
          "name": "depositRate",
          "type": "uint256"
        },
        {
          "internalType": "uint256",
          "name": "nativeRate",
          "type": "uint256"
        }
      ],
      "name": "leverageRates",
      "outputs": [
        {
          "components": [
            {
              "internalType": "uint256",
              "name": "native",
              "type": "uint256"
            },
            {
              "internalType": "uint256",
              "name": "borrow",
              "type": "uint256"
            },
            {
              "internalType": "uint256",
              "name": "deposit",
              "type": "uint256"
            },
            {
              "components": [
                {
                  "internalType": "address",
                  "name": "asset",
                  "type": "address"
                },
                {
                  "internalType": "string",
                  "name": "assetName",
                  "type": "string"
                },
                {
                  "internalType": "string",
                  "name": "assetSymbol",
                  "type": "string"
                },
                {
                  "internalType": "uint256",
                  "name": "borrow",
                  "type": "uint256"
                },
                {
                  "internalType": "uint256",
                  "name": "deposit",
                  "type": "uint256"
                }
              ],
              "internalType": "struct RewardRate[]",
              "name": "rewards",
              "type": "tuple[]"
            }
          ],
          "internalType": "struct Rates",
          "name": "rates",
          "type": "tuple"
        }
      ],
      "stateMutability": "view",
      "type": "function"
    },
    {
      "inputs": [
        {
          "internalType": "address",
          "name": "",
          "type": "address"
        },
        {
          "internalType": "address",
          "name": "",
          "type": "address"
        }
      ],
      "name": "poolFees",
      "outputs": [
        {
          "internalType": "uint24",
          "name": "",
          "type": "uint24"
        }
      ],
      "stateMutability": "view",
      "type": "function"
    },
    {
      "inputs": [
        {
          "internalType": "contract Market",
          "name": "marketDeposit",
          "type": "address"
        },
        {
          "internalType": "contract Market",
          "name": "marketBorrow",
          "type": "address"
        },
        {
          "internalType": "address",
          "name": "account",
          "type": "address"
        },
        {
          "internalType": "uint256",
          "name": "withdraw",
          "type": "uint256"
        },
        {
          "internalType": "uint256",
          "name": "ratio",
          "type": "uint256"
        },
        {
          "internalType": "uint256",
          "name": "minHealthFactor",
          "type": "uint256"
        }
      ],
      "name": "previewDeleverage",
      "outputs": [
        {
          "components": [
            {
              "internalType": "uint256",
              "name": "ratio",
              "type": "uint256"
            },
            {
              "internalType": "uint256",
              "name": "borrow",
              "type": "uint256"
            },
            {
              "internalType": "uint256",
              "name": "deposit",
              "type": "uint256"
            },
            {
              "internalType": "int256",
              "name": "principal",
              "type": "int256"
            },
            {
              "internalType": "uint256",
              "name": "maxRatio",
              "type": "uint256"
            },
            {
              "internalType": "uint256",
              "name": "swapRatio",
              "type": "uint256"
            }
          ],
          "internalType": "struct Limit",
          "name": "limit",
          "type": "tuple"
        }
      ],
      "stateMutability": "nonpayable",
      "type": "function"
    },
    {
      "inputs": [
        {
          "internalType": "address",
          "name": "assetIn",
          "type": "address"
        },
        {
          "internalType": "address",
          "name": "assetOut",
          "type": "address"
        },
        {
          "internalType": "uint256",
          "name": "amountIn",
          "type": "uint256"
        },
        {
          "internalType": "uint24",
          "name": "fee",
          "type": "uint24"
        }
      ],
      "name": "previewInputSwap",
      "outputs": [
        {
          "internalType": "uint256",
          "name": "",
          "type": "uint256"
        }
      ],
      "stateMutability": "nonpayable",
      "type": "function"
    },
    {
      "inputs": [
        {
          "internalType": "contract Market",
          "name": "marketDeposit",
          "type": "address"
        },
        {
          "internalType": "contract Market",
          "name": "marketBorrow",
          "type": "address"
        },
        {
          "internalType": "address",
          "name": "account",
          "type": "address"
        },
        {
          "internalType": "uint256",
          "name": "deposit",
          "type": "uint256"
        },
        {
          "internalType": "uint256",
          "name": "ratio",
          "type": "uint256"
        },
        {
          "internalType": "uint256",
          "name": "minHealthFactor",
          "type": "uint256"
        }
      ],
      "name": "previewLeverage",
      "outputs": [
        {
          "components": [
            {
              "internalType": "uint256",
              "name": "ratio",
              "type": "uint256"
            },
            {
              "internalType": "uint256",
              "name": "borrow",
              "type": "uint256"
            },
            {
              "internalType": "uint256",
              "name": "deposit",
              "type": "uint256"
            },
            {
              "internalType": "int256",
              "name": "principal",
              "type": "int256"
            },
            {
              "internalType": "uint256",
              "name": "maxRatio",
              "type": "uint256"
            },
            {
              "internalType": "uint256",
              "name": "swapRatio",
              "type": "uint256"
            }
          ],
          "internalType": "struct Limit",
          "name": "limit",
          "type": "tuple"
        }
      ],
      "stateMutability": "nonpayable",
      "type": "function"
    },
    {
      "inputs": [
        {
          "internalType": "contract Market",
          "name": "marketIn",
          "type": "address"
        },
        {
          "internalType": "contract Market",
          "name": "marketOut",
          "type": "address"
        },
        {
          "internalType": "uint256",
          "name": "amountOut",
          "type": "uint256"
        },
        {
          "internalType": "uint24",
          "name": "fee",
          "type": "uint24"
        }
      ],
      "name": "previewOutputSwap",
      "outputs": [
        {
          "internalType": "uint256",
          "name": "",
          "type": "uint256"
        }
      ],
      "stateMutability": "nonpayable",
      "type": "function"
    },
    {
      "inputs": [],
      "name": "uniswapV3Quoter",
      "outputs": [
        {
          "internalType": "contract IUniswapQuoter",
          "name": "",
          "type": "address"
        }
      ],
      "stateMutability": "view",
      "type": "function"
    }
  ],
  "transactionHash": "0xc9cbbbf73f630da07ec87beb87ef06e01b20a7a15f235cb4495d1b377a5898dc",
  "args": [
    "0xA5DF45A240eebE3745062c616688a2AafA6a55DA",
    "0xb27308f9F90D607463bb33eA1BeBb41C27CE5AB6"
  ],
  "numDeployments": 1,
  "solcInputHash": "dfc279e9e31715ccd57d7e53eae538e0",
  "bytecode": "0x60c06040523480156200001157600080fd5b5060405162005fbd38038062005fbd833981016040819052620000349162000065565b6001600160a01b039182166080521660a052620000a4565b6001600160a01b03811681146200006257600080fd5b50565b600080604083850312156200007957600080fd5b825162000086816200004c565b602084015190925062000099816200004c565b809150509250929050565b60805160a051615e7c620001416000396000818161012d01528181610251015261157401526000818161018c01528181610f12015281816116fe015281816117f40152818161195801528181611a4901528181611c2c0152818161240901528181612bf501528181612ceb01528181612e4f01528181612f40015281816145f401528181614a7601528181614bcd0152614d490152615e7c6000f3fe608060405234801561001057600080fd5b506004361061009e5760003560e01c80639241c920116100665780639241c920146101ae578063926da1b4146101c3578063a9563e4f146101e3578063ecd0cca014610227578063fcc5815b1461023a57600080fd5b8063372f554f146100a357806337ad93f1146100c95780634d20d0f8146101285780635ce3d8331461016757806360b3a03314610187575b600080fd5b6100b66100b1366004615118565b61024d565b6040519081526020015b60405180910390f35b6100dc6100d7366004615169565b610369565b6040516100c09190600060c082019050825182526020830151602083015260408301516040830152606083015160608301526080830151608083015260a083015160a083015292915050565b61014f7f000000000000000000000000000000000000000000000000000000000000000081565b6040516001600160a01b0390911681526020016100c0565b61017a6101753660046151ce565b61079c565b6040516100c0919061528c565b61014f7f000000000000000000000000000000000000000000000000000000000000000081565b6101c16101bc36600461548c565b610bfa565b005b6101d66101d136600461557a565b610d7c565b6040516100c0919061561a565b6102136101f13660046156c3565b600160209081526000928352604080842090915290825290205462ffffff1681565b60405162ffffff90911681526020016100c0565b6100dc610235366004615169565b61113c565b6100b6610248366004615118565b611496565b60007f00000000000000000000000000000000000000000000000000000000000000006001600160a01b031663f7729d438686858761028d8b8b8a61168e565b516001600160a01b038c81169116146102c4576102bf600173fffd8963efd1fc6a506488495d951d5263988d26615712565b6102d4565b6102d46401000276a36001615739565b6040516001600160e01b031960e088901b1681526001600160a01b039586166004820152938516602485015262ffffff9092166044840152606483015291909116608482015260a4016020604051808303816000875af115801561033c573d6000803e3d6000fd5b505050506040513d601f19601f820116820180604052508101906103609190615759565b95945050505050565b6103a26040518060c001604052806000815260200160008152602001600081526020016000815260200160008152602001600081525090565b60006103af8888886116f9565b6060830181905212156103d5576040516342a7200160e11b815260040160405180910390fd5b60006103e2888888611c27565b9050816060015185116104235784826060018181516104019190615772565b915081815250506104198888888560600151876123df565b608083015261047a565b808511610461576104348582615792565b6060830181905260001261045057670de0b6b3a7640000610419565b6104198888888560600151876123df565b6040516342a7200160e11b815260040160405180910390fd5b8160800151841161048b5783610491565b81608001515b8083526000906104c6908a908a906104c1906104b690670de0b6b3a764000090615792565b606088015190612bd2565b612bf0565b6104d089896130a1565b6104da9190615792565b905060006105ac8a6001600160a01b03166338d52e0f6040518163ffffffff1660e01b8152600401602060405180830381865afa15801561051f573d6000803e3d6000fd5b505050506040513d601f19601f8201168201806040525081019061054391906157b0565b8a6001600160a01b03166338d52e0f6040518163ffffffff1660e01b8152600401602060405180830381865afa158015610581573d6000803e3d6000fd5b505050506040513d601f19601f820116820180604052508101906105a591906157b0565b600061168e565b80516001600160a01b0390811660009081526001602090815260408083208286015190941683529290528190205462ffffff16908201529050816105f08a8a6130a1565b6105fa9190615792565b60208501526001600160a01b03808a16908b16036106af5760405163ce96cb7760e01b81526001600160a01b038981166004830152839189918d169063ce96cb7790602401602060405180830381865afa15801561065c573d6000803e3d6000fd5b505050506040513d601f19601f820116820180604052508101906106809190615759565b61068a9190615792565b6106949190615792565b60408501525050670de0b6b3a764000060a083015250610792565b6106bf8a8a848460400151611496565b60405163ce96cb7760e01b81526001600160a01b038a811660048301528991908d169063ce96cb7790602401602060405180830381865afa158015610708573d6000803e3d6000fd5b505050506040513d601f19601f8201168201806040525081019061072c9190615759565b6107369190615792565b6107409190615792565b604085015260006107528a8c85612bf0565b1161076557670de0b6b3a7640000610789565b6107896107738a8c85612bf0565b6107838c8c868660400151611496565b90613186565b60a08501525050505b9695505050505050565b6107c76040518060800160405280600081526020016000815260200160008152602001606081525090565b6000806107df8a8a8a8a670de0b6b3a764000061319b565b509150915060008213610805576040516342a7200160e11b815260040160405180910390fd5b60008187101561093d57600061082561081e8985615792565b8590612bd2565b90506109358b6001600160a01b03168d6001600160a01b03161461084a57600061084c565b815b8c6001600160a01b03166301e1d1146040518163ffffffff1660e01b8152600401602060405180830381865afa15801561088a573d6000803e3d6000fd5b505050506040513d601f19601f820116820180604052508101906108ae9190615759565b6108b89190615792565b6108c38e8e85612bf0565b8d6001600160a01b031663eee8c9e06040518163ffffffff1660e01b8152600401602060405180830381865afa158015610901573d6000803e3d6000fd5b505050506040513d601f19601f820116820180604052508101906109259190615759565b61092f9190615792565b90613270565b915050610a5a565b600061094c61081e848a615792565b9050610a568b6001600160a01b03168d6001600160a01b031614610971576000610973565b815b8c6001600160a01b03166301e1d1146040518163ffffffff1660e01b8152600401602060405180830381865afa1580156109b1573d6000803e3d6000fd5b505050506040513d601f19601f820116820180604052508101906109d59190615759565b6109df91906157d4565b6109ea8e8e85612bf0565b8d6001600160a01b031663eee8c9e06040518163ffffffff1660e01b8152600401602060405180830381865afa158015610a28573d6000803e3d6000fd5b505050506040513d601f19601f82011682018060405250810190610a4c9190615759565b61092f91906157d4565b9150505b610b45610a6f670de0b6b3a764000089615792565b8b6001600160a01b031663f3fdb15a6040518163ffffffff1660e01b8152600401602060405180830381865afa158015610aad573d6000803e3d6000fd5b505050506040513d601f19601f82011682018060405250810190610ad191906157b0565b6001600160a01b03166384a87466846040518263ffffffff1660e01b8152600401610afe91815260200190565b602060405180830381865afa158015610b1b573d6000803e3d6000fd5b505050506040513d601f19601f82011682018060405250810190610b3f9190615759565b90612bd2565b6020850152610b548688612bd2565b6040850152610b638588612bd2565b8452610be6610b718c613285565b8b6001600160a01b03168d6001600160a01b031614610b9857610b938c613285565b610bcb565b6040805160008082526020820190925290610bc9565b610bb6614ed7565b815260200190600190039081610bae5790505b505b8c6001600160a01b03168e6001600160a01b0316148a61426e565b606085015250919998505050505050505050565b600054610100900460ff1615808015610c1a5750600054600160ff909116105b80610c345750303b158015610c34575060005460ff166001145b610c3d57600080fd5b6000805460ff191660011790558015610c60576000805461ff0019166101001790555b8151835114610c7157610c716157e7565b60005b8351811015610d30576000610cdd858381518110610c9457610c946157fd565b602002602001015160000151868481518110610cb257610cb26157fd565b602002602001015160200151868581518110610cd057610cd06157fd565b602002602001015161168e565b60408181015182516001600160a01b039081166000908152600160208181528583209681015190931682529490915291909120805462ffffff191662ffffff909216919091179055919091019050610c74565b508015610d77576000805461ff0019169055604051600181527f7f26b83ff96e1f2b6a682f133852f6798a09c465da95921460cefb38474024989060200160405180910390a15b505050565b610d84614f0f565b604051632f2e037160e11b81526001600160a01b03848116600483015260009190861690635e5c06e290602401606060405180830381865afa158015610dce573d6000803e3d6000fd5b505050506040513d601f19601f82011682018060405250810190610df29190615813565b60405163ce96cb7760e01b81526001600160a01b03888116600483015291945060009350908916915063ce96cb7790602401602060405180830381865afa158015610e41573d6000803e3d6000fd5b505050506040513d601f19601f82011682018060405250810190610e659190615759565b90506000610e75888888886145cd565b90506000610e848989896116f9565b90506000610ec98a6001600160a01b03166338d52e0f6040518163ffffffff1660e01b8152600401602060405180830381865afa15801561051f573d6000803e3d6000fd5b80516001600160a01b03908116600090815260016020908152604080832082860151851684529091528082205462ffffff16908401529192508b8116908b161461100d57610f987f00000000000000000000000000000000000000000000000000000000000000006001600160a01b0316635b5491826040518163ffffffff1660e01b8152600401602060405180830381865afa158015610f6e573d6000803e3d6000fd5b505050506040513d601f19601f82011682018060405250810190610f9291906157b0565b83614984565b6001600160a01b0316633850c7bd6040518163ffffffff1660e01b815260040160e060405180830381865afa158015610fd5573d6000803e3d6000fd5b505050506040513d601f19601f82011682018060405250810190610ff99190615874565b50506001600160a01b039094169450505050505b60405180610140016040528060008513611028576000611032565b6110328786613186565b81526020018b6001600160a01b03166347dffde0896040518263ffffffff1660e01b815260040161106591815260200190565b602060405180830381865afa158015611082573d6000803e3d6000fd5b505050506040513d601f19601f820116820180604052508101906110a69190615759565b81526020018681526020018481526020016110d48d8d8d600089136110cc5760006110ce565b885b8e6123df565b8152602001858710156110f0576110eb8787615792565b6110f3565b60005b815260200160008513611107576000611112565b6111128d8d8d611c27565b815260200183815260200182815260200161112b614a70565b90529b9a5050505050505050505050565b6111756040518060c001604052806000815260200160008152602001600081526020016000815260200160008152602001600081525090565b6000611184888888888761319b565b608085015260608401919091529050808410806111a45750816080015184115b6111ae57836111b0565b805b826000018181525050600061125e896001600160a01b03166338d52e0f6040518163ffffffff1660e01b8152600401602060405180830381865afa1580156111fc573d6000803e3d6000fd5b505050506040513d601f19601f8201168201806040525081019061122091906157b0565b896001600160a01b03166338d52e0f6040518163ffffffff1660e01b8152600401602060405180830381865afa158015610581573d6000803e3d6000fd5b80516001600160a01b0390811660009081526001602090815260408083208286015190941683529290528181205462ffffff1691830191909152606085015191925012611338576112af88886130a1565b602084015260405163ce96cb7760e01b81526001600160a01b0388811660048301528791908b169063ce96cb7790602401602060405180830381865afa1580156112fd573d6000803e3d6000fd5b505050506040513d601f19601f820116820180604052508101906113219190615759565b61132b91906157d4565b6040840152506107929050565b8251606084015161134891614e5f565b60408401526001600160a01b03808916908a160361139e5782516113849061137990670de0b6b3a764000090615792565b606085015190612bd2565b60208401525050670de0b6b3a764000060a0820152610792565b60405163ce96cb7760e01b81526001600160a01b03888116600483015260009188918c169063ce96cb7790602401602060405180830381865afa1580156113e9573d6000803e3d6000fd5b505050506040513d601f19601f8201168201806040525081019061140d9190615759565b856040015161141c9190615792565b6114269190615792565b9050611438898b838560400151611496565b6114428a8a6130a1565b61144c91906157d4565b6020850152801580159061146a575060006114688b8b84612bf0565b115b61147c57670de0b6b3a7640000610789565b61078961148a8b8b84612bf0565b6107838b8d8587604001515b600080856001600160a01b03166338d52e0f6040518163ffffffff1660e01b8152600401602060405180830381865afa1580156114d7573d6000803e3d6000fd5b505050506040513d601f19601f820116820180604052508101906114fb91906157b0565b90506000856001600160a01b03166338d52e0f6040518163ffffffff1660e01b8152600401602060405180830381865afa15801561153d573d6000803e3d6000fd5b505050506040513d601f19601f8201168201806040525081019061156191906157b0565b905060008511611572576000611683565b7f00000000000000000000000000000000000000000000000000000000000000006001600160a01b03166330d07f21838387896115b088888c61168e565b516001600160a01b038981169116146115e7576115e2600173fffd8963efd1fc6a506488495d951d5263988d26615712565b6115f7565b6115f76401000276a36001615739565b6040516001600160e01b031960e088901b1681526001600160a01b039586166004820152938516602485015262ffffff9092166044840152606483015291909116608482015260a4016020604051808303816000875af115801561165f573d6000803e3d6000fd5b505050506040513d601f19601f820116820180604052508101906116839190615759565b979650505050505050565b6040805160608101825260008082526020820181905291810191909152826001600160a01b0316846001600160a01b031611156116c9579192915b50604080516060810182526001600160a01b03948516815292909316602083015262ffffff169181019190915290565b6000807f00000000000000000000000000000000000000000000000000000000000000006001600160a01b0316633ec045a66040518163ffffffff1660e01b8152600401602060405180830381865afa15801561175a573d6000803e3d6000fd5b505050506040513d601f19601f8201168201806040525081019061177e91906157b0565b604051638e8f294b60e01b81526001600160a01b0387811660048301529190911690638e8f294b9060240160a060405180830381865afa1580156117c6573d6000803e3d6000fd5b505050506040513d601f19601f820116820180604052508101906117ea9190615906565b94505050505060007f00000000000000000000000000000000000000000000000000000000000000006001600160a01b0316633ec045a66040518163ffffffff1660e01b8152600401602060405180830381865afa158015611850573d6000803e3d6000fd5b505050506040513d601f19601f8201168201806040525081019061187491906157b0565b604051638e8f294b60e01b81526001600160a01b0387811660048301529190911690638e8f294b9060240160a060405180830381865afa1580156118bc573d6000803e3d6000fd5b505050506040513d601f19601f820116820180604052508101906118e09190615906565b945050505050611bb3866001600160a01b031663313ce5676040518163ffffffff1660e01b8152600401602060405180830381865afa158015611927573d6000803e3d6000fd5b505050506040513d601f19601f8201168201806040525081019061194b919061597d565b61195690600a615a7c565b7f00000000000000000000000000000000000000000000000000000000000000006001600160a01b0316633ec045a66040518163ffffffff1660e01b8152600401602060405180830381865afa1580156119b4573d6000803e3d6000fd5b505050506040513d601f19601f820116820180604052508101906119d891906157b0565b604051631710760b60e31b81526001600160a01b038681166004830152919091169063b883b05890602401602060405180830381865afa158015611a20573d6000803e3d6000fd5b505050506040513d601f19601f82011682018060405250810190611a449190615759565b611bac7f00000000000000000000000000000000000000000000000000000000000000006001600160a01b0316633ec045a66040518163ffffffff1660e01b8152600401602060405180830381865afa158015611aa5573d6000803e3d6000fd5b505050506040513d601f19601f82011682018060405250810190611ac991906157b0565b604051631710760b60e31b81526001600160a01b038781166004830152919091169063b883b05890602401602060405180830381865afa158015611b11573d6000803e3d6000fd5b505050506040513d601f19601f82011682018060405250810190611b359190615759565b896001600160a01b031663313ce5676040518163ffffffff1660e01b8152600401602060405180830381865afa158015611b73573d6000803e3d6000fd5b505050506040513d601f19601f82011682018060405250810190611b97919061597d565b611ba290600a615a7c565b611bac8b8b6130a1565b9190614e74565b60405163ce96cb7760e01b81526001600160a01b03868116600483015288169063ce96cb7790602401602060405180830381865afa158015611bf9573d6000803e3d6000fd5b505050506040513d601f19601f82011682018060405250810190611c1d9190615759565b6107929190615772565b6000807f00000000000000000000000000000000000000000000000000000000000000006001600160a01b0316633ec045a66040518163ffffffff1660e01b8152600401602060405180830381865afa158015611c88573d6000803e3d6000fd5b505050506040513d601f19601f82011682018060405250810190611cac91906157b0565b9050611d1d604051806101600160405280600081526020016000815260200160008152602001600081526020016000815260200160006001600160a01b031681526020016000815260200160008152602001600081526020016000815260200160006001600160a01b031681525090565b60405160016263e28d60e11b031981526001600160a01b03858116600483015283169063ff383ae690602401602060405180830381865afa158015611d66573d6000803e3d6000fd5b505050506040513d601f19601f82011682018060405250810190611d8a9190615759565b60c082015260006101208201525b60c08101511561222a5760c08101516001161561220b576040805160a081018252600080825260208083018290528284018290526060808401839052608084018390528451908101855282815290810182905292830152906101208301516040516308cae55b60e21b815260048101919091526001600160a01b0385169063232b956c90602401602060405180830381865afa158015611e3c573d6000803e3d6000fd5b505050506040513d601f19601f82011682018060405250810190611e6091906157b0565b6001600160a01b039081166101408501819052604051638e8f294b60e01b8152600481019190915290851690638e8f294b9060240160a060405180830381865afa158015611eb2573d6000803e3d6000fd5b505050506040513d601f19601f82011682018060405250810190611ed69190615906565b6001600160a01b03908116608088015260ff93909316602087015250506001600160801b0391909116835261014084015160405163014a296f60e01b8152888316600482015291169063014a296f906024016040805180830381865afa158015611f44573d6000803e3d6000fd5b505050506040513d601f19601f82011682018060405250810190611f689190615a8b565b602083015281526080820151604051631710760b60e31b81526001600160a01b0391821660048201529085169063b883b05890602401602060405180830381865afa158015611fbb573d6000803e3d6000fd5b505050506040513d601f19601f82011682018060405250810190611fdf9190615759565b6040820181905282516020840151612015926001600160801b0390921691610b3f9161200c90600a615a7c565b85519190614e74565b8360600181815161202691906157d4565b90525081516040820151602084015161205e926001600160801b03169161092f9161205290600a615a7c565b60208601519190614e93565b8351849061206d9083906157d4565b905250600061207c88886130a1565b9050876001600160a01b03168461014001516001600160a01b0316036120d4576120ce83600001516001600160801b031661092f84604001518660200151600a6120c69190615a7c565b859190614e93565b60208501525b886001600160a01b03168461014001516001600160a01b0316036122075761215683600001516001600160801b0316610b3f84604001518660200151600a61211c9190615a7c565b60008611801561213e57508d6001600160a01b03168d6001600160a01b031614155b6121485785611bac565b611bac8e8e886101f4611496565b608085018190528351604084015160208601516121f7926001600160801b031691610b3f9161218690600a615a7c565b6101408a015160405163ce96cb7760e01b81526001600160a01b038f811660048301529091169063ce96cb7790602401602060405180830381865afa1580156121d3573d6000803e3d6000fd5b505050506040513d601f19601f82011682018060405250810190611bac9190615759565b6122019190615792565b60408501525b5050505b61012081018051600190810190915260c08201805190911c9052611d98565b604051638e8f294b60e01b81526001600160a01b038781166004830152831690638e8f294b9060240160a060405180830381865afa158015612270573d6000803e3d6000fd5b505050506040513d601f19601f820116820180604052508101906122949190615906565b6001600160a01b0390811660a08701526001600160801b0390941660e086018190526040805163313ce56760e01b81529051610792969295506107839450918c16925063313ce5679160048083019260209291908290030181865afa158015612301573d6000803e3d6000fd5b505050506040513d601f19601f82011682018060405250810190612325919061597d565b61233090600a615a7c565b60a0850151604051631710760b60e31b81526001600160a01b0391821660048201529087169063b883b05890602401602060405180830381865afa15801561237c573d6000803e3d6000fd5b505050506040513d601f19601f820116820180604052508101906123a09190615759565b611bac86608001518760000151886020015189606001516123c191906157d4565b6123cb9190615792565b6123d59190615792565b8760400151614ec1565b600061240560405180606001604052806000815260200160008152602001600081525090565b60007f00000000000000000000000000000000000000000000000000000000000000006001600160a01b0316633ec045a66040518163ffffffff1660e01b8152600401602060405180830381865afa158015612465573d6000803e3d6000fd5b505050506040513d601f19601f8201168201806040525081019061248991906157b0565b60405160016263e28d60e11b031981526001600160a01b03888116600483015291925060009183169063ff383ae690602401602060405180830381865afa1580156124d8573d6000803e3d6000fd5b505050506040513d601f19601f820116820180604052508101906124fc9190615759565b905060005b8115612894576001821615612888576040516308cae55b60e21b8152600481018290526000906001600160a01b0385169063232b956c90602401602060405180830381865afa158015612558573d6000803e3d6000fd5b505050506040513d601f19601f8201168201806040525081019061257c91906157b0565b90506125af6040805160a08101825260008082526020820181905291810182905260608101829052608081019190915290565b6125d360405180606001604052806000815260200160008152602001600081525090565b604051638e8f294b60e01b81526001600160a01b038481166004830152871690638e8f294b9060240160a060405180830381865afa158015612619573d6000803e3d6000fd5b505050506040513d601f19601f8201168201806040525081019061263d9190615906565b6001600160a01b039081166080880181905260ff9490941660208801526001600160801b039490941686525050604051631710760b60e31b815260048101919091529087169063b883b05890602401602060405180830381865afa1580156126a9573d6000803e3d6000fd5b505050506040513d601f19601f820116820180604052508101906126cd9190615759565b6040828101919091525163014a296f60e01b81526001600160a01b038c8116600483015284169063014a296f906024016040805180830381865afa158015612719573d6000803e3d6000fd5b505050506040513d601f19601f8201168201806040525081019061273d9190615a8b565b6020830152506001600160a01b03808d169084160361284857604051632f2e037160e11b81526001600160a01b038c8116600483015260009190851690635e5c06e290602401606060405180830381865afa1580156127a0573d6000803e3d6000fd5b505050506040513d601f19601f820116820180604052508101906127c49190615813565b60405163023effef60e51b8152600481018290529093506001600160a01b03871692506347dffde09150602401602060405180830381865afa15801561280e573d6000803e3d6000fd5b505050506040513d601f19601f820116820180604052508101906128329190615759565b826020018181516128439190615792565b905250505b61287282600001516001600160801b031661092f83604001518560200151600a6120529190615a7c565b875188906128819083906157d4565b9052505050505b600191821c9101612501565b50604051638e8f294b60e01b81526001600160a01b038a81166004830152831690638e8f294b9060240160a060405180830381865afa1580156128db573d6000803e3d6000fd5b505050506040513d601f19601f820116820180604052508101906128ff9190615906565b505050506001600160801b03166020840152604051638e8f294b60e01b81526001600160a01b038981166004830152831690638e8f294b9060240160a060405180830381865afa158015612957573d6000803e3d6000fd5b505050506040513d601f19601f8201168201806040525081019061297b9190615906565b505050506001600160801b031660408481019190915251638e8f294b60e01b81526001600160a01b038a8116600483015260009190841690638e8f294b9060240160a060405180830381865afa1580156129d9573d6000803e3d6000fd5b505050506040513d601f19601f820116820180604052508101906129fd9190615906565b945050505050612aed8a6001600160a01b031663313ce5676040518163ffffffff1660e01b8152600401602060405180830381865afa158015612a44573d6000803e3d6000fd5b505050506040513d601f19601f82011682018060405250810190612a68919061597d565b612a7390600a615a7c565b604051631710760b60e31b81526001600160a01b03848116600483015286169063b883b05890602401602060405180830381865afa158015612ab9573d6000803e3d6000fd5b505050506040513d601f19601f82011682018060405250810190612add9190615759565b60408701518751611bac91612bd2565b8452861580612afc5750835187105b80612b495750670de0b6b3a7640000612b47612b31886107838860400151610b3f8a602001518e612bd290919063ffffffff16565b612b3b908a615792565b8651610783908b615792565b105b15612b8857612b7d612b6c85604001518660200151612bd290919063ffffffff16565b612b769088615792565b8790613186565b945050505050610360565b612bc4612bae876107838760400151610b3f89602001518d612bd290919063ffffffff16565b612bb89089615792565b8551610783908a615792565b9a9950505050505050505050565b6000612be78383670de0b6b3a7640000614e74565b90505b92915050565b6000807f00000000000000000000000000000000000000000000000000000000000000006001600160a01b0316633ec045a66040518163ffffffff1660e01b8152600401602060405180830381865afa158015612c51573d6000803e3d6000fd5b505050506040513d601f19601f82011682018060405250810190612c7591906157b0565b604051638e8f294b60e01b81526001600160a01b0387811660048301529190911690638e8f294b9060240160a060405180830381865afa158015612cbd573d6000803e3d6000fd5b505050506040513d601f19601f82011682018060405250810190612ce19190615906565b94505050505060007f00000000000000000000000000000000000000000000000000000000000000006001600160a01b0316633ec045a66040518163ffffffff1660e01b8152600401602060405180830381865afa158015612d47573d6000803e3d6000fd5b505050506040513d601f19601f82011682018060405250810190612d6b91906157b0565b604051638e8f294b60e01b81526001600160a01b0387811660048301529190911690638e8f294b9060240160a060405180830381865afa158015612db3573d6000803e3d6000fd5b505050506040513d601f19601f82011682018060405250810190612dd79190615906565b945050505050610792856001600160a01b031663313ce5676040518163ffffffff1660e01b8152600401602060405180830381865afa158015612e1e573d6000803e3d6000fd5b505050506040513d601f19601f82011682018060405250810190612e42919061597d565b612e4d90600a615a7c565b7f00000000000000000000000000000000000000000000000000000000000000006001600160a01b0316633ec045a66040518163ffffffff1660e01b8152600401602060405180830381865afa158015612eab573d6000803e3d6000fd5b505050506040513d601f19601f82011682018060405250810190612ecf91906157b0565b604051631710760b60e31b81526001600160a01b038581166004830152919091169063b883b05890602401602060405180830381865afa158015612f17573d6000803e3d6000fd5b505050506040513d601f19601f82011682018060405250810190612f3b9190615759565b611bac7f00000000000000000000000000000000000000000000000000000000000000006001600160a01b0316633ec045a66040518163ffffffff1660e01b8152600401602060405180830381865afa158015612f9c573d6000803e3d6000fd5b505050506040513d601f19601f82011682018060405250810190612fc091906157b0565b604051631710760b60e31b81526001600160a01b038881166004830152919091169063b883b05890602401602060405180830381865afa158015613008573d6000803e3d6000fd5b505050506040513d601f19601f8201168201806040525081019061302c9190615759565b8a6001600160a01b031663313ce5676040518163ffffffff1660e01b8152600401602060405180830381865afa15801561306a573d6000803e3d6000fd5b505050506040513d601f19601f8201168201806040525081019061308e919061597d565b61309990600a615a7c565b899190614e74565b604051632f2e037160e11b81526001600160a01b0382811660048301526000918291851690635e5c06e290602401606060405180830381865afa1580156130ec573d6000803e3d6000fd5b505050506040513d601f19601f820116820180604052508101906131109190615813565b60405163023effef60e51b8152600481018290529093506001600160a01b03871692506347dffde09150602401602060405180830381865afa15801561315a573d6000803e3d6000fd5b505050506040513d601f19601f8201168201806040525081019061317e9190615759565b949350505050565b6000612be783670de0b6b3a764000084614e74565b6000806000846131ac8989896116f9565b6131b69190615aaf565b925060008313156132545760405163ce96cb7760e01b81526001600160a01b03878116600483015261323e9185918891908c169063ce96cb7790602401602060405180830381865afa158015613210573d6000803e3d6000fd5b505050506040513d601f19601f820116820180604052508101906132349190615759565b61092f9190615aaf565b915061324d88888886886123df565b9050613265565b6132628888886000886123df565b90505b955095509592505050565b6000612be783670de0b6b3a764000084614e93565b606061328f614f83565b826001600160a01b0316636bb65f536040518163ffffffff1660e01b8152600401602060405180830381865afa1580156132cd573d6000803e3d6000fd5b505050506040513d601f19601f820116820180604052508101906132f191906157b0565b6001600160a01b03168082521561426857826001600160a01b0316633ec045a66040518163ffffffff1660e01b8152600401602060405180830381865afa158015613340573d6000803e3d6000fd5b505050506040513d601f19601f8201168201806040525081019061336491906157b0565b604051638e8f294b60e01b81526001600160a01b0385811660048301529190911690638e8f294b9060240160a060405180830381865afa1580156133ac573d6000803e3d6000fd5b505050506040513d601f19601f820116820180604052508101906133d09190615906565b6001600160a01b0390811661010087015260ff9093166101608601819052600a0a60c08601525050610e1061018084015282516040805163b7eec41360e01b8152905191909216925063b7eec413916004808201926000929091908290030181865afa158015613444573d6000803e3d6000fd5b505050506040513d6000823e601f3d908101601f1916820160405261346c9190810190615ad7565b6101408201819052516001600160401b0381111561348c5761348c615366565b6040519080825280602002602001820160405280156134c557816020015b6134b2614ed7565b8152602001906001900390816134aa5790505b5060006101a083015291505b80610140015151816101a0015110156142685780600001516001600160a01b031663f2426f9a84836101400151846101a0015181518110613514576135146157fd565b60200260200101516040518363ffffffff1660e01b815260040161354e9291906001600160a01b0392831681529116602082015260400190565b6101c060405180830381865afa15801561356c573d6000803e3d6000fd5b505050506040513d601f19601f820116820180604052508101906135909190615ba2565b81610120018190525080600001516001600160a01b03166344e250f884836101400151846101a00151815181106135c9576135c96157fd565b60200260200101516040518363ffffffff1660e01b81526004016136039291906001600160a01b0392831681529116602082015260400190565b606060405180830381865afa158015613620573d6000803e3d6000fd5b505050506040513d601f19601f820116820180604052508101906136449190615813565b506040830152606082015280516101408201516101a083015181516001600160a01b039093169263fc19606892879290918110613683576136836157fd565b60200260200101518461012001516060015163ffffffff1642116136a85760006136af565b8461018001515b6040516001600160e01b031960e086901b1681526001600160a01b0393841660048201529290911660248301526044820152606401606060405180830381865afa158015613701573d6000803e3d6000fd5b505050506040513d601f19601f820116820180604052508101906137259190615813565b50608083015260a082015280516101408201516101a083015181516001600160a01b0390931692635684aa4692879290918110613764576137646157fd565b60200260200101516040518363ffffffff1660e01b815260040161379e9291906001600160a01b0392831681529116602082015260400190565b606060405180830381865afa1580156137bb573d6000803e3d6000fd5b505050506040513d601f19601f820116820180604052508101906137df9190615c96565b505063ffffffff166101c082018190526224ea00906137ff908290615cef565b826101c0015161380f9190615792565b61381991906157d4565b81610240018181525050826001600160a01b0316630e52dbec6040518163ffffffff1660e01b8152600401602060405180830381865afa158015613861573d6000803e3d6000fd5b505050506040513d601f19601f82011682018060405250810190613885919061597d565b6138959060ff166224ea00615d03565b6138a26224ea0042615cef565b6138ac9042615792565b6138b691906157d4565b61022082018190526102408201516224ea00916138d39190615792565b6138dd9190615d1a565b6138e89060016157d4565b6001600160401b038111156138ff576138ff615366565b604051908082528060200260200182016040528015613928578160200160208202803683370190505b5060e082015260006101c08201526102408101516101e08201525b806102200151816101e0015111613a30576101e0810151604051630156d37d60e31b81526000916001600160a01b03861691630ab69be89161398b9160040190815260200190565b6040805180830381865afa1580156139a7573d6000803e3d6000fd5b505050506040513d601f19601f820116820180604052508101906139cb9190615a8b565b5090508082610200018181516139e191906157d4565b9052506101e082015160e08301516101c084015181518110613a0557613a056157fd565b6020908102919091010152506101e0810180516224ea000190526101c0810180516001019052613943565b6040518060a00160405280826101400151836101a0015181518110613a5757613a576157fd565b60200260200101516001600160a01b03168152602001826101400151836101a0015181518110613a8957613a896157fd565b60200260200101516001600160a01b03166306fdde036040518163ffffffff1660e01b8152600401600060405180830381865afa158015613ace573d6000803e3d6000fd5b505050506040513d6000823e601f3d908101601f19168201604052613af69190810190615d2e565b8152602001826101400151836101a0015181518110613b1757613b176157fd565b60200260200101516001600160a01b03166395d89b416040518163ffffffff1660e01b8152600401600060405180830381865afa158015613b5c573d6000803e3d6000fd5b505050506040513d6000823e601f3d908101601f19168201604052613b849190810190615d2e565b81526020016000836102000151866001600160a01b031663eee8c9e06040518163ffffffff1660e01b8152600401602060405180830381865afa158015613bcf573d6000803e3d6000fd5b505050506040513d601f19601f82011682018060405250810190613bf39190615759565b613bfd91906157d4565b11613c09576000613f3c565b613f3c6301e13380846101800151611bac8660c00151613d668a6001600160a01b0316633ec045a66040518163ffffffff1660e01b8152600401602060405180830381865afa158015613c60573d6000803e3d6000fd5b505050506040513d601f19601f82011682018060405250810190613c8491906157b0565b6101008a0151604051631710760b60e31b81526001600160a01b03918216600482015291169063b883b05890602401602060405180830381865afa158015613cd0573d6000803e3d6000fd5b505050506040513d601f19601f82011682018060405250810190613cf49190615759565b8961020001518c6001600160a01b031663eee8c9e06040518163ffffffff1660e01b8152600401602060405180830381865afa158015613d38573d6000803e3d6000fd5b505050506040513d601f19601f82011682018060405250810190613d5c9190615759565b610b3f91906157d4565b611bac8b6001600160a01b0316633ec045a66040518163ffffffff1660e01b8152600401602060405180830381865afa158015613da7573d6000803e3d6000fd5b505050506040513d601f19601f82011682018060405250810190613dcb91906157b0565b6101208b01516040908101519051631710760b60e31b81526001600160a01b03918216600482015291169063b883b05890602401602060405180830381865afa158015613e1c573d6000803e3d6000fd5b505050506040513d601f19601f82011682018060405250810190613e409190615759565b610b3f8d6001600160a01b031663bf722ca28d61020001516040518263ffffffff1660e01b8152600401613e7691815260200190565b602060405180830381865afa158015613e93573d6000803e3d6000fd5b505050506040513d601f19601f82011682018060405250810190613eb79190615759565b8e6001600160a01b0316638d0e5f026040518163ffffffff1660e01b8152600401602060405180830381865afa158015613ef5573d6000803e3d6000fd5b505050506040513d601f19601f82011682018060405250810190613f199190615759565b613f2391906157d4565b8c60c001518d606001518e60a00151611bac9190615792565b81526020016000856001600160a01b03166301e1d1146040518163ffffffff1660e01b8152600401602060405180830381865afa158015613f81573d6000803e3d6000fd5b505050506040513d601f19601f82011682018060405250810190613fa59190615759565b11613fb1576000614232565b6142326301e13380846101800151611bac8660c001516140da8a6001600160a01b0316633ec045a66040518163ffffffff1660e01b8152600401602060405180830381865afa158015614008573d6000803e3d6000fd5b505050506040513d601f19601f8201168201806040525081019061402c91906157b0565b6101008a0151604051631710760b60e31b81526001600160a01b03918216600482015291169063b883b05890602401602060405180830381865afa158015614078573d6000803e3d6000fd5b505050506040513d601f19601f8201168201806040525081019061409c9190615759565b8b6001600160a01b03166301e1d1146040518163ffffffff1660e01b8152600401602060405180830381865afa158015610b1b573d6000803e3d6000fd5b611bac8b6001600160a01b0316633ec045a66040518163ffffffff1660e01b8152600401602060405180830381865afa15801561411b573d6000803e3d6000fd5b505050506040513d601f19601f8201168201806040525081019061413f91906157b0565b6101208b01516040908101519051631710760b60e31b81526001600160a01b03918216600482015291169063b883b05890602401602060405180830381865afa158015614190573d6000803e3d6000fd5b505050506040513d601f19601f820116820180604052508101906141b49190615759565b610b3f8d6001600160a01b03166318160ddd6040518163ffffffff1660e01b8152600401602060405180830381865afa1580156141f5573d6000803e3d6000fd5b505050506040513d601f19601f820116820180604052508101906142199190615759565b8c60c001518d604001518e60800151611bac9190615792565b81525082826101a001518151811061424c5761424c6157fd565b60209081029190910101526101a08101805160010190526134d1565b50919050565b60608351855161427e91906157d4565b6001600160401b0381111561429557614295615366565b6040519080825280602002602001820160405280156142ce57816020015b6142bb614ed7565b8152602001906001900390816142b35790505b50905060005b85518110156144695761430d838783815181106142f3576142f36157fd565b602002602001015160800151612bd290919063ffffffff16565b82828151811061431f5761431f6157fd565b6020026020010151608001818152505083156143995761437661434a670de0b6b3a764000085615792565b87838151811061435c5761435c6157fd565b602002602001015160600151612bd290919063ffffffff16565b828281518110614388576143886157fd565b602002602001015160600181815250505b8581815181106143ab576143ab6157fd565b6020026020010151600001518282815181106143c9576143c96157fd565b60209081029190910101516001600160a01b03909116905285518690829081106143f5576143f56157fd565b602002602001015160200151828281518110614413576144136157fd565b602002602001015160200181905250858181518110614434576144346157fd565b602002602001015160400151828281518110614452576144526157fd565b6020908102919091010151604001526001016142d4565b836145c4575060005b84518110156145c4576144a2614490670de0b6b3a764000085615792565b86838151811061435c5761435c6157fd565b828751836144b091906157d4565b815181106144c0576144c06157fd565b602002602001015160600181815250508481815181106144e2576144e26157fd565b602002602001015160000151828751836144fc91906157d4565b8151811061450c5761450c6157fd565b60209081029190910101516001600160a01b0390911690528451859082908110614538576145386157fd565b6020026020010151602001518287518361455291906157d4565b81518110614562576145626157fd565b602002602001015160200181905250848181518110614583576145836157fd565b6020026020010151604001518287518361459d91906157d4565b815181106145ad576145ad6157fd565b602090810291909101015160400152600101614472565b50949350505050565b604080516080810182526000808252602082018190529181018290526060810182905260007f00000000000000000000000000000000000000000000000000000000000000006001600160a01b0316633ec045a66040518163ffffffff1660e01b8152600401602060405180830381865afa158015614650573d6000803e3d6000fd5b505050506040513d601f19601f8201168201806040525081019061467491906157b0565b604051638e8f294b60e01b81526001600160a01b03898116600483015291925090821690638e8f294b9060240160a060405180830381865afa1580156146be573d6000803e3d6000fd5b505050506040513d601f19601f820116820180604052508101906146e29190615906565b6001600160a01b039081166040888101919091526001600160801b039590951687529351638e8f294b60e01b81528a8516600482015293851693638e8f294b9350602401915061472f9050565b60a060405180830381865afa15801561474c573d6000803e3d6000fd5b505050506040513d601f19601f820116820180604052508101906147709190615906565b6001600160a01b0390811660608801526001600160801b039094166020808801919091526040805163313ce56760e01b81529051611683968e16955063313ce56794506004808301945090918290030181865afa1580156147d5573d6000803e3d6000fd5b505050506040513d601f19601f820116820180604052508101906147f9919061597d565b61480490600a615a7c565b6040848101519051631710760b60e31b81526001600160a01b0391821660048201529084169063b883b05890602401602060405180830381865afa158015614850573d6000803e3d6000fd5b505050506040513d601f19601f820116820180604052508101906148749190615759565b8451602086015161497d916148899190612bd2565b6060870151604051631710760b60e31b81526001600160a01b0391821660048201526107839188169063b883b05890602401602060405180830381865afa1580156148d8573d6000803e3d6000fd5b505050506040513d601f19601f820116820180604052508101906148fc9190615759565b8c6001600160a01b031663313ce5676040518163ffffffff1660e01b8152600401602060405180830381865afa15801561493a573d6000803e3d6000fd5b505050506040513d601f19601f8201168201806040525081019061495e919061597d565b61496990600a615a7c565b611bac6149768f8f6130a1565b8d90612bd2565b9190614e93565b600081602001516001600160a01b031682600001516001600160a01b0316106149af576149af6157e7565b815160208084015160408086015181516001600160a01b0395861681860152949092168482015262ffffff90911660608085019190915281518085038201815260808501909252815191909201206001600160f81b031960a08401529085901b6bffffffffffffffffffffffff191660a183015260b58201527fe34f199b19b2b4f47f68442619d555527d244f78a3297ea89325f843f87b8b5460d582015260f50160408051601f1981840301815291905280516020909101209392505050565b606060007f00000000000000000000000000000000000000000000000000000000000000006001600160a01b0316633ec045a66040518163ffffffff1660e01b8152600401602060405180830381865afa158015614ad2573d6000803e3d6000fd5b505050506040513d601f19601f82011682018060405250810190614af691906157b0565b6001600160a01b031663375a7cba6040518163ffffffff1660e01b8152600401600060405180830381865afa158015614b33573d6000803e3d6000fd5b505050506040513d6000823e601f3d908101601f19168201604052614b5b9190810190615db8565b519050806001600160401b03811115614b7657614b76615366565b604051908082528060200260200182016040528015614bbb57816020015b6040805180820190915260008082526020820152815260200190600190039081614b945790505b50915060005b81811015614e5a5760007f00000000000000000000000000000000000000000000000000000000000000006001600160a01b0316633ec045a66040518163ffffffff1660e01b8152600401602060405180830381865afa158015614c29573d6000803e3d6000fd5b505050506040513d601f19601f82011682018060405250810190614c4d91906157b0565b6001600160a01b031663232b956c836040518263ffffffff1660e01b8152600401614c7a91815260200190565b602060405180830381865afa158015614c97573d6000803e3d6000fd5b505050506040513d601f19601f82011682018060405250810190614cbb91906157b0565b6001600160a01b03166338d52e0f6040518163ffffffff1660e01b8152600401602060405180830381865afa158015614cf8573d6000803e3d6000fd5b505050506040513d601f19601f82011682018060405250810190614d1c91906157b0565b90506040518060400160405280826001600160a01b03168152602001826001600160a01b03166370a082317f00000000000000000000000000000000000000000000000000000000000000006001600160a01b031663158274a56040518163ffffffff1660e01b8152600401602060405180830381865afa158015614da5573d6000803e3d6000fd5b505050506040513d601f19601f82011682018060405250810190614dc991906157b0565b6040516001600160e01b031960e084901b1681526001600160a01b039091166004820152602401602060405180830381865afa158015614e0d573d6000803e3d6000fd5b505050506040513d601f19601f82011682018060405250810190614e319190615759565b815250848381518110614e4657614e466157fd565b602090810291909101015250600101614bc1565b505090565b6000612be78383670de0b6b3a7640000614e93565b828202811515841585830485141716614e8c57600080fd5b0492915050565b828202811515841585830485141716614eab57600080fd5b6001826001830304018115150290509392505050565b6000818310614ed05781612be7565b5090919050565b6040518060a0016040528060006001600160a01b03168152602001606081526020016060815260200160008152602001600081525090565b60405180610140016040528060008152602001600081526020016000815260200160008152602001600081526020016000815260200160008152602001614f6f604080516060810182526000808252602082018190529181019190915290565b815260200160008152602001606081525090565b60405180610260016040528060006001600160a01b031681526020016000815260200160008152602001600081526020016000815260200160008152602001600081526020016060815260200160006001600160a01b031681526020016150a3604051806101c0016040528060006001600160a01b0316815260200160006001600160a01b0316815260200160006001600160a01b03168152602001600063ffffffff168152602001600081526020016000815260200160008152602001600081526020016000600f0b815260200160006001600160401b0316815260200160006001600160401b0316815260200160006001600160401b0316815260200160006001600160401b0316815260200160006001600160401b031681525090565b81526020016060815260200160008152602001600081526020016000815260200160008152602001600081526020016000815260200160008152602001600081525090565b6001600160a01b03811681146150fd57600080fd5b50565b803562ffffff8116811461511357600080fd5b919050565b6000806000806080858703121561512e57600080fd5b8435615139816150e8565b93506020850135615149816150e8565b92506040850135915061515e60608601615100565b905092959194509250565b60008060008060008060c0878903121561518257600080fd5b863561518d816150e8565b9550602087013561519d816150e8565b945060408701356151ad816150e8565b959894975094956060810135955060808101359460a0909101359350915050565b600080600080600080600060e0888a0312156151e957600080fd5b87356151f4816150e8565b96506020880135615204816150e8565b95506040880135615214816150e8565b969995985095966060810135965060808101359560a0820135955060c0909101359350915050565b60005b8381101561525757818101518382015260200161523f565b50506000910152565b6000815180845261527881602086016020860161523c565b601f01601f19169290920160200192915050565b6000602080835260a0808401855183860152828601516040818188015280880151915060608281890152808901519250608080818a015284845180875260c08b01915060c08160051b8c01019650888601955060005b81811015615355578b880360bf19018352865180516001600160a01b031689528a8101518b8a018b90526153188b8b0182615260565b9050878201518a8203898c015261532f8282615260565b838901518c8a0152928701519a87019a909a5250975095890195918901916001016152e2565b50959b9a5050505050505050505050565b634e487b7160e01b600052604160045260246000fd5b604080519081016001600160401b038111828210171561539e5761539e615366565b60405290565b6040516101c081016001600160401b038111828210171561539e5761539e615366565b604051601f8201601f191681016001600160401b03811182821017156153ef576153ef615366565b604052919050565b60006001600160401b0382111561541057615410615366565b5060051b60200190565b600082601f83011261542b57600080fd5b8135602061544061543b836153f7565b6153c7565b82815260059290921b8401810191818101908684111561545f57600080fd5b8286015b848110156154815761547481615100565b8352918301918301615463565b509695505050505050565b60008060408084860312156154a057600080fd5b83356001600160401b03808211156154b757600080fd5b818601915086601f8301126154cb57600080fd5b813560206154db61543b836153f7565b82815260069290921b8401810191818101908a8411156154fa57600080fd5b948201945b8386101561554c5786868c0312156155175760008081fd5b61551f61537c565b863561552a816150e8565b815286840135615539816150e8565b81850152825294860194908201906154ff565b9750508701359350508083111561556257600080fd5b50506155708582860161541a565b9150509250929050565b6000806000806080858703121561559057600080fd5b843561559b816150e8565b935060208501356155ab816150e8565b925060408501356155bb816150e8565b9396929550929360600135925050565b600081518084526020808501945080840160005b8381101561560f57815180516001600160a01b0316885283015183880152604090960195908201906001016155df565b509495945050505050565b6020815281516020820152602082015160408201526040820151606082015260608201516080820152608082015160a082015260a082015160c082015260c082015160e0820152600060e083015161010061569e8185018380516001600160a01b0390811683526020808301519091169083015260409081015162ffffff16910152565b840151610160840152506101208301516101808084015261317e6101a08401826155cb565b600080604083850312156156d657600080fd5b82356156e1816150e8565b915060208301356156f1816150e8565b809150509250929050565b634e487b7160e01b600052601160045260246000fd5b6001600160a01b03828116828216039080821115615732576157326156fc565b5092915050565b6001600160a01b03818116838216019080821115615732576157326156fc565b60006020828403121561576b57600080fd5b5051919050565b8181036000831280158383131683831282161715615732576157326156fc565b81810381811115612bea57612bea6156fc565b8051615113816150e8565b6000602082840312156157c257600080fd5b81516157cd816150e8565b9392505050565b80820180821115612bea57612bea6156fc565b634e487b7160e01b600052600160045260246000fd5b634e487b7160e01b600052603260045260246000fd5b60008060006060848603121561582857600080fd5b8351925060208401519150604084015190509250925092565b805161ffff8116811461511357600080fd5b805160ff8116811461511357600080fd5b8051801515811461511357600080fd5b600080600080600080600060e0888a03121561588f57600080fd5b875161589a816150e8565b8097505060208801518060020b81146158b257600080fd5b95506158c060408901615841565b94506158ce60608901615841565b93506158dc60808901615841565b92506158ea60a08901615853565b91506158f860c08901615864565b905092959891949750929550565b600080600080600060a0868803121561591e57600080fd5b85516001600160801b038116811461593557600080fd5b945061594360208701615853565b935061595160408701615853565b925061595f60608701615864565b9150608086015161596f816150e8565b809150509295509295909350565b60006020828403121561598f57600080fd5b612be782615853565b600181815b808511156159d35781600019048211156159b9576159b96156fc565b808516156159c657918102915b93841c939080029061599d565b509250929050565b6000826159ea57506001612bea565b816159f757506000612bea565b8160018114615a0d5760028114615a1757615a33565b6001915050612bea565b60ff841115615a2857615a286156fc565b50506001821b612bea565b5060208310610133831016604e8410600b8410161715615a56575081810a612bea565b615a608383615998565b8060001904821115615a7457615a746156fc565b029392505050565b6000612be760ff8416836159db565b60008060408385031215615a9e57600080fd5b505080516020909101519092909150565b8082018281126000831280158216821582161715615acf57615acf6156fc565b505092915050565b60006020808385031215615aea57600080fd5b82516001600160401b03811115615b0057600080fd5b8301601f81018513615b1157600080fd5b8051615b1f61543b826153f7565b81815260059190911b82018301908381019087831115615b3e57600080fd5b928401925b82841015611683578351615b56816150e8565b82529284019290840190615b43565b805163ffffffff8116811461511357600080fd5b8051600f81900b811461511357600080fd5b80516001600160401b038116811461511357600080fd5b60006101c08284031215615bb557600080fd5b615bbd6153a4565b615bc6836157a5565b8152615bd4602084016157a5565b6020820152615be5604084016157a5565b6040820152615bf660608401615b65565b60608201526080830151608082015260a083015160a082015260c083015160c082015260e083015160e0820152610100615c31818501615b79565b90820152610120615c43848201615b8b565b90820152610140615c55848201615b8b565b90820152610160615c67848201615b8b565b90820152610180615c79848201615b8b565b908201526101a0615c8b848201615b8b565b908201529392505050565b600080600060608486031215615cab57600080fd5b615cb484615b65565b9250615cc260208501615b65565b9150615cd060408501615b65565b90509250925092565b634e487b7160e01b600052601260045260246000fd5b600082615cfe57615cfe615cd9565b500690565b8082028115828204841417612bea57612bea6156fc565b600082615d2957615d29615cd9565b500490565b600060208284031215615d4057600080fd5b81516001600160401b0380821115615d5757600080fd5b818401915084601f830112615d6b57600080fd5b815181811115615d7d57615d7d615366565b615d90601f8201601f19166020016153c7565b9150808252856020828501011115615da757600080fd5b6145c481602084016020860161523c565b60006020808385031215615dcb57600080fd5b82516001600160401b03811115615de157600080fd5b8301601f81018513615df257600080fd5b8051615e0061543b826153f7565b81815260059190911b82018301908381019087831115615e1f57600080fd5b928401925b82841015611683578351615e37816150e8565b82529284019290840190615e2456fea2646970667358221220a158b43fa62c2fe56cbeeabd92d9dc0d913e14f5fb4a89bf76dedefbb16d3c9664736f6c63430008110033",
  "devdoc": {
    "kind": "dev",
    "methods": {
      "constructor": {
        "custom:oz-upgrades-unsafe-allow": "constructor"
      },
      "initialize((address,address)[],uint24[])": {
        "details": "can only be called once."
      },
      "leverage(address,address,address,uint256)": {
        "params": {
          "account": "The account operating with the `DebtManager`.",
          "marketBorrow": "The borrow Market.",
          "marketDeposit": "The deposit Market.",
          "minHealthFactor": "The minimum health factor that the account must have after the leverage."
        },
        "returns": {
          "_0": "extended leverage data."
        }
      },
      "leverageRates(address,address,address,int256,uint256,uint256,uint256)": {
        "params": {
          "account": "The account to preview.",
          "assets": "The amount of assets that should be added or substracted to the principal.",
          "depositRate": "The current deposit rate of the deposit market.",
          "marketBorrow": "The borrow Market.",
          "marketDeposit": "The deposit Market.",
          "nativeRate": "The current native rate of the deposit market.",
          "targetRatio": "The target ratio to preview."
        }
      },
      "previewDeleverage(address,address,address,uint256,uint256,uint256)": {
        "params": {
          "account": "The account that will be deleveraged.",
          "marketBorrow": "The borrow Market.",
          "marketDeposit": "The deposit Market.",
          "minHealthFactor": "The minimum health factor that the account must have after the leverage.",
          "ratio": "The ratio to be previewed.",
          "withdraw": "The amount of assets that will be withdrawn from the principal."
        }
      },
      "previewInputSwap(address,address,uint256,uint24)": {
        "params": {
          "amountIn": "The exact amount of `assetIn` to be swapped.",
          "assetIn": "The address of the token to be swapped.",
          "assetOut": "The address of the token to receive.",
          "fee": "The fee of the pool that will be used to swap the assets."
        },
        "returns": {
          "_0": "amountOut The amount of `assetOut` received."
        }
      },
      "previewLeverage(address,address,address,uint256,uint256,uint256)": {
        "params": {
          "account": "The account that will be leveraged.",
          "deposit": "The amount of assets that will be added to the principal.",
          "marketBorrow": "The borrow Market.",
          "marketDeposit": "The deposit Market.",
          "minHealthFactor": "The minimum health factor that the account must have after the leverage.",
          "ratio": "The ratio to be previewed."
        }
      },
      "previewOutputSwap(address,address,uint256,uint24)": {
        "params": {
          "amountOut": "The exact amount of `amountOut` to be swapped.",
          "fee": "The fee of the pool that will be used to swap the assets.",
          "marketIn": "The Market of the underlying asset to be swapped.",
          "marketOut": "The Market of the underlying asset to receive."
        },
        "returns": {
          "_0": "amountIn The amount of `amountIn` received."
        }
      }
    },
    "stateVariables": {
      "MAX_SQRT_RATIO": {
        "details": "The maximum value that can be returned from #getSqrtRatioAtTick. Equivalent to getSqrtRatioAtTick(MAX_TICK)"
      },
      "MIN_SQRT_RATIO": {
        "details": "The minimum value that can be returned from #getSqrtRatioAtTick. Equivalent to getSqrtRatioAtTick(MIN_TICK)"
      },
      "debtManager": {
        "custom:oz-upgrades-unsafe-allow": "state-variable-immutable"
      },
      "uniswapV3Quoter": {
        "custom:oz-upgrades-unsafe-allow": "state-variable-immutable"
      }
    },
    "title": "DebtPreviewer",
    "version": 1
  },
  "userdoc": {
    "kind": "user",
    "methods": {
      "debtManager()": {
        "notice": "DebtManager contract to be used to get Auditor, BalancerVault and UniswapV3Factory addresses."
      },
      "initialize((address,address)[],uint24[])": {
        "notice": "Initializes the contract."
      },
      "leverage(address,address,address,uint256)": {
        "notice": "Returns extended data useful to leverage or deleverage an account principal position."
      },
      "leverageRates(address,address,address,int256,uint256,uint256,uint256)": {
        "notice": "returns rates based on inputs and leverage ratio impact on the borrow market"
      },
      "poolFees(address,address)": {
        "notice": "Mapping of Uniswap pools to their respective pool fee."
      },
      "previewDeleverage(address,address,address,uint256,uint256,uint256)": {
        "notice": "Returns the maximum ratio that an account can deleverage its principal minus `assets` amount."
      },
      "previewInputSwap(address,address,uint256,uint24)": {
        "notice": "Returns the output received for a given exact amount of a single pool swap."
      },
      "previewLeverage(address,address,address,uint256,uint256,uint256)": {
        "notice": "Returns the maximum ratio that an account can leverage its principal plus `assets` amount."
      },
      "previewOutputSwap(address,address,uint256,uint24)": {
        "notice": "Returns the input for an exact amount out of a single pool swap."
      },
      "uniswapV3Quoter()": {
        "notice": "Quoter contract to be used to preview the amount of assets to be swapped."
      }
    },
    "notice": "Contract to be consumed by Exactly's front-end dApp as a helper for `DebtManager`.",
    "version": 1
  },
  "storageLayout": {
    "storage": [
      {
        "astId": 415,
        "contract": "contracts/periphery/DebtPreviewer.sol:DebtPreviewer",
        "label": "_initialized",
        "offset": 0,
        "slot": "0",
        "type": "t_uint8"
      },
      {
        "astId": 418,
        "contract": "contracts/periphery/DebtPreviewer.sol:DebtPreviewer",
        "label": "_initializing",
        "offset": 1,
        "slot": "0",
        "type": "t_bool"
      },
      {
        "astId": 19450,
        "contract": "contracts/periphery/DebtPreviewer.sol:DebtPreviewer",
        "label": "poolFees",
        "offset": 0,
        "slot": "1",
        "type": "t_mapping(t_address,t_mapping(t_address,t_uint24))"
      }
    ],
    "types": {
      "t_address": {
        "encoding": "inplace",
        "label": "address",
        "numberOfBytes": "20"
      },
      "t_bool": {
        "encoding": "inplace",
        "label": "bool",
        "numberOfBytes": "1"
      },
      "t_mapping(t_address,t_mapping(t_address,t_uint24))": {
        "encoding": "mapping",
        "key": "t_address",
        "label": "mapping(address => mapping(address => uint24))",
        "numberOfBytes": "32",
        "value": "t_mapping(t_address,t_uint24)"
      },
      "t_mapping(t_address,t_uint24)": {
        "encoding": "mapping",
        "key": "t_address",
        "label": "mapping(address => uint24)",
        "numberOfBytes": "32",
        "value": "t_uint24"
      },
      "t_uint24": {
        "encoding": "inplace",
        "label": "uint24",
        "numberOfBytes": "3"
      },
      "t_uint8": {
        "encoding": "inplace",
        "label": "uint8",
        "numberOfBytes": "1"
      }
    }
  }
}