{
  "address": "0x641FF106Da82e23783b4226c86D677C5947b7647",
  "abi": [
    {
      "inputs": [
        {
          "internalType": "contract EXA",
          "name": "exa_",
          "type": "address"
        },
        {
          "internalType": "contract ISablierV2LockupLinear",
          "name": "sablier_",
          "type": "address"
        }
      ],
      "stateMutability": "nonpayable",
      "type": "constructor"
    },
    {
      "inputs": [],
      "name": "Disagreement",
      "type": "error"
    },
    {
      "inputs": [],
      "name": "InvalidStream",
      "type": "error"
    },
    {
      "inputs": [],
      "name": "Untransferable",
      "type": "error"
    },
    {
      "anonymous": false,
      "inputs": [
        {
          "indexed": true,
          "internalType": "address",
          "name": "owner",
          "type": "address"
        },
        {
          "indexed": true,
          "internalType": "address",
          "name": "spender",
          "type": "address"
        },
        {
          "indexed": false,
          "internalType": "uint256",
          "name": "value",
          "type": "uint256"
        }
      ],
      "name": "Approval",
      "type": "event"
    },
    {
      "anonymous": false,
      "inputs": [
        {
          "indexed": true,
          "internalType": "address",
          "name": "account",
          "type": "address"
        },
        {
          "indexed": false,
          "internalType": "uint256[]",
          "name": "streamIds",
          "type": "uint256[]"
        }
      ],
      "name": "Cancel",
      "type": "event"
    },
    {
      "anonymous": false,
      "inputs": [
        {
          "indexed": true,
          "internalType": "address",
          "name": "delegator",
          "type": "address"
        },
        {
          "indexed": true,
          "internalType": "address",
          "name": "fromDelegate",
          "type": "address"
        },
        {
          "indexed": true,
          "internalType": "address",
          "name": "toDelegate",
          "type": "address"
        }
      ],
      "name": "DelegateChanged",
      "type": "event"
    },
    {
      "anonymous": false,
      "inputs": [
        {
          "indexed": true,
          "internalType": "address",
          "name": "delegate",
          "type": "address"
        },
        {
          "indexed": false,
          "internalType": "uint256",
          "name": "previousBalance",
          "type": "uint256"
        },
        {
          "indexed": false,
          "internalType": "uint256",
          "name": "newBalance",
          "type": "uint256"
        }
      ],
      "name": "DelegateVotesChanged",
      "type": "event"
    },
    {
      "anonymous": false,
      "inputs": [],
      "name": "EIP712DomainChanged",
      "type": "event"
    },
    {
      "anonymous": false,
      "inputs": [
        {
          "indexed": false,
          "internalType": "uint8",
          "name": "version",
          "type": "uint8"
        }
      ],
      "name": "Initialized",
      "type": "event"
    },
    {
      "anonymous": false,
      "inputs": [
        {
          "indexed": false,
          "internalType": "uint256",
          "name": "reserveRatio",
          "type": "uint256"
        }
      ],
      "name": "ReserveRatioSet",
      "type": "event"
    },
    {
      "anonymous": false,
      "inputs": [
        {
          "indexed": true,
          "internalType": "bytes32",
          "name": "role",
          "type": "bytes32"
        },
        {
          "indexed": true,
          "internalType": "bytes32",
          "name": "previousAdminRole",
          "type": "bytes32"
        },
        {
          "indexed": true,
          "internalType": "bytes32",
          "name": "newAdminRole",
          "type": "bytes32"
        }
      ],
      "name": "RoleAdminChanged",
      "type": "event"
    },
    {
      "anonymous": false,
      "inputs": [
        {
          "indexed": true,
          "internalType": "bytes32",
          "name": "role",
          "type": "bytes32"
        },
        {
          "indexed": true,
          "internalType": "address",
          "name": "account",
          "type": "address"
        },
        {
          "indexed": true,
          "internalType": "address",
          "name": "sender",
          "type": "address"
        }
      ],
      "name": "RoleGranted",
      "type": "event"
    },
    {
      "anonymous": false,
      "inputs": [
        {
          "indexed": true,
          "internalType": "bytes32",
          "name": "role",
          "type": "bytes32"
        },
        {
          "indexed": true,
          "internalType": "address",
          "name": "account",
          "type": "address"
        },
        {
          "indexed": true,
          "internalType": "address",
          "name": "sender",
          "type": "address"
        }
      ],
      "name": "RoleRevoked",
      "type": "event"
    },
    {
      "anonymous": false,
      "inputs": [
        {
          "indexed": true,
          "internalType": "address",
          "name": "from",
          "type": "address"
        },
        {
          "indexed": true,
          "internalType": "address",
          "name": "to",
          "type": "address"
        },
        {
          "indexed": false,
          "internalType": "uint256",
          "name": "value",
          "type": "uint256"
        }
      ],
      "name": "Transfer",
      "type": "event"
    },
    {
      "anonymous": false,
      "inputs": [
        {
          "indexed": true,
          "internalType": "address",
          "name": "caller",
          "type": "address"
        },
        {
          "indexed": true,
          "internalType": "address",
          "name": "account",
          "type": "address"
        },
        {
          "indexed": true,
          "internalType": "uint256",
          "name": "streamId",
          "type": "uint256"
        },
        {
          "indexed": false,
          "internalType": "uint256",
          "name": "amount",
          "type": "uint256"
        }
      ],
      "name": "Vest",
      "type": "event"
    },
    {
      "anonymous": false,
      "inputs": [
        {
          "indexed": false,
          "internalType": "uint256",
          "name": "vestingPeriod",
          "type": "uint256"
        }
      ],
      "name": "VestingPeriodSet",
      "type": "event"
    },
    {
      "inputs": [],
      "name": "CLOCK_MODE",
      "outputs": [
        {
          "internalType": "string",
          "name": "",
          "type": "string"
        }
      ],
      "stateMutability": "view",
      "type": "function"
    },
    {
      "inputs": [],
      "name": "DEFAULT_ADMIN_ROLE",
      "outputs": [
        {
          "internalType": "bytes32",
          "name": "",
          "type": "bytes32"
        }
      ],
      "stateMutability": "view",
      "type": "function"
    },
    {
      "inputs": [],
      "name": "DOMAIN_SEPARATOR",
      "outputs": [
        {
          "internalType": "bytes32",
          "name": "",
          "type": "bytes32"
        }
      ],
      "stateMutability": "view",
      "type": "function"
    },
    {
      "inputs": [],
      "name": "REDEEMER_ROLE",
      "outputs": [
        {
          "internalType": "bytes32",
          "name": "",
          "type": "bytes32"
        }
      ],
      "stateMutability": "view",
      "type": "function"
    },
    {
      "inputs": [],
      "name": "TRANSFERRER_ROLE",
      "outputs": [
        {
          "internalType": "bytes32",
          "name": "",
          "type": "bytes32"
        }
      ],
      "stateMutability": "view",
      "type": "function"
    },
    {
      "inputs": [
        {
          "internalType": "address",
          "name": "owner",
          "type": "address"
        },
        {
          "internalType": "address",
          "name": "spender",
          "type": "address"
        }
      ],
      "name": "allowance",
      "outputs": [
        {
          "internalType": "uint256",
          "name": "",
          "type": "uint256"
        }
      ],
      "stateMutability": "view",
      "type": "function"
    },
    {
      "inputs": [
        {
          "internalType": "address",
          "name": "spender",
          "type": "address"
        },
        {
          "internalType": "uint256",
          "name": "amount",
          "type": "uint256"
        }
      ],
      "name": "approve",
      "outputs": [
        {
          "internalType": "bool",
          "name": "",
          "type": "bool"
        }
      ],
      "stateMutability": "nonpayable",
      "type": "function"
    },
    {
      "inputs": [
        {
          "internalType": "address",
          "name": "account",
          "type": "address"
        }
      ],
      "name": "balanceOf",
      "outputs": [
        {
          "internalType": "uint256",
          "name": "",
          "type": "uint256"
        }
      ],
      "stateMutability": "view",
      "type": "function"
    },
    {
      "inputs": [
        {
          "internalType": "uint256[]",
          "name": "streamIds",
          "type": "uint256[]"
        }
      ],
      "name": "cancel",
      "outputs": [
        {
          "internalType": "uint256",
          "name": "streamsReserves",
          "type": "uint256"
        }
      ],
      "stateMutability": "nonpayable",
      "type": "function"
    },
    {
      "inputs": [
        {
          "internalType": "address",
          "name": "account",
          "type": "address"
        },
        {
          "internalType": "uint32",
          "name": "pos",
          "type": "uint32"
        }
      ],
      "name": "checkpoints",
      "outputs": [
        {
          "components": [
            {
              "internalType": "uint32",
              "name": "fromBlock",
              "type": "uint32"
            },
            {
              "internalType": "uint224",
              "name": "votes",
              "type": "uint224"
            }
          ],
          "internalType": "struct ERC20VotesUpgradeable.Checkpoint",
          "name": "",
          "type": "tuple"
        }
      ],
      "stateMutability": "view",
      "type": "function"
    },
    {
      "inputs": [],
      "name": "clock",
      "outputs": [
        {
          "internalType": "uint48",
          "name": "",
          "type": "uint48"
        }
      ],
      "stateMutability": "view",
      "type": "function"
    },
    {
      "inputs": [],
      "name": "decimals",
      "outputs": [
        {
          "internalType": "uint8",
          "name": "",
          "type": "uint8"
        }
      ],
      "stateMutability": "view",
      "type": "function"
    },
    {
      "inputs": [
        {
          "internalType": "address",
          "name": "spender",
          "type": "address"
        },
        {
          "internalType": "uint256",
          "name": "subtractedValue",
          "type": "uint256"
        }
      ],
      "name": "decreaseAllowance",
      "outputs": [
        {
          "internalType": "bool",
          "name": "",
          "type": "bool"
        }
      ],
      "stateMutability": "nonpayable",
      "type": "function"
    },
    {
      "inputs": [
        {
          "internalType": "address",
          "name": "delegatee",
          "type": "address"
        }
      ],
      "name": "delegate",
      "outputs": [],
      "stateMutability": "nonpayable",
      "type": "function"
    },
    {
      "inputs": [
        {
          "internalType": "address",
          "name": "delegatee",
          "type": "address"
        },
        {
          "internalType": "uint256",
          "name": "nonce",
          "type": "uint256"
        },
        {
          "internalType": "uint256",
          "name": "expiry",
          "type": "uint256"
        },
        {
          "internalType": "uint8",
          "name": "v",
          "type": "uint8"
        },
        {
          "internalType": "bytes32",
          "name": "r",
          "type": "bytes32"
        },
        {
          "internalType": "bytes32",
          "name": "s",
          "type": "bytes32"
        }
      ],
      "name": "delegateBySig",
      "outputs": [],
      "stateMutability": "nonpayable",
      "type": "function"
    },
    {
      "inputs": [
        {
          "internalType": "address",
          "name": "account",
          "type": "address"
        }
      ],
      "name": "delegates",
      "outputs": [
        {
          "internalType": "address",
          "name": "",
          "type": "address"
        }
      ],
      "stateMutability": "view",
      "type": "function"
    },
    {
      "inputs": [],
      "name": "eip712Domain",
      "outputs": [
        {
          "internalType": "bytes1",
          "name": "fields",
          "type": "bytes1"
        },
        {
          "internalType": "string",
          "name": "name",
          "type": "string"
        },
        {
          "internalType": "string",
          "name": "version",
          "type": "string"
        },
        {
          "internalType": "uint256",
          "name": "chainId",
          "type": "uint256"
        },
        {
          "internalType": "address",
          "name": "verifyingContract",
          "type": "address"
        },
        {
          "internalType": "bytes32",
          "name": "salt",
          "type": "bytes32"
        },
        {
          "internalType": "uint256[]",
          "name": "extensions",
          "type": "uint256[]"
        }
      ],
      "stateMutability": "view",
      "type": "function"
    },
    {
      "inputs": [],
      "name": "exa",
      "outputs": [
        {
          "internalType": "contract EXA",
          "name": "",
          "type": "address"
        }
      ],
      "stateMutability": "view",
      "type": "function"
    },
    {
      "inputs": [
        {
          "internalType": "uint256",
          "name": "timepoint",
          "type": "uint256"
        }
      ],
      "name": "getPastTotalSupply",
      "outputs": [
        {
          "internalType": "uint256",
          "name": "",
          "type": "uint256"
        }
      ],
      "stateMutability": "view",
      "type": "function"
    },
    {
      "inputs": [
        {
          "internalType": "address",
          "name": "account",
          "type": "address"
        },
        {
          "internalType": "uint256",
          "name": "timepoint",
          "type": "uint256"
        }
      ],
      "name": "getPastVotes",
      "outputs": [
        {
          "internalType": "uint256",
          "name": "",
          "type": "uint256"
        }
      ],
      "stateMutability": "view",
      "type": "function"
    },
    {
      "inputs": [
        {
          "internalType": "bytes32",
          "name": "role",
          "type": "bytes32"
        }
      ],
      "name": "getRoleAdmin",
      "outputs": [
        {
          "internalType": "bytes32",
          "name": "",
          "type": "bytes32"
        }
      ],
      "stateMutability": "view",
      "type": "function"
    },
    {
      "inputs": [
        {
          "internalType": "address",
          "name": "account",
          "type": "address"
        }
      ],
      "name": "getVotes",
      "outputs": [
        {
          "internalType": "uint256",
          "name": "",
          "type": "uint256"
        }
      ],
      "stateMutability": "view",
      "type": "function"
    },
    {
      "inputs": [
        {
          "internalType": "bytes32",
          "name": "role",
          "type": "bytes32"
        },
        {
          "internalType": "address",
          "name": "account",
          "type": "address"
        }
      ],
      "name": "grantRole",
      "outputs": [],
      "stateMutability": "nonpayable",
      "type": "function"
    },
    {
      "inputs": [
        {
          "internalType": "bytes32",
          "name": "role",
          "type": "bytes32"
        },
        {
          "internalType": "address",
          "name": "account",
          "type": "address"
        }
      ],
      "name": "hasRole",
      "outputs": [
        {
          "internalType": "bool",
          "name": "",
          "type": "bool"
        }
      ],
      "stateMutability": "view",
      "type": "function"
    },
    {
      "inputs": [
        {
          "internalType": "address",
          "name": "spender",
          "type": "address"
        },
        {
          "internalType": "uint256",
          "name": "addedValue",
          "type": "uint256"
        }
      ],
      "name": "increaseAllowance",
      "outputs": [
        {
          "internalType": "bool",
          "name": "",
          "type": "bool"
        }
      ],
      "stateMutability": "nonpayable",
      "type": "function"
    },
    {
      "inputs": [
        {
          "internalType": "uint40",
          "name": "vestingPeriod_",
          "type": "uint40"
        },
        {
          "internalType": "uint256",
          "name": "reserveRatio_",
          "type": "uint256"
        }
      ],
      "name": "initialize",
      "outputs": [],
      "stateMutability": "nonpayable",
      "type": "function"
    },
    {
      "inputs": [
        {
          "internalType": "uint256",
          "name": "amount",
          "type": "uint256"
        },
        {
          "internalType": "address",
          "name": "to",
          "type": "address"
        }
      ],
      "name": "mint",
      "outputs": [],
      "stateMutability": "nonpayable",
      "type": "function"
    },
    {
      "inputs": [],
      "name": "name",
      "outputs": [
        {
          "internalType": "string",
          "name": "",
          "type": "string"
        }
      ],
      "stateMutability": "view",
      "type": "function"
    },
    {
      "inputs": [
        {
          "internalType": "address",
          "name": "owner",
          "type": "address"
        }
      ],
      "name": "nonces",
      "outputs": [
        {
          "internalType": "uint256",
          "name": "",
          "type": "uint256"
        }
      ],
      "stateMutability": "view",
      "type": "function"
    },
    {
      "inputs": [
        {
          "internalType": "address",
          "name": "account",
          "type": "address"
        }
      ],
      "name": "numCheckpoints",
      "outputs": [
        {
          "internalType": "uint32",
          "name": "",
          "type": "uint32"
        }
      ],
      "stateMutability": "view",
      "type": "function"
    },
    {
      "inputs": [
        {
          "internalType": "uint256",
          "name": "streamId",
          "type": "uint256"
        },
        {
          "internalType": "address",
          "name": "recipient",
          "type": "address"
        },
        {
          "internalType": "uint128",
          "name": "senderAmount",
          "type": "uint128"
        },
        {
          "internalType": "uint128",
          "name": "",
          "type": "uint128"
        }
      ],
      "name": "onStreamCanceled",
      "outputs": [],
      "stateMutability": "nonpayable",
      "type": "function"
    },
    {
      "inputs": [
        {
          "internalType": "address",
          "name": "owner",
          "type": "address"
        },
        {
          "internalType": "address",
          "name": "spender",
          "type": "address"
        },
        {
          "internalType": "uint256",
          "name": "value",
          "type": "uint256"
        },
        {
          "internalType": "uint256",
          "name": "deadline",
          "type": "uint256"
        },
        {
          "internalType": "uint8",
          "name": "v",
          "type": "uint8"
        },
        {
          "internalType": "bytes32",
          "name": "r",
          "type": "bytes32"
        },
        {
          "internalType": "bytes32",
          "name": "s",
          "type": "bytes32"
        }
      ],
      "name": "permit",
      "outputs": [],
      "stateMutability": "nonpayable",
      "type": "function"
    },
    {
      "inputs": [
        {
          "internalType": "uint256",
          "name": "amount",
          "type": "uint256"
        },
        {
          "internalType": "address",
          "name": "to",
          "type": "address"
        }
      ],
      "name": "redeem",
      "outputs": [],
      "stateMutability": "nonpayable",
      "type": "function"
    },
    {
      "inputs": [
        {
          "internalType": "bytes32",
          "name": "role",
          "type": "bytes32"
        },
        {
          "internalType": "address",
          "name": "account",
          "type": "address"
        }
      ],
      "name": "renounceRole",
      "outputs": [],
      "stateMutability": "nonpayable",
      "type": "function"
    },
    {
      "inputs": [],
      "name": "reserveRatio",
      "outputs": [
        {
          "internalType": "uint256",
          "name": "",
          "type": "uint256"
        }
      ],
      "stateMutability": "view",
      "type": "function"
    },
    {
      "inputs": [
        {
          "internalType": "uint256",
          "name": "",
          "type": "uint256"
        }
      ],
      "name": "reserves",
      "outputs": [
        {
          "internalType": "uint256",
          "name": "",
          "type": "uint256"
        }
      ],
      "stateMutability": "view",
      "type": "function"
    },
    {
      "inputs": [
        {
          "internalType": "bytes32",
          "name": "role",
          "type": "bytes32"
        },
        {
          "internalType": "address",
          "name": "account",
          "type": "address"
        }
      ],
      "name": "revokeRole",
      "outputs": [],
      "stateMutability": "nonpayable",
      "type": "function"
    },
    {
      "inputs": [],
      "name": "sablier",
      "outputs": [
        {
          "internalType": "contract ISablierV2LockupLinear",
          "name": "",
          "type": "address"
        }
      ],
      "stateMutability": "view",
      "type": "function"
    },
    {
      "inputs": [
        {
          "internalType": "uint256",
          "name": "reserveRatio_",
          "type": "uint256"
        }
      ],
      "name": "setReserveRatio",
      "outputs": [],
      "stateMutability": "nonpayable",
      "type": "function"
    },
    {
      "inputs": [
        {
          "internalType": "uint40",
          "name": "vestingPeriod_",
          "type": "uint40"
        }
      ],
      "name": "setVestingPeriod",
      "outputs": [],
      "stateMutability": "nonpayable",
      "type": "function"
    },
    {
      "inputs": [
        {
          "internalType": "bytes4",
          "name": "interfaceId",
          "type": "bytes4"
        }
      ],
      "name": "supportsInterface",
      "outputs": [
        {
          "internalType": "bool",
          "name": "",
          "type": "bool"
        }
      ],
      "stateMutability": "view",
      "type": "function"
    },
    {
      "inputs": [],
      "name": "symbol",
      "outputs": [
        {
          "internalType": "string",
          "name": "",
          "type": "string"
        }
      ],
      "stateMutability": "view",
      "type": "function"
    },
    {
      "inputs": [],
      "name": "totalSupply",
      "outputs": [
        {
          "internalType": "uint256",
          "name": "",
          "type": "uint256"
        }
      ],
      "stateMutability": "view",
      "type": "function"
    },
    {
      "inputs": [
        {
          "internalType": "address",
          "name": "to",
          "type": "address"
        },
        {
          "internalType": "uint256",
          "name": "amount",
          "type": "uint256"
        }
      ],
      "name": "transfer",
      "outputs": [
        {
          "internalType": "bool",
          "name": "",
          "type": "bool"
        }
      ],
      "stateMutability": "nonpayable",
      "type": "function"
    },
    {
      "inputs": [
        {
          "internalType": "address",
          "name": "from",
          "type": "address"
        },
        {
          "internalType": "address",
          "name": "to",
          "type": "address"
        },
        {
          "internalType": "uint256",
          "name": "amount",
          "type": "uint256"
        }
      ],
      "name": "transferFrom",
      "outputs": [
        {
          "internalType": "bool",
          "name": "",
          "type": "bool"
        }
      ],
      "stateMutability": "nonpayable",
      "type": "function"
    },
    {
      "inputs": [
        {
          "internalType": "uint128",
          "name": "amount",
          "type": "uint128"
        },
        {
          "internalType": "address",
          "name": "to",
          "type": "address"
        },
        {
          "internalType": "uint256",
          "name": "maxRatio",
          "type": "uint256"
        },
        {
          "internalType": "uint256",
          "name": "maxPeriod",
          "type": "uint256"
        },
        {
          "components": [
            {
              "internalType": "uint256",
              "name": "value",
              "type": "uint256"
            },
            {
              "internalType": "uint256",
              "name": "deadline",
              "type": "uint256"
            },
            {
              "internalType": "uint8",
              "name": "v",
              "type": "uint8"
            },
            {
              "internalType": "bytes32",
              "name": "r",
              "type": "bytes32"
            },
            {
              "internalType": "bytes32",
              "name": "s",
              "type": "bytes32"
            }
          ],
          "internalType": "struct Permit",
          "name": "p",
          "type": "tuple"
        }
      ],
      "name": "vest",
      "outputs": [
        {
          "internalType": "uint256",
          "name": "streamId",
          "type": "uint256"
        }
      ],
      "stateMutability": "nonpayable",
      "type": "function"
    },
    {
      "inputs": [
        {
          "internalType": "uint128",
          "name": "amount",
          "type": "uint128"
        },
        {
          "internalType": "address",
          "name": "to",
          "type": "address"
        },
        {
          "internalType": "uint256",
          "name": "maxRatio",
          "type": "uint256"
        },
        {
          "internalType": "uint256",
          "name": "maxPeriod",
          "type": "uint256"
        }
      ],
      "name": "vest",
      "outputs": [
        {
          "internalType": "uint256",
          "name": "streamId",
          "type": "uint256"
        }
      ],
      "stateMutability": "nonpayable",
      "type": "function"
    },
    {
      "inputs": [],
      "name": "vestingPeriod",
      "outputs": [
        {
          "internalType": "uint40",
          "name": "",
          "type": "uint40"
        }
      ],
      "stateMutability": "view",
      "type": "function"
    },
    {
      "inputs": [
        {
          "internalType": "uint256[]",
          "name": "streamIds",
          "type": "uint256[]"
        }
      ],
      "name": "withdrawMax",
      "outputs": [],
      "stateMutability": "nonpayable",
      "type": "function"
    }
  ],
  "transactionHash": "0xdcc759ac60d7e4846e62e7216eae4de873f14434abd34d108ffa9d07b95f5f1c",
  "args": [
    "0x2De40D1c613Cdd9D754899B40901455827C2AB3b",
    "0x6E3678c005815Ab34986D8d66A353Cd3699103DE"
  ],
  "numDeployments": 3,
  "solcInputHash": "7173c51eba4ba2b2fd6989dd1123d51c",
  "bytecode": "0x60c06040523480156200001157600080fd5b5060405162003ba738038062003ba78339810160408190526200003491620000dc565b6001600160a01b03808316608052811660a0526200005162000059565b50506200011b565b600054610100900460ff16156200006f57600080fd5b60005460ff90811614620000c1576000805460ff191660ff9081179091556040519081527f7f26b83ff96e1f2b6a682f133852f6798a09c465da95921460cefb38474024989060200160405180910390a15b565b6001600160a01b0381168114620000d957600080fd5b50565b60008060408385031215620000f057600080fd5b8251620000fd81620000c3565b60208401519092506200011081620000c3565b809150509250929050565b60805160a0516139da620001cd600039600081816103f7015281816108a30152818161097b01528181610a1901528181610d1701528181610ec301528181611315015281816115d201528181611a2e01528181611acb0152611b4601526000818161054401528181610af101528181610ba301528181610c5901528181610ea101528181610fe301528181611134015281816111d10152818161150801528181611561015261207401526139da6000f3fe608060405234801561001057600080fd5b50600436106102bb5760003560e01c806374005c001161018257806394bf804d116100e9578063aeef4962116100a2578063d505accf1161007c578063d505accf146106dc578063d547741f146106ef578063dd62ed3e14610702578063f1127ed81461071557600080fd5b8063aeef4962146106a3578063c3cda520146106b6578063cfbb6182146106c957600080fd5b806394bf804d1461064757806395d89b411461065a5780639ab24eb014610662578063a217fddf14610675578063a457c2d71461067d578063a9059cbb1461069057600080fd5b80638334278d1161013b5780638334278d146105b357806384b0196e146105d45780638b4f3b2c146105ef5780638e539e8c1461060257806391d148541461061557806391ddadf41461062857600080fd5b806374005c0014610519578063772f87821461052c5780637965b6361461053f5780637bde82f2146105665780637ecebe00146105795780637fa46ab41461058c57600080fd5b80633704b0c8116102265780635c19a95c116101df5780635c19a95c1461046557806363ac5d97146104785780636fcfff451461048d57806370a08231146104b557806372eba203146104de5780637313ee5a146104f157600080fd5b80633704b0c8146103b957806339509351146103cc5780633a46b1a8146103df578063482879aa146103f25780634bf5d7e914610431578063587cde1e1461043957600080fd5b8063248a9ca311610278578063248a9ca3146103435780632e340823146103675780632f2ff15d1461037a578063313ce5671461038f5780633644e5151461039e57806336568abe146103a657600080fd5b806301ffc9a7146102c057806306fdde03146102e8578063095ea7b3146102fd5780630c7d5cd81461031057806318160ddd1461032857806323b872dd14610330575b600080fd5b6102d36102ce366004612ee7565b610752565b60405190151581526020015b60405180910390f35b6102f0610789565b6040516102df9190612f61565b6102d361030b366004612f89565b61081b565b61031a6101625481565b6040519081526020016102df565b60355461031a565b6102d361033e366004612fb5565b610833565b61031a610351366004612ff6565b6000908152610130602052604090206001015490565b61031a610375366004613056565b610857565b61038d6103883660046130fc565b610b1e565b005b604051601281526020016102df565b61031a610b49565b61038d6103b43660046130fc565b610b58565b61031a6103c7366004613141565b610b7b565b6102d36103da366004612f89565b610bed565b61031a6103ed366004612f89565b610c0f565b6104197f000000000000000000000000000000000000000000000000000000000000000081565b6040516001600160a01b0390911681526020016102df565b6102f0610c55565b6104196104473660046131a9565b6001600160a01b03908116600090815260cc60205260409020541690565b61038d6104733660046131a9565b610cdd565b61031a60008051602061398583398151915281565b6104a061049b3660046131a9565b610cea565b60405163ffffffff90911681526020016102df565b61031a6104c33660046131a9565b6001600160a01b031660009081526033602052604090205490565b61038d6104ec3660046131c6565b610d0c565b610163546105039064ffffffffff1681565b60405164ffffffffff90911681526020016102df565b61038d610527366004613233565b610d70565b61038d61053a36600461324f565b610f34565b6104197f000000000000000000000000000000000000000000000000000000000000000081565b61038d6105743660046130fc565b610f92565b61031a6105873660046131a9565b61100a565b61031a7f44ac9762eec3a11893fefb11d028bb3102560094137c3ed4518712475b2577cc81565b61031a6105c1366004612ff6565b6101646020526000908152604090205481565b6105dc611028565b6040516102df97969594939291906132a5565b61038d6105fd366004612ff6565b61108b565b61031a610610366004612ff6565b6110dc565b6102d36106233660046130fc565b611104565b610630611130565b60405165ffffffffffff90911681526020016102df565b61038d6106553660046130fc565b6111b4565b6102f0611203565b61031a6106703660046131a9565b611212565b61031a600081565b6102d361068b366004612f89565b611294565b6102d361069e366004612f89565b6112be565b61038d6106b1366004613056565b6112cc565b61038d6106c4366004613326565b6113c2565b61031a6106d7366004613380565b611472565b61038d6106ea3660046133c6565b6116b4565b61038d6106fd3660046130fc565b611792565b61031a610710366004613434565b6117b8565b610728610723366004613462565b6117e3565b60408051825163ffffffff1681526020928301516001600160e01b031692810192909252016102df565b60006001600160e01b03198216637965db0b60e01b148061078357506301ffc9a760e01b6001600160e01b03198316145b92915050565b60606036805461079890613499565b80601f01602080910402602001604051908101604052809291908181526020018280546107c490613499565b80156108115780601f106107e657610100808354040283529160200191610811565b820191906000526020600020905b8154815290600101906020018083116107f457829003601f168201915b5050505050905090565b600033610829818585611867565b5060019392505050565b6000336108418582856118ee565b61084c85858561191f565b506001949350505050565b60008060005b8351811015610a8f57600084828151811061087a5761087a6134cd565b6020026020010151905061088d816119e9565b604051636d0cee7560e01b8152600481018290527f00000000000000000000000000000000000000000000000000000000000000006001600160a01b031690636d0cee7590602401602060405180830381865afa1580156108f2573d6000803e3d6000fd5b505050506040513d601f19601f8201168201806040525081019061091691906134e3565b6001600160a01b0316336001600160a01b03161461093657610936613500565b60008181526101646020526040902054610950908561352c565b6000828152610164602052604080822091909155516305003b3b60e21b8152600481018390529094507f00000000000000000000000000000000000000000000000000000000000000006001600160a01b031690631400ecec90602401602060405180830381865afa1580156109ca573d6000803e3d6000fd5b505050506040513d601f19601f820116820180604052508101906109ee919061353f565b6109f8908461355c565b9250610a0381611a18565b6040516340e58ee560e01b8152600481018290527f00000000000000000000000000000000000000000000000000000000000000006001600160a01b0316906340e58ee590602401600060405180830381600087803b158015610a6557600080fd5b505af1158015610a79573d6000803e3d6000fd5b505050505080610a8890613583565b905061085d565b50336001600160a01b03167f964d277204a99dbd6ae9401153b4afb6d6682befec2f65401afb8839cb0623cd84604051610ac9919061359c565b60405180910390a2610ae433826001600160801b0316611bc8565b610b186001600160a01b037f0000000000000000000000000000000000000000000000000000000000000000163384611bf6565b50919050565b60008281526101306020526040902060010154610b3a81611c59565b610b448383611c63565b505050565b6000610b53611cea565b905090565b6001600160a01b0381163314610b6d57600080fd5b610b778282611cf4565b5050565b6000610bd7333084356020860135610b9960608801604089016135af565b6001600160a01b037f0000000000000000000000000000000000000000000000000000000000000000169493929190606089013560808a0135611d5c565b610be386868686611472565b9695505050505050565b600033610829818585610c0083836117b8565b610c0a919061352c565b611867565b6000610c19611130565b65ffffffffffff168210610c2c57600080fd5b6001600160a01b038316600090815260cd60205260409020610c4e9083611ed9565b9392505050565b60607f00000000000000000000000000000000000000000000000000000000000000006001600160a01b0316634bf5d7e96040518163ffffffff1660e01b8152600401600060405180830381865afa158015610cb5573d6000803e3d6000fd5b505050506040513d6000823e601f3d908101601f19168201604052610b5391908101906135ca565b610ce73382611fc2565b50565b6001600160a01b038116600090815260cd60205260408120546107839061203c565b336001600160a01b037f00000000000000000000000000000000000000000000000000000000000000001614610d4457610d44613500565b610d4d846119e9565b610d6083836001600160801b0316611bc8565b610d6a8484612053565b50505050565b600054610100900460ff1615808015610d905750600054600160ff909116105b80610daa5750303b158015610daa575060005460ff166001145b610db357600080fd5b6000805460ff191660011790558015610dd6576000805461ff0019166101001790555b610e216040518060400160405280600c81526020016b657363726f7765642045584160a01b81525060405180604001604052806005815260200164657345584160d81b81525061209b565b610e4e6040518060400160405280600c81526020016b657363726f7765642045584160a01b8152506120b9565b610e566120f0565b610e5e6120f0565b610e69600033611c63565b610e826000805160206139858339815191526000611c63565b610e8b83610f34565b610e948261108b565b610eea6001600160a01b037f0000000000000000000000000000000000000000000000000000000000000000167f0000000000000000000000000000000000000000000000000000000000000000600019612106565b8015610b44576000805461ff0019169055604051600181527f7f26b83ff96e1f2b6a682f133852f6798a09c465da95921460cefb38474024989060200160405180910390a1505050565b6000610f3f81611c59565b610163805464ffffffffff191664ffffffffff84169081179091556040519081527fa32a160b75cd889deb50070e9f625fd66171dedaa088787a37faa0ec56a99236906020015b60405180910390a15050565b7f44ac9762eec3a11893fefb11d028bb3102560094137c3ed4518712475b2577cc610fbc81611c59565b82600003610fcc57610fcc613500565b610fd633846121b9565b610b446001600160a01b037f0000000000000000000000000000000000000000000000000000000000000000168385611bf6565b6001600160a01b038116600090815260996020526040812054610783565b6000606080600080600060606065546000801b1480156110485750606654155b61105157600080fd5b6110596121d1565b6110616121e0565b60408051600080825260208201909252600f60f81b9b939a50919850469750309650945092509050565b600061109681611c59565b816000036110a6576110a6613500565b6101628290556040518281527f9ef03f0d13f9c31ff0f3068e73c02a4333fa05b02bf58d3801e00fe286191c5490602001610f86565b60006110e6611130565b65ffffffffffff1682106110f957600080fd5b61078360ce83611ed9565b6000918252610130602090815260408084206001600160a01b0393909316845291905290205460ff1690565b60007f00000000000000000000000000000000000000000000000000000000000000006001600160a01b03166391ddadf46040518163ffffffff1660e01b8152600401602060405180830381865afa158015611190573d6000803e3d6000fd5b505050506040513d601f19601f82011682018060405250810190610b53919061365e565b816000036111c4576111c4613500565b6111f96001600160a01b037f0000000000000000000000000000000000000000000000000000000000000000163330856121ef565b610b778183611bc8565b60606037805461079890613499565b6001600160a01b038116600090815260cd60205260408120548015611281576001600160a01b038316600090815260cd602052604090208054600019830190811061125f5761125f6134cd565b60009182526020909120015464010000000090046001600160e01b0316611284565b60005b6001600160e01b03169392505050565b600033816112a282866117b8565b9050838110156112b157600080fd5b61084c8286868403611867565b60003361082981858561191f565b60005b8151811015610b775760008282815181106112ec576112ec6134cd565b602002602001015190506112ff816119e9565b604051636d0cee7560e01b8152600481018290527f00000000000000000000000000000000000000000000000000000000000000006001600160a01b031690636d0cee7590602401602060405180830381865afa158015611364573d6000803e3d6000fd5b505050506040513d601f19601f8201168201806040525081019061138891906134e3565b6001600160a01b0316336001600160a01b0316146113a8576113a8613500565b6113b181611a18565b506113bb81613583565b90506112cf565b834211156113cf57600080fd5b604080517fe48329057bfd03d55e49b547132e39cffd9c1820ad7b9d4c5307691425d15adf60208201526001600160a01b038816918101919091526060810186905260808101859052600090611449906114419060a00160405160208183030381529060405280519060200120612227565b858585612254565b90506114548161227e565b861461145f57600080fd5b6114698188611fc2565b50505050505050565b6000846001600160801b031660000361148d5761148d613500565b826101625411806114a757506101635464ffffffffff1682105b156114c557604051632c1b6b4160e21b815260040160405180910390fd5b6114d833866001600160801b03166121b9565b60006114f961016254876001600160801b03166122a490919063ffffffff16565b90506115306001600160a01b037f0000000000000000000000000000000000000000000000000000000000000000163330846121ef565b6040805160e0810182523081526001600160a01b038781166020808401919091526001600160801b038a16838501527f000000000000000000000000000000000000000000000000000000000000000082166060840152600160808401528351808501855260008082526101635464ffffffffff168284015260a0850191909152845180860186528181529182015260c08301529151631b4103a960e01b81527f000000000000000000000000000000000000000000000000000000000000000090921691631b4103a99161160791600401613686565b6020604051808303816000875af1158015611626573d6000803e3d6000fd5b505050506040513d601f19601f8201168201806040525081019061164a919061371b565b6000818152610164602090815260409182902084905590516001600160801b038916815291935083916001600160a01b0388169133917fd9c1851563fe01face9bb04f31b9adad0fb3db6ed6f78845f9c04eadedb494d2910160405180910390a450949350505050565b834211156116c157600080fd5b60007f6e71edae12b1b97f4d1f60370fef10105fa2faae0126114a169c64845d6126c98888886116f08c61227e565b6040805160208101969096526001600160a01b0394851690860152929091166060840152608083015260a082015260c0810186905260e001604051602081830303815290604052805190602001209050600061174b82612227565b9050600061175b82878787612254565b9050896001600160a01b0316816001600160a01b03161461177b57600080fd5b6117868a8a8a611867565b50505050505050505050565b600082815261013060205260409020600101546117ae81611c59565b610b448383611cf4565b6001600160a01b03918216600090815260346020908152604080832093909416825291909152205490565b60408051808201909152600080825260208201526001600160a01b038316600090815260cd60205260409020805463ffffffff8416908110611827576118276134cd565b60009182526020918290206040805180820190915291015463ffffffff8116825264010000000090046001600160e01b0316918101919091529392505050565b6001600160a01b03831661187a57600080fd5b6001600160a01b03821661188d57600080fd5b6001600160a01b0383811660008181526034602090815260408083209487168084529482529182902085905590518481527f8c5be1e5ebec7d5bd14f71427d1e84f3dd0314c0f7b2291e5b200ac8c7c3b925910160405180910390a3505050565b60006118fa84846117b8565b90506000198114610d6a578181101561191257600080fd5b610d6a8484848403611867565b6001600160a01b03831661193257600080fd5b6001600160a01b03821661194557600080fd5b6119508383836122b9565b6001600160a01b0383166000908152603360205260409020548181101561197657600080fd5b6001600160a01b0380851660008181526033602052604080822086860390559286168082529083902080548601905591517fddf252ad1be2c89b69c2b068fc378daa952ba7f163c4a11628f55a4df523b3ef906119d69086815260200190565b60405180910390a3610d6a848484612311565b600081815261016460205260408120549003610ce75760405163a0f87d3360e01b815260040160405180910390fd5b60405163d975dfed60e01b8152600481018290527f00000000000000000000000000000000000000000000000000000000000000006001600160a01b03169063d975dfed90602401602060405180830381865afa158015611a7d573d6000803e3d6000fd5b505050506040513d601f19601f82011682018060405250810190611aa1919061353f565b6001600160801b031615611b305760405163ea5ead1960e01b8152600481018290523360248201527f00000000000000000000000000000000000000000000000000000000000000006001600160a01b03169063ea5ead1990604401600060405180830381600087803b158015611b1757600080fd5b505af1158015611b2b573d6000803e3d6000fd5b505050505b60405163425d30dd60e01b8152600481018290527f00000000000000000000000000000000000000000000000000000000000000006001600160a01b03169063425d30dd90602401602060405180830381865afa158015611b95573d6000803e3d6000fd5b505050506040513d601f19601f82011682018060405250810190611bb99190613734565b15610ce757610ce78133612053565b611bd28282612343565b6035546001600160e01b031015611be857600080fd5b610d6a60ce6123d5836123e1565b6040516001600160a01b038316602482015260448101829052610b4490849063a9059cbb60e01b906064015b60408051601f198184030181529190526020810180516001600160e01b03166001600160e01b031990931692909217909152612556565b610ce781336125d5565b611c6d8282611104565b610b77576000828152610130602090815260408083206001600160a01b03851684529091529020805460ff19166001179055611ca63390565b6001600160a01b0316816001600160a01b0316837f2f8788117e7eff1d82e926ec794901d17c78024a50270940304540a733656f0d60405160405180910390a45050565b6000610b5361261c565b611cfe8282611104565b15610b77576000828152610130602090815260408083206001600160a01b0385168085529252808320805460ff1916905551339285917ff6391f5c32d9c69d2a47ea670b442974b53935d1edc7fd64eb21e047a839171b9190a45050565b604051623f675f60e91b81526001600160a01b038881166004830152600091908a1690637ecebe0090602401602060405180830381865afa158015611da5573d6000803e3d6000fd5b505050506040513d601f19601f82011682018060405250810190611dc9919061371b565b60405163d505accf60e01b81526001600160a01b038a811660048301528981166024830152604482018990526064820188905260ff8716608483015260a4820186905260c48201859052919250908a169063d505accf9060e401600060405180830381600087803b158015611e3d57600080fd5b505af1158015611e51573d6000803e3d6000fd5b5050604051623f675f60e91b81526001600160a01b038b81166004830152600093508c169150637ecebe0090602401602060405180830381865afa158015611e9d573d6000803e3d6000fd5b505050506040513d601f19601f82011682018060405250810190611ec1919061371b565b9050611ece82600161352c565b811461178657600080fd5b815460009081816005811115611f33576000611ef484612690565b611efe9085613756565b600088815260209020909150869082015463ffffffff161115611f2357809150611f31565b611f2e81600161352c565b92505b505b80821015611f80576000611f478383612778565b600088815260209020909150869082015463ffffffff161115611f6c57809150611f7a565b611f7781600161352c565b92505b50611f33565b8015611fac576000868152602090208101600019015464010000000090046001600160e01b0316611faf565b60005b6001600160e01b03169695505050505050565b6001600160a01b03828116600081815260cc6020818152604080842080546033845282862054949093528787166001600160a01b03198416811790915590519190951694919391928592917f3134e8a2e6d97e929a7e54011ea5485d7d196dd5f0ba4d4ef95803e8e3fc257f9190a4610d6a828483612793565b600063ffffffff82111561204f57600080fd5b5090565b6000828152610164602052604081208054919055610b446001600160a01b037f0000000000000000000000000000000000000000000000000000000000000000168383611bf6565b600054610100900460ff166120af57600080fd5b610b7782826128d0565b600054610100900460ff166120cd57600080fd5b610ce781604051806040016040528060018152602001603160f81b8152506128fd565b600054610100900460ff1661210457600080fd5b565b8015806121805750604051636eb1769f60e11b81523060048201526001600160a01b03838116602483015284169063dd62ed3e90604401602060405180830381865afa15801561215a573d6000803e3d6000fd5b505050506040513d601f19601f8201168201806040525081019061217e919061371b565b155b61218957600080fd5b6040516001600160a01b038316602482015260448101829052610b4490849063095ea7b360e01b90606401611c22565b6121c38282612939565b610d6a60ce6129e5836123e1565b60606067805461079890613499565b60606068805461079890613499565b6040516001600160a01b0380851660248301528316604482015260648101829052610d6a9085906323b872dd60e01b90608401611c22565b6000610783612234611cea565b8360405161190160f01b8152600281019290925260228201526042902090565b6000806000612265878787876129f1565b9150915061227281612ab5565b5090505b949350505050565b6001600160a01b0381166000908152609960205260409020805460018101825590610b18565b6000610c4e8383670de0b6b3a7640000612b2b565b6122d160008051602061398583398151915284611104565b1580156122f357506122f160008051602061398583398151915283611104565b155b15610b445760405163072b78c760e01b815260040160405180910390fd5b6001600160a01b03838116600090815260cc6020526040808220548584168352912054610b4492918216911683612793565b6001600160a01b03821661235657600080fd5b612362600083836122b9565b8060356000828254612374919061352c565b90915550506001600160a01b0382166000818152603360209081526040808320805486019055518481527fddf252ad1be2c89b69c2b068fc378daa952ba7f163c4a11628f55a4df523b3ef910160405180910390a3610b7760008383612311565b6000610c4e828461352c565b8254600090819081811561242e5760008781526020902082016000190160408051808201909152905463ffffffff8116825264010000000090046001600160e01b03166020820152612443565b60408051808201909152600080825260208201525b905080602001516001600160e01b0316935061246384868863ffffffff16565b925060008211801561248d5750612478611130565b65ffffffffffff16816000015163ffffffff16145b156124d25761249b83612b59565b60008881526020902083016000190180546001600160e01b03929092166401000000000263ffffffff90921691909117905561254c565b8660405180604001604052806124f66124e9611130565b65ffffffffffff1661203c565b63ffffffff16815260200161250a86612b59565b6001600160e01b0390811690915282546001810184556000938452602093849020835194909301519091166401000000000263ffffffff909316929092179101555b5050935093915050565b60006125ab826040518060400160405280602081526020017f5361666545524332303a206c6f772d6c6576656c2063616c6c206661696c6564815250856001600160a01b0316612b6f9092919063ffffffff16565b90508051600014806125cc5750808060200190518101906125cc9190613734565b610b4457600080fd5b6125df8282611104565b610b77576125ec81612b7e565b6125f7836020612b90565b604051602001612608929190613769565b604051602081830303815290604052600080fd5b60007f8b73c3c69bb8fe3d512ecc4cf759cc79239f7b179b0ffacaa9a75d522b39400f612647612ce9565b61264f612d42565b60408051602081019490945283019190915260608201524660808201523060a082015260c00160405160208183030381529060405280519060200120905090565b6000816000036126a257506000919050565b600060016126af84612d73565b901c6001901b905060018184816126c8576126c86137de565b048201901c905060018184816126e0576126e06137de565b048201901c905060018184816126f8576126f86137de565b048201901c90506001818481612710576127106137de565b048201901c90506001818481612728576127286137de565b048201901c90506001818481612740576127406137de565b048201901c90506001818481612758576127586137de565b048201901c9050610c4e81828581612772576127726137de565b04612e07565b600061278760028484186137f4565b610c4e9084841661352c565b816001600160a01b0316836001600160a01b0316141580156127b55750600081115b15610b44576001600160a01b03831615612843576001600160a01b038316600090815260cd6020526040812081906127f0906129e5856123e1565b91509150846001600160a01b03167fdec2bacdd2f05b59de34da9b523dff8be42e5e38e818c82fdb0bae774387a7248383604051612838929190918252602082015260400190565b60405180910390a250505b6001600160a01b03821615610b44576001600160a01b038216600090815260cd602052604081208190612879906123d5856123e1565b91509150836001600160a01b03167fdec2bacdd2f05b59de34da9b523dff8be42e5e38e818c82fdb0bae774387a72483836040516128c1929190918252602082015260400190565b60405180910390a25050505050565b600054610100900460ff166128e457600080fd5b60366128f08382613864565b506037610b448282613864565b600054610100900460ff1661291157600080fd5b606761291d8382613864565b50606861292a8282613864565b50506000606581905560665550565b6001600160a01b03821661294c57600080fd5b612958826000836122b9565b6001600160a01b0382166000908152603360205260409020548181101561297e57600080fd5b6001600160a01b03831660008181526033602090815260408083208686039055603580548790039055518581529192917fddf252ad1be2c89b69c2b068fc378daa952ba7f163c4a11628f55a4df523b3ef910160405180910390a3610b4483600084612311565b6000610c4e8284613756565b6000807f7fffffffffffffffffffffffffffffff5d576e7357a4501ddfe92f46681b20a0831115612a285750600090506003612aac565b6040805160008082526020820180845289905260ff881692820192909252606081018690526080810185905260019060a0016020604051602081039080840390855afa158015612a7c573d6000803e3d6000fd5b5050604051601f1901519150506001600160a01b038116612aa557600060019250925050612aac565b9150600090505b94509492505050565b6000816004811115612ac957612ac9613924565b03612ad15750565b6001816004811115612ae557612ae5613924565b03612aef57600080fd5b6002816004811115612b0357612b03613924565b03612b0d57600080fd5b6003816004811115612b2157612b21613924565b03610ce757600080fd5b828202811515841585830485141716612b4357600080fd5b6001826001830304018115150290509392505050565b60006001600160e01b0382111561204f57600080fd5b60606122768484600085612e1d565b60606107836001600160a01b03831660145b60606000612b9f83600261393a565b612baa90600261352c565b67ffffffffffffffff811115612bc257612bc261300f565b6040519080825280601f01601f191660200182016040528015612bec576020820181803683370190505b509050600360fc1b81600081518110612c0757612c076134cd565b60200101906001600160f81b031916908160001a905350600f60fb1b81600181518110612c3657612c366134cd565b60200101906001600160f81b031916908160001a9053506000612c5a84600261393a565b612c6590600161352c565b90505b6001811115612cdd576f181899199a1a9b1b9c1cb0b131b232b360811b85600f1660108110612c9957612c996134cd565b1a60f81b828281518110612caf57612caf6134cd565b60200101906001600160f81b031916908160001a90535060049490941c93612cd681613951565b9050612c68565b508315610c4e57600080fd5b600080612cf46121d1565b805190915015612d0b578051602090910120919050565b6065548015612d1a5792915050565b7fc5d2460186f7233c927e7db2dcc703c0e500b653ca82273b7bfad8045d85a4709250505090565b600080612d4d6121e0565b805190915015612d64578051602090910120919050565b6066548015612d1a5792915050565b600080608083901c15612d8857608092831c92015b604083901c15612d9a57604092831c92015b602083901c15612dac57602092831c92015b601083901c15612dbe57601092831c92015b600883901c15612dd057600892831c92015b600483901c15612de257600492831c92015b600283901c15612df457600292831c92015b600183901c156107835760010192915050565b6000818310612e165781610c4e565b5090919050565b606082471015612e2c57600080fd5b600080866001600160a01b03168587604051612e489190613968565b60006040518083038185875af1925050503d8060008114612e85576040519150601f19603f3d011682016040523d82523d6000602084013e612e8a565b606091505b5091509150612e9b87838387612ea6565b979650505050505050565b60608315612ed2578251600003612ecb576001600160a01b0385163b612ecb57600080fd5b5081612276565b61227683838151156102bb5781518083602001fd5b600060208284031215612ef957600080fd5b81356001600160e01b031981168114610c4e57600080fd5b60005b83811015612f2c578181015183820152602001612f14565b50506000910152565b60008151808452612f4d816020860160208601612f11565b601f01601f19169290920160200192915050565b602081526000610c4e6020830184612f35565b6001600160a01b0381168114610ce757600080fd5b60008060408385031215612f9c57600080fd5b8235612fa781612f74565b946020939093013593505050565b600080600060608486031215612fca57600080fd5b8335612fd581612f74565b92506020840135612fe581612f74565b929592945050506040919091013590565b60006020828403121561300857600080fd5b5035919050565b634e487b7160e01b600052604160045260246000fd5b604051601f8201601f1916810167ffffffffffffffff8111828210171561304e5761304e61300f565b604052919050565b6000602080838503121561306957600080fd5b823567ffffffffffffffff8082111561308157600080fd5b818501915085601f83011261309557600080fd5b8135818111156130a7576130a761300f565b8060051b91506130b8848301613025565b81815291830184019184810190888411156130d257600080fd5b938501935b838510156130f0578435825293850193908501906130d7565b98975050505050505050565b6000806040838503121561310f57600080fd5b82359150602083013561312181612f74565b809150509250929050565b6001600160801b0381168114610ce757600080fd5b600080600080600085870361012081121561315b57600080fd5b86356131668161312c565b9550602087013561317681612f74565b9450604087013593506060870135925060a0607f198201121561319857600080fd5b506080860190509295509295909350565b6000602082840312156131bb57600080fd5b8135610c4e81612f74565b600080600080608085870312156131dc57600080fd5b8435935060208501356131ee81612f74565b925060408501356131fe8161312c565b9150606085013561320e8161312c565b939692955090935050565b803564ffffffffff8116811461322e57600080fd5b919050565b6000806040838503121561324657600080fd5b612fa783613219565b60006020828403121561326157600080fd5b610c4e82613219565b600081518084526020808501945080840160005b8381101561329a5781518752958201959082019060010161327e565b509495945050505050565b60ff60f81b8816815260e0602082015260006132c460e0830189612f35565b82810360408401526132d68189612f35565b606084018890526001600160a01b038716608085015260a0840186905283810360c08501529050613307818561326a565b9a9950505050505050505050565b803560ff8116811461322e57600080fd5b60008060008060008060c0878903121561333f57600080fd5b863561334a81612f74565b9550602087013594506040870135935061336660608801613315565b92506080870135915060a087013590509295509295509295565b6000806000806080858703121561339657600080fd5b84356133a18161312c565b935060208501356133b181612f74565b93969395505050506040820135916060013590565b600080600080600080600060e0888a0312156133e157600080fd5b87356133ec81612f74565b965060208801356133fc81612f74565b9550604088013594506060880135935061341860808901613315565b925060a0880135915060c0880135905092959891949750929550565b6000806040838503121561344757600080fd5b823561345281612f74565b9150602083013561312181612f74565b6000806040838503121561347557600080fd5b823561348081612f74565b9150602083013563ffffffff8116811461312157600080fd5b600181811c908216806134ad57607f821691505b602082108103610b1857634e487b7160e01b600052602260045260246000fd5b634e487b7160e01b600052603260045260246000fd5b6000602082840312156134f557600080fd5b8151610c4e81612f74565b634e487b7160e01b600052600160045260246000fd5b634e487b7160e01b600052601160045260246000fd5b8082018082111561078357610783613516565b60006020828403121561355157600080fd5b8151610c4e8161312c565b6001600160801b0381811683821601908082111561357c5761357c613516565b5092915050565b60006001820161359557613595613516565b5060010190565b602081526000610c4e602083018461326a565b6000602082840312156135c157600080fd5b610c4e82613315565b6000602082840312156135dc57600080fd5b815167ffffffffffffffff808211156135f457600080fd5b818401915084601f83011261360857600080fd5b81518181111561361a5761361a61300f565b61362d601f8201601f1916602001613025565b915080825285602082850101111561364457600080fd5b613655816020840160208601612f11565b50949350505050565b60006020828403121561367057600080fd5b815165ffffffffffff81168114610c4e57600080fd5b60006101208201905060018060a01b038084511683528060208501511660208401526001600160801b0360408501511660408401528060608501511660608401525060808301511515608083015260a083015164ffffffffff8082511660a08501528060208301511660c0850152505060c083015161357c60e084018280516001600160a01b03168252602090810151910152565b60006020828403121561372d57600080fd5b5051919050565b60006020828403121561374657600080fd5b81518015158114610c4e57600080fd5b8181038181111561078357610783613516565b7f416363657373436f6e74726f6c3a206163636f756e74200000000000000000008152600083516137a1816017850160208801612f11565b7001034b99036b4b9b9b4b733903937b6329607d1b60179184019182015283516137d2816028840160208801612f11565b01602801949350505050565b634e487b7160e01b600052601260045260246000fd5b60008261381157634e487b7160e01b600052601260045260246000fd5b500490565b601f821115610b4457600081815260208120601f850160051c8101602086101561383d5750805b601f850160051c820191505b8181101561385c57828155600101613849565b505050505050565b815167ffffffffffffffff81111561387e5761387e61300f565b6138928161388c8454613499565b84613816565b602080601f8311600181146138c757600084156138af5750858301515b600019600386901b1c1916600185901b17855561385c565b600085815260208120601f198616915b828110156138f6578886015182559484019460019091019084016138d7565b50858210156139145787850151600019600388901b60f8161c191681555b5050505050600190811b01905550565b634e487b7160e01b600052602160045260246000fd5b808202811582820484141761078357610783613516565b60008161396057613960613516565b506000190190565b6000825161397a818460208701612f11565b919091019291505056fe9c0b3a9882e11a6bfb8283b46d1e79513afb8024ee864cd3a5b3a9050c42a7d7a2646970667358221220a67895b7d9a1e4791c0744197b90e26147ad1e740053c3897e0a7fc53cbd7fd964736f6c63430008110033",
  "devdoc": {
    "kind": "dev",
    "methods": {
      "DOMAIN_SEPARATOR()": {
        "details": "See {IERC20Permit-DOMAIN_SEPARATOR}."
      },
      "allowance(address,address)": {
        "details": "See {IERC20-allowance}."
      },
      "approve(address,uint256)": {
        "details": "See {IERC20-approve}. NOTE: If `amount` is the maximum `uint256`, the allowance is not updated on `transferFrom`. This is semantically equivalent to an infinite approval. Requirements: - `spender` cannot be the zero address."
      },
      "balanceOf(address)": {
        "details": "See {IERC20-balanceOf}."
      },
      "cancel(uint256[])": {
        "params": {
          "streamIds": "Array of streamIds to cancel."
        },
        "returns": {
          "streamsReserves": "Amount of EXA in reserves that is returned to the cancelled stream holders."
        }
      },
      "checkpoints(address,uint32)": {
        "details": "Get the `pos`-th checkpoint for `account`."
      },
      "constructor": {
        "custom:oz-upgrades-unsafe-allow": "constructor"
      },
      "decimals()": {
        "details": "Returns the number of decimals used to get its user representation. For example, if `decimals` equals `2`, a balance of `505` tokens should be displayed to a user as `5.05` (`505 / 10 ** 2`). Tokens usually opt for a value of 18, imitating the relationship between Ether and Wei. This is the default value returned by this function, unless it's overridden. NOTE: This information is only used for _display_ purposes: it in no way affects any of the arithmetic of the contract, including {IERC20-balanceOf} and {IERC20-transfer}."
      },
      "decreaseAllowance(address,uint256)": {
        "details": "Atomically decreases the allowance granted to `spender` by the caller. This is an alternative to {approve} that can be used as a mitigation for problems described in {IERC20-approve}. Emits an {Approval} event indicating the updated allowance. Requirements: - `spender` cannot be the zero address. - `spender` must have allowance for the caller of at least `subtractedValue`."
      },
      "delegate(address)": {
        "details": "Delegate votes from the sender to `delegatee`."
      },
      "delegateBySig(address,uint256,uint256,uint8,bytes32,bytes32)": {
        "details": "Delegates votes from signer to `delegatee`"
      },
      "delegates(address)": {
        "details": "Get the address `account` is currently delegating to."
      },
      "eip712Domain()": {
        "details": "See {EIP-5267}. _Available since v4.9._"
      },
      "getPastTotalSupply(uint256)": {
        "details": "Retrieve the `totalSupply` at the end of `timepoint`. Note, this value is the sum of all balances. It is NOT the sum of all the delegated votes! Requirements: - `timepoint` must be in the past"
      },
      "getPastVotes(address,uint256)": {
        "details": "Retrieve the number of votes for `account` at the end of `timepoint`. Requirements: - `timepoint` must be in the past"
      },
      "getRoleAdmin(bytes32)": {
        "details": "Returns the admin role that controls `role`. See {grantRole} and {revokeRole}. To change a role's admin, use {_setRoleAdmin}."
      },
      "getVotes(address)": {
        "details": "Gets the current votes balance for `account`"
      },
      "grantRole(bytes32,address)": {
        "details": "Grants `role` to `account`. If `account` had not been already granted `role`, emits a {RoleGranted} event. Requirements: - the caller must have ``role``'s admin role. May emit a {RoleGranted} event."
      },
      "hasRole(bytes32,address)": {
        "details": "Returns `true` if `account` has been granted `role`."
      },
      "increaseAllowance(address,uint256)": {
        "details": "Atomically increases the allowance granted to `spender` by the caller. This is an alternative to {approve} that can be used as a mitigation for problems described in {IERC20-approve}. Emits an {Approval} event indicating the updated allowance. Requirements: - `spender` cannot be the zero address."
      },
      "initialize(uint40,uint256)": {
        "details": "can only be called once."
      },
      "mint(uint256,address)": {
        "params": {
          "amount": "Amount of EXA to mint.",
          "to": "Address to send esEXA to."
        }
      },
      "name()": {
        "details": "Returns the name of the token."
      },
      "nonces(address)": {
        "details": "See {IERC20Permit-nonces}."
      },
      "numCheckpoints(address)": {
        "details": "Get number of checkpoints for `account`."
      },
      "onStreamCanceled(uint256,address,uint128,uint128)": {
        "params": {
          "recipient": "recipient of the cancelled stream.",
          "senderAmount": "amount of EXA received back from the stream cancelling.",
          "streamId": "streamId of the cancelled stream."
        }
      },
      "permit(address,address,uint256,uint256,uint8,bytes32,bytes32)": {
        "details": "See {IERC20Permit-permit}."
      },
      "redeem(uint256,address)": {
        "details": "Caller must have REDEEMER_ROLE.",
        "params": {
          "amount": "Amount of esEXA to redeem.",
          "to": "Address to send EXA to."
        }
      },
      "renounceRole(bytes32,address)": {
        "details": "Revokes `role` from the calling account. Roles are often managed via {grantRole} and {revokeRole}: this function's purpose is to provide a mechanism for accounts to lose their privileges if they are compromised (such as when a trusted device is misplaced). If the calling account had been revoked `role`, emits a {RoleRevoked} event. Requirements: - the caller must be `account`. May emit a {RoleRevoked} event."
      },
      "revokeRole(bytes32,address)": {
        "details": "Revokes `role` from `account`. If `account` had been granted `role`, emits a {RoleRevoked} event. Requirements: - the caller must have ``role``'s admin role. May emit a {RoleRevoked} event."
      },
      "setReserveRatio(uint256)": {
        "details": "Caller must have DEFAULT_ADMIN_ROLE.",
        "params": {
          "reserveRatio_": "New reserve ratio."
        }
      },
      "setVestingPeriod(uint40)": {
        "details": "Caller must have DEFAULT_ADMIN_ROLE.",
        "params": {
          "vestingPeriod_": "New vesting period."
        }
      },
      "supportsInterface(bytes4)": {
        "details": "See {IERC165-supportsInterface}."
      },
      "symbol()": {
        "details": "Returns the symbol of the token, usually a shorter version of the name."
      },
      "totalSupply()": {
        "details": "See {IERC20-totalSupply}."
      },
      "transfer(address,uint256)": {
        "details": "See {IERC20-transfer}. Requirements: - `to` cannot be the zero address. - the caller must have a balance of at least `amount`."
      },
      "transferFrom(address,address,uint256)": {
        "details": "See {IERC20-transferFrom}. Emits an {Approval} event indicating the updated allowance. This is not required by the EIP. See the note at the beginning of {ERC20}. NOTE: Does not update the allowance if the current allowance is the maximum `uint256`. Requirements: - `from` and `to` cannot be the zero address. - `from` must have a balance of at least `amount`. - the caller must have allowance for ``from``'s tokens of at least `amount`."
      },
      "vest(uint128,address,uint256,uint256)": {
        "params": {
          "amount": "Amount of EXA to vest.",
          "maxPeriod": "Maximum vesting period accepted for the vesting.",
          "maxRatio": "Maximum reserve ratio accepted for the vesting.",
          "to": "Address to vest to."
        },
        "returns": {
          "streamId": "of the vesting stream."
        }
      },
      "vest(uint128,address,uint256,uint256,(uint256,uint256,uint8,bytes32,bytes32))": {
        "params": {
          "amount": "Amount of EXA to vest.",
          "maxPeriod": "Maximum vesting period accepted for the vesting.",
          "maxRatio": "Maximum reserve ratio accepted for the vesting.",
          "p": "Permit for the EXA reserve.",
          "to": "Address to vest to."
        },
        "returns": {
          "streamId": "of the vesting stream."
        }
      },
      "withdrawMax(uint256[])": {
        "params": {
          "streamIds": "Array of streamIds to withdraw from."
        }
      }
    },
    "stateVariables": {
      "exa": {
        "custom:oz-upgrades-unsafe-allow": "state-variable-immutable"
      },
      "sablier": {
        "custom:oz-upgrades-unsafe-allow": "state-variable-immutable"
      }
    },
    "title": "EscrowedEXA.",
    "version": 1
  },
  "userdoc": {
    "events": {
      "Cancel(address,uint256[])": {
        "notice": "Event emitted when vesting streams are cancelled."
      },
      "ReserveRatioSet(uint256)": {
        "notice": "Event emitted when the reserve ratio is set."
      },
      "Vest(address,address,uint256,uint256)": {
        "notice": "Event emitted when a vesting stream is created."
      },
      "VestingPeriodSet(uint256)": {
        "notice": "Event emitted when the vesting period is set."
      }
    },
    "kind": "user",
    "methods": {
      "CLOCK_MODE()": {
        "notice": "Returns the current clock mode of EXA, as per ERC-6372."
      },
      "REDEEMER_ROLE()": {
        "notice": "Role that can redeem esEXA for EXA."
      },
      "TRANSFERRER_ROLE()": {
        "notice": "Role that can receive or transfer esEXA."
      },
      "cancel(uint256[])": {
        "notice": "Cancels vesting streams."
      },
      "clock()": {
        "notice": "Returns the current timepoint of EXA, as per ERC-6372."
      },
      "initialize(uint40,uint256)": {
        "notice": "Initializes the contract."
      },
      "mint(uint256,address)": {
        "notice": "Mints esEXA for EXA."
      },
      "onStreamCanceled(uint256,address,uint128,uint128)": {
        "notice": "Hook called when a recipient cancels a stream.Mints esEXA to the recipient with the remaining EXA received from the canceled stream."
      },
      "redeem(uint256,address)": {
        "notice": "Redeems esEXA for EXA."
      },
      "reserveRatio()": {
        "notice": "Ratio of EXA to reserve when vesting, represented with 18 decimals."
      },
      "reserves(uint256)": {
        "notice": "Mapping of streamId to reserve amount."
      },
      "setReserveRatio(uint256)": {
        "notice": "Sets the reserve ratio."
      },
      "setVestingPeriod(uint40)": {
        "notice": "Sets the vesting period."
      },
      "vest(uint128,address,uint256,uint256)": {
        "notice": "Starts a vesting stream."
      },
      "vest(uint128,address,uint256,uint256,(uint256,uint256,uint8,bytes32,bytes32))": {
        "notice": "Starts a vesting stream using a permit."
      },
      "vestingPeriod()": {
        "notice": "Duration of vesting period."
      },
      "withdrawMax(uint256[])": {
        "notice": "Withdraws the EXA from the vesting streamIds. If a stream is depleted, its reserve is returned."
      }
    },
    "notice": "ERC20 token that can be used to escrow EXA and vest it linearly using Sablier.",
    "version": 1
  },
  "storageLayout": {
    "storage": [
      {
        "astId": 542,
        "contract": "contracts/periphery/EscrowedEXA.sol:EscrowedEXA",
        "label": "_initialized",
        "offset": 0,
        "slot": "0",
        "type": "t_uint8"
      },
      {
        "astId": 545,
        "contract": "contracts/periphery/EscrowedEXA.sol:EscrowedEXA",
        "label": "_initializing",
        "offset": 1,
        "slot": "0",
        "type": "t_bool"
      },
      {
        "astId": 3274,
        "contract": "contracts/periphery/EscrowedEXA.sol:EscrowedEXA",
        "label": "__gap",
        "offset": 0,
        "slot": "1",
        "type": "t_array(t_uint256)50_storage"
      },
      {
        "astId": 850,
        "contract": "contracts/periphery/EscrowedEXA.sol:EscrowedEXA",
        "label": "_balances",
        "offset": 0,
        "slot": "51",
        "type": "t_mapping(t_address,t_uint256)"
      },
      {
        "astId": 856,
        "contract": "contracts/periphery/EscrowedEXA.sol:EscrowedEXA",
        "label": "_allowances",
        "offset": 0,
        "slot": "52",
        "type": "t_mapping(t_address,t_mapping(t_address,t_uint256))"
      },
      {
        "astId": 858,
        "contract": "contracts/periphery/EscrowedEXA.sol:EscrowedEXA",
        "label": "_totalSupply",
        "offset": 0,
        "slot": "53",
        "type": "t_uint256"
      },
      {
        "astId": 860,
        "contract": "contracts/periphery/EscrowedEXA.sol:EscrowedEXA",
        "label": "_name",
        "offset": 0,
        "slot": "54",
        "type": "t_string_storage"
      },
      {
        "astId": 862,
        "contract": "contracts/periphery/EscrowedEXA.sol:EscrowedEXA",
        "label": "_symbol",
        "offset": 0,
        "slot": "55",
        "type": "t_string_storage"
      },
      {
        "astId": 1442,
        "contract": "contracts/periphery/EscrowedEXA.sol:EscrowedEXA",
        "label": "__gap",
        "offset": 0,
        "slot": "56",
        "type": "t_array(t_uint256)45_storage"
      },
      {
        "astId": 3962,
        "contract": "contracts/periphery/EscrowedEXA.sol:EscrowedEXA",
        "label": "_hashedName",
        "offset": 0,
        "slot": "101",
        "type": "t_bytes32"
      },
      {
        "astId": 3965,
        "contract": "contracts/periphery/EscrowedEXA.sol:EscrowedEXA",
        "label": "_hashedVersion",
        "offset": 0,
        "slot": "102",
        "type": "t_bytes32"
      },
      {
        "astId": 3967,
        "contract": "contracts/periphery/EscrowedEXA.sol:EscrowedEXA",
        "label": "_name",
        "offset": 0,
        "slot": "103",
        "type": "t_string_storage"
      },
      {
        "astId": 3969,
        "contract": "contracts/periphery/EscrowedEXA.sol:EscrowedEXA",
        "label": "_version",
        "offset": 0,
        "slot": "104",
        "type": "t_string_storage"
      },
      {
        "astId": 4227,
        "contract": "contracts/periphery/EscrowedEXA.sol:EscrowedEXA",
        "label": "__gap",
        "offset": 0,
        "slot": "105",
        "type": "t_array(t_uint256)48_storage"
      },
      {
        "astId": 1547,
        "contract": "contracts/periphery/EscrowedEXA.sol:EscrowedEXA",
        "label": "_nonces",
        "offset": 0,
        "slot": "153",
        "type": "t_mapping(t_address,t_struct(Counter)3281_storage)"
      },
      {
        "astId": 1555,
        "contract": "contracts/periphery/EscrowedEXA.sol:EscrowedEXA",
        "label": "_PERMIT_TYPEHASH_DEPRECATED_SLOT",
        "offset": 0,
        "slot": "154",
        "type": "t_bytes32"
      },
      {
        "astId": 1711,
        "contract": "contracts/periphery/EscrowedEXA.sol:EscrowedEXA",
        "label": "__gap",
        "offset": 0,
        "slot": "155",
        "type": "t_array(t_uint256)49_storage"
      },
      {
        "astId": 1753,
        "contract": "contracts/periphery/EscrowedEXA.sol:EscrowedEXA",
        "label": "_delegates",
        "offset": 0,
        "slot": "204",
        "type": "t_mapping(t_address,t_address)"
      },
      {
        "astId": 1759,
        "contract": "contracts/periphery/EscrowedEXA.sol:EscrowedEXA",
        "label": "_checkpoints",
        "offset": 0,
        "slot": "205",
        "type": "t_mapping(t_address,t_array(t_struct(Checkpoint)1744_storage)dyn_storage)"
      },
      {
        "astId": 1763,
        "contract": "contracts/periphery/EscrowedEXA.sol:EscrowedEXA",
        "label": "_totalSupplyCheckpoints",
        "offset": 0,
        "slot": "206",
        "type": "t_array(t_struct(Checkpoint)1744_storage)dyn_storage"
      },
      {
        "astId": 2465,
        "contract": "contracts/periphery/EscrowedEXA.sol:EscrowedEXA",
        "label": "__gap",
        "offset": 0,
        "slot": "207",
        "type": "t_array(t_uint256)47_storage"
      },
      {
        "astId": 4271,
        "contract": "contracts/periphery/EscrowedEXA.sol:EscrowedEXA",
        "label": "__gap",
        "offset": 0,
        "slot": "254",
        "type": "t_array(t_uint256)50_storage"
      },
      {
        "astId": 39,
        "contract": "contracts/periphery/EscrowedEXA.sol:EscrowedEXA",
        "label": "_roles",
        "offset": 0,
        "slot": "304",
        "type": "t_mapping(t_bytes32,t_struct(RoleData)34_storage)"
      },
      {
        "astId": 334,
        "contract": "contracts/periphery/EscrowedEXA.sol:EscrowedEXA",
        "label": "__gap",
        "offset": 0,
        "slot": "305",
        "type": "t_array(t_uint256)49_storage"
      },
      {
        "astId": 26755,
        "contract": "contracts/periphery/EscrowedEXA.sol:EscrowedEXA",
        "label": "reserveRatio",
        "offset": 0,
        "slot": "354",
        "type": "t_uint256"
      },
      {
        "astId": 26758,
        "contract": "contracts/periphery/EscrowedEXA.sol:EscrowedEXA",
        "label": "vestingPeriod",
        "offset": 0,
        "slot": "355",
        "type": "t_uint40"
      },
      {
        "astId": 26763,
        "contract": "contracts/periphery/EscrowedEXA.sol:EscrowedEXA",
        "label": "reserves",
        "offset": 0,
        "slot": "356",
        "type": "t_mapping(t_uint256,t_uint256)"
      }
    ],
    "types": {
      "t_address": {
        "encoding": "inplace",
        "label": "address",
        "numberOfBytes": "20"
      },
      "t_array(t_struct(Checkpoint)1744_storage)dyn_storage": {
        "base": "t_struct(Checkpoint)1744_storage",
        "encoding": "dynamic_array",
        "label": "struct ERC20VotesUpgradeable.Checkpoint[]",
        "numberOfBytes": "32"
      },
      "t_array(t_uint256)45_storage": {
        "base": "t_uint256",
        "encoding": "inplace",
        "label": "uint256[45]",
        "numberOfBytes": "1440"
      },
      "t_array(t_uint256)47_storage": {
        "base": "t_uint256",
        "encoding": "inplace",
        "label": "uint256[47]",
        "numberOfBytes": "1504"
      },
      "t_array(t_uint256)48_storage": {
        "base": "t_uint256",
        "encoding": "inplace",
        "label": "uint256[48]",
        "numberOfBytes": "1536"
      },
      "t_array(t_uint256)49_storage": {
        "base": "t_uint256",
        "encoding": "inplace",
        "label": "uint256[49]",
        "numberOfBytes": "1568"
      },
      "t_array(t_uint256)50_storage": {
        "base": "t_uint256",
        "encoding": "inplace",
        "label": "uint256[50]",
        "numberOfBytes": "1600"
      },
      "t_bool": {
        "encoding": "inplace",
        "label": "bool",
        "numberOfBytes": "1"
      },
      "t_bytes32": {
        "encoding": "inplace",
        "label": "bytes32",
        "numberOfBytes": "32"
      },
      "t_mapping(t_address,t_address)": {
        "encoding": "mapping",
        "key": "t_address",
        "label": "mapping(address => address)",
        "numberOfBytes": "32",
        "value": "t_address"
      },
      "t_mapping(t_address,t_array(t_struct(Checkpoint)1744_storage)dyn_storage)": {
        "encoding": "mapping",
        "key": "t_address",
        "label": "mapping(address => struct ERC20VotesUpgradeable.Checkpoint[])",
        "numberOfBytes": "32",
        "value": "t_array(t_struct(Checkpoint)1744_storage)dyn_storage"
      },
      "t_mapping(t_address,t_bool)": {
        "encoding": "mapping",
        "key": "t_address",
        "label": "mapping(address => bool)",
        "numberOfBytes": "32",
        "value": "t_bool"
      },
      "t_mapping(t_address,t_mapping(t_address,t_uint256))": {
        "encoding": "mapping",
        "key": "t_address",
        "label": "mapping(address => mapping(address => uint256))",
        "numberOfBytes": "32",
        "value": "t_mapping(t_address,t_uint256)"
      },
      "t_mapping(t_address,t_struct(Counter)3281_storage)": {
        "encoding": "mapping",
        "key": "t_address",
        "label": "mapping(address => struct CountersUpgradeable.Counter)",
        "numberOfBytes": "32",
        "value": "t_struct(Counter)3281_storage"
      },
      "t_mapping(t_address,t_uint256)": {
        "encoding": "mapping",
        "key": "t_address",
        "label": "mapping(address => uint256)",
        "numberOfBytes": "32",
        "value": "t_uint256"
      },
      "t_mapping(t_bytes32,t_struct(RoleData)34_storage)": {
        "encoding": "mapping",
        "key": "t_bytes32",
        "label": "mapping(bytes32 => struct AccessControlUpgradeable.RoleData)",
        "numberOfBytes": "32",
        "value": "t_struct(RoleData)34_storage"
      },
      "t_mapping(t_uint256,t_uint256)": {
        "encoding": "mapping",
        "key": "t_uint256",
        "label": "mapping(uint256 => uint256)",
        "numberOfBytes": "32",
        "value": "t_uint256"
      },
      "t_string_storage": {
        "encoding": "bytes",
        "label": "string",
        "numberOfBytes": "32"
      },
      "t_struct(Checkpoint)1744_storage": {
        "encoding": "inplace",
        "label": "struct ERC20VotesUpgradeable.Checkpoint",
        "members": [
          {
            "astId": 1741,
            "contract": "contracts/periphery/EscrowedEXA.sol:EscrowedEXA",
            "label": "fromBlock",
            "offset": 0,
            "slot": "0",
            "type": "t_uint32"
          },
          {
            "astId": 1743,
            "contract": "contracts/periphery/EscrowedEXA.sol:EscrowedEXA",
            "label": "votes",
            "offset": 4,
            "slot": "0",
            "type": "t_uint224"
          }
        ],
        "numberOfBytes": "32"
      },
      "t_struct(Counter)3281_storage": {
        "encoding": "inplace",
        "label": "struct CountersUpgradeable.Counter",
        "members": [
          {
            "astId": 3280,
            "contract": "contracts/periphery/EscrowedEXA.sol:EscrowedEXA",
            "label": "_value",
            "offset": 0,
            "slot": "0",
            "type": "t_uint256"
          }
        ],
        "numberOfBytes": "32"
      },
      "t_struct(RoleData)34_storage": {
        "encoding": "inplace",
        "label": "struct AccessControlUpgradeable.RoleData",
        "members": [
          {
            "astId": 31,
            "contract": "contracts/periphery/EscrowedEXA.sol:EscrowedEXA",
            "label": "members",
            "offset": 0,
            "slot": "0",
            "type": "t_mapping(t_address,t_bool)"
          },
          {
            "astId": 33,
            "contract": "contracts/periphery/EscrowedEXA.sol:EscrowedEXA",
            "label": "adminRole",
            "offset": 0,
            "slot": "1",
            "type": "t_bytes32"
          }
        ],
        "numberOfBytes": "64"
      },
      "t_uint224": {
        "encoding": "inplace",
        "label": "uint224",
        "numberOfBytes": "28"
      },
      "t_uint256": {
        "encoding": "inplace",
        "label": "uint256",
        "numberOfBytes": "32"
      },
      "t_uint32": {
        "encoding": "inplace",
        "label": "uint32",
        "numberOfBytes": "4"
      },
      "t_uint40": {
        "encoding": "inplace",
        "label": "uint40",
        "numberOfBytes": "5"
      },
      "t_uint8": {
        "encoding": "inplace",
        "label": "uint8",
        "numberOfBytes": "1"
      }
    }
  }
}