{
  "address": "0xe24eD60fe91EC369bFCd26A71365D736a90a1A58",
  "abi": [
    {
      "inputs": [
        {
          "internalType": "uint256",
          "name": "fixedCurveA_",
          "type": "uint256"
        },
        {
          "internalType": "int256",
          "name": "fixedCurveB_",
          "type": "int256"
        },
        {
          "internalType": "uint256",
          "name": "fixedMaxUtilization_",
          "type": "uint256"
        },
        {
          "internalType": "uint256",
          "name": "floatingCurveA_",
          "type": "uint256"
        },
        {
          "internalType": "int256",
          "name": "floatingCurveB_",
          "type": "int256"
        },
        {
          "internalType": "uint256",
          "name": "floatingMaxUtilization_",
          "type": "uint256"
        }
      ],
      "stateMutability": "nonpayable",
      "type": "constructor"
    },
    {
      "inputs": [],
      "name": "AlreadyMatured",
      "type": "error"
    },
    {
      "inputs": [],
      "name": "UtilizationExceeded",
      "type": "error"
    },
    {
      "inputs": [
        {
          "internalType": "uint256",
          "name": "maturity",
          "type": "uint256"
        },
        {
          "internalType": "uint256",
          "name": "amount",
          "type": "uint256"
        },
        {
          "internalType": "uint256",
          "name": "borrowed",
          "type": "uint256"
        },
        {
          "internalType": "uint256",
          "name": "supplied",
          "type": "uint256"
        },
        {
          "internalType": "uint256",
          "name": "backupAssets",
          "type": "uint256"
        }
      ],
      "name": "fixedBorrowRate",
      "outputs": [
        {
          "internalType": "uint256",
          "name": "",
          "type": "uint256"
        }
      ],
      "stateMutability": "view",
      "type": "function"
    },
    {
      "inputs": [],
      "name": "fixedCurveA",
      "outputs": [
        {
          "internalType": "uint256",
          "name": "",
          "type": "uint256"
        }
      ],
      "stateMutability": "view",
      "type": "function"
    },
    {
      "inputs": [],
      "name": "fixedCurveB",
      "outputs": [
        {
          "internalType": "int256",
          "name": "",
          "type": "int256"
        }
      ],
      "stateMutability": "view",
      "type": "function"
    },
    {
      "inputs": [],
      "name": "fixedMaxUtilization",
      "outputs": [
        {
          "internalType": "uint256",
          "name": "",
          "type": "uint256"
        }
      ],
      "stateMutability": "view",
      "type": "function"
    },
    {
      "inputs": [
        {
          "internalType": "uint256",
          "name": "utilizationBefore",
          "type": "uint256"
        },
        {
          "internalType": "uint256",
          "name": "utilizationAfter",
          "type": "uint256"
        }
      ],
      "name": "floatingBorrowRate",
      "outputs": [
        {
          "internalType": "uint256",
          "name": "",
          "type": "uint256"
        }
      ],
      "stateMutability": "view",
      "type": "function"
    },
    {
      "inputs": [],
      "name": "floatingCurveA",
      "outputs": [
        {
          "internalType": "uint256",
          "name": "",
          "type": "uint256"
        }
      ],
      "stateMutability": "view",
      "type": "function"
    },
    {
      "inputs": [],
      "name": "floatingCurveB",
      "outputs": [
        {
          "internalType": "int256",
          "name": "",
          "type": "int256"
        }
      ],
      "stateMutability": "view",
      "type": "function"
    },
    {
      "inputs": [],
      "name": "floatingMaxUtilization",
      "outputs": [
        {
          "internalType": "uint256",
          "name": "",
          "type": "uint256"
        }
      ],
      "stateMutability": "view",
      "type": "function"
    }
  ],
  "transactionHash": "0x2ef143cc7481ddff74da711d21f6cf9f523068e1fa7edcf5adb8232bcfb17b42",
  "args": [
    "1537200000000000000",
    "-1389800000000000000",
    "1086500000000000000",
    "54700000000000000",
    "-33500000000000000",
    "1021600000000000000"
  ],
  "numDeployments": 3,
  "solcInputHash": "caf04502d09415a51d794c069d7c8705",
  "bytecode": "0x6101406040523480156200001257600080fd5b5060405162001295380380620012958339810160408190526200003591620005f6565b608086905260a085905260c084905260e0839052610100829052610120819052620000626000806200007d565b506200007060008062000218565b50505050505050620006e7565b6000808360c05162000090919062000657565b90506000620000a0858562000657565b9050600060a0516602aa1efb94e000620000c985856200033b60201b620002ae1790919060201c565b1062000130576200012a62000111620001008860c051620000eb919062000657565b876200033b60201b620002ae1790919060201c565b6200035960201b620002c31760201c565b846080516200053660201b620004a3179092919060201c565b620001eb565b60066200015d8760c05162000146919062000657565b6080516200033b60201b620002ae1790919060201c565b620001ab673782dace9d9000006002620001788c8c6200066d565b62000184919062000683565b60c05162000193919062000657565b6080516200053660201b620004a3179092919060201c565b620001c7876080516200033b60201b620002ae1790919060201c565b620001d391906200066d565b620001df91906200066d565b620001eb919062000683565b620001f79190620006a6565b905060008112156200020d576200020d620006d1565b925050505b92915050565b60008083610120516200022c919062000657565b905060006200023c858562000657565b90506000610100516602aa1efb94e0006200026685856200033b60201b620002ae1790919060201c565b10620002a2576200012a62000289620001008861012051620000eb919062000657565b8460e0516200053660201b620004a3179092919060201c565b6006620002d08761012051620002b9919062000657565b60e0516200033b60201b620002ae1790919060201c565b6200031f673782dace9d9000006002620002eb8c8c6200066d565b620002f7919062000683565b6101205162000307919062000657565b60e0516200053660201b620004a3179092919060201c565b620001c78760e0516200033b60201b620002ae1790919060201c565b60006200035283670de0b6b3a76400008462000536565b9392505050565b60008082136200039c5760405162461bcd60e51b815260206004820152600960248201526815539111519253915160ba1b60448201526064015b60405180910390fd5b60006060620003ab8462000556565b03609f8181039490941b90931c6c465772b2bbbb5f824b15207a3081018102606090811d6d0388eaa27412d5aca026815d636e018202811d6d0df99ac502031bf953eff472fdcc018202811d6d13cdffb29d51d99322bdff5f2211018202811d6d0a0f742023def783a307a986912e018202811d6d01920d8043ca89b5239253284e42018202811d6c0b7a86d7375468fac667a0a527016c29508e458543d8aa4df2abee7883018302821d6d0139601a2efabe717e604cbb4894018302821d6d02247f7a7b6594320649aa03aba1018302821d6c8c3f38e95a6b1ff2ab1c3b343619018302821d6d02384773bdf1ac5676facced60901901830290911d6cb9a025d814b29c212b8b1a07cd190190910260016c0504a838426634cdd8738f543560611b03190105711340daa0d5f769dba1915cef59f0815a5506027d0267a36c0c95b3975ab3ee5b203a7614a3f75373f047d803ae7b6687f2b393909302929092017d57115e47018c7177eebf7cd370a3356a1b7863008a5ae8028c72b88642840160ae1d92915050565b8282028115158415858304851417166200054f57600080fd5b0492915050565b6000808211620005955760405162461bcd60e51b815260206004820152600960248201526815539111519253915160ba1b604482015260640162000393565b5060016001600160801b03821160071b82811c6001600160401b031060061b1782811c63ffffffff1060051b1782811c61ffff1060041b1782811c60ff10600390811b90911783811c600f1060021b1783811c909110821b1791821c111790565b60008060008060008060c087890312156200061057600080fd5b865195506020870151945060408701519350606087015192506080870151915060a087015190509295509295509295565b634e487b7160e01b600052601160045260246000fd5b8181038181111562000212576200021262000641565b8082018082111562000212576200021262000641565b600082620006a157634e487b7160e01b600052601260045260246000fd5b500490565b8082018281126000831280158216821582161715620006c957620006c962000641565b505092915050565b634e487b7160e01b600052600160045260246000fd5b60805160a05160c05160e0516101005161012051610ae3620007b260003960008181610140015281816107210152818161079e015281816107f5015261086801526000818160cb0152610759015260008181610119015281816107c40152818161081b0152818161088e01526108b90152600081816092015281816104e00152818161055d015281816105c5015261063801526000818161017a015261051801526000818160f20152818161058f015281816105eb0152818161065e01526106890152610ae36000f3fe608060405234801561001057600080fd5b50600436106100885760003560e01c8063d83726851161005b578063d83726851461013b578063df635f3d14610162578063dfb08e1014610175578063fdb9d1f01461019c57600080fd5b80630481520b1461008d57806326980121146100c65780634d6fc522146100ed578063b996993414610114575b600080fd5b6100b47f000000000000000000000000000000000000000000000000000000000000000081565b60405190815260200160405180910390f35b6100b47f000000000000000000000000000000000000000000000000000000000000000081565b6100b47f000000000000000000000000000000000000000000000000000000000000000081565b6100b47f000000000000000000000000000000000000000000000000000000000000000081565b6100b47f000000000000000000000000000000000000000000000000000000000000000081565b6100b46101703660046109b4565b6101af565b6100b47f000000000000000000000000000000000000000000000000000000000000000081565b6100b46101aa3660046109ef565b61025e565b60008542106101d1576040516305a29e1160e51b815260040160405180910390fd5b60006101dd8385610a27565b905060006101f5826101ef8989610a27565b906104c2565b9050670de0b6b3a7640000811115610220576040516386a8c2bd60e01b815260040160405180910390fd5b600061022c87846102ae565b905061025161023b428b610a3a565b6301e1338061024a84866104d7565b91906104a3565b9998505050505050505050565b6000670de0b6b3a7640000821115610289576040516386a8c2bd60e01b815260040160405180910390fd5b6102a561029684846106f2565b6102a08585610708565b610718565b90505b92915050565b60006102a583670de0b6b3a7640000846104a3565b60008082136103055760405162461bcd60e51b815260206004820152600960248201526815539111519253915160ba1b60448201526064015b60405180910390fd5b60006060610312846108de565b03609f8181039490941b90931c6c465772b2bbbb5f824b15207a3081018102606090811d6d0388eaa27412d5aca026815d636e018202811d6d0df99ac502031bf953eff472fdcc018202811d6d13cdffb29d51d99322bdff5f2211018202811d6d0a0f742023def783a307a986912e018202811d6d01920d8043ca89b5239253284e42018202811d6c0b7a86d7375468fac667a0a527016c29508e458543d8aa4df2abee7883018302821d6d0139601a2efabe717e604cbb4894018302821d6d02247f7a7b6594320649aa03aba1018302821d6c8c3f38e95a6b1ff2ab1c3b343619018302821d6d02384773bdf1ac5676facced60901901830290911d6cb9a025d814b29c212b8b1a07cd1901909102780a09507084cc699bb0e71ea869ffffffffffffffffffffffff190105711340daa0d5f769dba1915cef59f0815a5506027d0267a36c0c95b3975ab3ee5b203a7614a3f75373f047d803ae7b6687f2b393909302929092017d57115e47018c7177eebf7cd370a3356a1b7863008a5ae8028c72b88642840160ae1d92915050565b8282028115158415858304851417166104bb57600080fd5b0492915050565b60006102a583670de0b6b3a764000084610986565b600080610504847f0000000000000000000000000000000000000000000000000000000000000000610a3a565b905060006105128585610a3a565b905060007f00000000000000000000000000000000000000000000000000000000000000006602aa1efb94e00061054984866102ae565b106105ba576105b561058d610588610581897f0000000000000000000000000000000000000000000000000000000000000000610a3a565b87906102ae565b6102c3565b7f000000000000000000000000000000000000000000000000000000000000000090856104a3565b6106cc565b60066106106105e9887f0000000000000000000000000000000000000000000000000000000000000000610a3a565b7f0000000000000000000000000000000000000000000000000000000000000000906102ae565b610684673782dace9d90000060026106288c8c610a27565b6106329190610a4d565b61065c907f0000000000000000000000000000000000000000000000000000000000000000610a3a565b7f000000000000000000000000000000000000000000000000000000000000000091906104a3565b6106ae7f0000000000000000000000000000000000000000000000000000000000000000886102ae565b6106b89190610a27565b6106c29190610a27565b6106cc9190610a4d565b6106d69190610a6f565b905060008112156106e9576106e9610a97565b95945050505050565b600081831061070157816102a5565b5090919050565b60008183101561070157816102a5565b600080610745847f0000000000000000000000000000000000000000000000000000000000000000610a3a565b905060006107538585610a3a565b905060007f00000000000000000000000000000000000000000000000000000000000000006602aa1efb94e00061078a84866102ae565b106107ea576105b56107c2610588610581897f0000000000000000000000000000000000000000000000000000000000000000610a3a565b7f000000000000000000000000000000000000000000000000000000000000000090856104a3565b6006610840610819887f0000000000000000000000000000000000000000000000000000000000000000610a3a565b7f0000000000000000000000000000000000000000000000000000000000000000906102ae565b6108b4673782dace9d90000060026108588c8c610a27565b6108629190610a4d565b61088c907f0000000000000000000000000000000000000000000000000000000000000000610a3a565b7f000000000000000000000000000000000000000000000000000000000000000091906104a3565b6106ae7f0000000000000000000000000000000000000000000000000000000000000000886102ae565b600080821161091b5760405162461bcd60e51b815260206004820152600960248201526815539111519253915160ba1b60448201526064016102fc565b5060016fffffffffffffffffffffffffffffffff821160071b82811c67ffffffffffffffff1060061b1782811c63ffffffff1060051b1782811c61ffff1060041b1782811c60ff10600390811b90911783811c600f1060021b1783811c909110821b1791821c111790565b82820281151584158583048514171661099e57600080fd5b6001826001830304018115150290509392505050565b600080600080600060a086880312156109cc57600080fd5b505083359560208501359550604085013594606081013594506080013592509050565b60008060408385031215610a0257600080fd5b50508035926020909101359150565b634e487b7160e01b600052601160045260246000fd5b808201808211156102a8576102a8610a11565b818103818111156102a8576102a8610a11565b600082610a6a57634e487b7160e01b600052601260045260246000fd5b500490565b8082018281126000831280158216821582161715610a8f57610a8f610a11565b505092915050565b634e487b7160e01b600052600160045260246000fdfea26469706673582212209a4354f01757c7e16fc0b97c1c86f456d05e4065d2b06591da9de7b7205275fe64736f6c63430008110033",
  "devdoc": {
    "kind": "dev",
    "methods": {
      "fixedBorrowRate(uint256,uint256,uint256,uint256,uint256)": {
        "params": {
          "amount": "the current borrow's amount.",
          "backupAssets": "backup supplier assets.",
          "borrowed": "ex-ante amount borrowed from this fixed rate pool.",
          "maturity": "maturity date for calculating days left to maturity.",
          "supplied": "deposits in the fixed rate pool."
        },
        "returns": {
          "_0": "rate of the fee that the borrower will have to pay (represented with 18 decimals)."
        }
      },
      "floatingBorrowRate(uint256,uint256)": {
        "details": "Minimum and maximum checks to avoid negative rate.",
        "params": {
          "utilizationAfter": "ex-post utilization rate, with 18 decimals precision.",
          "utilizationBefore": "ex-ante utilization rate, with 18 decimals precision."
        },
        "returns": {
          "_0": "the interest rate, with 18 decimals precision."
        }
      }
    },
    "stateVariables": {
      "PRECISION_THRESHOLD": {
        "details": "When `eta` (`delta / alpha`) is lower than this value, use simpson's rule for approximation."
      }
    },
    "version": 1
  },
  "userdoc": {
    "kind": "user",
    "methods": {
      "fixedBorrowRate(uint256,uint256,uint256,uint256,uint256)": {
        "notice": "Gets the rate to borrow a certain amount at a certain maturity with supply/demand values in the fixed rate pool and assets from the backup supplier."
      },
      "fixedCurveA()": {
        "notice": "Scale factor of the fixed curve."
      },
      "fixedCurveB()": {
        "notice": "Origin intercept of the fixed curve."
      },
      "fixedMaxUtilization()": {
        "notice": "Asymptote of the fixed curve."
      },
      "floatingBorrowRate(uint256,uint256)": {
        "notice": "Returns the interest rate integral from utilizationBefore to utilizationAfter."
      },
      "floatingCurveA()": {
        "notice": "Scale factor of the floating curve."
      },
      "floatingCurveB()": {
        "notice": "Origin intercept of the floating curve."
      },
      "floatingMaxUtilization()": {
        "notice": "Asymptote of the floating curve."
      }
    },
    "version": 1
  },
  "storageLayout": {
    "storage": [],
    "types": null
  }
}