{
  "address": "0x979f31Bd9c0e7E8178C7328672Fd5Dbc03E9886f",
  "abi": [
    {
      "inputs": [
        {
          "internalType": "uint256",
          "name": "fixedCurveA_",
          "type": "uint256"
        },
        {
          "internalType": "int256",
          "name": "fixedCurveB_",
          "type": "int256"
        },
        {
          "internalType": "uint256",
          "name": "fixedMaxUtilization_",
          "type": "uint256"
        },
        {
          "internalType": "uint256",
          "name": "floatingCurveA_",
          "type": "uint256"
        },
        {
          "internalType": "int256",
          "name": "floatingCurveB_",
          "type": "int256"
        },
        {
          "internalType": "uint256",
          "name": "floatingMaxUtilization_",
          "type": "uint256"
        }
      ],
      "stateMutability": "nonpayable",
      "type": "constructor"
    },
    {
      "inputs": [],
      "name": "AlreadyMatured",
      "type": "error"
    },
    {
      "inputs": [],
      "name": "UtilizationExceeded",
      "type": "error"
    },
    {
      "inputs": [
        {
          "internalType": "uint256",
          "name": "maturity",
          "type": "uint256"
        },
        {
          "internalType": "uint256",
          "name": "amount",
          "type": "uint256"
        },
        {
          "internalType": "uint256",
          "name": "borrowed",
          "type": "uint256"
        },
        {
          "internalType": "uint256",
          "name": "supplied",
          "type": "uint256"
        },
        {
          "internalType": "uint256",
          "name": "backupAssets",
          "type": "uint256"
        }
      ],
      "name": "fixedBorrowRate",
      "outputs": [
        {
          "internalType": "uint256",
          "name": "",
          "type": "uint256"
        }
      ],
      "stateMutability": "view",
      "type": "function"
    },
    {
      "inputs": [],
      "name": "fixedCurveA",
      "outputs": [
        {
          "internalType": "uint256",
          "name": "",
          "type": "uint256"
        }
      ],
      "stateMutability": "view",
      "type": "function"
    },
    {
      "inputs": [],
      "name": "fixedCurveB",
      "outputs": [
        {
          "internalType": "int256",
          "name": "",
          "type": "int256"
        }
      ],
      "stateMutability": "view",
      "type": "function"
    },
    {
      "inputs": [],
      "name": "fixedMaxUtilization",
      "outputs": [
        {
          "internalType": "uint256",
          "name": "",
          "type": "uint256"
        }
      ],
      "stateMutability": "view",
      "type": "function"
    },
    {
      "inputs": [],
      "name": "floatingCurveA",
      "outputs": [
        {
          "internalType": "uint256",
          "name": "",
          "type": "uint256"
        }
      ],
      "stateMutability": "view",
      "type": "function"
    },
    {
      "inputs": [],
      "name": "floatingCurveB",
      "outputs": [
        {
          "internalType": "int256",
          "name": "",
          "type": "int256"
        }
      ],
      "stateMutability": "view",
      "type": "function"
    },
    {
      "inputs": [],
      "name": "floatingMaxUtilization",
      "outputs": [
        {
          "internalType": "uint256",
          "name": "",
          "type": "uint256"
        }
      ],
      "stateMutability": "view",
      "type": "function"
    },
    {
      "inputs": [
        {
          "internalType": "uint256",
          "name": "utilization",
          "type": "uint256"
        }
      ],
      "name": "floatingRate",
      "outputs": [
        {
          "internalType": "uint256",
          "name": "",
          "type": "uint256"
        }
      ],
      "stateMutability": "view",
      "type": "function"
    },
    {
      "inputs": [
        {
          "internalType": "uint256",
          "name": "borrowed",
          "type": "uint256"
        },
        {
          "internalType": "uint256",
          "name": "supplied",
          "type": "uint256"
        },
        {
          "internalType": "uint256",
          "name": "backupAssets",
          "type": "uint256"
        }
      ],
      "name": "minFixedRate",
      "outputs": [
        {
          "internalType": "uint256",
          "name": "rate",
          "type": "uint256"
        },
        {
          "internalType": "uint256",
          "name": "utilization",
          "type": "uint256"
        }
      ],
      "stateMutability": "view",
      "type": "function"
    }
  ],
  "transactionHash": "0xa4adb511ba588565a51e7f6cfdf8ae343d2e4b65b06086500222766dc1c89941",
  "args": [
    "259310000000000000",
    "-232070000000000000",
    "1008715115000000000",
    "14844000000000000",
    "199640000000000",
    "1002968978000000000"
  ],
  "numDeployments": 10,
  "solcInputHash": "c17dde40789793494d592271c7649423",
  "bytecode": "0x6101406040523480156200001257600080fd5b5060405162000ff338038062000ff38339810160408190526200003591620004f7565b670de0b6b3a764000084116200004f576200004f62000542565b670de0b6b3a7640000811162000069576200006962000542565b608086905260a085905260c084905260e083905261010082905261012081905262000096600080620000b0565b50620000a360006200024b565b50505050505050620005e8565b6000808360c051620000c391906200056e565b90506000620000d385856200056e565b9050600060a0516602aa1efb94e000620000fc8585620002a060201b6200035a1790919060201c565b1062000163576200015d62000144620001338860c0516200011e91906200056e565b87620002a060201b6200035a1790919060201c565b620002be60201b620003761760201c565b846080516200046760201b62000522179092919060201c565b6200021e565b6006620001908760c0516200017991906200056e565b608051620002a060201b6200035a1790919060201c565b620001de673782dace9d9000006002620001ab8c8c62000584565b620001b791906200059a565b60c051620001c691906200056e565b6080516200046760201b62000522179092919060201c565b620001fa87608051620002a060201b6200035a1790919060201c565b62000206919062000584565b62000212919062000584565b6200021e91906200059a565b6200022a9190620005bd565b9050600081121562000240576200024062000542565b925050505b92915050565b600080610100516200027e84610120516200026791906200056e565b60e051620002a060201b6200035a1790919060201c565b6200028a9190620005bd565b9050600081121562000245576200024562000542565b6000620002b783670de0b6b3a76400008462000467565b9392505050565b6000808213620002cd57600080fd5b60006060620002dc8462000487565b03609f8181039490941b90931c6c465772b2bbbb5f824b15207a3081018102606090811d6d0388eaa27412d5aca026815d636e018202811d6d0df99ac502031bf953eff472fdcc018202811d6d13cdffb29d51d99322bdff5f2211018202811d6d0a0f742023def783a307a986912e018202811d6d01920d8043ca89b5239253284e42018202811d6c0b7a86d7375468fac667a0a527016c29508e458543d8aa4df2abee7883018302821d6d0139601a2efabe717e604cbb4894018302821d6d02247f7a7b6594320649aa03aba1018302821d6c8c3f38e95a6b1ff2ab1c3b343619018302821d6d02384773bdf1ac5676facced60901901830290911d6cb9a025d814b29c212b8b1a07cd190190910260016c0504a838426634cdd8738f543560611b03190105711340daa0d5f769dba1915cef59f0815a5506027d0267a36c0c95b3975ab3ee5b203a7614a3f75373f047d803ae7b6687f2b393909302929092017d57115e47018c7177eebf7cd370a3356a1b7863008a5ae8028c72b88642840160ae1d92915050565b8282028115158415858304851417166200048057600080fd5b0492915050565b60008082116200049657600080fd5b5060016001600160801b03821160071b82811c6001600160401b031060061b1782811c63ffffffff1060051b1782811c61ffff1060041b1782811c60ff10600390811b90911783811c600f1060021b1783811c909110821b1791821c111790565b60008060008060008060c087890312156200051157600080fd5b865195506020870151945060408701519350606087015192506080870151915060a087015190509295509295509295565b634e487b7160e01b600052600160045260246000fd5b634e487b7160e01b600052601160045260246000fd5b8181038181111562000245576200024562000558565b8082018082111562000245576200024562000558565b600082620005b857634e487b7160e01b600052601260045260246000fd5b500490565b8082018281126000831280158216821582161715620005e057620005e062000558565b505092915050565b60805160a05160c05160e051610100516101205161096a6200068960003960008181610187015261023d01526000818160d701526102150152600081816101600152610263015260008181609d0152818161055f015281816105dc0152818161064401526106b70152600081816101c1015261059701526000818160fe0152818161060e0152818161066a015281816106dd0152610708015261096a6000f3fe608060405234801561001057600080fd5b50600436106100935760003560e01c806384a874661161006657806384a8746614610148578063b99699341461015b578063d837268514610182578063df635f3d146101a9578063dfb08e10146101bc57600080fd5b80630481520b1461009857806326980121146100d25780634d6fc522146100f957806362caa04914610120575b600080fd5b6100bf7f000000000000000000000000000000000000000000000000000000000000000081565b6040519081526020015b60405180910390f35b6100bf7f000000000000000000000000000000000000000000000000000000000000000081565b6100bf7f000000000000000000000000000000000000000000000000000000000000000081565b61013361012e366004610818565b6101e3565b604080519283526020830191909152016100c9565b6100bf610156366004610844565b610210565b6100bf7f000000000000000000000000000000000000000000000000000000000000000081565b6100bf7f000000000000000000000000000000000000000000000000000000000000000081565b6100bf6101b736600461085d565b6102ab565b6100bf7f000000000000000000000000000000000000000000000000000000000000000081565b6000806101fa6101f384866108ae565b8690610541565b90506102068182610556565b9150935093915050565b6000807f0000000000000000000000000000000000000000000000000000000000000000610288610261857f00000000000000000000000000000000000000000000000000000000000000006108c1565b7f00000000000000000000000000000000000000000000000000000000000000009061035a565b61029291906108d4565b905060008112156102a5576102a56108fc565b92915050565b60008542106102cd576040516305a29e1160e51b815260040160405180910390fd5b60006102d983856108ae565b905060006102f1826102eb89896108ae565b90610541565b9050670de0b6b3a764000081111561031c576040516386a8c2bd60e01b815260040160405180910390fd5b6000610328878461035a565b905061034d610337428b6108c1565b6301e133806103468486610556565b9190610522565b9998505050505050505050565b600061036f83670de0b6b3a764000084610522565b9392505050565b600080821361038457600080fd5b6000606061039184610771565b03609f8181039490941b90931c6c465772b2bbbb5f824b15207a3081018102606090811d6d0388eaa27412d5aca026815d636e018202811d6d0df99ac502031bf953eff472fdcc018202811d6d13cdffb29d51d99322bdff5f2211018202811d6d0a0f742023def783a307a986912e018202811d6d01920d8043ca89b5239253284e42018202811d6c0b7a86d7375468fac667a0a527016c29508e458543d8aa4df2abee7883018302821d6d0139601a2efabe717e604cbb4894018302821d6d02247f7a7b6594320649aa03aba1018302821d6c8c3f38e95a6b1ff2ab1c3b343619018302821d6d02384773bdf1ac5676facced60901901830290911d6cb9a025d814b29c212b8b1a07cd1901909102780a09507084cc699bb0e71ea869ffffffffffffffffffffffff190105711340daa0d5f769dba1915cef59f0815a5506027d0267a36c0c95b3975ab3ee5b203a7614a3f75373f047d803ae7b6687f2b393909302929092017d57115e47018c7177eebf7cd370a3356a1b7863008a5ae8028c72b88642840160ae1d92915050565b82820281151584158583048514171661053a57600080fd5b0492915050565b600061036f83670de0b6b3a7640000846107ea565b600080610583847f00000000000000000000000000000000000000000000000000000000000000006108c1565b9050600061059185856108c1565b905060007f00000000000000000000000000000000000000000000000000000000000000006602aa1efb94e0006105c8848661035a565b106106395761063461060c610607610600897f00000000000000000000000000000000000000000000000000000000000000006108c1565b879061035a565b610376565b7f00000000000000000000000000000000000000000000000000000000000000009085610522565b61074b565b600661068f610668887f00000000000000000000000000000000000000000000000000000000000000006108c1565b7f00000000000000000000000000000000000000000000000000000000000000009061035a565b610703673782dace9d90000060026106a78c8c6108ae565b6106b19190610912565b6106db907f00000000000000000000000000000000000000000000000000000000000000006108c1565b7f00000000000000000000000000000000000000000000000000000000000000009190610522565b61072d7f00000000000000000000000000000000000000000000000000000000000000008861035a565b61073791906108ae565b61074191906108ae565b61074b9190610912565b61075591906108d4565b90506000811215610768576107686108fc565b95945050505050565b600080821161077f57600080fd5b5060016fffffffffffffffffffffffffffffffff821160071b82811c67ffffffffffffffff1060061b1782811c63ffffffff1060051b1782811c61ffff1060041b1782811c60ff10600390811b90911783811c600f1060021b1783811c909110821b1791821c111790565b82820281151584158583048514171661080257600080fd5b6001826001830304018115150290509392505050565b60008060006060848603121561082d57600080fd5b505081359360208301359350604090920135919050565b60006020828403121561085657600080fd5b5035919050565b600080600080600060a0868803121561087557600080fd5b505083359560208501359550604085013594606081013594506080013592509050565b634e487b7160e01b600052601160045260246000fd5b808201808211156102a5576102a5610898565b818103818111156102a5576102a5610898565b80820182811260008312801582168215821617156108f4576108f4610898565b505092915050565b634e487b7160e01b600052600160045260246000fd5b60008261092f57634e487b7160e01b600052601260045260246000fd5b50049056fea2646970667358221220c1b4fad199c346793d66c3995e10c3afc8853cdb8646e7deb595c71f73886de964736f6c63430008110033",
  "devdoc": {
    "kind": "dev",
    "methods": {
      "fixedBorrowRate(uint256,uint256,uint256,uint256,uint256)": {
        "params": {
          "amount": "the current borrow's amount.",
          "backupAssets": "backup supplier assets.",
          "borrowed": "ex-ante amount borrowed from this fixed rate pool.",
          "maturity": "maturity date for calculating days left to maturity.",
          "supplied": "deposits in the fixed rate pool."
        },
        "returns": {
          "_0": "rate of the fee that the borrower will have to pay (represented with 18 decimals)."
        }
      },
      "floatingRate(uint256)": {
        "details": "Uses the floating rate curve parameters.",
        "params": {
          "utilization": "utilization rate, with 18 decimals precision."
        },
        "returns": {
          "_0": "the interest rate, with 18 decimals precision."
        }
      },
      "minFixedRate(uint256,uint256,uint256)": {
        "params": {
          "backupAssets": "backup supplier assets.",
          "borrowed": "amount borrowed from the fixed rate pool.",
          "supplied": "deposits in the fixed rate pool."
        },
        "returns": {
          "rate": "of the fee that the borrower will have to pay, with 18 decimals precision.",
          "utilization": "current utilization rate, with 18 decimals precision."
        }
      }
    },
    "stateVariables": {
      "PRECISION_THRESHOLD": {
        "details": "When `eta` (`delta / alpha`) is lower than this value, use simpson's rule for approximation."
      }
    },
    "version": 1
  },
  "userdoc": {
    "kind": "user",
    "methods": {
      "fixedBorrowRate(uint256,uint256,uint256,uint256,uint256)": {
        "notice": "Gets the rate to borrow a certain amount at a certain maturity with supply/demand values in the fixed rate pool and assets from the backup supplier."
      },
      "fixedCurveA()": {
        "notice": "Scale factor of the fixed curve."
      },
      "fixedCurveB()": {
        "notice": "Origin intercept of the fixed curve."
      },
      "fixedMaxUtilization()": {
        "notice": "Asymptote of the fixed curve."
      },
      "floatingCurveA()": {
        "notice": "Scale factor of the floating curve."
      },
      "floatingCurveB()": {
        "notice": "Origin intercept of the floating curve."
      },
      "floatingMaxUtilization()": {
        "notice": "Asymptote of the floating curve."
      },
      "floatingRate(uint256)": {
        "notice": "Returns the interest rate for an utilization rate."
      },
      "minFixedRate(uint256,uint256,uint256)": {
        "notice": "Returns the current annualized fixed rate to borrow with supply/demand values in the fixed rate pool and assets from the backup supplier."
      }
    },
    "version": 1
  },
  "storageLayout": {
    "storage": [],
    "types": null
  }
}