{
  "address": "0x3487066011aCc6D07E7f9c7F577208019c3bEB2A",
  "abi": [
    {
      "inputs": [
        {
          "internalType": "contract ERC20",
          "name": "asset_",
          "type": "address"
        },
        {
          "internalType": "contract Auditor",
          "name": "auditor_",
          "type": "address"
        }
      ],
      "stateMutability": "nonpayable",
      "type": "constructor"
    },
    {
      "inputs": [],
      "name": "Disagreement",
      "type": "error"
    },
    {
      "inputs": [],
      "name": "InsufficientProtocolLiquidity",
      "type": "error"
    },
    {
      "inputs": [],
      "name": "MaturityOverflow",
      "type": "error"
    },
    {
      "inputs": [],
      "name": "NotAuditor",
      "type": "error"
    },
    {
      "inputs": [],
      "name": "SelfLiquidation",
      "type": "error"
    },
    {
      "inputs": [
        {
          "internalType": "uint8",
          "name": "state",
          "type": "uint8"
        },
        {
          "internalType": "uint8",
          "name": "requiredState",
          "type": "uint8"
        }
      ],
      "name": "UnmatchedPoolState",
      "type": "error"
    },
    {
      "inputs": [
        {
          "internalType": "uint8",
          "name": "state",
          "type": "uint8"
        },
        {
          "internalType": "uint8",
          "name": "requiredState",
          "type": "uint8"
        },
        {
          "internalType": "uint8",
          "name": "alternativeState",
          "type": "uint8"
        }
      ],
      "name": "UnmatchedPoolStates",
      "type": "error"
    },
    {
      "inputs": [],
      "name": "ZeroBorrow",
      "type": "error"
    },
    {
      "inputs": [],
      "name": "ZeroDeposit",
      "type": "error"
    },
    {
      "inputs": [],
      "name": "ZeroRepay",
      "type": "error"
    },
    {
      "inputs": [],
      "name": "ZeroWithdraw",
      "type": "error"
    },
    {
      "anonymous": false,
      "inputs": [
        {
          "indexed": false,
          "internalType": "uint256",
          "name": "timestamp",
          "type": "uint256"
        }
      ],
      "name": "AccumulatorAccrual",
      "type": "event"
    },
    {
      "anonymous": false,
      "inputs": [
        {
          "indexed": true,
          "internalType": "address",
          "name": "owner",
          "type": "address"
        },
        {
          "indexed": true,
          "internalType": "address",
          "name": "spender",
          "type": "address"
        },
        {
          "indexed": false,
          "internalType": "uint256",
          "name": "amount",
          "type": "uint256"
        }
      ],
      "name": "Approval",
      "type": "event"
    },
    {
      "anonymous": false,
      "inputs": [
        {
          "indexed": false,
          "internalType": "uint256",
          "name": "backupFeeRate",
          "type": "uint256"
        }
      ],
      "name": "BackupFeeRateSet",
      "type": "event"
    },
    {
      "anonymous": false,
      "inputs": [
        {
          "indexed": true,
          "internalType": "address",
          "name": "caller",
          "type": "address"
        },
        {
          "indexed": true,
          "internalType": "address",
          "name": "receiver",
          "type": "address"
        },
        {
          "indexed": true,
          "internalType": "address",
          "name": "borrower",
          "type": "address"
        },
        {
          "indexed": false,
          "internalType": "uint256",
          "name": "assets",
          "type": "uint256"
        },
        {
          "indexed": false,
          "internalType": "uint256",
          "name": "shares",
          "type": "uint256"
        }
      ],
      "name": "Borrow",
      "type": "event"
    },
    {
      "anonymous": false,
      "inputs": [
        {
          "indexed": true,
          "internalType": "uint256",
          "name": "maturity",
          "type": "uint256"
        },
        {
          "indexed": false,
          "internalType": "address",
          "name": "caller",
          "type": "address"
        },
        {
          "indexed": true,
          "internalType": "address",
          "name": "receiver",
          "type": "address"
        },
        {
          "indexed": true,
          "internalType": "address",
          "name": "borrower",
          "type": "address"
        },
        {
          "indexed": false,
          "internalType": "uint256",
          "name": "assets",
          "type": "uint256"
        },
        {
          "indexed": false,
          "internalType": "uint256",
          "name": "fee",
          "type": "uint256"
        }
      ],
      "name": "BorrowAtMaturity",
      "type": "event"
    },
    {
      "anonymous": false,
      "inputs": [
        {
          "indexed": false,
          "internalType": "uint256",
          "name": "dampSpeedUp",
          "type": "uint256"
        },
        {
          "indexed": false,
          "internalType": "uint256",
          "name": "dampSpeedDown",
          "type": "uint256"
        }
      ],
      "name": "DampSpeedSet",
      "type": "event"
    },
    {
      "anonymous": false,
      "inputs": [
        {
          "indexed": true,
          "internalType": "address",
          "name": "caller",
          "type": "address"
        },
        {
          "indexed": true,
          "internalType": "address",
          "name": "owner",
          "type": "address"
        },
        {
          "indexed": false,
          "internalType": "uint256",
          "name": "assets",
          "type": "uint256"
        },
        {
          "indexed": false,
          "internalType": "uint256",
          "name": "shares",
          "type": "uint256"
        }
      ],
      "name": "Deposit",
      "type": "event"
    },
    {
      "anonymous": false,
      "inputs": [
        {
          "indexed": true,
          "internalType": "uint256",
          "name": "maturity",
          "type": "uint256"
        },
        {
          "indexed": true,
          "internalType": "address",
          "name": "caller",
          "type": "address"
        },
        {
          "indexed": true,
          "internalType": "address",
          "name": "owner",
          "type": "address"
        },
        {
          "indexed": false,
          "internalType": "uint256",
          "name": "assets",
          "type": "uint256"
        },
        {
          "indexed": false,
          "internalType": "uint256",
          "name": "fee",
          "type": "uint256"
        }
      ],
      "name": "DepositAtMaturity",
      "type": "event"
    },
    {
      "anonymous": false,
      "inputs": [
        {
          "indexed": false,
          "internalType": "uint256",
          "name": "earningsAccumulatorSmoothFactor",
          "type": "uint256"
        }
      ],
      "name": "EarningsAccumulatorSmoothFactorSet",
      "type": "event"
    },
    {
      "anonymous": false,
      "inputs": [
        {
          "indexed": false,
          "internalType": "uint256",
          "name": "timestamp",
          "type": "uint256"
        },
        {
          "indexed": true,
          "internalType": "uint256",
          "name": "maturity",
          "type": "uint256"
        },
        {
          "indexed": false,
          "internalType": "uint256",
          "name": "unassignedEarnings",
          "type": "uint256"
        }
      ],
      "name": "FixedEarningsUpdate",
      "type": "event"
    },
    {
      "anonymous": false,
      "inputs": [
        {
          "indexed": false,
          "internalType": "uint256",
          "name": "timestamp",
          "type": "uint256"
        },
        {
          "indexed": false,
          "internalType": "uint256",
          "name": "utilization",
          "type": "uint256"
        }
      ],
      "name": "FloatingDebtUpdate",
      "type": "event"
    },
    {
      "anonymous": false,
      "inputs": [
        {
          "indexed": false,
          "internalType": "uint8",
          "name": "version",
          "type": "uint8"
        }
      ],
      "name": "Initialized",
      "type": "event"
    },
    {
      "anonymous": false,
      "inputs": [
        {
          "indexed": true,
          "internalType": "contract InterestRateModel",
          "name": "interestRateModel",
          "type": "address"
        }
      ],
      "name": "InterestRateModelSet",
      "type": "event"
    },
    {
      "anonymous": false,
      "inputs": [
        {
          "indexed": true,
          "internalType": "address",
          "name": "receiver",
          "type": "address"
        },
        {
          "indexed": true,
          "internalType": "address",
          "name": "borrower",
          "type": "address"
        },
        {
          "indexed": false,
          "internalType": "uint256",
          "name": "assets",
          "type": "uint256"
        },
        {
          "indexed": false,
          "internalType": "uint256",
          "name": "lendersAssets",
          "type": "uint256"
        },
        {
          "indexed": true,
          "internalType": "contract Market",
          "name": "seizeMarket",
          "type": "address"
        },
        {
          "indexed": false,
          "internalType": "uint256",
          "name": "seizedAssets",
          "type": "uint256"
        }
      ],
      "name": "Liquidate",
      "type": "event"
    },
    {
      "anonymous": false,
      "inputs": [
        {
          "indexed": false,
          "internalType": "uint256",
          "name": "timestamp",
          "type": "uint256"
        },
        {
          "indexed": false,
          "internalType": "uint256",
          "name": "floatingDepositShares",
          "type": "uint256"
        },
        {
          "indexed": false,
          "internalType": "uint256",
          "name": "floatingAssets",
          "type": "uint256"
        },
        {
          "indexed": false,
          "internalType": "uint256",
          "name": "floatingBorrowShares",
          "type": "uint256"
        },
        {
          "indexed": false,
          "internalType": "uint256",
          "name": "floatingDebt",
          "type": "uint256"
        },
        {
          "indexed": false,
          "internalType": "uint256",
          "name": "earningsAccumulator",
          "type": "uint256"
        }
      ],
      "name": "MarketUpdate",
      "type": "event"
    },
    {
      "anonymous": false,
      "inputs": [
        {
          "indexed": false,
          "internalType": "uint256",
          "name": "maxFuturePools",
          "type": "uint256"
        }
      ],
      "name": "MaxFuturePoolsSet",
      "type": "event"
    },
    {
      "anonymous": false,
      "inputs": [
        {
          "indexed": false,
          "internalType": "address",
          "name": "account",
          "type": "address"
        }
      ],
      "name": "Paused",
      "type": "event"
    },
    {
      "anonymous": false,
      "inputs": [
        {
          "indexed": false,
          "internalType": "uint256",
          "name": "penaltyRate",
          "type": "uint256"
        }
      ],
      "name": "PenaltyRateSet",
      "type": "event"
    },
    {
      "anonymous": false,
      "inputs": [
        {
          "indexed": true,
          "internalType": "address",
          "name": "caller",
          "type": "address"
        },
        {
          "indexed": true,
          "internalType": "address",
          "name": "borrower",
          "type": "address"
        },
        {
          "indexed": false,
          "internalType": "uint256",
          "name": "assets",
          "type": "uint256"
        },
        {
          "indexed": false,
          "internalType": "uint256",
          "name": "shares",
          "type": "uint256"
        }
      ],
      "name": "Repay",
      "type": "event"
    },
    {
      "anonymous": false,
      "inputs": [
        {
          "indexed": true,
          "internalType": "uint256",
          "name": "maturity",
          "type": "uint256"
        },
        {
          "indexed": true,
          "internalType": "address",
          "name": "caller",
          "type": "address"
        },
        {
          "indexed": true,
          "internalType": "address",
          "name": "borrower",
          "type": "address"
        },
        {
          "indexed": false,
          "internalType": "uint256",
          "name": "assets",
          "type": "uint256"
        },
        {
          "indexed": false,
          "internalType": "uint256",
          "name": "positionAssets",
          "type": "uint256"
        }
      ],
      "name": "RepayAtMaturity",
      "type": "event"
    },
    {
      "anonymous": false,
      "inputs": [
        {
          "indexed": false,
          "internalType": "uint256",
          "name": "reserveFactor",
          "type": "uint256"
        }
      ],
      "name": "ReserveFactorSet",
      "type": "event"
    },
    {
      "anonymous": false,
      "inputs": [
        {
          "indexed": true,
          "internalType": "bytes32",
          "name": "role",
          "type": "bytes32"
        },
        {
          "indexed": true,
          "internalType": "bytes32",
          "name": "previousAdminRole",
          "type": "bytes32"
        },
        {
          "indexed": true,
          "internalType": "bytes32",
          "name": "newAdminRole",
          "type": "bytes32"
        }
      ],
      "name": "RoleAdminChanged",
      "type": "event"
    },
    {
      "anonymous": false,
      "inputs": [
        {
          "indexed": true,
          "internalType": "bytes32",
          "name": "role",
          "type": "bytes32"
        },
        {
          "indexed": true,
          "internalType": "address",
          "name": "account",
          "type": "address"
        },
        {
          "indexed": true,
          "internalType": "address",
          "name": "sender",
          "type": "address"
        }
      ],
      "name": "RoleGranted",
      "type": "event"
    },
    {
      "anonymous": false,
      "inputs": [
        {
          "indexed": true,
          "internalType": "bytes32",
          "name": "role",
          "type": "bytes32"
        },
        {
          "indexed": true,
          "internalType": "address",
          "name": "account",
          "type": "address"
        },
        {
          "indexed": true,
          "internalType": "address",
          "name": "sender",
          "type": "address"
        }
      ],
      "name": "RoleRevoked",
      "type": "event"
    },
    {
      "anonymous": false,
      "inputs": [
        {
          "indexed": true,
          "internalType": "address",
          "name": "liquidator",
          "type": "address"
        },
        {
          "indexed": true,
          "internalType": "address",
          "name": "borrower",
          "type": "address"
        },
        {
          "indexed": false,
          "internalType": "uint256",
          "name": "assets",
          "type": "uint256"
        }
      ],
      "name": "Seize",
      "type": "event"
    },
    {
      "anonymous": false,
      "inputs": [
        {
          "indexed": true,
          "internalType": "address",
          "name": "borrower",
          "type": "address"
        },
        {
          "indexed": false,
          "internalType": "uint256",
          "name": "assets",
          "type": "uint256"
        }
      ],
      "name": "SpreadBadDebt",
      "type": "event"
    },
    {
      "anonymous": false,
      "inputs": [
        {
          "indexed": true,
          "internalType": "address",
          "name": "from",
          "type": "address"
        },
        {
          "indexed": true,
          "internalType": "address",
          "name": "to",
          "type": "address"
        },
        {
          "indexed": false,
          "internalType": "uint256",
          "name": "amount",
          "type": "uint256"
        }
      ],
      "name": "Transfer",
      "type": "event"
    },
    {
      "anonymous": false,
      "inputs": [
        {
          "indexed": true,
          "internalType": "address",
          "name": "treasury",
          "type": "address"
        },
        {
          "indexed": false,
          "internalType": "uint256",
          "name": "treasuryFeeRate",
          "type": "uint256"
        }
      ],
      "name": "TreasurySet",
      "type": "event"
    },
    {
      "anonymous": false,
      "inputs": [
        {
          "indexed": false,
          "internalType": "address",
          "name": "account",
          "type": "address"
        }
      ],
      "name": "Unpaused",
      "type": "event"
    },
    {
      "anonymous": false,
      "inputs": [
        {
          "indexed": true,
          "internalType": "address",
          "name": "caller",
          "type": "address"
        },
        {
          "indexed": true,
          "internalType": "address",
          "name": "receiver",
          "type": "address"
        },
        {
          "indexed": true,
          "internalType": "address",
          "name": "owner",
          "type": "address"
        },
        {
          "indexed": false,
          "internalType": "uint256",
          "name": "assets",
          "type": "uint256"
        },
        {
          "indexed": false,
          "internalType": "uint256",
          "name": "shares",
          "type": "uint256"
        }
      ],
      "name": "Withdraw",
      "type": "event"
    },
    {
      "anonymous": false,
      "inputs": [
        {
          "indexed": true,
          "internalType": "uint256",
          "name": "maturity",
          "type": "uint256"
        },
        {
          "indexed": false,
          "internalType": "address",
          "name": "caller",
          "type": "address"
        },
        {
          "indexed": true,
          "internalType": "address",
          "name": "receiver",
          "type": "address"
        },
        {
          "indexed": true,
          "internalType": "address",
          "name": "owner",
          "type": "address"
        },
        {
          "indexed": false,
          "internalType": "uint256",
          "name": "positionAssets",
          "type": "uint256"
        },
        {
          "indexed": false,
          "internalType": "uint256",
          "name": "assets",
          "type": "uint256"
        }
      ],
      "name": "WithdrawAtMaturity",
      "type": "event"
    },
    {
      "inputs": [],
      "name": "DEFAULT_ADMIN_ROLE",
      "outputs": [
        {
          "internalType": "bytes32",
          "name": "",
          "type": "bytes32"
        }
      ],
      "stateMutability": "view",
      "type": "function"
    },
    {
      "inputs": [],
      "name": "DOMAIN_SEPARATOR",
      "outputs": [
        {
          "internalType": "bytes32",
          "name": "",
          "type": "bytes32"
        }
      ],
      "stateMutability": "view",
      "type": "function"
    },
    {
      "inputs": [],
      "name": "PAUSER_ROLE",
      "outputs": [
        {
          "internalType": "bytes32",
          "name": "",
          "type": "bytes32"
        }
      ],
      "stateMutability": "view",
      "type": "function"
    },
    {
      "inputs": [
        {
          "internalType": "address",
          "name": "account",
          "type": "address"
        }
      ],
      "name": "accountSnapshot",
      "outputs": [
        {
          "internalType": "uint256",
          "name": "",
          "type": "uint256"
        },
        {
          "internalType": "uint256",
          "name": "",
          "type": "uint256"
        }
      ],
      "stateMutability": "view",
      "type": "function"
    },
    {
      "inputs": [
        {
          "internalType": "address",
          "name": "",
          "type": "address"
        }
      ],
      "name": "accounts",
      "outputs": [
        {
          "internalType": "uint256",
          "name": "fixedDeposits",
          "type": "uint256"
        },
        {
          "internalType": "uint256",
          "name": "fixedBorrows",
          "type": "uint256"
        },
        {
          "internalType": "uint256",
          "name": "floatingBorrowShares",
          "type": "uint256"
        }
      ],
      "stateMutability": "view",
      "type": "function"
    },
    {
      "inputs": [
        {
          "internalType": "address",
          "name": "",
          "type": "address"
        },
        {
          "internalType": "address",
          "name": "",
          "type": "address"
        }
      ],
      "name": "allowance",
      "outputs": [
        {
          "internalType": "uint256",
          "name": "",
          "type": "uint256"
        }
      ],
      "stateMutability": "view",
      "type": "function"
    },
    {
      "inputs": [
        {
          "internalType": "address",
          "name": "spender",
          "type": "address"
        },
        {
          "internalType": "uint256",
          "name": "amount",
          "type": "uint256"
        }
      ],
      "name": "approve",
      "outputs": [
        {
          "internalType": "bool",
          "name": "",
          "type": "bool"
        }
      ],
      "stateMutability": "nonpayable",
      "type": "function"
    },
    {
      "inputs": [],
      "name": "asset",
      "outputs": [
        {
          "internalType": "contract ERC20",
          "name": "",
          "type": "address"
        }
      ],
      "stateMutability": "view",
      "type": "function"
    },
    {
      "inputs": [],
      "name": "auditor",
      "outputs": [
        {
          "internalType": "contract Auditor",
          "name": "",
          "type": "address"
        }
      ],
      "stateMutability": "view",
      "type": "function"
    },
    {
      "inputs": [],
      "name": "backupFeeRate",
      "outputs": [
        {
          "internalType": "uint256",
          "name": "",
          "type": "uint256"
        }
      ],
      "stateMutability": "view",
      "type": "function"
    },
    {
      "inputs": [
        {
          "internalType": "address",
          "name": "",
          "type": "address"
        }
      ],
      "name": "balanceOf",
      "outputs": [
        {
          "internalType": "uint256",
          "name": "",
          "type": "uint256"
        }
      ],
      "stateMutability": "view",
      "type": "function"
    },
    {
      "inputs": [
        {
          "internalType": "uint256",
          "name": "assets",
          "type": "uint256"
        },
        {
          "internalType": "address",
          "name": "receiver",
          "type": "address"
        },
        {
          "internalType": "address",
          "name": "borrower",
          "type": "address"
        }
      ],
      "name": "borrow",
      "outputs": [
        {
          "internalType": "uint256",
          "name": "borrowShares",
          "type": "uint256"
        }
      ],
      "stateMutability": "nonpayable",
      "type": "function"
    },
    {
      "inputs": [
        {
          "internalType": "uint256",
          "name": "maturity",
          "type": "uint256"
        },
        {
          "internalType": "uint256",
          "name": "assets",
          "type": "uint256"
        },
        {
          "internalType": "uint256",
          "name": "maxAssets",
          "type": "uint256"
        },
        {
          "internalType": "address",
          "name": "receiver",
          "type": "address"
        },
        {
          "internalType": "address",
          "name": "borrower",
          "type": "address"
        }
      ],
      "name": "borrowAtMaturity",
      "outputs": [
        {
          "internalType": "uint256",
          "name": "assetsOwed",
          "type": "uint256"
        }
      ],
      "stateMutability": "nonpayable",
      "type": "function"
    },
    {
      "inputs": [
        {
          "internalType": "address",
          "name": "borrower",
          "type": "address"
        }
      ],
      "name": "clearBadDebt",
      "outputs": [],
      "stateMutability": "nonpayable",
      "type": "function"
    },
    {
      "inputs": [
        {
          "internalType": "uint256",
          "name": "shares",
          "type": "uint256"
        }
      ],
      "name": "convertToAssets",
      "outputs": [
        {
          "internalType": "uint256",
          "name": "",
          "type": "uint256"
        }
      ],
      "stateMutability": "view",
      "type": "function"
    },
    {
      "inputs": [
        {
          "internalType": "uint256",
          "name": "assets",
          "type": "uint256"
        }
      ],
      "name": "convertToShares",
      "outputs": [
        {
          "internalType": "uint256",
          "name": "",
          "type": "uint256"
        }
      ],
      "stateMutability": "view",
      "type": "function"
    },
    {
      "inputs": [],
      "name": "dampSpeedDown",
      "outputs": [
        {
          "internalType": "uint256",
          "name": "",
          "type": "uint256"
        }
      ],
      "stateMutability": "view",
      "type": "function"
    },
    {
      "inputs": [],
      "name": "dampSpeedUp",
      "outputs": [
        {
          "internalType": "uint256",
          "name": "",
          "type": "uint256"
        }
      ],
      "stateMutability": "view",
      "type": "function"
    },
    {
      "inputs": [],
      "name": "decimals",
      "outputs": [
        {
          "internalType": "uint8",
          "name": "",
          "type": "uint8"
        }
      ],
      "stateMutability": "view",
      "type": "function"
    },
    {
      "inputs": [
        {
          "internalType": "uint256",
          "name": "assets",
          "type": "uint256"
        },
        {
          "internalType": "address",
          "name": "receiver",
          "type": "address"
        }
      ],
      "name": "deposit",
      "outputs": [
        {
          "internalType": "uint256",
          "name": "shares",
          "type": "uint256"
        }
      ],
      "stateMutability": "nonpayable",
      "type": "function"
    },
    {
      "inputs": [
        {
          "internalType": "uint256",
          "name": "maturity",
          "type": "uint256"
        },
        {
          "internalType": "uint256",
          "name": "assets",
          "type": "uint256"
        },
        {
          "internalType": "uint256",
          "name": "minAssetsRequired",
          "type": "uint256"
        },
        {
          "internalType": "address",
          "name": "receiver",
          "type": "address"
        }
      ],
      "name": "depositAtMaturity",
      "outputs": [
        {
          "internalType": "uint256",
          "name": "positionAssets",
          "type": "uint256"
        }
      ],
      "stateMutability": "nonpayable",
      "type": "function"
    },
    {
      "inputs": [],
      "name": "earningsAccumulator",
      "outputs": [
        {
          "internalType": "uint256",
          "name": "",
          "type": "uint256"
        }
      ],
      "stateMutability": "view",
      "type": "function"
    },
    {
      "inputs": [],
      "name": "earningsAccumulatorSmoothFactor",
      "outputs": [
        {
          "internalType": "uint128",
          "name": "",
          "type": "uint128"
        }
      ],
      "stateMutability": "view",
      "type": "function"
    },
    {
      "inputs": [
        {
          "internalType": "uint256",
          "name": "",
          "type": "uint256"
        },
        {
          "internalType": "address",
          "name": "",
          "type": "address"
        }
      ],
      "name": "fixedBorrowPositions",
      "outputs": [
        {
          "internalType": "uint256",
          "name": "principal",
          "type": "uint256"
        },
        {
          "internalType": "uint256",
          "name": "fee",
          "type": "uint256"
        }
      ],
      "stateMutability": "view",
      "type": "function"
    },
    {
      "inputs": [
        {
          "internalType": "uint256",
          "name": "",
          "type": "uint256"
        },
        {
          "internalType": "address",
          "name": "",
          "type": "address"
        }
      ],
      "name": "fixedDepositPositions",
      "outputs": [
        {
          "internalType": "uint256",
          "name": "principal",
          "type": "uint256"
        },
        {
          "internalType": "uint256",
          "name": "fee",
          "type": "uint256"
        }
      ],
      "stateMutability": "view",
      "type": "function"
    },
    {
      "inputs": [
        {
          "internalType": "uint256",
          "name": "maturity",
          "type": "uint256"
        }
      ],
      "name": "fixedPoolBalance",
      "outputs": [
        {
          "internalType": "uint256",
          "name": "",
          "type": "uint256"
        },
        {
          "internalType": "uint256",
          "name": "",
          "type": "uint256"
        }
      ],
      "stateMutability": "view",
      "type": "function"
    },
    {
      "inputs": [
        {
          "internalType": "uint256",
          "name": "maturity",
          "type": "uint256"
        }
      ],
      "name": "fixedPoolBorrowed",
      "outputs": [
        {
          "internalType": "uint256",
          "name": "",
          "type": "uint256"
        }
      ],
      "stateMutability": "view",
      "type": "function"
    },
    {
      "inputs": [
        {
          "internalType": "uint256",
          "name": "",
          "type": "uint256"
        }
      ],
      "name": "fixedPools",
      "outputs": [
        {
          "internalType": "uint256",
          "name": "borrowed",
          "type": "uint256"
        },
        {
          "internalType": "uint256",
          "name": "supplied",
          "type": "uint256"
        },
        {
          "internalType": "uint256",
          "name": "unassignedEarnings",
          "type": "uint256"
        },
        {
          "internalType": "uint256",
          "name": "lastAccrual",
          "type": "uint256"
        }
      ],
      "stateMutability": "view",
      "type": "function"
    },
    {
      "inputs": [],
      "name": "floatingAssets",
      "outputs": [
        {
          "internalType": "uint256",
          "name": "",
          "type": "uint256"
        }
      ],
      "stateMutability": "view",
      "type": "function"
    },
    {
      "inputs": [],
      "name": "floatingAssetsAverage",
      "outputs": [
        {
          "internalType": "uint256",
          "name": "",
          "type": "uint256"
        }
      ],
      "stateMutability": "view",
      "type": "function"
    },
    {
      "inputs": [],
      "name": "floatingBackupBorrowed",
      "outputs": [
        {
          "internalType": "uint256",
          "name": "",
          "type": "uint256"
        }
      ],
      "stateMutability": "view",
      "type": "function"
    },
    {
      "inputs": [],
      "name": "floatingDebt",
      "outputs": [
        {
          "internalType": "uint256",
          "name": "",
          "type": "uint256"
        }
      ],
      "stateMutability": "view",
      "type": "function"
    },
    {
      "inputs": [
        {
          "internalType": "bytes32",
          "name": "role",
          "type": "bytes32"
        }
      ],
      "name": "getRoleAdmin",
      "outputs": [
        {
          "internalType": "bytes32",
          "name": "",
          "type": "bytes32"
        }
      ],
      "stateMutability": "view",
      "type": "function"
    },
    {
      "inputs": [
        {
          "internalType": "bytes32",
          "name": "role",
          "type": "bytes32"
        },
        {
          "internalType": "address",
          "name": "account",
          "type": "address"
        }
      ],
      "name": "grantRole",
      "outputs": [],
      "stateMutability": "nonpayable",
      "type": "function"
    },
    {
      "inputs": [
        {
          "internalType": "bytes32",
          "name": "role",
          "type": "bytes32"
        },
        {
          "internalType": "address",
          "name": "account",
          "type": "address"
        }
      ],
      "name": "hasRole",
      "outputs": [
        {
          "internalType": "bool",
          "name": "",
          "type": "bool"
        }
      ],
      "stateMutability": "view",
      "type": "function"
    },
    {
      "inputs": [
        {
          "internalType": "uint8",
          "name": "maxFuturePools_",
          "type": "uint8"
        },
        {
          "internalType": "uint128",
          "name": "earningsAccumulatorSmoothFactor_",
          "type": "uint128"
        },
        {
          "internalType": "contract InterestRateModel",
          "name": "interestRateModel_",
          "type": "address"
        },
        {
          "internalType": "uint256",
          "name": "penaltyRate_",
          "type": "uint256"
        },
        {
          "internalType": "uint256",
          "name": "backupFeeRate_",
          "type": "uint256"
        },
        {
          "internalType": "uint128",
          "name": "reserveFactor_",
          "type": "uint128"
        },
        {
          "internalType": "uint256",
          "name": "dampSpeedUp_",
          "type": "uint256"
        },
        {
          "internalType": "uint256",
          "name": "dampSpeedDown_",
          "type": "uint256"
        }
      ],
      "name": "initialize",
      "outputs": [],
      "stateMutability": "nonpayable",
      "type": "function"
    },
    {
      "inputs": [],
      "name": "interestRateModel",
      "outputs": [
        {
          "internalType": "contract InterestRateModel",
          "name": "",
          "type": "address"
        }
      ],
      "stateMutability": "view",
      "type": "function"
    },
    {
      "inputs": [],
      "name": "lastAccumulatorAccrual",
      "outputs": [
        {
          "internalType": "uint32",
          "name": "",
          "type": "uint32"
        }
      ],
      "stateMutability": "view",
      "type": "function"
    },
    {
      "inputs": [],
      "name": "lastAverageUpdate",
      "outputs": [
        {
          "internalType": "uint32",
          "name": "",
          "type": "uint32"
        }
      ],
      "stateMutability": "view",
      "type": "function"
    },
    {
      "inputs": [],
      "name": "lastFloatingDebtUpdate",
      "outputs": [
        {
          "internalType": "uint32",
          "name": "",
          "type": "uint32"
        }
      ],
      "stateMutability": "view",
      "type": "function"
    },
    {
      "inputs": [
        {
          "internalType": "address",
          "name": "borrower",
          "type": "address"
        },
        {
          "internalType": "uint256",
          "name": "maxAssets",
          "type": "uint256"
        },
        {
          "internalType": "contract Market",
          "name": "seizeMarket",
          "type": "address"
        }
      ],
      "name": "liquidate",
      "outputs": [
        {
          "internalType": "uint256",
          "name": "repaidAssets",
          "type": "uint256"
        }
      ],
      "stateMutability": "nonpayable",
      "type": "function"
    },
    {
      "inputs": [
        {
          "internalType": "address",
          "name": "",
          "type": "address"
        }
      ],
      "name": "maxDeposit",
      "outputs": [
        {
          "internalType": "uint256",
          "name": "",
          "type": "uint256"
        }
      ],
      "stateMutability": "view",
      "type": "function"
    },
    {
      "inputs": [],
      "name": "maxFuturePools",
      "outputs": [
        {
          "internalType": "uint8",
          "name": "",
          "type": "uint8"
        }
      ],
      "stateMutability": "view",
      "type": "function"
    },
    {
      "inputs": [
        {
          "internalType": "address",
          "name": "",
          "type": "address"
        }
      ],
      "name": "maxMint",
      "outputs": [
        {
          "internalType": "uint256",
          "name": "",
          "type": "uint256"
        }
      ],
      "stateMutability": "view",
      "type": "function"
    },
    {
      "inputs": [
        {
          "internalType": "address",
          "name": "owner",
          "type": "address"
        }
      ],
      "name": "maxRedeem",
      "outputs": [
        {
          "internalType": "uint256",
          "name": "",
          "type": "uint256"
        }
      ],
      "stateMutability": "view",
      "type": "function"
    },
    {
      "inputs": [
        {
          "internalType": "address",
          "name": "owner",
          "type": "address"
        }
      ],
      "name": "maxWithdraw",
      "outputs": [
        {
          "internalType": "uint256",
          "name": "",
          "type": "uint256"
        }
      ],
      "stateMutability": "view",
      "type": "function"
    },
    {
      "inputs": [
        {
          "internalType": "uint256",
          "name": "shares",
          "type": "uint256"
        },
        {
          "internalType": "address",
          "name": "receiver",
          "type": "address"
        }
      ],
      "name": "mint",
      "outputs": [
        {
          "internalType": "uint256",
          "name": "assets",
          "type": "uint256"
        }
      ],
      "stateMutability": "nonpayable",
      "type": "function"
    },
    {
      "inputs": [],
      "name": "name",
      "outputs": [
        {
          "internalType": "string",
          "name": "",
          "type": "string"
        }
      ],
      "stateMutability": "view",
      "type": "function"
    },
    {
      "inputs": [
        {
          "internalType": "address",
          "name": "",
          "type": "address"
        }
      ],
      "name": "nonces",
      "outputs": [
        {
          "internalType": "uint256",
          "name": "",
          "type": "uint256"
        }
      ],
      "stateMutability": "view",
      "type": "function"
    },
    {
      "inputs": [],
      "name": "pause",
      "outputs": [],
      "stateMutability": "nonpayable",
      "type": "function"
    },
    {
      "inputs": [],
      "name": "paused",
      "outputs": [
        {
          "internalType": "bool",
          "name": "",
          "type": "bool"
        }
      ],
      "stateMutability": "view",
      "type": "function"
    },
    {
      "inputs": [],
      "name": "penaltyRate",
      "outputs": [
        {
          "internalType": "uint256",
          "name": "",
          "type": "uint256"
        }
      ],
      "stateMutability": "view",
      "type": "function"
    },
    {
      "inputs": [
        {
          "internalType": "address",
          "name": "owner",
          "type": "address"
        },
        {
          "internalType": "address",
          "name": "spender",
          "type": "address"
        },
        {
          "internalType": "uint256",
          "name": "value",
          "type": "uint256"
        },
        {
          "internalType": "uint256",
          "name": "deadline",
          "type": "uint256"
        },
        {
          "internalType": "uint8",
          "name": "v",
          "type": "uint8"
        },
        {
          "internalType": "bytes32",
          "name": "r",
          "type": "bytes32"
        },
        {
          "internalType": "bytes32",
          "name": "s",
          "type": "bytes32"
        }
      ],
      "name": "permit",
      "outputs": [],
      "stateMutability": "nonpayable",
      "type": "function"
    },
    {
      "inputs": [
        {
          "internalType": "uint256",
          "name": "assets",
          "type": "uint256"
        }
      ],
      "name": "previewBorrow",
      "outputs": [
        {
          "internalType": "uint256",
          "name": "",
          "type": "uint256"
        }
      ],
      "stateMutability": "view",
      "type": "function"
    },
    {
      "inputs": [
        {
          "internalType": "address",
          "name": "borrower",
          "type": "address"
        }
      ],
      "name": "previewDebt",
      "outputs": [
        {
          "internalType": "uint256",
          "name": "debt",
          "type": "uint256"
        }
      ],
      "stateMutability": "view",
      "type": "function"
    },
    {
      "inputs": [
        {
          "internalType": "uint256",
          "name": "assets",
          "type": "uint256"
        }
      ],
      "name": "previewDeposit",
      "outputs": [
        {
          "internalType": "uint256",
          "name": "",
          "type": "uint256"
        }
      ],
      "stateMutability": "view",
      "type": "function"
    },
    {
      "inputs": [],
      "name": "previewFloatingAssetsAverage",
      "outputs": [
        {
          "internalType": "uint256",
          "name": "",
          "type": "uint256"
        }
      ],
      "stateMutability": "view",
      "type": "function"
    },
    {
      "inputs": [
        {
          "internalType": "uint256",
          "name": "shares",
          "type": "uint256"
        }
      ],
      "name": "previewMint",
      "outputs": [
        {
          "internalType": "uint256",
          "name": "",
          "type": "uint256"
        }
      ],
      "stateMutability": "view",
      "type": "function"
    },
    {
      "inputs": [
        {
          "internalType": "uint256",
          "name": "shares",
          "type": "uint256"
        }
      ],
      "name": "previewRedeem",
      "outputs": [
        {
          "internalType": "uint256",
          "name": "",
          "type": "uint256"
        }
      ],
      "stateMutability": "view",
      "type": "function"
    },
    {
      "inputs": [
        {
          "internalType": "uint256",
          "name": "shares",
          "type": "uint256"
        }
      ],
      "name": "previewRefund",
      "outputs": [
        {
          "internalType": "uint256",
          "name": "",
          "type": "uint256"
        }
      ],
      "stateMutability": "view",
      "type": "function"
    },
    {
      "inputs": [
        {
          "internalType": "uint256",
          "name": "assets",
          "type": "uint256"
        }
      ],
      "name": "previewRepay",
      "outputs": [
        {
          "internalType": "uint256",
          "name": "",
          "type": "uint256"
        }
      ],
      "stateMutability": "view",
      "type": "function"
    },
    {
      "inputs": [
        {
          "internalType": "uint256",
          "name": "assets",
          "type": "uint256"
        }
      ],
      "name": "previewWithdraw",
      "outputs": [
        {
          "internalType": "uint256",
          "name": "",
          "type": "uint256"
        }
      ],
      "stateMutability": "view",
      "type": "function"
    },
    {
      "inputs": [
        {
          "internalType": "uint256",
          "name": "shares",
          "type": "uint256"
        },
        {
          "internalType": "address",
          "name": "receiver",
          "type": "address"
        },
        {
          "internalType": "address",
          "name": "owner",
          "type": "address"
        }
      ],
      "name": "redeem",
      "outputs": [
        {
          "internalType": "uint256",
          "name": "assets",
          "type": "uint256"
        }
      ],
      "stateMutability": "nonpayable",
      "type": "function"
    },
    {
      "inputs": [
        {
          "internalType": "uint256",
          "name": "borrowShares",
          "type": "uint256"
        },
        {
          "internalType": "address",
          "name": "borrower",
          "type": "address"
        }
      ],
      "name": "refund",
      "outputs": [
        {
          "internalType": "uint256",
          "name": "assets",
          "type": "uint256"
        },
        {
          "internalType": "uint256",
          "name": "actualShares",
          "type": "uint256"
        }
      ],
      "stateMutability": "nonpayable",
      "type": "function"
    },
    {
      "inputs": [
        {
          "internalType": "bytes32",
          "name": "role",
          "type": "bytes32"
        },
        {
          "internalType": "address",
          "name": "account",
          "type": "address"
        }
      ],
      "name": "renounceRole",
      "outputs": [],
      "stateMutability": "nonpayable",
      "type": "function"
    },
    {
      "inputs": [
        {
          "internalType": "uint256",
          "name": "assets",
          "type": "uint256"
        },
        {
          "internalType": "address",
          "name": "borrower",
          "type": "address"
        }
      ],
      "name": "repay",
      "outputs": [
        {
          "internalType": "uint256",
          "name": "actualRepay",
          "type": "uint256"
        },
        {
          "internalType": "uint256",
          "name": "borrowShares",
          "type": "uint256"
        }
      ],
      "stateMutability": "nonpayable",
      "type": "function"
    },
    {
      "inputs": [
        {
          "internalType": "uint256",
          "name": "maturity",
          "type": "uint256"
        },
        {
          "internalType": "uint256",
          "name": "positionAssets",
          "type": "uint256"
        },
        {
          "internalType": "uint256",
          "name": "maxAssets",
          "type": "uint256"
        },
        {
          "internalType": "address",
          "name": "borrower",
          "type": "address"
        }
      ],
      "name": "repayAtMaturity",
      "outputs": [
        {
          "internalType": "uint256",
          "name": "actualRepayAssets",
          "type": "uint256"
        }
      ],
      "stateMutability": "nonpayable",
      "type": "function"
    },
    {
      "inputs": [],
      "name": "reserveFactor",
      "outputs": [
        {
          "internalType": "uint128",
          "name": "",
          "type": "uint128"
        }
      ],
      "stateMutability": "view",
      "type": "function"
    },
    {
      "inputs": [
        {
          "internalType": "bytes32",
          "name": "role",
          "type": "bytes32"
        },
        {
          "internalType": "address",
          "name": "account",
          "type": "address"
        }
      ],
      "name": "revokeRole",
      "outputs": [],
      "stateMutability": "nonpayable",
      "type": "function"
    },
    {
      "inputs": [],
      "name": "rewardsController",
      "outputs": [
        {
          "internalType": "contract RewardsController",
          "name": "",
          "type": "address"
        }
      ],
      "stateMutability": "view",
      "type": "function"
    },
    {
      "inputs": [
        {
          "internalType": "address",
          "name": "liquidator",
          "type": "address"
        },
        {
          "internalType": "address",
          "name": "borrower",
          "type": "address"
        },
        {
          "internalType": "uint256",
          "name": "assets",
          "type": "uint256"
        }
      ],
      "name": "seize",
      "outputs": [],
      "stateMutability": "nonpayable",
      "type": "function"
    },
    {
      "inputs": [
        {
          "internalType": "uint256",
          "name": "backupFeeRate_",
          "type": "uint256"
        }
      ],
      "name": "setBackupFeeRate",
      "outputs": [],
      "stateMutability": "nonpayable",
      "type": "function"
    },
    {
      "inputs": [
        {
          "internalType": "uint256",
          "name": "up",
          "type": "uint256"
        },
        {
          "internalType": "uint256",
          "name": "down",
          "type": "uint256"
        }
      ],
      "name": "setDampSpeed",
      "outputs": [],
      "stateMutability": "nonpayable",
      "type": "function"
    },
    {
      "inputs": [
        {
          "internalType": "uint128",
          "name": "earningsAccumulatorSmoothFactor_",
          "type": "uint128"
        }
      ],
      "name": "setEarningsAccumulatorSmoothFactor",
      "outputs": [],
      "stateMutability": "nonpayable",
      "type": "function"
    },
    {
      "inputs": [
        {
          "internalType": "contract InterestRateModel",
          "name": "interestRateModel_",
          "type": "address"
        }
      ],
      "name": "setInterestRateModel",
      "outputs": [],
      "stateMutability": "nonpayable",
      "type": "function"
    },
    {
      "inputs": [
        {
          "internalType": "uint8",
          "name": "futurePools",
          "type": "uint8"
        }
      ],
      "name": "setMaxFuturePools",
      "outputs": [],
      "stateMutability": "nonpayable",
      "type": "function"
    },
    {
      "inputs": [
        {
          "internalType": "uint256",
          "name": "penaltyRate_",
          "type": "uint256"
        }
      ],
      "name": "setPenaltyRate",
      "outputs": [],
      "stateMutability": "nonpayable",
      "type": "function"
    },
    {
      "inputs": [
        {
          "internalType": "uint128",
          "name": "reserveFactor_",
          "type": "uint128"
        }
      ],
      "name": "setReserveFactor",
      "outputs": [],
      "stateMutability": "nonpayable",
      "type": "function"
    },
    {
      "inputs": [
        {
          "internalType": "contract RewardsController",
          "name": "rewardsController_",
          "type": "address"
        }
      ],
      "name": "setRewardsController",
      "outputs": [],
      "stateMutability": "nonpayable",
      "type": "function"
    },
    {
      "inputs": [
        {
          "internalType": "address",
          "name": "treasury_",
          "type": "address"
        },
        {
          "internalType": "uint256",
          "name": "treasuryFeeRate_",
          "type": "uint256"
        }
      ],
      "name": "setTreasury",
      "outputs": [],
      "stateMutability": "nonpayable",
      "type": "function"
    },
    {
      "inputs": [
        {
          "internalType": "bytes4",
          "name": "interfaceId",
          "type": "bytes4"
        }
      ],
      "name": "supportsInterface",
      "outputs": [
        {
          "internalType": "bool",
          "name": "",
          "type": "bool"
        }
      ],
      "stateMutability": "view",
      "type": "function"
    },
    {
      "inputs": [],
      "name": "symbol",
      "outputs": [
        {
          "internalType": "string",
          "name": "",
          "type": "string"
        }
      ],
      "stateMutability": "view",
      "type": "function"
    },
    {
      "inputs": [],
      "name": "totalAssets",
      "outputs": [
        {
          "internalType": "uint256",
          "name": "",
          "type": "uint256"
        }
      ],
      "stateMutability": "view",
      "type": "function"
    },
    {
      "inputs": [],
      "name": "totalFloatingBorrowAssets",
      "outputs": [
        {
          "internalType": "uint256",
          "name": "",
          "type": "uint256"
        }
      ],
      "stateMutability": "view",
      "type": "function"
    },
    {
      "inputs": [],
      "name": "totalFloatingBorrowShares",
      "outputs": [
        {
          "internalType": "uint256",
          "name": "",
          "type": "uint256"
        }
      ],
      "stateMutability": "view",
      "type": "function"
    },
    {
      "inputs": [],
      "name": "totalSupply",
      "outputs": [
        {
          "internalType": "uint256",
          "name": "",
          "type": "uint256"
        }
      ],
      "stateMutability": "view",
      "type": "function"
    },
    {
      "inputs": [
        {
          "internalType": "address",
          "name": "to",
          "type": "address"
        },
        {
          "internalType": "uint256",
          "name": "shares",
          "type": "uint256"
        }
      ],
      "name": "transfer",
      "outputs": [
        {
          "internalType": "bool",
          "name": "",
          "type": "bool"
        }
      ],
      "stateMutability": "nonpayable",
      "type": "function"
    },
    {
      "inputs": [
        {
          "internalType": "address",
          "name": "from",
          "type": "address"
        },
        {
          "internalType": "address",
          "name": "to",
          "type": "address"
        },
        {
          "internalType": "uint256",
          "name": "shares",
          "type": "uint256"
        }
      ],
      "name": "transferFrom",
      "outputs": [
        {
          "internalType": "bool",
          "name": "",
          "type": "bool"
        }
      ],
      "stateMutability": "nonpayable",
      "type": "function"
    },
    {
      "inputs": [],
      "name": "treasury",
      "outputs": [
        {
          "internalType": "address",
          "name": "",
          "type": "address"
        }
      ],
      "stateMutability": "view",
      "type": "function"
    },
    {
      "inputs": [],
      "name": "treasuryFeeRate",
      "outputs": [
        {
          "internalType": "uint256",
          "name": "",
          "type": "uint256"
        }
      ],
      "stateMutability": "view",
      "type": "function"
    },
    {
      "inputs": [],
      "name": "unpause",
      "outputs": [],
      "stateMutability": "nonpayable",
      "type": "function"
    },
    {
      "inputs": [
        {
          "internalType": "uint256",
          "name": "assets",
          "type": "uint256"
        },
        {
          "internalType": "address",
          "name": "receiver",
          "type": "address"
        },
        {
          "internalType": "address",
          "name": "owner",
          "type": "address"
        }
      ],
      "name": "withdraw",
      "outputs": [
        {
          "internalType": "uint256",
          "name": "shares",
          "type": "uint256"
        }
      ],
      "stateMutability": "nonpayable",
      "type": "function"
    },
    {
      "inputs": [
        {
          "internalType": "uint256",
          "name": "maturity",
          "type": "uint256"
        },
        {
          "internalType": "uint256",
          "name": "positionAssets",
          "type": "uint256"
        },
        {
          "internalType": "uint256",
          "name": "minAssetsRequired",
          "type": "uint256"
        },
        {
          "internalType": "address",
          "name": "receiver",
          "type": "address"
        },
        {
          "internalType": "address",
          "name": "owner",
          "type": "address"
        }
      ],
      "name": "withdrawAtMaturity",
      "outputs": [
        {
          "internalType": "uint256",
          "name": "assetsDiscounted",
          "type": "uint256"
        }
      ],
      "stateMutability": "nonpayable",
      "type": "function"
    }
  ],
  "transactionHash": "0x8b083f2aac9a6b385e21c7938f7f19cdc552eed72a3aa20b8684660416a4b588",
  "args": [
    "0x2e3A2fb8473316A02b8A297B982498E661E1f6f5",
    "0xB957a4Aa46F859b14C745b8356c28B8361319fAB"
  ],
  "numDeployments": 7,
  "solcInputHash": "919f5a13c62499183e4200f9361852ea",
  "bytecode": "0x6101206040523480156200001257600080fd5b50604051620063203803806200632083398101604081905262000035916200023e565b8160405180602001604052806000815250604051806020016040528060008152508181846001600160a01b031663313ce5676040518163ffffffff1660e01b8152600401602060405180830381865afa15801562000097573d6000803e3d6000fd5b505050506040513d601f19601f82011682018060405250810190620000bd91906200027d565b60c9620000cb84826200034e565b5060ca620000da83826200034e565b5060ff81166080524660a052620000f06200011e565b60c0525050506001600160a01b0392831660e052505081166101005262000116620001ba565b505062000498565b60007f8b73c3c69bb8fe3d512ecc4cf759cc79239f7b179b0ffacaa9a75d522b39400f60c96040516200015291906200041a565b6040805191829003822060208301939093528101919091527fc89efdaa54c0f20c7adf612882df0950f5a951637e0307cdcb4c672f298b8bc660608201524660808201523060a082015260c00160405160208183030381529060405280519060200120905090565b600054610100900460ff1615620001d057600080fd5b60005460ff908116101562000223576000805460ff191660ff9081179091556040519081527f7f26b83ff96e1f2b6a682f133852f6798a09c465da95921460cefb38474024989060200160405180910390a15b565b6001600160a01b03811681146200023b57600080fd5b50565b600080604083850312156200025257600080fd5b82516200025f8162000225565b6020840151909250620002728162000225565b809150509250929050565b6000602082840312156200029057600080fd5b815160ff81168114620002a257600080fd5b9392505050565b634e487b7160e01b600052604160045260246000fd5b600181811c90821680620002d457607f821691505b602082108103620002f557634e487b7160e01b600052602260045260246000fd5b50919050565b601f8211156200034957600081815260208120601f850160051c81016020861015620003245750805b601f850160051c820191505b81811015620003455782815560010162000330565b5050505b505050565b81516001600160401b038111156200036a576200036a620002a9565b62000382816200037b8454620002bf565b84620002fb565b602080601f831160018114620003ba5760008415620003a15750858301515b600019600386901b1c1916600185901b17855562000345565b600085815260208120601f198616915b82811015620003eb57888601518255948401946001909101908401620003ca565b50858210156200040a5787850151600019600388901b60f8161c191681555b5050505050600190811b01905550565b60008083546200042a81620002bf565b600182811680156200044557600181146200045b576200048c565b60ff19841687528215158302870194506200048c565b8760005260208060002060005b85811015620004835781548a82015290840190820162000468565b50505082870194505b50929695505050505050565b60805160a05160c05160e05161010051615d9b62000585600039600081816107ba015281816114f20152818161169701528181611d4401528181611fa7015281816121290152818161242501528181612db801528181612f8b015281816130840152818161359d01526149ba01526000818161075f0152818161155b01528181611b2201528181611c19015281816121a00152818161225f01528181612328015281816126ba015281816127c301528181612d3f0152818161360601528181614ae201528181614fa901526150c401526000611b9001526000611b5b0152600061070a0152615d9b6000f3fe608060405234801561001057600080fd5b506004361061050f5760003560e01c80636eb9ffeb116102a4578063b3d7f6b911610172578063d547741f116100d9578063e94b3c2111610092578063e94b3c2114610cd0578063eee8c9e014610cd9578063ef8b30f714610ce1578063f3fdb15a14610cf4578063fb0fc4c314610d07578063fea45d9414610d1e57600080fd5b8063d547741f14610c26578063d6b7494f14610c39578063d905777e14610c42578063dd62ed3e14610c6b578063e00b262514610c96578063e63ab1e914610ca957600080fd5b8063c6e6f5921161012b578063c6e6f59214610b76578063ccfd8b1114610b89578063ce96cb7714610bbb578063d2681a0b14610bce578063d505accf14610c00578063d516418414610c1357600080fd5b8063b3d7f6b914610b17578063b460af9414610b2a578063ba08765214610b3d578063bee36bb314610b50578063bf722ca214610b63578063c63d75b6146107e457600080fd5b8063926bb63311610216578063a1bab447116101cf578063a1bab44714610aba578063a1e8f02b14610acd578063a217fddf14610ad6578063a9059cbb14610ade578063acb7081514610af1578063b2a02ff114610b0457600080fd5b8063926bb63314610a5157806394bf804d14610a6457806395d89b4114610a775780639f73066e14610a7f578063a05a091a14610a92578063a16a885014610aa557600080fd5b80638456cb59116102685780638456cb5914610a085780638a1baa4614610a105780638bcd401614610a195780638c3cba5a14610a2c5780638d0e5f0214610a3557806391d1485414610a3e57600080fd5b80636eb9ffeb1461097657806370a08231146109a257806378007e23146109c25780637ad226dc146109d55780637ecebe00146109e857600080fd5b8063313ce567116103e15780634322b714116103535780635cc2ef831161030c5780635cc2ef83146108d75780635e5c06e2146108ea57806361d027b31461093457806366601032146109475780636bb65f53146109505780636e553f651461096357600080fd5b80634322b7141461080c57806347dffde01461083e5780634914c008146108515780634cdad506146108645780634e7c5059146108775780635c975abb146108cc57600080fd5b80633aa18d6f116103a55780633aa18d6f146107995780633c6f317f146107a25780633ec045a6146107b55780633f4ba83a146107dc578063402d267d146107e457806342da42bf146107f957600080fd5b8063313ce5671461070557806334f7d1f21461072c5780633644e5151461073f57806336568abe1461074757806338d52e0f1461075a57600080fd5b80630f2b75aa11610485578063248a9ca31161043e578063248a9ca31461068057806325fc07a9146106a357806328acf2cf146106c35780632c5dcc77146106d65780632e0af008146106e95780632f2ff15d146106f257600080fd5b80630f2b75aa1461062d57806318160ddd146106355780631a5b9e621461063e5780631a90f186146106515780631d43b30b1461065a57806323b872dd1461066d57600080fd5b806306fdde03116104d757806306fdde031461059857806307a2d13a146105ad578063095ea7b3146105c05780630a28a477146105d35780630ab69be8146105e65780630e52dbec1461060e57600080fd5b8063014a296f1461051457806301e1d1141461054157806301ffc9a714610557578063022d8af51461057a5780630539fa8c1461058f575b600080fd5b610527610522366004615469565b610d31565b604080519283526020830191909152015b60405180910390f35b610549610d67565b604051908152602001610538565b61056a610565366004615486565b610e16565b6040519015158152602001610538565b61058d6105883660046154cc565b610e4d565b005b61054960d85481565b6105a0610ede565b604051610538919061550b565b6105496105bb36600461553e565b610f6c565b61056a6105ce366004615557565b610f99565b6105496105e136600461553e565b611005565b6105276105f436600461553e565b600090815260d16020526040902080546001909101549091565b60da5461061b9060ff1681565b60405160ff9091168152602001610538565b610549611025565b61054960cb5481565b61054961064c366004615583565b6110cc565b61054960d45481565b610549610668366004615469565b611591565b61056a61067b3660046155d9565b611693565b61054961068e36600461553e565b60009081526065602052604090206001015490565b6105496106b136600461553e565b600090815260d1602052604090205490565b61058d6106d136600461562b565b611814565b61058d6106e4366004615557565b611861565b61054960dd5481565b61058d610700366004615646565b6118c7565b61061b7f000000000000000000000000000000000000000000000000000000000000000081565b61054961073a366004615676565b6118f1565b610549611b57565b61058d610755366004615646565b611bb2565b6107817f000000000000000000000000000000000000000000000000000000000000000081565b6040516001600160a01b039091168152602001610538565b61054960d95481565b6105496107b0366004615676565b611bd5565b6107817f000000000000000000000000000000000000000000000000000000000000000081565b61058d611c49565b6105496107f2366004615469565b5060001990565b61058d61080736600461553e565b611c7e565b60dc5461082690600160801b90046001600160801b031681565b6040516001600160801b039091168152602001610538565b61054961084c36600461553e565b611cbe565b61054961085f3660046156b7565b611cdd565b61054961087236600461553e565b6121d2565b6108ac61088536600461553e565b60d16020526000908152604090208054600182015460028301546003909301549192909184565b604080519485526020850193909352918301526060820152608001610538565b60975460ff1661056a565b61058d6108e53660046156f9565b6121dd565b6109196108f8366004615469565b60d26020526000908152604090208054600182015460029092015490919083565b60408051938452602084019290925290820152606001610538565b60e154610781906001600160a01b031681565b61054960e25481565b60e354610781906001600160a01b031681565b610549610971366004615646565b612238565b60da5461098d90600160281b900463ffffffff1681565b60405163ffffffff9091168152602001610538565b6105496109b0366004615469565b60cc6020526000908152604090205481565b6105496109d036600461553e565b6122e1565b6105276109e3366004615646565b6122f9565b6105496109f6366004615469565b60ce6020526000908152604090205481565b61058d612357565b61054960d55481565b61058d610a27366004615469565b612389565b61054960d35481565b61054960df5481565b61056a610a4c366004615646565b6123ef565b61058d610a5f366004615469565b61241a565b610549610a72366004615646565b6126a0565b6105a061273c565b61058d610a8d36600461571b565b612749565b610549610aa0366004615583565b61298f565b60da5461098d90610100900463ffffffff1681565b61058d610ac836600461553e565b612d74565b61054960d75481565b610549600081565b61056a610aec366004615557565b612db4565b610527610aff366004615646565b612f29565b61058d610b123660046155d9565b612f46565b610549610b2536600461553e565b612f5a565b610549610b38366004615798565b612f71565b610549610b4b366004615798565b613080565b61058d610b5e366004615469565b613184565b610549610b7136600461553e565b6131b2565b610549610b8436600461553e565b6131d2565b610527610b97366004615646565b60cf6020908152600092835260408084209091529082529020805460019091015482565b610549610bc9366004615469565b6131ea565b610527610bdc366004615646565b60d06020908152600092835260408084209091529082529020805460019091015482565b61058d610c0e3660046157cf565b61320c565b610549610c21366004615798565b6133d9565b61058d610c34366004615646565b613638565b61054960d65481565b610549610c50366004615469565b6001600160a01b0316600090815260cc602052604090205490565b610549610c7936600461583d565b60cd60209081526000928352604080842090915290825290205481565b61058d610ca43660046154cc565b61365d565b6105497f65d7a28e3265b37a6474929f336521b332c1681b933f6cb9f3376673440d862a81565b61054960de5481565b6105496136b6565b610549610cef36600461553e565b613783565b60db54610781906001600160a01b031681565b60da5461098d90600160481b900463ffffffff1681565b60dc54610826906001600160801b031681565b6001600160a01b038116600090815260cc60205260408120548190610d5590610f6c565b610d5e84611591565b91509150915091565b60da5460009060ff16816224ea004281810690039083028101815b818111610ddb57600081815260d160205260409020600381015480831115610dcf57824210610db5578160020154610dca565b6002820154610dca904283900383860361378e565b860195505b50506224ea0001610d82565b50610dfe60e254670de0b6b3a76400000360d454610df76136b6565b03906137ad565b610e066137c2565b8460dd5401010194505050505090565b60006001600160e01b03198216637965db0b60e01b1480610e4757506301ffc9a760e01b6001600160e01b03198316145b92915050565b6000610e588161383b565b610e60613845565b60dd6000828254610e719190615897565b90915550610e7f90506138c0565b60dc80546fffffffffffffffffffffffffffffffff19166001600160801b0384169081179091556040519081527f5499a947330efc8c6d458d51fd04d56d7e44dc1469558b2300e359963cef317e906020015b60405180910390a15050565b60c98054610eeb906158aa565b80601f0160208091040260200160405190810160405280929190818152602001828054610f17906158aa565b8015610f645780601f10610f3957610100808354040283529160200191610f64565b820191906000526020600020905b815481529060010190602001808311610f4757829003601f168201915b505050505081565b60cb546000908015610f9057610f8b610f83610d67565b84908361378e565b610f92565b825b9392505050565b33600081815260cd602090815260408083206001600160a01b038716808552925280832085905551919290917f8c5be1e5ebec7d5bd14f71427d1e84f3dd0314c0f7b2291e5b200ac8c7c3b92590610ff49086815260200190565b60405180910390a350600192915050565b60cb546000908015610f9057610f8b8161101d610d67565b859190613926565b60dd5460de54600091908281831061103f5760d854611043565b60d9545b60da5490915060009061107f9061106790600160481b900463ffffffff16426158e4565b61107190846158f7565b61107a9061590e565b613954565b61109190670de0b6b3a764000061592a565b905061109d81856137ad565b6110b96110b283670de0b6b3a76400006158e4565b85906137ad565b6110c39190615897565b94505050505090565b60006110d6613acb565b846000036110f75760405163774257f760e01b815260040160405180910390fd5b60da5461110c90879060ff1660036000613add565b600086815260d160205260408120906111258289613c79565b60db54835460018501549293506000926111d6926001600160a01b03169163df635f3d918d918d91611155611025565b6040516001600160e01b031960e088901b1681526004810195909552602485019390935260448401919091526064830152608482015260a401602060405180830381865afa1580156111ab573d6000803e3d6000fd5b505050506040513d601f19601f820116820180604052508101906111cf919061594a565b89906137ad565b90506111e28189615897565b93508684111561120557604051632c1b6b4160e21b815260040160405180910390fd5b60e3546001600160a01b0316801561127357604051636c912dad60e01b81526001600160a01b038781166004830152821690636c912dad90602401600060405180830381600087803b15801561125a57600080fd5b505af115801561126e573d6000803e3d6000fd5b505050505b61127d8686613cfa565b6000611289858b613d73565b9050801561131d5760008160d3546112a19190615897565b90506112b36112ae613db0565b613ea3565b60dc546112ee906112dc90600160801b90046001600160801b0316670de0b6b3a7640000615963565b60dd54906001600160801b03166137ad565b60d4546112fb9083615897565b111561131957604051622d41ad60e31b815260040160405180910390fd5b60d3555b5060008a815260d0602090815260408083206001600160a01b038a16845290915281208054909103611377576001600160a01b038716600090815260d2602052604090206001810154611370908d613ee1565b6001909101555b6000806113bb61138686613fd0565b604080516080810182528a54815260018b0154602082015260028b01549181019190915260038a01546060820152908e613ffd565b909250905081156113e057818760020160008282546113da9190615897565b90915550505b6113e98161404b565b60405180604001604052808d85600001546114049190615897565b81526020018685600101546114199190615897565b905260008e815260d0602090815260408083206001600160a01b038e168452825282208351815592015160019092019190915560dd8054889550909350909150611464908490615897565b909155505060408051338152602081018b90529081018390526001600160a01b0380881691908916908c907f66866b472f27d55d69496091bbd651907b2fb1041b3eeaca6e565ae5b5af40139060600160405180910390a46114c46138c0565b6114cd8a614079565b604051637b9d893160e01b81523060048201526001600160a01b0387811660248301527f00000000000000000000000000000000000000000000000000000000000000001690637b9d893190604401600060405180830381600087803b15801561153657600080fd5b505af115801561154a573d6000803e3d6000fd5b506115849250506001600160a01b037f0000000000000000000000000000000000000000000000000000000000000000169050888b6140c8565b5050505095945050505050565b6001600160a01b038116600090815260d260209081526040822060d6546001820154919290919081901c9063ffffffff165b811561166857600182161561164d57600081815260d0602090815260408083206001600160a01b038a1684529091528120600181015481549192916116089190615897565b90506116148188615897565b96508242111561164a5761163d8561162c85426158e4565b61163691906158f7565b82906137ad565b6116479088615897565b96505b50505b60019190911c906116616224ea0082615897565b90506115c3565b600284015480156116895761167c81611cbe565b6116869087615897565b95505b5050505050919050565b60007f00000000000000000000000000000000000000000000000000000000000000006001600160a01b031663a3883db530866116cf866121d2565b6040518463ffffffff1660e01b81526004016116ed93929190615983565b60006040518083038186803b15801561170557600080fd5b505afa158015611719573d6000803e3d6000fd5b505060e3546001600160a01b0316915050801561180057604051630149e46f60e01b81526001600160a01b038681166004830152821690630149e46f90602401600060405180830381600087803b15801561177357600080fd5b505af1158015611787573d6000803e3d6000fd5b50505050836001600160a01b0316856001600160a01b03161461180057604051630149e46f60e01b81526001600160a01b038581166004830152821690630149e46f90602401600060405180830381600087803b1580156117e757600080fd5b505af11580156117fb573d6000803e3d6000fd5b505050505b61180b858585614117565b95945050505050565b600061181f8161383b565b60da805460ff191660ff84169081179091556040519081527f23c0170203096819aed8a13739fe91ce445ec92a7e2aa228081b5e45ee582c8090602001610ed2565b600061186c8161383b565b60e180546001600160a01b0319166001600160a01b03851690811790915560e28390556040518381527fd471a80a3a5fd21dfce2b1b7c88bbea4684ab90254a4e47345ac344d566788729060200160405180910390a2505050565b6000828152606560205260409020600101546118e28161383b565b6118ec83836141f7565b505050565b60006118fb613acb565b8360000361191c576040516356316e8760e01b815260040160405180910390fd5b60da5461193190869060ff1660036000613add565b600085815260d1602052604081209061194a8288613c79565b60d75460408051608081018252855481526001860154602082015260028601549181019190915260038501546060820152919250600091829161198f91908a9061427d565b909250905061199e8289615897565b9450868510156119c157604051632c1b6b4160e21b815260040160405180910390fd5b6119cb84896142d0565b60d360008282546119dc91906158e4565b909155506119ec90508183615897565b8460020160008282546119ff91906158e4565b925050819055508060d56000828254611a189190615897565b9091555050600089815260cf602090815260408083206001600160a01b038a16845290915281208054909103611a6f576001600160a01b038716600090815260d2602052604090208054611a6c908c613ee1565b90555b88816000016000828254611a839190615897565b9250508190555082816001016000828254611a9e9190615897565b925050819055508360dd6000828254611ab79190615897565b9091555050604080518a8152602081018590526001600160a01b0389169133918d917fd9900507c64720c1a5e11858a42769b599616268b832495aa6afe8b9dc566e76910160405180910390a4611b0c6138c0565b611b158a614079565b611b4a6001600160a01b037f00000000000000000000000000000000000000000000000000000000000000001633308c614301565b5050505050949350505050565b60007f00000000000000000000000000000000000000000000000000000000000000004614611b8d57611b8861434e565b905090565b507f000000000000000000000000000000000000000000000000000000000000000090565b6001600160a01b0381163314611bc757600080fd5b611bd182826143e8565b5050565b6000611bdf613acb565b60da54611bf490869060ff1660036002613add565b611c0285858585600161444f565b9050611c0c6138c0565b611c416001600160a01b037f000000000000000000000000000000000000000000000000000000000000000016333084614301565b949350505050565b7f65d7a28e3265b37a6474929f336521b332c1681b933f6cb9f3376673440d862a611c738161383b565b611c7b6147c5565b50565b6000611c898161383b565b60d78290556040518281527f08b437f29bc93f50025290193a680338033c3fccb93cf0ef95788eba3f003e2690602001610ed2565b60df546000908015610f9057610f8b611cd56136b6565b849083613926565b6000611ce7613acb565b6001600160a01b0384163303611d10576040516344511af160e01b815260040160405180910390fd5b60405163042dcf6b60e31b81523060048201526001600160a01b0383811660248301528581166044830152606482018590527f0000000000000000000000000000000000000000000000000000000000000000169063216e7b5890608401602060405180830381865afa158015611d8b573d6000803e3d6000fd5b505050506040513d601f19601f82011682018060405250810190611daf919061594a565b925082600003611dd25760405163685e923560e01b815260040160405180910390fd5b6001600160a01b038416600090815260d2602090815260409091206001810154909181901c9063ffffffff165b8115801590611e0d57508515155b15611f21576001821615611f0657600081421015611e4657611e338288898b600061444f565b9050611e3f81886158e4565b9650611ef8565b600082815260d0602090815260408083206001600160a01b038c168452909152812060018101548154611e799190615897565b9150506000611ea160d6548542611e9091906158e4565b611e9a91906158f7565b83906137ad565b611eab9083615897565b9050888111611eba5788611ec5565b611ec589838361378e565b925082600003611ed85760009850611ef5565b611ee684848b8d600061444f565b9250611ef2838a6158e4565b98505b50505b611f028186615897565b9450505b60019190911c90611f1a6224ea0082615897565b9050611dff565b5050600084118015611f37575060008160020154115b15611f6e576000611f47856131b2565b90508015611f6c576000611f5b8288614812565b509050611f688185615897565b9350505b505b604051636e1b003160e01b81523060048201526001600160a01b03848116602483015286811660448301526064820184905260009182917f00000000000000000000000000000000000000000000000000000000000000001690636e1b0031906084016040805180830381865afa158015611fed573d6000803e3d6000fd5b505050506040513d601f19601f8201168201806040525081019061201191906159a7565b915091508160d560008282546120279190615897565b9091555050306001600160a01b0386160361204d5761204830338984614974565b6120b7565b60405163b2a02ff160e01b81526001600160a01b0386169063b2a02ff19061207d9033908b908690600401615983565b600060405180830381600087803b15801561209757600080fd5b505af11580156120ab573d6000803e3d6000fd5b505050506120b76138c0565b60408051858152602081018490529081018290526001600160a01b03808716919089169033907f67bb48f97d82192848c24158abf58ec614777328e19655e0a219652b773fd1db9060600160405180910390a46040516311fd52e160e01b81526001600160a01b0388811660048301527f000000000000000000000000000000000000000000000000000000000000000016906311fd52e190602401600060405180830381600087803b15801561216d57600080fd5b505af1158015612181573d6000803e3d6000fd5b505050506121c8333084876121969190615897565b6001600160a01b037f000000000000000000000000000000000000000000000000000000000000000016929190614301565b5050509392505050565b6000610e4782610f6c565b60006121e88161383b565b6121f0614b09565b60d883905560d982905560408051848152602081018490527fd09fee08a2915f9ac9a77197b21a3e275d34ec9542f569eb15b95ce8f7fe2808910160405180910390a1505050565b600061224383613783565b90508060000361225257600080fd5b6122876001600160a01b037f000000000000000000000000000000000000000000000000000000000000000016333086614301565b6122918282614b34565b60408051848152602081018390526001600160a01b0384169133917fdcbc1c05240f31ff3ad067ef1ee35ce4997762752e3a095284754544f4c709d7910160405180910390a3610e478382614bac565b60df546000908015610f9057610f8b8161101d6136b6565b600080612304613acb565b61230e8484614812565b909250905061231b6138c0565b6123506001600160a01b037f000000000000000000000000000000000000000000000000000000000000000016333085614301565b9250929050565b7f65d7a28e3265b37a6474929f336521b332c1681b933f6cb9f3376673440d862a6123818161383b565b611c7b614c06565b60006123948161383b565b60db80546001600160a01b0319166001600160a01b0384161790556123b76138c0565b6040516001600160a01b038316907f7902cd1307c545e3f5782172612372bf997a93698917ced12b2f83d86e347d0c90600090a25050565b60009182526065602090815260408084206001600160a01b0393909316845291905290205460ff1690565b336001600160a01b037f00000000000000000000000000000000000000000000000000000000000000001614612463576040516317568c8f60e21b815260040160405180910390fd5b61246b613845565b60dd600082825461247c9190615897565b90915550506001600160a01b038116600090815260d260209081526040822060d55460018201549193909290919081901c9063ffffffff165b81156125f35760018216156125d857600081815260d0602090815260408083206001600160a01b038a1684529091528120600181015481549192916124fa9190615897565b90508086106125d55761250d81876158e4565b95506125198186615897565b8254600085815260d1602052604090209196506125369190614c43565b60d3600082825461254791906158e4565b9091555050600083815260d0602090815260408083206001600160a01b038c16845290915281208181556001908101919091558701546125879084614c67565b600188015560408051828152602081018390526001600160a01b038a1691339186917ff17fce321dd9fb005136a80c0bfb3789e455b7a70be9eb8922f1ad20a80d1a33910160405180910390a45b50505b60019190911c906125ec6224ea0082615897565b90506124b5565b600085600201541180156126125750600061260d856131b2565b945084115b156126345760006126238588614812565b5090506126308185615897565b9350505b8215612690578260d5600082825461264c91906158e4565b90915550506040518381526001600160a01b038716907fde0e3a281fa92ee953a13c5bd96dcaf07b10c6b9f42c65d0e3752c855caa6e7c9060200160405180910390a25b6126986138c0565b505050505050565b60006126ab83612f5a565b90506126e26001600160a01b037f000000000000000000000000000000000000000000000000000000000000000016333084614301565b6126ec8284614b34565b60408051828152602081018590526001600160a01b0384169133917fdcbc1c05240f31ff3ad067ef1ee35ce4997762752e3a095284754544f4c709d7910160405180910390a3610e478184614bac565b60ca8054610eeb906158aa565b600054610100900460ff16158080156127695750600054600160ff909116105b806127835750303b158015612783575060005460ff166001145b61278c57600080fd5b6000805460ff1916600117905580156127af576000805461ff0019166101001790555b6127b7614d29565b6127bf614d3d565b60007f00000000000000000000000000000000000000000000000000000000000000006001600160a01b03166395d89b416040518163ffffffff1660e01b8152600401600060405180830381865afa15801561281f573d6000803e3d6000fd5b505050506040513d6000823e601f3d908101601f1916820160405261284791908101906159e1565b90508060405160200161285a9190615a8e565b60405160208183030381529060405260c990816128779190615b04565b50806040516020016128899190615bc4565b60405160208183030381529060405260ca90816128a69190615b04565b5060da805468ffffffffffffffff0019166101004263ffffffff1690810268ffffffff0000000000191691909117600160281b82021763ffffffff60481b1916600160481b919091021790556128fd6000336141f7565b6129068a611814565b61290f89610e4d565b61291888612389565b61292187612d74565b61292a86611c7e565b6129338561365d565b61293d84846121dd565b508015612984576000805461ff0019169055604051600181527f7f26b83ff96e1f2b6a682f133852f6798a09c465da95921460cefb38474024989060200160405180910390a15b505050505050505050565b6000846000036129b25760405163b8cb621960e01b815260040160405180910390fd5b60da546129c790879060ff1660036002613add565b600086815260d160205260408120906129e08289613c79565b600089815260cf602090815260408083206001600160a01b0389168452825291829020825180840190935280548084526001909101549183018290529293509091612a2b9190615897565b881115612a465760208101518151612a439190615897565b97505b88421015612b125760db5483546001850154612b0b926001600160a01b03169163df635f3d918d918d91612a78611025565b6040516001600160e01b031960e088901b1681526004810195909552602485019390935260448401919091526064830152608482015260a401602060405180830381865afa158015612ace573d6000803e3d6000fd5b505050506040513d601f19601f82011682018060405250810190612af2919061594a565b612b0490670de0b6b3a7640000615897565b8990614d59565b9350612b16565b8793505b86841015612b3757604051632c1b6b4160e21b815260040160405180910390fd5b612b418585613cfa565b604080518082019091528151815260208083015190820152600090612b7290612b6a908b614d6e565b518590614db6565b60d354612b7f9190615897565b905060dd5460d45482612b929190615897565b1115612bb057604051622d41ad60e31b815260040160405180910390fd5b60d355600080612c00612bcb612bc6888d6158e4565b613fd0565b604080516080810182528854815260018901546020820152600289015491810191909152600388015460608201529088613ffd565b9150915081856002016000828254612c189190615897565b90915550612c2790508161404b565b612c31838b614dfb565b506020830151835117600003612c865760008b815260cf602090815260408083206001600160a01b038b168452825280832083815560010183905560d290915290208054612c7f908d614c67565b9055612cb7565b60008b815260cf602090815260408083206001600160a01b038b168452825290912084518155908401516001909101555b8360dd6000828254612cc99190615897565b909155505060408051338152602081018c90529081018790526001600160a01b0380891691908a16908d907fe57dbac0e7c42ad5f3b0fadb9c065565377cf771054fca70d35c96e01f9ec53c9060600160405180910390a4612d296138c0565b612d328b614079565b612d666001600160a01b037f00000000000000000000000000000000000000000000000000000000000000001689886140c8565b505050505095945050505050565b6000612d7f8161383b565b60d68290556040518281527fdb0ebfb2503f7c16b45577ebbf6c7d6b99b6e8aaf6652b156e36d5d6654a3a5e90602001610ed2565b60007f00000000000000000000000000000000000000000000000000000000000000006001600160a01b031663a3883db53033612df0866121d2565b6040518463ffffffff1660e01b8152600401612e0e93929190615983565b60006040518083038186803b158015612e2657600080fd5b505afa158015612e3a573d6000803e3d6000fd5b505060e3546001600160a01b03169150508015612f1f57604051630149e46f60e01b81523360048201526001600160a01b03821690630149e46f90602401600060405180830381600087803b158015612e9257600080fd5b505af1158015612ea6573d6000803e3d6000fd5b50505050836001600160a01b0316336001600160a01b031614612f1f57604051630149e46f60e01b81526001600160a01b038581166004830152821690630149e46f90602401600060405180830381600087803b158015612f0657600080fd5b505af1158015612f1a573d6000803e3d6000fd5b505050505b611c418484614e5c565b600080612f34613acb565b61230e612f40856131b2565b84614812565b612f4e613acb565b6118ec33848484614974565b60cb546000908015610f9057610f8b611cd5610d67565b60405163a3883db560e01b81526000906001600160a01b037f0000000000000000000000000000000000000000000000000000000000000000169063a3883db590612fc490309086908990600401615983565b60006040518083038186803b158015612fdc57600080fd5b505afa158015612ff0573d6000803e3d6000fd5b505060e3546001600160a01b0316915050801561306357604051630149e46f60e01b81526001600160a01b038481166004830152821690630149e46f90602401600060405180830381600087803b15801561304a57600080fd5b505af115801561305e573d6000803e3d6000fd5b505050505b61306e858585614ec2565b91506130786138c0565b509392505050565b60007f00000000000000000000000000000000000000000000000000000000000000006001600160a01b031663a3883db530846130bc886121d2565b6040518463ffffffff1660e01b81526004016130da93929190615983565b60006040518083038186803b1580156130f257600080fd5b505afa158015613106573d6000803e3d6000fd5b505060e3546001600160a01b0316915050801561317957604051630149e46f60e01b81526001600160a01b038481166004830152821690630149e46f90602401600060405180830381600087803b15801561316057600080fd5b505af1158015613174573d6000803e3d6000fd5b505050505b61306e858585614fd0565b600061318f8161383b565b5060e380546001600160a01b0319166001600160a01b0392909216919091179055565b60df546000908015610f9057610f8b816131ca6136b6565b85919061378e565b60cb546000908015610f9057610f8b816131ca610d67565b6001600160a01b038116600090815260cc6020526040812054610e4790610f6c565b4284101561321957600080fd5b60006001613225611b57565b6001600160a01b038a8116600081815260ce602090815260409182902080546001810190915582517f6e71edae12b1b97f4d1f60370fef10105fa2faae0126114a169c64845d6126c98184015280840194909452938d166060840152608083018c905260a083019390935260c08083018b90528151808403909101815260e08301909152805192019190912061190160f01b6101008301526101028201929092526101228101919091526101420160408051601f198184030181528282528051602091820120600084529083018083525260ff871690820152606081018590526080810184905260a0016020604051602081039080840390855afa158015613331573d6000803e3d6000fd5b5050604051601f1901519150506001600160a01b038116158015906133675750876001600160a01b0316816001600160a01b0316145b61337057600080fd5b6001600160a01b03908116600090815260cd602090815260408083208a8516808552908352928190208990555188815291928a16917f8c5be1e5ebec7d5bd14f71427d1e84f3dd0314c0f7b2291e5b200ac8c7c3b925910160405180910390a350505050505050565b60006133e3613acb565b6133ed8285613cfa565b6133f86112ae613db0565b613401846122e1565b905060008460d4546134139190615897565b60d481905560dc54909150613444906112dc90600160801b90046001600160801b0316670de0b6b3a7640000615963565b8160d3546134529190615897565b111561347057604051622d41ad60e31b815260040160405180910390fd5b60e3546001600160a01b031680156134de57604051636c912dad60e01b81526001600160a01b038581166004830152821690636c912dad90602401600060405180830381600087803b1580156134c557600080fd5b505af11580156134d9573d6000803e3d6000fd5b505050505b8260df60008282546134f09190615897565b90915550506001600160a01b038416600090815260d2602052604081206002018054859290613520908490615897565b909155505060408051878152602081018590526001600160a01b03808716929088169133917f96558a334f4759f0e7c423d68c84721860bd8fbf94ddc4e55158ecb125ad04b5910160405180910390a46135786138c0565b604051637b9d893160e01b81523060048201526001600160a01b0385811660248301527f00000000000000000000000000000000000000000000000000000000000000001690637b9d893190604401600060405180830381600087803b1580156135e157600080fd5b505af11580156135f5573d6000803e3d6000fd5b5061362f9250506001600160a01b037f000000000000000000000000000000000000000000000000000000000000000016905086886140c8565b50509392505050565b6000828152606560205260409020600101546136538161383b565b6118ec83836143e8565b60006136688161383b565b60dc80546001600160801b03908116600160801b918516918202179091556040519081527fc197c4ec4c97f824717acfad017c2a16643adc8874798a0899da42c6b5ebf9bf90602001610ed2565b60d45460dd546000919082816136cd5760006136d7565b6136d783836150eb565b60da54909150600090613777906110b2906136ff90600160281b900463ffffffff16426158e4565b60db546040516342543a3360e11b8152600481018790526301e13380916001600160a01b0316906384a8746690602401602060405180830381865afa15801561374c573d6000803e3d6000fd5b505050506040513d601f19601f82011682018060405250810190613770919061594a565b919061378e565b90506110c38185615897565b6000610e47826131d2565b8282028115158415858304851417166137a657600080fd5b0492915050565b6000610f928383670de0b6b3a764000061378e565b60da5460009081906137df90610100900463ffffffff16426158e4565b9050806000036137f157600091505090565b60da546138359082906138219061380f906224ea009060ff166158f7565b60dc546001600160801b0316906137ad565b61382b9084615897565b60d554919061378e565b91505090565b611c7b8133615100565b600061384f6137c2565b90508060d5600082825461386391906158e4565b909155505060da805464ffffffff0019166101004263ffffffff811691909102919091179091556040519081527fe24d78f24f27ad7740c08c83f439e4c144df201bfd8f5c4c93e3e0898248b1bb9060200160405180910390a190565b60cb5460dd5460df5460d45460d5546040805142815260208101969096528501939093526060840191909152608083015260a08201527f7a71b92e3ef471c5ad18359e076f3df1c563d92e9ea1e33aa4761dbbc9b7ae409060c0015b60405180910390a1565b82820281151584158583048514171661393e57600080fd5b6001826001830304018115150290509392505050565b6000680248ce36a70cb26b3e19821361396f57506000919050565b680755bf798b4a1bf1e5821261398457600080fd5b6503782dace9d9604e83901b059150600060606bb17217f7d1cf79abc9e3b39884821b056001605f1b01901d6bb17217f7d1cf79abc9e3b39881029093036c240c330e9fb2d9cbaf0fd5aafb1981018102606090811d6d0277594991cfc85f6e2461837cd9018202811d6d1a521255e34f6a5061b25ef1c9c319018202811d6db1bbb201f443cf962f1a1d3db4a5018202811d6e02c72388d9f74f51a9331fed693f1419018202811d6e05180bb14799ab47a8a8cb2a527d57016d02d16720577bd19bf614176fe9ea6c10fe68e7fd37d0007b713f765084018402831d9081019084016d01d3967ed30fc4f89c02bab5708119010290911d6e0587f503bb6ea29d25fcb740196450019091026d360d7aeea093263ecc6e0ecb291760621b010574029d9dc38563c32e5c2f6dc192ee70ef65f9978af30260c3939093039290921c92915050565b60975460ff1615613adb57600080fd5b565b6000613aec6224ea0086615bef565b15613af957506001613b4c565b428511613b0857506002613b4c565b613b1860ff85166224ea006158f7565b613b256224ea0042615bef565b613b2f90426158e4565b613b399190615897565b851115613b4857506004613b4c565b5060035b826004811115613b5e57613b5e615c03565b816004811115613b7057613b70615c03565b14158015613ba05750816004811115613b8b57613b8b615c03565b816004811115613b9d57613b9d615c03565b14155b15613c72576000826004811115613bb957613bb9615c03565b03613c0d57806004811115613bd057613bd0615c03565b836004811115613be257613be2615c03565b604051631a71301d60e11b815260ff9283166004820152911660248201526044015b60405180910390fd5b806004811115613c1f57613c1f615c03565b836004811115613c3157613c31615c03565b836004811115613c4357613c43615c03565b604051637f2cef9960e01b815260ff938416600482015291831660248301529091166044820152606401613c04565b5050505050565b600382015460009042831115613cce5760028401544260038601819055613cb790613ca59084906158e4565b613caf84876158e4565b83919061378e565b9250613cc383826158e4565b600286015550613cf3565b828103613cde5760009150613cf3565b60038401839055600284018054600090915591505b5092915050565b336001600160a01b03831614611bd1576001600160a01b038216600090815260cd6020908152604080832033845290915290205460001981146118ec57613d4082611005565b613d4a90826158e4565b6001600160a01b038416600090815260cd60209081526040808320338452909152902055505050565b815460009081613d838483615897565b9050613d9c613d96838760010154615147565b8261515d565b613da690826158e4565b9455509192915050565b60d45460dd54600091908281613dc7576000613dd1565b613dd183836150eb565b60da54909150600090613df9906110b2906136ff90600160281b900463ffffffff16426158e4565b9050613e058185615897565b9350613e1c60e254826137ad90919063ffffffff16565b945084613e298285615897565b613e3391906158e4565b60dd5560d484905560da805468ffffffff00000000001916600160281b4263ffffffff8116919091029190911790915560408051918252602082018490527f582b129106eba35020853cdae92ceb413a0227befcce433b67b23a630219b35f910160405180910390a15050505090565b8015611c7b5760e154613ec7906001600160a01b0316613ec283613783565b614b34565b8060dd6000828254613ed99190615897565b909155505050565b600082600003613ef957506401000000008117610e47565b63ffffffff831680831015613f785760006224ea00613f1885846158e4565b613f229190615c19565b9050613f30816101006158e4565b85901c15613f515760405163293cc41f60e21b815260040160405180910390fd5b613f5c816020615897565b602086901c901b94508484176401000000001792505050610e47565b60006224ea00613f8883866158e4565b613f929190615c19565b905060df811115613fb65760405163293cc41f60e21b815260040160405180910390fd5b613fc1816020615897565b6001901b851792505050610e47565b600080613fe860e254846137ad90919063ffffffff16565b9050613ff381613ea3565b610f9281846158e4565b60008082156140325761402d61401b6140158761516c565b8561515d565b61402590856158e4565b85908561378e565b614035565b60005b905061404181856158e4565b9150935093915050565b806000036140565750565b60e2541561406757611c7b81613ea3565b8060d56000828254613ed99190615897565b600081815260d160209081526040918290206002015482514281529182015282917fa2e6044136bec58e0605f40ac11a7bf87f1a8bdf3e2588b11b2cfae5acd9109f910160405180910390a250565b600060405163a9059cbb60e01b6000528360045282602452602060006044600080895af13d15601f3d116001600051141617169150600060605280604052508061411157600080fd5b50505050565b6001600160a01b038316600090815260cd6020908152604080832033845290915281205460001981146141735761414e83826158e4565b6001600160a01b038616600090815260cd602090815260408083203384529091529020555b6001600160a01b038516600090815260cc60205260408120805485929061419b9084906158e4565b90915550506001600160a01b03808516600081815260cc602052604090819020805487019055519091871690600080516020615d46833981519152906141e49087815260200190565b60405180910390a3506001949350505050565b61420182826123ef565b611bd15760008281526065602090815260408083206001600160a01b03851684529091529020805460ff191660011790556142393390565b6001600160a01b0316816001600160a01b0316837f2f8788117e7eff1d82e926ec794901d17c78024a50270940304540a733656f0d60405160405180910390a45050565b600080600061428b8661516c565b905080156142c7576142ac6142a0868361515d565b6040880151908361378e565b92506142b883856137ad565b91506142c482846158e4565b92505b50935093915050565b81546001830154600091906142e58482615897565b600186015561180b6142f7838361515d565b61401590846158e4565b60006040516323b872dd60e01b6000528460045283602452826044526020600060646000808a5af13d15601f3d1160016000511416171691506000606052806040525080613c7257600080fd5b60007f8b73c3c69bb8fe3d512ecc4cf759cc79239f7b179b0ffacaa9a75d522b39400f60c96040516143809190615c2d565b6040805191829003822060208301939093528101919091527fc89efdaa54c0f20c7adf612882df0950f5a951637e0307cdcb4c672f298b8bc660608201524660808201523060a082015260c00160405160208183030381529060405280519060200120905090565b6143f282826123ef565b15611bd15760008281526065602090815260408083206001600160a01b0385168085529252808320805460ff1916905551339285917ff6391f5c32d9c69d2a47ea670b442974b53935d1edc7fd64eb21e047a839171b9190a45050565b6000846000036144725760405163685e923560e01b815260040160405180910390fd5b600086815260d1602052604081209061448b8289613c79565b600089815260d0602090815260408083206001600160a01b038a168452825280832081518083019092528054808352600190910154928201839052939450926144df918b916144da9190615897565b61515d565b6040805180820190915283518152602080850151908201529091506000906145079083614d6e565b5160e3549091506001600160a01b0316801561457957604051636c912dad60e01b81526001600160a01b038a81166004830152821690636c912dad90602401600060405180830381600087803b15801561456057600080fd5b505af1158015614574573d6000803e3d6000fd5b505050505b8b42101561462457871561461c5760d7546040805160808101825288548152600189015460208201526002890154918101919091526003880154606082015260009182916145c891869061427d565b90925090506145d78183615897565b8860020160008282546145ea91906158e4565b925050819055508060d560008282546146039190615897565b90915550614613905082866158e4565b98505050614673565b829650614673565b60d654614646906146358e426158e4565b61463f91906158f7565b84906137ad565b6146509084615897565b965061465c83886158e4565b60d5600082825461466d9190615897565b90915550505b8987111561469457604051632c1b6b4160e21b815260040160405180910390fd5b61469e8683614c43565b60d360008282546146af91906158e4565b909155506146bf90508484614dfb565b50602084015184511760000361471d5760008c815260d0602090815260408083206001600160a01b038d1684528252808320838155600190810184905560d290925290912090810154614712908e614c67565b60019091015561474e565b60008c815260d0602090815260408083206001600160a01b038d168452825290912085518155908501516001909101555b8460dd60008282546147609190615897565b909155505060408051888152602081018590526001600160a01b038b169133918f917ff17fce321dd9fb005136a80c0bfb3789e455b7a70be9eb8922f1ad20a80d1a33910160405180910390a46147b68c614079565b50505050505095945050505050565b6147cd61518b565b6097805460ff191690557f5db9ee0a495bf2e6ff9c91a7834c1ba4fdd244a5e8aa4e537bd38aeae4b073aa335b6040516001600160a01b03909116815260200161391c565b6000806148206112ae613db0565b6001600160a01b038316600090815260d2602052604090206002810154614847868261515d565b925061485283611cbe565b9350836000036148755760405163685e923560e01b815260040160405180910390fd5b60e3546001600160a01b031680156148e357604051636c912dad60e01b81526001600160a01b038781166004830152821690636c912dad90602401600060405180830381600087803b1580156148ca57600080fd5b505af11580156148de573d6000803e3d6000fd5b505050505b8460d460008282546148f591906158e4565b90915550614905905084836158e4565b83600201819055508360df600082825461491f91906158e4565b909155505060408051868152602081018690526001600160a01b0388169133917fe4a1ae657f49cb1fb1c7d3a94ae6093565c4c8c0e03de488f79c377c3c3a24e0910160405180910390a35050509250929050565b806000036149955760405163b8cb621960e01b815260040160405180910390fd5b60405163070b773960e51b81526001600160a01b0385811660048301523060248301527f0000000000000000000000000000000000000000000000000000000000000000169063e16ee7209060440160006040518083038186803b1580156149fc57600080fd5b505afa158015614a10573d6000803e3d6000fd5b505050506000614a1f82611005565b9050614a2b828261519a565b614a35838261520d565b60408051838152602081018390526001600160a01b03808616929087169133917ffbde797d201c681b91056529119e0b02407c7bb96a4a2c75c01fc9667232c8db910160405180910390a4826001600160a01b0316846001600160a01b03167f9e2db63c5a9dc5d08222447d76570029e4f2f3074c8aa4f1c511fa658506c71084604051614ac591815260200190565b60405180910390a3614ad56138c0565b613c726001600160a01b037f00000000000000000000000000000000000000000000000000000000000000001685846140c8565b614b11611025565b60de5560da805463ffffffff60481b1916600160481b4263ffffffff1602179055565b60e3546001600160a01b03168015614ba257604051630149e46f60e01b81526001600160a01b038481166004830152821690630149e46f90602401600060405180830381600087803b158015614b8957600080fd5b505af1158015614b9d573d6000803e3d6000fd5b505050505b6118ec8383615277565b614bb4613acb565b614bbc614b09565b6000614bc6613db0565b90506000614bd2613845565b9050614bde8482615897565b60dd6000828254614bef9190615897565b90915550614bfe905082613ea3565b6141116138c0565b614c0e613acb565b6097805460ff191660011790557f62e78cea01bee320cd4e420270b5ea74000d11b0c9f74754ebdbfc544b05a2586147fa3390565b8154600183015460009190614c5884836158e4565b855561180b6142f7838361515d565b6000821580614c7c5750816401000000001783145b15614c8957506000610e47565b63ffffffff8316808303614cf757602184901c60015b60018216158015614caf57508115155b15614cc057600191821c9101614c9f565b6020614ccc8282615897565b9690961c90951b9485614ce26224ea00836158f7565b614cec9087615897565b179350505050610e47565b6224ea00614d0582856158e4565b614d0f9190615c19565b614d1a906020615897565b6001901b198416915050610e47565b600054610100900460ff16613adb57600080fd5b600054610100900460ff16614d5157600080fd5b613adb6152c9565b6000610f9283670de0b6b3a76400008461378e565b604080518082019091526000808252602082015282516020840151600091614d9a916131ca9082615897565b8085529050614da981846158e4565b6020850152509192915050565b815460018301546000919082614dcc85836158e4565b9050614dd8818461515d565b614de2838561515d565b614dec91906158e4565b60019096015550929392505050565b604080518082019091526000808252602082015260208301518351600091614e2291615897565b90506000614e3084836158e4565b8551909150614e419082908461378e565b808652614e4e90826158e4565b602086015250929392505050565b33600090815260cc6020526040812080548391908390614e7d9084906158e4565b90915550506001600160a01b038316600081815260cc602052604090819020805485019055513390600080516020615d4683398151915290610ff49086815260200190565b6000614ecd84611005565b9050336001600160a01b03831614614f3d576001600160a01b038216600090815260cd602090815260408083203384529091529020546000198114614f3b57614f1682826158e4565b6001600160a01b038416600090815260cd602090815260408083203384529091529020555b505b614f47848261519a565b614f51828261520d565b60408051858152602081018390526001600160a01b03808516929086169133917ffbde797d201c681b91056529119e0b02407c7bb96a4a2c75c01fc9667232c8db910160405180910390a4610f926001600160a01b037f00000000000000000000000000000000000000000000000000000000000000001684866140c8565b6000336001600160a01b03831614615040576001600160a01b038216600090815260cd60209081526040808320338452909152902054600019811461503e5761501985826158e4565b6001600160a01b038416600090815260cd602090815260408083203384529091529020555b505b615049846121d2565b90508060000361505857600080fd5b615062818561519a565b61506c828561520d565b60408051828152602081018690526001600160a01b03808516929086169133917ffbde797d201c681b91056529119e0b02407c7bb96a4a2c75c01fc9667232c8db910160405180910390a4610f926001600160a01b037f00000000000000000000000000000000000000000000000000000000000000001684836140c8565b6000610f9283670de0b6b3a764000084613926565b61510a82826123ef565b611bd157615117816152e9565b6151228360206152fb565b604051602001615133929190615ca3565b604051602081830303815290604052600080fd5b60008183116151565781610f92565b5090919050565b60008183106151565781610f92565b8051602082015160009190615181828261515d565b611c4190836158e4565b60975460ff16613adb57600080fd5b6151a2614b09565b6151ad6112ae613db0565b60006151b7613845565b90506000838260dd546151ca9190615897565b6151d491906158e4565b90508060d45460d3546151e79190615897565b111561520557604051622d41ad60e31b815260040160405180910390fd5b60dd55505050565b6001600160a01b038216600090815260cc6020526040812080548392906152359084906158e4565b909155505060cb805482900390556040518181526000906001600160a01b03841690600080516020615d46833981519152906020015b60405180910390a35050565b8060cb60008282546152899190615897565b90915550506001600160a01b038216600081815260cc6020908152604080832080548601905551848152600080516020615d46833981519152910161526b565b600054610100900460ff166152dd57600080fd5b6097805460ff19169055565b6060610e476001600160a01b03831660145b6060600061530a8360026158f7565b615315906002615897565b67ffffffffffffffff81111561532d5761532d6159cb565b6040519080825280601f01601f191660200182016040528015615357576020820181803683370190505b509050600360fc1b8160008151811061537257615372615d18565b60200101906001600160f81b031916908160001a905350600f60fb1b816001815181106153a1576153a1615d18565b60200101906001600160f81b031916908160001a90535060006153c58460026158f7565b6153d0906001615897565b90505b6001811115615448576f181899199a1a9b1b9c1cb0b131b232b360811b85600f166010811061540457615404615d18565b1a60f81b82828151811061541a5761541a615d18565b60200101906001600160f81b031916908160001a90535060049490941c9361544181615d2e565b90506153d3565b508315610f9257600080fd5b6001600160a01b0381168114611c7b57600080fd5b60006020828403121561547b57600080fd5b8135610f9281615454565b60006020828403121561549857600080fd5b81356001600160e01b031981168114610f9257600080fd5b80356001600160801b03811681146154c757600080fd5b919050565b6000602082840312156154de57600080fd5b610f92826154b0565b60005b838110156155025781810151838201526020016154ea565b50506000910152565b602081526000825180602084015261552a8160408501602087016154e7565b601f01601f19169190910160400192915050565b60006020828403121561555057600080fd5b5035919050565b6000806040838503121561556a57600080fd5b823561557581615454565b946020939093013593505050565b600080600080600060a0868803121561559b57600080fd5b85359450602086013593506040860135925060608601356155bb81615454565b915060808601356155cb81615454565b809150509295509295909350565b6000806000606084860312156155ee57600080fd5b83356155f981615454565b9250602084013561560981615454565b929592945050506040919091013590565b803560ff811681146154c757600080fd5b60006020828403121561563d57600080fd5b610f928261561a565b6000806040838503121561565957600080fd5b82359150602083013561566b81615454565b809150509250929050565b6000806000806080858703121561568c57600080fd5b84359350602085013592506040850135915060608501356156ac81615454565b939692955090935050565b6000806000606084860312156156cc57600080fd5b83356156d781615454565b92506020840135915060408401356156ee81615454565b809150509250925092565b6000806040838503121561570c57600080fd5b50508035926020909101359150565b600080600080600080600080610100898b03121561573857600080fd5b6157418961561a565b975061574f60208a016154b0565b9650604089013561575f81615454565b9550606089013594506080890135935061577b60a08a016154b0565b925060c0890135915060e089013590509295985092959890939650565b6000806000606084860312156157ad57600080fd5b8335925060208401356157bf81615454565b915060408401356156ee81615454565b600080600080600080600060e0888a0312156157ea57600080fd5b87356157f581615454565b9650602088013561580581615454565b955060408801359450606088013593506158216080890161561a565b925060a0880135915060c0880135905092959891949750929550565b6000806040838503121561585057600080fd5b823561585b81615454565b9150602083013561566b81615454565b634e487b7160e01b600052601260045260246000fd5b634e487b7160e01b600052601160045260246000fd5b80820180821115610e4757610e47615881565b600181811c908216806158be57607f821691505b6020821081036158de57634e487b7160e01b600052602260045260246000fd5b50919050565b81810381811115610e4757610e47615881565b8082028115828204841417610e4757610e47615881565b6000600160ff1b820161592357615923615881565b5060000390565b8181036000831280158383131683831282161715613cf357613cf3615881565b60006020828403121561595c57600080fd5b5051919050565b6001600160801b03828116828216039080821115613cf357613cf3615881565b6001600160a01b039384168152919092166020820152604081019190915260600190565b600080604083850312156159ba57600080fd5b505080516020909101519092909150565b634e487b7160e01b600052604160045260246000fd5b6000602082840312156159f357600080fd5b815167ffffffffffffffff80821115615a0b57600080fd5b818401915084601f830112615a1f57600080fd5b815181811115615a3157615a316159cb565b604051601f8201601f19908116603f01168101908382118183101715615a5957615a596159cb565b81604052828152876020848701011115615a7257600080fd5b615a838360208301602088016154e7565b979650505050505050565b67032bc30b1ba363c960c51b815260008251615ab18160088501602087016154e7565b9190910160080192915050565b601f8211156118ec57600081815260208120601f850160051c81016020861015615ae55750805b601f850160051c820191505b8181101561269857828155600101615af1565b815167ffffffffffffffff811115615b1e57615b1e6159cb565b615b3281615b2c84546158aa565b84615abe565b602080601f831160018114615b675760008415615b4f5750858301515b600019600386901b1c1916600185901b178555612698565b600085815260208120601f198616915b82811015615b9657888601518255948401946001909101908401615b77565b5085821015615bb45787850151600019600388901b60f8161c191681555b5050505050600190811b01905550565b6265786160e81b815260008251615be28160038501602087016154e7565b9190910160030192915050565b600082615bfe57615bfe61586b565b500690565b634e487b7160e01b600052602160045260246000fd5b600082615c2857615c2861586b565b500490565b6000808354615c3b816158aa565b60018281168015615c535760018114615c6857615c97565b60ff1984168752821515830287019450615c97565b8760005260208060002060005b85811015615c8e5781548a820152908401908201615c75565b50505082870194505b50929695505050505050565b7f416363657373436f6e74726f6c3a206163636f756e7420000000000000000000815260008351615cdb8160178501602088016154e7565b7001034b99036b4b9b9b4b733903937b6329607d1b6017918401918201528351615d0c8160288401602088016154e7565b01602801949350505050565b634e487b7160e01b600052603260045260246000fd5b600081615d3d57615d3d615881565b50600019019056feddf252ad1be2c89b69c2b068fc378daa952ba7f163c4a11628f55a4df523b3efa2646970667358221220d00dbe691cf901acd5bfa8a28c0195b02a2816d231fe60596044b2e748b3b0bb64736f6c63430008110033",
  "devdoc": {
    "events": {
      "AccumulatorAccrual(uint256)": {
        "params": {
          "timestamp": "current timestamp."
        }
      },
      "BackupFeeRateSet(uint256)": {
        "params": {
          "backupFeeRate": "rate charged to the fixed pools to be accrued by the floating depositors."
        }
      },
      "Borrow(address,address,address,uint256,uint256)": {
        "params": {
          "assets": "amount of assets that were borrowed.",
          "borrower": "address which will be repaying the borrowed assets.",
          "caller": "address which borrowed the asset.",
          "receiver": "address that received the borrowed assets.",
          "shares": "amount of borrow shares assigned to the account."
        }
      },
      "BorrowAtMaturity(uint256,address,address,address,uint256,uint256)": {
        "params": {
          "assets": "amount of the asset that were borrowed.",
          "borrower": "address which will be repaying the borrowed assets.",
          "caller": "address which borrowed the asset.",
          "fee": "extra amount that will need to be paid at maturity.",
          "maturity": "maturity in which the account will have to repay the loan.",
          "receiver": "address that received the borrowed assets."
        }
      },
      "DampSpeedSet(uint256,uint256)": {
        "params": {
          "dampSpeedDown": "represented with 18 decimals.",
          "dampSpeedUp": "represented with 18 decimals."
        }
      },
      "DepositAtMaturity(uint256,address,address,uint256,uint256)": {
        "params": {
          "assets": "amount of the asset that were deposited.",
          "caller": "address which deposited the assets.",
          "fee": "is the extra amount that it will be collected at maturity.",
          "maturity": "maturity at which the account will be able to collect his deposit + his fee.",
          "owner": "address that will be able to withdraw the deposited assets."
        }
      },
      "EarningsAccumulatorSmoothFactorSet(uint256)": {
        "params": {
          "earningsAccumulatorSmoothFactor": "factor represented with 18 decimals."
        }
      },
      "FixedEarningsUpdate(uint256,uint256,uint256)": {
        "params": {
          "maturity": "maturity date where the earnings were updated.",
          "timestamp": "current timestamp.",
          "unassignedEarnings": "pending unassigned earnings."
        }
      },
      "FloatingDebtUpdate(uint256,uint256)": {
        "params": {
          "timestamp": "current timestamp.",
          "utilization": "new floating utilization."
        }
      },
      "InterestRateModelSet(address)": {
        "params": {
          "interestRateModel": "new interest rate model to be used to calculate rates."
        }
      },
      "Liquidate(address,address,uint256,uint256,address,uint256)": {
        "params": {
          "assets": "amount of the asset that were repaid.",
          "borrower": "address which had the original debt.",
          "lendersAssets": "incentive paid to lenders.",
          "receiver": "address which repaid the previously borrowed amount.",
          "seizeMarket": "address of the asset that were seized by the liquidator.",
          "seizedAssets": "amount seized of the collateral."
        }
      },
      "MarketUpdate(uint256,uint256,uint256,uint256,uint256,uint256)": {
        "params": {
          "earningsAccumulator": "earnings accumulator.",
          "floatingAssets": "total floating supply assets.",
          "floatingBorrowShares": "total floating borrow shares.",
          "floatingDebt": "total floating borrow assets.",
          "floatingDepositShares": "total floating supply shares.",
          "timestamp": "current timestamp."
        }
      },
      "MaxFuturePoolsSet(uint256)": {
        "params": {
          "maxFuturePools": "represented with 0 decimals."
        }
      },
      "PenaltyRateSet(uint256)": {
        "params": {
          "penaltyRate": "penaltyRate percentage per second represented with 18 decimals."
        }
      },
      "Repay(address,address,uint256,uint256)": {
        "params": {
          "assets": "amount of assets that was repaid.",
          "borrower": "address which had the original debt.",
          "caller": "address which repaid the previously borrowed amount.",
          "shares": "amount of borrow shares that were subtracted from the account's accountability."
        }
      },
      "RepayAtMaturity(uint256,address,address,uint256,uint256)": {
        "params": {
          "assets": "amount that was repaid.",
          "borrower": "address which had the original debt.",
          "caller": "address which repaid the previously borrowed amount.",
          "maturity": "maturity where the account repaid its borrowed amounts.",
          "positionAssets": "amount of the debt that was covered in this repayment (penalties could have been repaid)."
        }
      },
      "ReserveFactorSet(uint256)": {
        "params": {
          "reserveFactor": "reserveFactor percentage."
        }
      },
      "Seize(address,address,uint256)": {
        "params": {
          "assets": "amount seized of the collateral.",
          "borrower": "address which had the original debt.",
          "liquidator": "address which seized this collateral."
        }
      },
      "SpreadBadDebt(address,uint256)": {
        "params": {
          "assets": "amount that was subtracted from the borrower's debt and spread to the `earningsAccumulator`.",
          "borrower": "address which was cleared from bad debt."
        }
      },
      "TreasurySet(address,uint256)": {
        "params": {
          "treasury": "address of the treasury that will receive the minted eTokens.",
          "treasuryFeeRate": "represented with 18 decimals."
        }
      },
      "WithdrawAtMaturity(uint256,address,address,address,uint256,uint256)": {
        "params": {
          "assets": "amount of assets withdrawn (can include a discount for early withdraw).",
          "caller": "address which withdraw the asset.",
          "maturity": "maturity where the account withdraw its deposits.",
          "owner": "address which had the assets withdrawn.",
          "positionAssets": "position size reduced.",
          "receiver": "address which will be collecting the assets."
        }
      }
    },
    "kind": "dev",
    "methods": {
      "accountSnapshot(address)": {
        "params": {
          "account": "account to return status snapshot in the specified maturity date."
        },
        "returns": {
          "_0": "the amount deposited to the floating pool and the amount owed to floating and fixed pools."
        }
      },
      "borrow(uint256,address,address)": {
        "params": {
          "assets": "amount to be sent to receiver and repaid by borrower.",
          "borrower": "address that will repay the borrowed assets.",
          "receiver": "address that will receive the borrowed assets."
        },
        "returns": {
          "borrowShares": "shares corresponding to the borrowed assets."
        }
      },
      "borrowAtMaturity(uint256,uint256,uint256,address,address)": {
        "params": {
          "assets": "amount to be sent to receiver and repaid by borrower.",
          "borrower": "address that will repay the borrowed assets.",
          "maturity": "maturity date for repayment.",
          "maxAssets": "maximum amount of debt that the account is willing to accept.",
          "receiver": "address that will receive the borrowed assets."
        },
        "returns": {
          "assetsOwed": "total amount of assets (principal + fee) to be repaid at maturity."
        }
      },
      "clearBadDebt(address)": {
        "details": "Can only be called from the auditor.",
        "params": {
          "borrower": "account with insufficient collateral to be cleared the debt."
        }
      },
      "constructor": {
        "custom:oz-upgrades-unsafe-allow": "constructor"
      },
      "depositAtMaturity(uint256,uint256,uint256,address)": {
        "params": {
          "assets": "amount to receive from the msg.sender.",
          "maturity": "maturity date where the assets will be deposited.",
          "minAssetsRequired": "minimum amount of assets required by the depositor for the transaction to be accepted.",
          "receiver": "address that will be able to withdraw the deposited assets."
        },
        "returns": {
          "positionAssets": "total amount of assets (principal + fee) to be withdrawn at maturity."
        }
      },
      "fixedPoolBalance(uint256)": {
        "params": {
          "maturity": "maturity date of the fixed pool."
        },
        "returns": {
          "_0": "borrowed and supplied amount of the fixed pool."
        }
      },
      "fixedPoolBorrowed(uint256)": {
        "params": {
          "maturity": "maturity date of the fixed pool."
        },
        "returns": {
          "_0": "borrowed amount of the fixed pool."
        }
      },
      "getRoleAdmin(bytes32)": {
        "details": "Returns the admin role that controls `role`. See {grantRole} and {revokeRole}. To change a role's admin, use {_setRoleAdmin}."
      },
      "grantRole(bytes32,address)": {
        "details": "Grants `role` to `account`. If `account` had not been already granted `role`, emits a {RoleGranted} event. Requirements: - the caller must have ``role``'s admin role. May emit a {RoleGranted} event."
      },
      "hasRole(bytes32,address)": {
        "details": "Returns `true` if `account` has been granted `role`."
      },
      "initialize(uint8,uint128,address,uint256,uint256,uint128,uint256,uint256)": {
        "details": "can only be called once."
      },
      "liquidate(address,uint256,address)": {
        "details": "Msg.sender liquidates borrower's position(s) and repays a certain amount of debt for the floating pool, or/and for multiple fixed pools, seizing a portion of borrower's collateral.",
        "params": {
          "borrower": "account that has an outstanding debt across floating or fixed pools.",
          "maxAssets": "maximum amount of debt that the liquidator is willing to accept. (it can be less)",
          "seizeMarket": "market from which the collateral will be seized to give to the liquidator."
        },
        "returns": {
          "repaidAssets": "actual amount repaid."
        }
      },
      "paused()": {
        "details": "Returns true if the contract is paused, and false otherwise."
      },
      "previewBorrow(uint256)": {
        "params": {
          "assets": "amount of assets to borrow."
        },
        "returns": {
          "_0": "amount of shares that will be asigned to the account after the borrow."
        }
      },
      "previewDebt(address)": {
        "params": {
          "borrower": "account to return status snapshot for fixed and floating borrows."
        },
        "returns": {
          "debt": "the total debt, denominated in number of assets."
        }
      },
      "previewFloatingAssetsAverage()": {
        "returns": {
          "_0": "projected `floatingAssetsAverage`."
        }
      },
      "previewRefund(uint256)": {
        "params": {
          "shares": "amount of shares to subtract from caller's accountability."
        },
        "returns": {
          "_0": "amount of assets that will be repaid."
        }
      },
      "previewRepay(uint256)": {
        "params": {
          "assets": "amount of assets to repay."
        },
        "returns": {
          "_0": "amount of shares that will be subtracted from the account after the repay."
        }
      },
      "redeem(uint256,address,address)": {
        "details": "Makes sure that the owner doesn't have shortfall after withdrawing.",
        "params": {
          "owner": "address which owns the floating pool assets.",
          "receiver": "address to which the assets will be transferred.",
          "shares": "amount of shares to be redeemed for underlying asset."
        },
        "returns": {
          "assets": "amount of underlying asset that was withdrawn."
        }
      },
      "refund(uint256,address)": {
        "params": {
          "borrowShares": "shares to be subtracted from the borrower's accountability.",
          "borrower": "address of the account that has the debt."
        },
        "returns": {
          "actualShares": "actual subtracted shares from the borrower's accountability.",
          "assets": "subtracted assets from the borrower's accountability."
        }
      },
      "renounceRole(bytes32,address)": {
        "details": "Revokes `role` from the calling account. Roles are often managed via {grantRole} and {revokeRole}: this function's purpose is to provide a mechanism for accounts to lose their privileges if they are compromised (such as when a trusted device is misplaced). If the calling account had been revoked `role`, emits a {RoleRevoked} event. Requirements: - the caller must be `account`. May emit a {RoleRevoked} event."
      },
      "repay(uint256,address)": {
        "params": {
          "assets": "assets to be subtracted from the borrower's accountability.",
          "borrower": "address of the account that has the debt."
        },
        "returns": {
          "actualRepay": "the actual amount that should be transferred into the protocol.",
          "borrowShares": "subtracted shares from the borrower's accountability."
        }
      },
      "repayAtMaturity(uint256,uint256,uint256,address)": {
        "params": {
          "borrower": "address of the account that has the debt.",
          "maturity": "maturity date where the assets will be repaid.",
          "maxAssets": "maximum amount of debt that the account is willing to accept to be repaid.",
          "positionAssets": "amount to be paid for the borrower's debt."
        },
        "returns": {
          "actualRepayAssets": "the actual amount that was transferred into the protocol."
        }
      },
      "revokeRole(bytes32,address)": {
        "details": "Revokes `role` from `account`. If `account` had been granted `role`, emits a {RoleRevoked} event. Requirements: - the caller must have ``role``'s admin role. May emit a {RoleRevoked} event."
      },
      "seize(address,address,uint256)": {
        "details": "Public function for liquidator to seize borrowers assets in the floating pool. This function will only be called from another Market, on `liquidation` calls. That's why msg.sender needs to be passed to the internal function (to be validated as a Market).",
        "params": {
          "assets": "amount to be removed from borrower's possession.",
          "borrower": "address from which the assets will be seized.",
          "liquidator": "address which will receive the seized assets."
        }
      },
      "setBackupFeeRate(uint256)": {
        "params": {
          "backupFeeRate_": "percentage amount represented with 18 decimals."
        }
      },
      "setDampSpeed(uint256,uint256)": {
        "params": {
          "down": "damp speed down, represented with 18 decimals.",
          "up": "damp speed up, represented with 18 decimals."
        }
      },
      "setEarningsAccumulatorSmoothFactor(uint128)": {
        "params": {
          "earningsAccumulatorSmoothFactor_": "represented with 18 decimals."
        }
      },
      "setInterestRateModel(address)": {
        "details": "The floating debt update is disabled due to interest rate model interface changes/incompatibility. Should be re-enabled before the next interest rate model update.",
        "params": {
          "interestRateModel_": "new interest rate model."
        }
      },
      "setMaxFuturePools(uint8)": {
        "details": "If value is decreased, VALID maturities will become NOT_READY.",
        "params": {
          "futurePools": "number of pools to be active at the same time."
        }
      },
      "setPenaltyRate(uint256)": {
        "params": {
          "penaltyRate_": "percentage represented with 18 decimals."
        }
      },
      "setReserveFactor(uint128)": {
        "params": {
          "reserveFactor_": "parameter represented with 18 decimals."
        }
      },
      "setRewardsController(address)": {
        "params": {
          "rewardsController_": "new rewards controller."
        }
      },
      "setTreasury(address,uint256)": {
        "params": {
          "treasuryFeeRate_": "represented with 18 decimals.",
          "treasury_": "address of the treasury that will receive the minted eTokens."
        }
      },
      "supportsInterface(bytes4)": {
        "details": "See {IERC165-supportsInterface}."
      },
      "totalAssets()": {
        "returns": {
          "_0": "actual floatingAssets plus earnings to be accrued at current timestamp."
        }
      },
      "totalFloatingBorrowAssets()": {
        "returns": {
          "_0": "actual floating debt plus projected interest."
        }
      },
      "transfer(address,uint256)": {
        "details": "It's expected that this function can't be paused to prevent freezing account funds. Makes sure that the caller doesn't have shortfall after transferring.",
        "params": {
          "shares": "amount of shares to be transferred.",
          "to": "address to which the assets will be transferred."
        }
      },
      "transferFrom(address,address,uint256)": {
        "details": "It's expected that this function can't be paused to prevent freezing account funds. Makes sure that `from` address doesn't have shortfall after transferring.",
        "params": {
          "from": "address from which the assets will be transferred.",
          "shares": "amount of shares to be transferred.",
          "to": "address to which the assets will be transferred."
        }
      },
      "withdraw(uint256,address,address)": {
        "details": "Makes sure that the owner doesn't have shortfall after withdrawing.",
        "params": {
          "assets": "amount of underlying to be withdrawn.",
          "owner": "address which owns the floating pool assets.",
          "receiver": "address to which the assets will be transferred."
        },
        "returns": {
          "shares": "amount of shares redeemed for underlying asset."
        }
      },
      "withdrawAtMaturity(uint256,uint256,uint256,address,address)": {
        "details": "It's expected that this function can't be paused to prevent freezing account funds.",
        "params": {
          "maturity": "maturity date where the assets will be withdrawn.",
          "minAssetsRequired": "minimum amount required by the account (if discount included for early withdrawal).",
          "owner": "address that previously deposited the assets.",
          "positionAssets": "position size to be reduced.",
          "receiver": "address that will receive the withdrawn assets."
        },
        "returns": {
          "assetsDiscounted": "amount of assets withdrawn (can include a discount for early withdraw)."
        }
      }
    },
    "stateVariables": {
      "__gap": {
        "custom:oz-renamed-from": "floatingUtilization",
        "details": "gap from deprecated state."
      },
      "auditor": {
        "custom:oz-upgrades-unsafe-allow": "state-variable-immutable"
      }
    },
    "version": 1
  },
  "userdoc": {
    "events": {
      "AccumulatorAccrual(uint256)": {
        "notice": "Emitted when accumulator distributes earnings."
      },
      "BackupFeeRateSet(uint256)": {
        "notice": "Emitted when the backupFeeRate parameter is changed by admin."
      },
      "Borrow(address,address,address,uint256,uint256)": {
        "notice": "Event emitted when an account borrows amount of assets from a floating pool."
      },
      "BorrowAtMaturity(uint256,address,address,address,uint256,uint256)": {
        "notice": "Emitted when an account borrows amount of an asset from a certain maturity date."
      },
      "DampSpeedSet(uint256,uint256)": {
        "notice": "Emitted when the damp speeds are changed by admin."
      },
      "DepositAtMaturity(uint256,address,address,uint256,uint256)": {
        "notice": "Emitted when an account deposits an amount of an asset to a certain fixed rate pool, collecting fees at the end of the period."
      },
      "EarningsAccumulatorSmoothFactorSet(uint256)": {
        "notice": "Emitted when the earningsAccumulatorSmoothFactor is changed by admin."
      },
      "FixedEarningsUpdate(uint256,uint256,uint256)": {
        "notice": "Emitted when the earnings of a maturity are updated."
      },
      "FloatingDebtUpdate(uint256,uint256)": {
        "notice": "Emitted when the floating debt is updated."
      },
      "InterestRateModelSet(address)": {
        "notice": "Emitted when the interestRateModel is changed by admin."
      },
      "Liquidate(address,address,uint256,uint256,address,uint256)": {
        "notice": "Emitted when an account's position had a liquidation."
      },
      "MarketUpdate(uint256,uint256,uint256,uint256,uint256,uint256)": {
        "notice": "Emitted when market state is updated."
      },
      "MaxFuturePoolsSet(uint256)": {
        "notice": "Emitted when the maxFuturePools is changed by admin."
      },
      "PenaltyRateSet(uint256)": {
        "notice": "Emitted when the penaltyRate is changed by admin."
      },
      "Repay(address,address,uint256,uint256)": {
        "notice": "Emitted when an account repays amount of assets to a floating pool."
      },
      "RepayAtMaturity(uint256,address,address,uint256,uint256)": {
        "notice": "Emitted when an account repays its borrows after maturity."
      },
      "ReserveFactorSet(uint256)": {
        "notice": "Emitted when the reserveFactor is changed by admin."
      },
      "Seize(address,address,uint256)": {
        "notice": "Emitted when an account's collateral has been seized."
      },
      "SpreadBadDebt(address,uint256)": {
        "notice": "Emitted when an account is cleared from bad debt."
      },
      "TreasurySet(address,uint256)": {
        "notice": "Emitted when the treasury variables are changed by admin."
      },
      "WithdrawAtMaturity(uint256,address,address,address,uint256,uint256)": {
        "notice": "Emitted when an account withdraws from a fixed rate pool."
      }
    },
    "kind": "user",
    "methods": {
      "accountSnapshot(address)": {
        "notice": "Gets current snapshot for an account across all maturities."
      },
      "accounts(address)": {
        "notice": "Tracks fixed deposit and borrow map and floating borrow shares of an account."
      },
      "backupFeeRate()": {
        "notice": "Rate charged to the fixed pool to be retained by the floating pool for initially providing liquidity."
      },
      "borrow(uint256,address,address)": {
        "notice": "Borrows a certain amount from the floating pool."
      },
      "borrowAtMaturity(uint256,uint256,uint256,address,address)": {
        "notice": "Borrows a certain amount from a maturity."
      },
      "clearBadDebt(address)": {
        "notice": "Clears floating and fixed debt for an account spreading the losses to the `earningsAccumulator`."
      },
      "dampSpeedDown()": {
        "notice": "Damp speed factor to update `floatingAssetsAverage` when `floatingAssets` is lower."
      },
      "dampSpeedUp()": {
        "notice": "Damp speed factor to update `floatingAssetsAverage` when `floatingAssets` is higher."
      },
      "depositAtMaturity(uint256,uint256,uint256,address)": {
        "notice": "Deposits a certain amount to a maturity."
      },
      "earningsAccumulator()": {
        "notice": "Accumulated earnings from extraordinary sources to be gradually distributed."
      },
      "earningsAccumulatorSmoothFactor()": {
        "notice": "Factor used for gradual accrual of earnings to the floating pool."
      },
      "fixedBorrowPositions(uint256,address)": {
        "notice": "Tracks account's fixed borrow positions by maturity, account and position."
      },
      "fixedDepositPositions(uint256,address)": {
        "notice": "Tracks account's fixed deposit positions by maturity, account and position."
      },
      "fixedPoolBalance(uint256)": {
        "notice": "Retrieves a fixed pool's borrowed and supplied amount."
      },
      "fixedPoolBorrowed(uint256)": {
        "notice": "Retrieves a fixed pool's borrowed amount."
      },
      "fixedPools(uint256)": {
        "notice": "Tracks fixed pools state by maturity."
      },
      "floatingAssets()": {
        "notice": "Amount of floating assets deposited to the pool."
      },
      "floatingAssetsAverage()": {
        "notice": "Average of the floating assets to get fixed borrow rates and prevent rate manipulation."
      },
      "floatingBackupBorrowed()": {
        "notice": "Amount of assets lent by the floating pool to the fixed pools."
      },
      "floatingDebt()": {
        "notice": "Amount of assets lent by the floating pool to accounts."
      },
      "initialize(uint8,uint128,address,uint256,uint256,uint128,uint256,uint256)": {
        "notice": "Initializes the contract."
      },
      "interestRateModel()": {
        "notice": "Interest rate model contract used to get the borrow rates."
      },
      "lastAccumulatorAccrual()": {
        "notice": "Last time the accumulator distributed earnings."
      },
      "lastAverageUpdate()": {
        "notice": "Last time the floating assets average was updated."
      },
      "lastFloatingDebtUpdate()": {
        "notice": "Last time the floating debt was updated."
      },
      "liquidate(address,uint256,address)": {
        "notice": "Liquidates undercollateralized fixed/floating (or both) position(s)."
      },
      "maxFuturePools()": {
        "notice": "Number of fixed pools to be active at the same time."
      },
      "pause()": {
        "notice": "Sets the pause state to true in case of emergency, triggered by an authorized account."
      },
      "penaltyRate()": {
        "notice": "Rate per second to be charged to delayed fixed pools borrowers after maturity."
      },
      "previewBorrow(uint256)": {
        "notice": "Simulates the effects of a borrow at the current time, given current contract conditions."
      },
      "previewDebt(address)": {
        "notice": "Gets all borrows and penalties for an account."
      },
      "previewFloatingAssetsAverage()": {
        "notice": "Gets the current `floatingAssetsAverage` without updating the storage variable."
      },
      "previewRefund(uint256)": {
        "notice": "Simulates the effects of a refund at the current time, given current contract conditions."
      },
      "previewRepay(uint256)": {
        "notice": "Simulates the effects of a repay at the current time, given current contract conditions."
      },
      "redeem(uint256,address,address)": {
        "notice": "Redeems the owner's floating pool assets to the receiver address."
      },
      "refund(uint256,address)": {
        "notice": "Repays a certain amount of shares to the floating pool."
      },
      "repay(uint256,address)": {
        "notice": "Repays a certain amount of assets to the floating pool."
      },
      "repayAtMaturity(uint256,uint256,uint256,address)": {
        "notice": "Repays a certain amount to a maturity."
      },
      "reserveFactor()": {
        "notice": "Percentage factor that represents the liquidity reserves that can't be borrowed."
      },
      "rewardsController()": {
        "notice": "Address of the rewards controller that will accrue rewards for accounts operating with the Market."
      },
      "seize(address,address,uint256)": {
        "notice": "Public function to seize a certain amount of assets."
      },
      "setBackupFeeRate(uint256)": {
        "notice": "Sets the rate charged to the fixed depositors that the floating pool suppliers will retain for initially providing liquidity."
      },
      "setDampSpeed(uint256,uint256)": {
        "notice": "Sets the damp speed used to update the floatingAssetsAverage."
      },
      "setEarningsAccumulatorSmoothFactor(uint128)": {
        "notice": "Sets the factor used when smoothly accruing earnings to the floating pool."
      },
      "setInterestRateModel(address)": {
        "notice": "Sets the interest rate model to be used to calculate rates."
      },
      "setMaxFuturePools(uint8)": {
        "notice": "Sets the protocol's max future pools for fixed borrowing and lending."
      },
      "setPenaltyRate(uint256)": {
        "notice": "Sets the penalty rate per second."
      },
      "setReserveFactor(uint128)": {
        "notice": "Sets the percentage that represents the liquidity reserves that can't be borrowed."
      },
      "setRewardsController(address)": {
        "notice": "Sets the rewards controller to update account rewards when operating with the Market."
      },
      "setTreasury(address,uint256)": {
        "notice": "Sets the treasury variables."
      },
      "totalAssets()": {
        "notice": "Calculates the floating pool balance plus earnings to be accrued at current timestamp from maturities and accumulator."
      },
      "totalFloatingBorrowAssets()": {
        "notice": "Calculates the total floating debt, considering elapsed time since last update and current interest rate."
      },
      "totalFloatingBorrowShares()": {
        "notice": "Total amount of floating borrow shares assigned to floating borrow accounts."
      },
      "transfer(address,uint256)": {
        "notice": "Moves amount of shares from the caller's account to `to`."
      },
      "transferFrom(address,address,uint256)": {
        "notice": "Moves amount of shares from `from` to `to` using the allowance mechanism."
      },
      "treasury()": {
        "notice": "Address of the treasury that will receive the allocated earnings."
      },
      "treasuryFeeRate()": {
        "notice": "Rate to be charged by the treasury to floating and fixed borrows."
      },
      "unpause()": {
        "notice": "Sets the pause state to false when threat is gone, triggered by an authorized account."
      },
      "withdraw(uint256,address,address)": {
        "notice": "Withdraws the owner's floating pool assets to the receiver address."
      },
      "withdrawAtMaturity(uint256,uint256,uint256,address,address)": {
        "notice": "Withdraws a certain amount from a maturity."
      }
    },
    "version": 1
  },
  "storageLayout": {
    "storage": [
      {
        "astId": 415,
        "contract": "contracts/Market.sol:Market",
        "label": "_initialized",
        "offset": 0,
        "slot": "0",
        "type": "t_uint8"
      },
      {
        "astId": 418,
        "contract": "contracts/Market.sol:Market",
        "label": "_initializing",
        "offset": 1,
        "slot": "0",
        "type": "t_bool"
      },
      {
        "astId": 1029,
        "contract": "contracts/Market.sol:Market",
        "label": "__gap",
        "offset": 0,
        "slot": "1",
        "type": "t_array(t_uint256)50_storage"
      },
      {
        "astId": 1248,
        "contract": "contracts/Market.sol:Market",
        "label": "__gap",
        "offset": 0,
        "slot": "51",
        "type": "t_array(t_uint256)50_storage"
      },
      {
        "astId": 39,
        "contract": "contracts/Market.sol:Market",
        "label": "_roles",
        "offset": 0,
        "slot": "101",
        "type": "t_mapping(t_bytes32,t_struct(RoleData)34_storage)"
      },
      {
        "astId": 334,
        "contract": "contracts/Market.sol:Market",
        "label": "__gap",
        "offset": 0,
        "slot": "102",
        "type": "t_array(t_uint256)49_storage"
      },
      {
        "astId": 598,
        "contract": "contracts/Market.sol:Market",
        "label": "_paused",
        "offset": 0,
        "slot": "151",
        "type": "t_bool"
      },
      {
        "astId": 703,
        "contract": "contracts/Market.sol:Market",
        "label": "__gap",
        "offset": 0,
        "slot": "152",
        "type": "t_array(t_uint256)49_storage"
      },
      {
        "astId": 15767,
        "contract": "contracts/Market.sol:Market",
        "label": "name",
        "offset": 0,
        "slot": "201",
        "type": "t_string_storage"
      },
      {
        "astId": 15769,
        "contract": "contracts/Market.sol:Market",
        "label": "symbol",
        "offset": 0,
        "slot": "202",
        "type": "t_string_storage"
      },
      {
        "astId": 15773,
        "contract": "contracts/Market.sol:Market",
        "label": "totalSupply",
        "offset": 0,
        "slot": "203",
        "type": "t_uint256"
      },
      {
        "astId": 15777,
        "contract": "contracts/Market.sol:Market",
        "label": "balanceOf",
        "offset": 0,
        "slot": "204",
        "type": "t_mapping(t_address,t_uint256)"
      },
      {
        "astId": 15783,
        "contract": "contracts/Market.sol:Market",
        "label": "allowance",
        "offset": 0,
        "slot": "205",
        "type": "t_mapping(t_address,t_mapping(t_address,t_uint256))"
      },
      {
        "astId": 15791,
        "contract": "contracts/Market.sol:Market",
        "label": "nonces",
        "offset": 0,
        "slot": "206",
        "type": "t_mapping(t_address,t_uint256)"
      },
      {
        "astId": 4785,
        "contract": "contracts/Market.sol:Market",
        "label": "fixedDepositPositions",
        "offset": 0,
        "slot": "207",
        "type": "t_mapping(t_uint256,t_mapping(t_address,t_struct(Position)15189_storage))"
      },
      {
        "astId": 4793,
        "contract": "contracts/Market.sol:Market",
        "label": "fixedBorrowPositions",
        "offset": 0,
        "slot": "208",
        "type": "t_mapping(t_uint256,t_mapping(t_address,t_struct(Position)15189_storage))"
      },
      {
        "astId": 4799,
        "contract": "contracts/Market.sol:Market",
        "label": "fixedPools",
        "offset": 0,
        "slot": "209",
        "type": "t_mapping(t_uint256,t_struct(Pool)15184_storage)"
      },
      {
        "astId": 4805,
        "contract": "contracts/Market.sol:Market",
        "label": "accounts",
        "offset": 0,
        "slot": "210",
        "type": "t_mapping(t_address,t_struct(Account)8429_storage)"
      },
      {
        "astId": 4808,
        "contract": "contracts/Market.sol:Market",
        "label": "floatingBackupBorrowed",
        "offset": 0,
        "slot": "211",
        "type": "t_uint256"
      },
      {
        "astId": 4811,
        "contract": "contracts/Market.sol:Market",
        "label": "floatingDebt",
        "offset": 0,
        "slot": "212",
        "type": "t_uint256"
      },
      {
        "astId": 4814,
        "contract": "contracts/Market.sol:Market",
        "label": "earningsAccumulator",
        "offset": 0,
        "slot": "213",
        "type": "t_uint256"
      },
      {
        "astId": 4817,
        "contract": "contracts/Market.sol:Market",
        "label": "penaltyRate",
        "offset": 0,
        "slot": "214",
        "type": "t_uint256"
      },
      {
        "astId": 4820,
        "contract": "contracts/Market.sol:Market",
        "label": "backupFeeRate",
        "offset": 0,
        "slot": "215",
        "type": "t_uint256"
      },
      {
        "astId": 4823,
        "contract": "contracts/Market.sol:Market",
        "label": "dampSpeedUp",
        "offset": 0,
        "slot": "216",
        "type": "t_uint256"
      },
      {
        "astId": 4826,
        "contract": "contracts/Market.sol:Market",
        "label": "dampSpeedDown",
        "offset": 0,
        "slot": "217",
        "type": "t_uint256"
      },
      {
        "astId": 4829,
        "contract": "contracts/Market.sol:Market",
        "label": "maxFuturePools",
        "offset": 0,
        "slot": "218",
        "type": "t_uint8"
      },
      {
        "astId": 4832,
        "contract": "contracts/Market.sol:Market",
        "label": "lastAccumulatorAccrual",
        "offset": 1,
        "slot": "218",
        "type": "t_uint32"
      },
      {
        "astId": 4835,
        "contract": "contracts/Market.sol:Market",
        "label": "lastFloatingDebtUpdate",
        "offset": 5,
        "slot": "218",
        "type": "t_uint32"
      },
      {
        "astId": 4838,
        "contract": "contracts/Market.sol:Market",
        "label": "lastAverageUpdate",
        "offset": 9,
        "slot": "218",
        "type": "t_uint32"
      },
      {
        "astId": 4842,
        "contract": "contracts/Market.sol:Market",
        "label": "interestRateModel",
        "offset": 0,
        "slot": "219",
        "type": "t_contract(InterestRateModel)4708"
      },
      {
        "astId": 4845,
        "contract": "contracts/Market.sol:Market",
        "label": "earningsAccumulatorSmoothFactor",
        "offset": 0,
        "slot": "220",
        "type": "t_uint128"
      },
      {
        "astId": 4848,
        "contract": "contracts/Market.sol:Market",
        "label": "reserveFactor",
        "offset": 16,
        "slot": "220",
        "type": "t_uint128"
      },
      {
        "astId": 4851,
        "contract": "contracts/Market.sol:Market",
        "label": "floatingAssets",
        "offset": 0,
        "slot": "221",
        "type": "t_uint256"
      },
      {
        "astId": 4854,
        "contract": "contracts/Market.sol:Market",
        "label": "floatingAssetsAverage",
        "offset": 0,
        "slot": "222",
        "type": "t_uint256"
      },
      {
        "astId": 4857,
        "contract": "contracts/Market.sol:Market",
        "label": "totalFloatingBorrowShares",
        "offset": 0,
        "slot": "223",
        "type": "t_uint256"
      },
      {
        "astId": 4860,
        "contract": "contracts/Market.sol:Market",
        "label": "__gap",
        "offset": 0,
        "slot": "224",
        "type": "t_uint256"
      },
      {
        "astId": 4863,
        "contract": "contracts/Market.sol:Market",
        "label": "treasury",
        "offset": 0,
        "slot": "225",
        "type": "t_address"
      },
      {
        "astId": 4866,
        "contract": "contracts/Market.sol:Market",
        "label": "treasuryFeeRate",
        "offset": 0,
        "slot": "226",
        "type": "t_uint256"
      },
      {
        "astId": 4870,
        "contract": "contracts/Market.sol:Market",
        "label": "rewardsController",
        "offset": 0,
        "slot": "227",
        "type": "t_contract(RewardsController)11679"
      }
    ],
    "types": {
      "t_address": {
        "encoding": "inplace",
        "label": "address",
        "numberOfBytes": "20"
      },
      "t_array(t_uint256)49_storage": {
        "base": "t_uint256",
        "encoding": "inplace",
        "label": "uint256[49]",
        "numberOfBytes": "1568"
      },
      "t_array(t_uint256)50_storage": {
        "base": "t_uint256",
        "encoding": "inplace",
        "label": "uint256[50]",
        "numberOfBytes": "1600"
      },
      "t_bool": {
        "encoding": "inplace",
        "label": "bool",
        "numberOfBytes": "1"
      },
      "t_bytes32": {
        "encoding": "inplace",
        "label": "bytes32",
        "numberOfBytes": "32"
      },
      "t_contract(InterestRateModel)4708": {
        "encoding": "inplace",
        "label": "contract InterestRateModel",
        "numberOfBytes": "20"
      },
      "t_contract(RewardsController)11679": {
        "encoding": "inplace",
        "label": "contract RewardsController",
        "numberOfBytes": "20"
      },
      "t_mapping(t_address,t_bool)": {
        "encoding": "mapping",
        "key": "t_address",
        "label": "mapping(address => bool)",
        "numberOfBytes": "32",
        "value": "t_bool"
      },
      "t_mapping(t_address,t_mapping(t_address,t_uint256))": {
        "encoding": "mapping",
        "key": "t_address",
        "label": "mapping(address => mapping(address => uint256))",
        "numberOfBytes": "32",
        "value": "t_mapping(t_address,t_uint256)"
      },
      "t_mapping(t_address,t_struct(Account)8429_storage)": {
        "encoding": "mapping",
        "key": "t_address",
        "label": "mapping(address => struct Market.Account)",
        "numberOfBytes": "32",
        "value": "t_struct(Account)8429_storage"
      },
      "t_mapping(t_address,t_struct(Position)15189_storage)": {
        "encoding": "mapping",
        "key": "t_address",
        "label": "mapping(address => struct FixedLib.Position)",
        "numberOfBytes": "32",
        "value": "t_struct(Position)15189_storage"
      },
      "t_mapping(t_address,t_uint256)": {
        "encoding": "mapping",
        "key": "t_address",
        "label": "mapping(address => uint256)",
        "numberOfBytes": "32",
        "value": "t_uint256"
      },
      "t_mapping(t_bytes32,t_struct(RoleData)34_storage)": {
        "encoding": "mapping",
        "key": "t_bytes32",
        "label": "mapping(bytes32 => struct AccessControlUpgradeable.RoleData)",
        "numberOfBytes": "32",
        "value": "t_struct(RoleData)34_storage"
      },
      "t_mapping(t_uint256,t_mapping(t_address,t_struct(Position)15189_storage))": {
        "encoding": "mapping",
        "key": "t_uint256",
        "label": "mapping(uint256 => mapping(address => struct FixedLib.Position))",
        "numberOfBytes": "32",
        "value": "t_mapping(t_address,t_struct(Position)15189_storage)"
      },
      "t_mapping(t_uint256,t_struct(Pool)15184_storage)": {
        "encoding": "mapping",
        "key": "t_uint256",
        "label": "mapping(uint256 => struct FixedLib.Pool)",
        "numberOfBytes": "32",
        "value": "t_struct(Pool)15184_storage"
      },
      "t_string_storage": {
        "encoding": "bytes",
        "label": "string",
        "numberOfBytes": "32"
      },
      "t_struct(Account)8429_storage": {
        "encoding": "inplace",
        "label": "struct Market.Account",
        "members": [
          {
            "astId": 8424,
            "contract": "contracts/Market.sol:Market",
            "label": "fixedDeposits",
            "offset": 0,
            "slot": "0",
            "type": "t_uint256"
          },
          {
            "astId": 8426,
            "contract": "contracts/Market.sol:Market",
            "label": "fixedBorrows",
            "offset": 0,
            "slot": "1",
            "type": "t_uint256"
          },
          {
            "astId": 8428,
            "contract": "contracts/Market.sol:Market",
            "label": "floatingBorrowShares",
            "offset": 0,
            "slot": "2",
            "type": "t_uint256"
          }
        ],
        "numberOfBytes": "96"
      },
      "t_struct(Pool)15184_storage": {
        "encoding": "inplace",
        "label": "struct FixedLib.Pool",
        "members": [
          {
            "astId": 15177,
            "contract": "contracts/Market.sol:Market",
            "label": "borrowed",
            "offset": 0,
            "slot": "0",
            "type": "t_uint256"
          },
          {
            "astId": 15179,
            "contract": "contracts/Market.sol:Market",
            "label": "supplied",
            "offset": 0,
            "slot": "1",
            "type": "t_uint256"
          },
          {
            "astId": 15181,
            "contract": "contracts/Market.sol:Market",
            "label": "unassignedEarnings",
            "offset": 0,
            "slot": "2",
            "type": "t_uint256"
          },
          {
            "astId": 15183,
            "contract": "contracts/Market.sol:Market",
            "label": "lastAccrual",
            "offset": 0,
            "slot": "3",
            "type": "t_uint256"
          }
        ],
        "numberOfBytes": "128"
      },
      "t_struct(Position)15189_storage": {
        "encoding": "inplace",
        "label": "struct FixedLib.Position",
        "members": [
          {
            "astId": 15186,
            "contract": "contracts/Market.sol:Market",
            "label": "principal",
            "offset": 0,
            "slot": "0",
            "type": "t_uint256"
          },
          {
            "astId": 15188,
            "contract": "contracts/Market.sol:Market",
            "label": "fee",
            "offset": 0,
            "slot": "1",
            "type": "t_uint256"
          }
        ],
        "numberOfBytes": "64"
      },
      "t_struct(RoleData)34_storage": {
        "encoding": "inplace",
        "label": "struct AccessControlUpgradeable.RoleData",
        "members": [
          {
            "astId": 31,
            "contract": "contracts/Market.sol:Market",
            "label": "members",
            "offset": 0,
            "slot": "0",
            "type": "t_mapping(t_address,t_bool)"
          },
          {
            "astId": 33,
            "contract": "contracts/Market.sol:Market",
            "label": "adminRole",
            "offset": 0,
            "slot": "1",
            "type": "t_bytes32"
          }
        ],
        "numberOfBytes": "64"
      },
      "t_uint128": {
        "encoding": "inplace",
        "label": "uint128",
        "numberOfBytes": "16"
      },
      "t_uint256": {
        "encoding": "inplace",
        "label": "uint256",
        "numberOfBytes": "32"
      },
      "t_uint32": {
        "encoding": "inplace",
        "label": "uint32",
        "numberOfBytes": "4"
      },
      "t_uint8": {
        "encoding": "inplace",
        "label": "uint8",
        "numberOfBytes": "1"
      }
    }
  }
}