{
  "address": "0x14a9Dd73855EaFc4bE4549C7B0da9C4aEf794bAd",
  "abi": [
    {
      "inputs": [
        {
          "internalType": "contract ERC20",
          "name": "asset_",
          "type": "address"
        },
        {
          "internalType": "contract Auditor",
          "name": "auditor_",
          "type": "address"
        }
      ],
      "stateMutability": "nonpayable",
      "type": "constructor"
    },
    {
      "inputs": [],
      "name": "Disagreement",
      "type": "error"
    },
    {
      "inputs": [],
      "name": "InsufficientProtocolLiquidity",
      "type": "error"
    },
    {
      "inputs": [],
      "name": "MaturityOverflow",
      "type": "error"
    },
    {
      "inputs": [],
      "name": "NotAuditor",
      "type": "error"
    },
    {
      "inputs": [],
      "name": "SelfLiquidation",
      "type": "error"
    },
    {
      "inputs": [
        {
          "internalType": "uint8",
          "name": "state",
          "type": "uint8"
        },
        {
          "internalType": "uint8",
          "name": "requiredState",
          "type": "uint8"
        }
      ],
      "name": "UnmatchedPoolState",
      "type": "error"
    },
    {
      "inputs": [
        {
          "internalType": "uint8",
          "name": "state",
          "type": "uint8"
        },
        {
          "internalType": "uint8",
          "name": "requiredState",
          "type": "uint8"
        },
        {
          "internalType": "uint8",
          "name": "alternativeState",
          "type": "uint8"
        }
      ],
      "name": "UnmatchedPoolStates",
      "type": "error"
    },
    {
      "inputs": [],
      "name": "ZeroBorrow",
      "type": "error"
    },
    {
      "inputs": [],
      "name": "ZeroDeposit",
      "type": "error"
    },
    {
      "inputs": [],
      "name": "ZeroRepay",
      "type": "error"
    },
    {
      "inputs": [],
      "name": "ZeroWithdraw",
      "type": "error"
    },
    {
      "anonymous": false,
      "inputs": [
        {
          "indexed": false,
          "internalType": "uint256",
          "name": "timestamp",
          "type": "uint256"
        }
      ],
      "name": "AccumulatorAccrual",
      "type": "event"
    },
    {
      "anonymous": false,
      "inputs": [
        {
          "indexed": true,
          "internalType": "address",
          "name": "owner",
          "type": "address"
        },
        {
          "indexed": true,
          "internalType": "address",
          "name": "spender",
          "type": "address"
        },
        {
          "indexed": false,
          "internalType": "uint256",
          "name": "amount",
          "type": "uint256"
        }
      ],
      "name": "Approval",
      "type": "event"
    },
    {
      "anonymous": false,
      "inputs": [
        {
          "indexed": false,
          "internalType": "uint256",
          "name": "backupFeeRate",
          "type": "uint256"
        }
      ],
      "name": "BackupFeeRateSet",
      "type": "event"
    },
    {
      "anonymous": false,
      "inputs": [
        {
          "indexed": true,
          "internalType": "address",
          "name": "caller",
          "type": "address"
        },
        {
          "indexed": true,
          "internalType": "address",
          "name": "receiver",
          "type": "address"
        },
        {
          "indexed": true,
          "internalType": "address",
          "name": "borrower",
          "type": "address"
        },
        {
          "indexed": false,
          "internalType": "uint256",
          "name": "assets",
          "type": "uint256"
        },
        {
          "indexed": false,
          "internalType": "uint256",
          "name": "shares",
          "type": "uint256"
        }
      ],
      "name": "Borrow",
      "type": "event"
    },
    {
      "anonymous": false,
      "inputs": [
        {
          "indexed": true,
          "internalType": "uint256",
          "name": "maturity",
          "type": "uint256"
        },
        {
          "indexed": false,
          "internalType": "address",
          "name": "caller",
          "type": "address"
        },
        {
          "indexed": true,
          "internalType": "address",
          "name": "receiver",
          "type": "address"
        },
        {
          "indexed": true,
          "internalType": "address",
          "name": "borrower",
          "type": "address"
        },
        {
          "indexed": false,
          "internalType": "uint256",
          "name": "assets",
          "type": "uint256"
        },
        {
          "indexed": false,
          "internalType": "uint256",
          "name": "fee",
          "type": "uint256"
        }
      ],
      "name": "BorrowAtMaturity",
      "type": "event"
    },
    {
      "anonymous": false,
      "inputs": [
        {
          "indexed": false,
          "internalType": "uint256",
          "name": "dampSpeedUp",
          "type": "uint256"
        },
        {
          "indexed": false,
          "internalType": "uint256",
          "name": "dampSpeedDown",
          "type": "uint256"
        }
      ],
      "name": "DampSpeedSet",
      "type": "event"
    },
    {
      "anonymous": false,
      "inputs": [
        {
          "indexed": true,
          "internalType": "address",
          "name": "caller",
          "type": "address"
        },
        {
          "indexed": true,
          "internalType": "address",
          "name": "owner",
          "type": "address"
        },
        {
          "indexed": false,
          "internalType": "uint256",
          "name": "assets",
          "type": "uint256"
        },
        {
          "indexed": false,
          "internalType": "uint256",
          "name": "shares",
          "type": "uint256"
        }
      ],
      "name": "Deposit",
      "type": "event"
    },
    {
      "anonymous": false,
      "inputs": [
        {
          "indexed": true,
          "internalType": "uint256",
          "name": "maturity",
          "type": "uint256"
        },
        {
          "indexed": true,
          "internalType": "address",
          "name": "caller",
          "type": "address"
        },
        {
          "indexed": true,
          "internalType": "address",
          "name": "owner",
          "type": "address"
        },
        {
          "indexed": false,
          "internalType": "uint256",
          "name": "assets",
          "type": "uint256"
        },
        {
          "indexed": false,
          "internalType": "uint256",
          "name": "fee",
          "type": "uint256"
        }
      ],
      "name": "DepositAtMaturity",
      "type": "event"
    },
    {
      "anonymous": false,
      "inputs": [
        {
          "indexed": false,
          "internalType": "uint256",
          "name": "earningsAccumulatorSmoothFactor",
          "type": "uint256"
        }
      ],
      "name": "EarningsAccumulatorSmoothFactorSet",
      "type": "event"
    },
    {
      "anonymous": false,
      "inputs": [
        {
          "indexed": false,
          "internalType": "uint256",
          "name": "timestamp",
          "type": "uint256"
        },
        {
          "indexed": true,
          "internalType": "uint256",
          "name": "maturity",
          "type": "uint256"
        },
        {
          "indexed": false,
          "internalType": "uint256",
          "name": "unassignedEarnings",
          "type": "uint256"
        }
      ],
      "name": "FixedEarningsUpdate",
      "type": "event"
    },
    {
      "anonymous": false,
      "inputs": [
        {
          "indexed": false,
          "internalType": "uint256",
          "name": "timestamp",
          "type": "uint256"
        },
        {
          "indexed": false,
          "internalType": "uint256",
          "name": "utilization",
          "type": "uint256"
        }
      ],
      "name": "FloatingDebtUpdate",
      "type": "event"
    },
    {
      "anonymous": false,
      "inputs": [
        {
          "indexed": false,
          "internalType": "uint8",
          "name": "version",
          "type": "uint8"
        }
      ],
      "name": "Initialized",
      "type": "event"
    },
    {
      "anonymous": false,
      "inputs": [
        {
          "indexed": true,
          "internalType": "contract InterestRateModel",
          "name": "interestRateModel",
          "type": "address"
        }
      ],
      "name": "InterestRateModelSet",
      "type": "event"
    },
    {
      "anonymous": false,
      "inputs": [
        {
          "indexed": true,
          "internalType": "address",
          "name": "receiver",
          "type": "address"
        },
        {
          "indexed": true,
          "internalType": "address",
          "name": "borrower",
          "type": "address"
        },
        {
          "indexed": false,
          "internalType": "uint256",
          "name": "assets",
          "type": "uint256"
        },
        {
          "indexed": false,
          "internalType": "uint256",
          "name": "lendersAssets",
          "type": "uint256"
        },
        {
          "indexed": true,
          "internalType": "contract Market",
          "name": "seizeMarket",
          "type": "address"
        },
        {
          "indexed": false,
          "internalType": "uint256",
          "name": "seizedAssets",
          "type": "uint256"
        }
      ],
      "name": "Liquidate",
      "type": "event"
    },
    {
      "anonymous": false,
      "inputs": [
        {
          "indexed": false,
          "internalType": "uint256",
          "name": "timestamp",
          "type": "uint256"
        },
        {
          "indexed": false,
          "internalType": "uint256",
          "name": "floatingDepositShares",
          "type": "uint256"
        },
        {
          "indexed": false,
          "internalType": "uint256",
          "name": "floatingAssets",
          "type": "uint256"
        },
        {
          "indexed": false,
          "internalType": "uint256",
          "name": "floatingBorrowShares",
          "type": "uint256"
        },
        {
          "indexed": false,
          "internalType": "uint256",
          "name": "floatingDebt",
          "type": "uint256"
        },
        {
          "indexed": false,
          "internalType": "uint256",
          "name": "earningsAccumulator",
          "type": "uint256"
        }
      ],
      "name": "MarketUpdate",
      "type": "event"
    },
    {
      "anonymous": false,
      "inputs": [
        {
          "indexed": false,
          "internalType": "uint256",
          "name": "maxFuturePools",
          "type": "uint256"
        }
      ],
      "name": "MaxFuturePoolsSet",
      "type": "event"
    },
    {
      "anonymous": false,
      "inputs": [
        {
          "indexed": false,
          "internalType": "address",
          "name": "account",
          "type": "address"
        }
      ],
      "name": "Paused",
      "type": "event"
    },
    {
      "anonymous": false,
      "inputs": [
        {
          "indexed": false,
          "internalType": "uint256",
          "name": "penaltyRate",
          "type": "uint256"
        }
      ],
      "name": "PenaltyRateSet",
      "type": "event"
    },
    {
      "anonymous": false,
      "inputs": [
        {
          "indexed": true,
          "internalType": "address",
          "name": "caller",
          "type": "address"
        },
        {
          "indexed": true,
          "internalType": "address",
          "name": "borrower",
          "type": "address"
        },
        {
          "indexed": false,
          "internalType": "uint256",
          "name": "assets",
          "type": "uint256"
        },
        {
          "indexed": false,
          "internalType": "uint256",
          "name": "shares",
          "type": "uint256"
        }
      ],
      "name": "Repay",
      "type": "event"
    },
    {
      "anonymous": false,
      "inputs": [
        {
          "indexed": true,
          "internalType": "uint256",
          "name": "maturity",
          "type": "uint256"
        },
        {
          "indexed": true,
          "internalType": "address",
          "name": "caller",
          "type": "address"
        },
        {
          "indexed": true,
          "internalType": "address",
          "name": "borrower",
          "type": "address"
        },
        {
          "indexed": false,
          "internalType": "uint256",
          "name": "assets",
          "type": "uint256"
        },
        {
          "indexed": false,
          "internalType": "uint256",
          "name": "positionAssets",
          "type": "uint256"
        }
      ],
      "name": "RepayAtMaturity",
      "type": "event"
    },
    {
      "anonymous": false,
      "inputs": [
        {
          "indexed": false,
          "internalType": "uint256",
          "name": "reserveFactor",
          "type": "uint256"
        }
      ],
      "name": "ReserveFactorSet",
      "type": "event"
    },
    {
      "anonymous": false,
      "inputs": [
        {
          "indexed": true,
          "internalType": "bytes32",
          "name": "role",
          "type": "bytes32"
        },
        {
          "indexed": true,
          "internalType": "bytes32",
          "name": "previousAdminRole",
          "type": "bytes32"
        },
        {
          "indexed": true,
          "internalType": "bytes32",
          "name": "newAdminRole",
          "type": "bytes32"
        }
      ],
      "name": "RoleAdminChanged",
      "type": "event"
    },
    {
      "anonymous": false,
      "inputs": [
        {
          "indexed": true,
          "internalType": "bytes32",
          "name": "role",
          "type": "bytes32"
        },
        {
          "indexed": true,
          "internalType": "address",
          "name": "account",
          "type": "address"
        },
        {
          "indexed": true,
          "internalType": "address",
          "name": "sender",
          "type": "address"
        }
      ],
      "name": "RoleGranted",
      "type": "event"
    },
    {
      "anonymous": false,
      "inputs": [
        {
          "indexed": true,
          "internalType": "bytes32",
          "name": "role",
          "type": "bytes32"
        },
        {
          "indexed": true,
          "internalType": "address",
          "name": "account",
          "type": "address"
        },
        {
          "indexed": true,
          "internalType": "address",
          "name": "sender",
          "type": "address"
        }
      ],
      "name": "RoleRevoked",
      "type": "event"
    },
    {
      "anonymous": false,
      "inputs": [
        {
          "indexed": true,
          "internalType": "address",
          "name": "liquidator",
          "type": "address"
        },
        {
          "indexed": true,
          "internalType": "address",
          "name": "borrower",
          "type": "address"
        },
        {
          "indexed": false,
          "internalType": "uint256",
          "name": "assets",
          "type": "uint256"
        }
      ],
      "name": "Seize",
      "type": "event"
    },
    {
      "anonymous": false,
      "inputs": [
        {
          "indexed": true,
          "internalType": "address",
          "name": "borrower",
          "type": "address"
        },
        {
          "indexed": false,
          "internalType": "uint256",
          "name": "assets",
          "type": "uint256"
        }
      ],
      "name": "SpreadBadDebt",
      "type": "event"
    },
    {
      "anonymous": false,
      "inputs": [
        {
          "indexed": true,
          "internalType": "address",
          "name": "from",
          "type": "address"
        },
        {
          "indexed": true,
          "internalType": "address",
          "name": "to",
          "type": "address"
        },
        {
          "indexed": false,
          "internalType": "uint256",
          "name": "amount",
          "type": "uint256"
        }
      ],
      "name": "Transfer",
      "type": "event"
    },
    {
      "anonymous": false,
      "inputs": [
        {
          "indexed": true,
          "internalType": "address",
          "name": "treasury",
          "type": "address"
        },
        {
          "indexed": false,
          "internalType": "uint256",
          "name": "treasuryFeeRate",
          "type": "uint256"
        }
      ],
      "name": "TreasurySet",
      "type": "event"
    },
    {
      "anonymous": false,
      "inputs": [
        {
          "indexed": false,
          "internalType": "address",
          "name": "account",
          "type": "address"
        }
      ],
      "name": "Unpaused",
      "type": "event"
    },
    {
      "anonymous": false,
      "inputs": [
        {
          "indexed": true,
          "internalType": "address",
          "name": "caller",
          "type": "address"
        },
        {
          "indexed": true,
          "internalType": "address",
          "name": "receiver",
          "type": "address"
        },
        {
          "indexed": true,
          "internalType": "address",
          "name": "owner",
          "type": "address"
        },
        {
          "indexed": false,
          "internalType": "uint256",
          "name": "assets",
          "type": "uint256"
        },
        {
          "indexed": false,
          "internalType": "uint256",
          "name": "shares",
          "type": "uint256"
        }
      ],
      "name": "Withdraw",
      "type": "event"
    },
    {
      "anonymous": false,
      "inputs": [
        {
          "indexed": true,
          "internalType": "uint256",
          "name": "maturity",
          "type": "uint256"
        },
        {
          "indexed": false,
          "internalType": "address",
          "name": "caller",
          "type": "address"
        },
        {
          "indexed": true,
          "internalType": "address",
          "name": "receiver",
          "type": "address"
        },
        {
          "indexed": true,
          "internalType": "address",
          "name": "owner",
          "type": "address"
        },
        {
          "indexed": false,
          "internalType": "uint256",
          "name": "positionAssets",
          "type": "uint256"
        },
        {
          "indexed": false,
          "internalType": "uint256",
          "name": "assets",
          "type": "uint256"
        }
      ],
      "name": "WithdrawAtMaturity",
      "type": "event"
    },
    {
      "inputs": [],
      "name": "DEFAULT_ADMIN_ROLE",
      "outputs": [
        {
          "internalType": "bytes32",
          "name": "",
          "type": "bytes32"
        }
      ],
      "stateMutability": "view",
      "type": "function"
    },
    {
      "inputs": [],
      "name": "DOMAIN_SEPARATOR",
      "outputs": [
        {
          "internalType": "bytes32",
          "name": "",
          "type": "bytes32"
        }
      ],
      "stateMutability": "view",
      "type": "function"
    },
    {
      "inputs": [],
      "name": "PAUSER_ROLE",
      "outputs": [
        {
          "internalType": "bytes32",
          "name": "",
          "type": "bytes32"
        }
      ],
      "stateMutability": "view",
      "type": "function"
    },
    {
      "inputs": [
        {
          "internalType": "address",
          "name": "account",
          "type": "address"
        }
      ],
      "name": "accountSnapshot",
      "outputs": [
        {
          "internalType": "uint256",
          "name": "",
          "type": "uint256"
        },
        {
          "internalType": "uint256",
          "name": "",
          "type": "uint256"
        }
      ],
      "stateMutability": "view",
      "type": "function"
    },
    {
      "inputs": [
        {
          "internalType": "address",
          "name": "",
          "type": "address"
        }
      ],
      "name": "accounts",
      "outputs": [
        {
          "internalType": "uint256",
          "name": "fixedDeposits",
          "type": "uint256"
        },
        {
          "internalType": "uint256",
          "name": "fixedBorrows",
          "type": "uint256"
        },
        {
          "internalType": "uint256",
          "name": "floatingBorrowShares",
          "type": "uint256"
        }
      ],
      "stateMutability": "view",
      "type": "function"
    },
    {
      "inputs": [
        {
          "internalType": "address",
          "name": "",
          "type": "address"
        },
        {
          "internalType": "address",
          "name": "",
          "type": "address"
        }
      ],
      "name": "allowance",
      "outputs": [
        {
          "internalType": "uint256",
          "name": "",
          "type": "uint256"
        }
      ],
      "stateMutability": "view",
      "type": "function"
    },
    {
      "inputs": [
        {
          "internalType": "address",
          "name": "spender",
          "type": "address"
        },
        {
          "internalType": "uint256",
          "name": "amount",
          "type": "uint256"
        }
      ],
      "name": "approve",
      "outputs": [
        {
          "internalType": "bool",
          "name": "",
          "type": "bool"
        }
      ],
      "stateMutability": "nonpayable",
      "type": "function"
    },
    {
      "inputs": [],
      "name": "asset",
      "outputs": [
        {
          "internalType": "contract ERC20",
          "name": "",
          "type": "address"
        }
      ],
      "stateMutability": "view",
      "type": "function"
    },
    {
      "inputs": [],
      "name": "auditor",
      "outputs": [
        {
          "internalType": "contract Auditor",
          "name": "",
          "type": "address"
        }
      ],
      "stateMutability": "view",
      "type": "function"
    },
    {
      "inputs": [],
      "name": "backupFeeRate",
      "outputs": [
        {
          "internalType": "uint256",
          "name": "",
          "type": "uint256"
        }
      ],
      "stateMutability": "view",
      "type": "function"
    },
    {
      "inputs": [
        {
          "internalType": "address",
          "name": "",
          "type": "address"
        }
      ],
      "name": "balanceOf",
      "outputs": [
        {
          "internalType": "uint256",
          "name": "",
          "type": "uint256"
        }
      ],
      "stateMutability": "view",
      "type": "function"
    },
    {
      "inputs": [
        {
          "internalType": "uint256",
          "name": "assets",
          "type": "uint256"
        },
        {
          "internalType": "address",
          "name": "receiver",
          "type": "address"
        },
        {
          "internalType": "address",
          "name": "borrower",
          "type": "address"
        }
      ],
      "name": "borrow",
      "outputs": [
        {
          "internalType": "uint256",
          "name": "borrowShares",
          "type": "uint256"
        }
      ],
      "stateMutability": "nonpayable",
      "type": "function"
    },
    {
      "inputs": [
        {
          "internalType": "uint256",
          "name": "maturity",
          "type": "uint256"
        },
        {
          "internalType": "uint256",
          "name": "assets",
          "type": "uint256"
        },
        {
          "internalType": "uint256",
          "name": "maxAssets",
          "type": "uint256"
        },
        {
          "internalType": "address",
          "name": "receiver",
          "type": "address"
        },
        {
          "internalType": "address",
          "name": "borrower",
          "type": "address"
        }
      ],
      "name": "borrowAtMaturity",
      "outputs": [
        {
          "internalType": "uint256",
          "name": "assetsOwed",
          "type": "uint256"
        }
      ],
      "stateMutability": "nonpayable",
      "type": "function"
    },
    {
      "inputs": [
        {
          "internalType": "address",
          "name": "borrower",
          "type": "address"
        }
      ],
      "name": "clearBadDebt",
      "outputs": [],
      "stateMutability": "nonpayable",
      "type": "function"
    },
    {
      "inputs": [
        {
          "internalType": "uint256",
          "name": "shares",
          "type": "uint256"
        }
      ],
      "name": "convertToAssets",
      "outputs": [
        {
          "internalType": "uint256",
          "name": "",
          "type": "uint256"
        }
      ],
      "stateMutability": "view",
      "type": "function"
    },
    {
      "inputs": [
        {
          "internalType": "uint256",
          "name": "assets",
          "type": "uint256"
        }
      ],
      "name": "convertToShares",
      "outputs": [
        {
          "internalType": "uint256",
          "name": "",
          "type": "uint256"
        }
      ],
      "stateMutability": "view",
      "type": "function"
    },
    {
      "inputs": [],
      "name": "dampSpeedDown",
      "outputs": [
        {
          "internalType": "uint256",
          "name": "",
          "type": "uint256"
        }
      ],
      "stateMutability": "view",
      "type": "function"
    },
    {
      "inputs": [],
      "name": "dampSpeedUp",
      "outputs": [
        {
          "internalType": "uint256",
          "name": "",
          "type": "uint256"
        }
      ],
      "stateMutability": "view",
      "type": "function"
    },
    {
      "inputs": [],
      "name": "decimals",
      "outputs": [
        {
          "internalType": "uint8",
          "name": "",
          "type": "uint8"
        }
      ],
      "stateMutability": "view",
      "type": "function"
    },
    {
      "inputs": [
        {
          "internalType": "uint256",
          "name": "assets",
          "type": "uint256"
        },
        {
          "internalType": "address",
          "name": "receiver",
          "type": "address"
        }
      ],
      "name": "deposit",
      "outputs": [
        {
          "internalType": "uint256",
          "name": "shares",
          "type": "uint256"
        }
      ],
      "stateMutability": "nonpayable",
      "type": "function"
    },
    {
      "inputs": [
        {
          "internalType": "uint256",
          "name": "maturity",
          "type": "uint256"
        },
        {
          "internalType": "uint256",
          "name": "assets",
          "type": "uint256"
        },
        {
          "internalType": "uint256",
          "name": "minAssetsRequired",
          "type": "uint256"
        },
        {
          "internalType": "address",
          "name": "receiver",
          "type": "address"
        }
      ],
      "name": "depositAtMaturity",
      "outputs": [
        {
          "internalType": "uint256",
          "name": "positionAssets",
          "type": "uint256"
        }
      ],
      "stateMutability": "nonpayable",
      "type": "function"
    },
    {
      "inputs": [],
      "name": "earningsAccumulator",
      "outputs": [
        {
          "internalType": "uint256",
          "name": "",
          "type": "uint256"
        }
      ],
      "stateMutability": "view",
      "type": "function"
    },
    {
      "inputs": [],
      "name": "earningsAccumulatorSmoothFactor",
      "outputs": [
        {
          "internalType": "uint128",
          "name": "",
          "type": "uint128"
        }
      ],
      "stateMutability": "view",
      "type": "function"
    },
    {
      "inputs": [
        {
          "internalType": "uint256",
          "name": "",
          "type": "uint256"
        },
        {
          "internalType": "address",
          "name": "",
          "type": "address"
        }
      ],
      "name": "fixedBorrowPositions",
      "outputs": [
        {
          "internalType": "uint256",
          "name": "principal",
          "type": "uint256"
        },
        {
          "internalType": "uint256",
          "name": "fee",
          "type": "uint256"
        }
      ],
      "stateMutability": "view",
      "type": "function"
    },
    {
      "inputs": [
        {
          "internalType": "uint256",
          "name": "",
          "type": "uint256"
        },
        {
          "internalType": "address",
          "name": "",
          "type": "address"
        }
      ],
      "name": "fixedDepositPositions",
      "outputs": [
        {
          "internalType": "uint256",
          "name": "principal",
          "type": "uint256"
        },
        {
          "internalType": "uint256",
          "name": "fee",
          "type": "uint256"
        }
      ],
      "stateMutability": "view",
      "type": "function"
    },
    {
      "inputs": [
        {
          "internalType": "uint256",
          "name": "",
          "type": "uint256"
        }
      ],
      "name": "fixedPools",
      "outputs": [
        {
          "internalType": "uint256",
          "name": "borrowed",
          "type": "uint256"
        },
        {
          "internalType": "uint256",
          "name": "supplied",
          "type": "uint256"
        },
        {
          "internalType": "uint256",
          "name": "unassignedEarnings",
          "type": "uint256"
        },
        {
          "internalType": "uint256",
          "name": "lastAccrual",
          "type": "uint256"
        }
      ],
      "stateMutability": "view",
      "type": "function"
    },
    {
      "inputs": [],
      "name": "floatingAssets",
      "outputs": [
        {
          "internalType": "uint256",
          "name": "",
          "type": "uint256"
        }
      ],
      "stateMutability": "view",
      "type": "function"
    },
    {
      "inputs": [],
      "name": "floatingAssetsAverage",
      "outputs": [
        {
          "internalType": "uint256",
          "name": "",
          "type": "uint256"
        }
      ],
      "stateMutability": "view",
      "type": "function"
    },
    {
      "inputs": [],
      "name": "floatingBackupBorrowed",
      "outputs": [
        {
          "internalType": "uint256",
          "name": "",
          "type": "uint256"
        }
      ],
      "stateMutability": "view",
      "type": "function"
    },
    {
      "inputs": [],
      "name": "floatingDebt",
      "outputs": [
        {
          "internalType": "uint256",
          "name": "",
          "type": "uint256"
        }
      ],
      "stateMutability": "view",
      "type": "function"
    },
    {
      "inputs": [],
      "name": "floatingUtilization",
      "outputs": [
        {
          "internalType": "uint256",
          "name": "",
          "type": "uint256"
        }
      ],
      "stateMutability": "view",
      "type": "function"
    },
    {
      "inputs": [
        {
          "internalType": "bytes32",
          "name": "role",
          "type": "bytes32"
        }
      ],
      "name": "getRoleAdmin",
      "outputs": [
        {
          "internalType": "bytes32",
          "name": "",
          "type": "bytes32"
        }
      ],
      "stateMutability": "view",
      "type": "function"
    },
    {
      "inputs": [
        {
          "internalType": "bytes32",
          "name": "role",
          "type": "bytes32"
        },
        {
          "internalType": "address",
          "name": "account",
          "type": "address"
        }
      ],
      "name": "grantRole",
      "outputs": [],
      "stateMutability": "nonpayable",
      "type": "function"
    },
    {
      "inputs": [
        {
          "internalType": "bytes32",
          "name": "role",
          "type": "bytes32"
        },
        {
          "internalType": "address",
          "name": "account",
          "type": "address"
        }
      ],
      "name": "hasRole",
      "outputs": [
        {
          "internalType": "bool",
          "name": "",
          "type": "bool"
        }
      ],
      "stateMutability": "view",
      "type": "function"
    },
    {
      "inputs": [
        {
          "internalType": "uint8",
          "name": "maxFuturePools_",
          "type": "uint8"
        },
        {
          "internalType": "uint128",
          "name": "earningsAccumulatorSmoothFactor_",
          "type": "uint128"
        },
        {
          "internalType": "contract InterestRateModel",
          "name": "interestRateModel_",
          "type": "address"
        },
        {
          "internalType": "uint256",
          "name": "penaltyRate_",
          "type": "uint256"
        },
        {
          "internalType": "uint256",
          "name": "backupFeeRate_",
          "type": "uint256"
        },
        {
          "internalType": "uint128",
          "name": "reserveFactor_",
          "type": "uint128"
        },
        {
          "internalType": "uint256",
          "name": "dampSpeedUp_",
          "type": "uint256"
        },
        {
          "internalType": "uint256",
          "name": "dampSpeedDown_",
          "type": "uint256"
        }
      ],
      "name": "initialize",
      "outputs": [],
      "stateMutability": "nonpayable",
      "type": "function"
    },
    {
      "inputs": [],
      "name": "interestRateModel",
      "outputs": [
        {
          "internalType": "contract InterestRateModel",
          "name": "",
          "type": "address"
        }
      ],
      "stateMutability": "view",
      "type": "function"
    },
    {
      "inputs": [],
      "name": "lastAccumulatorAccrual",
      "outputs": [
        {
          "internalType": "uint32",
          "name": "",
          "type": "uint32"
        }
      ],
      "stateMutability": "view",
      "type": "function"
    },
    {
      "inputs": [],
      "name": "lastAverageUpdate",
      "outputs": [
        {
          "internalType": "uint32",
          "name": "",
          "type": "uint32"
        }
      ],
      "stateMutability": "view",
      "type": "function"
    },
    {
      "inputs": [],
      "name": "lastFloatingDebtUpdate",
      "outputs": [
        {
          "internalType": "uint32",
          "name": "",
          "type": "uint32"
        }
      ],
      "stateMutability": "view",
      "type": "function"
    },
    {
      "inputs": [
        {
          "internalType": "address",
          "name": "borrower",
          "type": "address"
        },
        {
          "internalType": "uint256",
          "name": "maxAssets",
          "type": "uint256"
        },
        {
          "internalType": "contract Market",
          "name": "seizeMarket",
          "type": "address"
        }
      ],
      "name": "liquidate",
      "outputs": [
        {
          "internalType": "uint256",
          "name": "repaidAssets",
          "type": "uint256"
        }
      ],
      "stateMutability": "nonpayable",
      "type": "function"
    },
    {
      "inputs": [
        {
          "internalType": "address",
          "name": "",
          "type": "address"
        }
      ],
      "name": "maxDeposit",
      "outputs": [
        {
          "internalType": "uint256",
          "name": "",
          "type": "uint256"
        }
      ],
      "stateMutability": "view",
      "type": "function"
    },
    {
      "inputs": [],
      "name": "maxFuturePools",
      "outputs": [
        {
          "internalType": "uint8",
          "name": "",
          "type": "uint8"
        }
      ],
      "stateMutability": "view",
      "type": "function"
    },
    {
      "inputs": [
        {
          "internalType": "address",
          "name": "",
          "type": "address"
        }
      ],
      "name": "maxMint",
      "outputs": [
        {
          "internalType": "uint256",
          "name": "",
          "type": "uint256"
        }
      ],
      "stateMutability": "view",
      "type": "function"
    },
    {
      "inputs": [
        {
          "internalType": "address",
          "name": "owner",
          "type": "address"
        }
      ],
      "name": "maxRedeem",
      "outputs": [
        {
          "internalType": "uint256",
          "name": "",
          "type": "uint256"
        }
      ],
      "stateMutability": "view",
      "type": "function"
    },
    {
      "inputs": [
        {
          "internalType": "address",
          "name": "owner",
          "type": "address"
        }
      ],
      "name": "maxWithdraw",
      "outputs": [
        {
          "internalType": "uint256",
          "name": "",
          "type": "uint256"
        }
      ],
      "stateMutability": "view",
      "type": "function"
    },
    {
      "inputs": [
        {
          "internalType": "uint256",
          "name": "shares",
          "type": "uint256"
        },
        {
          "internalType": "address",
          "name": "receiver",
          "type": "address"
        }
      ],
      "name": "mint",
      "outputs": [
        {
          "internalType": "uint256",
          "name": "assets",
          "type": "uint256"
        }
      ],
      "stateMutability": "nonpayable",
      "type": "function"
    },
    {
      "inputs": [],
      "name": "name",
      "outputs": [
        {
          "internalType": "string",
          "name": "",
          "type": "string"
        }
      ],
      "stateMutability": "view",
      "type": "function"
    },
    {
      "inputs": [
        {
          "internalType": "address",
          "name": "",
          "type": "address"
        }
      ],
      "name": "nonces",
      "outputs": [
        {
          "internalType": "uint256",
          "name": "",
          "type": "uint256"
        }
      ],
      "stateMutability": "view",
      "type": "function"
    },
    {
      "inputs": [],
      "name": "pause",
      "outputs": [],
      "stateMutability": "nonpayable",
      "type": "function"
    },
    {
      "inputs": [],
      "name": "paused",
      "outputs": [
        {
          "internalType": "bool",
          "name": "",
          "type": "bool"
        }
      ],
      "stateMutability": "view",
      "type": "function"
    },
    {
      "inputs": [],
      "name": "penaltyRate",
      "outputs": [
        {
          "internalType": "uint256",
          "name": "",
          "type": "uint256"
        }
      ],
      "stateMutability": "view",
      "type": "function"
    },
    {
      "inputs": [
        {
          "internalType": "address",
          "name": "owner",
          "type": "address"
        },
        {
          "internalType": "address",
          "name": "spender",
          "type": "address"
        },
        {
          "internalType": "uint256",
          "name": "value",
          "type": "uint256"
        },
        {
          "internalType": "uint256",
          "name": "deadline",
          "type": "uint256"
        },
        {
          "internalType": "uint8",
          "name": "v",
          "type": "uint8"
        },
        {
          "internalType": "bytes32",
          "name": "r",
          "type": "bytes32"
        },
        {
          "internalType": "bytes32",
          "name": "s",
          "type": "bytes32"
        }
      ],
      "name": "permit",
      "outputs": [],
      "stateMutability": "nonpayable",
      "type": "function"
    },
    {
      "inputs": [
        {
          "internalType": "uint256",
          "name": "assets",
          "type": "uint256"
        }
      ],
      "name": "previewBorrow",
      "outputs": [
        {
          "internalType": "uint256",
          "name": "",
          "type": "uint256"
        }
      ],
      "stateMutability": "view",
      "type": "function"
    },
    {
      "inputs": [
        {
          "internalType": "address",
          "name": "borrower",
          "type": "address"
        }
      ],
      "name": "previewDebt",
      "outputs": [
        {
          "internalType": "uint256",
          "name": "debt",
          "type": "uint256"
        }
      ],
      "stateMutability": "view",
      "type": "function"
    },
    {
      "inputs": [
        {
          "internalType": "uint256",
          "name": "assets",
          "type": "uint256"
        }
      ],
      "name": "previewDeposit",
      "outputs": [
        {
          "internalType": "uint256",
          "name": "",
          "type": "uint256"
        }
      ],
      "stateMutability": "view",
      "type": "function"
    },
    {
      "inputs": [],
      "name": "previewFloatingAssetsAverage",
      "outputs": [
        {
          "internalType": "uint256",
          "name": "",
          "type": "uint256"
        }
      ],
      "stateMutability": "view",
      "type": "function"
    },
    {
      "inputs": [
        {
          "internalType": "uint256",
          "name": "shares",
          "type": "uint256"
        }
      ],
      "name": "previewMint",
      "outputs": [
        {
          "internalType": "uint256",
          "name": "",
          "type": "uint256"
        }
      ],
      "stateMutability": "view",
      "type": "function"
    },
    {
      "inputs": [
        {
          "internalType": "uint256",
          "name": "shares",
          "type": "uint256"
        }
      ],
      "name": "previewRedeem",
      "outputs": [
        {
          "internalType": "uint256",
          "name": "",
          "type": "uint256"
        }
      ],
      "stateMutability": "view",
      "type": "function"
    },
    {
      "inputs": [
        {
          "internalType": "uint256",
          "name": "shares",
          "type": "uint256"
        }
      ],
      "name": "previewRefund",
      "outputs": [
        {
          "internalType": "uint256",
          "name": "",
          "type": "uint256"
        }
      ],
      "stateMutability": "view",
      "type": "function"
    },
    {
      "inputs": [
        {
          "internalType": "uint256",
          "name": "assets",
          "type": "uint256"
        }
      ],
      "name": "previewRepay",
      "outputs": [
        {
          "internalType": "uint256",
          "name": "",
          "type": "uint256"
        }
      ],
      "stateMutability": "view",
      "type": "function"
    },
    {
      "inputs": [
        {
          "internalType": "uint256",
          "name": "assets",
          "type": "uint256"
        }
      ],
      "name": "previewWithdraw",
      "outputs": [
        {
          "internalType": "uint256",
          "name": "",
          "type": "uint256"
        }
      ],
      "stateMutability": "view",
      "type": "function"
    },
    {
      "inputs": [
        {
          "internalType": "uint256",
          "name": "shares",
          "type": "uint256"
        },
        {
          "internalType": "address",
          "name": "receiver",
          "type": "address"
        },
        {
          "internalType": "address",
          "name": "owner",
          "type": "address"
        }
      ],
      "name": "redeem",
      "outputs": [
        {
          "internalType": "uint256",
          "name": "assets",
          "type": "uint256"
        }
      ],
      "stateMutability": "nonpayable",
      "type": "function"
    },
    {
      "inputs": [],
      "name": "refreshSymbol",
      "outputs": [],
      "stateMutability": "nonpayable",
      "type": "function"
    },
    {
      "inputs": [
        {
          "internalType": "uint256",
          "name": "borrowShares",
          "type": "uint256"
        },
        {
          "internalType": "address",
          "name": "borrower",
          "type": "address"
        }
      ],
      "name": "refund",
      "outputs": [
        {
          "internalType": "uint256",
          "name": "assets",
          "type": "uint256"
        },
        {
          "internalType": "uint256",
          "name": "actualShares",
          "type": "uint256"
        }
      ],
      "stateMutability": "nonpayable",
      "type": "function"
    },
    {
      "inputs": [
        {
          "internalType": "bytes32",
          "name": "role",
          "type": "bytes32"
        },
        {
          "internalType": "address",
          "name": "account",
          "type": "address"
        }
      ],
      "name": "renounceRole",
      "outputs": [],
      "stateMutability": "nonpayable",
      "type": "function"
    },
    {
      "inputs": [
        {
          "internalType": "uint256",
          "name": "assets",
          "type": "uint256"
        },
        {
          "internalType": "address",
          "name": "borrower",
          "type": "address"
        }
      ],
      "name": "repay",
      "outputs": [
        {
          "internalType": "uint256",
          "name": "actualRepay",
          "type": "uint256"
        },
        {
          "internalType": "uint256",
          "name": "borrowShares",
          "type": "uint256"
        }
      ],
      "stateMutability": "nonpayable",
      "type": "function"
    },
    {
      "inputs": [
        {
          "internalType": "uint256",
          "name": "maturity",
          "type": "uint256"
        },
        {
          "internalType": "uint256",
          "name": "positionAssets",
          "type": "uint256"
        },
        {
          "internalType": "uint256",
          "name": "maxAssets",
          "type": "uint256"
        },
        {
          "internalType": "address",
          "name": "borrower",
          "type": "address"
        }
      ],
      "name": "repayAtMaturity",
      "outputs": [
        {
          "internalType": "uint256",
          "name": "actualRepayAssets",
          "type": "uint256"
        }
      ],
      "stateMutability": "nonpayable",
      "type": "function"
    },
    {
      "inputs": [],
      "name": "reserveFactor",
      "outputs": [
        {
          "internalType": "uint128",
          "name": "",
          "type": "uint128"
        }
      ],
      "stateMutability": "view",
      "type": "function"
    },
    {
      "inputs": [
        {
          "internalType": "bytes32",
          "name": "role",
          "type": "bytes32"
        },
        {
          "internalType": "address",
          "name": "account",
          "type": "address"
        }
      ],
      "name": "revokeRole",
      "outputs": [],
      "stateMutability": "nonpayable",
      "type": "function"
    },
    {
      "inputs": [
        {
          "internalType": "address",
          "name": "liquidator",
          "type": "address"
        },
        {
          "internalType": "address",
          "name": "borrower",
          "type": "address"
        },
        {
          "internalType": "uint256",
          "name": "assets",
          "type": "uint256"
        }
      ],
      "name": "seize",
      "outputs": [],
      "stateMutability": "nonpayable",
      "type": "function"
    },
    {
      "inputs": [
        {
          "internalType": "uint256",
          "name": "backupFeeRate_",
          "type": "uint256"
        }
      ],
      "name": "setBackupFeeRate",
      "outputs": [],
      "stateMutability": "nonpayable",
      "type": "function"
    },
    {
      "inputs": [
        {
          "internalType": "uint256",
          "name": "up",
          "type": "uint256"
        },
        {
          "internalType": "uint256",
          "name": "down",
          "type": "uint256"
        }
      ],
      "name": "setDampSpeed",
      "outputs": [],
      "stateMutability": "nonpayable",
      "type": "function"
    },
    {
      "inputs": [
        {
          "internalType": "uint128",
          "name": "earningsAccumulatorSmoothFactor_",
          "type": "uint128"
        }
      ],
      "name": "setEarningsAccumulatorSmoothFactor",
      "outputs": [],
      "stateMutability": "nonpayable",
      "type": "function"
    },
    {
      "inputs": [
        {
          "internalType": "contract InterestRateModel",
          "name": "interestRateModel_",
          "type": "address"
        }
      ],
      "name": "setInterestRateModel",
      "outputs": [],
      "stateMutability": "nonpayable",
      "type": "function"
    },
    {
      "inputs": [
        {
          "internalType": "uint8",
          "name": "futurePools",
          "type": "uint8"
        }
      ],
      "name": "setMaxFuturePools",
      "outputs": [],
      "stateMutability": "nonpayable",
      "type": "function"
    },
    {
      "inputs": [
        {
          "internalType": "uint256",
          "name": "penaltyRate_",
          "type": "uint256"
        }
      ],
      "name": "setPenaltyRate",
      "outputs": [],
      "stateMutability": "nonpayable",
      "type": "function"
    },
    {
      "inputs": [
        {
          "internalType": "uint128",
          "name": "reserveFactor_",
          "type": "uint128"
        }
      ],
      "name": "setReserveFactor",
      "outputs": [],
      "stateMutability": "nonpayable",
      "type": "function"
    },
    {
      "inputs": [
        {
          "internalType": "address",
          "name": "treasury_",
          "type": "address"
        },
        {
          "internalType": "uint256",
          "name": "treasuryFeeRate_",
          "type": "uint256"
        }
      ],
      "name": "setTreasury",
      "outputs": [],
      "stateMutability": "nonpayable",
      "type": "function"
    },
    {
      "inputs": [
        {
          "internalType": "bytes4",
          "name": "interfaceId",
          "type": "bytes4"
        }
      ],
      "name": "supportsInterface",
      "outputs": [
        {
          "internalType": "bool",
          "name": "",
          "type": "bool"
        }
      ],
      "stateMutability": "view",
      "type": "function"
    },
    {
      "inputs": [],
      "name": "symbol",
      "outputs": [
        {
          "internalType": "string",
          "name": "",
          "type": "string"
        }
      ],
      "stateMutability": "view",
      "type": "function"
    },
    {
      "inputs": [],
      "name": "totalAssets",
      "outputs": [
        {
          "internalType": "uint256",
          "name": "",
          "type": "uint256"
        }
      ],
      "stateMutability": "view",
      "type": "function"
    },
    {
      "inputs": [],
      "name": "totalFloatingBorrowAssets",
      "outputs": [
        {
          "internalType": "uint256",
          "name": "",
          "type": "uint256"
        }
      ],
      "stateMutability": "view",
      "type": "function"
    },
    {
      "inputs": [],
      "name": "totalFloatingBorrowShares",
      "outputs": [
        {
          "internalType": "uint256",
          "name": "",
          "type": "uint256"
        }
      ],
      "stateMutability": "view",
      "type": "function"
    },
    {
      "inputs": [],
      "name": "totalSupply",
      "outputs": [
        {
          "internalType": "uint256",
          "name": "",
          "type": "uint256"
        }
      ],
      "stateMutability": "view",
      "type": "function"
    },
    {
      "inputs": [
        {
          "internalType": "address",
          "name": "to",
          "type": "address"
        },
        {
          "internalType": "uint256",
          "name": "shares",
          "type": "uint256"
        }
      ],
      "name": "transfer",
      "outputs": [
        {
          "internalType": "bool",
          "name": "",
          "type": "bool"
        }
      ],
      "stateMutability": "nonpayable",
      "type": "function"
    },
    {
      "inputs": [
        {
          "internalType": "address",
          "name": "from",
          "type": "address"
        },
        {
          "internalType": "address",
          "name": "to",
          "type": "address"
        },
        {
          "internalType": "uint256",
          "name": "shares",
          "type": "uint256"
        }
      ],
      "name": "transferFrom",
      "outputs": [
        {
          "internalType": "bool",
          "name": "",
          "type": "bool"
        }
      ],
      "stateMutability": "nonpayable",
      "type": "function"
    },
    {
      "inputs": [],
      "name": "treasury",
      "outputs": [
        {
          "internalType": "address",
          "name": "",
          "type": "address"
        }
      ],
      "stateMutability": "view",
      "type": "function"
    },
    {
      "inputs": [],
      "name": "treasuryFeeRate",
      "outputs": [
        {
          "internalType": "uint256",
          "name": "",
          "type": "uint256"
        }
      ],
      "stateMutability": "view",
      "type": "function"
    },
    {
      "inputs": [],
      "name": "unpause",
      "outputs": [],
      "stateMutability": "nonpayable",
      "type": "function"
    },
    {
      "inputs": [
        {
          "internalType": "uint256",
          "name": "assets",
          "type": "uint256"
        },
        {
          "internalType": "address",
          "name": "receiver",
          "type": "address"
        },
        {
          "internalType": "address",
          "name": "owner",
          "type": "address"
        }
      ],
      "name": "withdraw",
      "outputs": [
        {
          "internalType": "uint256",
          "name": "shares",
          "type": "uint256"
        }
      ],
      "stateMutability": "nonpayable",
      "type": "function"
    },
    {
      "inputs": [
        {
          "internalType": "uint256",
          "name": "maturity",
          "type": "uint256"
        },
        {
          "internalType": "uint256",
          "name": "positionAssets",
          "type": "uint256"
        },
        {
          "internalType": "uint256",
          "name": "minAssetsRequired",
          "type": "uint256"
        },
        {
          "internalType": "address",
          "name": "receiver",
          "type": "address"
        },
        {
          "internalType": "address",
          "name": "owner",
          "type": "address"
        }
      ],
      "name": "withdrawAtMaturity",
      "outputs": [
        {
          "internalType": "uint256",
          "name": "assetsDiscounted",
          "type": "uint256"
        }
      ],
      "stateMutability": "nonpayable",
      "type": "function"
    }
  ],
  "transactionHash": "0x41388e8048eedbcae94b74abeaaba516fe6f3b42dbe3efc620e86b90dbcf2931",
  "args": [
    "0xA2025B15a1757311bfD68cb14eaeFCc237AF5b43",
    "0xB957a4Aa46F859b14C745b8356c28B8361319fAB"
  ],
  "numDeployments": 6,
  "solcInputHash": "a8d3a175e469e239646d78d563b6aae9",
  "bytecode": "0x6101206040523480156200001257600080fd5b506040516200623638038062006236833981016040819052620000359162000295565b8160405180602001604052806000815250604051806020016040528060008152508181846001600160a01b031663313ce5676040518163ffffffff1660e01b8152600401602060405180830381865afa15801562000097573d6000803e3d6000fd5b505050506040513d601f19601f82011682018060405250810190620000bd9190620002d4565b60c9620000cb8482620003a5565b5060ca620000da8382620003a5565b5060ff81166080524660a052620000f06200011e565b60c0525050506001600160a01b0392831660e052505081166101005262000116620001ba565b5050620004ef565b60007f8b73c3c69bb8fe3d512ecc4cf759cc79239f7b179b0ffacaa9a75d522b39400f60c960405162000152919062000471565b6040805191829003822060208301939093528101919091527fc89efdaa54c0f20c7adf612882df0950f5a951637e0307cdcb4c672f298b8bc660608201524660808201523060a082015260c00160405160208183030381529060405280519060200120905090565b600054610100900460ff1615620002275760405162461bcd60e51b815260206004820152602760248201527f496e697469616c697a61626c653a20636f6e747261637420697320696e697469604482015266616c697a696e6760c81b606482015260840160405180910390fd5b60005460ff90811610156200027a576000805460ff191660ff9081179091556040519081527f7f26b83ff96e1f2b6a682f133852f6798a09c465da95921460cefb38474024989060200160405180910390a15b565b6001600160a01b03811681146200029257600080fd5b50565b60008060408385031215620002a957600080fd5b8251620002b6816200027c565b6020840151909250620002c9816200027c565b809150509250929050565b600060208284031215620002e757600080fd5b815160ff81168114620002f957600080fd5b9392505050565b634e487b7160e01b600052604160045260246000fd5b600181811c908216806200032b57607f821691505b6020821081036200034c57634e487b7160e01b600052602260045260246000fd5b50919050565b601f821115620003a057600081815260208120601f850160051c810160208610156200037b5750805b601f850160051c820191505b818110156200039c5782815560010162000387565b5050505b505050565b81516001600160401b03811115620003c157620003c162000300565b620003d981620003d2845462000316565b8462000352565b602080601f831160018114620004115760008415620003f85750858301515b600019600386901b1c1916600185901b1785556200039c565b600085815260208120601f198616915b82811015620004425788860151825594840194600190910190840162000421565b5085821015620004615787850151600019600388901b60f8161c191681555b5050505050600190811b01905550565b6000808354620004818162000316565b600182811680156200049c5760018114620004b257620004e3565b60ff1984168752821515830287019450620004e3565b8760005260208060002060005b85811015620004da5781548a820152908401908201620004bf565b50505082870194505b50929695505050505050565b60805160a05160c05160e05161010051615c53620005e36000396000818161075c01528181611411015281816115b501528181611bd601528181611e3901528181611fbb0152818161230401528181612cf101528181612de301528181612e65015281816132ea01526147a60152600081816107010152818161147a0152818161195c01528181611ab30152818161203201528181612122015281816121eb01528181612599015281816126fc01528181612c7801528181613353015281816134e7015281816148ce01528181614d9d0152614ee9015260006119ca01526000611995015260006106ac0152615c536000f3fe608060405234801561001057600080fd5b50600436106104f95760003560e01c806378007e2311610299578063b460af9411610167578063d6b7494f116100d9578063eee8c9e011610092578063eee8c9e014610c5e578063ef8b30f714610c66578063f3a34cd314610c79578063f3fdb15a14610c81578063fb0fc4c314610c94578063fea45d9414610cab57600080fd5b8063d6b7494f14610bbe578063d905777e14610bc7578063dd62ed3e14610bf0578063e00b262514610c1b578063e63ab1e914610c2e578063e94b3c2114610c5557600080fd5b8063ccfd8b111161012b578063ccfd8b1114610b0e578063ce96cb7714610b40578063d2681a0b14610b53578063d505accf14610b85578063d516418414610b98578063d547741f14610bab57600080fd5b8063b460af9414610ac2578063ba08765214610ad5578063bf722ca214610ae8578063c63d75b614610786578063c6e6f59214610afb57600080fd5b806395d89b411161020b578063a1e8f02b116101c4578063a1e8f02b14610a65578063a217fddf14610a6e578063a9059cbb14610a76578063acb7081514610a89578063b2a02ff114610a9c578063b3d7f6b914610aaf57600080fd5b806395d89b4114610a065780639bf5eb1a14610a0e5780639f73066e14610a17578063a05a091a14610a2a578063a16a885014610a3d578063a1bab44714610a5257600080fd5b80638bcd40161161025d5780638bcd4016146109a85780638c3cba5a146109bb5780638d0e5f02146109c457806391d14854146109cd578063926bb633146109e057806394bf804d146109f357600080fd5b806378007e23146109515780637ad226dc146109645780637ecebe00146109775780638456cb59146109975780638a1baa461461099f57600080fd5b806334f7d1f2116103d657806347dffde0116103485780635e5c06e2116103015780635e5c06e21461088c57806361d027b3146108d657806366601032146108e95780636e553f65146108f25780636eb9ffeb1461090557806370a082311461093157600080fd5b806347dffde0146107e05780634914c008146107f35780634cdad506146108065780634e7c5059146108195780635c975abb1461086e5780635cc2ef831461087957600080fd5b80633c6f317f1161039a5780633c6f317f146107445780633ec045a6146107575780633f4ba83a1461077e578063402d267d1461078657806342da42bf1461079b5780634322b714146107ae57600080fd5b806334f7d1f2146106ce5780633644e515146106e157806336568abe146106e957806338d52e0f146106fc5780633aa18d6f1461073b57600080fd5b806318160ddd1161046f578063248a9ca311610433578063248a9ca31461064257806328acf2cf146106655780632c5dcc77146106785780632e0af0081461068b5780632f2ff15d14610694578063313ce567146106a757600080fd5b806318160ddd146105f75780631a5b9e62146106005780631a90f186146106135780631d43b30b1461061c57806323b872dd1461062f57600080fd5b806306fdde03116104c157806306fdde031461058257806307a2d13a14610597578063095ea7b3146105aa5780630a28a477146105bd5780630e52dbec146105d05780630f2b75aa146105ef57600080fd5b8063014a296f146104fe57806301e1d1141461052b57806301ffc9a714610541578063022d8af5146105645780630539fa8c14610579575b600080fd5b61051161050c3660046152d6565b610cbe565b604080519283526020830191909152015b60405180910390f35b610533610cf4565b604051908152602001610522565b61055461054f3660046152f3565b610da3565b6040519015158152602001610522565b610577610572366004615339565b610dda565b005b61053360d85481565b61058a610e6b565b6040516105229190615378565b6105336105a53660046153ab565b610ef9565b6105546105b83660046153c4565b610f26565b6105336105cb3660046153ab565b610f92565b60da546105dd9060ff1681565b60405160ff9091168152602001610522565b610533610fb2565b61053360cb5481565b61053361060e3660046153f0565b611059565b61053360d45481565b61053361062a3660046152d6565b6114af565b61055461063d366004615446565b6115b1565b6105336106503660046153ab565b60009081526065602052604090206001015490565b610577610673366004615498565b61164e565b6105776106863660046153c4565b61169b565b61053360dd5481565b6105776106a23660046154b3565b611701565b6105dd7f000000000000000000000000000000000000000000000000000000000000000081565b6105336106dc3660046154e3565b61172b565b610533611991565b6105776106f73660046154b3565b6119ec565b6107237f000000000000000000000000000000000000000000000000000000000000000081565b6040516001600160a01b039091168152602001610522565b61053360d95481565b6105336107523660046154e3565b611a6f565b6107237f000000000000000000000000000000000000000000000000000000000000000081565b610577611adb565b6105336107943660046152d6565b5060001990565b6105776107a93660046153ab565b611b10565b60dc546107c890600160801b90046001600160801b031681565b6040516001600160801b039091168152602001610522565b6105336107ee3660046153ab565b611b50565b610533610801366004615524565b611b6f565b6105336108143660046153ab565b612064565b61084e6108273660046153ab565b60d16020526000908152604090208054600182015460028301546003909301549192909184565b604080519485526020850193909352918301526060820152608001610522565b60975460ff16610554565b610577610887366004615566565b61206f565b6108bb61089a3660046152d6565b60d26020526000908152604090208054600182015460029092015490919083565b60408051938452602084019290925290820152606001610522565b60e154610723906001600160a01b031681565b61053360e25481565b6105336109003660046154b3565b6120ca565b60da5461091c90600160281b900463ffffffff1681565b60405163ffffffff9091168152602001610522565b61053361093f3660046152d6565b60cc6020526000908152604090205481565b61053361095f3660046153ab565b6121a4565b6105116109723660046154b3565b6121bc565b6105336109853660046152d6565b60ce6020526000908152604090205481565b61057761221a565b61053360d55481565b6105776109b63660046152d6565b61224c565b61053360d35481565b61053360df5481565b6105546109db3660046154b3565b6122ce565b6105776109ee3660046152d6565b6122f9565b610533610a013660046154b3565b61257f565b61058a61261b565b61053360e05481565b610577610a25366004615588565b612628565b610533610a383660046153f0565b6128c8565b60da5461091c90610100900463ffffffff1681565b610577610a603660046153ab565b612cad565b61053360d75481565b610533600081565b610554610a843660046153c4565b612ced565b610511610a973660046154b3565b612d81565b610577610aaa366004615446565b612d9e565b610533610abd3660046153ab565b612db2565b610533610ad0366004615605565b612dc9565b610533610ae3366004615605565b612e61565b610533610af63660046153ab565b612ef6565b610533610b093660046153ab565b612f16565b610511610b1c3660046154b3565b60cf6020908152600092835260408084209091529082529020805460019091015482565b610533610b4e3660046152d6565b612f2e565b610511610b613660046154b3565b60d06020908152600092835260408084209091529082529020805460019091015482565b610577610b9336600461563c565b612f50565b610533610ba6366004615605565b613194565b610577610bb93660046154b3565b613384565b61053360d65481565b610533610bd53660046152d6565b6001600160a01b0316600090815260cc602052604090205490565b610533610bfe3660046156aa565b60cd60209081526000928352604080842090915290825290205481565b610577610c29366004615339565b6133a9565b6105337f65d7a28e3265b37a6474929f336521b332c1681b933f6cb9f3376673440d862a81565b61053360de5481565b610533613402565b610533610c743660046153ab565b6134da565b6105776134e5565b60db54610723906001600160a01b031681565b60da5461091c90600160481b900463ffffffff1681565b60dc546107c8906001600160801b031681565b6001600160a01b038116600090815260cc60205260408120548190610ce290610ef9565b610ceb846114af565b91509150915091565b60da5460009060ff16816224ea004281810690039083028101815b818111610d6857600081815260d160205260409020600381015480831115610d5c57824210610d42578160020154610d57565b6002820154610d579042839003838603613598565b860195505b50506224ea0001610d0f565b50610d8b60e254670de0b6b3a76400000360d454610d84613402565b03906135b7565b610d936135cc565b8460dd5401010194505050505090565b60006001600160e01b03198216637965db0b60e01b1480610dd457506301ffc9a760e01b6001600160e01b03198316145b92915050565b6000610de581613645565b610ded61364f565b60dd6000828254610dfe9190615704565b90915550610e0c90506136ca565b60dc80546fffffffffffffffffffffffffffffffff19166001600160801b0384169081179091556040519081527f5499a947330efc8c6d458d51fd04d56d7e44dc1469558b2300e359963cef317e906020015b60405180910390a15050565b60c98054610e7890615717565b80601f0160208091040260200160405190810160405280929190818152602001828054610ea490615717565b8015610ef15780601f10610ec657610100808354040283529160200191610ef1565b820191906000526020600020905b815481529060010190602001808311610ed457829003601f168201915b505050505081565b60cb546000908015610f1d57610f18610f10610cf4565b849083613598565b610f1f565b825b9392505050565b33600081815260cd602090815260408083206001600160a01b038716808552925280832085905551919290917f8c5be1e5ebec7d5bd14f71427d1e84f3dd0314c0f7b2291e5b200ac8c7c3b92590610f819086815260200190565b60405180910390a350600192915050565b60cb546000908015610f1d57610f1881610faa610cf4565b859190613730565b60dd5460de546000919082818310610fcc5760d854610fd0565b60d9545b60da5490915060009061100c90610ff490600160481b900463ffffffff1642615751565b610ffe9084615764565b6110079061577b565b61375e565b61101e90670de0b6b3a7640000615797565b905061102a81856135b7565b61104661103f83670de0b6b3a7640000615751565b85906135b7565b6110509190615704565b94505050505090565b6000611063613907565b846000036110845760405163774257f760e01b815260040160405180910390fd5b60da5461109990879060ff166003600061394f565b600086815260d160205260408120906110b28289613ae6565b60db5483546001850154929350600092611163926001600160a01b03169163df635f3d918d918d916110e2610fb2565b6040516001600160e01b031960e088901b1681526004810195909552602485019390935260448401919091526064830152608482015260a401602060405180830381865afa158015611138573d6000803e3d6000fd5b505050506040513d601f19601f8201168201806040525081019061115c91906157b7565b89906135b7565b905061116f8189615704565b93508684111561119257604051632c1b6b4160e21b815260040160405180910390fd5b61119c8585613b67565b60006111a8848a613be0565b9050801561123c5760008160d3546111c09190615704565b90506111d26111cd613c1d565b613d15565b60dc5461120d906111fb90600160801b90046001600160801b0316670de0b6b3a76400006157d0565b60dd54906001600160801b03166135b7565b60d45461121a9083615704565b111561123857604051622d41ad60e31b815260040160405180910390fd5b60d3555b50600089815260d0602090815260408083206001600160a01b038916845290915281208054909103611296576001600160a01b038616600090815260d260205260409020600181015461128f908c613d53565b6001909101555b6000806112da6112a585613e42565b604080516080810182528954815260018a0154602082015260028a01549181019190915260038901546060820152908d613e6f565b909250905081156112ff57818660020160008282546112f99190615704565b90915550505b61130881613ebd565b60405180604001604052808c85600001546113239190615704565b81526020018585600101546113389190615704565b905260008d815260d0602090815260408083206001600160a01b038d168452825282208351815592015160019092019190915560dd8054879550909350909150611383908490615704565b909155505060408051338152602081018a90529081018290526001600160a01b0380871691908816908b907f66866b472f27d55d69496091bbd651907b2fb1041b3eeaca6e565ae5b5af40139060600160405180910390a46113e36136ca565b6113ec89613eeb565b604051637b9d893160e01b81523060048201526001600160a01b0386811660248301527f00000000000000000000000000000000000000000000000000000000000000001690637b9d893190604401600060405180830381600087803b15801561145557600080fd5b505af1158015611469573d6000803e3d6000fd5b506114a39250506001600160a01b037f0000000000000000000000000000000000000000000000000000000000000000169050878a613f3a565b50505095945050505050565b6001600160a01b038116600090815260d260209081526040822060d6546001820154919290919081901c9063ffffffff165b811561158657600182161561156b57600081815260d0602090815260408083206001600160a01b038a1684529091528120600181015481549192916115269190615704565b90506115328188615704565b9650824211156115685761155b8561154a8542615751565b6115549190615764565b82906135b7565b6115659088615704565b96505b50505b60019190911c9061157f6224ea0082615704565b90506114e1565b600284015480156115a75761159a81611b50565b6115a49087615704565b95505b5050505050919050565b60007f00000000000000000000000000000000000000000000000000000000000000006001600160a01b031663a3883db530866115ed86612064565b6040518463ffffffff1660e01b815260040161160b939291906157f0565b60006040518083038186803b15801561162357600080fd5b505afa158015611637573d6000803e3d6000fd5b50505050611646848484613fbe565b949350505050565b600061165981613645565b60da805460ff191660ff84169081179091556040519081527f23c0170203096819aed8a13739fe91ce445ec92a7e2aa228081b5e45ee582c8090602001610e5f565b60006116a681613645565b60e180546001600160a01b0319166001600160a01b03851690811790915560e28390556040518381527fd471a80a3a5fd21dfce2b1b7c88bbea4684ab90254a4e47345ac344d566788729060200160405180910390a2505050565b60008281526065602052604090206001015461171c81613645565b611726838361409e565b505050565b6000611735613907565b83600003611756576040516356316e8760e01b815260040160405180910390fd5b60da5461176b90869060ff166003600061394f565b600085815260d160205260408120906117848288613ae6565b60d7546040805160808101825285548152600186015460208201526002860154918101919091526003850154606082015291925060009182916117c991908a90614124565b90925090506117d88289615704565b9450868510156117fb57604051632c1b6b4160e21b815260040160405180910390fd5b6118058489614177565b60d360008282546118169190615751565b9091555061182690508183615704565b8460020160008282546118399190615751565b925050819055508060d560008282546118529190615704565b9091555050600089815260cf602090815260408083206001600160a01b038a168452909152812080549091036118a9576001600160a01b038716600090815260d26020526040902080546118a6908c613d53565b90555b888160000160008282546118bd9190615704565b92505081905550828160010160008282546118d89190615704565b925050819055508360dd60008282546118f19190615704565b9091555050604080518a8152602081018590526001600160a01b0389169133918d917fd9900507c64720c1a5e11858a42769b599616268b832495aa6afe8b9dc566e76910160405180910390a46119466136ca565b61194f8a613eeb565b6119846001600160a01b037f00000000000000000000000000000000000000000000000000000000000000001633308c6141b1565b5050505050949350505050565b60007f000000000000000000000000000000000000000000000000000000000000000046146119c7576119c2614238565b905090565b507f000000000000000000000000000000000000000000000000000000000000000090565b6001600160a01b0381163314611a615760405162461bcd60e51b815260206004820152602f60248201527f416363657373436f6e74726f6c3a2063616e206f6e6c792072656e6f756e636560448201526e103937b632b9903337b91039b2b63360891b60648201526084015b60405180910390fd5b611a6b82826142d2565b5050565b6000611a79613907565b60da54611a8e90869060ff166003600261394f565b611a9c858585856001614339565b9050611aa66136ca565b6116466001600160a01b037f0000000000000000000000000000000000000000000000000000000000000000163330846141b1565b7f65d7a28e3265b37a6474929f336521b332c1681b933f6cb9f3376673440d862a611b0581613645565b611b0d614620565b50565b6000611b1b81613645565b60d78290556040518281527f08b437f29bc93f50025290193a680338033c3fccb93cf0ef95788eba3f003e2690602001610e5f565b60df546000908015610f1d57610f18611b67613402565b849083613730565b6000611b79613907565b6001600160a01b0384163303611ba2576040516344511af160e01b815260040160405180910390fd5b60405163042dcf6b60e31b81523060048201526001600160a01b0383811660248301528581166044830152606482018590527f0000000000000000000000000000000000000000000000000000000000000000169063216e7b5890608401602060405180830381865afa158015611c1d573d6000803e3d6000fd5b505050506040513d601f19601f82011682018060405250810190611c4191906157b7565b925082600003611c645760405163685e923560e01b815260040160405180910390fd5b6001600160a01b038416600090815260d2602090815260409091206001810154909181901c9063ffffffff165b8115801590611c9f57508515155b15611db3576001821615611d9857600081421015611cd857611cc58288898b6000614339565b9050611cd18188615751565b9650611d8a565b600082815260d0602090815260408083206001600160a01b038c168452909152812060018101548154611d0b9190615704565b9150506000611d3360d6548542611d229190615751565b611d2c9190615764565b83906135b7565b611d3d9083615704565b9050888111611d4c5788611d57565b611d57898383613598565b925082600003611d6a5760009850611d87565b611d7884848b8d6000614339565b9250611d84838a615751565b98505b50505b611d948186615704565b9450505b60019190911c90611dac6224ea0082615704565b9050611c91565b5050600084118015611dc9575060008160020154115b15611e00576000611dd985612ef6565b90508015611dfe576000611ded828861466d565b509050611dfa8185615704565b9350505b505b604051636e1b003160e01b81523060048201526001600160a01b03848116602483015286811660448301526064820184905260009182917f00000000000000000000000000000000000000000000000000000000000000001690636e1b0031906084016040805180830381865afa158015611e7f573d6000803e3d6000fd5b505050506040513d601f19601f82011682018060405250810190611ea39190615814565b915091508160d56000828254611eb99190615704565b9091555050306001600160a01b03861603611edf57611eda30338984614760565b611f49565b60405163b2a02ff160e01b81526001600160a01b0386169063b2a02ff190611f0f9033908b9086906004016157f0565b600060405180830381600087803b158015611f2957600080fd5b505af1158015611f3d573d6000803e3d6000fd5b50505050611f496136ca565b60408051858152602081018490529081018290526001600160a01b03808716919089169033907f67bb48f97d82192848c24158abf58ec614777328e19655e0a219652b773fd1db9060600160405180910390a46040516311fd52e160e01b81526001600160a01b0388811660048301527f000000000000000000000000000000000000000000000000000000000000000016906311fd52e190602401600060405180830381600087803b158015611fff57600080fd5b505af1158015612013573d6000803e3d6000fd5b5050505061205a333084876120289190615704565b6001600160a01b037f0000000000000000000000000000000000000000000000000000000000000000169291906141b1565b5050509392505050565b6000610dd482610ef9565b600061207a81613645565b6120826148f5565b60d883905560d982905560408051848152602081018490527fd09fee08a2915f9ac9a77197b21a3e275d34ec9542f569eb15b95ce8f7fe2808910160405180910390a1505050565b60006120d5836134da565b9050806000036121155760405162461bcd60e51b815260206004820152600b60248201526a5a45524f5f53484152455360a81b6044820152606401611a58565b61214a6001600160a01b037f0000000000000000000000000000000000000000000000000000000000000000163330866141b1565b6121548282614920565b60408051848152602081018390526001600160a01b0384169133917fdcbc1c05240f31ff3ad067ef1ee35ce4997762752e3a095284754544f4c709d7910160405180910390a3610dd4838261497a565b60df546000908015610f1d57610f1881610faa613402565b6000806121c7613907565b6121d1848461466d565b90925090506121de6136ca565b6122136001600160a01b037f0000000000000000000000000000000000000000000000000000000000000000163330856141b1565b9250929050565b7f65d7a28e3265b37a6474929f336521b332c1681b933f6cb9f3376673440d862a61224481613645565b611b0d6149d4565b600061225781613645565b60db546001600160a01b031615612273576122736111cd613c1d565b60db80546001600160a01b0319166001600160a01b0384161790556122966136ca565b6040516001600160a01b038316907f7902cd1307c545e3f5782172612372bf997a93698917ced12b2f83d86e347d0c90600090a25050565b60009182526065602090815260408084206001600160a01b0393909316845291905290205460ff1690565b336001600160a01b037f00000000000000000000000000000000000000000000000000000000000000001614612342576040516317568c8f60e21b815260040160405180910390fd5b61234a61364f565b60dd600082825461235b9190615704565b90915550506001600160a01b038116600090815260d260209081526040822060d55460018201549193909290919081901c9063ffffffff165b81156124d25760018216156124b757600081815260d0602090815260408083206001600160a01b038a1684529091528120600181015481549192916123d99190615704565b90508086106124b4576123ec8187615751565b95506123f88186615704565b8254600085815260d1602052604090209196506124159190614a11565b60d360008282546124269190615751565b9091555050600083815260d0602090815260408083206001600160a01b038c16845290915281208181556001908101919091558701546124669084614a35565b600188015560408051828152602081018390526001600160a01b038a1691339186917ff17fce321dd9fb005136a80c0bfb3789e455b7a70be9eb8922f1ad20a80d1a33910160405180910390a45b50505b60019190911c906124cb6224ea0082615704565b9050612394565b600085600201541180156124f1575060006124ec85612ef6565b945084115b15612513576000612502858861466d565b50905061250f8185615704565b9350505b821561256f578260d5600082825461252b9190615751565b90915550506040518381526001600160a01b038716907fde0e3a281fa92ee953a13c5bd96dcaf07b10c6b9f42c65d0e3752c855caa6e7c9060200160405180910390a25b6125776136ca565b505050505050565b600061258a83612db2565b90506125c16001600160a01b037f0000000000000000000000000000000000000000000000000000000000000000163330846141b1565b6125cb8284614920565b60408051828152602081018590526001600160a01b0384169133917fdcbc1c05240f31ff3ad067ef1ee35ce4997762752e3a095284754544f4c709d7910160405180910390a3610dd4818461497a565b60ca8054610e7890615717565b600054610100900460ff16158080156126485750600054600160ff909116105b806126625750303b158015612662575060005460ff166001145b6126c55760405162461bcd60e51b815260206004820152602e60248201527f496e697469616c697a61626c653a20636f6e747261637420697320616c72656160448201526d191e481a5b9a5d1a585b1a5e995960921b6064820152608401611a58565b6000805460ff1916600117905580156126e8576000805461ff0019166101001790555b6126f0614af7565b6126f8614b1e565b60007f00000000000000000000000000000000000000000000000000000000000000006001600160a01b03166395d89b416040518163ffffffff1660e01b8152600401600060405180830381865afa158015612758573d6000803e3d6000fd5b505050506040513d6000823e601f3d908101601f19168201604052612780919081019061584e565b90508060405160200161279391906158fb565b60405160208183030381529060405260c990816127b09190615971565b50806040516020016127c29190615a31565b60405160208183030381529060405260ca90816127df9190615971565b5060da805468ffffffffffffffff0019166101004263ffffffff1690810268ffffffff0000000000191691909117600160281b82021763ffffffff60481b1916600160481b9190910217905561283660003361409e565b61283f8a61164e565b61284889610dda565b6128518861224c565b61285a87612cad565b61286386611b10565b61286c856133a9565b612876848461206f565b5080156128bd576000805461ff0019169055604051600181527f7f26b83ff96e1f2b6a682f133852f6798a09c465da95921460cefb38474024989060200160405180910390a15b505050505050505050565b6000846000036128eb5760405163b8cb621960e01b815260040160405180910390fd5b60da5461290090879060ff166003600261394f565b600086815260d160205260408120906129198289613ae6565b600089815260cf602090815260408083206001600160a01b03891684528252918290208251808401909352805480845260019091015491830182905292935090916129649190615704565b88111561297f576020810151815161297c9190615704565b97505b88421015612a4b5760db5483546001850154612a44926001600160a01b03169163df635f3d918d918d916129b1610fb2565b6040516001600160e01b031960e088901b1681526004810195909552602485019390935260448401919091526064830152608482015260a401602060405180830381865afa158015612a07573d6000803e3d6000fd5b505050506040513d601f19601f82011682018060405250810190612a2b91906157b7565b612a3d90670de0b6b3a7640000615704565b8990614b4d565b9350612a4f565b8793505b86841015612a7057604051632c1b6b4160e21b815260040160405180910390fd5b612a7a8585613b67565b604080518082019091528151815260208083015190820152600090612aab90612aa3908b614b62565b518590614baa565b60d354612ab89190615704565b905060dd5460d45482612acb9190615704565b1115612ae957604051622d41ad60e31b815260040160405180910390fd5b60d355600080612b39612b04612aff888d615751565b613e42565b604080516080810182528854815260018901546020820152600289015491810191909152600388015460608201529088613e6f565b9150915081856002016000828254612b519190615704565b90915550612b60905081613ebd565b612b6a838b614bef565b506020830151835117600003612bbf5760008b815260cf602090815260408083206001600160a01b038b168452825280832083815560010183905560d290915290208054612bb8908d614a35565b9055612bf0565b60008b815260cf602090815260408083206001600160a01b038b168452825290912084518155908401516001909101555b8360dd6000828254612c029190615704565b909155505060408051338152602081018c90529081018790526001600160a01b0380891691908a16908d907fe57dbac0e7c42ad5f3b0fadb9c065565377cf771054fca70d35c96e01f9ec53c9060600160405180910390a4612c626136ca565b612c6b8b613eeb565b612c9f6001600160a01b037f0000000000000000000000000000000000000000000000000000000000000000168988613f3a565b505050505095945050505050565b6000612cb881613645565b60d68290556040518281527fdb0ebfb2503f7c16b45577ebbf6c7d6b99b6e8aaf6652b156e36d5d6654a3a5e90602001610e5f565b60007f00000000000000000000000000000000000000000000000000000000000000006001600160a01b031663a3883db53033612d2986612064565b6040518463ffffffff1660e01b8152600401612d47939291906157f0565b60006040518083038186803b158015612d5f57600080fd5b505afa158015612d73573d6000803e3d6000fd5b50505050610f1f8383614c50565b600080612d8c613907565b6121d1612d9885612ef6565b8461466d565b612da6613907565b61172633848484614760565b60cb546000908015610f1d57610f18611b67610cf4565b60405163a3883db560e01b81526000906001600160a01b037f0000000000000000000000000000000000000000000000000000000000000000169063a3883db590612e1c903090869089906004016157f0565b60006040518083038186803b158015612e3457600080fd5b505afa158015612e48573d6000803e3d6000fd5b50505050612e57848484614cb6565b9050610f1f6136ca565b60007f00000000000000000000000000000000000000000000000000000000000000006001600160a01b031663a3883db53084612e9d88612064565b6040518463ffffffff1660e01b8152600401612ebb939291906157f0565b60006040518083038186803b158015612ed357600080fd5b505afa158015612ee7573d6000803e3d6000fd5b50505050612e57848484614dc4565b60df546000908015610f1d57610f1881612f0e613402565b859190613598565b60cb546000908015610f1d57610f1881612f0e610cf4565b6001600160a01b038116600090815260cc6020526040812054610dd490610ef9565b42841015612fa05760405162461bcd60e51b815260206004820152601760248201527f5045524d49545f444541444c494e455f455850495245440000000000000000006044820152606401611a58565b60006001612fac611991565b6001600160a01b038a8116600081815260ce602090815260409182902080546001810190915582517f6e71edae12b1b97f4d1f60370fef10105fa2faae0126114a169c64845d6126c98184015280840194909452938d166060840152608083018c905260a083019390935260c08083018b90528151808403909101815260e08301909152805192019190912061190160f01b6101008301526101028201929092526101228101919091526101420160408051601f198184030181528282528051602091820120600084529083018083525260ff871690820152606081018590526080810184905260a0016020604051602081039080840390855afa1580156130b8573d6000803e3d6000fd5b5050604051601f1901519150506001600160a01b038116158015906130ee5750876001600160a01b0316816001600160a01b0316145b61312b5760405162461bcd60e51b815260206004820152600e60248201526d24a72b20a624a22fa9a4a3a722a960911b6044820152606401611a58565b6001600160a01b03908116600090815260cd602090815260408083208a8516808552908352928190208990555188815291928a16917f8c5be1e5ebec7d5bd14f71427d1e84f3dd0314c0f7b2291e5b200ac8c7c3b925910160405180910390a350505050505050565b600061319e613907565b6131a88285613b67565b6131b36111cd613c1d565b6131bc846121a4565b905060008460d4546131ce9190615704565b60d481905560dc549091506131ff906111fb90600160801b90046001600160801b0316670de0b6b3a76400006157d0565b8160d35461320d9190615704565b111561322b57604051622d41ad60e31b815260040160405180910390fd5b8160df600082825461323d9190615704565b90915550506001600160a01b038316600090815260d260205260408120600201805484929061326d908490615704565b909155505060408051868152602081018490526001600160a01b03808616929087169133917f96558a334f4759f0e7c423d68c84721860bd8fbf94ddc4e55158ecb125ad04b5910160405180910390a46132c56136ca565b604051637b9d893160e01b81523060048201526001600160a01b0384811660248301527f00000000000000000000000000000000000000000000000000000000000000001690637b9d893190604401600060405180830381600087803b15801561332e57600080fd5b505af1158015613342573d6000803e3d6000fd5b5061337c9250506001600160a01b037f00000000000000000000000000000000000000000000000000000000000000001690508587613f3a565b509392505050565b60008281526065602052604090206001015461339f81613645565b61172683836142d2565b60006133b481613645565b60dc80546001600160801b03908116600160801b918516918202179091556040519081527fc197c4ec4c97f824717acfad017c2a16643adc8874798a0899da42c6b5ebf9bf90602001610e5f565b60d45460dd54600091908281613419576000613423565b6134238383614f10565b60da549091506000906134ce9061103f9061344b90600160281b900463ffffffff1642615751565b60db5460e054604051630fdb9d1f60e41b81526004810191909152602481018790526301e13380916001600160a01b03169063fdb9d1f090604401602060405180830381865afa1580156134a3573d6000803e3d6000fd5b505050506040513d601f19601f820116820180604052508101906134c791906157b7565b9190613598565b90506110508185615704565b6000610dd482612f16565b7f00000000000000000000000000000000000000000000000000000000000000006001600160a01b03166395d89b416040518163ffffffff1660e01b8152600401600060405180830381865afa158015613543573d6000803e3d6000fd5b505050506040513d6000823e601f3d908101601f1916820160405261356b919081019061584e565b60405160200161357b9190615a31565b60405160208183030381529060405260ca9081611b0d9190615971565b8282028115158415858304851417166135b057600080fd5b0492915050565b6000610f1f8383670de0b6b3a7640000613598565b60da5460009081906135e990610100900463ffffffff1642615751565b9050806000036135fb57600091505090565b60da5461363f90829061362b90613619906224ea009060ff16615764565b60dc546001600160801b0316906135b7565b6136359084615704565b60d5549190613598565b91505090565b611b0d8133614f25565b60006136596135cc565b90508060d5600082825461366d9190615751565b909155505060da805464ffffffff0019166101004263ffffffff811691909102919091179091556040519081527fe24d78f24f27ad7740c08c83f439e4c144df201bfd8f5c4c93e3e0898248b1bb9060200160405180910390a190565b60cb5460dd5460df5460d45460d5546040805142815260208101969096528501939093526060840191909152608083015260a08201527f7a71b92e3ef471c5ad18359e076f3df1c563d92e9ea1e33aa4761dbbc9b7ae409060c0015b60405180910390a1565b82820281151584158583048514171661374857600080fd5b6001826001830304018115150290509392505050565b6000680248ce36a70cb26b3e19821361377957506000919050565b680755bf798b4a1bf1e582126137c05760405162461bcd60e51b815260206004820152600c60248201526b4558505f4f564552464c4f5760a01b6044820152606401611a58565b6503782dace9d9604e83901b059150600060606bb17217f7d1cf79abc9e3b39884821b056001605f1b01901d6bb17217f7d1cf79abc9e3b39881029093036c240c330e9fb2d9cbaf0fd5aafb1981018102606090811d6d0277594991cfc85f6e2461837cd9018202811d6d1a521255e34f6a5061b25ef1c9c319018202811d6db1bbb201f443cf962f1a1d3db4a5018202811d6e02c72388d9f74f51a9331fed693f1419018202811d6e05180bb14799ab47a8a8cb2a527d57016d02d16720577bd19bf614176fe9ea6c10fe68e7fd37d0007b713f765084018402831d9081019084016d01d3967ed30fc4f89c02bab5708119010290911d6e0587f503bb6ea29d25fcb740196450019091026d360d7aeea093263ecc6e0ecb291760621b010574029d9dc38563c32e5c2f6dc192ee70ef65f9978af30260c3939093039290921c92915050565b60975460ff161561394d5760405162461bcd60e51b815260206004820152601060248201526f14185d5cd8589b194e881c185d5cd95960821b6044820152606401611a58565b565b600061395e6224ea0086615a5c565b1561396b575060016139be565b42851161397a575060026139be565b61398a60ff85166224ea00615764565b6139976224ea0042615a5c565b6139a19042615751565b6139ab9190615704565b8511156139ba575060046139be565b5060035b8260048111156139d0576139d0615a70565b8160048111156139e2576139e2615a70565b14158015613a1257508160048111156139fd576139fd615a70565b816004811115613a0f57613a0f615a70565b14155b15613adf576000826004811115613a2b57613a2b615a70565b03613a7a57806004811115613a4257613a42615a70565b836004811115613a5457613a54615a70565b604051631a71301d60e11b815260ff928316600482015291166024820152604401611a58565b806004811115613a8c57613a8c615a70565b836004811115613a9e57613a9e615a70565b836004811115613ab057613ab0615a70565b604051637f2cef9960e01b815260ff938416600482015291831660248301529091166044820152606401611a58565b5050505050565b600382015460009042831115613b3b5760028401544260038601819055613b2490613b12908490615751565b613b1c8487615751565b839190613598565b9250613b308382615751565b600286015550613b60565b828103613b4b5760009150613b60565b60038401839055600284018054600090915591505b5092915050565b336001600160a01b03831614611a6b576001600160a01b038216600090815260cd60209081526040808320338452909152902054600019811461172657613bad82610f92565b613bb79082615751565b6001600160a01b038416600090815260cd60209081526040808320338452909152902055505050565b815460009081613bf08483615704565b9050613c09613c03838760010154614f7e565b82614f94565b613c139082615751565b9455509192915050565b60d45460dd54600091908281613c34576000613c3e565b613c3e8383614f10565b60da54909150600090613c669061103f9061344b90600160281b900463ffffffff1642615751565b9050613c728185615704565b9350613c8960e254826135b790919063ffffffff16565b945084613c968285615704565b613ca09190615751565b60dd5560d484905560e082905560da805468ffffffff00000000001916600160281b4263ffffffff8116919091029190911790915560408051918252602082018490527f582b129106eba35020853cdae92ceb413a0227befcce433b67b23a630219b35f910160405180910390a15050505090565b8015611b0d5760e154613d39906001600160a01b0316613d34836134da565b614920565b8060dd6000828254613d4b9190615704565b909155505050565b600082600003613d6b57506401000000008117610dd4565b63ffffffff831680831015613dea5760006224ea00613d8a8584615751565b613d949190615a86565b9050613da281610100615751565b85901c15613dc35760405163293cc41f60e21b815260040160405180910390fd5b613dce816020615704565b602086901c901b94508484176401000000001792505050610dd4565b60006224ea00613dfa8386615751565b613e049190615a86565b905060df811115613e285760405163293cc41f60e21b815260040160405180910390fd5b613e33816020615704565b6001901b851792505050610dd4565b600080613e5a60e254846135b790919063ffffffff16565b9050613e6581613d15565b610f1f8184615751565b6000808215613ea457613e9f613e8d613e8787614fa3565b85614f94565b613e979085615751565b859085613598565b613ea7565b60005b9050613eb38185615751565b9150935093915050565b80600003613ec85750565b60e25415613ed957611b0d81613d15565b8060d56000828254613d4b9190615704565b600081815260d160209081526040918290206002015482514281529182015282917fa2e6044136bec58e0605f40ac11a7bf87f1a8bdf3e2588b11b2cfae5acd9109f910160405180910390a250565b600060405163a9059cbb60e01b6000528360045282602452602060006044600080895af13d15601f3d1160016000511416171691506000606052806040525080613fb85760405162461bcd60e51b815260206004820152600f60248201526e1514905394d1915497d19052531151608a1b6044820152606401611a58565b50505050565b6001600160a01b038316600090815260cd60209081526040808320338452909152812054600019811461401a57613ff58382615751565b6001600160a01b038616600090815260cd602090815260408083203384529091529020555b6001600160a01b038516600090815260cc602052604081208054859290614042908490615751565b90915550506001600160a01b03808516600081815260cc602052604090819020805487019055519091871690600080516020615bfe8339815191529061408b9087815260200190565b60405180910390a3506001949350505050565b6140a882826122ce565b611a6b5760008281526065602090815260408083206001600160a01b03851684529091529020805460ff191660011790556140e03390565b6001600160a01b0316816001600160a01b0316837f2f8788117e7eff1d82e926ec794901d17c78024a50270940304540a733656f0d60405160405180910390a45050565b600080600061413286614fa3565b9050801561416e576141536141478683614f94565b60408801519083613598565b925061415f83856135b7565b915061416b8284615751565b92505b50935093915050565b815460018301546000919061418c8482615704565b60018601556141a861419e8383614f94565b613e879084615751565b95945050505050565b60006040516323b872dd60e01b6000528460045283602452826044526020600060646000808a5af13d15601f3d1160016000511416171691506000606052806040525080613adf5760405162461bcd60e51b81526020600482015260146024820152731514905394d1915497d19493d357d1905253115160621b6044820152606401611a58565b60007f8b73c3c69bb8fe3d512ecc4cf759cc79239f7b179b0ffacaa9a75d522b39400f60c960405161426a9190615a9a565b6040805191829003822060208301939093528101919091527fc89efdaa54c0f20c7adf612882df0950f5a951637e0307cdcb4c672f298b8bc660608201524660808201523060a082015260c00160405160208183030381529060405280519060200120905090565b6142dc82826122ce565b15611a6b5760008281526065602090815260408083206001600160a01b0385168085529252808320805460ff1916905551339285917ff6391f5c32d9c69d2a47ea670b442974b53935d1edc7fd64eb21e047a839171b9190a45050565b60008460000361435c5760405163685e923560e01b815260040160405180910390fd5b600086815260d160205260408120906143758289613ae6565b600089815260d0602090815260408083206001600160a01b038a168452825280832081518083019092528054808352600190910154928201839052939450926143c9918b916143c49190615704565b614f94565b6040805180820190915283518152602080850151908201529091506000906143f19083614b62565b519050428b111561449f5786156144975760d754604080516080810182528754815260018801546020820152600288015491810191909152600387015460608201526000918291614443918590614124565b90925090506144528183615704565b8760020160008282546144659190615751565b925050819055508060d5600082825461447e9190615704565b9091555061448e90508285615751565b975050506144dd565b8195506144dd565b60d6546144b090611d228d42615751565b6144ba9083615704565b95506144c68287615751565b60d560008282546144d79190615704565b90915550505b888611156144fe57604051632c1b6b4160e21b815260040160405180910390fd5b6145088582614a11565b60d360008282546145199190615751565b9091555061452990508383614bef565b5060208301518351176000036145875760008b815260d0602090815260408083206001600160a01b038c1684528252808320838155600190810184905560d29092529091209081015461457c908d614a35565b6001909101556145b8565b60008b815260d0602090815260408083206001600160a01b038c168452825290912084518155908401516001909101555b8360dd60008282546145ca9190615704565b909155505060408051878152602081018490526001600160a01b038a169133918e917ff17fce321dd9fb005136a80c0bfb3789e455b7a70be9eb8922f1ad20a80d1a33910160405180910390a4612c9f8b613eeb565b614628614fc2565b6097805460ff191690557f5db9ee0a495bf2e6ff9c91a7834c1ba4fdd244a5e8aa4e537bd38aeae4b073aa335b6040516001600160a01b039091168152602001613726565b60008061467b6111cd613c1d565b6001600160a01b038316600090815260d26020526040902060028101546146a28682614f94565b92506146ad83611b50565b9350836000036146d05760405163685e923560e01b815260040160405180910390fd5b8360d460008282546146e29190615751565b909155506146f290508382615751565b82600201819055508260df600082825461470c9190615751565b909155505060408051858152602081018590526001600160a01b0387169133917fe4a1ae657f49cb1fb1c7d3a94ae6093565c4c8c0e03de488f79c377c3c3a24e0910160405180910390a350509250929050565b806000036147815760405163b8cb621960e01b815260040160405180910390fd5b60405163070b773960e51b81526001600160a01b0385811660048301523060248301527f0000000000000000000000000000000000000000000000000000000000000000169063e16ee7209060440160006040518083038186803b1580156147e857600080fd5b505afa1580156147fc573d6000803e3d6000fd5b50505050600061480b82610f92565b9050614817828261500b565b614821838261507e565b60408051838152602081018390526001600160a01b03808616929087169133917ffbde797d201c681b91056529119e0b02407c7bb96a4a2c75c01fc9667232c8db910160405180910390a4826001600160a01b0316846001600160a01b03167f9e2db63c5a9dc5d08222447d76570029e4f2f3074c8aa4f1c511fa658506c710846040516148b191815260200190565b60405180910390a36148c16136ca565b613adf6001600160a01b037f0000000000000000000000000000000000000000000000000000000000000000168584613f3a565b6148fd610fb2565b60de5560da805463ffffffff60481b1916600160481b4263ffffffff1602179055565b8060cb60008282546149329190615704565b90915550506001600160a01b038216600081815260cc6020908152604080832080548601905551848152600080516020615bfe83398151915291015b60405180910390a35050565b614982613907565b61498a6148f5565b6000614994613c1d565b905060006149a061364f565b90506149ac8482615704565b60dd60008282546149bd9190615704565b909155506149cc905082613d15565b613fb86136ca565b6149dc613907565b6097805460ff191660011790557f62e78cea01bee320cd4e420270b5ea74000d11b0c9f74754ebdbfc544b05a2586146553390565b8154600183015460009190614a268483615751565b85556141a861419e8383614f94565b6000821580614a4a5750816401000000001783145b15614a5757506000610dd4565b63ffffffff8316808303614ac557602184901c60015b60018216158015614a7d57508115155b15614a8e57600191821c9101614a6d565b6020614a9a8282615704565b9690961c90951b9485614ab06224ea0083615764565b614aba9087615704565b179350505050610dd4565b6224ea00614ad38285615751565b614add9190615a86565b614ae8906020615704565b6001901b198416915050610dd4565b600054610100900460ff1661394d5760405162461bcd60e51b8152600401611a5890615b10565b600054610100900460ff16614b455760405162461bcd60e51b8152600401611a5890615b10565b61394d6150e0565b6000610f1f83670de0b6b3a764000084613598565b604080518082019091526000808252602082015282516020840151600091614b8e91612f0e9082615704565b8085529050614b9d8184615751565b6020850152509192915050565b815460018301546000919082614bc08583615751565b9050614bcc8184614f94565b614bd68385614f94565b614be09190615751565b60019096015550929392505050565b604080518082019091526000808252602082015260208301518351600091614c1691615704565b90506000614c248483615751565b8551909150614c3590829084613598565b808652614c429082615751565b602086015250929392505050565b33600090815260cc6020526040812080548391908390614c71908490615751565b90915550506001600160a01b038316600081815260cc602052604090819020805485019055513390600080516020615bfe83398151915290610f819086815260200190565b6000614cc184610f92565b9050336001600160a01b03831614614d31576001600160a01b038216600090815260cd602090815260408083203384529091529020546000198114614d2f57614d0a8282615751565b6001600160a01b038416600090815260cd602090815260408083203384529091529020555b505b614d3b848261500b565b614d45828261507e565b60408051858152602081018390526001600160a01b03808516929086169133917ffbde797d201c681b91056529119e0b02407c7bb96a4a2c75c01fc9667232c8db910160405180910390a4610f1f6001600160a01b037f0000000000000000000000000000000000000000000000000000000000000000168486613f3a565b6000336001600160a01b03831614614e34576001600160a01b038216600090815260cd602090815260408083203384529091529020546000198114614e3257614e0d8582615751565b6001600160a01b038416600090815260cd602090815260408083203384529091529020555b505b614e3d84612064565b905080600003614e7d5760405162461bcd60e51b815260206004820152600b60248201526a5a45524f5f41535345545360a81b6044820152606401611a58565b614e87818561500b565b614e91828561507e565b60408051828152602081018690526001600160a01b03808516929086169133917ffbde797d201c681b91056529119e0b02407c7bb96a4a2c75c01fc9667232c8db910160405180910390a4610f1f6001600160a01b037f0000000000000000000000000000000000000000000000000000000000000000168483613f3a565b6000610f1f83670de0b6b3a764000084613730565b614f2f82826122ce565b611a6b57614f3c81615113565b614f47836020615125565b604051602001614f58929190615b5b565b60408051601f198184030181529082905262461bcd60e51b8252611a5891600401615378565b6000818311614f8d5781610f1f565b5090919050565b6000818310614f8d5781610f1f565b8051602082015160009190614fb88282614f94565b6116469083615751565b60975460ff1661394d5760405162461bcd60e51b815260206004820152601460248201527314185d5cd8589b194e881b9bdd081c185d5cd95960621b6044820152606401611a58565b6150136148f5565b61501e6111cd613c1d565b600061502861364f565b90506000838260dd5461503b9190615704565b6150459190615751565b90508060d45460d3546150589190615704565b111561507657604051622d41ad60e31b815260040160405180910390fd5b60dd55505050565b6001600160a01b038216600090815260cc6020526040812080548392906150a6908490615751565b909155505060cb805482900390556040518181526000906001600160a01b03841690600080516020615bfe8339815191529060200161496e565b600054610100900460ff166151075760405162461bcd60e51b8152600401611a5890615b10565b6097805460ff19169055565b6060610dd46001600160a01b03831660145b60606000615134836002615764565b61513f906002615704565b67ffffffffffffffff81111561515757615157615838565b6040519080825280601f01601f191660200182016040528015615181576020820181803683370190505b509050600360fc1b8160008151811061519c5761519c615bd0565b60200101906001600160f81b031916908160001a905350600f60fb1b816001815181106151cb576151cb615bd0565b60200101906001600160f81b031916908160001a90535060006151ef846002615764565b6151fa906001615704565b90505b6001811115615272576f181899199a1a9b1b9c1cb0b131b232b360811b85600f166010811061522e5761522e615bd0565b1a60f81b82828151811061524457615244615bd0565b60200101906001600160f81b031916908160001a90535060049490941c9361526b81615be6565b90506151fd565b508315610f1f5760405162461bcd60e51b815260206004820181905260248201527f537472696e67733a20686578206c656e67746820696e73756666696369656e746044820152606401611a58565b6001600160a01b0381168114611b0d57600080fd5b6000602082840312156152e857600080fd5b8135610f1f816152c1565b60006020828403121561530557600080fd5b81356001600160e01b031981168114610f1f57600080fd5b80356001600160801b038116811461533457600080fd5b919050565b60006020828403121561534b57600080fd5b610f1f8261531d565b60005b8381101561536f578181015183820152602001615357565b50506000910152565b6020815260008251806020840152615397816040850160208701615354565b601f01601f19169190910160400192915050565b6000602082840312156153bd57600080fd5b5035919050565b600080604083850312156153d757600080fd5b82356153e2816152c1565b946020939093013593505050565b600080600080600060a0868803121561540857600080fd5b8535945060208601359350604086013592506060860135615428816152c1565b91506080860135615438816152c1565b809150509295509295909350565b60008060006060848603121561545b57600080fd5b8335615466816152c1565b92506020840135615476816152c1565b929592945050506040919091013590565b803560ff8116811461533457600080fd5b6000602082840312156154aa57600080fd5b610f1f82615487565b600080604083850312156154c657600080fd5b8235915060208301356154d8816152c1565b809150509250929050565b600080600080608085870312156154f957600080fd5b8435935060208501359250604085013591506060850135615519816152c1565b939692955090935050565b60008060006060848603121561553957600080fd5b8335615544816152c1565b925060208401359150604084013561555b816152c1565b809150509250925092565b6000806040838503121561557957600080fd5b50508035926020909101359150565b600080600080600080600080610100898b0312156155a557600080fd5b6155ae89615487565b97506155bc60208a0161531d565b965060408901356155cc816152c1565b955060608901359450608089013593506155e860a08a0161531d565b925060c0890135915060e089013590509295985092959890939650565b60008060006060848603121561561a57600080fd5b83359250602084013561562c816152c1565b9150604084013561555b816152c1565b600080600080600080600060e0888a03121561565757600080fd5b8735615662816152c1565b96506020880135615672816152c1565b9550604088013594506060880135935061568e60808901615487565b925060a0880135915060c0880135905092959891949750929550565b600080604083850312156156bd57600080fd5b82356156c8816152c1565b915060208301356154d8816152c1565b634e487b7160e01b600052601260045260246000fd5b634e487b7160e01b600052601160045260246000fd5b80820180821115610dd457610dd46156ee565b600181811c9082168061572b57607f821691505b60208210810361574b57634e487b7160e01b600052602260045260246000fd5b50919050565b81810381811115610dd457610dd46156ee565b8082028115828204841417610dd457610dd46156ee565b6000600160ff1b8201615790576157906156ee565b5060000390565b8181036000831280158383131683831282161715613b6057613b606156ee565b6000602082840312156157c957600080fd5b5051919050565b6001600160801b03828116828216039080821115613b6057613b606156ee565b6001600160a01b039384168152919092166020820152604081019190915260600190565b6000806040838503121561582757600080fd5b505080516020909101519092909150565b634e487b7160e01b600052604160045260246000fd5b60006020828403121561586057600080fd5b815167ffffffffffffffff8082111561587857600080fd5b818401915084601f83011261588c57600080fd5b81518181111561589e5761589e615838565b604051601f8201601f19908116603f011681019083821181831017156158c6576158c6615838565b816040528281528760208487010111156158df57600080fd5b6158f0836020830160208801615354565b979650505050505050565b67032bc30b1ba363c960c51b81526000825161591e816008850160208701615354565b9190910160080192915050565b601f82111561172657600081815260208120601f850160051c810160208610156159525750805b601f850160051c820191505b818110156125775782815560010161595e565b815167ffffffffffffffff81111561598b5761598b615838565b61599f816159998454615717565b8461592b565b602080601f8311600181146159d457600084156159bc5750858301515b600019600386901b1c1916600185901b178555612577565b600085815260208120601f198616915b82811015615a03578886015182559484019460019091019084016159e4565b5085821015615a215787850151600019600388901b60f8161c191681555b5050505050600190811b01905550565b6265786160e81b815260008251615a4f816003850160208701615354565b9190910160030192915050565b600082615a6b57615a6b6156d8565b500690565b634e487b7160e01b600052602160045260246000fd5b600082615a9557615a956156d8565b500490565b6000808354615aa881615717565b60018281168015615ac05760018114615ad557615b04565b60ff1984168752821515830287019450615b04565b8760005260208060002060005b85811015615afb5781548a820152908401908201615ae2565b50505082870194505b50929695505050505050565b6020808252602b908201527f496e697469616c697a61626c653a20636f6e7472616374206973206e6f74206960408201526a6e697469616c697a696e6760a81b606082015260800190565b7f416363657373436f6e74726f6c3a206163636f756e7420000000000000000000815260008351615b93816017850160208801615354565b7001034b99036b4b9b9b4b733903937b6329607d1b6017918401918201528351615bc4816028840160208801615354565b01602801949350505050565b634e487b7160e01b600052603260045260246000fd5b600081615bf557615bf56156ee565b50600019019056feddf252ad1be2c89b69c2b068fc378daa952ba7f163c4a11628f55a4df523b3efa2646970667358221220316de7275b87d7436132e5e7cf547b44b41ebdf8d859208f9f7bc0bc3fa06caf64736f6c63430008110033",
  "devdoc": {
    "events": {
      "AccumulatorAccrual(uint256)": {
        "params": {
          "timestamp": "current timestamp."
        }
      },
      "BackupFeeRateSet(uint256)": {
        "params": {
          "backupFeeRate": "rate charged to the fixed pools to be accrued by the floating depositors."
        }
      },
      "Borrow(address,address,address,uint256,uint256)": {
        "params": {
          "assets": "amount of assets that were borrowed.",
          "borrower": "address which will be repaying the borrowed assets.",
          "caller": "address which borrowed the asset.",
          "receiver": "address that received the borrowed assets.",
          "shares": "amount of borrow shares assigned to the account."
        }
      },
      "BorrowAtMaturity(uint256,address,address,address,uint256,uint256)": {
        "params": {
          "assets": "amount of the asset that were borrowed.",
          "borrower": "address which will be repaying the borrowed assets.",
          "caller": "address which borrowed the asset.",
          "fee": "extra amount that will need to be paid at maturity.",
          "maturity": "maturity in which the account will have to repay the loan.",
          "receiver": "address that received the borrowed assets."
        }
      },
      "DampSpeedSet(uint256,uint256)": {
        "params": {
          "dampSpeedDown": "represented with 18 decimals.",
          "dampSpeedUp": "represented with 18 decimals."
        }
      },
      "DepositAtMaturity(uint256,address,address,uint256,uint256)": {
        "params": {
          "assets": "amount of the asset that were deposited.",
          "caller": "address which deposited the assets.",
          "fee": "is the extra amount that it will be collected at maturity.",
          "maturity": "maturity at which the account will be able to collect his deposit + his fee.",
          "owner": "address that will be able to withdraw the deposited assets."
        }
      },
      "EarningsAccumulatorSmoothFactorSet(uint256)": {
        "params": {
          "earningsAccumulatorSmoothFactor": "factor represented with 18 decimals."
        }
      },
      "FixedEarningsUpdate(uint256,uint256,uint256)": {
        "params": {
          "maturity": "maturity date where the earnings were updated.",
          "timestamp": "current timestamp.",
          "unassignedEarnings": "pending unassigned earnings."
        }
      },
      "FloatingDebtUpdate(uint256,uint256)": {
        "params": {
          "timestamp": "current timestamp.",
          "utilization": "new floating utilization."
        }
      },
      "InterestRateModelSet(address)": {
        "params": {
          "interestRateModel": "new interest rate model to be used to calculate rates."
        }
      },
      "Liquidate(address,address,uint256,uint256,address,uint256)": {
        "params": {
          "assets": "amount of the asset that were repaid.",
          "borrower": "address which had the original debt.",
          "lendersAssets": "incentive paid to lenders.",
          "receiver": "address which repaid the previously borrowed amount.",
          "seizeMarket": "address of the asset that were seized by the liquidator.",
          "seizedAssets": "amount seized of the collateral."
        }
      },
      "MarketUpdate(uint256,uint256,uint256,uint256,uint256,uint256)": {
        "params": {
          "earningsAccumulator": "earnings accumulator.",
          "floatingAssets": "total floating supply assets.",
          "floatingBorrowShares": "total floating borrow shares.",
          "floatingDebt": "total floating borrow assets.",
          "floatingDepositShares": "total floating supply shares.",
          "timestamp": "current timestamp."
        }
      },
      "MaxFuturePoolsSet(uint256)": {
        "params": {
          "maxFuturePools": "represented with 0 decimals."
        }
      },
      "PenaltyRateSet(uint256)": {
        "params": {
          "penaltyRate": "penaltyRate percentage per second represented with 18 decimals."
        }
      },
      "Repay(address,address,uint256,uint256)": {
        "params": {
          "assets": "amount of assets that was repaid.",
          "borrower": "address which had the original debt.",
          "caller": "address which repaid the previously borrowed amount.",
          "shares": "amount of borrow shares that were subtracted from the account's accountability."
        }
      },
      "RepayAtMaturity(uint256,address,address,uint256,uint256)": {
        "params": {
          "assets": "amount that was repaid.",
          "borrower": "address which had the original debt.",
          "caller": "address which repaid the previously borrowed amount.",
          "maturity": "maturity where the account repaid its borrowed amounts.",
          "positionAssets": "amount of the debt that was covered in this repayment (penalties could have been repaid)."
        }
      },
      "ReserveFactorSet(uint256)": {
        "params": {
          "reserveFactor": "reserveFactor percentage."
        }
      },
      "Seize(address,address,uint256)": {
        "params": {
          "assets": "amount seized of the collateral.",
          "borrower": "address which had the original debt.",
          "liquidator": "address which seized this collateral."
        }
      },
      "SpreadBadDebt(address,uint256)": {
        "params": {
          "assets": "amount that was subtracted from the borrower's debt and spread to the `earningsAccumulator`.",
          "borrower": "address which was cleared from bad debt."
        }
      },
      "TreasurySet(address,uint256)": {
        "params": {
          "treasury": "address of the treasury that will receive the minted eTokens.",
          "treasuryFeeRate": "represented with 18 decimals."
        }
      },
      "WithdrawAtMaturity(uint256,address,address,address,uint256,uint256)": {
        "params": {
          "assets": "amount of assets withdrawn (can include a discount for early withdraw).",
          "caller": "address which withdraw the asset.",
          "maturity": "maturity where the account withdraw its deposits.",
          "owner": "address which had the assets withdrawn.",
          "positionAssets": "position size reduced.",
          "receiver": "address which will be collecting the assets."
        }
      }
    },
    "kind": "dev",
    "methods": {
      "accountSnapshot(address)": {
        "params": {
          "account": "account to return status snapshot in the specified maturity date."
        },
        "returns": {
          "_0": "the amount deposited to the floating pool and the amount owed to floating and fixed pools."
        }
      },
      "borrow(uint256,address,address)": {
        "params": {
          "assets": "amount to be sent to receiver and repaid by borrower.",
          "borrower": "address that will repay the borrowed assets.",
          "receiver": "address that will receive the borrowed assets."
        },
        "returns": {
          "borrowShares": "shares corresponding to the borrowed assets."
        }
      },
      "borrowAtMaturity(uint256,uint256,uint256,address,address)": {
        "params": {
          "assets": "amount to be sent to receiver and repaid by borrower.",
          "borrower": "address that will repay the borrowed assets.",
          "maturity": "maturity date for repayment.",
          "maxAssets": "maximum amount of debt that the account is willing to accept.",
          "receiver": "address that will receive the borrowed assets."
        },
        "returns": {
          "assetsOwed": "total amount of assets (principal + fee) to be repaid at maturity."
        }
      },
      "clearBadDebt(address)": {
        "details": "Can only be called from the auditor.",
        "params": {
          "borrower": "account with insufficient collateral to be cleared the debt."
        }
      },
      "constructor": {
        "custom:oz-upgrades-unsafe-allow": "constructor"
      },
      "depositAtMaturity(uint256,uint256,uint256,address)": {
        "params": {
          "assets": "amount to receive from the msg.sender.",
          "maturity": "maturity date where the assets will be deposited.",
          "minAssetsRequired": "minimum amount of assets required by the depositor for the transaction to be accepted.",
          "receiver": "address that will be able to withdraw the deposited assets."
        },
        "returns": {
          "positionAssets": "total amount of assets (principal + fee) to be withdrawn at maturity."
        }
      },
      "getRoleAdmin(bytes32)": {
        "details": "Returns the admin role that controls `role`. See {grantRole} and {revokeRole}. To change a role's admin, use {_setRoleAdmin}."
      },
      "grantRole(bytes32,address)": {
        "details": "Grants `role` to `account`. If `account` had not been already granted `role`, emits a {RoleGranted} event. Requirements: - the caller must have ``role``'s admin role. May emit a {RoleGranted} event."
      },
      "hasRole(bytes32,address)": {
        "details": "Returns `true` if `account` has been granted `role`."
      },
      "initialize(uint8,uint128,address,uint256,uint256,uint128,uint256,uint256)": {
        "details": "can only be called once."
      },
      "liquidate(address,uint256,address)": {
        "details": "Msg.sender liquidates borrower's position(s) and repays a certain amount of debt for the floating pool, or/and for multiple fixed pools, seizing a portion of borrower's collateral.",
        "params": {
          "borrower": "account that has an outstanding debt across floating or fixed pools.",
          "maxAssets": "maximum amount of debt that the liquidator is willing to accept. (it can be less)",
          "seizeMarket": "market from which the collateral will be seized to give to the liquidator."
        },
        "returns": {
          "repaidAssets": "actual amount repaid."
        }
      },
      "paused()": {
        "details": "Returns true if the contract is paused, and false otherwise."
      },
      "previewBorrow(uint256)": {
        "params": {
          "assets": "amount of assets to borrow."
        },
        "returns": {
          "_0": "amount of shares that will be asigned to the account after the borrow."
        }
      },
      "previewDebt(address)": {
        "params": {
          "borrower": "account to return status snapshot for fixed and floating borrows."
        },
        "returns": {
          "debt": "the total debt, denominated in number of assets."
        }
      },
      "previewFloatingAssetsAverage()": {
        "returns": {
          "_0": "projected `floatingAssetsAverage`."
        }
      },
      "previewRefund(uint256)": {
        "params": {
          "shares": "amount of shares to subtract from caller's accountability."
        },
        "returns": {
          "_0": "amount of assets that will be repaid."
        }
      },
      "previewRepay(uint256)": {
        "params": {
          "assets": "amount of assets to repay."
        },
        "returns": {
          "_0": "amount of shares that will be subtracted from the account after the repay."
        }
      },
      "redeem(uint256,address,address)": {
        "details": "Makes sure that the owner doesn't have shortfall after withdrawing.",
        "params": {
          "owner": "address which owns the floating pool assets.",
          "receiver": "address to which the assets will be transferred.",
          "shares": "amount of shares to be redeemed for underlying asset."
        },
        "returns": {
          "assets": "amount of underlying asset that was withdrawn."
        }
      },
      "refund(uint256,address)": {
        "params": {
          "borrowShares": "shares to be subtracted from the borrower's accountability.",
          "borrower": "address of the account that has the debt."
        },
        "returns": {
          "actualShares": "actual subtracted shares from the borrower's accountability.",
          "assets": "subtracted assets from the borrower's accountability."
        }
      },
      "renounceRole(bytes32,address)": {
        "details": "Revokes `role` from the calling account. Roles are often managed via {grantRole} and {revokeRole}: this function's purpose is to provide a mechanism for accounts to lose their privileges if they are compromised (such as when a trusted device is misplaced). If the calling account had been revoked `role`, emits a {RoleRevoked} event. Requirements: - the caller must be `account`. May emit a {RoleRevoked} event."
      },
      "repay(uint256,address)": {
        "params": {
          "assets": "assets to be subtracted from the borrower's accountability.",
          "borrower": "address of the account that has the debt."
        },
        "returns": {
          "actualRepay": "the actual amount that should be transferred into the protocol.",
          "borrowShares": "subtracted shares from the borrower's accountability."
        }
      },
      "repayAtMaturity(uint256,uint256,uint256,address)": {
        "params": {
          "borrower": "address of the account that has the debt.",
          "maturity": "maturity date where the assets will be repaid.",
          "maxAssets": "maximum amount of debt that the account is willing to accept to be repaid.",
          "positionAssets": "amount to be paid for the borrower's debt."
        },
        "returns": {
          "actualRepayAssets": "the actual amount that was transferred into the protocol."
        }
      },
      "revokeRole(bytes32,address)": {
        "details": "Revokes `role` from `account`. If `account` had been granted `role`, emits a {RoleRevoked} event. Requirements: - the caller must have ``role``'s admin role. May emit a {RoleRevoked} event."
      },
      "seize(address,address,uint256)": {
        "details": "Public function for liquidator to seize borrowers assets in the floating pool. This function will only be called from another Market, on `liquidation` calls. That's why msg.sender needs to be passed to the internal function (to be validated as a Market).",
        "params": {
          "assets": "amount to be removed from borrower's possession.",
          "borrower": "address from which the assets will be seized.",
          "liquidator": "address which will receive the seized assets."
        }
      },
      "setBackupFeeRate(uint256)": {
        "params": {
          "backupFeeRate_": "percentage amount represented with 18 decimals."
        }
      },
      "setDampSpeed(uint256,uint256)": {
        "params": {
          "down": "damp speed down, represented with 18 decimals.",
          "up": "damp speed up, represented with 18 decimals."
        }
      },
      "setEarningsAccumulatorSmoothFactor(uint128)": {
        "params": {
          "earningsAccumulatorSmoothFactor_": "represented with 18 decimals."
        }
      },
      "setInterestRateModel(address)": {
        "params": {
          "interestRateModel_": "new interest rate model."
        }
      },
      "setMaxFuturePools(uint8)": {
        "details": "If value is decreased, VALID maturities will become NOT_READY.",
        "params": {
          "futurePools": "number of pools to be active at the same time."
        }
      },
      "setPenaltyRate(uint256)": {
        "params": {
          "penaltyRate_": "percentage represented with 18 decimals."
        }
      },
      "setReserveFactor(uint128)": {
        "params": {
          "reserveFactor_": "parameter represented with 18 decimals."
        }
      },
      "setTreasury(address,uint256)": {
        "params": {
          "treasuryFeeRate_": "represented with 18 decimals.",
          "treasury_": "address of the treasury that will receive the minted eTokens."
        }
      },
      "supportsInterface(bytes4)": {
        "details": "See {IERC165-supportsInterface}."
      },
      "totalAssets()": {
        "returns": {
          "_0": "actual floatingAssets plus earnings to be accrued at current timestamp."
        }
      },
      "totalFloatingBorrowAssets()": {
        "returns": {
          "_0": "actual floating debt plus projected interest."
        }
      },
      "transfer(address,uint256)": {
        "details": "It's expected that this function can't be paused to prevent freezing account funds. Makes sure that the caller doesn't have shortfall after transferring.",
        "params": {
          "shares": "amount of shares to be transferred.",
          "to": "address to which the assets will be transferred."
        }
      },
      "transferFrom(address,address,uint256)": {
        "details": "It's expected that this function can't be paused to prevent freezing account funds. Makes sure that `from` address doesn't have shortfall after transferring.",
        "params": {
          "from": "address from which the assets will be transferred.",
          "shares": "amount of shares to be transferred.",
          "to": "address to which the assets will be transferred."
        }
      },
      "withdraw(uint256,address,address)": {
        "details": "Makes sure that the owner doesn't have shortfall after withdrawing.",
        "params": {
          "assets": "amount of underlying to be withdrawn.",
          "owner": "address which owns the floating pool assets.",
          "receiver": "address to which the assets will be transferred."
        },
        "returns": {
          "shares": "amount of shares redeemed for underlying asset."
        }
      },
      "withdrawAtMaturity(uint256,uint256,uint256,address,address)": {
        "details": "It's expected that this function can't be paused to prevent freezing account funds.",
        "params": {
          "maturity": "maturity date where the assets will be withdrawn.",
          "minAssetsRequired": "minimum amount required by the account (if discount included for early withdrawal).",
          "owner": "address that previously deposited the assets.",
          "positionAssets": "position size to be reduced.",
          "receiver": "address that will receive the withdrawn assets."
        },
        "returns": {
          "assetsDiscounted": "amount of assets withdrawn (can include a discount for early withdraw)."
        }
      }
    },
    "stateVariables": {
      "auditor": {
        "custom:oz-upgrades-unsafe-allow": "state-variable-immutable"
      }
    },
    "version": 1
  },
  "userdoc": {
    "events": {
      "AccumulatorAccrual(uint256)": {
        "notice": "Emitted when accumulator distributes earnings."
      },
      "BackupFeeRateSet(uint256)": {
        "notice": "Emitted when the backupFeeRate parameter is changed by admin."
      },
      "Borrow(address,address,address,uint256,uint256)": {
        "notice": "Event emitted when an account borrows amount of assets from a floating pool."
      },
      "BorrowAtMaturity(uint256,address,address,address,uint256,uint256)": {
        "notice": "Emitted when an account borrows amount of an asset from a certain maturity date."
      },
      "DampSpeedSet(uint256,uint256)": {
        "notice": "Emitted when the damp speeds are changed by admin."
      },
      "DepositAtMaturity(uint256,address,address,uint256,uint256)": {
        "notice": "Emitted when an account deposits an amount of an asset to a certain fixed rate pool, collecting fees at the end of the period."
      },
      "EarningsAccumulatorSmoothFactorSet(uint256)": {
        "notice": "Emitted when the earningsAccumulatorSmoothFactor is changed by admin."
      },
      "FixedEarningsUpdate(uint256,uint256,uint256)": {
        "notice": "Emitted when the earnings of a maturity are updated."
      },
      "FloatingDebtUpdate(uint256,uint256)": {
        "notice": "Emitted when the floating debt is updated."
      },
      "InterestRateModelSet(address)": {
        "notice": "Emitted when the interestRateModel is changed by admin."
      },
      "Liquidate(address,address,uint256,uint256,address,uint256)": {
        "notice": "Emitted when an account's position had a liquidation."
      },
      "MarketUpdate(uint256,uint256,uint256,uint256,uint256,uint256)": {
        "notice": "Emitted when market state is updated."
      },
      "MaxFuturePoolsSet(uint256)": {
        "notice": "Emitted when the maxFuturePools is changed by admin."
      },
      "PenaltyRateSet(uint256)": {
        "notice": "Emitted when the penaltyRate is changed by admin."
      },
      "Repay(address,address,uint256,uint256)": {
        "notice": "Emitted when an account repays amount of assets to a floating pool."
      },
      "RepayAtMaturity(uint256,address,address,uint256,uint256)": {
        "notice": "Emitted when an account repays its borrows after maturity."
      },
      "ReserveFactorSet(uint256)": {
        "notice": "Emitted when the reserveFactor is changed by admin."
      },
      "Seize(address,address,uint256)": {
        "notice": "Emitted when an account's collateral has been seized."
      },
      "SpreadBadDebt(address,uint256)": {
        "notice": "Emitted when an account is cleared from bad debt."
      },
      "TreasurySet(address,uint256)": {
        "notice": "Emitted when the treasury variables are changed by admin."
      },
      "WithdrawAtMaturity(uint256,address,address,address,uint256,uint256)": {
        "notice": "Emitted when an account withdraws from a fixed rate pool."
      }
    },
    "kind": "user",
    "methods": {
      "accountSnapshot(address)": {
        "notice": "Gets current snapshot for an account across all maturities."
      },
      "accounts(address)": {
        "notice": "Tracks fixed deposit and borrow map and floating borrow shares of an account."
      },
      "backupFeeRate()": {
        "notice": "Rate charged to the fixed pool to be retained by the floating pool for initially providing liquidity."
      },
      "borrow(uint256,address,address)": {
        "notice": "Borrows a certain amount from the floating pool."
      },
      "borrowAtMaturity(uint256,uint256,uint256,address,address)": {
        "notice": "Borrows a certain amount from a maturity."
      },
      "clearBadDebt(address)": {
        "notice": "Clears floating and fixed debt for an account spreading the losses to the `earningsAccumulator`."
      },
      "dampSpeedDown()": {
        "notice": "Damp speed factor to update `floatingAssetsAverage` when `floatingAssets` is lower."
      },
      "dampSpeedUp()": {
        "notice": "Damp speed factor to update `floatingAssetsAverage` when `floatingAssets` is higher."
      },
      "depositAtMaturity(uint256,uint256,uint256,address)": {
        "notice": "Deposits a certain amount to a maturity."
      },
      "earningsAccumulator()": {
        "notice": "Accumulated earnings from extraordinary sources to be gradually distributed."
      },
      "earningsAccumulatorSmoothFactor()": {
        "notice": "Factor used for gradual accrual of earnings to the floating pool."
      },
      "fixedBorrowPositions(uint256,address)": {
        "notice": "Tracks account's fixed borrow positions by maturity, account and position."
      },
      "fixedDepositPositions(uint256,address)": {
        "notice": "Tracks account's fixed deposit positions by maturity, account and position."
      },
      "fixedPools(uint256)": {
        "notice": "Tracks fixed pools state by maturity."
      },
      "floatingAssets()": {
        "notice": "Amount of floating assets deposited to the pool."
      },
      "floatingAssetsAverage()": {
        "notice": "Average of the floating assets to get fixed borrow rates and prevent rate manipulation."
      },
      "floatingBackupBorrowed()": {
        "notice": "Amount of assets lent by the floating pool to the fixed pools."
      },
      "floatingDebt()": {
        "notice": "Amount of assets lent by the floating pool to accounts."
      },
      "floatingUtilization()": {
        "notice": "Current floating utilization used to get the new floating borrow rate."
      },
      "initialize(uint8,uint128,address,uint256,uint256,uint128,uint256,uint256)": {
        "notice": "Initializes the contract."
      },
      "interestRateModel()": {
        "notice": "Interest rate model contract used to get the borrow rates."
      },
      "lastAccumulatorAccrual()": {
        "notice": "Last time the accumulator distributed earnings."
      },
      "lastAverageUpdate()": {
        "notice": "Last time the floating assets average was updated."
      },
      "lastFloatingDebtUpdate()": {
        "notice": "Last time the floating debt was updated."
      },
      "liquidate(address,uint256,address)": {
        "notice": "Liquidates undercollateralized fixed/floating (or both) position(s)."
      },
      "maxFuturePools()": {
        "notice": "Number of fixed pools to be active at the same time."
      },
      "pause()": {
        "notice": "Sets the pause state to true in case of emergency, triggered by an authorized account."
      },
      "penaltyRate()": {
        "notice": "Rate per second to be charged to delayed fixed pools borrowers after maturity."
      },
      "previewBorrow(uint256)": {
        "notice": "Simulates the effects of a borrow at the current time, given current contract conditions."
      },
      "previewDebt(address)": {
        "notice": "Gets all borrows and penalties for an account."
      },
      "previewFloatingAssetsAverage()": {
        "notice": "Gets the current `floatingAssetsAverage` without updating the storage variable."
      },
      "previewRefund(uint256)": {
        "notice": "Simulates the effects of a refund at the current time, given current contract conditions."
      },
      "previewRepay(uint256)": {
        "notice": "Simulates the effects of a repay at the current time, given current contract conditions."
      },
      "redeem(uint256,address,address)": {
        "notice": "Redeems the owner's floating pool assets to the receiver address."
      },
      "refund(uint256,address)": {
        "notice": "Repays a certain amount of shares to the floating pool."
      },
      "repay(uint256,address)": {
        "notice": "Repays a certain amount of assets to the floating pool."
      },
      "repayAtMaturity(uint256,uint256,uint256,address)": {
        "notice": "Repays a certain amount to a maturity."
      },
      "reserveFactor()": {
        "notice": "Percentage factor that represents the liquidity reserves that can't be borrowed."
      },
      "seize(address,address,uint256)": {
        "notice": "Public function to seize a certain amount of assets."
      },
      "setBackupFeeRate(uint256)": {
        "notice": "Sets the rate charged to the fixed depositors that the floating pool suppliers will retain for initially providing liquidity."
      },
      "setDampSpeed(uint256,uint256)": {
        "notice": "Sets the damp speed used to update the floatingAssetsAverage."
      },
      "setEarningsAccumulatorSmoothFactor(uint128)": {
        "notice": "Sets the factor used when smoothly accruing earnings to the floating pool."
      },
      "setInterestRateModel(address)": {
        "notice": "Sets the interest rate model to be used to calculate rates."
      },
      "setMaxFuturePools(uint8)": {
        "notice": "Sets the protocol's max future pools for fixed borrowing and lending."
      },
      "setPenaltyRate(uint256)": {
        "notice": "Sets the penalty rate per second."
      },
      "setReserveFactor(uint128)": {
        "notice": "Sets the percentage that represents the liquidity reserves that can't be borrowed."
      },
      "setTreasury(address,uint256)": {
        "notice": "Sets the treasury variables."
      },
      "totalAssets()": {
        "notice": "Calculates the floating pool balance plus earnings to be accrued at current timestamp from maturities and accumulator."
      },
      "totalFloatingBorrowAssets()": {
        "notice": "Calculates the total floating debt, considering elapsed time since last update and current interest rate."
      },
      "totalFloatingBorrowShares()": {
        "notice": "Total amount of floating borrow shares assigned to floating borrow accounts."
      },
      "transfer(address,uint256)": {
        "notice": "Moves amount of shares from the caller's account to `to`."
      },
      "transferFrom(address,address,uint256)": {
        "notice": "Moves amount of shares from `from` to `to` using the allowance mechanism."
      },
      "treasury()": {
        "notice": "Address of the treasury that will receive the allocated earnings."
      },
      "treasuryFeeRate()": {
        "notice": "Rate to be charged by the treasury to floating and fixed borrows."
      },
      "unpause()": {
        "notice": "Sets the pause state to false when threat is gone, triggered by an authorized account."
      },
      "withdraw(uint256,address,address)": {
        "notice": "Withdraws the owner's floating pool assets to the receiver address."
      },
      "withdrawAtMaturity(uint256,uint256,uint256,address,address)": {
        "notice": "Withdraws a certain amount from a maturity."
      }
    },
    "version": 1
  },
  "storageLayout": {
    "storage": [
      {
        "astId": 415,
        "contract": "contracts/Market.sol:Market",
        "label": "_initialized",
        "offset": 0,
        "slot": "0",
        "type": "t_uint8"
      },
      {
        "astId": 418,
        "contract": "contracts/Market.sol:Market",
        "label": "_initializing",
        "offset": 1,
        "slot": "0",
        "type": "t_bool"
      },
      {
        "astId": 1029,
        "contract": "contracts/Market.sol:Market",
        "label": "__gap",
        "offset": 0,
        "slot": "1",
        "type": "t_array(t_uint256)50_storage"
      },
      {
        "astId": 1248,
        "contract": "contracts/Market.sol:Market",
        "label": "__gap",
        "offset": 0,
        "slot": "51",
        "type": "t_array(t_uint256)50_storage"
      },
      {
        "astId": 39,
        "contract": "contracts/Market.sol:Market",
        "label": "_roles",
        "offset": 0,
        "slot": "101",
        "type": "t_mapping(t_bytes32,t_struct(RoleData)34_storage)"
      },
      {
        "astId": 334,
        "contract": "contracts/Market.sol:Market",
        "label": "__gap",
        "offset": 0,
        "slot": "102",
        "type": "t_array(t_uint256)49_storage"
      },
      {
        "astId": 598,
        "contract": "contracts/Market.sol:Market",
        "label": "_paused",
        "offset": 0,
        "slot": "151",
        "type": "t_bool"
      },
      {
        "astId": 703,
        "contract": "contracts/Market.sol:Market",
        "label": "__gap",
        "offset": 0,
        "slot": "152",
        "type": "t_array(t_uint256)49_storage"
      },
      {
        "astId": 12097,
        "contract": "contracts/Market.sol:Market",
        "label": "name",
        "offset": 0,
        "slot": "201",
        "type": "t_string_storage"
      },
      {
        "astId": 12099,
        "contract": "contracts/Market.sol:Market",
        "label": "symbol",
        "offset": 0,
        "slot": "202",
        "type": "t_string_storage"
      },
      {
        "astId": 12103,
        "contract": "contracts/Market.sol:Market",
        "label": "totalSupply",
        "offset": 0,
        "slot": "203",
        "type": "t_uint256"
      },
      {
        "astId": 12107,
        "contract": "contracts/Market.sol:Market",
        "label": "balanceOf",
        "offset": 0,
        "slot": "204",
        "type": "t_mapping(t_address,t_uint256)"
      },
      {
        "astId": 12113,
        "contract": "contracts/Market.sol:Market",
        "label": "allowance",
        "offset": 0,
        "slot": "205",
        "type": "t_mapping(t_address,t_mapping(t_address,t_uint256))"
      },
      {
        "astId": 12121,
        "contract": "contracts/Market.sol:Market",
        "label": "nonces",
        "offset": 0,
        "slot": "206",
        "type": "t_mapping(t_address,t_uint256)"
      },
      {
        "astId": 4872,
        "contract": "contracts/Market.sol:Market",
        "label": "fixedDepositPositions",
        "offset": 0,
        "slot": "207",
        "type": "t_mapping(t_uint256,t_mapping(t_address,t_struct(Position)11519_storage))"
      },
      {
        "astId": 4880,
        "contract": "contracts/Market.sol:Market",
        "label": "fixedBorrowPositions",
        "offset": 0,
        "slot": "208",
        "type": "t_mapping(t_uint256,t_mapping(t_address,t_struct(Position)11519_storage))"
      },
      {
        "astId": 4886,
        "contract": "contracts/Market.sol:Market",
        "label": "fixedPools",
        "offset": 0,
        "slot": "209",
        "type": "t_mapping(t_uint256,t_struct(Pool)11514_storage)"
      },
      {
        "astId": 4892,
        "contract": "contracts/Market.sol:Market",
        "label": "accounts",
        "offset": 0,
        "slot": "210",
        "type": "t_mapping(t_address,t_struct(Account)8269_storage)"
      },
      {
        "astId": 4895,
        "contract": "contracts/Market.sol:Market",
        "label": "floatingBackupBorrowed",
        "offset": 0,
        "slot": "211",
        "type": "t_uint256"
      },
      {
        "astId": 4898,
        "contract": "contracts/Market.sol:Market",
        "label": "floatingDebt",
        "offset": 0,
        "slot": "212",
        "type": "t_uint256"
      },
      {
        "astId": 4901,
        "contract": "contracts/Market.sol:Market",
        "label": "earningsAccumulator",
        "offset": 0,
        "slot": "213",
        "type": "t_uint256"
      },
      {
        "astId": 4904,
        "contract": "contracts/Market.sol:Market",
        "label": "penaltyRate",
        "offset": 0,
        "slot": "214",
        "type": "t_uint256"
      },
      {
        "astId": 4907,
        "contract": "contracts/Market.sol:Market",
        "label": "backupFeeRate",
        "offset": 0,
        "slot": "215",
        "type": "t_uint256"
      },
      {
        "astId": 4910,
        "contract": "contracts/Market.sol:Market",
        "label": "dampSpeedUp",
        "offset": 0,
        "slot": "216",
        "type": "t_uint256"
      },
      {
        "astId": 4913,
        "contract": "contracts/Market.sol:Market",
        "label": "dampSpeedDown",
        "offset": 0,
        "slot": "217",
        "type": "t_uint256"
      },
      {
        "astId": 4916,
        "contract": "contracts/Market.sol:Market",
        "label": "maxFuturePools",
        "offset": 0,
        "slot": "218",
        "type": "t_uint8"
      },
      {
        "astId": 4919,
        "contract": "contracts/Market.sol:Market",
        "label": "lastAccumulatorAccrual",
        "offset": 1,
        "slot": "218",
        "type": "t_uint32"
      },
      {
        "astId": 4922,
        "contract": "contracts/Market.sol:Market",
        "label": "lastFloatingDebtUpdate",
        "offset": 5,
        "slot": "218",
        "type": "t_uint32"
      },
      {
        "astId": 4925,
        "contract": "contracts/Market.sol:Market",
        "label": "lastAverageUpdate",
        "offset": 9,
        "slot": "218",
        "type": "t_uint32"
      },
      {
        "astId": 4929,
        "contract": "contracts/Market.sol:Market",
        "label": "interestRateModel",
        "offset": 0,
        "slot": "219",
        "type": "t_contract(InterestRateModel)4797"
      },
      {
        "astId": 4932,
        "contract": "contracts/Market.sol:Market",
        "label": "earningsAccumulatorSmoothFactor",
        "offset": 0,
        "slot": "220",
        "type": "t_uint128"
      },
      {
        "astId": 4935,
        "contract": "contracts/Market.sol:Market",
        "label": "reserveFactor",
        "offset": 16,
        "slot": "220",
        "type": "t_uint128"
      },
      {
        "astId": 4938,
        "contract": "contracts/Market.sol:Market",
        "label": "floatingAssets",
        "offset": 0,
        "slot": "221",
        "type": "t_uint256"
      },
      {
        "astId": 4941,
        "contract": "contracts/Market.sol:Market",
        "label": "floatingAssetsAverage",
        "offset": 0,
        "slot": "222",
        "type": "t_uint256"
      },
      {
        "astId": 4944,
        "contract": "contracts/Market.sol:Market",
        "label": "totalFloatingBorrowShares",
        "offset": 0,
        "slot": "223",
        "type": "t_uint256"
      },
      {
        "astId": 4947,
        "contract": "contracts/Market.sol:Market",
        "label": "floatingUtilization",
        "offset": 0,
        "slot": "224",
        "type": "t_uint256"
      },
      {
        "astId": 4950,
        "contract": "contracts/Market.sol:Market",
        "label": "treasury",
        "offset": 0,
        "slot": "225",
        "type": "t_address"
      },
      {
        "astId": 4953,
        "contract": "contracts/Market.sol:Market",
        "label": "treasuryFeeRate",
        "offset": 0,
        "slot": "226",
        "type": "t_uint256"
      }
    ],
    "types": {
      "t_address": {
        "encoding": "inplace",
        "label": "address",
        "numberOfBytes": "20"
      },
      "t_array(t_uint256)49_storage": {
        "base": "t_uint256",
        "encoding": "inplace",
        "label": "uint256[49]",
        "numberOfBytes": "1568"
      },
      "t_array(t_uint256)50_storage": {
        "base": "t_uint256",
        "encoding": "inplace",
        "label": "uint256[50]",
        "numberOfBytes": "1600"
      },
      "t_bool": {
        "encoding": "inplace",
        "label": "bool",
        "numberOfBytes": "1"
      },
      "t_bytes32": {
        "encoding": "inplace",
        "label": "bytes32",
        "numberOfBytes": "32"
      },
      "t_contract(InterestRateModel)4797": {
        "encoding": "inplace",
        "label": "contract InterestRateModel",
        "numberOfBytes": "20"
      },
      "t_mapping(t_address,t_bool)": {
        "encoding": "mapping",
        "key": "t_address",
        "label": "mapping(address => bool)",
        "numberOfBytes": "32",
        "value": "t_bool"
      },
      "t_mapping(t_address,t_mapping(t_address,t_uint256))": {
        "encoding": "mapping",
        "key": "t_address",
        "label": "mapping(address => mapping(address => uint256))",
        "numberOfBytes": "32",
        "value": "t_mapping(t_address,t_uint256)"
      },
      "t_mapping(t_address,t_struct(Account)8269_storage)": {
        "encoding": "mapping",
        "key": "t_address",
        "label": "mapping(address => struct Market.Account)",
        "numberOfBytes": "32",
        "value": "t_struct(Account)8269_storage"
      },
      "t_mapping(t_address,t_struct(Position)11519_storage)": {
        "encoding": "mapping",
        "key": "t_address",
        "label": "mapping(address => struct FixedLib.Position)",
        "numberOfBytes": "32",
        "value": "t_struct(Position)11519_storage"
      },
      "t_mapping(t_address,t_uint256)": {
        "encoding": "mapping",
        "key": "t_address",
        "label": "mapping(address => uint256)",
        "numberOfBytes": "32",
        "value": "t_uint256"
      },
      "t_mapping(t_bytes32,t_struct(RoleData)34_storage)": {
        "encoding": "mapping",
        "key": "t_bytes32",
        "label": "mapping(bytes32 => struct AccessControlUpgradeable.RoleData)",
        "numberOfBytes": "32",
        "value": "t_struct(RoleData)34_storage"
      },
      "t_mapping(t_uint256,t_mapping(t_address,t_struct(Position)11519_storage))": {
        "encoding": "mapping",
        "key": "t_uint256",
        "label": "mapping(uint256 => mapping(address => struct FixedLib.Position))",
        "numberOfBytes": "32",
        "value": "t_mapping(t_address,t_struct(Position)11519_storage)"
      },
      "t_mapping(t_uint256,t_struct(Pool)11514_storage)": {
        "encoding": "mapping",
        "key": "t_uint256",
        "label": "mapping(uint256 => struct FixedLib.Pool)",
        "numberOfBytes": "32",
        "value": "t_struct(Pool)11514_storage"
      },
      "t_string_storage": {
        "encoding": "bytes",
        "label": "string",
        "numberOfBytes": "32"
      },
      "t_struct(Account)8269_storage": {
        "encoding": "inplace",
        "label": "struct Market.Account",
        "members": [
          {
            "astId": 8264,
            "contract": "contracts/Market.sol:Market",
            "label": "fixedDeposits",
            "offset": 0,
            "slot": "0",
            "type": "t_uint256"
          },
          {
            "astId": 8266,
            "contract": "contracts/Market.sol:Market",
            "label": "fixedBorrows",
            "offset": 0,
            "slot": "1",
            "type": "t_uint256"
          },
          {
            "astId": 8268,
            "contract": "contracts/Market.sol:Market",
            "label": "floatingBorrowShares",
            "offset": 0,
            "slot": "2",
            "type": "t_uint256"
          }
        ],
        "numberOfBytes": "96"
      },
      "t_struct(Pool)11514_storage": {
        "encoding": "inplace",
        "label": "struct FixedLib.Pool",
        "members": [
          {
            "astId": 11507,
            "contract": "contracts/Market.sol:Market",
            "label": "borrowed",
            "offset": 0,
            "slot": "0",
            "type": "t_uint256"
          },
          {
            "astId": 11509,
            "contract": "contracts/Market.sol:Market",
            "label": "supplied",
            "offset": 0,
            "slot": "1",
            "type": "t_uint256"
          },
          {
            "astId": 11511,
            "contract": "contracts/Market.sol:Market",
            "label": "unassignedEarnings",
            "offset": 0,
            "slot": "2",
            "type": "t_uint256"
          },
          {
            "astId": 11513,
            "contract": "contracts/Market.sol:Market",
            "label": "lastAccrual",
            "offset": 0,
            "slot": "3",
            "type": "t_uint256"
          }
        ],
        "numberOfBytes": "128"
      },
      "t_struct(Position)11519_storage": {
        "encoding": "inplace",
        "label": "struct FixedLib.Position",
        "members": [
          {
            "astId": 11516,
            "contract": "contracts/Market.sol:Market",
            "label": "principal",
            "offset": 0,
            "slot": "0",
            "type": "t_uint256"
          },
          {
            "astId": 11518,
            "contract": "contracts/Market.sol:Market",
            "label": "fee",
            "offset": 0,
            "slot": "1",
            "type": "t_uint256"
          }
        ],
        "numberOfBytes": "64"
      },
      "t_struct(RoleData)34_storage": {
        "encoding": "inplace",
        "label": "struct AccessControlUpgradeable.RoleData",
        "members": [
          {
            "astId": 31,
            "contract": "contracts/Market.sol:Market",
            "label": "members",
            "offset": 0,
            "slot": "0",
            "type": "t_mapping(t_address,t_bool)"
          },
          {
            "astId": 33,
            "contract": "contracts/Market.sol:Market",
            "label": "adminRole",
            "offset": 0,
            "slot": "1",
            "type": "t_bytes32"
          }
        ],
        "numberOfBytes": "64"
      },
      "t_uint128": {
        "encoding": "inplace",
        "label": "uint128",
        "numberOfBytes": "16"
      },
      "t_uint256": {
        "encoding": "inplace",
        "label": "uint256",
        "numberOfBytes": "32"
      },
      "t_uint32": {
        "encoding": "inplace",
        "label": "uint32",
        "numberOfBytes": "4"
      },
      "t_uint8": {
        "encoding": "inplace",
        "label": "uint8",
        "numberOfBytes": "1"
      }
    }
  }
}