{
  "address": "0xe7FedA0e5FB69d360555dE0F699ca5A99Bf37dB6",
  "abi": [
    {
      "inputs": [
        {
          "internalType": "contract Auditor",
          "name": "auditor_",
          "type": "address"
        },
        {
          "internalType": "contract IPriceFeed",
          "name": "basePriceFeed_",
          "type": "address"
        }
      ],
      "stateMutability": "nonpayable",
      "type": "constructor"
    },
    {
      "inputs": [],
      "name": "AlreadyMatured",
      "type": "error"
    },
    {
      "inputs": [],
      "name": "auditor",
      "outputs": [
        {
          "internalType": "contract Auditor",
          "name": "",
          "type": "address"
        }
      ],
      "stateMutability": "view",
      "type": "function"
    },
    {
      "inputs": [],
      "name": "basePriceFeed",
      "outputs": [
        {
          "internalType": "contract IPriceFeed",
          "name": "",
          "type": "address"
        }
      ],
      "stateMutability": "view",
      "type": "function"
    },
    {
      "inputs": [
        {
          "internalType": "address",
          "name": "account",
          "type": "address"
        }
      ],
      "name": "exactly",
      "outputs": [
        {
          "components": [
            {
              "internalType": "contract Market",
              "name": "market",
              "type": "address"
            },
            {
              "internalType": "uint8",
              "name": "decimals",
              "type": "uint8"
            },
            {
              "internalType": "string",
              "name": "assetSymbol",
              "type": "string"
            },
            {
              "internalType": "uint256",
              "name": "usdPrice",
              "type": "uint256"
            },
            {
              "internalType": "uint256",
              "name": "penaltyRate",
              "type": "uint256"
            },
            {
              "internalType": "uint256",
              "name": "adjustFactor",
              "type": "uint256"
            },
            {
              "internalType": "uint8",
              "name": "maxFuturePools",
              "type": "uint8"
            },
            {
              "components": [
                {
                  "internalType": "uint256",
                  "name": "maturity",
                  "type": "uint256"
                },
                {
                  "internalType": "uint256",
                  "name": "borrowed",
                  "type": "uint256"
                },
                {
                  "internalType": "uint256",
                  "name": "supplied",
                  "type": "uint256"
                },
                {
                  "internalType": "uint256",
                  "name": "available",
                  "type": "uint256"
                },
                {
                  "internalType": "uint256",
                  "name": "utilization",
                  "type": "uint256"
                }
              ],
              "internalType": "struct Previewer.FixedPool[]",
              "name": "fixedPools",
              "type": "tuple[]"
            },
            {
              "internalType": "uint256",
              "name": "floatingBackupBorrowed",
              "type": "uint256"
            },
            {
              "internalType": "uint256",
              "name": "floatingAvailableAssets",
              "type": "uint256"
            },
            {
              "internalType": "uint256",
              "name": "totalFloatingBorrowAssets",
              "type": "uint256"
            },
            {
              "internalType": "uint256",
              "name": "totalFloatingDepositAssets",
              "type": "uint256"
            },
            {
              "internalType": "bool",
              "name": "isCollateral",
              "type": "bool"
            },
            {
              "internalType": "uint256",
              "name": "maxBorrowAssets",
              "type": "uint256"
            },
            {
              "internalType": "uint256",
              "name": "floatingBorrowShares",
              "type": "uint256"
            },
            {
              "internalType": "uint256",
              "name": "floatingBorrowAssets",
              "type": "uint256"
            },
            {
              "internalType": "uint256",
              "name": "floatingDepositShares",
              "type": "uint256"
            },
            {
              "internalType": "uint256",
              "name": "floatingDepositAssets",
              "type": "uint256"
            },
            {
              "components": [
                {
                  "internalType": "uint256",
                  "name": "maturity",
                  "type": "uint256"
                },
                {
                  "components": [
                    {
                      "internalType": "uint256",
                      "name": "principal",
                      "type": "uint256"
                    },
                    {
                      "internalType": "uint256",
                      "name": "fee",
                      "type": "uint256"
                    }
                  ],
                  "internalType": "struct FixedLib.Position",
                  "name": "position",
                  "type": "tuple"
                }
              ],
              "internalType": "struct Previewer.FixedPosition[]",
              "name": "fixedDepositPositions",
              "type": "tuple[]"
            },
            {
              "components": [
                {
                  "internalType": "uint256",
                  "name": "maturity",
                  "type": "uint256"
                },
                {
                  "components": [
                    {
                      "internalType": "uint256",
                      "name": "principal",
                      "type": "uint256"
                    },
                    {
                      "internalType": "uint256",
                      "name": "fee",
                      "type": "uint256"
                    }
                  ],
                  "internalType": "struct FixedLib.Position",
                  "name": "position",
                  "type": "tuple"
                }
              ],
              "internalType": "struct Previewer.FixedPosition[]",
              "name": "fixedBorrowPositions",
              "type": "tuple[]"
            }
          ],
          "internalType": "struct Previewer.MarketAccount[]",
          "name": "data",
          "type": "tuple[]"
        }
      ],
      "stateMutability": "view",
      "type": "function"
    },
    {
      "inputs": [
        {
          "internalType": "contract Market",
          "name": "market",
          "type": "address"
        },
        {
          "internalType": "uint256",
          "name": "assets",
          "type": "uint256"
        }
      ],
      "name": "previewBorrowAtAllMaturities",
      "outputs": [
        {
          "components": [
            {
              "internalType": "uint256",
              "name": "maturity",
              "type": "uint256"
            },
            {
              "internalType": "uint256",
              "name": "assets",
              "type": "uint256"
            },
            {
              "internalType": "uint256",
              "name": "utilization",
              "type": "uint256"
            }
          ],
          "internalType": "struct Previewer.FixedPreview[]",
          "name": "previews",
          "type": "tuple[]"
        }
      ],
      "stateMutability": "view",
      "type": "function"
    },
    {
      "inputs": [
        {
          "internalType": "contract Market",
          "name": "market",
          "type": "address"
        },
        {
          "internalType": "uint256",
          "name": "maturity",
          "type": "uint256"
        },
        {
          "internalType": "uint256",
          "name": "assets",
          "type": "uint256"
        }
      ],
      "name": "previewBorrowAtMaturity",
      "outputs": [
        {
          "components": [
            {
              "internalType": "uint256",
              "name": "maturity",
              "type": "uint256"
            },
            {
              "internalType": "uint256",
              "name": "assets",
              "type": "uint256"
            },
            {
              "internalType": "uint256",
              "name": "utilization",
              "type": "uint256"
            }
          ],
          "internalType": "struct Previewer.FixedPreview",
          "name": "",
          "type": "tuple"
        }
      ],
      "stateMutability": "view",
      "type": "function"
    },
    {
      "inputs": [
        {
          "internalType": "contract Market",
          "name": "market",
          "type": "address"
        },
        {
          "internalType": "uint256",
          "name": "assets",
          "type": "uint256"
        }
      ],
      "name": "previewDepositAtAllMaturities",
      "outputs": [
        {
          "components": [
            {
              "internalType": "uint256",
              "name": "maturity",
              "type": "uint256"
            },
            {
              "internalType": "uint256",
              "name": "assets",
              "type": "uint256"
            },
            {
              "internalType": "uint256",
              "name": "utilization",
              "type": "uint256"
            }
          ],
          "internalType": "struct Previewer.FixedPreview[]",
          "name": "previews",
          "type": "tuple[]"
        }
      ],
      "stateMutability": "view",
      "type": "function"
    },
    {
      "inputs": [
        {
          "internalType": "contract Market",
          "name": "market",
          "type": "address"
        },
        {
          "internalType": "uint256",
          "name": "maturity",
          "type": "uint256"
        },
        {
          "internalType": "uint256",
          "name": "assets",
          "type": "uint256"
        }
      ],
      "name": "previewDepositAtMaturity",
      "outputs": [
        {
          "components": [
            {
              "internalType": "uint256",
              "name": "maturity",
              "type": "uint256"
            },
            {
              "internalType": "uint256",
              "name": "assets",
              "type": "uint256"
            },
            {
              "internalType": "uint256",
              "name": "utilization",
              "type": "uint256"
            }
          ],
          "internalType": "struct Previewer.FixedPreview",
          "name": "",
          "type": "tuple"
        }
      ],
      "stateMutability": "view",
      "type": "function"
    },
    {
      "inputs": [
        {
          "internalType": "uint256",
          "name": "usdAmount",
          "type": "uint256"
        }
      ],
      "name": "previewFixed",
      "outputs": [
        {
          "components": [
            {
              "internalType": "contract Market",
              "name": "market",
              "type": "address"
            },
            {
              "internalType": "uint8",
              "name": "decimals",
              "type": "uint8"
            },
            {
              "internalType": "uint256",
              "name": "assets",
              "type": "uint256"
            },
            {
              "components": [
                {
                  "internalType": "uint256",
                  "name": "maturity",
                  "type": "uint256"
                },
                {
                  "internalType": "uint256",
                  "name": "assets",
                  "type": "uint256"
                },
                {
                  "internalType": "uint256",
                  "name": "utilization",
                  "type": "uint256"
                }
              ],
              "internalType": "struct Previewer.FixedPreview[]",
              "name": "deposits",
              "type": "tuple[]"
            },
            {
              "components": [
                {
                  "internalType": "uint256",
                  "name": "maturity",
                  "type": "uint256"
                },
                {
                  "internalType": "uint256",
                  "name": "assets",
                  "type": "uint256"
                },
                {
                  "internalType": "uint256",
                  "name": "utilization",
                  "type": "uint256"
                }
              ],
              "internalType": "struct Previewer.FixedPreview[]",
              "name": "borrows",
              "type": "tuple[]"
            }
          ],
          "internalType": "struct Previewer.FixedMarket[]",
          "name": "data",
          "type": "tuple[]"
        }
      ],
      "stateMutability": "view",
      "type": "function"
    },
    {
      "inputs": [
        {
          "internalType": "contract Market",
          "name": "market",
          "type": "address"
        },
        {
          "internalType": "uint256",
          "name": "maturity",
          "type": "uint256"
        },
        {
          "internalType": "uint256",
          "name": "positionAssets",
          "type": "uint256"
        },
        {
          "internalType": "address",
          "name": "borrower",
          "type": "address"
        }
      ],
      "name": "previewRepayAtMaturity",
      "outputs": [
        {
          "internalType": "uint256",
          "name": "repayAssets",
          "type": "uint256"
        }
      ],
      "stateMutability": "view",
      "type": "function"
    },
    {
      "inputs": [
        {
          "internalType": "contract Market",
          "name": "market",
          "type": "address"
        },
        {
          "internalType": "uint256",
          "name": "maturity",
          "type": "uint256"
        },
        {
          "internalType": "uint256",
          "name": "positionAssets",
          "type": "uint256"
        }
      ],
      "name": "previewWithdrawAtMaturity",
      "outputs": [
        {
          "internalType": "uint256",
          "name": "withdrawAssets",
          "type": "uint256"
        }
      ],
      "stateMutability": "view",
      "type": "function"
    }
  ],
  "transactionHash": "0x5168ca112352af5680bd055cf304949a6f92787136cf45e95be42a419bfaebd9",
  "args": [
    "0xB957a4Aa46F859b14C745b8356c28B8361319fAB",
    "0x0000000000000000000000000000000000000000"
  ],
  "numDeployments": 3,
  "solcInputHash": "caf04502d09415a51d794c069d7c8705",
  "bytecode": "0x60c06040523480156200001157600080fd5b50604051620038d9380380620038d9833981016040819052620000349162000065565b6001600160a01b039182166080521660a052620000a4565b6001600160a01b03811681146200006257600080fd5b50565b600080604083850312156200007957600080fd5b825162000086816200004c565b602084015190925062000099816200004c565b809150509250929050565b60805160a05161379f6200013a600039600081816101aa01528181610646015281816106820152818161071a015281816118d80152818161190f01526119a7015260008181610125015281816104a701528181610518015281816105d1015281816108c4015281816109a301528181610a6601528181611a3701528181611b5601528181611bf00152611c95015261379f6000f3fe608060405234801561001057600080fd5b506004361061009e5760003560e01c80638eab0a2a116100665780638eab0a2a1461015f578063b15a3f6114610172578063b18ba94514610192578063e41e7512146101a5578063f161aed9146101cc57600080fd5b8063109c46ce146100a3578063157c9e0e146100cc578063221e81f6146100ec57806338e73ff31461010d5780633ec045a614610120575b600080fd5b6100b66100b1366004612d69565b6101ec565b6040516100c39190612d9e565b60405180910390f35b6100df6100da366004612dbf565b61047f565b6040516100c39190612ed6565b6100ff6100fa366004613059565b611081565b6040519081526020016100c3565b6100ff61011b366004612d69565b6111cf565b6101477f000000000000000000000000000000000000000000000000000000000000000081565b6040516001600160a01b0390911681526020016100c3565b6100b661016d366004612d69565b611402565b6101856101803660046130a3565b611572565b6040516100c3919061311d565b6101856101a03660046130a3565b6116d1565b6101477f000000000000000000000000000000000000000000000000000000000000000081565b6101df6101da366004613130565b6118d2565b6040516100c39190613149565b61021060405180606001604052806000815260200160008152602001600081525090565b61023b6040518060800160405280600081526020016000815260200160008152602001600081525090565b604051634e7c505960e01b8152600481018590526001600160a01b03861690634e7c505990602401608060405180830381865afa158015610280573d6000803e3d6000fd5b505050506040513d601f19601f820116820180604052508101906102a491906131f1565b505060208084019190915290825260408051630795bad560e11b815290516000926001600160a01b03891692630f2b75aa92600480830193928290030181865afa1580156102f6573d6000803e3d6000fd5b505050506040513d601f19601f8201168201806040525081019061031a9190613227565b90506000610417876001600160a01b031663f3fdb15a6040518163ffffffff1660e01b8152600401602060405180830381865afa15801561035f573d6000803e3d6000fd5b505050506040513d601f19601f820116820180604052508101906103839190613240565b8451602086015160405163df635f3d60e01b8152600481018b9052602481018a905260448101929092526064820152608481018590526001600160a01b03919091169063df635f3d9060a401602060405180830381865afa1580156103ec573d6000803e3d6000fd5b505050506040513d601f19601f820116820180604052508101906104109190613227565b8690611d89565b9050604051806060016040528087815260200182876104369190613273565b81526020016000841161044a576000610470565b61047084866020015161045d9190613273565b865161046a908a90613273565b90611da7565b905293505050505b9392505050565b60405160016263e28d60e11b031981526001600160a01b0382811660048301526060916000917f0000000000000000000000000000000000000000000000000000000000000000169063ff383ae690602401602060405180830381865afa1580156104ee573d6000803e3d6000fd5b505050506040513d601f19601f820116820180604052508101906105129190613227565b905060007f00000000000000000000000000000000000000000000000000000000000000006001600160a01b031663375a7cba6040518163ffffffff1660e01b8152600401600060405180830381865afa158015610574573d6000803e3d6000fd5b505050506040513d6000823e601f3d908101601f1916820160405261059c91908101906132cd565b51604051639e9d796760e01b81526001600160a01b0386811660048301526000602483018190526044830181905292935082917f000000000000000000000000000000000000000000000000000000000000000090911690639e9d7967906064016040805180830381865afa158015610619573d6000803e3d6000fd5b505050506040513d601f19601f8201168201806040525081019061063d919061337f565b909250905060007f00000000000000000000000000000000000000000000000000000000000000006001600160a01b031661068057670de0b6b3a76400006107a4565b7f00000000000000000000000000000000000000000000000000000000000000006001600160a01b031663313ce5676040518163ffffffff1660e01b8152600401602060405180830381865afa1580156106de573d6000803e3d6000fd5b505050506040513d601f19601f8201168201806040525081019061070291906133b9565b61070d9060126133d4565b61071890600a6134d1565b7f00000000000000000000000000000000000000000000000000000000000000006001600160a01b03166350d25bcd6040518163ffffffff1660e01b8152600401602060405180830381865afa158015610776573d6000803e3d6000fd5b505050506040513d601f19601f8201168201806040525081019061079a9190613227565b6107a491906134e0565b90508367ffffffffffffffff8111156107bf576107bf613286565b60405190808252806020026020018201604052801561089d57816020015b61088a60405180610280016040528060006001600160a01b03168152602001600060ff16815260200160608152602001600081526020016000815260200160008152602001600060ff1681526020016060815260200160008152602001600081526020016000815260200160008152602001600015158152602001600081526020016000815260200160008152602001600081526020016000815260200160608152602001606081525090565b8152602001906001900390816107dd5790505b50955060005b84811015611076576040516308cae55b60e21b8152600481018290526000907f00000000000000000000000000000000000000000000000000000000000000006001600160a01b03169063232b956c90602401602060405180830381865afa158015610913573d6000803e3d6000fd5b505050506040513d601f19601f820116820180604052508101906109379190613240565b905061095d60405180606001604052806000815260200160008152602001600081525090565b6040805160a0810182526000808252602082018190528183018190526060820181905260808201529051638e8f294b60e01b81526001600160a01b0384811660048301527f00000000000000000000000000000000000000000000000000000000000000001690638e8f294b9060240160a060405180830381865afa1580156109ea573d6000803e3d6000fd5b505050506040513d601f19601f82011682018060405250810190610a0e919061350e565b6001600160a01b0390811660808701819052911515606087015260ff9283166040808801919091529390921660208601526001600160801b039390931684529051631710760b60e31b815260048101929092526000917f00000000000000000000000000000000000000000000000000000000000000009091169063b883b05890602401602060405180830381865afa158015610aaf573d6000803e3d6000fd5b505050506040513d601f19601f82011682018060405250810190610ad39190613227565b604051632f2e037160e11b81526001600160a01b038e8116600483015291925090851690635e5c06e290602401606060405180830381865afa158015610b1d573d6000803e3d6000fd5b505050506040513d601f19601f82011682018060405250810190610b41919061357f565b856000018660200187604001838152508381525083815250505050604051806102800160405280856001600160a01b03168152602001836020015160ff168152602001856001600160a01b03166338d52e0f6040518163ffffffff1660e01b8152600401602060405180830381865afa158015610bc2573d6000803e3d6000fd5b505050506040513d601f19601f82011682018060405250810190610be69190613240565b6001600160a01b03166395d89b416040518163ffffffff1660e01b8152600401600060405180830381865afa158015610c23573d6000803e3d6000fd5b505050506040513d6000823e601f3d908101601f19168201604052610c4b91908101906135ad565b8152602001610c5a8389611d89565b8152602001856001600160a01b031663d6b7494f6040518163ffffffff1660e01b8152600401602060405180830381865afa158015610c9d573d6000803e3d6000fd5b505050506040513d601f19601f82011682018060405250810190610cc19190613227565b815260200183600001516001600160801b03168152602001856001600160a01b0316630e52dbec6040518163ffffffff1660e01b8152600401602060405180830381865afa158015610d17573d6000803e3d6000fd5b505050506040513d601f19601f82011682018060405250810190610d3b91906133b9565b60ff168152602001610d4c86611dbc565b8152602001856001600160a01b0316638c3cba5a6040518163ffffffff1660e01b8152600401602060405180830381865afa158015610d8f573d6000803e3d6000fd5b505050506040513d601f19601f82011682018060405250810190610db39190613227565b8152602001610dc18661234c565b8152602001856001600160a01b031663eee8c9e06040518163ffffffff1660e01b8152600401602060405180830381865afa158015610e04573d6000803e3d6000fd5b505050506040513d601f19601f82011682018060405250810190610e289190613227565b8152602001856001600160a01b03166301e1d1146040518163ffffffff1660e01b8152600401602060405180830381865afa158015610e6b573d6000803e3d6000fd5b505050506040513d601f19601f82011682018060405250810190610e8f9190613227565b81526020016001871b8c16600003610ea8576000610eab565b60015b15158152602001888a1015610ec1576000610f00565b610f0084600001516001600160801b0316610efa8660200151600a610ee691906134d1565b868d8f610ef39190613641565b91906124cc565b906124fa565b815260200184604001518152602001610f19868f61250f565b81526040516370a0823160e01b81526001600160a01b038f811660048301526020909201918716906370a0823190602401602060405180830381865afa158015610f67573d6000803e3d6000fd5b505050506040513d601f19601f82011682018060405250810190610f8b9190613227565b815260405163ce96cb7760e01b81526001600160a01b038f8116600483015260209092019187169063ce96cb7790602401602060405180830381865afa158015610fd9573d6000803e3d6000fd5b505050506040513d601f19601f82011682018060405250810190610ffd9190613227565b815260200161101f8e8660000151886001600160a01b031663ccfd8b116125ec565b81526020016110418e8660200151886001600160a01b031663d2681a0b6125ec565b8152508b868151811061105657611056613654565b6020026020010181905250505050508061106f9061366a565b90506108a3565b505050505050919050565b600083421061111b5761110a856001600160a01b031663d6b7494f6040518163ffffffff1660e01b8152600401602060405180830381865afa1580156110cb573d6000803e3d6000fd5b505050506040513d601f19601f820116820180604052508101906110ef9190613227565b6110f98642613641565b61110391906134e0565b8490611d89565b6111149084613273565b90506111c7565b60408051808201825260008082526020820152905163d2681a0b60e01b8152600481018690526001600160a01b03848116602483015287169063d2681a0b906044016040805180830381865afa158015611179573d6000803e3d6000fd5b505050506040513d601f19601f8201168201806040525081019061119d919061337f565b602083015281526111b986866111b384886127f4565b51612844565b6111c39085613641565b9150505b949350505050565b60008242106111df575080610478565b61120a6040518060800160405280600081526020016000815260200160008152602001600081525090565b604051634e7c505960e01b8152600481018590526001600160a01b03861690634e7c505990602401608060405180830381865afa15801561124f573d6000803e3d6000fd5b505050506040513d601f19601f8201168201806040525081019061127391906131f1565b5050602080840191909152908252604080516379fed8ad60e11b815290516113f9926001600160a01b0389169263f3fdb15a92600480830193928290030181865afa1580156112c6573d6000803e3d6000fd5b505050506040513d601f19601f820116820180604052508101906112ea9190613240565b6001600160a01b031663df635f3d8686856000015186602001518b6001600160a01b0316630f2b75aa6040518163ffffffff1660e01b8152600401602060405180830381865afa158015611342573d6000803e3d6000fd5b505050506040513d601f19601f820116820180604052508101906113669190613227565b6040516001600160e01b031960e088901b1681526004810195909552602485019390935260448401919091526064830152608482015260a401602060405180830381865afa1580156113bc573d6000803e3d6000fd5b505050506040513d601f19601f820116820180604052508101906113e09190613227565b6113f290670de0b6b3a7640000613273565b84906129ad565b95945050505050565b61142660405180606001604052806000815260200160008152602001600081525090565b82421115611447576040516305a29e1160e51b815260040160405180910390fd5b604051634e7c505960e01b81526004810184905260009081906001600160a01b03871690634e7c505990602401608060405180830381865afa158015611491573d6000803e3d6000fd5b505050506040513d601f19601f820116820180604052508101906114b591906131f1565b5050915091506000866001600160a01b0316630f2b75aa6040518163ffffffff1660e01b8152600401602060405180830381865afa1580156114fb573d6000803e3d6000fd5b505050506040513d601f19601f8201168201806040525081019061151f9190613227565b9050604051806060016040528087815260200161153d898989612844565b6115479088613273565b81526020016000831161155b576000610470565b6104706115688486613273565b61046a8988613273565b60606000836001600160a01b0316630e52dbec6040518163ffffffff1660e01b8152600401602060405180830381865afa1580156115b4573d6000803e3d6000fd5b505050506040513d601f19601f820116820180604052508101906115d891906133b9565b60ff16905060006224ea006115ed8142613683565b6115f79042613641565b6116019190613273565b90508167ffffffffffffffff81111561161c5761161c613286565b60405190808252806020026020018201604052801561167157816020015b61165e60405180606001604052806000815260200160008152602001600081525090565b81526020019060019003908161163a5790505b50925060005b828110156116c85761168a868387611402565b84828151811061169c5761169c613654565b60209081029190910101526116b46224ea0083613273565b9150806116c08161366a565b915050611677565b50505092915050565b60606000836001600160a01b0316630e52dbec6040518163ffffffff1660e01b8152600401602060405180830381865afa158015611713573d6000803e3d6000fd5b505050506040513d601f19601f8201168201806040525081019061173791906133b9565b60ff16905060006224ea0061174c8142613683565b6117569042613641565b6117609190613273565b90508167ffffffffffffffff81111561177b5761177b613286565b6040519080825280602002602001820160405280156117d057816020015b6117bd60405180606001604052806000815260200160008152602001600081525090565b8152602001906001900390816117995790505b50925060005b828110156116c85760405163084e236760e11b81526001600160a01b03871660048201526024810183905260448101869052309063109c46ce90606401606060405180830381865afa92505050801561184c575060408051601f3d908101601f19168201909252611849918101906136a5565b60015b611891576040518060600160405280838152602001600019815260200160001981525084828151811061188157611881613654565b60200260200101819052506118b1565b808583815181106118a4576118a4613654565b6020026020010181905250505b6118be6224ea0083613273565b9150806118ca8161366a565b9150506117d6565b606060007f00000000000000000000000000000000000000000000000000000000000000006001600160a01b031661190a5782611a31565b611a317f00000000000000000000000000000000000000000000000000000000000000006001600160a01b031663313ce5676040518163ffffffff1660e01b8152600401602060405180830381865afa15801561196b573d6000803e3d6000fd5b505050506040513d601f19601f8201168201806040525081019061198f91906133b9565b61199a9060126133d4565b6119a590600a6134d1565b7f00000000000000000000000000000000000000000000000000000000000000006001600160a01b03166350d25bcd6040518163ffffffff1660e01b8152600401602060405180830381865afa158015611a03573d6000803e3d6000fd5b505050506040513d601f19601f82011682018060405250810190611a279190613227565b6113f291906134e0565b905060007f00000000000000000000000000000000000000000000000000000000000000006001600160a01b031663375a7cba6040518163ffffffff1660e01b8152600401600060405180830381865afa158015611a93573d6000803e3d6000fd5b505050506040513d6000823e601f3d908101601f19168201604052611abb91908101906132cd565b5190508067ffffffffffffffff811115611ad757611ad7613286565b604051908082528060200260200182016040528015611b2f57816020015b6040805160a0810182526000808252602080830182905292820152606080820181905260808201528252600019909201910181611af55790505b50925060005b81811015611d81576040516308cae55b60e21b8152600481018290526000907f00000000000000000000000000000000000000000000000000000000000000006001600160a01b03169063232b956c90602401602060405180830381865afa158015611ba5573d6000803e3d6000fd5b505050506040513d601f19601f82011682018060405250810190611bc99190613240565b604051638e8f294b60e01b81526001600160a01b03828116600483015291925060009182917f000000000000000000000000000000000000000000000000000000000000000090911690638e8f294b9060240160a060405180830381865afa158015611c39573d6000803e3d6000fd5b505050506040513d601f19601f82011682018060405250810190611c5d919061350e565b945050509250506000611d0883600a611c7691906134d1565b604051631710760b60e31b81526001600160a01b0385811660048301527f0000000000000000000000000000000000000000000000000000000000000000169063b883b05890602401602060405180830381865afa158015611cdc573d6000803e3d6000fd5b505050506040513d601f19601f82011682018060405250810190611d009190613227565b8991906129be565b90506040518060a00160405280856001600160a01b031681526020018460ff168152602001828152602001611d3d8684611572565b8152602001611d4c86846116d1565b815250888681518110611d6157611d61613654565b60200260200101819052505050505080611d7a9061366a565b9050611b35565b505050919050565b6000611d9e8383670de0b6b3a76400006129be565b90505b92915050565b6000611d9e83670de0b6b3a7640000846124cc565b60606000611dc9836129dd565b9050826001600160a01b0316630e52dbec6040518163ffffffff1660e01b8152600401602060405180830381865afa158015611e09573d6000803e3d6000fd5b505050506040513d601f19601f82011682018060405250810190611e2d91906133b9565b60ff1667ffffffffffffffff811115611e4857611e48613286565b604051908082528060200260200182016040528015611eab57816020015b611e986040518060a0016040528060008152602001600081526020016000815260200160008152602001600081525090565b815260200190600190039081611e665790505b50915060005b836001600160a01b0316630e52dbec6040518163ffffffff1660e01b8152600401602060405180830381865afa158015611eef573d6000803e3d6000fd5b505050506040513d601f19601f82011682018060405250810190611f1391906133b9565b60ff1681101561234557611f486040518060800160405280600081526020016000815260200160008152602001600081525090565b6001600160a01b038516634e7c5059611f62846001613273565b611f6f906224ea006134e0565b611f7c6224ea0042613683565b611f869042613641565b611f909190613273565b6040518263ffffffff1660e01b8152600401611fae91815260200190565b608060405180830381865afa158015611fcb573d6000803e3d6000fd5b505050506040513d601f19601f82011682018060405250810190611fef91906131f1565b90505082600001836020018281525082815250505060006120f9866001600160a01b0316634322b7146040518163ffffffff1660e01b8152600401602060405180830381865afa158015612047573d6000803e3d6000fd5b505050506040513d601f19601f8201168201806040525081019061206b9190613701565b61207d90670de0b6b3a764000061371c565b6001600160801b031685886001600160a01b0316632e0af0086040518163ffffffff1660e01b8152600401602060405180830381865afa1580156120c5573d6000803e3d6000fd5b505050506040513d601f19601f820116820180604052508101906120e99190613227565b6120f39190613273565b90611d89565b90506000866001600160a01b0316630f2b75aa6040518163ffffffff1660e01b8152600401602060405180830381865afa15801561213b573d6000803e3d6000fd5b505050506040513d601f19601f8201168201806040525081019061215f9190613227565b90506040518060a001604052808560016121799190613273565b612186906224ea006134e0565b6121936224ea0042613683565b61219d9042613641565b6121a79190613273565b815260200184600001518152602001846020015181526020016121d285602001518660000151612c95565b85602001516122cc6122bc878b8e6001600160a01b0316631a90f1866040518163ffffffff1660e01b8152600401602060405180830381865afa15801561221d573d6000803e3d6000fd5b505050506040513d601f19601f820116820180604052508101906122419190613227565b8f6001600160a01b0316638c3cba5a6040518163ffffffff1660e01b8152600401602060405180830381865afa15801561227f573d6000803e3d6000fd5b505050506040513d601f19601f820116820180604052508101906122a39190613227565b6122ad9190613273565b6122b79190613273565b612c95565b6122c69088613641565b86612c95565b6122d69190613273565b6122e09190613641565b8152602001600083116122f457600061230f565b61230f8386602001516123079190613273565b865190611da7565b81525086858151811061232457612324613654565b6020026020010181905250505050808061233d9061366a565b915050611eb1565b5050919050565b600080612358836129dd565b9050600061241b846001600160a01b0316634322b7146040518163ffffffff1660e01b8152600401602060405180830381865afa15801561239d573d6000803e3d6000fd5b505050506040513d601f19601f820116820180604052508101906123c19190613701565b6123d390670de0b6b3a764000061371c565b6001600160801b031683866001600160a01b0316632e0af0086040518163ffffffff1660e01b8152600401602060405180830381865afa1580156120c5573d6000803e3d6000fd5b90506124c28183866001600160a01b0316631a90f1866040518163ffffffff1660e01b8152600401602060405180830381865afa158015612460573d6000803e3d6000fd5b505050506040513d601f19601f820116820180604052508101906124849190613227565b876001600160a01b0316638c3cba5a6040518163ffffffff1660e01b8152600401602060405180830381865afa15801561227f573d6000803e3d6000fd5b6111c79082613641565b8282028115158415858304851417166124e457600080fd5b6001826001830304018115150290509392505050565b6000611d9e8383670de0b6b3a76400006124cc565b604051632f2e037160e11b81526001600160a01b0382811660048301526000918291851690635e5c06e290602401606060405180830381865afa15801561255a573d6000803e3d6000fd5b505050506040513d601f19601f8201168201806040525081019061257e919061357f565b60405163023effef60e51b8152600481018290529093506001600160a01b03871692506347dffde09150602401602060405180830381865afa1580156125c8573d6000803e3d6000fd5b505050506040513d601f19601f820116820180604052508101906111c79190613227565b6040805160e0808252611c2082019092526060916000918291816020015b612612612d1d565b81526020019060019003908161260a575050602087901c9690915063ffffffff165b8615612740576001871615612725576000808787848c6040518363ffffffff1660e01b81526004016126799291909182526001600160a01b0316602082015260400190565b6040805180830381865afa158015612695573d6000803e3d6000fd5b505050506040513d601f19601f820116820180604052508101906126b9919061337f565b91509150828486815181106126d0576126d0613654565b6020026020010151600001818152505060405180604001604052808381526020018281525084868151811061270757612707613654565b602002602001015160200181905250846127209061366a565b945050505b60019690961c956127396224ea0082613273565b9050612634565b8267ffffffffffffffff81111561275957612759613286565b60405190808252806020026020018201604052801561279257816020015b61277f612d1d565b8152602001906001900390816127775790505b50935060005b838110156127e8578281815181106127b2576127b2613654565b60200260200101518582815181106127cc576127cc613654565b6020026020010181905250806127e19061366a565b9050612798565b50505050949350505050565b604080518082019091526000808252602082015282516020840151600091612828916128209082613273565b8591906129be565b80855290506128378184613641565b6020850152509192915050565b60006128716040518060800160405280600081526020016000815260200160008152602001600081525090565b604051634e7c505960e01b8152600481018590526001600160a01b03861690634e7c505990602401608060405180830381865afa1580156128b6573d6000803e3d6000fd5b505050506040513d601f19601f820116820180604052508101906128da91906131f1565b606085018190526040850191909152602084019190915290825261291d906129029042613641565b60608301516129119087613641565b604084015191906129be565b8160400181815161292e9190613641565b915081815250506129a383866001600160a01b031663a1e8f02b6040518163ffffffff1660e01b8152600401602060405180830381865afa158015612977573d6000803e3d6000fd5b505050506040513d601f19601f8201168201806040525081019061299b9190613227565b839190612cab565b5095945050505050565b6000611d9e83670de0b6b3a7640000845b8282028115158415858304851417166129d657600080fd5b0492915050565b600080826001600160a01b0316631a90f1866040518163ffffffff1660e01b8152600401602060405180830381865afa158015612a1e573d6000803e3d6000fd5b505050506040513d601f19601f82011682018060405250810190612a429190613227565b90506000836001600160a01b0316632e0af0086040518163ffffffff1660e01b8152600401602060405180830381865afa158015612a84573d6000803e3d6000fd5b505050506040513d601f19601f82011682018060405250810190612aa89190613227565b90506000808211612aba576000612ad5565b612ad5612ac78484611da7565b670de0b6b3a7640000612c95565b90506113f9611103866001600160a01b0316636eb9ffeb6040518163ffffffff1660e01b8152600401602060405180830381865afa158015612b1b573d6000803e3d6000fd5b505050506040513d601f19601f82011682018060405250810190612b3f9190613743565b612b4f9063ffffffff1642613641565b6301e13380886001600160a01b031663f3fdb15a6040518163ffffffff1660e01b8152600401602060405180830381865afa158015612b92573d6000803e3d6000fd5b505050506040513d601f19601f82011682018060405250810190612bb69190613240565b6001600160a01b031663fdb9d1f08a6001600160a01b0316639bf5eb1a6040518163ffffffff1660e01b8152600401602060405180830381865afa158015612c02573d6000803e3d6000fd5b505050506040513d601f19601f82011682018060405250810190612c269190613227565b876040518363ffffffff1660e01b8152600401612c4d929190918252602082015260400190565b602060405180830381865afa158015612c6a573d6000803e3d6000fd5b505050506040513d601f19601f82011682018060405250810190612c8e9190613227565b91906129be565b6000818310612ca45781611d9e565b5090919050565b6000806000612cb986612cfe565b90508015612cf557612cda612cce8683612c95565b604088015190836129be565b9250612ce68385611d89565b9150612cf28284613641565b92505b50935093915050565b8051602082015160009190612d138282612c95565b6111c79083613641565b604051806040016040528060008152602001612d4c604051806040016040528060008152602001600081525090565b905290565b6001600160a01b0381168114612d6657600080fd5b50565b600080600060608486031215612d7e57600080fd5b8335612d8981612d51565b95602085013595506040909401359392505050565b81518152602080830151908201526040808301519082015260608101611da1565b600060208284031215612dd157600080fd5b813561047881612d51565b60005b83811015612df7578181015183820152602001612ddf565b50506000910152565b60008151808452612e18816020860160208601612ddc565b601f01601f19169290920160200192915050565b600081518084526020808501945080840160005b83811015612e8657815180518852838101518489015260408082015190890152606080820151908901526080908101519088015260a09096019590820190600101612e40565b509495945050505050565b600081518084526020808501945080840160005b83811015612e8657815180518852830151805184890152830151604088015260609096019590820190600101612ea5565b60006020808301818452808551808352604092508286019150828160051b87010184880160005b8381101561304b57888303603f19018552815180516001600160a01b031684526102808189015160ff8116868b015250878201518189870152612f4282870182612e00565b606084810151908801526080808501519088015260a0808501519088015260c08085015160ff169088015260e080850151888303828a01529193509150612f898382612e2c565b6101008581015190890152610120808601519089015261014080860151908901526101608086015190890152610180808601511515908901526101a080860151908901526101c080860151908901526101e080860151908901526102008086015190890152610220808601519089015261024080860151898303828b0152919450925090506130188382612e91565b9250505061026080830151925085820381870152506130378183612e91565b968901969450505090860190600101612efd565b509098975050505050505050565b6000806000806080858703121561306f57600080fd5b843561307a81612d51565b93506020850135925060408501359150606085013561309881612d51565b939692955090935050565b600080604083850312156130b657600080fd5b82356130c181612d51565b946020939093013593505050565b600081518084526020808501945080840160005b83811015612e865761310a8783518051825260208082015190830152604090810151910152565b60609690960195908201906001016130e3565b602081526000611d9e60208301846130cf565b60006020828403121561314257600080fd5b5035919050565b60006020808301818452808551808352604092508286019150828160051b87010184880160005b8381101561304b57888303603f19018552815180516001600160a01b031684528781015160ff1688850152868101518785015260608082015160a082870181905291906131bf838801826130cf565b92505050608080830151925085820381870152506131dd81836130cf565b968901969450505090860190600101613170565b6000806000806080858703121561320757600080fd5b505082516020840151604085015160609095015191969095509092509050565b60006020828403121561323957600080fd5b5051919050565b60006020828403121561325257600080fd5b815161047881612d51565b634e487b7160e01b600052601160045260246000fd5b80820180821115611da157611da161325d565b634e487b7160e01b600052604160045260246000fd5b604051601f8201601f1916810167ffffffffffffffff811182821017156132c5576132c5613286565b604052919050565b600060208083850312156132e057600080fd5b825167ffffffffffffffff808211156132f857600080fd5b818501915085601f83011261330c57600080fd5b81518181111561331e5761331e613286565b8060051b915061332f84830161329c565b818152918301840191848101908884111561334957600080fd5b938501935b83851015613373578451925061336383612d51565b828252938501939085019061334e565b98975050505050505050565b6000806040838503121561339257600080fd5b505080516020909101519092909150565b805160ff811681146133b457600080fd5b919050565b6000602082840312156133cb57600080fd5b611d9e826133a3565b60ff8281168282160390811115611da157611da161325d565b600181815b8085111561342857816000190482111561340e5761340e61325d565b8085161561341b57918102915b93841c93908002906133f2565b509250929050565b60008261343f57506001611da1565b8161344c57506000611da1565b8160018114613462576002811461346c57613488565b6001915050611da1565b60ff84111561347d5761347d61325d565b50506001821b611da1565b5060208310610133831016604e8410600b84101617156134ab575081810a611da1565b6134b583836133ed565b80600019048211156134c9576134c961325d565b029392505050565b6000611d9e60ff841683613430565b8082028115828204841417611da157611da161325d565b80516001600160801b03811681146133b457600080fd5b600080600080600060a0868803121561352657600080fd5b61352f866134f7565b945061353d602087016133a3565b935061354b604087016133a3565b92506060860151801515811461356057600080fd5b608087015190925061357181612d51565b809150509295509295909350565b60008060006060848603121561359457600080fd5b8351925060208401519150604084015190509250925092565b6000602082840312156135bf57600080fd5b815167ffffffffffffffff808211156135d757600080fd5b818401915084601f8301126135eb57600080fd5b8151818111156135fd576135fd613286565b613610601f8201601f191660200161329c565b915080825285602082850101111561362757600080fd5b613638816020840160208601612ddc565b50949350505050565b81810381811115611da157611da161325d565b634e487b7160e01b600052603260045260246000fd5b60006001820161367c5761367c61325d565b5060010190565b6000826136a057634e487b7160e01b600052601260045260246000fd5b500690565b6000606082840312156136b757600080fd5b6040516060810181811067ffffffffffffffff821117156136da576136da613286565b80604052508251815260208301516020820152604083015160408201528091505092915050565b60006020828403121561371357600080fd5b611d9e826134f7565b6001600160801b0382811682821603908082111561373c5761373c61325d565b5092915050565b60006020828403121561375557600080fd5b815163ffffffff8116811461047857600080fdfea2646970667358221220cf245a9c694a3076ced168ed5fc5763143e707880c695255df9dfebb1e37ea5e64736f6c63430008110033",
  "devdoc": {
    "kind": "dev",
    "methods": {
      "constructor": {
        "custom:oz-upgrades-unsafe-allow": "constructor"
      },
      "exactly(address)": {
        "params": {
          "account": "address which the extended data will be calculated."
        },
        "returns": {
          "data": "extended accountability of all markets for the account."
        }
      },
      "previewBorrowAtAllMaturities(address,uint256)": {
        "params": {
          "assets": "amount of assets that will be borrowed.",
          "market": "address of the market."
        },
        "returns": {
          "previews": "array containing amount plus yield that account will receive after each maturity."
        }
      },
      "previewBorrowAtMaturity(address,uint256,uint256)": {
        "params": {
          "assets": "amount of assets that will be borrowed.",
          "market": "address of the market.",
          "maturity": "maturity date/pool where the assets will be borrowed."
        },
        "returns": {
          "_0": "positionAssets amount plus fees that the depositor will repay at maturity."
        }
      },
      "previewDepositAtAllMaturities(address,uint256)": {
        "params": {
          "assets": "amount of assets that will be deposited.",
          "market": "address of the market."
        },
        "returns": {
          "previews": "array containing amount plus yield that account will receive after each maturity."
        }
      },
      "previewDepositAtMaturity(address,uint256,uint256)": {
        "params": {
          "assets": "amount of assets that will be deposited.",
          "market": "address of the market.",
          "maturity": "maturity date/pool where the assets will be deposited."
        },
        "returns": {
          "_0": "amount plus yield that the depositor will receive after maturity."
        }
      },
      "previewFixed(uint256)": {
        "params": {
          "usdAmount": "amount in usd expressed with 18 decimals."
        },
        "returns": {
          "data": "with fixed rate simulations for every market."
        }
      },
      "previewRepayAtMaturity(address,uint256,uint256,address)": {
        "params": {
          "borrower": "address of the borrower.",
          "market": "address of the market.",
          "maturity": "maturity date/pool where the assets will be repaid.",
          "positionAssets": "amount of assets that will be subtracted from the position."
        },
        "returns": {
          "repayAssets": "amount of assets that will be repaid."
        }
      },
      "previewWithdrawAtMaturity(address,uint256,uint256)": {
        "params": {
          "market": "address of the market.",
          "maturity": "maturity date/pool where the assets will be withdrawn.",
          "positionAssets": "amount of assets that will be tried to withdraw."
        },
        "returns": {
          "withdrawAssets": "amount that will be withdrawn."
        }
      }
    },
    "stateVariables": {
      "auditor": {
        "custom:oz-upgrades-unsafe-allow": "state-variable-immutable"
      },
      "basePriceFeed": {
        "custom:oz-upgrades-unsafe-allow": "state-variable-immutable"
      }
    },
    "title": "Previewer",
    "version": 1
  },
  "userdoc": {
    "kind": "user",
    "methods": {
      "exactly(address)": {
        "notice": "Function to get a certain account extended data."
      },
      "previewBorrowAtAllMaturities(address,uint256)": {
        "notice": "Gets the assets plus fees offered by all VALID maturities when borrowing a certain amount."
      },
      "previewBorrowAtMaturity(address,uint256,uint256)": {
        "notice": "Gets the amount plus fees to be repaid at maturity when borrowing certain amount of assets."
      },
      "previewDepositAtAllMaturities(address,uint256)": {
        "notice": "Gets the assets plus yield offered by all VALID maturities when depositing a certain amount."
      },
      "previewDepositAtMaturity(address,uint256,uint256)": {
        "notice": "Gets the assets plus yield offered by a maturity when depositing a certain amount."
      },
      "previewFixed(uint256)": {
        "notice": "Function to preview deposits and borrows at fixed rates in all markets."
      },
      "previewRepayAtMaturity(address,uint256,uint256,address)": {
        "notice": "Gets the assets that will be repaid when repaying a certain amount at the current maturity."
      },
      "previewWithdrawAtMaturity(address,uint256,uint256)": {
        "notice": "Gets the amount to be withdrawn for a certain positionAmount of assets at maturity."
      }
    },
    "notice": "Contract to be consumed by Exactly's front-end dApp.",
    "version": 1
  },
  "storageLayout": {
    "storage": [],
    "types": null
  }
}