{
  "address": "0x21D8546C66f82c49bdFB0d9834d3e6435281d1c0",
  "abi": [
    {
      "inputs": [
        {
          "internalType": "contract Auditor",
          "name": "auditor_",
          "type": "address"
        },
        {
          "internalType": "contract IPriceFeed",
          "name": "basePriceFeed_",
          "type": "address"
        }
      ],
      "stateMutability": "nonpayable",
      "type": "constructor"
    },
    {
      "inputs": [],
      "name": "AlreadyMatured",
      "type": "error"
    },
    {
      "inputs": [],
      "name": "auditor",
      "outputs": [
        {
          "internalType": "contract Auditor",
          "name": "",
          "type": "address"
        }
      ],
      "stateMutability": "view",
      "type": "function"
    },
    {
      "inputs": [],
      "name": "basePriceFeed",
      "outputs": [
        {
          "internalType": "contract IPriceFeed",
          "name": "",
          "type": "address"
        }
      ],
      "stateMutability": "view",
      "type": "function"
    },
    {
      "inputs": [
        {
          "internalType": "address",
          "name": "account",
          "type": "address"
        }
      ],
      "name": "exactly",
      "outputs": [
        {
          "components": [
            {
              "internalType": "contract Market",
              "name": "market",
              "type": "address"
            },
            {
              "internalType": "uint8",
              "name": "decimals",
              "type": "uint8"
            },
            {
              "internalType": "address",
              "name": "asset",
              "type": "address"
            },
            {
              "internalType": "string",
              "name": "assetSymbol",
              "type": "string"
            },
            {
              "components": [
                {
                  "internalType": "address",
                  "name": "id",
                  "type": "address"
                },
                {
                  "internalType": "uint256",
                  "name": "fixedCurveA",
                  "type": "uint256"
                },
                {
                  "internalType": "int256",
                  "name": "fixedCurveB",
                  "type": "int256"
                },
                {
                  "internalType": "uint256",
                  "name": "fixedMaxUtilization",
                  "type": "uint256"
                },
                {
                  "internalType": "uint256",
                  "name": "floatingCurveA",
                  "type": "uint256"
                },
                {
                  "internalType": "int256",
                  "name": "floatingCurveB",
                  "type": "int256"
                },
                {
                  "internalType": "uint256",
                  "name": "floatingMaxUtilization",
                  "type": "uint256"
                }
              ],
              "internalType": "struct Previewer.InterestRateModel",
              "name": "interestRateModel",
              "type": "tuple"
            },
            {
              "internalType": "uint256",
              "name": "usdPrice",
              "type": "uint256"
            },
            {
              "internalType": "uint256",
              "name": "penaltyRate",
              "type": "uint256"
            },
            {
              "internalType": "uint256",
              "name": "adjustFactor",
              "type": "uint256"
            },
            {
              "internalType": "uint8",
              "name": "maxFuturePools",
              "type": "uint8"
            },
            {
              "components": [
                {
                  "internalType": "uint256",
                  "name": "maturity",
                  "type": "uint256"
                },
                {
                  "internalType": "uint256",
                  "name": "borrowed",
                  "type": "uint256"
                },
                {
                  "internalType": "uint256",
                  "name": "supplied",
                  "type": "uint256"
                },
                {
                  "internalType": "uint256",
                  "name": "available",
                  "type": "uint256"
                },
                {
                  "internalType": "uint256",
                  "name": "utilization",
                  "type": "uint256"
                },
                {
                  "internalType": "uint256",
                  "name": "depositRate",
                  "type": "uint256"
                },
                {
                  "internalType": "uint256",
                  "name": "minBorrowRate",
                  "type": "uint256"
                },
                {
                  "internalType": "uint256",
                  "name": "optimalDeposit",
                  "type": "uint256"
                }
              ],
              "internalType": "struct Previewer.FixedPool[]",
              "name": "fixedPools",
              "type": "tuple[]"
            },
            {
              "internalType": "uint256",
              "name": "floatingBackupBorrowed",
              "type": "uint256"
            },
            {
              "internalType": "uint256",
              "name": "floatingAvailableAssets",
              "type": "uint256"
            },
            {
              "internalType": "uint256",
              "name": "totalFloatingBorrowAssets",
              "type": "uint256"
            },
            {
              "internalType": "uint256",
              "name": "totalFloatingDepositAssets",
              "type": "uint256"
            },
            {
              "internalType": "bool",
              "name": "isCollateral",
              "type": "bool"
            },
            {
              "internalType": "uint256",
              "name": "maxBorrowAssets",
              "type": "uint256"
            },
            {
              "internalType": "uint256",
              "name": "floatingBorrowShares",
              "type": "uint256"
            },
            {
              "internalType": "uint256",
              "name": "floatingBorrowAssets",
              "type": "uint256"
            },
            {
              "internalType": "uint256",
              "name": "floatingDepositShares",
              "type": "uint256"
            },
            {
              "internalType": "uint256",
              "name": "floatingDepositAssets",
              "type": "uint256"
            },
            {
              "components": [
                {
                  "internalType": "uint256",
                  "name": "maturity",
                  "type": "uint256"
                },
                {
                  "internalType": "uint256",
                  "name": "previewValue",
                  "type": "uint256"
                },
                {
                  "components": [
                    {
                      "internalType": "uint256",
                      "name": "principal",
                      "type": "uint256"
                    },
                    {
                      "internalType": "uint256",
                      "name": "fee",
                      "type": "uint256"
                    }
                  ],
                  "internalType": "struct FixedLib.Position",
                  "name": "position",
                  "type": "tuple"
                }
              ],
              "internalType": "struct Previewer.FixedPosition[]",
              "name": "fixedDepositPositions",
              "type": "tuple[]"
            },
            {
              "components": [
                {
                  "internalType": "uint256",
                  "name": "maturity",
                  "type": "uint256"
                },
                {
                  "internalType": "uint256",
                  "name": "previewValue",
                  "type": "uint256"
                },
                {
                  "components": [
                    {
                      "internalType": "uint256",
                      "name": "principal",
                      "type": "uint256"
                    },
                    {
                      "internalType": "uint256",
                      "name": "fee",
                      "type": "uint256"
                    }
                  ],
                  "internalType": "struct FixedLib.Position",
                  "name": "position",
                  "type": "tuple"
                }
              ],
              "internalType": "struct Previewer.FixedPosition[]",
              "name": "fixedBorrowPositions",
              "type": "tuple[]"
            }
          ],
          "internalType": "struct Previewer.MarketAccount[]",
          "name": "data",
          "type": "tuple[]"
        }
      ],
      "stateMutability": "view",
      "type": "function"
    },
    {
      "inputs": [
        {
          "internalType": "contract Market",
          "name": "market",
          "type": "address"
        },
        {
          "internalType": "uint256",
          "name": "assets",
          "type": "uint256"
        }
      ],
      "name": "previewBorrowAtAllMaturities",
      "outputs": [
        {
          "components": [
            {
              "internalType": "uint256",
              "name": "maturity",
              "type": "uint256"
            },
            {
              "internalType": "uint256",
              "name": "assets",
              "type": "uint256"
            },
            {
              "internalType": "uint256",
              "name": "utilization",
              "type": "uint256"
            }
          ],
          "internalType": "struct Previewer.FixedPreview[]",
          "name": "previews",
          "type": "tuple[]"
        }
      ],
      "stateMutability": "view",
      "type": "function"
    },
    {
      "inputs": [
        {
          "internalType": "contract Market",
          "name": "market",
          "type": "address"
        },
        {
          "internalType": "uint256",
          "name": "maturity",
          "type": "uint256"
        },
        {
          "internalType": "uint256",
          "name": "assets",
          "type": "uint256"
        }
      ],
      "name": "previewBorrowAtMaturity",
      "outputs": [
        {
          "components": [
            {
              "internalType": "uint256",
              "name": "maturity",
              "type": "uint256"
            },
            {
              "internalType": "uint256",
              "name": "assets",
              "type": "uint256"
            },
            {
              "internalType": "uint256",
              "name": "utilization",
              "type": "uint256"
            }
          ],
          "internalType": "struct Previewer.FixedPreview",
          "name": "",
          "type": "tuple"
        }
      ],
      "stateMutability": "view",
      "type": "function"
    },
    {
      "inputs": [
        {
          "internalType": "contract Market",
          "name": "market",
          "type": "address"
        },
        {
          "internalType": "uint256",
          "name": "assets",
          "type": "uint256"
        }
      ],
      "name": "previewDepositAtAllMaturities",
      "outputs": [
        {
          "components": [
            {
              "internalType": "uint256",
              "name": "maturity",
              "type": "uint256"
            },
            {
              "internalType": "uint256",
              "name": "assets",
              "type": "uint256"
            },
            {
              "internalType": "uint256",
              "name": "utilization",
              "type": "uint256"
            }
          ],
          "internalType": "struct Previewer.FixedPreview[]",
          "name": "previews",
          "type": "tuple[]"
        }
      ],
      "stateMutability": "view",
      "type": "function"
    },
    {
      "inputs": [
        {
          "internalType": "contract Market",
          "name": "market",
          "type": "address"
        },
        {
          "internalType": "uint256",
          "name": "maturity",
          "type": "uint256"
        },
        {
          "internalType": "uint256",
          "name": "assets",
          "type": "uint256"
        }
      ],
      "name": "previewDepositAtMaturity",
      "outputs": [
        {
          "components": [
            {
              "internalType": "uint256",
              "name": "maturity",
              "type": "uint256"
            },
            {
              "internalType": "uint256",
              "name": "assets",
              "type": "uint256"
            },
            {
              "internalType": "uint256",
              "name": "utilization",
              "type": "uint256"
            }
          ],
          "internalType": "struct Previewer.FixedPreview",
          "name": "",
          "type": "tuple"
        }
      ],
      "stateMutability": "view",
      "type": "function"
    },
    {
      "inputs": [
        {
          "internalType": "contract Market",
          "name": "market",
          "type": "address"
        },
        {
          "internalType": "uint256",
          "name": "maturity",
          "type": "uint256"
        },
        {
          "internalType": "uint256",
          "name": "positionAssets",
          "type": "uint256"
        },
        {
          "internalType": "address",
          "name": "borrower",
          "type": "address"
        }
      ],
      "name": "previewRepayAtMaturity",
      "outputs": [
        {
          "internalType": "uint256",
          "name": "repayAssets",
          "type": "uint256"
        }
      ],
      "stateMutability": "view",
      "type": "function"
    },
    {
      "inputs": [
        {
          "internalType": "contract Market",
          "name": "market",
          "type": "address"
        },
        {
          "internalType": "uint256",
          "name": "maturity",
          "type": "uint256"
        },
        {
          "internalType": "uint256",
          "name": "positionAssets",
          "type": "uint256"
        },
        {
          "internalType": "address",
          "name": "",
          "type": "address"
        }
      ],
      "name": "previewWithdrawAtMaturity",
      "outputs": [
        {
          "internalType": "uint256",
          "name": "withdrawAssets",
          "type": "uint256"
        }
      ],
      "stateMutability": "view",
      "type": "function"
    }
  ],
  "transactionHash": "0x9f7ca4017710d62b067c80c58a1e5bb84bd9e953d8ac86123eb55109ae26f6f9",
  "args": [
    "0xB957a4Aa46F859b14C745b8356c28B8361319fAB",
    "0x0000000000000000000000000000000000000000"
  ],
  "numDeployments": 1,
  "solcInputHash": "c55f47227e20c5803545802fc15c0bd1",
  "bytecode": "0x60c06040523480156200001157600080fd5b5060405162003c8a38038062003c8a833981016040819052620000349162000065565b6001600160a01b039182166080521660a052620000a4565b6001600160a01b03811681146200006257600080fd5b50565b600080604083850312156200007957600080fd5b825162000086816200004c565b602084015190925062000099816200004c565b809150509250929050565b60805160a051613b7a620001106000396000818161019f015281816106190152818161065501526106ed0152600081816101070152818161047a015281816104eb015281816105a4015281816107f20152818161093701528181610e4c01526111a00152613b7a6000f3fe608060405234801561001057600080fd5b50600436106100935760003560e01c80637e789958116100665780637e789958146101415780638eab0a2a14610154578063b15a3f6114610167578063b18ba94514610187578063e41e75121461019a57600080fd5b8063109c46ce14610098578063157c9e0e146100c1578063221e81f6146100e15780633ec045a614610102575b600080fd5b6100ab6100a6366004613129565b6101c1565b6040516100b8919061315e565b60405180910390f35b6100d46100cf36600461317f565b610452565b6040516100b891906132ca565b6100f46100ef3660046134f4565b6113c7565b6040519081526020016100b8565b6101297f000000000000000000000000000000000000000000000000000000000000000081565b6040516001600160a01b0390911681526020016100b8565b6100f461014f3660046134f4565b611515565b6100ab610162366004613129565b61173f565b61017a61017536600461353e565b6118af565b6040516100b8919061356a565b61017a61019536600461353e565b611a0e565b6101297f000000000000000000000000000000000000000000000000000000000000000081565b6101e560405180606001604052806000815260200160008152602001600081525090565b6102106040518060800160405280600081526020016000815260200160008152602001600081525090565b604051634e7c505960e01b8152600481018590526001600160a01b03861690634e7c505990602401608060405180830381865afa158015610255573d6000803e3d6000fd5b505050506040513d601f19601f8201168201806040525081019061027991906135cc565b505060208084019190915290825260408051630795bad560e11b815290516000926001600160a01b03891692630f2b75aa92600480830193928290030181865afa1580156102cb573d6000803e3d6000fd5b505050506040513d601f19601f820116820180604052508101906102ef9190613602565b905060006103ec876001600160a01b031663f3fdb15a6040518163ffffffff1660e01b8152600401602060405180830381865afa158015610334573d6000803e3d6000fd5b505050506040513d601f19601f82011682018060405250810190610358919061361b565b8451602086015160405163df635f3d60e01b8152600481018b9052602481018a905260448101929092526064820152608481018590526001600160a01b03919091169063df635f3d9060a401602060405180830381865afa1580156103c1573d6000803e3d6000fd5b505050506040513d601f19601f820116820180604052508101906103e59190613602565b8690611c0f565b90506040518060600160405280878152602001828761040b919061364e565b81526020016000841161041f576000610445565b610445848660200151610432919061364e565b865161043f908a9061364e565b90611c2d565b9052979650505050505050565b60405160016263e28d60e11b031981526001600160a01b0382811660048301526060916000917f0000000000000000000000000000000000000000000000000000000000000000169063ff383ae690602401602060405180830381865afa1580156104c1573d6000803e3d6000fd5b505050506040513d601f19601f820116820180604052508101906104e59190613602565b905060007f00000000000000000000000000000000000000000000000000000000000000006001600160a01b031663375a7cba6040518163ffffffff1660e01b8152600401600060405180830381865afa158015610547573d6000803e3d6000fd5b505050506040513d6000823e601f3d908101601f1916820160405261056f91908101906136a8565b51604051639e9d796760e01b81526001600160a01b0386811660048301526000602483018190526044830181905292935082917f000000000000000000000000000000000000000000000000000000000000000090911690639e9d7967906064016040805180830381865afa1580156105ec573d6000803e3d6000fd5b505050506040513d601f19601f82011682018060405250810190610610919061375a565b909250905060007f00000000000000000000000000000000000000000000000000000000000000006001600160a01b031661065357670de0b6b3a7640000610777565b7f00000000000000000000000000000000000000000000000000000000000000006001600160a01b031663313ce5676040518163ffffffff1660e01b8152600401602060405180830381865afa1580156106b1573d6000803e3d6000fd5b505050506040513d601f19601f820116820180604052508101906106d59190613794565b6106e09060126137af565b6106eb90600a6138ac565b7f00000000000000000000000000000000000000000000000000000000000000006001600160a01b03166350d25bcd6040518163ffffffff1660e01b8152600401602060405180830381865afa158015610749573d6000803e3d6000fd5b505050506040513d601f19601f8201168201806040525081019061076d9190613602565b61077791906138bb565b90508367ffffffffffffffff81111561079257610792613661565b6040519080825280602002602001820160405280156107cb57816020015b6107b8612fce565b8152602001906001900390816107b05790505b50955060005b848110156113bc576040516308cae55b60e21b8152600481018290526000907f00000000000000000000000000000000000000000000000000000000000000006001600160a01b03169063232b956c90602401602060405180830381865afa158015610841573d6000803e3d6000fd5b505050506040513d601f19601f82011682018060405250810190610865919061361b565b90506000816001600160a01b031663f3fdb15a6040518163ffffffff1660e01b8152600401602060405180830381865afa1580156108a7573d6000803e3d6000fd5b505050506040513d601f19601f820116820180604052508101906108cb919061361b565b90506108f160405180606001604052806000815260200160008152602001600081525090565b6040805160a0810182526000808252602082018190528183018190526060820181905260808201529051638e8f294b60e01b81526001600160a01b0385811660048301527f00000000000000000000000000000000000000000000000000000000000000001690638e8f294b9060240160a060405180830381865afa15801561097e573d6000803e3d6000fd5b505050506040513d601f19601f820116820180604052508101906109a291906138e9565b6001600160a01b039081166080870152901515606086015260ff9182166040808701919091529290911660208501526001600160801b0392909216835251632f2e037160e11b81528d8216600482015290851690635e5c06e290602401606060405180830381865afa158015610a1c573d6000803e3d6000fd5b505050506040513d601f19601f82011682018060405250810190610a40919061395a565b846000018560200186604001838152508381525083815250505050604051806102c00160405280856001600160a01b03168152602001826020015160ff168152602001856001600160a01b03166338d52e0f6040518163ffffffff1660e01b8152600401602060405180830381865afa158015610ac1573d6000803e3d6000fd5b505050506040513d601f19601f82011682018060405250810190610ae5919061361b565b6001600160a01b03168152602001856001600160a01b03166338d52e0f6040518163ffffffff1660e01b8152600401602060405180830381865afa158015610b31573d6000803e3d6000fd5b505050506040513d601f19601f82011682018060405250810190610b55919061361b565b6001600160a01b03166395d89b416040518163ffffffff1660e01b8152600401600060405180830381865afa158015610b92573d6000803e3d6000fd5b505050506040513d6000823e601f3d908101601f19168201604052610bba9190810190613988565b81526020016040518060e00160405280866001600160a01b03168152602001866001600160a01b0316634d6fc5226040518163ffffffff1660e01b8152600401602060405180830381865afa158015610c17573d6000803e3d6000fd5b505050506040513d601f19601f82011682018060405250810190610c3b9190613602565b8152602001866001600160a01b031663dfb08e106040518163ffffffff1660e01b8152600401602060405180830381865afa158015610c7e573d6000803e3d6000fd5b505050506040513d601f19601f82011682018060405250810190610ca29190613602565b8152602001866001600160a01b0316630481520b6040518163ffffffff1660e01b8152600401602060405180830381865afa158015610ce5573d6000803e3d6000fd5b505050506040513d601f19601f82011682018060405250810190610d099190613602565b8152602001866001600160a01b031663b99699346040518163ffffffff1660e01b8152600401602060405180830381865afa158015610d4c573d6000803e3d6000fd5b505050506040513d601f19601f82011682018060405250810190610d709190613602565b8152602001866001600160a01b031663269801216040518163ffffffff1660e01b8152600401602060405180830381865afa158015610db3573d6000803e3d6000fd5b505050506040513d601f19601f82011682018060405250810190610dd79190613602565b8152602001866001600160a01b031663d83726856040518163ffffffff1660e01b8152600401602060405180830381865afa158015610e1a573d6000803e3d6000fd5b505050506040513d601f19601f82011682018060405250810190610e3e9190613602565b8152508152602001610ef0887f00000000000000000000000000000000000000000000000000000000000000006001600160a01b031663b883b05886608001516040518263ffffffff1660e01b8152600401610ea991906001600160a01b0391909116815260200190565b602060405180830381865afa158015610ec6573d6000803e3d6000fd5b505050506040513d601f19601f82011682018060405250810190610eea9190613602565b90611c0f565b8152602001856001600160a01b031663d6b7494f6040518163ffffffff1660e01b8152600401602060405180830381865afa158015610f33573d6000803e3d6000fd5b505050506040513d601f19601f82011682018060405250810190610f579190613602565b815260200182600001516001600160801b03168152602001856001600160a01b0316630e52dbec6040518163ffffffff1660e01b8152600401602060405180830381865afa158015610fad573d6000803e3d6000fd5b505050506040513d601f19601f82011682018060405250810190610fd19190613794565b60ff168152602001610fe286611c42565b8152602001856001600160a01b0316638c3cba5a6040518163ffffffff1660e01b8152600401602060405180830381865afa158015611025573d6000803e3d6000fd5b505050506040513d601f19601f820116820180604052508101906110499190613602565b815260200161105786612511565b8152602001856001600160a01b031663eee8c9e06040518163ffffffff1660e01b8152600401602060405180830381865afa15801561109a573d6000803e3d6000fd5b505050506040513d601f19601f820116820180604052508101906110be9190613602565b8152602001856001600160a01b03166301e1d1146040518163ffffffff1660e01b8152600401602060405180830381865afa158015611101573d6000803e3d6000fd5b505050506040513d601f19601f820116820180604052508101906111259190613602565b81526020016001871b8c1660000361113e576000611141565b60015b15158152602001888a1015611157576000611226565b61122683600001516001600160801b03166112208560200151600a61117c91906138ac565b6080870151604051631710760b60e31b81526001600160a01b0391821660048201527f00000000000000000000000000000000000000000000000000000000000000009091169063b883b05890602401602060405180830381865afa1580156111e9573d6000803e3d6000fd5b505050506040513d601f19601f8201168201806040525081019061120d9190613602565b8d8f6112199190613a1c565b9190612691565b906126bf565b81526020018360400151815260200161123f868f6126d4565b81526040516370a0823160e01b81526001600160a01b038f811660048301526020909201918716906370a0823190602401602060405180830381865afa15801561128d573d6000803e3d6000fd5b505050506040513d601f19601f820116820180604052508101906112b19190613602565b815260405163ce96cb7760e01b81526001600160a01b038f8116600483015260209092019187169063ce96cb7790602401602060405180830381865afa1580156112ff573d6000803e3d6000fd5b505050506040513d601f19601f820116820180604052508101906113239190613602565b8152602001611355868f8660000151896001600160a01b031663ccfd8b11306001600160a01b0316637e7899586127b1565b8152602001611387868f8660200151896001600160a01b031663d2681a0b306001600160a01b031663221e81f66127b1565b8152508b868151811061139c5761139c613a2f565b602002602001018190525050505050806113b590613a45565b90506107d1565b505050505050919050565b600083421061146157611450856001600160a01b031663d6b7494f6040518163ffffffff1660e01b8152600401602060405180830381865afa158015611411573d6000803e3d6000fd5b505050506040513d601f19601f820116820180604052508101906114359190613602565b61143f8642613a1c565b61144991906138bb565b8490611c0f565b61145a908461364e565b905061150d565b60408051808201825260008082526020820152905163d2681a0b60e01b8152600481018690526001600160a01b03848116602483015287169063d2681a0b906044016040805180830381865afa1580156114bf573d6000803e3d6000fd5b505050506040513d601f19601f820116820180604052508101906114e3919061375a565b602083015281526114ff86866114f98488612a9c565b51612aec565b6115099085613a1c565b9150505b949350505050565b600083421061152557508161150d565b6115506040518060800160405280600081526020016000815260200160008152602001600081525090565b604051634e7c505960e01b8152600481018690526001600160a01b03871690634e7c505990602401608060405180830381865afa158015611595573d6000803e3d6000fd5b505050506040513d601f19601f820116820180604052508101906115b991906135cc565b5050602080840191909152908252604080516379fed8ad60e11b81529051611509926001600160a01b038a169263f3fdb15a92600480830193928290030181865afa15801561160c573d6000803e3d6000fd5b505050506040513d601f19601f82011682018060405250810190611630919061361b565b6001600160a01b031663df635f3d8787856000015186602001518c6001600160a01b0316630f2b75aa6040518163ffffffff1660e01b8152600401602060405180830381865afa158015611688573d6000803e3d6000fd5b505050506040513d601f19601f820116820180604052508101906116ac9190613602565b6040516001600160e01b031960e088901b1681526004810195909552602485019390935260448401919091526064830152608482015260a401602060405180830381865afa158015611702573d6000803e3d6000fd5b505050506040513d601f19601f820116820180604052508101906117269190613602565b61173890670de0b6b3a764000061364e565b8590612c55565b61176360405180606001604052806000815260200160008152602001600081525090565b82421115611784576040516305a29e1160e51b815260040160405180910390fd5b604051634e7c505960e01b81526004810184905260009081906001600160a01b03871690634e7c505990602401608060405180830381865afa1580156117ce573d6000803e3d6000fd5b505050506040513d601f19601f820116820180604052508101906117f291906135cc565b5050915091506000866001600160a01b0316630f2b75aa6040518163ffffffff1660e01b8152600401602060405180830381865afa158015611838573d6000803e3d6000fd5b505050506040513d601f19601f8201168201806040525081019061185c9190613602565b9050604051806060016040528087815260200161187a898989612aec565b611884908861364e565b815260200160008311611898576000610445565b6104456118a5848661364e565b61043f898861364e565b60606000836001600160a01b0316630e52dbec6040518163ffffffff1660e01b8152600401602060405180830381865afa1580156118f1573d6000803e3d6000fd5b505050506040513d601f19601f820116820180604052508101906119159190613794565b60ff16905060006224ea0061192a8142613a5e565b6119349042613a1c565b61193e919061364e565b90508167ffffffffffffffff81111561195957611959613661565b6040519080825280602002602001820160405280156119ae57816020015b61199b60405180606001604052806000815260200160008152602001600081525090565b8152602001906001900390816119775790505b50925060005b82811015611a05576119c786838761173f565b8482815181106119d9576119d9613a2f565b60209081029190910101526119f16224ea008361364e565b9150806119fd81613a45565b9150506119b4565b50505092915050565b60606000836001600160a01b0316630e52dbec6040518163ffffffff1660e01b8152600401602060405180830381865afa158015611a50573d6000803e3d6000fd5b505050506040513d601f19601f82011682018060405250810190611a749190613794565b60ff16905060006224ea00611a898142613a5e565b611a939042613a1c565b611a9d919061364e565b90508167ffffffffffffffff811115611ab857611ab8613661565b604051908082528060200260200182016040528015611b0d57816020015b611afa60405180606001604052806000815260200160008152602001600081525090565b815260200190600190039081611ad65790505b50925060005b82811015611a055760405163084e236760e11b81526001600160a01b03871660048201526024810183905260448101869052309063109c46ce90606401606060405180830381865afa925050508015611b89575060408051601f3d908101601f19168201909252611b8691810190613a80565b60015b611bce5760405180606001604052808381526020016000198152602001600019815250848281518110611bbe57611bbe613a2f565b6020026020010181905250611bee565b80858381518110611be157611be1613a2f565b6020026020010181905250505b611bfb6224ea008361364e565b915080611c0781613a45565b915050611b13565b6000611c248383670de0b6b3a7640000612c66565b90505b92915050565b6000611c2483670de0b6b3a764000084612691565b60606000611c4f83612c85565b9050826001600160a01b0316630e52dbec6040518163ffffffff1660e01b8152600401602060405180830381865afa158015611c8f573d6000803e3d6000fd5b505050506040513d601f19601f82011682018060405250810190611cb39190613794565b60ff1667ffffffffffffffff811115611cce57611cce613661565b604051908082528060200260200182016040528015611d4757816020015b611d3460405180610100016040528060008152602001600081526020016000815260200160008152602001600081526020016000815260200160008152602001600081525090565b815260200190600190039081611cec5790505b50915060005b836001600160a01b0316630e52dbec6040518163ffffffff1660e01b8152600401602060405180830381865afa158015611d8b573d6000803e3d6000fd5b505050506040513d601f19601f82011682018060405250810190611daf9190613794565b60ff1681101561250a57611de46040518060800160405280600081526020016000815260200160008152602001600081525090565b6001600160a01b038516634e7c5059611dfe84600161364e565b611e0b906224ea006138bb565b611e186224ea0042613a5e565b611e229042613a1c565b611e2c919061364e565b6040518263ffffffff1660e01b8152600401611e4a91815260200190565b608060405180830381865afa158015611e67573d6000803e3d6000fd5b505050506040513d601f19601f82011682018060405250810190611e8b91906135cc565b5060408085019190915260208085018390529284528051630795bad560e11b815290516000938493849390926001600160a01b038c1692630f2b75aa92600480820193918290030181865afa158015611ee8573d6000803e3d6000fd5b505050506040513d601f19601f82011682018060405250810190611f0c9190613602565b611f16919061364e565b11611f235760008061206b565b866001600160a01b031663f3fdb15a6040518163ffffffff1660e01b8152600401602060405180830381865afa158015611f61573d6000803e3d6000fd5b505050506040513d601f19601f82011682018060405250810190611f85919061361b565b6001600160a01b03166362caa049846000015185602001518a6001600160a01b0316630f2b75aa6040518163ffffffff1660e01b8152600401602060405180830381865afa158015611fdb573d6000803e3d6000fd5b505050506040513d601f19601f82011682018060405250810190611fff9190613602565b6040516001600160e01b031960e086901b1681526004810193909352602483019190915260448201526064016040805180830381865afa158015612047573d6000803e3d6000fd5b505050506040513d601f19601f8201168201806040525081019061206b919061375a565b91509150604051806101000160405280856001612088919061364e565b612095906224ea006138bb565b6120a26224ea0042613a5e565b6120ac9042613a1c565b6120b6919061364e565b815260200184600001518152602001846020015181526020016120e185602001518660000151612f46565b85602001516123646122b76121d98d6001600160a01b0316634322b7146040518163ffffffff1660e01b8152600401602060405180830381865afa15801561212d573d6000803e3d6000fd5b505050506040513d601f19601f820116820180604052508101906121519190613adc565b61216390670de0b6b3a7640000613af7565b6001600160801b03168c8f6001600160a01b0316632e0af0086040518163ffffffff1660e01b8152600401602060405180830381865afa1580156121ab573d6000803e3d6000fd5b505050506040513d601f19601f820116820180604052508101906121cf9190613602565b610eea919061364e565b8b8e6001600160a01b0316631a90f1866040518163ffffffff1660e01b8152600401602060405180830381865afa158015612218573d6000803e3d6000fd5b505050506040513d601f19601f8201168201806040525081019061223c9190613602565b8f6001600160a01b0316638c3cba5a6040518163ffffffff1660e01b8152600401602060405180830381865afa15801561227a573d6000803e3d6000fd5b505050506040513d601f19601f8201168201806040525081019061229e9190613602565b6122a8919061364e565b6122b2919061364e565b612f46565b6122f88d6001600160a01b0316634322b7146040518163ffffffff1660e01b8152600401602060405180830381865afa15801561212d573d6000803e3d6000fd5b6123029190613a1c565b8c6001600160a01b0316630f2b75aa6040518163ffffffff1660e01b8152600401602060405180830381865afa158015612340573d6000803e3d6000fd5b505050506040513d601f19601f820116820180604052508101906122b29190613602565b61236e919061364e565b6123789190613a1c565b81526020018281526020016124ab600061239a87600001518860200151612f46565b87516123a69190613a1c565b116123b257600061245b565b61245b6123c787600001518860200151612f46565b87516123d39190613a1c565b6124558c6001600160a01b031663a1e8f02b6040518163ffffffff1660e01b8152600401602060405180830381865afa158015612414573d6000803e3d6000fd5b505050506040513d601f19601f820116820180604052508101906124389190613602565b61244a90670de0b6b3a7640000613a1c565b60408a015190611c0f565b90612c55565b4261246789600161364e565b612474906224ea006138bb565b6124816224ea0042613a5e565b61248b9042613a1c565b612495919061364e565b61249f9190613a1c565b6301e133809190612c66565b81526020018381526020016124c885600001518660200151612f46565b85516124d49190613a1c565b8152508685815181106124e9576124e9613a2f565b6020026020010181905250505050808061250290613a45565b915050611d4d565b5050919050565b60008061251d83612c85565b905060006125e0846001600160a01b0316634322b7146040518163ffffffff1660e01b8152600401602060405180830381865afa158015612562573d6000803e3d6000fd5b505050506040513d601f19601f820116820180604052508101906125869190613adc565b61259890670de0b6b3a7640000613af7565b6001600160801b031683866001600160a01b0316632e0af0086040518163ffffffff1660e01b8152600401602060405180830381865afa1580156121ab573d6000803e3d6000fd5b90506126878183866001600160a01b0316631a90f1866040518163ffffffff1660e01b8152600401602060405180830381865afa158015612625573d6000803e3d6000fd5b505050506040513d601f19601f820116820180604052508101906126499190613602565b876001600160a01b0316638c3cba5a6040518163ffffffff1660e01b8152600401602060405180830381865afa15801561227a573d6000803e3d6000fd5b61150d9082613a1c565b8282028115158415858304851417166126a957600080fd5b6001826001830304018115150290509392505050565b6000611c248383670de0b6b3a7640000612691565b604051632f2e037160e11b81526001600160a01b0382811660048301526000918291851690635e5c06e290602401606060405180830381865afa15801561271f573d6000803e3d6000fd5b505050506040513d601f19601f82011682018060405250810190612743919061395a565b60405163023effef60e51b8152600481018290529093506001600160a01b03871692506347dffde09150602401602060405180830381865afa15801561278d573d6000803e3d6000fd5b505050506040513d601f19601f8201168201806040525081019061150d9190613602565b6040805160e0808252611c2082019092526060916000918291816020015b6127d76130d6565b8152602001906001900390816127cf575050602089901c9890915063ffffffff165b88156129e55760018916156129ca5760008060008a8a858f6040518363ffffffff1660e01b81526004016128409291909182526001600160a01b0316602082015260400190565b6040805180830381865afa15801561285c573d6000803e3d6000fd5b505050506040513d601f19601f82011682018060405250810190612880919061375a565b909250905061288f818361364e565b92506040518060400160405280838152602001828152508587815181106128b8576128b8613a2f565b602002602001015160400181905250505086868d84848f6040518563ffffffff1660e01b815260040161291494939291906001600160a01b03948516815260208101939093526040830191909152909116606082015260800190565b602060405180830381865afa92505050801561294d575060408051601f3d908101601f1916820190925261294a91810190613602565b60015b612979578083858151811061296457612964613a2f565b6020026020010151602001818152505061299e565b8084868151811061298c5761298c613a2f565b60200260200101516020018181525050505b818385815181106129b1576129b1613a2f565b6020908102919091010151526129c684613a45565b9350505b60019890981c976129de6224ea008261364e565b90506127f9565b8267ffffffffffffffff8111156129fe576129fe613661565b604051908082528060200260200182016040528015612a3757816020015b612a246130d6565b815260200190600190039081612a1c5790505b50935060005b83811015612a8d57828181518110612a5757612a57613a2f565b6020026020010151858281518110612a7157612a71613a2f565b602002602001018190525080612a8690613a45565b9050612a3d565b50505050979650505050505050565b604080518082019091526000808252602082015282516020840151600091612ad091612ac8908261364e565b859190612c66565b8085529050612adf8184613a1c565b6020850152509192915050565b6000612b196040518060800160405280600081526020016000815260200160008152602001600081525090565b604051634e7c505960e01b8152600481018590526001600160a01b03861690634e7c505990602401608060405180830381865afa158015612b5e573d6000803e3d6000fd5b505050506040513d601f19601f82011682018060405250810190612b8291906135cc565b6060850181905260408501919091526020840191909152908252612bc590612baa9042613a1c565b6060830151612bb99087613a1c565b60408401519190612c66565b81604001818151612bd69190613a1c565b91508181525050612c4b83866001600160a01b031663a1e8f02b6040518163ffffffff1660e01b8152600401602060405180830381865afa158015612c1f573d6000803e3d6000fd5b505050506040513d601f19601f82011682018060405250810190612c439190613602565b839190612f5c565b5095945050505050565b6000611c2483670de0b6b3a7640000845b828202811515841585830485141716612c7e57600080fd5b0492915050565b600080826001600160a01b0316631a90f1866040518163ffffffff1660e01b8152600401602060405180830381865afa158015612cc6573d6000803e3d6000fd5b505050506040513d601f19601f82011682018060405250810190612cea9190613602565b90506000836001600160a01b0316632e0af0086040518163ffffffff1660e01b8152600401602060405180830381865afa158015612d2c573d6000803e3d6000fd5b505050506040513d601f19601f82011682018060405250810190612d509190613602565b90506000808211612d62576000612d7d565b612d7d612d6f8484611c2d565b670de0b6b3a7640000612f46565b9050612f3d611449866001600160a01b0316636eb9ffeb6040518163ffffffff1660e01b8152600401602060405180830381865afa158015612dc3573d6000803e3d6000fd5b505050506040513d601f19601f82011682018060405250810190612de79190613b1e565b612df79063ffffffff1642613a1c565b6301e13380886001600160a01b031663f3fdb15a6040518163ffffffff1660e01b8152600401602060405180830381865afa158015612e3a573d6000803e3d6000fd5b505050506040513d601f19601f82011682018060405250810190612e5e919061361b565b6001600160a01b031663fdb9d1f08a6001600160a01b0316639bf5eb1a6040518163ffffffff1660e01b8152600401602060405180830381865afa158015612eaa573d6000803e3d6000fd5b505050506040513d601f19601f82011682018060405250810190612ece9190613602565b876040518363ffffffff1660e01b8152600401612ef5929190918252602082015260400190565b602060405180830381865afa158015612f12573d6000803e3d6000fd5b505050506040513d601f19601f82011682018060405250810190612f369190613602565b9190612c66565b95945050505050565b6000818310612f555781611c24565b5090919050565b6000806000612f6a86612faf565b90508015612fa657612f8b612f7f8683612f46565b60408801519083612c66565b9250612f978385611c0f565b9150612fa38284613a1c565b92505b50935093915050565b8051602082015160009190612fc48282612f46565b61150d9083613a1c565b604051806102c0016040528060006001600160a01b03168152602001600060ff16815260200160006001600160a01b03168152602001606081526020016130546040518060e0016040528060006001600160a01b031681526020016000815260200160008152602001600081526020016000815260200160008152602001600081525090565b8152602001600081526020016000815260200160008152602001600060ff1681526020016060815260200160008152602001600081526020016000815260200160008152602001600015158152602001600081526020016000815260200160008152602001600081526020016000815260200160608152602001606081525090565b6040518060600160405280600081526020016000815260200161310c604051806040016040528060008152602001600081525090565b905290565b6001600160a01b038116811461312657600080fd5b50565b60008060006060848603121561313e57600080fd5b833561314981613111565b95602085013595506040909401359392505050565b81518152602080830151908201526040808301519082015260608101611c27565b60006020828403121561319157600080fd5b813561319c81613111565b9392505050565b60005b838110156131be5781810151838201526020016131a6565b50506000910152565b600081518084526131df8160208601602086016131a3565b601f01601f19169290920160200192915050565b600081518084526020808501945080840160005b8381101561326c57815180518852838101518489015260408082015190890152606080820151908901526080808201519089015260a0808201519089015260c0808201519089015260e090810151908801526101009096019590820190600101613207565b509495945050505050565b600081518084526020808501945080840160005b8381101561326c57815180518852838101518489015260409081015180519189019190915283015160608801526080909601959082019060010161328b565b60006020808301818452808551808352604092508286019150828160051b87010184880160005b838110156134e657888303603f19018552815180516001600160a01b031684526103808189015160ff8116868b015250818801516001600160a01b038116868a015250606080830151828288015261334b838801826131c7565b925050506080808301516133a68288018280516001600160a01b031682526020808201519083015260408082015190830152606080820151908301526080808201519083015260a0818101519083015260c090810151910152565b505060a0820151610160818188015260c08401519150610180828189015260e085015192506101a083818a015261010086015193506101c06133ec818b018660ff169052565b61012087015194506101e08a8703818c015261340887876131f3565b9650610140880151955061020086818d0152858901519650610220955086868d0152848901519650610240945086858d0152838901519650610260935086848d01528289015196506102809250613462838d018815159052565b908801516102a08c810191909152908801516102c08c0152848801516102e08c0152838801516103008c0152828801516103208c0152818801518b88036103408d015295506134b18787613277565b96508088015197505050505050508481036103608601526134d28183613277565b9689019694505050908601906001016132f1565b509098975050505050505050565b6000806000806080858703121561350a57600080fd5b843561351581613111565b93506020850135925060408501359150606085013561353381613111565b939692955090935050565b6000806040838503121561355157600080fd5b823561355c81613111565b946020939093013593505050565b6020808252825182820181905260009190848201906040850190845b818110156135c0576135ad8385518051825260208082015190830152604090810151910152565b9284019260609290920191600101613586565b50909695505050505050565b600080600080608085870312156135e257600080fd5b505082516020840151604085015160609095015191969095509092509050565b60006020828403121561361457600080fd5b5051919050565b60006020828403121561362d57600080fd5b815161319c81613111565b634e487b7160e01b600052601160045260246000fd5b80820180821115611c2757611c27613638565b634e487b7160e01b600052604160045260246000fd5b604051601f8201601f1916810167ffffffffffffffff811182821017156136a0576136a0613661565b604052919050565b600060208083850312156136bb57600080fd5b825167ffffffffffffffff808211156136d357600080fd5b818501915085601f8301126136e757600080fd5b8151818111156136f9576136f9613661565b8060051b915061370a848301613677565b818152918301840191848101908884111561372457600080fd5b938501935b8385101561374e578451925061373e83613111565b8282529385019390850190613729565b98975050505050505050565b6000806040838503121561376d57600080fd5b505080516020909101519092909150565b805160ff8116811461378f57600080fd5b919050565b6000602082840312156137a657600080fd5b611c248261377e565b60ff8281168282160390811115611c2757611c27613638565b600181815b808511156138035781600019048211156137e9576137e9613638565b808516156137f657918102915b93841c93908002906137cd565b509250929050565b60008261381a57506001611c27565b8161382757506000611c27565b816001811461383d576002811461384757613863565b6001915050611c27565b60ff84111561385857613858613638565b50506001821b611c27565b5060208310610133831016604e8410600b8410161715613886575081810a611c27565b61389083836137c8565b80600019048211156138a4576138a4613638565b029392505050565b6000611c2460ff84168361380b565b8082028115828204841417611c2757611c27613638565b80516001600160801b038116811461378f57600080fd5b600080600080600060a0868803121561390157600080fd5b61390a866138d2565b94506139186020870161377e565b93506139266040870161377e565b92506060860151801515811461393b57600080fd5b608087015190925061394c81613111565b809150509295509295909350565b60008060006060848603121561396f57600080fd5b8351925060208401519150604084015190509250925092565b60006020828403121561399a57600080fd5b815167ffffffffffffffff808211156139b257600080fd5b818401915084601f8301126139c657600080fd5b8151818111156139d8576139d8613661565b6139eb601f8201601f1916602001613677565b9150808252856020828501011115613a0257600080fd5b613a138160208401602086016131a3565b50949350505050565b81810381811115611c2757611c27613638565b634e487b7160e01b600052603260045260246000fd5b600060018201613a5757613a57613638565b5060010190565b600082613a7b57634e487b7160e01b600052601260045260246000fd5b500690565b600060608284031215613a9257600080fd5b6040516060810181811067ffffffffffffffff82111715613ab557613ab5613661565b80604052508251815260208301516020820152604083015160408201528091505092915050565b600060208284031215613aee57600080fd5b611c24826138d2565b6001600160801b03828116828216039080821115613b1757613b17613638565b5092915050565b600060208284031215613b3057600080fd5b815163ffffffff8116811461319c57600080fdfea2646970667358221220b73e38ec452d3d08091bae7d5b032727535e5e1f2c69d6a824dbde085eb5a49264736f6c63430008110033",
  "devdoc": {
    "kind": "dev",
    "methods": {
      "constructor": {
        "custom:oz-upgrades-unsafe-allow": "constructor"
      },
      "exactly(address)": {
        "params": {
          "account": "address which the extended data will be calculated."
        },
        "returns": {
          "data": "extended accountability of all markets for the account."
        }
      },
      "previewBorrowAtAllMaturities(address,uint256)": {
        "params": {
          "assets": "amount of assets that will be borrowed.",
          "market": "address of the market."
        },
        "returns": {
          "previews": "array containing amount plus yield that account will receive after each maturity."
        }
      },
      "previewBorrowAtMaturity(address,uint256,uint256)": {
        "params": {
          "assets": "amount of assets that will be borrowed.",
          "market": "address of the market.",
          "maturity": "maturity date/pool where the assets will be borrowed."
        },
        "returns": {
          "_0": "positionAssets amount plus fees that the depositor will repay at maturity."
        }
      },
      "previewDepositAtAllMaturities(address,uint256)": {
        "params": {
          "assets": "amount of assets that will be deposited.",
          "market": "address of the market."
        },
        "returns": {
          "previews": "array containing amount plus yield that account will receive after each maturity."
        }
      },
      "previewDepositAtMaturity(address,uint256,uint256)": {
        "params": {
          "assets": "amount of assets that will be deposited.",
          "market": "address of the market.",
          "maturity": "maturity date/pool where the assets will be deposited."
        },
        "returns": {
          "_0": "amount plus yield that the depositor will receive after maturity."
        }
      },
      "previewRepayAtMaturity(address,uint256,uint256,address)": {
        "params": {
          "borrower": "address of the borrower.",
          "market": "address of the market.",
          "maturity": "maturity date/pool where the assets will be repaid.",
          "positionAssets": "amount of assets that will be subtracted from the position."
        },
        "returns": {
          "repayAssets": "amount of assets that will be repaid."
        }
      },
      "previewWithdrawAtMaturity(address,uint256,uint256,address)": {
        "params": {
          "market": "address of the market.",
          "maturity": "maturity date/pool where the assets will be withdrawn.",
          "positionAssets": "amount of assets that will be tried to withdraw."
        },
        "returns": {
          "withdrawAssets": "amount that will be withdrawn."
        }
      }
    },
    "stateVariables": {
      "auditor": {
        "custom:oz-upgrades-unsafe-allow": "state-variable-immutable"
      },
      "basePriceFeed": {
        "custom:oz-upgrades-unsafe-allow": "state-variable-immutable"
      }
    },
    "title": "Previewer",
    "version": 1
  },
  "userdoc": {
    "kind": "user",
    "methods": {
      "exactly(address)": {
        "notice": "Function to get a certain account extended data."
      },
      "previewBorrowAtAllMaturities(address,uint256)": {
        "notice": "Gets the assets plus fees offered by all VALID maturities when borrowing a certain amount."
      },
      "previewBorrowAtMaturity(address,uint256,uint256)": {
        "notice": "Gets the amount plus fees to be repaid at maturity when borrowing certain amount of assets."
      },
      "previewDepositAtAllMaturities(address,uint256)": {
        "notice": "Gets the assets plus yield offered by all VALID maturities when depositing a certain amount."
      },
      "previewDepositAtMaturity(address,uint256,uint256)": {
        "notice": "Gets the assets plus yield offered by a maturity when depositing a certain amount."
      },
      "previewRepayAtMaturity(address,uint256,uint256,address)": {
        "notice": "Gets the assets that will be repaid when repaying a certain amount at the current maturity."
      },
      "previewWithdrawAtMaturity(address,uint256,uint256,address)": {
        "notice": "Gets the amount to be withdrawn for a certain positionAmount of assets at maturity."
      }
    },
    "notice": "Contract to be consumed by Exactly's front-end dApp.",
    "version": 1
  },
  "storageLayout": {
    "storage": [],
    "types": null
  }
}