{
  "address": "0x1dfb97A5d7B6C7C4fBA0cAc2eB87Dd7d623EED05",
  "abi": [
    {
      "inputs": [
        {
          "internalType": "uint8",
          "name": "decimals_",
          "type": "uint8"
        },
        {
          "internalType": "int256",
          "name": "price_",
          "type": "int256"
        }
      ],
      "stateMutability": "nonpayable",
      "type": "constructor"
    },
    {
      "anonymous": false,
      "inputs": [
        {
          "indexed": true,
          "internalType": "int256",
          "name": "current",
          "type": "int256"
        },
        {
          "indexed": true,
          "internalType": "uint256",
          "name": "roundId",
          "type": "uint256"
        },
        {
          "indexed": false,
          "internalType": "uint256",
          "name": "timestamp",
          "type": "uint256"
        }
      ],
      "name": "AnswerUpdated",
      "type": "event"
    },
    {
      "inputs": [],
      "name": "decimals",
      "outputs": [
        {
          "internalType": "uint8",
          "name": "",
          "type": "uint8"
        }
      ],
      "stateMutability": "view",
      "type": "function"
    },
    {
      "inputs": [],
      "name": "latestAnswer",
      "outputs": [
        {
          "internalType": "int256",
          "name": "",
          "type": "int256"
        }
      ],
      "stateMutability": "view",
      "type": "function"
    },
    {
      "inputs": [],
      "name": "price",
      "outputs": [
        {
          "internalType": "int256",
          "name": "",
          "type": "int256"
        }
      ],
      "stateMutability": "view",
      "type": "function"
    },
    {
      "inputs": [
        {
          "internalType": "int256",
          "name": "price_",
          "type": "int256"
        }
      ],
      "name": "setPrice",
      "outputs": [],
      "stateMutability": "nonpayable",
      "type": "function"
    }
  ],
  "transactionHash": "0x9b5ca4c2f5c41da40780d1d282d0234b0b1c8cd7a32675d74c1e3b07f15ab813",
  "args": [
    8,
    "100000000"
  ],
  "numDeployments": 1,
  "solcInputHash": "07ca1e4777c061c17943e3eeedc4f9fa",
  "bytecode": "0x60a060405234801561001057600080fd5b5060405161021c38038061021c83398101604081905261002f91610083565b60ff821660805261003f81610046565b50506100b7565b600081815560405142815282907f0559884fd3a460db3073b7fc896cc77986f16e378210ded43186175bf646fc5f9060200160405180910390a350565b6000806040838503121561009657600080fd5b825160ff811681146100a757600080fd5b6020939093015192949293505050565b60805161014b6100d160003960006056015261014b6000f3fe608060405234801561001057600080fd5b506004361061004c5760003560e01c8063313ce5671461005157806350d25bcd1461008f578063a035b1fe146100a1578063f7a30806146100aa575b600080fd5b6100787f000000000000000000000000000000000000000000000000000000000000000081565b60405160ff90911681526020015b60405180910390f35b6000545b604051908152602001610086565b61009360005481565b6100bd6100b83660046100fc565b6100bf565b005b600081815560405142815282907f0559884fd3a460db3073b7fc896cc77986f16e378210ded43186175bf646fc5f9060200160405180910390a350565b60006020828403121561010e57600080fd5b503591905056fea2646970667358221220930d427254ff65dcf706a1464b15cba0450aaec0a9955468b491ff7023d5955264736f6c63430008110033",
  "devdoc": {
    "kind": "dev",
    "methods": {},
    "version": 1
  },
  "userdoc": {
    "kind": "user",
    "methods": {},
    "version": 1
  },
  "storageLayout": {
    "storage": [
      {
        "astId": 19587,
        "contract": "contracts/mocks/MockPriceFeed.sol:MockPriceFeed",
        "label": "price",
        "offset": 0,
        "slot": "0",
        "type": "t_int256"
      }
    ],
    "types": {
      "t_int256": {
        "encoding": "inplace",
        "label": "int256",
        "numberOfBytes": "32"
      }
    }
  }
}