{
  "address": "0x24a48D2d213Fae48C13158247D418F3E5D715021",
  "abi": [
    {
      "inputs": [
        {
          "internalType": "contract IPriceFeed",
          "name": "mainPriceFeed_",
          "type": "address"
        },
        {
          "internalType": "address",
          "name": "wrapper_",
          "type": "address"
        },
        {
          "internalType": "bytes4",
          "name": "conversionSelector_",
          "type": "bytes4"
        },
        {
          "internalType": "uint256",
          "name": "baseUnit_",
          "type": "uint256"
        }
      ],
      "stateMutability": "nonpayable",
      "type": "constructor"
    },
    {
      "inputs": [],
      "name": "baseUnit",
      "outputs": [
        {
          "internalType": "uint256",
          "name": "",
          "type": "uint256"
        }
      ],
      "stateMutability": "view",
      "type": "function"
    },
    {
      "inputs": [],
      "name": "conversionSelector",
      "outputs": [
        {
          "internalType": "bytes4",
          "name": "",
          "type": "bytes4"
        }
      ],
      "stateMutability": "view",
      "type": "function"
    },
    {
      "inputs": [],
      "name": "decimals",
      "outputs": [
        {
          "internalType": "uint8",
          "name": "",
          "type": "uint8"
        }
      ],
      "stateMutability": "view",
      "type": "function"
    },
    {
      "inputs": [],
      "name": "latestAnswer",
      "outputs": [
        {
          "internalType": "int256",
          "name": "",
          "type": "int256"
        }
      ],
      "stateMutability": "view",
      "type": "function"
    },
    {
      "inputs": [],
      "name": "mainPriceFeed",
      "outputs": [
        {
          "internalType": "contract IPriceFeed",
          "name": "",
          "type": "address"
        }
      ],
      "stateMutability": "view",
      "type": "function"
    },
    {
      "inputs": [],
      "name": "wrapper",
      "outputs": [
        {
          "internalType": "address",
          "name": "",
          "type": "address"
        }
      ],
      "stateMutability": "view",
      "type": "function"
    }
  ],
  "transactionHash": "0xbb735442f38baab6af83e53f0ca2c27b2e5f3e75dbda28c3af36e231dcb46c2d",
  "args": [
    "0xD4a33860578De61DBAbDc8BFdb98FD742fA7028e",
    "0x1643E812aE58766192Cf7D2Cf9567dF2C37e9B7F",
    "0x7a28fb88",
    "1000000000000000000"
  ],
  "numDeployments": 3,
  "solcInputHash": "caf04502d09415a51d794c069d7c8705",
  "bytecode": "0x61012060405234801561001157600080fd5b506040516105c83803806105c8833981016040819052610030916100e1565b6001600160a01b03841660808190526040805163313ce56760e01b8152905163313ce567916004808201926020929091908290030181865afa15801561007a573d6000803e3d6000fd5b505050506040513d601f19601f8201168201806040525081019061009e9190610141565b60ff1660a0526001600160a01b0390921660c0526001600160e01b03191660e052610100525061016b565b6001600160a01b03811681146100de57600080fd5b50565b600080600080608085870312156100f757600080fd5b8451610102816100c9565b6020860151909450610113816100c9565b60408601519093506001600160e01b03198116811461013157600080fd5b6060959095015193969295505050565b60006020828403121561015357600080fd5b815160ff8116811461016457600080fd5b9392505050565b60805160a05160c05160e051610100516103f96101cf600039600081816101660152818161025e0152610330015260008181610126015261023d01526000818160ff015261021301526000606c01526000818160c0015261018d01526103f96000f3fe608060405234801561001057600080fd5b50600436106100625760003560e01c8063313ce5671461006757806350d25bcd146100a5578063a066c607146100bb578063ac210cc7146100fa578063b082ff3514610121578063c2930f9114610161575b600080fd5b61008e7f000000000000000000000000000000000000000000000000000000000000000081565b60405160ff90911681526020015b60405180910390f35b6100ad610188565b60405190815260200161009c565b6100e27f000000000000000000000000000000000000000000000000000000000000000081565b6040516001600160a01b03909116815260200161009c565b6100e27f000000000000000000000000000000000000000000000000000000000000000081565b6101487f000000000000000000000000000000000000000000000000000000000000000081565b6040516001600160e01b0319909116815260200161009c565b6100ad7f000000000000000000000000000000000000000000000000000000000000000081565b6000807f00000000000000000000000000000000000000000000000000000000000000006001600160a01b03166350d25bcd6040518163ffffffff1660e01b8152600401602060405180830381865afa1580156101e9573d6000803e3d6000fd5b505050506040513d601f19601f8201168201806040525081019061020d919061037b565b905060007f00000000000000000000000000000000000000000000000000000000000000006001600160a01b03167f00000000000000000000000000000000000000000000000000000000000000007f000000000000000000000000000000000000000000000000000000000000000060405160240161028f91815260200190565b60408051601f198184030181529181526020820180516001600160e01b03166001600160e01b03199094169390931790925290516102cd9190610394565b600060405180830381855afa9150503d8060008114610308576040519150601f19603f3d011682016040523d82523d6000602084013e61030d565b606091505b50915050600081806020019051810190610327919061037b565b905061035483827f000000000000000000000000000000000000000000000000000000000000000061035c565b935050505090565b82820281151584158583048514171661037457600080fd5b0492915050565b60006020828403121561038d57600080fd5b5051919050565b6000825160005b818110156103b5576020818601810151858301520161039b565b50600092019182525091905056fea26469706673582212209d53efccf1435aff650494a2cb8585fb36de37b0dac441811f27d7b851b1c10a64736f6c63430008110033",
  "devdoc": {
    "kind": "dev",
    "methods": {},
    "version": 1
  },
  "userdoc": {
    "kind": "user",
    "methods": {
      "baseUnit()": {
        "notice": "Base units that are sent to the conversion function to get the asset rate."
      },
      "conversionSelector()": {
        "notice": "Function selector of the wrapper contract where the asset rate is fetched from."
      },
      "decimals()": {
        "notice": "Number of decimals that the answer of this price feed has."
      },
      "latestAnswer()": {
        "notice": "Returns the price feed's latest value considering the wrapped asset's rate."
      },
      "mainPriceFeed()": {
        "notice": "Main price feed where the price is fetched from."
      },
      "wrapper()": {
        "notice": "Address of the wrapper contract where the asset rate is fetched from."
      }
    },
    "version": 1
  },
  "storageLayout": {
    "storage": [],
    "types": null
  }
}