{
  "address": "0xe3Fb38B0Ba8b7011CA2D263CA5e79759554863a4",
  "abi": [
    {
      "inputs": [],
      "stateMutability": "nonpayable",
      "type": "constructor"
    },
    {
      "inputs": [],
      "name": "IndexOverflow",
      "type": "error"
    },
    {
      "inputs": [],
      "name": "InvalidConfig",
      "type": "error"
    },
    {
      "anonymous": false,
      "inputs": [
        {
          "indexed": true,
          "internalType": "contract Market",
          "name": "market",
          "type": "address"
        },
        {
          "indexed": true,
          "internalType": "contract ERC20",
          "name": "reward",
          "type": "address"
        },
        {
          "indexed": true,
          "internalType": "address",
          "name": "account",
          "type": "address"
        },
        {
          "indexed": false,
          "internalType": "bool",
          "name": "operation",
          "type": "bool"
        },
        {
          "indexed": false,
          "internalType": "uint256",
          "name": "accountIndex",
          "type": "uint256"
        },
        {
          "indexed": false,
          "internalType": "uint256",
          "name": "operationIndex",
          "type": "uint256"
        },
        {
          "indexed": false,
          "internalType": "uint256",
          "name": "rewardsAccrued",
          "type": "uint256"
        }
      ],
      "name": "Accrue",
      "type": "event"
    },
    {
      "anonymous": false,
      "inputs": [
        {
          "indexed": true,
          "internalType": "address",
          "name": "account",
          "type": "address"
        },
        {
          "indexed": true,
          "internalType": "contract ERC20",
          "name": "reward",
          "type": "address"
        },
        {
          "indexed": true,
          "internalType": "address",
          "name": "to",
          "type": "address"
        },
        {
          "indexed": false,
          "internalType": "uint256",
          "name": "amount",
          "type": "uint256"
        }
      ],
      "name": "Claim",
      "type": "event"
    },
    {
      "anonymous": false,
      "inputs": [
        {
          "indexed": true,
          "internalType": "contract Market",
          "name": "market",
          "type": "address"
        },
        {
          "indexed": true,
          "internalType": "contract ERC20",
          "name": "reward",
          "type": "address"
        },
        {
          "components": [
            {
              "internalType": "contract Market",
              "name": "market",
              "type": "address"
            },
            {
              "internalType": "contract ERC20",
              "name": "reward",
              "type": "address"
            },
            {
              "internalType": "contract IPriceFeed",
              "name": "priceFeed",
              "type": "address"
            },
            {
              "internalType": "uint32",
              "name": "start",
              "type": "uint32"
            },
            {
              "internalType": "uint256",
              "name": "distributionPeriod",
              "type": "uint256"
            },
            {
              "internalType": "uint256",
              "name": "targetDebt",
              "type": "uint256"
            },
            {
              "internalType": "uint256",
              "name": "totalDistribution",
              "type": "uint256"
            },
            {
              "internalType": "uint256",
              "name": "undistributedFactor",
              "type": "uint256"
            },
            {
              "internalType": "int128",
              "name": "flipSpeed",
              "type": "int128"
            },
            {
              "internalType": "uint64",
              "name": "compensationFactor",
              "type": "uint64"
            },
            {
              "internalType": "uint64",
              "name": "transitionFactor",
              "type": "uint64"
            },
            {
              "internalType": "uint64",
              "name": "borrowAllocationWeightFactor",
              "type": "uint64"
            },
            {
              "internalType": "uint64",
              "name": "depositAllocationWeightAddend",
              "type": "uint64"
            },
            {
              "internalType": "uint64",
              "name": "depositAllocationWeightFactor",
              "type": "uint64"
            }
          ],
          "indexed": false,
          "internalType": "struct RewardsController.Config",
          "name": "config",
          "type": "tuple"
        }
      ],
      "name": "DistributionSet",
      "type": "event"
    },
    {
      "anonymous": false,
      "inputs": [
        {
          "indexed": true,
          "internalType": "contract Market",
          "name": "market",
          "type": "address"
        },
        {
          "indexed": true,
          "internalType": "contract ERC20",
          "name": "reward",
          "type": "address"
        },
        {
          "indexed": false,
          "internalType": "uint256",
          "name": "borrowIndex",
          "type": "uint256"
        },
        {
          "indexed": false,
          "internalType": "uint256",
          "name": "depositIndex",
          "type": "uint256"
        },
        {
          "indexed": false,
          "internalType": "uint256",
          "name": "newUndistributed",
          "type": "uint256"
        },
        {
          "indexed": false,
          "internalType": "uint256",
          "name": "lastUpdate",
          "type": "uint256"
        }
      ],
      "name": "IndexUpdate",
      "type": "event"
    },
    {
      "anonymous": false,
      "inputs": [
        {
          "indexed": false,
          "internalType": "uint8",
          "name": "version",
          "type": "uint8"
        }
      ],
      "name": "Initialized",
      "type": "event"
    },
    {
      "anonymous": false,
      "inputs": [
        {
          "indexed": true,
          "internalType": "bytes32",
          "name": "role",
          "type": "bytes32"
        },
        {
          "indexed": true,
          "internalType": "bytes32",
          "name": "previousAdminRole",
          "type": "bytes32"
        },
        {
          "indexed": true,
          "internalType": "bytes32",
          "name": "newAdminRole",
          "type": "bytes32"
        }
      ],
      "name": "RoleAdminChanged",
      "type": "event"
    },
    {
      "anonymous": false,
      "inputs": [
        {
          "indexed": true,
          "internalType": "bytes32",
          "name": "role",
          "type": "bytes32"
        },
        {
          "indexed": true,
          "internalType": "address",
          "name": "account",
          "type": "address"
        },
        {
          "indexed": true,
          "internalType": "address",
          "name": "sender",
          "type": "address"
        }
      ],
      "name": "RoleGranted",
      "type": "event"
    },
    {
      "anonymous": false,
      "inputs": [
        {
          "indexed": true,
          "internalType": "bytes32",
          "name": "role",
          "type": "bytes32"
        },
        {
          "indexed": true,
          "internalType": "address",
          "name": "account",
          "type": "address"
        },
        {
          "indexed": true,
          "internalType": "address",
          "name": "sender",
          "type": "address"
        }
      ],
      "name": "RoleRevoked",
      "type": "event"
    },
    {
      "inputs": [],
      "name": "DEFAULT_ADMIN_ROLE",
      "outputs": [
        {
          "internalType": "bytes32",
          "name": "",
          "type": "bytes32"
        }
      ],
      "stateMutability": "view",
      "type": "function"
    },
    {
      "inputs": [],
      "name": "UTILIZATION_CAP",
      "outputs": [
        {
          "internalType": "uint256",
          "name": "",
          "type": "uint256"
        }
      ],
      "stateMutability": "view",
      "type": "function"
    },
    {
      "inputs": [
        {
          "internalType": "address",
          "name": "account",
          "type": "address"
        },
        {
          "internalType": "contract Market",
          "name": "market",
          "type": "address"
        },
        {
          "internalType": "bool",
          "name": "operation",
          "type": "bool"
        },
        {
          "internalType": "contract ERC20",
          "name": "reward",
          "type": "address"
        }
      ],
      "name": "accountOperation",
      "outputs": [
        {
          "internalType": "uint256",
          "name": "",
          "type": "uint256"
        },
        {
          "internalType": "uint256",
          "name": "",
          "type": "uint256"
        }
      ],
      "stateMutability": "view",
      "type": "function"
    },
    {
      "inputs": [
        {
          "internalType": "address",
          "name": "account",
          "type": "address"
        },
        {
          "internalType": "contract ERC20",
          "name": "reward",
          "type": "address"
        }
      ],
      "name": "allClaimable",
      "outputs": [
        {
          "internalType": "uint256",
          "name": "unclaimedRewards",
          "type": "uint256"
        }
      ],
      "stateMutability": "view",
      "type": "function"
    },
    {
      "inputs": [],
      "name": "allMarketsOperations",
      "outputs": [
        {
          "components": [
            {
              "internalType": "contract Market",
              "name": "market",
              "type": "address"
            },
            {
              "internalType": "bool[]",
              "name": "operations",
              "type": "bool[]"
            }
          ],
          "internalType": "struct RewardsController.MarketOperation[]",
          "name": "marketOps",
          "type": "tuple[]"
        }
      ],
      "stateMutability": "view",
      "type": "function"
    },
    {
      "inputs": [],
      "name": "allRewards",
      "outputs": [
        {
          "internalType": "contract ERC20[]",
          "name": "",
          "type": "address[]"
        }
      ],
      "stateMutability": "view",
      "type": "function"
    },
    {
      "inputs": [
        {
          "internalType": "contract Market",
          "name": "market",
          "type": "address"
        }
      ],
      "name": "availableRewardsCount",
      "outputs": [
        {
          "internalType": "uint256",
          "name": "",
          "type": "uint256"
        }
      ],
      "stateMutability": "view",
      "type": "function"
    },
    {
      "inputs": [
        {
          "components": [
            {
              "internalType": "contract Market",
              "name": "market",
              "type": "address"
            },
            {
              "internalType": "bool[]",
              "name": "operations",
              "type": "bool[]"
            }
          ],
          "internalType": "struct RewardsController.MarketOperation[]",
          "name": "marketOps",
          "type": "tuple[]"
        },
        {
          "internalType": "address",
          "name": "to",
          "type": "address"
        },
        {
          "internalType": "contract ERC20[]",
          "name": "rewardsList",
          "type": "address[]"
        }
      ],
      "name": "claim",
      "outputs": [
        {
          "internalType": "contract ERC20[]",
          "name": "",
          "type": "address[]"
        },
        {
          "internalType": "uint256[]",
          "name": "claimedAmounts",
          "type": "uint256[]"
        }
      ],
      "stateMutability": "nonpayable",
      "type": "function"
    },
    {
      "inputs": [
        {
          "internalType": "address",
          "name": "to",
          "type": "address"
        }
      ],
      "name": "claimAll",
      "outputs": [
        {
          "internalType": "contract ERC20[]",
          "name": "rewardsList",
          "type": "address[]"
        },
        {
          "internalType": "uint256[]",
          "name": "claimedAmounts",
          "type": "uint256[]"
        }
      ],
      "stateMutability": "nonpayable",
      "type": "function"
    },
    {
      "inputs": [
        {
          "components": [
            {
              "internalType": "contract Market",
              "name": "market",
              "type": "address"
            },
            {
              "internalType": "bool[]",
              "name": "operations",
              "type": "bool[]"
            }
          ],
          "internalType": "struct RewardsController.MarketOperation[]",
          "name": "marketOps",
          "type": "tuple[]"
        },
        {
          "internalType": "address",
          "name": "account",
          "type": "address"
        },
        {
          "internalType": "contract ERC20",
          "name": "reward",
          "type": "address"
        }
      ],
      "name": "claimable",
      "outputs": [
        {
          "internalType": "uint256",
          "name": "unclaimedRewards",
          "type": "uint256"
        }
      ],
      "stateMutability": "view",
      "type": "function"
    },
    {
      "inputs": [
        {
          "components": [
            {
              "internalType": "contract Market",
              "name": "market",
              "type": "address"
            },
            {
              "internalType": "contract ERC20",
              "name": "reward",
              "type": "address"
            },
            {
              "internalType": "contract IPriceFeed",
              "name": "priceFeed",
              "type": "address"
            },
            {
              "internalType": "uint32",
              "name": "start",
              "type": "uint32"
            },
            {
              "internalType": "uint256",
              "name": "distributionPeriod",
              "type": "uint256"
            },
            {
              "internalType": "uint256",
              "name": "targetDebt",
              "type": "uint256"
            },
            {
              "internalType": "uint256",
              "name": "totalDistribution",
              "type": "uint256"
            },
            {
              "internalType": "uint256",
              "name": "undistributedFactor",
              "type": "uint256"
            },
            {
              "internalType": "int128",
              "name": "flipSpeed",
              "type": "int128"
            },
            {
              "internalType": "uint64",
              "name": "compensationFactor",
              "type": "uint64"
            },
            {
              "internalType": "uint64",
              "name": "transitionFactor",
              "type": "uint64"
            },
            {
              "internalType": "uint64",
              "name": "borrowAllocationWeightFactor",
              "type": "uint64"
            },
            {
              "internalType": "uint64",
              "name": "depositAllocationWeightAddend",
              "type": "uint64"
            },
            {
              "internalType": "uint64",
              "name": "depositAllocationWeightFactor",
              "type": "uint64"
            }
          ],
          "internalType": "struct RewardsController.Config[]",
          "name": "configs",
          "type": "tuple[]"
        }
      ],
      "name": "config",
      "outputs": [],
      "stateMutability": "nonpayable",
      "type": "function"
    },
    {
      "inputs": [
        {
          "internalType": "contract Market",
          "name": "",
          "type": "address"
        }
      ],
      "name": "distribution",
      "outputs": [
        {
          "internalType": "uint8",
          "name": "availableRewardsCount",
          "type": "uint8"
        },
        {
          "internalType": "uint256",
          "name": "baseUnit",
          "type": "uint256"
        }
      ],
      "stateMutability": "view",
      "type": "function"
    },
    {
      "inputs": [
        {
          "internalType": "contract Market",
          "name": "market",
          "type": "address"
        },
        {
          "internalType": "contract ERC20",
          "name": "reward",
          "type": "address"
        }
      ],
      "name": "distributionTime",
      "outputs": [
        {
          "internalType": "uint32",
          "name": "",
          "type": "uint32"
        },
        {
          "internalType": "uint32",
          "name": "",
          "type": "uint32"
        },
        {
          "internalType": "uint32",
          "name": "",
          "type": "uint32"
        }
      ],
      "stateMutability": "view",
      "type": "function"
    },
    {
      "inputs": [
        {
          "internalType": "bytes32",
          "name": "role",
          "type": "bytes32"
        }
      ],
      "name": "getRoleAdmin",
      "outputs": [
        {
          "internalType": "bytes32",
          "name": "",
          "type": "bytes32"
        }
      ],
      "stateMutability": "view",
      "type": "function"
    },
    {
      "inputs": [
        {
          "internalType": "bytes32",
          "name": "role",
          "type": "bytes32"
        },
        {
          "internalType": "address",
          "name": "account",
          "type": "address"
        }
      ],
      "name": "grantRole",
      "outputs": [],
      "stateMutability": "nonpayable",
      "type": "function"
    },
    {
      "inputs": [
        {
          "internalType": "address",
          "name": "account",
          "type": "address"
        }
      ],
      "name": "handleBorrow",
      "outputs": [],
      "stateMutability": "nonpayable",
      "type": "function"
    },
    {
      "inputs": [
        {
          "internalType": "address",
          "name": "account",
          "type": "address"
        }
      ],
      "name": "handleDeposit",
      "outputs": [],
      "stateMutability": "nonpayable",
      "type": "function"
    },
    {
      "inputs": [
        {
          "internalType": "bytes32",
          "name": "role",
          "type": "bytes32"
        },
        {
          "internalType": "address",
          "name": "account",
          "type": "address"
        }
      ],
      "name": "hasRole",
      "outputs": [
        {
          "internalType": "bool",
          "name": "",
          "type": "bool"
        }
      ],
      "stateMutability": "view",
      "type": "function"
    },
    {
      "inputs": [],
      "name": "initialize",
      "outputs": [],
      "stateMutability": "nonpayable",
      "type": "function"
    },
    {
      "inputs": [
        {
          "internalType": "uint256",
          "name": "",
          "type": "uint256"
        }
      ],
      "name": "marketList",
      "outputs": [
        {
          "internalType": "contract Market",
          "name": "",
          "type": "address"
        }
      ],
      "stateMutability": "view",
      "type": "function"
    },
    {
      "inputs": [
        {
          "internalType": "contract Market",
          "name": "market",
          "type": "address"
        },
        {
          "internalType": "contract ERC20",
          "name": "reward",
          "type": "address"
        },
        {
          "internalType": "uint256",
          "name": "deltaTime",
          "type": "uint256"
        }
      ],
      "name": "previewAllocation",
      "outputs": [
        {
          "internalType": "uint256",
          "name": "borrowIndex",
          "type": "uint256"
        },
        {
          "internalType": "uint256",
          "name": "depositIndex",
          "type": "uint256"
        },
        {
          "internalType": "uint256",
          "name": "newUndistributed",
          "type": "uint256"
        }
      ],
      "stateMutability": "view",
      "type": "function"
    },
    {
      "inputs": [
        {
          "internalType": "bytes32",
          "name": "role",
          "type": "bytes32"
        },
        {
          "internalType": "address",
          "name": "account",
          "type": "address"
        }
      ],
      "name": "renounceRole",
      "outputs": [],
      "stateMutability": "nonpayable",
      "type": "function"
    },
    {
      "inputs": [
        {
          "internalType": "bytes32",
          "name": "role",
          "type": "bytes32"
        },
        {
          "internalType": "address",
          "name": "account",
          "type": "address"
        }
      ],
      "name": "revokeRole",
      "outputs": [],
      "stateMutability": "nonpayable",
      "type": "function"
    },
    {
      "inputs": [
        {
          "internalType": "contract Market",
          "name": "market",
          "type": "address"
        },
        {
          "internalType": "contract ERC20",
          "name": "reward",
          "type": "address"
        }
      ],
      "name": "rewardConfig",
      "outputs": [
        {
          "components": [
            {
              "internalType": "contract Market",
              "name": "market",
              "type": "address"
            },
            {
              "internalType": "contract ERC20",
              "name": "reward",
              "type": "address"
            },
            {
              "internalType": "contract IPriceFeed",
              "name": "priceFeed",
              "type": "address"
            },
            {
              "internalType": "uint32",
              "name": "start",
              "type": "uint32"
            },
            {
              "internalType": "uint256",
              "name": "distributionPeriod",
              "type": "uint256"
            },
            {
              "internalType": "uint256",
              "name": "targetDebt",
              "type": "uint256"
            },
            {
              "internalType": "uint256",
              "name": "totalDistribution",
              "type": "uint256"
            },
            {
              "internalType": "uint256",
              "name": "undistributedFactor",
              "type": "uint256"
            },
            {
              "internalType": "int128",
              "name": "flipSpeed",
              "type": "int128"
            },
            {
              "internalType": "uint64",
              "name": "compensationFactor",
              "type": "uint64"
            },
            {
              "internalType": "uint64",
              "name": "transitionFactor",
              "type": "uint64"
            },
            {
              "internalType": "uint64",
              "name": "borrowAllocationWeightFactor",
              "type": "uint64"
            },
            {
              "internalType": "uint64",
              "name": "depositAllocationWeightAddend",
              "type": "uint64"
            },
            {
              "internalType": "uint64",
              "name": "depositAllocationWeightFactor",
              "type": "uint64"
            }
          ],
          "internalType": "struct RewardsController.Config",
          "name": "",
          "type": "tuple"
        }
      ],
      "stateMutability": "view",
      "type": "function"
    },
    {
      "inputs": [
        {
          "internalType": "contract ERC20",
          "name": "",
          "type": "address"
        }
      ],
      "name": "rewardEnabled",
      "outputs": [
        {
          "internalType": "bool",
          "name": "",
          "type": "bool"
        }
      ],
      "stateMutability": "view",
      "type": "function"
    },
    {
      "inputs": [
        {
          "internalType": "contract Market",
          "name": "market",
          "type": "address"
        },
        {
          "internalType": "contract ERC20",
          "name": "reward",
          "type": "address"
        }
      ],
      "name": "rewardIndexes",
      "outputs": [
        {
          "internalType": "uint256",
          "name": "",
          "type": "uint256"
        },
        {
          "internalType": "uint256",
          "name": "",
          "type": "uint256"
        },
        {
          "internalType": "uint256",
          "name": "",
          "type": "uint256"
        }
      ],
      "stateMutability": "view",
      "type": "function"
    },
    {
      "inputs": [
        {
          "internalType": "uint256",
          "name": "",
          "type": "uint256"
        }
      ],
      "name": "rewardList",
      "outputs": [
        {
          "internalType": "contract ERC20",
          "name": "",
          "type": "address"
        }
      ],
      "stateMutability": "view",
      "type": "function"
    },
    {
      "inputs": [
        {
          "internalType": "bytes4",
          "name": "interfaceId",
          "type": "bytes4"
        }
      ],
      "name": "supportsInterface",
      "outputs": [
        {
          "internalType": "bool",
          "name": "",
          "type": "bool"
        }
      ],
      "stateMutability": "view",
      "type": "function"
    },
    {
      "inputs": [
        {
          "internalType": "contract ERC20",
          "name": "asset",
          "type": "address"
        },
        {
          "internalType": "address",
          "name": "to",
          "type": "address"
        }
      ],
      "name": "withdraw",
      "outputs": [],
      "stateMutability": "nonpayable",
      "type": "function"
    }
  ],
  "transactionHash": "0x262387c2d3374ef32f2b7ab8a37b2abd37fc25a26c95e85de313a84dc021a4fc",
  "args": [],
  "numDeployments": 2,
  "solcInputHash": "85c8bc749730c336d6cf31aaa3d211b2",
  "bytecode": "0x60806040523480156200001157600080fd5b506200001c62000022565b6200008d565b600054610100900460ff16156200003857600080fd5b60005460ff90811610156200008b576000805460ff191660ff9081179091556040519081527f7f26b83ff96e1f2b6a682f133852f6798a09c465da95921460cefb38474024989060200160405180910390a15b565b614c91806200009d6000396000f3fe608060405234801561001057600080fd5b50600436106101cf5760003560e01c80638acbf3de11610104578063d219f395116100a2578063e9c50ff711610071578063e9c50ff71461057c578063f2426f9a1461059f578063f940e385146105bf578063fc196068146105d257600080fd5b8063d219f39514610534578063d547741f14610547578063d681afb51461055a578063de7ea7c61461056957600080fd5b8063a361654a116100de578063a361654a14610492578063b658e673146104a7578063b7eec413146104d6578063c2db09c1146104eb57600080fd5b80638acbf3de1461046457806391d1485414610477578063a217fddf1461048a57600080fd5b806336568abe116101715780635684aa461161014b5780635684aa46146103a75780636c912dad1461042857806377329f351461043b5780638129fc1c1461045c57600080fd5b806336568abe1461030e578063382e85ad1461032157806344e250f81461033457600080fd5b8063232b956c116101ad578063232b956c1461023c578063248a9ca31461024f578063249e6d9c146102805780632f2ff15d146102fb57600080fd5b80630149e46f146101d457806301ffc9a7146101e957806310d6667714610211575b600080fd5b6101e76101e2366004613fcd565b6105e5565b005b6101fc6101f7366004613fea565b61074d565b60405190151581526020015b60405180910390f35b61022461021f366004614014565b610784565b6040516001600160a01b039091168152602001610208565b61022461024a366004614014565b6107ae565b61027261025d366004614014565b60009081526065602052604090206001015490565b604051908152602001610208565b6102e661028e36600461404d565b6001600160a01b0392831660009081526097602090815260408083209386168352928152828220959094168152600b9094018352808420911515845291529020546001600160801b03600160801b8204811692911690565b60408051928352602083019190915201610208565b6101e76103093660046140a7565b6107be565b6101e761031c3660046140a7565b6107e8565b61027261032f3660046142c5565b61080b565b61038c610342366004614328565b6001600160a01b039182166000908152609760209081526040808320939094168252919091522060078101546004909101546001600160801b0380831693600160801b9093041691565b60408051938452602084019290925290820152606001610208565b6104016103b5366004614328565b6001600160a01b03918216600090815260976020908152604080832093909416825291909152206008015463ffffffff808216926401000000008304821692600160401b900490911690565b6040805163ffffffff94851681529284166020840152921691810191909152606001610208565b6101e7610436366004613fcd565b610a5c565b61044e610449366004613fcd565b610bf5565b60405161020892919061439a565b6101e7610c6d565b610272610472366004614328565b610d2f565b6101fc6104853660046140a7565b610d4a565b610272600081565b61049a610d75565b60405161020891906143e4565b6102726104b5366004613fcd565b6001600160a01b031660009081526097602052604090206002015460ff1690565b6104de610f15565b604051610208919061448f565b61051b6104f9366004613fcd565b6097602052600090815260409020600281015460039091015460ff9091169082565b6040805160ff9093168352602083019190915201610208565b61044e6105423660046144a2565b610f77565b6101e76105553660046140a7565b611443565b610272670de0b6b3a763ffff81565b6101e76105773660046145b4565b611468565b6101fc61058a366004613fcd565b60986020526000908152604090205460ff1681565b6105b26105ad366004614328565b61211d565b604051610208919061472c565b6101e76105cd366004614328565b61228d565b61038c6105e036600461481e565b612317565b604080516001808252818301909252339160009190816020015b60408051808201909152600080825260208201528152602001906001900390816105ff579050506040805180820182526000815290516370a0823160e01b81526001600160a01b03868116600483015292935090916020830191908516906370a0823190602401602060405180830381865afa158015610683573d6000803e3d6000fd5b505050506040513d601f19601f820116820180604052508101906106a7919061485f565b815250816000815181106106bd576106bd614878565b6020908102919091018101919091526001600160a01b03831660009081526097909152604081206002015460ff16905b81816001600160801b03161015610746576001600160a01b0380851660009081526097602090815260408083206001600160801b038616845260010190915290205461073e9187918791168661235d565b6001016106ed565b5050505050565b60006001600160e01b03198216637965db0b60e01b148061077e57506301ffc9a760e01b6001600160e01b03198316145b92915050565b6099818154811061079457600080fd5b6000918252602090912001546001600160a01b0316905081565b609a818154811061079457600080fd5b6000828152606560205260409020600101546107d981612765565b6107e3838361276f565b505050565b6001600160a01b03811633146107fd57600080fd5b61080782826127f5565b5050565b6000805b8451811015610a54576097600086838151811061082e5761082e614878565b602090810291909101810151516001600160a01b0316825281019190915260400160009081206002015460ff1690036108695760010161080f565b600061090586838151811061088057610880614878565b60200260200101516000015187848151811061089e5761089e614878565b60200260200101516020015187609760008b88815181106108c1576108c1614878565b602090810291909101810151516001600160a01b0390811683528282019390935260409182016000908120938c16815292905290206008015463ffffffff1661285c565b90506000805b82518110156109f1576097600089868151811061092a5761092a614878565b602090810291909101810151516001600160a01b03908116835282820193909352604091820160009081208a851682528252828120938b168152600b90930190528120845190919085908490811061098457610984614878565b6020908102919091018101515115158252810191909152604001600020546109bc90600160801b90046001600160801b0316866148a4565b94508281815181106109d0576109d0614878565b602002602001015160200151826109e791906148a4565b915060010161090b565b508015610a4a57610a3d868660405180604001604052808b8881518110610a1a57610a1a614878565b6020026020010151600001516001600160a01b0316815260200186815250612a9d565b610a4790856148a4565b93505b505060010161080f565b509392505050565b604080516001808252818301909252339160009190816020015b6040805180820190915260008082526020820152815260200190600190039081610a7657905050604051632f2e037160e11b81526001600160a01b038581166004830152919250600091841690635e5c06e290602401606060405180830381865afa158015610ae9573d6000803e3d6000fd5b505050506040513d601f19601f82011682018060405250810190610b0d91906148b7565b6001600160a01b03861660009081526097602052604081206002015491945060ff909116925090505b81816001600160801b03161015610bed576001600160a01b0380861660009081526097602090815260408083206001600160801b038616845260018082018452828520548351808501855291825290951680855290835292206008015491929190820190610bad9089908b9063ffffffff16612c0c565b610bb790876148a4565b81525085600081518110610bcd57610bcd614878565b6020026020010181905250610be48733838861235d565b50600101610b36565b505050505050565b606080610c64610c03610d75565b846099805480602002602001604051908101604052809291908181526020018280548015610c5a57602002820191906000526020600020905b81546001600160a01b03168152600190910190602001808311610c3c575b5050505050610f77565b91509150915091565b600054610100900460ff1615808015610c8d5750600054600160ff909116105b80610ca75750303b158015610ca7575060005460ff166001145b610cb057600080fd5b6000805460ff191660011790558015610cd3576000805461ff0019166101001790555b610cdb612de1565b610ce660003361276f565b8015610d2c576000805461ff0019169055604051600181527f7f26b83ff96e1f2b6a682f133852f6798a09c465da95921460cefb38474024989060200160405180910390a15b50565b6000610d43610d3c610d75565b848461080b565b9392505050565b60009182526065602090815260408084206001600160a01b0393909316845291905290205460ff1690565b60606000609a805480602002602001604051908101604052809291908181526020018280548015610dcf57602002820191906000526020600020905b81546001600160a01b03168152600190910190602001808311610db1575b5050505050905080516001600160401b03811115610def57610def6140d7565b604051908082528060200260200182016040528015610e3557816020015b604080518082019091526000815260606020820152815260200190600190039081610e0d5790505b50915060005b8151811015610f1057604080516002808252606082018352600092602083019080368337019050509050600181600081518110610e7a57610e7a614878565b602002602001019015159081151581525050600081600181518110610ea157610ea1614878565b6020026020010190151590811515815250506040518060400160405280848481518110610ed057610ed0614878565b60200260200101516001600160a01b0316815260200182815250848381518110610efc57610efc614878565b602090810291909101015250600101610e3b565b505090565b60606099805480602002602001604051908101604052809291908181526020018280548015610f6d57602002820191906000526020600020905b81546001600160a01b03168152600190910190602001808311610f4f575b5050505050905090565b80516060908190806001600160401b03811115610f9657610f966140d7565b604051908082528060200260200182016040528015610fbf578160200160208202803683370190505b50915060005b865181101561132657600060976000898481518110610fe657610fe6614878565b6020026020010151600001516001600160a01b03166001600160a01b03168152602001908152602001600020905060005b600282015460ff166001600160801b038216101561110b57611103338a858151811061104557611045614878565b602090810291909101810151516001600160801b0385166000908152600187019092526040909120548c516001600160a01b03909116906110fe908e908990811061109257611092614878565b6020026020010151600001518e89815181106110b0576110b0614878565b6020908102919091018101518101516001600160801b038916600090815260018b0183526040808220546001600160a01b03168252928b90529190912060080154339063ffffffff1661285c565b61235d565b600101611017565b5060005b8381101561131c5760005b89848151811061112c5761112c614878565b602002602001015160200151518110156113135760008360000160008a858151811061115a5761115a614878565b60200260200101516001600160a01b03166001600160a01b03168152602001908152602001600020600b016000336001600160a01b03166001600160a01b0316815260200190815260200160002060008c87815181106111bc576111bc614878565b60200260200101516020015184815181106111d9576111d9614878565b6020908102919091018101511515825281019190915260400160002054600160801b90046001600160801b03169050801561130a578087848151811061122157611221614878565b6020026020010181815161123591906148a4565b9052508851600090859082908c908790811061125357611253614878565b60200260200101516001600160a01b03166001600160a01b03168152602001908152602001600020600b016000336001600160a01b03166001600160a01b0316815260200190815260200160002060008d88815181106112b5576112b5614878565b60200260200101516020015185815181106112d2576112d2614878565b6020908102919091018101511515825281019190915260400160002080546001600160801b03928316600160801b0292169190911790555b5060010161111a565b5060010161110f565b5050600101610fc5565b5060005b845181101561143757600083828151811061134757611347614878565b6020026020010151111561142f576113a58684838151811061136b5761136b614878565b602002602001015187848151811061138557611385614878565b60200260200101516001600160a01b0316612df79092919063ffffffff16565b856001600160a01b03168582815181106113c1576113c1614878565b60200260200101516001600160a01b0316336001600160a01b03167fc1405953cccdad6b442e266c84d66ad671e2534c6584f8e6ef92802f7ad294d586858151811061140f5761140f614878565b602002602001015160405161142691815260200190565b60405180910390a45b60010161132a565b50929590945092505050565b60008281526065602052604090206001015461145e81612765565b6107e383836127f5565b600061147381612765565b60005b82518110156107e35760006097600085848151811061149757611497614878565b6020026020010151600001516001600160a01b03166001600160a01b0316815260200190815260200160002060000160008584815181106114da576114da614878565b6020026020010151602001516001600160a01b03166001600160a01b0316815260200190815260200160002090506097600085848151811061151e5761151e614878565b6020026020010151600001516001600160a01b03166001600160a01b03168152602001908152602001600020600301546000036115a657609a84838151811061156957611569614878565b6020908102919091018101515182546001810184556000938452919092200180546001600160a01b0319166001600160a01b039092169190911790555b609860008584815181106115bc576115bc614878565b6020908102919091018101518101516001600160a01b0316825281019190915260400160009081205460ff161515900361169e5760016098600086858151811061160857611608614878565b6020026020010151602001516001600160a01b03166001600160a01b0316815260200190815260200160002060006101000a81548160ff021916908315150217905550609984838151811061165f5761165f614878565b60209081029190910181015181015182546001810184556000938452919092200180546001600160a01b0319166001600160a01b039092169190911790555b6008810154600160401b900463ffffffff166000036119d1578382815181106116c9576116c9614878565b602002602001015160200151609760008685815181106116eb576116eb614878565b6020026020010151600001516001600160a01b03166001600160a01b0316815260200190815260200160002060010160006097600088878151811061173257611732614878565b6020026020010151600001516001600160a01b03166001600160a01b0316815260200190815260200160002060020160009054906101000a900460ff1660ff166001600160801b0316815260200190815260200160002060006101000a8154816001600160a01b0302191690836001600160a01b03160217905550609760008584815181106117c3576117c3614878565b602090810291909101810151516001600160a01b031682528101919091526040016000908120600201805460ff16916117fb836148e5565b91906101000a81548160ff021916908360ff1602179055505083828151811061182657611826614878565b6020026020010151600001516001600160a01b031663313ce5676040518163ffffffff1660e01b8152600401602060405180830381865afa15801561186f573d6000803e3d6000fd5b505050506040513d601f19601f820116820180604052508101906118939190614904565b61189e90600a614a0b565b609760008685815181106118b4576118b4614878565b6020026020010151600001516001600160a01b03166001600160a01b03168152602001908152602001600020600301819055508382815181106118f9576118f9614878565b6020026020010151606001518160080160006101000a81548163ffffffff021916908363ffffffff16021790555083828151811061193957611939614878565b6020026020010151606001518160080160086101000a81548163ffffffff021916908363ffffffff1602179055506119c784838151811061197c5761197c614878565b602002602001015160800151670de0b6b3a764000061199b9190614a30565b8584815181106119ad576119ad614878565b602002602001015160c00151612e4690919063ffffffff16565b6001820155611d00565b600881015460408051600180825281830190925263ffffffff80841693640100000000900416916000919060208083019080368337019050509050600181600081518110611a2157611a21614878565b602002602001019015159081151581525050611a9e6000888781518110611a4a57611a4a614878565b602002602001015160000151898881518110611a6857611a68614878565b6020026020010151602001516110fe8b8a81518110611a8957611a89614878565b6020026020010151600001518660008a61285c565b8163ffffffff16421015611bf4576000808463ffffffff16421115611b7a576008860154611ad990600160601b900463ffffffff1642614a44565b8660010154611ae89190614a57565b8660090154611af791906148a4565b9150611b0963ffffffff861642614a44565b905081898881518110611b1e57611b1e614878565b602002602001015160c00151111580611b54575080898881518110611b4557611b45614878565b60200260200101516080015111155b15611b72576040516306b7c75960e31b815260040160405180910390fd5b600986018290555b611be7818a8981518110611b9057611b90614878565b602002602001015160800151611ba69190614a44565b611bb890670de0b6b3a7640000614a30565b838b8a81518110611bcb57611bcb614878565b602002602001015160c00151611be19190614a44565b90612e46565b600187015550611cfc9050565b868581518110611c0657611c06614878565b602090810291909101015160600151600885015463ffffffff908116911614611cfc57868581518110611c3b57611c3b614878565b6020026020010151606001518460080160006101000a81548163ffffffff021916908363ffffffff160217905550868581518110611c7b57611c7b614878565b6020026020010151606001518460080160086101000a81548163ffffffff021916908363ffffffff160217905550611cef878681518110611cbe57611cbe614878565b602002602001015160800151670de0b6b3a7640000611cdd9190614a30565b8887815181106119ad576119ad614878565b6001850155600060098501555b5050505b60088101805463ffffffff60601b1916600160601b4263ffffffff16021790558351849083908110611d3457611d34614878565b6020908102919091010151608001516008820154611d58919063ffffffff16614a6e565b8160080160046101000a81548163ffffffff021916908363ffffffff160217905550838281518110611d8c57611d8c614878565b60200260200101516040015181600a0160006101000a8154816001600160a01b0302191690836001600160a01b03160217905550838281518110611dd257611dd2614878565b602002602001015160c001518160020181905550838281518110611df857611df8614878565b602002602001015160a001518160000181905550838281518110611e1e57611e1e614878565b602002602001015160e001518160030181905550838281518110611e4457611e44614878565b602002602001015161010001518160050160006101000a8154816001600160801b030219169083600f0b6001600160801b03160217905550838281518110611e8e57611e8e614878565b602002602001015161012001518160050160106101000a8154816001600160401b0302191690836001600160401b03160217905550838281518110611ed557611ed5614878565b602002602001015161016001518160060160006101000a8154816001600160401b0302191690836001600160401b03160217905550838281518110611f1c57611f1c614878565b602002602001015161018001518160060160086101000a8154816001600160401b0302191690836001600160401b03160217905550670de0b6b3a7640000848381518110611f6c57611f6c614878565b602002602001015161014001516001600160401b031610611fa0576040516306b7c75960e31b815260040160405180910390fd5b838281518110611fb257611fb2614878565b602002602001015161014001518160050160186101000a8154816001600160401b0302191690836001600160401b03160217905550838281518110611ff957611ff9614878565b60200260200101516101a001516001600160401b031660000361202f576040516306b7c75960e31b815260040160405180910390fd5b83828151811061204157612041614878565b60200260200101516101a001518160060160106101000a8154816001600160401b0302191690836001600160401b0316021790555083828151811061208857612088614878565b6020026020010151602001516001600160a01b03168483815181106120af576120af614878565b6020026020010151600001516001600160a01b03167fbb1f0f9f2e246d18022362060458bdfde9ab9b4e4eb514b800b155df7ea8ecac8685815181106120f7576120f7614878565b602002602001015160405161210c919061472c565b60405180910390a350600101611476565b604080516101c081018252600080825260208201819052918101829052606081018290526080810182905260a0810182905260c0810182905260e08101829052610100810182905261012081018290526101408101829052610160810182905261018081018290526101a08101919091526001600160a01b0380841660008181526097602090815260408083208786168085529083529281902081516101c08101835294855291840192909252600a81015490931690820152600882015463ffffffff8082166060840181905260808401926122029264010000000090910416614a92565b63ffffffff1681528254602082015260028301546040820152600383015460608201526005830154600f81900b60808301526001600160401b03600160801b808304821660a0850152600160c01b909204811660c084015260069094015480851660e0840152600160401b810485166101008401520490921661012090920191909152905092915050565b600061229881612765565b6040516370a0823160e01b81523060048201526107e39083906001600160a01b038616906370a0823190602401602060405180830381865afa1580156122e2573d6000803e3d6000fd5b505050506040513d601f19601f82011682018060405250810190612306919061485f565b6001600160a01b0386169190612df7565b6001600160a01b03808416600090815260976020908152604080832093861683529290529081208190819061234d908786612e5b565b9250925092505b93509350939050565b6001600160a01b0383811660009081526097602090815260408083206003810154948716845290915290206008810154600160401b900463ffffffff16428110156124a557600080806123ba858a6123b58742614a44565b612e5b565b919450925090506001600160801b038311806123dc57506001600160801b0382115b156123fa57604051637decd25760e01b815260040160405180910390fd5b6001600160801b03828116600160801b0290841617600786015560088501805463ffffffff42908116600160401b026bffffffff0000000000000000199092169190911790915560048601829055604080518581526020810185905290810183905260608101919091526001600160a01b0389811691908b16907f1be815035b13056fba0f0dcbaec5d30add5d95e5f1b6990581607fbccdc930509060800160405180910390a35050505b5060005b835181101561275c576001600160a01b0387166000908152600b830160205260408120855182908790859081106124e2576124e2614878565b602090810291909101810151511515825281019190915260400160009081205486516001600160801b03909116925086908490811061252357612523614878565b60200260200101516000015115612548575060078301546001600160801b031661255f565b506007830154600160801b90046001600160801b03165b808214612752576001600160a01b0389166000908152600b850160205260408120875183929089908790811061259757612597614878565b60200260200101516000015115151515815260200190815260200160002060000160006101000a8154816001600160801b0302191690836001600160801b031602179055508583815181106125ee576125ee614878565b60200260200101516020015160001461275257600061262c87858151811061261857612618614878565b602002602001015160200151838589613a0b565b90508085600b0160008c6001600160a01b03166001600160a01b03168152602001908152602001600020600089878151811061266a5761266a614878565b602090810291909101810151511515825281019190915260400160002080546010906126a7908490600160801b90046001600160801b0316614aaf565b92506101000a8154816001600160801b0302191690836001600160801b03160217905550896001600160a01b0316886001600160a01b03168a6001600160a01b03167fc4278cd1497fedb2697092108a0141a0cbecdd1472913b6e803010998aa635378a888151811061271c5761271c614878565b602090810291909101810151516040805191151582529181018990529081018790526060810186905260800160405180910390a4505b50506001016124a9565b50505050505050565b610d2c8133613a2b565b6127798282610d4a565b6108075760008281526065602090815260408083206001600160a01b03851684529091529020805460ff191660011790556127b13390565b6001600160a01b0316816001600160a01b0316837f2f8788117e7eff1d82e926ec794901d17c78024a50270940304540a733656f0d60405160405180910390a45050565b6127ff8282610d4a565b156108075760008281526065602090815260408083206001600160a01b0385168085529252808320805460ff1916905551339285917ff6391f5c32d9c69d2a47ea670b442974b53935d1edc7fd64eb21e047a839171b9190a45050565b606083516001600160401b03811115612877576128776140d7565b6040519080825280602002602001820160405280156128bc57816020015b60408051808201909152600080825260208201528152602001906001900390816128955790505b50905060005b8451811015612a94578481815181106128dd576128dd614878565b6020026020010151156129c357604051632f2e037160e11b81526001600160a01b03858116600483015260009190881690635e5c06e290602401606060405180830381865afa158015612934573d6000803e3d6000fd5b505050506040513d601f19601f8201168201806040525081019061295891906148b7565b92505050604051806040016040528087848151811061297957612979614878565b602002602001015115158152602001612993898888612c0c565b61299d90846148a4565b8152508383815181106129b2576129b2614878565b602002602001018190525050612a8c565b60405180604001604052808683815181106129e0576129e0614878565b602002602001015115158152602001876001600160a01b03166370a08231876040518263ffffffff1660e01b8152600401612a2a91906001600160a01b0391909116815260200190565b602060405180830381865afa158015612a47573d6000803e3d6000fd5b505050506040513d601f19601f82011682018060405250810190612a6b919061485f565b815250828281518110612a8057612a80614878565b60200260200101819052505b6001016128c2565b50949350505050565b80516001600160a01b039081166000908152609760208181526040808420878616855282528084208651909516845291905281206003015460088301548451929392600160401b90910463ffffffff169084908190612b10908690428610612b06576000612e5b565b6123b58642614a44565b509150915060005b876020015151811015612bff57600088602001518281518110612b3d57612b3d614878565b60200260200101516000015115612b55575082612b58565b50815b612bea89602001518381518110612b7157612b71614878565b6020026020010151602001518289600b0160008f6001600160a01b03166001600160a01b0316815260200190815260200160002060008d602001518781518110612bbd57612bbd614878565b6020908102919091018101515115158252810191909152604001600020546001600160801b031689613a0b565b612bf490896148a4565b975050600101612b18565b5050505050509392505050565b6000806224ea00612c238163ffffffff8616614acf565b612c339063ffffffff8616614a44565b612c3d91906148a4565b90506000856001600160a01b0316630e52dbec6040518163ffffffff1660e01b8152600401602060405180830381865afa158015612c7f573d6000803e3d6000fd5b505050506040513d601f19601f82011682018060405250810190612ca39190614904565b612cb39060ff166224ea00614a57565b612cc06224ea0042614acf565b612cca9042614a44565b612cd491906148a4565b9050815b818111612d6d5760405163d2681a0b60e01b8152600481018290526001600160a01b0387811660248301526000919089169063d2681a0b906044016040805180830381865afa158015612d2f573d6000803e3d6000fd5b505050506040513d601f19601f82011682018060405250810190612d539190614ae3565b509050612d6081866148a4565b9450506224ea0001612cd8565b50604051635fb9165160e11b8152600481018490526001600160a01b0387169063bf722ca290602401602060405180830381865afa158015612db3573d6000803e3d6000fd5b505050506040513d601f19601f82011682018060405250810190612dd7919061485f565b9695505050505050565b600054610100900460ff16612df557600080fd5b565b600060405163a9059cbb60e01b6000528360045282602452602060006044600080895af13d15601f3d1160016000511416171691506000606052806040525080612e4057600080fd5b50505050565b6000610d438383670de0b6b3a7640000613a72565b6000806000612e7d604051806040016040528060008152602001600081525090565b856001600160a01b031663eee8c9e06040518163ffffffff1660e01b8152600401602060405180830381865afa158015612ebb573d6000803e3d6000fd5b505050506040513d601f19601f82011682018060405250810190612edf919061485f565b816000018181525050856001600160a01b03166301e1d1146040518163ffffffff1660e01b8152600401602060405180830381865afa158015612f26573d6000803e3d6000fd5b505050506040513d601f19601f82011682018060405250810190612f4a919061485f565b6020820152600887015460009063ffffffff16816224ea00612f6c8184614acf565b612f769084614a44565b612f8091906148a4565b90506000896001600160a01b0316630e52dbec6040518163ffffffff1660e01b8152600401602060405180830381865afa158015612fc2573d6000803e3d6000fd5b505050506040513d601f19601f82011682018060405250810190612fe69190614904565b612ff69060ff166224ea00614a57565b6130036224ea0042614acf565b61300d9042614a44565b61301791906148a4565b90506000825b8281116130c357604051630156d37d60e31b81526004810182905260009081906001600160a01b038f1690630ab69be8906024016040805180830381865afa15801561306d573d6000803e3d6000fd5b505050506040513d601f19601f820116820180604052508101906130919190614ae3565b90925090506130a082856148a4565b935080896020018181516130b491906148a4565b90525050506224ea000161301d565b5080866000018181516130d691906148a4565b905250604051635fb9165160e11b8152600481018290526001600160a01b038c169063bf722ca290602401602060405180830381865afa15801561311e573d6000803e3d6000fd5b505050506040513d601f19601f82011682018060405250810190613142919061485f565b8c54875191965060009550935083119150613167905057670de0b6b3a7640000613173565b83516131739082613a91565b60018b015460048c015460038d015492945060009350909183906131979086612e46565b60088e0154909150640100000000900463ffffffff1642116132a457801561324b5760006131d66131c88d84614a57565b6131d190614b07565b613aa6565b90506131f46131ed82670de0b6b3a7640000614a44565b8490612e46565b61322f61320983670de0b6b3a7640000614a44565b611be1856132296132228c670de0b6b3a7640000614a44565b8a90612e46565b90613a91565b61323990856148a4565b6132439190614a44565b98505061327f565b8a61326861326187670de0b6b3a7640000614a44565b8590612e46565b6132729190614a57565b61327c90836148a4565b97505b6132898289614b23565b6132938c85614a57565b61329d9190614b23565b9350613465565b60088d015463ffffffff64010000000082048116600160401b90920416111561332d5760088d015461330e906132f5906132eb90600160401b900463ffffffff1642614a44565b6131c89084614a57565b61330790670de0b6b3a7640000614a44565b8390612e46565b6133189083614a44565b97506133248289614b23565b61329d90614b07565b60088d015460009063ffffffff640100000000820481169161335891600160401b9091041682614a44565b9c5082156133d45761336d6131c88e85614a57565b915061338461326183670de0b6b3a7640000614a44565b6133b961339984670de0b6b3a7640000614a44565b611be1866132296133b28d670de0b6b3a7640000614a44565b8b90612e46565b6133c390866148a4565b6133cd9190614a44565b9950613408565b8c6133f16133ea89670de0b6b3a7640000614a44565b8790612e46565b6133fb9190614a57565b61340590856148a4565b99505b61341f6134158242614a44565b6131c89085614a57565b91506134366133b283670de0b6b3a7640000614a44565b613440908b614a44565b995061344c848b614b23565b6134568e87614a57565b6134609190614b23565b955050505b836000036134975750505060078a01546001600160801b038082169850600160801b9091041695506123549350505050565b5050506134e96040518061012001604052806000815260200160008152602001600081526020016000815260200160008152602001600081526020016000815260200160008152602001600081525090565b60008560200151116134fc57600061351f565b6020850151855161351f916135119190613a91565b670de0b6b3a763ffff613c1d565b80825260058c01546001600160401b03600160c01b8204811660c0850152600f9190910b60e084015260068d01541661010083015261355f57600061360d565b61360d6135ec670de0b6b3a764000061359c6135978560c00151670de0b6b3a764000061358c9190614a44565b60c087015190613a91565b613c33565b84516135c090613597906135b890670de0b6b3a7640000614a44565b875190613a91565b6135ca9190614b23565b8460e001516135d99190614b43565b6135e290614b07565b6131d19190614b73565b6135fe90670de0b6b3a76400006148a4565b670de0b6b3a764000090613a91565b602082018190526137c19061362a90670de0b6b3a7640000614a44565b611be183610100015161379c6136b58f6001600160a01b031663666010326040518163ffffffff1660e01b8152600401602060405180830381865afa158015613677573d6000803e3d6000fd5b505050506040513d601f19601f8201168201806040525081019061369b919061485f565b6136ad90670de0b6b3a7640000614a44565b875190612e46565b6136c790670de0b6b3a7640000614a44565b8f6001600160a01b031663f3fdb15a6040518163ffffffff1660e01b8152600401602060405180830381865afa158015613705573d6000803e3d6000fd5b505050506040513d601f19601f820116820180604052508101906137299190614ba1565b87516040516342543a3360e11b81526001600160a01b0392909216916384a874669161375b9160040190815260200190565b602060405180830381865afa158015613778573d6000803e3d6000fd5b505050506040513d601f19601f82011682018060405250810190611be1919061485f565b6137a691906148a4565b60058f0154600160801b90046001600160401b031690612e46565b6040820152602081015160068c01546137eb91600160801b9091046001600160401b031690612e46565b6138218260200151670de0b6b3a76400006138069190614a44565b60068e0154600160401b90046001600160401b031690612e46565b61382b91906148a4565b60608201819052604082015161384f91613844916148a4565b604083015190613a91565b6080820181905261386890670de0b6b3a7640000614a44565b8160a001818152505060008a6001600160a01b03166318160ddd6040518163ffffffff1660e01b8152600401602060405180830381865afa1580156138b1573d6000803e3d6000fd5b505050506040513d601f19601f820116820180604052508101906138d5919061485f565b90506000858c6001600160a01b0316638d0e5f026040518163ffffffff1660e01b8152600401602060405180830381865afa158015613918573d6000803e3d6000fd5b505050506040513d601f19601f8201168201806040525081019061393c919061485f565b61394691906148a4565b6001600160a01b038d1660009081526097602052604090206003015490915081613971576000613994565b613994818361398d876080015189612e4690919063ffffffff16565b9190613a72565b60078f01546139ac91906001600160801b03166148a4565b9a50600083116139bd5760006139d9565b6139d9818461398d8760a0015189612e4690919063ffffffff16565b60078f01546139f89190600160801b90046001600160801b03166148a4565b9950505050505050505093509350939050565b6000613a22613a1a8486614a44565b869084613a72565b95945050505050565b613a358282610d4a565b61080757613a4281613ddf565b613a4d836020613df1565b604051602001613a5e929190614bee565b604051602081830303815290604052600080fd5b828202811515841585830485141716613a8a57600080fd5b0492915050565b6000610d4383670de0b6b3a764000084613a72565b6000680248ce36a70cb26b3e198213613ac157506000919050565b680755bf798b4a1bf1e58212613ad657600080fd5b6503782dace9d9604e83901b059150600060606bb17217f7d1cf79abc9e3b39884821b056001605f1b01901d6bb17217f7d1cf79abc9e3b39881029093036c240c330e9fb2d9cbaf0fd5aafb1981018102606090811d6d0277594991cfc85f6e2461837cd9018202811d6d1a521255e34f6a5061b25ef1c9c319018202811d6db1bbb201f443cf962f1a1d3db4a5018202811d6e02c72388d9f74f51a9331fed693f1419018202811d6e05180bb14799ab47a8a8cb2a527d57016d02d16720577bd19bf614176fe9ea6c10fe68e7fd37d0007b713f765084018402831d9081019084016d01d3967ed30fc4f89c02bab5708119010290911d6e0587f503bb6ea29d25fcb740196450019091026d360d7aeea093263ecc6e0ecb291760621b010574029d9dc38563c32e5c2f6dc192ee70ef65f9978af30260c3939093039290921c92915050565b6000818310613c2c5781610d43565b5090919050565b6000808213613c4157600080fd5b60006060613c4e84613f49565b03609f8181039490941b90931c6c465772b2bbbb5f824b15207a3081018102606090811d6d0388eaa27412d5aca026815d636e018202811d6d0df99ac502031bf953eff472fdcc018202811d6d13cdffb29d51d99322bdff5f2211018202811d6d0a0f742023def783a307a986912e018202811d6d01920d8043ca89b5239253284e42018202811d6c0b7a86d7375468fac667a0a527016c29508e458543d8aa4df2abee7883018302821d6d0139601a2efabe717e604cbb4894018302821d6d02247f7a7b6594320649aa03aba1018302821d6c8c3f38e95a6b1ff2ab1c3b343619018302821d6d02384773bdf1ac5676facced60901901830290911d6cb9a025d814b29c212b8b1a07cd1901909102780a09507084cc699bb0e71ea869ffffffffffffffffffffffff190105711340daa0d5f769dba1915cef59f0815a5506027d0267a36c0c95b3975ab3ee5b203a7614a3f75373f047d803ae7b6687f2b393909302929092017d57115e47018c7177eebf7cd370a3356a1b7863008a5ae8028c72b88642840160ae1d92915050565b606061077e6001600160a01b03831660145b60606000613e00836002614a57565b613e0b9060026148a4565b6001600160401b03811115613e2257613e226140d7565b6040519080825280601f01601f191660200182016040528015613e4c576020820181803683370190505b509050600360fc1b81600081518110613e6757613e67614878565b60200101906001600160f81b031916908160001a905350600f60fb1b81600181518110613e9657613e96614878565b60200101906001600160f81b031916908160001a9053506000613eba846002614a57565b613ec59060016148a4565b90505b6001811115613f3d576f181899199a1a9b1b9c1cb0b131b232b360811b85600f1660108110613ef957613ef9614878565b1a60f81b828281518110613f0f57613f0f614878565b60200101906001600160f81b031916908160001a90535060049490941c93613f3681614c44565b9050613ec8565b508315610d4357600080fd5b6000808211613f5757600080fd5b5060016001600160801b03821160071b82811c6001600160401b031060061b1782811c63ffffffff1060051b1782811c61ffff1060041b1782811c60ff10600390811b90911783811c600f1060021b1783811c909110821b1791821c111790565b6001600160a01b0381168114610d2c57600080fd5b600060208284031215613fdf57600080fd5b8135610d4381613fb8565b600060208284031215613ffc57600080fd5b81356001600160e01b031981168114610d4357600080fd5b60006020828403121561402657600080fd5b5035919050565b803561403881613fb8565b919050565b8035801515811461403857600080fd5b6000806000806080858703121561406357600080fd5b843561406e81613fb8565b9350602085013561407e81613fb8565b925061408c6040860161403d565b9150606085013561409c81613fb8565b939692955090935050565b600080604083850312156140ba57600080fd5b8235915060208301356140cc81613fb8565b809150509250929050565b634e487b7160e01b600052604160045260246000fd5b604080519081016001600160401b038111828210171561410f5761410f6140d7565b60405290565b6040516101c081016001600160401b038111828210171561410f5761410f6140d7565b604051601f8201601f191681016001600160401b0381118282101715614160576141606140d7565b604052919050565b60006001600160401b03821115614181576141816140d7565b5060051b60200190565b600082601f83011261419c57600080fd5b813560206141b16141ac83614168565b614138565b828152600592831b85018201928282019190878511156141d057600080fd5b8387015b858110156142b85780356001600160401b03808211156141f45760008081fd5b908901906040828c03601f190181131561420e5760008081fd5b6142166140ed565b8884013561422381613fb8565b815283820135838111156142375760008081fd5b8085019450508c603f85011261424f57600092508283fd5b8884013592506142616141ac84614168565b83815292861b8401820192898101908e85111561427e5760008081fd5b948301945b848610156142a3576142948661403d565b8252948a0194908a0190614283565b828b01525087525050509284019284016141d4565b5090979650505050505050565b6000806000606084860312156142da57600080fd5b83356001600160401b038111156142f057600080fd5b6142fc8682870161418b565b935050602084013561430d81613fb8565b9150604084013561431d81613fb8565b809150509250925092565b6000806040838503121561433b57600080fd5b823561434681613fb8565b915060208301356140cc81613fb8565b600081518084526020808501945080840160005b8381101561438f5781516001600160a01b03168752958201959082019060010161436a565b509495945050505050565b6040815260006143ad6040830185614356565b82810360208481019190915284518083528582019282019060005b818110156142b8578451835293830193918301916001016143c8565b60006020808301818452808551808352604092508286019150828160051b8701018488016000805b8481101561448057898403603f19018652825180516001600160a01b03168552880151888501889052805188860181905290890190839060608701905b8083101561446b57835115158252928b019260019290920191908b0190614449565b50978a0197955050509187019160010161440c565b50919998505050505050505050565b602081526000610d436020830184614356565b6000806000606084860312156144b757600080fd5b83356001600160401b03808211156144ce57600080fd5b6144da8783880161418b565b945060209150818601356144ed81613fb8565b935060408601358181111561450157600080fd5b86019050601f8101871361451457600080fd5b80356145226141ac82614168565b81815260059190911b8201830190838101908983111561454157600080fd5b928401925b8284101561456857833561455981613fb8565b82529284019290840190614546565b80955050505050509250925092565b803563ffffffff8116811461403857600080fd5b8035600f81900b811461403857600080fd5b80356001600160401b038116811461403857600080fd5b600060208083850312156145c757600080fd5b82356001600160401b038111156145dd57600080fd5b8301601f810185136145ee57600080fd5b80356145fc6141ac82614168565b8181526101c0918202830184019184820191908884111561461c57600080fd5b938501935b838510156147205780858a0312156146395760008081fd5b614641614115565b61464a8661402d565b815261465787870161402d565b87820152604061466881880161402d565b908201526060614679878201614577565b908201526080868101359082015260a0808701359082015260c0808701359082015260e080870135908201526101006146b381880161458b565b908201526101206146c587820161459d565b908201526101406146d787820161459d565b908201526101606146e987820161459d565b908201526101806146fb87820161459d565b908201526101a061470d87820161459d565b9082015283529384019391850191614621565b50979650505050505050565b81516001600160a01b031681526101c08101602083015161475860208401826001600160a01b03169052565b50604083015161477360408401826001600160a01b03169052565b50606083015161478b606084018263ffffffff169052565b506080830151608083015260a083015160a083015260c083015160c083015260e083015160e0830152610100808401516147c982850182600f0b9052565b5050610120838101516001600160401b03908116918401919091526101408085015182169084015261016080850151821690840152610180808501518216908401526101a09384015116929091019190915290565b60008060006060848603121561483357600080fd5b833561483e81613fb8565b9250602084013561484e81613fb8565b929592945050506040919091013590565b60006020828403121561487157600080fd5b5051919050565b634e487b7160e01b600052603260045260246000fd5b634e487b7160e01b600052601160045260246000fd5b8082018082111561077e5761077e61488e565b6000806000606084860312156148cc57600080fd5b8351925060208401519150604084015190509250925092565b600060ff821660ff81036148fb576148fb61488e565b60010192915050565b60006020828403121561491657600080fd5b815160ff81168114610d4357600080fd5b600181815b808511156149625781600019048211156149485761494861488e565b8085161561495557918102915b93841c939080029061492c565b509250929050565b6000826149795750600161077e565b816149865750600061077e565b816001811461499c57600281146149a6576149c2565b600191505061077e565b60ff8411156149b7576149b761488e565b50506001821b61077e565b5060208310610133831016604e8410600b84101617156149e5575081810a61077e565b6149ef8383614927565b8060001904821115614a0357614a0361488e565b029392505050565b6000610d4360ff84168361496a565b634e487b7160e01b600052601260045260246000fd5b600082614a3f57614a3f614a1a565b500490565b8181038181111561077e5761077e61488e565b808202811582820484141761077e5761077e61488e565b63ffffffff818116838216019080821115614a8b57614a8b61488e565b5092915050565b63ffffffff828116828216039080821115614a8b57614a8b61488e565b6001600160801b03818116838216019080821115614a8b57614a8b61488e565b600082614ade57614ade614a1a565b500690565b60008060408385031215614af657600080fd5b505080516020909101519092909150565b6000600160ff1b8201614b1c57614b1c61488e565b5060000390565b8181036000831280158383131683831282161715614a8b57614a8b61488e565b80820260008212600160ff1b84141615614b5f57614b5f61488e565b818105831482151761077e5761077e61488e565b600082614b8257614b82614a1a565b600160ff1b821460001984141615614b9c57614b9c61488e565b500590565b600060208284031215614bb357600080fd5b8151610d4381613fb8565b6000815160005b81811015614bdf5760208185018101518683015201614bc5565b50600093019283525090919050565b7f416363657373436f6e74726f6c3a206163636f756e742000000000000000000081526000614c206017830185614bbe565b7001034b99036b4b9b9b4b733903937b6329607d1b8152613a226011820185614bbe565b600081614c5357614c5361488e565b50600019019056fea26469706673582212202e6fec1c1a93252aba1dd58cfe46212edcd146cef324532eff00a8b2637633d464736f6c63430008110033",
  "devdoc": {
    "events": {
      "Accrue(address,address,address,bool,uint256,uint256,uint256)": {
        "params": {
          "account": "account that accrued the rewards.",
          "accountIndex": "previous account index.",
          "market": "Market where the operation was made.",
          "operation": "true if the operation was a borrow, false if it was a deposit.",
          "operationIndex": "new operation index that is assigned to the `accountIndex`.",
          "reward": "reward asset.",
          "rewardsAccrued": "amount of rewards accrued."
        }
      },
      "Claim(address,address,address,uint256)": {
        "params": {
          "account": "account that claimed the rewards.",
          "amount": "amount of rewards claimed.",
          "reward": "reward asset.",
          "to": "account that received the rewards."
        }
      },
      "DistributionSet(address,address,(address,address,address,uint32,uint256,uint256,uint256,uint256,int128,uint64,uint64,uint64,uint64,uint64))": {
        "params": {
          "config": "configuration struct containing the distribution parameters.",
          "market": "Market whose distribution was set.",
          "reward": "reward asset to be distributed when operating with the Market."
        }
      },
      "IndexUpdate(address,address,uint256,uint256,uint256,uint256)": {
        "params": {
          "borrowIndex": "index of the borrow operations of a distribution.",
          "depositIndex": "index of the deposit operations of a distribution.",
          "lastUpdate": "current timestamp.",
          "market": "Market of the distribution.",
          "newUndistributed": "amount of undistributed rewards.",
          "reward": "reward asset."
        }
      }
    },
    "kind": "dev",
    "methods": {
      "accountOperation(address,address,bool,address)": {
        "params": {
          "account": "The account to get the operation data from.",
          "market": "The market in which the operation was made.",
          "operation": "True if the operation was a borrow, false if it was a deposit.",
          "reward": "The reward asset."
        },
        "returns": {
          "_0": "accrued The accrued amount.",
          "_1": "index The account index."
        }
      },
      "allClaimable(address,address)": {
        "params": {
          "account": "The account to get the claimable amount for.",
          "reward": "The reward asset."
        },
        "returns": {
          "unclaimedRewards": "The claimable amount for the given account."
        }
      },
      "allMarketsOperations()": {
        "returns": {
          "marketOps": "The list of market operations."
        }
      },
      "availableRewardsCount(address)": {
        "params": {
          "market": "Market to get the number of available rewards to distribute."
        },
        "returns": {
          "_0": "The amount reward assets set to a Market."
        }
      },
      "claim((address,bool[])[],address,address[])": {
        "params": {
          "marketOps": "The operations to claim rewards for.",
          "rewardsList": "The list of rewards assets to claim.",
          "to": "The address to send the rewards to."
        },
        "returns": {
          "_0": "rewardsList The list of rewards assets.",
          "claimedAmounts": "The list of claimed amounts."
        }
      },
      "claimAll(address)": {
        "params": {
          "to": "The address to send the rewards to."
        },
        "returns": {
          "claimedAmounts": "The list of claimed amounts.",
          "rewardsList": "The list of rewards assets."
        }
      },
      "claimable((address,bool[])[],address,address)": {
        "params": {
          "account": "The account to get the claimable amount for.",
          "marketOps": "The list of Market operations to get the accrued and pending rewards from.",
          "reward": "The reward asset."
        },
        "returns": {
          "unclaimedRewards": "The claimable amount for the given account."
        }
      },
      "config((address,address,address,uint32,uint256,uint256,uint256,uint256,int128,uint64,uint64,uint64,uint64,uint64)[])": {
        "params": {
          "configs": "The configurations to update each RewardData with."
        }
      },
      "constructor": {
        "custom:oz-upgrades-unsafe-allow": "constructor"
      },
      "distributionTime(address,address)": {
        "params": {
          "market": "The market to get the distribution times.",
          "reward": "The reward asset."
        },
        "returns": {
          "_0": "The distribution `start`, `end` and `lastUpdate` time."
        }
      },
      "getRoleAdmin(bytes32)": {
        "details": "Returns the admin role that controls `role`. See {grantRole} and {revokeRole}. To change a role's admin, use {_setRoleAdmin}."
      },
      "grantRole(bytes32,address)": {
        "details": "Grants `role` to `account`. If `account` had not been already granted `role`, emits a {RoleGranted} event. Requirements: - the caller must have ``role``'s admin role. May emit a {RoleGranted} event."
      },
      "handleBorrow(address)": {
        "params": {
          "account": "The account to which the index is updated."
        }
      },
      "handleDeposit(address)": {
        "params": {
          "account": "The account to which the index is updated."
        }
      },
      "hasRole(bytes32,address)": {
        "details": "Returns `true` if `account` has been granted `role`."
      },
      "initialize()": {
        "details": "Can only be called once."
      },
      "previewAllocation(address,address,uint256)": {
        "params": {
          "deltaTime": "The elapsed time since the last update.",
          "market": "The market to calculate the indexes for.",
          "reward": "The reward asset to calculate the indexes for."
        },
        "returns": {
          "borrowIndex": "The index for the borrow operation.",
          "depositIndex": "The index for the deposit operation.",
          "newUndistributed": "The new undistributed rewards of the distribution."
        }
      },
      "renounceRole(bytes32,address)": {
        "details": "Revokes `role` from the calling account. Roles are often managed via {grantRole} and {revokeRole}: this function's purpose is to provide a mechanism for accounts to lose their privileges if they are compromised (such as when a trusted device is misplaced). If the calling account had been revoked `role`, emits a {RoleRevoked} event. Requirements: - the caller must be `account`. May emit a {RoleRevoked} event."
      },
      "revokeRole(bytes32,address)": {
        "details": "Revokes `role` from `account`. If `account` had been granted `role`, emits a {RoleRevoked} event. Requirements: - the caller must have ``role``'s admin role. May emit a {RoleRevoked} event."
      },
      "rewardConfig(address,address)": {
        "params": {
          "market": "The market to get the distribution configuration for.",
          "reward": "The reward asset."
        },
        "returns": {
          "_0": "The distribution configuration."
        }
      },
      "rewardIndexes(address,address)": {
        "params": {
          "market": "The market to get the reward indexes for.",
          "reward": "The reward asset to get the reward indexes for."
        },
        "returns": {
          "_0": "borrowIndex The index for the floating and fixed borrow operation.",
          "_1": "depositIndex The index for the floating deposit operation.",
          "_2": "lastUndistributed The last amount of undistributed rewards."
        }
      },
      "supportsInterface(bytes4)": {
        "details": "See {IERC165-supportsInterface}."
      },
      "withdraw(address,address)": {
        "params": {
          "asset": "The asset to withdraw.",
          "to": "The address to withdraw the asset to."
        }
      }
    },
    "version": 1
  },
  "userdoc": {
    "events": {
      "Accrue(address,address,address,bool,uint256,uint256,uint256)": {
        "notice": "Emitted when rewards are accrued by an account."
      },
      "Claim(address,address,address,uint256)": {
        "notice": "Emitted when rewards are claimed by an account."
      },
      "DistributionSet(address,address,(address,address,address,uint32,uint256,uint256,uint256,uint256,int128,uint64,uint64,uint64,uint64,uint64))": {
        "notice": "Emitted when a distribution is set."
      },
      "IndexUpdate(address,address,uint256,uint256,uint256,uint256)": {
        "notice": "Emitted when the distribution indexes are updated."
      }
    },
    "kind": "user",
    "methods": {
      "UTILIZATION_CAP()": {
        "notice": "Max utilization supported by the sigmoid function not to cause a division by zero."
      },
      "accountOperation(address,address,bool,address)": {
        "notice": "Gets the account data of a given account, Market, operation and reward asset."
      },
      "allClaimable(address,address)": {
        "notice": "Gets the claimable amount of rewards for a given account and reward asset."
      },
      "allMarketsOperations()": {
        "notice": "Gets all market and operations."
      },
      "allRewards()": {
        "notice": "Retrieves all rewards addresses."
      },
      "availableRewardsCount(address)": {
        "notice": "Gets the amount of reward assets that are being distributed for a Market."
      },
      "claim((address,bool[])[],address,address[])": {
        "notice": "Claims `msg.sender` rewards for the given operations and reward assets to the given account."
      },
      "claimAll(address)": {
        "notice": "Claims all `msg.sender` rewards to the given account."
      },
      "claimable((address,bool[])[],address,address)": {
        "notice": "Gets the claimable amount of rewards for a given account, Market operations and reward asset."
      },
      "config((address,address,address,uint32,uint256,uint256,uint256,uint256,int128,uint64,uint64,uint64,uint64,uint64)[])": {
        "notice": "Enables or updates the reward distribution for the given markets and rewards."
      },
      "distribution(address)": {
        "notice": "Tracks the reward distribution data for a given market."
      },
      "distributionTime(address,address)": {
        "notice": "Gets the distribution `start`, `end` and `lastUpdate` value of a given market and reward."
      },
      "handleBorrow(address)": {
        "notice": "Hook to be called by the Market to update the index of the account that made a rewarded borrow."
      },
      "handleDeposit(address)": {
        "notice": "Hook to be called by the Market to update the index of the account that made a rewarded deposit."
      },
      "initialize()": {
        "notice": "Initializes the contract."
      },
      "marketList(uint256)": {
        "notice": "Stores Markets with distributions set."
      },
      "previewAllocation(address,address,uint256)": {
        "notice": "Retrieves projected distribution indexes and new undistributed amount for a given `deltaTime`."
      },
      "rewardConfig(address,address)": {
        "notice": "Gets the configuration of a given distribution."
      },
      "rewardEnabled(address)": {
        "notice": "Tracks enabled asset rewards."
      },
      "rewardIndexes(address,address)": {
        "notice": "Gets the reward indexes and last amount of undistributed rewards for a given market and reward asset."
      },
      "rewardList(uint256)": {
        "notice": "Stores registered asset rewards."
      },
      "withdraw(address,address)": {
        "notice": "Withdraws the contract's balance of the given asset to the given address."
      }
    },
    "version": 1
  },
  "storageLayout": {
    "storage": [
      {
        "astId": 415,
        "contract": "contracts/RewardsController.sol:RewardsController",
        "label": "_initialized",
        "offset": 0,
        "slot": "0",
        "type": "t_uint8"
      },
      {
        "astId": 418,
        "contract": "contracts/RewardsController.sol:RewardsController",
        "label": "_initializing",
        "offset": 1,
        "slot": "0",
        "type": "t_bool"
      },
      {
        "astId": 1029,
        "contract": "contracts/RewardsController.sol:RewardsController",
        "label": "__gap",
        "offset": 0,
        "slot": "1",
        "type": "t_array(t_uint256)50_storage"
      },
      {
        "astId": 1248,
        "contract": "contracts/RewardsController.sol:RewardsController",
        "label": "__gap",
        "offset": 0,
        "slot": "51",
        "type": "t_array(t_uint256)50_storage"
      },
      {
        "astId": 39,
        "contract": "contracts/RewardsController.sol:RewardsController",
        "label": "_roles",
        "offset": 0,
        "slot": "101",
        "type": "t_mapping(t_bytes32,t_struct(RoleData)34_storage)"
      },
      {
        "astId": 334,
        "contract": "contracts/RewardsController.sol:RewardsController",
        "label": "__gap",
        "offset": 0,
        "slot": "102",
        "type": "t_array(t_uint256)49_storage"
      },
      {
        "astId": 11923,
        "contract": "contracts/RewardsController.sol:RewardsController",
        "label": "distribution",
        "offset": 0,
        "slot": "151",
        "type": "t_mapping(t_contract(Market)11239,t_struct(Distribution)14808_storage)"
      },
      {
        "astId": 11929,
        "contract": "contracts/RewardsController.sol:RewardsController",
        "label": "rewardEnabled",
        "offset": 0,
        "slot": "152",
        "type": "t_mapping(t_contract(ERC20)19797,t_bool)"
      },
      {
        "astId": 11934,
        "contract": "contracts/RewardsController.sol:RewardsController",
        "label": "rewardList",
        "offset": 0,
        "slot": "153",
        "type": "t_array(t_contract(ERC20)19797)dyn_storage"
      },
      {
        "astId": 11939,
        "contract": "contracts/RewardsController.sol:RewardsController",
        "label": "marketList",
        "offset": 0,
        "slot": "154",
        "type": "t_array(t_contract(Market)11239)dyn_storage"
      }
    ],
    "types": {
      "t_address": {
        "encoding": "inplace",
        "label": "address",
        "numberOfBytes": "20"
      },
      "t_array(t_contract(ERC20)19797)dyn_storage": {
        "base": "t_contract(ERC20)19797",
        "encoding": "dynamic_array",
        "label": "contract ERC20[]",
        "numberOfBytes": "32"
      },
      "t_array(t_contract(Market)11239)dyn_storage": {
        "base": "t_contract(Market)11239",
        "encoding": "dynamic_array",
        "label": "contract Market[]",
        "numberOfBytes": "32"
      },
      "t_array(t_uint256)49_storage": {
        "base": "t_uint256",
        "encoding": "inplace",
        "label": "uint256[49]",
        "numberOfBytes": "1568"
      },
      "t_array(t_uint256)50_storage": {
        "base": "t_uint256",
        "encoding": "inplace",
        "label": "uint256[50]",
        "numberOfBytes": "1600"
      },
      "t_bool": {
        "encoding": "inplace",
        "label": "bool",
        "numberOfBytes": "1"
      },
      "t_bytes32": {
        "encoding": "inplace",
        "label": "bytes32",
        "numberOfBytes": "32"
      },
      "t_contract(ERC20)19797": {
        "encoding": "inplace",
        "label": "contract ERC20",
        "numberOfBytes": "20"
      },
      "t_contract(IPriceFeed)18832": {
        "encoding": "inplace",
        "label": "contract IPriceFeed",
        "numberOfBytes": "20"
      },
      "t_contract(Market)11239": {
        "encoding": "inplace",
        "label": "contract Market",
        "numberOfBytes": "20"
      },
      "t_int128": {
        "encoding": "inplace",
        "label": "int128",
        "numberOfBytes": "16"
      },
      "t_mapping(t_address,t_bool)": {
        "encoding": "mapping",
        "key": "t_address",
        "label": "mapping(address => bool)",
        "numberOfBytes": "32",
        "value": "t_bool"
      },
      "t_mapping(t_address,t_mapping(t_bool,t_struct(Account)14713_storage))": {
        "encoding": "mapping",
        "key": "t_address",
        "label": "mapping(address => mapping(bool => struct RewardsController.Account))",
        "numberOfBytes": "32",
        "value": "t_mapping(t_bool,t_struct(Account)14713_storage)"
      },
      "t_mapping(t_bool,t_struct(Account)14713_storage)": {
        "encoding": "mapping",
        "key": "t_bool",
        "label": "mapping(bool => struct RewardsController.Account)",
        "numberOfBytes": "32",
        "value": "t_struct(Account)14713_storage"
      },
      "t_mapping(t_bytes32,t_struct(RoleData)34_storage)": {
        "encoding": "mapping",
        "key": "t_bytes32",
        "label": "mapping(bytes32 => struct AccessControlUpgradeable.RoleData)",
        "numberOfBytes": "32",
        "value": "t_struct(RoleData)34_storage"
      },
      "t_mapping(t_contract(ERC20)19797,t_bool)": {
        "encoding": "mapping",
        "key": "t_contract(ERC20)19797",
        "label": "mapping(contract ERC20 => bool)",
        "numberOfBytes": "32",
        "value": "t_bool"
      },
      "t_mapping(t_contract(ERC20)19797,t_struct(RewardData)14792_storage)": {
        "encoding": "mapping",
        "key": "t_contract(ERC20)19797",
        "label": "mapping(contract ERC20 => struct RewardsController.RewardData)",
        "numberOfBytes": "32",
        "value": "t_struct(RewardData)14792_storage"
      },
      "t_mapping(t_contract(Market)11239,t_struct(Distribution)14808_storage)": {
        "encoding": "mapping",
        "key": "t_contract(Market)11239",
        "label": "mapping(contract Market => struct RewardsController.Distribution)",
        "numberOfBytes": "32",
        "value": "t_struct(Distribution)14808_storage"
      },
      "t_mapping(t_uint128,t_contract(ERC20)19797)": {
        "encoding": "mapping",
        "key": "t_uint128",
        "label": "mapping(uint128 => contract ERC20)",
        "numberOfBytes": "32",
        "value": "t_contract(ERC20)19797"
      },
      "t_struct(Account)14713_storage": {
        "encoding": "inplace",
        "label": "struct RewardsController.Account",
        "members": [
          {
            "astId": 14710,
            "contract": "contracts/RewardsController.sol:RewardsController",
            "label": "index",
            "offset": 0,
            "slot": "0",
            "type": "t_uint128"
          },
          {
            "astId": 14712,
            "contract": "contracts/RewardsController.sol:RewardsController",
            "label": "accrued",
            "offset": 16,
            "slot": "0",
            "type": "t_uint128"
          }
        ],
        "numberOfBytes": "32"
      },
      "t_struct(Distribution)14808_storage": {
        "encoding": "inplace",
        "label": "struct RewardsController.Distribution",
        "members": [
          {
            "astId": 14798,
            "contract": "contracts/RewardsController.sol:RewardsController",
            "label": "rewards",
            "offset": 0,
            "slot": "0",
            "type": "t_mapping(t_contract(ERC20)19797,t_struct(RewardData)14792_storage)"
          },
          {
            "astId": 14803,
            "contract": "contracts/RewardsController.sol:RewardsController",
            "label": "availableRewards",
            "offset": 0,
            "slot": "1",
            "type": "t_mapping(t_uint128,t_contract(ERC20)19797)"
          },
          {
            "astId": 14805,
            "contract": "contracts/RewardsController.sol:RewardsController",
            "label": "availableRewardsCount",
            "offset": 0,
            "slot": "2",
            "type": "t_uint8"
          },
          {
            "astId": 14807,
            "contract": "contracts/RewardsController.sol:RewardsController",
            "label": "baseUnit",
            "offset": 0,
            "slot": "3",
            "type": "t_uint256"
          }
        ],
        "numberOfBytes": "128"
      },
      "t_struct(RewardData)14792_storage": {
        "encoding": "inplace",
        "label": "struct RewardsController.RewardData",
        "members": [
          {
            "astId": 14747,
            "contract": "contracts/RewardsController.sol:RewardsController",
            "label": "targetDebt",
            "offset": 0,
            "slot": "0",
            "type": "t_uint256"
          },
          {
            "astId": 14749,
            "contract": "contracts/RewardsController.sol:RewardsController",
            "label": "releaseRate",
            "offset": 0,
            "slot": "1",
            "type": "t_uint256"
          },
          {
            "astId": 14751,
            "contract": "contracts/RewardsController.sol:RewardsController",
            "label": "totalDistribution",
            "offset": 0,
            "slot": "2",
            "type": "t_uint256"
          },
          {
            "astId": 14753,
            "contract": "contracts/RewardsController.sol:RewardsController",
            "label": "undistributedFactor",
            "offset": 0,
            "slot": "3",
            "type": "t_uint256"
          },
          {
            "astId": 14755,
            "contract": "contracts/RewardsController.sol:RewardsController",
            "label": "lastUndistributed",
            "offset": 0,
            "slot": "4",
            "type": "t_uint256"
          },
          {
            "astId": 14757,
            "contract": "contracts/RewardsController.sol:RewardsController",
            "label": "flipSpeed",
            "offset": 0,
            "slot": "5",
            "type": "t_int128"
          },
          {
            "astId": 14759,
            "contract": "contracts/RewardsController.sol:RewardsController",
            "label": "compensationFactor",
            "offset": 16,
            "slot": "5",
            "type": "t_uint64"
          },
          {
            "astId": 14761,
            "contract": "contracts/RewardsController.sol:RewardsController",
            "label": "transitionFactor",
            "offset": 24,
            "slot": "5",
            "type": "t_uint64"
          },
          {
            "astId": 14763,
            "contract": "contracts/RewardsController.sol:RewardsController",
            "label": "borrowAllocationWeightFactor",
            "offset": 0,
            "slot": "6",
            "type": "t_uint64"
          },
          {
            "astId": 14765,
            "contract": "contracts/RewardsController.sol:RewardsController",
            "label": "depositAllocationWeightAddend",
            "offset": 8,
            "slot": "6",
            "type": "t_uint64"
          },
          {
            "astId": 14767,
            "contract": "contracts/RewardsController.sol:RewardsController",
            "label": "depositAllocationWeightFactor",
            "offset": 16,
            "slot": "6",
            "type": "t_uint64"
          },
          {
            "astId": 14769,
            "contract": "contracts/RewardsController.sol:RewardsController",
            "label": "borrowIndex",
            "offset": 0,
            "slot": "7",
            "type": "t_uint128"
          },
          {
            "astId": 14771,
            "contract": "contracts/RewardsController.sol:RewardsController",
            "label": "depositIndex",
            "offset": 16,
            "slot": "7",
            "type": "t_uint128"
          },
          {
            "astId": 14773,
            "contract": "contracts/RewardsController.sol:RewardsController",
            "label": "start",
            "offset": 0,
            "slot": "8",
            "type": "t_uint32"
          },
          {
            "astId": 14775,
            "contract": "contracts/RewardsController.sol:RewardsController",
            "label": "end",
            "offset": 4,
            "slot": "8",
            "type": "t_uint32"
          },
          {
            "astId": 14777,
            "contract": "contracts/RewardsController.sol:RewardsController",
            "label": "lastUpdate",
            "offset": 8,
            "slot": "8",
            "type": "t_uint32"
          },
          {
            "astId": 14779,
            "contract": "contracts/RewardsController.sol:RewardsController",
            "label": "lastConfig",
            "offset": 12,
            "slot": "8",
            "type": "t_uint32"
          },
          {
            "astId": 14781,
            "contract": "contracts/RewardsController.sol:RewardsController",
            "label": "lastConfigReleased",
            "offset": 0,
            "slot": "9",
            "type": "t_uint256"
          },
          {
            "astId": 14784,
            "contract": "contracts/RewardsController.sol:RewardsController",
            "label": "priceFeed",
            "offset": 0,
            "slot": "10",
            "type": "t_contract(IPriceFeed)18832"
          },
          {
            "astId": 14791,
            "contract": "contracts/RewardsController.sol:RewardsController",
            "label": "accounts",
            "offset": 0,
            "slot": "11",
            "type": "t_mapping(t_address,t_mapping(t_bool,t_struct(Account)14713_storage))"
          }
        ],
        "numberOfBytes": "384"
      },
      "t_struct(RoleData)34_storage": {
        "encoding": "inplace",
        "label": "struct AccessControlUpgradeable.RoleData",
        "members": [
          {
            "astId": 31,
            "contract": "contracts/RewardsController.sol:RewardsController",
            "label": "members",
            "offset": 0,
            "slot": "0",
            "type": "t_mapping(t_address,t_bool)"
          },
          {
            "astId": 33,
            "contract": "contracts/RewardsController.sol:RewardsController",
            "label": "adminRole",
            "offset": 0,
            "slot": "1",
            "type": "t_bytes32"
          }
        ],
        "numberOfBytes": "64"
      },
      "t_uint128": {
        "encoding": "inplace",
        "label": "uint128",
        "numberOfBytes": "16"
      },
      "t_uint256": {
        "encoding": "inplace",
        "label": "uint256",
        "numberOfBytes": "32"
      },
      "t_uint32": {
        "encoding": "inplace",
        "label": "uint32",
        "numberOfBytes": "4"
      },
      "t_uint64": {
        "encoding": "inplace",
        "label": "uint64",
        "numberOfBytes": "8"
      },
      "t_uint8": {
        "encoding": "inplace",
        "label": "uint8",
        "numberOfBytes": "1"
      }
    }
  }
}