{
  "address": "0x6c12C61d9227F5315Bc4436E68121D9073961681",
  "abi": [
    {
      "inputs": [
        {
          "internalType": "address",
          "name": "_priceOracleAddress",
          "type": "address"
        }
      ],
      "stateMutability": "nonpayable",
      "type": "constructor"
    },
    {
      "inputs": [
        {
          "internalType": "enum ErrorCode",
          "name": "error",
          "type": "uint8"
        }
      ],
      "name": "GenericError",
      "type": "error"
    },
    {
      "anonymous": false,
      "inputs": [
        {
          "indexed": false,
          "internalType": "address",
          "name": "fixedLender",
          "type": "address"
        },
        {
          "indexed": false,
          "internalType": "address",
          "name": "account",
          "type": "address"
        }
      ],
      "name": "MarketEntered",
      "type": "event"
    },
    {
      "anonymous": false,
      "inputs": [
        {
          "indexed": false,
          "internalType": "address",
          "name": "fixedLender",
          "type": "address"
        },
        {
          "indexed": false,
          "internalType": "address",
          "name": "account",
          "type": "address"
        }
      ],
      "name": "MarketExited",
      "type": "event"
    },
    {
      "anonymous": false,
      "inputs": [
        {
          "indexed": false,
          "internalType": "address",
          "name": "fixedLender",
          "type": "address"
        }
      ],
      "name": "MarketListed",
      "type": "event"
    },
    {
      "anonymous": false,
      "inputs": [
        {
          "indexed": true,
          "internalType": "address",
          "name": "fixedLender",
          "type": "address"
        },
        {
          "indexed": false,
          "internalType": "uint256",
          "name": "newBorrowCap",
          "type": "uint256"
        }
      ],
      "name": "NewBorrowCap",
      "type": "event"
    },
    {
      "anonymous": false,
      "inputs": [
        {
          "indexed": true,
          "internalType": "address",
          "name": "fixedLender",
          "type": "address"
        },
        {
          "indexed": false,
          "internalType": "uint256",
          "name": "newCollateralFactor",
          "type": "uint256"
        }
      ],
      "name": "NewCollateralFactor",
      "type": "event"
    },
    {
      "anonymous": false,
      "inputs": [
        {
          "indexed": false,
          "internalType": "address",
          "name": "newOracle",
          "type": "address"
        }
      ],
      "name": "OracleChanged",
      "type": "event"
    },
    {
      "anonymous": false,
      "inputs": [
        {
          "indexed": true,
          "internalType": "bytes32",
          "name": "role",
          "type": "bytes32"
        },
        {
          "indexed": true,
          "internalType": "bytes32",
          "name": "previousAdminRole",
          "type": "bytes32"
        },
        {
          "indexed": true,
          "internalType": "bytes32",
          "name": "newAdminRole",
          "type": "bytes32"
        }
      ],
      "name": "RoleAdminChanged",
      "type": "event"
    },
    {
      "anonymous": false,
      "inputs": [
        {
          "indexed": true,
          "internalType": "bytes32",
          "name": "role",
          "type": "bytes32"
        },
        {
          "indexed": true,
          "internalType": "address",
          "name": "account",
          "type": "address"
        },
        {
          "indexed": true,
          "internalType": "address",
          "name": "sender",
          "type": "address"
        }
      ],
      "name": "RoleGranted",
      "type": "event"
    },
    {
      "anonymous": false,
      "inputs": [
        {
          "indexed": true,
          "internalType": "bytes32",
          "name": "role",
          "type": "bytes32"
        },
        {
          "indexed": true,
          "internalType": "address",
          "name": "account",
          "type": "address"
        },
        {
          "indexed": true,
          "internalType": "address",
          "name": "sender",
          "type": "address"
        }
      ],
      "name": "RoleRevoked",
      "type": "event"
    },
    {
      "inputs": [],
      "name": "DEFAULT_ADMIN_ROLE",
      "outputs": [
        {
          "internalType": "bytes32",
          "name": "",
          "type": "bytes32"
        }
      ],
      "stateMutability": "view",
      "type": "function"
    },
    {
      "inputs": [],
      "name": "closeFactor",
      "outputs": [
        {
          "internalType": "uint256",
          "name": "",
          "type": "uint256"
        }
      ],
      "stateMutability": "view",
      "type": "function"
    },
    {
      "inputs": [
        {
          "internalType": "address",
          "name": "fixedLender",
          "type": "address"
        },
        {
          "internalType": "uint256",
          "name": "collateralFactor",
          "type": "uint256"
        },
        {
          "internalType": "string",
          "name": "symbol",
          "type": "string"
        },
        {
          "internalType": "string",
          "name": "name",
          "type": "string"
        },
        {
          "internalType": "uint8",
          "name": "decimals",
          "type": "uint8"
        }
      ],
      "name": "enableMarket",
      "outputs": [],
      "stateMutability": "nonpayable",
      "type": "function"
    },
    {
      "inputs": [
        {
          "internalType": "address[]",
          "name": "fixedLenders",
          "type": "address[]"
        }
      ],
      "name": "enterMarkets",
      "outputs": [],
      "stateMutability": "nonpayable",
      "type": "function"
    },
    {
      "inputs": [
        {
          "internalType": "address",
          "name": "fixedLenderAddress",
          "type": "address"
        }
      ],
      "name": "exitMarket",
      "outputs": [],
      "stateMutability": "nonpayable",
      "type": "function"
    },
    {
      "inputs": [
        {
          "internalType": "address",
          "name": "account",
          "type": "address"
        }
      ],
      "name": "getAccountLiquidity",
      "outputs": [
        {
          "internalType": "uint256",
          "name": "",
          "type": "uint256"
        },
        {
          "internalType": "uint256",
          "name": "",
          "type": "uint256"
        }
      ],
      "stateMutability": "view",
      "type": "function"
    },
    {
      "inputs": [],
      "name": "getMarketAddresses",
      "outputs": [
        {
          "internalType": "address[]",
          "name": "",
          "type": "address[]"
        }
      ],
      "stateMutability": "view",
      "type": "function"
    },
    {
      "inputs": [
        {
          "internalType": "address",
          "name": "fixedLenderAddress",
          "type": "address"
        }
      ],
      "name": "getMarketData",
      "outputs": [
        {
          "internalType": "string",
          "name": "",
          "type": "string"
        },
        {
          "internalType": "string",
          "name": "",
          "type": "string"
        },
        {
          "internalType": "bool",
          "name": "",
          "type": "bool"
        },
        {
          "internalType": "uint256",
          "name": "",
          "type": "uint256"
        },
        {
          "internalType": "uint8",
          "name": "",
          "type": "uint8"
        },
        {
          "internalType": "address",
          "name": "",
          "type": "address"
        }
      ],
      "stateMutability": "view",
      "type": "function"
    },
    {
      "inputs": [
        {
          "internalType": "bytes32",
          "name": "role",
          "type": "bytes32"
        }
      ],
      "name": "getRoleAdmin",
      "outputs": [
        {
          "internalType": "bytes32",
          "name": "",
          "type": "bytes32"
        }
      ],
      "stateMutability": "view",
      "type": "function"
    },
    {
      "inputs": [
        {
          "internalType": "bytes32",
          "name": "role",
          "type": "bytes32"
        },
        {
          "internalType": "address",
          "name": "account",
          "type": "address"
        }
      ],
      "name": "grantRole",
      "outputs": [],
      "stateMutability": "nonpayable",
      "type": "function"
    },
    {
      "inputs": [
        {
          "internalType": "bytes32",
          "name": "role",
          "type": "bytes32"
        },
        {
          "internalType": "address",
          "name": "account",
          "type": "address"
        }
      ],
      "name": "hasRole",
      "outputs": [
        {
          "internalType": "bool",
          "name": "",
          "type": "bool"
        }
      ],
      "stateMutability": "view",
      "type": "function"
    },
    {
      "inputs": [
        {
          "internalType": "address",
          "name": "fixedLenderBorrowed",
          "type": "address"
        },
        {
          "internalType": "address",
          "name": "fixedLenderCollateral",
          "type": "address"
        },
        {
          "internalType": "address",
          "name": "liquidator",
          "type": "address"
        },
        {
          "internalType": "address",
          "name": "borrower",
          "type": "address"
        },
        {
          "internalType": "uint256",
          "name": "repayAmount",
          "type": "uint256"
        }
      ],
      "name": "liquidateAllowed",
      "outputs": [],
      "stateMutability": "view",
      "type": "function"
    },
    {
      "inputs": [
        {
          "internalType": "address",
          "name": "fixedLenderBorrowed",
          "type": "address"
        },
        {
          "internalType": "address",
          "name": "fixedLenderCollateral",
          "type": "address"
        },
        {
          "internalType": "uint256",
          "name": "actualRepayAmount",
          "type": "uint256"
        }
      ],
      "name": "liquidateCalculateSeizeAmount",
      "outputs": [
        {
          "internalType": "uint256",
          "name": "",
          "type": "uint256"
        }
      ],
      "stateMutability": "view",
      "type": "function"
    },
    {
      "inputs": [],
      "name": "liquidationIncentive",
      "outputs": [
        {
          "internalType": "uint256",
          "name": "",
          "type": "uint256"
        }
      ],
      "stateMutability": "view",
      "type": "function"
    },
    {
      "inputs": [
        {
          "internalType": "uint256",
          "name": "",
          "type": "uint256"
        }
      ],
      "name": "marketsAddresses",
      "outputs": [
        {
          "internalType": "address",
          "name": "",
          "type": "address"
        }
      ],
      "stateMutability": "view",
      "type": "function"
    },
    {
      "inputs": [],
      "name": "oracle",
      "outputs": [
        {
          "internalType": "contract IOracle",
          "name": "",
          "type": "address"
        }
      ],
      "stateMutability": "view",
      "type": "function"
    },
    {
      "inputs": [
        {
          "internalType": "bytes32",
          "name": "role",
          "type": "bytes32"
        },
        {
          "internalType": "address",
          "name": "account",
          "type": "address"
        }
      ],
      "name": "renounceRole",
      "outputs": [],
      "stateMutability": "nonpayable",
      "type": "function"
    },
    {
      "inputs": [
        {
          "internalType": "bytes32",
          "name": "role",
          "type": "bytes32"
        },
        {
          "internalType": "address",
          "name": "account",
          "type": "address"
        }
      ],
      "name": "revokeRole",
      "outputs": [],
      "stateMutability": "nonpayable",
      "type": "function"
    },
    {
      "inputs": [
        {
          "internalType": "address",
          "name": "fixedLenderCollateral",
          "type": "address"
        },
        {
          "internalType": "address",
          "name": "fixedLenderBorrowed",
          "type": "address"
        },
        {
          "internalType": "address",
          "name": "liquidator",
          "type": "address"
        },
        {
          "internalType": "address",
          "name": "borrower",
          "type": "address"
        }
      ],
      "name": "seizeAllowed",
      "outputs": [],
      "stateMutability": "view",
      "type": "function"
    },
    {
      "inputs": [
        {
          "internalType": "address",
          "name": "fixedLender",
          "type": "address"
        },
        {
          "internalType": "uint256",
          "name": "collateralFactor",
          "type": "uint256"
        }
      ],
      "name": "setCollateralFactor",
      "outputs": [],
      "stateMutability": "nonpayable",
      "type": "function"
    },
    {
      "inputs": [
        {
          "internalType": "uint256",
          "name": "_liquidationIncentive",
          "type": "uint256"
        }
      ],
      "name": "setLiquidationIncentive",
      "outputs": [],
      "stateMutability": "nonpayable",
      "type": "function"
    },
    {
      "inputs": [
        {
          "internalType": "address[]",
          "name": "fixedLenders",
          "type": "address[]"
        },
        {
          "internalType": "uint256[]",
          "name": "newBorrowCaps",
          "type": "uint256[]"
        }
      ],
      "name": "setMarketBorrowCaps",
      "outputs": [],
      "stateMutability": "nonpayable",
      "type": "function"
    },
    {
      "inputs": [
        {
          "internalType": "address",
          "name": "_priceOracleAddress",
          "type": "address"
        }
      ],
      "name": "setOracle",
      "outputs": [],
      "stateMutability": "nonpayable",
      "type": "function"
    },
    {
      "inputs": [
        {
          "internalType": "bytes4",
          "name": "interfaceId",
          "type": "bytes4"
        }
      ],
      "name": "supportsInterface",
      "outputs": [
        {
          "internalType": "bool",
          "name": "",
          "type": "bool"
        }
      ],
      "stateMutability": "view",
      "type": "function"
    },
    {
      "inputs": [
        {
          "internalType": "address",
          "name": "fixedLenderAddress",
          "type": "address"
        },
        {
          "internalType": "address",
          "name": "account",
          "type": "address"
        },
        {
          "internalType": "uint256",
          "name": "amount",
          "type": "uint256"
        }
      ],
      "name": "validateAccountShortfall",
      "outputs": [],
      "stateMutability": "view",
      "type": "function"
    },
    {
      "inputs": [
        {
          "internalType": "address",
          "name": "fixedLenderAddress",
          "type": "address"
        },
        {
          "internalType": "address",
          "name": "borrower",
          "type": "address"
        }
      ],
      "name": "validateBorrowMP",
      "outputs": [],
      "stateMutability": "nonpayable",
      "type": "function"
    }
  ],
  "transactionHash": "0x1fd466ba69b640f0943c104552cb001eee77244dc1adbda6bc569a3588c99d21",
  "args": [
    "0x76724199e6b1fd1E6E2C9B744Ee69D294f87D1a2"
  ],
  "numDeployments": 1,
  "solcInputHash": "b29e96ef9678c31f24803a302d5ef6ff",
  "bytecode": "0x60806040526706f05b59d3b20000600455670f43fc2c04ee00006005553480156200002957600080fd5b5060405162003d3c38038062003d3c83398181016040528101906200004f91906200023c565b80600760006101000a81548173ffffffffffffffffffffffffffffffffffffffff021916908373ffffffffffffffffffffffffffffffffffffffff160217905550620000a56000801b33620000ac60201b60201c565b50620002b6565b620000be8282620000c260201b60201c565b5050565b620000d48282620001b360201b60201c565b620001af57600160008084815260200190815260200160002060000160008373ffffffffffffffffffffffffffffffffffffffff1673ffffffffffffffffffffffffffffffffffffffff16815260200190815260200160002060006101000a81548160ff021916908315150217905550620001546200021d60201b60201c565b73ffffffffffffffffffffffffffffffffffffffff168173ffffffffffffffffffffffffffffffffffffffff16837f2f8788117e7eff1d82e926ec794901d17c78024a50270940304540a733656f0d60405160405180910390a45b5050565b600080600084815260200190815260200160002060000160008373ffffffffffffffffffffffffffffffffffffffff1673ffffffffffffffffffffffffffffffffffffffff16815260200190815260200160002060009054906101000a900460ff16905092915050565b600033905090565b60008151905062000236816200029c565b92915050565b6000602082840312156200024f57600080fd5b60006200025f8482850162000225565b91505092915050565b600062000275826200027c565b9050919050565b600073ffffffffffffffffffffffffffffffffffffffff82169050919050565b620002a78162000268565b8114620002b357600080fd5b50565b613a7680620002c66000396000f3fe608060405234801561001057600080fd5b506004361061018e5760003560e01c80638c765e94116100de578063a843108111610097578063c299823811610071578063c299823814610497578063d547741f146104b3578063eafe967b146104cf578063ede4edd0146104eb5761018e565b8063a84310811461042f578063b35dd5dd1461044b578063c04f31ff1461047b5761018e565b80638c765e941461035457806391d148541461037257806397ce0d31146103a25780639cbda20e146103c0578063a217fddf146103dc578063a30c302d146103fa5761018e565b806336568abe1161014b5780635ec88c79116101255780635ec88c79146102b95780635efadbd1146102ea5780637adbf9731461031a5780637dc0d1d0146103365761018e565b806336568abe146102655780635cf232e6146102815780635d0aef8d1461029d5761018e565b806301ffc9a71461019357806305308b9f146101c3578063144348d5146101e1578063186db48f146101fd578063248a9ca3146102195780632f2ff15d14610249575b600080fd5b6101ad60048036038101906101a89190612c55565b610507565b6040516101ba919061303d565b60405180910390f35b6101cb610581565b6040516101d89190613273565b60405180910390f35b6101fb60048036038101906101f691906128ee565b610587565b005b61021760048036038101906102129190612b7b565b610705565b005b610233600480360381019061022e9190612bf0565b6109a6565b6040516102409190613058565b60405180910390f35b610263600480360381019061025e9190612c19565b6109c5565b005b61027f600480360381019061027a9190612c19565b6109ee565b005b61029b60048036038101906102969190612a8f565b610a71565b005b6102b760048036038101906102b2919061298d565b610d27565b005b6102d360048036038101906102ce91906128c5565b611087565b6040516102e192919061328e565b60405180910390f35b61030460048036038101906102ff9190612a04565b61114a565b6040516103119190613273565b60405180910390f35b610334600480360381019061032f91906128c5565b611491565b005b61033e611522565b60405161034b9190613073565b60405180910390f35b61035c611548565b6040516103699190613273565b60405180910390f35b61038c60048036038101906103879190612c19565b61154e565b604051610399919061303d565b60405180910390f35b6103aa6115b8565b6040516103b7919061301b565b60405180910390f35b6103da60048036038101906103d59190612a04565b611646565b005b6103e46117e8565b6040516103f19190613058565b60405180910390f35b610414600480360381019061040f91906128c5565b6117ef565b604051610426969594939291906130cb565b60405180910390f35b61044960048036038101906104449190612ce8565b6119a7565b005b61046560048036038101906104609190612ce8565b6119c7565b6040516104729190612fd7565b60405180910390f35b61049560048036038101906104909190612a53565b611a06565b005b6104b160048036038101906104ac9190612b36565b611ab8565b005b6104cd60048036038101906104c89190612c19565b611bf5565b005b6104e960048036038101906104e4919061292a565b611c1e565b005b610505600480360381019061050091906128c5565b611d88565b005b60007f7965db0b000000000000000000000000000000000000000000000000000000007bffffffffffffffffffffffffffffffffffffffffffffffffffffffff1916827bffffffffffffffffffffffffffffffffffffffffffffffffffffffff1916148061057a575061057982611eed565b5b9050919050565b60045481565b61059082611f57565b60017373E77FD64707E19727650491b92Dc89E296880EA63fbb4331e909184846040518463ffffffff1660e01b81526004016105ce9392919061317a565b60006040518083038186803b1580156105e657600080fd5b505af41580156105fa573d6000803e3d6000fd5b50505050600060017373E77FD64707E19727650491b92Dc89E296880EA63c7c4db5c9091600760009054906101000a900473ffffffffffffffffffffffffffffffffffffffff1685876000806040518763ffffffff1660e01b8152600401610667969594939291906131b1565b604080518083038186803b15801561067e57600080fd5b505af4158015610692573d6000803e3d6000fd5b505050506040513d601f19601f820116820180604052508101906106b69190612d3a565b91505060008111156107005760056040517fede8a5990000000000000000000000000000000000000000000000000000000081526004016106f7919061308e565b60405180910390fd5b505050565b6000801b61071a81610715611fef565b611ff7565b6000858590509050600084849050905060008214806107395750808214155b1561077c57600f6040517fede8a599000000000000000000000000000000000000000000000000000000008152600401610773919061308e565b60405180910390fd5b60005b8281101561099c576107dd8888838181106107c3577f4e487b7100000000000000000000000000000000000000000000000000000000600052603260045260246000fd5b90506020020160208101906107d891906128c5565b611f57565b858582818110610816577f4e487b7100000000000000000000000000000000000000000000000000000000600052603260045260246000fd5b905060200201356001800160008a8a8581811061085c577f4e487b7100000000000000000000000000000000000000000000000000000000600052603260045260246000fd5b905060200201602081019061087191906128c5565b73ffffffffffffffffffffffffffffffffffffffff1673ffffffffffffffffffffffffffffffffffffffff168152602001908152602001600020819055508787828181106108e8577f4e487b7100000000000000000000000000000000000000000000000000000000600052603260045260246000fd5b90506020020160208101906108fd91906128c5565b73ffffffffffffffffffffffffffffffffffffffff167f6f1951b2aad10f3fc81b86d91105b413a5b3f847a34bbc5ce1904201b14438f687878481811061096d577f4e487b7100000000000000000000000000000000000000000000000000000000600052603260045260246000fd5b905060200201356040516109819190613273565b60405180910390a2808061099490613786565b91505061077f565b5050505050505050565b6000806000838152602001908152602001600020600101549050919050565b6109ce826109a6565b6109df816109da611fef565b611ff7565b6109e98383612094565b505050565b6109f6611fef565b73ffffffffffffffffffffffffffffffffffffffff168173ffffffffffffffffffffffffffffffffffffffff1614610a63576040517f08c379a0000000000000000000000000000000000000000000000000000000008152600401610a5a9061315a565b60405180910390fd5b610a6d8282612174565b5050565b6000801b610a8681610a81611fef565b611ff7565b6000600160000160008873ffffffffffffffffffffffffffffffffffffffff1673ffffffffffffffffffffffffffffffffffffffff16815260200190815260200160002090508060020160009054906101000a900460ff1615610b215760026040517fede8a599000000000000000000000000000000000000000000000000000000008152600401610b18919061308e565b60405180910390fd5b3073ffffffffffffffffffffffffffffffffffffffff168773ffffffffffffffffffffffffffffffffffffffff1663b72ddee96040518163ffffffff1660e01b815260040160206040518083038186803b158015610b7e57600080fd5b505afa158015610b92573d6000803e3d6000fd5b505050506040513d601f19601f82011682018060405250810190610bb69190612c7e565b73ffffffffffffffffffffffffffffffffffffffff1614610c0f5760076040517fede8a599000000000000000000000000000000000000000000000000000000008152600401610c06919061308e565b60405180910390fd5b60018160020160006101000a81548160ff02191690831515021790555085816003018190555084816000019080519060200190610c4d92919061262b565b5083816001019080519060200190610c6692919061262b565b50828160040160006101000a81548160ff021916908360ff1602179055506006879080600181540180825580915050600190039060005260206000200160009091909190916101000a81548173ffffffffffffffffffffffffffffffffffffffff021916908373ffffffffffffffffffffffffffffffffffffffff1602179055507fcf583bb0c569eb967f806b11601c4cb93c10310485c67add5f8362c2f212321f87604051610d169190612fd7565b60405180910390a150505050505050565b8273ffffffffffffffffffffffffffffffffffffffff168273ffffffffffffffffffffffffffffffffffffffff161415610d9957600d6040517fede8a599000000000000000000000000000000000000000000000000000000008152600401610d90919061308e565b60405180910390fd5b600160000160008673ffffffffffffffffffffffffffffffffffffffff1673ffffffffffffffffffffffffffffffffffffffff16815260200190815260200160002060020160009054906101000a900460ff161580610e485750600160000160008573ffffffffffffffffffffffffffffffffffffffff1673ffffffffffffffffffffffffffffffffffffffff16815260200190815260200160002060020160009054906101000a900460ff16155b15610e8b5760016040517fede8a599000000000000000000000000000000000000000000000000000000008152600401610e82919061308e565b60405180910390fd5b600060017373E77FD64707E19727650491b92Dc89E296880EA63c7c4db5c9091600760009054906101000a900473ffffffffffffffffffffffffffffffffffffffff168660008060006040518763ffffffff1660e01b8152600401610ef5969594939291906131b1565b604080518083038186803b158015610f0c57600080fd5b505af4158015610f20573d6000803e3d6000fd5b505050506040513d601f19601f82011682018060405250810190610f449190612d3a565b9150506000811415610f8e5760066040517fede8a599000000000000000000000000000000000000000000000000000000008152600401610f85919061308e565b60405180910390fd5b60008673ffffffffffffffffffffffffffffffffffffffff166355a1ac2e8560006040518363ffffffff1660e01b8152600401610fcc929190612ff2565b604080518083038186803b158015610fe357600080fd5b505afa158015610ff7573d6000803e3d6000fd5b505050506040513d601f19601f8201168201806040525081019061101b9190612d3a565b91505060006110358260045461225590919063ffffffff16565b90508084111561107d5760086040517fede8a599000000000000000000000000000000000000000000000000000000008152600401611074919061308e565b60405180910390fd5b5050505050505050565b60008060017373E77FD64707E19727650491b92Dc89E296880EA63c7c4db5c9091600760009054906101000a900473ffffffffffffffffffffffffffffffffffffffff168660008060006040518763ffffffff1660e01b81526004016110f2969594939291906131b1565b604080518083038186803b15801561110957600080fd5b505af415801561111d573d6000803e3d6000fd5b505050506040513d601f19601f820116820180604052508101906111419190612d3a565b91509150915091565b600080600760009054906101000a900473ffffffffffffffffffffffffffffffffffffffff1673ffffffffffffffffffffffffffffffffffffffff16632aedd0eb8673ffffffffffffffffffffffffffffffffffffffff166391f3e4726040518163ffffffff1660e01b815260040160006040518083038186803b1580156111d157600080fd5b505afa1580156111e5573d6000803e3d6000fd5b505050506040513d6000823e3d601f19601f8201168201806040525081019061120e9190612ca7565b6040518263ffffffff1660e01b815260040161122a91906130a9565b60206040518083038186803b15801561124257600080fd5b505afa158015611256573d6000803e3d6000fd5b505050506040513d601f19601f8201168201806040525081019061127a9190612d11565b90506000600760009054906101000a900473ffffffffffffffffffffffffffffffffffffffff1673ffffffffffffffffffffffffffffffffffffffff16632aedd0eb8673ffffffffffffffffffffffffffffffffffffffff166391f3e4726040518163ffffffff1660e01b815260040160006040518083038186803b15801561130257600080fd5b505afa158015611316573d6000803e3d6000fd5b505050506040513d6000823e3d601f19601f8201168201806040525081019061133f9190612ca7565b6040518263ffffffff1660e01b815260040161135b91906130a9565b60206040518083038186803b15801561137357600080fd5b505afa158015611387573d6000803e3d6000fd5b505050506040513d601f19601f820116820180604052508101906113ab9190612d11565b9050600061140c8584600160000160008b73ffffffffffffffffffffffffffffffffffffffff1673ffffffffffffffffffffffffffffffffffffffff16815260200190815260200160002060040160009054906101000a900460ff1661227e565b9050600061146d8284600160000160008b73ffffffffffffffffffffffffffffffffffffffff1673ffffffffffffffffffffffffffffffffffffffff16815260200190815260200160002060040160009054906101000a900460ff166122dd565b90506114846005548261225590919063ffffffff16565b9450505050509392505050565b6000801b6114a6816114a1611fef565b611ff7565b81600760006101000a81548173ffffffffffffffffffffffffffffffffffffffff021916908373ffffffffffffffffffffffffffffffffffffffff1602179055507f0e05ae75e8b926552cf6fcd744d19f422561e3ced1e426868730852702dbe418826040516115169190612fd7565b60405180910390a15050565b600760009054906101000a900473ffffffffffffffffffffffffffffffffffffffff1681565b60055481565b600080600084815260200190815260200160002060000160008373ffffffffffffffffffffffffffffffffffffffff1673ffffffffffffffffffffffffffffffffffffffff16815260200190815260200160002060009054906101000a900460ff16905092915050565b6060600680548060200260200160405190810160405280929190818152602001828054801561163c57602002820191906000526020600020905b8160009054906101000a900473ffffffffffffffffffffffffffffffffffffffff1673ffffffffffffffffffffffffffffffffffffffff16815260200190600101908083116115f2575b5050505050905090565b600160000160008473ffffffffffffffffffffffffffffffffffffffff1673ffffffffffffffffffffffffffffffffffffffff16815260200190815260200160002060050160008373ffffffffffffffffffffffffffffffffffffffff1673ffffffffffffffffffffffffffffffffffffffff16815260200190815260200160002060009054906101000a900460ff166116df576117e3565b600060017373E77FD64707E19727650491b92Dc89E296880EA63c7c4db5c9091600760009054906101000a900473ffffffffffffffffffffffffffffffffffffffff1686888760006040518763ffffffff1660e01b815260040161174896959493929190613212565b604080518083038186803b15801561175f57600080fd5b505af4158015611773573d6000803e3d6000fd5b505050506040513d601f19601f820116820180604052508101906117979190612d3a565b91505060008111156117e15760056040517fede8a5990000000000000000000000000000000000000000000000000000000081526004016117d8919061308e565b60405180910390fd5b505b505050565b6000801b81565b60608060008060008061180187611f57565b6000600160000160008973ffffffffffffffffffffffffffffffffffffffff1673ffffffffffffffffffffffffffffffffffffffff168152602001908152602001600020905080600001816001018260020160009054906101000a900460ff1683600301548460040160009054906101000a900460ff168c85805461188590613723565b80601f01602080910402602001604051908101604052809291908181526020018280546118b190613723565b80156118fe5780601f106118d3576101008083540402835291602001916118fe565b820191906000526020600020905b8154815290600101906020018083116118e157829003601f168201915b5050505050955084805461191190613723565b80601f016020809104026020016040519081016040528092919081815260200182805461193d90613723565b801561198a5780601f1061195f5761010080835404028352916020019161198a565b820191906000526020600020905b81548152906001019060200180831161196d57829003601f168201915b505050505094509650965096509650965096505091939550919395565b6000801b6119bc816119b7611fef565b611ff7565b816005819055505050565b600681815481106119d757600080fd5b906000526020600020016000915054906101000a900473ffffffffffffffffffffffffffffffffffffffff1681565b6000801b611a1b81611a16611fef565b611ff7565b81600160000160008573ffffffffffffffffffffffffffffffffffffffff1673ffffffffffffffffffffffffffffffffffffffff168152602001908152602001600020600301819055508273ffffffffffffffffffffffffffffffffffffffff167f46cab8d494e80b7c57b6490ccc1a5d13b11b7ae06b544fc99d7ee356221510cd83604051611aab9190613273565b60405180910390a2505050565b600082829050905060005b81811015611bef57611b21848483818110611b07577f4e487b7100000000000000000000000000000000000000000000000000000000600052603260045260246000fd5b9050602002016020810190611b1c91906128c5565b611f57565b60017373E77FD64707E19727650491b92Dc89E296880EA63a5234b429091868685818110611b78577f4e487b7100000000000000000000000000000000000000000000000000000000600052603260045260246000fd5b9050602002016020810190611b8d91906128c5565b336040518463ffffffff1660e01b8152600401611bac9392919061317a565b60006040518083038186803b158015611bc457600080fd5b505af4158015611bd8573d6000803e3d6000fd5b505050508080611be790613786565b915050611ac3565b50505050565b611bfe826109a6565b611c0f81611c0a611fef565b611ff7565b611c198383612174565b505050565b8173ffffffffffffffffffffffffffffffffffffffff168173ffffffffffffffffffffffffffffffffffffffff161415611c9057600d6040517fede8a599000000000000000000000000000000000000000000000000000000008152600401611c87919061308e565b60405180910390fd5b600160000160008573ffffffffffffffffffffffffffffffffffffffff1673ffffffffffffffffffffffffffffffffffffffff16815260200190815260200160002060020160009054906101000a900460ff161580611d3f5750600160000160008473ffffffffffffffffffffffffffffffffffffffff1673ffffffffffffffffffffffffffffffffffffffff16815260200190815260200160002060020160009054906101000a900460ff16155b15611d825760016040517fede8a599000000000000000000000000000000000000000000000000000000008152600401611d79919061308e565b60405180910390fd5b50505050565b611d9181611f57565b60008190506000808273ffffffffffffffffffffffffffffffffffffffff166355a1ac2e3360006040518363ffffffff1660e01b8152600401611dd5929190612ff2565b604080518083038186803b158015611dec57600080fd5b505afa158015611e00573d6000803e3d6000fd5b505050506040513d601f19601f82011682018060405250810190611e249190612d3a565b9150915060008114611e6e5760136040517fede8a599000000000000000000000000000000000000000000000000000000008152600401611e65919061308e565b60405180910390fd5b611e79843384611646565b60017373E77FD64707E19727650491b92Dc89E296880EA63ea5116dd909186336040518463ffffffff1660e01b8152600401611eb79392919061317a565b60006040518083038186803b158015611ecf57600080fd5b505af4158015611ee3573d6000803e3d6000fd5b5050505050505050565b60007f01ffc9a7000000000000000000000000000000000000000000000000000000007bffffffffffffffffffffffffffffffffffffffffffffffffffffffff1916827bffffffffffffffffffffffffffffffffffffffffffffffffffffffff1916149050919050565b600160000160008273ffffffffffffffffffffffffffffffffffffffff1673ffffffffffffffffffffffffffffffffffffffff16815260200190815260200160002060020160009054906101000a900460ff16611fec5760016040517fede8a599000000000000000000000000000000000000000000000000000000008152600401611fe3919061308e565b60405180910390fd5b50565b600033905090565b612001828261154e565b612090576120268173ffffffffffffffffffffffffffffffffffffffff166014612331565b6120348360001c6020612331565b604051602001612045929190612f9d565b6040516020818303038152906040526040517f08c379a000000000000000000000000000000000000000000000000000000000815260040161208791906130a9565b60405180910390fd5b5050565b61209e828261154e565b61217057600160008084815260200190815260200160002060000160008373ffffffffffffffffffffffffffffffffffffffff1673ffffffffffffffffffffffffffffffffffffffff16815260200190815260200160002060006101000a81548160ff021916908315150217905550612115611fef565b73ffffffffffffffffffffffffffffffffffffffff168173ffffffffffffffffffffffffffffffffffffffff16837f2f8788117e7eff1d82e926ec794901d17c78024a50270940304540a733656f0d60405160405180910390a45b5050565b61217e828261154e565b1561225157600080600084815260200190815260200160002060000160008373ffffffffffffffffffffffffffffffffffffffff1673ffffffffffffffffffffffffffffffffffffffff16815260200190815260200160002060006101000a81548160ff0219169083151502179055506121f6611fef565b73ffffffffffffffffffffffffffffffffffffffff168173ffffffffffffffffffffffffffffffffffffffff16837ff6391f5c32d9c69d2a47ea670b442974b53935d1edc7fd64eb21e047a839171b60405160405180910390a45b5050565b6000670de0b6b3a7640000828461226c9190613565565b61227691906133c3565b905092915050565b60008082600a61228e9190613447565b9050600081670de0b6b3a7640000876122a79190613565565b6122b191906133c3565b9050670de0b6b3a764000085826122c89190613565565b6122d291906133c3565b925050509392505050565b6000670de0b6b3a764000082600a6122f59190613447565b84670de0b6b3a76400008761230a9190613565565b61231491906133c3565b61231e9190613565565b61232891906133c3565b90509392505050565b6060600060028360026123449190613565565b61234e919061336d565b67ffffffffffffffff81111561238d577f4e487b7100000000000000000000000000000000000000000000000000000000600052604160045260246000fd5b6040519080825280601f01601f1916602001820160405280156123bf5781602001600182028036833780820191505090505b5090507f30000000000000000000000000000000000000000000000000000000000000008160008151811061241d577f4e487b7100000000000000000000000000000000000000000000000000000000600052603260045260246000fd5b60200101907effffffffffffffffffffffffffffffffffffffffffffffffffffffffffffff1916908160001a9053507f7800000000000000000000000000000000000000000000000000000000000000816001815181106124a7577f4e487b7100000000000000000000000000000000000000000000000000000000600052603260045260246000fd5b60200101907effffffffffffffffffffffffffffffffffffffffffffffffffffffffffffff1916908160001a905350600060018460026124e79190613565565b6124f1919061336d565b90505b60018111156125dd577f3031323334353637383961626364656600000000000000000000000000000000600f861660108110612559577f4e487b7100000000000000000000000000000000000000000000000000000000600052603260045260246000fd5b1a60f81b828281518110612596577f4e487b7100000000000000000000000000000000000000000000000000000000600052603260045260246000fd5b60200101907effffffffffffffffffffffffffffffffffffffffffffffffffffffffffffff1916908160001a905350600485901c9450806125d6906136f9565b90506124f4565b5060008414612621576040517f08c379a00000000000000000000000000000000000000000000000000000000081526004016126189061313a565b60405180910390fd5b8091505092915050565b82805461263790613723565b90600052602060002090601f01602090048101928261265957600085556126a0565b82601f1061267257805160ff19168380011785556126a0565b828001600101855582156126a0579182015b8281111561269f578251825591602001919060010190612684565b5b5090506126ad91906126b1565b5090565b5b808211156126ca5760008160009055506001016126b2565b5090565b60006126e16126dc846132dc565b6132b7565b9050828152602081018484840111156126f957600080fd5b6127048482856136b7565b509392505050565b600061271f61271a846132dc565b6132b7565b90508281526020810184848401111561273757600080fd5b6127428482856136c6565b509392505050565b600081359050612759816139b6565b92915050565b60008083601f84011261277157600080fd5b8235905067ffffffffffffffff81111561278a57600080fd5b6020830191508360208202830111156127a257600080fd5b9250929050565b60008083601f8401126127bb57600080fd5b8235905067ffffffffffffffff8111156127d457600080fd5b6020830191508360208202830111156127ec57600080fd5b9250929050565b600081359050612802816139cd565b92915050565b600081359050612817816139e4565b92915050565b60008151905061282c816139fb565b92915050565b600082601f83011261284357600080fd5b81356128538482602086016126ce565b91505092915050565b600082601f83011261286d57600080fd5b815161287d84826020860161270c565b91505092915050565b60008135905061289581613a12565b92915050565b6000815190506128aa81613a12565b92915050565b6000813590506128bf81613a29565b92915050565b6000602082840312156128d757600080fd5b60006128e58482850161274a565b91505092915050565b6000806040838503121561290157600080fd5b600061290f8582860161274a565b92505060206129208582860161274a565b9150509250929050565b6000806000806080858703121561294057600080fd5b600061294e8782880161274a565b945050602061295f8782880161274a565b93505060406129708782880161274a565b92505060606129818782880161274a565b91505092959194509250565b600080600080600060a086880312156129a557600080fd5b60006129b38882890161274a565b95505060206129c48882890161274a565b94505060406129d58882890161274a565b93505060606129e68882890161274a565b92505060806129f788828901612886565b9150509295509295909350565b600080600060608486031215612a1957600080fd5b6000612a278682870161274a565b9350506020612a388682870161274a565b9250506040612a4986828701612886565b9150509250925092565b60008060408385031215612a6657600080fd5b6000612a748582860161274a565b9250506020612a8585828601612886565b9150509250929050565b600080600080600060a08688031215612aa757600080fd5b6000612ab58882890161274a565b9550506020612ac688828901612886565b945050604086013567ffffffffffffffff811115612ae357600080fd5b612aef88828901612832565b935050606086013567ffffffffffffffff811115612b0c57600080fd5b612b1888828901612832565b9250506080612b29888289016128b0565b9150509295509295909350565b60008060208385031215612b4957600080fd5b600083013567ffffffffffffffff811115612b6357600080fd5b612b6f8582860161275f565b92509250509250929050565b60008060008060408587031215612b9157600080fd5b600085013567ffffffffffffffff811115612bab57600080fd5b612bb78782880161275f565b9450945050602085013567ffffffffffffffff811115612bd657600080fd5b612be2878288016127a9565b925092505092959194509250565b600060208284031215612c0257600080fd5b6000612c10848285016127f3565b91505092915050565b60008060408385031215612c2c57600080fd5b6000612c3a858286016127f3565b9250506020612c4b8582860161274a565b9150509250929050565b600060208284031215612c6757600080fd5b6000612c7584828501612808565b91505092915050565b600060208284031215612c9057600080fd5b6000612c9e8482850161281d565b91505092915050565b600060208284031215612cb957600080fd5b600082015167ffffffffffffffff811115612cd357600080fd5b612cdf8482850161285c565b91505092915050565b600060208284031215612cfa57600080fd5b6000612d0884828501612886565b91505092915050565b600060208284031215612d2357600080fd5b6000612d318482850161289b565b91505092915050565b60008060408385031215612d4d57600080fd5b6000612d5b8582860161289b565b9250506020612d6c8582860161289b565b9150509250929050565b6000612d828383612d8e565b60208301905092915050565b612d97816135bf565b82525050565b612da6816135bf565b82525050565b612db5816135bf565b82525050565b6000612dc68261331d565b612dd08185613340565b9350612ddb8361330d565b8060005b83811015612e0c578151612df38882612d76565b9750612dfe83613333565b925050600181019050612ddf565b5085935050505092915050565b612e22816135d1565b82525050565b612e31816135dd565b82525050565b612e408161366f565b82525050565b612e4f8161366f565b82525050565b612e5e81613693565b82525050565b612e6d816136a5565b82525050565b6000612e7e82613328565b612e888185613351565b9350612e988185602086016136c6565b612ea1816138ba565b840191505092915050565b6000612eb782613328565b612ec18185613362565b9350612ed18185602086016136c6565b80840191505092915050565b6000612eea602083613351565b9150612ef5826138d8565b602082019050919050565b6000612f0d601783613362565b9150612f1882613901565b601782019050919050565b6000612f30601183613362565b9150612f3b8261392a565b601182019050919050565b6000612f53602f83613351565b9150612f5e82613953565b604082019050919050565b8082525050565b612f7981613658565b82525050565b612f8881613658565b82525050565b612f9781613662565b82525050565b6000612fa882612f00565b9150612fb48285612eac565b9150612fbf82612f23565b9150612fcb8284612eac565b91508190509392505050565b6000602082019050612fec6000830184612d9d565b92915050565b60006040820190506130076000830185612d9d565b6130146020830184612f70565b9392505050565b600060208201905081810360008301526130358184612dbb565b905092915050565b60006020820190506130526000830184612e19565b92915050565b600060208201905061306d6000830184612e28565b92915050565b60006020820190506130886000830184612e37565b92915050565b60006020820190506130a36000830184612e55565b92915050565b600060208201905081810360008301526130c38184612e73565b905092915050565b600060c08201905081810360008301526130e58189612e73565b905081810360208301526130f98188612e73565b90506131086040830187612e19565b6131156060830186612f70565b6131226080830185612f8e565b61312f60a0830184612d9d565b979650505050505050565b6000602082019050818103600083015261315381612edd565b9050919050565b6000602082019050818103600083015261317381612f46565b9050919050565b600060608201905061318f6000830186612f69565b61319c6020830185612dac565b6131a96040830184612dac565b949350505050565b600060c0820190506131c66000830189612f69565b6131d36020830188612e46565b6131e06040830187612dac565b6131ed6060830186612dac565b6131fa6080830185612e64565b61320760a0830184612e64565b979650505050505050565b600060c0820190506132276000830189612f69565b6132346020830188612e46565b6132416040830187612dac565b61324e6060830186612dac565b61325b6080830185612f7f565b61326860a0830184612e64565b979650505050505050565b60006020820190506132886000830184612f70565b92915050565b60006040820190506132a36000830185612f70565b6132b06020830184612f70565b9392505050565b60006132c16132d2565b90506132cd8282613755565b919050565b6000604051905090565b600067ffffffffffffffff8211156132f7576132f661388b565b5b613300826138ba565b9050602081019050919050565b6000819050602082019050919050565b600081519050919050565b600081519050919050565b6000602082019050919050565b600082825260208201905092915050565b600082825260208201905092915050565b600081905092915050565b600061337882613658565b915061338383613658565b9250827fffffffffffffffffffffffffffffffffffffffffffffffffffffffffffffffff038211156133b8576133b76137cf565b5b828201905092915050565b60006133ce82613658565b91506133d983613658565b9250826133e9576133e86137fe565b5b828204905092915050565b6000808291508390505b600185111561343e5780860481111561341a576134196137cf565b5b60018516156134295780820291505b8081029050613437856138cb565b94506133fe565b94509492505050565b600061345282613658565b915061345d83613662565b925061348a7fffffffffffffffffffffffffffffffffffffffffffffffffffffffffffffffff8484613492565b905092915050565b6000826134a2576001905061355e565b816134b0576000905061355e565b81600181146134c657600281146134d0576134ff565b600191505061355e565b60ff8411156134e2576134e16137cf565b5b8360020a9150848211156134f9576134f86137cf565b5b5061355e565b5060208310610133831016604e8410600b84101617156135345782820a90508381111561352f5761352e6137cf565b5b61355e565b61354184848460016133f4565b92509050818404811115613558576135576137cf565b5b81810290505b9392505050565b600061357082613658565b915061357b83613658565b9250817fffffffffffffffffffffffffffffffffffffffffffffffffffffffffffffffff04831182151516156135b4576135b36137cf565b5b828202905092915050565b60006135ca82613638565b9050919050565b60008115159050919050565b6000819050919050565b60007fffffffff0000000000000000000000000000000000000000000000000000000082169050919050565b600061361e826135bf565b9050919050565b6000819050613633826139a2565b919050565b600073ffffffffffffffffffffffffffffffffffffffff82169050919050565b6000819050919050565b600060ff82169050919050565b600061367a82613681565b9050919050565b600061368c82613638565b9050919050565b600061369e82613625565b9050919050565b60006136b082613658565b9050919050565b82818337600083830152505050565b60005b838110156136e45780820151818401526020810190506136c9565b838111156136f3576000848401525b50505050565b600061370482613658565b91506000821415613718576137176137cf565b5b600182039050919050565b6000600282049050600182168061373b57607f821691505b6020821081141561374f5761374e61385c565b5b50919050565b61375e826138ba565b810181811067ffffffffffffffff8211171561377d5761377c61388b565b5b80604052505050565b600061379182613658565b91507fffffffffffffffffffffffffffffffffffffffffffffffffffffffffffffffff8214156137c4576137c36137cf565b5b600182019050919050565b7f4e487b7100000000000000000000000000000000000000000000000000000000600052601160045260246000fd5b7f4e487b7100000000000000000000000000000000000000000000000000000000600052601260045260246000fd5b7f4e487b7100000000000000000000000000000000000000000000000000000000600052602160045260246000fd5b7f4e487b7100000000000000000000000000000000000000000000000000000000600052602260045260246000fd5b7f4e487b7100000000000000000000000000000000000000000000000000000000600052604160045260246000fd5b6000601f19601f8301169050919050565b60008160011c9050919050565b7f537472696e67733a20686578206c656e67746820696e73756666696369656e74600082015250565b7f416363657373436f6e74726f6c3a206163636f756e7420000000000000000000600082015250565b7f206973206d697373696e6720726f6c6520000000000000000000000000000000600082015250565b7f416363657373436f6e74726f6c3a2063616e206f6e6c792072656e6f756e636560008201527f20726f6c657320666f722073656c660000000000000000000000000000000000602082015250565b601c81106139b3576139b261382d565b5b50565b6139bf816135bf565b81146139ca57600080fd5b50565b6139d6816135dd565b81146139e157600080fd5b50565b6139ed816135e7565b81146139f857600080fd5b50565b613a0481613613565b8114613a0f57600080fd5b50565b613a1b81613658565b8114613a2657600080fd5b50565b613a3281613662565b8114613a3d57600080fd5b5056fea264697066735822122056f0b9e324d32cb00fc60ef2e016a4660d338b978ad55bd810f3ceed7155f79c64736f6c63430008040033",
  "deployedBytecode": "0x608060405234801561001057600080fd5b506004361061018e5760003560e01c80638c765e94116100de578063a843108111610097578063c299823811610071578063c299823814610497578063d547741f146104b3578063eafe967b146104cf578063ede4edd0146104eb5761018e565b8063a84310811461042f578063b35dd5dd1461044b578063c04f31ff1461047b5761018e565b80638c765e941461035457806391d148541461037257806397ce0d31146103a25780639cbda20e146103c0578063a217fddf146103dc578063a30c302d146103fa5761018e565b806336568abe1161014b5780635ec88c79116101255780635ec88c79146102b95780635efadbd1146102ea5780637adbf9731461031a5780637dc0d1d0146103365761018e565b806336568abe146102655780635cf232e6146102815780635d0aef8d1461029d5761018e565b806301ffc9a71461019357806305308b9f146101c3578063144348d5146101e1578063186db48f146101fd578063248a9ca3146102195780632f2ff15d14610249575b600080fd5b6101ad60048036038101906101a89190612c55565b610507565b6040516101ba919061303d565b60405180910390f35b6101cb610581565b6040516101d89190613273565b60405180910390f35b6101fb60048036038101906101f691906128ee565b610587565b005b61021760048036038101906102129190612b7b565b610705565b005b610233600480360381019061022e9190612bf0565b6109a6565b6040516102409190613058565b60405180910390f35b610263600480360381019061025e9190612c19565b6109c5565b005b61027f600480360381019061027a9190612c19565b6109ee565b005b61029b60048036038101906102969190612a8f565b610a71565b005b6102b760048036038101906102b2919061298d565b610d27565b005b6102d360048036038101906102ce91906128c5565b611087565b6040516102e192919061328e565b60405180910390f35b61030460048036038101906102ff9190612a04565b61114a565b6040516103119190613273565b60405180910390f35b610334600480360381019061032f91906128c5565b611491565b005b61033e611522565b60405161034b9190613073565b60405180910390f35b61035c611548565b6040516103699190613273565b60405180910390f35b61038c60048036038101906103879190612c19565b61154e565b604051610399919061303d565b60405180910390f35b6103aa6115b8565b6040516103b7919061301b565b60405180910390f35b6103da60048036038101906103d59190612a04565b611646565b005b6103e46117e8565b6040516103f19190613058565b60405180910390f35b610414600480360381019061040f91906128c5565b6117ef565b604051610426969594939291906130cb565b60405180910390f35b61044960048036038101906104449190612ce8565b6119a7565b005b61046560048036038101906104609190612ce8565b6119c7565b6040516104729190612fd7565b60405180910390f35b61049560048036038101906104909190612a53565b611a06565b005b6104b160048036038101906104ac9190612b36565b611ab8565b005b6104cd60048036038101906104c89190612c19565b611bf5565b005b6104e960048036038101906104e4919061292a565b611c1e565b005b610505600480360381019061050091906128c5565b611d88565b005b60007f7965db0b000000000000000000000000000000000000000000000000000000007bffffffffffffffffffffffffffffffffffffffffffffffffffffffff1916827bffffffffffffffffffffffffffffffffffffffffffffffffffffffff1916148061057a575061057982611eed565b5b9050919050565b60045481565b61059082611f57565b600173__$a5e3e26db51d661f8cd2686e868ae9d1a5$__63fbb4331e909184846040518463ffffffff1660e01b81526004016105ce9392919061317a565b60006040518083038186803b1580156105e657600080fd5b505af41580156105fa573d6000803e3d6000fd5b505050506000600173__$a5e3e26db51d661f8cd2686e868ae9d1a5$__63c7c4db5c9091600760009054906101000a900473ffffffffffffffffffffffffffffffffffffffff1685876000806040518763ffffffff1660e01b8152600401610667969594939291906131b1565b604080518083038186803b15801561067e57600080fd5b505af4158015610692573d6000803e3d6000fd5b505050506040513d601f19601f820116820180604052508101906106b69190612d3a565b91505060008111156107005760056040517fede8a5990000000000000000000000000000000000000000000000000000000081526004016106f7919061308e565b60405180910390fd5b505050565b6000801b61071a81610715611fef565b611ff7565b6000858590509050600084849050905060008214806107395750808214155b1561077c57600f6040517fede8a599000000000000000000000000000000000000000000000000000000008152600401610773919061308e565b60405180910390fd5b60005b8281101561099c576107dd8888838181106107c3577f4e487b7100000000000000000000000000000000000000000000000000000000600052603260045260246000fd5b90506020020160208101906107d891906128c5565b611f57565b858582818110610816577f4e487b7100000000000000000000000000000000000000000000000000000000600052603260045260246000fd5b905060200201356001800160008a8a8581811061085c577f4e487b7100000000000000000000000000000000000000000000000000000000600052603260045260246000fd5b905060200201602081019061087191906128c5565b73ffffffffffffffffffffffffffffffffffffffff1673ffffffffffffffffffffffffffffffffffffffff168152602001908152602001600020819055508787828181106108e8577f4e487b7100000000000000000000000000000000000000000000000000000000600052603260045260246000fd5b90506020020160208101906108fd91906128c5565b73ffffffffffffffffffffffffffffffffffffffff167f6f1951b2aad10f3fc81b86d91105b413a5b3f847a34bbc5ce1904201b14438f687878481811061096d577f4e487b7100000000000000000000000000000000000000000000000000000000600052603260045260246000fd5b905060200201356040516109819190613273565b60405180910390a2808061099490613786565b91505061077f565b5050505050505050565b6000806000838152602001908152602001600020600101549050919050565b6109ce826109a6565b6109df816109da611fef565b611ff7565b6109e98383612094565b505050565b6109f6611fef565b73ffffffffffffffffffffffffffffffffffffffff168173ffffffffffffffffffffffffffffffffffffffff1614610a63576040517f08c379a0000000000000000000000000000000000000000000000000000000008152600401610a5a9061315a565b60405180910390fd5b610a6d8282612174565b5050565b6000801b610a8681610a81611fef565b611ff7565b6000600160000160008873ffffffffffffffffffffffffffffffffffffffff1673ffffffffffffffffffffffffffffffffffffffff16815260200190815260200160002090508060020160009054906101000a900460ff1615610b215760026040517fede8a599000000000000000000000000000000000000000000000000000000008152600401610b18919061308e565b60405180910390fd5b3073ffffffffffffffffffffffffffffffffffffffff168773ffffffffffffffffffffffffffffffffffffffff1663b72ddee96040518163ffffffff1660e01b815260040160206040518083038186803b158015610b7e57600080fd5b505afa158015610b92573d6000803e3d6000fd5b505050506040513d601f19601f82011682018060405250810190610bb69190612c7e565b73ffffffffffffffffffffffffffffffffffffffff1614610c0f5760076040517fede8a599000000000000000000000000000000000000000000000000000000008152600401610c06919061308e565b60405180910390fd5b60018160020160006101000a81548160ff02191690831515021790555085816003018190555084816000019080519060200190610c4d92919061262b565b5083816001019080519060200190610c6692919061262b565b50828160040160006101000a81548160ff021916908360ff1602179055506006879080600181540180825580915050600190039060005260206000200160009091909190916101000a81548173ffffffffffffffffffffffffffffffffffffffff021916908373ffffffffffffffffffffffffffffffffffffffff1602179055507fcf583bb0c569eb967f806b11601c4cb93c10310485c67add5f8362c2f212321f87604051610d169190612fd7565b60405180910390a150505050505050565b8273ffffffffffffffffffffffffffffffffffffffff168273ffffffffffffffffffffffffffffffffffffffff161415610d9957600d6040517fede8a599000000000000000000000000000000000000000000000000000000008152600401610d90919061308e565b60405180910390fd5b600160000160008673ffffffffffffffffffffffffffffffffffffffff1673ffffffffffffffffffffffffffffffffffffffff16815260200190815260200160002060020160009054906101000a900460ff161580610e485750600160000160008573ffffffffffffffffffffffffffffffffffffffff1673ffffffffffffffffffffffffffffffffffffffff16815260200190815260200160002060020160009054906101000a900460ff16155b15610e8b5760016040517fede8a599000000000000000000000000000000000000000000000000000000008152600401610e82919061308e565b60405180910390fd5b6000600173__$a5e3e26db51d661f8cd2686e868ae9d1a5$__63c7c4db5c9091600760009054906101000a900473ffffffffffffffffffffffffffffffffffffffff168660008060006040518763ffffffff1660e01b8152600401610ef5969594939291906131b1565b604080518083038186803b158015610f0c57600080fd5b505af4158015610f20573d6000803e3d6000fd5b505050506040513d601f19601f82011682018060405250810190610f449190612d3a565b9150506000811415610f8e5760066040517fede8a599000000000000000000000000000000000000000000000000000000008152600401610f85919061308e565b60405180910390fd5b60008673ffffffffffffffffffffffffffffffffffffffff166355a1ac2e8560006040518363ffffffff1660e01b8152600401610fcc929190612ff2565b604080518083038186803b158015610fe357600080fd5b505afa158015610ff7573d6000803e3d6000fd5b505050506040513d601f19601f8201168201806040525081019061101b9190612d3a565b91505060006110358260045461225590919063ffffffff16565b90508084111561107d5760086040517fede8a599000000000000000000000000000000000000000000000000000000008152600401611074919061308e565b60405180910390fd5b5050505050505050565b600080600173__$a5e3e26db51d661f8cd2686e868ae9d1a5$__63c7c4db5c9091600760009054906101000a900473ffffffffffffffffffffffffffffffffffffffff168660008060006040518763ffffffff1660e01b81526004016110f2969594939291906131b1565b604080518083038186803b15801561110957600080fd5b505af415801561111d573d6000803e3d6000fd5b505050506040513d601f19601f820116820180604052508101906111419190612d3a565b91509150915091565b600080600760009054906101000a900473ffffffffffffffffffffffffffffffffffffffff1673ffffffffffffffffffffffffffffffffffffffff16632aedd0eb8673ffffffffffffffffffffffffffffffffffffffff166391f3e4726040518163ffffffff1660e01b815260040160006040518083038186803b1580156111d157600080fd5b505afa1580156111e5573d6000803e3d6000fd5b505050506040513d6000823e3d601f19601f8201168201806040525081019061120e9190612ca7565b6040518263ffffffff1660e01b815260040161122a91906130a9565b60206040518083038186803b15801561124257600080fd5b505afa158015611256573d6000803e3d6000fd5b505050506040513d601f19601f8201168201806040525081019061127a9190612d11565b90506000600760009054906101000a900473ffffffffffffffffffffffffffffffffffffffff1673ffffffffffffffffffffffffffffffffffffffff16632aedd0eb8673ffffffffffffffffffffffffffffffffffffffff166391f3e4726040518163ffffffff1660e01b815260040160006040518083038186803b15801561130257600080fd5b505afa158015611316573d6000803e3d6000fd5b505050506040513d6000823e3d601f19601f8201168201806040525081019061133f9190612ca7565b6040518263ffffffff1660e01b815260040161135b91906130a9565b60206040518083038186803b15801561137357600080fd5b505afa158015611387573d6000803e3d6000fd5b505050506040513d601f19601f820116820180604052508101906113ab9190612d11565b9050600061140c8584600160000160008b73ffffffffffffffffffffffffffffffffffffffff1673ffffffffffffffffffffffffffffffffffffffff16815260200190815260200160002060040160009054906101000a900460ff1661227e565b9050600061146d8284600160000160008b73ffffffffffffffffffffffffffffffffffffffff1673ffffffffffffffffffffffffffffffffffffffff16815260200190815260200160002060040160009054906101000a900460ff166122dd565b90506114846005548261225590919063ffffffff16565b9450505050509392505050565b6000801b6114a6816114a1611fef565b611ff7565b81600760006101000a81548173ffffffffffffffffffffffffffffffffffffffff021916908373ffffffffffffffffffffffffffffffffffffffff1602179055507f0e05ae75e8b926552cf6fcd744d19f422561e3ced1e426868730852702dbe418826040516115169190612fd7565b60405180910390a15050565b600760009054906101000a900473ffffffffffffffffffffffffffffffffffffffff1681565b60055481565b600080600084815260200190815260200160002060000160008373ffffffffffffffffffffffffffffffffffffffff1673ffffffffffffffffffffffffffffffffffffffff16815260200190815260200160002060009054906101000a900460ff16905092915050565b6060600680548060200260200160405190810160405280929190818152602001828054801561163c57602002820191906000526020600020905b8160009054906101000a900473ffffffffffffffffffffffffffffffffffffffff1673ffffffffffffffffffffffffffffffffffffffff16815260200190600101908083116115f2575b5050505050905090565b600160000160008473ffffffffffffffffffffffffffffffffffffffff1673ffffffffffffffffffffffffffffffffffffffff16815260200190815260200160002060050160008373ffffffffffffffffffffffffffffffffffffffff1673ffffffffffffffffffffffffffffffffffffffff16815260200190815260200160002060009054906101000a900460ff166116df576117e3565b6000600173__$a5e3e26db51d661f8cd2686e868ae9d1a5$__63c7c4db5c9091600760009054906101000a900473ffffffffffffffffffffffffffffffffffffffff1686888760006040518763ffffffff1660e01b815260040161174896959493929190613212565b604080518083038186803b15801561175f57600080fd5b505af4158015611773573d6000803e3d6000fd5b505050506040513d601f19601f820116820180604052508101906117979190612d3a565b91505060008111156117e15760056040517fede8a5990000000000000000000000000000000000000000000000000000000081526004016117d8919061308e565b60405180910390fd5b505b505050565b6000801b81565b60608060008060008061180187611f57565b6000600160000160008973ffffffffffffffffffffffffffffffffffffffff1673ffffffffffffffffffffffffffffffffffffffff168152602001908152602001600020905080600001816001018260020160009054906101000a900460ff1683600301548460040160009054906101000a900460ff168c85805461188590613723565b80601f01602080910402602001604051908101604052809291908181526020018280546118b190613723565b80156118fe5780601f106118d3576101008083540402835291602001916118fe565b820191906000526020600020905b8154815290600101906020018083116118e157829003601f168201915b5050505050955084805461191190613723565b80601f016020809104026020016040519081016040528092919081815260200182805461193d90613723565b801561198a5780601f1061195f5761010080835404028352916020019161198a565b820191906000526020600020905b81548152906001019060200180831161196d57829003601f168201915b505050505094509650965096509650965096505091939550919395565b6000801b6119bc816119b7611fef565b611ff7565b816005819055505050565b600681815481106119d757600080fd5b906000526020600020016000915054906101000a900473ffffffffffffffffffffffffffffffffffffffff1681565b6000801b611a1b81611a16611fef565b611ff7565b81600160000160008573ffffffffffffffffffffffffffffffffffffffff1673ffffffffffffffffffffffffffffffffffffffff168152602001908152602001600020600301819055508273ffffffffffffffffffffffffffffffffffffffff167f46cab8d494e80b7c57b6490ccc1a5d13b11b7ae06b544fc99d7ee356221510cd83604051611aab9190613273565b60405180910390a2505050565b600082829050905060005b81811015611bef57611b21848483818110611b07577f4e487b7100000000000000000000000000000000000000000000000000000000600052603260045260246000fd5b9050602002016020810190611b1c91906128c5565b611f57565b600173__$a5e3e26db51d661f8cd2686e868ae9d1a5$__63a5234b429091868685818110611b78577f4e487b7100000000000000000000000000000000000000000000000000000000600052603260045260246000fd5b9050602002016020810190611b8d91906128c5565b336040518463ffffffff1660e01b8152600401611bac9392919061317a565b60006040518083038186803b158015611bc457600080fd5b505af4158015611bd8573d6000803e3d6000fd5b505050508080611be790613786565b915050611ac3565b50505050565b611bfe826109a6565b611c0f81611c0a611fef565b611ff7565b611c198383612174565b505050565b8173ffffffffffffffffffffffffffffffffffffffff168173ffffffffffffffffffffffffffffffffffffffff161415611c9057600d6040517fede8a599000000000000000000000000000000000000000000000000000000008152600401611c87919061308e565b60405180910390fd5b600160000160008573ffffffffffffffffffffffffffffffffffffffff1673ffffffffffffffffffffffffffffffffffffffff16815260200190815260200160002060020160009054906101000a900460ff161580611d3f5750600160000160008473ffffffffffffffffffffffffffffffffffffffff1673ffffffffffffffffffffffffffffffffffffffff16815260200190815260200160002060020160009054906101000a900460ff16155b15611d825760016040517fede8a599000000000000000000000000000000000000000000000000000000008152600401611d79919061308e565b60405180910390fd5b50505050565b611d9181611f57565b60008190506000808273ffffffffffffffffffffffffffffffffffffffff166355a1ac2e3360006040518363ffffffff1660e01b8152600401611dd5929190612ff2565b604080518083038186803b158015611dec57600080fd5b505afa158015611e00573d6000803e3d6000fd5b505050506040513d601f19601f82011682018060405250810190611e249190612d3a565b9150915060008114611e6e5760136040517fede8a599000000000000000000000000000000000000000000000000000000008152600401611e65919061308e565b60405180910390fd5b611e79843384611646565b600173__$a5e3e26db51d661f8cd2686e868ae9d1a5$__63ea5116dd909186336040518463ffffffff1660e01b8152600401611eb79392919061317a565b60006040518083038186803b158015611ecf57600080fd5b505af4158015611ee3573d6000803e3d6000fd5b5050505050505050565b60007f01ffc9a7000000000000000000000000000000000000000000000000000000007bffffffffffffffffffffffffffffffffffffffffffffffffffffffff1916827bffffffffffffffffffffffffffffffffffffffffffffffffffffffff1916149050919050565b600160000160008273ffffffffffffffffffffffffffffffffffffffff1673ffffffffffffffffffffffffffffffffffffffff16815260200190815260200160002060020160009054906101000a900460ff16611fec5760016040517fede8a599000000000000000000000000000000000000000000000000000000008152600401611fe3919061308e565b60405180910390fd5b50565b600033905090565b612001828261154e565b612090576120268173ffffffffffffffffffffffffffffffffffffffff166014612331565b6120348360001c6020612331565b604051602001612045929190612f9d565b6040516020818303038152906040526040517f08c379a000000000000000000000000000000000000000000000000000000000815260040161208791906130a9565b60405180910390fd5b5050565b61209e828261154e565b61217057600160008084815260200190815260200160002060000160008373ffffffffffffffffffffffffffffffffffffffff1673ffffffffffffffffffffffffffffffffffffffff16815260200190815260200160002060006101000a81548160ff021916908315150217905550612115611fef565b73ffffffffffffffffffffffffffffffffffffffff168173ffffffffffffffffffffffffffffffffffffffff16837f2f8788117e7eff1d82e926ec794901d17c78024a50270940304540a733656f0d60405160405180910390a45b5050565b61217e828261154e565b1561225157600080600084815260200190815260200160002060000160008373ffffffffffffffffffffffffffffffffffffffff1673ffffffffffffffffffffffffffffffffffffffff16815260200190815260200160002060006101000a81548160ff0219169083151502179055506121f6611fef565b73ffffffffffffffffffffffffffffffffffffffff168173ffffffffffffffffffffffffffffffffffffffff16837ff6391f5c32d9c69d2a47ea670b442974b53935d1edc7fd64eb21e047a839171b60405160405180910390a45b5050565b6000670de0b6b3a7640000828461226c9190613565565b61227691906133c3565b905092915050565b60008082600a61228e9190613447565b9050600081670de0b6b3a7640000876122a79190613565565b6122b191906133c3565b9050670de0b6b3a764000085826122c89190613565565b6122d291906133c3565b925050509392505050565b6000670de0b6b3a764000082600a6122f59190613447565b84670de0b6b3a76400008761230a9190613565565b61231491906133c3565b61231e9190613565565b61232891906133c3565b90509392505050565b6060600060028360026123449190613565565b61234e919061336d565b67ffffffffffffffff81111561238d577f4e487b7100000000000000000000000000000000000000000000000000000000600052604160045260246000fd5b6040519080825280601f01601f1916602001820160405280156123bf5781602001600182028036833780820191505090505b5090507f30000000000000000000000000000000000000000000000000000000000000008160008151811061241d577f4e487b7100000000000000000000000000000000000000000000000000000000600052603260045260246000fd5b60200101907effffffffffffffffffffffffffffffffffffffffffffffffffffffffffffff1916908160001a9053507f7800000000000000000000000000000000000000000000000000000000000000816001815181106124a7577f4e487b7100000000000000000000000000000000000000000000000000000000600052603260045260246000fd5b60200101907effffffffffffffffffffffffffffffffffffffffffffffffffffffffffffff1916908160001a905350600060018460026124e79190613565565b6124f1919061336d565b90505b60018111156125dd577f3031323334353637383961626364656600000000000000000000000000000000600f861660108110612559577f4e487b7100000000000000000000000000000000000000000000000000000000600052603260045260246000fd5b1a60f81b828281518110612596577f4e487b7100000000000000000000000000000000000000000000000000000000600052603260045260246000fd5b60200101907effffffffffffffffffffffffffffffffffffffffffffffffffffffffffffff1916908160001a905350600485901c9450806125d6906136f9565b90506124f4565b5060008414612621576040517f08c379a00000000000000000000000000000000000000000000000000000000081526004016126189061313a565b60405180910390fd5b8091505092915050565b82805461263790613723565b90600052602060002090601f01602090048101928261265957600085556126a0565b82601f1061267257805160ff19168380011785556126a0565b828001600101855582156126a0579182015b8281111561269f578251825591602001919060010190612684565b5b5090506126ad91906126b1565b5090565b5b808211156126ca5760008160009055506001016126b2565b5090565b60006126e16126dc846132dc565b6132b7565b9050828152602081018484840111156126f957600080fd5b6127048482856136b7565b509392505050565b600061271f61271a846132dc565b6132b7565b90508281526020810184848401111561273757600080fd5b6127428482856136c6565b509392505050565b600081359050612759816139b6565b92915050565b60008083601f84011261277157600080fd5b8235905067ffffffffffffffff81111561278a57600080fd5b6020830191508360208202830111156127a257600080fd5b9250929050565b60008083601f8401126127bb57600080fd5b8235905067ffffffffffffffff8111156127d457600080fd5b6020830191508360208202830111156127ec57600080fd5b9250929050565b600081359050612802816139cd565b92915050565b600081359050612817816139e4565b92915050565b60008151905061282c816139fb565b92915050565b600082601f83011261284357600080fd5b81356128538482602086016126ce565b91505092915050565b600082601f83011261286d57600080fd5b815161287d84826020860161270c565b91505092915050565b60008135905061289581613a12565b92915050565b6000815190506128aa81613a12565b92915050565b6000813590506128bf81613a29565b92915050565b6000602082840312156128d757600080fd5b60006128e58482850161274a565b91505092915050565b6000806040838503121561290157600080fd5b600061290f8582860161274a565b92505060206129208582860161274a565b9150509250929050565b6000806000806080858703121561294057600080fd5b600061294e8782880161274a565b945050602061295f8782880161274a565b93505060406129708782880161274a565b92505060606129818782880161274a565b91505092959194509250565b600080600080600060a086880312156129a557600080fd5b60006129b38882890161274a565b95505060206129c48882890161274a565b94505060406129d58882890161274a565b93505060606129e68882890161274a565b92505060806129f788828901612886565b9150509295509295909350565b600080600060608486031215612a1957600080fd5b6000612a278682870161274a565b9350506020612a388682870161274a565b9250506040612a4986828701612886565b9150509250925092565b60008060408385031215612a6657600080fd5b6000612a748582860161274a565b9250506020612a8585828601612886565b9150509250929050565b600080600080600060a08688031215612aa757600080fd5b6000612ab58882890161274a565b9550506020612ac688828901612886565b945050604086013567ffffffffffffffff811115612ae357600080fd5b612aef88828901612832565b935050606086013567ffffffffffffffff811115612b0c57600080fd5b612b1888828901612832565b9250506080612b29888289016128b0565b9150509295509295909350565b60008060208385031215612b4957600080fd5b600083013567ffffffffffffffff811115612b6357600080fd5b612b6f8582860161275f565b92509250509250929050565b60008060008060408587031215612b9157600080fd5b600085013567ffffffffffffffff811115612bab57600080fd5b612bb78782880161275f565b9450945050602085013567ffffffffffffffff811115612bd657600080fd5b612be2878288016127a9565b925092505092959194509250565b600060208284031215612c0257600080fd5b6000612c10848285016127f3565b91505092915050565b60008060408385031215612c2c57600080fd5b6000612c3a858286016127f3565b9250506020612c4b8582860161274a565b9150509250929050565b600060208284031215612c6757600080fd5b6000612c7584828501612808565b91505092915050565b600060208284031215612c9057600080fd5b6000612c9e8482850161281d565b91505092915050565b600060208284031215612cb957600080fd5b600082015167ffffffffffffffff811115612cd357600080fd5b612cdf8482850161285c565b91505092915050565b600060208284031215612cfa57600080fd5b6000612d0884828501612886565b91505092915050565b600060208284031215612d2357600080fd5b6000612d318482850161289b565b91505092915050565b60008060408385031215612d4d57600080fd5b6000612d5b8582860161289b565b9250506020612d6c8582860161289b565b9150509250929050565b6000612d828383612d8e565b60208301905092915050565b612d97816135bf565b82525050565b612da6816135bf565b82525050565b612db5816135bf565b82525050565b6000612dc68261331d565b612dd08185613340565b9350612ddb8361330d565b8060005b83811015612e0c578151612df38882612d76565b9750612dfe83613333565b925050600181019050612ddf565b5085935050505092915050565b612e22816135d1565b82525050565b612e31816135dd565b82525050565b612e408161366f565b82525050565b612e4f8161366f565b82525050565b612e5e81613693565b82525050565b612e6d816136a5565b82525050565b6000612e7e82613328565b612e888185613351565b9350612e988185602086016136c6565b612ea1816138ba565b840191505092915050565b6000612eb782613328565b612ec18185613362565b9350612ed18185602086016136c6565b80840191505092915050565b6000612eea602083613351565b9150612ef5826138d8565b602082019050919050565b6000612f0d601783613362565b9150612f1882613901565b601782019050919050565b6000612f30601183613362565b9150612f3b8261392a565b601182019050919050565b6000612f53602f83613351565b9150612f5e82613953565b604082019050919050565b8082525050565b612f7981613658565b82525050565b612f8881613658565b82525050565b612f9781613662565b82525050565b6000612fa882612f00565b9150612fb48285612eac565b9150612fbf82612f23565b9150612fcb8284612eac565b91508190509392505050565b6000602082019050612fec6000830184612d9d565b92915050565b60006040820190506130076000830185612d9d565b6130146020830184612f70565b9392505050565b600060208201905081810360008301526130358184612dbb565b905092915050565b60006020820190506130526000830184612e19565b92915050565b600060208201905061306d6000830184612e28565b92915050565b60006020820190506130886000830184612e37565b92915050565b60006020820190506130a36000830184612e55565b92915050565b600060208201905081810360008301526130c38184612e73565b905092915050565b600060c08201905081810360008301526130e58189612e73565b905081810360208301526130f98188612e73565b90506131086040830187612e19565b6131156060830186612f70565b6131226080830185612f8e565b61312f60a0830184612d9d565b979650505050505050565b6000602082019050818103600083015261315381612edd565b9050919050565b6000602082019050818103600083015261317381612f46565b9050919050565b600060608201905061318f6000830186612f69565b61319c6020830185612dac565b6131a96040830184612dac565b949350505050565b600060c0820190506131c66000830189612f69565b6131d36020830188612e46565b6131e06040830187612dac565b6131ed6060830186612dac565b6131fa6080830185612e64565b61320760a0830184612e64565b979650505050505050565b600060c0820190506132276000830189612f69565b6132346020830188612e46565b6132416040830187612dac565b61324e6060830186612dac565b61325b6080830185612f7f565b61326860a0830184612e64565b979650505050505050565b60006020820190506132886000830184612f70565b92915050565b60006040820190506132a36000830185612f70565b6132b06020830184612f70565b9392505050565b60006132c16132d2565b90506132cd8282613755565b919050565b6000604051905090565b600067ffffffffffffffff8211156132f7576132f661388b565b5b613300826138ba565b9050602081019050919050565b6000819050602082019050919050565b600081519050919050565b600081519050919050565b6000602082019050919050565b600082825260208201905092915050565b600082825260208201905092915050565b600081905092915050565b600061337882613658565b915061338383613658565b9250827fffffffffffffffffffffffffffffffffffffffffffffffffffffffffffffffff038211156133b8576133b76137cf565b5b828201905092915050565b60006133ce82613658565b91506133d983613658565b9250826133e9576133e86137fe565b5b828204905092915050565b6000808291508390505b600185111561343e5780860481111561341a576134196137cf565b5b60018516156134295780820291505b8081029050613437856138cb565b94506133fe565b94509492505050565b600061345282613658565b915061345d83613662565b925061348a7fffffffffffffffffffffffffffffffffffffffffffffffffffffffffffffffff8484613492565b905092915050565b6000826134a2576001905061355e565b816134b0576000905061355e565b81600181146134c657600281146134d0576134ff565b600191505061355e565b60ff8411156134e2576134e16137cf565b5b8360020a9150848211156134f9576134f86137cf565b5b5061355e565b5060208310610133831016604e8410600b84101617156135345782820a90508381111561352f5761352e6137cf565b5b61355e565b61354184848460016133f4565b92509050818404811115613558576135576137cf565b5b81810290505b9392505050565b600061357082613658565b915061357b83613658565b9250817fffffffffffffffffffffffffffffffffffffffffffffffffffffffffffffffff04831182151516156135b4576135b36137cf565b5b828202905092915050565b60006135ca82613638565b9050919050565b60008115159050919050565b6000819050919050565b60007fffffffff0000000000000000000000000000000000000000000000000000000082169050919050565b600061361e826135bf565b9050919050565b6000819050613633826139a2565b919050565b600073ffffffffffffffffffffffffffffffffffffffff82169050919050565b6000819050919050565b600060ff82169050919050565b600061367a82613681565b9050919050565b600061368c82613638565b9050919050565b600061369e82613625565b9050919050565b60006136b082613658565b9050919050565b82818337600083830152505050565b60005b838110156136e45780820151818401526020810190506136c9565b838111156136f3576000848401525b50505050565b600061370482613658565b91506000821415613718576137176137cf565b5b600182039050919050565b6000600282049050600182168061373b57607f821691505b6020821081141561374f5761374e61385c565b5b50919050565b61375e826138ba565b810181811067ffffffffffffffff8211171561377d5761377c61388b565b5b80604052505050565b600061379182613658565b91507fffffffffffffffffffffffffffffffffffffffffffffffffffffffffffffffff8214156137c4576137c36137cf565b5b600182019050919050565b7f4e487b7100000000000000000000000000000000000000000000000000000000600052601160045260246000fd5b7f4e487b7100000000000000000000000000000000000000000000000000000000600052601260045260246000fd5b7f4e487b7100000000000000000000000000000000000000000000000000000000600052602160045260246000fd5b7f4e487b7100000000000000000000000000000000000000000000000000000000600052602260045260246000fd5b7f4e487b7100000000000000000000000000000000000000000000000000000000600052604160045260246000fd5b6000601f19601f8301169050919050565b60008160011c9050919050565b7f537472696e67733a20686578206c656e67746820696e73756666696369656e74600082015250565b7f416363657373436f6e74726f6c3a206163636f756e7420000000000000000000600082015250565b7f206973206d697373696e6720726f6c6520000000000000000000000000000000600082015250565b7f416363657373436f6e74726f6c3a2063616e206f6e6c792072656e6f756e636560008201527f20726f6c657320666f722073656c660000000000000000000000000000000000602082015250565b601c81106139b3576139b261382d565b5b50565b6139bf816135bf565b81146139ca57600080fd5b50565b6139d6816135dd565b81146139e157600080fd5b50565b6139ed816135e7565b81146139f857600080fd5b50565b613a0481613613565b8114613a0f57600080fd5b50565b613a1b81613658565b8114613a2657600080fd5b50565b613a3281613662565b8114613a3d57600080fd5b5056fea264697066735822122056f0b9e324d32cb00fc60ef2e016a4660d338b978ad55bd810f3ceed7155f79c64736f6c63430008040033",
  "libraries": {
    "MarketsLib": "0x73E77FD64707E19727650491b92Dc89E296880EA",
    "DecimalMath": "0xC2ca02660Fe270aA11Ee1649AE024F9825f08C17"
  },
  "devdoc": {
    "events": {
      "MarketEntered(address,address)": {
        "params": {
          "account": "address of the user that just entered a market",
          "fixedLender": "address of the market that the user entered"
        }
      },
      "MarketExited(address,address)": {
        "params": {
          "account": "address of the user that just left a market",
          "fixedLender": "address of the market that the user just left"
        }
      },
      "MarketListed(address)": {
        "params": {
          "fixedLender": "address of the fixedLender market that it was listed"
        }
      },
      "NewBorrowCap(address,uint256)": {
        "params": {
          "fixedLender": "address of the lender that has a new borrow cap",
          "newBorrowCap": "new borrow cap expressed with 1e18 precision for the given market.                     0 = means no cap"
        }
      },
      "NewCollateralFactor(address,uint256)": {
        "params": {
          "fixedLender": "address of the market that has a new collateral factor.",
          "newCollateralFactor": "collateral factor for the underlying asset."
        }
      },
      "OracleChanged(address)": {
        "params": {
          "newOracle": "address of the new oracle that is used to calculate liquidity"
        }
      }
    },
    "kind": "dev",
    "methods": {
      "enableMarket(address,uint256,string,string,uint8)": {
        "details": "Function to enable a certain FixedLender market",
        "params": {
          "collateralFactor": "fixedLender's collateral factor for the underlying asset",
          "decimals": "decimals of the market's underlying asset",
          "fixedLender": "address to add to the protocol",
          "name": "name of the market's underlying asset",
          "symbol": "symbol of the market's underlying asset"
        }
      },
      "enterMarkets(address[])": {
        "details": "Allows wallet to enter certain markets (fixedLenderDAI, fixedLenderETH, etc)      By performing this action, the wallet's money could be used as collateral",
        "params": {
          "fixedLenders": "contracts addresses to enable for `msg.sender`"
        }
      },
      "exitMarket(address)": {
        "details": "Sender must not have an outstanding borrow balance in the asset,      or be providing necessary collateral for an outstanding borrow.",
        "params": {
          "fixedLenderAddress": "The address of the asset to be removed"
        }
      },
      "getAccountLiquidity(address)": {
        "details": "Function to get account's liquidity",
        "params": {
          "account": "wallet to retrieve liquidity"
        }
      },
      "getMarketAddresses()": {
        "details": "Function to retrieve all markets"
      },
      "getMarketData(address)": {
        "details": "Given a fixedLender address, it returns the corresponding market data",
        "params": {
          "fixedLenderAddress": "Address of the contract where we are getting the data"
        }
      },
      "getRoleAdmin(bytes32)": {
        "details": "Returns the admin role that controls `role`. See {grantRole} and {revokeRole}. To change a role's admin, use {_setRoleAdmin}."
      },
      "grantRole(bytes32,address)": {
        "details": "Grants `role` to `account`. If `account` had not been already granted `role`, emits a {RoleGranted} event. Requirements: - the caller must have ``role``'s admin role."
      },
      "hasRole(bytes32,address)": {
        "details": "Returns `true` if `account` has been granted `role`."
      },
      "liquidateAllowed(address,address,address,address,uint256)": {
        "details": "Function to allow/reject liquidation of assets. This function can be called      externally, but only will have effect when called from a fixedLender.",
        "params": {
          "borrower": "address which the assets are being liquidated",
          "fixedLenderBorrowed": "market from where the debt is pending",
          "fixedLenderCollateral": "market where the assets will be liquidated (should be msg.sender on FixedLender.sol)",
          "liquidator": "address that is liquidating the assets",
          "repayAmount": "amount to be repaid from the debt (outstanding debt * close factor should be bigger than this value)"
        }
      },
      "liquidateCalculateSeizeAmount(address,address,uint256)": {
        "details": "Function to calculate the amount of assets to be seized      - when a position is undercollaterized it should be repaid and this functions calculates the        amount of collateral to be seized",
        "params": {
          "actualRepayAmount": "repay amount in the borrowed asset",
          "fixedLenderBorrowed": "market from where the debt is pending",
          "fixedLenderCollateral": "market where the assets will be liquidated (should be msg.sender on FixedLender.sol)"
        }
      },
      "renounceRole(bytes32,address)": {
        "details": "Revokes `role` from the calling account. Roles are often managed via {grantRole} and {revokeRole}: this function's purpose is to provide a mechanism for accounts to lose their privileges if they are compromised (such as when a trusted device is misplaced). If the calling account had been revoked `role`, emits a {RoleRevoked} event. Requirements: - the caller must be `account`."
      },
      "revokeRole(bytes32,address)": {
        "details": "Revokes `role` from `account`. If `account` had been granted `role`, emits a {RoleRevoked} event. Requirements: - the caller must have ``role``'s admin role."
      },
      "seizeAllowed(address,address,address,address)": {
        "details": "Function to allow/reject seizing of assets. This function can be called      externally, but only will have effect when called from a fixedLender.",
        "params": {
          "borrower": "address to validate where the assets will be removed",
          "fixedLenderBorrowed": "market from where the debt will be paid",
          "fixedLenderCollateral": "market where the assets will be seized (should be msg.sender on FixedLender.sol)",
          "liquidator": "address to validate where the seized assets will be received"
        }
      },
      "setCollateralFactor(address,uint256)": {
        "params": {
          "collateralFactor": "collateral factor for the underlying asset.",
          "fixedLender": "address of the market to change collateral factor for."
        }
      },
      "setLiquidationIncentive(uint256)": {
        "params": {
          "_liquidationIncentive": "new liquidation incentive. It's a factor, so 15% would be 1.15e18"
        }
      },
      "setMarketBorrowCaps(address[],uint256[])": {
        "params": {
          "fixedLenders": "The addresses of the markets (tokens) to change the borrow caps for",
          "newBorrowCaps": "The new borrow cap values in underlying to be set. A value of 0 corresponds to unlimited borrowing."
        }
      },
      "setOracle(address)": {
        "details": "Function to set Oracle's to be used",
        "params": {
          "_priceOracleAddress": "address of the new oracle"
        }
      },
      "supportsInterface(bytes4)": {
        "details": "See {IERC165-supportsInterface}."
      },
      "validateAccountShortfall(address,address,uint256)": {
        "details": "Function to be called before someone wants to interact with its smart pool position.      This function checks if the user has no outstanding debts.      This function is called indirectly from fixedLender contracts(withdraw), eToken transfers and directly from      this contract when the user wants to exit a market.",
        "params": {
          "account": "address of the user to check for possible shortfall",
          "amount": "amount that the user wants to withdraw or transfer",
          "fixedLenderAddress": "address of the fixedLender where the smart pool belongs"
        }
      },
      "validateBorrowMP(address,address)": {
        "details": "Hook function to be called after calling the poolAccounting borrowMP function. Validates      that the current state of the position and system are valid (liquidity)",
        "params": {
          "borrower": "address of the user that will borrow money from a maturity date",
          "fixedLenderAddress": "address of the fixedLender that will lend money in a maturity"
        }
      }
    },
    "version": 1
  },
  "userdoc": {
    "events": {
      "MarketEntered(address,address)": {
        "notice": "Event emitted when a user enters a market to use his deposit as collateral         for a loan"
      },
      "MarketExited(address,address)": {
        "notice": "Event emitted when a user leaves a market. This means that he would stop using         his deposit as collateral and it won't ask for any loans in this market"
      },
      "MarketListed(address)": {
        "notice": "Event emitted when a new market is listed for borrow/lending"
      },
      "NewBorrowCap(address,uint256)": {
        "notice": "Event emitted when a new borrow cap has been set for a certain fixedLender         If newBorrowCap is 0, that means that there's no cap"
      },
      "NewCollateralFactor(address,uint256)": {
        "notice": "emitted when a collateral factor is changed by admin."
      },
      "OracleChanged(address)": {
        "notice": "Event emitted when a new Oracle has been set"
      }
    },
    "kind": "user",
    "methods": {
      "exitMarket(address)": {
        "notice": "Removes fixedLender from sender's account liquidity calculation"
      },
      "setCollateralFactor(address,uint256)": {
        "notice": "sets the collateral factor for a certain fixedLender."
      },
      "setLiquidationIncentive(uint256)": {
        "notice": "Set liquidation incentive for the whole ecosystem"
      },
      "setMarketBorrowCaps(address[],uint256[])": {
        "notice": "Set the given borrow caps for the given fixedLender markets. Borrowing that brings total borrows to or above borrow cap will revert."
      }
    },
    "version": 1
  },
  "storageLayout": {
    "storage": [
      {
        "astId": 24,
        "contract": "contracts/Auditor.sol:Auditor",
        "label": "_roles",
        "offset": 0,
        "slot": "0",
        "type": "t_mapping(t_bytes32,t_struct(RoleData)19_storage)"
      },
      {
        "astId": 3583,
        "contract": "contracts/Auditor.sol:Auditor",
        "label": "book",
        "offset": 0,
        "slot": "1",
        "type": "t_struct(Book)9431_storage"
      },
      {
        "astId": 3586,
        "contract": "contracts/Auditor.sol:Auditor",
        "label": "closeFactor",
        "offset": 0,
        "slot": "4",
        "type": "t_uint256"
      },
      {
        "astId": 3591,
        "contract": "contracts/Auditor.sol:Auditor",
        "label": "liquidationIncentive",
        "offset": 0,
        "slot": "5",
        "type": "t_uint256"
      },
      {
        "astId": 3594,
        "contract": "contracts/Auditor.sol:Auditor",
        "label": "marketsAddresses",
        "offset": 0,
        "slot": "6",
        "type": "t_array(t_address)dyn_storage"
      },
      {
        "astId": 3597,
        "contract": "contracts/Auditor.sol:Auditor",
        "label": "oracle",
        "offset": 0,
        "slot": "7",
        "type": "t_contract(IOracle)9078"
      }
    ],
    "types": {
      "t_address": {
        "encoding": "inplace",
        "label": "address",
        "numberOfBytes": "20"
      },
      "t_array(t_address)dyn_storage": {
        "base": "t_address",
        "encoding": "dynamic_array",
        "label": "address[]",
        "numberOfBytes": "32"
      },
      "t_array(t_contract(IFixedLender)9030)dyn_storage": {
        "base": "t_contract(IFixedLender)9030",
        "encoding": "dynamic_array",
        "label": "contract IFixedLender[]",
        "numberOfBytes": "32"
      },
      "t_bool": {
        "encoding": "inplace",
        "label": "bool",
        "numberOfBytes": "1"
      },
      "t_bytes32": {
        "encoding": "inplace",
        "label": "bytes32",
        "numberOfBytes": "32"
      },
      "t_contract(IFixedLender)9030": {
        "encoding": "inplace",
        "label": "contract IFixedLender",
        "numberOfBytes": "20"
      },
      "t_contract(IOracle)9078": {
        "encoding": "inplace",
        "label": "contract IOracle",
        "numberOfBytes": "20"
      },
      "t_mapping(t_address,t_array(t_contract(IFixedLender)9030)dyn_storage)": {
        "encoding": "mapping",
        "key": "t_address",
        "label": "mapping(address => contract IFixedLender[])",
        "numberOfBytes": "32",
        "value": "t_array(t_contract(IFixedLender)9030)dyn_storage"
      },
      "t_mapping(t_address,t_bool)": {
        "encoding": "mapping",
        "key": "t_address",
        "label": "mapping(address => bool)",
        "numberOfBytes": "32",
        "value": "t_bool"
      },
      "t_mapping(t_address,t_struct(Market)9446_storage)": {
        "encoding": "mapping",
        "key": "t_address",
        "label": "mapping(address => struct MarketsLib.Market)",
        "numberOfBytes": "32",
        "value": "t_struct(Market)9446_storage"
      },
      "t_mapping(t_address,t_uint256)": {
        "encoding": "mapping",
        "key": "t_address",
        "label": "mapping(address => uint256)",
        "numberOfBytes": "32",
        "value": "t_uint256"
      },
      "t_mapping(t_bytes32,t_struct(RoleData)19_storage)": {
        "encoding": "mapping",
        "key": "t_bytes32",
        "label": "mapping(bytes32 => struct AccessControl.RoleData)",
        "numberOfBytes": "32",
        "value": "t_struct(RoleData)19_storage"
      },
      "t_string_storage": {
        "encoding": "bytes",
        "label": "string",
        "numberOfBytes": "32"
      },
      "t_struct(Book)9431_storage": {
        "encoding": "inplace",
        "label": "struct MarketsLib.Book",
        "members": [
          {
            "astId": 9420,
            "contract": "contracts/Auditor.sol:Auditor",
            "label": "markets",
            "offset": 0,
            "slot": "0",
            "type": "t_mapping(t_address,t_struct(Market)9446_storage)"
          },
          {
            "astId": 9424,
            "contract": "contracts/Auditor.sol:Auditor",
            "label": "borrowCaps",
            "offset": 0,
            "slot": "1",
            "type": "t_mapping(t_address,t_uint256)"
          },
          {
            "astId": 9430,
            "contract": "contracts/Auditor.sol:Auditor",
            "label": "accountAssets",
            "offset": 0,
            "slot": "2",
            "type": "t_mapping(t_address,t_array(t_contract(IFixedLender)9030)dyn_storage)"
          }
        ],
        "numberOfBytes": "96"
      },
      "t_struct(Market)9446_storage": {
        "encoding": "inplace",
        "label": "struct MarketsLib.Market",
        "members": [
          {
            "astId": 9433,
            "contract": "contracts/Auditor.sol:Auditor",
            "label": "symbol",
            "offset": 0,
            "slot": "0",
            "type": "t_string_storage"
          },
          {
            "astId": 9435,
            "contract": "contracts/Auditor.sol:Auditor",
            "label": "name",
            "offset": 0,
            "slot": "1",
            "type": "t_string_storage"
          },
          {
            "astId": 9437,
            "contract": "contracts/Auditor.sol:Auditor",
            "label": "isListed",
            "offset": 0,
            "slot": "2",
            "type": "t_bool"
          },
          {
            "astId": 9439,
            "contract": "contracts/Auditor.sol:Auditor",
            "label": "collateralFactor",
            "offset": 0,
            "slot": "3",
            "type": "t_uint256"
          },
          {
            "astId": 9441,
            "contract": "contracts/Auditor.sol:Auditor",
            "label": "decimals",
            "offset": 0,
            "slot": "4",
            "type": "t_uint8"
          },
          {
            "astId": 9445,
            "contract": "contracts/Auditor.sol:Auditor",
            "label": "accountMembership",
            "offset": 0,
            "slot": "5",
            "type": "t_mapping(t_address,t_bool)"
          }
        ],
        "numberOfBytes": "192"
      },
      "t_struct(RoleData)19_storage": {
        "encoding": "inplace",
        "label": "struct AccessControl.RoleData",
        "members": [
          {
            "astId": 16,
            "contract": "contracts/Auditor.sol:Auditor",
            "label": "members",
            "offset": 0,
            "slot": "0",
            "type": "t_mapping(t_address,t_bool)"
          },
          {
            "astId": 18,
            "contract": "contracts/Auditor.sol:Auditor",
            "label": "adminRole",
            "offset": 0,
            "slot": "1",
            "type": "t_bytes32"
          }
        ],
        "numberOfBytes": "64"
      },
      "t_uint256": {
        "encoding": "inplace",
        "label": "uint256",
        "numberOfBytes": "32"
      },
      "t_uint8": {
        "encoding": "inplace",
        "label": "uint8",
        "numberOfBytes": "1"
      }
    }
  }
}