{
  "address": "0xF52F1358B522c1ca4c03CDf49c9FC9436beC5482",
  "abi": [
    {
      "inputs": [
        {
          "internalType": "string",
          "name": "_name",
          "type": "string"
        },
        {
          "internalType": "string",
          "name": "_symbol",
          "type": "string"
        },
        {
          "internalType": "uint8",
          "name": "_decimals",
          "type": "uint8"
        }
      ],
      "stateMutability": "nonpayable",
      "type": "constructor"
    },
    {
      "inputs": [
        {
          "internalType": "enum ErrorCode",
          "name": "error",
          "type": "uint8"
        }
      ],
      "name": "GenericError",
      "type": "error"
    },
    {
      "anonymous": false,
      "inputs": [
        {
          "indexed": true,
          "internalType": "address",
          "name": "owner",
          "type": "address"
        },
        {
          "indexed": true,
          "internalType": "address",
          "name": "spender",
          "type": "address"
        },
        {
          "indexed": false,
          "internalType": "uint256",
          "name": "value",
          "type": "uint256"
        }
      ],
      "name": "Approval",
      "type": "event"
    },
    {
      "anonymous": false,
      "inputs": [
        {
          "indexed": false,
          "internalType": "uint256",
          "name": "amount",
          "type": "uint256"
        }
      ],
      "name": "EarningsAccrued",
      "type": "event"
    },
    {
      "anonymous": false,
      "inputs": [
        {
          "indexed": true,
          "internalType": "address",
          "name": "fixedLender",
          "type": "address"
        },
        {
          "indexed": true,
          "internalType": "address",
          "name": "auditor",
          "type": "address"
        }
      ],
      "name": "Initialized",
      "type": "event"
    },
    {
      "anonymous": false,
      "inputs": [
        {
          "indexed": true,
          "internalType": "bytes32",
          "name": "role",
          "type": "bytes32"
        },
        {
          "indexed": true,
          "internalType": "bytes32",
          "name": "previousAdminRole",
          "type": "bytes32"
        },
        {
          "indexed": true,
          "internalType": "bytes32",
          "name": "newAdminRole",
          "type": "bytes32"
        }
      ],
      "name": "RoleAdminChanged",
      "type": "event"
    },
    {
      "anonymous": false,
      "inputs": [
        {
          "indexed": true,
          "internalType": "bytes32",
          "name": "role",
          "type": "bytes32"
        },
        {
          "indexed": true,
          "internalType": "address",
          "name": "account",
          "type": "address"
        },
        {
          "indexed": true,
          "internalType": "address",
          "name": "sender",
          "type": "address"
        }
      ],
      "name": "RoleGranted",
      "type": "event"
    },
    {
      "anonymous": false,
      "inputs": [
        {
          "indexed": true,
          "internalType": "bytes32",
          "name": "role",
          "type": "bytes32"
        },
        {
          "indexed": true,
          "internalType": "address",
          "name": "account",
          "type": "address"
        },
        {
          "indexed": true,
          "internalType": "address",
          "name": "sender",
          "type": "address"
        }
      ],
      "name": "RoleRevoked",
      "type": "event"
    },
    {
      "anonymous": false,
      "inputs": [
        {
          "indexed": true,
          "internalType": "address",
          "name": "from",
          "type": "address"
        },
        {
          "indexed": true,
          "internalType": "address",
          "name": "to",
          "type": "address"
        },
        {
          "indexed": false,
          "internalType": "uint256",
          "name": "value",
          "type": "uint256"
        }
      ],
      "name": "Transfer",
      "type": "event"
    },
    {
      "inputs": [],
      "name": "DEFAULT_ADMIN_ROLE",
      "outputs": [
        {
          "internalType": "bytes32",
          "name": "",
          "type": "bytes32"
        }
      ],
      "stateMutability": "view",
      "type": "function"
    },
    {
      "inputs": [
        {
          "internalType": "uint256",
          "name": "amount",
          "type": "uint256"
        }
      ],
      "name": "accrueEarnings",
      "outputs": [],
      "stateMutability": "nonpayable",
      "type": "function"
    },
    {
      "inputs": [
        {
          "internalType": "address",
          "name": "owner",
          "type": "address"
        },
        {
          "internalType": "address",
          "name": "spender",
          "type": "address"
        }
      ],
      "name": "allowance",
      "outputs": [
        {
          "internalType": "uint256",
          "name": "",
          "type": "uint256"
        }
      ],
      "stateMutability": "view",
      "type": "function"
    },
    {
      "inputs": [
        {
          "internalType": "address",
          "name": "spender",
          "type": "address"
        },
        {
          "internalType": "uint256",
          "name": "amount",
          "type": "uint256"
        }
      ],
      "name": "approve",
      "outputs": [
        {
          "internalType": "bool",
          "name": "",
          "type": "bool"
        }
      ],
      "stateMutability": "nonpayable",
      "type": "function"
    },
    {
      "inputs": [],
      "name": "auditor",
      "outputs": [
        {
          "internalType": "contract IAuditor",
          "name": "",
          "type": "address"
        }
      ],
      "stateMutability": "view",
      "type": "function"
    },
    {
      "inputs": [
        {
          "internalType": "address",
          "name": "account",
          "type": "address"
        }
      ],
      "name": "balanceOf",
      "outputs": [
        {
          "internalType": "uint256",
          "name": "",
          "type": "uint256"
        }
      ],
      "stateMutability": "view",
      "type": "function"
    },
    {
      "inputs": [
        {
          "internalType": "address",
          "name": "user",
          "type": "address"
        },
        {
          "internalType": "uint256",
          "name": "amount",
          "type": "uint256"
        }
      ],
      "name": "burn",
      "outputs": [],
      "stateMutability": "nonpayable",
      "type": "function"
    },
    {
      "inputs": [],
      "name": "decimals",
      "outputs": [
        {
          "internalType": "uint8",
          "name": "",
          "type": "uint8"
        }
      ],
      "stateMutability": "view",
      "type": "function"
    },
    {
      "inputs": [
        {
          "internalType": "address",
          "name": "spender",
          "type": "address"
        },
        {
          "internalType": "uint256",
          "name": "subtractedValue",
          "type": "uint256"
        }
      ],
      "name": "decreaseAllowance",
      "outputs": [
        {
          "internalType": "bool",
          "name": "",
          "type": "bool"
        }
      ],
      "stateMutability": "nonpayable",
      "type": "function"
    },
    {
      "inputs": [],
      "name": "fixedLender",
      "outputs": [
        {
          "internalType": "contract IFixedLender",
          "name": "",
          "type": "address"
        }
      ],
      "stateMutability": "view",
      "type": "function"
    },
    {
      "inputs": [
        {
          "internalType": "bytes32",
          "name": "role",
          "type": "bytes32"
        }
      ],
      "name": "getRoleAdmin",
      "outputs": [
        {
          "internalType": "bytes32",
          "name": "",
          "type": "bytes32"
        }
      ],
      "stateMutability": "view",
      "type": "function"
    },
    {
      "inputs": [
        {
          "internalType": "bytes32",
          "name": "role",
          "type": "bytes32"
        },
        {
          "internalType": "address",
          "name": "account",
          "type": "address"
        }
      ],
      "name": "grantRole",
      "outputs": [],
      "stateMutability": "nonpayable",
      "type": "function"
    },
    {
      "inputs": [
        {
          "internalType": "bytes32",
          "name": "role",
          "type": "bytes32"
        },
        {
          "internalType": "address",
          "name": "account",
          "type": "address"
        }
      ],
      "name": "hasRole",
      "outputs": [
        {
          "internalType": "bool",
          "name": "",
          "type": "bool"
        }
      ],
      "stateMutability": "view",
      "type": "function"
    },
    {
      "inputs": [
        {
          "internalType": "address",
          "name": "spender",
          "type": "address"
        },
        {
          "internalType": "uint256",
          "name": "addedValue",
          "type": "uint256"
        }
      ],
      "name": "increaseAllowance",
      "outputs": [
        {
          "internalType": "bool",
          "name": "",
          "type": "bool"
        }
      ],
      "stateMutability": "nonpayable",
      "type": "function"
    },
    {
      "inputs": [
        {
          "internalType": "address",
          "name": "fixedLenderAddress",
          "type": "address"
        },
        {
          "internalType": "address",
          "name": "auditorAddress",
          "type": "address"
        }
      ],
      "name": "initialize",
      "outputs": [],
      "stateMutability": "nonpayable",
      "type": "function"
    },
    {
      "inputs": [
        {
          "internalType": "address",
          "name": "user",
          "type": "address"
        },
        {
          "internalType": "uint256",
          "name": "amount",
          "type": "uint256"
        }
      ],
      "name": "mint",
      "outputs": [],
      "stateMutability": "nonpayable",
      "type": "function"
    },
    {
      "inputs": [],
      "name": "name",
      "outputs": [
        {
          "internalType": "string",
          "name": "",
          "type": "string"
        }
      ],
      "stateMutability": "view",
      "type": "function"
    },
    {
      "inputs": [
        {
          "internalType": "bytes32",
          "name": "role",
          "type": "bytes32"
        },
        {
          "internalType": "address",
          "name": "account",
          "type": "address"
        }
      ],
      "name": "renounceRole",
      "outputs": [],
      "stateMutability": "nonpayable",
      "type": "function"
    },
    {
      "inputs": [
        {
          "internalType": "bytes32",
          "name": "role",
          "type": "bytes32"
        },
        {
          "internalType": "address",
          "name": "account",
          "type": "address"
        }
      ],
      "name": "revokeRole",
      "outputs": [],
      "stateMutability": "nonpayable",
      "type": "function"
    },
    {
      "inputs": [
        {
          "internalType": "bytes4",
          "name": "interfaceId",
          "type": "bytes4"
        }
      ],
      "name": "supportsInterface",
      "outputs": [
        {
          "internalType": "bool",
          "name": "",
          "type": "bool"
        }
      ],
      "stateMutability": "view",
      "type": "function"
    },
    {
      "inputs": [],
      "name": "symbol",
      "outputs": [
        {
          "internalType": "string",
          "name": "",
          "type": "string"
        }
      ],
      "stateMutability": "view",
      "type": "function"
    },
    {
      "inputs": [],
      "name": "totalSupply",
      "outputs": [
        {
          "internalType": "uint256",
          "name": "",
          "type": "uint256"
        }
      ],
      "stateMutability": "view",
      "type": "function"
    },
    {
      "inputs": [
        {
          "internalType": "address",
          "name": "recipient",
          "type": "address"
        },
        {
          "internalType": "uint256",
          "name": "amount",
          "type": "uint256"
        }
      ],
      "name": "transfer",
      "outputs": [
        {
          "internalType": "bool",
          "name": "",
          "type": "bool"
        }
      ],
      "stateMutability": "nonpayable",
      "type": "function"
    },
    {
      "inputs": [
        {
          "internalType": "address",
          "name": "sender",
          "type": "address"
        },
        {
          "internalType": "address",
          "name": "recipient",
          "type": "address"
        },
        {
          "internalType": "uint256",
          "name": "amount",
          "type": "uint256"
        }
      ],
      "name": "transferFrom",
      "outputs": [
        {
          "internalType": "bool",
          "name": "",
          "type": "bool"
        }
      ],
      "stateMutability": "nonpayable",
      "type": "function"
    }
  ],
  "transactionHash": "0x693e366629f9f99be6fa9e1424e04434abedf4c773dc8bb57c49b6f1bb917731",
  "args": [
    "eWETH",
    "eWETH",
    18
  ],
  "numDeployments": 1,
  "solcInputHash": "b29e96ef9678c31f24803a302d5ef6ff",
  "bytecode": "0x60806040523480156200001157600080fd5b506040516200342838038062003428833981810160405281019062000037919062000354565b6200004c6000801b33620000a260201b60201c565b8260069080519060200190620000649291906200021b565b5081600790805190602001906200007d9291906200021b565b5080600860006101000a81548160ff021916908360ff16021790555050505062000573565b620000b48282620000b860201b60201c565b5050565b620000ca8282620001a960201b60201c565b620001a557600160008084815260200190815260200160002060000160008373ffffffffffffffffffffffffffffffffffffffff1673ffffffffffffffffffffffffffffffffffffffff16815260200190815260200160002060006101000a81548160ff0219169083151502179055506200014a6200021360201b60201c565b73ffffffffffffffffffffffffffffffffffffffff168173ffffffffffffffffffffffffffffffffffffffff16837f2f8788117e7eff1d82e926ec794901d17c78024a50270940304540a733656f0d60405160405180910390a45b5050565b600080600084815260200190815260200160002060000160008373ffffffffffffffffffffffffffffffffffffffff1673ffffffffffffffffffffffffffffffffffffffff16815260200190815260200160002060009054906101000a900460ff16905092915050565b600033905090565b82805462000229906200047e565b90600052602060002090601f0160209004810192826200024d576000855562000299565b82601f106200026857805160ff191683800117855562000299565b8280016001018555821562000299579182015b82811115620002985782518255916020019190600101906200027b565b5b509050620002a89190620002ac565b5090565b5b80821115620002c7576000816000905550600101620002ad565b5090565b6000620002e2620002dc8462000405565b620003dc565b905082815260208101848484011115620002fb57600080fd5b6200030884828562000448565b509392505050565b600082601f8301126200032257600080fd5b815162000334848260208601620002cb565b91505092915050565b6000815190506200034e8162000559565b92915050565b6000806000606084860312156200036a57600080fd5b600084015167ffffffffffffffff8111156200038557600080fd5b620003938682870162000310565b935050602084015167ffffffffffffffff811115620003b157600080fd5b620003bf8682870162000310565b9250506040620003d2868287016200033d565b9150509250925092565b6000620003e8620003fb565b9050620003f68282620004b4565b919050565b6000604051905090565b600067ffffffffffffffff82111562000423576200042262000519565b5b6200042e8262000548565b9050602081019050919050565b600060ff82169050919050565b60005b83811015620004685780820151818401526020810190506200044b565b8381111562000478576000848401525b50505050565b600060028204905060018216806200049757607f821691505b60208210811415620004ae57620004ad620004ea565b5b50919050565b620004bf8262000548565b810181811067ffffffffffffffff82111715620004e157620004e062000519565b5b80604052505050565b7f4e487b7100000000000000000000000000000000000000000000000000000000600052602260045260246000fd5b7f4e487b7100000000000000000000000000000000000000000000000000000000600052604160045260246000fd5b6000601f19601f8301169050919050565b62000564816200043b565b81146200057057600080fd5b50565b612ea580620005836000396000f3fe608060405234801561001057600080fd5b50600436106101585760003560e01c8063485cc955116100c35780639dc29fac1161007c5780639dc29fac146103ed578063a217fddf14610409578063a457c2d714610427578063a9059cbb14610457578063d547741f14610487578063dd62ed3e146104a357610158565b8063485cc955146103195780636bf1ad7a1461033557806370a08231146103535780638fa467c41461038357806391d148541461039f57806395d89b41146103cf57610158565b80632f2ff15d116101155780632f2ff15d14610259578063313ce5671461027557806336568abe1461029357806339509351146102af5780633ec045a6146102df57806340c10f19146102fd57610158565b806301ffc9a71461015d57806306fdde031461018d578063095ea7b3146101ab57806318160ddd146101db57806323b872dd146101f9578063248a9ca314610229575b600080fd5b610177600480360381019061017291906120c7565b6104d3565b6040516101849190612456565b60405180910390f35b61019561054d565b6040516101a291906124dd565b60405180910390f35b6101c560048036038101906101c09190612026565b6105db565b6040516101d29190612456565b60405180910390f35b6101e36105f2565b6040516101f0919061267f565b60405180910390f35b610213600480360381019061020e9190611fd7565b6105f8565b6040516102209190612456565b60405180910390f35b610243600480360381019061023e9190612062565b6106e2565b6040516102509190612471565b60405180910390f35b610273600480360381019061026e919061208b565b610701565b005b61027d61072a565b60405161028a919061269a565b60405180910390f35b6102ad60048036038101906102a8919061208b565b61073d565b005b6102c960048036038101906102c49190612026565b6107c0565b6040516102d69190612456565b60405180910390f35b6102e761085e565b6040516102f4919061248c565b60405180910390f35b61031760048036038101906103129190612026565b610884565b005b610333600480360381019061032e9190611f9b565b610aeb565b005b61033d610cd2565b60405161034a91906124a7565b60405180910390f35b61036d60048036038101906103689190611f72565b610cf8565b60405161037a919061267f565b60405180910390f35b61039d600480360381019061039891906120f0565b610dac565b005b6103b960048036038101906103b4919061208b565b610e92565b6040516103c69190612456565b60405180910390f35b6103d7610efc565b6040516103e491906124dd565b60405180910390f35b61040760048036038101906104029190612026565b610f8a565b005b61041161126e565b60405161041e9190612471565b60405180910390f35b610441600480360381019061043c9190612026565b611275565b60405161044e9190612456565b60405180910390f35b610471600480360381019061046c9190612026565b611352565b60405161047e9190612456565b60405180910390f35b6104a1600480360381019061049c919061208b565b611369565b005b6104bd60048036038101906104b89190611f9b565b611392565b6040516104ca919061267f565b60405180910390f35b60007f7965db0b000000000000000000000000000000000000000000000000000000007bffffffffffffffffffffffffffffffffffffffffffffffffffffffff1916827bffffffffffffffffffffffffffffffffffffffffffffffffffffffff19161480610546575061054582611419565b5b9050919050565b6006805461055a90612946565b80601f016020809104026020016040519081016040528092919081815260200182805461058690612946565b80156105d35780601f106105a8576101008083540402835291602001916105d3565b820191906000526020600020905b8154815290600101906020018083116105b657829003601f168201915b505050505081565b60006105e8338484611483565b6001905092915050565b60015481565b600061060584848461164e565b6000600560008673ffffffffffffffffffffffffffffffffffffffff1673ffffffffffffffffffffffffffffffffffffffff16815260200190815260200160002060003373ffffffffffffffffffffffffffffffffffffffff1673ffffffffffffffffffffffffffffffffffffffff168152602001908152602001600020549050828110156106c9576040517f08c379a00000000000000000000000000000000000000000000000000000000081526004016106c09061259f565b60405180910390fd5b6106d68533858403611483565b60019150509392505050565b6000806000838152602001908152602001600020600101549050919050565b61070a826106e2565b61071b816107166119be565b6119c6565b6107258383611a63565b505050565b600860009054906101000a900460ff1681565b6107456119be565b73ffffffffffffffffffffffffffffffffffffffff168173ffffffffffffffffffffffffffffffffffffffff16146107b2576040517f08c379a00000000000000000000000000000000000000000000000000000000081526004016107a99061263f565b60405180910390fd5b6107bc8282611b43565b5050565b6000610854338484600560003373ffffffffffffffffffffffffffffffffffffffff1673ffffffffffffffffffffffffffffffffffffffff16815260200190815260200160002060008873ffffffffffffffffffffffffffffffffffffffff1673ffffffffffffffffffffffffffffffffffffffff1681526020019081526020016000205461084f91906126dc565b611483565b6001905092915050565b600960009054906101000a900473ffffffffffffffffffffffffffffffffffffffff1681565b600860019054906101000a900473ffffffffffffffffffffffffffffffffffffffff1673ffffffffffffffffffffffffffffffffffffffff163373ffffffffffffffffffffffffffffffffffffffff16146109175760146040517fede8a59900000000000000000000000000000000000000000000000000000000815260040161090e91906124c2565b60405180910390fd5b600073ffffffffffffffffffffffffffffffffffffffff168273ffffffffffffffffffffffffffffffffffffffff161415610987576040517f08c379a000000000000000000000000000000000000000000000000000000000815260040161097e9061265f565b60405180910390fd5b60008190506000600154146109b457600154600254826109a79190612763565b6109b19190612732565b90505b80600360008573ffffffffffffffffffffffffffffffffffffffff1673ffffffffffffffffffffffffffffffffffffffff1681526020019081526020016000206000828254610a0391906126dc565b925050819055508060026000828254610a1c91906126dc565b925050819055508160016000828254610a3591906126dc565b9250508190555043600460008573ffffffffffffffffffffffffffffffffffffffff1673ffffffffffffffffffffffffffffffffffffffff168152602001908152602001600020819055508273ffffffffffffffffffffffffffffffffffffffff16600073ffffffffffffffffffffffffffffffffffffffff167fddf252ad1be2c89b69c2b068fc378daa952ba7f163c4a11628f55a4df523b3ef84604051610ade919061267f565b60405180910390a3505050565b6000801b610b0081610afb6119be565b6119c6565b600073ffffffffffffffffffffffffffffffffffffffff16600860019054906101000a900473ffffffffffffffffffffffffffffffffffffffff1673ffffffffffffffffffffffffffffffffffffffff1614158015610bae5750600073ffffffffffffffffffffffffffffffffffffffff16600960009054906101000a900473ffffffffffffffffffffffffffffffffffffffff1673ffffffffffffffffffffffffffffffffffffffff1614155b15610bf15760156040517fede8a599000000000000000000000000000000000000000000000000000000008152600401610be891906124c2565b60405180910390fd5b82600860016101000a81548173ffffffffffffffffffffffffffffffffffffffff021916908373ffffffffffffffffffffffffffffffffffffffff16021790555081600960006101000a81548173ffffffffffffffffffffffffffffffffffffffff021916908373ffffffffffffffffffffffffffffffffffffffff1602179055508173ffffffffffffffffffffffffffffffffffffffff168373ffffffffffffffffffffffffffffffffffffffff167f3cd5ec01b1ae7cfec6ca1863e2cd6aa25d6d1702825803ff2b7cc95010fffdc260405160405180910390a3505050565b600860019054906101000a900473ffffffffffffffffffffffffffffffffffffffff1681565b600080600360008473ffffffffffffffffffffffffffffffffffffffff1673ffffffffffffffffffffffffffffffffffffffff168152602001908152602001600020541415610d4a5760009050610da7565b600254600154600360008573ffffffffffffffffffffffffffffffffffffffff1673ffffffffffffffffffffffffffffffffffffffff16815260200190815260200160002054610d9a9190612763565b610da49190612732565b90505b919050565b600860019054906101000a900473ffffffffffffffffffffffffffffffffffffffff1673ffffffffffffffffffffffffffffffffffffffff163373ffffffffffffffffffffffffffffffffffffffff1614610e3f5760146040517fede8a599000000000000000000000000000000000000000000000000000000008152600401610e3691906124c2565b60405180910390fd5b8060016000828254610e5191906126dc565b925050819055507f56abc98fb15c351ca41b48a34287be5ff45597bcba403d279b2173eb3467126a81604051610e87919061267f565b60405180910390a150565b600080600084815260200190815260200160002060000160008373ffffffffffffffffffffffffffffffffffffffff1673ffffffffffffffffffffffffffffffffffffffff16815260200190815260200160002060009054906101000a900460ff16905092915050565b60078054610f0990612946565b80601f0160208091040260200160405190810160405280929190818152602001828054610f3590612946565b8015610f825780601f10610f5757610100808354040283529160200191610f82565b820191906000526020600020905b815481529060010190602001808311610f6557829003601f168201915b505050505081565b600860019054906101000a900473ffffffffffffffffffffffffffffffffffffffff1673ffffffffffffffffffffffffffffffffffffffff163373ffffffffffffffffffffffffffffffffffffffff161461101d5760146040517fede8a59900000000000000000000000000000000000000000000000000000000815260040161101491906124c2565b60405180910390fd5b600073ffffffffffffffffffffffffffffffffffffffff168273ffffffffffffffffffffffffffffffffffffffff16141561108d576040517f08c379a0000000000000000000000000000000000000000000000000000000008152600401611084906125bf565b60405180910390fd5b43600460008473ffffffffffffffffffffffffffffffffffffffff1673ffffffffffffffffffffffffffffffffffffffff168152602001908152602001600020541061111157601a6040517fede8a59900000000000000000000000000000000000000000000000000000000815260040161110891906124c2565b60405180910390fd5b8061111b83610cf8565b101561115c576040517f08c379a00000000000000000000000000000000000000000000000000000000081526004016111539061253f565b60405180910390fd5b60006001546002548361116f9190612763565b6111799190612732565b9050806002600082825461118d91906127bd565b9250508190555080600360008573ffffffffffffffffffffffffffffffffffffffff1673ffffffffffffffffffffffffffffffffffffffff16815260200190815260200160002060008282546111e391906127bd565b9250508190555081600160008282546111fc91906127bd565b92505081905550600073ffffffffffffffffffffffffffffffffffffffff168373ffffffffffffffffffffffffffffffffffffffff167fddf252ad1be2c89b69c2b068fc378daa952ba7f163c4a11628f55a4df523b3ef84604051611261919061267f565b60405180910390a3505050565b6000801b81565b600080600560003373ffffffffffffffffffffffffffffffffffffffff1673ffffffffffffffffffffffffffffffffffffffff16815260200190815260200160002060008573ffffffffffffffffffffffffffffffffffffffff1673ffffffffffffffffffffffffffffffffffffffff1681526020019081526020016000205490508281101561133a576040517f08c379a00000000000000000000000000000000000000000000000000000000081526004016113319061261f565b60405180910390fd5b6113473385858403611483565b600191505092915050565b600061135f33848461164e565b6001905092915050565b611372826106e2565b6113838161137e6119be565b6119c6565b61138d8383611b43565b505050565b6000600560008473ffffffffffffffffffffffffffffffffffffffff1673ffffffffffffffffffffffffffffffffffffffff16815260200190815260200160002060008373ffffffffffffffffffffffffffffffffffffffff1673ffffffffffffffffffffffffffffffffffffffff16815260200190815260200160002054905092915050565b60007f01ffc9a7000000000000000000000000000000000000000000000000000000007bffffffffffffffffffffffffffffffffffffffffffffffffffffffff1916827bffffffffffffffffffffffffffffffffffffffffffffffffffffffff1916149050919050565b600073ffffffffffffffffffffffffffffffffffffffff168373ffffffffffffffffffffffffffffffffffffffff1614156114f3576040517f08c379a00000000000000000000000000000000000000000000000000000000081526004016114ea906125ff565b60405180910390fd5b600073ffffffffffffffffffffffffffffffffffffffff168273ffffffffffffffffffffffffffffffffffffffff161415611563576040517f08c379a000000000000000000000000000000000000000000000000000000000815260040161155a9061255f565b60405180910390fd5b80600560008573ffffffffffffffffffffffffffffffffffffffff1673ffffffffffffffffffffffffffffffffffffffff16815260200190815260200160002060008473ffffffffffffffffffffffffffffffffffffffff1673ffffffffffffffffffffffffffffffffffffffff168152602001908152602001600020819055508173ffffffffffffffffffffffffffffffffffffffff168373ffffffffffffffffffffffffffffffffffffffff167f8c5be1e5ebec7d5bd14f71427d1e84f3dd0314c0f7b2291e5b200ac8c7c3b92583604051611641919061267f565b60405180910390a3505050565b600073ffffffffffffffffffffffffffffffffffffffff168373ffffffffffffffffffffffffffffffffffffffff1614156116be576040517f08c379a00000000000000000000000000000000000000000000000000000000081526004016116b5906125df565b60405180910390fd5b600073ffffffffffffffffffffffffffffffffffffffff168273ffffffffffffffffffffffffffffffffffffffff16141561172e576040517f08c379a00000000000000000000000000000000000000000000000000000000081526004016117259061251f565b60405180910390fd5b600061173984610cf8565b90508181101561177e576040517f08c379a00000000000000000000000000000000000000000000000000000000081526004016117759061257f565b60405180910390fd5b600960009054906101000a900473ffffffffffffffffffffffffffffffffffffffff1673ffffffffffffffffffffffffffffffffffffffff16639cbda20e600860019054906101000a900473ffffffffffffffffffffffffffffffffffffffff1686856040518463ffffffff1660e01b81526004016117ff9392919061241f565b60006040518083038186803b15801561181757600080fd5b505afa15801561182b573d6000803e3d6000fd5b505050506000828261183d91906127bd565b9050600154600254826118509190612763565b61185a9190612732565b600360008773ffffffffffffffffffffffffffffffffffffffff1673ffffffffffffffffffffffffffffffffffffffff16815260200190815260200160002081905550600154600254846118ad87610cf8565b6118b791906126dc565b6118c19190612763565b6118cb9190612732565b600360008673ffffffffffffffffffffffffffffffffffffffff1673ffffffffffffffffffffffffffffffffffffffff1681526020019081526020016000208190555043600460008673ffffffffffffffffffffffffffffffffffffffff1673ffffffffffffffffffffffffffffffffffffffff168152602001908152602001600020819055508373ffffffffffffffffffffffffffffffffffffffff168573ffffffffffffffffffffffffffffffffffffffff167fddf252ad1be2c89b69c2b068fc378daa952ba7f163c4a11628f55a4df523b3ef856040516119af919061267f565b60405180910390a35050505050565b600033905090565b6119d08282610e92565b611a5f576119f58173ffffffffffffffffffffffffffffffffffffffff166014611c24565b611a038360001c6020611c24565b604051602001611a149291906123e5565b6040516020818303038152906040526040517f08c379a0000000000000000000000000000000000000000000000000000000008152600401611a5691906124dd565b60405180910390fd5b5050565b611a6d8282610e92565b611b3f57600160008084815260200190815260200160002060000160008373ffffffffffffffffffffffffffffffffffffffff1673ffffffffffffffffffffffffffffffffffffffff16815260200190815260200160002060006101000a81548160ff021916908315150217905550611ae46119be565b73ffffffffffffffffffffffffffffffffffffffff168173ffffffffffffffffffffffffffffffffffffffff16837f2f8788117e7eff1d82e926ec794901d17c78024a50270940304540a733656f0d60405160405180910390a45b5050565b611b4d8282610e92565b15611c2057600080600084815260200190815260200160002060000160008373ffffffffffffffffffffffffffffffffffffffff1673ffffffffffffffffffffffffffffffffffffffff16815260200190815260200160002060006101000a81548160ff021916908315150217905550611bc56119be565b73ffffffffffffffffffffffffffffffffffffffff168173ffffffffffffffffffffffffffffffffffffffff16837ff6391f5c32d9c69d2a47ea670b442974b53935d1edc7fd64eb21e047a839171b60405160405180910390a45b5050565b606060006002836002611c379190612763565b611c4191906126dc565b67ffffffffffffffff811115611c80577f4e487b7100000000000000000000000000000000000000000000000000000000600052604160045260246000fd5b6040519080825280601f01601f191660200182016040528015611cb25781602001600182028036833780820191505090505b5090507f300000000000000000000000000000000000000000000000000000000000000081600081518110611d10577f4e487b7100000000000000000000000000000000000000000000000000000000600052603260045260246000fd5b60200101907effffffffffffffffffffffffffffffffffffffffffffffffffffffffffffff1916908160001a9053507f780000000000000000000000000000000000000000000000000000000000000081600181518110611d9a577f4e487b7100000000000000000000000000000000000000000000000000000000600052603260045260246000fd5b60200101907effffffffffffffffffffffffffffffffffffffffffffffffffffffffffffff1916908160001a90535060006001846002611dda9190612763565b611de491906126dc565b90505b6001811115611ed0577f3031323334353637383961626364656600000000000000000000000000000000600f861660108110611e4c577f4e487b7100000000000000000000000000000000000000000000000000000000600052603260045260246000fd5b1a60f81b828281518110611e89577f4e487b7100000000000000000000000000000000000000000000000000000000600052603260045260246000fd5b60200101907effffffffffffffffffffffffffffffffffffffffffffffffffffffffffffff1916908160001a905350600485901c945080611ec99061291c565b9050611de7565b5060008414611f14576040517f08c379a0000000000000000000000000000000000000000000000000000000008152600401611f0b906124ff565b60405180910390fd5b8091505092915050565b600081359050611f2d81612e13565b92915050565b600081359050611f4281612e2a565b92915050565b600081359050611f5781612e41565b92915050565b600081359050611f6c81612e58565b92915050565b600060208284031215611f8457600080fd5b6000611f9284828501611f1e565b91505092915050565b60008060408385031215611fae57600080fd5b6000611fbc85828601611f1e565b9250506020611fcd85828601611f1e565b9150509250929050565b600080600060608486031215611fec57600080fd5b6000611ffa86828701611f1e565b935050602061200b86828701611f1e565b925050604061201c86828701611f5d565b9150509250925092565b6000806040838503121561203957600080fd5b600061204785828601611f1e565b925050602061205885828601611f5d565b9150509250929050565b60006020828403121561207457600080fd5b600061208284828501611f33565b91505092915050565b6000806040838503121561209e57600080fd5b60006120ac85828601611f33565b92505060206120bd85828601611f1e565b9150509250929050565b6000602082840312156120d957600080fd5b60006120e784828501611f48565b91505092915050565b60006020828403121561210257600080fd5b600061211084828501611f5d565b91505092915050565b612122816127f1565b82525050565b61213181612803565b82525050565b6121408161280f565b82525050565b61214f8161288f565b82525050565b61215e816128b3565b82525050565b61216d816128d7565b82525050565b600061217e826126b5565b61218881856126c0565b93506121988185602086016128e9565b6121a181612a34565b840191505092915050565b60006121b7826126b5565b6121c181856126d1565b93506121d18185602086016128e9565b80840191505092915050565b60006121ea6020836126c0565b91506121f582612a45565b602082019050919050565b600061220d6023836126c0565b915061221882612a6e565b604082019050919050565b60006122306022836126c0565b915061223b82612abd565b604082019050919050565b60006122536022836126c0565b915061225e82612b0c565b604082019050919050565b60006122766026836126c0565b915061228182612b5b565b604082019050919050565b60006122996028836126c0565b91506122a482612baa565b604082019050919050565b60006122bc6021836126c0565b91506122c782612bf9565b604082019050919050565b60006122df6025836126c0565b91506122ea82612c48565b604082019050919050565b60006123026024836126c0565b915061230d82612c97565b604082019050919050565b60006123256017836126d1565b915061233082612ce6565b601782019050919050565b60006123486025836126c0565b915061235382612d0f565b604082019050919050565b600061236b6011836126d1565b915061237682612d5e565b601182019050919050565b600061238e602f836126c0565b915061239982612d87565b604082019050919050565b60006123b1601f836126c0565b91506123bc82612dd6565b602082019050919050565b6123d081612878565b82525050565b6123df81612882565b82525050565b60006123f082612318565b91506123fc82856121ac565b91506124078261235e565b915061241382846121ac565b91508190509392505050565b60006060820190506124346000830186612119565b6124416020830185612119565b61244e60408301846123c7565b949350505050565b600060208201905061246b6000830184612128565b92915050565b60006020820190506124866000830184612137565b92915050565b60006020820190506124a16000830184612146565b92915050565b60006020820190506124bc6000830184612155565b92915050565b60006020820190506124d76000830184612164565b92915050565b600060208201905081810360008301526124f78184612173565b905092915050565b60006020820190508181036000830152612518816121dd565b9050919050565b6000602082019050818103600083015261253881612200565b9050919050565b6000602082019050818103600083015261255881612223565b9050919050565b6000602082019050818103600083015261257881612246565b9050919050565b6000602082019050818103600083015261259881612269565b9050919050565b600060208201905081810360008301526125b88161228c565b9050919050565b600060208201905081810360008301526125d8816122af565b9050919050565b600060208201905081810360008301526125f8816122d2565b9050919050565b60006020820190508181036000830152612618816122f5565b9050919050565b600060208201905081810360008301526126388161233b565b9050919050565b6000602082019050818103600083015261265881612381565b9050919050565b60006020820190508181036000830152612678816123a4565b9050919050565b600060208201905061269460008301846123c7565b92915050565b60006020820190506126af60008301846123d6565b92915050565b600081519050919050565b600082825260208201905092915050565b600081905092915050565b60006126e782612878565b91506126f283612878565b9250827fffffffffffffffffffffffffffffffffffffffffffffffffffffffffffffffff0382111561272757612726612978565b5b828201905092915050565b600061273d82612878565b915061274883612878565b925082612758576127576129a7565b5b828204905092915050565b600061276e82612878565b915061277983612878565b9250817fffffffffffffffffffffffffffffffffffffffffffffffffffffffffffffffff04831182151516156127b2576127b1612978565b5b828202905092915050565b60006127c882612878565b91506127d383612878565b9250828210156127e6576127e5612978565b5b828203905092915050565b60006127fc82612858565b9050919050565b60008115159050919050565b6000819050919050565b60007fffffffff0000000000000000000000000000000000000000000000000000000082169050919050565b600081905061285382612dff565b919050565b600073ffffffffffffffffffffffffffffffffffffffff82169050919050565b6000819050919050565b600060ff82169050919050565b600061289a826128a1565b9050919050565b60006128ac82612858565b9050919050565b60006128be826128c5565b9050919050565b60006128d082612858565b9050919050565b60006128e282612845565b9050919050565b60005b838110156129075780820151818401526020810190506128ec565b83811115612916576000848401525b50505050565b600061292782612878565b9150600082141561293b5761293a612978565b5b600182039050919050565b6000600282049050600182168061295e57607f821691505b6020821081141561297257612971612a05565b5b50919050565b7f4e487b7100000000000000000000000000000000000000000000000000000000600052601160045260246000fd5b7f4e487b7100000000000000000000000000000000000000000000000000000000600052601260045260246000fd5b7f4e487b7100000000000000000000000000000000000000000000000000000000600052602160045260246000fd5b7f4e487b7100000000000000000000000000000000000000000000000000000000600052602260045260246000fd5b6000601f19601f8301169050919050565b7f537472696e67733a20686578206c656e67746820696e73756666696369656e74600082015250565b7f45524332303a207472616e7366657220746f20746865207a65726f206164647260008201527f6573730000000000000000000000000000000000000000000000000000000000602082015250565b7f45524332303a206275726e20616d6f756e7420657863656564732062616c616e60008201527f6365000000000000000000000000000000000000000000000000000000000000602082015250565b7f45524332303a20617070726f766520746f20746865207a65726f20616464726560008201527f7373000000000000000000000000000000000000000000000000000000000000602082015250565b7f45524332303a207472616e7366657220616d6f756e742065786365656473206260008201527f616c616e63650000000000000000000000000000000000000000000000000000602082015250565b7f45524332303a207472616e7366657220616d6f756e742065786365656473206160008201527f6c6c6f77616e6365000000000000000000000000000000000000000000000000602082015250565b7f45524332303a206275726e2066726f6d20746865207a65726f2061646472657360008201527f7300000000000000000000000000000000000000000000000000000000000000602082015250565b7f45524332303a207472616e736665722066726f6d20746865207a65726f20616460008201527f6472657373000000000000000000000000000000000000000000000000000000602082015250565b7f45524332303a20617070726f76652066726f6d20746865207a65726f2061646460008201527f7265737300000000000000000000000000000000000000000000000000000000602082015250565b7f416363657373436f6e74726f6c3a206163636f756e7420000000000000000000600082015250565b7f45524332303a2064656372656173656420616c6c6f77616e63652062656c6f7760008201527f207a65726f000000000000000000000000000000000000000000000000000000602082015250565b7f206973206d697373696e6720726f6c6520000000000000000000000000000000600082015250565b7f416363657373436f6e74726f6c3a2063616e206f6e6c792072656e6f756e636560008201527f20726f6c657320666f722073656c660000000000000000000000000000000000602082015250565b7f45524332303a206d696e7420746f20746865207a65726f206164647265737300600082015250565b601c8110612e1057612e0f6129d6565b5b50565b612e1c816127f1565b8114612e2757600080fd5b50565b612e338161280f565b8114612e3e57600080fd5b50565b612e4a81612819565b8114612e5557600080fd5b50565b612e6181612878565b8114612e6c57600080fd5b5056fea2646970667358221220c0337c73f0c3820c37674324ea5eb2d60e94f51ba61e0fb20fc767013650418464736f6c63430008040033",
  "devdoc": {
    "kind": "dev",
    "methods": {
      "accrueEarnings(uint256)": {
        "details": "Increases contract earnings - Only callable by the FixedLender",
        "params": {
          "amount": "The amount of underlying tokens deposited"
        }
      },
      "allowance(address,address)": {
        "details": "Returns the allowance of spender on the tokens owned by owner",
        "params": {
          "owner": "The owner of the tokens",
          "spender": "The user allowed to spend the owner's tokens"
        },
        "returns": {
          "_0": "The amount of owner's tokens spender is allowed to spend"
        }
      },
      "approve(address,uint256)": {
        "details": "Allows `spender` to spend the tokens owned by msg.sender",
        "params": {
          "amount": "The amount of tokens spender is allowed to spend",
          "spender": "The user allowed to spend msg.sender tokens"
        },
        "returns": {
          "_0": "`true` if the reverts succeeds, reverts otherwise"
        }
      },
      "balanceOf(address)": {
        "details": "Calculates the balance of the user: principal balance + interest generated by the principal",
        "params": {
          "account": "The user whose balance is calculated"
        },
        "returns": {
          "_0": "The balance of the user"
        }
      },
      "burn(address,uint256)": {
        "details": "Burns eTokens from `user` - Only callable by the FixedLender",
        "params": {
          "amount": "The amount being burned",
          "user": "The owner of the eTokens, getting them burned"
        }
      },
      "decreaseAllowance(address,uint256)": {
        "details": "Decreases the allowance of spender to spend msg.sender tokens",
        "params": {
          "spender": "The user allowed to spend on behalf of msg.sender",
          "subtractedValue": "The amount being subtracted to the allowance"
        },
        "returns": {
          "_0": "`true` if the decrease allowance succeeds, reverts otherwise"
        }
      },
      "getRoleAdmin(bytes32)": {
        "details": "Returns the admin role that controls `role`. See {grantRole} and {revokeRole}. To change a role's admin, use {_setRoleAdmin}."
      },
      "grantRole(bytes32,address)": {
        "details": "Grants `role` to `account`. If `account` had not been already granted `role`, emits a {RoleGranted} event. Requirements: - the caller must have ``role``'s admin role."
      },
      "hasRole(bytes32,address)": {
        "details": "Returns `true` if `account` has been granted `role`."
      },
      "increaseAllowance(address,uint256)": {
        "details": "Increases the allowance of spender to spend msg.sender tokens",
        "params": {
          "addedValue": "The amount being added to the allowance",
          "spender": "The user allowed to spend on behalf of msg.sender"
        },
        "returns": {
          "_0": "`true` if the increase allowance succeeds, reverts otherwise"
        }
      },
      "initialize(address,address)": {
        "details": "Initializes the eToken setting the FixedLender and Auditor addresses - Only able to initialize once",
        "params": {
          "auditorAddress": "The address of the Auditor",
          "fixedLenderAddress": "The address of the FixedLender that uses this eToken"
        }
      },
      "mint(address,uint256)": {
        "details": "Mints `amount` eTokens to `user` - Only callable by the FixedLender",
        "params": {
          "amount": "The amount of tokens getting minted",
          "user": "The address receiving the minted tokens"
        }
      },
      "renounceRole(bytes32,address)": {
        "details": "Revokes `role` from the calling account. Roles are often managed via {grantRole} and {revokeRole}: this function's purpose is to provide a mechanism for accounts to lose their privileges if they are compromised (such as when a trusted device is misplaced). If the calling account had been revoked `role`, emits a {RoleRevoked} event. Requirements: - the caller must be `account`."
      },
      "revokeRole(bytes32,address)": {
        "details": "Revokes `role` from `account`. If `account` had been granted `role`, emits a {RoleRevoked} event. Requirements: - the caller must have ``role``'s admin role."
      },
      "supportsInterface(bytes4)": {
        "details": "See {IERC165-supportsInterface}."
      },
      "transfer(address,uint256)": {
        "details": "Executes a transfer of tokens from msg.sender to recipient",
        "params": {
          "amount": "The amount of tokens being transferred",
          "recipient": "The recipient of the tokens"
        },
        "returns": {
          "_0": "`true` if the transfer succeeds, reverts otherwise"
        }
      },
      "transferFrom(address,address,uint256)": {
        "details": "Executes a transfer of token from sender to recipient, if msg.sender is allowed to do so",
        "params": {
          "amount": "The amount of tokens being transferred",
          "recipient": "The recipient of the tokens",
          "sender": "The owner of the tokens"
        },
        "returns": {
          "_0": "`true` if the transfer succeeds, reverts otherwise"
        }
      }
    },
    "stateVariables": {
      "decimals": {
        "details": "Returns the decimals places of the token."
      },
      "name": {
        "details": "Returns the name of the token."
      },
      "symbol": {
        "details": "Returns the symbol of the token."
      },
      "totalSupply": {
        "details": "Returns the amount of tokens in existence."
      }
    },
    "version": 1
  },
  "userdoc": {
    "kind": "user",
    "methods": {},
    "version": 1
  },
  "storageLayout": {
    "storage": [
      {
        "astId": 24,
        "contract": "contracts/EToken.sol:EToken",
        "label": "_roles",
        "offset": 0,
        "slot": "0",
        "type": "t_mapping(t_bytes32,t_struct(RoleData)19_storage)"
      },
      {
        "astId": 4635,
        "contract": "contracts/EToken.sol:EToken",
        "label": "totalSupply",
        "offset": 0,
        "slot": "1",
        "type": "t_uint256"
      },
      {
        "astId": 4637,
        "contract": "contracts/EToken.sol:EToken",
        "label": "totalScaledBalance",
        "offset": 0,
        "slot": "2",
        "type": "t_uint256"
      },
      {
        "astId": 4641,
        "contract": "contracts/EToken.sol:EToken",
        "label": "userScaledBalance",
        "offset": 0,
        "slot": "3",
        "type": "t_mapping(t_address,t_uint256)"
      },
      {
        "astId": 4645,
        "contract": "contracts/EToken.sol:EToken",
        "label": "lastBalanceIncrease",
        "offset": 0,
        "slot": "4",
        "type": "t_mapping(t_address,t_uint256)"
      },
      {
        "astId": 4651,
        "contract": "contracts/EToken.sol:EToken",
        "label": "_allowances",
        "offset": 0,
        "slot": "5",
        "type": "t_mapping(t_address,t_mapping(t_address,t_uint256))"
      },
      {
        "astId": 4654,
        "contract": "contracts/EToken.sol:EToken",
        "label": "name",
        "offset": 0,
        "slot": "6",
        "type": "t_string_storage"
      },
      {
        "astId": 4657,
        "contract": "contracts/EToken.sol:EToken",
        "label": "symbol",
        "offset": 0,
        "slot": "7",
        "type": "t_string_storage"
      },
      {
        "astId": 4660,
        "contract": "contracts/EToken.sol:EToken",
        "label": "decimals",
        "offset": 0,
        "slot": "8",
        "type": "t_uint8"
      },
      {
        "astId": 4663,
        "contract": "contracts/EToken.sol:EToken",
        "label": "fixedLender",
        "offset": 1,
        "slot": "8",
        "type": "t_contract(IFixedLender)9030"
      },
      {
        "astId": 4666,
        "contract": "contracts/EToken.sol:EToken",
        "label": "auditor",
        "offset": 0,
        "slot": "9",
        "type": "t_contract(IAuditor)8832"
      }
    ],
    "types": {
      "t_address": {
        "encoding": "inplace",
        "label": "address",
        "numberOfBytes": "20"
      },
      "t_bool": {
        "encoding": "inplace",
        "label": "bool",
        "numberOfBytes": "1"
      },
      "t_bytes32": {
        "encoding": "inplace",
        "label": "bytes32",
        "numberOfBytes": "32"
      },
      "t_contract(IAuditor)8832": {
        "encoding": "inplace",
        "label": "contract IAuditor",
        "numberOfBytes": "20"
      },
      "t_contract(IFixedLender)9030": {
        "encoding": "inplace",
        "label": "contract IFixedLender",
        "numberOfBytes": "20"
      },
      "t_mapping(t_address,t_bool)": {
        "encoding": "mapping",
        "key": "t_address",
        "label": "mapping(address => bool)",
        "numberOfBytes": "32",
        "value": "t_bool"
      },
      "t_mapping(t_address,t_mapping(t_address,t_uint256))": {
        "encoding": "mapping",
        "key": "t_address",
        "label": "mapping(address => mapping(address => uint256))",
        "numberOfBytes": "32",
        "value": "t_mapping(t_address,t_uint256)"
      },
      "t_mapping(t_address,t_uint256)": {
        "encoding": "mapping",
        "key": "t_address",
        "label": "mapping(address => uint256)",
        "numberOfBytes": "32",
        "value": "t_uint256"
      },
      "t_mapping(t_bytes32,t_struct(RoleData)19_storage)": {
        "encoding": "mapping",
        "key": "t_bytes32",
        "label": "mapping(bytes32 => struct AccessControl.RoleData)",
        "numberOfBytes": "32",
        "value": "t_struct(RoleData)19_storage"
      },
      "t_string_storage": {
        "encoding": "bytes",
        "label": "string",
        "numberOfBytes": "32"
      },
      "t_struct(RoleData)19_storage": {
        "encoding": "inplace",
        "label": "struct AccessControl.RoleData",
        "members": [
          {
            "astId": 16,
            "contract": "contracts/EToken.sol:EToken",
            "label": "members",
            "offset": 0,
            "slot": "0",
            "type": "t_mapping(t_address,t_bool)"
          },
          {
            "astId": 18,
            "contract": "contracts/EToken.sol:EToken",
            "label": "adminRole",
            "offset": 0,
            "slot": "1",
            "type": "t_bytes32"
          }
        ],
        "numberOfBytes": "64"
      },
      "t_uint256": {
        "encoding": "inplace",
        "label": "uint256",
        "numberOfBytes": "32"
      },
      "t_uint8": {
        "encoding": "inplace",
        "label": "uint8",
        "numberOfBytes": "1"
      }
    }
  }
}