{
  "address": "0xE2e8F5eC2A95eD1D6709266E4dB1ee58c6Ea72f7",
  "abi": [
    {
      "inputs": [
        {
          "internalType": "address",
          "name": "_tokenAddress",
          "type": "address"
        },
        {
          "internalType": "string",
          "name": "_underlyingTokenName",
          "type": "string"
        },
        {
          "internalType": "address",
          "name": "_eTokenAddress",
          "type": "address"
        },
        {
          "internalType": "address",
          "name": "_auditorAddress",
          "type": "address"
        },
        {
          "internalType": "address",
          "name": "_poolAccounting",
          "type": "address"
        }
      ],
      "stateMutability": "nonpayable",
      "type": "constructor"
    },
    {
      "inputs": [
        {
          "internalType": "enum ErrorCode",
          "name": "error",
          "type": "uint8"
        }
      ],
      "name": "GenericError",
      "type": "error"
    },
    {
      "inputs": [
        {
          "internalType": "uint8",
          "name": "state",
          "type": "uint8"
        },
        {
          "internalType": "uint8",
          "name": "requiredState",
          "type": "uint8"
        }
      ],
      "name": "UnmatchedPoolState",
      "type": "error"
    },
    {
      "inputs": [
        {
          "internalType": "uint8",
          "name": "state",
          "type": "uint8"
        },
        {
          "internalType": "uint8",
          "name": "requiredState",
          "type": "uint8"
        },
        {
          "internalType": "uint8",
          "name": "alternativeState",
          "type": "uint8"
        }
      ],
      "name": "UnmatchedPoolStateMultiple",
      "type": "error"
    },
    {
      "anonymous": false,
      "inputs": [
        {
          "indexed": false,
          "internalType": "address",
          "name": "benefactor",
          "type": "address"
        },
        {
          "indexed": false,
          "internalType": "uint256",
          "name": "addAmount",
          "type": "uint256"
        }
      ],
      "name": "AddReserves",
      "type": "event"
    },
    {
      "anonymous": false,
      "inputs": [
        {
          "indexed": true,
          "internalType": "address",
          "name": "to",
          "type": "address"
        },
        {
          "indexed": false,
          "internalType": "uint256",
          "name": "amount",
          "type": "uint256"
        },
        {
          "indexed": false,
          "internalType": "uint256",
          "name": "fee",
          "type": "uint256"
        },
        {
          "indexed": false,
          "internalType": "uint256",
          "name": "maturityDate",
          "type": "uint256"
        }
      ],
      "name": "BorrowFromMaturityPool",
      "type": "event"
    },
    {
      "anonymous": false,
      "inputs": [
        {
          "indexed": true,
          "internalType": "address",
          "name": "from",
          "type": "address"
        },
        {
          "indexed": false,
          "internalType": "uint256",
          "name": "amount",
          "type": "uint256"
        },
        {
          "indexed": false,
          "internalType": "uint256",
          "name": "fee",
          "type": "uint256"
        },
        {
          "indexed": false,
          "internalType": "uint256",
          "name": "maturityDate",
          "type": "uint256"
        }
      ],
      "name": "DepositToMaturityPool",
      "type": "event"
    },
    {
      "anonymous": false,
      "inputs": [
        {
          "indexed": true,
          "internalType": "address",
          "name": "user",
          "type": "address"
        },
        {
          "indexed": false,
          "internalType": "uint256",
          "name": "amount",
          "type": "uint256"
        }
      ],
      "name": "DepositToSmartPool",
      "type": "event"
    },
    {
      "anonymous": false,
      "inputs": [
        {
          "indexed": false,
          "internalType": "address",
          "name": "liquidator",
          "type": "address"
        },
        {
          "indexed": false,
          "internalType": "address",
          "name": "borrower",
          "type": "address"
        },
        {
          "indexed": false,
          "internalType": "uint256",
          "name": "repayAmount",
          "type": "uint256"
        },
        {
          "indexed": false,
          "internalType": "address",
          "name": "fixedLenderCollateral",
          "type": "address"
        },
        {
          "indexed": false,
          "internalType": "uint256",
          "name": "seizedAmount",
          "type": "uint256"
        },
        {
          "indexed": false,
          "internalType": "uint256",
          "name": "maturityDate",
          "type": "uint256"
        }
      ],
      "name": "LiquidateBorrow",
      "type": "event"
    },
    {
      "anonymous": false,
      "inputs": [
        {
          "indexed": false,
          "internalType": "address",
          "name": "account",
          "type": "address"
        }
      ],
      "name": "Paused",
      "type": "event"
    },
    {
      "anonymous": false,
      "inputs": [
        {
          "indexed": true,
          "internalType": "address",
          "name": "payer",
          "type": "address"
        },
        {
          "indexed": true,
          "internalType": "address",
          "name": "borrower",
          "type": "address"
        },
        {
          "indexed": false,
          "internalType": "uint256",
          "name": "repayAmount",
          "type": "uint256"
        },
        {
          "indexed": false,
          "internalType": "uint256",
          "name": "debtCovered",
          "type": "uint256"
        },
        {
          "indexed": false,
          "internalType": "uint256",
          "name": "maturityDate",
          "type": "uint256"
        }
      ],
      "name": "RepayToMaturityPool",
      "type": "event"
    },
    {
      "anonymous": false,
      "inputs": [
        {
          "indexed": true,
          "internalType": "bytes32",
          "name": "role",
          "type": "bytes32"
        },
        {
          "indexed": true,
          "internalType": "bytes32",
          "name": "previousAdminRole",
          "type": "bytes32"
        },
        {
          "indexed": true,
          "internalType": "bytes32",
          "name": "newAdminRole",
          "type": "bytes32"
        }
      ],
      "name": "RoleAdminChanged",
      "type": "event"
    },
    {
      "anonymous": false,
      "inputs": [
        {
          "indexed": true,
          "internalType": "bytes32",
          "name": "role",
          "type": "bytes32"
        },
        {
          "indexed": true,
          "internalType": "address",
          "name": "account",
          "type": "address"
        },
        {
          "indexed": true,
          "internalType": "address",
          "name": "sender",
          "type": "address"
        }
      ],
      "name": "RoleGranted",
      "type": "event"
    },
    {
      "anonymous": false,
      "inputs": [
        {
          "indexed": true,
          "internalType": "bytes32",
          "name": "role",
          "type": "bytes32"
        },
        {
          "indexed": true,
          "internalType": "address",
          "name": "account",
          "type": "address"
        },
        {
          "indexed": true,
          "internalType": "address",
          "name": "sender",
          "type": "address"
        }
      ],
      "name": "RoleRevoked",
      "type": "event"
    },
    {
      "anonymous": false,
      "inputs": [
        {
          "indexed": false,
          "internalType": "address",
          "name": "liquidator",
          "type": "address"
        },
        {
          "indexed": false,
          "internalType": "address",
          "name": "borrower",
          "type": "address"
        },
        {
          "indexed": false,
          "internalType": "uint256",
          "name": "seizedAmount",
          "type": "uint256"
        }
      ],
      "name": "SeizeAsset",
      "type": "event"
    },
    {
      "anonymous": false,
      "inputs": [
        {
          "indexed": false,
          "internalType": "address",
          "name": "account",
          "type": "address"
        }
      ],
      "name": "Unpaused",
      "type": "event"
    },
    {
      "anonymous": false,
      "inputs": [
        {
          "indexed": true,
          "internalType": "address",
          "name": "from",
          "type": "address"
        },
        {
          "indexed": false,
          "internalType": "uint256",
          "name": "amount",
          "type": "uint256"
        },
        {
          "indexed": false,
          "internalType": "uint256",
          "name": "maturityDate",
          "type": "uint256"
        }
      ],
      "name": "WithdrawFromMaturityPool",
      "type": "event"
    },
    {
      "anonymous": false,
      "inputs": [
        {
          "indexed": true,
          "internalType": "address",
          "name": "user",
          "type": "address"
        },
        {
          "indexed": false,
          "internalType": "uint256",
          "name": "amount",
          "type": "uint256"
        }
      ],
      "name": "WithdrawFromSmartPool",
      "type": "event"
    },
    {
      "inputs": [],
      "name": "DEFAULT_ADMIN_ROLE",
      "outputs": [
        {
          "internalType": "bytes32",
          "name": "",
          "type": "bytes32"
        }
      ],
      "stateMutability": "view",
      "type": "function"
    },
    {
      "inputs": [],
      "name": "MAX_FUTURE_POOLS",
      "outputs": [
        {
          "internalType": "uint8",
          "name": "",
          "type": "uint8"
        }
      ],
      "stateMutability": "view",
      "type": "function"
    },
    {
      "inputs": [],
      "name": "PAUSER_ROLE",
      "outputs": [
        {
          "internalType": "bytes32",
          "name": "",
          "type": "bytes32"
        }
      ],
      "stateMutability": "view",
      "type": "function"
    },
    {
      "inputs": [],
      "name": "auditor",
      "outputs": [
        {
          "internalType": "contract IAuditor",
          "name": "",
          "type": "address"
        }
      ],
      "stateMutability": "view",
      "type": "function"
    },
    {
      "inputs": [
        {
          "internalType": "uint256",
          "name": "amount",
          "type": "uint256"
        },
        {
          "internalType": "uint256",
          "name": "maturityDate",
          "type": "uint256"
        },
        {
          "internalType": "uint256",
          "name": "maxAmountAllowed",
          "type": "uint256"
        }
      ],
      "name": "borrowFromMaturityPool",
      "outputs": [],
      "stateMutability": "nonpayable",
      "type": "function"
    },
    {
      "inputs": [
        {
          "internalType": "uint256",
          "name": "amount",
          "type": "uint256"
        },
        {
          "internalType": "uint256",
          "name": "maturityDate",
          "type": "uint256"
        },
        {
          "internalType": "uint256",
          "name": "minAmountRequired",
          "type": "uint256"
        }
      ],
      "name": "depositToMaturityPool",
      "outputs": [],
      "stateMutability": "nonpayable",
      "type": "function"
    },
    {
      "inputs": [
        {
          "internalType": "uint256",
          "name": "amount",
          "type": "uint256"
        }
      ],
      "name": "depositToSmartPool",
      "outputs": [],
      "stateMutability": "nonpayable",
      "type": "function"
    },
    {
      "inputs": [],
      "name": "eToken",
      "outputs": [
        {
          "internalType": "contract IEToken",
          "name": "",
          "type": "address"
        }
      ],
      "stateMutability": "view",
      "type": "function"
    },
    {
      "inputs": [
        {
          "internalType": "address",
          "name": "who",
          "type": "address"
        },
        {
          "internalType": "uint256",
          "name": "maturityDate",
          "type": "uint256"
        }
      ],
      "name": "getAccountSnapshot",
      "outputs": [
        {
          "internalType": "uint256",
          "name": "",
          "type": "uint256"
        },
        {
          "internalType": "uint256",
          "name": "",
          "type": "uint256"
        }
      ],
      "stateMutability": "view",
      "type": "function"
    },
    {
      "inputs": [],
      "name": "getAuditor",
      "outputs": [
        {
          "internalType": "contract IAuditor",
          "name": "",
          "type": "address"
        }
      ],
      "stateMutability": "view",
      "type": "function"
    },
    {
      "inputs": [],
      "name": "getFuturePools",
      "outputs": [
        {
          "internalType": "uint256[]",
          "name": "",
          "type": "uint256[]"
        }
      ],
      "stateMutability": "view",
      "type": "function"
    },
    {
      "inputs": [
        {
          "internalType": "bytes32",
          "name": "role",
          "type": "bytes32"
        }
      ],
      "name": "getRoleAdmin",
      "outputs": [
        {
          "internalType": "bytes32",
          "name": "",
          "type": "bytes32"
        }
      ],
      "stateMutability": "view",
      "type": "function"
    },
    {
      "inputs": [],
      "name": "getSmartPoolDeposits",
      "outputs": [
        {
          "internalType": "uint256",
          "name": "",
          "type": "uint256"
        }
      ],
      "stateMutability": "view",
      "type": "function"
    },
    {
      "inputs": [
        {
          "internalType": "uint256",
          "name": "maturityDate",
          "type": "uint256"
        }
      ],
      "name": "getTotalMpBorrows",
      "outputs": [
        {
          "internalType": "uint256",
          "name": "",
          "type": "uint256"
        }
      ],
      "stateMutability": "view",
      "type": "function"
    },
    {
      "inputs": [
        {
          "internalType": "bytes32",
          "name": "role",
          "type": "bytes32"
        },
        {
          "internalType": "address",
          "name": "account",
          "type": "address"
        }
      ],
      "name": "grantRole",
      "outputs": [],
      "stateMutability": "nonpayable",
      "type": "function"
    },
    {
      "inputs": [
        {
          "internalType": "bytes32",
          "name": "role",
          "type": "bytes32"
        },
        {
          "internalType": "address",
          "name": "account",
          "type": "address"
        }
      ],
      "name": "hasRole",
      "outputs": [
        {
          "internalType": "bool",
          "name": "",
          "type": "bool"
        }
      ],
      "stateMutability": "view",
      "type": "function"
    },
    {
      "inputs": [
        {
          "internalType": "address",
          "name": "borrower",
          "type": "address"
        },
        {
          "internalType": "uint256",
          "name": "repayAmount",
          "type": "uint256"
        },
        {
          "internalType": "contract IFixedLender",
          "name": "fixedLenderCollateral",
          "type": "address"
        },
        {
          "internalType": "uint256",
          "name": "maturityDate",
          "type": "uint256"
        }
      ],
      "name": "liquidate",
      "outputs": [
        {
          "internalType": "uint256",
          "name": "",
          "type": "uint256"
        }
      ],
      "stateMutability": "nonpayable",
      "type": "function"
    },
    {
      "inputs": [],
      "name": "mpDepositDistributionWeighter",
      "outputs": [
        {
          "internalType": "uint256",
          "name": "",
          "type": "uint256"
        }
      ],
      "stateMutability": "view",
      "type": "function"
    },
    {
      "inputs": [],
      "name": "pause",
      "outputs": [],
      "stateMutability": "nonpayable",
      "type": "function"
    },
    {
      "inputs": [],
      "name": "paused",
      "outputs": [
        {
          "internalType": "bool",
          "name": "",
          "type": "bool"
        }
      ],
      "stateMutability": "view",
      "type": "function"
    },
    {
      "inputs": [],
      "name": "poolAccounting",
      "outputs": [
        {
          "internalType": "contract IPoolAccounting",
          "name": "",
          "type": "address"
        }
      ],
      "stateMutability": "view",
      "type": "function"
    },
    {
      "inputs": [],
      "name": "protocolLiquidationFee",
      "outputs": [
        {
          "internalType": "uint256",
          "name": "",
          "type": "uint256"
        }
      ],
      "stateMutability": "view",
      "type": "function"
    },
    {
      "inputs": [],
      "name": "protocolSpreadFee",
      "outputs": [
        {
          "internalType": "uint256",
          "name": "",
          "type": "uint256"
        }
      ],
      "stateMutability": "view",
      "type": "function"
    },
    {
      "inputs": [
        {
          "internalType": "bytes32",
          "name": "role",
          "type": "bytes32"
        },
        {
          "internalType": "address",
          "name": "account",
          "type": "address"
        }
      ],
      "name": "renounceRole",
      "outputs": [],
      "stateMutability": "nonpayable",
      "type": "function"
    },
    {
      "inputs": [
        {
          "internalType": "address",
          "name": "borrower",
          "type": "address"
        },
        {
          "internalType": "uint256",
          "name": "maturityDate",
          "type": "uint256"
        },
        {
          "internalType": "uint256",
          "name": "repayAmount",
          "type": "uint256"
        }
      ],
      "name": "repayToMaturityPool",
      "outputs": [],
      "stateMutability": "nonpayable",
      "type": "function"
    },
    {
      "inputs": [
        {
          "internalType": "bytes32",
          "name": "role",
          "type": "bytes32"
        },
        {
          "internalType": "address",
          "name": "account",
          "type": "address"
        }
      ],
      "name": "revokeRole",
      "outputs": [],
      "stateMutability": "nonpayable",
      "type": "function"
    },
    {
      "inputs": [
        {
          "internalType": "address",
          "name": "liquidator",
          "type": "address"
        },
        {
          "internalType": "address",
          "name": "borrower",
          "type": "address"
        },
        {
          "internalType": "uint256",
          "name": "seizeAmount",
          "type": "uint256"
        }
      ],
      "name": "seize",
      "outputs": [],
      "stateMutability": "nonpayable",
      "type": "function"
    },
    {
      "inputs": [
        {
          "internalType": "uint256",
          "name": "_mpDepositDistributionWeighter",
          "type": "uint256"
        }
      ],
      "name": "setMpDepositDistributionWeighter",
      "outputs": [],
      "stateMutability": "nonpayable",
      "type": "function"
    },
    {
      "inputs": [
        {
          "internalType": "uint256",
          "name": "_protocolLiquidationFee",
          "type": "uint256"
        }
      ],
      "name": "setProtocolLiquidationFee",
      "outputs": [],
      "stateMutability": "nonpayable",
      "type": "function"
    },
    {
      "inputs": [
        {
          "internalType": "uint256",
          "name": "_protocolSpreadFee",
          "type": "uint256"
        }
      ],
      "name": "setProtocolSpreadFee",
      "outputs": [],
      "stateMutability": "nonpayable",
      "type": "function"
    },
    {
      "inputs": [
        {
          "internalType": "bytes4",
          "name": "interfaceId",
          "type": "bytes4"
        }
      ],
      "name": "supportsInterface",
      "outputs": [
        {
          "internalType": "bool",
          "name": "",
          "type": "bool"
        }
      ],
      "stateMutability": "view",
      "type": "function"
    },
    {
      "inputs": [],
      "name": "totalMpBorrows",
      "outputs": [
        {
          "internalType": "uint256",
          "name": "",
          "type": "uint256"
        }
      ],
      "stateMutability": "view",
      "type": "function"
    },
    {
      "inputs": [],
      "name": "treasury",
      "outputs": [
        {
          "internalType": "uint256",
          "name": "",
          "type": "uint256"
        }
      ],
      "stateMutability": "view",
      "type": "function"
    },
    {
      "inputs": [],
      "name": "trustedUnderlying",
      "outputs": [
        {
          "internalType": "contract IERC20",
          "name": "",
          "type": "address"
        }
      ],
      "stateMutability": "view",
      "type": "function"
    },
    {
      "inputs": [],
      "name": "underlyingTokenName",
      "outputs": [
        {
          "internalType": "string",
          "name": "",
          "type": "string"
        }
      ],
      "stateMutability": "view",
      "type": "function"
    },
    {
      "inputs": [],
      "name": "unpause",
      "outputs": [],
      "stateMutability": "nonpayable",
      "type": "function"
    },
    {
      "inputs": [
        {
          "internalType": "address payable",
          "name": "redeemer",
          "type": "address"
        },
        {
          "internalType": "uint256",
          "name": "redeemAmount",
          "type": "uint256"
        },
        {
          "internalType": "uint256",
          "name": "maturityDate",
          "type": "uint256"
        }
      ],
      "name": "withdrawFromMaturityPool",
      "outputs": [],
      "stateMutability": "nonpayable",
      "type": "function"
    },
    {
      "inputs": [
        {
          "internalType": "uint256",
          "name": "amount",
          "type": "uint256"
        }
      ],
      "name": "withdrawFromSmartPool",
      "outputs": [],
      "stateMutability": "nonpayable",
      "type": "function"
    },
    {
      "inputs": [
        {
          "internalType": "address",
          "name": "who",
          "type": "address"
        },
        {
          "internalType": "uint256",
          "name": "amount",
          "type": "uint256"
        }
      ],
      "name": "withdrawFromTreasury",
      "outputs": [],
      "stateMutability": "nonpayable",
      "type": "function"
    }
  ],
  "transactionHash": "0xe39a40b6f07c857262c62663ea0f44f24beb558c9ebf5fadb36a7467ede8b91c",
  "args": [
    "0x4F96Fe3b7A6Cf9725f59d353F723c1bDb64CA6Aa",
    "DAI",
    "0x856DDeBa939289bFe3b5eD28A55BF0c82693E8AC",
    "0x6c12C61d9227F5315Bc4436E68121D9073961681",
    "0xB6Fb7d160001CfD13d15B762A4a46eF95cA0BA0a"
  ],
  "numDeployments": 1,
  "solcInputHash": "b29e96ef9678c31f24803a302d5ef6ff",
  "bytecode": "0x6080604052666379da05b60000600355666379da05b60000600455670de0b6b3a76400006005553480156200003357600080fd5b50604051620054363803806200543683398181016040528101906200005991906200046c565b60016000819055506000600260006101000a81548160ff021916908315150217905550620000916000801b33620001b960201b60201c565b84600760006101000a81548173ffffffffffffffffffffffffffffffffffffffff021916908373ffffffffffffffffffffffffffffffffffffffff1602179055508360099080519060200190620000ea92919062000333565b5081600b60006101000a81548173ffffffffffffffffffffffffffffffffffffffff021916908373ffffffffffffffffffffffffffffffffffffffff16021790555082600860006101000a81548173ffffffffffffffffffffffffffffffffffffffff021916908373ffffffffffffffffffffffffffffffffffffffff16021790555080600a60006101000a81548173ffffffffffffffffffffffffffffffffffffffff021916908373ffffffffffffffffffffffffffffffffffffffff1602179055505050505050620006c5565b620001cb8282620001cf60201b60201c565b5050565b620001e18282620002c060201b60201c565b620002bc57600180600084815260200190815260200160002060000160008373ffffffffffffffffffffffffffffffffffffffff1673ffffffffffffffffffffffffffffffffffffffff16815260200190815260200160002060006101000a81548160ff021916908315150217905550620002616200032b60201b60201c565b73ffffffffffffffffffffffffffffffffffffffff168173ffffffffffffffffffffffffffffffffffffffff16837f2f8788117e7eff1d82e926ec794901d17c78024a50270940304540a733656f0d60405160405180910390a45b5050565b60006001600084815260200190815260200160002060000160008373ffffffffffffffffffffffffffffffffffffffff1673ffffffffffffffffffffffffffffffffffffffff16815260200190815260200160002060009054906101000a900460ff16905092915050565b600033905090565b8280546200034190620005d0565b90600052602060002090601f016020900481019282620003655760008555620003b1565b82601f106200038057805160ff1916838001178555620003b1565b82800160010185558215620003b1579182015b82811115620003b057825182559160200191906001019062000393565b5b509050620003c09190620003c4565b5090565b5b80821115620003df576000816000905550600101620003c5565b5090565b6000620003fa620003f48462000530565b62000507565b9050828152602081018484840111156200041357600080fd5b620004208482856200059a565b509392505050565b6000815190506200043981620006ab565b92915050565b600082601f8301126200045157600080fd5b815162000463848260208601620003e3565b91505092915050565b600080600080600060a086880312156200048557600080fd5b6000620004958882890162000428565b955050602086015167ffffffffffffffff811115620004b357600080fd5b620004c1888289016200043f565b9450506040620004d48882890162000428565b9350506060620004e78882890162000428565b9250506080620004fa8882890162000428565b9150509295509295909350565b60006200051362000526565b905062000521828262000606565b919050565b6000604051905090565b600067ffffffffffffffff8211156200054e576200054d6200066b565b5b62000559826200069a565b9050602081019050919050565b600062000573826200057a565b9050919050565b600073ffffffffffffffffffffffffffffffffffffffff82169050919050565b60005b83811015620005ba5780820151818401526020810190506200059d565b83811115620005ca576000848401525b50505050565b60006002820490506001821680620005e957607f821691505b602082108114156200060057620005ff6200063c565b5b50919050565b62000611826200069a565b810181811067ffffffffffffffff821117156200063357620006326200066b565b5b80604052505050565b7f4e487b7100000000000000000000000000000000000000000000000000000000600052602260045260246000fd5b7f4e487b7100000000000000000000000000000000000000000000000000000000600052604160045260246000fd5b6000601f19601f8301169050919050565b620006b68162000566565b8114620006c257600080fd5b50565b614d6180620006d56000396000f3fe608060405234801561001057600080fd5b506004361061023d5760003560e01c806361d027b31161013b578063953d9cf1116100b8578063bce100d31161007c578063bce100d31461066b578063c0107f8114610687578063d547741f146106a5578063e63ab1e9146106c1578063eafecffa146106df5761023d565b8063953d9cf1146105d9578063a217fddf146105f7578063b2a02ff114610615578063b72ddee914610631578063b7f394c01461064f5761023d565b806375e1d781116100ff57806375e1d781146105215780638456cb591461055157806391d148541461055b57806391f3e4721461058b5780639457be23146105a95761023d565b806361d027b31461048f57806362dd9f23146104ad57806368effd5c146104cb57806375b9f418146104e757806375d4b96f146105055761023d565b80632f2ff15d116101c9578063433b35961161018d578063433b3596146103e85780634bf2ee391461040657806355a1ac2e146104245780635c975abb146104555780636135600f146104735761023d565b80632f2ff15d1461036c5780633384c3bc1461038857806336568abe146103a45780633ec045a6146103c05780633f4ba83a146103de5761023d565b80630bda514e116102105780630bda514e146102c85780631ea8946d146102e4578063248a9ca31461030257806325c346b61461033257806327f1a884146103505761023d565b806301ffc9a7146102425780630663af081461027257806307219b091461028e578063086c9f1c146102ac575b600080fd5b61025c60048036038101906102579190613a8e565b6106fd565b604051610269919061412a565b60405180910390f35b61028c60048036038101906102879190613912565b610777565b005b6102966107d7565b6040516102a39190614108565b60405180910390f35b6102c660048036038101906102c19190613b45565b6107e8565b005b6102e260048036038101906102dd91906139b1565b6109bb565b005b6102ec610a7a565b6040516102f99190614309565b60405180910390f35b61031c60048036038101906103179190613a29565b610a80565b6040516103299190614145565b60405180910390f35b61033a610aa0565b60405161034791906144a6565b60405180910390f35b61036a60048036038101906103659190613874565b610aa5565b005b61038660048036038101906103819190613a52565b610cf1565b005b6103a2600480360381019061039d9190613ab7565b610d1a565b005b6103be60048036038101906103b99190613a52565b610d3a565b005b6103c8610dbd565b6040516103d59190614160565b60405180910390f35b6103e6610de3565b005b6103f0610e20565b6040516103fd91906141b1565b60405180910390f35b61040e610e46565b60405161041b919061417b565b60405180910390f35b61043e60048036038101906104399190613912565b610e6c565b60405161044c929190614446565b60405180910390f35b61045d610fd2565b60405161046a919061412a565b60405180910390f35b61048d60048036038101906104889190613ab7565b610fe9565b005b61049761111d565b6040516104a49190614309565b60405180910390f35b6104b5611123565b6040516104c29190614309565b60405180910390f35b6104e560048036038101906104e09190613b45565b611129565b005b6104ef611446565b6040516104fc9190614309565b60405180910390f35b61051f600480360381019061051a9190613ab7565b6114ed565b005b61053b60048036038101906105369190613ab7565b61150d565b6040516105489190614309565b60405180910390f35b6105596115c1565b005b61057560048036038101906105709190613a52565b6115fe565b604051610582919061412a565b60405180910390f35b610593611669565b6040516105a091906141e7565b60405180910390f35b6105c360048036038101906105be919061394e565b6116f7565b6040516105d09190614309565b60405180910390f35b6105e16117ae565b6040516105ee9190614196565b60405180910390f35b6105ff6117d4565b60405161060c9190614145565b60405180910390f35b61062f600480360381019061062a91906138c3565b6117db565b005b61063961188a565b6040516106469190614160565b60405180910390f35b61066960048036038101906106649190613ab7565b6118b4565b005b61068560048036038101906106809190613ab7565b611c9e565b005b61068f611cbe565b60405161069c9190614309565b60405180910390f35b6106bf60048036038101906106ba9190613a52565b611cc4565b005b6106c9611ced565b6040516106d69190614145565b60405180910390f35b6106e7611d11565b6040516106f49190614309565b60405180910390f35b60007f7965db0b000000000000000000000000000000000000000000000000000000007bffffffffffffffffffffffffffffffffffffffffffffffffffffffff1916827bffffffffffffffffffffffffffffffffffffffffffffffffffffffff19161480610770575061076f82611d17565b5b9050919050565b6000801b61078c81610787611d81565b611d89565b816006600082825461079e91906146b6565b925050819055506107d2600760009054906101000a900473ffffffffffffffffffffffffffffffffffffffff168484611e26565b505050565b60606107e3600c611eac565b905090565b6002600054141561082e576040517f08c379a0000000000000000000000000000000000000000000000000000000008152600401610825906142c9565b60405180910390fd5b600260008190555061083e610fd2565b1561087e576040517f08c379a000000000000000000000000000000000000000000000000000000000815260040161087590614269565b60405180910390fd5b61088d600c8360036000611fd1565b61089733846122ed565b92506000600a60009054906101000a900473ffffffffffffffffffffffffffffffffffffffff1673ffffffffffffffffffffffffffffffffffffffff1663bd9c2ecb843387866040518563ffffffff1660e01b81526004016108fc94939291906143a0565b602060405180830381600087803b15801561091657600080fd5b505af115801561092a573d6000803e3d6000fd5b505050506040513d601f19601f8201168201806040525081019061094e9190613ae0565b90503373ffffffffffffffffffffffffffffffffffffffff167fe983baebb65a77750c6277cf1d19a6a07b25a472b789a59005944cb59b91425a85868461099591906146b6565b866040516109a59392919061446f565b60405180910390a2506001600081905550505050565b60026000541415610a01576040517f08c379a00000000000000000000000000000000000000000000000000000000081526004016109f8906142c9565b60405180910390fd5b6002600081905550610a11610fd2565b15610a51576040517f08c379a0000000000000000000000000000000000000000000000000000000008152600401610a4890614269565b60405180910390fd5b610a60600c8360036002611fd1565b610a6c33848385612490565b506001600081905550505050565b60055481565b600060016000838152602001908152602001600020600101549050919050565b600c81565b60026000541415610aeb576040517f08c379a0000000000000000000000000000000000000000000000000000000008152600401610ae2906142c9565b60405180910390fd5b60026000819055506000821415610b3a5760126040517fede8a599000000000000000000000000000000000000000000000000000000008152600401610b3191906141cc565b60405180910390fd5b610b49600c8260026000611fd1565b600a60009054906101000a900473ffffffffffffffffffffffffffffffffffffffff1673ffffffffffffffffffffffffffffffffffffffff16632ee436a1828585600c60ff16600860009054906101000a900473ffffffffffffffffffffffffffffffffffffffff1673ffffffffffffffffffffffffffffffffffffffff166318160ddd6040518163ffffffff1660e01b815260040160206040518083038186803b158015610bf757600080fd5b505afa158015610c0b573d6000803e3d6000fd5b505050506040513d601f19601f82011682018060405250810190610c2f9190613ae0565b610c3991906145ed565b6040518563ffffffff1660e01b8152600401610c589493929190614324565b600060405180830381600087803b158015610c7257600080fd5b505af1158015610c86573d6000803e3d6000fd5b50505050610c948383612729565b8273ffffffffffffffffffffffffffffffffffffffff167fac44b7cd8d864cbf99c4acc9c9787f54f5a4ac089349fecf3de4ce2ddff7b7bb8383604051610cdc929190614446565b60405180910390a26001600081905550505050565b610cfa82610a80565b610d0b81610d06611d81565b611d89565b610d15838361275a565b505050565b6000801b610d2f81610d2a611d81565b611d89565b816003819055505050565b610d42611d81565b73ffffffffffffffffffffffffffffffffffffffff168173ffffffffffffffffffffffffffffffffffffffff1614610daf576040517f08c379a0000000000000000000000000000000000000000000000000000000008152600401610da6906142e9565b60405180910390fd5b610db9828261283a565b5050565b600b60009054906101000a900473ffffffffffffffffffffffffffffffffffffffff1681565b7f65d7a28e3265b37a6474929f336521b332c1681b933f6cb9f3376673440d862a610e1581610e10611d81565b611d89565b610e1d61291c565b50565b600a60009054906101000a900473ffffffffffffffffffffffffffffffffffffffff1681565b600760009054906101000a900473ffffffffffffffffffffffffffffffffffffffff1681565b600080600860009054906101000a900473ffffffffffffffffffffffffffffffffffffffff1673ffffffffffffffffffffffffffffffffffffffff166370a08231856040518263ffffffff1660e01b8152600401610eca9190613f6b565b60206040518083038186803b158015610ee257600080fd5b505afa158015610ef6573d6000803e3d6000fd5b505050506040513d601f19601f82011682018060405250810190610f1a9190613ae0565b600a60009054906101000a900473ffffffffffffffffffffffffffffffffffffffff1673ffffffffffffffffffffffffffffffffffffffff16631b0a67fe86866040518363ffffffff1660e01b8152600401610f779291906140df565b60206040518083038186803b158015610f8f57600080fd5b505afa158015610fa3573d6000803e3d6000fd5b505050506040513d601f19601f82011682018060405250810190610fc79190613ae0565b915091509250929050565b6000600260009054906101000a900460ff16905090565b610ff1610fd2565b15611031576040517f08c379a000000000000000000000000000000000000000000000000000000000815260040161102890614269565b60405180910390fd5b61103b33826122ed565b9050600860009054906101000a900473ffffffffffffffffffffffffffffffffffffffff1673ffffffffffffffffffffffffffffffffffffffff166340c10f1933836040518363ffffffff1660e01b815260040161109a9291906140df565b600060405180830381600087803b1580156110b457600080fd5b505af11580156110c8573d6000803e3d6000fd5b505050503373ffffffffffffffffffffffffffffffffffffffff167fd5656bd5348ef71585f018f0e1310274a6c223cc991afb5c5c2ee9f42313ad44826040516111129190614309565b60405180910390a250565b60065481565b60035481565b6002600054141561116f576040517f08c379a0000000000000000000000000000000000000000000000000000000008152600401611166906142c9565b60405180910390fd5b600260008190555061117f610fd2565b156111bf576040517f08c379a00000000000000000000000000000000000000000000000000000000081526004016111b690614269565b60405180910390fd5b6111ce600c8360036000611fd1565b6000600a60009054906101000a900473ffffffffffffffffffffffffffffffffffffffff1673ffffffffffffffffffffffffffffffffffffffff1663cb0b8a5584338786600860009054906101000a900473ffffffffffffffffffffffffffffffffffffffff1673ffffffffffffffffffffffffffffffffffffffff166318160ddd6040518163ffffffff1660e01b815260040160206040518083038186803b15801561127a57600080fd5b505afa15801561128e573d6000803e3d6000fd5b505050506040513d601f19601f820116820180604052508101906112b29190613ae0565b600c6040518763ffffffff1660e01b81526004016112d5969594939291906143e5565b602060405180830381600087803b1580156112ef57600080fd5b505af1158015611303573d6000803e3d6000fd5b505050506040513d601f19601f820116820180604052508101906113279190613ae0565b905080600c600082825461133b9190614597565b92505081905550600b60009054906101000a900473ffffffffffffffffffffffffffffffffffffffff1673ffffffffffffffffffffffffffffffffffffffff1663144348d530336040518363ffffffff1660e01b815260040161139f929190613f86565b600060405180830381600087803b1580156113b957600080fd5b505af11580156113cd573d6000803e3d6000fd5b505050506113db3385612729565b3373ffffffffffffffffffffffffffffffffffffffff167fee72e8c8b6eca9a0d0d7e3769f539ba283595748fe87a842d8d64d5d825173a885868461142091906146b6565b866040516114309392919061446f565b60405180910390a2506001600081905550505050565b6000600860009054906101000a900473ffffffffffffffffffffffffffffffffffffffff1673ffffffffffffffffffffffffffffffffffffffff166318160ddd6040518163ffffffff1660e01b815260040160206040518083038186803b1580156114b057600080fd5b505afa1580156114c4573d6000803e3d6000fd5b505050506040513d601f19601f820116820180604052508101906114e89190613ae0565b905090565b6000801b611502816114fd611d81565b611d89565b816005819055505050565b6000600a60009054906101000a900473ffffffffffffffffffffffffffffffffffffffff1673ffffffffffffffffffffffffffffffffffffffff166375e1d781836040518263ffffffff1660e01b815260040161156a9190614309565b60206040518083038186803b15801561158257600080fd5b505afa158015611596573d6000803e3d6000fd5b505050506040513d601f19601f820116820180604052508101906115ba9190613ae0565b9050919050565b7f65d7a28e3265b37a6474929f336521b332c1681b933f6cb9f3376673440d862a6115f3816115ee611d81565b611d89565b6115fb6129be565b50565b60006001600084815260200190815260200160002060000160008373ffffffffffffffffffffffffffffffffffffffff1673ffffffffffffffffffffffffffffffffffffffff16815260200190815260200160002060009054906101000a900460ff16905092915050565b60098054611676906148f1565b80601f01602080910402602001604051908101604052809291908181526020018280546116a2906148f1565b80156116ef5780601f106116c4576101008083540402835291602001916116ef565b820191906000526020600020905b8154815290600101906020018083116116d257829003601f168201915b505050505081565b60006002600054141561173f576040517f08c379a0000000000000000000000000000000000000000000000000000000008152600401611736906142c9565b60405180910390fd5b600260008190555061174f610fd2565b1561178f576040517f08c379a000000000000000000000000000000000000000000000000000000000815260040161178690614269565b60405180910390fd5b61179c3386868686612a61565b90506001600081905550949350505050565b600860009054906101000a900473ffffffffffffffffffffffffffffffffffffffff1681565b6000801b81565b60026000541415611821576040517f08c379a0000000000000000000000000000000000000000000000000000000008152600401611818906142c9565b60405180910390fd5b6002600081905550611831610fd2565b15611871576040517f08c379a000000000000000000000000000000000000000000000000000000000815260040161186890614269565b60405180910390fd5b61187d33848484612d90565b6001600081905550505050565b6000600b60009054906101000a900473ffffffffffffffffffffffffffffffffffffffff16905090565b600b60009054906101000a900473ffffffffffffffffffffffffffffffffffffffff1673ffffffffffffffffffffffffffffffffffffffff16639cbda20e3033846040518463ffffffff1660e01b815260040161191393929190614047565b60006040518083038186803b15801561192b57600080fd5b505afa15801561193f573d6000803e3d6000fd5b505050506000600860009054906101000a900473ffffffffffffffffffffffffffffffffffffffff1673ffffffffffffffffffffffffffffffffffffffff166370a08231336040518263ffffffff1660e01b81526004016119a09190613f6b565b60206040518083038186803b1580156119b857600080fd5b505afa1580156119cc573d6000803e3d6000fd5b505050506040513d601f19601f820116820180604052508101906119f09190613ae0565b905060008290507fffffffffffffffffffffffffffffffffffffffffffffffffffffffffffffffff831415611a23578190505b600a60009054906101000a900473ffffffffffffffffffffffffffffffffffffffff1673ffffffffffffffffffffffffffffffffffffffff1663fd8ecd176040518163ffffffff1660e01b815260040160206040518083038186803b158015611a8b57600080fd5b505afa158015611a9f573d6000803e3d6000fd5b505050506040513d601f19601f82011682018060405250810190611ac39190613ae0565b81600860009054906101000a900473ffffffffffffffffffffffffffffffffffffffff1673ffffffffffffffffffffffffffffffffffffffff166318160ddd6040518163ffffffff1660e01b815260040160206040518083038186803b158015611b2c57600080fd5b505afa158015611b40573d6000803e3d6000fd5b505050506040513d601f19601f82011682018060405250810190611b649190613ae0565b611b6e91906146b6565b1015611bb25760166040517fede8a599000000000000000000000000000000000000000000000000000000008152600401611ba991906141cc565b60405180910390fd5b600860009054906101000a900473ffffffffffffffffffffffffffffffffffffffff1673ffffffffffffffffffffffffffffffffffffffff16639dc29fac33836040518363ffffffff1660e01b8152600401611c0f9291906140df565b600060405180830381600087803b158015611c2957600080fd5b505af1158015611c3d573d6000803e3d6000fd5b50505050611c4b3382612729565b3373ffffffffffffffffffffffffffffffffffffffff167f2326675290def598d0fd820ee11f06c58c01b80230ab369044cf0b17dbfdc57f84604051611c919190614309565b60405180910390a2505050565b6000801b611cb381611cae611d81565b611d89565b816004819055505050565b600c5481565b611ccd82610a80565b611cde81611cd9611d81565b611d89565b611ce8838361283a565b505050565b7f65d7a28e3265b37a6474929f336521b332c1681b933f6cb9f3376673440d862a81565b60045481565b60007f01ffc9a7000000000000000000000000000000000000000000000000000000007bffffffffffffffffffffffffffffffffffffffffffffffffffffffff1916827bffffffffffffffffffffffffffffffffffffffffffffffffffffffff1916149050919050565b600033905090565b611d9382826115fe565b611e2257611db88173ffffffffffffffffffffffffffffffffffffffff166014613107565b611dc68360001c6020613107565b604051602001611dd7929190613f31565b6040516020818303038152906040526040517f08c379a0000000000000000000000000000000000000000000000000000000008152600401611e1991906141e7565b60405180910390fd5b5050565b611ea78363a9059cbb60e01b8484604051602401611e459291906140df565b604051602081830303815290604052907bffffffffffffffffffffffffffffffffffffffffffffffffffffffff19166020820180517bffffffffffffffffffffffffffffffffffffffffffffffffffffffff8381831617835250505050613401565b505050565b606060008260ff1667ffffffffffffffff811115611ef3577f4e487b7100000000000000000000000000000000000000000000000000000000600052604160045260246000fd5b604051908082528060200260200182016040528015611f215781602001602082028036833780820191505090505b509050600062093a8063ffffffff1642611f3b919061496c565b42611f4691906146b6565b905060005b8460ff16811015611fc65762093a8063ffffffff1682611f6b9190614597565b915081838281518110611fa7577f4e487b7100000000000000000000000000000000000000000000000000000000600052603260045260246000fd5b6020026020010181815250508080611fbe90614923565b915050611f4b565b508192505050919050565b6000611fde4285876134c8565b9050826004811115612019577f4e487b7100000000000000000000000000000000000000000000000000000000600052602160045260246000fd5b816004811115612052577f4e487b7100000000000000000000000000000000000000000000000000000000600052602160045260246000fd5b141580156120d05750816004811115612094577f4e487b7100000000000000000000000000000000000000000000000000000000600052602160045260246000fd5b8160048111156120cd577f4e487b7100000000000000000000000000000000000000000000000000000000600052602160045260246000fd5b14155b156122e6576000600481111561210f577f4e487b7100000000000000000000000000000000000000000000000000000000600052602160045260246000fd5b826004811115612148577f4e487b7100000000000000000000000000000000000000000000000000000000600052602160045260246000fd5b14156121fd57806004811115612187577f4e487b7100000000000000000000000000000000000000000000000000000000600052602160045260246000fd5b8360048111156121c0577f4e487b7100000000000000000000000000000000000000000000000000000000600052602160045260246000fd5b6040517f34e2603a0000000000000000000000000000000000000000000000000000000081526004016121f49291906144c1565b60405180910390fd5b806004811115612236577f4e487b7100000000000000000000000000000000000000000000000000000000600052602160045260246000fd5b83600481111561226f577f4e487b7100000000000000000000000000000000000000000000000000000000600052602160045260246000fd5b8360048111156122a8577f4e487b7100000000000000000000000000000000000000000000000000000000600052602160045260246000fd5b6040517f537c4e510000000000000000000000000000000000000000000000000000000081526004016122dd939291906144ea565b60405180910390fd5b5050505050565b600080600760009054906101000a900473ffffffffffffffffffffffffffffffffffffffff1673ffffffffffffffffffffffffffffffffffffffff166370a08231306040518263ffffffff1660e01b815260040161234b9190613f6b565b60206040518083038186803b15801561236357600080fd5b505afa158015612377573d6000803e3d6000fd5b505050506040513d601f19601f8201168201806040525081019061239b9190613ae0565b90506123cb600760009054906101000a900473ffffffffffffffffffffffffffffffffffffffff16853086613564565b6000600760009054906101000a900473ffffffffffffffffffffffffffffffffffffffff1673ffffffffffffffffffffffffffffffffffffffff166370a08231306040518263ffffffff1660e01b81526004016124289190613f6b565b60206040518083038186803b15801561244057600080fd5b505afa158015612454573d6000803e3d6000fd5b505050506040513d601f19601f820116820180604052508101906124789190613ae0565b9050818161248691906146b6565b9250505092915050565b6000808314156124d85760096040517fede8a5990000000000000000000000000000000000000000000000000000000081526004016124cf91906141cc565b60405180910390fd5b6124e285846122ed565b9250600080600080600a60009054906101000a900473ffffffffffffffffffffffffffffffffffffffff1673ffffffffffffffffffffffffffffffffffffffff166372cd230b878a8a6040518463ffffffff1660e01b815260040161254993929190614369565b608060405180830381600087803b15801561256357600080fd5b505af1158015612577573d6000803e3d6000fd5b505050506040513d601f19601f8201168201806040525081019061259b9190613b94565b935093509350935060008411156125b7576125b68985612729565b5b60006125ce600354846135ed90919063ffffffff16565b905080600660008282546125e29190614597565b92505081905550600860009054906101000a900473ffffffffffffffffffffffffffffffffffffffff1673ffffffffffffffffffffffffffffffffffffffff16638fa467c483838661263491906146b6565b61263e9190614597565b6040518263ffffffff1660e01b815260040161265a9190614309565b600060405180830381600087803b15801561267457600080fd5b505af1158015612688573d6000803e3d6000fd5b5050505083600c600082825461269e91906146b6565b925050819055508873ffffffffffffffffffffffffffffffffffffffff168a73ffffffffffffffffffffffffffffffffffffffff167f29c098a0b2f51718bfec23f9b7f06f8d3a257d44b55f33fb0ccf606e7104820c8a878b6040516127069392919061446f565b60405180910390a3848861271a91906146b6565b95505050505050949350505050565b612756600760009054906101000a900473ffffffffffffffffffffffffffffffffffffffff168383611e26565b5050565b61276482826115fe565b61283657600180600084815260200190815260200160002060000160008373ffffffffffffffffffffffffffffffffffffffff1673ffffffffffffffffffffffffffffffffffffffff16815260200190815260200160002060006101000a81548160ff0219169083151502179055506127db611d81565b73ffffffffffffffffffffffffffffffffffffffff168173ffffffffffffffffffffffffffffffffffffffff16837f2f8788117e7eff1d82e926ec794901d17c78024a50270940304540a733656f0d60405160405180910390a45b5050565b61284482826115fe565b156129185760006001600084815260200190815260200160002060000160008373ffffffffffffffffffffffffffffffffffffffff1673ffffffffffffffffffffffffffffffffffffffff16815260200190815260200160002060006101000a81548160ff0219169083151502179055506128bd611d81565b73ffffffffffffffffffffffffffffffffffffffff168173ffffffffffffffffffffffffffffffffffffffff16837ff6391f5c32d9c69d2a47ea670b442974b53935d1edc7fd64eb21e047a839171b60405160405180910390a45b5050565b612924610fd2565b612963576040517f08c379a000000000000000000000000000000000000000000000000000000000815260040161295a90614229565b60405180910390fd5b6000600260006101000a81548160ff0219169083151502179055507f5db9ee0a495bf2e6ff9c91a7834c1ba4fdd244a5e8aa4e537bd38aeae4b073aa6129a7611d81565b6040516129b49190613f6b565b60405180910390a1565b6129c6610fd2565b15612a06576040517f08c379a00000000000000000000000000000000000000000000000000000000081526004016129fd90614269565b60405180910390fd5b6001600260006101000a81548160ff0219169083151502179055507f62e78cea01bee320cd4e420270b5ea74000d11b0c9f74754ebdbfc544b05a258612a4a611d81565b604051612a579190613f6b565b60405180910390a1565b6000600b60009054906101000a900473ffffffffffffffffffffffffffffffffffffffff1673ffffffffffffffffffffffffffffffffffffffff16635d0aef8d30858989896040518663ffffffff1660e01b8152600401612ac6959493929190613ff4565b60006040518083038186803b158015612ade57600080fd5b505afa158015612af2573d6000803e3d6000fd5b50505050612b0286868685612490565b93506000600b60009054906101000a900473ffffffffffffffffffffffffffffffffffffffff1673ffffffffffffffffffffffffffffffffffffffff16635efadbd13086886040518463ffffffff1660e01b8152600401612b6593929190614047565b60206040518083038186803b158015612b7d57600080fd5b505afa158015612b91573d6000803e3d6000fd5b505050506040513d601f19601f82011682018060405250810190612bb59190613ae0565b905060008473ffffffffffffffffffffffffffffffffffffffff166355a1ac2e88866040518363ffffffff1660e01b8152600401612bf49291906140df565b604080518083038186803b158015612c0b57600080fd5b505afa158015612c1f573d6000803e3d6000fd5b505050506040513d601f19601f82011682018060405250810190612c439190613b09565b50905081811015612c8c57600a6040517fede8a599000000000000000000000000000000000000000000000000000000008152600401612c8391906141cc565b60405180910390fd5b3073ffffffffffffffffffffffffffffffffffffffff168573ffffffffffffffffffffffffffffffffffffffff161415612cd157612ccc30898985612d90565b612d41565b8473ffffffffffffffffffffffffffffffffffffffff1663b2a02ff18989856040518463ffffffff1660e01b8152600401612d0e93929190614047565b600060405180830381600087803b158015612d2857600080fd5b505af1158015612d3c573d6000803e3d6000fd5b505050505b7f9e76a01ba2e51393f58ccc22c0afc9520815e0cc3f301f7b5d7442fcaee9fdc1888888888689604051612d7a9695949392919061407e565b60405180910390a1859250505095945050505050565b600b60009054906101000a900473ffffffffffffffffffffffffffffffffffffffff1673ffffffffffffffffffffffffffffffffffffffff1663eafe967b308686866040518563ffffffff1660e01b8152600401612df19493929190613faf565b60006040518083038186803b158015612e0957600080fd5b505afa158015612e1d573d6000803e3d6000fd5b505050506000612e38600454836135ed90919063ffffffff16565b905060008183612e4891906146b6565b90508160066000828254612e5c9190614597565b92505081905550600a60009054906101000a900473ffffffffffffffffffffffffffffffffffffffff1673ffffffffffffffffffffffffffffffffffffffff1663fd8ecd176040518163ffffffff1660e01b815260040160206040518083038186803b158015612ecb57600080fd5b505afa158015612edf573d6000803e3d6000fd5b505050506040513d601f19601f82011682018060405250810190612f039190613ae0565b81600860009054906101000a900473ffffffffffffffffffffffffffffffffffffffff1673ffffffffffffffffffffffffffffffffffffffff166318160ddd6040518163ffffffff1660e01b815260040160206040518083038186803b158015612f6c57600080fd5b505afa158015612f80573d6000803e3d6000fd5b505050506040513d601f19601f82011682018060405250810190612fa49190613ae0565b612fae91906146b6565b1015612ff25760166040517fede8a599000000000000000000000000000000000000000000000000000000008152600401612fe991906141cc565b60405180910390fd5b600860009054906101000a900473ffffffffffffffffffffffffffffffffffffffff1673ffffffffffffffffffffffffffffffffffffffff16639dc29fac85856040518363ffffffff1660e01b815260040161304f9291906140df565b600060405180830381600087803b15801561306957600080fd5b505af115801561307d573d6000803e3d6000fd5b5050505061308b8582612729565b7f47cadff479ffebc80dd9d2330c72e274eaf0e620bb4e9d617356df321e8297618585856040516130be93929190614047565b60405180910390a17f77c97459a115e74ba5adced182b076766b1b9825e785d85b5f0f06d444bef21130836040516130f79291906140df565b60405180910390a1505050505050565b60606000600283600261311a919061461e565b6131249190614597565b67ffffffffffffffff811115613163577f4e487b7100000000000000000000000000000000000000000000000000000000600052604160045260246000fd5b6040519080825280601f01601f1916602001820160405280156131955781602001600182028036833780820191505090505b5090507f3000000000000000000000000000000000000000000000000000000000000000816000815181106131f3577f4e487b7100000000000000000000000000000000000000000000000000000000600052603260045260246000fd5b60200101907effffffffffffffffffffffffffffffffffffffffffffffffffffffffffffff1916908160001a9053507f78000000000000000000000000000000000000000000000000000000000000008160018151811061327d577f4e487b7100000000000000000000000000000000000000000000000000000000600052603260045260246000fd5b60200101907effffffffffffffffffffffffffffffffffffffffffffffffffffffffffffff1916908160001a905350600060018460026132bd919061461e565b6132c79190614597565b90505b60018111156133b3577f3031323334353637383961626364656600000000000000000000000000000000600f86166010811061332f577f4e487b7100000000000000000000000000000000000000000000000000000000600052603260045260246000fd5b1a60f81b82828151811061336c577f4e487b7100000000000000000000000000000000000000000000000000000000600052603260045260246000fd5b60200101907effffffffffffffffffffffffffffffffffffffffffffffffffffffffffffff1916908160001a905350600485901c9450806133ac906148c7565b90506132ca565b50600084146133f7576040517f08c379a00000000000000000000000000000000000000000000000000000000081526004016133ee90614209565b60405180910390fd5b8091505092915050565b6000613463826040518060400160405280602081526020017f5361666545524332303a206c6f772d6c6576656c2063616c6c206661696c65648152508573ffffffffffffffffffffffffffffffffffffffff166136169092919063ffffffff16565b90506000815111156134c357808060200190518101906134839190613a00565b6134c2576040517f08c379a00000000000000000000000000000000000000000000000000000000081526004016134b9906142a9565b60405180910390fd5b5b505050565b60008062093a8063ffffffff16846134e0919061496c565b146134ee576001905061355d565b838310156134ff576002905061355d565b60008260ff1662093a806135139190614678565b63ffffffff1690508062093a8063ffffffff1686613531919061496c565b8661353c91906146b6565b6135469190614597565b84111561355757600491505061355d565b60039150505b9392505050565b6135e7846323b872dd60e01b85858560405160240161358593929190614047565b604051602081830303815290604052907bffffffffffffffffffffffffffffffffffffffffffffffffffffffff19166020820180517bffffffffffffffffffffffffffffffffffffffffffffffffffffffff8381831617835250505050613401565b50505050565b6000670de0b6b3a76400008284613604919061461e565b61360e91906145ed565b905092915050565b6060613625848460008561362e565b90509392505050565b606082471015613673576040517f08c379a000000000000000000000000000000000000000000000000000000000815260040161366a90614249565b60405180910390fd5b61367c85613742565b6136bb576040517f08c379a00000000000000000000000000000000000000000000000000000000081526004016136b290614289565b60405180910390fd5b6000808673ffffffffffffffffffffffffffffffffffffffff1685876040516136e49190613f1a565b60006040518083038185875af1925050503d8060008114613721576040519150601f19603f3d011682016040523d82523d6000602084013e613726565b606091505b5091509150613736828286613765565b92505050949350505050565b6000808273ffffffffffffffffffffffffffffffffffffffff163b119050919050565b60608315613775578290506137c5565b6000835111156137885782518084602001fd5b816040517f08c379a00000000000000000000000000000000000000000000000000000000081526004016137bc91906141e7565b60405180910390fd5b9392505050565b6000813590506137db81614c8a565b92915050565b6000813590506137f081614ca1565b92915050565b60008151905061380581614cb8565b92915050565b60008135905061381a81614ccf565b92915050565b60008135905061382f81614ce6565b92915050565b60008135905061384481614cfd565b92915050565b60008135905061385981614d14565b92915050565b60008151905061386e81614d14565b92915050565b60008060006060848603121561388957600080fd5b6000613897868287016137e1565b93505060206138a88682870161384a565b92505060406138b98682870161384a565b9150509250925092565b6000806000606084860312156138d857600080fd5b60006138e6868287016137cc565b93505060206138f7868287016137cc565b92505060406139088682870161384a565b9150509250925092565b6000806040838503121561392557600080fd5b6000613933858286016137cc565b92505060206139448582860161384a565b9150509250929050565b6000806000806080858703121561396457600080fd5b6000613972878288016137cc565b94505060206139838782880161384a565b935050604061399487828801613835565b92505060606139a58782880161384a565b91505092959194509250565b6000806000606084860312156139c657600080fd5b60006139d4868287016137cc565b93505060206139e58682870161384a565b92505060406139f68682870161384a565b9150509250925092565b600060208284031215613a1257600080fd5b6000613a20848285016137f6565b91505092915050565b600060208284031215613a3b57600080fd5b6000613a498482850161380b565b91505092915050565b60008060408385031215613a6557600080fd5b6000613a738582860161380b565b9250506020613a84858286016137cc565b9150509250929050565b600060208284031215613aa057600080fd5b6000613aae84828501613820565b91505092915050565b600060208284031215613ac957600080fd5b6000613ad78482850161384a565b91505092915050565b600060208284031215613af257600080fd5b6000613b008482850161385f565b91505092915050565b60008060408385031215613b1c57600080fd5b6000613b2a8582860161385f565b9250506020613b3b8582860161385f565b9150509250929050565b600080600060608486031215613b5a57600080fd5b6000613b688682870161384a565b9350506020613b798682870161384a565b9250506040613b8a8682870161384a565b9150509250925092565b60008060008060808587031215613baa57600080fd5b6000613bb88782880161385f565b9450506020613bc98782880161385f565b9350506040613bda8782880161385f565b9250506060613beb8782880161385f565b91505092959194509250565b6000613c038383613eed565b60208301905092915050565b613c18816147bc565b82525050565b613c27816146ea565b82525050565b6000613c3882614531565b613c42818561455f565b9350613c4d83614521565b8060005b83811015613c7e578151613c658882613bf7565b9750613c7083614552565b925050600181019050613c51565b5085935050505092915050565b613c948161470e565b82525050565b613ca38161471a565b82525050565b6000613cb48261453c565b613cbe8185614570565b9350613cce818560208601614894565b80840191505092915050565b613ce3816147ce565b82525050565b613cf2816147f2565b82525050565b613d0181614816565b82525050565b613d108161483a565b82525050565b613d1f8161485e565b82525050565b6000613d3082614547565b613d3a818561457b565b9350613d4a818560208601614894565b613d5381614a59565b840191505092915050565b6000613d6982614547565b613d73818561458c565b9350613d83818560208601614894565b80840191505092915050565b6000613d9c60208361457b565b9150613da782614a6a565b602082019050919050565b6000613dbf60148361457b565b9150613dca82614a93565b602082019050919050565b6000613de260268361457b565b9150613ded82614abc565b604082019050919050565b6000613e0560108361457b565b9150613e1082614b0b565b602082019050919050565b6000613e28601d8361457b565b9150613e3382614b34565b602082019050919050565b6000613e4b60178361458c565b9150613e5682614b5d565b601782019050919050565b6000613e6e602a8361457b565b9150613e7982614b86565b604082019050919050565b6000613e91601f8361457b565b9150613e9c82614bd5565b602082019050919050565b6000613eb460118361458c565b9150613ebf82614bfe565b601182019050919050565b6000613ed7602f8361457b565b9150613ee282614c27565b604082019050919050565b613ef681614795565b82525050565b613f0581614795565b82525050565b613f14816147af565b82525050565b6000613f268284613ca9565b915081905092915050565b6000613f3c82613e3e565b9150613f488285613d5e565b9150613f5382613ea7565b9150613f5f8284613d5e565b91508190509392505050565b6000602082019050613f806000830184613c1e565b92915050565b6000604082019050613f9b6000830185613c1e565b613fa86020830184613c1e565b9392505050565b6000608082019050613fc46000830187613c1e565b613fd16020830186613c1e565b613fde6040830185613c1e565b613feb6060830184613c1e565b95945050505050565b600060a0820190506140096000830188613c1e565b6140166020830187613c1e565b6140236040830186613c1e565b6140306060830185613c1e565b61403d6080830184613efc565b9695505050505050565b600060608201905061405c6000830186613c1e565b6140696020830185613c1e565b6140766040830184613efc565b949350505050565b600060c0820190506140936000830189613c1e565b6140a06020830188613c1e565b6140ad6040830187613efc565b6140ba6060830186613c1e565b6140c76080830185613efc565b6140d460a0830184613efc565b979650505050505050565b60006040820190506140f46000830185613c1e565b6141016020830184613efc565b9392505050565b600060208201905081810360008301526141228184613c2d565b905092915050565b600060208201905061413f6000830184613c8b565b92915050565b600060208201905061415a6000830184613c9a565b92915050565b60006020820190506141756000830184613cda565b92915050565b60006020820190506141906000830184613ce9565b92915050565b60006020820190506141ab6000830184613cf8565b92915050565b60006020820190506141c66000830184613d07565b92915050565b60006020820190506141e16000830184613d16565b92915050565b600060208201905081810360008301526142018184613d25565b905092915050565b6000602082019050818103600083015261422281613d8f565b9050919050565b6000602082019050818103600083015261424281613db2565b9050919050565b6000602082019050818103600083015261426281613dd5565b9050919050565b6000602082019050818103600083015261428281613df8565b9050919050565b600060208201905081810360008301526142a281613e1b565b9050919050565b600060208201905081810360008301526142c281613e61565b9050919050565b600060208201905081810360008301526142e281613e84565b9050919050565b6000602082019050818103600083015261430281613eca565b9050919050565b600060208201905061431e6000830184613efc565b92915050565b60006080820190506143396000830187613efc565b6143466020830186613c0f565b6143536040830185613efc565b6143606060830184613efc565b95945050505050565b600060608201905061437e6000830186613efc565b61438b6020830185613c1e565b6143986040830184613efc565b949350505050565b60006080820190506143b56000830187613efc565b6143c26020830186613c1e565b6143cf6040830185613efc565b6143dc6060830184613efc565b95945050505050565b600060c0820190506143fa6000830189613efc565b6144076020830188613c1e565b6144146040830187613efc565b6144216060830186613efc565b61442e6080830185613efc565b61443b60a0830184613f0b565b979650505050505050565b600060408201905061445b6000830185613efc565b6144686020830184613efc565b9392505050565b60006060820190506144846000830186613efc565b6144916020830185613efc565b61449e6040830184613efc565b949350505050565b60006020820190506144bb6000830184613f0b565b92915050565b60006040820190506144d66000830185613f0b565b6144e36020830184613f0b565b9392505050565b60006060820190506144ff6000830186613f0b565b61450c6020830185613f0b565b6145196040830184613f0b565b949350505050565b6000819050602082019050919050565b600081519050919050565b600081519050919050565b600081519050919050565b6000602082019050919050565b600082825260208201905092915050565b600081905092915050565b600082825260208201905092915050565b600081905092915050565b60006145a282614795565b91506145ad83614795565b9250827fffffffffffffffffffffffffffffffffffffffffffffffffffffffffffffffff038211156145e2576145e161499d565b5b828201905092915050565b60006145f882614795565b915061460383614795565b925082614613576146126149cc565b5b828204905092915050565b600061462982614795565b915061463483614795565b9250817fffffffffffffffffffffffffffffffffffffffffffffffffffffffffffffffff048311821515161561466d5761466c61499d565b5b828202905092915050565b60006146838261479f565b915061468e8361479f565b92508163ffffffff04831182151516156146ab576146aa61499d565b5b828202905092915050565b60006146c182614795565b91506146cc83614795565b9250828210156146df576146de61499d565b5b828203905092915050565b60006146f582614775565b9050919050565b600061470782614775565b9050919050565b60008115159050919050565b6000819050919050565b60007fffffffff0000000000000000000000000000000000000000000000000000000082169050919050565b600061475b826146ea565b9050919050565b600081905061477082614c76565b919050565b600073ffffffffffffffffffffffffffffffffffffffff82169050919050565b6000819050919050565b600063ffffffff82169050919050565b600060ff82169050919050565b60006147c782614870565b9050919050565b60006147d9826147e0565b9050919050565b60006147eb82614775565b9050919050565b60006147fd82614804565b9050919050565b600061480f82614775565b9050919050565b600061482182614828565b9050919050565b600061483382614775565b9050919050565b60006148458261484c565b9050919050565b600061485782614775565b9050919050565b600061486982614762565b9050919050565b600061487b82614882565b9050919050565b600061488d82614775565b9050919050565b60005b838110156148b2578082015181840152602081019050614897565b838111156148c1576000848401525b50505050565b60006148d282614795565b915060008214156148e6576148e561499d565b5b600182039050919050565b6000600282049050600182168061490957607f821691505b6020821081141561491d5761491c614a2a565b5b50919050565b600061492e82614795565b91507fffffffffffffffffffffffffffffffffffffffffffffffffffffffffffffffff8214156149615761496061499d565b5b600182019050919050565b600061497782614795565b915061498283614795565b925082614992576149916149cc565b5b828206905092915050565b7f4e487b7100000000000000000000000000000000000000000000000000000000600052601160045260246000fd5b7f4e487b7100000000000000000000000000000000000000000000000000000000600052601260045260246000fd5b7f4e487b7100000000000000000000000000000000000000000000000000000000600052602160045260246000fd5b7f4e487b7100000000000000000000000000000000000000000000000000000000600052602260045260246000fd5b6000601f19601f8301169050919050565b7f537472696e67733a20686578206c656e67746820696e73756666696369656e74600082015250565b7f5061757361626c653a206e6f7420706175736564000000000000000000000000600082015250565b7f416464726573733a20696e73756666696369656e742062616c616e636520666f60008201527f722063616c6c0000000000000000000000000000000000000000000000000000602082015250565b7f5061757361626c653a2070617573656400000000000000000000000000000000600082015250565b7f416464726573733a2063616c6c20746f206e6f6e2d636f6e7472616374000000600082015250565b7f416363657373436f6e74726f6c3a206163636f756e7420000000000000000000600082015250565b7f5361666545524332303a204552433230206f7065726174696f6e20646964206e60008201527f6f74207375636365656400000000000000000000000000000000000000000000602082015250565b7f5265656e7472616e637947756172643a207265656e7472616e742063616c6c00600082015250565b7f206973206d697373696e6720726f6c6520000000000000000000000000000000600082015250565b7f416363657373436f6e74726f6c3a2063616e206f6e6c792072656e6f756e636560008201527f20726f6c657320666f722073656c660000000000000000000000000000000000602082015250565b601c8110614c8757614c866149fb565b5b50565b614c93816146ea565b8114614c9e57600080fd5b50565b614caa816146fc565b8114614cb557600080fd5b50565b614cc18161470e565b8114614ccc57600080fd5b50565b614cd88161471a565b8114614ce357600080fd5b50565b614cef81614724565b8114614cfa57600080fd5b50565b614d0681614750565b8114614d1157600080fd5b50565b614d1d81614795565b8114614d2857600080fd5b5056fea264697066735822122010e7077edb7067a7cfa4eecd2533441849140e67fc5c80fe939ce0d3fadf7e7964736f6c63430008040033",
  "devdoc": {
    "events": {
      "AddReserves(address,uint256)": {
        "params": {
          "addAmount": "amount added as reserves as part of the liquidation event",
          "benefactor": "address added a certain amount to its reserves"
        }
      },
      "BorrowFromMaturityPool(address,uint256,uint256,uint256)": {
        "params": {
          "amount": "of the asset that it was borrowed",
          "fee": "amount extra that it will need to be paid at maturity",
          "maturityDate": "dateID/poolID/maturity in which the user will have                     to repay the loan",
          "to": "address which borrowed the asset"
        }
      },
      "DepositToMaturityPool(address,uint256,uint256,uint256)": {
        "params": {
          "amount": "of the asset that it was deposited",
          "fee": "is the extra amount that it will be collected at maturity",
          "from": "address which deposited the asset",
          "maturityDate": "dateID/poolID/maturity in which the user will be able                     to collect his deposit + his fee"
        }
      },
      "DepositToSmartPool(address,uint256)": {
        "params": {
          "amount": "amount added to the smart pool",
          "user": "address that added a certain amount to the smart pool"
        }
      },
      "LiquidateBorrow(address,address,uint256,address,uint256,uint256)": {
        "params": {
          "borrower": "address which had the original debt",
          "fixedLenderCollateral": "address of the asset that it was seized                              by the liquidator",
          "liquidator": "address which repaid the previously borrowed amount",
          "maturityDate": "poolID where the borrower had an uncollaterized position",
          "repayAmount": "amount of the asset that it was repaid",
          "seizedAmount": "amount seized of the collateral"
        }
      },
      "RepayToMaturityPool(address,address,uint256,uint256,uint256)": {
        "params": {
          "borrower": "address which had the original debt",
          "debtCovered": "amount of the debt that was covered in this repayment (penalties could have been repaid)",
          "maturityDate": "poolID where the user repaid its borrowed amounts",
          "payer": "address which repaid the previously borrowed amount",
          "repayAmount": "amount that was repaid"
        }
      },
      "SeizeAsset(address,address,uint256)": {
        "params": {
          "borrower": "address which had the original debt",
          "liquidator": "address which seized this collateral",
          "seizedAmount": "amount seized of the collateral"
        }
      },
      "WithdrawFromMaturityPool(address,uint256,uint256)": {
        "params": {
          "amount": "of the asset that it was deposited",
          "from": "address which will be collecting the asset",
          "maturityDate": "poolID where the user collected its deposits"
        }
      },
      "WithdrawFromSmartPool(address,uint256)": {
        "params": {
          "amount": "amount withdrawn to the smart pool",
          "user": "address that withdrew a certain amount from the smart pool"
        }
      }
    },
    "kind": "dev",
    "methods": {
      "borrowFromMaturityPool(uint256,uint256,uint256)": {
        "details": "Lends to a wallet for a certain maturity date/pool",
        "params": {
          "amount": "amount to send to the msg.sender",
          "maturityDate": "maturity date for repayment",
          "maxAmountAllowed": "maximum amount of debt that        the user is willing to accept for the transaction        to go through"
        }
      },
      "depositToMaturityPool(uint256,uint256,uint256)": {
        "details": "Deposits a certain amount to the protocol for      a certain maturity date/pool",
        "params": {
          "amount": "amount to receive from the msg.sender",
          "maturityDate": "maturity date / pool ID",
          "minAmountRequired": "minimum amount of capital required        by the depositor for the transaction to be accepted"
        }
      },
      "depositToSmartPool(uint256)": {
        "details": "Deposits an `amount` of underlying asset into the smart pool, receiving in return overlying eTokens. - E.g. User deposits 100 USDC and gets in return 100 eUSDC",
        "params": {
          "amount": "The amount to be deposited"
        }
      },
      "getAccountSnapshot(address,uint256)": {
        "details": "Gets current snapshot for a wallet in certain maturity",
        "params": {
          "maturityDate": "maturityDate - Send the value 0 in order to get the snapshot for all maturities where the user borrowed",
          "who": "wallet to return status snapshot in the specified maturity date"
        },
        "returns": {
          "_0": "the amount the user deposited to the smart pool and the total money he owes from maturities"
        }
      },
      "getAuditor()": {
        "details": "Gets the auditor contract interface being used to validate positions"
      },
      "getFuturePools()": {
        "details": "Function to retrieve valid future pools"
      },
      "getRoleAdmin(bytes32)": {
        "details": "Returns the admin role that controls `role`. See {grantRole} and {revokeRole}. To change a role's admin, use {_setRoleAdmin}."
      },
      "getSmartPoolDeposits()": {
        "details": "Gets the market size of the smart pool, usefull for dApps to show current status"
      },
      "getTotalMpBorrows(uint256)": {
        "details": "Gets the total amount of borrowed money for a maturityDate",
        "params": {
          "maturityDate": "maturity date"
        }
      },
      "grantRole(bytes32,address)": {
        "details": "Grants `role` to `account`. If `account` had not been already granted `role`, emits a {RoleGranted} event. Requirements: - the caller must have ``role``'s admin role."
      },
      "hasRole(bytes32,address)": {
        "details": "Returns `true` if `account` has been granted `role`."
      },
      "liquidate(address,uint256,address,uint256)": {
        "details": "Msg.sender liquidates a borrower's position and repays a certain amount of debt      for a maturity date, seizing a part of borrower's collateral",
        "params": {
          "borrower": "wallet that has an outstanding debt for a certain maturity date",
          "fixedLenderCollateral": "address of fixedLender from which the collateral will be seized to give the liquidator",
          "maturityDate": "maturity date for which the position will be liquidated",
          "repayAmount": "amount to be repaid by liquidator(msg.sender)"
        }
      },
      "pause()": {
        "details": "Sets the _pause state to true in case of emergency, triggered by an authorized account"
      },
      "paused()": {
        "details": "Returns true if the contract is paused, and false otherwise."
      },
      "renounceRole(bytes32,address)": {
        "details": "Revokes `role` from the calling account. Roles are often managed via {grantRole} and {revokeRole}: this function's purpose is to provide a mechanism for accounts to lose their privileges if they are compromised (such as when a trusted device is misplaced). If the calling account had been revoked `role`, emits a {RoleRevoked} event. Requirements: - the caller must be `account`."
      },
      "repayToMaturityPool(address,uint256,uint256)": {
        "details": "The pool that the user is trying to repay to should be matured",
        "params": {
          "borrower": "The address of the account that has the debt",
          "maturityDate": "The matured date where the debt is located",
          "repayAmount": "amount to be paid for the borrower's debt"
        }
      },
      "revokeRole(bytes32,address)": {
        "details": "Revokes `role` from `account`. If `account` had been granted `role`, emits a {RoleRevoked} event. Requirements: - the caller must have ``role``'s admin role."
      },
      "seize(address,address,uint256)": {
        "details": "Public function for liquidator to seize borrowers tokens in the smart pool.      This function will only be called from another FixedLender, on `liquidation` calls.      That's why msg.sender needs to be passed to the private function (to be validated as a market)",
        "params": {
          "borrower": "address from which the tokens will be seized",
          "liquidator": "address which will receive the seized tokens",
          "seizeAmount": "amount to be removed from borrower's posession"
        }
      },
      "setMpDepositDistributionWeighter(uint256)": {
        "details": "Sets the maturity pool deposits' weighter used to increase or decrease the deposit amount in order      to share out more or less unassigned earnings to that deposit",
        "params": {
          "_mpDepositDistributionWeighter": "percentage amount represented with 1e18 decimals that will multiply the amount to deposit"
        }
      },
      "setProtocolLiquidationFee(uint256)": {
        "details": "Sets the protocol's collateral liquidation fee used on liquidations",
        "params": {
          "_protocolLiquidationFee": "percentage amount represented with 1e18 decimals"
        }
      },
      "setProtocolSpreadFee(uint256)": {
        "details": "Sets the protocol's spread fee used on loan repayment",
        "params": {
          "_protocolSpreadFee": "percentage amount represented with 1e18 decimals"
        }
      },
      "supportsInterface(bytes4)": {
        "details": "See {IERC165-supportsInterface}."
      },
      "unpause()": {
        "details": "Sets the _pause state to false when threat is gone, triggered by an authorized account"
      },
      "withdrawFromMaturityPool(address,uint256,uint256)": {
        "details": "The pool that the user is trying to retrieve the money should be matured",
        "params": {
          "maturityDate": "The matured date for which we're trying to retrieve the funds",
          "redeemAmount": "The number of underlying tokens to receive",
          "redeemer": "The address of the account which is redeeming the tokens"
        }
      },
      "withdrawFromSmartPool(uint256)": {
        "details": "Withdraws an `amount` of underlying asset from the smart pool, burning the equivalent eTokens owned - E.g. User has 100 eUSDC, calls withdraw() and receives 100 USDC, burning the 100 eUSDC",
        "params": {
          "amount": "The underlying amount to be withdrawn - Send the value type(uint256).max in order to withdraw the whole eToken balance"
        }
      },
      "withdrawFromTreasury(address,uint256)": {
        "params": {
          "amount": "amount to be transferred",
          "who": "address which will receive the funds"
        }
      }
    },
    "version": 1
  },
  "userdoc": {
    "events": {
      "AddReserves(address,uint256)": {
        "notice": "Event emitted reserves have been added to the protocol"
      },
      "BorrowFromMaturityPool(address,uint256,uint256,uint256)": {
        "notice": "Event emitted when a user borrows amount of an asset from a         certain maturity date"
      },
      "DepositToMaturityPool(address,uint256,uint256,uint256)": {
        "notice": "Event emitted when a user deposits an amount of an asset to a         certain maturity date collecting a fee at the end of the         period"
      },
      "DepositToSmartPool(address,uint256)": {
        "notice": "Event emitted when a user contributed to the smart pool"
      },
      "LiquidateBorrow(address,address,uint256,address,uint256,uint256)": {
        "notice": "Event emitted when a user's position had a liquidation"
      },
      "RepayToMaturityPool(address,address,uint256,uint256,uint256)": {
        "notice": "Event emitted when a user repays its borrows after maturity"
      },
      "SeizeAsset(address,address,uint256)": {
        "notice": "Event emitted when a user's collateral has been seized"
      },
      "WithdrawFromMaturityPool(address,uint256,uint256)": {
        "notice": "Event emitted when a user collects its deposits after maturity"
      },
      "WithdrawFromSmartPool(address,uint256)": {
        "notice": "Event emitted when a user contributed to the smart pool"
      }
    },
    "kind": "user",
    "methods": {
      "liquidate(address,uint256,address,uint256)": {
        "notice": "Function to liquidate an uncollaterized position"
      },
      "repayToMaturityPool(address,uint256,uint256)": {
        "notice": "Sender repays an amount of borrower's debt for a maturity date"
      },
      "seize(address,address,uint256)": {
        "notice": "Public function to seize a certain amount of tokens"
      },
      "withdrawFromMaturityPool(address,uint256,uint256)": {
        "notice": "User collects a certain amount of underlying asset after having         supplied tokens until a certain maturity date"
      },
      "withdrawFromTreasury(address,uint256)": {
        "notice": "public function to transfer funds from protocol earnings to a specified wallet"
      }
    },
    "version": 1
  },
  "storageLayout": {
    "storage": [
      {
        "astId": 1263,
        "contract": "contracts/FixedLender.sol:FixedLender",
        "label": "_status",
        "offset": 0,
        "slot": "0",
        "type": "t_uint256"
      },
      {
        "astId": 24,
        "contract": "contracts/FixedLender.sol:FixedLender",
        "label": "_roles",
        "offset": 0,
        "slot": "1",
        "type": "t_mapping(t_bytes32,t_struct(RoleData)19_storage)"
      },
      {
        "astId": 1178,
        "contract": "contracts/FixedLender.sol:FixedLender",
        "label": "_paused",
        "offset": 0,
        "slot": "2",
        "type": "t_bool"
      },
      {
        "astId": 5526,
        "contract": "contracts/FixedLender.sol:FixedLender",
        "label": "protocolSpreadFee",
        "offset": 0,
        "slot": "3",
        "type": "t_uint256"
      },
      {
        "astId": 5529,
        "contract": "contracts/FixedLender.sol:FixedLender",
        "label": "protocolLiquidationFee",
        "offset": 0,
        "slot": "4",
        "type": "t_uint256"
      },
      {
        "astId": 5533,
        "contract": "contracts/FixedLender.sol:FixedLender",
        "label": "mpDepositDistributionWeighter",
        "offset": 0,
        "slot": "5",
        "type": "t_uint256"
      },
      {
        "astId": 5538,
        "contract": "contracts/FixedLender.sol:FixedLender",
        "label": "treasury",
        "offset": 0,
        "slot": "6",
        "type": "t_uint256"
      },
      {
        "astId": 5547,
        "contract": "contracts/FixedLender.sol:FixedLender",
        "label": "trustedUnderlying",
        "offset": 0,
        "slot": "7",
        "type": "t_contract(IERC20)1958"
      },
      {
        "astId": 5551,
        "contract": "contracts/FixedLender.sol:FixedLender",
        "label": "eToken",
        "offset": 0,
        "slot": "8",
        "type": "t_contract(IEToken)8897"
      },
      {
        "astId": 5554,
        "contract": "contracts/FixedLender.sol:FixedLender",
        "label": "underlyingTokenName",
        "offset": 0,
        "slot": "9",
        "type": "t_string_storage"
      },
      {
        "astId": 5557,
        "contract": "contracts/FixedLender.sol:FixedLender",
        "label": "poolAccounting",
        "offset": 0,
        "slot": "10",
        "type": "t_contract(IPoolAccounting)9163"
      },
      {
        "astId": 5560,
        "contract": "contracts/FixedLender.sol:FixedLender",
        "label": "auditor",
        "offset": 0,
        "slot": "11",
        "type": "t_contract(IAuditor)8832"
      },
      {
        "astId": 5563,
        "contract": "contracts/FixedLender.sol:FixedLender",
        "label": "totalMpBorrows",
        "offset": 0,
        "slot": "12",
        "type": "t_uint256"
      }
    ],
    "types": {
      "t_address": {
        "encoding": "inplace",
        "label": "address",
        "numberOfBytes": "20"
      },
      "t_bool": {
        "encoding": "inplace",
        "label": "bool",
        "numberOfBytes": "1"
      },
      "t_bytes32": {
        "encoding": "inplace",
        "label": "bytes32",
        "numberOfBytes": "32"
      },
      "t_contract(IAuditor)8832": {
        "encoding": "inplace",
        "label": "contract IAuditor",
        "numberOfBytes": "20"
      },
      "t_contract(IERC20)1958": {
        "encoding": "inplace",
        "label": "contract IERC20",
        "numberOfBytes": "20"
      },
      "t_contract(IEToken)8897": {
        "encoding": "inplace",
        "label": "contract IEToken",
        "numberOfBytes": "20"
      },
      "t_contract(IPoolAccounting)9163": {
        "encoding": "inplace",
        "label": "contract IPoolAccounting",
        "numberOfBytes": "20"
      },
      "t_mapping(t_address,t_bool)": {
        "encoding": "mapping",
        "key": "t_address",
        "label": "mapping(address => bool)",
        "numberOfBytes": "32",
        "value": "t_bool"
      },
      "t_mapping(t_bytes32,t_struct(RoleData)19_storage)": {
        "encoding": "mapping",
        "key": "t_bytes32",
        "label": "mapping(bytes32 => struct AccessControl.RoleData)",
        "numberOfBytes": "32",
        "value": "t_struct(RoleData)19_storage"
      },
      "t_string_storage": {
        "encoding": "bytes",
        "label": "string",
        "numberOfBytes": "32"
      },
      "t_struct(RoleData)19_storage": {
        "encoding": "inplace",
        "label": "struct AccessControl.RoleData",
        "members": [
          {
            "astId": 16,
            "contract": "contracts/FixedLender.sol:FixedLender",
            "label": "members",
            "offset": 0,
            "slot": "0",
            "type": "t_mapping(t_address,t_bool)"
          },
          {
            "astId": 18,
            "contract": "contracts/FixedLender.sol:FixedLender",
            "label": "adminRole",
            "offset": 0,
            "slot": "1",
            "type": "t_bytes32"
          }
        ],
        "numberOfBytes": "64"
      },
      "t_uint256": {
        "encoding": "inplace",
        "label": "uint256",
        "numberOfBytes": "32"
      }
    }
  }
}