{
  "address": "0xAEDeB1b9d9Fa2BE5b016d85E23cFe7474F8b5D69",
  "abi": [
    {
      "inputs": [
        {
          "internalType": "address payable",
          "name": "_tokenAddress",
          "type": "address"
        },
        {
          "internalType": "string",
          "name": "_underlyingTokenName",
          "type": "string"
        },
        {
          "internalType": "address",
          "name": "_eTokenAddress",
          "type": "address"
        },
        {
          "internalType": "address",
          "name": "_auditorAddress",
          "type": "address"
        },
        {
          "internalType": "address",
          "name": "_interestRateModelAddress",
          "type": "address"
        }
      ],
      "stateMutability": "nonpayable",
      "type": "constructor"
    },
    {
      "inputs": [
        {
          "internalType": "enum ErrorCode",
          "name": "error",
          "type": "uint8"
        }
      ],
      "name": "GenericError",
      "type": "error"
    },
    {
      "inputs": [
        {
          "internalType": "uint8",
          "name": "state",
          "type": "uint8"
        },
        {
          "internalType": "uint8",
          "name": "requiredState",
          "type": "uint8"
        }
      ],
      "name": "UnmatchedPoolState",
      "type": "error"
    },
    {
      "inputs": [
        {
          "internalType": "uint8",
          "name": "state",
          "type": "uint8"
        },
        {
          "internalType": "uint8",
          "name": "requiredState",
          "type": "uint8"
        },
        {
          "internalType": "uint8",
          "name": "alternativeState",
          "type": "uint8"
        }
      ],
      "name": "UnmatchedPoolStateMultiple",
      "type": "error"
    },
    {
      "anonymous": false,
      "inputs": [
        {
          "indexed": false,
          "internalType": "address",
          "name": "benefactor",
          "type": "address"
        },
        {
          "indexed": false,
          "internalType": "uint256",
          "name": "addAmount",
          "type": "uint256"
        }
      ],
      "name": "AddReserves",
      "type": "event"
    },
    {
      "anonymous": false,
      "inputs": [
        {
          "indexed": true,
          "internalType": "address",
          "name": "to",
          "type": "address"
        },
        {
          "indexed": false,
          "internalType": "uint256",
          "name": "amount",
          "type": "uint256"
        },
        {
          "indexed": false,
          "internalType": "uint256",
          "name": "fee",
          "type": "uint256"
        },
        {
          "indexed": false,
          "internalType": "uint256",
          "name": "maturityDate",
          "type": "uint256"
        }
      ],
      "name": "BorrowFromMaturityPool",
      "type": "event"
    },
    {
      "anonymous": false,
      "inputs": [
        {
          "indexed": true,
          "internalType": "address",
          "name": "from",
          "type": "address"
        },
        {
          "indexed": false,
          "internalType": "uint256",
          "name": "amount",
          "type": "uint256"
        },
        {
          "indexed": false,
          "internalType": "uint256",
          "name": "fee",
          "type": "uint256"
        },
        {
          "indexed": false,
          "internalType": "uint256",
          "name": "maturityDate",
          "type": "uint256"
        }
      ],
      "name": "DepositToMaturityPool",
      "type": "event"
    },
    {
      "anonymous": false,
      "inputs": [
        {
          "indexed": true,
          "internalType": "address",
          "name": "user",
          "type": "address"
        },
        {
          "indexed": false,
          "internalType": "uint256",
          "name": "amount",
          "type": "uint256"
        }
      ],
      "name": "DepositToSmartPool",
      "type": "event"
    },
    {
      "anonymous": false,
      "inputs": [
        {
          "indexed": false,
          "internalType": "address",
          "name": "liquidator",
          "type": "address"
        },
        {
          "indexed": false,
          "internalType": "address",
          "name": "borrower",
          "type": "address"
        },
        {
          "indexed": false,
          "internalType": "uint256",
          "name": "repayAmount",
          "type": "uint256"
        },
        {
          "indexed": false,
          "internalType": "address",
          "name": "fixedLenderCollateral",
          "type": "address"
        },
        {
          "indexed": false,
          "internalType": "uint256",
          "name": "seizedAmount",
          "type": "uint256"
        },
        {
          "indexed": false,
          "internalType": "uint256",
          "name": "maturityDate",
          "type": "uint256"
        }
      ],
      "name": "LiquidateBorrow",
      "type": "event"
    },
    {
      "anonymous": false,
      "inputs": [
        {
          "indexed": false,
          "internalType": "address",
          "name": "account",
          "type": "address"
        }
      ],
      "name": "Paused",
      "type": "event"
    },
    {
      "anonymous": false,
      "inputs": [
        {
          "indexed": true,
          "internalType": "address",
          "name": "payer",
          "type": "address"
        },
        {
          "indexed": true,
          "internalType": "address",
          "name": "borrower",
          "type": "address"
        },
        {
          "indexed": false,
          "internalType": "uint256",
          "name": "repayAmount",
          "type": "uint256"
        },
        {
          "indexed": false,
          "internalType": "uint256",
          "name": "debtCovered",
          "type": "uint256"
        },
        {
          "indexed": false,
          "internalType": "uint256",
          "name": "maturityDate",
          "type": "uint256"
        }
      ],
      "name": "RepayToMaturityPool",
      "type": "event"
    },
    {
      "anonymous": false,
      "inputs": [
        {
          "indexed": true,
          "internalType": "bytes32",
          "name": "role",
          "type": "bytes32"
        },
        {
          "indexed": true,
          "internalType": "bytes32",
          "name": "previousAdminRole",
          "type": "bytes32"
        },
        {
          "indexed": true,
          "internalType": "bytes32",
          "name": "newAdminRole",
          "type": "bytes32"
        }
      ],
      "name": "RoleAdminChanged",
      "type": "event"
    },
    {
      "anonymous": false,
      "inputs": [
        {
          "indexed": true,
          "internalType": "bytes32",
          "name": "role",
          "type": "bytes32"
        },
        {
          "indexed": true,
          "internalType": "address",
          "name": "account",
          "type": "address"
        },
        {
          "indexed": true,
          "internalType": "address",
          "name": "sender",
          "type": "address"
        }
      ],
      "name": "RoleGranted",
      "type": "event"
    },
    {
      "anonymous": false,
      "inputs": [
        {
          "indexed": true,
          "internalType": "bytes32",
          "name": "role",
          "type": "bytes32"
        },
        {
          "indexed": true,
          "internalType": "address",
          "name": "account",
          "type": "address"
        },
        {
          "indexed": true,
          "internalType": "address",
          "name": "sender",
          "type": "address"
        }
      ],
      "name": "RoleRevoked",
      "type": "event"
    },
    {
      "anonymous": false,
      "inputs": [
        {
          "indexed": false,
          "internalType": "address",
          "name": "liquidator",
          "type": "address"
        },
        {
          "indexed": false,
          "internalType": "address",
          "name": "borrower",
          "type": "address"
        },
        {
          "indexed": false,
          "internalType": "uint256",
          "name": "seizedAmount",
          "type": "uint256"
        }
      ],
      "name": "SeizeAsset",
      "type": "event"
    },
    {
      "anonymous": false,
      "inputs": [
        {
          "indexed": false,
          "internalType": "address",
          "name": "account",
          "type": "address"
        }
      ],
      "name": "Unpaused",
      "type": "event"
    },
    {
      "anonymous": false,
      "inputs": [
        {
          "indexed": true,
          "internalType": "address",
          "name": "from",
          "type": "address"
        },
        {
          "indexed": false,
          "internalType": "uint256",
          "name": "amount",
          "type": "uint256"
        },
        {
          "indexed": false,
          "internalType": "uint256",
          "name": "maturityDate",
          "type": "uint256"
        }
      ],
      "name": "WithdrawFromMaturityPool",
      "type": "event"
    },
    {
      "anonymous": false,
      "inputs": [
        {
          "indexed": true,
          "internalType": "address",
          "name": "user",
          "type": "address"
        },
        {
          "indexed": false,
          "internalType": "uint256",
          "name": "amount",
          "type": "uint256"
        }
      ],
      "name": "WithdrawFromSmartPool",
      "type": "event"
    },
    {
      "inputs": [],
      "name": "DEFAULT_ADMIN_ROLE",
      "outputs": [
        {
          "internalType": "bytes32",
          "name": "",
          "type": "bytes32"
        }
      ],
      "stateMutability": "view",
      "type": "function"
    },
    {
      "inputs": [],
      "name": "MAX_FUTURE_POOLS",
      "outputs": [
        {
          "internalType": "uint8",
          "name": "",
          "type": "uint8"
        }
      ],
      "stateMutability": "view",
      "type": "function"
    },
    {
      "inputs": [],
      "name": "PAUSER_ROLE",
      "outputs": [
        {
          "internalType": "bytes32",
          "name": "",
          "type": "bytes32"
        }
      ],
      "stateMutability": "view",
      "type": "function"
    },
    {
      "inputs": [],
      "name": "auditor",
      "outputs": [
        {
          "internalType": "contract IAuditor",
          "name": "",
          "type": "address"
        }
      ],
      "stateMutability": "view",
      "type": "function"
    },
    {
      "inputs": [
        {
          "internalType": "uint256",
          "name": "amount",
          "type": "uint256"
        },
        {
          "internalType": "uint256",
          "name": "maturityDate",
          "type": "uint256"
        },
        {
          "internalType": "uint256",
          "name": "maxAmountAllowed",
          "type": "uint256"
        }
      ],
      "name": "borrowFromMaturityPool",
      "outputs": [],
      "stateMutability": "nonpayable",
      "type": "function"
    },
    {
      "inputs": [
        {
          "internalType": "uint256",
          "name": "maturityDate",
          "type": "uint256"
        },
        {
          "internalType": "uint256",
          "name": "maxAmountAllowed",
          "type": "uint256"
        }
      ],
      "name": "borrowFromMaturityPoolEth",
      "outputs": [],
      "stateMutability": "payable",
      "type": "function"
    },
    {
      "inputs": [
        {
          "internalType": "uint256",
          "name": "amount",
          "type": "uint256"
        },
        {
          "internalType": "uint256",
          "name": "maturityDate",
          "type": "uint256"
        },
        {
          "internalType": "uint256",
          "name": "minAmountRequired",
          "type": "uint256"
        }
      ],
      "name": "depositToMaturityPool",
      "outputs": [],
      "stateMutability": "nonpayable",
      "type": "function"
    },
    {
      "inputs": [
        {
          "internalType": "uint256",
          "name": "maturityDate",
          "type": "uint256"
        },
        {
          "internalType": "uint256",
          "name": "minAmountRequired",
          "type": "uint256"
        }
      ],
      "name": "depositToMaturityPoolEth",
      "outputs": [],
      "stateMutability": "payable",
      "type": "function"
    },
    {
      "inputs": [
        {
          "internalType": "uint256",
          "name": "amount",
          "type": "uint256"
        }
      ],
      "name": "depositToSmartPool",
      "outputs": [],
      "stateMutability": "nonpayable",
      "type": "function"
    },
    {
      "inputs": [],
      "name": "depositToSmartPoolEth",
      "outputs": [],
      "stateMutability": "payable",
      "type": "function"
    },
    {
      "inputs": [],
      "name": "eToken",
      "outputs": [
        {
          "internalType": "contract IEToken",
          "name": "",
          "type": "address"
        }
      ],
      "stateMutability": "view",
      "type": "function"
    },
    {
      "inputs": [
        {
          "internalType": "address",
          "name": "who",
          "type": "address"
        },
        {
          "internalType": "uint256",
          "name": "maturityDate",
          "type": "uint256"
        }
      ],
      "name": "getAccountSnapshot",
      "outputs": [
        {
          "internalType": "uint256",
          "name": "",
          "type": "uint256"
        },
        {
          "internalType": "uint256",
          "name": "",
          "type": "uint256"
        }
      ],
      "stateMutability": "view",
      "type": "function"
    },
    {
      "inputs": [],
      "name": "getAuditor",
      "outputs": [
        {
          "internalType": "contract IAuditor",
          "name": "",
          "type": "address"
        }
      ],
      "stateMutability": "view",
      "type": "function"
    },
    {
      "inputs": [],
      "name": "getFuturePools",
      "outputs": [
        {
          "internalType": "uint256[]",
          "name": "",
          "type": "uint256[]"
        }
      ],
      "stateMutability": "view",
      "type": "function"
    },
    {
      "inputs": [
        {
          "internalType": "bytes32",
          "name": "role",
          "type": "bytes32"
        }
      ],
      "name": "getRoleAdmin",
      "outputs": [
        {
          "internalType": "bytes32",
          "name": "",
          "type": "bytes32"
        }
      ],
      "stateMutability": "view",
      "type": "function"
    },
    {
      "inputs": [],
      "name": "getSmartPoolDeposits",
      "outputs": [
        {
          "internalType": "uint256",
          "name": "",
          "type": "uint256"
        }
      ],
      "stateMutability": "view",
      "type": "function"
    },
    {
      "inputs": [
        {
          "internalType": "uint256",
          "name": "maturityDate",
          "type": "uint256"
        }
      ],
      "name": "getTotalMpBorrows",
      "outputs": [
        {
          "internalType": "uint256",
          "name": "",
          "type": "uint256"
        }
      ],
      "stateMutability": "view",
      "type": "function"
    },
    {
      "inputs": [
        {
          "internalType": "bytes32",
          "name": "role",
          "type": "bytes32"
        },
        {
          "internalType": "address",
          "name": "account",
          "type": "address"
        }
      ],
      "name": "grantRole",
      "outputs": [],
      "stateMutability": "nonpayable",
      "type": "function"
    },
    {
      "inputs": [
        {
          "internalType": "bytes32",
          "name": "role",
          "type": "bytes32"
        },
        {
          "internalType": "address",
          "name": "account",
          "type": "address"
        }
      ],
      "name": "hasRole",
      "outputs": [
        {
          "internalType": "bool",
          "name": "",
          "type": "bool"
        }
      ],
      "stateMutability": "view",
      "type": "function"
    },
    {
      "inputs": [
        {
          "internalType": "address",
          "name": "borrower",
          "type": "address"
        },
        {
          "internalType": "uint256",
          "name": "repayAmount",
          "type": "uint256"
        },
        {
          "internalType": "contract IFixedLender",
          "name": "fixedLenderCollateral",
          "type": "address"
        },
        {
          "internalType": "uint256",
          "name": "maturityDate",
          "type": "uint256"
        }
      ],
      "name": "liquidate",
      "outputs": [
        {
          "internalType": "uint256",
          "name": "",
          "type": "uint256"
        }
      ],
      "stateMutability": "nonpayable",
      "type": "function"
    },
    {
      "inputs": [],
      "name": "mpDepositDistributionWeighter",
      "outputs": [
        {
          "internalType": "uint256",
          "name": "",
          "type": "uint256"
        }
      ],
      "stateMutability": "view",
      "type": "function"
    },
    {
      "inputs": [],
      "name": "pause",
      "outputs": [],
      "stateMutability": "nonpayable",
      "type": "function"
    },
    {
      "inputs": [],
      "name": "paused",
      "outputs": [
        {
          "internalType": "bool",
          "name": "",
          "type": "bool"
        }
      ],
      "stateMutability": "view",
      "type": "function"
    },
    {
      "inputs": [],
      "name": "poolAccounting",
      "outputs": [
        {
          "internalType": "contract IPoolAccounting",
          "name": "",
          "type": "address"
        }
      ],
      "stateMutability": "view",
      "type": "function"
    },
    {
      "inputs": [],
      "name": "protocolLiquidationFee",
      "outputs": [
        {
          "internalType": "uint256",
          "name": "",
          "type": "uint256"
        }
      ],
      "stateMutability": "view",
      "type": "function"
    },
    {
      "inputs": [],
      "name": "protocolSpreadFee",
      "outputs": [
        {
          "internalType": "uint256",
          "name": "",
          "type": "uint256"
        }
      ],
      "stateMutability": "view",
      "type": "function"
    },
    {
      "inputs": [
        {
          "internalType": "bytes32",
          "name": "role",
          "type": "bytes32"
        },
        {
          "internalType": "address",
          "name": "account",
          "type": "address"
        }
      ],
      "name": "renounceRole",
      "outputs": [],
      "stateMutability": "nonpayable",
      "type": "function"
    },
    {
      "inputs": [
        {
          "internalType": "address",
          "name": "borrower",
          "type": "address"
        },
        {
          "internalType": "uint256",
          "name": "maturityDate",
          "type": "uint256"
        },
        {
          "internalType": "uint256",
          "name": "repayAmount",
          "type": "uint256"
        }
      ],
      "name": "repayToMaturityPool",
      "outputs": [],
      "stateMutability": "nonpayable",
      "type": "function"
    },
    {
      "inputs": [
        {
          "internalType": "address",
          "name": "borrower",
          "type": "address"
        },
        {
          "internalType": "uint256",
          "name": "maturityDate",
          "type": "uint256"
        }
      ],
      "name": "repayToMaturityPoolEth",
      "outputs": [],
      "stateMutability": "payable",
      "type": "function"
    },
    {
      "inputs": [
        {
          "internalType": "bytes32",
          "name": "role",
          "type": "bytes32"
        },
        {
          "internalType": "address",
          "name": "account",
          "type": "address"
        }
      ],
      "name": "revokeRole",
      "outputs": [],
      "stateMutability": "nonpayable",
      "type": "function"
    },
    {
      "inputs": [
        {
          "internalType": "address",
          "name": "liquidator",
          "type": "address"
        },
        {
          "internalType": "address",
          "name": "borrower",
          "type": "address"
        },
        {
          "internalType": "uint256",
          "name": "seizeAmount",
          "type": "uint256"
        }
      ],
      "name": "seize",
      "outputs": [],
      "stateMutability": "nonpayable",
      "type": "function"
    },
    {
      "inputs": [
        {
          "internalType": "uint256",
          "name": "_mpDepositDistributionWeighter",
          "type": "uint256"
        }
      ],
      "name": "setMpDepositDistributionWeighter",
      "outputs": [],
      "stateMutability": "nonpayable",
      "type": "function"
    },
    {
      "inputs": [
        {
          "internalType": "uint256",
          "name": "_protocolLiquidationFee",
          "type": "uint256"
        }
      ],
      "name": "setProtocolLiquidationFee",
      "outputs": [],
      "stateMutability": "nonpayable",
      "type": "function"
    },
    {
      "inputs": [
        {
          "internalType": "uint256",
          "name": "_protocolSpreadFee",
          "type": "uint256"
        }
      ],
      "name": "setProtocolSpreadFee",
      "outputs": [],
      "stateMutability": "nonpayable",
      "type": "function"
    },
    {
      "inputs": [
        {
          "internalType": "bytes4",
          "name": "interfaceId",
          "type": "bytes4"
        }
      ],
      "name": "supportsInterface",
      "outputs": [
        {
          "internalType": "bool",
          "name": "",
          "type": "bool"
        }
      ],
      "stateMutability": "view",
      "type": "function"
    },
    {
      "inputs": [],
      "name": "totalMpBorrows",
      "outputs": [
        {
          "internalType": "uint256",
          "name": "",
          "type": "uint256"
        }
      ],
      "stateMutability": "view",
      "type": "function"
    },
    {
      "inputs": [],
      "name": "treasury",
      "outputs": [
        {
          "internalType": "uint256",
          "name": "",
          "type": "uint256"
        }
      ],
      "stateMutability": "view",
      "type": "function"
    },
    {
      "inputs": [],
      "name": "trustedUnderlying",
      "outputs": [
        {
          "internalType": "contract IERC20",
          "name": "",
          "type": "address"
        }
      ],
      "stateMutability": "view",
      "type": "function"
    },
    {
      "inputs": [],
      "name": "underlyingTokenName",
      "outputs": [
        {
          "internalType": "string",
          "name": "",
          "type": "string"
        }
      ],
      "stateMutability": "view",
      "type": "function"
    },
    {
      "inputs": [],
      "name": "unpause",
      "outputs": [],
      "stateMutability": "nonpayable",
      "type": "function"
    },
    {
      "inputs": [
        {
          "internalType": "address payable",
          "name": "redeemer",
          "type": "address"
        },
        {
          "internalType": "uint256",
          "name": "redeemAmount",
          "type": "uint256"
        },
        {
          "internalType": "uint256",
          "name": "maturityDate",
          "type": "uint256"
        }
      ],
      "name": "withdrawFromMaturityPool",
      "outputs": [],
      "stateMutability": "nonpayable",
      "type": "function"
    },
    {
      "inputs": [
        {
          "internalType": "address payable",
          "name": "redeemer",
          "type": "address"
        },
        {
          "internalType": "uint256",
          "name": "redeemAmount",
          "type": "uint256"
        },
        {
          "internalType": "uint256",
          "name": "maturityDate",
          "type": "uint256"
        }
      ],
      "name": "withdrawFromMaturityPoolEth",
      "outputs": [],
      "stateMutability": "nonpayable",
      "type": "function"
    },
    {
      "inputs": [
        {
          "internalType": "uint256",
          "name": "amount",
          "type": "uint256"
        }
      ],
      "name": "withdrawFromSmartPool",
      "outputs": [],
      "stateMutability": "nonpayable",
      "type": "function"
    },
    {
      "inputs": [
        {
          "internalType": "uint256",
          "name": "amount",
          "type": "uint256"
        }
      ],
      "name": "withdrawFromSmartPoolEth",
      "outputs": [],
      "stateMutability": "nonpayable",
      "type": "function"
    },
    {
      "inputs": [
        {
          "internalType": "address",
          "name": "who",
          "type": "address"
        },
        {
          "internalType": "uint256",
          "name": "amount",
          "type": "uint256"
        }
      ],
      "name": "withdrawFromTreasury",
      "outputs": [],
      "stateMutability": "nonpayable",
      "type": "function"
    },
    {
      "stateMutability": "payable",
      "type": "receive"
    }
  ],
  "transactionHash": "0xd20098a42cbce5f4669b802789de5aa26723da2b08fdb81f8e387b0363afbd55",
  "args": [
    "0xd0a1e359811322d97991e03f863a0c30c2cf029c",
    "WETH",
    "0xF52F1358B522c1ca4c03CDf49c9FC9436beC5482",
    "0x6c12C61d9227F5315Bc4436E68121D9073961681",
    "0xEDc7C7E89e7f79Ddc7d6f04c31Fd57208af672C3"
  ],
  "numDeployments": 1,
  "solcInputHash": "b29e96ef9678c31f24803a302d5ef6ff",
  "bytecode": "0x6080604052666379da05b60000600355666379da05b60000600455670de0b6b3a76400006005553480156200003357600080fd5b5060405162005cbd38038062005cbd8339818101604052810190620000599190620004e9565b848484848460016000819055506000600260006101000a81548160ff021916908315150217905550620000966000801b336200021f60201b60201c565b84600760006101000a81548173ffffffffffffffffffffffffffffffffffffffff021916908373ffffffffffffffffffffffffffffffffffffffff1602179055508360099080519060200190620000ef92919062000399565b5081600b60006101000a81548173ffffffffffffffffffffffffffffffffffffffff021916908373ffffffffffffffffffffffffffffffffffffffff16021790555082600860006101000a81548173ffffffffffffffffffffffffffffffffffffffff021916908373ffffffffffffffffffffffffffffffffffffffff16021790555080600a60006101000a81548173ffffffffffffffffffffffffffffffffffffffff021916908373ffffffffffffffffffffffffffffffffffffffff16021790555050505050506000600d60006101000a81548160ff02191690831515021790555084600d60016101000a81548173ffffffffffffffffffffffffffffffffffffffff021916908373ffffffffffffffffffffffffffffffffffffffff160217905550505050505062000770565b6200023182826200023560201b60201c565b5050565b6200024782826200032660201b60201c565b6200032257600180600084815260200190815260200160002060000160008373ffffffffffffffffffffffffffffffffffffffff1673ffffffffffffffffffffffffffffffffffffffff16815260200190815260200160002060006101000a81548160ff021916908315150217905550620002c76200039160201b60201c565b73ffffffffffffffffffffffffffffffffffffffff168173ffffffffffffffffffffffffffffffffffffffff16837f2f8788117e7eff1d82e926ec794901d17c78024a50270940304540a733656f0d60405160405180910390a45b5050565b60006001600084815260200190815260200160002060000160008373ffffffffffffffffffffffffffffffffffffffff1673ffffffffffffffffffffffffffffffffffffffff16815260200190815260200160002060009054906101000a900460ff16905092915050565b600033905090565b828054620003a79062000661565b90600052602060002090601f016020900481019282620003cb576000855562000417565b82601f10620003e657805160ff191683800117855562000417565b8280016001018555821562000417579182015b8281111562000416578251825591602001919060010190620003f9565b5b5090506200042691906200042a565b5090565b5b80821115620004455760008160009055506001016200042b565b5090565b6000620004606200045a84620005ad565b62000584565b9050828152602081018484840111156200047957600080fd5b620004868482856200062b565b509392505050565b6000815190506200049f816200073c565b92915050565b600081519050620004b68162000756565b92915050565b600082601f830112620004ce57600080fd5b8151620004e084826020860162000449565b91505092915050565b600080600080600060a086880312156200050257600080fd5b60006200051288828901620004a5565b955050602086015167ffffffffffffffff8111156200053057600080fd5b6200053e88828901620004bc565b945050604062000551888289016200048e565b935050606062000564888289016200048e565b925050608062000577888289016200048e565b9150509295509295909350565b600062000590620005a3565b90506200059e828262000697565b919050565b6000604051905090565b600067ffffffffffffffff821115620005cb57620005ca620006fc565b5b620005d6826200072b565b9050602081019050919050565b6000620005f0826200060b565b9050919050565b600062000604826200060b565b9050919050565b600073ffffffffffffffffffffffffffffffffffffffff82169050919050565b60005b838110156200064b5780820151818401526020810190506200062e565b838111156200065b576000848401525b50505050565b600060028204905060018216806200067a57607f821691505b60208210811415620006915762000690620006cd565b5b50919050565b620006a2826200072b565b810181811067ffffffffffffffff82111715620006c457620006c3620006fc565b5b80604052505050565b7f4e487b7100000000000000000000000000000000000000000000000000000000600052602260045260246000fd5b7f4e487b7100000000000000000000000000000000000000000000000000000000600052604160045260246000fd5b6000601f19601f8301169050919050565b6200074781620005e3565b81146200075357600080fd5b50565b6200076181620005f7565b81146200076d57600080fd5b50565b61553d80620007806000396000f3fe6080604052600436106102765760003560e01c806368effd5c1161014f578063b2a02ff1116100c1578063da7524751161007a578063da75247514610908578063df67d01114610931578063e63ab1e91461094d578063eafecffa14610978578063ef94f7c5146109a3578063f60916b3146109cc5761027d565b8063b2a02ff11461080e578063b72ddee914610837578063b7f394c014610862578063bce100d31461088b578063c0107f81146108b4578063d547741f146108df5761027d565b8063891bb9a011610113578063891bb9a01461070957806391d148541461071357806391f3e472146107505780639457be231461077b578063953d9cf1146107b8578063a217fddf146107e35761027d565b806368effd5c1461063857806375b9f4181461066157806375d4b96f1461068c57806375e1d781146106b55780638456cb59146106f25761027d565b80633384c3bc116101e85780634bf2ee39116101ac5780634bf2ee391461052557806355a1ac2e146105505780635c975abb1461058e5780636135600f146105b957806361d027b3146105e257806362dd9f231461060d5761027d565b80633384c3bc1461046657806336568abe1461048f5780633ec045a6146104b85780633f4ba83a146104e3578063433b3596146104fa5761027d565b806315344f961161023a57806315344f96146103655780631ea8946d14610381578063248a9ca3146103ac57806325c346b6146103e957806327f1a884146104145780632f2ff15d1461043d5761027d565b806301ffc9a7146102825780630663af08146102bf57806307219b09146102e8578063086c9f1c146103135780630bda514e1461033c5761027d565b3661027d57005b600080fd5b34801561028e57600080fd5b506102a960048036038101906102a4919061422e565b6109e8565b6040516102b69190614906565b60405180910390f35b3480156102cb57600080fd5b506102e660048036038101906102e191906140b2565b610a62565b005b3480156102f457600080fd5b506102fd610ac2565b60405161030a91906148e4565b60405180910390f35b34801561031f57600080fd5b5061033a60048036038101906103359190614321565b610ad3565b005b34801561034857600080fd5b50610363600480360381019061035e9190614151565b610ca6565b005b61037f600480360381019061037a91906140b2565b610d65565b005b34801561038d57600080fd5b50610396610daa565b6040516103a39190614ae5565b60405180910390f35b3480156103b857600080fd5b506103d360048036038101906103ce91906141c9565b610db0565b6040516103e09190614921565b60405180910390f35b3480156103f557600080fd5b506103fe610dd0565b60405161040b9190614c82565b60405180910390f35b34801561042057600080fd5b5061043b60048036038101906104369190614014565b610dd5565b005b34801561044957600080fd5b50610464600480360381019061045f91906141f2565b611021565b005b34801561047257600080fd5b5061048d60048036038101906104889190614257565b61104a565b005b34801561049b57600080fd5b506104b660048036038101906104b191906141f2565b61106a565b005b3480156104c457600080fd5b506104cd6110ed565b6040516104da919061493c565b60405180910390f35b3480156104ef57600080fd5b506104f8611113565b005b34801561050657600080fd5b5061050f611150565b60405161051c919061498d565b60405180910390f35b34801561053157600080fd5b5061053a611176565b6040516105479190614957565b60405180910390f35b34801561055c57600080fd5b50610577600480360381019061057291906140b2565b61119c565b604051610585929190614c22565b60405180910390f35b34801561059a57600080fd5b506105a3611302565b6040516105b09190614906565b60405180910390f35b3480156105c557600080fd5b506105e060048036038101906105db9190614257565b611319565b005b3480156105ee57600080fd5b506105f761144d565b6040516106049190614ae5565b60405180910390f35b34801561061957600080fd5b50610622611453565b60405161062f9190614ae5565b60405180910390f35b34801561064457600080fd5b5061065f600480360381019061065a9190614321565b611459565b005b34801561066d57600080fd5b50610676611776565b6040516106839190614ae5565b60405180910390f35b34801561069857600080fd5b506106b360048036038101906106ae9190614257565b61181d565b005b3480156106c157600080fd5b506106dc60048036038101906106d79190614257565b61183d565b6040516106e99190614ae5565b60405180910390f35b3480156106fe57600080fd5b506107076118f1565b005b61071161192e565b005b34801561071f57600080fd5b5061073a600480360381019061073591906141f2565b61196f565b6040516107479190614906565b60405180910390f35b34801561075c57600080fd5b506107656119da565b60405161077291906149c3565b60405180910390f35b34801561078757600080fd5b506107a2600480360381019061079d91906140ee565b611a68565b6040516107af9190614ae5565b60405180910390f35b3480156107c457600080fd5b506107cd611b1f565b6040516107da9190614972565b60405180910390f35b3480156107ef57600080fd5b506107f8611b45565b6040516108059190614921565b60405180910390f35b34801561081a57600080fd5b5061083560048036038101906108309190614063565b611b4c565b005b34801561084357600080fd5b5061084c611bfb565b604051610859919061493c565b60405180910390f35b34801561086e57600080fd5b5061088960048036038101906108849190614257565b611c25565b005b34801561089757600080fd5b506108b260048036038101906108ad9190614257565b61200f565b005b3480156108c057600080fd5b506108c961202f565b6040516108d69190614ae5565b60405180910390f35b3480156108eb57600080fd5b50610906600480360381019061090191906141f2565b612035565b005b34801561091457600080fd5b5061092f600480360381019061092a9190614014565b61205e565b005b61094b600480360381019061094691906142a9565b6120a4565b005b34801561095957600080fd5b506109626120e9565b60405161096f9190614921565b60405180910390f35b34801561098457600080fd5b5061098d61210d565b60405161099a9190614ae5565b60405180910390f35b3480156109af57600080fd5b506109ca60048036038101906109c59190614257565b612113565b005b6109e660048036038101906109e191906142a9565b612155565b005b60007f7965db0b000000000000000000000000000000000000000000000000000000007bffffffffffffffffffffffffffffffffffffffffffffffffffffffff1916827bffffffffffffffffffffffffffffffffffffffffffffffffffffffff19161480610a5b5750610a5a8261219a565b5b9050919050565b6000801b610a7781610a72612204565b61220c565b8160066000828254610a899190614e92565b92505081905550610abd600760009054906101000a900473ffffffffffffffffffffffffffffffffffffffff1684846122a9565b505050565b6060610ace600c61232f565b905090565b60026000541415610b19576040517f08c379a0000000000000000000000000000000000000000000000000000000008152600401610b1090614aa5565b60405180910390fd5b6002600081905550610b29611302565b15610b69576040517f08c379a0000000000000000000000000000000000000000000000000000000008152600401610b6090614a45565b60405180910390fd5b610b78600c8360036000612454565b610b823384612770565b92506000600a60009054906101000a900473ffffffffffffffffffffffffffffffffffffffff1673ffffffffffffffffffffffffffffffffffffffff1663bd9c2ecb843387866040518563ffffffff1660e01b8152600401610be79493929190614b7c565b602060405180830381600087803b158015610c0157600080fd5b505af1158015610c15573d6000803e3d6000fd5b505050506040513d601f19601f82011682018060405250810190610c399190614280565b90503373ffffffffffffffffffffffffffffffffffffffff167fe983baebb65a77750c6277cf1d19a6a07b25a472b789a59005944cb59b91425a858684610c809190614e92565b86604051610c9093929190614c4b565b60405180910390a2506001600081905550505050565b60026000541415610cec576040517f08c379a0000000000000000000000000000000000000000000000000000000008152600401610ce390614aa5565b60405180910390fd5b6002600081905550610cfc611302565b15610d3c576040517f08c379a0000000000000000000000000000000000000000000000000000000008152600401610d3390614a45565b60405180910390fd5b610d4b600c8360036002612454565b610d5733848385612990565b506001600081905550505050565b6001600d60006101000a81548160ff021916908315150217905550610d8b828234610ca6565b6000600d60006101000a81548160ff0219169083151502179055505050565b60055481565b600060016000838152602001908152602001600020600101549050919050565b600c81565b60026000541415610e1b576040517f08c379a0000000000000000000000000000000000000000000000000000000008152600401610e1290614aa5565b60405180910390fd5b60026000819055506000821415610e6a5760126040517fede8a599000000000000000000000000000000000000000000000000000000008152600401610e6191906149a8565b60405180910390fd5b610e79600c8260026000612454565b600a60009054906101000a900473ffffffffffffffffffffffffffffffffffffffff1673ffffffffffffffffffffffffffffffffffffffff16632ee436a1828585600c60ff16600860009054906101000a900473ffffffffffffffffffffffffffffffffffffffff1673ffffffffffffffffffffffffffffffffffffffff166318160ddd6040518163ffffffff1660e01b815260040160206040518083038186803b158015610f2757600080fd5b505afa158015610f3b573d6000803e3d6000fd5b505050506040513d601f19601f82011682018060405250810190610f5f9190614280565b610f699190614dc9565b6040518563ffffffff1660e01b8152600401610f889493929190614b00565b600060405180830381600087803b158015610fa257600080fd5b505af1158015610fb6573d6000803e3d6000fd5b50505050610fc48383612c29565b8273ffffffffffffffffffffffffffffffffffffffff167fac44b7cd8d864cbf99c4acc9c9787f54f5a4ac089349fecf3de4ce2ddff7b7bb838360405161100c929190614c22565b60405180910390a26001600081905550505050565b61102a82610db0565b61103b81611036612204565b61220c565b6110458383612d26565b505050565b6000801b61105f8161105a612204565b61220c565b816003819055505050565b611072612204565b73ffffffffffffffffffffffffffffffffffffffff168173ffffffffffffffffffffffffffffffffffffffff16146110df576040517f08c379a00000000000000000000000000000000000000000000000000000000081526004016110d690614ac5565b60405180910390fd5b6110e98282612e06565b5050565b600b60009054906101000a900473ffffffffffffffffffffffffffffffffffffffff1681565b7f65d7a28e3265b37a6474929f336521b332c1681b933f6cb9f3376673440d862a61114581611140612204565b61220c565b61114d612ee8565b50565b600a60009054906101000a900473ffffffffffffffffffffffffffffffffffffffff1681565b600760009054906101000a900473ffffffffffffffffffffffffffffffffffffffff1681565b600080600860009054906101000a900473ffffffffffffffffffffffffffffffffffffffff1673ffffffffffffffffffffffffffffffffffffffff166370a08231856040518263ffffffff1660e01b81526004016111fa9190614747565b60206040518083038186803b15801561121257600080fd5b505afa158015611226573d6000803e3d6000fd5b505050506040513d601f19601f8201168201806040525081019061124a9190614280565b600a60009054906101000a900473ffffffffffffffffffffffffffffffffffffffff1673ffffffffffffffffffffffffffffffffffffffff16631b0a67fe86866040518363ffffffff1660e01b81526004016112a79291906148bb565b60206040518083038186803b1580156112bf57600080fd5b505afa1580156112d3573d6000803e3d6000fd5b505050506040513d601f19601f820116820180604052508101906112f79190614280565b915091509250929050565b6000600260009054906101000a900460ff16905090565b611321611302565b15611361576040517f08c379a000000000000000000000000000000000000000000000000000000000815260040161135890614a45565b60405180910390fd5b61136b3382612770565b9050600860009054906101000a900473ffffffffffffffffffffffffffffffffffffffff1673ffffffffffffffffffffffffffffffffffffffff166340c10f1933836040518363ffffffff1660e01b81526004016113ca9291906148bb565b600060405180830381600087803b1580156113e457600080fd5b505af11580156113f8573d6000803e3d6000fd5b505050503373ffffffffffffffffffffffffffffffffffffffff167fd5656bd5348ef71585f018f0e1310274a6c223cc991afb5c5c2ee9f42313ad44826040516114429190614ae5565b60405180910390a250565b60065481565b60035481565b6002600054141561149f576040517f08c379a000000000000000000000000000000000000000000000000000000000815260040161149690614aa5565b60405180910390fd5b60026000819055506114af611302565b156114ef576040517f08c379a00000000000000000000000000000000000000000000000000000000081526004016114e690614a45565b60405180910390fd5b6114fe600c8360036000612454565b6000600a60009054906101000a900473ffffffffffffffffffffffffffffffffffffffff1673ffffffffffffffffffffffffffffffffffffffff1663cb0b8a5584338786600860009054906101000a900473ffffffffffffffffffffffffffffffffffffffff1673ffffffffffffffffffffffffffffffffffffffff166318160ddd6040518163ffffffff1660e01b815260040160206040518083038186803b1580156115aa57600080fd5b505afa1580156115be573d6000803e3d6000fd5b505050506040513d601f19601f820116820180604052508101906115e29190614280565b600c6040518763ffffffff1660e01b815260040161160596959493929190614bc1565b602060405180830381600087803b15801561161f57600080fd5b505af1158015611633573d6000803e3d6000fd5b505050506040513d601f19601f820116820180604052508101906116579190614280565b905080600c600082825461166b9190614d73565b92505081905550600b60009054906101000a900473ffffffffffffffffffffffffffffffffffffffff1673ffffffffffffffffffffffffffffffffffffffff1663144348d530336040518363ffffffff1660e01b81526004016116cf929190614762565b600060405180830381600087803b1580156116e957600080fd5b505af11580156116fd573d6000803e3d6000fd5b5050505061170b3385612c29565b3373ffffffffffffffffffffffffffffffffffffffff167fee72e8c8b6eca9a0d0d7e3769f539ba283595748fe87a842d8d64d5d825173a88586846117509190614e92565b8660405161176093929190614c4b565b60405180910390a2506001600081905550505050565b6000600860009054906101000a900473ffffffffffffffffffffffffffffffffffffffff1673ffffffffffffffffffffffffffffffffffffffff166318160ddd6040518163ffffffff1660e01b815260040160206040518083038186803b1580156117e057600080fd5b505afa1580156117f4573d6000803e3d6000fd5b505050506040513d601f19601f820116820180604052508101906118189190614280565b905090565b6000801b6118328161182d612204565b61220c565b816005819055505050565b6000600a60009054906101000a900473ffffffffffffffffffffffffffffffffffffffff1673ffffffffffffffffffffffffffffffffffffffff166375e1d781836040518263ffffffff1660e01b815260040161189a9190614ae5565b60206040518083038186803b1580156118b257600080fd5b505afa1580156118c6573d6000803e3d6000fd5b505050506040513d601f19601f820116820180604052508101906118ea9190614280565b9050919050565b7f65d7a28e3265b37a6474929f336521b332c1681b933f6cb9f3376673440d862a6119238161191e612204565b61220c565b61192b612f8a565b50565b6001600d60006101000a81548160ff02191690831515021790555061195234611319565b6000600d60006101000a81548160ff021916908315150217905550565b60006001600084815260200190815260200160002060000160008373ffffffffffffffffffffffffffffffffffffffff1673ffffffffffffffffffffffffffffffffffffffff16815260200190815260200160002060009054906101000a900460ff16905092915050565b600980546119e7906150cd565b80601f0160208091040260200160405190810160405280929190818152602001828054611a13906150cd565b8015611a605780601f10611a3557610100808354040283529160200191611a60565b820191906000526020600020905b815481529060010190602001808311611a4357829003601f168201915b505050505081565b600060026000541415611ab0576040517f08c379a0000000000000000000000000000000000000000000000000000000008152600401611aa790614aa5565b60405180910390fd5b6002600081905550611ac0611302565b15611b00576040517f08c379a0000000000000000000000000000000000000000000000000000000008152600401611af790614a45565b60405180910390fd5b611b0d338686868661302d565b90506001600081905550949350505050565b600860009054906101000a900473ffffffffffffffffffffffffffffffffffffffff1681565b6000801b81565b60026000541415611b92576040517f08c379a0000000000000000000000000000000000000000000000000000000008152600401611b8990614aa5565b60405180910390fd5b6002600081905550611ba2611302565b15611be2576040517f08c379a0000000000000000000000000000000000000000000000000000000008152600401611bd990614a45565b60405180910390fd5b611bee3384848461335c565b6001600081905550505050565b6000600b60009054906101000a900473ffffffffffffffffffffffffffffffffffffffff16905090565b600b60009054906101000a900473ffffffffffffffffffffffffffffffffffffffff1673ffffffffffffffffffffffffffffffffffffffff16639cbda20e3033846040518463ffffffff1660e01b8152600401611c8493929190614823565b60006040518083038186803b158015611c9c57600080fd5b505afa158015611cb0573d6000803e3d6000fd5b505050506000600860009054906101000a900473ffffffffffffffffffffffffffffffffffffffff1673ffffffffffffffffffffffffffffffffffffffff166370a08231336040518263ffffffff1660e01b8152600401611d119190614747565b60206040518083038186803b158015611d2957600080fd5b505afa158015611d3d573d6000803e3d6000fd5b505050506040513d601f19601f82011682018060405250810190611d619190614280565b905060008290507fffffffffffffffffffffffffffffffffffffffffffffffffffffffffffffffff831415611d94578190505b600a60009054906101000a900473ffffffffffffffffffffffffffffffffffffffff1673ffffffffffffffffffffffffffffffffffffffff1663fd8ecd176040518163ffffffff1660e01b815260040160206040518083038186803b158015611dfc57600080fd5b505afa158015611e10573d6000803e3d6000fd5b505050506040513d601f19601f82011682018060405250810190611e349190614280565b81600860009054906101000a900473ffffffffffffffffffffffffffffffffffffffff1673ffffffffffffffffffffffffffffffffffffffff166318160ddd6040518163ffffffff1660e01b815260040160206040518083038186803b158015611e9d57600080fd5b505afa158015611eb1573d6000803e3d6000fd5b505050506040513d601f19601f82011682018060405250810190611ed59190614280565b611edf9190614e92565b1015611f235760166040517fede8a599000000000000000000000000000000000000000000000000000000008152600401611f1a91906149a8565b60405180910390fd5b600860009054906101000a900473ffffffffffffffffffffffffffffffffffffffff1673ffffffffffffffffffffffffffffffffffffffff16639dc29fac33836040518363ffffffff1660e01b8152600401611f809291906148bb565b600060405180830381600087803b158015611f9a57600080fd5b505af1158015611fae573d6000803e3d6000fd5b50505050611fbc3382612c29565b3373ffffffffffffffffffffffffffffffffffffffff167f2326675290def598d0fd820ee11f06c58c01b80230ab369044cf0b17dbfdc57f846040516120029190614ae5565b60405180910390a2505050565b6000801b6120248161201f612204565b61220c565b816004819055505050565b600c5481565b61203e82610db0565b61204f8161204a612204565b61220c565b6120598383612e06565b505050565b6001600d60006101000a81548160ff021916908315150217905550612084838383610dd5565b6000600d60006101000a81548160ff021916908315150217905550505050565b6001600d60006101000a81548160ff0219169083151502179055506120ca348383611459565b6000600d60006101000a81548160ff0219169083151502179055505050565b7f65d7a28e3265b37a6474929f336521b332c1681b933f6cb9f3376673440d862a81565b60045481565b6001600d60006101000a81548160ff02191690831515021790555061213781611c25565b6000600d60006101000a81548160ff02191690831515021790555050565b6001600d60006101000a81548160ff02191690831515021790555061217b348383610ad3565b6000600d60006101000a81548160ff0219169083151502179055505050565b60007f01ffc9a7000000000000000000000000000000000000000000000000000000007bffffffffffffffffffffffffffffffffffffffffffffffffffffffff1916827bffffffffffffffffffffffffffffffffffffffffffffffffffffffff1916149050919050565b600033905090565b612216828261196f565b6122a55761223b8173ffffffffffffffffffffffffffffffffffffffff1660146136d3565b6122498360001c60206136d3565b60405160200161225a92919061470d565b6040516020818303038152906040526040517f08c379a000000000000000000000000000000000000000000000000000000000815260040161229c91906149c3565b60405180910390fd5b5050565b61232a8363a9059cbb60e01b84846040516024016122c89291906148bb565b604051602081830303815290604052907bffffffffffffffffffffffffffffffffffffffffffffffffffffffff19166020820180517bffffffffffffffffffffffffffffffffffffffffffffffffffffffff83818316178352505050506139cd565b505050565b606060008260ff1667ffffffffffffffff811115612376577f4e487b7100000000000000000000000000000000000000000000000000000000600052604160045260246000fd5b6040519080825280602002602001820160405280156123a45781602001602082028036833780820191505090505b509050600062093a8063ffffffff16426123be9190615148565b426123c99190614e92565b905060005b8460ff168110156124495762093a8063ffffffff16826123ee9190614d73565b91508183828151811061242a577f4e487b7100000000000000000000000000000000000000000000000000000000600052603260045260246000fd5b6020026020010181815250508080612441906150ff565b9150506123ce565b508192505050919050565b6000612461428587613a94565b905082600481111561249c577f4e487b7100000000000000000000000000000000000000000000000000000000600052602160045260246000fd5b8160048111156124d5577f4e487b7100000000000000000000000000000000000000000000000000000000600052602160045260246000fd5b141580156125535750816004811115612517577f4e487b7100000000000000000000000000000000000000000000000000000000600052602160045260246000fd5b816004811115612550577f4e487b7100000000000000000000000000000000000000000000000000000000600052602160045260246000fd5b14155b156127695760006004811115612592577f4e487b7100000000000000000000000000000000000000000000000000000000600052602160045260246000fd5b8260048111156125cb577f4e487b7100000000000000000000000000000000000000000000000000000000600052602160045260246000fd5b14156126805780600481111561260a577f4e487b7100000000000000000000000000000000000000000000000000000000600052602160045260246000fd5b836004811115612643577f4e487b7100000000000000000000000000000000000000000000000000000000600052602160045260246000fd5b6040517f34e2603a000000000000000000000000000000000000000000000000000000008152600401612677929190614c9d565b60405180910390fd5b8060048111156126b9577f4e487b7100000000000000000000000000000000000000000000000000000000600052602160045260246000fd5b8360048111156126f2577f4e487b7100000000000000000000000000000000000000000000000000000000600052602160045260246000fd5b83600481111561272b577f4e487b7100000000000000000000000000000000000000000000000000000000600052602160045260246000fd5b6040517f537c4e5100000000000000000000000000000000000000000000000000000000815260040161276093929190614cc6565b60405180910390fd5b5050505050565b6000600d60009054906101000a900460ff161561297d576000600760009054906101000a900473ffffffffffffffffffffffffffffffffffffffff1673ffffffffffffffffffffffffffffffffffffffff166370a08231306040518263ffffffff1660e01b81526004016127e49190614747565b60206040518083038186803b1580156127fc57600080fd5b505afa158015612810573d6000803e3d6000fd5b505050506040513d601f19601f820116820180604052508101906128349190614280565b9050600d60019054906101000a900473ffffffffffffffffffffffffffffffffffffffff1673ffffffffffffffffffffffffffffffffffffffff1663d0e30db0346040518263ffffffff1660e01b81526004016000604051808303818588803b1580156128a057600080fd5b505af11580156128b4573d6000803e3d6000fd5b50505050506000600760009054906101000a900473ffffffffffffffffffffffffffffffffffffffff1673ffffffffffffffffffffffffffffffffffffffff166370a08231306040518263ffffffff1660e01b81526004016129169190614747565b60206040518083038186803b15801561292e57600080fd5b505afa158015612942573d6000803e3d6000fd5b505050506040513d601f19601f820116820180604052508101906129669190614280565b905081816129749190614e92565b9250505061298a565b6129878383613b30565b90505b92915050565b6000808314156129d85760096040517fede8a5990000000000000000000000000000000000000000000000000000000081526004016129cf91906149a8565b60405180910390fd5b6129e28584612770565b9250600080600080600a60009054906101000a900473ffffffffffffffffffffffffffffffffffffffff1673ffffffffffffffffffffffffffffffffffffffff166372cd230b878a8a6040518463ffffffff1660e01b8152600401612a4993929190614b45565b608060405180830381600087803b158015612a6357600080fd5b505af1158015612a77573d6000803e3d6000fd5b505050506040513d601f19601f82011682018060405250810190612a9b9190614370565b93509350935093506000841115612ab757612ab68985612c29565b5b6000612ace60035484613cd390919063ffffffff16565b90508060066000828254612ae29190614d73565b92505081905550600860009054906101000a900473ffffffffffffffffffffffffffffffffffffffff1673ffffffffffffffffffffffffffffffffffffffff16638fa467c4838386612b349190614e92565b612b3e9190614d73565b6040518263ffffffff1660e01b8152600401612b5a9190614ae5565b600060405180830381600087803b158015612b7457600080fd5b505af1158015612b88573d6000803e3d6000fd5b5050505083600c6000828254612b9e9190614e92565b925050819055508873ffffffffffffffffffffffffffffffffffffffff168a73ffffffffffffffffffffffffffffffffffffffff167f29c098a0b2f51718bfec23f9b7f06f8d3a257d44b55f33fb0ccf606e7104820c8a878b604051612c0693929190614c4b565b60405180910390a38488612c1a9190614e92565b95505050505050949350505050565b600d60009054906101000a900460ff1615612d1757600d60019054906101000a900473ffffffffffffffffffffffffffffffffffffffff1673ffffffffffffffffffffffffffffffffffffffff16632e1a7d4d826040518263ffffffff1660e01b8152600401612c999190614ae5565b600060405180830381600087803b158015612cb357600080fd5b505af1158015612cc7573d6000803e3d6000fd5b505050508173ffffffffffffffffffffffffffffffffffffffff166108fc829081150290604051600060405180830381858888f19350505050158015612d11573d6000803e3d6000fd5b50612d22565b612d218282613cfc565b5b5050565b612d30828261196f565b612e0257600180600084815260200190815260200160002060000160008373ffffffffffffffffffffffffffffffffffffffff1673ffffffffffffffffffffffffffffffffffffffff16815260200190815260200160002060006101000a81548160ff021916908315150217905550612da7612204565b73ffffffffffffffffffffffffffffffffffffffff168173ffffffffffffffffffffffffffffffffffffffff16837f2f8788117e7eff1d82e926ec794901d17c78024a50270940304540a733656f0d60405160405180910390a45b5050565b612e10828261196f565b15612ee45760006001600084815260200190815260200160002060000160008373ffffffffffffffffffffffffffffffffffffffff1673ffffffffffffffffffffffffffffffffffffffff16815260200190815260200160002060006101000a81548160ff021916908315150217905550612e89612204565b73ffffffffffffffffffffffffffffffffffffffff168173ffffffffffffffffffffffffffffffffffffffff16837ff6391f5c32d9c69d2a47ea670b442974b53935d1edc7fd64eb21e047a839171b60405160405180910390a45b5050565b612ef0611302565b612f2f576040517f08c379a0000000000000000000000000000000000000000000000000000000008152600401612f2690614a05565b60405180910390fd5b6000600260006101000a81548160ff0219169083151502179055507f5db9ee0a495bf2e6ff9c91a7834c1ba4fdd244a5e8aa4e537bd38aeae4b073aa612f73612204565b604051612f809190614747565b60405180910390a1565b612f92611302565b15612fd2576040517f08c379a0000000000000000000000000000000000000000000000000000000008152600401612fc990614a45565b60405180910390fd5b6001600260006101000a81548160ff0219169083151502179055507f62e78cea01bee320cd4e420270b5ea74000d11b0c9f74754ebdbfc544b05a258613016612204565b6040516130239190614747565b60405180910390a1565b6000600b60009054906101000a900473ffffffffffffffffffffffffffffffffffffffff1673ffffffffffffffffffffffffffffffffffffffff16635d0aef8d30858989896040518663ffffffff1660e01b81526004016130929594939291906147d0565b60006040518083038186803b1580156130aa57600080fd5b505afa1580156130be573d6000803e3d6000fd5b505050506130ce86868685612990565b93506000600b60009054906101000a900473ffffffffffffffffffffffffffffffffffffffff1673ffffffffffffffffffffffffffffffffffffffff16635efadbd13086886040518463ffffffff1660e01b815260040161313193929190614823565b60206040518083038186803b15801561314957600080fd5b505afa15801561315d573d6000803e3d6000fd5b505050506040513d601f19601f820116820180604052508101906131819190614280565b905060008473ffffffffffffffffffffffffffffffffffffffff166355a1ac2e88866040518363ffffffff1660e01b81526004016131c09291906148bb565b604080518083038186803b1580156131d757600080fd5b505afa1580156131eb573d6000803e3d6000fd5b505050506040513d601f19601f8201168201806040525081019061320f91906142e5565b5090508181101561325857600a6040517fede8a59900000000000000000000000000000000000000000000000000000000815260040161324f91906149a8565b60405180910390fd5b3073ffffffffffffffffffffffffffffffffffffffff168573ffffffffffffffffffffffffffffffffffffffff16141561329d576132983089898561335c565b61330d565b8473ffffffffffffffffffffffffffffffffffffffff1663b2a02ff18989856040518463ffffffff1660e01b81526004016132da93929190614823565b600060405180830381600087803b1580156132f457600080fd5b505af1158015613308573d6000803e3d6000fd5b505050505b7f9e76a01ba2e51393f58ccc22c0afc9520815e0cc3f301f7b5d7442fcaee9fdc18888888886896040516133469695949392919061485a565b60405180910390a1859250505095945050505050565b600b60009054906101000a900473ffffffffffffffffffffffffffffffffffffffff1673ffffffffffffffffffffffffffffffffffffffff1663eafe967b308686866040518563ffffffff1660e01b81526004016133bd949392919061478b565b60006040518083038186803b1580156133d557600080fd5b505afa1580156133e9573d6000803e3d6000fd5b50505050600061340460045483613cd390919063ffffffff16565b9050600081836134149190614e92565b905081600660008282546134289190614d73565b92505081905550600a60009054906101000a900473ffffffffffffffffffffffffffffffffffffffff1673ffffffffffffffffffffffffffffffffffffffff1663fd8ecd176040518163ffffffff1660e01b815260040160206040518083038186803b15801561349757600080fd5b505afa1580156134ab573d6000803e3d6000fd5b505050506040513d601f19601f820116820180604052508101906134cf9190614280565b81600860009054906101000a900473ffffffffffffffffffffffffffffffffffffffff1673ffffffffffffffffffffffffffffffffffffffff166318160ddd6040518163ffffffff1660e01b815260040160206040518083038186803b15801561353857600080fd5b505afa15801561354c573d6000803e3d6000fd5b505050506040513d601f19601f820116820180604052508101906135709190614280565b61357a9190614e92565b10156135be5760166040517fede8a5990000000000000000000000000000000000000000000000000000000081526004016135b591906149a8565b60405180910390fd5b600860009054906101000a900473ffffffffffffffffffffffffffffffffffffffff1673ffffffffffffffffffffffffffffffffffffffff16639dc29fac85856040518363ffffffff1660e01b815260040161361b9291906148bb565b600060405180830381600087803b15801561363557600080fd5b505af1158015613649573d6000803e3d6000fd5b505050506136578582612c29565b7f47cadff479ffebc80dd9d2330c72e274eaf0e620bb4e9d617356df321e82976185858560405161368a93929190614823565b60405180910390a17f77c97459a115e74ba5adced182b076766b1b9825e785d85b5f0f06d444bef21130836040516136c39291906148bb565b60405180910390a1505050505050565b6060600060028360026136e69190614dfa565b6136f09190614d73565b67ffffffffffffffff81111561372f577f4e487b7100000000000000000000000000000000000000000000000000000000600052604160045260246000fd5b6040519080825280601f01601f1916602001820160405280156137615781602001600182028036833780820191505090505b5090507f3000000000000000000000000000000000000000000000000000000000000000816000815181106137bf577f4e487b7100000000000000000000000000000000000000000000000000000000600052603260045260246000fd5b60200101907effffffffffffffffffffffffffffffffffffffffffffffffffffffffffffff1916908160001a9053507f780000000000000000000000000000000000000000000000000000000000000081600181518110613849577f4e487b7100000000000000000000000000000000000000000000000000000000600052603260045260246000fd5b60200101907effffffffffffffffffffffffffffffffffffffffffffffffffffffffffffff1916908160001a905350600060018460026138899190614dfa565b6138939190614d73565b90505b600181111561397f577f3031323334353637383961626364656600000000000000000000000000000000600f8616601081106138fb577f4e487b7100000000000000000000000000000000000000000000000000000000600052603260045260246000fd5b1a60f81b828281518110613938577f4e487b7100000000000000000000000000000000000000000000000000000000600052603260045260246000fd5b60200101907effffffffffffffffffffffffffffffffffffffffffffffffffffffffffffff1916908160001a905350600485901c945080613978906150a3565b9050613896565b50600084146139c3576040517f08c379a00000000000000000000000000000000000000000000000000000000081526004016139ba906149e5565b60405180910390fd5b8091505092915050565b6000613a2f826040518060400160405280602081526020017f5361666545524332303a206c6f772d6c6576656c2063616c6c206661696c65648152508573ffffffffffffffffffffffffffffffffffffffff16613d2d9092919063ffffffff16565b9050600081511115613a8f5780806020019051810190613a4f91906141a0565b613a8e576040517f08c379a0000000000000000000000000000000000000000000000000000000008152600401613a8590614a85565b60405180910390fd5b5b505050565b60008062093a8063ffffffff1684613aac9190615148565b14613aba5760019050613b29565b83831015613acb5760029050613b29565b60008260ff1662093a80613adf9190614e54565b63ffffffff1690508062093a8063ffffffff1686613afd9190615148565b86613b089190614e92565b613b129190614d73565b841115613b23576004915050613b29565b60039150505b9392505050565b600080600760009054906101000a900473ffffffffffffffffffffffffffffffffffffffff1673ffffffffffffffffffffffffffffffffffffffff166370a08231306040518263ffffffff1660e01b8152600401613b8e9190614747565b60206040518083038186803b158015613ba657600080fd5b505afa158015613bba573d6000803e3d6000fd5b505050506040513d601f19601f82011682018060405250810190613bde9190614280565b9050613c0e600760009054906101000a900473ffffffffffffffffffffffffffffffffffffffff16853086613d45565b6000600760009054906101000a900473ffffffffffffffffffffffffffffffffffffffff1673ffffffffffffffffffffffffffffffffffffffff166370a08231306040518263ffffffff1660e01b8152600401613c6b9190614747565b60206040518083038186803b158015613c8357600080fd5b505afa158015613c97573d6000803e3d6000fd5b505050506040513d601f19601f82011682018060405250810190613cbb9190614280565b90508181613cc99190614e92565b9250505092915050565b6000670de0b6b3a76400008284613cea9190614dfa565b613cf49190614dc9565b905092915050565b613d29600760009054906101000a900473ffffffffffffffffffffffffffffffffffffffff1683836122a9565b5050565b6060613d3c8484600085613dce565b90509392505050565b613dc8846323b872dd60e01b858585604051602401613d6693929190614823565b604051602081830303815290604052907bffffffffffffffffffffffffffffffffffffffffffffffffffffffff19166020820180517bffffffffffffffffffffffffffffffffffffffffffffffffffffffff83818316178352505050506139cd565b50505050565b606082471015613e13576040517f08c379a0000000000000000000000000000000000000000000000000000000008152600401613e0a90614a25565b60405180910390fd5b613e1c85613ee2565b613e5b576040517f08c379a0000000000000000000000000000000000000000000000000000000008152600401613e5290614a65565b60405180910390fd5b6000808673ffffffffffffffffffffffffffffffffffffffff168587604051613e8491906146f6565b60006040518083038185875af1925050503d8060008114613ec1576040519150601f19603f3d011682016040523d82523d6000602084013e613ec6565b606091505b5091509150613ed6828286613f05565b92505050949350505050565b6000808273ffffffffffffffffffffffffffffffffffffffff163b119050919050565b60608315613f1557829050613f65565b600083511115613f285782518084602001fd5b816040517f08c379a0000000000000000000000000000000000000000000000000000000008152600401613f5c91906149c3565b60405180910390fd5b9392505050565b600081359050613f7b81615466565b92915050565b600081359050613f908161547d565b92915050565b600081519050613fa581615494565b92915050565b600081359050613fba816154ab565b92915050565b600081359050613fcf816154c2565b92915050565b600081359050613fe4816154d9565b92915050565b600081359050613ff9816154f0565b92915050565b60008151905061400e816154f0565b92915050565b60008060006060848603121561402957600080fd5b600061403786828701613f81565b935050602061404886828701613fea565b925050604061405986828701613fea565b9150509250925092565b60008060006060848603121561407857600080fd5b600061408686828701613f6c565b935050602061409786828701613f6c565b92505060406140a886828701613fea565b9150509250925092565b600080604083850312156140c557600080fd5b60006140d385828601613f6c565b92505060206140e485828601613fea565b9150509250929050565b6000806000806080858703121561410457600080fd5b600061411287828801613f6c565b945050602061412387828801613fea565b935050604061413487828801613fd5565b925050606061414587828801613fea565b91505092959194509250565b60008060006060848603121561416657600080fd5b600061417486828701613f6c565b935050602061418586828701613fea565b925050604061419686828701613fea565b9150509250925092565b6000602082840312156141b257600080fd5b60006141c084828501613f96565b91505092915050565b6000602082840312156141db57600080fd5b60006141e984828501613fab565b91505092915050565b6000806040838503121561420557600080fd5b600061421385828601613fab565b925050602061422485828601613f6c565b9150509250929050565b60006020828403121561424057600080fd5b600061424e84828501613fc0565b91505092915050565b60006020828403121561426957600080fd5b600061427784828501613fea565b91505092915050565b60006020828403121561429257600080fd5b60006142a084828501613fff565b91505092915050565b600080604083850312156142bc57600080fd5b60006142ca85828601613fea565b92505060206142db85828601613fea565b9150509250929050565b600080604083850312156142f857600080fd5b600061430685828601613fff565b925050602061431785828601613fff565b9150509250929050565b60008060006060848603121561433657600080fd5b600061434486828701613fea565b935050602061435586828701613fea565b925050604061436686828701613fea565b9150509250925092565b6000806000806080858703121561438657600080fd5b600061439487828801613fff565b94505060206143a587828801613fff565b93505060406143b687828801613fff565b92505060606143c787828801613fff565b91505092959194509250565b60006143df83836146c9565b60208301905092915050565b6143f481614f98565b82525050565b61440381614ec6565b82525050565b600061441482614d0d565b61441e8185614d3b565b935061442983614cfd565b8060005b8381101561445a57815161444188826143d3565b975061444c83614d2e565b92505060018101905061442d565b5085935050505092915050565b61447081614eea565b82525050565b61447f81614ef6565b82525050565b600061449082614d18565b61449a8185614d4c565b93506144aa818560208601615070565b80840191505092915050565b6144bf81614faa565b82525050565b6144ce81614fce565b82525050565b6144dd81614ff2565b82525050565b6144ec81615016565b82525050565b6144fb8161503a565b82525050565b600061450c82614d23565b6145168185614d57565b9350614526818560208601615070565b61452f81615235565b840191505092915050565b600061454582614d23565b61454f8185614d68565b935061455f818560208601615070565b80840191505092915050565b6000614578602083614d57565b915061458382615246565b602082019050919050565b600061459b601483614d57565b91506145a68261526f565b602082019050919050565b60006145be602683614d57565b91506145c982615298565b604082019050919050565b60006145e1601083614d57565b91506145ec826152e7565b602082019050919050565b6000614604601d83614d57565b915061460f82615310565b602082019050919050565b6000614627601783614d68565b915061463282615339565b601782019050919050565b600061464a602a83614d57565b915061465582615362565b604082019050919050565b600061466d601f83614d57565b9150614678826153b1565b602082019050919050565b6000614690601183614d68565b915061469b826153da565b601182019050919050565b60006146b3602f83614d57565b91506146be82615403565b604082019050919050565b6146d281614f71565b82525050565b6146e181614f71565b82525050565b6146f081614f8b565b82525050565b60006147028284614485565b915081905092915050565b60006147188261461a565b9150614724828561453a565b915061472f82614683565b915061473b828461453a565b91508190509392505050565b600060208201905061475c60008301846143fa565b92915050565b600060408201905061477760008301856143fa565b61478460208301846143fa565b9392505050565b60006080820190506147a060008301876143fa565b6147ad60208301866143fa565b6147ba60408301856143fa565b6147c760608301846143fa565b95945050505050565b600060a0820190506147e560008301886143fa565b6147f260208301876143fa565b6147ff60408301866143fa565b61480c60608301856143fa565b61481960808301846146d8565b9695505050505050565b600060608201905061483860008301866143fa565b61484560208301856143fa565b61485260408301846146d8565b949350505050565b600060c08201905061486f60008301896143fa565b61487c60208301886143fa565b61488960408301876146d8565b61489660608301866143fa565b6148a360808301856146d8565b6148b060a08301846146d8565b979650505050505050565b60006040820190506148d060008301856143fa565b6148dd60208301846146d8565b9392505050565b600060208201905081810360008301526148fe8184614409565b905092915050565b600060208201905061491b6000830184614467565b92915050565b60006020820190506149366000830184614476565b92915050565b600060208201905061495160008301846144b6565b92915050565b600060208201905061496c60008301846144c5565b92915050565b600060208201905061498760008301846144d4565b92915050565b60006020820190506149a260008301846144e3565b92915050565b60006020820190506149bd60008301846144f2565b92915050565b600060208201905081810360008301526149dd8184614501565b905092915050565b600060208201905081810360008301526149fe8161456b565b9050919050565b60006020820190508181036000830152614a1e8161458e565b9050919050565b60006020820190508181036000830152614a3e816145b1565b9050919050565b60006020820190508181036000830152614a5e816145d4565b9050919050565b60006020820190508181036000830152614a7e816145f7565b9050919050565b60006020820190508181036000830152614a9e8161463d565b9050919050565b60006020820190508181036000830152614abe81614660565b9050919050565b60006020820190508181036000830152614ade816146a6565b9050919050565b6000602082019050614afa60008301846146d8565b92915050565b6000608082019050614b1560008301876146d8565b614b2260208301866143eb565b614b2f60408301856146d8565b614b3c60608301846146d8565b95945050505050565b6000606082019050614b5a60008301866146d8565b614b6760208301856143fa565b614b7460408301846146d8565b949350505050565b6000608082019050614b9160008301876146d8565b614b9e60208301866143fa565b614bab60408301856146d8565b614bb860608301846146d8565b95945050505050565b600060c082019050614bd660008301896146d8565b614be360208301886143fa565b614bf060408301876146d8565b614bfd60608301866146d8565b614c0a60808301856146d8565b614c1760a08301846146e7565b979650505050505050565b6000604082019050614c3760008301856146d8565b614c4460208301846146d8565b9392505050565b6000606082019050614c6060008301866146d8565b614c6d60208301856146d8565b614c7a60408301846146d8565b949350505050565b6000602082019050614c9760008301846146e7565b92915050565b6000604082019050614cb260008301856146e7565b614cbf60208301846146e7565b9392505050565b6000606082019050614cdb60008301866146e7565b614ce860208301856146e7565b614cf560408301846146e7565b949350505050565b6000819050602082019050919050565b600081519050919050565b600081519050919050565b600081519050919050565b6000602082019050919050565b600082825260208201905092915050565b600081905092915050565b600082825260208201905092915050565b600081905092915050565b6000614d7e82614f71565b9150614d8983614f71565b9250827fffffffffffffffffffffffffffffffffffffffffffffffffffffffffffffffff03821115614dbe57614dbd615179565b5b828201905092915050565b6000614dd482614f71565b9150614ddf83614f71565b925082614def57614dee6151a8565b5b828204905092915050565b6000614e0582614f71565b9150614e1083614f71565b9250817fffffffffffffffffffffffffffffffffffffffffffffffffffffffffffffffff0483118215151615614e4957614e48615179565b5b828202905092915050565b6000614e5f82614f7b565b9150614e6a83614f7b565b92508163ffffffff0483118215151615614e8757614e86615179565b5b828202905092915050565b6000614e9d82614f71565b9150614ea883614f71565b925082821015614ebb57614eba615179565b5b828203905092915050565b6000614ed182614f51565b9050919050565b6000614ee382614f51565b9050919050565b60008115159050919050565b6000819050919050565b60007fffffffff0000000000000000000000000000000000000000000000000000000082169050919050565b6000614f3782614ec6565b9050919050565b6000819050614f4c82615452565b919050565b600073ffffffffffffffffffffffffffffffffffffffff82169050919050565b6000819050919050565b600063ffffffff82169050919050565b600060ff82169050919050565b6000614fa38261504c565b9050919050565b6000614fb582614fbc565b9050919050565b6000614fc782614f51565b9050919050565b6000614fd982614fe0565b9050919050565b6000614feb82614f51565b9050919050565b6000614ffd82615004565b9050919050565b600061500f82614f51565b9050919050565b600061502182615028565b9050919050565b600061503382614f51565b9050919050565b600061504582614f3e565b9050919050565b60006150578261505e565b9050919050565b600061506982614f51565b9050919050565b60005b8381101561508e578082015181840152602081019050615073565b8381111561509d576000848401525b50505050565b60006150ae82614f71565b915060008214156150c2576150c1615179565b5b600182039050919050565b600060028204905060018216806150e557607f821691505b602082108114156150f9576150f8615206565b5b50919050565b600061510a82614f71565b91507fffffffffffffffffffffffffffffffffffffffffffffffffffffffffffffffff82141561513d5761513c615179565b5b600182019050919050565b600061515382614f71565b915061515e83614f71565b92508261516e5761516d6151a8565b5b828206905092915050565b7f4e487b7100000000000000000000000000000000000000000000000000000000600052601160045260246000fd5b7f4e487b7100000000000000000000000000000000000000000000000000000000600052601260045260246000fd5b7f4e487b7100000000000000000000000000000000000000000000000000000000600052602160045260246000fd5b7f4e487b7100000000000000000000000000000000000000000000000000000000600052602260045260246000fd5b6000601f19601f8301169050919050565b7f537472696e67733a20686578206c656e67746820696e73756666696369656e74600082015250565b7f5061757361626c653a206e6f7420706175736564000000000000000000000000600082015250565b7f416464726573733a20696e73756666696369656e742062616c616e636520666f60008201527f722063616c6c0000000000000000000000000000000000000000000000000000602082015250565b7f5061757361626c653a2070617573656400000000000000000000000000000000600082015250565b7f416464726573733a2063616c6c20746f206e6f6e2d636f6e7472616374000000600082015250565b7f416363657373436f6e74726f6c3a206163636f756e7420000000000000000000600082015250565b7f5361666545524332303a204552433230206f7065726174696f6e20646964206e60008201527f6f74207375636365656400000000000000000000000000000000000000000000602082015250565b7f5265656e7472616e637947756172643a207265656e7472616e742063616c6c00600082015250565b7f206973206d697373696e6720726f6c6520000000000000000000000000000000600082015250565b7f416363657373436f6e74726f6c3a2063616e206f6e6c792072656e6f756e636560008201527f20726f6c657320666f722073656c660000000000000000000000000000000000602082015250565b601c8110615463576154626151d7565b5b50565b61546f81614ec6565b811461547a57600080fd5b50565b61548681614ed8565b811461549157600080fd5b50565b61549d81614eea565b81146154a857600080fd5b50565b6154b481614ef6565b81146154bf57600080fd5b50565b6154cb81614f00565b81146154d657600080fd5b50565b6154e281614f2c565b81146154ed57600080fd5b50565b6154f981614f71565b811461550457600080fd5b5056fea2646970667358221220130c29b4c7b6f21b25c28387dbfa2ad9eabbd7a28218fa639ce60cb6d538f03064736f6c63430008040033",
  "devdoc": {
    "kind": "dev",
    "methods": {
      "borrowFromMaturityPool(uint256,uint256,uint256)": {
        "details": "Lends to a wallet for a certain maturity date/pool",
        "params": {
          "amount": "amount to send to the msg.sender",
          "maturityDate": "maturity date for repayment",
          "maxAmountAllowed": "maximum amount of debt that        the user is willing to accept for the transaction        to go through"
        }
      },
      "depositToMaturityPool(uint256,uint256,uint256)": {
        "details": "Deposits a certain amount to the protocol for      a certain maturity date/pool",
        "params": {
          "amount": "amount to receive from the msg.sender",
          "maturityDate": "maturity date / pool ID",
          "minAmountRequired": "minimum amount of capital required        by the depositor for the transaction to be accepted"
        }
      },
      "depositToSmartPool(uint256)": {
        "details": "Deposits an `amount` of underlying asset into the smart pool, receiving in return overlying eTokens. - E.g. User deposits 100 USDC and gets in return 100 eUSDC",
        "params": {
          "amount": "The amount to be deposited"
        }
      },
      "getAccountSnapshot(address,uint256)": {
        "details": "Gets current snapshot for a wallet in certain maturity",
        "params": {
          "maturityDate": "maturityDate - Send the value 0 in order to get the snapshot for all maturities where the user borrowed",
          "who": "wallet to return status snapshot in the specified maturity date"
        },
        "returns": {
          "_0": "the amount the user deposited to the smart pool and the total money he owes from maturities"
        }
      },
      "getAuditor()": {
        "details": "Gets the auditor contract interface being used to validate positions"
      },
      "getFuturePools()": {
        "details": "Function to retrieve valid future pools"
      },
      "getRoleAdmin(bytes32)": {
        "details": "Returns the admin role that controls `role`. See {grantRole} and {revokeRole}. To change a role's admin, use {_setRoleAdmin}."
      },
      "getSmartPoolDeposits()": {
        "details": "Gets the market size of the smart pool, usefull for dApps to show current status"
      },
      "getTotalMpBorrows(uint256)": {
        "details": "Gets the total amount of borrowed money for a maturityDate",
        "params": {
          "maturityDate": "maturity date"
        }
      },
      "grantRole(bytes32,address)": {
        "details": "Grants `role` to `account`. If `account` had not been already granted `role`, emits a {RoleGranted} event. Requirements: - the caller must have ``role``'s admin role."
      },
      "hasRole(bytes32,address)": {
        "details": "Returns `true` if `account` has been granted `role`."
      },
      "liquidate(address,uint256,address,uint256)": {
        "details": "Msg.sender liquidates a borrower's position and repays a certain amount of debt      for a maturity date, seizing a part of borrower's collateral",
        "params": {
          "borrower": "wallet that has an outstanding debt for a certain maturity date",
          "fixedLenderCollateral": "address of fixedLender from which the collateral will be seized to give the liquidator",
          "maturityDate": "maturity date for which the position will be liquidated",
          "repayAmount": "amount to be repaid by liquidator(msg.sender)"
        }
      },
      "pause()": {
        "details": "Sets the _pause state to true in case of emergency, triggered by an authorized account"
      },
      "paused()": {
        "details": "Returns true if the contract is paused, and false otherwise."
      },
      "renounceRole(bytes32,address)": {
        "details": "Revokes `role` from the calling account. Roles are often managed via {grantRole} and {revokeRole}: this function's purpose is to provide a mechanism for accounts to lose their privileges if they are compromised (such as when a trusted device is misplaced). If the calling account had been revoked `role`, emits a {RoleRevoked} event. Requirements: - the caller must be `account`."
      },
      "repayToMaturityPool(address,uint256,uint256)": {
        "details": "The pool that the user is trying to repay to should be matured",
        "params": {
          "borrower": "The address of the account that has the debt",
          "maturityDate": "The matured date where the debt is located",
          "repayAmount": "amount to be paid for the borrower's debt"
        }
      },
      "revokeRole(bytes32,address)": {
        "details": "Revokes `role` from `account`. If `account` had been granted `role`, emits a {RoleRevoked} event. Requirements: - the caller must have ``role``'s admin role."
      },
      "seize(address,address,uint256)": {
        "details": "Public function for liquidator to seize borrowers tokens in the smart pool.      This function will only be called from another FixedLender, on `liquidation` calls.      That's why msg.sender needs to be passed to the private function (to be validated as a market)",
        "params": {
          "borrower": "address from which the tokens will be seized",
          "liquidator": "address which will receive the seized tokens",
          "seizeAmount": "amount to be removed from borrower's posession"
        }
      },
      "setMpDepositDistributionWeighter(uint256)": {
        "details": "Sets the maturity pool deposits' weighter used to increase or decrease the deposit amount in order      to share out more or less unassigned earnings to that deposit",
        "params": {
          "_mpDepositDistributionWeighter": "percentage amount represented with 1e18 decimals that will multiply the amount to deposit"
        }
      },
      "setProtocolLiquidationFee(uint256)": {
        "details": "Sets the protocol's collateral liquidation fee used on liquidations",
        "params": {
          "_protocolLiquidationFee": "percentage amount represented with 1e18 decimals"
        }
      },
      "setProtocolSpreadFee(uint256)": {
        "details": "Sets the protocol's spread fee used on loan repayment",
        "params": {
          "_protocolSpreadFee": "percentage amount represented with 1e18 decimals"
        }
      },
      "supportsInterface(bytes4)": {
        "details": "See {IERC165-supportsInterface}."
      },
      "unpause()": {
        "details": "Sets the _pause state to false when threat is gone, triggered by an authorized account"
      },
      "withdrawFromMaturityPool(address,uint256,uint256)": {
        "details": "The pool that the user is trying to retrieve the money should be matured",
        "params": {
          "maturityDate": "The matured date for which we're trying to retrieve the funds",
          "redeemAmount": "The number of underlying tokens to receive",
          "redeemer": "The address of the account which is redeeming the tokens"
        }
      },
      "withdrawFromSmartPool(uint256)": {
        "details": "Withdraws an `amount` of underlying asset from the smart pool, burning the equivalent eTokens owned - E.g. User has 100 eUSDC, calls withdraw() and receives 100 USDC, burning the 100 eUSDC",
        "params": {
          "amount": "The underlying amount to be withdrawn - Send the value type(uint256).max in order to withdraw the whole eToken balance"
        }
      },
      "withdrawFromTreasury(address,uint256)": {
        "params": {
          "amount": "amount to be transferred",
          "who": "address which will receive the funds"
        }
      }
    },
    "version": 1
  },
  "userdoc": {
    "events": {
      "AddReserves(address,uint256)": {
        "notice": "Event emitted reserves have been added to the protocol"
      },
      "BorrowFromMaturityPool(address,uint256,uint256,uint256)": {
        "notice": "Event emitted when a user borrows amount of an asset from a         certain maturity date"
      },
      "DepositToMaturityPool(address,uint256,uint256,uint256)": {
        "notice": "Event emitted when a user deposits an amount of an asset to a         certain maturity date collecting a fee at the end of the         period"
      },
      "DepositToSmartPool(address,uint256)": {
        "notice": "Event emitted when a user contributed to the smart pool"
      },
      "LiquidateBorrow(address,address,uint256,address,uint256,uint256)": {
        "notice": "Event emitted when a user's position had a liquidation"
      },
      "RepayToMaturityPool(address,address,uint256,uint256,uint256)": {
        "notice": "Event emitted when a user repays its borrows after maturity"
      },
      "SeizeAsset(address,address,uint256)": {
        "notice": "Event emitted when a user's collateral has been seized"
      },
      "WithdrawFromMaturityPool(address,uint256,uint256)": {
        "notice": "Event emitted when a user collects its deposits after maturity"
      },
      "WithdrawFromSmartPool(address,uint256)": {
        "notice": "Event emitted when a user contributed to the smart pool"
      }
    },
    "kind": "user",
    "methods": {
      "liquidate(address,uint256,address,uint256)": {
        "notice": "Function to liquidate an uncollaterized position"
      },
      "repayToMaturityPool(address,uint256,uint256)": {
        "notice": "Sender repays an amount of borrower's debt for a maturity date"
      },
      "seize(address,address,uint256)": {
        "notice": "Public function to seize a certain amount of tokens"
      },
      "withdrawFromMaturityPool(address,uint256,uint256)": {
        "notice": "User collects a certain amount of underlying asset after having         supplied tokens until a certain maturity date"
      },
      "withdrawFromTreasury(address,uint256)": {
        "notice": "public function to transfer funds from protocol earnings to a specified wallet"
      }
    },
    "version": 1
  },
  "storageLayout": {
    "storage": [
      {
        "astId": 1263,
        "contract": "contracts/ETHFixedLender.sol:ETHFixedLender",
        "label": "_status",
        "offset": 0,
        "slot": "0",
        "type": "t_uint256"
      },
      {
        "astId": 24,
        "contract": "contracts/ETHFixedLender.sol:ETHFixedLender",
        "label": "_roles",
        "offset": 0,
        "slot": "1",
        "type": "t_mapping(t_bytes32,t_struct(RoleData)19_storage)"
      },
      {
        "astId": 1178,
        "contract": "contracts/ETHFixedLender.sol:ETHFixedLender",
        "label": "_paused",
        "offset": 0,
        "slot": "2",
        "type": "t_bool"
      },
      {
        "astId": 5526,
        "contract": "contracts/ETHFixedLender.sol:ETHFixedLender",
        "label": "protocolSpreadFee",
        "offset": 0,
        "slot": "3",
        "type": "t_uint256"
      },
      {
        "astId": 5529,
        "contract": "contracts/ETHFixedLender.sol:ETHFixedLender",
        "label": "protocolLiquidationFee",
        "offset": 0,
        "slot": "4",
        "type": "t_uint256"
      },
      {
        "astId": 5533,
        "contract": "contracts/ETHFixedLender.sol:ETHFixedLender",
        "label": "mpDepositDistributionWeighter",
        "offset": 0,
        "slot": "5",
        "type": "t_uint256"
      },
      {
        "astId": 5538,
        "contract": "contracts/ETHFixedLender.sol:ETHFixedLender",
        "label": "treasury",
        "offset": 0,
        "slot": "6",
        "type": "t_uint256"
      },
      {
        "astId": 5547,
        "contract": "contracts/ETHFixedLender.sol:ETHFixedLender",
        "label": "trustedUnderlying",
        "offset": 0,
        "slot": "7",
        "type": "t_contract(IERC20)1958"
      },
      {
        "astId": 5551,
        "contract": "contracts/ETHFixedLender.sol:ETHFixedLender",
        "label": "eToken",
        "offset": 0,
        "slot": "8",
        "type": "t_contract(IEToken)8897"
      },
      {
        "astId": 5554,
        "contract": "contracts/ETHFixedLender.sol:ETHFixedLender",
        "label": "underlyingTokenName",
        "offset": 0,
        "slot": "9",
        "type": "t_string_storage"
      },
      {
        "astId": 5557,
        "contract": "contracts/ETHFixedLender.sol:ETHFixedLender",
        "label": "poolAccounting",
        "offset": 0,
        "slot": "10",
        "type": "t_contract(IPoolAccounting)9163"
      },
      {
        "astId": 5560,
        "contract": "contracts/ETHFixedLender.sol:ETHFixedLender",
        "label": "auditor",
        "offset": 0,
        "slot": "11",
        "type": "t_contract(IAuditor)8832"
      },
      {
        "astId": 5563,
        "contract": "contracts/ETHFixedLender.sol:ETHFixedLender",
        "label": "totalMpBorrows",
        "offset": 0,
        "slot": "12",
        "type": "t_uint256"
      },
      {
        "astId": 4387,
        "contract": "contracts/ETHFixedLender.sol:ETHFixedLender",
        "label": "wrapOnOurSide",
        "offset": 0,
        "slot": "13",
        "type": "t_bool"
      },
      {
        "astId": 4390,
        "contract": "contracts/ETHFixedLender.sol:ETHFixedLender",
        "label": "weth",
        "offset": 1,
        "slot": "13",
        "type": "t_contract(WETH9)8763"
      }
    ],
    "types": {
      "t_address": {
        "encoding": "inplace",
        "label": "address",
        "numberOfBytes": "20"
      },
      "t_bool": {
        "encoding": "inplace",
        "label": "bool",
        "numberOfBytes": "1"
      },
      "t_bytes32": {
        "encoding": "inplace",
        "label": "bytes32",
        "numberOfBytes": "32"
      },
      "t_contract(IAuditor)8832": {
        "encoding": "inplace",
        "label": "contract IAuditor",
        "numberOfBytes": "20"
      },
      "t_contract(IERC20)1958": {
        "encoding": "inplace",
        "label": "contract IERC20",
        "numberOfBytes": "20"
      },
      "t_contract(IEToken)8897": {
        "encoding": "inplace",
        "label": "contract IEToken",
        "numberOfBytes": "20"
      },
      "t_contract(IPoolAccounting)9163": {
        "encoding": "inplace",
        "label": "contract IPoolAccounting",
        "numberOfBytes": "20"
      },
      "t_contract(WETH9)8763": {
        "encoding": "inplace",
        "label": "contract WETH9",
        "numberOfBytes": "20"
      },
      "t_mapping(t_address,t_bool)": {
        "encoding": "mapping",
        "key": "t_address",
        "label": "mapping(address => bool)",
        "numberOfBytes": "32",
        "value": "t_bool"
      },
      "t_mapping(t_bytes32,t_struct(RoleData)19_storage)": {
        "encoding": "mapping",
        "key": "t_bytes32",
        "label": "mapping(bytes32 => struct AccessControl.RoleData)",
        "numberOfBytes": "32",
        "value": "t_struct(RoleData)19_storage"
      },
      "t_string_storage": {
        "encoding": "bytes",
        "label": "string",
        "numberOfBytes": "32"
      },
      "t_struct(RoleData)19_storage": {
        "encoding": "inplace",
        "label": "struct AccessControl.RoleData",
        "members": [
          {
            "astId": 16,
            "contract": "contracts/ETHFixedLender.sol:ETHFixedLender",
            "label": "members",
            "offset": 0,
            "slot": "0",
            "type": "t_mapping(t_address,t_bool)"
          },
          {
            "astId": 18,
            "contract": "contracts/ETHFixedLender.sol:ETHFixedLender",
            "label": "adminRole",
            "offset": 0,
            "slot": "1",
            "type": "t_bytes32"
          }
        ],
        "numberOfBytes": "64"
      },
      "t_uint256": {
        "encoding": "inplace",
        "label": "uint256",
        "numberOfBytes": "32"
      }
    }
  }
}