{
  "address": "0x4461920fD5EEa020c05580e35863e84558C072d3",
  "abi": [
    {
      "inputs": [
        {
          "internalType": "uint256",
          "name": "_curveParameterA",
          "type": "uint256"
        },
        {
          "internalType": "int256",
          "name": "_curveParameterB",
          "type": "int256"
        },
        {
          "internalType": "uint256",
          "name": "_maxUtilizationRate",
          "type": "uint256"
        },
        {
          "internalType": "uint256",
          "name": "_penaltyRate",
          "type": "uint256"
        }
      ],
      "stateMutability": "nonpayable",
      "type": "constructor"
    },
    {
      "inputs": [
        {
          "internalType": "enum ErrorCode",
          "name": "error",
          "type": "uint8"
        }
      ],
      "name": "GenericError",
      "type": "error"
    },
    {
      "anonymous": false,
      "inputs": [
        {
          "indexed": true,
          "internalType": "bytes32",
          "name": "role",
          "type": "bytes32"
        },
        {
          "indexed": true,
          "internalType": "bytes32",
          "name": "previousAdminRole",
          "type": "bytes32"
        },
        {
          "indexed": true,
          "internalType": "bytes32",
          "name": "newAdminRole",
          "type": "bytes32"
        }
      ],
      "name": "RoleAdminChanged",
      "type": "event"
    },
    {
      "anonymous": false,
      "inputs": [
        {
          "indexed": true,
          "internalType": "bytes32",
          "name": "role",
          "type": "bytes32"
        },
        {
          "indexed": true,
          "internalType": "address",
          "name": "account",
          "type": "address"
        },
        {
          "indexed": true,
          "internalType": "address",
          "name": "sender",
          "type": "address"
        }
      ],
      "name": "RoleGranted",
      "type": "event"
    },
    {
      "anonymous": false,
      "inputs": [
        {
          "indexed": true,
          "internalType": "bytes32",
          "name": "role",
          "type": "bytes32"
        },
        {
          "indexed": true,
          "internalType": "address",
          "name": "account",
          "type": "address"
        },
        {
          "indexed": true,
          "internalType": "address",
          "name": "sender",
          "type": "address"
        }
      ],
      "name": "RoleRevoked",
      "type": "event"
    },
    {
      "inputs": [],
      "name": "DEFAULT_ADMIN_ROLE",
      "outputs": [
        {
          "internalType": "bytes32",
          "name": "",
          "type": "bytes32"
        }
      ],
      "stateMutability": "view",
      "type": "function"
    },
    {
      "inputs": [],
      "name": "curveParameterA",
      "outputs": [
        {
          "internalType": "uint256",
          "name": "",
          "type": "uint256"
        }
      ],
      "stateMutability": "view",
      "type": "function"
    },
    {
      "inputs": [],
      "name": "curveParameterB",
      "outputs": [
        {
          "internalType": "int256",
          "name": "",
          "type": "int256"
        }
      ],
      "stateMutability": "view",
      "type": "function"
    },
    {
      "inputs": [],
      "name": "getParameters",
      "outputs": [
        {
          "internalType": "uint256",
          "name": "",
          "type": "uint256"
        },
        {
          "internalType": "int256",
          "name": "",
          "type": "int256"
        },
        {
          "internalType": "uint256",
          "name": "",
          "type": "uint256"
        },
        {
          "internalType": "uint256",
          "name": "",
          "type": "uint256"
        }
      ],
      "stateMutability": "view",
      "type": "function"
    },
    {
      "inputs": [
        {
          "internalType": "uint256",
          "name": "maturityDate",
          "type": "uint256"
        },
        {
          "internalType": "uint256",
          "name": "currentDate",
          "type": "uint256"
        },
        {
          "internalType": "uint256",
          "name": "borrowedMP",
          "type": "uint256"
        },
        {
          "internalType": "uint256",
          "name": "suppliedMP",
          "type": "uint256"
        },
        {
          "internalType": "uint256",
          "name": "smartPoolLiquidityShare",
          "type": "uint256"
        }
      ],
      "name": "getRateToBorrow",
      "outputs": [
        {
          "internalType": "uint256",
          "name": "",
          "type": "uint256"
        }
      ],
      "stateMutability": "view",
      "type": "function"
    },
    {
      "inputs": [
        {
          "internalType": "bytes32",
          "name": "role",
          "type": "bytes32"
        }
      ],
      "name": "getRoleAdmin",
      "outputs": [
        {
          "internalType": "bytes32",
          "name": "",
          "type": "bytes32"
        }
      ],
      "stateMutability": "view",
      "type": "function"
    },
    {
      "inputs": [
        {
          "internalType": "uint256",
          "name": "suppliedSP",
          "type": "uint256"
        },
        {
          "internalType": "uint256",
          "name": "unassignedEarnings",
          "type": "uint256"
        },
        {
          "internalType": "uint256",
          "name": "amount",
          "type": "uint256"
        },
        {
          "internalType": "uint256",
          "name": "mpDepositsWeighter",
          "type": "uint256"
        }
      ],
      "name": "getYieldForDeposit",
      "outputs": [
        {
          "internalType": "uint256",
          "name": "earningsShare",
          "type": "uint256"
        }
      ],
      "stateMutability": "pure",
      "type": "function"
    },
    {
      "inputs": [
        {
          "internalType": "bytes32",
          "name": "role",
          "type": "bytes32"
        },
        {
          "internalType": "address",
          "name": "account",
          "type": "address"
        }
      ],
      "name": "grantRole",
      "outputs": [],
      "stateMutability": "nonpayable",
      "type": "function"
    },
    {
      "inputs": [
        {
          "internalType": "bytes32",
          "name": "role",
          "type": "bytes32"
        },
        {
          "internalType": "address",
          "name": "account",
          "type": "address"
        }
      ],
      "name": "hasRole",
      "outputs": [
        {
          "internalType": "bool",
          "name": "",
          "type": "bool"
        }
      ],
      "stateMutability": "view",
      "type": "function"
    },
    {
      "inputs": [],
      "name": "maxUtilizationRate",
      "outputs": [
        {
          "internalType": "uint256",
          "name": "",
          "type": "uint256"
        }
      ],
      "stateMutability": "view",
      "type": "function"
    },
    {
      "inputs": [],
      "name": "penaltyRate",
      "outputs": [
        {
          "internalType": "uint256",
          "name": "",
          "type": "uint256"
        }
      ],
      "stateMutability": "view",
      "type": "function"
    },
    {
      "inputs": [
        {
          "internalType": "bytes32",
          "name": "role",
          "type": "bytes32"
        },
        {
          "internalType": "address",
          "name": "account",
          "type": "address"
        }
      ],
      "name": "renounceRole",
      "outputs": [],
      "stateMutability": "nonpayable",
      "type": "function"
    },
    {
      "inputs": [
        {
          "internalType": "bytes32",
          "name": "role",
          "type": "bytes32"
        },
        {
          "internalType": "address",
          "name": "account",
          "type": "address"
        }
      ],
      "name": "revokeRole",
      "outputs": [],
      "stateMutability": "nonpayable",
      "type": "function"
    },
    {
      "inputs": [
        {
          "internalType": "uint256",
          "name": "_curveParameterA",
          "type": "uint256"
        },
        {
          "internalType": "int256",
          "name": "_curveParameterB",
          "type": "int256"
        },
        {
          "internalType": "uint256",
          "name": "_maxUtilizationRate",
          "type": "uint256"
        },
        {
          "internalType": "uint256",
          "name": "_penaltyRate",
          "type": "uint256"
        }
      ],
      "name": "setParameters",
      "outputs": [],
      "stateMutability": "nonpayable",
      "type": "function"
    },
    {
      "inputs": [
        {
          "internalType": "bytes4",
          "name": "interfaceId",
          "type": "bytes4"
        }
      ],
      "name": "supportsInterface",
      "outputs": [
        {
          "internalType": "bool",
          "name": "",
          "type": "bool"
        }
      ],
      "stateMutability": "view",
      "type": "function"
    }
  ],
  "transactionHash": "0x99d64089cffddc98bf95b3b99dcb6ce72dc18a4b1240417abd8e8d6a37f3fc0a",
  "args": [
    "49500000000000000",
    "-25000000000000000",
    "1100000000000000000",
    "231481481481"
  ],
  "numDeployments": 1,
  "solcInputHash": "b29e96ef9678c31f24803a302d5ef6ff",
  "bytecode": "0x60806040523480156200001157600080fd5b50604051620025b1380380620025b183398181016040528101906200003791906200083e565b6200004c6000801b336200006a60201b60201c565b62000060848484846200008060201b60201c565b5050505062000e49565b6200007c8282620000ee60201b60201c565b5050565b6000801b620000a58162000099620001df60201b60201c565b620001e760201b60201c565b84600181905550836002819055508260038190555081600481905550620000e6600142620000d4919062000b12565b426000606480620002ab60201b60201c565b505050505050565b6200010082826200046a60201b60201c565b620001db57600160008084815260200190815260200160002060000160008373ffffffffffffffffffffffffffffffffffffffff1673ffffffffffffffffffffffffffffffffffffffff16815260200190815260200160002060006101000a81548160ff02191690831515021790555062000180620001df60201b60201c565b73ffffffffffffffffffffffffffffffffffffffff168173ffffffffffffffffffffffffffffffffffffffff16837f2f8788117e7eff1d82e926ec794901d17c78024a50270940304540a733656f0d60405160405180910390a45b5050565b600033905090565b620001f982826200046a60201b60201c565b620002a7576200022c8173ffffffffffffffffffffffffffffffffffffffff166014620004d460201b620007601760201c565b620002478360001c6020620004d460201b620007601760201c565b6040516020016200025a929190620009a8565b6040516020818303038152906040526040517f08c379a00000000000000000000000000000000000000000000000000000000081526004016200029e919062000a07565b60405180910390fd5b5050565b6000858510620002f557601b6040517fede8a599000000000000000000000000000000000000000000000000000000008152600401620002ec9190620009ea565b60405180910390fd5b6000838362000305919062000b12565b90506000811415620003515760166040517fede8a599000000000000000000000000000000000000000000000000000000008152600401620003489190620009ea565b60405180910390fd5b60006200036d8287620007e360201b62000a5a1790919060201c565b90506003548110620003b95760176040517fede8a599000000000000000000000000000000000000000000000000000000008152600401620003b09190620009ea565b60405180910390fd5b6000600254620003e983600354620003d2919062000c08565b600154620007e360201b62000a5a1790919060201c565b620003f5919062000a74565b9050600081121562000430577f4e487b7100000000000000000000000000000000000000000000000000000000600052600160045260246000fd5b6301e13380888a62000443919062000c08565b8262000450919062000ba7565b6200045c919062000b6f565b935050505095945050505050565b600080600084815260200190815260200160002060000160008373ffffffffffffffffffffffffffffffffffffffff1673ffffffffffffffffffffffffffffffffffffffff16815260200190815260200160002060009054906101000a900460ff16905092915050565b606060006002836002620004e9919062000ba7565b620004f5919062000b12565b67ffffffffffffffff81111562000535577f4e487b7100000000000000000000000000000000000000000000000000000000600052604160045260246000fd5b6040519080825280601f01601f191660200182016040528015620005685781602001600182028036833780820191505090505b5090507f300000000000000000000000000000000000000000000000000000000000000081600081518110620005c7577f4e487b7100000000000000000000000000000000000000000000000000000000600052603260045260246000fd5b60200101907effffffffffffffffffffffffffffffffffffffffffffffffffffffffffffff1916908160001a9053507f78000000000000000000000000000000000000000000000000000000000000008160018151811062000652577f4e487b7100000000000000000000000000000000000000000000000000000000600052603260045260246000fd5b60200101907effffffffffffffffffffffffffffffffffffffffffffffffffffffffffffff1916908160001a9053506000600184600262000694919062000ba7565b620006a0919062000b12565b90505b600181111562000792577f3031323334353637383961626364656600000000000000000000000000000000600f8616601081106200070a577f4e487b7100000000000000000000000000000000000000000000000000000000600052603260045260246000fd5b1a60f81b82828151811062000748577f4e487b7100000000000000000000000000000000000000000000000000000000600052603260045260246000fd5b60200101907effffffffffffffffffffffffffffffffffffffffffffffffffffffffffffff1916908160001a905350600485901c9450806200078a9062000cb6565b9050620006a3565b5060008414620007d9576040517f08c379a0000000000000000000000000000000000000000000000000000000008152600401620007d09062000a2b565b60405180910390fd5b8091505092915050565b600081670de0b6b3a764000084620007fc919062000ba7565b62000808919062000b6f565b905092915050565b600081519050620008218162000e15565b92915050565b600081519050620008388162000e2f565b92915050565b600080600080608085870312156200085557600080fd5b6000620008658782880162000827565b9450506020620008788782880162000810565b93505060406200088b8782880162000827565b92505060606200089e8782880162000827565b91505092959194509250565b620008b58162000c6c565b82525050565b6000620008c88262000a4d565b620008d4818562000a58565b9350620008e681856020860162000c80565b620008f18162000d72565b840191505092915050565b6000620009098262000a4d565b62000915818562000a69565b93506200092781856020860162000c80565b80840191505092915050565b60006200094260208362000a58565b91506200094f8262000d83565b602082019050919050565b60006200096960178362000a69565b9150620009768262000dac565b601782019050919050565b60006200099060118362000a69565b91506200099d8262000dd5565b601182019050919050565b6000620009b5826200095a565b9150620009c38285620008fc565b9150620009d08262000981565b9150620009de8284620008fc565b91508190509392505050565b600060208201905062000a016000830184620008aa565b92915050565b6000602082019050818103600083015262000a238184620008bb565b905092915050565b6000602082019050818103600083015262000a468162000933565b9050919050565b600081519050919050565b600082825260208201905092915050565b600081905092915050565b600062000a818262000c58565b915062000a8e8362000c58565b9250817f7fffffffffffffffffffffffffffffffffffffffffffffffffffffffffffffff0383136000831215161562000acc5762000acb62000ce5565b5b817f800000000000000000000000000000000000000000000000000000000000000003831260008312161562000b075762000b0662000ce5565b5b828201905092915050565b600062000b1f8262000c62565b915062000b2c8362000c62565b9250827fffffffffffffffffffffffffffffffffffffffffffffffffffffffffffffffff0382111562000b645762000b6362000ce5565b5b828201905092915050565b600062000b7c8262000c62565b915062000b898362000c62565b92508262000b9c5762000b9b62000d14565b5b828204905092915050565b600062000bb48262000c62565b915062000bc18362000c62565b9250817fffffffffffffffffffffffffffffffffffffffffffffffffffffffffffffffff048311821515161562000bfd5762000bfc62000ce5565b5b828202905092915050565b600062000c158262000c62565b915062000c228362000c62565b92508282101562000c385762000c3762000ce5565b5b828203905092915050565b600081905062000c538262000dfe565b919050565b6000819050919050565b6000819050919050565b600062000c798262000c43565b9050919050565b60005b8381101562000ca057808201518184015260208101905062000c83565b8381111562000cb0576000848401525b50505050565b600062000cc38262000c62565b9150600082141562000cda5762000cd962000ce5565b5b600182039050919050565b7f4e487b7100000000000000000000000000000000000000000000000000000000600052601160045260246000fd5b7f4e487b7100000000000000000000000000000000000000000000000000000000600052601260045260246000fd5b7f4e487b7100000000000000000000000000000000000000000000000000000000600052602160045260246000fd5b6000601f19601f8301169050919050565b7f537472696e67733a20686578206c656e67746820696e73756666696369656e74600082015250565b7f416363657373436f6e74726f6c3a206163636f756e7420000000000000000000600082015250565b7f206973206d697373696e6720726f6c6520000000000000000000000000000000600082015250565b601c811062000e125762000e1162000d43565b5b50565b62000e208162000c58565b811462000e2c57600080fd5b50565b62000e3a8162000c62565b811462000e4657600080fd5b50565b6117588062000e596000396000f3fe608060405234801561001057600080fd5b50600436106100f55760003560e01c806391d1485411610097578063d547741f11610066578063d547741f1461029b578063d6b7494f146102b7578063dfcb48bd146102d5578063f72578a3146102f3576100f5565b806391d14854146101fc578063a217fddf1461022c578063a4cf7ac51461024a578063a5ea11da1461027a576100f5565b80632f2ff15d116100d35780632f2ff15d1461018a57806336568abe146101a657806374e86c97146101c25780638f2652f7146101e0576100f5565b806301ffc9a7146100fa5780630ddc56311461012a578063248a9ca31461015a575b600080fd5b610114600480360381019061010f9190610e4a565b610311565b604051610121919061112b565b60405180910390f35b610144600480360381019061013f9190610f39565b61038b565b60405161015191906111f9565b60405180910390f35b610174600480360381019061016f9190610de5565b610526565b6040516101819190611146565b60405180910390f35b6101a4600480360381019061019f9190610e0e565b610545565b005b6101c060048036038101906101bb9190610e0e565b61056e565b005b6101ca6105f1565b6040516101d7919061117c565b60405180910390f35b6101fa60048036038101906101f59190610e73565b6105f7565b005b61021660048036038101906102119190610e0e565b61064b565b604051610223919061112b565b60405180910390f35b6102346106b5565b6040516102419190611146565b60405180910390f35b610264600480360381019061025f9190610ed6565b6106bc565b60405161027191906111f9565b60405180910390f35b610282610705565b6040516102929493929190611214565b60405180910390f35b6102b560048036038101906102b09190610e0e565b610725565b005b6102bf61074e565b6040516102cc91906111f9565b60405180910390f35b6102dd610754565b6040516102ea91906111f9565b60405180910390f35b6102fb61075a565b60405161030891906111f9565b60405180910390f35b60007f7965db0b000000000000000000000000000000000000000000000000000000007bffffffffffffffffffffffffffffffffffffffffffffffffffffffff1916827bffffffffffffffffffffffffffffffffffffffffffffffffffffffff19161480610384575061038382610a83565b5b9050919050565b60008585106103d257601b6040517fede8a5990000000000000000000000000000000000000000000000000000000081526004016103c99190611161565b60405180910390fd5b600083836103e09190611314565b905060008114156104295760166040517fede8a5990000000000000000000000000000000000000000000000000000000081526004016104209190611161565b60405180910390fd5b600061043e8287610a5a90919063ffffffff16565b905060035481106104875760176040517fede8a59900000000000000000000000000000000000000000000000000000000815260040161047e9190611161565b60405180910390fd5b60006002546104ae8360035461049d91906113f5565b600154610a5a90919063ffffffff16565b6104b89190611280565b905060008112156104f2577f4e487b7100000000000000000000000000000000000000000000000000000000600052600160045260246000fd5b6301e13380888a61050391906113f5565b8261050e919061139b565b610518919061136a565b935050505095945050505050565b6000806000838152602001908152602001600020600101549050919050565b61054e82610526565b61055f8161055a610aed565b610af5565b6105698383610b92565b505050565b610576610aed565b73ffffffffffffffffffffffffffffffffffffffff168173ffffffffffffffffffffffffffffffffffffffff16146105e3576040517f08c379a00000000000000000000000000000000000000000000000000000000081526004016105da906111d9565b60405180910390fd5b6105ed8282610c72565b5050565b60025481565b6000801b61060c81610607610aed565b610af5565b846001819055508360028190555082600381905550816004819055506106436001426106389190611314565b42600060648061038b565b505050505050565b600080600084815260200190815260200160002060000160008373ffffffffffffffffffffffffffffffffffffffff1673ffffffffffffffffffffffffffffffffffffffff16815260200190815260200160002060009054906101000a900460ff16905092915050565b6000801b81565b60006106d18284610d5390919063ffffffff16565b9250600083866106e19190611314565b90508085856106f0919061139b565b6106fa919061136a565b915050949350505050565b600080600080600154600254600354600454935093509350935090919293565b61072e82610526565b61073f8161073a610aed565b610af5565b6107498383610c72565b505050565b60045481565b60035481565b60015481565b606060006002836002610773919061139b565b61077d9190611314565b67ffffffffffffffff8111156107bc577f4e487b7100000000000000000000000000000000000000000000000000000000600052604160045260246000fd5b6040519080825280601f01601f1916602001820160405280156107ee5781602001600182028036833780820191505090505b5090507f30000000000000000000000000000000000000000000000000000000000000008160008151811061084c577f4e487b7100000000000000000000000000000000000000000000000000000000600052603260045260246000fd5b60200101907effffffffffffffffffffffffffffffffffffffffffffffffffffffffffffff1916908160001a9053507f7800000000000000000000000000000000000000000000000000000000000000816001815181106108d6577f4e487b7100000000000000000000000000000000000000000000000000000000600052603260045260246000fd5b60200101907effffffffffffffffffffffffffffffffffffffffffffffffffffffffffffff1916908160001a90535060006001846002610916919061139b565b6109209190611314565b90505b6001811115610a0c577f3031323334353637383961626364656600000000000000000000000000000000600f861660108110610988577f4e487b7100000000000000000000000000000000000000000000000000000000600052603260045260246000fd5b1a60f81b8282815181106109c5577f4e487b7100000000000000000000000000000000000000000000000000000000600052603260045260246000fd5b60200101907effffffffffffffffffffffffffffffffffffffffffffffffffffffffffffff1916908160001a905350600485901c945080610a0590611509565b9050610923565b5060008414610a50576040517f08c379a0000000000000000000000000000000000000000000000000000000008152600401610a47906111b9565b60405180910390fd5b8091505092915050565b600081670de0b6b3a764000084610a71919061139b565b610a7b919061136a565b905092915050565b60007f01ffc9a7000000000000000000000000000000000000000000000000000000007bffffffffffffffffffffffffffffffffffffffffffffffffffffffff1916827bffffffffffffffffffffffffffffffffffffffffffffffffffffffff1916149050919050565b600033905090565b610aff828261064b565b610b8e57610b248173ffffffffffffffffffffffffffffffffffffffff166014610760565b610b328360001c6020610760565b604051602001610b439291906110f1565b6040516020818303038152906040526040517f08c379a0000000000000000000000000000000000000000000000000000000008152600401610b859190611197565b60405180910390fd5b5050565b610b9c828261064b565b610c6e57600160008084815260200190815260200160002060000160008373ffffffffffffffffffffffffffffffffffffffff1673ffffffffffffffffffffffffffffffffffffffff16815260200190815260200160002060006101000a81548160ff021916908315150217905550610c13610aed565b73ffffffffffffffffffffffffffffffffffffffff168173ffffffffffffffffffffffffffffffffffffffff16837f2f8788117e7eff1d82e926ec794901d17c78024a50270940304540a733656f0d60405160405180910390a45b5050565b610c7c828261064b565b15610d4f57600080600084815260200190815260200160002060000160008373ffffffffffffffffffffffffffffffffffffffff1673ffffffffffffffffffffffffffffffffffffffff16815260200190815260200160002060006101000a81548160ff021916908315150217905550610cf4610aed565b73ffffffffffffffffffffffffffffffffffffffff168173ffffffffffffffffffffffffffffffffffffffff16837ff6391f5c32d9c69d2a47ea670b442974b53935d1edc7fd64eb21e047a839171b60405160405180910390a45b5050565b6000670de0b6b3a76400008284610d6a919061139b565b610d74919061136a565b905092915050565b600081359050610d8b816116af565b92915050565b600081359050610da0816116c6565b92915050565b600081359050610db5816116dd565b92915050565b600081359050610dca816116f4565b92915050565b600081359050610ddf8161170b565b92915050565b600060208284031215610df757600080fd5b6000610e0584828501610d91565b91505092915050565b60008060408385031215610e2157600080fd5b6000610e2f85828601610d91565b9250506020610e4085828601610d7c565b9150509250929050565b600060208284031215610e5c57600080fd5b6000610e6a84828501610da6565b91505092915050565b60008060008060808587031215610e8957600080fd5b6000610e9787828801610dd0565b9450506020610ea887828801610dbb565b9350506040610eb987828801610dd0565b9250506060610eca87828801610dd0565b91505092959194509250565b60008060008060808587031215610eec57600080fd5b6000610efa87828801610dd0565b9450506020610f0b87828801610dd0565b9350506040610f1c87828801610dd0565b9250506060610f2d87828801610dd0565b91505092959194509250565b600080600080600060a08688031215610f5157600080fd5b6000610f5f88828901610dd0565b9550506020610f7088828901610dd0565b9450506040610f8188828901610dd0565b9350506060610f9288828901610dd0565b9250506080610fa388828901610dd0565b9150509295509295909350565b610fb98161143b565b82525050565b610fc881611447565b82525050565b610fd7816114c4565b82525050565b610fe681611490565b82525050565b6000610ff782611259565b6110018185611264565b93506110118185602086016114d6565b61101a816115c0565b840191505092915050565b600061103082611259565b61103a8185611275565b935061104a8185602086016114d6565b80840191505092915050565b6000611063602083611264565b915061106e826115d1565b602082019050919050565b6000611086601783611275565b9150611091826115fa565b601782019050919050565b60006110a9601183611275565b91506110b482611623565b601182019050919050565b60006110cc602f83611264565b91506110d78261164c565b604082019050919050565b6110eb816114ba565b82525050565b60006110fc82611079565b91506111088285611025565b91506111138261109c565b915061111f8284611025565b91508190509392505050565b60006020820190506111406000830184610fb0565b92915050565b600060208201905061115b6000830184610fbf565b92915050565b60006020820190506111766000830184610fce565b92915050565b60006020820190506111916000830184610fdd565b92915050565b600060208201905081810360008301526111b18184610fec565b905092915050565b600060208201905081810360008301526111d281611056565b9050919050565b600060208201905081810360008301526111f2816110bf565b9050919050565b600060208201905061120e60008301846110e2565b92915050565b600060808201905061122960008301876110e2565b6112366020830186610fdd565b61124360408301856110e2565b61125060608301846110e2565b95945050505050565b600081519050919050565b600082825260208201905092915050565b600081905092915050565b600061128b82611490565b915061129683611490565b9250817f7fffffffffffffffffffffffffffffffffffffffffffffffffffffffffffffff038313600083121516156112d1576112d0611533565b5b817f800000000000000000000000000000000000000000000000000000000000000003831260008312161561130957611308611533565b5b828201905092915050565b600061131f826114ba565b915061132a836114ba565b9250827fffffffffffffffffffffffffffffffffffffffffffffffffffffffffffffffff0382111561135f5761135e611533565b5b828201905092915050565b6000611375826114ba565b9150611380836114ba565b9250826113905761138f611562565b5b828204905092915050565b60006113a6826114ba565b91506113b1836114ba565b9250817fffffffffffffffffffffffffffffffffffffffffffffffffffffffffffffffff04831182151516156113ea576113e9611533565b5b828202905092915050565b6000611400826114ba565b915061140b836114ba565b92508282101561141e5761141d611533565b5b828203905092915050565b60006114348261149a565b9050919050565b60008115159050919050565b6000819050919050565b60007fffffffff0000000000000000000000000000000000000000000000000000000082169050919050565b600081905061148b8261169b565b919050565b6000819050919050565b600073ffffffffffffffffffffffffffffffffffffffff82169050919050565b6000819050919050565b60006114cf8261147d565b9050919050565b60005b838110156114f45780820151818401526020810190506114d9565b83811115611503576000848401525b50505050565b6000611514826114ba565b9150600082141561152857611527611533565b5b600182039050919050565b7f4e487b7100000000000000000000000000000000000000000000000000000000600052601160045260246000fd5b7f4e487b7100000000000000000000000000000000000000000000000000000000600052601260045260246000fd5b7f4e487b7100000000000000000000000000000000000000000000000000000000600052602160045260246000fd5b6000601f19601f8301169050919050565b7f537472696e67733a20686578206c656e67746820696e73756666696369656e74600082015250565b7f416363657373436f6e74726f6c3a206163636f756e7420000000000000000000600082015250565b7f206973206d697373696e6720726f6c6520000000000000000000000000000000600082015250565b7f416363657373436f6e74726f6c3a2063616e206f6e6c792072656e6f756e636560008201527f20726f6c657320666f722073656c660000000000000000000000000000000000602082015250565b601c81106116ac576116ab611591565b5b50565b6116b881611429565b81146116c357600080fd5b50565b6116cf81611447565b81146116da57600080fd5b50565b6116e681611451565b81146116f157600080fd5b50565b6116fd81611490565b811461170857600080fd5b50565b611714816114ba565b811461171f57600080fd5b5056fea264697066735822122075b2e5fe68bb165a363c52e30110ebdb2065810bffe8e93c4bcaeb812d10152164736f6c63430008040033",
  "devdoc": {
    "kind": "dev",
    "methods": {
      "getParameters()": {
        "returns": {
          "_0": "parameters (curveA, curveB, maxUtilizationRate, penaltyRate)"
        }
      },
      "getRateToBorrow(uint256,uint256,uint256,uint256,uint256)": {
        "details": "liquidity limits aren't checked, that's the responsibility of pool.takeMoney.",
        "params": {
          "borrowedMP": "total borrowed from this maturity",
          "currentDate": "the curent block timestamp. Recieved from caller for easier testing",
          "maturityDate": "maturity date for calculating days left to maturity",
          "smartPoolLiquidityShare": "'fair' share of the smart pool that this maturity can borrow",
          "suppliedMP": "total supplied to this maturity"
        },
        "returns": {
          "_0": "rate to be applied to the amount to calculate the fee that the borrower will         have to pay"
        }
      },
      "getRoleAdmin(bytes32)": {
        "details": "Returns the admin role that controls `role`. See {grantRole} and {revokeRole}. To change a role's admin, use {_setRoleAdmin}."
      },
      "getYieldForDeposit(uint256,uint256,uint256,uint256)": {
        "details": "Calculate the amount of revenue sharing between the smart pool and the new MP depositor.",
        "params": {
          "amount": "amount being provided by the MP depositor",
          "suppliedSP": "amount of money currently being supplied in the maturity pool",
          "unassignedEarnings": "earnings not yet accrued to the SP that should be shared with the        current depositor"
        },
        "returns": {
          "earningsShare": ": yield to be given to the MP depositor"
        }
      },
      "grantRole(bytes32,address)": {
        "details": "Grants `role` to `account`. If `account` had not been already granted `role`, emits a {RoleGranted} event. Requirements: - the caller must have ``role``'s admin role."
      },
      "hasRole(bytes32,address)": {
        "details": "Returns `true` if `account` has been granted `role`."
      },
      "renounceRole(bytes32,address)": {
        "details": "Revokes `role` from the calling account. Roles are often managed via {grantRole} and {revokeRole}: this function's purpose is to provide a mechanism for accounts to lose their privileges if they are compromised (such as when a trusted device is misplaced). If the calling account had been revoked `role`, emits a {RoleRevoked} event. Requirements: - the caller must be `account`."
      },
      "revokeRole(bytes32,address)": {
        "details": "Revokes `role` from `account`. If `account` had been granted `role`, emits a {RoleRevoked} event. Requirements: - the caller must have ``role``'s admin role."
      },
      "setParameters(uint256,int256,uint256,uint256)": {
        "details": "Function to update this model's parameters (DEFAULT_ADMIN_ROLE)",
        "params": {
          "_curveParameterA": "curve parameter",
          "_curveParameterB": "curve parameter",
          "_maxUtilizationRate": "% of MP supp",
          "_penaltyRate": "by-second rate charged on late repays, with 18 decimals"
        }
      },
      "supportsInterface(bytes4)": {
        "details": "See {IERC165-supportsInterface}."
      }
    },
    "version": 1
  },
  "userdoc": {
    "kind": "user",
    "methods": {
      "getParameters()": {
        "notice": "gets this model's parameters"
      },
      "getRateToBorrow(uint256,uint256,uint256,uint256,uint256)": {
        "notice": "Get current rate for borrow a certain amount in a certain maturity      with supply/demand values in the maturity pool and supply demand values      in the smart pool"
      }
    },
    "version": 1
  },
  "storageLayout": {
    "storage": [
      {
        "astId": 24,
        "contract": "contracts/InterestRateModel.sol:InterestRateModel",
        "label": "_roles",
        "offset": 0,
        "slot": "0",
        "type": "t_mapping(t_bytes32,t_struct(RoleData)19_storage)"
      },
      {
        "astId": 6650,
        "contract": "contracts/InterestRateModel.sol:InterestRateModel",
        "label": "curveParameterA",
        "offset": 0,
        "slot": "1",
        "type": "t_uint256"
      },
      {
        "astId": 6652,
        "contract": "contracts/InterestRateModel.sol:InterestRateModel",
        "label": "curveParameterB",
        "offset": 0,
        "slot": "2",
        "type": "t_int256"
      },
      {
        "astId": 6654,
        "contract": "contracts/InterestRateModel.sol:InterestRateModel",
        "label": "maxUtilizationRate",
        "offset": 0,
        "slot": "3",
        "type": "t_uint256"
      },
      {
        "astId": 6657,
        "contract": "contracts/InterestRateModel.sol:InterestRateModel",
        "label": "penaltyRate",
        "offset": 0,
        "slot": "4",
        "type": "t_uint256"
      }
    ],
    "types": {
      "t_address": {
        "encoding": "inplace",
        "label": "address",
        "numberOfBytes": "20"
      },
      "t_bool": {
        "encoding": "inplace",
        "label": "bool",
        "numberOfBytes": "1"
      },
      "t_bytes32": {
        "encoding": "inplace",
        "label": "bytes32",
        "numberOfBytes": "32"
      },
      "t_int256": {
        "encoding": "inplace",
        "label": "int256",
        "numberOfBytes": "32"
      },
      "t_mapping(t_address,t_bool)": {
        "encoding": "mapping",
        "key": "t_address",
        "label": "mapping(address => bool)",
        "numberOfBytes": "32",
        "value": "t_bool"
      },
      "t_mapping(t_bytes32,t_struct(RoleData)19_storage)": {
        "encoding": "mapping",
        "key": "t_bytes32",
        "label": "mapping(bytes32 => struct AccessControl.RoleData)",
        "numberOfBytes": "32",
        "value": "t_struct(RoleData)19_storage"
      },
      "t_struct(RoleData)19_storage": {
        "encoding": "inplace",
        "label": "struct AccessControl.RoleData",
        "members": [
          {
            "astId": 16,
            "contract": "contracts/InterestRateModel.sol:InterestRateModel",
            "label": "members",
            "offset": 0,
            "slot": "0",
            "type": "t_mapping(t_address,t_bool)"
          },
          {
            "astId": 18,
            "contract": "contracts/InterestRateModel.sol:InterestRateModel",
            "label": "adminRole",
            "offset": 0,
            "slot": "1",
            "type": "t_bytes32"
          }
        ],
        "numberOfBytes": "64"
      },
      "t_uint256": {
        "encoding": "inplace",
        "label": "uint256",
        "numberOfBytes": "32"
      }
    }
  }
}