{
  "address": "0xB6Fb7d160001CfD13d15B762A4a46eF95cA0BA0a",
  "abi": [
    {
      "inputs": [
        {
          "internalType": "address",
          "name": "_interestRateModelAddress",
          "type": "address"
        }
      ],
      "stateMutability": "nonpayable",
      "type": "constructor"
    },
    {
      "inputs": [
        {
          "internalType": "enum ErrorCode",
          "name": "error",
          "type": "uint8"
        }
      ],
      "name": "GenericError",
      "type": "error"
    },
    {
      "anonymous": false,
      "inputs": [
        {
          "indexed": true,
          "internalType": "address",
          "name": "fixedLender",
          "type": "address"
        }
      ],
      "name": "Initialized",
      "type": "event"
    },
    {
      "anonymous": false,
      "inputs": [
        {
          "indexed": true,
          "internalType": "bytes32",
          "name": "role",
          "type": "bytes32"
        },
        {
          "indexed": true,
          "internalType": "bytes32",
          "name": "previousAdminRole",
          "type": "bytes32"
        },
        {
          "indexed": true,
          "internalType": "bytes32",
          "name": "newAdminRole",
          "type": "bytes32"
        }
      ],
      "name": "RoleAdminChanged",
      "type": "event"
    },
    {
      "anonymous": false,
      "inputs": [
        {
          "indexed": true,
          "internalType": "bytes32",
          "name": "role",
          "type": "bytes32"
        },
        {
          "indexed": true,
          "internalType": "address",
          "name": "account",
          "type": "address"
        },
        {
          "indexed": true,
          "internalType": "address",
          "name": "sender",
          "type": "address"
        }
      ],
      "name": "RoleGranted",
      "type": "event"
    },
    {
      "anonymous": false,
      "inputs": [
        {
          "indexed": true,
          "internalType": "bytes32",
          "name": "role",
          "type": "bytes32"
        },
        {
          "indexed": true,
          "internalType": "address",
          "name": "account",
          "type": "address"
        },
        {
          "indexed": true,
          "internalType": "address",
          "name": "sender",
          "type": "address"
        }
      ],
      "name": "RoleRevoked",
      "type": "event"
    },
    {
      "inputs": [],
      "name": "DEFAULT_ADMIN_ROLE",
      "outputs": [
        {
          "internalType": "bytes32",
          "name": "",
          "type": "bytes32"
        }
      ],
      "stateMutability": "view",
      "type": "function"
    },
    {
      "inputs": [
        {
          "internalType": "uint256",
          "name": "maturityDate",
          "type": "uint256"
        },
        {
          "internalType": "address",
          "name": "borrower",
          "type": "address"
        },
        {
          "internalType": "uint256",
          "name": "amount",
          "type": "uint256"
        },
        {
          "internalType": "uint256",
          "name": "maxAmountAllowed",
          "type": "uint256"
        },
        {
          "internalType": "uint256",
          "name": "eTokenTotalSupply",
          "type": "uint256"
        },
        {
          "internalType": "uint8",
          "name": "maxFuturePools",
          "type": "uint8"
        }
      ],
      "name": "borrowMP",
      "outputs": [
        {
          "internalType": "uint256",
          "name": "totalOwedNewBorrow",
          "type": "uint256"
        }
      ],
      "stateMutability": "nonpayable",
      "type": "function"
    },
    {
      "inputs": [
        {
          "internalType": "uint256",
          "name": "maturityDate",
          "type": "uint256"
        },
        {
          "internalType": "address",
          "name": "supplier",
          "type": "address"
        },
        {
          "internalType": "uint256",
          "name": "amount",
          "type": "uint256"
        },
        {
          "internalType": "uint256",
          "name": "minAmountRequired",
          "type": "uint256"
        }
      ],
      "name": "depositMP",
      "outputs": [
        {
          "internalType": "uint256",
          "name": "currentTotalDeposit",
          "type": "uint256"
        }
      ],
      "stateMutability": "nonpayable",
      "type": "function"
    },
    {
      "inputs": [],
      "name": "fixedLenderAddress",
      "outputs": [
        {
          "internalType": "address",
          "name": "",
          "type": "address"
        }
      ],
      "stateMutability": "view",
      "type": "function"
    },
    {
      "inputs": [
        {
          "internalType": "address",
          "name": "who",
          "type": "address"
        },
        {
          "internalType": "uint256",
          "name": "maturityDate",
          "type": "uint256"
        }
      ],
      "name": "getAccountBorrows",
      "outputs": [
        {
          "internalType": "uint256",
          "name": "debt",
          "type": "uint256"
        }
      ],
      "stateMutability": "view",
      "type": "function"
    },
    {
      "inputs": [
        {
          "internalType": "bytes32",
          "name": "role",
          "type": "bytes32"
        }
      ],
      "name": "getRoleAdmin",
      "outputs": [
        {
          "internalType": "bytes32",
          "name": "",
          "type": "bytes32"
        }
      ],
      "stateMutability": "view",
      "type": "function"
    },
    {
      "inputs": [
        {
          "internalType": "uint256",
          "name": "maturityDate",
          "type": "uint256"
        }
      ],
      "name": "getTotalMpBorrows",
      "outputs": [
        {
          "internalType": "uint256",
          "name": "",
          "type": "uint256"
        }
      ],
      "stateMutability": "view",
      "type": "function"
    },
    {
      "inputs": [
        {
          "internalType": "bytes32",
          "name": "role",
          "type": "bytes32"
        },
        {
          "internalType": "address",
          "name": "account",
          "type": "address"
        }
      ],
      "name": "grantRole",
      "outputs": [],
      "stateMutability": "nonpayable",
      "type": "function"
    },
    {
      "inputs": [
        {
          "internalType": "bytes32",
          "name": "role",
          "type": "bytes32"
        },
        {
          "internalType": "address",
          "name": "account",
          "type": "address"
        }
      ],
      "name": "hasRole",
      "outputs": [
        {
          "internalType": "bool",
          "name": "",
          "type": "bool"
        }
      ],
      "stateMutability": "view",
      "type": "function"
    },
    {
      "inputs": [
        {
          "internalType": "address",
          "name": "_fixedLenderAddress",
          "type": "address"
        }
      ],
      "name": "initialize",
      "outputs": [],
      "stateMutability": "nonpayable",
      "type": "function"
    },
    {
      "inputs": [],
      "name": "interestRateModel",
      "outputs": [
        {
          "internalType": "contract IInterestRateModel",
          "name": "",
          "type": "address"
        }
      ],
      "stateMutability": "view",
      "type": "function"
    },
    {
      "inputs": [
        {
          "internalType": "uint256",
          "name": "",
          "type": "uint256"
        }
      ],
      "name": "maturityPools",
      "outputs": [
        {
          "internalType": "uint256",
          "name": "borrowed",
          "type": "uint256"
        },
        {
          "internalType": "uint256",
          "name": "supplied",
          "type": "uint256"
        },
        {
          "internalType": "uint256",
          "name": "suppliedSP",
          "type": "uint256"
        },
        {
          "internalType": "uint256",
          "name": "unassignedEarnings",
          "type": "uint256"
        },
        {
          "internalType": "uint256",
          "name": "earningsMP",
          "type": "uint256"
        },
        {
          "internalType": "uint256",
          "name": "earningsSP",
          "type": "uint256"
        },
        {
          "internalType": "uint256",
          "name": "lastAccrue",
          "type": "uint256"
        }
      ],
      "stateMutability": "view",
      "type": "function"
    },
    {
      "inputs": [
        {
          "internalType": "uint256",
          "name": "",
          "type": "uint256"
        },
        {
          "internalType": "address",
          "name": "",
          "type": "address"
        }
      ],
      "name": "mpUserBorrowedAmount",
      "outputs": [
        {
          "internalType": "uint256",
          "name": "",
          "type": "uint256"
        }
      ],
      "stateMutability": "view",
      "type": "function"
    },
    {
      "inputs": [
        {
          "internalType": "uint256",
          "name": "",
          "type": "uint256"
        },
        {
          "internalType": "address",
          "name": "",
          "type": "address"
        }
      ],
      "name": "mpUserSuppliedAmount",
      "outputs": [
        {
          "internalType": "uint256",
          "name": "",
          "type": "uint256"
        }
      ],
      "stateMutability": "view",
      "type": "function"
    },
    {
      "inputs": [
        {
          "internalType": "bytes32",
          "name": "role",
          "type": "bytes32"
        },
        {
          "internalType": "address",
          "name": "account",
          "type": "address"
        }
      ],
      "name": "renounceRole",
      "outputs": [],
      "stateMutability": "nonpayable",
      "type": "function"
    },
    {
      "inputs": [
        {
          "internalType": "uint256",
          "name": "maturityDate",
          "type": "uint256"
        },
        {
          "internalType": "address",
          "name": "borrower",
          "type": "address"
        },
        {
          "internalType": "uint256",
          "name": "repayAmount",
          "type": "uint256"
        }
      ],
      "name": "repayMP",
      "outputs": [
        {
          "internalType": "uint256",
          "name": "spareRepayAmount",
          "type": "uint256"
        },
        {
          "internalType": "uint256",
          "name": "debtCovered",
          "type": "uint256"
        },
        {
          "internalType": "uint256",
          "name": "fee",
          "type": "uint256"
        },
        {
          "internalType": "uint256",
          "name": "earningsRepay",
          "type": "uint256"
        }
      ],
      "stateMutability": "nonpayable",
      "type": "function"
    },
    {
      "inputs": [
        {
          "internalType": "bytes32",
          "name": "role",
          "type": "bytes32"
        },
        {
          "internalType": "address",
          "name": "account",
          "type": "address"
        }
      ],
      "name": "revokeRole",
      "outputs": [],
      "stateMutability": "nonpayable",
      "type": "function"
    },
    {
      "inputs": [],
      "name": "smartPoolBorrowed",
      "outputs": [
        {
          "internalType": "uint256",
          "name": "",
          "type": "uint256"
        }
      ],
      "stateMutability": "view",
      "type": "function"
    },
    {
      "inputs": [
        {
          "internalType": "bytes4",
          "name": "interfaceId",
          "type": "bytes4"
        }
      ],
      "name": "supportsInterface",
      "outputs": [
        {
          "internalType": "bool",
          "name": "",
          "type": "bool"
        }
      ],
      "stateMutability": "view",
      "type": "function"
    },
    {
      "inputs": [
        {
          "internalType": "address",
          "name": "",
          "type": "address"
        },
        {
          "internalType": "uint256",
          "name": "",
          "type": "uint256"
        }
      ],
      "name": "userMpBorrowed",
      "outputs": [
        {
          "internalType": "uint256",
          "name": "",
          "type": "uint256"
        }
      ],
      "stateMutability": "view",
      "type": "function"
    },
    {
      "inputs": [
        {
          "internalType": "uint256",
          "name": "maturityDate",
          "type": "uint256"
        },
        {
          "internalType": "address",
          "name": "redeemer",
          "type": "address"
        },
        {
          "internalType": "uint256",
          "name": "amount",
          "type": "uint256"
        },
        {
          "internalType": "uint256",
          "name": "maxSPDebt",
          "type": "uint256"
        }
      ],
      "name": "withdrawMP",
      "outputs": [],
      "stateMutability": "nonpayable",
      "type": "function"
    }
  ],
  "transactionHash": "0xb5894bc9ced36d7d919cf38d4d65057a7b846851fb3dfc3942f121a36dac61d7",
  "args": [
    "0x4461920fD5EEa020c05580e35863e84558C072d3"
  ],
  "numDeployments": 1,
  "solcInputHash": "b29e96ef9678c31f24803a302d5ef6ff",
  "bytecode": "0x60806040523480156200001157600080fd5b506040516200339d3803806200339d833981810160405281019062000037919062000224565b6200004c6000801b336200009460201b60201c565b80600760006101000a81548173ffffffffffffffffffffffffffffffffffffffff021916908373ffffffffffffffffffffffffffffffffffffffff160217905550506200029e565b620000a68282620000aa60201b60201c565b5050565b620000bc82826200019b60201b60201c565b6200019757600160008084815260200190815260200160002060000160008373ffffffffffffffffffffffffffffffffffffffff1673ffffffffffffffffffffffffffffffffffffffff16815260200190815260200160002060006101000a81548160ff0219169083151502179055506200013c6200020560201b60201c565b73ffffffffffffffffffffffffffffffffffffffff168173ffffffffffffffffffffffffffffffffffffffff16837f2f8788117e7eff1d82e926ec794901d17c78024a50270940304540a733656f0d60405160405180910390a45b5050565b600080600084815260200190815260200160002060000160008373ffffffffffffffffffffffffffffffffffffffff1673ffffffffffffffffffffffffffffffffffffffff16815260200190815260200160002060009054906101000a900460ff16905092915050565b600033905090565b6000815190506200021e8162000284565b92915050565b6000602082840312156200023757600080fd5b600062000247848285016200020d565b91505092915050565b60006200025d8262000264565b9050919050565b600073ffffffffffffffffffffffffffffffffffffffff82169050919050565b6200028f8162000250565b81146200029b57600080fd5b50565b6130ef80620002ae6000396000f3fe608060405234801561001057600080fd5b50600436106101375760003560e01c806375e1d781116100b8578063bd9c2ecb1161007c578063bd9c2ecb146103b5578063c4d66de8146103e5578063cb0b8a5514610401578063d547741f14610431578063f3fdb15a1461044d578063fd8ecd171461046b57610137565b806375e1d781146102d1578063821993ec1461030157806391d1485414610331578063a217fddf14610361578063a29cb7e11461037f57610137565b80632ee436a1116100ff5780632ee436a11461021a5780632f2ff15d1461023657806336568abe1461025257806345227d5f1461026e57806372cd230b1461029e57610137565b806301ffc9a71461013c5780631b0a67fe1461016c57806320c127501461019c578063248a9ca3146101ba5780632b5dcfe2146101ea575b600080fd5b6101566004803603810190610151919061256d565b610489565b6040516101639190612969565b60405180910390f35b610186600480360381019061018191906124a3565b610503565b6040516101939190612ab2565b60405180910390f35b6101a46106ed565b6040516101b1919061294e565b60405180910390f35b6101d460048036038101906101cf9190612508565b610713565b6040516101e19190612984565b60405180910390f35b61020460048036038101906101ff91906124a3565b610732565b6040516102119190612ab2565b60405180910390f35b610234600480360381019061022f9190612673565b610763565b005b610250600480360381019061024b9190612531565b61091a565b005b61026c60048036038101906102679190612531565b610943565b005b610288600480360381019061028391906125e8565b6109c6565b6040516102959190612ab2565b60405180910390f35b6102b860048036038101906102b39190612624565b6109eb565b6040516102c89493929190612af6565b60405180910390f35b6102eb60048036038101906102e69190612596565b610f83565b6040516102f89190612ab2565b60405180910390f35b61031b600480360381019061031691906125e8565b61106c565b6040516103289190612ab2565b60405180910390f35b61034b60048036038101906103469190612531565b611091565b6040516103589190612969565b60405180910390f35b6103696110fb565b6040516103769190612984565b60405180910390f35b61039960048036038101906103949190612596565b611102565b6040516103ac9796959493929190612b8e565b60405180910390f35b6103cf60048036038101906103ca9190612673565b611144565b6040516103dc9190612ab2565b60405180910390f35b6103ff60048036038101906103fa919061247a565b611594565b005b61041b600480360381019061041691906126d6565b6116c5565b6040516104289190612ab2565b60405180910390f35b61044b60048036038101906104469190612531565b611b99565b005b610455611bc2565b604051610462919061299f565b60405180910390f35b610473611be8565b6040516104809190612ab2565b60405180910390f35b60007f7965db0b000000000000000000000000000000000000000000000000000000007bffffffffffffffffffffffffffffffffffffffffffffffffffffffff1916827bffffffffffffffffffffffffffffffffffffffffffffffffffffffff191614806104fc57506104fb82611bee565b5b9050919050565b600080821415610611576000600360008573ffffffffffffffffffffffffffffffffffffffff1673ffffffffffffffffffffffffffffffffffffffff16815260200190815260200160002080549050905060005b8181101561060a576105ea85600360008873ffffffffffffffffffffffffffffffffffffffff1673ffffffffffffffffffffffffffffffffffffffff16815260200190815260200160002083815481106105da577f4e487b7100000000000000000000000000000000000000000000000000000000600052603260045260246000fd5b9060005260206000200154611c58565b836105f59190612c24565b9250808061060290612e6a565b915050610557565b50506106e7565b739Cb53e5c24Fa1d1cd68c19f5d6f9135E7600bdDb63b142980a836040518263ffffffff1660e01b81526004016106489190612a97565b60206040518083038186803b15801561066057600080fd5b505af4158015610674573d6000803e3d6000fd5b505050506040513d601f19601f8201168201806040525081019061069891906124df565b6106da57600c6040517fede8a5990000000000000000000000000000000000000000000000000000000081526004016106d191906129ba565b60405180910390fd5b6106e48383611c58565b90505b92915050565b600660009054906101000a900473ffffffffffffffffffffffffffffffffffffffff1681565b6000806000838152602001908152602001600020600101549050919050565b6003602052816000526040600020818154811061074e57600080fd5b90600052602060002001600091509150505481565b600660009054906101000a900473ffffffffffffffffffffffffffffffffffffffff1673ffffffffffffffffffffffffffffffffffffffff163373ffffffffffffffffffffffffffffffffffffffff16146107f65760146040517fede8a5990000000000000000000000000000000000000000000000000000000081526004016107ed91906129ba565b60405180910390fd5b600460008581526020019081526020016000207351B23a106B2c31C51A00A1288755946B64eBc7F7639d6957d4909184846040518463ffffffff1660e01b815260040161084593929190612a60565b60206040518083038186803b15801561085d57600080fd5b505af4158015610871573d6000803e3d6000fd5b505050506040513d601f19601f8201168201806040525081019061089591906125bf565b600560008282546108a69190612c24565b92505081905550816001600086815260200190815260200160002060008573ffffffffffffffffffffffffffffffffffffffff1673ffffffffffffffffffffffffffffffffffffffff168152602001908152602001600020600082825461090d9190612d05565b9250508190555050505050565b61092382610713565b6109348161092f611e15565b611e1d565b61093e8383611eba565b505050565b61094b611e15565b73ffffffffffffffffffffffffffffffffffffffff168173ffffffffffffffffffffffffffffffffffffffff16146109b8576040517f08c379a00000000000000000000000000000000000000000000000000000000081526004016109af90612a17565b60405180910390fd5b6109c28282611f9a565b5050565b6001602052816000526040600020602052806000526040600020600091509150505481565b600080600080600660009054906101000a900473ffffffffffffffffffffffffffffffffffffffff1673ffffffffffffffffffffffffffffffffffffffff163373ffffffffffffffffffffffffffffffffffffffff1614610a845760146040517fede8a599000000000000000000000000000000000000000000000000000000008152600401610a7b91906129ba565b60405180910390fd5b610a8c61239e565b610a968789610503565b8160000181815250508060000151861115610ac557806000015186610abb9190612d05565b9450806000015195505b6002600089815260200190815260200160002060008873ffffffffffffffffffffffffffffffffffffffff1673ffffffffffffffffffffffffffffffffffffffff168152602001908152602001600020548160200181815250508060000151816020015187610b349190612cab565b610b3e9190612c7a565b9350838160200151610b509190612d05565b816040018181525050600081604001511415610dd8576000600360008973ffffffffffffffffffffffffffffffffffffffff1673ffffffffffffffffffffffffffffffffffffffff168152602001908152602001600020805480602002602001604051908101604052809291908181526020018280548015610bf157602002820191906000526020600020905b815481526020019060010190808311610bdd575b50505050509050600081519050600081905060005b82811015610c71578b848281518110610c48577f4e487b7100000000000000000000000000000000000000000000000000000000600052603260045260246000fd5b60200260200101511415610c5e57809150610c71565b8080610c6990612e6a565b915050610c06565b50818110610ca8577f4e487b7100000000000000000000000000000000000000000000000000000000600052600160045260246000fd5b6000600360008c73ffffffffffffffffffffffffffffffffffffffff1673ffffffffffffffffffffffffffffffffffffffff16815260200190815260200160002090508060018280549050610cfd9190612d05565b81548110610d34577f4e487b7100000000000000000000000000000000000000000000000000000000600052603260045260246000fd5b9060005260206000200154818381548110610d78577f4e487b7100000000000000000000000000000000000000000000000000000000600052603260045260246000fd5b906000526020600020018190555080805480610dbd577f4e487b7100000000000000000000000000000000000000000000000000000000600052603160045260246000fd5b60019003818190600052602060002001600090559055505050505b8060400151600260008a815260200190815260200160002060008973ffffffffffffffffffffffffffffffffffffffff1673ffffffffffffffffffffffffffffffffffffffff16815260200190815260200160002081905550600460008981526020019081526020016000207351B23a106B2c31C51A00A1288755946B64eBc7F76389426e7b90918a6040518363ffffffff1660e01b8152600401610e7e929190612a37565b60006040518083038186803b158015610e9657600080fd5b505af4158015610eaa573d6000803e3d6000fd5b50505050600460008981526020019081526020016000207351B23a106B2c31C51A00A1288755946B64eBc7F76310f9fd2a9091886040518363ffffffff1660e01b8152600401610efb929190612a37565b60606040518083038186803b158015610f1357600080fd5b505af4158015610f27573d6000803e3d6000fd5b505050506040513d601f19601f82011682018060405250810190610f4b919061275f565b8360600181955082965083815250505050806060015160056000828254610f729190612d05565b925050819055505093509350935093565b6000739Cb53e5c24Fa1d1cd68c19f5d6f9135E7600bdDb63b142980a836040518263ffffffff1660e01b8152600401610fbc9190612a97565b60206040518083038186803b158015610fd457600080fd5b505af4158015610fe8573d6000803e3d6000fd5b505050506040513d601f19601f8201168201806040525081019061100c91906124df565b61104e57600c6040517fede8a59900000000000000000000000000000000000000000000000000000000815260040161104591906129ba565b60405180910390fd5b60046000838152602001908152602001600020600001549050919050565b6002602052816000526040600020602052806000526040600020600091509150505481565b600080600084815260200190815260200160002060000160008373ffffffffffffffffffffffffffffffffffffffff1673ffffffffffffffffffffffffffffffffffffffff16815260200190815260200160002060009054906101000a900460ff16905092915050565b6000801b81565b60046020528060005260406000206000915090508060000154908060010154908060020154908060030154908060040154908060050154908060060154905087565b6000600660009054906101000a900473ffffffffffffffffffffffffffffffffffffffff1673ffffffffffffffffffffffffffffffffffffffff163373ffffffffffffffffffffffffffffffffffffffff16146111d95760146040517fede8a5990000000000000000000000000000000000000000000000000000000081526004016111d091906129ba565b60405180910390fd5b600460008681526020019081526020016000207351B23a106B2c31C51A00A1288755946B64eBc7F76389426e7b9091876040518363ffffffff1660e01b8152600401611226929190612a37565b60006040518083038186803b15801561123e57600080fd5b505af4158015611252573d6000803e3d6000fd5b505050506000600760009054906101000a900473ffffffffffffffffffffffffffffffffffffffff1673ffffffffffffffffffffffffffffffffffffffff1663a4cf7ac56004600089815260200190815260200160002060020154600460008a81526020019081526020016000206003015487600660009054906101000a900473ffffffffffffffffffffffffffffffffffffffff1673ffffffffffffffffffffffffffffffffffffffff16631ea8946d6040518163ffffffff1660e01b815260040160206040518083038186803b15801561132d57600080fd5b505afa158015611341573d6000803e3d6000fd5b505050506040513d601f19601f8201168201806040525081019061136591906125bf565b6040518563ffffffff1660e01b81526004016113849493929190612af6565b60206040518083038186803b15801561139c57600080fd5b505afa1580156113b0573d6000803e3d6000fd5b505050506040513d601f19601f820116820180604052508101906113d491906125bf565b905080846113e29190612c24565b91508282101561142a5760186040517fede8a59900000000000000000000000000000000000000000000000000000000815260040161142191906129ba565b60405180910390fd5b600460008781526020019081526020016000207351B23a106B2c31C51A00A1288755946B64eBc7F76373f9ac649091866040518363ffffffff1660e01b8152600401611477929190612a37565b60006040518083038186803b15801561148f57600080fd5b505af41580156114a3573d6000803e3d6000fd5b50505050600460008781526020019081526020016000207351B23a106B2c31C51A00A1288755946B64eBc7F763c1fbc9439091836040518363ffffffff1660e01b81526004016114f4929190612a37565b60006040518083038186803b15801561150c57600080fd5b505af4158015611520573d6000803e3d6000fd5b50505050816001600088815260200190815260200160002060008773ffffffffffffffffffffffffffffffffffffffff1673ffffffffffffffffffffffffffffffffffffffff16815260200190815260200160002060008282546115849190612c24565b9250508190555050949350505050565b6000801b6115a9816115a4611e15565b611e1d565b600073ffffffffffffffffffffffffffffffffffffffff16600660009054906101000a900473ffffffffffffffffffffffffffffffffffffffff1673ffffffffffffffffffffffffffffffffffffffff161461163d5760156040517fede8a59900000000000000000000000000000000000000000000000000000000815260040161163491906129ba565b60405180910390fd5b81600660006101000a81548173ffffffffffffffffffffffffffffffffffffffff021916908373ffffffffffffffffffffffffffffffffffffffff1602179055508173ffffffffffffffffffffffffffffffffffffffff167f908408e307fc569b417f6cbec5d5a06f44a0a505ac0479b47d421a4b2fd6a1e660405160405180910390a25050565b6000600660009054906101000a900473ffffffffffffffffffffffffffffffffffffffff1673ffffffffffffffffffffffffffffffffffffffff163373ffffffffffffffffffffffffffffffffffffffff161461175a5760146040517fede8a59900000000000000000000000000000000000000000000000000000000815260040161175191906129ba565b60405180910390fd5b6117626123c6565b6000600460008a815260200190815260200160002090506000600554866117899190612d05565b905060008560ff168261179c9190612c7a565b9050827351B23a106B2c31C51A00A1288755946B64eBc7F76389426e7b90918d6040518363ffffffff1660e01b81526004016117d9929190612a37565b60006040518083038186803b1580156117f157600080fd5b505af4158015611805573d6000803e3d6000fd5b50505050827351B23a106B2c31C51A00A1288755946B64eBc7F7639d6957d490918b856040518463ffffffff1660e01b815260040161184693929190612a60565b60206040518083038186803b15801561185e57600080fd5b505af4158015611872573d6000803e3d6000fd5b505050506040513d601f19601f8201168201806040525081019061189691906125bf565b600560008282546118a79190612c24565b92505081905550600760009054906101000a900473ffffffffffffffffffffffffffffffffffffffff1673ffffffffffffffffffffffffffffffffffffffff16630ddc56318c4286600001548760010154866040518663ffffffff1660e01b8152600401611919959493929190612b3b565b60206040518083038186803b15801561193157600080fd5b505afa158015611945573d6000803e3d6000fd5b505050506040513d601f19601f8201168201806040525081019061196991906125bf565b84602001818152505061198984602001518a61207b90919063ffffffff16565b8460400181815250508360400151896119a29190612c24565b9450878511156119ea5760186040517fede8a5990000000000000000000000000000000000000000000000000000000081526004016119e191906129ba565b60405180910390fd5b600260008c815260200190815260200160002060008b73ffffffffffffffffffffffffffffffffffffffff1673ffffffffffffffffffffffffffffffffffffffff16815260200190815260200160002054846000018181525050600084600001511415611ab857600360008b73ffffffffffffffffffffffffffffffffffffffff1673ffffffffffffffffffffffffffffffffffffffff1681526020019081526020016000208b90806001815401808255809150506001900390600052602060002001600090919091909150555b827351B23a106B2c31C51A00A1288755946B64eBc7F763b80b8bc7909186604001516040518363ffffffff1660e01b8152600401611af7929190612a37565b60006040518083038186803b158015611b0f57600080fd5b505af4158015611b23573d6000803e3d6000fd5b50505050848460000151611b379190612c24565b600260008d815260200190815260200160002060008c73ffffffffffffffffffffffffffffffffffffffff1673ffffffffffffffffffffffffffffffffffffffff16815260200190815260200160002081905550505050509695505050505050565b611ba282610713565b611bb381611bae611e15565b611e1d565b611bbd8383611f9a565b505050565b600760009054906101000a900473ffffffffffffffffffffffffffffffffffffffff1681565b60055481565b60007f01ffc9a7000000000000000000000000000000000000000000000000000000007bffffffffffffffffffffffffffffffffffffffffffffffffffffffff1916827bffffffffffffffffffffffffffffffffffffffffffffffffffffffff1916149050919050565b60006002600083815260200190815260200160002060008473ffffffffffffffffffffffffffffffffffffffff1673ffffffffffffffffffffffffffffffffffffffff1681526020019081526020016000205490506000739Cb53e5c24Fa1d1cd68c19f5d6f9135E7600bdDb63883d070984426040518363ffffffff1660e01b8152600401611ce8929190612acd565b60206040518083038186803b158015611d0057600080fd5b505af4158015611d14573d6000803e3d6000fd5b505050506040513d601f19601f82011682018060405250810190611d3891906125bf565b90506000811115611e0e57611e00600760009054906101000a900473ffffffffffffffffffffffffffffffffffffffff1673ffffffffffffffffffffffffffffffffffffffff1663d6b7494f6040518163ffffffff1660e01b815260040160206040518083038186803b158015611dae57600080fd5b505afa158015611dc2573d6000803e3d6000fd5b505050506040513d601f19601f82011682018060405250810190611de691906125bf565b82611df19190612cab565b8361207b90919063ffffffff16565b82611e0b9190612c24565b91505b5092915050565b600033905090565b611e278282611091565b611eb657611e4c8173ffffffffffffffffffffffffffffffffffffffff1660146120a4565b611e5a8360001c60206120a4565b604051602001611e6b929190612914565b6040516020818303038152906040526040517f08c379a0000000000000000000000000000000000000000000000000000000008152600401611ead91906129d5565b60405180910390fd5b5050565b611ec48282611091565b611f9657600160008084815260200190815260200160002060000160008373ffffffffffffffffffffffffffffffffffffffff1673ffffffffffffffffffffffffffffffffffffffff16815260200190815260200160002060006101000a81548160ff021916908315150217905550611f3b611e15565b73ffffffffffffffffffffffffffffffffffffffff168173ffffffffffffffffffffffffffffffffffffffff16837f2f8788117e7eff1d82e926ec794901d17c78024a50270940304540a733656f0d60405160405180910390a45b5050565b611fa48282611091565b1561207757600080600084815260200190815260200160002060000160008373ffffffffffffffffffffffffffffffffffffffff1673ffffffffffffffffffffffffffffffffffffffff16815260200190815260200160002060006101000a81548160ff02191690831515021790555061201c611e15565b73ffffffffffffffffffffffffffffffffffffffff168173ffffffffffffffffffffffffffffffffffffffff16837ff6391f5c32d9c69d2a47ea670b442974b53935d1edc7fd64eb21e047a839171b60405160405180910390a45b5050565b6000670de0b6b3a764000082846120929190612cab565b61209c9190612c7a565b905092915050565b6060600060028360026120b79190612cab565b6120c19190612c24565b67ffffffffffffffff811115612100577f4e487b7100000000000000000000000000000000000000000000000000000000600052604160045260246000fd5b6040519080825280601f01601f1916602001820160405280156121325781602001600182028036833780820191505090505b5090507f300000000000000000000000000000000000000000000000000000000000000081600081518110612190577f4e487b7100000000000000000000000000000000000000000000000000000000600052603260045260246000fd5b60200101907effffffffffffffffffffffffffffffffffffffffffffffffffffffffffffff1916908160001a9053507f78000000000000000000000000000000000000000000000000000000000000008160018151811061221a577f4e487b7100000000000000000000000000000000000000000000000000000000600052603260045260246000fd5b60200101907effffffffffffffffffffffffffffffffffffffffffffffffffffffffffffff1916908160001a9053506000600184600261225a9190612cab565b6122649190612c24565b90505b6001811115612350577f3031323334353637383961626364656600000000000000000000000000000000600f8616601081106122cc577f4e487b7100000000000000000000000000000000000000000000000000000000600052603260045260246000fd5b1a60f81b828281518110612309577f4e487b7100000000000000000000000000000000000000000000000000000000600052603260045260246000fd5b60200101907effffffffffffffffffffffffffffffffffffffffffffffffffffffffffffff1916908160001a905350600485901c94508061234990612e40565b9050612267565b5060008414612394576040517f08c379a000000000000000000000000000000000000000000000000000000000815260040161238b906129f7565b60405180910390fd5b8091505092915050565b6040518060800160405280600081526020016000815260200160008152602001600081525090565b60405180606001604052806000815260200160008152602001600081525090565b6000813590506123f68161302f565b92915050565b60008151905061240b81613046565b92915050565b6000813590506124208161305d565b92915050565b60008135905061243581613074565b92915050565b60008135905061244a8161308b565b92915050565b60008151905061245f8161308b565b92915050565b600081359050612474816130a2565b92915050565b60006020828403121561248c57600080fd5b600061249a848285016123e7565b91505092915050565b600080604083850312156124b657600080fd5b60006124c4858286016123e7565b92505060206124d58582860161243b565b9150509250929050565b6000602082840312156124f157600080fd5b60006124ff848285016123fc565b91505092915050565b60006020828403121561251a57600080fd5b600061252884828501612411565b91505092915050565b6000806040838503121561254457600080fd5b600061255285828601612411565b9250506020612563858286016123e7565b9150509250929050565b60006020828403121561257f57600080fd5b600061258d84828501612426565b91505092915050565b6000602082840312156125a857600080fd5b60006125b68482850161243b565b91505092915050565b6000602082840312156125d157600080fd5b60006125df84828501612450565b91505092915050565b600080604083850312156125fb57600080fd5b60006126098582860161243b565b925050602061261a858286016123e7565b9150509250929050565b60008060006060848603121561263957600080fd5b60006126478682870161243b565b9350506020612658868287016123e7565b92505060406126698682870161243b565b9150509250925092565b6000806000806080858703121561268957600080fd5b60006126978782880161243b565b94505060206126a8878288016123e7565b93505060406126b98782880161243b565b92505060606126ca8782880161243b565b91505092959194509250565b60008060008060008060c087890312156126ef57600080fd5b60006126fd89828a0161243b565b965050602061270e89828a016123e7565b955050604061271f89828a0161243b565b945050606061273089828a0161243b565b935050608061274189828a0161243b565b92505060a061275289828a01612465565b9150509295509295509295565b60008060006060848603121561277457600080fd5b600061278286828701612450565b935050602061279386828701612450565b92505060406127a486828701612450565b9150509250925092565b6127b781612d39565b82525050565b6127c681612d4b565b82525050565b6127d581612d57565b82525050565b6127e481612dd7565b82525050565b6127f381612dfb565b82525050565b600061280482612bfd565b61280e8185612c08565b935061281e818560208601612e0d565b61282781612f40565b840191505092915050565b600061283d82612bfd565b6128478185612c19565b9350612857818560208601612e0d565b80840191505092915050565b6000612870602083612c08565b915061287b82612f51565b602082019050919050565b6000612893601783612c19565b915061289e82612f7a565b601782019050919050565b60006128b6601183612c19565b91506128c182612fa3565b601182019050919050565b60006128d9602f83612c08565b91506128e482612fcc565b604082019050919050565b8082525050565b6128ff81612dc0565b82525050565b61290e81612dc0565b82525050565b600061291f82612886565b915061292b8285612832565b9150612936826128a9565b91506129428284612832565b91508190509392505050565b600060208201905061296360008301846127ae565b92915050565b600060208201905061297e60008301846127bd565b92915050565b600060208201905061299960008301846127cc565b92915050565b60006020820190506129b460008301846127db565b92915050565b60006020820190506129cf60008301846127ea565b92915050565b600060208201905081810360008301526129ef81846127f9565b905092915050565b60006020820190508181036000830152612a1081612863565b9050919050565b60006020820190508181036000830152612a30816128cc565b9050919050565b6000604082019050612a4c60008301856128ef565b612a596020830184612905565b9392505050565b6000606082019050612a7560008301866128ef565b612a826020830185612905565b612a8f6040830184612905565b949350505050565b6000602082019050612aac6000830184612905565b92915050565b6000602082019050612ac760008301846128f6565b92915050565b6000604082019050612ae26000830185612905565b612aef6020830184612905565b9392505050565b6000608082019050612b0b60008301876128f6565b612b1860208301866128f6565b612b2560408301856128f6565b612b3260608301846128f6565b95945050505050565b600060a082019050612b5060008301886128f6565b612b5d60208301876128f6565b612b6a60408301866128f6565b612b7760608301856128f6565b612b8460808301846128f6565b9695505050505050565b600060e082019050612ba3600083018a6128f6565b612bb060208301896128f6565b612bbd60408301886128f6565b612bca60608301876128f6565b612bd760808301866128f6565b612be460a08301856128f6565b612bf160c08301846128f6565b98975050505050505050565b600081519050919050565b600082825260208201905092915050565b600081905092915050565b6000612c2f82612dc0565b9150612c3a83612dc0565b9250827fffffffffffffffffffffffffffffffffffffffffffffffffffffffffffffffff03821115612c6f57612c6e612eb3565b5b828201905092915050565b6000612c8582612dc0565b9150612c9083612dc0565b925082612ca057612c9f612ee2565b5b828204905092915050565b6000612cb682612dc0565b9150612cc183612dc0565b9250817fffffffffffffffffffffffffffffffffffffffffffffffffffffffffffffffff0483118215151615612cfa57612cf9612eb3565b5b828202905092915050565b6000612d1082612dc0565b9150612d1b83612dc0565b925082821015612d2e57612d2d612eb3565b5b828203905092915050565b6000612d4482612da0565b9050919050565b60008115159050919050565b6000819050919050565b60007fffffffff0000000000000000000000000000000000000000000000000000000082169050919050565b6000819050612d9b8261301b565b919050565b600073ffffffffffffffffffffffffffffffffffffffff82169050919050565b6000819050919050565b600060ff82169050919050565b6000612de282612de9565b9050919050565b6000612df482612da0565b9050919050565b6000612e0682612d8d565b9050919050565b60005b83811015612e2b578082015181840152602081019050612e10565b83811115612e3a576000848401525b50505050565b6000612e4b82612dc0565b91506000821415612e5f57612e5e612eb3565b5b600182039050919050565b6000612e7582612dc0565b91507fffffffffffffffffffffffffffffffffffffffffffffffffffffffffffffffff821415612ea857612ea7612eb3565b5b600182019050919050565b7f4e487b7100000000000000000000000000000000000000000000000000000000600052601160045260246000fd5b7f4e487b7100000000000000000000000000000000000000000000000000000000600052601260045260246000fd5b7f4e487b7100000000000000000000000000000000000000000000000000000000600052602160045260246000fd5b6000601f19601f8301169050919050565b7f537472696e67733a20686578206c656e67746820696e73756666696369656e74600082015250565b7f416363657373436f6e74726f6c3a206163636f756e7420000000000000000000600082015250565b7f206973206d697373696e6720726f6c6520000000000000000000000000000000600082015250565b7f416363657373436f6e74726f6c3a2063616e206f6e6c792072656e6f756e636560008201527f20726f6c657320666f722073656c660000000000000000000000000000000000602082015250565b601c811061302c5761302b612f11565b5b50565b61303881612d39565b811461304357600080fd5b50565b61304f81612d4b565b811461305a57600080fd5b50565b61306681612d57565b811461307157600080fd5b50565b61307d81612d61565b811461308857600080fd5b50565b61309481612dc0565b811461309f57600080fd5b50565b6130ab81612dca565b81146130b657600080fd5b5056fea264697066735822122090fa1e5febc226c58443efa7c3589cf2b39dc8186b32e7e184b29dfab23f025b64736f6c63430008040033",
  "deployedBytecode": "0x608060405234801561001057600080fd5b50600436106101375760003560e01c806375e1d781116100b8578063bd9c2ecb1161007c578063bd9c2ecb146103b5578063c4d66de8146103e5578063cb0b8a5514610401578063d547741f14610431578063f3fdb15a1461044d578063fd8ecd171461046b57610137565b806375e1d781146102d1578063821993ec1461030157806391d1485414610331578063a217fddf14610361578063a29cb7e11461037f57610137565b80632ee436a1116100ff5780632ee436a11461021a5780632f2ff15d1461023657806336568abe1461025257806345227d5f1461026e57806372cd230b1461029e57610137565b806301ffc9a71461013c5780631b0a67fe1461016c57806320c127501461019c578063248a9ca3146101ba5780632b5dcfe2146101ea575b600080fd5b6101566004803603810190610151919061256d565b610489565b6040516101639190612969565b60405180910390f35b610186600480360381019061018191906124a3565b610503565b6040516101939190612ab2565b60405180910390f35b6101a46106ed565b6040516101b1919061294e565b60405180910390f35b6101d460048036038101906101cf9190612508565b610713565b6040516101e19190612984565b60405180910390f35b61020460048036038101906101ff91906124a3565b610732565b6040516102119190612ab2565b60405180910390f35b610234600480360381019061022f9190612673565b610763565b005b610250600480360381019061024b9190612531565b61091a565b005b61026c60048036038101906102679190612531565b610943565b005b610288600480360381019061028391906125e8565b6109c6565b6040516102959190612ab2565b60405180910390f35b6102b860048036038101906102b39190612624565b6109eb565b6040516102c89493929190612af6565b60405180910390f35b6102eb60048036038101906102e69190612596565b610f83565b6040516102f89190612ab2565b60405180910390f35b61031b600480360381019061031691906125e8565b61106c565b6040516103289190612ab2565b60405180910390f35b61034b60048036038101906103469190612531565b611091565b6040516103589190612969565b60405180910390f35b6103696110fb565b6040516103769190612984565b60405180910390f35b61039960048036038101906103949190612596565b611102565b6040516103ac9796959493929190612b8e565b60405180910390f35b6103cf60048036038101906103ca9190612673565b611144565b6040516103dc9190612ab2565b60405180910390f35b6103ff60048036038101906103fa919061247a565b611594565b005b61041b600480360381019061041691906126d6565b6116c5565b6040516104289190612ab2565b60405180910390f35b61044b60048036038101906104469190612531565b611b99565b005b610455611bc2565b604051610462919061299f565b60405180910390f35b610473611be8565b6040516104809190612ab2565b60405180910390f35b60007f7965db0b000000000000000000000000000000000000000000000000000000007bffffffffffffffffffffffffffffffffffffffffffffffffffffffff1916827bffffffffffffffffffffffffffffffffffffffffffffffffffffffff191614806104fc57506104fb82611bee565b5b9050919050565b600080821415610611576000600360008573ffffffffffffffffffffffffffffffffffffffff1673ffffffffffffffffffffffffffffffffffffffff16815260200190815260200160002080549050905060005b8181101561060a576105ea85600360008873ffffffffffffffffffffffffffffffffffffffff1673ffffffffffffffffffffffffffffffffffffffff16815260200190815260200160002083815481106105da577f4e487b7100000000000000000000000000000000000000000000000000000000600052603260045260246000fd5b9060005260206000200154611c58565b836105f59190612c24565b9250808061060290612e6a565b915050610557565b50506106e7565b73__$90f1fa1b3f91137ac60e95891d324fdd69$__63b142980a836040518263ffffffff1660e01b81526004016106489190612a97565b60206040518083038186803b15801561066057600080fd5b505af4158015610674573d6000803e3d6000fd5b505050506040513d601f19601f8201168201806040525081019061069891906124df565b6106da57600c6040517fede8a5990000000000000000000000000000000000000000000000000000000081526004016106d191906129ba565b60405180910390fd5b6106e48383611c58565b90505b92915050565b600660009054906101000a900473ffffffffffffffffffffffffffffffffffffffff1681565b6000806000838152602001908152602001600020600101549050919050565b6003602052816000526040600020818154811061074e57600080fd5b90600052602060002001600091509150505481565b600660009054906101000a900473ffffffffffffffffffffffffffffffffffffffff1673ffffffffffffffffffffffffffffffffffffffff163373ffffffffffffffffffffffffffffffffffffffff16146107f65760146040517fede8a5990000000000000000000000000000000000000000000000000000000081526004016107ed91906129ba565b60405180910390fd5b6004600085815260200190815260200160002073__$4a8997ee43d564d985c8121d54fa5739ee$__639d6957d4909184846040518463ffffffff1660e01b815260040161084593929190612a60565b60206040518083038186803b15801561085d57600080fd5b505af4158015610871573d6000803e3d6000fd5b505050506040513d601f19601f8201168201806040525081019061089591906125bf565b600560008282546108a69190612c24565b92505081905550816001600086815260200190815260200160002060008573ffffffffffffffffffffffffffffffffffffffff1673ffffffffffffffffffffffffffffffffffffffff168152602001908152602001600020600082825461090d9190612d05565b9250508190555050505050565b61092382610713565b6109348161092f611e15565b611e1d565b61093e8383611eba565b505050565b61094b611e15565b73ffffffffffffffffffffffffffffffffffffffff168173ffffffffffffffffffffffffffffffffffffffff16146109b8576040517f08c379a00000000000000000000000000000000000000000000000000000000081526004016109af90612a17565b60405180910390fd5b6109c28282611f9a565b5050565b6001602052816000526040600020602052806000526040600020600091509150505481565b600080600080600660009054906101000a900473ffffffffffffffffffffffffffffffffffffffff1673ffffffffffffffffffffffffffffffffffffffff163373ffffffffffffffffffffffffffffffffffffffff1614610a845760146040517fede8a599000000000000000000000000000000000000000000000000000000008152600401610a7b91906129ba565b60405180910390fd5b610a8c61239e565b610a968789610503565b8160000181815250508060000151861115610ac557806000015186610abb9190612d05565b9450806000015195505b6002600089815260200190815260200160002060008873ffffffffffffffffffffffffffffffffffffffff1673ffffffffffffffffffffffffffffffffffffffff168152602001908152602001600020548160200181815250508060000151816020015187610b349190612cab565b610b3e9190612c7a565b9350838160200151610b509190612d05565b816040018181525050600081604001511415610dd8576000600360008973ffffffffffffffffffffffffffffffffffffffff1673ffffffffffffffffffffffffffffffffffffffff168152602001908152602001600020805480602002602001604051908101604052809291908181526020018280548015610bf157602002820191906000526020600020905b815481526020019060010190808311610bdd575b50505050509050600081519050600081905060005b82811015610c71578b848281518110610c48577f4e487b7100000000000000000000000000000000000000000000000000000000600052603260045260246000fd5b60200260200101511415610c5e57809150610c71565b8080610c6990612e6a565b915050610c06565b50818110610ca8577f4e487b7100000000000000000000000000000000000000000000000000000000600052600160045260246000fd5b6000600360008c73ffffffffffffffffffffffffffffffffffffffff1673ffffffffffffffffffffffffffffffffffffffff16815260200190815260200160002090508060018280549050610cfd9190612d05565b81548110610d34577f4e487b7100000000000000000000000000000000000000000000000000000000600052603260045260246000fd5b9060005260206000200154818381548110610d78577f4e487b7100000000000000000000000000000000000000000000000000000000600052603260045260246000fd5b906000526020600020018190555080805480610dbd577f4e487b7100000000000000000000000000000000000000000000000000000000600052603160045260246000fd5b60019003818190600052602060002001600090559055505050505b8060400151600260008a815260200190815260200160002060008973ffffffffffffffffffffffffffffffffffffffff1673ffffffffffffffffffffffffffffffffffffffff168152602001908152602001600020819055506004600089815260200190815260200160002073__$4a8997ee43d564d985c8121d54fa5739ee$__6389426e7b90918a6040518363ffffffff1660e01b8152600401610e7e929190612a37565b60006040518083038186803b158015610e9657600080fd5b505af4158015610eaa573d6000803e3d6000fd5b505050506004600089815260200190815260200160002073__$4a8997ee43d564d985c8121d54fa5739ee$__6310f9fd2a9091886040518363ffffffff1660e01b8152600401610efb929190612a37565b60606040518083038186803b158015610f1357600080fd5b505af4158015610f27573d6000803e3d6000fd5b505050506040513d601f19601f82011682018060405250810190610f4b919061275f565b8360600181955082965083815250505050806060015160056000828254610f729190612d05565b925050819055505093509350935093565b600073__$90f1fa1b3f91137ac60e95891d324fdd69$__63b142980a836040518263ffffffff1660e01b8152600401610fbc9190612a97565b60206040518083038186803b158015610fd457600080fd5b505af4158015610fe8573d6000803e3d6000fd5b505050506040513d601f19601f8201168201806040525081019061100c91906124df565b61104e57600c6040517fede8a59900000000000000000000000000000000000000000000000000000000815260040161104591906129ba565b60405180910390fd5b60046000838152602001908152602001600020600001549050919050565b6002602052816000526040600020602052806000526040600020600091509150505481565b600080600084815260200190815260200160002060000160008373ffffffffffffffffffffffffffffffffffffffff1673ffffffffffffffffffffffffffffffffffffffff16815260200190815260200160002060009054906101000a900460ff16905092915050565b6000801b81565b60046020528060005260406000206000915090508060000154908060010154908060020154908060030154908060040154908060050154908060060154905087565b6000600660009054906101000a900473ffffffffffffffffffffffffffffffffffffffff1673ffffffffffffffffffffffffffffffffffffffff163373ffffffffffffffffffffffffffffffffffffffff16146111d95760146040517fede8a5990000000000000000000000000000000000000000000000000000000081526004016111d091906129ba565b60405180910390fd5b6004600086815260200190815260200160002073__$4a8997ee43d564d985c8121d54fa5739ee$__6389426e7b9091876040518363ffffffff1660e01b8152600401611226929190612a37565b60006040518083038186803b15801561123e57600080fd5b505af4158015611252573d6000803e3d6000fd5b505050506000600760009054906101000a900473ffffffffffffffffffffffffffffffffffffffff1673ffffffffffffffffffffffffffffffffffffffff1663a4cf7ac56004600089815260200190815260200160002060020154600460008a81526020019081526020016000206003015487600660009054906101000a900473ffffffffffffffffffffffffffffffffffffffff1673ffffffffffffffffffffffffffffffffffffffff16631ea8946d6040518163ffffffff1660e01b815260040160206040518083038186803b15801561132d57600080fd5b505afa158015611341573d6000803e3d6000fd5b505050506040513d601f19601f8201168201806040525081019061136591906125bf565b6040518563ffffffff1660e01b81526004016113849493929190612af6565b60206040518083038186803b15801561139c57600080fd5b505afa1580156113b0573d6000803e3d6000fd5b505050506040513d601f19601f820116820180604052508101906113d491906125bf565b905080846113e29190612c24565b91508282101561142a5760186040517fede8a59900000000000000000000000000000000000000000000000000000000815260040161142191906129ba565b60405180910390fd5b6004600087815260200190815260200160002073__$4a8997ee43d564d985c8121d54fa5739ee$__6373f9ac649091866040518363ffffffff1660e01b8152600401611477929190612a37565b60006040518083038186803b15801561148f57600080fd5b505af41580156114a3573d6000803e3d6000fd5b505050506004600087815260200190815260200160002073__$4a8997ee43d564d985c8121d54fa5739ee$__63c1fbc9439091836040518363ffffffff1660e01b81526004016114f4929190612a37565b60006040518083038186803b15801561150c57600080fd5b505af4158015611520573d6000803e3d6000fd5b50505050816001600088815260200190815260200160002060008773ffffffffffffffffffffffffffffffffffffffff1673ffffffffffffffffffffffffffffffffffffffff16815260200190815260200160002060008282546115849190612c24565b9250508190555050949350505050565b6000801b6115a9816115a4611e15565b611e1d565b600073ffffffffffffffffffffffffffffffffffffffff16600660009054906101000a900473ffffffffffffffffffffffffffffffffffffffff1673ffffffffffffffffffffffffffffffffffffffff161461163d5760156040517fede8a59900000000000000000000000000000000000000000000000000000000815260040161163491906129ba565b60405180910390fd5b81600660006101000a81548173ffffffffffffffffffffffffffffffffffffffff021916908373ffffffffffffffffffffffffffffffffffffffff1602179055508173ffffffffffffffffffffffffffffffffffffffff167f908408e307fc569b417f6cbec5d5a06f44a0a505ac0479b47d421a4b2fd6a1e660405160405180910390a25050565b6000600660009054906101000a900473ffffffffffffffffffffffffffffffffffffffff1673ffffffffffffffffffffffffffffffffffffffff163373ffffffffffffffffffffffffffffffffffffffff161461175a5760146040517fede8a59900000000000000000000000000000000000000000000000000000000815260040161175191906129ba565b60405180910390fd5b6117626123c6565b6000600460008a815260200190815260200160002090506000600554866117899190612d05565b905060008560ff168261179c9190612c7a565b90508273__$4a8997ee43d564d985c8121d54fa5739ee$__6389426e7b90918d6040518363ffffffff1660e01b81526004016117d9929190612a37565b60006040518083038186803b1580156117f157600080fd5b505af4158015611805573d6000803e3d6000fd5b505050508273__$4a8997ee43d564d985c8121d54fa5739ee$__639d6957d490918b856040518463ffffffff1660e01b815260040161184693929190612a60565b60206040518083038186803b15801561185e57600080fd5b505af4158015611872573d6000803e3d6000fd5b505050506040513d601f19601f8201168201806040525081019061189691906125bf565b600560008282546118a79190612c24565b92505081905550600760009054906101000a900473ffffffffffffffffffffffffffffffffffffffff1673ffffffffffffffffffffffffffffffffffffffff16630ddc56318c4286600001548760010154866040518663ffffffff1660e01b8152600401611919959493929190612b3b565b60206040518083038186803b15801561193157600080fd5b505afa158015611945573d6000803e3d6000fd5b505050506040513d601f19601f8201168201806040525081019061196991906125bf565b84602001818152505061198984602001518a61207b90919063ffffffff16565b8460400181815250508360400151896119a29190612c24565b9450878511156119ea5760186040517fede8a5990000000000000000000000000000000000000000000000000000000081526004016119e191906129ba565b60405180910390fd5b600260008c815260200190815260200160002060008b73ffffffffffffffffffffffffffffffffffffffff1673ffffffffffffffffffffffffffffffffffffffff16815260200190815260200160002054846000018181525050600084600001511415611ab857600360008b73ffffffffffffffffffffffffffffffffffffffff1673ffffffffffffffffffffffffffffffffffffffff1681526020019081526020016000208b90806001815401808255809150506001900390600052602060002001600090919091909150555b8273__$4a8997ee43d564d985c8121d54fa5739ee$__63b80b8bc7909186604001516040518363ffffffff1660e01b8152600401611af7929190612a37565b60006040518083038186803b158015611b0f57600080fd5b505af4158015611b23573d6000803e3d6000fd5b50505050848460000151611b379190612c24565b600260008d815260200190815260200160002060008c73ffffffffffffffffffffffffffffffffffffffff1673ffffffffffffffffffffffffffffffffffffffff16815260200190815260200160002081905550505050509695505050505050565b611ba282610713565b611bb381611bae611e15565b611e1d565b611bbd8383611f9a565b505050565b600760009054906101000a900473ffffffffffffffffffffffffffffffffffffffff1681565b60055481565b60007f01ffc9a7000000000000000000000000000000000000000000000000000000007bffffffffffffffffffffffffffffffffffffffffffffffffffffffff1916827bffffffffffffffffffffffffffffffffffffffffffffffffffffffff1916149050919050565b60006002600083815260200190815260200160002060008473ffffffffffffffffffffffffffffffffffffffff1673ffffffffffffffffffffffffffffffffffffffff168152602001908152602001600020549050600073__$90f1fa1b3f91137ac60e95891d324fdd69$__63883d070984426040518363ffffffff1660e01b8152600401611ce8929190612acd565b60206040518083038186803b158015611d0057600080fd5b505af4158015611d14573d6000803e3d6000fd5b505050506040513d601f19601f82011682018060405250810190611d3891906125bf565b90506000811115611e0e57611e00600760009054906101000a900473ffffffffffffffffffffffffffffffffffffffff1673ffffffffffffffffffffffffffffffffffffffff1663d6b7494f6040518163ffffffff1660e01b815260040160206040518083038186803b158015611dae57600080fd5b505afa158015611dc2573d6000803e3d6000fd5b505050506040513d601f19601f82011682018060405250810190611de691906125bf565b82611df19190612cab565b8361207b90919063ffffffff16565b82611e0b9190612c24565b91505b5092915050565b600033905090565b611e278282611091565b611eb657611e4c8173ffffffffffffffffffffffffffffffffffffffff1660146120a4565b611e5a8360001c60206120a4565b604051602001611e6b929190612914565b6040516020818303038152906040526040517f08c379a0000000000000000000000000000000000000000000000000000000008152600401611ead91906129d5565b60405180910390fd5b5050565b611ec48282611091565b611f9657600160008084815260200190815260200160002060000160008373ffffffffffffffffffffffffffffffffffffffff1673ffffffffffffffffffffffffffffffffffffffff16815260200190815260200160002060006101000a81548160ff021916908315150217905550611f3b611e15565b73ffffffffffffffffffffffffffffffffffffffff168173ffffffffffffffffffffffffffffffffffffffff16837f2f8788117e7eff1d82e926ec794901d17c78024a50270940304540a733656f0d60405160405180910390a45b5050565b611fa48282611091565b1561207757600080600084815260200190815260200160002060000160008373ffffffffffffffffffffffffffffffffffffffff1673ffffffffffffffffffffffffffffffffffffffff16815260200190815260200160002060006101000a81548160ff02191690831515021790555061201c611e15565b73ffffffffffffffffffffffffffffffffffffffff168173ffffffffffffffffffffffffffffffffffffffff16837ff6391f5c32d9c69d2a47ea670b442974b53935d1edc7fd64eb21e047a839171b60405160405180910390a45b5050565b6000670de0b6b3a764000082846120929190612cab565b61209c9190612c7a565b905092915050565b6060600060028360026120b79190612cab565b6120c19190612c24565b67ffffffffffffffff811115612100577f4e487b7100000000000000000000000000000000000000000000000000000000600052604160045260246000fd5b6040519080825280601f01601f1916602001820160405280156121325781602001600182028036833780820191505090505b5090507f300000000000000000000000000000000000000000000000000000000000000081600081518110612190577f4e487b7100000000000000000000000000000000000000000000000000000000600052603260045260246000fd5b60200101907effffffffffffffffffffffffffffffffffffffffffffffffffffffffffffff1916908160001a9053507f78000000000000000000000000000000000000000000000000000000000000008160018151811061221a577f4e487b7100000000000000000000000000000000000000000000000000000000600052603260045260246000fd5b60200101907effffffffffffffffffffffffffffffffffffffffffffffffffffffffffffff1916908160001a9053506000600184600261225a9190612cab565b6122649190612c24565b90505b6001811115612350577f3031323334353637383961626364656600000000000000000000000000000000600f8616601081106122cc577f4e487b7100000000000000000000000000000000000000000000000000000000600052603260045260246000fd5b1a60f81b828281518110612309577f4e487b7100000000000000000000000000000000000000000000000000000000600052603260045260246000fd5b60200101907effffffffffffffffffffffffffffffffffffffffffffffffffffffffffffff1916908160001a905350600485901c94508061234990612e40565b9050612267565b5060008414612394576040517f08c379a000000000000000000000000000000000000000000000000000000000815260040161238b906129f7565b60405180910390fd5b8091505092915050565b6040518060800160405280600081526020016000815260200160008152602001600081525090565b60405180606001604052806000815260200160008152602001600081525090565b6000813590506123f68161302f565b92915050565b60008151905061240b81613046565b92915050565b6000813590506124208161305d565b92915050565b60008135905061243581613074565b92915050565b60008135905061244a8161308b565b92915050565b60008151905061245f8161308b565b92915050565b600081359050612474816130a2565b92915050565b60006020828403121561248c57600080fd5b600061249a848285016123e7565b91505092915050565b600080604083850312156124b657600080fd5b60006124c4858286016123e7565b92505060206124d58582860161243b565b9150509250929050565b6000602082840312156124f157600080fd5b60006124ff848285016123fc565b91505092915050565b60006020828403121561251a57600080fd5b600061252884828501612411565b91505092915050565b6000806040838503121561254457600080fd5b600061255285828601612411565b9250506020612563858286016123e7565b9150509250929050565b60006020828403121561257f57600080fd5b600061258d84828501612426565b91505092915050565b6000602082840312156125a857600080fd5b60006125b68482850161243b565b91505092915050565b6000602082840312156125d157600080fd5b60006125df84828501612450565b91505092915050565b600080604083850312156125fb57600080fd5b60006126098582860161243b565b925050602061261a858286016123e7565b9150509250929050565b60008060006060848603121561263957600080fd5b60006126478682870161243b565b9350506020612658868287016123e7565b92505060406126698682870161243b565b9150509250925092565b6000806000806080858703121561268957600080fd5b60006126978782880161243b565b94505060206126a8878288016123e7565b93505060406126b98782880161243b565b92505060606126ca8782880161243b565b91505092959194509250565b60008060008060008060c087890312156126ef57600080fd5b60006126fd89828a0161243b565b965050602061270e89828a016123e7565b955050604061271f89828a0161243b565b945050606061273089828a0161243b565b935050608061274189828a0161243b565b92505060a061275289828a01612465565b9150509295509295509295565b60008060006060848603121561277457600080fd5b600061278286828701612450565b935050602061279386828701612450565b92505060406127a486828701612450565b9150509250925092565b6127b781612d39565b82525050565b6127c681612d4b565b82525050565b6127d581612d57565b82525050565b6127e481612dd7565b82525050565b6127f381612dfb565b82525050565b600061280482612bfd565b61280e8185612c08565b935061281e818560208601612e0d565b61282781612f40565b840191505092915050565b600061283d82612bfd565b6128478185612c19565b9350612857818560208601612e0d565b80840191505092915050565b6000612870602083612c08565b915061287b82612f51565b602082019050919050565b6000612893601783612c19565b915061289e82612f7a565b601782019050919050565b60006128b6601183612c19565b91506128c182612fa3565b601182019050919050565b60006128d9602f83612c08565b91506128e482612fcc565b604082019050919050565b8082525050565b6128ff81612dc0565b82525050565b61290e81612dc0565b82525050565b600061291f82612886565b915061292b8285612832565b9150612936826128a9565b91506129428284612832565b91508190509392505050565b600060208201905061296360008301846127ae565b92915050565b600060208201905061297e60008301846127bd565b92915050565b600060208201905061299960008301846127cc565b92915050565b60006020820190506129b460008301846127db565b92915050565b60006020820190506129cf60008301846127ea565b92915050565b600060208201905081810360008301526129ef81846127f9565b905092915050565b60006020820190508181036000830152612a1081612863565b9050919050565b60006020820190508181036000830152612a30816128cc565b9050919050565b6000604082019050612a4c60008301856128ef565b612a596020830184612905565b9392505050565b6000606082019050612a7560008301866128ef565b612a826020830185612905565b612a8f6040830184612905565b949350505050565b6000602082019050612aac6000830184612905565b92915050565b6000602082019050612ac760008301846128f6565b92915050565b6000604082019050612ae26000830185612905565b612aef6020830184612905565b9392505050565b6000608082019050612b0b60008301876128f6565b612b1860208301866128f6565b612b2560408301856128f6565b612b3260608301846128f6565b95945050505050565b600060a082019050612b5060008301886128f6565b612b5d60208301876128f6565b612b6a60408301866128f6565b612b7760608301856128f6565b612b8460808301846128f6565b9695505050505050565b600060e082019050612ba3600083018a6128f6565b612bb060208301896128f6565b612bbd60408301886128f6565b612bca60608301876128f6565b612bd760808301866128f6565b612be460a08301856128f6565b612bf160c08301846128f6565b98975050505050505050565b600081519050919050565b600082825260208201905092915050565b600081905092915050565b6000612c2f82612dc0565b9150612c3a83612dc0565b9250827fffffffffffffffffffffffffffffffffffffffffffffffffffffffffffffffff03821115612c6f57612c6e612eb3565b5b828201905092915050565b6000612c8582612dc0565b9150612c9083612dc0565b925082612ca057612c9f612ee2565b5b828204905092915050565b6000612cb682612dc0565b9150612cc183612dc0565b9250817fffffffffffffffffffffffffffffffffffffffffffffffffffffffffffffffff0483118215151615612cfa57612cf9612eb3565b5b828202905092915050565b6000612d1082612dc0565b9150612d1b83612dc0565b925082821015612d2e57612d2d612eb3565b5b828203905092915050565b6000612d4482612da0565b9050919050565b60008115159050919050565b6000819050919050565b60007fffffffff0000000000000000000000000000000000000000000000000000000082169050919050565b6000819050612d9b8261301b565b919050565b600073ffffffffffffffffffffffffffffffffffffffff82169050919050565b6000819050919050565b600060ff82169050919050565b6000612de282612de9565b9050919050565b6000612df482612da0565b9050919050565b6000612e0682612d8d565b9050919050565b60005b83811015612e2b578082015181840152602081019050612e10565b83811115612e3a576000848401525b50505050565b6000612e4b82612dc0565b91506000821415612e5f57612e5e612eb3565b5b600182039050919050565b6000612e7582612dc0565b91507fffffffffffffffffffffffffffffffffffffffffffffffffffffffffffffffff821415612ea857612ea7612eb3565b5b600182019050919050565b7f4e487b7100000000000000000000000000000000000000000000000000000000600052601160045260246000fd5b7f4e487b7100000000000000000000000000000000000000000000000000000000600052601260045260246000fd5b7f4e487b7100000000000000000000000000000000000000000000000000000000600052602160045260246000fd5b6000601f19601f8301169050919050565b7f537472696e67733a20686578206c656e67746820696e73756666696369656e74600082015250565b7f416363657373436f6e74726f6c3a206163636f756e7420000000000000000000600082015250565b7f206973206d697373696e6720726f6c6520000000000000000000000000000000600082015250565b7f416363657373436f6e74726f6c3a2063616e206f6e6c792072656e6f756e636560008201527f20726f6c657320666f722073656c660000000000000000000000000000000000602082015250565b601c811061302c5761302b612f11565b5b50565b61303881612d39565b811461304357600080fd5b50565b61304f81612d4b565b811461305a57600080fd5b50565b61306681612d57565b811461307157600080fd5b50565b61307d81612d61565b811461308857600080fd5b50565b61309481612dc0565b811461309f57600080fd5b50565b6130ab81612dca565b81146130b657600080fd5b5056fea264697066735822122090fa1e5febc226c58443efa7c3589cf2b39dc8186b32e7e184b29dfab23f025b64736f6c63430008040033",
  "libraries": {
    "TSUtils": "0x9Cb53e5c24Fa1d1cd68c19f5d6f9135E7600bdDb",
    "PoolLib": "0x51B23a106B2c31C51A00A1288755946B64eBc7F7"
  },
  "devdoc": {
    "kind": "dev",
    "methods": {
      "borrowMP(uint256,address,uint256,uint256,uint256,uint8)": {
        "details": "Function to account for borrowing money from a maturity pool (MP).      It doesn't check liquidity for the borrower, so the `fixedLender`      should call `validateBorrowMP` immediately after calling this function.",
        "params": {
          "amount": "amount that the borrower will be borrowing",
          "borrower": "borrower that it will take the debt",
          "eTokenTotalSupply": "supply of the smart pool",
          "maturityDate": "maturity date / pool id where the asset will be borrowed",
          "maxAmountAllowed": "maximum amount that the borrower is willing to pay        at maturity",
          "maxFuturePools": "# of enabled maturities"
        },
        "returns": {
          "totalOwedNewBorrow": ": total amount that will need to be paid at maturity for this borrow"
        }
      },
      "depositMP(uint256,address,uint256,uint256)": {
        "details": "Function to account for a deposit to a maturity pool (MP). It doesn't transfer or",
        "params": {
          "amount": "amount that the supplier will be depositing",
          "maturityDate": "maturity date / pool id where the asset will be deposited",
          "minAmountRequired": "minimum amount that the borrower is expecting to receive at        maturity",
          "supplier": "address that will be depositing the assets"
        },
        "returns": {
          "currentTotalDeposit": ": the amount that should be collected at maturity for this deposit"
        }
      },
      "getAccountBorrows(address,uint256)": {
        "details": "Gets all borrows for a wallet in certain maturity (or ALL_MATURITIES)",
        "params": {
          "maturityDate": "maturityDate where the borrow is taking place. - Send the value 0 in order to get the snapshot for all maturities where the user borrowed",
          "who": "wallet to return status snapshot in the specified maturity date"
        },
        "returns": {
          "debt": "the amount the user deposited to the smart pool and the total money he owes from maturities"
        }
      },
      "getRoleAdmin(bytes32)": {
        "details": "Returns the admin role that controls `role`. See {grantRole} and {revokeRole}. To change a role's admin, use {_setRoleAdmin}."
      },
      "getTotalMpBorrows(uint256)": {
        "details": "Gets the total amount of borrowed money for a maturityDate",
        "params": {
          "maturityDate": "maturity date"
        }
      },
      "grantRole(bytes32,address)": {
        "details": "Grants `role` to `account`. If `account` had not been already granted `role`, emits a {RoleGranted} event. Requirements: - the caller must have ``role``'s admin role."
      },
      "hasRole(bytes32,address)": {
        "details": "Returns `true` if `account` has been granted `role`."
      },
      "initialize(address)": {
        "details": "Initializes the PoolAccounting setting the FixedLender address - Only able to initialize once",
        "params": {
          "_fixedLenderAddress": "The address of the FixedLender that uses this PoolAccounting"
        }
      },
      "renounceRole(bytes32,address)": {
        "details": "Revokes `role` from the calling account. Roles are often managed via {grantRole} and {revokeRole}: this function's purpose is to provide a mechanism for accounts to lose their privileges if they are compromised (such as when a trusted device is misplaced). If the calling account had been revoked `role`, emits a {RoleRevoked} event. Requirements: - the caller must be `account`."
      },
      "repayMP(uint256,address,uint256)": {
        "details": "Function to account for a repayment to a maturity pool (MP).",
        "params": {
          "borrower": "address where the debt will be reduced",
          "maturityDate": "maturity date / pool id where the asset should be accounted for",
          "repayAmount": "amount that it will be repaid in the MP"
        }
      },
      "revokeRole(bytes32,address)": {
        "details": "Revokes `role` from `account`. If `account` had been granted `role`, emits a {RoleRevoked} event. Requirements: - the caller must have ``role``'s admin role."
      },
      "supportsInterface(bytes4)": {
        "details": "See {IERC165-supportsInterface}."
      },
      "withdrawMP(uint256,address,uint256,uint256)": {
        "details": "Function to account for a withdraw from a maturity pool (MP).",
        "params": {
          "amount": "amount that the redeemer will be extracting",
          "maturityDate": "maturity date / pool id where the asset should be accounted for",
          "maxSPDebt": "max amount of debt that can be taken from the SP in case of illiquidity",
          "redeemer": "address that should have the assets withdrawn"
        }
      }
    },
    "version": 1
  },
  "userdoc": {
    "kind": "user",
    "methods": {},
    "version": 1
  },
  "storageLayout": {
    "storage": [
      {
        "astId": 24,
        "contract": "contracts/PoolAccounting.sol:PoolAccounting",
        "label": "_roles",
        "offset": 0,
        "slot": "0",
        "type": "t_mapping(t_bytes32,t_struct(RoleData)19_storage)"
      },
      {
        "astId": 6922,
        "contract": "contracts/PoolAccounting.sol:PoolAccounting",
        "label": "mpUserSuppliedAmount",
        "offset": 0,
        "slot": "1",
        "type": "t_mapping(t_uint256,t_mapping(t_address,t_uint256))"
      },
      {
        "astId": 6928,
        "contract": "contracts/PoolAccounting.sol:PoolAccounting",
        "label": "mpUserBorrowedAmount",
        "offset": 0,
        "slot": "2",
        "type": "t_mapping(t_uint256,t_mapping(t_address,t_uint256))"
      },
      {
        "astId": 6933,
        "contract": "contracts/PoolAccounting.sol:PoolAccounting",
        "label": "userMpBorrowed",
        "offset": 0,
        "slot": "3",
        "type": "t_mapping(t_address,t_array(t_uint256)dyn_storage)"
      },
      {
        "astId": 6938,
        "contract": "contracts/PoolAccounting.sol:PoolAccounting",
        "label": "maturityPools",
        "offset": 0,
        "slot": "4",
        "type": "t_mapping(t_uint256,t_struct(MaturityPool)9945_storage)"
      },
      {
        "astId": 6941,
        "contract": "contracts/PoolAccounting.sol:PoolAccounting",
        "label": "smartPoolBorrowed",
        "offset": 0,
        "slot": "5",
        "type": "t_uint256"
      },
      {
        "astId": 6943,
        "contract": "contracts/PoolAccounting.sol:PoolAccounting",
        "label": "fixedLenderAddress",
        "offset": 0,
        "slot": "6",
        "type": "t_address"
      },
      {
        "astId": 6946,
        "contract": "contracts/PoolAccounting.sol:PoolAccounting",
        "label": "interestRateModel",
        "offset": 0,
        "slot": "7",
        "type": "t_contract(IInterestRateModel)9066"
      }
    ],
    "types": {
      "t_address": {
        "encoding": "inplace",
        "label": "address",
        "numberOfBytes": "20"
      },
      "t_array(t_uint256)dyn_storage": {
        "base": "t_uint256",
        "encoding": "dynamic_array",
        "label": "uint256[]",
        "numberOfBytes": "32"
      },
      "t_bool": {
        "encoding": "inplace",
        "label": "bool",
        "numberOfBytes": "1"
      },
      "t_bytes32": {
        "encoding": "inplace",
        "label": "bytes32",
        "numberOfBytes": "32"
      },
      "t_contract(IInterestRateModel)9066": {
        "encoding": "inplace",
        "label": "contract IInterestRateModel",
        "numberOfBytes": "20"
      },
      "t_mapping(t_address,t_array(t_uint256)dyn_storage)": {
        "encoding": "mapping",
        "key": "t_address",
        "label": "mapping(address => uint256[])",
        "numberOfBytes": "32",
        "value": "t_array(t_uint256)dyn_storage"
      },
      "t_mapping(t_address,t_bool)": {
        "encoding": "mapping",
        "key": "t_address",
        "label": "mapping(address => bool)",
        "numberOfBytes": "32",
        "value": "t_bool"
      },
      "t_mapping(t_address,t_uint256)": {
        "encoding": "mapping",
        "key": "t_address",
        "label": "mapping(address => uint256)",
        "numberOfBytes": "32",
        "value": "t_uint256"
      },
      "t_mapping(t_bytes32,t_struct(RoleData)19_storage)": {
        "encoding": "mapping",
        "key": "t_bytes32",
        "label": "mapping(bytes32 => struct AccessControl.RoleData)",
        "numberOfBytes": "32",
        "value": "t_struct(RoleData)19_storage"
      },
      "t_mapping(t_uint256,t_mapping(t_address,t_uint256))": {
        "encoding": "mapping",
        "key": "t_uint256",
        "label": "mapping(uint256 => mapping(address => uint256))",
        "numberOfBytes": "32",
        "value": "t_mapping(t_address,t_uint256)"
      },
      "t_mapping(t_uint256,t_struct(MaturityPool)9945_storage)": {
        "encoding": "mapping",
        "key": "t_uint256",
        "label": "mapping(uint256 => struct PoolLib.MaturityPool)",
        "numberOfBytes": "32",
        "value": "t_struct(MaturityPool)9945_storage"
      },
      "t_struct(MaturityPool)9945_storage": {
        "encoding": "inplace",
        "label": "struct PoolLib.MaturityPool",
        "members": [
          {
            "astId": 9932,
            "contract": "contracts/PoolAccounting.sol:PoolAccounting",
            "label": "borrowed",
            "offset": 0,
            "slot": "0",
            "type": "t_uint256"
          },
          {
            "astId": 9934,
            "contract": "contracts/PoolAccounting.sol:PoolAccounting",
            "label": "supplied",
            "offset": 0,
            "slot": "1",
            "type": "t_uint256"
          },
          {
            "astId": 9936,
            "contract": "contracts/PoolAccounting.sol:PoolAccounting",
            "label": "suppliedSP",
            "offset": 0,
            "slot": "2",
            "type": "t_uint256"
          },
          {
            "astId": 9938,
            "contract": "contracts/PoolAccounting.sol:PoolAccounting",
            "label": "unassignedEarnings",
            "offset": 0,
            "slot": "3",
            "type": "t_uint256"
          },
          {
            "astId": 9940,
            "contract": "contracts/PoolAccounting.sol:PoolAccounting",
            "label": "earningsMP",
            "offset": 0,
            "slot": "4",
            "type": "t_uint256"
          },
          {
            "astId": 9942,
            "contract": "contracts/PoolAccounting.sol:PoolAccounting",
            "label": "earningsSP",
            "offset": 0,
            "slot": "5",
            "type": "t_uint256"
          },
          {
            "astId": 9944,
            "contract": "contracts/PoolAccounting.sol:PoolAccounting",
            "label": "lastAccrue",
            "offset": 0,
            "slot": "6",
            "type": "t_uint256"
          }
        ],
        "numberOfBytes": "224"
      },
      "t_struct(RoleData)19_storage": {
        "encoding": "inplace",
        "label": "struct AccessControl.RoleData",
        "members": [
          {
            "astId": 16,
            "contract": "contracts/PoolAccounting.sol:PoolAccounting",
            "label": "members",
            "offset": 0,
            "slot": "0",
            "type": "t_mapping(t_address,t_bool)"
          },
          {
            "astId": 18,
            "contract": "contracts/PoolAccounting.sol:PoolAccounting",
            "label": "adminRole",
            "offset": 0,
            "slot": "1",
            "type": "t_bytes32"
          }
        ],
        "numberOfBytes": "64"
      },
      "t_uint256": {
        "encoding": "inplace",
        "label": "uint256",
        "numberOfBytes": "32"
      }
    }
  }
}